{
	"contracts/CrowdSourcing.sol": {
		"CrowdSourcing": {
			"abi": [
				{
					"inputs": [],
					"stateMutability": "nonpayable",
					"type": "constructor"
				},
				{
					"anonymous": false,
					"inputs": [
						{
							"indexed": false,
							"internalType": "uint256",
							"name": "deadline",
							"type": "uint256"
						},
						{
							"indexed": false,
							"internalType": "uint256",
							"name": "goalAmount",
							"type": "uint256"
						},
						{
							"indexed": false,
							"internalType": "uint256",
							"name": "totalFunded",
							"type": "uint256"
						},
						{
							"indexed": false,
							"internalType": "uint256",
							"name": "currentMileStoneTotalFunded",
							"type": "uint256"
						}
					],
					"name": "CurrentMilestoneStatus",
					"type": "event"
				},
				{
					"anonymous": false,
					"inputs": [
						{
							"indexed": false,
							"internalType": "uint256",
							"name": "projectIndex",
							"type": "uint256"
						}
					],
					"name": "ProjectCreated",
					"type": "event"
				},
				{
					"anonymous": false,
					"inputs": [
						{
							"indexed": false,
							"internalType": "uint256",
							"name": "projectIndex",
							"type": "uint256"
						},
						{
							"indexed": false,
							"internalType": "uint256",
							"name": "amount",
							"type": "uint256"
						},
						{
							"indexed": false,
							"internalType": "uint256",
							"name": "totalFunded",
							"type": "uint256"
						},
						{
							"indexed": false,
							"internalType": "uint256",
							"name": "currentMilestoneTotalFunded",
							"type": "uint256"
						}
					],
					"name": "ProjectFunded",
					"type": "event"
				},
				{
					"inputs": [
						{
							"internalType": "uint256",
							"name": "projectIndex",
							"type": "uint256"
						},
						{
							"components": [
								{
									"internalType": "uint256",
									"name": "goalAmount",
									"type": "uint256"
								},
								{
									"internalType": "uint256",
									"name": "deadline",
									"type": "uint256"
								}
							],
							"internalType": "struct MilestoneInfo[]",
							"name": "milestones",
							"type": "tuple[]"
						}
					],
					"name": "addNewMilestones",
					"outputs": [],
					"stateMutability": "nonpayable",
					"type": "function"
				},
				{
					"inputs": [
						{
							"internalType": "uint256",
							"name": "projectIndex",
							"type": "uint256"
						}
					],
					"name": "checkCurrentMilestone",
					"outputs": [],
					"stateMutability": "nonpayable",
					"type": "function"
				},
				{
					"inputs": [
						{
							"internalType": "string",
							"name": "name",
							"type": "string"
						},
						{
							"internalType": "string",
							"name": "headerImageUrl",
							"type": "string"
						},
						{
							"internalType": "string",
							"name": "description",
							"type": "string"
						},
						{
							"components": [
								{
									"internalType": "uint256",
									"name": "goalAmount",
									"type": "uint256"
								},
								{
									"internalType": "uint256",
									"name": "deadline",
									"type": "uint256"
								}
							],
							"internalType": "struct MilestoneInfo[]",
							"name": "milestones",
							"type": "tuple[]"
						}
					],
					"name": "createProject",
					"outputs": [],
					"stateMutability": "nonpayable",
					"type": "function"
				},
				{
					"inputs": [
						{
							"internalType": "uint256",
							"name": "projectIndex",
							"type": "uint256"
						}
					],
					"name": "fundProject",
					"outputs": [],
					"stateMutability": "payable",
					"type": "function"
				},
				{
					"inputs": [],
					"name": "getAllActiveProjects",
					"outputs": [
						{
							"components": [
								{
									"internalType": "address",
									"name": "creator",
									"type": "address"
								},
								{
									"internalType": "string",
									"name": "name",
									"type": "string"
								},
								{
									"internalType": "string",
									"name": "headerImageUrl",
									"type": "string"
								},
								{
									"internalType": "string",
									"name": "description",
									"type": "string"
								},
								{
									"internalType": "uint256",
									"name": "totalFunded",
									"type": "uint256"
								},
								{
									"internalType": "uint256",
									"name": "currentMilestoneIndex",
									"type": "uint256"
								},
								{
									"internalType": "bool",
									"name": "isActive",
									"type": "bool"
								}
							],
							"internalType": "struct ProjectView[]",
							"name": "",
							"type": "tuple[]"
						}
					],
					"stateMutability": "view",
					"type": "function"
				},
				{
					"inputs": [
						{
							"internalType": "uint256",
							"name": "projectIndex",
							"type": "uint256"
						}
					],
					"name": "getCurrentMilestoneFunders",
					"outputs": [
						{
							"internalType": "address[]",
							"name": "",
							"type": "address[]"
						}
					],
					"stateMutability": "view",
					"type": "function"
				},
				{
					"inputs": [
						{
							"internalType": "uint256",
							"name": "projectIndex",
							"type": "uint256"
						}
					],
					"name": "getCurrentMilestoneInfo",
					"outputs": [
						{
							"components": [
								{
									"internalType": "uint256",
									"name": "goalAmount",
									"type": "uint256"
								},
								{
									"internalType": "uint256",
									"name": "deadline",
									"type": "uint256"
								}
							],
							"internalType": "struct MilestoneInfo",
							"name": "",
							"type": "tuple"
						}
					],
					"stateMutability": "view",
					"type": "function"
				},
				{
					"inputs": [
						{
							"internalType": "uint256",
							"name": "projectIndex",
							"type": "uint256"
						}
					],
					"name": "getallMilestonesInfo",
					"outputs": [
						{
							"components": [
								{
									"internalType": "uint256",
									"name": "goalAmount",
									"type": "uint256"
								},
								{
									"internalType": "uint256",
									"name": "deadline",
									"type": "uint256"
								}
							],
							"internalType": "struct MilestoneInfo[]",
							"name": "",
							"type": "tuple[]"
						}
					],
					"stateMutability": "view",
					"type": "function"
				},
				{
					"inputs": [
						{
							"internalType": "uint256",
							"name": "",
							"type": "uint256"
						}
					],
					"name": "projects",
					"outputs": [
						{
							"internalType": "address",
							"name": "creator",
							"type": "address"
						},
						{
							"internalType": "string",
							"name": "name",
							"type": "string"
						},
						{
							"internalType": "string",
							"name": "headerImageUrl",
							"type": "string"
						},
						{
							"internalType": "string",
							"name": "description",
							"type": "string"
						},
						{
							"internalType": "uint256",
							"name": "totalFunded",
							"type": "uint256"
						},
						{
							"internalType": "uint256",
							"name": "currentMilestoneIndex",
							"type": "uint256"
						},
						{
							"internalType": "bool",
							"name": "isActive",
							"type": "bool"
						}
					],
					"stateMutability": "view",
					"type": "function"
				},
				{
					"inputs": [
						{
							"internalType": "uint256",
							"name": "projectIndex",
							"type": "uint256"
						}
					],
					"name": "stopProject",
					"outputs": [],
					"stateMutability": "nonpayable",
					"type": "function"
				},
				{
					"inputs": [],
					"name": "sysOwner",
					"outputs": [
						{
							"internalType": "address",
							"name": "",
							"type": "address"
						}
					],
					"stateMutability": "view",
					"type": "function"
				}
			],
			"devdoc": {
				"kind": "dev",
				"methods": {},
				"version": 1
			},
			"evm": {
				"assembly": "    /* \"contracts/CrowdSourcing.sol\":1835:12897  contract CrowdSourcing {... */\n  mstore(0x40, 0x80)\n    /* \"contracts/CrowdSourcing.sol\":2298:2352  constructor() {... */\n  callvalue\n  dup1\n  iszero\n  tag_1\n  jumpi\n  revert(0x00, 0x00)\ntag_1:\n  pop\n    /* \"contracts/CrowdSourcing.sol\":2334:2344  msg.sender */\n  caller\n    /* \"contracts/CrowdSourcing.sol\":2323:2331  sysOwner */\n  0x00\n  0x00\n    /* \"contracts/CrowdSourcing.sol\":2323:2344  sysOwner = msg.sender */\n  0x0100\n  exp\n  dup2\n  sload\n  dup2\n  0xffffffffffffffffffffffffffffffffffffffff\n  mul\n  not\n  and\n  swap1\n  dup4\n  0xffffffffffffffffffffffffffffffffffffffff\n  and\n  mul\n  or\n  swap1\n  sstore\n  pop\n    /* \"contracts/CrowdSourcing.sol\":1835:12897  contract CrowdSourcing {... */\n  dataSize(sub_0)\n  dup1\n  dataOffset(sub_0)\n  0x00\n  codecopy\n  0x00\n  return\nstop\n\nsub_0: assembly {\n        /* \"contracts/CrowdSourcing.sol\":1835:12897  contract CrowdSourcing {... */\n      mstore(0x40, 0x80)\n      jumpi(tag_1, lt(calldatasize, 0x04))\n      shr(0xe0, calldataload(0x00))\n      dup1\n      0x6c563abe\n      gt\n      tag_13\n      jumpi\n      dup1\n      0x6c563abe\n      eq\n      tag_7\n      jumpi\n      dup1\n      0x6db7a960\n      eq\n      tag_8\n      jumpi\n      dup1\n      0xae632181\n      eq\n      tag_9\n      jumpi\n      dup1\n      0xb99122af\n      eq\n      tag_10\n      jumpi\n      dup1\n      0xd8a5b36d\n      eq\n      tag_11\n      jumpi\n      dup1\n      0xf2ef441b\n      eq\n      tag_12\n      jumpi\n      jump(tag_1)\n    tag_13:\n      dup1\n      0x0e4877d6\n      eq\n      tag_2\n      jumpi\n      dup1\n      0x107046bd\n      eq\n      tag_3\n      jumpi\n      dup1\n      0x1a86e67d\n      eq\n      tag_4\n      jumpi\n      dup1\n      0x33ec0fc5\n      eq\n      tag_5\n      jumpi\n      dup1\n      0x4e94e824\n      eq\n      tag_6\n      jumpi\n    tag_1:\n      revert(0x00, 0x00)\n        /* \"contracts/CrowdSourcing.sol\":2232:2255  address public sysOwner */\n    tag_2:\n      callvalue\n      dup1\n      iszero\n      tag_14\n      jumpi\n      revert(0x00, 0x00)\n    tag_14:\n      pop\n      tag_15\n      tag_16\n      jump\t// in\n    tag_15:\n      mload(0x40)\n      tag_17\n      swap2\n      swap1\n      tag_18\n      jump\t// in\n    tag_17:\n      mload(0x40)\n      dup1\n      swap2\n      sub\n      swap1\n      return\n        /* \"contracts/CrowdSourcing.sol\":2264:2289  Project[] public projects */\n    tag_3:\n      callvalue\n      dup1\n      iszero\n      tag_19\n      jumpi\n      revert(0x00, 0x00)\n    tag_19:\n      pop\n      tag_20\n      0x04\n      dup1\n      calldatasize\n      sub\n      dup2\n      add\n      swap1\n      tag_21\n      swap2\n      swap1\n      tag_22\n      jump\t// in\n    tag_21:\n      tag_23\n      jump\t// in\n    tag_20:\n      mload(0x40)\n      tag_24\n      swap8\n      swap7\n      swap6\n      swap5\n      swap4\n      swap3\n      swap2\n      swap1\n      tag_25\n      jump\t// in\n    tag_24:\n      mload(0x40)\n      dup1\n      swap2\n      sub\n      swap1\n      return\n        /* \"contracts/CrowdSourcing.sol\":2360:3074  function createProject(... */\n    tag_4:\n      callvalue\n      dup1\n      iszero\n      tag_26\n      jumpi\n      revert(0x00, 0x00)\n    tag_26:\n      pop\n      tag_27\n      0x04\n      dup1\n      calldatasize\n      sub\n      dup2\n      add\n      swap1\n      tag_28\n      swap2\n      swap1\n      tag_29\n      jump\t// in\n    tag_28:\n      tag_30\n      jump\t// in\n    tag_27:\n      stop\n        /* \"contracts/CrowdSourcing.sol\":10922:11231  function getCurrentMilestoneFunders(uint projectIndex) external view returns(address[] memory) {... */\n    tag_5:\n      callvalue\n      dup1\n      iszero\n      tag_31\n      jumpi\n      revert(0x00, 0x00)\n    tag_31:\n      pop\n      tag_32\n      0x04\n      dup1\n      calldatasize\n      sub\n      dup2\n      add\n      swap1\n      tag_33\n      swap2\n      swap1\n      tag_22\n      jump\t// in\n    tag_33:\n      tag_34\n      jump\t// in\n    tag_32:\n      mload(0x40)\n      tag_35\n      swap2\n      swap1\n      tag_36\n      jump\t// in\n    tag_35:\n      mload(0x40)\n      dup1\n      swap2\n      sub\n      swap1\n      return\n        /* \"contracts/CrowdSourcing.sol\":5353:6038  function checkCurrentMilestone(uint projectIndex) external {... */\n    tag_6:\n      callvalue\n      dup1\n      iszero\n      tag_37\n      jumpi\n      revert(0x00, 0x00)\n    tag_37:\n      pop\n      tag_38\n      0x04\n      dup1\n      calldatasize\n      sub\n      dup2\n      add\n      swap1\n      tag_39\n      swap2\n      swap1\n      tag_22\n      jump\t// in\n    tag_39:\n      tag_40\n      jump\t// in\n    tag_38:\n      stop\n        /* \"contracts/CrowdSourcing.sol\":3082:5345  function fundProject(uint projectIndex) external payable {... */\n    tag_7:\n      tag_41\n      0x04\n      dup1\n      calldatasize\n      sub\n      dup2\n      add\n      swap1\n      tag_42\n      swap2\n      swap1\n      tag_22\n      jump\t// in\n    tag_42:\n      tag_43\n      jump\t// in\n    tag_41:\n      stop\n        /* \"contracts/CrowdSourcing.sol\":8251:8550  function stopProject(uint projectIndex) external {... */\n    tag_8:\n      callvalue\n      dup1\n      iszero\n      tag_44\n      jumpi\n      revert(0x00, 0x00)\n    tag_44:\n      pop\n      tag_45\n      0x04\n      dup1\n      calldatasize\n      sub\n      dup2\n      add\n      swap1\n      tag_46\n      swap2\n      swap1\n      tag_22\n      jump\t// in\n    tag_46:\n      tag_47\n      jump\t// in\n    tag_45:\n      stop\n        /* \"contracts/CrowdSourcing.sol\":8861:10579  function addNewMilestones(uint projectIndex, MilestoneInfo[] memory milestones) public {... */\n    tag_9:\n      callvalue\n      dup1\n      iszero\n      tag_48\n      jumpi\n      revert(0x00, 0x00)\n    tag_48:\n      pop\n      tag_49\n      0x04\n      dup1\n      calldatasize\n      sub\n      dup2\n      add\n      swap1\n      tag_50\n      swap2\n      swap1\n      tag_51\n      jump\t// in\n    tag_50:\n      tag_52\n      jump\t// in\n    tag_49:\n      stop\n        /* \"contracts/CrowdSourcing.sol\":10602:10914  function getCurrentMilestoneInfo(uint projectIndex) external view returns (MilestoneInfo memory) {... */\n    tag_10:\n      callvalue\n      dup1\n      iszero\n      tag_53\n      jumpi\n      revert(0x00, 0x00)\n    tag_53:\n      pop\n      tag_54\n      0x04\n      dup1\n      calldatasize\n      sub\n      dup2\n      add\n      swap1\n      tag_55\n      swap2\n      swap1\n      tag_22\n      jump\t// in\n    tag_55:\n      tag_56\n      jump\t// in\n    tag_54:\n      mload(0x40)\n      tag_57\n      swap2\n      swap1\n      tag_58\n      jump\t// in\n    tag_57:\n      mload(0x40)\n      dup1\n      swap2\n      sub\n      swap1\n      return\n        /* \"contracts/CrowdSourcing.sol\":11239:11744  function getallMilestonesInfo(uint projectIndex) external view returns (MilestoneInfo[] memory) {... */\n    tag_11:\n      callvalue\n      dup1\n      iszero\n      tag_59\n      jumpi\n      revert(0x00, 0x00)\n    tag_59:\n      pop\n      tag_60\n      0x04\n      dup1\n      calldatasize\n      sub\n      dup2\n      add\n      swap1\n      tag_61\n      swap2\n      swap1\n      tag_22\n      jump\t// in\n    tag_61:\n      tag_62\n      jump\t// in\n    tag_60:\n      mload(0x40)\n      tag_63\n      swap2\n      swap1\n      tag_64\n      jump\t// in\n    tag_63:\n      mload(0x40)\n      dup1\n      swap2\n      sub\n      swap1\n      return\n        /* \"contracts/CrowdSourcing.sol\":11752:12894  function getAllActiveProjects() external view returns (ProjectView[] memory) {... */\n    tag_12:\n      callvalue\n      dup1\n      iszero\n      tag_65\n      jumpi\n      revert(0x00, 0x00)\n    tag_65:\n      pop\n      tag_66\n      tag_67\n      jump\t// in\n    tag_66:\n      mload(0x40)\n      tag_68\n      swap2\n      swap1\n      tag_69\n      jump\t// in\n    tag_68:\n      mload(0x40)\n      dup1\n      swap2\n      sub\n      swap1\n      return\n        /* \"contracts/CrowdSourcing.sol\":2232:2255  address public sysOwner */\n    tag_16:\n      0x00\n      0x00\n      swap1\n      sload\n      swap1\n      0x0100\n      exp\n      swap1\n      div\n      0xffffffffffffffffffffffffffffffffffffffff\n      and\n      dup2\n      jump\t// out\n        /* \"contracts/CrowdSourcing.sol\":2264:2289  Project[] public projects */\n    tag_23:\n      0x01\n      dup2\n      dup2\n      sload\n      dup2\n      lt\n      tag_70\n      jumpi\n      0x00\n      dup1\n      revert\n    tag_70:\n      swap1\n      0x00\n      mstore\n      keccak256(0x00, 0x20)\n      swap1\n      0x08\n      mul\n      add\n      0x00\n      swap2\n      pop\n      swap1\n      pop\n      dup1\n      0x00\n      add\n      0x00\n      swap1\n      sload\n      swap1\n      0x0100\n      exp\n      swap1\n      div\n      0xffffffffffffffffffffffffffffffffffffffff\n      and\n      swap1\n      dup1\n      0x01\n      add\n      dup1\n      sload\n      tag_72\n      swap1\n      tag_73\n      jump\t// in\n    tag_72:\n      dup1\n      0x1f\n      add\n      0x20\n      dup1\n      swap2\n      div\n      mul\n      0x20\n      add\n      mload(0x40)\n      swap1\n      dup2\n      add\n      0x40\n      mstore\n      dup1\n      swap3\n      swap2\n      swap1\n      dup2\n      dup2\n      mstore\n      0x20\n      add\n      dup3\n      dup1\n      sload\n      tag_74\n      swap1\n      tag_73\n      jump\t// in\n    tag_74:\n      dup1\n      iszero\n      tag_75\n      jumpi\n      dup1\n      0x1f\n      lt\n      tag_76\n      jumpi\n      0x0100\n      dup1\n      dup4\n      sload\n      div\n      mul\n      dup4\n      mstore\n      swap2\n      0x20\n      add\n      swap2\n      jump(tag_75)\n    tag_76:\n      dup3\n      add\n      swap2\n      swap1\n      0x00\n      mstore\n      keccak256(0x00, 0x20)\n      swap1\n    tag_77:\n      dup2\n      sload\n      dup2\n      mstore\n      swap1\n      0x01\n      add\n      swap1\n      0x20\n      add\n      dup1\n      dup4\n      gt\n      tag_77\n      jumpi\n      dup3\n      swap1\n      sub\n      0x1f\n      and\n      dup3\n      add\n      swap2\n    tag_75:\n      pop\n      pop\n      pop\n      pop\n      pop\n      swap1\n      dup1\n      0x02\n      add\n      dup1\n      sload\n      tag_78\n      swap1\n      tag_73\n      jump\t// in\n    tag_78:\n      dup1\n      0x1f\n      add\n      0x20\n      dup1\n      swap2\n      div\n      mul\n      0x20\n      add\n      mload(0x40)\n      swap1\n      dup2\n      add\n      0x40\n      mstore\n      dup1\n      swap3\n      swap2\n      swap1\n      dup2\n      dup2\n      mstore\n      0x20\n      add\n      dup3\n      dup1\n      sload\n      tag_79\n      swap1\n      tag_73\n      jump\t// in\n    tag_79:\n      dup1\n      iszero\n      tag_80\n      jumpi\n      dup1\n      0x1f\n      lt\n      tag_81\n      jumpi\n      0x0100\n      dup1\n      dup4\n      sload\n      div\n      mul\n      dup4\n      mstore\n      swap2\n      0x20\n      add\n      swap2\n      jump(tag_80)\n    tag_81:\n      dup3\n      add\n      swap2\n      swap1\n      0x00\n      mstore\n      keccak256(0x00, 0x20)\n      swap1\n    tag_82:\n      dup2\n      sload\n      dup2\n      mstore\n      swap1\n      0x01\n      add\n      swap1\n      0x20\n      add\n      dup1\n      dup4\n      gt\n      tag_82\n      jumpi\n      dup3\n      swap1\n      sub\n      0x1f\n      and\n      dup3\n      add\n      swap2\n    tag_80:\n      pop\n      pop\n      pop\n      pop\n      pop\n      swap1\n      dup1\n      0x03\n      add\n      dup1\n      sload\n      tag_83\n      swap1\n      tag_73\n      jump\t// in\n    tag_83:\n      dup1\n      0x1f\n      add\n      0x20\n      dup1\n      swap2\n      div\n      mul\n      0x20\n      add\n      mload(0x40)\n      swap1\n      dup2\n      add\n      0x40\n      mstore\n      dup1\n      swap3\n      swap2\n      swap1\n      dup2\n      dup2\n      mstore\n      0x20\n      add\n      dup3\n      dup1\n      sload\n      tag_84\n      swap1\n      tag_73\n      jump\t// in\n    tag_84:\n      dup1\n      iszero\n      tag_85\n      jumpi\n      dup1\n      0x1f\n      lt\n      tag_86\n      jumpi\n      0x0100\n      dup1\n      dup4\n      sload\n      div\n      mul\n      dup4\n      mstore\n      swap2\n      0x20\n      add\n      swap2\n      jump(tag_85)\n    tag_86:\n      dup3\n      add\n      swap2\n      swap1\n      0x00\n      mstore\n      keccak256(0x00, 0x20)\n      swap1\n    tag_87:\n      dup2\n      sload\n      dup2\n      mstore\n      swap1\n      0x01\n      add\n      swap1\n      0x20\n      add\n      dup1\n      dup4\n      gt\n      tag_87\n      jumpi\n      dup3\n      swap1\n      sub\n      0x1f\n      and\n      dup3\n      add\n      swap2\n    tag_85:\n      pop\n      pop\n      pop\n      pop\n      pop\n      swap1\n      dup1\n      0x04\n      add\n      sload\n      swap1\n      dup1\n      0x05\n      add\n      sload\n      swap1\n      dup1\n      0x07\n      add\n      0x00\n      swap1\n      sload\n      swap1\n      0x0100\n      exp\n      swap1\n      div\n      0xff\n      and\n      swap1\n      pop\n      dup8\n      jump\t// out\n        /* \"contracts/CrowdSourcing.sol\":2360:3074  function createProject(... */\n    tag_30:\n        /* \"contracts/CrowdSourcing.sol\":2580:2588  sysOwner */\n      0x00\n      0x00\n      swap1\n      sload\n      swap1\n      0x0100\n      exp\n      swap1\n      div\n      0xffffffffffffffffffffffffffffffffffffffff\n      and\n        /* \"contracts/CrowdSourcing.sol\":2566:2588  msg.sender != sysOwner */\n      0xffffffffffffffffffffffffffffffffffffffff\n      and\n        /* \"contracts/CrowdSourcing.sol\":2566:2576  msg.sender */\n      caller\n        /* \"contracts/CrowdSourcing.sol\":2566:2588  msg.sender != sysOwner */\n      0xffffffffffffffffffffffffffffffffffffffff\n      and\n      sub\n        /* \"contracts/CrowdSourcing.sol\":2558:2627  require(msg.sender != sysOwner, \"System owner can't create projects\") */\n      tag_89\n      jumpi\n      mload(0x40)\n      0x08c379a000000000000000000000000000000000000000000000000000000000\n      dup2\n      mstore\n      0x04\n      add\n      tag_90\n      swap1\n      tag_91\n      jump\t// in\n    tag_90:\n      mload(0x40)\n      dup1\n      swap2\n      sub\n      swap1\n      revert\n    tag_89:\n        /* \"contracts/CrowdSourcing.sol\":2640:2663  Project storage project */\n      0x00\n        /* \"contracts/CrowdSourcing.sol\":2666:2674  projects */\n      0x01\n        /* \"contracts/CrowdSourcing.sol\":2666:2681  projects.push() */\n      dup1\n      dup2\n      0x01\n      dup2\n      sload\n      add\n      dup1\n      dup3\n      sstore\n      dup1\n      swap2\n      pop\n      pop\n      sub\n      swap1\n      0x00\n      mstore\n      keccak256(0x00, 0x20)\n      swap1\n      0x08\n      mul\n      add\n        /* \"contracts/CrowdSourcing.sol\":2640:2681  Project storage project = projects.push() */\n      swap1\n      pop\n        /* \"contracts/CrowdSourcing.sol\":2710:2720  msg.sender */\n      caller\n        /* \"contracts/CrowdSourcing.sol\":2692:2699  project */\n      dup2\n        /* \"contracts/CrowdSourcing.sol\":2692:2707  project.creator */\n      0x00\n      add\n      0x00\n        /* \"contracts/CrowdSourcing.sol\":2692:2720  project.creator = msg.sender */\n      0x0100\n      exp\n      dup2\n      sload\n      dup2\n      0xffffffffffffffffffffffffffffffffffffffff\n      mul\n      not\n      and\n      swap1\n      dup4\n      0xffffffffffffffffffffffffffffffffffffffff\n      and\n      mul\n      or\n      swap1\n      sstore\n      pop\n        /* \"contracts/CrowdSourcing.sol\":2746:2750  name */\n      dup5\n        /* \"contracts/CrowdSourcing.sol\":2731:2738  project */\n      dup2\n        /* \"contracts/CrowdSourcing.sol\":2731:2743  project.name */\n      0x01\n      add\n        /* \"contracts/CrowdSourcing.sol\":2731:2750  project.name = name */\n      swap1\n      dup2\n      tag_93\n      swap2\n      swap1\n      tag_94\n      jump\t// in\n    tag_93:\n      pop\n        /* \"contracts/CrowdSourcing.sol\":2786:2800  headerImageUrl */\n      dup4\n        /* \"contracts/CrowdSourcing.sol\":2761:2768  project */\n      dup2\n        /* \"contracts/CrowdSourcing.sol\":2761:2783  project.headerImageUrl */\n      0x02\n      add\n        /* \"contracts/CrowdSourcing.sol\":2761:2800  project.headerImageUrl = headerImageUrl */\n      swap1\n      dup2\n      tag_95\n      swap2\n      swap1\n      tag_94\n      jump\t// in\n    tag_95:\n      pop\n        /* \"contracts/CrowdSourcing.sol\":2833:2844  description */\n      dup3\n        /* \"contracts/CrowdSourcing.sol\":2811:2818  project */\n      dup2\n        /* \"contracts/CrowdSourcing.sol\":2811:2830  project.description */\n      0x03\n      add\n        /* \"contracts/CrowdSourcing.sol\":2811:2844  project.description = description */\n      swap1\n      dup2\n      tag_96\n      swap2\n      swap1\n      tag_94\n      jump\t// in\n    tag_96:\n      pop\n        /* \"contracts/CrowdSourcing.sol\":2877:2878  0 */\n      0x00\n        /* \"contracts/CrowdSourcing.sol\":2855:2862  project */\n      dup2\n        /* \"contracts/CrowdSourcing.sol\":2855:2874  project.totalFunded */\n      0x04\n      add\n        /* \"contracts/CrowdSourcing.sol\":2855:2878  project.totalFunded = 0 */\n      dup2\n      swap1\n      sstore\n      pop\n        /* \"contracts/CrowdSourcing.sol\":2921:2922  0 */\n      0x00\n        /* \"contracts/CrowdSourcing.sol\":2889:2896  project */\n      dup2\n        /* \"contracts/CrowdSourcing.sol\":2889:2918  project.currentMilestoneIndex */\n      0x05\n      add\n        /* \"contracts/CrowdSourcing.sol\":2889:2922  project.currentMilestoneIndex = 0 */\n      dup2\n      swap1\n      sstore\n      pop\n        /* \"contracts/CrowdSourcing.sol\":2952:2956  true */\n      0x01\n        /* \"contracts/CrowdSourcing.sol\":2933:2940  project */\n      dup2\n        /* \"contracts/CrowdSourcing.sol\":2933:2949  project.isActive */\n      0x07\n      add\n      0x00\n        /* \"contracts/CrowdSourcing.sol\":2933:2956  project.isActive = true */\n      0x0100\n      exp\n      dup2\n      sload\n      dup2\n      0xff\n      mul\n      not\n      and\n      swap1\n      dup4\n      iszero\n      iszero\n      mul\n      or\n      swap1\n      sstore\n      pop\n        /* \"contracts/CrowdSourcing.sol\":2969:3017  addNewMilestones(projects.length-1 , milestones) */\n      tag_97\n        /* \"contracts/CrowdSourcing.sol\":3002:3003  1 */\n      0x01\n        /* \"contracts/CrowdSourcing.sol\":2986:2994  projects */\n      dup1\n        /* \"contracts/CrowdSourcing.sol\":2986:3001  projects.length */\n      dup1\n      sload\n      swap1\n      pop\n        /* \"contracts/CrowdSourcing.sol\":2986:3003  projects.length-1 */\n      tag_98\n      swap2\n      swap1\n      tag_99\n      jump\t// in\n    tag_98:\n        /* \"contracts/CrowdSourcing.sol\":3006:3016  milestones */\n      dup4\n        /* \"contracts/CrowdSourcing.sol\":2969:2985  addNewMilestones */\n      tag_52\n        /* \"contracts/CrowdSourcing.sol\":2969:3017  addNewMilestones(projects.length-1 , milestones) */\n      jump\t// in\n    tag_97:\n        /* \"contracts/CrowdSourcing.sol\":3035:3066  ProjectCreated(projects.length) */\n      0x1ac2092e16e28eef29d1832f3dc69da1b21284a1f3159d3b26cb238b22fe4f8a\n        /* \"contracts/CrowdSourcing.sol\":3050:3058  projects */\n      0x01\n        /* \"contracts/CrowdSourcing.sol\":3050:3065  projects.length */\n      dup1\n      sload\n      swap1\n      pop\n        /* \"contracts/CrowdSourcing.sol\":3035:3066  ProjectCreated(projects.length) */\n      mload(0x40)\n      tag_100\n      swap2\n      swap1\n      tag_101\n      jump\t// in\n    tag_100:\n      mload(0x40)\n      dup1\n      swap2\n      sub\n      swap1\n      log1\n        /* \"contracts/CrowdSourcing.sol\":2547:3074  {... */\n      pop\n        /* \"contracts/CrowdSourcing.sol\":2360:3074  function createProject(... */\n      pop\n      pop\n      pop\n      pop\n      jump\t// out\n        /* \"contracts/CrowdSourcing.sol\":10922:11231  function getCurrentMilestoneFunders(uint projectIndex) external view returns(address[] memory) {... */\n    tag_34:\n        /* \"contracts/CrowdSourcing.sol\":10999:11015  address[] memory */\n      0x60\n        /* \"contracts/CrowdSourcing.sol\":11028:11051  Project storage project */\n      0x00\n        /* \"contracts/CrowdSourcing.sol\":11054:11062  projects */\n      0x01\n        /* \"contracts/CrowdSourcing.sol\":11063:11075  projectIndex */\n      dup4\n        /* \"contracts/CrowdSourcing.sol\":11054:11076  projects[projectIndex] */\n      dup2\n      sload\n      dup2\n      lt\n      tag_103\n      jumpi\n      tag_104\n      tag_105\n      jump\t// in\n    tag_104:\n    tag_103:\n      swap1\n      0x00\n      mstore\n      keccak256(0x00, 0x20)\n      swap1\n      0x08\n      mul\n      add\n        /* \"contracts/CrowdSourcing.sol\":11028:11076  Project storage project = projects[projectIndex] */\n      swap1\n      pop\n        /* \"contracts/CrowdSourcing.sol\":11087:11121  Milestone storage currentMilestone */\n      0x00\n        /* \"contracts/CrowdSourcing.sol\":11124:11131  project */\n      dup2\n        /* \"contracts/CrowdSourcing.sol\":11124:11142  project.milestones */\n      0x06\n      add\n        /* \"contracts/CrowdSourcing.sol\":11143:11150  project */\n      dup3\n        /* \"contracts/CrowdSourcing.sol\":11143:11172  project.currentMilestoneIndex */\n      0x05\n      add\n      sload\n        /* \"contracts/CrowdSourcing.sol\":11124:11173  project.milestones[project.currentMilestoneIndex] */\n      dup2\n      sload\n      dup2\n      lt\n      tag_107\n      jumpi\n      tag_108\n      tag_105\n      jump\t// in\n    tag_108:\n    tag_107:\n      swap1\n      0x00\n      mstore\n      keccak256(0x00, 0x20)\n      swap1\n      0x06\n      mul\n      add\n        /* \"contracts/CrowdSourcing.sol\":11087:11173  Milestone storage currentMilestone = project.milestones[project.currentMilestoneIndex] */\n      swap1\n      pop\n        /* \"contracts/CrowdSourcing.sol\":11191:11207  currentMilestone */\n      dup1\n        /* \"contracts/CrowdSourcing.sol\":11191:11223  currentMilestone.funderAddresses */\n      0x03\n      add\n        /* \"contracts/CrowdSourcing.sol\":11184:11223  return currentMilestone.funderAddresses */\n      dup1\n      sload\n      dup1\n      0x20\n      mul\n      0x20\n      add\n      mload(0x40)\n      swap1\n      dup2\n      add\n      0x40\n      mstore\n      dup1\n      swap3\n      swap2\n      swap1\n      dup2\n      dup2\n      mstore\n      0x20\n      add\n      dup3\n      dup1\n      sload\n      dup1\n      iszero\n      tag_110\n      jumpi\n      0x20\n      mul\n      dup3\n      add\n      swap2\n      swap1\n      0x00\n      mstore\n      keccak256(0x00, 0x20)\n      swap1\n    tag_111:\n      dup2\n      0x00\n      swap1\n      sload\n      swap1\n      0x0100\n      exp\n      swap1\n      div\n      0xffffffffffffffffffffffffffffffffffffffff\n      and\n      0xffffffffffffffffffffffffffffffffffffffff\n      and\n      dup2\n      mstore\n      0x20\n      add\n      swap1\n      0x01\n      add\n      swap1\n      dup1\n      dup4\n      gt\n      tag_111\n      jumpi\n    tag_110:\n      pop\n      pop\n      pop\n      pop\n      pop\n      swap3\n      pop\n      pop\n      pop\n        /* \"contracts/CrowdSourcing.sol\":10922:11231  function getCurrentMilestoneFunders(uint projectIndex) external view returns(address[] memory) {... */\n      swap2\n      swap1\n      pop\n      jump\t// out\n        /* \"contracts/CrowdSourcing.sol\":5353:6038  function checkCurrentMilestone(uint projectIndex) external {... */\n    tag_40:\n        /* \"contracts/CrowdSourcing.sol\":5446:5454  projects */\n      0x01\n        /* \"contracts/CrowdSourcing.sol\":5446:5461  projects.length */\n      dup1\n      sload\n      swap1\n      pop\n        /* \"contracts/CrowdSourcing.sol\":5431:5443  projectIndex */\n      dup2\n        /* \"contracts/CrowdSourcing.sol\":5431:5461  projectIndex < projects.length */\n      lt\n        /* \"contracts/CrowdSourcing.sol\":5423:5488  require(projectIndex < projects.length, \"Invalid projects index\") */\n      tag_113\n      jumpi\n      mload(0x40)\n      0x08c379a000000000000000000000000000000000000000000000000000000000\n      dup2\n      mstore\n      0x04\n      add\n      tag_114\n      swap1\n      tag_115\n      jump\t// in\n    tag_114:\n      mload(0x40)\n      dup1\n      swap2\n      sub\n      swap1\n      revert\n    tag_113:\n        /* \"contracts/CrowdSourcing.sol\":5499:5522  Project storage project */\n      0x00\n        /* \"contracts/CrowdSourcing.sol\":5525:5533  projects */\n      0x01\n        /* \"contracts/CrowdSourcing.sol\":5534:5546  projectIndex */\n      dup3\n        /* \"contracts/CrowdSourcing.sol\":5525:5547  projects[projectIndex] */\n      dup2\n      sload\n      dup2\n      lt\n      tag_116\n      jumpi\n      tag_117\n      tag_105\n      jump\t// in\n    tag_117:\n    tag_116:\n      swap1\n      0x00\n      mstore\n      keccak256(0x00, 0x20)\n      swap1\n      0x08\n      mul\n      add\n        /* \"contracts/CrowdSourcing.sol\":5499:5547  Project storage project = projects[projectIndex] */\n      swap1\n      pop\n        /* \"contracts/CrowdSourcing.sol\":5566:5573  project */\n      dup1\n        /* \"contracts/CrowdSourcing.sol\":5566:5582  project.isActive */\n      0x07\n      add\n      0x00\n      swap1\n      sload\n      swap1\n      0x0100\n      exp\n      swap1\n      div\n      0xff\n      and\n        /* \"contracts/CrowdSourcing.sol\":5558:5609  require(project.isActive, \"Project must be active\") */\n      tag_119\n      jumpi\n      mload(0x40)\n      0x08c379a000000000000000000000000000000000000000000000000000000000\n      dup2\n      mstore\n      0x04\n      add\n      tag_120\n      swap1\n      tag_121\n      jump\t// in\n    tag_120:\n      mload(0x40)\n      dup1\n      swap2\n      sub\n      swap1\n      revert\n    tag_119:\n        /* \"contracts/CrowdSourcing.sol\":5620:5654  Milestone storage currentMilestone */\n      0x00\n        /* \"contracts/CrowdSourcing.sol\":5657:5664  project */\n      dup2\n        /* \"contracts/CrowdSourcing.sol\":5657:5675  project.milestones */\n      0x06\n      add\n        /* \"contracts/CrowdSourcing.sol\":5690:5697  project */\n      dup3\n        /* \"contracts/CrowdSourcing.sol\":5690:5719  project.currentMilestoneIndex */\n      0x05\n      add\n      sload\n        /* \"contracts/CrowdSourcing.sol\":5657:5730  project.milestones[... */\n      dup2\n      sload\n      dup2\n      lt\n      tag_122\n      jumpi\n      tag_123\n      tag_105\n      jump\t// in\n    tag_123:\n    tag_122:\n      swap1\n      0x00\n      mstore\n      keccak256(0x00, 0x20)\n      swap1\n      0x06\n      mul\n      add\n        /* \"contracts/CrowdSourcing.sol\":5620:5730  Milestone storage currentMilestone = project.milestones[... */\n      swap1\n      pop\n        /* \"contracts/CrowdSourcing.sol\":5750:5766  currentMilestone */\n      dup1\n        /* \"contracts/CrowdSourcing.sol\":5750:5774  currentMilestone.reached */\n      0x05\n      add\n      0x00\n      swap1\n      sload\n      swap1\n      0x0100\n      exp\n      swap1\n      div\n      0xff\n      and\n        /* \"contracts/CrowdSourcing.sol\":5749:5774  !currentMilestone.reached */\n      iszero\n        /* \"contracts/CrowdSourcing.sol\":5741:5810  require(!currentMilestone.reached, \"Milestone should be not reached\") */\n      tag_125\n      jumpi\n      mload(0x40)\n      0x08c379a000000000000000000000000000000000000000000000000000000000\n      dup2\n      mstore\n      0x04\n      add\n      tag_126\n      swap1\n      tag_127\n      jump\t// in\n    tag_126:\n      mload(0x40)\n      dup1\n      swap2\n      sub\n      swap1\n      revert\n    tag_125:\n        /* \"contracts/CrowdSourcing.sol\":5828:6030  CurrentMilestoneStatus(... */\n      0x3f9ee693372748925082c0c5ba09ecffc5fddfeecf993becff877eac8a1e08bc\n        /* \"contracts/CrowdSourcing.sol\":5865:5881  currentMilestone */\n      dup2\n        /* \"contracts/CrowdSourcing.sol\":5865:5886  currentMilestone.info */\n      0x00\n      add\n        /* \"contracts/CrowdSourcing.sol\":5865:5895  currentMilestone.info.deadline */\n      0x01\n      add\n      sload\n        /* \"contracts/CrowdSourcing.sol\":5910:5926  currentMilestone */\n      dup3\n        /* \"contracts/CrowdSourcing.sol\":5910:5931  currentMilestone.info */\n      0x00\n      add\n        /* \"contracts/CrowdSourcing.sol\":5910:5942  currentMilestone.info.goalAmount */\n      0x00\n      add\n      sload\n        /* \"contracts/CrowdSourcing.sol\":5957:5964  project */\n      dup5\n        /* \"contracts/CrowdSourcing.sol\":5957:5976  project.totalFunded */\n      0x04\n      add\n      sload\n        /* \"contracts/CrowdSourcing.sol\":5991:6007  currentMilestone */\n      dup5\n        /* \"contracts/CrowdSourcing.sol\":5991:6019  currentMilestone.totalFunded */\n      0x02\n      add\n      sload\n        /* \"contracts/CrowdSourcing.sol\":5828:6030  CurrentMilestoneStatus(... */\n      mload(0x40)\n      tag_128\n      swap5\n      swap4\n      swap3\n      swap2\n      swap1\n      tag_129\n      jump\t// in\n    tag_128:\n      mload(0x40)\n      dup1\n      swap2\n      sub\n      swap1\n      log1\n        /* \"contracts/CrowdSourcing.sol\":5412:6038  {... */\n      pop\n      pop\n        /* \"contracts/CrowdSourcing.sol\":5353:6038  function checkCurrentMilestone(uint projectIndex) external {... */\n      pop\n      jump\t// out\n        /* \"contracts/CrowdSourcing.sol\":3082:5345  function fundProject(uint projectIndex) external payable {... */\n    tag_43:\n        /* \"contracts/CrowdSourcing.sol\":3173:3181  projects */\n      0x01\n        /* \"contracts/CrowdSourcing.sol\":3173:3188  projects.length */\n      dup1\n      sload\n      swap1\n      pop\n        /* \"contracts/CrowdSourcing.sol\":3158:3170  projectIndex */\n      dup2\n        /* \"contracts/CrowdSourcing.sol\":3158:3188  projectIndex < projects.length */\n      lt\n        /* \"contracts/CrowdSourcing.sol\":3150:3214  require(projectIndex < projects.length, \"Project doesn't exist\") */\n      tag_131\n      jumpi\n      mload(0x40)\n      0x08c379a000000000000000000000000000000000000000000000000000000000\n      dup2\n      mstore\n      0x04\n      add\n      tag_132\n      swap1\n      tag_133\n      jump\t// in\n    tag_132:\n      mload(0x40)\n      dup1\n      swap2\n      sub\n      swap1\n      revert\n    tag_131:\n        /* \"contracts/CrowdSourcing.sol\":3260:3270  msg.sender */\n      caller\n        /* \"contracts/CrowdSourcing.sol\":3260:3278  msg.sender.balance */\n      0xffffffffffffffffffffffffffffffffffffffff\n      and\n      balance\n        /* \"contracts/CrowdSourcing.sol\":3247:3256  msg.value */\n      callvalue\n        /* \"contracts/CrowdSourcing.sol\":3247:3278  msg.value <= msg.sender.balance */\n      gt\n      iszero\n        /* \"contracts/CrowdSourcing.sol\":3225:3340  require(... */\n      tag_134\n      jumpi\n      mload(0x40)\n      0x08c379a000000000000000000000000000000000000000000000000000000000\n      dup2\n      mstore\n      0x04\n      add\n      tag_135\n      swap1\n      tag_136\n      jump\t// in\n    tag_135:\n      mload(0x40)\n      dup1\n      swap2\n      sub\n      swap1\n      revert\n    tag_134:\n        /* \"contracts/CrowdSourcing.sol\":3371:3372  0 */\n      0x00\n        /* \"contracts/CrowdSourcing.sol\":3359:3368  msg.value */\n      callvalue\n        /* \"contracts/CrowdSourcing.sol\":3359:3372  msg.value > 0 */\n      gt\n        /* \"contracts/CrowdSourcing.sol\":3351:3399  require(msg.value > 0, \"Fund amount can't be 0\") */\n      tag_137\n      jumpi\n      mload(0x40)\n      0x08c379a000000000000000000000000000000000000000000000000000000000\n      dup2\n      mstore\n      0x04\n      add\n      tag_138\n      swap1\n      tag_139\n      jump\t// in\n    tag_138:\n      mload(0x40)\n      dup1\n      swap2\n      sub\n      swap1\n      revert\n    tag_137:\n        /* \"contracts/CrowdSourcing.sol\":3412:3435  Project storage project */\n      0x00\n        /* \"contracts/CrowdSourcing.sol\":3438:3446  projects */\n      0x01\n        /* \"contracts/CrowdSourcing.sol\":3447:3459  projectIndex */\n      dup3\n        /* \"contracts/CrowdSourcing.sol\":3438:3460  projects[projectIndex] */\n      dup2\n      sload\n      dup2\n      lt\n      tag_140\n      jumpi\n      tag_141\n      tag_105\n      jump\t// in\n    tag_141:\n    tag_140:\n      swap1\n      0x00\n      mstore\n      keccak256(0x00, 0x20)\n      swap1\n      0x08\n      mul\n      add\n        /* \"contracts/CrowdSourcing.sol\":3412:3460  Project storage project = projects[projectIndex] */\n      swap1\n      pop\n        /* \"contracts/CrowdSourcing.sol\":3479:3486  project */\n      dup1\n        /* \"contracts/CrowdSourcing.sol\":3479:3495  project.isActive */\n      0x07\n      add\n      0x00\n      swap1\n      sload\n      swap1\n      0x0100\n      exp\n      swap1\n      div\n      0xff\n      and\n        /* \"contracts/CrowdSourcing.sol\":3471:3530  require(project.isActive, \"Project must be active to fund\") */\n      tag_143\n      jumpi\n      mload(0x40)\n      0x08c379a000000000000000000000000000000000000000000000000000000000\n      dup2\n      mstore\n      0x04\n      add\n      tag_144\n      swap1\n      tag_145\n      jump\t// in\n    tag_144:\n      mload(0x40)\n      dup1\n      swap2\n      sub\n      swap1\n      revert\n    tag_143:\n        /* \"contracts/CrowdSourcing.sol\":3543:3577  Milestone storage currentMilestone */\n      0x00\n        /* \"contracts/CrowdSourcing.sol\":3580:3587  project */\n      dup2\n        /* \"contracts/CrowdSourcing.sol\":3580:3598  project.milestones */\n      0x06\n      add\n        /* \"contracts/CrowdSourcing.sol\":3613:3620  project */\n      dup3\n        /* \"contracts/CrowdSourcing.sol\":3613:3642  project.currentMilestoneIndex */\n      0x05\n      add\n      sload\n        /* \"contracts/CrowdSourcing.sol\":3580:3653  project.milestones[... */\n      dup2\n      sload\n      dup2\n      lt\n      tag_146\n      jumpi\n      tag_147\n      tag_105\n      jump\t// in\n    tag_147:\n    tag_146:\n      swap1\n      0x00\n      mstore\n      keccak256(0x00, 0x20)\n      swap1\n      0x06\n      mul\n      add\n        /* \"contracts/CrowdSourcing.sol\":3543:3653  Milestone storage currentMilestone = project.milestones[... */\n      swap1\n      pop\n        /* \"contracts/CrowdSourcing.sol\":3719:3734  block.timestamp */\n      timestamp\n        /* \"contracts/CrowdSourcing.sol\":3686:3702  currentMilestone */\n      dup2\n        /* \"contracts/CrowdSourcing.sol\":3686:3707  currentMilestone.info */\n      0x00\n      add\n        /* \"contracts/CrowdSourcing.sol\":3686:3716  currentMilestone.info.deadline */\n      0x01\n      add\n      sload\n        /* \"contracts/CrowdSourcing.sol\":3686:3734  currentMilestone.info.deadline > block.timestamp */\n      gt\n        /* \"contracts/CrowdSourcing.sol\":3664:3791  require(... */\n      tag_149\n      jumpi\n      mload(0x40)\n      0x08c379a000000000000000000000000000000000000000000000000000000000\n      dup2\n      mstore\n      0x04\n      add\n      tag_150\n      swap1\n      tag_151\n      jump\t// in\n    tag_150:\n      mload(0x40)\n      dup1\n      swap2\n      sub\n      swap1\n      revert\n    tag_149:\n        /* \"contracts/CrowdSourcing.sol\":3853:3854  0 */\n      0x00\n        /* \"contracts/CrowdSourcing.sol\":3813:3829  currentMilestone */\n      dup2\n        /* \"contracts/CrowdSourcing.sol\":3813:3837  currentMilestone.funders */\n      0x04\n      add\n        /* \"contracts/CrowdSourcing.sol\":3813:3849  currentMilestone.funders[msg.sender] */\n      0x00\n        /* \"contracts/CrowdSourcing.sol\":3838:3848  msg.sender */\n      caller\n        /* \"contracts/CrowdSourcing.sol\":3813:3849  currentMilestone.funders[msg.sender] */\n      0xffffffffffffffffffffffffffffffffffffffff\n      and\n      0xffffffffffffffffffffffffffffffffffffffff\n      and\n      dup2\n      mstore\n      0x20\n      add\n      swap1\n      dup2\n      mstore\n      0x20\n      add\n      0x00\n      keccak256\n      sload\n        /* \"contracts/CrowdSourcing.sol\":3813:3854  currentMilestone.funders[msg.sender] == 0 */\n      sub\n        /* \"contracts/CrowdSourcing.sol\":3809:3932  if (currentMilestone.funders[msg.sender] == 0) {... */\n      tag_152\n      jumpi\n        /* \"contracts/CrowdSourcing.sol\":3871:3887  currentMilestone */\n      dup1\n        /* \"contracts/CrowdSourcing.sol\":3871:3903  currentMilestone.funderAddresses */\n      0x03\n      add\n        /* \"contracts/CrowdSourcing.sol\":3909:3919  msg.sender */\n      caller\n        /* \"contracts/CrowdSourcing.sol\":3871:3920  currentMilestone.funderAddresses.push(msg.sender) */\n      swap1\n      dup1\n      0x01\n      dup2\n      sload\n      add\n      dup1\n      dup3\n      sstore\n      dup1\n      swap2\n      pop\n      pop\n      0x01\n      swap1\n      sub\n      swap1\n      0x00\n      mstore\n      keccak256(0x00, 0x20)\n      add\n      0x00\n      swap1\n      swap2\n      swap1\n      swap2\n      swap1\n      swap2\n      0x0100\n      exp\n      dup2\n      sload\n      dup2\n      0xffffffffffffffffffffffffffffffffffffffff\n      mul\n      not\n      and\n      swap1\n      dup4\n      0xffffffffffffffffffffffffffffffffffffffff\n      and\n      mul\n      or\n      swap1\n      sstore\n      pop\n        /* \"contracts/CrowdSourcing.sol\":3809:3932  if (currentMilestone.funders[msg.sender] == 0) {... */\n    tag_152:\n        /* \"contracts/CrowdSourcing.sol\":3984:3993  msg.value */\n      callvalue\n        /* \"contracts/CrowdSourcing.sol\":3944:3960  currentMilestone */\n      dup2\n        /* \"contracts/CrowdSourcing.sol\":3944:3968  currentMilestone.funders */\n      0x04\n      add\n        /* \"contracts/CrowdSourcing.sol\":3944:3980  currentMilestone.funders[msg.sender] */\n      0x00\n        /* \"contracts/CrowdSourcing.sol\":3969:3979  msg.sender */\n      caller\n        /* \"contracts/CrowdSourcing.sol\":3944:3980  currentMilestone.funders[msg.sender] */\n      0xffffffffffffffffffffffffffffffffffffffff\n      and\n      0xffffffffffffffffffffffffffffffffffffffff\n      and\n      dup2\n      mstore\n      0x20\n      add\n      swap1\n      dup2\n      mstore\n      0x20\n      add\n      0x00\n      keccak256\n      0x00\n        /* \"contracts/CrowdSourcing.sol\":3944:3993  currentMilestone.funders[msg.sender] += msg.value */\n      dup3\n      dup3\n      sload\n      tag_154\n      swap2\n      swap1\n      tag_155\n      jump\t// in\n    tag_154:\n      swap3\n      pop\n      pop\n      dup2\n      swap1\n      sstore\n      pop\n        /* \"contracts/CrowdSourcing.sol\":4036:4045  msg.value */\n      callvalue\n        /* \"contracts/CrowdSourcing.sol\":4004:4020  currentMilestone */\n      dup2\n        /* \"contracts/CrowdSourcing.sol\":4004:4032  currentMilestone.totalFunded */\n      0x02\n      add\n      0x00\n        /* \"contracts/CrowdSourcing.sol\":4004:4045  currentMilestone.totalFunded += msg.value */\n      dup3\n      dup3\n      sload\n      tag_156\n      swap2\n      swap1\n      tag_155\n      jump\t// in\n    tag_156:\n      swap3\n      pop\n      pop\n      dup2\n      swap1\n      sstore\n      pop\n        /* \"contracts/CrowdSourcing.sol\":4079:4088  msg.value */\n      callvalue\n        /* \"contracts/CrowdSourcing.sol\":4056:4063  project */\n      dup3\n        /* \"contracts/CrowdSourcing.sol\":4056:4075  project.totalFunded */\n      0x04\n      add\n      0x00\n        /* \"contracts/CrowdSourcing.sol\":4056:4088  project.totalFunded += msg.value */\n      dup3\n      dup3\n      sload\n      tag_157\n      swap2\n      swap1\n      tag_155\n      jump\t// in\n    tag_157:\n      swap3\n      pop\n      pop\n      dup2\n      swap1\n      sstore\n      pop\n        /* \"contracts/CrowdSourcing.sol\":4101:5168  while(project.totalFunded > currentMilestone.info.goalAmount) {... */\n    tag_158:\n        /* \"contracts/CrowdSourcing.sol\":4129:4145  currentMilestone */\n      dup1\n        /* \"contracts/CrowdSourcing.sol\":4129:4150  currentMilestone.info */\n      0x00\n      add\n        /* \"contracts/CrowdSourcing.sol\":4129:4161  currentMilestone.info.goalAmount */\n      0x00\n      add\n      sload\n        /* \"contracts/CrowdSourcing.sol\":4107:4114  project */\n      dup3\n        /* \"contracts/CrowdSourcing.sol\":4107:4126  project.totalFunded */\n      0x04\n      add\n      sload\n        /* \"contracts/CrowdSourcing.sol\":4107:4161  project.totalFunded > currentMilestone.info.goalAmount */\n      gt\n        /* \"contracts/CrowdSourcing.sol\":4101:5168  while(project.totalFunded > currentMilestone.info.goalAmount) {... */\n      iszero\n      tag_159\n      jumpi\n        /* \"contracts/CrowdSourcing.sol\":4180:4192  uint surplus */\n      0x00\n        /* \"contracts/CrowdSourcing.sol\":4217:4233  currentMilestone */\n      dup2\n        /* \"contracts/CrowdSourcing.sol\":4217:4238  currentMilestone.info */\n      0x00\n      add\n        /* \"contracts/CrowdSourcing.sol\":4217:4249  currentMilestone.info.goalAmount */\n      0x00\n      add\n      sload\n        /* \"contracts/CrowdSourcing.sol\":4195:4202  project */\n      dup4\n        /* \"contracts/CrowdSourcing.sol\":4195:4214  project.totalFunded */\n      0x04\n      add\n      sload\n        /* \"contracts/CrowdSourcing.sol\":4195:4249  project.totalFunded - currentMilestone.info.goalAmount */\n      tag_160\n      swap2\n      swap1\n      tag_99\n      jump\t// in\n    tag_160:\n        /* \"contracts/CrowdSourcing.sol\":4180:4249  uint surplus = project.totalFunded - currentMilestone.info.goalAmount */\n      swap1\n      pop\n        /* \"contracts/CrowdSourcing.sol\":4295:4311  currentMilestone */\n      dup2\n        /* \"contracts/CrowdSourcing.sol\":4295:4316  currentMilestone.info */\n      0x00\n      add\n        /* \"contracts/CrowdSourcing.sol\":4295:4327  currentMilestone.info.goalAmount */\n      0x00\n      add\n      sload\n        /* \"contracts/CrowdSourcing.sol\":4264:4280  currentMilestone */\n      dup3\n        /* \"contracts/CrowdSourcing.sol\":4264:4292  currentMilestone.totalFunded */\n      0x02\n      add\n        /* \"contracts/CrowdSourcing.sol\":4264:4327  currentMilestone.totalFunded = currentMilestone.info.goalAmount */\n      dup2\n      swap1\n      sstore\n      pop\n        /* \"contracts/CrowdSourcing.sol\":4364:4380  currentMilestone */\n      dup2\n        /* \"contracts/CrowdSourcing.sol\":4364:4385  currentMilestone.info */\n      0x00\n      add\n        /* \"contracts/CrowdSourcing.sol\":4364:4396  currentMilestone.info.goalAmount */\n      0x00\n      add\n      sload\n        /* \"contracts/CrowdSourcing.sol\":4342:4349  project */\n      dup4\n        /* \"contracts/CrowdSourcing.sol\":4342:4361  project.totalFunded */\n      0x04\n      add\n        /* \"contracts/CrowdSourcing.sol\":4342:4396  project.totalFunded = currentMilestone.info.goalAmount */\n      dup2\n      swap1\n      sstore\n      pop\n        /* \"contracts/CrowdSourcing.sol\":4451:4458  surplus */\n      dup1\n        /* \"contracts/CrowdSourcing.sol\":4411:4427  currentMilestone */\n      dup3\n        /* \"contracts/CrowdSourcing.sol\":4411:4435  currentMilestone.funders */\n      0x04\n      add\n        /* \"contracts/CrowdSourcing.sol\":4411:4447  currentMilestone.funders[msg.sender] */\n      0x00\n        /* \"contracts/CrowdSourcing.sol\":4436:4446  msg.sender */\n      caller\n        /* \"contracts/CrowdSourcing.sol\":4411:4447  currentMilestone.funders[msg.sender] */\n      0xffffffffffffffffffffffffffffffffffffffff\n      and\n      0xffffffffffffffffffffffffffffffffffffffff\n      and\n      dup2\n      mstore\n      0x20\n      add\n      swap1\n      dup2\n      mstore\n      0x20\n      add\n      0x00\n      keccak256\n      0x00\n        /* \"contracts/CrowdSourcing.sol\":4411:4458  currentMilestone.funders[msg.sender] -= surplus */\n      dup3\n      dup3\n      sload\n      tag_161\n      swap2\n      swap1\n      tag_99\n      jump\t// in\n    tag_161:\n      swap3\n      pop\n      pop\n      dup2\n      swap1\n      sstore\n      pop\n        /* \"contracts/CrowdSourcing.sol\":4551:4552  1 */\n      0x01\n        /* \"contracts/CrowdSourcing.sol\":4523:4530  project */\n      dup4\n        /* \"contracts/CrowdSourcing.sol\":4523:4541  project.milestones */\n      0x06\n      add\n        /* \"contracts/CrowdSourcing.sol\":4523:4548  project.milestones.length */\n      dup1\n      sload\n      swap1\n      pop\n        /* \"contracts/CrowdSourcing.sol\":4523:4552  project.milestones.length - 1 */\n      tag_162\n      swap2\n      swap1\n      tag_99\n      jump\t// in\n    tag_162:\n        /* \"contracts/CrowdSourcing.sol\":4490:4497  project */\n      dup4\n        /* \"contracts/CrowdSourcing.sol\":4490:4519  project.currentMilestoneIndex */\n      0x05\n      add\n      sload\n        /* \"contracts/CrowdSourcing.sol\":4490:4552  project.currentMilestoneIndex == project.milestones.length - 1 */\n      sub\n        /* \"contracts/CrowdSourcing.sol\":4487:5157  if(project.currentMilestoneIndex == project.milestones.length - 1) {... */\n      tag_163\n      jumpi\n        /* \"contracts/CrowdSourcing.sol\":4592:4597  false */\n      0x00\n        /* \"contracts/CrowdSourcing.sol\":4573:4580  project */\n      dup4\n        /* \"contracts/CrowdSourcing.sol\":4573:4589  project.isActive */\n      0x07\n      add\n      0x00\n        /* \"contracts/CrowdSourcing.sol\":4573:4597  project.isActive = false */\n      0x0100\n      exp\n      dup2\n      sload\n      dup2\n      0xff\n      mul\n      not\n      and\n      swap1\n      dup4\n      iszero\n      iszero\n      mul\n      or\n      swap1\n      sstore\n      pop\n        /* \"contracts/CrowdSourcing.sol\":4617:4629  bool success */\n      0x00\n        /* \"contracts/CrowdSourcing.sol\":4635:4645  msg.sender */\n      caller\n        /* \"contracts/CrowdSourcing.sol\":4635:4650  msg.sender.call */\n      0xffffffffffffffffffffffffffffffffffffffff\n      and\n        /* \"contracts/CrowdSourcing.sol\":4658:4665  surplus */\n      dup3\n        /* \"contracts/CrowdSourcing.sol\":4635:4670  msg.sender.call{value: surplus}(\"\") */\n      mload(0x40)\n      tag_164\n      swap1\n      tag_165\n      jump\t// in\n    tag_164:\n      0x00\n      mload(0x40)\n      dup1\n      dup4\n      sub\n      dup2\n      dup6\n      dup8\n      gas\n      call\n      swap3\n      pop\n      pop\n      pop\n      returndatasize\n      dup1\n      0x00\n      dup2\n      eq\n      tag_168\n      jumpi\n      mload(0x40)\n      swap2\n      pop\n      and(add(returndatasize, 0x3f), not(0x1f))\n      dup3\n      add\n      0x40\n      mstore\n      returndatasize\n      dup3\n      mstore\n      returndatasize\n      0x00\n      0x20\n      dup5\n      add\n      returndatacopy\n      jump(tag_167)\n    tag_168:\n      0x60\n      swap2\n      pop\n    tag_167:\n      pop\n        /* \"contracts/CrowdSourcing.sol\":4616:4670  (bool success, ) = msg.sender.call{value: surplus}(\"\") */\n      pop\n      swap1\n      pop\n        /* \"contracts/CrowdSourcing.sol\":4697:4704  success */\n      dup1\n        /* \"contracts/CrowdSourcing.sol\":4689:4733  require(success, \"Failed to return surplus\") */\n      tag_169\n      jumpi\n      mload(0x40)\n      0x08c379a000000000000000000000000000000000000000000000000000000000\n      dup2\n      mstore\n      0x04\n      add\n      tag_170\n      swap1\n      tag_171\n      jump\t// in\n    tag_170:\n      mload(0x40)\n      dup1\n      swap2\n      sub\n      swap1\n      revert\n    tag_169:\n        /* \"contracts/CrowdSourcing.sol\":4554:4753  {... */\n      pop\n        /* \"contracts/CrowdSourcing.sol\":4487:5157  if(project.currentMilestoneIndex == project.milestones.length - 1) {... */\n      jump(tag_172)\n    tag_163:\n        /* \"contracts/CrowdSourcing.sol\":4778:4813  initiateNextMilestone(projectIndex) */\n      tag_173\n        /* \"contracts/CrowdSourcing.sol\":4800:4812  projectIndex */\n      dup5\n        /* \"contracts/CrowdSourcing.sol\":4778:4799  initiateNextMilestone */\n      tag_174\n        /* \"contracts/CrowdSourcing.sol\":4778:4813  initiateNextMilestone(projectIndex) */\n      jump\t// in\n    tag_173:\n        /* \"contracts/CrowdSourcing.sol\":4851:4858  project */\n      dup3\n        /* \"contracts/CrowdSourcing.sol\":4851:4869  project.milestones */\n      0x06\n      add\n        /* \"contracts/CrowdSourcing.sol\":4870:4877  project */\n      dup4\n        /* \"contracts/CrowdSourcing.sol\":4870:4899  project.currentMilestoneIndex */\n      0x05\n      add\n      sload\n        /* \"contracts/CrowdSourcing.sol\":4851:4900  project.milestones[project.currentMilestoneIndex] */\n      dup2\n      sload\n      dup2\n      lt\n      tag_175\n      jumpi\n      tag_176\n      tag_105\n      jump\t// in\n    tag_176:\n    tag_175:\n      swap1\n      0x00\n      mstore\n      keccak256(0x00, 0x20)\n      swap1\n      0x06\n      mul\n      add\n        /* \"contracts/CrowdSourcing.sol\":4832:4900  currentMilestone = project.milestones[project.currentMilestoneIndex] */\n      swap2\n      pop\n        /* \"contracts/CrowdSourcing.sol\":4919:4935  currentMilestone */\n      dup2\n        /* \"contracts/CrowdSourcing.sol\":4919:4951  currentMilestone.funderAddresses */\n      0x03\n      add\n        /* \"contracts/CrowdSourcing.sol\":4957:4967  msg.sender */\n      caller\n        /* \"contracts/CrowdSourcing.sol\":4919:4968  currentMilestone.funderAddresses.push(msg.sender) */\n      swap1\n      dup1\n      0x01\n      dup2\n      sload\n      add\n      dup1\n      dup3\n      sstore\n      dup1\n      swap2\n      pop\n      pop\n      0x01\n      swap1\n      sub\n      swap1\n      0x00\n      mstore\n      keccak256(0x00, 0x20)\n      add\n      0x00\n      swap1\n      swap2\n      swap1\n      swap2\n      swap1\n      swap2\n      0x0100\n      exp\n      dup2\n      sload\n      dup2\n      0xffffffffffffffffffffffffffffffffffffffff\n      mul\n      not\n      and\n      swap1\n      dup4\n      0xffffffffffffffffffffffffffffffffffffffff\n      and\n      mul\n      or\n      swap1\n      sstore\n      pop\n        /* \"contracts/CrowdSourcing.sol\":5027:5034  surplus */\n      dup1\n        /* \"contracts/CrowdSourcing.sol\":4987:5003  currentMilestone */\n      dup3\n        /* \"contracts/CrowdSourcing.sol\":4987:5011  currentMilestone.funders */\n      0x04\n      add\n        /* \"contracts/CrowdSourcing.sol\":4987:5023  currentMilestone.funders[msg.sender] */\n      0x00\n        /* \"contracts/CrowdSourcing.sol\":5012:5022  msg.sender */\n      caller\n        /* \"contracts/CrowdSourcing.sol\":4987:5023  currentMilestone.funders[msg.sender] */\n      0xffffffffffffffffffffffffffffffffffffffff\n      and\n      0xffffffffffffffffffffffffffffffffffffffff\n      and\n      dup2\n      mstore\n      0x20\n      add\n      swap1\n      dup2\n      mstore\n      0x20\n      add\n      0x00\n      keccak256\n      0x00\n        /* \"contracts/CrowdSourcing.sol\":4987:5034  currentMilestone.funders[msg.sender] += surplus */\n      dup3\n      dup3\n      sload\n      tag_179\n      swap2\n      swap1\n      tag_155\n      jump\t// in\n    tag_179:\n      swap3\n      pop\n      pop\n      dup2\n      swap1\n      sstore\n      pop\n        /* \"contracts/CrowdSourcing.sol\":5085:5092  surplus */\n      dup1\n        /* \"contracts/CrowdSourcing.sol\":5053:5069  currentMilestone */\n      dup3\n        /* \"contracts/CrowdSourcing.sol\":5053:5081  currentMilestone.totalFunded */\n      0x02\n      add\n      0x00\n        /* \"contracts/CrowdSourcing.sol\":5053:5092  currentMilestone.totalFunded += surplus */\n      dup3\n      dup3\n      sload\n      tag_180\n      swap2\n      swap1\n      tag_155\n      jump\t// in\n    tag_180:\n      swap3\n      pop\n      pop\n      dup2\n      swap1\n      sstore\n      pop\n        /* \"contracts/CrowdSourcing.sol\":5134:5141  surplus */\n      dup1\n        /* \"contracts/CrowdSourcing.sol\":5111:5118  project */\n      dup4\n        /* \"contracts/CrowdSourcing.sol\":5111:5130  project.totalFunded */\n      0x04\n      add\n      0x00\n        /* \"contracts/CrowdSourcing.sol\":5111:5141  project.totalFunded += surplus */\n      dup3\n      dup3\n      sload\n      tag_181\n      swap2\n      swap1\n      tag_155\n      jump\t// in\n    tag_181:\n      swap3\n      pop\n      pop\n      dup2\n      swap1\n      sstore\n      pop\n        /* \"contracts/CrowdSourcing.sol\":4487:5157  if(project.currentMilestoneIndex == project.milestones.length - 1) {... */\n    tag_172:\n        /* \"contracts/CrowdSourcing.sol\":4163:5168  {... */\n      pop\n        /* \"contracts/CrowdSourcing.sol\":4101:5168  while(project.totalFunded > currentMilestone.info.goalAmount) {... */\n      jump(tag_158)\n    tag_159:\n        /* \"contracts/CrowdSourcing.sol\":5185:5337  ProjectFunded(... */\n      0x17e2effa169c5dde193942abd21f6d49e7d32c15ab843da440cb2abdd10f1911\n        /* \"contracts/CrowdSourcing.sol\":5213:5225  projectIndex */\n      dup4\n        /* \"contracts/CrowdSourcing.sol\":5240:5249  msg.value */\n      callvalue\n        /* \"contracts/CrowdSourcing.sol\":5264:5271  project */\n      dup5\n        /* \"contracts/CrowdSourcing.sol\":5264:5283  project.totalFunded */\n      0x04\n      add\n      sload\n        /* \"contracts/CrowdSourcing.sol\":5298:5314  currentMilestone */\n      dup5\n        /* \"contracts/CrowdSourcing.sol\":5298:5326  currentMilestone.totalFunded */\n      0x02\n      add\n      sload\n        /* \"contracts/CrowdSourcing.sol\":5185:5337  ProjectFunded(... */\n      mload(0x40)\n      tag_182\n      swap5\n      swap4\n      swap3\n      swap2\n      swap1\n      tag_129\n      jump\t// in\n    tag_182:\n      mload(0x40)\n      dup1\n      swap2\n      sub\n      swap1\n      log1\n        /* \"contracts/CrowdSourcing.sol\":3139:5345  {... */\n      pop\n      pop\n        /* \"contracts/CrowdSourcing.sol\":3082:5345  function fundProject(uint projectIndex) external payable {... */\n      pop\n      jump\t// out\n        /* \"contracts/CrowdSourcing.sol\":8251:8550  function stopProject(uint projectIndex) external {... */\n    tag_47:\n        /* \"contracts/CrowdSourcing.sol\":8347:8355  sysOwner */\n      0x00\n      0x00\n      swap1\n      sload\n      swap1\n      0x0100\n      exp\n      swap1\n      div\n      0xffffffffffffffffffffffffffffffffffffffff\n      and\n        /* \"contracts/CrowdSourcing.sol\":8333:8355  msg.sender == sysOwner */\n      0xffffffffffffffffffffffffffffffffffffffff\n      and\n        /* \"contracts/CrowdSourcing.sol\":8333:8343  msg.sender */\n      caller\n        /* \"contracts/CrowdSourcing.sol\":8333:8355  msg.sender == sysOwner */\n      0xffffffffffffffffffffffffffffffffffffffff\n      and\n      eq\n        /* \"contracts/CrowdSourcing.sol\":8333:8420  msg.sender == sysOwner ||... */\n      dup1\n      tag_184\n      jumpi\n      pop\n        /* \"contracts/CrowdSourcing.sol\":8390:8398  projects */\n      0x01\n        /* \"contracts/CrowdSourcing.sol\":8399:8411  projectIndex */\n      dup2\n        /* \"contracts/CrowdSourcing.sol\":8390:8412  projects[projectIndex] */\n      dup2\n      sload\n      dup2\n      lt\n      tag_185\n      jumpi\n      tag_186\n      tag_105\n      jump\t// in\n    tag_186:\n    tag_185:\n      swap1\n      0x00\n      mstore\n      keccak256(0x00, 0x20)\n      swap1\n      0x08\n      mul\n      add\n        /* \"contracts/CrowdSourcing.sol\":8390:8420  projects[projectIndex].creator */\n      0x00\n      add\n      0x00\n      swap1\n      sload\n      swap1\n      0x0100\n      exp\n      swap1\n      div\n      0xffffffffffffffffffffffffffffffffffffffff\n      and\n        /* \"contracts/CrowdSourcing.sol\":8376:8420  msg.sender == projects[projectIndex].creator */\n      0xffffffffffffffffffffffffffffffffffffffff\n      and\n        /* \"contracts/CrowdSourcing.sol\":8376:8386  msg.sender */\n      caller\n        /* \"contracts/CrowdSourcing.sol\":8376:8420  msg.sender == projects[projectIndex].creator */\n      0xffffffffffffffffffffffffffffffffffffffff\n      and\n      eq\n        /* \"contracts/CrowdSourcing.sol\":8333:8420  msg.sender == sysOwner ||... */\n    tag_184:\n        /* \"contracts/CrowdSourcing.sol\":8311:8500  require(... */\n      tag_188\n      jumpi\n      mload(0x40)\n      0x08c379a000000000000000000000000000000000000000000000000000000000\n      dup2\n      mstore\n      0x04\n      add\n      tag_189\n      swap1\n      tag_190\n      jump\t// in\n    tag_189:\n      mload(0x40)\n      dup1\n      swap2\n      sub\n      swap1\n      revert\n    tag_188:\n        /* \"contracts/CrowdSourcing.sol\":8511:8542  stopProjectHelper(projectIndex) */\n      tag_191\n        /* \"contracts/CrowdSourcing.sol\":8529:8541  projectIndex */\n      dup2\n        /* \"contracts/CrowdSourcing.sol\":8511:8528  stopProjectHelper */\n      tag_192\n        /* \"contracts/CrowdSourcing.sol\":8511:8542  stopProjectHelper(projectIndex) */\n      jump\t// in\n    tag_191:\n        /* \"contracts/CrowdSourcing.sol\":8251:8550  function stopProject(uint projectIndex) external {... */\n      pop\n      jump\t// out\n        /* \"contracts/CrowdSourcing.sol\":8861:10579  function addNewMilestones(uint projectIndex, MilestoneInfo[] memory milestones) public {... */\n    tag_52:\n        /* \"contracts/CrowdSourcing.sol\":8982:8990  projects */\n      0x01\n        /* \"contracts/CrowdSourcing.sol\":8982:8997  projects.length */\n      dup1\n      sload\n      swap1\n      pop\n        /* \"contracts/CrowdSourcing.sol\":8967:8979  projectIndex */\n      dup3\n        /* \"contracts/CrowdSourcing.sol\":8967:8997  projectIndex < projects.length */\n      lt\n        /* \"contracts/CrowdSourcing.sol\":8959:9024  require(projectIndex < projects.length, \"Invalid projects index\") */\n      tag_194\n      jumpi\n      mload(0x40)\n      0x08c379a000000000000000000000000000000000000000000000000000000000\n      dup2\n      mstore\n      0x04\n      add\n      tag_195\n      swap1\n      tag_115\n      jump\t// in\n    tag_195:\n      mload(0x40)\n      dup1\n      swap2\n      sub\n      swap1\n      revert\n    tag_194:\n        /* \"contracts/CrowdSourcing.sol\":9035:9058  Project storage project */\n      0x00\n        /* \"contracts/CrowdSourcing.sol\":9061:9069  projects */\n      0x01\n        /* \"contracts/CrowdSourcing.sol\":9070:9082  projectIndex */\n      dup4\n        /* \"contracts/CrowdSourcing.sol\":9061:9083  projects[projectIndex] */\n      dup2\n      sload\n      dup2\n      lt\n      tag_196\n      jumpi\n      tag_197\n      tag_105\n      jump\t// in\n    tag_197:\n    tag_196:\n      swap1\n      0x00\n      mstore\n      keccak256(0x00, 0x20)\n      swap1\n      0x08\n      mul\n      add\n        /* \"contracts/CrowdSourcing.sol\":9035:9083  Project storage project = projects[projectIndex] */\n      swap1\n      pop\n        /* \"contracts/CrowdSourcing.sol\":9102:9109  project */\n      dup1\n        /* \"contracts/CrowdSourcing.sol\":9102:9118  project.isActive */\n      0x07\n      add\n      0x00\n      swap1\n      sload\n      swap1\n      0x0100\n      exp\n      swap1\n      div\n      0xff\n      and\n        /* \"contracts/CrowdSourcing.sol\":9094:9168  require(project.isActive, \"Cannot add new milestones to inactive project\") */\n      tag_199\n      jumpi\n      mload(0x40)\n      0x08c379a000000000000000000000000000000000000000000000000000000000\n      dup2\n      mstore\n      0x04\n      add\n      tag_200\n      swap1\n      tag_201\n      jump\t// in\n    tag_200:\n      mload(0x40)\n      dup1\n      swap2\n      sub\n      swap1\n      revert\n    tag_199:\n        /* \"contracts/CrowdSourcing.sol\":9206:9216  msg.sender */\n      caller\n        /* \"contracts/CrowdSourcing.sol\":9187:9216  project.creator == msg.sender */\n      0xffffffffffffffffffffffffffffffffffffffff\n      and\n        /* \"contracts/CrowdSourcing.sol\":9187:9194  project */\n      dup2\n        /* \"contracts/CrowdSourcing.sol\":9187:9202  project.creator */\n      0x00\n      add\n      0x00\n      swap1\n      sload\n      swap1\n      0x0100\n      exp\n      swap1\n      div\n      0xffffffffffffffffffffffffffffffffffffffff\n      and\n        /* \"contracts/CrowdSourcing.sol\":9187:9216  project.creator == msg.sender */\n      0xffffffffffffffffffffffffffffffffffffffff\n      and\n      eq\n        /* \"contracts/CrowdSourcing.sol\":9179:9264  require(project.creator == msg.sender, \"Only project creator can add new milestones\") */\n      tag_202\n      jumpi\n      mload(0x40)\n      0x08c379a000000000000000000000000000000000000000000000000000000000\n      dup2\n      mstore\n      0x04\n      add\n      tag_203\n      swap1\n      tag_204\n      jump\t// in\n    tag_203:\n      mload(0x40)\n      dup1\n      swap2\n      sub\n      swap1\n      revert\n    tag_202:\n        /* \"contracts/CrowdSourcing.sol\":9303:9304  0 */\n      0x00\n        /* \"contracts/CrowdSourcing.sol\":9283:9293  milestones */\n      dup3\n        /* \"contracts/CrowdSourcing.sol\":9283:9300  milestones.length */\n      mload\n        /* \"contracts/CrowdSourcing.sol\":9283:9304  milestones.length > 0 */\n      gt\n        /* \"contracts/CrowdSourcing.sol\":9275:9341  require(milestones.length > 0, \"Must have at least one milestone\") */\n      tag_205\n      jumpi\n      mload(0x40)\n      0x08c379a000000000000000000000000000000000000000000000000000000000\n      dup2\n      mstore\n      0x04\n      add\n      tag_206\n      swap1\n      tag_207\n      jump\t// in\n    tag_206:\n      mload(0x40)\n      dup1\n      swap2\n      sub\n      swap1\n      revert\n    tag_205:\n        /* \"contracts/CrowdSourcing.sol\":9356:9362  uint i */\n      0x00\n        /* \"contracts/CrowdSourcing.sol\":9363:9364  0 */\n      0x00\n        /* \"contracts/CrowdSourcing.sol\":9356:9364  uint i=0 */\n      swap1\n      pop\n        /* \"contracts/CrowdSourcing.sol\":9352:10572  for(uint i=0; i<milestones.length; i++) {   ... */\n    tag_208:\n        /* \"contracts/CrowdSourcing.sol\":9368:9378  milestones */\n      dup3\n        /* \"contracts/CrowdSourcing.sol\":9368:9385  milestones.length */\n      mload\n        /* \"contracts/CrowdSourcing.sol\":9366:9367  i */\n      dup2\n        /* \"contracts/CrowdSourcing.sol\":9366:9385  i<milestones.length */\n      lt\n        /* \"contracts/CrowdSourcing.sol\":9352:10572  for(uint i=0; i<milestones.length; i++) {   ... */\n      iszero\n      tag_209\n      jumpi\n        /* \"contracts/CrowdSourcing.sol\":9445:9446  0 */\n      0x00\n        /* \"contracts/CrowdSourcing.sol\":9418:9428  milestones */\n      dup4\n        /* \"contracts/CrowdSourcing.sol\":9429:9430  i */\n      dup3\n        /* \"contracts/CrowdSourcing.sol\":9418:9431  milestones[i] */\n      dup2\n      mload\n      dup2\n      lt\n      tag_211\n      jumpi\n      tag_212\n      tag_105\n      jump\t// in\n    tag_212:\n    tag_211:\n      0x20\n      mul\n      0x20\n      add\n      add\n      mload\n        /* \"contracts/CrowdSourcing.sol\":9418:9442  milestones[i].goalAmount */\n      0x00\n      add\n      mload\n        /* \"contracts/CrowdSourcing.sol\":9418:9446  milestones[i].goalAmount > 0 */\n      gt\n        /* \"contracts/CrowdSourcing.sol\":9410:9473  require(milestones[i].goalAmount > 0, \"Goal amount can't be 0\") */\n      tag_213\n      jumpi\n      mload(0x40)\n      0x08c379a000000000000000000000000000000000000000000000000000000000\n      dup2\n      mstore\n      0x04\n      add\n      tag_214\n      swap1\n      tag_215\n      jump\t// in\n    tag_214:\n      mload(0x40)\n      dup1\n      swap2\n      sub\n      swap1\n      revert\n    tag_213:\n        /* \"contracts/CrowdSourcing.sol\":9539:9554  block.timestamp */\n      timestamp\n        /* \"contracts/CrowdSourcing.sol\":9514:9524  milestones */\n      dup4\n        /* \"contracts/CrowdSourcing.sol\":9525:9526  i */\n      dup3\n        /* \"contracts/CrowdSourcing.sol\":9514:9527  milestones[i] */\n      dup2\n      mload\n      dup2\n      lt\n      tag_216\n      jumpi\n      tag_217\n      tag_105\n      jump\t// in\n    tag_217:\n    tag_216:\n      0x20\n      mul\n      0x20\n      add\n      add\n      mload\n        /* \"contracts/CrowdSourcing.sol\":9514:9536  milestones[i].deadline */\n      0x20\n      add\n      mload\n        /* \"contracts/CrowdSourcing.sol\":9514:9554  milestones[i].deadline > block.timestamp */\n      gt\n        /* \"contracts/CrowdSourcing.sol\":9488:9619  require(... */\n      tag_218\n      jumpi\n      mload(0x40)\n      0x08c379a000000000000000000000000000000000000000000000000000000000\n      dup2\n      mstore\n      0x04\n      add\n      tag_219\n      swap1\n      tag_220\n      jump\t// in\n    tag_219:\n      mload(0x40)\n      dup1\n      swap2\n      sub\n      swap1\n      revert\n    tag_218:\n        /* \"contracts/CrowdSourcing.sol\":9641:9642  0 */\n      0x00\n        /* \"contracts/CrowdSourcing.sol\":9637:9638  i */\n      dup2\n        /* \"contracts/CrowdSourcing.sol\":9637:9642  i > 0 */\n      gt\n        /* \"contracts/CrowdSourcing.sol\":9634:9901  if(i > 0){... */\n      iszero\n      tag_221\n      jumpi\n        /* \"contracts/CrowdSourcing.sol\":9697:9707  milestones */\n      dup3\n        /* \"contracts/CrowdSourcing.sol\":9710:9711  1 */\n      0x01\n        /* \"contracts/CrowdSourcing.sol\":9708:9709  i */\n      dup3\n        /* \"contracts/CrowdSourcing.sol\":9708:9711  i-1 */\n      tag_222\n      swap2\n      swap1\n      tag_99\n      jump\t// in\n    tag_222:\n        /* \"contracts/CrowdSourcing.sol\":9697:9712  milestones[i-1] */\n      dup2\n      mload\n      dup2\n      lt\n      tag_223\n      jumpi\n      tag_224\n      tag_105\n      jump\t// in\n    tag_224:\n    tag_223:\n      0x20\n      mul\n      0x20\n      add\n      add\n      mload\n        /* \"contracts/CrowdSourcing.sol\":9697:9723  milestones[i-1].goalAmount */\n      0x00\n      add\n      mload\n        /* \"contracts/CrowdSourcing.sol\":9670:9680  milestones */\n      dup4\n        /* \"contracts/CrowdSourcing.sol\":9681:9682  i */\n      dup3\n        /* \"contracts/CrowdSourcing.sol\":9670:9683  milestones[i] */\n      dup2\n      mload\n      dup2\n      lt\n      tag_225\n      jumpi\n      tag_226\n      tag_105\n      jump\t// in\n    tag_226:\n    tag_225:\n      0x20\n      mul\n      0x20\n      add\n      add\n      mload\n        /* \"contracts/CrowdSourcing.sol\":9670:9694  milestones[i].goalAmount */\n      0x00\n      add\n      mload\n        /* \"contracts/CrowdSourcing.sol\":9670:9723  milestones[i].goalAmount > milestones[i-1].goalAmount */\n      gt\n        /* \"contracts/CrowdSourcing.sol\":9662:9764  require(milestones[i].goalAmount > milestones[i-1].goalAmount, \"Milestone goals should be increasing\") */\n      tag_227\n      jumpi\n      mload(0x40)\n      0x08c379a000000000000000000000000000000000000000000000000000000000\n      dup2\n      mstore\n      0x04\n      add\n      tag_228\n      swap1\n      tag_229\n      jump\t// in\n    tag_228:\n      mload(0x40)\n      dup1\n      swap2\n      sub\n      swap1\n      revert\n    tag_227:\n        /* \"contracts/CrowdSourcing.sol\":9816:9826  milestones */\n      dup3\n        /* \"contracts/CrowdSourcing.sol\":9829:9830  1 */\n      0x01\n        /* \"contracts/CrowdSourcing.sol\":9827:9828  i */\n      dup3\n        /* \"contracts/CrowdSourcing.sol\":9827:9830  i-1 */\n      tag_230\n      swap2\n      swap1\n      tag_99\n      jump\t// in\n    tag_230:\n        /* \"contracts/CrowdSourcing.sol\":9816:9831  milestones[i-1] */\n      dup2\n      mload\n      dup2\n      lt\n      tag_231\n      jumpi\n      tag_232\n      tag_105\n      jump\t// in\n    tag_232:\n    tag_231:\n      0x20\n      mul\n      0x20\n      add\n      add\n      mload\n        /* \"contracts/CrowdSourcing.sol\":9816:9840  milestones[i-1].deadline */\n      0x20\n      add\n      mload\n        /* \"contracts/CrowdSourcing.sol\":9791:9801  milestones */\n      dup4\n        /* \"contracts/CrowdSourcing.sol\":9802:9803  i */\n      dup3\n        /* \"contracts/CrowdSourcing.sol\":9791:9804  milestones[i] */\n      dup2\n      mload\n      dup2\n      lt\n      tag_233\n      jumpi\n      tag_234\n      tag_105\n      jump\t// in\n    tag_234:\n    tag_233:\n      0x20\n      mul\n      0x20\n      add\n      add\n      mload\n        /* \"contracts/CrowdSourcing.sol\":9791:9813  milestones[i].deadline */\n      0x20\n      add\n      mload\n        /* \"contracts/CrowdSourcing.sol\":9791:9840  milestones[i].deadline > milestones[i-1].deadline */\n      gt\n        /* \"contracts/CrowdSourcing.sol\":9783:9885  require(milestones[i].deadline > milestones[i-1].deadline, \"Milestone deadlines should be increasing\") */\n      tag_235\n      jumpi\n      mload(0x40)\n      0x08c379a000000000000000000000000000000000000000000000000000000000\n      dup2\n      mstore\n      0x04\n      add\n      tag_236\n      swap1\n      tag_237\n      jump\t// in\n    tag_236:\n      mload(0x40)\n      dup1\n      swap2\n      sub\n      swap1\n      revert\n    tag_235:\n        /* \"contracts/CrowdSourcing.sol\":9634:9901  if(i > 0){... */\n    tag_221:\n        /* \"contracts/CrowdSourcing.sol\":9946:9947  0 */\n      0x00\n        /* \"contracts/CrowdSourcing.sol\":9918:9925  project */\n      dup3\n        /* \"contracts/CrowdSourcing.sol\":9918:9936  project.milestones */\n      0x06\n      add\n        /* \"contracts/CrowdSourcing.sol\":9918:9943  project.milestones.length */\n      dup1\n      sload\n      swap1\n      pop\n        /* \"contracts/CrowdSourcing.sol\":9918:9947  project.milestones.length > 0 */\n      gt\n        /* \"contracts/CrowdSourcing.sol\":9915:10281  if(project.milestones.length > 0) {... */\n      iszero\n      tag_238\n      jumpi\n        /* \"contracts/CrowdSourcing.sol\":10003:10010  project */\n      dup2\n        /* \"contracts/CrowdSourcing.sol\":10003:10021  project.milestones */\n      0x06\n      add\n        /* \"contracts/CrowdSourcing.sol\":10048:10049  1 */\n      0x01\n        /* \"contracts/CrowdSourcing.sol\":10022:10029  project */\n      dup4\n        /* \"contracts/CrowdSourcing.sol\":10022:10040  project.milestones */\n      0x06\n      add\n        /* \"contracts/CrowdSourcing.sol\":10022:10047  project.milestones.length */\n      dup1\n      sload\n      swap1\n      pop\n        /* \"contracts/CrowdSourcing.sol\":10022:10049  project.milestones.length-1 */\n      tag_239\n      swap2\n      swap1\n      tag_99\n      jump\t// in\n    tag_239:\n        /* \"contracts/CrowdSourcing.sol\":10003:10050  project.milestones[project.milestones.length-1] */\n      dup2\n      sload\n      dup2\n      lt\n      tag_240\n      jumpi\n      tag_241\n      tag_105\n      jump\t// in\n    tag_241:\n    tag_240:\n      swap1\n      0x00\n      mstore\n      keccak256(0x00, 0x20)\n      swap1\n      0x06\n      mul\n      add\n        /* \"contracts/CrowdSourcing.sol\":10003:10055  project.milestones[project.milestones.length-1].info */\n      0x00\n      add\n        /* \"contracts/CrowdSourcing.sol\":10003:10066  project.milestones[project.milestones.length-1].info.goalAmount */\n      0x00\n      add\n      sload\n        /* \"contracts/CrowdSourcing.sol\":9976:9986  milestones */\n      dup4\n        /* \"contracts/CrowdSourcing.sol\":9987:9988  i */\n      dup3\n        /* \"contracts/CrowdSourcing.sol\":9976:9989  milestones[i] */\n      dup2\n      mload\n      dup2\n      lt\n      tag_243\n      jumpi\n      tag_244\n      tag_105\n      jump\t// in\n    tag_244:\n    tag_243:\n      0x20\n      mul\n      0x20\n      add\n      add\n      mload\n        /* \"contracts/CrowdSourcing.sol\":9976:10000  milestones[i].goalAmount */\n      0x00\n      add\n      mload\n        /* \"contracts/CrowdSourcing.sol\":9976:10066  milestones[i].goalAmount > project.milestones[project.milestones.length-1].info.goalAmount */\n      gt\n        /* \"contracts/CrowdSourcing.sol\":9968:10107  require(milestones[i].goalAmount > project.milestones[project.milestones.length-1].info.goalAmount, \"Milestone goals should be increasing\") */\n      tag_245\n      jumpi\n      mload(0x40)\n      0x08c379a000000000000000000000000000000000000000000000000000000000\n      dup2\n      mstore\n      0x04\n      add\n      tag_246\n      swap1\n      tag_229\n      jump\t// in\n    tag_246:\n      mload(0x40)\n      dup1\n      swap2\n      sub\n      swap1\n      revert\n    tag_245:\n        /* \"contracts/CrowdSourcing.sol\":10159:10166  project */\n      dup2\n        /* \"contracts/CrowdSourcing.sol\":10159:10177  project.milestones */\n      0x06\n      add\n        /* \"contracts/CrowdSourcing.sol\":10204:10205  1 */\n      0x01\n        /* \"contracts/CrowdSourcing.sol\":10178:10185  project */\n      dup4\n        /* \"contracts/CrowdSourcing.sol\":10178:10196  project.milestones */\n      0x06\n      add\n        /* \"contracts/CrowdSourcing.sol\":10178:10203  project.milestones.length */\n      dup1\n      sload\n      swap1\n      pop\n        /* \"contracts/CrowdSourcing.sol\":10178:10205  project.milestones.length-1 */\n      tag_247\n      swap2\n      swap1\n      tag_99\n      jump\t// in\n    tag_247:\n        /* \"contracts/CrowdSourcing.sol\":10159:10206  project.milestones[project.milestones.length-1] */\n      dup2\n      sload\n      dup2\n      lt\n      tag_248\n      jumpi\n      tag_249\n      tag_105\n      jump\t// in\n    tag_249:\n    tag_248:\n      swap1\n      0x00\n      mstore\n      keccak256(0x00, 0x20)\n      swap1\n      0x06\n      mul\n      add\n        /* \"contracts/CrowdSourcing.sol\":10159:10211  project.milestones[project.milestones.length-1].info */\n      0x00\n      add\n        /* \"contracts/CrowdSourcing.sol\":10159:10220  project.milestones[project.milestones.length-1].info.deadline */\n      0x01\n      add\n      sload\n        /* \"contracts/CrowdSourcing.sol\":10134:10144  milestones */\n      dup4\n        /* \"contracts/CrowdSourcing.sol\":10145:10146  i */\n      dup3\n        /* \"contracts/CrowdSourcing.sol\":10134:10147  milestones[i] */\n      dup2\n      mload\n      dup2\n      lt\n      tag_251\n      jumpi\n      tag_252\n      tag_105\n      jump\t// in\n    tag_252:\n    tag_251:\n      0x20\n      mul\n      0x20\n      add\n      add\n      mload\n        /* \"contracts/CrowdSourcing.sol\":10134:10156  milestones[i].deadline */\n      0x20\n      add\n      mload\n        /* \"contracts/CrowdSourcing.sol\":10134:10220  milestones[i].deadline > project.milestones[project.milestones.length-1].info.deadline */\n      gt\n        /* \"contracts/CrowdSourcing.sol\":10126:10265  require(milestones[i].deadline > project.milestones[project.milestones.length-1].info.deadline, \"Milestone deadlines should be increasing\") */\n      tag_253\n      jumpi\n      mload(0x40)\n      0x08c379a000000000000000000000000000000000000000000000000000000000\n      dup2\n      mstore\n      0x04\n      add\n      tag_254\n      swap1\n      tag_237\n      jump\t// in\n    tag_254:\n      mload(0x40)\n      dup1\n      swap2\n      sub\n      swap1\n      revert\n    tag_253:\n        /* \"contracts/CrowdSourcing.sol\":9915:10281  if(project.milestones.length > 0) {... */\n    tag_238:\n        /* \"contracts/CrowdSourcing.sol\":10295:10322  Milestone storage milestone */\n      0x00\n        /* \"contracts/CrowdSourcing.sol\":10325:10332  project */\n      dup3\n        /* \"contracts/CrowdSourcing.sol\":10325:10343  project.milestones */\n      0x06\n      add\n        /* \"contracts/CrowdSourcing.sol\":10325:10350  project.milestones.push() */\n      0x01\n      dup2\n      0x01\n      dup2\n      sload\n      add\n      dup1\n      dup3\n      sstore\n      dup1\n      swap2\n      pop\n      pop\n      sub\n      swap1\n      0x00\n      mstore\n      keccak256(0x00, 0x20)\n      swap1\n      0x06\n      mul\n      add\n        /* \"contracts/CrowdSourcing.sol\":10295:10350  Milestone storage milestone = project.milestones.push() */\n      swap1\n      pop\n        /* \"contracts/CrowdSourcing.sol\":10393:10403  milestones */\n      dup4\n        /* \"contracts/CrowdSourcing.sol\":10404:10405  i */\n      dup3\n        /* \"contracts/CrowdSourcing.sol\":10393:10406  milestones[i] */\n      dup2\n      mload\n      dup2\n      lt\n      tag_256\n      jumpi\n      tag_257\n      tag_105\n      jump\t// in\n    tag_257:\n    tag_256:\n      0x20\n      mul\n      0x20\n      add\n      add\n      mload\n        /* \"contracts/CrowdSourcing.sol\":10393:10417  milestones[i].goalAmount */\n      0x00\n      add\n      mload\n        /* \"contracts/CrowdSourcing.sol\":10365:10374  milestone */\n      dup2\n        /* \"contracts/CrowdSourcing.sol\":10365:10379  milestone.info */\n      0x00\n      add\n        /* \"contracts/CrowdSourcing.sol\":10365:10390  milestone.info.goalAmount */\n      0x00\n      add\n        /* \"contracts/CrowdSourcing.sol\":10365:10417  milestone.info.goalAmount = milestones[i].goalAmount */\n      dup2\n      swap1\n      sstore\n      pop\n        /* \"contracts/CrowdSourcing.sol\":10458:10468  milestones */\n      dup4\n        /* \"contracts/CrowdSourcing.sol\":10469:10470  i */\n      dup3\n        /* \"contracts/CrowdSourcing.sol\":10458:10471  milestones[i] */\n      dup2\n      mload\n      dup2\n      lt\n      tag_258\n      jumpi\n      tag_259\n      tag_105\n      jump\t// in\n    tag_259:\n    tag_258:\n      0x20\n      mul\n      0x20\n      add\n      add\n      mload\n        /* \"contracts/CrowdSourcing.sol\":10458:10480  milestones[i].deadline */\n      0x20\n      add\n      mload\n        /* \"contracts/CrowdSourcing.sol\":10432:10441  milestone */\n      dup2\n        /* \"contracts/CrowdSourcing.sol\":10432:10446  milestone.info */\n      0x00\n      add\n        /* \"contracts/CrowdSourcing.sol\":10432:10455  milestone.info.deadline */\n      0x01\n      add\n        /* \"contracts/CrowdSourcing.sol\":10432:10480  milestone.info.deadline = milestones[i].deadline */\n      dup2\n      swap1\n      sstore\n      pop\n        /* \"contracts/CrowdSourcing.sol\":10519:10520  0 */\n      0x00\n        /* \"contracts/CrowdSourcing.sol\":10495:10504  milestone */\n      dup2\n        /* \"contracts/CrowdSourcing.sol\":10495:10516  milestone.totalFunded */\n      0x02\n      add\n        /* \"contracts/CrowdSourcing.sol\":10495:10520  milestone.totalFunded = 0 */\n      dup2\n      swap1\n      sstore\n      pop\n        /* \"contracts/CrowdSourcing.sol\":10555:10560  false */\n      0x00\n        /* \"contracts/CrowdSourcing.sol\":10535:10544  milestone */\n      dup2\n        /* \"contracts/CrowdSourcing.sol\":10535:10552  milestone.reached */\n      0x05\n      add\n      0x00\n        /* \"contracts/CrowdSourcing.sol\":10535:10560  milestone.reached = false */\n      0x0100\n      exp\n      dup2\n      sload\n      dup2\n      0xff\n      mul\n      not\n      and\n      swap1\n      dup4\n      iszero\n      iszero\n      mul\n      or\n      swap1\n      sstore\n      pop\n        /* \"contracts/CrowdSourcing.sol\":9392:10572  {   ... */\n      pop\n        /* \"contracts/CrowdSourcing.sol\":9387:9390  i++ */\n      dup1\n      dup1\n      0x01\n      add\n      swap2\n      pop\n      pop\n        /* \"contracts/CrowdSourcing.sol\":9352:10572  for(uint i=0; i<milestones.length; i++) {   ... */\n      jump(tag_208)\n    tag_209:\n      pop\n        /* \"contracts/CrowdSourcing.sol\":8948:10579  {... */\n      pop\n        /* \"contracts/CrowdSourcing.sol\":8861:10579  function addNewMilestones(uint projectIndex, MilestoneInfo[] memory milestones) public {... */\n      pop\n      pop\n      jump\t// out\n        /* \"contracts/CrowdSourcing.sol\":10602:10914  function getCurrentMilestoneInfo(uint projectIndex) external view returns (MilestoneInfo memory) {... */\n    tag_56:\n        /* \"contracts/CrowdSourcing.sol\":10677:10697  MilestoneInfo memory */\n      tag_260\n      tag_261\n      jump\t// in\n    tag_260:\n        /* \"contracts/CrowdSourcing.sol\":10733:10741  projects */\n      0x01\n        /* \"contracts/CrowdSourcing.sol\":10733:10748  projects.length */\n      dup1\n      sload\n      swap1\n      pop\n        /* \"contracts/CrowdSourcing.sol\":10718:10730  projectIndex */\n      dup3\n        /* \"contracts/CrowdSourcing.sol\":10718:10748  projectIndex < projects.length */\n      lt\n        /* \"contracts/CrowdSourcing.sol\":10710:10775  require(projectIndex < projects.length, \"Invalid projects index\") */\n      tag_263\n      jumpi\n      mload(0x40)\n      0x08c379a000000000000000000000000000000000000000000000000000000000\n      dup2\n      mstore\n      0x04\n      add\n      tag_264\n      swap1\n      tag_115\n      jump\t// in\n    tag_264:\n      mload(0x40)\n      dup1\n      swap2\n      sub\n      swap1\n      revert\n    tag_263:\n        /* \"contracts/CrowdSourcing.sol\":10786:10809  Project storage project */\n      0x00\n        /* \"contracts/CrowdSourcing.sol\":10812:10820  projects */\n      0x01\n        /* \"contracts/CrowdSourcing.sol\":10821:10833  projectIndex */\n      dup4\n        /* \"contracts/CrowdSourcing.sol\":10812:10834  projects[projectIndex] */\n      dup2\n      sload\n      dup2\n      lt\n      tag_265\n      jumpi\n      tag_266\n      tag_105\n      jump\t// in\n    tag_266:\n    tag_265:\n      swap1\n      0x00\n      mstore\n      keccak256(0x00, 0x20)\n      swap1\n      0x08\n      mul\n      add\n        /* \"contracts/CrowdSourcing.sol\":10786:10834  Project storage project = projects[projectIndex] */\n      swap1\n      pop\n        /* \"contracts/CrowdSourcing.sol\":10852:10859  project */\n      dup1\n        /* \"contracts/CrowdSourcing.sol\":10852:10870  project.milestones */\n      0x06\n      add\n        /* \"contracts/CrowdSourcing.sol\":10871:10878  project */\n      dup2\n        /* \"contracts/CrowdSourcing.sol\":10871:10900  project.currentMilestoneIndex */\n      0x05\n      add\n      sload\n        /* \"contracts/CrowdSourcing.sol\":10852:10901  project.milestones[project.currentMilestoneIndex] */\n      dup2\n      sload\n      dup2\n      lt\n      tag_268\n      jumpi\n      tag_269\n      tag_105\n      jump\t// in\n    tag_269:\n    tag_268:\n      swap1\n      0x00\n      mstore\n      keccak256(0x00, 0x20)\n      swap1\n      0x06\n      mul\n      add\n        /* \"contracts/CrowdSourcing.sol\":10852:10906  project.milestones[project.currentMilestoneIndex].info */\n      0x00\n      add\n        /* \"contracts/CrowdSourcing.sol\":10845:10906  return project.milestones[project.currentMilestoneIndex].info */\n      mload(0x40)\n      dup1\n      0x40\n      add\n      0x40\n      mstore\n      swap1\n      dup2\n      0x00\n      dup3\n      add\n      sload\n      dup2\n      mstore\n      0x20\n      add\n      0x01\n      dup3\n      add\n      sload\n      dup2\n      mstore\n      pop\n      pop\n      swap2\n      pop\n      pop\n        /* \"contracts/CrowdSourcing.sol\":10602:10914  function getCurrentMilestoneInfo(uint projectIndex) external view returns (MilestoneInfo memory) {... */\n      swap2\n      swap1\n      pop\n      jump\t// out\n        /* \"contracts/CrowdSourcing.sol\":11239:11744  function getallMilestonesInfo(uint projectIndex) external view returns (MilestoneInfo[] memory) {... */\n    tag_62:\n        /* \"contracts/CrowdSourcing.sol\":11311:11333  MilestoneInfo[] memory */\n      0x60\n        /* \"contracts/CrowdSourcing.sol\":11369:11377  projects */\n      0x01\n        /* \"contracts/CrowdSourcing.sol\":11369:11384  projects.length */\n      dup1\n      sload\n      swap1\n      pop\n        /* \"contracts/CrowdSourcing.sol\":11354:11366  projectIndex */\n      dup3\n        /* \"contracts/CrowdSourcing.sol\":11354:11384  projectIndex < projects.length */\n      lt\n        /* \"contracts/CrowdSourcing.sol\":11346:11411  require(projectIndex < projects.length, \"Invalid projects index\") */\n      tag_272\n      jumpi\n      mload(0x40)\n      0x08c379a000000000000000000000000000000000000000000000000000000000\n      dup2\n      mstore\n      0x04\n      add\n      tag_273\n      swap1\n      tag_115\n      jump\t// in\n    tag_273:\n      mload(0x40)\n      dup1\n      swap2\n      sub\n      swap1\n      revert\n    tag_272:\n        /* \"contracts/CrowdSourcing.sol\":11422:11445  Project storage project */\n      0x00\n        /* \"contracts/CrowdSourcing.sol\":11448:11456  projects */\n      0x01\n        /* \"contracts/CrowdSourcing.sol\":11457:11469  projectIndex */\n      dup4\n        /* \"contracts/CrowdSourcing.sol\":11448:11470  projects[projectIndex] */\n      dup2\n      sload\n      dup2\n      lt\n      tag_274\n      jumpi\n      tag_275\n      tag_105\n      jump\t// in\n    tag_275:\n    tag_274:\n      swap1\n      0x00\n      mstore\n      keccak256(0x00, 0x20)\n      swap1\n      0x08\n      mul\n      add\n        /* \"contracts/CrowdSourcing.sol\":11422:11470  Project storage project = projects[projectIndex] */\n      swap1\n      pop\n        /* \"contracts/CrowdSourcing.sol\":11481:11517  MilestoneInfo[] memory milestoneInfo */\n      0x00\n        /* \"contracts/CrowdSourcing.sol\":11540:11547  project */\n      dup2\n        /* \"contracts/CrowdSourcing.sol\":11540:11558  project.milestones */\n      0x06\n      add\n        /* \"contracts/CrowdSourcing.sol\":11540:11565  project.milestones.length */\n      dup1\n      sload\n      swap1\n      pop\n        /* \"contracts/CrowdSourcing.sol\":11520:11566  new MilestoneInfo[](project.milestones.length) */\n      0xffffffffffffffff\n      dup2\n      gt\n      iszero\n      tag_277\n      jumpi\n      tag_278\n      tag_279\n      jump\t// in\n    tag_278:\n    tag_277:\n      mload(0x40)\n      swap1\n      dup1\n      dup3\n      mstore\n      dup1\n      0x20\n      mul\n      0x20\n      add\n      dup3\n      add\n      0x40\n      mstore\n      dup1\n      iszero\n      tag_280\n      jumpi\n      dup2\n      0x20\n      add\n    tag_281:\n      tag_282\n      tag_261\n      jump\t// in\n    tag_282:\n      dup2\n      mstore\n      0x20\n      add\n      swap1\n      0x01\n      swap1\n      sub\n      swap1\n      dup2\n      tag_281\n      jumpi\n      swap1\n      pop\n    tag_280:\n      pop\n        /* \"contracts/CrowdSourcing.sol\":11481:11566  MilestoneInfo[] memory milestoneInfo = new MilestoneInfo[](project.milestones.length) */\n      swap1\n      pop\n        /* \"contracts/CrowdSourcing.sol\":11581:11587  uint i */\n      0x00\n        /* \"contracts/CrowdSourcing.sol\":11588:11589  0 */\n      0x00\n        /* \"contracts/CrowdSourcing.sol\":11581:11589  uint i=0 */\n      swap1\n      pop\n        /* \"contracts/CrowdSourcing.sol\":11577:11699  for(uint i=0; i < project.milestones.length; i++) {... */\n    tag_283:\n        /* \"contracts/CrowdSourcing.sol\":11595:11602  project */\n      dup3\n        /* \"contracts/CrowdSourcing.sol\":11595:11613  project.milestones */\n      0x06\n      add\n        /* \"contracts/CrowdSourcing.sol\":11595:11620  project.milestones.length */\n      dup1\n      sload\n      swap1\n      pop\n        /* \"contracts/CrowdSourcing.sol\":11591:11592  i */\n      dup2\n        /* \"contracts/CrowdSourcing.sol\":11591:11620  i < project.milestones.length */\n      lt\n        /* \"contracts/CrowdSourcing.sol\":11577:11699  for(uint i=0; i < project.milestones.length; i++) {... */\n      iszero\n      tag_284\n      jumpi\n        /* \"contracts/CrowdSourcing.sol\":11661:11668  project */\n      dup3\n        /* \"contracts/CrowdSourcing.sol\":11661:11679  project.milestones */\n      0x06\n      add\n        /* \"contracts/CrowdSourcing.sol\":11680:11681  i */\n      dup2\n        /* \"contracts/CrowdSourcing.sol\":11661:11682  project.milestones[i] */\n      dup2\n      sload\n      dup2\n      lt\n      tag_286\n      jumpi\n      tag_287\n      tag_105\n      jump\t// in\n    tag_287:\n    tag_286:\n      swap1\n      0x00\n      mstore\n      keccak256(0x00, 0x20)\n      swap1\n      0x06\n      mul\n      add\n        /* \"contracts/CrowdSourcing.sol\":11661:11687  project.milestones[i].info */\n      0x00\n      add\n        /* \"contracts/CrowdSourcing.sol\":11642:11687  milestoneInfo[i] = project.milestones[i].info */\n      mload(0x40)\n      dup1\n      0x40\n      add\n      0x40\n      mstore\n      swap1\n      dup2\n      0x00\n      dup3\n      add\n      sload\n      dup2\n      mstore\n      0x20\n      add\n      0x01\n      dup3\n      add\n      sload\n      dup2\n      mstore\n      pop\n      pop\n        /* \"contracts/CrowdSourcing.sol\":11642:11655  milestoneInfo */\n      dup3\n        /* \"contracts/CrowdSourcing.sol\":11656:11657  i */\n      dup3\n        /* \"contracts/CrowdSourcing.sol\":11642:11658  milestoneInfo[i] */\n      dup2\n      mload\n      dup2\n      lt\n      tag_289\n      jumpi\n      tag_290\n      tag_105\n      jump\t// in\n    tag_290:\n    tag_289:\n      0x20\n      mul\n      0x20\n      add\n      add\n        /* \"contracts/CrowdSourcing.sol\":11642:11687  milestoneInfo[i] = project.milestones[i].info */\n      dup2\n      swap1\n      mstore\n      pop\n        /* \"contracts/CrowdSourcing.sol\":11622:11625  i++ */\n      dup1\n      dup1\n      0x01\n      add\n      swap2\n      pop\n      pop\n        /* \"contracts/CrowdSourcing.sol\":11577:11699  for(uint i=0; i < project.milestones.length; i++) {... */\n      jump(tag_283)\n    tag_284:\n      pop\n        /* \"contracts/CrowdSourcing.sol\":11723:11736  milestoneInfo */\n      dup1\n        /* \"contracts/CrowdSourcing.sol\":11716:11736  return milestoneInfo */\n      swap3\n      pop\n      pop\n      pop\n        /* \"contracts/CrowdSourcing.sol\":11239:11744  function getallMilestonesInfo(uint projectIndex) external view returns (MilestoneInfo[] memory) {... */\n      swap2\n      swap1\n      pop\n      jump\t// out\n        /* \"contracts/CrowdSourcing.sol\":11752:12894  function getAllActiveProjects() external view returns (ProjectView[] memory) {... */\n    tag_67:\n        /* \"contracts/CrowdSourcing.sol\":11807:11827  ProjectView[] memory */\n      0x60\n        /* \"contracts/CrowdSourcing.sol\":11840:11864  uint activeProjectsCount */\n      0x00\n        /* \"contracts/CrowdSourcing.sol\":11867:11868  0 */\n      0x00\n        /* \"contracts/CrowdSourcing.sol\":11840:11868  uint activeProjectsCount = 0 */\n      swap1\n      pop\n        /* \"contracts/CrowdSourcing.sol\":11884:11890  uint i */\n      0x00\n        /* \"contracts/CrowdSourcing.sol\":11893:11894  0 */\n      0x00\n        /* \"contracts/CrowdSourcing.sol\":11884:11894  uint i = 0 */\n      swap1\n      pop\n        /* \"contracts/CrowdSourcing.sol\":11879:12030  for (uint i = 0; i < projects.length; i++) {... */\n    tag_292:\n        /* \"contracts/CrowdSourcing.sol\":11900:11908  projects */\n      0x01\n        /* \"contracts/CrowdSourcing.sol\":11900:11915  projects.length */\n      dup1\n      sload\n      swap1\n      pop\n        /* \"contracts/CrowdSourcing.sol\":11896:11897  i */\n      dup2\n        /* \"contracts/CrowdSourcing.sol\":11896:11915  i < projects.length */\n      lt\n        /* \"contracts/CrowdSourcing.sol\":11879:12030  for (uint i = 0; i < projects.length; i++) {... */\n      iszero\n      tag_293\n      jumpi\n        /* \"contracts/CrowdSourcing.sol\":11941:11949  projects */\n      0x01\n        /* \"contracts/CrowdSourcing.sol\":11950:11951  i */\n      dup2\n        /* \"contracts/CrowdSourcing.sol\":11941:11952  projects[i] */\n      dup2\n      sload\n      dup2\n      lt\n      tag_295\n      jumpi\n      tag_296\n      tag_105\n      jump\t// in\n    tag_296:\n    tag_295:\n      swap1\n      0x00\n      mstore\n      keccak256(0x00, 0x20)\n      swap1\n      0x08\n      mul\n      add\n        /* \"contracts/CrowdSourcing.sol\":11941:11961  projects[i].isActive */\n      0x07\n      add\n      0x00\n      swap1\n      sload\n      swap1\n      0x0100\n      exp\n      swap1\n      div\n      0xff\n      and\n        /* \"contracts/CrowdSourcing.sol\":11937:12019  if (projects[i].isActive) {... */\n      iszero\n      tag_298\n      jumpi\n        /* \"contracts/CrowdSourcing.sol\":11982:12003  activeProjectsCount++ */\n      dup2\n      dup1\n      tag_299\n      swap1\n      tag_300\n      jump\t// in\n    tag_299:\n      swap3\n      pop\n      pop\n        /* \"contracts/CrowdSourcing.sol\":11937:12019  if (projects[i].isActive) {... */\n    tag_298:\n        /* \"contracts/CrowdSourcing.sol\":11917:11920  i++ */\n      dup1\n      dup1\n      0x01\n      add\n      swap2\n      pop\n      pop\n        /* \"contracts/CrowdSourcing.sol\":11879:12030  for (uint i = 0; i < projects.length; i++) {... */\n      jump(tag_292)\n    tag_293:\n      pop\n        /* \"contracts/CrowdSourcing.sol\":12042:12075  ProjectView[] memory tempProjects */\n      0x00\n        /* \"contracts/CrowdSourcing.sol\":12096:12115  activeProjectsCount */\n      dup2\n        /* \"contracts/CrowdSourcing.sol\":12078:12116  new ProjectView[](activeProjectsCount) */\n      0xffffffffffffffff\n      dup2\n      gt\n      iszero\n      tag_301\n      jumpi\n      tag_302\n      tag_279\n      jump\t// in\n    tag_302:\n    tag_301:\n      mload(0x40)\n      swap1\n      dup1\n      dup3\n      mstore\n      dup1\n      0x20\n      mul\n      0x20\n      add\n      dup3\n      add\n      0x40\n      mstore\n      dup1\n      iszero\n      tag_303\n      jumpi\n      dup2\n      0x20\n      add\n    tag_304:\n      tag_305\n      tag_306\n      jump\t// in\n    tag_305:\n      dup2\n      mstore\n      0x20\n      add\n      swap1\n      0x01\n      swap1\n      sub\n      swap1\n      dup2\n      tag_304\n      jumpi\n      swap1\n      pop\n    tag_303:\n      pop\n        /* \"contracts/CrowdSourcing.sol\":12042:12116  ProjectView[] memory tempProjects = new ProjectView[](activeProjectsCount) */\n      swap1\n      pop\n        /* \"contracts/CrowdSourcing.sol\":12129:12139  uint index */\n      0x00\n        /* \"contracts/CrowdSourcing.sol\":12140:12141  0 */\n      0x00\n        /* \"contracts/CrowdSourcing.sol\":12129:12141  uint index=0 */\n      swap1\n      pop\n        /* \"contracts/CrowdSourcing.sol\":12156:12162  uint i */\n      0x00\n        /* \"contracts/CrowdSourcing.sol\":12163:12164  0 */\n      0x00\n        /* \"contracts/CrowdSourcing.sol\":12156:12164  uint i=0 */\n      swap1\n      pop\n        /* \"contracts/CrowdSourcing.sol\":12152:12857  for(uint i=0; i<projects.length; i++){... */\n    tag_307:\n        /* \"contracts/CrowdSourcing.sol\":12168:12176  projects */\n      0x01\n        /* \"contracts/CrowdSourcing.sol\":12168:12183  projects.length */\n      dup1\n      sload\n      swap1\n      pop\n        /* \"contracts/CrowdSourcing.sol\":12166:12167  i */\n      dup2\n        /* \"contracts/CrowdSourcing.sol\":12166:12183  i<projects.length */\n      lt\n        /* \"contracts/CrowdSourcing.sol\":12152:12857  for(uint i=0; i<projects.length; i++){... */\n      iszero\n      tag_308\n      jumpi\n        /* \"contracts/CrowdSourcing.sol\":12207:12215  projects */\n      0x01\n        /* \"contracts/CrowdSourcing.sol\":12216:12217  i */\n      dup2\n        /* \"contracts/CrowdSourcing.sol\":12207:12218  projects[i] */\n      dup2\n      sload\n      dup2\n      lt\n      tag_310\n      jumpi\n      tag_311\n      tag_105\n      jump\t// in\n    tag_311:\n    tag_310:\n      swap1\n      0x00\n      mstore\n      keccak256(0x00, 0x20)\n      swap1\n      0x08\n      mul\n      add\n        /* \"contracts/CrowdSourcing.sol\":12207:12227  projects[i].isActive */\n      0x07\n      add\n      0x00\n      swap1\n      sload\n      swap1\n      0x0100\n      exp\n      swap1\n      div\n      0xff\n      and\n        /* \"contracts/CrowdSourcing.sol\":12204:12846  if(projects[i].isActive) {... */\n      iszero\n      tag_313\n      jumpi\n        /* \"contracts/CrowdSourcing.sol\":12248:12278  ProjectView memory tempProject */\n      tag_314\n      tag_306\n      jump\t// in\n    tag_314:\n        /* \"contracts/CrowdSourcing.sol\":12319:12327  projects */\n      0x01\n        /* \"contracts/CrowdSourcing.sol\":12328:12329  i */\n      dup3\n        /* \"contracts/CrowdSourcing.sol\":12319:12330  projects[i] */\n      dup2\n      sload\n      dup2\n      lt\n      tag_315\n      jumpi\n      tag_316\n      tag_105\n      jump\t// in\n    tag_316:\n    tag_315:\n      swap1\n      0x00\n      mstore\n      keccak256(0x00, 0x20)\n      swap1\n      0x08\n      mul\n      add\n        /* \"contracts/CrowdSourcing.sol\":12319:12338  projects[i].creator */\n      0x00\n      add\n      0x00\n      swap1\n      sload\n      swap1\n      0x0100\n      exp\n      swap1\n      div\n      0xffffffffffffffffffffffffffffffffffffffff\n      and\n        /* \"contracts/CrowdSourcing.sol\":12297:12308  tempProject */\n      dup2\n        /* \"contracts/CrowdSourcing.sol\":12297:12316  tempProject.creator */\n      0x00\n      add\n        /* \"contracts/CrowdSourcing.sol\":12297:12338  tempProject.creator = projects[i].creator */\n      swap1\n      0xffffffffffffffffffffffffffffffffffffffff\n      and\n      swap1\n      dup2\n      0xffffffffffffffffffffffffffffffffffffffff\n      and\n      dup2\n      mstore\n      pop\n      pop\n        /* \"contracts/CrowdSourcing.sol\":12376:12384  projects */\n      0x01\n        /* \"contracts/CrowdSourcing.sol\":12385:12386  i */\n      dup3\n        /* \"contracts/CrowdSourcing.sol\":12376:12387  projects[i] */\n      dup2\n      sload\n      dup2\n      lt\n      tag_318\n      jumpi\n      tag_319\n      tag_105\n      jump\t// in\n    tag_319:\n    tag_318:\n      swap1\n      0x00\n      mstore\n      keccak256(0x00, 0x20)\n      swap1\n      0x08\n      mul\n      add\n        /* \"contracts/CrowdSourcing.sol\":12376:12392  projects[i].name */\n      0x01\n      add\n        /* \"contracts/CrowdSourcing.sol\":12357:12392  tempProject.name = projects[i].name */\n      dup1\n      sload\n      tag_321\n      swap1\n      tag_73\n      jump\t// in\n    tag_321:\n      dup1\n      0x1f\n      add\n      0x20\n      dup1\n      swap2\n      div\n      mul\n      0x20\n      add\n      mload(0x40)\n      swap1\n      dup2\n      add\n      0x40\n      mstore\n      dup1\n      swap3\n      swap2\n      swap1\n      dup2\n      dup2\n      mstore\n      0x20\n      add\n      dup3\n      dup1\n      sload\n      tag_322\n      swap1\n      tag_73\n      jump\t// in\n    tag_322:\n      dup1\n      iszero\n      tag_323\n      jumpi\n      dup1\n      0x1f\n      lt\n      tag_324\n      jumpi\n      0x0100\n      dup1\n      dup4\n      sload\n      div\n      mul\n      dup4\n      mstore\n      swap2\n      0x20\n      add\n      swap2\n      jump(tag_323)\n    tag_324:\n      dup3\n      add\n      swap2\n      swap1\n      0x00\n      mstore\n      keccak256(0x00, 0x20)\n      swap1\n    tag_325:\n      dup2\n      sload\n      dup2\n      mstore\n      swap1\n      0x01\n      add\n      swap1\n      0x20\n      add\n      dup1\n      dup4\n      gt\n      tag_325\n      jumpi\n      dup3\n      swap1\n      sub\n      0x1f\n      and\n      dup3\n      add\n      swap2\n    tag_323:\n      pop\n      pop\n      pop\n      pop\n      pop\n        /* \"contracts/CrowdSourcing.sol\":12357:12368  tempProject */\n      dup2\n        /* \"contracts/CrowdSourcing.sol\":12357:12373  tempProject.name */\n      0x20\n      add\n        /* \"contracts/CrowdSourcing.sol\":12357:12392  tempProject.name = projects[i].name */\n      dup2\n      swap1\n      mstore\n      pop\n        /* \"contracts/CrowdSourcing.sol\":12440:12448  projects */\n      0x01\n        /* \"contracts/CrowdSourcing.sol\":12449:12450  i */\n      dup3\n        /* \"contracts/CrowdSourcing.sol\":12440:12451  projects[i] */\n      dup2\n      sload\n      dup2\n      lt\n      tag_326\n      jumpi\n      tag_327\n      tag_105\n      jump\t// in\n    tag_327:\n    tag_326:\n      swap1\n      0x00\n      mstore\n      keccak256(0x00, 0x20)\n      swap1\n      0x08\n      mul\n      add\n        /* \"contracts/CrowdSourcing.sol\":12440:12466  projects[i].headerImageUrl */\n      0x02\n      add\n        /* \"contracts/CrowdSourcing.sol\":12411:12466  tempProject.headerImageUrl = projects[i].headerImageUrl */\n      dup1\n      sload\n      tag_329\n      swap1\n      tag_73\n      jump\t// in\n    tag_329:\n      dup1\n      0x1f\n      add\n      0x20\n      dup1\n      swap2\n      div\n      mul\n      0x20\n      add\n      mload(0x40)\n      swap1\n      dup2\n      add\n      0x40\n      mstore\n      dup1\n      swap3\n      swap2\n      swap1\n      dup2\n      dup2\n      mstore\n      0x20\n      add\n      dup3\n      dup1\n      sload\n      tag_330\n      swap1\n      tag_73\n      jump\t// in\n    tag_330:\n      dup1\n      iszero\n      tag_331\n      jumpi\n      dup1\n      0x1f\n      lt\n      tag_332\n      jumpi\n      0x0100\n      dup1\n      dup4\n      sload\n      div\n      mul\n      dup4\n      mstore\n      swap2\n      0x20\n      add\n      swap2\n      jump(tag_331)\n    tag_332:\n      dup3\n      add\n      swap2\n      swap1\n      0x00\n      mstore\n      keccak256(0x00, 0x20)\n      swap1\n    tag_333:\n      dup2\n      sload\n      dup2\n      mstore\n      swap1\n      0x01\n      add\n      swap1\n      0x20\n      add\n      dup1\n      dup4\n      gt\n      tag_333\n      jumpi\n      dup3\n      swap1\n      sub\n      0x1f\n      and\n      dup3\n      add\n      swap2\n    tag_331:\n      pop\n      pop\n      pop\n      pop\n      pop\n        /* \"contracts/CrowdSourcing.sol\":12411:12422  tempProject */\n      dup2\n        /* \"contracts/CrowdSourcing.sol\":12411:12437  tempProject.headerImageUrl */\n      0x40\n      add\n        /* \"contracts/CrowdSourcing.sol\":12411:12466  tempProject.headerImageUrl = projects[i].headerImageUrl */\n      dup2\n      swap1\n      mstore\n      pop\n        /* \"contracts/CrowdSourcing.sol\":12511:12519  projects */\n      0x01\n        /* \"contracts/CrowdSourcing.sol\":12520:12521  i */\n      dup3\n        /* \"contracts/CrowdSourcing.sol\":12511:12522  projects[i] */\n      dup2\n      sload\n      dup2\n      lt\n      tag_334\n      jumpi\n      tag_335\n      tag_105\n      jump\t// in\n    tag_335:\n    tag_334:\n      swap1\n      0x00\n      mstore\n      keccak256(0x00, 0x20)\n      swap1\n      0x08\n      mul\n      add\n        /* \"contracts/CrowdSourcing.sol\":12511:12534  projects[i].description */\n      0x03\n      add\n        /* \"contracts/CrowdSourcing.sol\":12485:12534  tempProject.description = projects[i].description */\n      dup1\n      sload\n      tag_337\n      swap1\n      tag_73\n      jump\t// in\n    tag_337:\n      dup1\n      0x1f\n      add\n      0x20\n      dup1\n      swap2\n      div\n      mul\n      0x20\n      add\n      mload(0x40)\n      swap1\n      dup2\n      add\n      0x40\n      mstore\n      dup1\n      swap3\n      swap2\n      swap1\n      dup2\n      dup2\n      mstore\n      0x20\n      add\n      dup3\n      dup1\n      sload\n      tag_338\n      swap1\n      tag_73\n      jump\t// in\n    tag_338:\n      dup1\n      iszero\n      tag_339\n      jumpi\n      dup1\n      0x1f\n      lt\n      tag_340\n      jumpi\n      0x0100\n      dup1\n      dup4\n      sload\n      div\n      mul\n      dup4\n      mstore\n      swap2\n      0x20\n      add\n      swap2\n      jump(tag_339)\n    tag_340:\n      dup3\n      add\n      swap2\n      swap1\n      0x00\n      mstore\n      keccak256(0x00, 0x20)\n      swap1\n    tag_341:\n      dup2\n      sload\n      dup2\n      mstore\n      swap1\n      0x01\n      add\n      swap1\n      0x20\n      add\n      dup1\n      dup4\n      gt\n      tag_341\n      jumpi\n      dup3\n      swap1\n      sub\n      0x1f\n      and\n      dup3\n      add\n      swap2\n    tag_339:\n      pop\n      pop\n      pop\n      pop\n      pop\n        /* \"contracts/CrowdSourcing.sol\":12485:12496  tempProject */\n      dup2\n        /* \"contracts/CrowdSourcing.sol\":12485:12508  tempProject.description */\n      0x60\n      add\n        /* \"contracts/CrowdSourcing.sol\":12485:12534  tempProject.description = projects[i].description */\n      dup2\n      swap1\n      mstore\n      pop\n        /* \"contracts/CrowdSourcing.sol\":12579:12587  projects */\n      0x01\n        /* \"contracts/CrowdSourcing.sol\":12588:12589  i */\n      dup3\n        /* \"contracts/CrowdSourcing.sol\":12579:12590  projects[i] */\n      dup2\n      sload\n      dup2\n      lt\n      tag_342\n      jumpi\n      tag_343\n      tag_105\n      jump\t// in\n    tag_343:\n    tag_342:\n      swap1\n      0x00\n      mstore\n      keccak256(0x00, 0x20)\n      swap1\n      0x08\n      mul\n      add\n        /* \"contracts/CrowdSourcing.sol\":12579:12602  projects[i].totalFunded */\n      0x04\n      add\n      sload\n        /* \"contracts/CrowdSourcing.sol\":12553:12564  tempProject */\n      dup2\n        /* \"contracts/CrowdSourcing.sol\":12553:12576  tempProject.totalFunded */\n      0x80\n      add\n        /* \"contracts/CrowdSourcing.sol\":12553:12602  tempProject.totalFunded = projects[i].totalFunded */\n      dup2\n      dup2\n      mstore\n      pop\n      pop\n        /* \"contracts/CrowdSourcing.sol\":12657:12665  projects */\n      0x01\n        /* \"contracts/CrowdSourcing.sol\":12666:12667  i */\n      dup3\n        /* \"contracts/CrowdSourcing.sol\":12657:12668  projects[i] */\n      dup2\n      sload\n      dup2\n      lt\n      tag_345\n      jumpi\n      tag_346\n      tag_105\n      jump\t// in\n    tag_346:\n    tag_345:\n      swap1\n      0x00\n      mstore\n      keccak256(0x00, 0x20)\n      swap1\n      0x08\n      mul\n      add\n        /* \"contracts/CrowdSourcing.sol\":12657:12690  projects[i].currentMilestoneIndex */\n      0x05\n      add\n      sload\n        /* \"contracts/CrowdSourcing.sol\":12621:12632  tempProject */\n      dup2\n        /* \"contracts/CrowdSourcing.sol\":12621:12654  tempProject.currentMilestoneIndex */\n      0xa0\n      add\n        /* \"contracts/CrowdSourcing.sol\":12621:12690  tempProject.currentMilestoneIndex = projects[i].currentMilestoneIndex */\n      dup2\n      dup2\n      mstore\n      pop\n      pop\n        /* \"contracts/CrowdSourcing.sol\":12732:12740  projects */\n      0x01\n        /* \"contracts/CrowdSourcing.sol\":12741:12742  i */\n      dup3\n        /* \"contracts/CrowdSourcing.sol\":12732:12743  projects[i] */\n      dup2\n      sload\n      dup2\n      lt\n      tag_348\n      jumpi\n      tag_349\n      tag_105\n      jump\t// in\n    tag_349:\n    tag_348:\n      swap1\n      0x00\n      mstore\n      keccak256(0x00, 0x20)\n      swap1\n      0x08\n      mul\n      add\n        /* \"contracts/CrowdSourcing.sol\":12732:12752  projects[i].isActive */\n      0x07\n      add\n      0x00\n      swap1\n      sload\n      swap1\n      0x0100\n      exp\n      swap1\n      div\n      0xff\n      and\n        /* \"contracts/CrowdSourcing.sol\":12709:12720  tempProject */\n      dup2\n        /* \"contracts/CrowdSourcing.sol\":12709:12729  tempProject.isActive */\n      0xc0\n      add\n        /* \"contracts/CrowdSourcing.sol\":12709:12752  tempProject.isActive = projects[i].isActive */\n      swap1\n      iszero\n      iszero\n      swap1\n      dup2\n      iszero\n      iszero\n      dup2\n      mstore\n      pop\n      pop\n        /* \"contracts/CrowdSourcing.sol\":12793:12804  tempProject */\n      dup1\n        /* \"contracts/CrowdSourcing.sol\":12771:12783  tempProjects */\n      dup5\n        /* \"contracts/CrowdSourcing.sol\":12784:12789  index */\n      dup5\n        /* \"contracts/CrowdSourcing.sol\":12771:12790  tempProjects[index] */\n      dup2\n      mload\n      dup2\n      lt\n      tag_351\n      jumpi\n      tag_352\n      tag_105\n      jump\t// in\n    tag_352:\n    tag_351:\n      0x20\n      mul\n      0x20\n      add\n      add\n        /* \"contracts/CrowdSourcing.sol\":12771:12804  tempProjects[index] = tempProject */\n      dup2\n      swap1\n      mstore\n      pop\n        /* \"contracts/CrowdSourcing.sol\":12823:12830  index++ */\n      dup3\n      dup1\n      tag_353\n      swap1\n      tag_300\n      jump\t// in\n    tag_353:\n      swap4\n      pop\n      pop\n        /* \"contracts/CrowdSourcing.sol\":12229:12846  {... */\n      pop\n        /* \"contracts/CrowdSourcing.sol\":12204:12846  if(projects[i].isActive) {... */\n    tag_313:\n        /* \"contracts/CrowdSourcing.sol\":12185:12188  i++ */\n      dup1\n      dup1\n      0x01\n      add\n      swap2\n      pop\n      pop\n        /* \"contracts/CrowdSourcing.sol\":12152:12857  for(uint i=0; i<projects.length; i++){... */\n      jump(tag_307)\n    tag_308:\n      pop\n        /* \"contracts/CrowdSourcing.sol\":12874:12886  tempProjects */\n      dup2\n        /* \"contracts/CrowdSourcing.sol\":12867:12886  return tempProjects */\n      swap4\n      pop\n      pop\n      pop\n      pop\n        /* \"contracts/CrowdSourcing.sol\":11752:12894  function getAllActiveProjects() external view returns (ProjectView[] memory) {... */\n      swap1\n      jump\t// out\n        /* \"contracts/CrowdSourcing.sol\":6136:7214  function initiateNextMilestone(uint projectIndex) private {... */\n    tag_174:\n        /* \"contracts/CrowdSourcing.sol\":6205:6228  Project storage project */\n      0x00\n        /* \"contracts/CrowdSourcing.sol\":6231:6239  projects */\n      0x01\n        /* \"contracts/CrowdSourcing.sol\":6240:6252  projectIndex */\n      dup3\n        /* \"contracts/CrowdSourcing.sol\":6231:6253  projects[projectIndex] */\n      dup2\n      sload\n      dup2\n      lt\n      tag_355\n      jumpi\n      tag_356\n      tag_105\n      jump\t// in\n    tag_356:\n    tag_355:\n      swap1\n      0x00\n      mstore\n      keccak256(0x00, 0x20)\n      swap1\n      0x08\n      mul\n      add\n        /* \"contracts/CrowdSourcing.sol\":6205:6253  Project storage project = projects[projectIndex] */\n      swap1\n      pop\n        /* \"contracts/CrowdSourcing.sol\":6264:6298  Milestone storage currentMilestone */\n      0x00\n        /* \"contracts/CrowdSourcing.sol\":6301:6308  project */\n      dup2\n        /* \"contracts/CrowdSourcing.sol\":6301:6319  project.milestones */\n      0x06\n      add\n        /* \"contracts/CrowdSourcing.sol\":6334:6341  project */\n      dup3\n        /* \"contracts/CrowdSourcing.sol\":6334:6363  project.currentMilestoneIndex */\n      0x05\n      add\n      sload\n        /* \"contracts/CrowdSourcing.sol\":6301:6374  project.milestones[... */\n      dup2\n      sload\n      dup2\n      lt\n      tag_358\n      jumpi\n      tag_359\n      tag_105\n      jump\t// in\n    tag_359:\n    tag_358:\n      swap1\n      0x00\n      mstore\n      keccak256(0x00, 0x20)\n      swap1\n      0x06\n      mul\n      add\n        /* \"contracts/CrowdSourcing.sol\":6264:6374  Milestone storage currentMilestone = project.milestones[... */\n      swap1\n      pop\n        /* \"contracts/CrowdSourcing.sol\":6385:6407  uint moneyAmountToSend */\n      0x00\n        /* \"contracts/CrowdSourcing.sol\":6410:6426  currentMilestone */\n      dup2\n        /* \"contracts/CrowdSourcing.sol\":6410:6438  currentMilestone.totalFunded */\n      0x02\n      add\n      sload\n        /* \"contracts/CrowdSourcing.sol\":6385:6438  uint moneyAmountToSend = currentMilestone.totalFunded */\n      swap1\n      pop\n        /* \"contracts/CrowdSourcing.sol\":6484:6485  0 */\n      0x00\n        /* \"contracts/CrowdSourcing.sol\":6452:6459  project */\n      dup4\n        /* \"contracts/CrowdSourcing.sol\":6452:6481  project.currentMilestoneIndex */\n      0x05\n      add\n      sload\n        /* \"contracts/CrowdSourcing.sol\":6452:6485  project.currentMilestoneIndex > 0 */\n      gt\n        /* \"contracts/CrowdSourcing.sol\":6449:6600  if(project.currentMilestoneIndex > 0) {... */\n      iszero\n      tag_361\n      jumpi\n        /* \"contracts/CrowdSourcing.sol\":6523:6530  project */\n      dup3\n        /* \"contracts/CrowdSourcing.sol\":6523:6541  project.milestones */\n      0x06\n      add\n        /* \"contracts/CrowdSourcing.sol\":6574:6575  1 */\n      0x01\n        /* \"contracts/CrowdSourcing.sol\":6542:6549  project */\n      dup5\n        /* \"contracts/CrowdSourcing.sol\":6542:6571  project.currentMilestoneIndex */\n      0x05\n      add\n      sload\n        /* \"contracts/CrowdSourcing.sol\":6542:6575  project.currentMilestoneIndex - 1 */\n      tag_362\n      swap2\n      swap1\n      tag_99\n      jump\t// in\n    tag_362:\n        /* \"contracts/CrowdSourcing.sol\":6523:6576  project.milestones[project.currentMilestoneIndex - 1] */\n      dup2\n      sload\n      dup2\n      lt\n      tag_363\n      jumpi\n      tag_364\n      tag_105\n      jump\t// in\n    tag_364:\n    tag_363:\n      swap1\n      0x00\n      mstore\n      keccak256(0x00, 0x20)\n      swap1\n      0x06\n      mul\n      add\n        /* \"contracts/CrowdSourcing.sol\":6523:6588  project.milestones[project.currentMilestoneIndex - 1].totalFunded */\n      0x02\n      add\n      sload\n        /* \"contracts/CrowdSourcing.sol\":6502:6588  moneyAmountToSend -= project.milestones[project.currentMilestoneIndex - 1].totalFunded */\n      dup2\n      tag_366\n      swap2\n      swap1\n      tag_99\n      jump\t// in\n    tag_366:\n      swap1\n      pop\n        /* \"contracts/CrowdSourcing.sol\":6449:6600  if(project.currentMilestoneIndex > 0) {... */\n    tag_361:\n        /* \"contracts/CrowdSourcing.sol\":6643:6659  currentMilestone */\n      dup2\n        /* \"contracts/CrowdSourcing.sol\":6643:6664  currentMilestone.info */\n      0x00\n      add\n        /* \"contracts/CrowdSourcing.sol\":6643:6675  currentMilestone.info.goalAmount */\n      0x00\n      add\n      sload\n        /* \"contracts/CrowdSourcing.sol\":6620:6627  project */\n      dup4\n        /* \"contracts/CrowdSourcing.sol\":6620:6639  project.totalFunded */\n      0x04\n      add\n      sload\n        /* \"contracts/CrowdSourcing.sol\":6620:6675  project.totalFunded >= currentMilestone.info.goalAmount */\n      lt\n        /* \"contracts/CrowdSourcing.sol\":6616:7207  if (project.totalFunded >= currentMilestone.info.goalAmount) {... */\n      tag_367\n      jumpi\n        /* \"contracts/CrowdSourcing.sol\":6719:6723  true */\n      0x01\n        /* \"contracts/CrowdSourcing.sol\":6692:6708  currentMilestone */\n      dup3\n        /* \"contracts/CrowdSourcing.sol\":6692:6716  currentMilestone.reached */\n      0x05\n      add\n      0x00\n        /* \"contracts/CrowdSourcing.sol\":6692:6723  currentMilestone.reached = true */\n      0x0100\n      exp\n      dup2\n      sload\n      dup2\n      0xff\n      mul\n      not\n      and\n      swap1\n      dup4\n      iszero\n      iszero\n      mul\n      or\n      swap1\n      sstore\n      pop\n        /* \"contracts/CrowdSourcing.sol\":6738:6790  sendMoneyToOwner(project.creator, moneyAmountToSend) */\n      tag_368\n        /* \"contracts/CrowdSourcing.sol\":6755:6762  project */\n      dup4\n        /* \"contracts/CrowdSourcing.sol\":6755:6770  project.creator */\n      0x00\n      add\n      0x00\n      swap1\n      sload\n      swap1\n      0x0100\n      exp\n      swap1\n      div\n      0xffffffffffffffffffffffffffffffffffffffff\n      and\n        /* \"contracts/CrowdSourcing.sol\":6772:6789  moneyAmountToSend */\n      dup3\n        /* \"contracts/CrowdSourcing.sol\":6738:6754  sendMoneyToOwner */\n      tag_369\n        /* \"contracts/CrowdSourcing.sol\":6738:6790  sendMoneyToOwner(project.creator, moneyAmountToSend) */\n      jump\t// in\n    tag_368:\n        /* \"contracts/CrowdSourcing.sol\":6871:6872  1 */\n      0x01\n        /* \"contracts/CrowdSourcing.sol\":6843:6850  project */\n      dup4\n        /* \"contracts/CrowdSourcing.sol\":6843:6861  project.milestones */\n      0x06\n      add\n        /* \"contracts/CrowdSourcing.sol\":6843:6868  project.milestones.length */\n      dup1\n      sload\n      swap1\n      pop\n        /* \"contracts/CrowdSourcing.sol\":6843:6872  project.milestones.length - 1 */\n      tag_370\n      swap2\n      swap1\n      tag_99\n      jump\t// in\n    tag_370:\n        /* \"contracts/CrowdSourcing.sol\":6811:6818  project */\n      dup4\n        /* \"contracts/CrowdSourcing.sol\":6811:6840  project.currentMilestoneIndex */\n      0x05\n      add\n      sload\n        /* \"contracts/CrowdSourcing.sol\":6811:6872  project.currentMilestoneIndex < project.milestones.length - 1 */\n      lt\n        /* \"contracts/CrowdSourcing.sol\":6807:7068  if (project.currentMilestoneIndex < project.milestones.length - 1) {... */\n      iszero\n      tag_371\n      jumpi\n        /* \"contracts/CrowdSourcing.sol\":6893:6900  project */\n      dup3\n        /* \"contracts/CrowdSourcing.sol\":6893:6922  project.currentMilestoneIndex */\n      0x05\n      add\n      0x00\n        /* \"contracts/CrowdSourcing.sol\":6893:6924  project.currentMilestoneIndex++ */\n      dup2\n      sload\n      dup1\n      swap3\n      swap2\n      swap1\n      tag_372\n      swap1\n      tag_300\n      jump\t// in\n    tag_372:\n      swap2\n      swap1\n      pop\n      sstore\n      pop\n        /* \"contracts/CrowdSourcing.sol\":6807:7068  if (project.currentMilestoneIndex < project.milestones.length - 1) {... */\n      jump(tag_373)\n    tag_371:\n        /* \"contracts/CrowdSourcing.sol\":7047:7052  false */\n      0x00\n        /* \"contracts/CrowdSourcing.sol\":7028:7035  project */\n      dup4\n        /* \"contracts/CrowdSourcing.sol\":7028:7044  project.isActive */\n      0x07\n      add\n      0x00\n        /* \"contracts/CrowdSourcing.sol\":7028:7052  project.isActive = false */\n      0x0100\n      exp\n      dup2\n      sload\n      dup2\n      0xff\n      mul\n      not\n      and\n      swap1\n      dup4\n      iszero\n      iszero\n      mul\n      or\n      swap1\n      sstore\n      pop\n        /* \"contracts/CrowdSourcing.sol\":6807:7068  if (project.currentMilestoneIndex < project.milestones.length - 1) {... */\n    tag_373:\n        /* \"contracts/CrowdSourcing.sol\":6616:7207  if (project.totalFunded >= currentMilestone.info.goalAmount) {... */\n      jump(tag_374)\n    tag_367:\n        /* \"contracts/CrowdSourcing.sol\":7164:7195  stopProjectHelper(projectIndex) */\n      tag_375\n        /* \"contracts/CrowdSourcing.sol\":7182:7194  projectIndex */\n      dup5\n        /* \"contracts/CrowdSourcing.sol\":7164:7181  stopProjectHelper */\n      tag_192\n        /* \"contracts/CrowdSourcing.sol\":7164:7195  stopProjectHelper(projectIndex) */\n      jump\t// in\n    tag_375:\n        /* \"contracts/CrowdSourcing.sol\":6616:7207  if (project.totalFunded >= currentMilestone.info.goalAmount) {... */\n    tag_374:\n        /* \"contracts/CrowdSourcing.sol\":6194:7214  {... */\n      pop\n      pop\n      pop\n        /* \"contracts/CrowdSourcing.sol\":6136:7214  function initiateNextMilestone(uint projectIndex) private {... */\n      pop\n      jump\t// out\n        /* \"contracts/CrowdSourcing.sol\":8558:8853  function stopProjectHelper(uint projectIndex) private {... */\n    tag_192:\n        /* \"contracts/CrowdSourcing.sol\":8623:8646  Project storage project */\n      0x00\n        /* \"contracts/CrowdSourcing.sol\":8649:8657  projects */\n      0x01\n        /* \"contracts/CrowdSourcing.sol\":8658:8670  projectIndex */\n      dup3\n        /* \"contracts/CrowdSourcing.sol\":8649:8671  projects[projectIndex] */\n      dup2\n      sload\n      dup2\n      lt\n      tag_377\n      jumpi\n      tag_378\n      tag_105\n      jump\t// in\n    tag_378:\n    tag_377:\n      swap1\n      0x00\n      mstore\n      keccak256(0x00, 0x20)\n      swap1\n      0x08\n      mul\n      add\n        /* \"contracts/CrowdSourcing.sol\":8623:8671  Project storage project = projects[projectIndex] */\n      swap1\n      pop\n        /* \"contracts/CrowdSourcing.sol\":8690:8697  project */\n      dup1\n        /* \"contracts/CrowdSourcing.sol\":8690:8706  project.isActive */\n      0x07\n      add\n      0x00\n      swap1\n      sload\n      swap1\n      0x0100\n      exp\n      swap1\n      div\n      0xff\n      and\n        /* \"contracts/CrowdSourcing.sol\":8682:8739  require(project.isActive, \"Cannot stop inactive project\") */\n      tag_380\n      jumpi\n      mload(0x40)\n      0x08c379a000000000000000000000000000000000000000000000000000000000\n      dup2\n      mstore\n      0x04\n      add\n      tag_381\n      swap1\n      tag_382\n      jump\t// in\n    tag_381:\n      mload(0x40)\n      dup1\n      swap2\n      sub\n      swap1\n      revert\n    tag_380:\n        /* \"contracts/CrowdSourcing.sol\":8769:8774  false */\n      0x00\n        /* \"contracts/CrowdSourcing.sol\":8750:8757  project */\n      dup2\n        /* \"contracts/CrowdSourcing.sol\":8750:8766  project.isActive */\n      0x07\n      add\n      0x00\n        /* \"contracts/CrowdSourcing.sol\":8750:8774  project.isActive = false */\n      0x0100\n      exp\n      dup2\n      sload\n      dup2\n      0xff\n      mul\n      not\n      and\n      swap1\n      dup4\n      iszero\n      iszero\n      mul\n      or\n      swap1\n      sstore\n      pop\n        /* \"contracts/CrowdSourcing.sol\":8785:8845  refundMilestone(projectIndex, project.currentMilestoneIndex) */\n      tag_383\n        /* \"contracts/CrowdSourcing.sol\":8801:8813  projectIndex */\n      dup3\n        /* \"contracts/CrowdSourcing.sol\":8815:8822  project */\n      dup3\n        /* \"contracts/CrowdSourcing.sol\":8815:8844  project.currentMilestoneIndex */\n      0x05\n      add\n      sload\n        /* \"contracts/CrowdSourcing.sol\":8785:8800  refundMilestone */\n      tag_384\n        /* \"contracts/CrowdSourcing.sol\":8785:8845  refundMilestone(projectIndex, project.currentMilestoneIndex) */\n      jump\t// in\n    tag_383:\n        /* \"contracts/CrowdSourcing.sol\":8612:8853  {... */\n      pop\n        /* \"contracts/CrowdSourcing.sol\":8558:8853  function stopProjectHelper(uint projectIndex) private {... */\n      pop\n      jump\t// out\n        /* \"contracts/CrowdSourcing.sol\":7222:7461  function sendMoneyToOwner(... */\n    tag_369:\n        /* \"contracts/CrowdSourcing.sol\":7335:7347  bool success */\n      0x00\n        /* \"contracts/CrowdSourcing.sol\":7353:7367  projectCreator */\n      dup3\n        /* \"contracts/CrowdSourcing.sol\":7353:7372  projectCreator.call */\n      0xffffffffffffffffffffffffffffffffffffffff\n      and\n        /* \"contracts/CrowdSourcing.sol\":7380:7391  moneyAmount */\n      dup3\n        /* \"contracts/CrowdSourcing.sol\":7353:7396  projectCreator.call{value: moneyAmount}(\"\") */\n      mload(0x40)\n      tag_386\n      swap1\n      tag_165\n      jump\t// in\n    tag_386:\n      0x00\n      mload(0x40)\n      dup1\n      dup4\n      sub\n      dup2\n      dup6\n      dup8\n      gas\n      call\n      swap3\n      pop\n      pop\n      pop\n      returndatasize\n      dup1\n      0x00\n      dup2\n      eq\n      tag_389\n      jumpi\n      mload(0x40)\n      swap2\n      pop\n      and(add(returndatasize, 0x3f), not(0x1f))\n      dup3\n      add\n      0x40\n      mstore\n      returndatasize\n      dup3\n      mstore\n      returndatasize\n      0x00\n      0x20\n      dup5\n      add\n      returndatacopy\n      jump(tag_388)\n    tag_389:\n      0x60\n      swap2\n      pop\n    tag_388:\n      pop\n        /* \"contracts/CrowdSourcing.sol\":7334:7396  (bool success, ) = projectCreator.call{value: moneyAmount}(\"\") */\n      pop\n      swap1\n      pop\n        /* \"contracts/CrowdSourcing.sol\":7415:7422  success */\n      dup1\n        /* \"contracts/CrowdSourcing.sol\":7407:7453  require(success, \"Transfer to creator failed\") */\n      tag_390\n      jumpi\n      mload(0x40)\n      0x08c379a000000000000000000000000000000000000000000000000000000000\n      dup2\n      mstore\n      0x04\n      add\n      tag_391\n      swap1\n      tag_392\n      jump\t// in\n    tag_391:\n      mload(0x40)\n      dup1\n      swap2\n      sub\n      swap1\n      revert\n    tag_390:\n        /* \"contracts/CrowdSourcing.sol\":7323:7461  {... */\n      pop\n        /* \"contracts/CrowdSourcing.sol\":7222:7461  function sendMoneyToOwner(... */\n      pop\n      pop\n      jump\t// out\n        /* \"contracts/CrowdSourcing.sol\":7469:8094  function refundMilestone(uint projectIndex, uint milestoneIdx) private {... */\n    tag_384:\n        /* \"contracts/CrowdSourcing.sol\":7551:7574  Project storage project */\n      0x00\n        /* \"contracts/CrowdSourcing.sol\":7577:7585  projects */\n      0x01\n        /* \"contracts/CrowdSourcing.sol\":7586:7598  projectIndex */\n      dup4\n        /* \"contracts/CrowdSourcing.sol\":7577:7599  projects[projectIndex] */\n      dup2\n      sload\n      dup2\n      lt\n      tag_394\n      jumpi\n      tag_395\n      tag_105\n      jump\t// in\n    tag_395:\n    tag_394:\n      swap1\n      0x00\n      mstore\n      keccak256(0x00, 0x20)\n      swap1\n      0x08\n      mul\n      add\n        /* \"contracts/CrowdSourcing.sol\":7551:7599  Project storage project = projects[projectIndex] */\n      swap1\n      pop\n        /* \"contracts/CrowdSourcing.sol\":7610:7637  Milestone storage milestone */\n      0x00\n        /* \"contracts/CrowdSourcing.sol\":7640:7647  project */\n      dup2\n        /* \"contracts/CrowdSourcing.sol\":7640:7658  project.milestones */\n      0x06\n      add\n        /* \"contracts/CrowdSourcing.sol\":7659:7671  milestoneIdx */\n      dup4\n        /* \"contracts/CrowdSourcing.sol\":7640:7672  project.milestones[milestoneIdx] */\n      dup2\n      sload\n      dup2\n      lt\n      tag_397\n      jumpi\n      tag_398\n      tag_105\n      jump\t// in\n    tag_398:\n    tag_397:\n      swap1\n      0x00\n      mstore\n      keccak256(0x00, 0x20)\n      swap1\n      0x06\n      mul\n      add\n        /* \"contracts/CrowdSourcing.sol\":7610:7672  Milestone storage milestone = project.milestones[milestoneIdx] */\n      swap1\n      pop\n        /* \"contracts/CrowdSourcing.sol\":7690:7696  uint i */\n      0x00\n        /* \"contracts/CrowdSourcing.sol\":7699:7700  0 */\n      0x00\n        /* \"contracts/CrowdSourcing.sol\":7690:7700  uint i = 0 */\n      swap1\n      pop\n        /* \"contracts/CrowdSourcing.sol\":7685:8087  for (uint i = 0; i < milestone.funderAddresses.length; i++) {... */\n    tag_400:\n        /* \"contracts/CrowdSourcing.sol\":7706:7715  milestone */\n      dup2\n        /* \"contracts/CrowdSourcing.sol\":7706:7731  milestone.funderAddresses */\n      0x03\n      add\n        /* \"contracts/CrowdSourcing.sol\":7706:7738  milestone.funderAddresses.length */\n      dup1\n      sload\n      swap1\n      pop\n        /* \"contracts/CrowdSourcing.sol\":7702:7703  i */\n      dup2\n        /* \"contracts/CrowdSourcing.sol\":7702:7738  i < milestone.funderAddresses.length */\n      lt\n        /* \"contracts/CrowdSourcing.sol\":7685:8087  for (uint i = 0; i < milestone.funderAddresses.length; i++) {... */\n      iszero\n      tag_401\n      jumpi\n        /* \"contracts/CrowdSourcing.sol\":7760:7774  address funder */\n      0x00\n        /* \"contracts/CrowdSourcing.sol\":7777:7786  milestone */\n      dup3\n        /* \"contracts/CrowdSourcing.sol\":7777:7802  milestone.funderAddresses */\n      0x03\n      add\n        /* \"contracts/CrowdSourcing.sol\":7803:7804  i */\n      dup3\n        /* \"contracts/CrowdSourcing.sol\":7777:7805  milestone.funderAddresses[i] */\n      dup2\n      sload\n      dup2\n      lt\n      tag_403\n      jumpi\n      tag_404\n      tag_105\n      jump\t// in\n    tag_404:\n    tag_403:\n      swap1\n      0x00\n      mstore\n      keccak256(0x00, 0x20)\n      add\n      0x00\n      swap1\n      sload\n      swap1\n      0x0100\n      exp\n      swap1\n      div\n      0xffffffffffffffffffffffffffffffffffffffff\n      and\n        /* \"contracts/CrowdSourcing.sol\":7760:7805  address funder = milestone.funderAddresses[i] */\n      swap1\n      pop\n        /* \"contracts/CrowdSourcing.sol\":7820:7831  uint amount */\n      0x00\n        /* \"contracts/CrowdSourcing.sol\":7834:7843  milestone */\n      dup4\n        /* \"contracts/CrowdSourcing.sol\":7834:7851  milestone.funders */\n      0x04\n      add\n        /* \"contracts/CrowdSourcing.sol\":7834:7859  milestone.funders[funder] */\n      0x00\n        /* \"contracts/CrowdSourcing.sol\":7852:7858  funder */\n      dup4\n        /* \"contracts/CrowdSourcing.sol\":7834:7859  milestone.funders[funder] */\n      0xffffffffffffffffffffffffffffffffffffffff\n      and\n      0xffffffffffffffffffffffffffffffffffffffff\n      and\n      dup2\n      mstore\n      0x20\n      add\n      swap1\n      dup2\n      mstore\n      0x20\n      add\n      0x00\n      keccak256\n      sload\n        /* \"contracts/CrowdSourcing.sol\":7820:7859  uint amount = milestone.funders[funder] */\n      swap1\n      pop\n        /* \"contracts/CrowdSourcing.sol\":7889:7890  0 */\n      0x00\n        /* \"contracts/CrowdSourcing.sol\":7880:7886  amount */\n      dup2\n        /* \"contracts/CrowdSourcing.sol\":7880:7890  amount > 0 */\n      gt\n        /* \"contracts/CrowdSourcing.sol\":7876:8076  if (amount > 0) {... */\n      iszero\n      tag_406\n      jumpi\n        /* \"contracts/CrowdSourcing.sol\":7939:7940  0 */\n      0x00\n        /* \"contracts/CrowdSourcing.sol\":7911:7920  milestone */\n      dup5\n        /* \"contracts/CrowdSourcing.sol\":7911:7928  milestone.funders */\n      0x04\n      add\n        /* \"contracts/CrowdSourcing.sol\":7911:7936  milestone.funders[funder] */\n      0x00\n        /* \"contracts/CrowdSourcing.sol\":7929:7935  funder */\n      dup5\n        /* \"contracts/CrowdSourcing.sol\":7911:7936  milestone.funders[funder] */\n      0xffffffffffffffffffffffffffffffffffffffff\n      and\n      0xffffffffffffffffffffffffffffffffffffffff\n      and\n      dup2\n      mstore\n      0x20\n      add\n      swap1\n      dup2\n      mstore\n      0x20\n      add\n      0x00\n      keccak256\n        /* \"contracts/CrowdSourcing.sol\":7911:7940  milestone.funders[funder] = 0 */\n      dup2\n      swap1\n      sstore\n      pop\n        /* \"contracts/CrowdSourcing.sol\":7960:7972  bool success */\n      0x00\n        /* \"contracts/CrowdSourcing.sol\":7978:7984  funder */\n      dup3\n        /* \"contracts/CrowdSourcing.sol\":7978:7989  funder.call */\n      0xffffffffffffffffffffffffffffffffffffffff\n      and\n        /* \"contracts/CrowdSourcing.sol\":7997:8003  amount */\n      dup3\n        /* \"contracts/CrowdSourcing.sol\":7978:8008  funder.call{value: amount}(\"\") */\n      mload(0x40)\n      tag_407\n      swap1\n      tag_165\n      jump\t// in\n    tag_407:\n      0x00\n      mload(0x40)\n      dup1\n      dup4\n      sub\n      dup2\n      dup6\n      dup8\n      gas\n      call\n      swap3\n      pop\n      pop\n      pop\n      returndatasize\n      dup1\n      0x00\n      dup2\n      eq\n      tag_410\n      jumpi\n      mload(0x40)\n      swap2\n      pop\n      and(add(returndatasize, 0x3f), not(0x1f))\n      dup3\n      add\n      0x40\n      mstore\n      returndatasize\n      dup3\n      mstore\n      returndatasize\n      0x00\n      0x20\n      dup5\n      add\n      returndatacopy\n      jump(tag_409)\n    tag_410:\n      0x60\n      swap2\n      pop\n    tag_409:\n      pop\n        /* \"contracts/CrowdSourcing.sol\":7959:8008  (bool success, ) = funder.call{value: amount}(\"\") */\n      pop\n      swap1\n      pop\n        /* \"contracts/CrowdSourcing.sol\":8035:8042  success */\n      dup1\n        /* \"contracts/CrowdSourcing.sol\":8027:8060  require(success, \"Refund failed\") */\n      tag_411\n      jumpi\n      mload(0x40)\n      0x08c379a000000000000000000000000000000000000000000000000000000000\n      dup2\n      mstore\n      0x04\n      add\n      tag_412\n      swap1\n      tag_413\n      jump\t// in\n    tag_412:\n      mload(0x40)\n      dup1\n      swap2\n      sub\n      swap1\n      revert\n    tag_411:\n        /* \"contracts/CrowdSourcing.sol\":7892:8076  {... */\n      pop\n        /* \"contracts/CrowdSourcing.sol\":7876:8076  if (amount > 0) {... */\n    tag_406:\n        /* \"contracts/CrowdSourcing.sol\":7745:8087  {... */\n      pop\n      pop\n        /* \"contracts/CrowdSourcing.sol\":7740:7743  i++ */\n      dup1\n      dup1\n      0x01\n      add\n      swap2\n      pop\n      pop\n        /* \"contracts/CrowdSourcing.sol\":7685:8087  for (uint i = 0; i < milestone.funderAddresses.length; i++) {... */\n      jump(tag_400)\n    tag_401:\n      pop\n        /* \"contracts/CrowdSourcing.sol\":7540:8094  {... */\n      pop\n      pop\n        /* \"contracts/CrowdSourcing.sol\":7469:8094  function refundMilestone(uint projectIndex, uint milestoneIdx) private {... */\n      pop\n      pop\n      jump\t// out\n    tag_261:\n      mload(0x40)\n      dup1\n      0x40\n      add\n      0x40\n      mstore\n      dup1\n      0x00\n      dup2\n      mstore\n      0x20\n      add\n      0x00\n      dup2\n      mstore\n      pop\n      swap1\n      jump\t// out\n    tag_306:\n      mload(0x40)\n      dup1\n      0xe0\n      add\n      0x40\n      mstore\n      dup1\n      and(0xffffffffffffffffffffffffffffffffffffffff, 0x00)\n      dup2\n      mstore\n      0x20\n      add\n      0x60\n      dup2\n      mstore\n      0x20\n      add\n      0x60\n      dup2\n      mstore\n      0x20\n      add\n      0x60\n      dup2\n      mstore\n      0x20\n      add\n      0x00\n      dup2\n      mstore\n      0x20\n      add\n      0x00\n      dup2\n      mstore\n      0x20\n      add\n      iszero(iszero(0x00))\n      dup2\n      mstore\n      pop\n      swap1\n      jump\t// out\n        /* \"#utility.yul\":7:133   */\n    tag_414:\n        /* \"#utility.yul\":44:51   */\n      0x00\n        /* \"#utility.yul\":84:126   */\n      0xffffffffffffffffffffffffffffffffffffffff\n        /* \"#utility.yul\":77:82   */\n      dup3\n        /* \"#utility.yul\":73:127   */\n      and\n        /* \"#utility.yul\":62:127   */\n      swap1\n      pop\n        /* \"#utility.yul\":7:133   */\n      swap2\n      swap1\n      pop\n      jump\t// out\n        /* \"#utility.yul\":139:235   */\n    tag_415:\n        /* \"#utility.yul\":176:183   */\n      0x00\n        /* \"#utility.yul\":205:229   */\n      tag_537\n        /* \"#utility.yul\":223:228   */\n      dup3\n        /* \"#utility.yul\":205:229   */\n      tag_414\n      jump\t// in\n    tag_537:\n        /* \"#utility.yul\":194:229   */\n      swap1\n      pop\n        /* \"#utility.yul\":139:235   */\n      swap2\n      swap1\n      pop\n      jump\t// out\n        /* \"#utility.yul\":241:359   */\n    tag_416:\n        /* \"#utility.yul\":328:352   */\n      tag_539\n        /* \"#utility.yul\":346:351   */\n      dup2\n        /* \"#utility.yul\":328:352   */\n      tag_415\n      jump\t// in\n    tag_539:\n        /* \"#utility.yul\":323:326   */\n      dup3\n        /* \"#utility.yul\":316:353   */\n      mstore\n        /* \"#utility.yul\":241:359   */\n      pop\n      pop\n      jump\t// out\n        /* \"#utility.yul\":365:587   */\n    tag_18:\n        /* \"#utility.yul\":458:462   */\n      0x00\n        /* \"#utility.yul\":496:498   */\n      0x20\n        /* \"#utility.yul\":485:494   */\n      dup3\n        /* \"#utility.yul\":481:499   */\n      add\n        /* \"#utility.yul\":473:499   */\n      swap1\n      pop\n        /* \"#utility.yul\":509:580   */\n      tag_541\n        /* \"#utility.yul\":577:578   */\n      0x00\n        /* \"#utility.yul\":566:575   */\n      dup4\n        /* \"#utility.yul\":562:579   */\n      add\n        /* \"#utility.yul\":553:559   */\n      dup5\n        /* \"#utility.yul\":509:580   */\n      tag_416\n      jump\t// in\n    tag_541:\n        /* \"#utility.yul\":365:587   */\n      swap3\n      swap2\n      pop\n      pop\n      jump\t// out\n        /* \"#utility.yul\":593:668   */\n    tag_417:\n        /* \"#utility.yul\":626:632   */\n      0x00\n        /* \"#utility.yul\":659:661   */\n      0x40\n        /* \"#utility.yul\":653:662   */\n      mload\n        /* \"#utility.yul\":643:662   */\n      swap1\n      pop\n        /* \"#utility.yul\":593:668   */\n      swap1\n      jump\t// out\n        /* \"#utility.yul\":674:791   */\n    tag_418:\n        /* \"#utility.yul\":783:784   */\n      0x00\n        /* \"#utility.yul\":780:781   */\n      0x00\n        /* \"#utility.yul\":773:785   */\n      revert\n        /* \"#utility.yul\":797:914   */\n    tag_419:\n        /* \"#utility.yul\":906:907   */\n      0x00\n        /* \"#utility.yul\":903:904   */\n      0x00\n        /* \"#utility.yul\":896:908   */\n      revert\n        /* \"#utility.yul\":920:997   */\n    tag_420:\n        /* \"#utility.yul\":957:964   */\n      0x00\n        /* \"#utility.yul\":986:991   */\n      dup2\n        /* \"#utility.yul\":975:991   */\n      swap1\n      pop\n        /* \"#utility.yul\":920:997   */\n      swap2\n      swap1\n      pop\n      jump\t// out\n        /* \"#utility.yul\":1003:1125   */\n    tag_421:\n        /* \"#utility.yul\":1076:1100   */\n      tag_547\n        /* \"#utility.yul\":1094:1099   */\n      dup2\n        /* \"#utility.yul\":1076:1100   */\n      tag_420\n      jump\t// in\n    tag_547:\n        /* \"#utility.yul\":1069:1074   */\n      dup2\n        /* \"#utility.yul\":1066:1101   */\n      eq\n        /* \"#utility.yul\":1056:1119   */\n      tag_548\n      jumpi\n        /* \"#utility.yul\":1115:1116   */\n      0x00\n        /* \"#utility.yul\":1112:1113   */\n      0x00\n        /* \"#utility.yul\":1105:1117   */\n      revert\n        /* \"#utility.yul\":1056:1119   */\n    tag_548:\n        /* \"#utility.yul\":1003:1125   */\n      pop\n      jump\t// out\n        /* \"#utility.yul\":1131:1270   */\n    tag_422:\n        /* \"#utility.yul\":1177:1182   */\n      0x00\n        /* \"#utility.yul\":1215:1221   */\n      dup2\n        /* \"#utility.yul\":1202:1222   */\n      calldataload\n        /* \"#utility.yul\":1193:1222   */\n      swap1\n      pop\n        /* \"#utility.yul\":1231:1264   */\n      tag_550\n        /* \"#utility.yul\":1258:1263   */\n      dup2\n        /* \"#utility.yul\":1231:1264   */\n      tag_421\n      jump\t// in\n    tag_550:\n        /* \"#utility.yul\":1131:1270   */\n      swap3\n      swap2\n      pop\n      pop\n      jump\t// out\n        /* \"#utility.yul\":1276:1605   */\n    tag_22:\n        /* \"#utility.yul\":1335:1341   */\n      0x00\n        /* \"#utility.yul\":1384:1386   */\n      0x20\n        /* \"#utility.yul\":1372:1381   */\n      dup3\n        /* \"#utility.yul\":1363:1370   */\n      dup5\n        /* \"#utility.yul\":1359:1382   */\n      sub\n        /* \"#utility.yul\":1355:1387   */\n      slt\n        /* \"#utility.yul\":1352:1471   */\n      iszero\n      tag_552\n      jumpi\n        /* \"#utility.yul\":1390:1469   */\n      tag_553\n      tag_418\n      jump\t// in\n    tag_553:\n        /* \"#utility.yul\":1352:1471   */\n    tag_552:\n        /* \"#utility.yul\":1510:1511   */\n      0x00\n        /* \"#utility.yul\":1535:1588   */\n      tag_554\n        /* \"#utility.yul\":1580:1587   */\n      dup5\n        /* \"#utility.yul\":1571:1577   */\n      dup3\n        /* \"#utility.yul\":1560:1569   */\n      dup6\n        /* \"#utility.yul\":1556:1578   */\n      add\n        /* \"#utility.yul\":1535:1588   */\n      tag_422\n      jump\t// in\n    tag_554:\n        /* \"#utility.yul\":1525:1588   */\n      swap2\n      pop\n        /* \"#utility.yul\":1481:1598   */\n      pop\n        /* \"#utility.yul\":1276:1605   */\n      swap3\n      swap2\n      pop\n      pop\n      jump\t// out\n        /* \"#utility.yul\":1611:1710   */\n    tag_423:\n        /* \"#utility.yul\":1663:1669   */\n      0x00\n        /* \"#utility.yul\":1697:1702   */\n      dup2\n        /* \"#utility.yul\":1691:1703   */\n      mload\n        /* \"#utility.yul\":1681:1703   */\n      swap1\n      pop\n        /* \"#utility.yul\":1611:1710   */\n      swap2\n      swap1\n      pop\n      jump\t// out\n        /* \"#utility.yul\":1716:1885   */\n    tag_424:\n        /* \"#utility.yul\":1800:1811   */\n      0x00\n        /* \"#utility.yul\":1834:1840   */\n      dup3\n        /* \"#utility.yul\":1829:1832   */\n      dup3\n        /* \"#utility.yul\":1822:1841   */\n      mstore\n        /* \"#utility.yul\":1874:1878   */\n      0x20\n        /* \"#utility.yul\":1869:1872   */\n      dup3\n        /* \"#utility.yul\":1865:1879   */\n      add\n        /* \"#utility.yul\":1850:1879   */\n      swap1\n      pop\n        /* \"#utility.yul\":1716:1885   */\n      swap3\n      swap2\n      pop\n      pop\n      jump\t// out\n        /* \"#utility.yul\":1891:2030   */\n    tag_425:\n        /* \"#utility.yul\":1980:1986   */\n      dup3\n        /* \"#utility.yul\":1975:1978   */\n      dup2\n        /* \"#utility.yul\":1970:1973   */\n      dup4\n        /* \"#utility.yul\":1964:1987   */\n      mcopy\n        /* \"#utility.yul\":2021:2022   */\n      0x00\n        /* \"#utility.yul\":2012:2018   */\n      dup4\n        /* \"#utility.yul\":2007:2010   */\n      dup4\n        /* \"#utility.yul\":2003:2019   */\n      add\n        /* \"#utility.yul\":1996:2023   */\n      mstore\n        /* \"#utility.yul\":1891:2030   */\n      pop\n      pop\n      pop\n      jump\t// out\n        /* \"#utility.yul\":2036:2138   */\n    tag_426:\n        /* \"#utility.yul\":2077:2083   */\n      0x00\n        /* \"#utility.yul\":2128:2130   */\n      0x1f\n        /* \"#utility.yul\":2124:2131   */\n      not\n        /* \"#utility.yul\":2119:2121   */\n      0x1f\n        /* \"#utility.yul\":2112:2117   */\n      dup4\n        /* \"#utility.yul\":2108:2122   */\n      add\n        /* \"#utility.yul\":2104:2132   */\n      and\n        /* \"#utility.yul\":2094:2132   */\n      swap1\n      pop\n        /* \"#utility.yul\":2036:2138   */\n      swap2\n      swap1\n      pop\n      jump\t// out\n        /* \"#utility.yul\":2144:2521   */\n    tag_427:\n        /* \"#utility.yul\":2232:2235   */\n      0x00\n        /* \"#utility.yul\":2260:2299   */\n      tag_560\n        /* \"#utility.yul\":2293:2298   */\n      dup3\n        /* \"#utility.yul\":2260:2299   */\n      tag_423\n      jump\t// in\n    tag_560:\n        /* \"#utility.yul\":2315:2386   */\n      tag_561\n        /* \"#utility.yul\":2379:2385   */\n      dup2\n        /* \"#utility.yul\":2374:2377   */\n      dup6\n        /* \"#utility.yul\":2315:2386   */\n      tag_424\n      jump\t// in\n    tag_561:\n        /* \"#utility.yul\":2308:2386   */\n      swap4\n      pop\n        /* \"#utility.yul\":2395:2460   */\n      tag_562\n        /* \"#utility.yul\":2453:2459   */\n      dup2\n        /* \"#utility.yul\":2448:2451   */\n      dup6\n        /* \"#utility.yul\":2441:2445   */\n      0x20\n        /* \"#utility.yul\":2434:2439   */\n      dup7\n        /* \"#utility.yul\":2430:2446   */\n      add\n        /* \"#utility.yul\":2395:2460   */\n      tag_425\n      jump\t// in\n    tag_562:\n        /* \"#utility.yul\":2485:2514   */\n      tag_563\n        /* \"#utility.yul\":2507:2513   */\n      dup2\n        /* \"#utility.yul\":2485:2514   */\n      tag_426\n      jump\t// in\n    tag_563:\n        /* \"#utility.yul\":2480:2483   */\n      dup5\n        /* \"#utility.yul\":2476:2515   */\n      add\n        /* \"#utility.yul\":2469:2515   */\n      swap2\n      pop\n        /* \"#utility.yul\":2236:2521   */\n      pop\n        /* \"#utility.yul\":2144:2521   */\n      swap3\n      swap2\n      pop\n      pop\n      jump\t// out\n        /* \"#utility.yul\":2527:2645   */\n    tag_428:\n        /* \"#utility.yul\":2614:2638   */\n      tag_565\n        /* \"#utility.yul\":2632:2637   */\n      dup2\n        /* \"#utility.yul\":2614:2638   */\n      tag_420\n      jump\t// in\n    tag_565:\n        /* \"#utility.yul\":2609:2612   */\n      dup3\n        /* \"#utility.yul\":2602:2639   */\n      mstore\n        /* \"#utility.yul\":2527:2645   */\n      pop\n      pop\n      jump\t// out\n        /* \"#utility.yul\":2651:2741   */\n    tag_429:\n        /* \"#utility.yul\":2685:2692   */\n      0x00\n        /* \"#utility.yul\":2728:2733   */\n      dup2\n        /* \"#utility.yul\":2721:2734   */\n      iszero\n        /* \"#utility.yul\":2714:2735   */\n      iszero\n        /* \"#utility.yul\":2703:2735   */\n      swap1\n      pop\n        /* \"#utility.yul\":2651:2741   */\n      swap2\n      swap1\n      pop\n      jump\t// out\n        /* \"#utility.yul\":2747:2856   */\n    tag_430:\n        /* \"#utility.yul\":2828:2849   */\n      tag_568\n        /* \"#utility.yul\":2843:2848   */\n      dup2\n        /* \"#utility.yul\":2828:2849   */\n      tag_429\n      jump\t// in\n    tag_568:\n        /* \"#utility.yul\":2823:2826   */\n      dup3\n        /* \"#utility.yul\":2816:2850   */\n      mstore\n        /* \"#utility.yul\":2747:2856   */\n      pop\n      pop\n      jump\t// out\n        /* \"#utility.yul\":2862:4009   */\n    tag_25:\n        /* \"#utility.yul\":3177:3181   */\n      0x00\n        /* \"#utility.yul\":3215:3218   */\n      0xe0\n        /* \"#utility.yul\":3204:3213   */\n      dup3\n        /* \"#utility.yul\":3200:3219   */\n      add\n        /* \"#utility.yul\":3192:3219   */\n      swap1\n      pop\n        /* \"#utility.yul\":3229:3300   */\n      tag_570\n        /* \"#utility.yul\":3297:3298   */\n      0x00\n        /* \"#utility.yul\":3286:3295   */\n      dup4\n        /* \"#utility.yul\":3282:3299   */\n      add\n        /* \"#utility.yul\":3273:3279   */\n      dup11\n        /* \"#utility.yul\":3229:3300   */\n      tag_416\n      jump\t// in\n    tag_570:\n        /* \"#utility.yul\":3347:3356   */\n      dup2\n        /* \"#utility.yul\":3341:3345   */\n      dup2\n        /* \"#utility.yul\":3337:3357   */\n      sub\n        /* \"#utility.yul\":3332:3334   */\n      0x20\n        /* \"#utility.yul\":3321:3330   */\n      dup4\n        /* \"#utility.yul\":3317:3335   */\n      add\n        /* \"#utility.yul\":3310:3358   */\n      mstore\n        /* \"#utility.yul\":3375:3453   */\n      tag_571\n        /* \"#utility.yul\":3448:3452   */\n      dup2\n        /* \"#utility.yul\":3439:3445   */\n      dup10\n        /* \"#utility.yul\":3375:3453   */\n      tag_427\n      jump\t// in\n    tag_571:\n        /* \"#utility.yul\":3367:3453   */\n      swap1\n      pop\n        /* \"#utility.yul\":3500:3509   */\n      dup2\n        /* \"#utility.yul\":3494:3498   */\n      dup2\n        /* \"#utility.yul\":3490:3510   */\n      sub\n        /* \"#utility.yul\":3485:3487   */\n      0x40\n        /* \"#utility.yul\":3474:3483   */\n      dup4\n        /* \"#utility.yul\":3470:3488   */\n      add\n        /* \"#utility.yul\":3463:3511   */\n      mstore\n        /* \"#utility.yul\":3528:3606   */\n      tag_572\n        /* \"#utility.yul\":3601:3605   */\n      dup2\n        /* \"#utility.yul\":3592:3598   */\n      dup9\n        /* \"#utility.yul\":3528:3606   */\n      tag_427\n      jump\t// in\n    tag_572:\n        /* \"#utility.yul\":3520:3606   */\n      swap1\n      pop\n        /* \"#utility.yul\":3653:3662   */\n      dup2\n        /* \"#utility.yul\":3647:3651   */\n      dup2\n        /* \"#utility.yul\":3643:3663   */\n      sub\n        /* \"#utility.yul\":3638:3640   */\n      0x60\n        /* \"#utility.yul\":3627:3636   */\n      dup4\n        /* \"#utility.yul\":3623:3641   */\n      add\n        /* \"#utility.yul\":3616:3664   */\n      mstore\n        /* \"#utility.yul\":3681:3759   */\n      tag_573\n        /* \"#utility.yul\":3754:3758   */\n      dup2\n        /* \"#utility.yul\":3745:3751   */\n      dup8\n        /* \"#utility.yul\":3681:3759   */\n      tag_427\n      jump\t// in\n    tag_573:\n        /* \"#utility.yul\":3673:3759   */\n      swap1\n      pop\n        /* \"#utility.yul\":3769:3842   */\n      tag_574\n        /* \"#utility.yul\":3837:3840   */\n      0x80\n        /* \"#utility.yul\":3826:3835   */\n      dup4\n        /* \"#utility.yul\":3822:3841   */\n      add\n        /* \"#utility.yul\":3813:3819   */\n      dup7\n        /* \"#utility.yul\":3769:3842   */\n      tag_428\n      jump\t// in\n    tag_574:\n        /* \"#utility.yul\":3852:3925   */\n      tag_575\n        /* \"#utility.yul\":3920:3923   */\n      0xa0\n        /* \"#utility.yul\":3909:3918   */\n      dup4\n        /* \"#utility.yul\":3905:3924   */\n      add\n        /* \"#utility.yul\":3896:3902   */\n      dup6\n        /* \"#utility.yul\":3852:3925   */\n      tag_428\n      jump\t// in\n    tag_575:\n        /* \"#utility.yul\":3935:4002   */\n      tag_576\n        /* \"#utility.yul\":3997:4000   */\n      0xc0\n        /* \"#utility.yul\":3986:3995   */\n      dup4\n        /* \"#utility.yul\":3982:4001   */\n      add\n        /* \"#utility.yul\":3973:3979   */\n      dup5\n        /* \"#utility.yul\":3935:4002   */\n      tag_430\n      jump\t// in\n    tag_576:\n        /* \"#utility.yul\":2862:4009   */\n      swap9\n      swap8\n      pop\n      pop\n      pop\n      pop\n      pop\n      pop\n      pop\n      pop\n      jump\t// out\n        /* \"#utility.yul\":4015:4132   */\n    tag_431:\n        /* \"#utility.yul\":4124:4125   */\n      0x00\n        /* \"#utility.yul\":4121:4122   */\n      0x00\n        /* \"#utility.yul\":4114:4126   */\n      revert\n        /* \"#utility.yul\":4138:4255   */\n    tag_432:\n        /* \"#utility.yul\":4247:4248   */\n      0x00\n        /* \"#utility.yul\":4244:4245   */\n      0x00\n        /* \"#utility.yul\":4237:4249   */\n      revert\n        /* \"#utility.yul\":4261:4441   */\n    tag_279:\n        /* \"#utility.yul\":4309:4386   */\n      0x4e487b7100000000000000000000000000000000000000000000000000000000\n        /* \"#utility.yul\":4306:4307   */\n      0x00\n        /* \"#utility.yul\":4299:4387   */\n      mstore\n        /* \"#utility.yul\":4406:4410   */\n      0x41\n        /* \"#utility.yul\":4403:4404   */\n      0x04\n        /* \"#utility.yul\":4396:4411   */\n      mstore\n        /* \"#utility.yul\":4430:4434   */\n      0x24\n        /* \"#utility.yul\":4427:4428   */\n      0x00\n        /* \"#utility.yul\":4420:4435   */\n      revert\n        /* \"#utility.yul\":4447:4728   */\n    tag_433:\n        /* \"#utility.yul\":4530:4557   */\n      tag_581\n        /* \"#utility.yul\":4552:4556   */\n      dup3\n        /* \"#utility.yul\":4530:4557   */\n      tag_426\n      jump\t// in\n    tag_581:\n        /* \"#utility.yul\":4522:4528   */\n      dup2\n        /* \"#utility.yul\":4518:4558   */\n      add\n        /* \"#utility.yul\":4660:4666   */\n      dup2\n        /* \"#utility.yul\":4648:4658   */\n      dup2\n        /* \"#utility.yul\":4645:4667   */\n      lt\n        /* \"#utility.yul\":4624:4642   */\n      0xffffffffffffffff\n        /* \"#utility.yul\":4612:4622   */\n      dup3\n        /* \"#utility.yul\":4609:4643   */\n      gt\n        /* \"#utility.yul\":4606:4668   */\n      or\n        /* \"#utility.yul\":4603:4691   */\n      iszero\n      tag_582\n      jumpi\n        /* \"#utility.yul\":4671:4689   */\n      tag_583\n      tag_279\n      jump\t// in\n    tag_583:\n        /* \"#utility.yul\":4603:4691   */\n    tag_582:\n        /* \"#utility.yul\":4711:4721   */\n      dup1\n        /* \"#utility.yul\":4707:4709   */\n      0x40\n        /* \"#utility.yul\":4700:4722   */\n      mstore\n        /* \"#utility.yul\":4490:4728   */\n      pop\n        /* \"#utility.yul\":4447:4728   */\n      pop\n      pop\n      jump\t// out\n        /* \"#utility.yul\":4734:4863   */\n    tag_434:\n        /* \"#utility.yul\":4768:4774   */\n      0x00\n        /* \"#utility.yul\":4795:4815   */\n      tag_585\n      tag_417\n      jump\t// in\n    tag_585:\n        /* \"#utility.yul\":4785:4815   */\n      swap1\n      pop\n        /* \"#utility.yul\":4824:4857   */\n      tag_586\n        /* \"#utility.yul\":4852:4856   */\n      dup3\n        /* \"#utility.yul\":4844:4850   */\n      dup3\n        /* \"#utility.yul\":4824:4857   */\n      tag_433\n      jump\t// in\n    tag_586:\n        /* \"#utility.yul\":4734:4863   */\n      swap2\n      swap1\n      pop\n      jump\t// out\n        /* \"#utility.yul\":4869:5177   */\n    tag_435:\n        /* \"#utility.yul\":4931:4935   */\n      0x00\n        /* \"#utility.yul\":5021:5039   */\n      0xffffffffffffffff\n        /* \"#utility.yul\":5013:5019   */\n      dup3\n        /* \"#utility.yul\":5010:5040   */\n      gt\n        /* \"#utility.yul\":5007:5063   */\n      iszero\n      tag_588\n      jumpi\n        /* \"#utility.yul\":5043:5061   */\n      tag_589\n      tag_279\n      jump\t// in\n    tag_589:\n        /* \"#utility.yul\":5007:5063   */\n    tag_588:\n        /* \"#utility.yul\":5081:5110   */\n      tag_590\n        /* \"#utility.yul\":5103:5109   */\n      dup3\n        /* \"#utility.yul\":5081:5110   */\n      tag_426\n      jump\t// in\n    tag_590:\n        /* \"#utility.yul\":5073:5110   */\n      swap1\n      pop\n        /* \"#utility.yul\":5165:5169   */\n      0x20\n        /* \"#utility.yul\":5159:5163   */\n      dup2\n        /* \"#utility.yul\":5155:5170   */\n      add\n        /* \"#utility.yul\":5147:5170   */\n      swap1\n      pop\n        /* \"#utility.yul\":4869:5177   */\n      swap2\n      swap1\n      pop\n      jump\t// out\n        /* \"#utility.yul\":5183:5331   */\n    tag_436:\n        /* \"#utility.yul\":5281:5287   */\n      dup3\n        /* \"#utility.yul\":5276:5279   */\n      dup2\n        /* \"#utility.yul\":5271:5274   */\n      dup4\n        /* \"#utility.yul\":5258:5288   */\n      calldatacopy\n        /* \"#utility.yul\":5322:5323   */\n      0x00\n        /* \"#utility.yul\":5313:5319   */\n      dup4\n        /* \"#utility.yul\":5308:5311   */\n      dup4\n        /* \"#utility.yul\":5304:5320   */\n      add\n        /* \"#utility.yul\":5297:5324   */\n      mstore\n        /* \"#utility.yul\":5183:5331   */\n      pop\n      pop\n      pop\n      jump\t// out\n        /* \"#utility.yul\":5337:5762   */\n    tag_437:\n        /* \"#utility.yul\":5415:5420   */\n      0x00\n        /* \"#utility.yul\":5440:5506   */\n      tag_593\n        /* \"#utility.yul\":5456:5505   */\n      tag_594\n        /* \"#utility.yul\":5498:5504   */\n      dup5\n        /* \"#utility.yul\":5456:5505   */\n      tag_435\n      jump\t// in\n    tag_594:\n        /* \"#utility.yul\":5440:5506   */\n      tag_434\n      jump\t// in\n    tag_593:\n        /* \"#utility.yul\":5431:5506   */\n      swap1\n      pop\n        /* \"#utility.yul\":5529:5535   */\n      dup3\n        /* \"#utility.yul\":5522:5527   */\n      dup2\n        /* \"#utility.yul\":5515:5536   */\n      mstore\n        /* \"#utility.yul\":5567:5571   */\n      0x20\n        /* \"#utility.yul\":5560:5565   */\n      dup2\n        /* \"#utility.yul\":5556:5572   */\n      add\n        /* \"#utility.yul\":5605:5608   */\n      dup5\n        /* \"#utility.yul\":5596:5602   */\n      dup5\n        /* \"#utility.yul\":5591:5594   */\n      dup5\n        /* \"#utility.yul\":5587:5603   */\n      add\n        /* \"#utility.yul\":5584:5609   */\n      gt\n        /* \"#utility.yul\":5581:5693   */\n      iszero\n      tag_595\n      jumpi\n        /* \"#utility.yul\":5612:5691   */\n      tag_596\n      tag_432\n      jump\t// in\n    tag_596:\n        /* \"#utility.yul\":5581:5693   */\n    tag_595:\n        /* \"#utility.yul\":5702:5756   */\n      tag_597\n        /* \"#utility.yul\":5749:5755   */\n      dup5\n        /* \"#utility.yul\":5744:5747   */\n      dup3\n        /* \"#utility.yul\":5739:5742   */\n      dup6\n        /* \"#utility.yul\":5702:5756   */\n      tag_436\n      jump\t// in\n    tag_597:\n        /* \"#utility.yul\":5421:5762   */\n      pop\n        /* \"#utility.yul\":5337:5762   */\n      swap4\n      swap3\n      pop\n      pop\n      pop\n      jump\t// out\n        /* \"#utility.yul\":5782:6122   */\n    tag_438:\n        /* \"#utility.yul\":5838:5843   */\n      0x00\n        /* \"#utility.yul\":5887:5890   */\n      dup3\n        /* \"#utility.yul\":5880:5884   */\n      0x1f\n        /* \"#utility.yul\":5872:5878   */\n      dup4\n        /* \"#utility.yul\":5868:5885   */\n      add\n        /* \"#utility.yul\":5864:5891   */\n      slt\n        /* \"#utility.yul\":5854:5976   */\n      tag_599\n      jumpi\n        /* \"#utility.yul\":5895:5974   */\n      tag_600\n      tag_431\n      jump\t// in\n    tag_600:\n        /* \"#utility.yul\":5854:5976   */\n    tag_599:\n        /* \"#utility.yul\":6012:6018   */\n      dup2\n        /* \"#utility.yul\":5999:6019   */\n      calldataload\n        /* \"#utility.yul\":6037:6116   */\n      tag_601\n        /* \"#utility.yul\":6112:6115   */\n      dup5\n        /* \"#utility.yul\":6104:6110   */\n      dup3\n        /* \"#utility.yul\":6097:6101   */\n      0x20\n        /* \"#utility.yul\":6089:6095   */\n      dup7\n        /* \"#utility.yul\":6085:6102   */\n      add\n        /* \"#utility.yul\":6037:6116   */\n      tag_437\n      jump\t// in\n    tag_601:\n        /* \"#utility.yul\":6028:6116   */\n      swap2\n      pop\n        /* \"#utility.yul\":5844:6122   */\n      pop\n        /* \"#utility.yul\":5782:6122   */\n      swap3\n      swap2\n      pop\n      pop\n      jump\t// out\n        /* \"#utility.yul\":6128:6468   */\n    tag_439:\n        /* \"#utility.yul\":6234:6238   */\n      0x00\n        /* \"#utility.yul\":6324:6342   */\n      0xffffffffffffffff\n        /* \"#utility.yul\":6316:6322   */\n      dup3\n        /* \"#utility.yul\":6313:6343   */\n      gt\n        /* \"#utility.yul\":6310:6366   */\n      iszero\n      tag_603\n      jumpi\n        /* \"#utility.yul\":6346:6364   */\n      tag_604\n      tag_279\n      jump\t// in\n    tag_604:\n        /* \"#utility.yul\":6310:6366   */\n    tag_603:\n        /* \"#utility.yul\":6396:6400   */\n      0x20\n        /* \"#utility.yul\":6388:6394   */\n      dup3\n        /* \"#utility.yul\":6384:6401   */\n      mul\n        /* \"#utility.yul\":6376:6401   */\n      swap1\n      pop\n        /* \"#utility.yul\":6456:6460   */\n      0x20\n        /* \"#utility.yul\":6450:6454   */\n      dup2\n        /* \"#utility.yul\":6446:6461   */\n      add\n        /* \"#utility.yul\":6438:6461   */\n      swap1\n      pop\n        /* \"#utility.yul\":6128:6468   */\n      swap2\n      swap1\n      pop\n      jump\t// out\n        /* \"#utility.yul\":6474:6591   */\n    tag_440:\n        /* \"#utility.yul\":6583:6584   */\n      0x00\n        /* \"#utility.yul\":6580:6581   */\n      0x00\n        /* \"#utility.yul\":6573:6585   */\n      revert\n        /* \"#utility.yul\":6597:6714   */\n    tag_441:\n        /* \"#utility.yul\":6706:6707   */\n      0x00\n        /* \"#utility.yul\":6703:6704   */\n      0x00\n        /* \"#utility.yul\":6696:6708   */\n      revert\n        /* \"#utility.yul\":6871:7459   */\n    tag_443:\n        /* \"#utility.yul\":6949:6954   */\n      0x00\n        /* \"#utility.yul\":6993:6997   */\n      0x40\n        /* \"#utility.yul\":6981:6990   */\n      dup3\n        /* \"#utility.yul\":6976:6979   */\n      dup5\n        /* \"#utility.yul\":6972:6991   */\n      sub\n        /* \"#utility.yul\":6968:6998   */\n      slt\n        /* \"#utility.yul\":6965:7082   */\n      iszero\n      tag_609\n      jumpi\n        /* \"#utility.yul\":7001:7080   */\n      tag_610\n      tag_441\n      jump\t// in\n    tag_610:\n        /* \"#utility.yul\":6965:7082   */\n    tag_609:\n        /* \"#utility.yul\":7100:7121   */\n      tag_611\n        /* \"#utility.yul\":7116:7120   */\n      0x40\n        /* \"#utility.yul\":7100:7121   */\n      tag_434\n      jump\t// in\n    tag_611:\n        /* \"#utility.yul\":7091:7121   */\n      swap1\n      pop\n        /* \"#utility.yul\":7186:7187   */\n      0x00\n        /* \"#utility.yul\":7226:7275   */\n      tag_612\n        /* \"#utility.yul\":7271:7274   */\n      dup5\n        /* \"#utility.yul\":7262:7268   */\n      dup3\n        /* \"#utility.yul\":7251:7260   */\n      dup6\n        /* \"#utility.yul\":7247:7269   */\n      add\n        /* \"#utility.yul\":7226:7275   */\n      tag_422\n      jump\t// in\n    tag_612:\n        /* \"#utility.yul\":7219:7223   */\n      0x00\n        /* \"#utility.yul\":7212:7217   */\n      dup4\n        /* \"#utility.yul\":7208:7224   */\n      add\n        /* \"#utility.yul\":7201:7276   */\n      mstore\n        /* \"#utility.yul\":7131:7287   */\n      pop\n        /* \"#utility.yul\":7350:7352   */\n      0x20\n        /* \"#utility.yul\":7391:7440   */\n      tag_613\n        /* \"#utility.yul\":7436:7439   */\n      dup5\n        /* \"#utility.yul\":7427:7433   */\n      dup3\n        /* \"#utility.yul\":7416:7425   */\n      dup6\n        /* \"#utility.yul\":7412:7434   */\n      add\n        /* \"#utility.yul\":7391:7440   */\n      tag_422\n      jump\t// in\n    tag_613:\n        /* \"#utility.yul\":7384:7388   */\n      0x20\n        /* \"#utility.yul\":7377:7382   */\n      dup4\n        /* \"#utility.yul\":7373:7389   */\n      add\n        /* \"#utility.yul\":7366:7441   */\n      mstore\n        /* \"#utility.yul\":7297:7452   */\n      pop\n        /* \"#utility.yul\":6871:7459   */\n      swap3\n      swap2\n      pop\n      pop\n      jump\t// out\n        /* \"#utility.yul\":7495:8292   */\n    tag_444:\n        /* \"#utility.yul\":7620:7625   */\n      0x00\n        /* \"#utility.yul\":7645:7755   */\n      tag_615\n        /* \"#utility.yul\":7661:7754   */\n      tag_616\n        /* \"#utility.yul\":7747:7753   */\n      dup5\n        /* \"#utility.yul\":7661:7754   */\n      tag_439\n      jump\t// in\n    tag_616:\n        /* \"#utility.yul\":7645:7755   */\n      tag_434\n      jump\t// in\n    tag_615:\n        /* \"#utility.yul\":7636:7755   */\n      swap1\n      pop\n        /* \"#utility.yul\":7775:7780   */\n      dup1\n        /* \"#utility.yul\":7804:7810   */\n      dup4\n        /* \"#utility.yul\":7797:7802   */\n      dup3\n        /* \"#utility.yul\":7790:7811   */\n      mstore\n        /* \"#utility.yul\":7838:7842   */\n      0x20\n        /* \"#utility.yul\":7831:7836   */\n      dup3\n        /* \"#utility.yul\":7827:7843   */\n      add\n        /* \"#utility.yul\":7820:7843   */\n      swap1\n      pop\n        /* \"#utility.yul\":7891:7895   */\n      0x40\n        /* \"#utility.yul\":7883:7889   */\n      dup5\n        /* \"#utility.yul\":7879:7896   */\n      mul\n        /* \"#utility.yul\":7871:7877   */\n      dup4\n        /* \"#utility.yul\":7867:7897   */\n      add\n        /* \"#utility.yul\":7920:7923   */\n      dup6\n        /* \"#utility.yul\":7912:7918   */\n      dup2\n        /* \"#utility.yul\":7909:7924   */\n      gt\n        /* \"#utility.yul\":7906:8028   */\n      iszero\n      tag_617\n      jumpi\n        /* \"#utility.yul\":7939:8018   */\n      tag_618\n      tag_440\n      jump\t// in\n    tag_618:\n        /* \"#utility.yul\":7906:8028   */\n    tag_617:\n        /* \"#utility.yul\":8054:8060   */\n      dup4\n        /* \"#utility.yul\":8037:8286   */\n    tag_619:\n        /* \"#utility.yul\":8071:8077   */\n      dup2\n        /* \"#utility.yul\":8066:8069   */\n      dup2\n        /* \"#utility.yul\":8063:8078   */\n      lt\n        /* \"#utility.yul\":8037:8286   */\n      iszero\n      tag_621\n      jumpi\n        /* \"#utility.yul\":8146:8149   */\n      dup1\n        /* \"#utility.yul\":8175:8241   */\n      tag_622\n        /* \"#utility.yul\":8237:8240   */\n      dup9\n        /* \"#utility.yul\":8225:8235   */\n      dup3\n        /* \"#utility.yul\":8175:8241   */\n      tag_443\n      jump\t// in\n    tag_622:\n        /* \"#utility.yul\":8170:8173   */\n      dup5\n        /* \"#utility.yul\":8163:8242   */\n      mstore\n        /* \"#utility.yul\":8271:8275   */\n      0x20\n        /* \"#utility.yul\":8266:8269   */\n      dup5\n        /* \"#utility.yul\":8262:8276   */\n      add\n        /* \"#utility.yul\":8255:8276   */\n      swap4\n      pop\n        /* \"#utility.yul\":8113:8286   */\n      pop\n        /* \"#utility.yul\":8097:8101   */\n      0x40\n        /* \"#utility.yul\":8092:8095   */\n      dup2\n        /* \"#utility.yul\":8088:8102   */\n      add\n        /* \"#utility.yul\":8081:8102   */\n      swap1\n      pop\n        /* \"#utility.yul\":8037:8286   */\n      jump(tag_619)\n    tag_621:\n        /* \"#utility.yul\":8041:8062   */\n      pop\n        /* \"#utility.yul\":7626:8292   */\n      pop\n      pop\n        /* \"#utility.yul\":7495:8292   */\n      swap4\n      swap3\n      pop\n      pop\n      pop\n      jump\t// out\n        /* \"#utility.yul\":8328:8756   */\n    tag_445:\n        /* \"#utility.yul\":8428:8433   */\n      0x00\n        /* \"#utility.yul\":8477:8480   */\n      dup3\n        /* \"#utility.yul\":8470:8474   */\n      0x1f\n        /* \"#utility.yul\":8462:8468   */\n      dup4\n        /* \"#utility.yul\":8458:8475   */\n      add\n        /* \"#utility.yul\":8454:8481   */\n      slt\n        /* \"#utility.yul\":8444:8566   */\n      tag_624\n      jumpi\n        /* \"#utility.yul\":8485:8564   */\n      tag_625\n      tag_431\n      jump\t// in\n    tag_625:\n        /* \"#utility.yul\":8444:8566   */\n    tag_624:\n        /* \"#utility.yul\":8602:8608   */\n      dup2\n        /* \"#utility.yul\":8589:8609   */\n      calldataload\n        /* \"#utility.yul\":8627:8750   */\n      tag_626\n        /* \"#utility.yul\":8746:8749   */\n      dup5\n        /* \"#utility.yul\":8738:8744   */\n      dup3\n        /* \"#utility.yul\":8731:8735   */\n      0x20\n        /* \"#utility.yul\":8723:8729   */\n      dup7\n        /* \"#utility.yul\":8719:8736   */\n      add\n        /* \"#utility.yul\":8627:8750   */\n      tag_444\n      jump\t// in\n    tag_626:\n        /* \"#utility.yul\":8618:8750   */\n      swap2\n      pop\n        /* \"#utility.yul\":8434:8756   */\n      pop\n        /* \"#utility.yul\":8328:8756   */\n      swap3\n      swap2\n      pop\n      pop\n      jump\t// out\n        /* \"#utility.yul\":8762:10335   */\n    tag_29:\n        /* \"#utility.yul\":8932:8938   */\n      0x00\n        /* \"#utility.yul\":8940:8946   */\n      0x00\n        /* \"#utility.yul\":8948:8954   */\n      0x00\n        /* \"#utility.yul\":8956:8962   */\n      0x00\n        /* \"#utility.yul\":9005:9008   */\n      0x80\n        /* \"#utility.yul\":8993:9002   */\n      dup6\n        /* \"#utility.yul\":8984:8991   */\n      dup8\n        /* \"#utility.yul\":8980:9003   */\n      sub\n        /* \"#utility.yul\":8976:9009   */\n      slt\n        /* \"#utility.yul\":8973:9093   */\n      iszero\n      tag_628\n      jumpi\n        /* \"#utility.yul\":9012:9091   */\n      tag_629\n      tag_418\n      jump\t// in\n    tag_629:\n        /* \"#utility.yul\":8973:9093   */\n    tag_628:\n        /* \"#utility.yul\":9160:9161   */\n      0x00\n        /* \"#utility.yul\":9149:9158   */\n      dup6\n        /* \"#utility.yul\":9145:9162   */\n      add\n        /* \"#utility.yul\":9132:9163   */\n      calldataload\n        /* \"#utility.yul\":9190:9208   */\n      0xffffffffffffffff\n        /* \"#utility.yul\":9182:9188   */\n      dup2\n        /* \"#utility.yul\":9179:9209   */\n      gt\n        /* \"#utility.yul\":9176:9293   */\n      iszero\n      tag_630\n      jumpi\n        /* \"#utility.yul\":9212:9291   */\n      tag_631\n      tag_419\n      jump\t// in\n    tag_631:\n        /* \"#utility.yul\":9176:9293   */\n    tag_630:\n        /* \"#utility.yul\":9317:9380   */\n      tag_632\n        /* \"#utility.yul\":9372:9379   */\n      dup8\n        /* \"#utility.yul\":9363:9369   */\n      dup3\n        /* \"#utility.yul\":9352:9361   */\n      dup9\n        /* \"#utility.yul\":9348:9370   */\n      add\n        /* \"#utility.yul\":9317:9380   */\n      tag_438\n      jump\t// in\n    tag_632:\n        /* \"#utility.yul\":9307:9380   */\n      swap5\n      pop\n        /* \"#utility.yul\":9103:9390   */\n      pop\n        /* \"#utility.yul\":9457:9459   */\n      0x20\n        /* \"#utility.yul\":9446:9455   */\n      dup6\n        /* \"#utility.yul\":9442:9460   */\n      add\n        /* \"#utility.yul\":9429:9461   */\n      calldataload\n        /* \"#utility.yul\":9488:9506   */\n      0xffffffffffffffff\n        /* \"#utility.yul\":9480:9486   */\n      dup2\n        /* \"#utility.yul\":9477:9507   */\n      gt\n        /* \"#utility.yul\":9474:9591   */\n      iszero\n      tag_633\n      jumpi\n        /* \"#utility.yul\":9510:9589   */\n      tag_634\n      tag_419\n      jump\t// in\n    tag_634:\n        /* \"#utility.yul\":9474:9591   */\n    tag_633:\n        /* \"#utility.yul\":9615:9678   */\n      tag_635\n        /* \"#utility.yul\":9670:9677   */\n      dup8\n        /* \"#utility.yul\":9661:9667   */\n      dup3\n        /* \"#utility.yul\":9650:9659   */\n      dup9\n        /* \"#utility.yul\":9646:9668   */\n      add\n        /* \"#utility.yul\":9615:9678   */\n      tag_438\n      jump\t// in\n    tag_635:\n        /* \"#utility.yul\":9605:9678   */\n      swap4\n      pop\n        /* \"#utility.yul\":9400:9688   */\n      pop\n        /* \"#utility.yul\":9755:9757   */\n      0x40\n        /* \"#utility.yul\":9744:9753   */\n      dup6\n        /* \"#utility.yul\":9740:9758   */\n      add\n        /* \"#utility.yul\":9727:9759   */\n      calldataload\n        /* \"#utility.yul\":9786:9804   */\n      0xffffffffffffffff\n        /* \"#utility.yul\":9778:9784   */\n      dup2\n        /* \"#utility.yul\":9775:9805   */\n      gt\n        /* \"#utility.yul\":9772:9889   */\n      iszero\n      tag_636\n      jumpi\n        /* \"#utility.yul\":9808:9887   */\n      tag_637\n      tag_419\n      jump\t// in\n    tag_637:\n        /* \"#utility.yul\":9772:9889   */\n    tag_636:\n        /* \"#utility.yul\":9913:9976   */\n      tag_638\n        /* \"#utility.yul\":9968:9975   */\n      dup8\n        /* \"#utility.yul\":9959:9965   */\n      dup3\n        /* \"#utility.yul\":9948:9957   */\n      dup9\n        /* \"#utility.yul\":9944:9966   */\n      add\n        /* \"#utility.yul\":9913:9976   */\n      tag_438\n      jump\t// in\n    tag_638:\n        /* \"#utility.yul\":9903:9976   */\n      swap3\n      pop\n        /* \"#utility.yul\":9698:9986   */\n      pop\n        /* \"#utility.yul\":10053:10055   */\n      0x60\n        /* \"#utility.yul\":10042:10051   */\n      dup6\n        /* \"#utility.yul\":10038:10056   */\n      add\n        /* \"#utility.yul\":10025:10057   */\n      calldataload\n        /* \"#utility.yul\":10084:10102   */\n      0xffffffffffffffff\n        /* \"#utility.yul\":10076:10082   */\n      dup2\n        /* \"#utility.yul\":10073:10103   */\n      gt\n        /* \"#utility.yul\":10070:10187   */\n      iszero\n      tag_639\n      jumpi\n        /* \"#utility.yul\":10106:10185   */\n      tag_640\n      tag_419\n      jump\t// in\n    tag_640:\n        /* \"#utility.yul\":10070:10187   */\n    tag_639:\n        /* \"#utility.yul\":10211:10318   */\n      tag_641\n        /* \"#utility.yul\":10310:10317   */\n      dup8\n        /* \"#utility.yul\":10301:10307   */\n      dup3\n        /* \"#utility.yul\":10290:10299   */\n      dup9\n        /* \"#utility.yul\":10286:10308   */\n      add\n        /* \"#utility.yul\":10211:10318   */\n      tag_445\n      jump\t// in\n    tag_641:\n        /* \"#utility.yul\":10201:10318   */\n      swap2\n      pop\n        /* \"#utility.yul\":9996:10328   */\n      pop\n        /* \"#utility.yul\":8762:10335   */\n      swap3\n      swap6\n      swap2\n      swap5\n      pop\n      swap3\n      pop\n      jump\t// out\n        /* \"#utility.yul\":10341:10455   */\n    tag_446:\n        /* \"#utility.yul\":10408:10414   */\n      0x00\n        /* \"#utility.yul\":10442:10447   */\n      dup2\n        /* \"#utility.yul\":10436:10448   */\n      mload\n        /* \"#utility.yul\":10426:10448   */\n      swap1\n      pop\n        /* \"#utility.yul\":10341:10455   */\n      swap2\n      swap1\n      pop\n      jump\t// out\n        /* \"#utility.yul\":10461:10645   */\n    tag_447:\n        /* \"#utility.yul\":10560:10571   */\n      0x00\n        /* \"#utility.yul\":10594:10600   */\n      dup3\n        /* \"#utility.yul\":10589:10592   */\n      dup3\n        /* \"#utility.yul\":10582:10601   */\n      mstore\n        /* \"#utility.yul\":10634:10638   */\n      0x20\n        /* \"#utility.yul\":10629:10632   */\n      dup3\n        /* \"#utility.yul\":10625:10639   */\n      add\n        /* \"#utility.yul\":10610:10639   */\n      swap1\n      pop\n        /* \"#utility.yul\":10461:10645   */\n      swap3\n      swap2\n      pop\n      pop\n      jump\t// out\n        /* \"#utility.yul\":10651:10783   */\n    tag_448:\n        /* \"#utility.yul\":10718:10722   */\n      0x00\n        /* \"#utility.yul\":10741:10744   */\n      dup2\n        /* \"#utility.yul\":10733:10744   */\n      swap1\n      pop\n        /* \"#utility.yul\":10771:10775   */\n      0x20\n        /* \"#utility.yul\":10766:10769   */\n      dup3\n        /* \"#utility.yul\":10762:10776   */\n      add\n        /* \"#utility.yul\":10754:10776   */\n      swap1\n      pop\n        /* \"#utility.yul\":10651:10783   */\n      swap2\n      swap1\n      pop\n      jump\t// out\n        /* \"#utility.yul\":10789:10897   */\n    tag_449:\n        /* \"#utility.yul\":10866:10890   */\n      tag_646\n        /* \"#utility.yul\":10884:10889   */\n      dup2\n        /* \"#utility.yul\":10866:10890   */\n      tag_415\n      jump\t// in\n    tag_646:\n        /* \"#utility.yul\":10861:10864   */\n      dup3\n        /* \"#utility.yul\":10854:10891   */\n      mstore\n        /* \"#utility.yul\":10789:10897   */\n      pop\n      pop\n      jump\t// out\n        /* \"#utility.yul\":10903:11082   */\n    tag_450:\n        /* \"#utility.yul\":10972:10982   */\n      0x00\n        /* \"#utility.yul\":10993:11039   */\n      tag_648\n        /* \"#utility.yul\":11035:11038   */\n      dup4\n        /* \"#utility.yul\":11027:11033   */\n      dup4\n        /* \"#utility.yul\":10993:11039   */\n      tag_449\n      jump\t// in\n    tag_648:\n        /* \"#utility.yul\":11071:11075   */\n      0x20\n        /* \"#utility.yul\":11066:11069   */\n      dup4\n        /* \"#utility.yul\":11062:11076   */\n      add\n        /* \"#utility.yul\":11048:11076   */\n      swap1\n      pop\n        /* \"#utility.yul\":10903:11082   */\n      swap3\n      swap2\n      pop\n      pop\n      jump\t// out\n        /* \"#utility.yul\":11088:11201   */\n    tag_451:\n        /* \"#utility.yul\":11158:11162   */\n      0x00\n        /* \"#utility.yul\":11190:11194   */\n      0x20\n        /* \"#utility.yul\":11185:11188   */\n      dup3\n        /* \"#utility.yul\":11181:11195   */\n      add\n        /* \"#utility.yul\":11173:11195   */\n      swap1\n      pop\n        /* \"#utility.yul\":11088:11201   */\n      swap2\n      swap1\n      pop\n      jump\t// out\n        /* \"#utility.yul\":11237:11969   */\n    tag_452:\n        /* \"#utility.yul\":11356:11359   */\n      0x00\n        /* \"#utility.yul\":11385:11439   */\n      tag_651\n        /* \"#utility.yul\":11433:11438   */\n      dup3\n        /* \"#utility.yul\":11385:11439   */\n      tag_446\n      jump\t// in\n    tag_651:\n        /* \"#utility.yul\":11455:11541   */\n      tag_652\n        /* \"#utility.yul\":11534:11540   */\n      dup2\n        /* \"#utility.yul\":11529:11532   */\n      dup6\n        /* \"#utility.yul\":11455:11541   */\n      tag_447\n      jump\t// in\n    tag_652:\n        /* \"#utility.yul\":11448:11541   */\n      swap4\n      pop\n        /* \"#utility.yul\":11565:11621   */\n      tag_653\n        /* \"#utility.yul\":11615:11620   */\n      dup4\n        /* \"#utility.yul\":11565:11621   */\n      tag_448\n      jump\t// in\n    tag_653:\n        /* \"#utility.yul\":11644:11651   */\n      dup1\n        /* \"#utility.yul\":11675:11676   */\n      0x00\n        /* \"#utility.yul\":11660:11944   */\n    tag_654:\n        /* \"#utility.yul\":11685:11691   */\n      dup4\n        /* \"#utility.yul\":11682:11683   */\n      dup2\n        /* \"#utility.yul\":11679:11692   */\n      lt\n        /* \"#utility.yul\":11660:11944   */\n      iszero\n      tag_656\n      jumpi\n        /* \"#utility.yul\":11761:11767   */\n      dup2\n        /* \"#utility.yul\":11755:11768   */\n      mload\n        /* \"#utility.yul\":11788:11851   */\n      tag_657\n        /* \"#utility.yul\":11847:11850   */\n      dup9\n        /* \"#utility.yul\":11832:11845   */\n      dup3\n        /* \"#utility.yul\":11788:11851   */\n      tag_450\n      jump\t// in\n    tag_657:\n        /* \"#utility.yul\":11781:11851   */\n      swap8\n      pop\n        /* \"#utility.yul\":11874:11934   */\n      tag_658\n        /* \"#utility.yul\":11927:11933   */\n      dup4\n        /* \"#utility.yul\":11874:11934   */\n      tag_451\n      jump\t// in\n    tag_658:\n        /* \"#utility.yul\":11864:11934   */\n      swap3\n      pop\n        /* \"#utility.yul\":11720:11944   */\n      pop\n        /* \"#utility.yul\":11707:11708   */\n      0x01\n        /* \"#utility.yul\":11704:11705   */\n      dup2\n        /* \"#utility.yul\":11700:11709   */\n      add\n        /* \"#utility.yul\":11695:11709   */\n      swap1\n      pop\n        /* \"#utility.yul\":11660:11944   */\n      jump(tag_654)\n    tag_656:\n        /* \"#utility.yul\":11664:11678   */\n      pop\n        /* \"#utility.yul\":11960:11963   */\n      dup6\n        /* \"#utility.yul\":11953:11963   */\n      swap4\n      pop\n        /* \"#utility.yul\":11361:11969   */\n      pop\n      pop\n      pop\n        /* \"#utility.yul\":11237:11969   */\n      swap3\n      swap2\n      pop\n      pop\n      jump\t// out\n        /* \"#utility.yul\":11975:12348   */\n    tag_36:\n        /* \"#utility.yul\":12118:12122   */\n      0x00\n        /* \"#utility.yul\":12156:12158   */\n      0x20\n        /* \"#utility.yul\":12145:12154   */\n      dup3\n        /* \"#utility.yul\":12141:12159   */\n      add\n        /* \"#utility.yul\":12133:12159   */\n      swap1\n      pop\n        /* \"#utility.yul\":12205:12214   */\n      dup2\n        /* \"#utility.yul\":12199:12203   */\n      dup2\n        /* \"#utility.yul\":12195:12215   */\n      sub\n        /* \"#utility.yul\":12191:12192   */\n      0x00\n        /* \"#utility.yul\":12180:12189   */\n      dup4\n        /* \"#utility.yul\":12176:12193   */\n      add\n        /* \"#utility.yul\":12169:12216   */\n      mstore\n        /* \"#utility.yul\":12233:12341   */\n      tag_660\n        /* \"#utility.yul\":12336:12340   */\n      dup2\n        /* \"#utility.yul\":12327:12333   */\n      dup5\n        /* \"#utility.yul\":12233:12341   */\n      tag_452\n      jump\t// in\n    tag_660:\n        /* \"#utility.yul\":12225:12341   */\n      swap1\n      pop\n        /* \"#utility.yul\":11975:12348   */\n      swap3\n      swap2\n      pop\n      pop\n      jump\t// out\n        /* \"#utility.yul\":12354:13096   */\n    tag_51:\n        /* \"#utility.yul\":12476:12482   */\n      0x00\n        /* \"#utility.yul\":12484:12490   */\n      0x00\n        /* \"#utility.yul\":12533:12535   */\n      0x40\n        /* \"#utility.yul\":12521:12530   */\n      dup4\n        /* \"#utility.yul\":12512:12519   */\n      dup6\n        /* \"#utility.yul\":12508:12531   */\n      sub\n        /* \"#utility.yul\":12504:12536   */\n      slt\n        /* \"#utility.yul\":12501:12620   */\n      iszero\n      tag_662\n      jumpi\n        /* \"#utility.yul\":12539:12618   */\n      tag_663\n      tag_418\n      jump\t// in\n    tag_663:\n        /* \"#utility.yul\":12501:12620   */\n    tag_662:\n        /* \"#utility.yul\":12659:12660   */\n      0x00\n        /* \"#utility.yul\":12684:12737   */\n      tag_664\n        /* \"#utility.yul\":12729:12736   */\n      dup6\n        /* \"#utility.yul\":12720:12726   */\n      dup3\n        /* \"#utility.yul\":12709:12718   */\n      dup7\n        /* \"#utility.yul\":12705:12727   */\n      add\n        /* \"#utility.yul\":12684:12737   */\n      tag_422\n      jump\t// in\n    tag_664:\n        /* \"#utility.yul\":12674:12737   */\n      swap3\n      pop\n        /* \"#utility.yul\":12630:12747   */\n      pop\n        /* \"#utility.yul\":12814:12816   */\n      0x20\n        /* \"#utility.yul\":12803:12812   */\n      dup4\n        /* \"#utility.yul\":12799:12817   */\n      add\n        /* \"#utility.yul\":12786:12818   */\n      calldataload\n        /* \"#utility.yul\":12845:12863   */\n      0xffffffffffffffff\n        /* \"#utility.yul\":12837:12843   */\n      dup2\n        /* \"#utility.yul\":12834:12864   */\n      gt\n        /* \"#utility.yul\":12831:12948   */\n      iszero\n      tag_665\n      jumpi\n        /* \"#utility.yul\":12867:12946   */\n      tag_666\n      tag_419\n      jump\t// in\n    tag_666:\n        /* \"#utility.yul\":12831:12948   */\n    tag_665:\n        /* \"#utility.yul\":12972:13079   */\n      tag_667\n        /* \"#utility.yul\":13071:13078   */\n      dup6\n        /* \"#utility.yul\":13062:13068   */\n      dup3\n        /* \"#utility.yul\":13051:13060   */\n      dup7\n        /* \"#utility.yul\":13047:13069   */\n      add\n        /* \"#utility.yul\":12972:13079   */\n      tag_445\n      jump\t// in\n    tag_667:\n        /* \"#utility.yul\":12962:13079   */\n      swap2\n      pop\n        /* \"#utility.yul\":12757:13089   */\n      pop\n        /* \"#utility.yul\":12354:13096   */\n      swap3\n      pop\n      swap3\n      swap1\n      pop\n      jump\t// out\n        /* \"#utility.yul\":13102:13210   */\n    tag_453:\n        /* \"#utility.yul\":13179:13203   */\n      tag_669\n        /* \"#utility.yul\":13197:13202   */\n      dup2\n        /* \"#utility.yul\":13179:13203   */\n      tag_420\n      jump\t// in\n    tag_669:\n        /* \"#utility.yul\":13174:13177   */\n      dup3\n        /* \"#utility.yul\":13167:13204   */\n      mstore\n        /* \"#utility.yul\":13102:13210   */\n      pop\n      pop\n      jump\t// out\n        /* \"#utility.yul\":13268:13793   */\n    tag_454:\n        /* \"#utility.yul\":13423:13427   */\n      0x40\n        /* \"#utility.yul\":13418:13421   */\n      dup3\n        /* \"#utility.yul\":13414:13428   */\n      add\n        /* \"#utility.yul\":13516:13520   */\n      0x00\n        /* \"#utility.yul\":13509:13514   */\n      dup3\n        /* \"#utility.yul\":13505:13521   */\n      add\n        /* \"#utility.yul\":13499:13522   */\n      mload\n        /* \"#utility.yul\":13535:13598   */\n      tag_671\n        /* \"#utility.yul\":13592:13596   */\n      0x00\n        /* \"#utility.yul\":13587:13590   */\n      dup6\n        /* \"#utility.yul\":13583:13597   */\n      add\n        /* \"#utility.yul\":13569:13581   */\n      dup3\n        /* \"#utility.yul\":13535:13598   */\n      tag_453\n      jump\t// in\n    tag_671:\n        /* \"#utility.yul\":13438:13608   */\n      pop\n        /* \"#utility.yul\":13694:13698   */\n      0x20\n        /* \"#utility.yul\":13687:13692   */\n      dup3\n        /* \"#utility.yul\":13683:13699   */\n      add\n        /* \"#utility.yul\":13677:13700   */\n      mload\n        /* \"#utility.yul\":13713:13776   */\n      tag_672\n        /* \"#utility.yul\":13770:13774   */\n      0x20\n        /* \"#utility.yul\":13765:13768   */\n      dup6\n        /* \"#utility.yul\":13761:13775   */\n      add\n        /* \"#utility.yul\":13747:13759   */\n      dup3\n        /* \"#utility.yul\":13713:13776   */\n      tag_453\n      jump\t// in\n    tag_672:\n        /* \"#utility.yul\":13618:13786   */\n      pop\n        /* \"#utility.yul\":13392:13793   */\n      pop\n        /* \"#utility.yul\":13268:13793   */\n      pop\n      pop\n      jump\t// out\n        /* \"#utility.yul\":13799:14137   */\n    tag_58:\n        /* \"#utility.yul\":13950:13954   */\n      0x00\n        /* \"#utility.yul\":13988:13990   */\n      0x40\n        /* \"#utility.yul\":13977:13986   */\n      dup3\n        /* \"#utility.yul\":13973:13991   */\n      add\n        /* \"#utility.yul\":13965:13991   */\n      swap1\n      pop\n        /* \"#utility.yul\":14001:14130   */\n      tag_674\n        /* \"#utility.yul\":14127:14128   */\n      0x00\n        /* \"#utility.yul\":14116:14125   */\n      dup4\n        /* \"#utility.yul\":14112:14129   */\n      add\n        /* \"#utility.yul\":14103:14109   */\n      dup5\n        /* \"#utility.yul\":14001:14130   */\n      tag_454\n      jump\t// in\n    tag_674:\n        /* \"#utility.yul\":13799:14137   */\n      swap3\n      swap2\n      pop\n      pop\n      jump\t// out\n        /* \"#utility.yul\":14143:14286   */\n    tag_455:\n        /* \"#utility.yul\":14239:14245   */\n      0x00\n        /* \"#utility.yul\":14273:14278   */\n      dup2\n        /* \"#utility.yul\":14267:14279   */\n      mload\n        /* \"#utility.yul\":14257:14279   */\n      swap1\n      pop\n        /* \"#utility.yul\":14143:14286   */\n      swap2\n      swap1\n      pop\n      jump\t// out\n        /* \"#utility.yul\":14292:14505   */\n    tag_456:\n        /* \"#utility.yul\":14420:14431   */\n      0x00\n        /* \"#utility.yul\":14454:14460   */\n      dup3\n        /* \"#utility.yul\":14449:14452   */\n      dup3\n        /* \"#utility.yul\":14442:14461   */\n      mstore\n        /* \"#utility.yul\":14494:14498   */\n      0x20\n        /* \"#utility.yul\":14489:14492   */\n      dup3\n        /* \"#utility.yul\":14485:14499   */\n      add\n        /* \"#utility.yul\":14470:14499   */\n      swap1\n      pop\n        /* \"#utility.yul\":14292:14505   */\n      swap3\n      swap2\n      pop\n      pop\n      jump\t// out\n        /* \"#utility.yul\":14511:14672   */\n    tag_457:\n        /* \"#utility.yul\":14607:14611   */\n      0x00\n        /* \"#utility.yul\":14630:14633   */\n      dup2\n        /* \"#utility.yul\":14622:14633   */\n      swap1\n      pop\n        /* \"#utility.yul\":14660:14664   */\n      0x20\n        /* \"#utility.yul\":14655:14658   */\n      dup3\n        /* \"#utility.yul\":14651:14665   */\n      add\n        /* \"#utility.yul\":14643:14665   */\n      swap1\n      pop\n        /* \"#utility.yul\":14511:14672   */\n      swap2\n      swap1\n      pop\n      jump\t// out\n        /* \"#utility.yul\":14730:15245   */\n    tag_458:\n        /* \"#utility.yul\":14875:14879   */\n      0x40\n        /* \"#utility.yul\":14870:14873   */\n      dup3\n        /* \"#utility.yul\":14866:14880   */\n      add\n        /* \"#utility.yul\":14968:14972   */\n      0x00\n        /* \"#utility.yul\":14961:14966   */\n      dup3\n        /* \"#utility.yul\":14957:14973   */\n      add\n        /* \"#utility.yul\":14951:14974   */\n      mload\n        /* \"#utility.yul\":14987:15050   */\n      tag_679\n        /* \"#utility.yul\":15044:15048   */\n      0x00\n        /* \"#utility.yul\":15039:15042   */\n      dup6\n        /* \"#utility.yul\":15035:15049   */\n      add\n        /* \"#utility.yul\":15021:15033   */\n      dup3\n        /* \"#utility.yul\":14987:15050   */\n      tag_453\n      jump\t// in\n    tag_679:\n        /* \"#utility.yul\":14890:15060   */\n      pop\n        /* \"#utility.yul\":15146:15150   */\n      0x20\n        /* \"#utility.yul\":15139:15144   */\n      dup3\n        /* \"#utility.yul\":15135:15151   */\n      add\n        /* \"#utility.yul\":15129:15152   */\n      mload\n        /* \"#utility.yul\":15165:15228   */\n      tag_680\n        /* \"#utility.yul\":15222:15226   */\n      0x20\n        /* \"#utility.yul\":15217:15220   */\n      dup6\n        /* \"#utility.yul\":15213:15227   */\n      add\n        /* \"#utility.yul\":15199:15211   */\n      dup3\n        /* \"#utility.yul\":15165:15228   */\n      tag_453\n      jump\t// in\n    tag_680:\n        /* \"#utility.yul\":15070:15238   */\n      pop\n        /* \"#utility.yul\":14844:15245   */\n      pop\n        /* \"#utility.yul\":14730:15245   */\n      pop\n      pop\n      jump\t// out\n        /* \"#utility.yul\":15251:15546   */\n    tag_459:\n        /* \"#utility.yul\":15378:15388   */\n      0x00\n        /* \"#utility.yul\":15399:15503   */\n      tag_682\n        /* \"#utility.yul\":15499:15502   */\n      dup4\n        /* \"#utility.yul\":15491:15497   */\n      dup4\n        /* \"#utility.yul\":15399:15503   */\n      tag_458\n      jump\t// in\n    tag_682:\n        /* \"#utility.yul\":15535:15539   */\n      0x40\n        /* \"#utility.yul\":15530:15533   */\n      dup4\n        /* \"#utility.yul\":15526:15540   */\n      add\n        /* \"#utility.yul\":15512:15540   */\n      swap1\n      pop\n        /* \"#utility.yul\":15251:15546   */\n      swap3\n      swap2\n      pop\n      pop\n      jump\t// out\n        /* \"#utility.yul\":15552:15694   */\n    tag_460:\n        /* \"#utility.yul\":15651:15655   */\n      0x00\n        /* \"#utility.yul\":15683:15687   */\n      0x20\n        /* \"#utility.yul\":15678:15681   */\n      dup3\n        /* \"#utility.yul\":15674:15688   */\n      add\n        /* \"#utility.yul\":15666:15688   */\n      swap1\n      pop\n        /* \"#utility.yul\":15552:15694   */\n      swap2\n      swap1\n      pop\n      jump\t// out\n        /* \"#utility.yul\":15756:16720   */\n    tag_461:\n        /* \"#utility.yul\":15933:15936   */\n      0x00\n        /* \"#utility.yul\":15962:16045   */\n      tag_685\n        /* \"#utility.yul\":16039:16044   */\n      dup3\n        /* \"#utility.yul\":15962:16045   */\n      tag_455\n      jump\t// in\n    tag_685:\n        /* \"#utility.yul\":16061:16176   */\n      tag_686\n        /* \"#utility.yul\":16169:16175   */\n      dup2\n        /* \"#utility.yul\":16164:16167   */\n      dup6\n        /* \"#utility.yul\":16061:16176   */\n      tag_456\n      jump\t// in\n    tag_686:\n        /* \"#utility.yul\":16054:16176   */\n      swap4\n      pop\n        /* \"#utility.yul\":16200:16285   */\n      tag_687\n        /* \"#utility.yul\":16279:16284   */\n      dup4\n        /* \"#utility.yul\":16200:16285   */\n      tag_457\n      jump\t// in\n    tag_687:\n        /* \"#utility.yul\":16308:16315   */\n      dup1\n        /* \"#utility.yul\":16339:16340   */\n      0x00\n        /* \"#utility.yul\":16324:16695   */\n    tag_688:\n        /* \"#utility.yul\":16349:16355   */\n      dup4\n        /* \"#utility.yul\":16346:16347   */\n      dup2\n        /* \"#utility.yul\":16343:16356   */\n      lt\n        /* \"#utility.yul\":16324:16695   */\n      iszero\n      tag_690\n      jumpi\n        /* \"#utility.yul\":16425:16431   */\n      dup2\n        /* \"#utility.yul\":16419:16432   */\n      mload\n        /* \"#utility.yul\":16452:16573   */\n      tag_691\n        /* \"#utility.yul\":16569:16572   */\n      dup9\n        /* \"#utility.yul\":16554:16567   */\n      dup3\n        /* \"#utility.yul\":16452:16573   */\n      tag_459\n      jump\t// in\n    tag_691:\n        /* \"#utility.yul\":16445:16573   */\n      swap8\n      pop\n        /* \"#utility.yul\":16596:16685   */\n      tag_692\n        /* \"#utility.yul\":16678:16684   */\n      dup4\n        /* \"#utility.yul\":16596:16685   */\n      tag_460\n      jump\t// in\n    tag_692:\n        /* \"#utility.yul\":16586:16685   */\n      swap3\n      pop\n        /* \"#utility.yul\":16384:16695   */\n      pop\n        /* \"#utility.yul\":16371:16372   */\n      0x01\n        /* \"#utility.yul\":16368:16369   */\n      dup2\n        /* \"#utility.yul\":16364:16373   */\n      add\n        /* \"#utility.yul\":16359:16373   */\n      swap1\n      pop\n        /* \"#utility.yul\":16324:16695   */\n      jump(tag_688)\n    tag_690:\n        /* \"#utility.yul\":16328:16342   */\n      pop\n        /* \"#utility.yul\":16711:16714   */\n      dup6\n        /* \"#utility.yul\":16704:16714   */\n      swap4\n      pop\n        /* \"#utility.yul\":15938:16720   */\n      pop\n      pop\n      pop\n        /* \"#utility.yul\":15756:16720   */\n      swap3\n      swap2\n      pop\n      pop\n      jump\t// out\n        /* \"#utility.yul\":16726:17215   */\n    tag_64:\n        /* \"#utility.yul\":16927:16931   */\n      0x00\n        /* \"#utility.yul\":16965:16967   */\n      0x20\n        /* \"#utility.yul\":16954:16963   */\n      dup3\n        /* \"#utility.yul\":16950:16968   */\n      add\n        /* \"#utility.yul\":16942:16968   */\n      swap1\n      pop\n        /* \"#utility.yul\":17014:17023   */\n      dup2\n        /* \"#utility.yul\":17008:17012   */\n      dup2\n        /* \"#utility.yul\":17004:17024   */\n      sub\n        /* \"#utility.yul\":17000:17001   */\n      0x00\n        /* \"#utility.yul\":16989:16998   */\n      dup4\n        /* \"#utility.yul\":16985:17002   */\n      add\n        /* \"#utility.yul\":16978:17025   */\n      mstore\n        /* \"#utility.yul\":17042:17208   */\n      tag_694\n        /* \"#utility.yul\":17203:17207   */\n      dup2\n        /* \"#utility.yul\":17194:17200   */\n      dup5\n        /* \"#utility.yul\":17042:17208   */\n      tag_461\n      jump\t// in\n    tag_694:\n        /* \"#utility.yul\":17034:17208   */\n      swap1\n      pop\n        /* \"#utility.yul\":16726:17215   */\n      swap3\n      swap2\n      pop\n      pop\n      jump\t// out\n        /* \"#utility.yul\":17221:17362   */\n    tag_462:\n        /* \"#utility.yul\":17315:17321   */\n      0x00\n        /* \"#utility.yul\":17349:17354   */\n      dup2\n        /* \"#utility.yul\":17343:17355   */\n      mload\n        /* \"#utility.yul\":17333:17355   */\n      swap1\n      pop\n        /* \"#utility.yul\":17221:17362   */\n      swap2\n      swap1\n      pop\n      jump\t// out\n        /* \"#utility.yul\":17368:17579   */\n    tag_463:\n        /* \"#utility.yul\":17494:17505   */\n      0x00\n        /* \"#utility.yul\":17528:17534   */\n      dup3\n        /* \"#utility.yul\":17523:17526   */\n      dup3\n        /* \"#utility.yul\":17516:17535   */\n      mstore\n        /* \"#utility.yul\":17568:17572   */\n      0x20\n        /* \"#utility.yul\":17563:17566   */\n      dup3\n        /* \"#utility.yul\":17559:17573   */\n      add\n        /* \"#utility.yul\":17544:17573   */\n      swap1\n      pop\n        /* \"#utility.yul\":17368:17579   */\n      swap3\n      swap2\n      pop\n      pop\n      jump\t// out\n        /* \"#utility.yul\":17585:17744   */\n    tag_464:\n        /* \"#utility.yul\":17679:17683   */\n      0x00\n        /* \"#utility.yul\":17702:17705   */\n      dup2\n        /* \"#utility.yul\":17694:17705   */\n      swap1\n      pop\n        /* \"#utility.yul\":17732:17736   */\n      0x20\n        /* \"#utility.yul\":17727:17730   */\n      dup3\n        /* \"#utility.yul\":17723:17737   */\n      add\n        /* \"#utility.yul\":17715:17737   */\n      swap1\n      pop\n        /* \"#utility.yul\":17585:17744   */\n      swap2\n      swap1\n      pop\n      jump\t// out\n        /* \"#utility.yul\":17750:17909   */\n    tag_465:\n        /* \"#utility.yul\":17824:17835   */\n      0x00\n        /* \"#utility.yul\":17858:17864   */\n      dup3\n        /* \"#utility.yul\":17853:17856   */\n      dup3\n        /* \"#utility.yul\":17846:17865   */\n      mstore\n        /* \"#utility.yul\":17898:17902   */\n      0x20\n        /* \"#utility.yul\":17893:17896   */\n      dup3\n        /* \"#utility.yul\":17889:17903   */\n      add\n        /* \"#utility.yul\":17874:17903   */\n      swap1\n      pop\n        /* \"#utility.yul\":17750:17909   */\n      swap3\n      swap2\n      pop\n      pop\n      jump\t// out\n        /* \"#utility.yul\":17915:18272   */\n    tag_466:\n        /* \"#utility.yul\":17993:17996   */\n      0x00\n        /* \"#utility.yul\":18021:18060   */\n      tag_700\n        /* \"#utility.yul\":18054:18059   */\n      dup3\n        /* \"#utility.yul\":18021:18060   */\n      tag_423\n      jump\t// in\n    tag_700:\n        /* \"#utility.yul\":18076:18137   */\n      tag_701\n        /* \"#utility.yul\":18130:18136   */\n      dup2\n        /* \"#utility.yul\":18125:18128   */\n      dup6\n        /* \"#utility.yul\":18076:18137   */\n      tag_465\n      jump\t// in\n    tag_701:\n        /* \"#utility.yul\":18069:18137   */\n      swap4\n      pop\n        /* \"#utility.yul\":18146:18211   */\n      tag_702\n        /* \"#utility.yul\":18204:18210   */\n      dup2\n        /* \"#utility.yul\":18199:18202   */\n      dup6\n        /* \"#utility.yul\":18192:18196   */\n      0x20\n        /* \"#utility.yul\":18185:18190   */\n      dup7\n        /* \"#utility.yul\":18181:18197   */\n      add\n        /* \"#utility.yul\":18146:18211   */\n      tag_425\n      jump\t// in\n    tag_702:\n        /* \"#utility.yul\":18236:18265   */\n      tag_703\n        /* \"#utility.yul\":18258:18264   */\n      dup2\n        /* \"#utility.yul\":18236:18265   */\n      tag_426\n      jump\t// in\n    tag_703:\n        /* \"#utility.yul\":18231:18234   */\n      dup5\n        /* \"#utility.yul\":18227:18266   */\n      add\n        /* \"#utility.yul\":18220:18266   */\n      swap2\n      pop\n        /* \"#utility.yul\":17997:18272   */\n      pop\n        /* \"#utility.yul\":17915:18272   */\n      swap3\n      swap2\n      pop\n      pop\n      jump\t// out\n        /* \"#utility.yul\":18278:18377   */\n    tag_467:\n        /* \"#utility.yul\":18349:18370   */\n      tag_705\n        /* \"#utility.yul\":18364:18369   */\n      dup2\n        /* \"#utility.yul\":18349:18370   */\n      tag_429\n      jump\t// in\n    tag_705:\n        /* \"#utility.yul\":18344:18347   */\n      dup3\n        /* \"#utility.yul\":18337:18371   */\n      mstore\n        /* \"#utility.yul\":18278:18377   */\n      pop\n      pop\n      jump\t// out\n        /* \"#utility.yul\":18431:20085   */\n    tag_468:\n        /* \"#utility.yul\":18544:18547   */\n      0x00\n        /* \"#utility.yul\":18580:18584   */\n      0xe0\n        /* \"#utility.yul\":18575:18578   */\n      dup4\n        /* \"#utility.yul\":18571:18585   */\n      add\n        /* \"#utility.yul\":18670:18674   */\n      0x00\n        /* \"#utility.yul\":18663:18668   */\n      dup4\n        /* \"#utility.yul\":18659:18675   */\n      add\n        /* \"#utility.yul\":18653:18676   */\n      mload\n        /* \"#utility.yul\":18689:18752   */\n      tag_707\n        /* \"#utility.yul\":18746:18750   */\n      0x00\n        /* \"#utility.yul\":18741:18744   */\n      dup7\n        /* \"#utility.yul\":18737:18751   */\n      add\n        /* \"#utility.yul\":18723:18735   */\n      dup3\n        /* \"#utility.yul\":18689:18752   */\n      tag_449\n      jump\t// in\n    tag_707:\n        /* \"#utility.yul\":18595:18762   */\n      pop\n        /* \"#utility.yul\":18844:18848   */\n      0x20\n        /* \"#utility.yul\":18837:18842   */\n      dup4\n        /* \"#utility.yul\":18833:18849   */\n      add\n        /* \"#utility.yul\":18827:18850   */\n      mload\n        /* \"#utility.yul\":18897:18900   */\n      dup5\n        /* \"#utility.yul\":18891:18895   */\n      dup3\n        /* \"#utility.yul\":18887:18901   */\n      sub\n        /* \"#utility.yul\":18880:18884   */\n      0x20\n        /* \"#utility.yul\":18875:18878   */\n      dup7\n        /* \"#utility.yul\":18871:18885   */\n      add\n        /* \"#utility.yul\":18864:18902   */\n      mstore\n        /* \"#utility.yul\":18923:18996   */\n      tag_708\n        /* \"#utility.yul\":18991:18995   */\n      dup3\n        /* \"#utility.yul\":18977:18989   */\n      dup3\n        /* \"#utility.yul\":18923:18996   */\n      tag_466\n      jump\t// in\n    tag_708:\n        /* \"#utility.yul\":18915:18996   */\n      swap2\n      pop\n        /* \"#utility.yul\":18772:19007   */\n      pop\n        /* \"#utility.yul\":19099:19103   */\n      0x40\n        /* \"#utility.yul\":19092:19097   */\n      dup4\n        /* \"#utility.yul\":19088:19104   */\n      add\n        /* \"#utility.yul\":19082:19105   */\n      mload\n        /* \"#utility.yul\":19152:19155   */\n      dup5\n        /* \"#utility.yul\":19146:19150   */\n      dup3\n        /* \"#utility.yul\":19142:19156   */\n      sub\n        /* \"#utility.yul\":19135:19139   */\n      0x40\n        /* \"#utility.yul\":19130:19133   */\n      dup7\n        /* \"#utility.yul\":19126:19140   */\n      add\n        /* \"#utility.yul\":19119:19157   */\n      mstore\n        /* \"#utility.yul\":19178:19251   */\n      tag_709\n        /* \"#utility.yul\":19246:19250   */\n      dup3\n        /* \"#utility.yul\":19232:19244   */\n      dup3\n        /* \"#utility.yul\":19178:19251   */\n      tag_466\n      jump\t// in\n    tag_709:\n        /* \"#utility.yul\":19170:19251   */\n      swap2\n      pop\n        /* \"#utility.yul\":19017:19262   */\n      pop\n        /* \"#utility.yul\":19351:19355   */\n      0x60\n        /* \"#utility.yul\":19344:19349   */\n      dup4\n        /* \"#utility.yul\":19340:19356   */\n      add\n        /* \"#utility.yul\":19334:19357   */\n      mload\n        /* \"#utility.yul\":19404:19407   */\n      dup5\n        /* \"#utility.yul\":19398:19402   */\n      dup3\n        /* \"#utility.yul\":19394:19408   */\n      sub\n        /* \"#utility.yul\":19387:19391   */\n      0x60\n        /* \"#utility.yul\":19382:19385   */\n      dup7\n        /* \"#utility.yul\":19378:19392   */\n      add\n        /* \"#utility.yul\":19371:19409   */\n      mstore\n        /* \"#utility.yul\":19430:19503   */\n      tag_710\n        /* \"#utility.yul\":19498:19502   */\n      dup3\n        /* \"#utility.yul\":19484:19496   */\n      dup3\n        /* \"#utility.yul\":19430:19503   */\n      tag_466\n      jump\t// in\n    tag_710:\n        /* \"#utility.yul\":19422:19503   */\n      swap2\n      pop\n        /* \"#utility.yul\":19272:19514   */\n      pop\n        /* \"#utility.yul\":19603:19607   */\n      0x80\n        /* \"#utility.yul\":19596:19601   */\n      dup4\n        /* \"#utility.yul\":19592:19608   */\n      add\n        /* \"#utility.yul\":19586:19609   */\n      mload\n        /* \"#utility.yul\":19622:19685   */\n      tag_711\n        /* \"#utility.yul\":19679:19683   */\n      0x80\n        /* \"#utility.yul\":19674:19677   */\n      dup7\n        /* \"#utility.yul\":19670:19684   */\n      add\n        /* \"#utility.yul\":19656:19668   */\n      dup3\n        /* \"#utility.yul\":19622:19685   */\n      tag_453\n      jump\t// in\n    tag_711:\n        /* \"#utility.yul\":19524:19695   */\n      pop\n        /* \"#utility.yul\":19794:19798   */\n      0xa0\n        /* \"#utility.yul\":19787:19792   */\n      dup4\n        /* \"#utility.yul\":19783:19799   */\n      add\n        /* \"#utility.yul\":19777:19800   */\n      mload\n        /* \"#utility.yul\":19813:19876   */\n      tag_712\n        /* \"#utility.yul\":19870:19874   */\n      0xa0\n        /* \"#utility.yul\":19865:19868   */\n      dup7\n        /* \"#utility.yul\":19861:19875   */\n      add\n        /* \"#utility.yul\":19847:19859   */\n      dup3\n        /* \"#utility.yul\":19813:19876   */\n      tag_453\n      jump\t// in\n    tag_712:\n        /* \"#utility.yul\":19705:19886   */\n      pop\n        /* \"#utility.yul\":19972:19976   */\n      0xc0\n        /* \"#utility.yul\":19965:19970   */\n      dup4\n        /* \"#utility.yul\":19961:19977   */\n      add\n        /* \"#utility.yul\":19955:19978   */\n      mload\n        /* \"#utility.yul\":19991:20048   */\n      tag_713\n        /* \"#utility.yul\":20042:20046   */\n      0xc0\n        /* \"#utility.yul\":20037:20040   */\n      dup7\n        /* \"#utility.yul\":20033:20047   */\n      add\n        /* \"#utility.yul\":20019:20031   */\n      dup3\n        /* \"#utility.yul\":19991:20048   */\n      tag_467\n      jump\t// in\n    tag_713:\n        /* \"#utility.yul\":19896:20058   */\n      pop\n        /* \"#utility.yul\":20075:20079   */\n      dup1\n        /* \"#utility.yul\":20068:20079   */\n      swap2\n      pop\n        /* \"#utility.yul\":18549:20085   */\n      pop\n        /* \"#utility.yul\":18431:20085   */\n      swap3\n      swap2\n      pop\n      pop\n      jump\t// out\n        /* \"#utility.yul\":20091:20355   */\n    tag_469:\n        /* \"#utility.yul\":20214:20224   */\n      0x00\n        /* \"#utility.yul\":20249:20349   */\n      tag_715\n        /* \"#utility.yul\":20345:20348   */\n      dup4\n        /* \"#utility.yul\":20337:20343   */\n      dup4\n        /* \"#utility.yul\":20249:20349   */\n      tag_468\n      jump\t// in\n    tag_715:\n        /* \"#utility.yul\":20235:20349   */\n      swap1\n      pop\n        /* \"#utility.yul\":20091:20355   */\n      swap3\n      swap2\n      pop\n      pop\n      jump\t// out\n        /* \"#utility.yul\":20361:20501   */\n    tag_470:\n        /* \"#utility.yul\":20458:20462   */\n      0x00\n        /* \"#utility.yul\":20490:20494   */\n      0x20\n        /* \"#utility.yul\":20485:20488   */\n      dup3\n        /* \"#utility.yul\":20481:20495   */\n      add\n        /* \"#utility.yul\":20473:20495   */\n      swap1\n      pop\n        /* \"#utility.yul\":20361:20501   */\n      swap2\n      swap1\n      pop\n      jump\t// out\n        /* \"#utility.yul\":20559:21686   */\n    tag_471:\n        /* \"#utility.yul\":20732:20735   */\n      0x00\n        /* \"#utility.yul\":20761:20842   */\n      tag_718\n        /* \"#utility.yul\":20836:20841   */\n      dup3\n        /* \"#utility.yul\":20761:20842   */\n      tag_462\n      jump\t// in\n    tag_718:\n        /* \"#utility.yul\":20858:20971   */\n      tag_719\n        /* \"#utility.yul\":20964:20970   */\n      dup2\n        /* \"#utility.yul\":20959:20962   */\n      dup6\n        /* \"#utility.yul\":20858:20971   */\n      tag_463\n      jump\t// in\n    tag_719:\n        /* \"#utility.yul\":20851:20971   */\n      swap4\n      pop\n        /* \"#utility.yul\":20997:21000   */\n      dup4\n        /* \"#utility.yul\":21042:21046   */\n      0x20\n        /* \"#utility.yul\":21034:21040   */\n      dup3\n        /* \"#utility.yul\":21030:21047   */\n      mul\n        /* \"#utility.yul\":21025:21028   */\n      dup6\n        /* \"#utility.yul\":21021:21048   */\n      add\n        /* \"#utility.yul\":21072:21155   */\n      tag_720\n        /* \"#utility.yul\":21149:21154   */\n      dup6\n        /* \"#utility.yul\":21072:21155   */\n      tag_464\n      jump\t// in\n    tag_720:\n        /* \"#utility.yul\":21178:21185   */\n      dup1\n        /* \"#utility.yul\":21209:21210   */\n      0x00\n        /* \"#utility.yul\":21194:21641   */\n    tag_721:\n        /* \"#utility.yul\":21219:21225   */\n      dup6\n        /* \"#utility.yul\":21216:21217   */\n      dup2\n        /* \"#utility.yul\":21213:21226   */\n      lt\n        /* \"#utility.yul\":21194:21641   */\n      iszero\n      tag_723\n      jumpi\n        /* \"#utility.yul\":21290:21299   */\n      dup5\n        /* \"#utility.yul\":21284:21288   */\n      dup5\n        /* \"#utility.yul\":21280:21300   */\n      sub\n        /* \"#utility.yul\":21275:21278   */\n      dup10\n        /* \"#utility.yul\":21268:21301   */\n      mstore\n        /* \"#utility.yul\":21341:21347   */\n      dup2\n        /* \"#utility.yul\":21335:21348   */\n      mload\n        /* \"#utility.yul\":21369:21487   */\n      tag_724\n        /* \"#utility.yul\":21482:21486   */\n      dup6\n        /* \"#utility.yul\":21467:21480   */\n      dup3\n        /* \"#utility.yul\":21369:21487   */\n      tag_469\n      jump\t// in\n    tag_724:\n        /* \"#utility.yul\":21361:21487   */\n      swap5\n      pop\n        /* \"#utility.yul\":21510:21597   */\n      tag_725\n        /* \"#utility.yul\":21590:21596   */\n      dup4\n        /* \"#utility.yul\":21510:21597   */\n      tag_470\n      jump\t// in\n    tag_725:\n        /* \"#utility.yul\":21500:21597   */\n      swap3\n      pop\n        /* \"#utility.yul\":21626:21630   */\n      0x20\n        /* \"#utility.yul\":21621:21624   */\n      dup11\n        /* \"#utility.yul\":21617:21631   */\n      add\n        /* \"#utility.yul\":21610:21631   */\n      swap10\n      pop\n        /* \"#utility.yul\":21254:21641   */\n      pop\n        /* \"#utility.yul\":21241:21242   */\n      0x01\n        /* \"#utility.yul\":21238:21239   */\n      dup2\n        /* \"#utility.yul\":21234:21243   */\n      add\n        /* \"#utility.yul\":21229:21243   */\n      swap1\n      pop\n        /* \"#utility.yul\":21194:21641   */\n      jump(tag_721)\n    tag_723:\n        /* \"#utility.yul\":21198:21212   */\n      pop\n        /* \"#utility.yul\":21657:21661   */\n      dup3\n        /* \"#utility.yul\":21650:21661   */\n      swap8\n      pop\n        /* \"#utility.yul\":21677:21680   */\n      dup8\n        /* \"#utility.yul\":21670:21680   */\n      swap6\n      pop\n        /* \"#utility.yul\":20737:21686   */\n      pop\n      pop\n      pop\n      pop\n      pop\n        /* \"#utility.yul\":20559:21686   */\n      swap3\n      swap2\n      pop\n      pop\n      jump\t// out\n        /* \"#utility.yul\":21692:22173   */\n    tag_69:\n        /* \"#utility.yul\":21889:21893   */\n      0x00\n        /* \"#utility.yul\":21927:21929   */\n      0x20\n        /* \"#utility.yul\":21916:21925   */\n      dup3\n        /* \"#utility.yul\":21912:21930   */\n      add\n        /* \"#utility.yul\":21904:21930   */\n      swap1\n      pop\n        /* \"#utility.yul\":21976:21985   */\n      dup2\n        /* \"#utility.yul\":21970:21974   */\n      dup2\n        /* \"#utility.yul\":21966:21986   */\n      sub\n        /* \"#utility.yul\":21962:21963   */\n      0x00\n        /* \"#utility.yul\":21951:21960   */\n      dup4\n        /* \"#utility.yul\":21947:21964   */\n      add\n        /* \"#utility.yul\":21940:21987   */\n      mstore\n        /* \"#utility.yul\":22004:22166   */\n      tag_727\n        /* \"#utility.yul\":22161:22165   */\n      dup2\n        /* \"#utility.yul\":22152:22158   */\n      dup5\n        /* \"#utility.yul\":22004:22166   */\n      tag_471\n      jump\t// in\n    tag_727:\n        /* \"#utility.yul\":21996:22166   */\n      swap1\n      pop\n        /* \"#utility.yul\":21692:22173   */\n      swap3\n      swap2\n      pop\n      pop\n      jump\t// out\n        /* \"#utility.yul\":22179:22359   */\n    tag_472:\n        /* \"#utility.yul\":22227:22304   */\n      0x4e487b7100000000000000000000000000000000000000000000000000000000\n        /* \"#utility.yul\":22224:22225   */\n      0x00\n        /* \"#utility.yul\":22217:22305   */\n      mstore\n        /* \"#utility.yul\":22324:22328   */\n      0x22\n        /* \"#utility.yul\":22321:22322   */\n      0x04\n        /* \"#utility.yul\":22314:22329   */\n      mstore\n        /* \"#utility.yul\":22348:22352   */\n      0x24\n        /* \"#utility.yul\":22345:22346   */\n      0x00\n        /* \"#utility.yul\":22338:22353   */\n      revert\n        /* \"#utility.yul\":22365:22685   */\n    tag_73:\n        /* \"#utility.yul\":22409:22415   */\n      0x00\n        /* \"#utility.yul\":22446:22447   */\n      0x02\n        /* \"#utility.yul\":22440:22444   */\n      dup3\n        /* \"#utility.yul\":22436:22448   */\n      div\n        /* \"#utility.yul\":22426:22448   */\n      swap1\n      pop\n        /* \"#utility.yul\":22493:22494   */\n      0x01\n        /* \"#utility.yul\":22487:22491   */\n      dup3\n        /* \"#utility.yul\":22483:22495   */\n      and\n        /* \"#utility.yul\":22514:22532   */\n      dup1\n        /* \"#utility.yul\":22504:22585   */\n      tag_730\n      jumpi\n        /* \"#utility.yul\":22570:22574   */\n      0x7f\n        /* \"#utility.yul\":22562:22568   */\n      dup3\n        /* \"#utility.yul\":22558:22575   */\n      and\n        /* \"#utility.yul\":22548:22575   */\n      swap2\n      pop\n        /* \"#utility.yul\":22504:22585   */\n    tag_730:\n        /* \"#utility.yul\":22632:22634   */\n      0x20\n        /* \"#utility.yul\":22624:22630   */\n      dup3\n        /* \"#utility.yul\":22621:22635   */\n      lt\n        /* \"#utility.yul\":22601:22619   */\n      dup2\n        /* \"#utility.yul\":22598:22636   */\n      sub\n        /* \"#utility.yul\":22595:22679   */\n      tag_731\n      jumpi\n        /* \"#utility.yul\":22651:22669   */\n      tag_732\n      tag_472\n      jump\t// in\n    tag_732:\n        /* \"#utility.yul\":22595:22679   */\n    tag_731:\n        /* \"#utility.yul\":22416:22685   */\n      pop\n        /* \"#utility.yul\":22365:22685   */\n      swap2\n      swap1\n      pop\n      jump\t// out\n        /* \"#utility.yul\":22691:22912   */\n    tag_473:\n        /* \"#utility.yul\":22831:22865   */\n      0x53797374656d206f776e65722063616e2774206372656174652070726f6a6563\n        /* \"#utility.yul\":22827:22828   */\n      0x00\n        /* \"#utility.yul\":22819:22825   */\n      dup3\n        /* \"#utility.yul\":22815:22829   */\n      add\n        /* \"#utility.yul\":22808:22866   */\n      mstore\n        /* \"#utility.yul\":22900:22904   */\n      0x7473000000000000000000000000000000000000000000000000000000000000\n        /* \"#utility.yul\":22895:22897   */\n      0x20\n        /* \"#utility.yul\":22887:22893   */\n      dup3\n        /* \"#utility.yul\":22883:22898   */\n      add\n        /* \"#utility.yul\":22876:22905   */\n      mstore\n        /* \"#utility.yul\":22691:22912   */\n      pop\n      jump\t// out\n        /* \"#utility.yul\":22918:23284   */\n    tag_474:\n        /* \"#utility.yul\":23060:23063   */\n      0x00\n        /* \"#utility.yul\":23081:23148   */\n      tag_735\n        /* \"#utility.yul\":23145:23147   */\n      0x22\n        /* \"#utility.yul\":23140:23143   */\n      dup4\n        /* \"#utility.yul\":23081:23148   */\n      tag_424\n      jump\t// in\n    tag_735:\n        /* \"#utility.yul\":23074:23148   */\n      swap2\n      pop\n        /* \"#utility.yul\":23157:23250   */\n      tag_736\n        /* \"#utility.yul\":23246:23249   */\n      dup3\n        /* \"#utility.yul\":23157:23250   */\n      tag_473\n      jump\t// in\n    tag_736:\n        /* \"#utility.yul\":23275:23277   */\n      0x40\n        /* \"#utility.yul\":23270:23273   */\n      dup3\n        /* \"#utility.yul\":23266:23278   */\n      add\n        /* \"#utility.yul\":23259:23278   */\n      swap1\n      pop\n        /* \"#utility.yul\":22918:23284   */\n      swap2\n      swap1\n      pop\n      jump\t// out\n        /* \"#utility.yul\":23290:23709   */\n    tag_91:\n        /* \"#utility.yul\":23456:23460   */\n      0x00\n        /* \"#utility.yul\":23494:23496   */\n      0x20\n        /* \"#utility.yul\":23483:23492   */\n      dup3\n        /* \"#utility.yul\":23479:23497   */\n      add\n        /* \"#utility.yul\":23471:23497   */\n      swap1\n      pop\n        /* \"#utility.yul\":23543:23552   */\n      dup2\n        /* \"#utility.yul\":23537:23541   */\n      dup2\n        /* \"#utility.yul\":23533:23553   */\n      sub\n        /* \"#utility.yul\":23529:23530   */\n      0x00\n        /* \"#utility.yul\":23518:23527   */\n      dup4\n        /* \"#utility.yul\":23514:23531   */\n      add\n        /* \"#utility.yul\":23507:23554   */\n      mstore\n        /* \"#utility.yul\":23571:23702   */\n      tag_738\n        /* \"#utility.yul\":23697:23701   */\n      dup2\n        /* \"#utility.yul\":23571:23702   */\n      tag_474\n      jump\t// in\n    tag_738:\n        /* \"#utility.yul\":23563:23702   */\n      swap1\n      pop\n        /* \"#utility.yul\":23290:23709   */\n      swap2\n      swap1\n      pop\n      jump\t// out\n        /* \"#utility.yul\":23715:23856   */\n    tag_475:\n        /* \"#utility.yul\":23764:23768   */\n      0x00\n        /* \"#utility.yul\":23787:23790   */\n      dup2\n        /* \"#utility.yul\":23779:23790   */\n      swap1\n      pop\n        /* \"#utility.yul\":23810:23813   */\n      dup2\n        /* \"#utility.yul\":23807:23808   */\n      0x00\n        /* \"#utility.yul\":23800:23814   */\n      mstore\n        /* \"#utility.yul\":23844:23848   */\n      0x20\n        /* \"#utility.yul\":23841:23842   */\n      0x00\n        /* \"#utility.yul\":23831:23849   */\n      keccak256\n        /* \"#utility.yul\":23823:23849   */\n      swap1\n      pop\n        /* \"#utility.yul\":23715:23856   */\n      swap2\n      swap1\n      pop\n      jump\t// out\n        /* \"#utility.yul\":23862:23955   */\n    tag_476:\n        /* \"#utility.yul\":23899:23905   */\n      0x00\n        /* \"#utility.yul\":23946:23948   */\n      0x20\n        /* \"#utility.yul\":23941:23943   */\n      0x1f\n        /* \"#utility.yul\":23934:23939   */\n      dup4\n        /* \"#utility.yul\":23930:23944   */\n      add\n        /* \"#utility.yul\":23926:23949   */\n      div\n        /* \"#utility.yul\":23916:23949   */\n      swap1\n      pop\n        /* \"#utility.yul\":23862:23955   */\n      swap2\n      swap1\n      pop\n      jump\t// out\n        /* \"#utility.yul\":23961:24068   */\n    tag_477:\n        /* \"#utility.yul\":24005:24013   */\n      0x00\n        /* \"#utility.yul\":24055:24060   */\n      dup3\n        /* \"#utility.yul\":24049:24053   */\n      dup3\n        /* \"#utility.yul\":24045:24061   */\n      shl\n        /* \"#utility.yul\":24024:24061   */\n      swap1\n      pop\n        /* \"#utility.yul\":23961:24068   */\n      swap3\n      swap2\n      pop\n      pop\n      jump\t// out\n        /* \"#utility.yul\":24074:24467   */\n    tag_478:\n        /* \"#utility.yul\":24143:24149   */\n      0x00\n        /* \"#utility.yul\":24193:24194   */\n      0x08\n        /* \"#utility.yul\":24181:24191   */\n      dup4\n        /* \"#utility.yul\":24177:24195   */\n      mul\n        /* \"#utility.yul\":24216:24313   */\n      tag_743\n        /* \"#utility.yul\":24246:24312   */\n      0xffffffffffffffffffffffffffffffffffffffffffffffffffffffffffffffff\n        /* \"#utility.yul\":24235:24244   */\n      dup3\n        /* \"#utility.yul\":24216:24313   */\n      tag_477\n      jump\t// in\n    tag_743:\n        /* \"#utility.yul\":24334:24373   */\n      tag_744\n        /* \"#utility.yul\":24364:24372   */\n      dup7\n        /* \"#utility.yul\":24353:24362   */\n      dup4\n        /* \"#utility.yul\":24334:24373   */\n      tag_477\n      jump\t// in\n    tag_744:\n        /* \"#utility.yul\":24322:24373   */\n      swap6\n      pop\n        /* \"#utility.yul\":24406:24410   */\n      dup1\n        /* \"#utility.yul\":24402:24411   */\n      not\n        /* \"#utility.yul\":24395:24400   */\n      dup5\n        /* \"#utility.yul\":24391:24412   */\n      and\n        /* \"#utility.yul\":24382:24412   */\n      swap4\n      pop\n        /* \"#utility.yul\":24455:24459   */\n      dup1\n        /* \"#utility.yul\":24445:24453   */\n      dup7\n        /* \"#utility.yul\":24441:24460   */\n      and\n        /* \"#utility.yul\":24434:24439   */\n      dup5\n        /* \"#utility.yul\":24431:24461   */\n      or\n        /* \"#utility.yul\":24421:24461   */\n      swap3\n      pop\n        /* \"#utility.yul\":24150:24467   */\n      pop\n      pop\n        /* \"#utility.yul\":24074:24467   */\n      swap4\n      swap3\n      pop\n      pop\n      pop\n      jump\t// out\n        /* \"#utility.yul\":24473:24533   */\n    tag_479:\n        /* \"#utility.yul\":24501:24504   */\n      0x00\n        /* \"#utility.yul\":24522:24527   */\n      dup2\n        /* \"#utility.yul\":24515:24527   */\n      swap1\n      pop\n        /* \"#utility.yul\":24473:24533   */\n      swap2\n      swap1\n      pop\n      jump\t// out\n        /* \"#utility.yul\":24539:24681   */\n    tag_480:\n        /* \"#utility.yul\":24589:24598   */\n      0x00\n        /* \"#utility.yul\":24622:24675   */\n      tag_747\n        /* \"#utility.yul\":24640:24674   */\n      tag_748\n        /* \"#utility.yul\":24649:24673   */\n      tag_749\n        /* \"#utility.yul\":24667:24672   */\n      dup5\n        /* \"#utility.yul\":24649:24673   */\n      tag_420\n      jump\t// in\n    tag_749:\n        /* \"#utility.yul\":24640:24674   */\n      tag_479\n      jump\t// in\n    tag_748:\n        /* \"#utility.yul\":24622:24675   */\n      tag_420\n      jump\t// in\n    tag_747:\n        /* \"#utility.yul\":24609:24675   */\n      swap1\n      pop\n        /* \"#utility.yul\":24539:24681   */\n      swap2\n      swap1\n      pop\n      jump\t// out\n        /* \"#utility.yul\":24687:24762   */\n    tag_481:\n        /* \"#utility.yul\":24730:24733   */\n      0x00\n        /* \"#utility.yul\":24751:24756   */\n      dup2\n        /* \"#utility.yul\":24744:24756   */\n      swap1\n      pop\n        /* \"#utility.yul\":24687:24762   */\n      swap2\n      swap1\n      pop\n      jump\t// out\n        /* \"#utility.yul\":24768:25037   */\n    tag_482:\n        /* \"#utility.yul\":24878:24917   */\n      tag_752\n        /* \"#utility.yul\":24909:24916   */\n      dup4\n        /* \"#utility.yul\":24878:24917   */\n      tag_480\n      jump\t// in\n    tag_752:\n        /* \"#utility.yul\":24939:25030   */\n      tag_753\n        /* \"#utility.yul\":24988:25029   */\n      tag_754\n        /* \"#utility.yul\":25012:25028   */\n      dup3\n        /* \"#utility.yul\":24988:25029   */\n      tag_481\n      jump\t// in\n    tag_754:\n        /* \"#utility.yul\":24980:24986   */\n      dup5\n        /* \"#utility.yul\":24973:24977   */\n      dup5\n        /* \"#utility.yul\":24967:24978   */\n      sload\n        /* \"#utility.yul\":24939:25030   */\n      tag_478\n      jump\t// in\n    tag_753:\n        /* \"#utility.yul\":24933:24937   */\n      dup3\n        /* \"#utility.yul\":24926:25031   */\n      sstore\n        /* \"#utility.yul\":24844:25037   */\n      pop\n        /* \"#utility.yul\":24768:25037   */\n      pop\n      pop\n      pop\n      jump\t// out\n        /* \"#utility.yul\":25043:25116   */\n    tag_483:\n        /* \"#utility.yul\":25088:25091   */\n      0x00\n        /* \"#utility.yul\":25109:25110   */\n      0x00\n        /* \"#utility.yul\":25102:25110   */\n      swap1\n      pop\n        /* \"#utility.yul\":25043:25116   */\n      swap1\n      jump\t// out\n        /* \"#utility.yul\":25122:25311   */\n    tag_484:\n        /* \"#utility.yul\":25199:25231   */\n      tag_757\n      tag_483\n      jump\t// in\n    tag_757:\n        /* \"#utility.yul\":25240:25305   */\n      tag_758\n        /* \"#utility.yul\":25298:25304   */\n      dup2\n        /* \"#utility.yul\":25290:25296   */\n      dup5\n        /* \"#utility.yul\":25284:25288   */\n      dup5\n        /* \"#utility.yul\":25240:25305   */\n      tag_482\n      jump\t// in\n    tag_758:\n        /* \"#utility.yul\":25175:25311   */\n      pop\n        /* \"#utility.yul\":25122:25311   */\n      pop\n      pop\n      jump\t// out\n        /* \"#utility.yul\":25317:25503   */\n    tag_485:\n        /* \"#utility.yul\":25377:25497   */\n    tag_760:\n        /* \"#utility.yul\":25394:25397   */\n      dup2\n        /* \"#utility.yul\":25387:25392   */\n      dup2\n        /* \"#utility.yul\":25384:25398   */\n      lt\n        /* \"#utility.yul\":25377:25497   */\n      iszero\n      tag_762\n      jumpi\n        /* \"#utility.yul\":25448:25487   */\n      tag_763\n        /* \"#utility.yul\":25485:25486   */\n      0x00\n        /* \"#utility.yul\":25478:25483   */\n      dup3\n        /* \"#utility.yul\":25448:25487   */\n      tag_484\n      jump\t// in\n    tag_763:\n        /* \"#utility.yul\":25421:25422   */\n      0x01\n        /* \"#utility.yul\":25414:25419   */\n      dup2\n        /* \"#utility.yul\":25410:25423   */\n      add\n        /* \"#utility.yul\":25401:25423   */\n      swap1\n      pop\n        /* \"#utility.yul\":25377:25497   */\n      jump(tag_760)\n    tag_762:\n        /* \"#utility.yul\":25317:25503   */\n      pop\n      pop\n      jump\t// out\n        /* \"#utility.yul\":25509:26052   */\n    tag_486:\n        /* \"#utility.yul\":25610:25612   */\n      0x1f\n        /* \"#utility.yul\":25605:25608   */\n      dup3\n        /* \"#utility.yul\":25602:25613   */\n      gt\n        /* \"#utility.yul\":25599:26045   */\n      iszero\n      tag_765\n      jumpi\n        /* \"#utility.yul\":25644:25682   */\n      tag_766\n        /* \"#utility.yul\":25676:25681   */\n      dup2\n        /* \"#utility.yul\":25644:25682   */\n      tag_475\n      jump\t// in\n    tag_766:\n        /* \"#utility.yul\":25728:25757   */\n      tag_767\n        /* \"#utility.yul\":25746:25756   */\n      dup5\n        /* \"#utility.yul\":25728:25757   */\n      tag_476\n      jump\t// in\n    tag_767:\n        /* \"#utility.yul\":25718:25726   */\n      dup2\n        /* \"#utility.yul\":25714:25758   */\n      add\n        /* \"#utility.yul\":25911:25913   */\n      0x20\n        /* \"#utility.yul\":25899:25909   */\n      dup6\n        /* \"#utility.yul\":25896:25914   */\n      lt\n        /* \"#utility.yul\":25893:25942   */\n      iszero\n      tag_768\n      jumpi\n        /* \"#utility.yul\":25932:25940   */\n      dup2\n        /* \"#utility.yul\":25917:25940   */\n      swap1\n      pop\n        /* \"#utility.yul\":25893:25942   */\n    tag_768:\n        /* \"#utility.yul\":25955:26035   */\n      tag_769\n        /* \"#utility.yul\":26011:26033   */\n      tag_770\n        /* \"#utility.yul\":26029:26032   */\n      dup6\n        /* \"#utility.yul\":26011:26033   */\n      tag_476\n      jump\t// in\n    tag_770:\n        /* \"#utility.yul\":26001:26009   */\n      dup4\n        /* \"#utility.yul\":25997:26034   */\n      add\n        /* \"#utility.yul\":25984:25995   */\n      dup3\n        /* \"#utility.yul\":25955:26035   */\n      tag_485\n      jump\t// in\n    tag_769:\n        /* \"#utility.yul\":25614:26045   */\n      pop\n      pop\n        /* \"#utility.yul\":25599:26045   */\n    tag_765:\n        /* \"#utility.yul\":25509:26052   */\n      pop\n      pop\n      pop\n      jump\t// out\n        /* \"#utility.yul\":26058:26175   */\n    tag_487:\n        /* \"#utility.yul\":26112:26120   */\n      0x00\n        /* \"#utility.yul\":26162:26167   */\n      dup3\n        /* \"#utility.yul\":26156:26160   */\n      dup3\n        /* \"#utility.yul\":26152:26168   */\n      shr\n        /* \"#utility.yul\":26131:26168   */\n      swap1\n      pop\n        /* \"#utility.yul\":26058:26175   */\n      swap3\n      swap2\n      pop\n      pop\n      jump\t// out\n        /* \"#utility.yul\":26181:26350   */\n    tag_488:\n        /* \"#utility.yul\":26225:26231   */\n      0x00\n        /* \"#utility.yul\":26258:26309   */\n      tag_773\n        /* \"#utility.yul\":26306:26307   */\n      0x00\n        /* \"#utility.yul\":26302:26308   */\n      not\n        /* \"#utility.yul\":26294:26299   */\n      dup5\n        /* \"#utility.yul\":26291:26292   */\n      0x08\n        /* \"#utility.yul\":26287:26300   */\n      mul\n        /* \"#utility.yul\":26258:26309   */\n      tag_487\n      jump\t// in\n    tag_773:\n        /* \"#utility.yul\":26254:26310   */\n      not\n        /* \"#utility.yul\":26339:26343   */\n      dup1\n        /* \"#utility.yul\":26333:26337   */\n      dup4\n        /* \"#utility.yul\":26329:26344   */\n      and\n        /* \"#utility.yul\":26319:26344   */\n      swap2\n      pop\n        /* \"#utility.yul\":26232:26350   */\n      pop\n        /* \"#utility.yul\":26181:26350   */\n      swap3\n      swap2\n      pop\n      pop\n      jump\t// out\n        /* \"#utility.yul\":26355:26650   */\n    tag_489:\n        /* \"#utility.yul\":26431:26435   */\n      0x00\n        /* \"#utility.yul\":26577:26606   */\n      tag_775\n        /* \"#utility.yul\":26602:26605   */\n      dup4\n        /* \"#utility.yul\":26596:26600   */\n      dup4\n        /* \"#utility.yul\":26577:26606   */\n      tag_488\n      jump\t// in\n    tag_775:\n        /* \"#utility.yul\":26569:26606   */\n      swap2\n      pop\n        /* \"#utility.yul\":26639:26642   */\n      dup3\n        /* \"#utility.yul\":26636:26637   */\n      0x02\n        /* \"#utility.yul\":26632:26643   */\n      mul\n        /* \"#utility.yul\":26626:26630   */\n      dup3\n        /* \"#utility.yul\":26623:26644   */\n      or\n        /* \"#utility.yul\":26615:26644   */\n      swap1\n      pop\n        /* \"#utility.yul\":26355:26650   */\n      swap3\n      swap2\n      pop\n      pop\n      jump\t// out\n        /* \"#utility.yul\":26655:28050   */\n    tag_94:\n        /* \"#utility.yul\":26772:26809   */\n      tag_777\n        /* \"#utility.yul\":26805:26808   */\n      dup3\n        /* \"#utility.yul\":26772:26809   */\n      tag_423\n      jump\t// in\n    tag_777:\n        /* \"#utility.yul\":26874:26892   */\n      0xffffffffffffffff\n        /* \"#utility.yul\":26866:26872   */\n      dup2\n        /* \"#utility.yul\":26863:26893   */\n      gt\n        /* \"#utility.yul\":26860:26916   */\n      iszero\n      tag_778\n      jumpi\n        /* \"#utility.yul\":26896:26914   */\n      tag_779\n      tag_279\n      jump\t// in\n    tag_779:\n        /* \"#utility.yul\":26860:26916   */\n    tag_778:\n        /* \"#utility.yul\":26940:26978   */\n      tag_780\n        /* \"#utility.yul\":26972:26976   */\n      dup3\n        /* \"#utility.yul\":26966:26977   */\n      sload\n        /* \"#utility.yul\":26940:26978   */\n      tag_73\n      jump\t// in\n    tag_780:\n        /* \"#utility.yul\":27025:27092   */\n      tag_781\n        /* \"#utility.yul\":27085:27091   */\n      dup3\n        /* \"#utility.yul\":27077:27083   */\n      dup3\n        /* \"#utility.yul\":27071:27075   */\n      dup6\n        /* \"#utility.yul\":27025:27092   */\n      tag_486\n      jump\t// in\n    tag_781:\n        /* \"#utility.yul\":27119:27120   */\n      0x00\n        /* \"#utility.yul\":27143:27147   */\n      0x20\n        /* \"#utility.yul\":27130:27147   */\n      swap1\n      pop\n        /* \"#utility.yul\":27175:27177   */\n      0x1f\n        /* \"#utility.yul\":27167:27173   */\n      dup4\n        /* \"#utility.yul\":27164:27178   */\n      gt\n        /* \"#utility.yul\":27192:27193   */\n      0x01\n        /* \"#utility.yul\":27187:27805   */\n      dup2\n      eq\n      tag_783\n      jumpi\n        /* \"#utility.yul\":27849:27850   */\n      0x00\n        /* \"#utility.yul\":27866:27872   */\n      dup5\n        /* \"#utility.yul\":27863:27940   */\n      iszero\n      tag_784\n      jumpi\n        /* \"#utility.yul\":27915:27924   */\n      dup3\n        /* \"#utility.yul\":27910:27913   */\n      dup8\n        /* \"#utility.yul\":27906:27925   */\n      add\n        /* \"#utility.yul\":27900:27926   */\n      mload\n        /* \"#utility.yul\":27891:27926   */\n      swap1\n      pop\n        /* \"#utility.yul\":27863:27940   */\n    tag_784:\n        /* \"#utility.yul\":27966:28033   */\n      tag_785\n        /* \"#utility.yul\":28026:28032   */\n      dup6\n        /* \"#utility.yul\":28019:28024   */\n      dup3\n        /* \"#utility.yul\":27966:28033   */\n      tag_489\n      jump\t// in\n    tag_785:\n        /* \"#utility.yul\":27960:27964   */\n      dup7\n        /* \"#utility.yul\":27953:28034   */\n      sstore\n        /* \"#utility.yul\":27822:28044   */\n      pop\n        /* \"#utility.yul\":27157:28044   */\n      jump(tag_782)\n        /* \"#utility.yul\":27187:27805   */\n    tag_783:\n        /* \"#utility.yul\":27239:27243   */\n      0x1f\n        /* \"#utility.yul\":27235:27244   */\n      not\n        /* \"#utility.yul\":27227:27233   */\n      dup5\n        /* \"#utility.yul\":27223:27245   */\n      and\n        /* \"#utility.yul\":27273:27310   */\n      tag_786\n        /* \"#utility.yul\":27305:27309   */\n      dup7\n        /* \"#utility.yul\":27273:27310   */\n      tag_475\n      jump\t// in\n    tag_786:\n        /* \"#utility.yul\":27332:27333   */\n      0x00\n        /* \"#utility.yul\":27346:27554   */\n    tag_787:\n        /* \"#utility.yul\":27360:27367   */\n      dup3\n        /* \"#utility.yul\":27357:27358   */\n      dup2\n        /* \"#utility.yul\":27354:27368   */\n      lt\n        /* \"#utility.yul\":27346:27554   */\n      iszero\n      tag_789\n      jumpi\n        /* \"#utility.yul\":27439:27448   */\n      dup5\n        /* \"#utility.yul\":27434:27437   */\n      dup10\n        /* \"#utility.yul\":27430:27449   */\n      add\n        /* \"#utility.yul\":27424:27450   */\n      mload\n        /* \"#utility.yul\":27416:27422   */\n      dup3\n        /* \"#utility.yul\":27409:27451   */\n      sstore\n        /* \"#utility.yul\":27490:27491   */\n      0x01\n        /* \"#utility.yul\":27482:27488   */\n      dup3\n        /* \"#utility.yul\":27478:27492   */\n      add\n        /* \"#utility.yul\":27468:27492   */\n      swap2\n      pop\n        /* \"#utility.yul\":27537:27539   */\n      0x20\n        /* \"#utility.yul\":27526:27535   */\n      dup6\n        /* \"#utility.yul\":27522:27540   */\n      add\n        /* \"#utility.yul\":27509:27540   */\n      swap5\n      pop\n        /* \"#utility.yul\":27383:27387   */\n      0x20\n        /* \"#utility.yul\":27380:27381   */\n      dup2\n        /* \"#utility.yul\":27376:27388   */\n      add\n        /* \"#utility.yul\":27371:27388   */\n      swap1\n      pop\n        /* \"#utility.yul\":27346:27554   */\n      jump(tag_787)\n    tag_789:\n        /* \"#utility.yul\":27582:27588   */\n      dup7\n        /* \"#utility.yul\":27573:27580   */\n      dup4\n        /* \"#utility.yul\":27570:27589   */\n      lt\n        /* \"#utility.yul\":27567:27746   */\n      iszero\n      tag_790\n      jumpi\n        /* \"#utility.yul\":27640:27649   */\n      dup5\n        /* \"#utility.yul\":27635:27638   */\n      dup10\n        /* \"#utility.yul\":27631:27650   */\n      add\n        /* \"#utility.yul\":27625:27651   */\n      mload\n        /* \"#utility.yul\":27683:27731   */\n      tag_791\n        /* \"#utility.yul\":27725:27729   */\n      0x1f\n        /* \"#utility.yul\":27717:27723   */\n      dup10\n        /* \"#utility.yul\":27713:27730   */\n      and\n        /* \"#utility.yul\":27702:27711   */\n      dup3\n        /* \"#utility.yul\":27683:27731   */\n      tag_488\n      jump\t// in\n    tag_791:\n        /* \"#utility.yul\":27675:27681   */\n      dup4\n        /* \"#utility.yul\":27668:27732   */\n      sstore\n        /* \"#utility.yul\":27590:27746   */\n      pop\n        /* \"#utility.yul\":27567:27746   */\n    tag_790:\n        /* \"#utility.yul\":27792:27793   */\n      0x01\n        /* \"#utility.yul\":27788:27789   */\n      0x02\n        /* \"#utility.yul\":27780:27786   */\n      dup9\n        /* \"#utility.yul\":27776:27790   */\n      mul\n        /* \"#utility.yul\":27772:27794   */\n      add\n        /* \"#utility.yul\":27766:27770   */\n      dup9\n        /* \"#utility.yul\":27759:27795   */\n      sstore\n        /* \"#utility.yul\":27194:27805   */\n      pop\n      pop\n      pop\n        /* \"#utility.yul\":27157:28044   */\n    tag_782:\n      pop\n        /* \"#utility.yul\":26747:28050   */\n      pop\n      pop\n      pop\n        /* \"#utility.yul\":26655:28050   */\n      pop\n      pop\n      jump\t// out\n        /* \"#utility.yul\":28056:28236   */\n    tag_490:\n        /* \"#utility.yul\":28104:28181   */\n      0x4e487b7100000000000000000000000000000000000000000000000000000000\n        /* \"#utility.yul\":28101:28102   */\n      0x00\n        /* \"#utility.yul\":28094:28182   */\n      mstore\n        /* \"#utility.yul\":28201:28205   */\n      0x11\n        /* \"#utility.yul\":28198:28199   */\n      0x04\n        /* \"#utility.yul\":28191:28206   */\n      mstore\n        /* \"#utility.yul\":28225:28229   */\n      0x24\n        /* \"#utility.yul\":28222:28223   */\n      0x00\n        /* \"#utility.yul\":28215:28230   */\n      revert\n        /* \"#utility.yul\":28242:28436   */\n    tag_99:\n        /* \"#utility.yul\":28282:28286   */\n      0x00\n        /* \"#utility.yul\":28302:28322   */\n      tag_794\n        /* \"#utility.yul\":28320:28321   */\n      dup3\n        /* \"#utility.yul\":28302:28322   */\n      tag_420\n      jump\t// in\n    tag_794:\n        /* \"#utility.yul\":28297:28322   */\n      swap2\n      pop\n        /* \"#utility.yul\":28336:28356   */\n      tag_795\n        /* \"#utility.yul\":28354:28355   */\n      dup4\n        /* \"#utility.yul\":28336:28356   */\n      tag_420\n      jump\t// in\n    tag_795:\n        /* \"#utility.yul\":28331:28356   */\n      swap3\n      pop\n        /* \"#utility.yul\":28380:28381   */\n      dup3\n        /* \"#utility.yul\":28377:28378   */\n      dup3\n        /* \"#utility.yul\":28373:28382   */\n      sub\n        /* \"#utility.yul\":28365:28382   */\n      swap1\n      pop\n        /* \"#utility.yul\":28404:28405   */\n      dup2\n        /* \"#utility.yul\":28398:28402   */\n      dup2\n        /* \"#utility.yul\":28395:28406   */\n      gt\n        /* \"#utility.yul\":28392:28429   */\n      iszero\n      tag_796\n      jumpi\n        /* \"#utility.yul\":28409:28427   */\n      tag_797\n      tag_490\n      jump\t// in\n    tag_797:\n        /* \"#utility.yul\":28392:28429   */\n    tag_796:\n        /* \"#utility.yul\":28242:28436   */\n      swap3\n      swap2\n      pop\n      pop\n      jump\t// out\n        /* \"#utility.yul\":28442:28664   */\n    tag_101:\n        /* \"#utility.yul\":28535:28539   */\n      0x00\n        /* \"#utility.yul\":28573:28575   */\n      0x20\n        /* \"#utility.yul\":28562:28571   */\n      dup3\n        /* \"#utility.yul\":28558:28576   */\n      add\n        /* \"#utility.yul\":28550:28576   */\n      swap1\n      pop\n        /* \"#utility.yul\":28586:28657   */\n      tag_799\n        /* \"#utility.yul\":28654:28655   */\n      0x00\n        /* \"#utility.yul\":28643:28652   */\n      dup4\n        /* \"#utility.yul\":28639:28656   */\n      add\n        /* \"#utility.yul\":28630:28636   */\n      dup5\n        /* \"#utility.yul\":28586:28657   */\n      tag_428\n      jump\t// in\n    tag_799:\n        /* \"#utility.yul\":28442:28664   */\n      swap3\n      swap2\n      pop\n      pop\n      jump\t// out\n        /* \"#utility.yul\":28670:28850   */\n    tag_105:\n        /* \"#utility.yul\":28718:28795   */\n      0x4e487b7100000000000000000000000000000000000000000000000000000000\n        /* \"#utility.yul\":28715:28716   */\n      0x00\n        /* \"#utility.yul\":28708:28796   */\n      mstore\n        /* \"#utility.yul\":28815:28819   */\n      0x32\n        /* \"#utility.yul\":28812:28813   */\n      0x04\n        /* \"#utility.yul\":28805:28820   */\n      mstore\n        /* \"#utility.yul\":28839:28843   */\n      0x24\n        /* \"#utility.yul\":28836:28837   */\n      0x00\n        /* \"#utility.yul\":28829:28844   */\n      revert\n        /* \"#utility.yul\":28856:29028   */\n    tag_491:\n        /* \"#utility.yul\":28996:29020   */\n      0x496e76616c69642070726f6a6563747320696e64657800000000000000000000\n        /* \"#utility.yul\":28992:28993   */\n      0x00\n        /* \"#utility.yul\":28984:28990   */\n      dup3\n        /* \"#utility.yul\":28980:28994   */\n      add\n        /* \"#utility.yul\":28973:29021   */\n      mstore\n        /* \"#utility.yul\":28856:29028   */\n      pop\n      jump\t// out\n        /* \"#utility.yul\":29034:29400   */\n    tag_492:\n        /* \"#utility.yul\":29176:29179   */\n      0x00\n        /* \"#utility.yul\":29197:29264   */\n      tag_803\n        /* \"#utility.yul\":29261:29263   */\n      0x16\n        /* \"#utility.yul\":29256:29259   */\n      dup4\n        /* \"#utility.yul\":29197:29264   */\n      tag_424\n      jump\t// in\n    tag_803:\n        /* \"#utility.yul\":29190:29264   */\n      swap2\n      pop\n        /* \"#utility.yul\":29273:29366   */\n      tag_804\n        /* \"#utility.yul\":29362:29365   */\n      dup3\n        /* \"#utility.yul\":29273:29366   */\n      tag_491\n      jump\t// in\n    tag_804:\n        /* \"#utility.yul\":29391:29393   */\n      0x20\n        /* \"#utility.yul\":29386:29389   */\n      dup3\n        /* \"#utility.yul\":29382:29394   */\n      add\n        /* \"#utility.yul\":29375:29394   */\n      swap1\n      pop\n        /* \"#utility.yul\":29034:29400   */\n      swap2\n      swap1\n      pop\n      jump\t// out\n        /* \"#utility.yul\":29406:29825   */\n    tag_115:\n        /* \"#utility.yul\":29572:29576   */\n      0x00\n        /* \"#utility.yul\":29610:29612   */\n      0x20\n        /* \"#utility.yul\":29599:29608   */\n      dup3\n        /* \"#utility.yul\":29595:29613   */\n      add\n        /* \"#utility.yul\":29587:29613   */\n      swap1\n      pop\n        /* \"#utility.yul\":29659:29668   */\n      dup2\n        /* \"#utility.yul\":29653:29657   */\n      dup2\n        /* \"#utility.yul\":29649:29669   */\n      sub\n        /* \"#utility.yul\":29645:29646   */\n      0x00\n        /* \"#utility.yul\":29634:29643   */\n      dup4\n        /* \"#utility.yul\":29630:29647   */\n      add\n        /* \"#utility.yul\":29623:29670   */\n      mstore\n        /* \"#utility.yul\":29687:29818   */\n      tag_806\n        /* \"#utility.yul\":29813:29817   */\n      dup2\n        /* \"#utility.yul\":29687:29818   */\n      tag_492\n      jump\t// in\n    tag_806:\n        /* \"#utility.yul\":29679:29818   */\n      swap1\n      pop\n        /* \"#utility.yul\":29406:29825   */\n      swap2\n      swap1\n      pop\n      jump\t// out\n        /* \"#utility.yul\":29831:30003   */\n    tag_493:\n        /* \"#utility.yul\":29971:29995   */\n      0x50726f6a656374206d7573742062652061637469766500000000000000000000\n        /* \"#utility.yul\":29967:29968   */\n      0x00\n        /* \"#utility.yul\":29959:29965   */\n      dup3\n        /* \"#utility.yul\":29955:29969   */\n      add\n        /* \"#utility.yul\":29948:29996   */\n      mstore\n        /* \"#utility.yul\":29831:30003   */\n      pop\n      jump\t// out\n        /* \"#utility.yul\":30009:30375   */\n    tag_494:\n        /* \"#utility.yul\":30151:30154   */\n      0x00\n        /* \"#utility.yul\":30172:30239   */\n      tag_809\n        /* \"#utility.yul\":30236:30238   */\n      0x16\n        /* \"#utility.yul\":30231:30234   */\n      dup4\n        /* \"#utility.yul\":30172:30239   */\n      tag_424\n      jump\t// in\n    tag_809:\n        /* \"#utility.yul\":30165:30239   */\n      swap2\n      pop\n        /* \"#utility.yul\":30248:30341   */\n      tag_810\n        /* \"#utility.yul\":30337:30340   */\n      dup3\n        /* \"#utility.yul\":30248:30341   */\n      tag_493\n      jump\t// in\n    tag_810:\n        /* \"#utility.yul\":30366:30368   */\n      0x20\n        /* \"#utility.yul\":30361:30364   */\n      dup3\n        /* \"#utility.yul\":30357:30369   */\n      add\n        /* \"#utility.yul\":30350:30369   */\n      swap1\n      pop\n        /* \"#utility.yul\":30009:30375   */\n      swap2\n      swap1\n      pop\n      jump\t// out\n        /* \"#utility.yul\":30381:30800   */\n    tag_121:\n        /* \"#utility.yul\":30547:30551   */\n      0x00\n        /* \"#utility.yul\":30585:30587   */\n      0x20\n        /* \"#utility.yul\":30574:30583   */\n      dup3\n        /* \"#utility.yul\":30570:30588   */\n      add\n        /* \"#utility.yul\":30562:30588   */\n      swap1\n      pop\n        /* \"#utility.yul\":30634:30643   */\n      dup2\n        /* \"#utility.yul\":30628:30632   */\n      dup2\n        /* \"#utility.yul\":30624:30644   */\n      sub\n        /* \"#utility.yul\":30620:30621   */\n      0x00\n        /* \"#utility.yul\":30609:30618   */\n      dup4\n        /* \"#utility.yul\":30605:30622   */\n      add\n        /* \"#utility.yul\":30598:30645   */\n      mstore\n        /* \"#utility.yul\":30662:30793   */\n      tag_812\n        /* \"#utility.yul\":30788:30792   */\n      dup2\n        /* \"#utility.yul\":30662:30793   */\n      tag_494\n      jump\t// in\n    tag_812:\n        /* \"#utility.yul\":30654:30793   */\n      swap1\n      pop\n        /* \"#utility.yul\":30381:30800   */\n      swap2\n      swap1\n      pop\n      jump\t// out\n        /* \"#utility.yul\":30806:30987   */\n    tag_495:\n        /* \"#utility.yul\":30946:30979   */\n      0x4d696c6573746f6e652073686f756c64206265206e6f74207265616368656400\n        /* \"#utility.yul\":30942:30943   */\n      0x00\n        /* \"#utility.yul\":30934:30940   */\n      dup3\n        /* \"#utility.yul\":30930:30944   */\n      add\n        /* \"#utility.yul\":30923:30980   */\n      mstore\n        /* \"#utility.yul\":30806:30987   */\n      pop\n      jump\t// out\n        /* \"#utility.yul\":30993:31359   */\n    tag_496:\n        /* \"#utility.yul\":31135:31138   */\n      0x00\n        /* \"#utility.yul\":31156:31223   */\n      tag_815\n        /* \"#utility.yul\":31220:31222   */\n      0x1f\n        /* \"#utility.yul\":31215:31218   */\n      dup4\n        /* \"#utility.yul\":31156:31223   */\n      tag_424\n      jump\t// in\n    tag_815:\n        /* \"#utility.yul\":31149:31223   */\n      swap2\n      pop\n        /* \"#utility.yul\":31232:31325   */\n      tag_816\n        /* \"#utility.yul\":31321:31324   */\n      dup3\n        /* \"#utility.yul\":31232:31325   */\n      tag_495\n      jump\t// in\n    tag_816:\n        /* \"#utility.yul\":31350:31352   */\n      0x20\n        /* \"#utility.yul\":31345:31348   */\n      dup3\n        /* \"#utility.yul\":31341:31353   */\n      add\n        /* \"#utility.yul\":31334:31353   */\n      swap1\n      pop\n        /* \"#utility.yul\":30993:31359   */\n      swap2\n      swap1\n      pop\n      jump\t// out\n        /* \"#utility.yul\":31365:31784   */\n    tag_127:\n        /* \"#utility.yul\":31531:31535   */\n      0x00\n        /* \"#utility.yul\":31569:31571   */\n      0x20\n        /* \"#utility.yul\":31558:31567   */\n      dup3\n        /* \"#utility.yul\":31554:31572   */\n      add\n        /* \"#utility.yul\":31546:31572   */\n      swap1\n      pop\n        /* \"#utility.yul\":31618:31627   */\n      dup2\n        /* \"#utility.yul\":31612:31616   */\n      dup2\n        /* \"#utility.yul\":31608:31628   */\n      sub\n        /* \"#utility.yul\":31604:31605   */\n      0x00\n        /* \"#utility.yul\":31593:31602   */\n      dup4\n        /* \"#utility.yul\":31589:31606   */\n      add\n        /* \"#utility.yul\":31582:31629   */\n      mstore\n        /* \"#utility.yul\":31646:31777   */\n      tag_818\n        /* \"#utility.yul\":31772:31776   */\n      dup2\n        /* \"#utility.yul\":31646:31777   */\n      tag_496\n      jump\t// in\n    tag_818:\n        /* \"#utility.yul\":31638:31777   */\n      swap1\n      pop\n        /* \"#utility.yul\":31365:31784   */\n      swap2\n      swap1\n      pop\n      jump\t// out\n        /* \"#utility.yul\":31790:32343   */\n    tag_129:\n        /* \"#utility.yul\":31967:31971   */\n      0x00\n        /* \"#utility.yul\":32005:32008   */\n      0x80\n        /* \"#utility.yul\":31994:32003   */\n      dup3\n        /* \"#utility.yul\":31990:32009   */\n      add\n        /* \"#utility.yul\":31982:32009   */\n      swap1\n      pop\n        /* \"#utility.yul\":32019:32090   */\n      tag_820\n        /* \"#utility.yul\":32087:32088   */\n      0x00\n        /* \"#utility.yul\":32076:32085   */\n      dup4\n        /* \"#utility.yul\":32072:32089   */\n      add\n        /* \"#utility.yul\":32063:32069   */\n      dup8\n        /* \"#utility.yul\":32019:32090   */\n      tag_428\n      jump\t// in\n    tag_820:\n        /* \"#utility.yul\":32100:32172   */\n      tag_821\n        /* \"#utility.yul\":32168:32170   */\n      0x20\n        /* \"#utility.yul\":32157:32166   */\n      dup4\n        /* \"#utility.yul\":32153:32171   */\n      add\n        /* \"#utility.yul\":32144:32150   */\n      dup7\n        /* \"#utility.yul\":32100:32172   */\n      tag_428\n      jump\t// in\n    tag_821:\n        /* \"#utility.yul\":32182:32254   */\n      tag_822\n        /* \"#utility.yul\":32250:32252   */\n      0x40\n        /* \"#utility.yul\":32239:32248   */\n      dup4\n        /* \"#utility.yul\":32235:32253   */\n      add\n        /* \"#utility.yul\":32226:32232   */\n      dup6\n        /* \"#utility.yul\":32182:32254   */\n      tag_428\n      jump\t// in\n    tag_822:\n        /* \"#utility.yul\":32264:32336   */\n      tag_823\n        /* \"#utility.yul\":32332:32334   */\n      0x60\n        /* \"#utility.yul\":32321:32330   */\n      dup4\n        /* \"#utility.yul\":32317:32335   */\n      add\n        /* \"#utility.yul\":32308:32314   */\n      dup5\n        /* \"#utility.yul\":32264:32336   */\n      tag_428\n      jump\t// in\n    tag_823:\n        /* \"#utility.yul\":31790:32343   */\n      swap6\n      swap5\n      pop\n      pop\n      pop\n      pop\n      pop\n      jump\t// out\n        /* \"#utility.yul\":32349:32520   */\n    tag_497:\n        /* \"#utility.yul\":32489:32512   */\n      0x50726f6a65637420646f65736e27742065786973740000000000000000000000\n        /* \"#utility.yul\":32485:32486   */\n      0x00\n        /* \"#utility.yul\":32477:32483   */\n      dup3\n        /* \"#utility.yul\":32473:32487   */\n      add\n        /* \"#utility.yul\":32466:32513   */\n      mstore\n        /* \"#utility.yul\":32349:32520   */\n      pop\n      jump\t// out\n        /* \"#utility.yul\":32526:32892   */\n    tag_498:\n        /* \"#utility.yul\":32668:32671   */\n      0x00\n        /* \"#utility.yul\":32689:32756   */\n      tag_826\n        /* \"#utility.yul\":32753:32755   */\n      0x15\n        /* \"#utility.yul\":32748:32751   */\n      dup4\n        /* \"#utility.yul\":32689:32756   */\n      tag_424\n      jump\t// in\n    tag_826:\n        /* \"#utility.yul\":32682:32756   */\n      swap2\n      pop\n        /* \"#utility.yul\":32765:32858   */\n      tag_827\n        /* \"#utility.yul\":32854:32857   */\n      dup3\n        /* \"#utility.yul\":32765:32858   */\n      tag_497\n      jump\t// in\n    tag_827:\n        /* \"#utility.yul\":32883:32885   */\n      0x20\n        /* \"#utility.yul\":32878:32881   */\n      dup3\n        /* \"#utility.yul\":32874:32886   */\n      add\n        /* \"#utility.yul\":32867:32886   */\n      swap1\n      pop\n        /* \"#utility.yul\":32526:32892   */\n      swap2\n      swap1\n      pop\n      jump\t// out\n        /* \"#utility.yul\":32898:33317   */\n    tag_133:\n        /* \"#utility.yul\":33064:33068   */\n      0x00\n        /* \"#utility.yul\":33102:33104   */\n      0x20\n        /* \"#utility.yul\":33091:33100   */\n      dup3\n        /* \"#utility.yul\":33087:33105   */\n      add\n        /* \"#utility.yul\":33079:33105   */\n      swap1\n      pop\n        /* \"#utility.yul\":33151:33160   */\n      dup2\n        /* \"#utility.yul\":33145:33149   */\n      dup2\n        /* \"#utility.yul\":33141:33161   */\n      sub\n        /* \"#utility.yul\":33137:33138   */\n      0x00\n        /* \"#utility.yul\":33126:33135   */\n      dup4\n        /* \"#utility.yul\":33122:33139   */\n      add\n        /* \"#utility.yul\":33115:33162   */\n      mstore\n        /* \"#utility.yul\":33179:33310   */\n      tag_829\n        /* \"#utility.yul\":33305:33309   */\n      dup2\n        /* \"#utility.yul\":33179:33310   */\n      tag_498\n      jump\t// in\n    tag_829:\n        /* \"#utility.yul\":33171:33310   */\n      swap1\n      pop\n        /* \"#utility.yul\":32898:33317   */\n      swap2\n      swap1\n      pop\n      jump\t// out\n        /* \"#utility.yul\":33323:33544   */\n    tag_499:\n        /* \"#utility.yul\":33463:33497   */\n      0x596f7520646f6e74206861766520656e6f756768206d6f6e657920746f206675\n        /* \"#utility.yul\":33459:33460   */\n      0x00\n        /* \"#utility.yul\":33451:33457   */\n      dup3\n        /* \"#utility.yul\":33447:33461   */\n      add\n        /* \"#utility.yul\":33440:33498   */\n      mstore\n        /* \"#utility.yul\":33532:33536   */\n      0x6e64000000000000000000000000000000000000000000000000000000000000\n        /* \"#utility.yul\":33527:33529   */\n      0x20\n        /* \"#utility.yul\":33519:33525   */\n      dup3\n        /* \"#utility.yul\":33515:33530   */\n      add\n        /* \"#utility.yul\":33508:33537   */\n      mstore\n        /* \"#utility.yul\":33323:33544   */\n      pop\n      jump\t// out\n        /* \"#utility.yul\":33550:33916   */\n    tag_500:\n        /* \"#utility.yul\":33692:33695   */\n      0x00\n        /* \"#utility.yul\":33713:33780   */\n      tag_832\n        /* \"#utility.yul\":33777:33779   */\n      0x22\n        /* \"#utility.yul\":33772:33775   */\n      dup4\n        /* \"#utility.yul\":33713:33780   */\n      tag_424\n      jump\t// in\n    tag_832:\n        /* \"#utility.yul\":33706:33780   */\n      swap2\n      pop\n        /* \"#utility.yul\":33789:33882   */\n      tag_833\n        /* \"#utility.yul\":33878:33881   */\n      dup3\n        /* \"#utility.yul\":33789:33882   */\n      tag_499\n      jump\t// in\n    tag_833:\n        /* \"#utility.yul\":33907:33909   */\n      0x40\n        /* \"#utility.yul\":33902:33905   */\n      dup3\n        /* \"#utility.yul\":33898:33910   */\n      add\n        /* \"#utility.yul\":33891:33910   */\n      swap1\n      pop\n        /* \"#utility.yul\":33550:33916   */\n      swap2\n      swap1\n      pop\n      jump\t// out\n        /* \"#utility.yul\":33922:34341   */\n    tag_136:\n        /* \"#utility.yul\":34088:34092   */\n      0x00\n        /* \"#utility.yul\":34126:34128   */\n      0x20\n        /* \"#utility.yul\":34115:34124   */\n      dup3\n        /* \"#utility.yul\":34111:34129   */\n      add\n        /* \"#utility.yul\":34103:34129   */\n      swap1\n      pop\n        /* \"#utility.yul\":34175:34184   */\n      dup2\n        /* \"#utility.yul\":34169:34173   */\n      dup2\n        /* \"#utility.yul\":34165:34185   */\n      sub\n        /* \"#utility.yul\":34161:34162   */\n      0x00\n        /* \"#utility.yul\":34150:34159   */\n      dup4\n        /* \"#utility.yul\":34146:34163   */\n      add\n        /* \"#utility.yul\":34139:34186   */\n      mstore\n        /* \"#utility.yul\":34203:34334   */\n      tag_835\n        /* \"#utility.yul\":34329:34333   */\n      dup2\n        /* \"#utility.yul\":34203:34334   */\n      tag_500\n      jump\t// in\n    tag_835:\n        /* \"#utility.yul\":34195:34334   */\n      swap1\n      pop\n        /* \"#utility.yul\":33922:34341   */\n      swap2\n      swap1\n      pop\n      jump\t// out\n        /* \"#utility.yul\":34347:34519   */\n    tag_501:\n        /* \"#utility.yul\":34487:34511   */\n      0x46756e6420616d6f756e742063616e2774206265203000000000000000000000\n        /* \"#utility.yul\":34483:34484   */\n      0x00\n        /* \"#utility.yul\":34475:34481   */\n      dup3\n        /* \"#utility.yul\":34471:34485   */\n      add\n        /* \"#utility.yul\":34464:34512   */\n      mstore\n        /* \"#utility.yul\":34347:34519   */\n      pop\n      jump\t// out\n        /* \"#utility.yul\":34525:34891   */\n    tag_502:\n        /* \"#utility.yul\":34667:34670   */\n      0x00\n        /* \"#utility.yul\":34688:34755   */\n      tag_838\n        /* \"#utility.yul\":34752:34754   */\n      0x16\n        /* \"#utility.yul\":34747:34750   */\n      dup4\n        /* \"#utility.yul\":34688:34755   */\n      tag_424\n      jump\t// in\n    tag_838:\n        /* \"#utility.yul\":34681:34755   */\n      swap2\n      pop\n        /* \"#utility.yul\":34764:34857   */\n      tag_839\n        /* \"#utility.yul\":34853:34856   */\n      dup3\n        /* \"#utility.yul\":34764:34857   */\n      tag_501\n      jump\t// in\n    tag_839:\n        /* \"#utility.yul\":34882:34884   */\n      0x20\n        /* \"#utility.yul\":34877:34880   */\n      dup3\n        /* \"#utility.yul\":34873:34885   */\n      add\n        /* \"#utility.yul\":34866:34885   */\n      swap1\n      pop\n        /* \"#utility.yul\":34525:34891   */\n      swap2\n      swap1\n      pop\n      jump\t// out\n        /* \"#utility.yul\":34897:35316   */\n    tag_139:\n        /* \"#utility.yul\":35063:35067   */\n      0x00\n        /* \"#utility.yul\":35101:35103   */\n      0x20\n        /* \"#utility.yul\":35090:35099   */\n      dup3\n        /* \"#utility.yul\":35086:35104   */\n      add\n        /* \"#utility.yul\":35078:35104   */\n      swap1\n      pop\n        /* \"#utility.yul\":35150:35159   */\n      dup2\n        /* \"#utility.yul\":35144:35148   */\n      dup2\n        /* \"#utility.yul\":35140:35160   */\n      sub\n        /* \"#utility.yul\":35136:35137   */\n      0x00\n        /* \"#utility.yul\":35125:35134   */\n      dup4\n        /* \"#utility.yul\":35121:35138   */\n      add\n        /* \"#utility.yul\":35114:35161   */\n      mstore\n        /* \"#utility.yul\":35178:35309   */\n      tag_841\n        /* \"#utility.yul\":35304:35308   */\n      dup2\n        /* \"#utility.yul\":35178:35309   */\n      tag_502\n      jump\t// in\n    tag_841:\n        /* \"#utility.yul\":35170:35309   */\n      swap1\n      pop\n        /* \"#utility.yul\":34897:35316   */\n      swap2\n      swap1\n      pop\n      jump\t// out\n        /* \"#utility.yul\":35322:35502   */\n    tag_503:\n        /* \"#utility.yul\":35462:35494   */\n      0x50726f6a656374206d7573742062652061637469766520746f2066756e640000\n        /* \"#utility.yul\":35458:35459   */\n      0x00\n        /* \"#utility.yul\":35450:35456   */\n      dup3\n        /* \"#utility.yul\":35446:35460   */\n      add\n        /* \"#utility.yul\":35439:35495   */\n      mstore\n        /* \"#utility.yul\":35322:35502   */\n      pop\n      jump\t// out\n        /* \"#utility.yul\":35508:35874   */\n    tag_504:\n        /* \"#utility.yul\":35650:35653   */\n      0x00\n        /* \"#utility.yul\":35671:35738   */\n      tag_844\n        /* \"#utility.yul\":35735:35737   */\n      0x1e\n        /* \"#utility.yul\":35730:35733   */\n      dup4\n        /* \"#utility.yul\":35671:35738   */\n      tag_424\n      jump\t// in\n    tag_844:\n        /* \"#utility.yul\":35664:35738   */\n      swap2\n      pop\n        /* \"#utility.yul\":35747:35840   */\n      tag_845\n        /* \"#utility.yul\":35836:35839   */\n      dup3\n        /* \"#utility.yul\":35747:35840   */\n      tag_503\n      jump\t// in\n    tag_845:\n        /* \"#utility.yul\":35865:35867   */\n      0x20\n        /* \"#utility.yul\":35860:35863   */\n      dup3\n        /* \"#utility.yul\":35856:35868   */\n      add\n        /* \"#utility.yul\":35849:35868   */\n      swap1\n      pop\n        /* \"#utility.yul\":35508:35874   */\n      swap2\n      swap1\n      pop\n      jump\t// out\n        /* \"#utility.yul\":35880:36299   */\n    tag_145:\n        /* \"#utility.yul\":36046:36050   */\n      0x00\n        /* \"#utility.yul\":36084:36086   */\n      0x20\n        /* \"#utility.yul\":36073:36082   */\n      dup3\n        /* \"#utility.yul\":36069:36087   */\n      add\n        /* \"#utility.yul\":36061:36087   */\n      swap1\n      pop\n        /* \"#utility.yul\":36133:36142   */\n      dup2\n        /* \"#utility.yul\":36127:36131   */\n      dup2\n        /* \"#utility.yul\":36123:36143   */\n      sub\n        /* \"#utility.yul\":36119:36120   */\n      0x00\n        /* \"#utility.yul\":36108:36117   */\n      dup4\n        /* \"#utility.yul\":36104:36121   */\n      add\n        /* \"#utility.yul\":36097:36144   */\n      mstore\n        /* \"#utility.yul\":36161:36292   */\n      tag_847\n        /* \"#utility.yul\":36287:36291   */\n      dup2\n        /* \"#utility.yul\":36161:36292   */\n      tag_504\n      jump\t// in\n    tag_847:\n        /* \"#utility.yul\":36153:36292   */\n      swap1\n      pop\n        /* \"#utility.yul\":35880:36299   */\n      swap2\n      swap1\n      pop\n      jump\t// out\n        /* \"#utility.yul\":36305:36484   */\n    tag_505:\n        /* \"#utility.yul\":36445:36476   */\n      0x596f752063616e27742066756e6420616674657220646561646c696e65000000\n        /* \"#utility.yul\":36441:36442   */\n      0x00\n        /* \"#utility.yul\":36433:36439   */\n      dup3\n        /* \"#utility.yul\":36429:36443   */\n      add\n        /* \"#utility.yul\":36422:36477   */\n      mstore\n        /* \"#utility.yul\":36305:36484   */\n      pop\n      jump\t// out\n        /* \"#utility.yul\":36490:36856   */\n    tag_506:\n        /* \"#utility.yul\":36632:36635   */\n      0x00\n        /* \"#utility.yul\":36653:36720   */\n      tag_850\n        /* \"#utility.yul\":36717:36719   */\n      0x1d\n        /* \"#utility.yul\":36712:36715   */\n      dup4\n        /* \"#utility.yul\":36653:36720   */\n      tag_424\n      jump\t// in\n    tag_850:\n        /* \"#utility.yul\":36646:36720   */\n      swap2\n      pop\n        /* \"#utility.yul\":36729:36822   */\n      tag_851\n        /* \"#utility.yul\":36818:36821   */\n      dup3\n        /* \"#utility.yul\":36729:36822   */\n      tag_505\n      jump\t// in\n    tag_851:\n        /* \"#utility.yul\":36847:36849   */\n      0x20\n        /* \"#utility.yul\":36842:36845   */\n      dup3\n        /* \"#utility.yul\":36838:36850   */\n      add\n        /* \"#utility.yul\":36831:36850   */\n      swap1\n      pop\n        /* \"#utility.yul\":36490:36856   */\n      swap2\n      swap1\n      pop\n      jump\t// out\n        /* \"#utility.yul\":36862:37281   */\n    tag_151:\n        /* \"#utility.yul\":37028:37032   */\n      0x00\n        /* \"#utility.yul\":37066:37068   */\n      0x20\n        /* \"#utility.yul\":37055:37064   */\n      dup3\n        /* \"#utility.yul\":37051:37069   */\n      add\n        /* \"#utility.yul\":37043:37069   */\n      swap1\n      pop\n        /* \"#utility.yul\":37115:37124   */\n      dup2\n        /* \"#utility.yul\":37109:37113   */\n      dup2\n        /* \"#utility.yul\":37105:37125   */\n      sub\n        /* \"#utility.yul\":37101:37102   */\n      0x00\n        /* \"#utility.yul\":37090:37099   */\n      dup4\n        /* \"#utility.yul\":37086:37103   */\n      add\n        /* \"#utility.yul\":37079:37126   */\n      mstore\n        /* \"#utility.yul\":37143:37274   */\n      tag_853\n        /* \"#utility.yul\":37269:37273   */\n      dup2\n        /* \"#utility.yul\":37143:37274   */\n      tag_506\n      jump\t// in\n    tag_853:\n        /* \"#utility.yul\":37135:37274   */\n      swap1\n      pop\n        /* \"#utility.yul\":36862:37281   */\n      swap2\n      swap1\n      pop\n      jump\t// out\n        /* \"#utility.yul\":37287:37478   */\n    tag_155:\n        /* \"#utility.yul\":37327:37330   */\n      0x00\n        /* \"#utility.yul\":37346:37366   */\n      tag_855\n        /* \"#utility.yul\":37364:37365   */\n      dup3\n        /* \"#utility.yul\":37346:37366   */\n      tag_420\n      jump\t// in\n    tag_855:\n        /* \"#utility.yul\":37341:37366   */\n      swap2\n      pop\n        /* \"#utility.yul\":37380:37400   */\n      tag_856\n        /* \"#utility.yul\":37398:37399   */\n      dup4\n        /* \"#utility.yul\":37380:37400   */\n      tag_420\n      jump\t// in\n    tag_856:\n        /* \"#utility.yul\":37375:37400   */\n      swap3\n      pop\n        /* \"#utility.yul\":37423:37424   */\n      dup3\n        /* \"#utility.yul\":37420:37421   */\n      dup3\n        /* \"#utility.yul\":37416:37425   */\n      add\n        /* \"#utility.yul\":37409:37425   */\n      swap1\n      pop\n        /* \"#utility.yul\":37444:37447   */\n      dup1\n        /* \"#utility.yul\":37441:37442   */\n      dup3\n        /* \"#utility.yul\":37438:37448   */\n      gt\n        /* \"#utility.yul\":37435:37471   */\n      iszero\n      tag_857\n      jumpi\n        /* \"#utility.yul\":37451:37469   */\n      tag_858\n      tag_490\n      jump\t// in\n    tag_858:\n        /* \"#utility.yul\":37435:37471   */\n    tag_857:\n        /* \"#utility.yul\":37287:37478   */\n      swap3\n      swap2\n      pop\n      pop\n      jump\t// out\n        /* \"#utility.yul\":37484:37631   */\n    tag_507:\n        /* \"#utility.yul\":37585:37596   */\n      0x00\n        /* \"#utility.yul\":37622:37625   */\n      dup2\n        /* \"#utility.yul\":37607:37625   */\n      swap1\n      pop\n        /* \"#utility.yul\":37484:37631   */\n      swap3\n      swap2\n      pop\n      pop\n      jump\t// out\n        /* \"#utility.yul\":37637:37751   */\n    tag_508:\n      pop\n      jump\t// out\n        /* \"#utility.yul\":37757:38155   */\n    tag_509:\n        /* \"#utility.yul\":37916:37919   */\n      0x00\n        /* \"#utility.yul\":37937:38020   */\n      tag_862\n        /* \"#utility.yul\":38018:38019   */\n      0x00\n        /* \"#utility.yul\":38013:38016   */\n      dup4\n        /* \"#utility.yul\":37937:38020   */\n      tag_507\n      jump\t// in\n    tag_862:\n        /* \"#utility.yul\":37930:38020   */\n      swap2\n      pop\n        /* \"#utility.yul\":38029:38122   */\n      tag_863\n        /* \"#utility.yul\":38118:38121   */\n      dup3\n        /* \"#utility.yul\":38029:38122   */\n      tag_508\n      jump\t// in\n    tag_863:\n        /* \"#utility.yul\":38147:38148   */\n      0x00\n        /* \"#utility.yul\":38142:38145   */\n      dup3\n        /* \"#utility.yul\":38138:38149   */\n      add\n        /* \"#utility.yul\":38131:38149   */\n      swap1\n      pop\n        /* \"#utility.yul\":37757:38155   */\n      swap2\n      swap1\n      pop\n      jump\t// out\n        /* \"#utility.yul\":38161:38540   */\n    tag_165:\n        /* \"#utility.yul\":38345:38348   */\n      0x00\n        /* \"#utility.yul\":38367:38514   */\n      tag_865\n        /* \"#utility.yul\":38510:38513   */\n      dup3\n        /* \"#utility.yul\":38367:38514   */\n      tag_509\n      jump\t// in\n    tag_865:\n        /* \"#utility.yul\":38360:38514   */\n      swap2\n      pop\n        /* \"#utility.yul\":38531:38534   */\n      dup2\n        /* \"#utility.yul\":38524:38534   */\n      swap1\n      pop\n        /* \"#utility.yul\":38161:38540   */\n      swap2\n      swap1\n      pop\n      jump\t// out\n        /* \"#utility.yul\":38546:38720   */\n    tag_510:\n        /* \"#utility.yul\":38686:38712   */\n      0x4661696c656420746f2072657475726e20737572706c75730000000000000000\n        /* \"#utility.yul\":38682:38683   */\n      0x00\n        /* \"#utility.yul\":38674:38680   */\n      dup3\n        /* \"#utility.yul\":38670:38684   */\n      add\n        /* \"#utility.yul\":38663:38713   */\n      mstore\n        /* \"#utility.yul\":38546:38720   */\n      pop\n      jump\t// out\n        /* \"#utility.yul\":38726:39092   */\n    tag_511:\n        /* \"#utility.yul\":38868:38871   */\n      0x00\n        /* \"#utility.yul\":38889:38956   */\n      tag_868\n        /* \"#utility.yul\":38953:38955   */\n      0x18\n        /* \"#utility.yul\":38948:38951   */\n      dup4\n        /* \"#utility.yul\":38889:38956   */\n      tag_424\n      jump\t// in\n    tag_868:\n        /* \"#utility.yul\":38882:38956   */\n      swap2\n      pop\n        /* \"#utility.yul\":38965:39058   */\n      tag_869\n        /* \"#utility.yul\":39054:39057   */\n      dup3\n        /* \"#utility.yul\":38965:39058   */\n      tag_510\n      jump\t// in\n    tag_869:\n        /* \"#utility.yul\":39083:39085   */\n      0x20\n        /* \"#utility.yul\":39078:39081   */\n      dup3\n        /* \"#utility.yul\":39074:39086   */\n      add\n        /* \"#utility.yul\":39067:39086   */\n      swap1\n      pop\n        /* \"#utility.yul\":38726:39092   */\n      swap2\n      swap1\n      pop\n      jump\t// out\n        /* \"#utility.yul\":39098:39517   */\n    tag_171:\n        /* \"#utility.yul\":39264:39268   */\n      0x00\n        /* \"#utility.yul\":39302:39304   */\n      0x20\n        /* \"#utility.yul\":39291:39300   */\n      dup3\n        /* \"#utility.yul\":39287:39305   */\n      add\n        /* \"#utility.yul\":39279:39305   */\n      swap1\n      pop\n        /* \"#utility.yul\":39351:39360   */\n      dup2\n        /* \"#utility.yul\":39345:39349   */\n      dup2\n        /* \"#utility.yul\":39341:39361   */\n      sub\n        /* \"#utility.yul\":39337:39338   */\n      0x00\n        /* \"#utility.yul\":39326:39335   */\n      dup4\n        /* \"#utility.yul\":39322:39339   */\n      add\n        /* \"#utility.yul\":39315:39362   */\n      mstore\n        /* \"#utility.yul\":39379:39510   */\n      tag_871\n        /* \"#utility.yul\":39505:39509   */\n      dup2\n        /* \"#utility.yul\":39379:39510   */\n      tag_511\n      jump\t// in\n    tag_871:\n        /* \"#utility.yul\":39371:39510   */\n      swap1\n      pop\n        /* \"#utility.yul\":39098:39517   */\n      swap2\n      swap1\n      pop\n      jump\t// out\n        /* \"#utility.yul\":39523:39762   */\n    tag_512:\n        /* \"#utility.yul\":39663:39697   */\n      0x4f6e6c792073797374656d206f776e6572206f722070726f6a656374206f776e\n        /* \"#utility.yul\":39659:39660   */\n      0x00\n        /* \"#utility.yul\":39651:39657   */\n      dup3\n        /* \"#utility.yul\":39647:39661   */\n      add\n        /* \"#utility.yul\":39640:39698   */\n      mstore\n        /* \"#utility.yul\":39732:39754   */\n      0x65722063616e2073746f702070726f6a65637473000000000000000000000000\n        /* \"#utility.yul\":39727:39729   */\n      0x20\n        /* \"#utility.yul\":39719:39725   */\n      dup3\n        /* \"#utility.yul\":39715:39730   */\n      add\n        /* \"#utility.yul\":39708:39755   */\n      mstore\n        /* \"#utility.yul\":39523:39762   */\n      pop\n      jump\t// out\n        /* \"#utility.yul\":39768:40134   */\n    tag_513:\n        /* \"#utility.yul\":39910:39913   */\n      0x00\n        /* \"#utility.yul\":39931:39998   */\n      tag_874\n        /* \"#utility.yul\":39995:39997   */\n      0x34\n        /* \"#utility.yul\":39990:39993   */\n      dup4\n        /* \"#utility.yul\":39931:39998   */\n      tag_424\n      jump\t// in\n    tag_874:\n        /* \"#utility.yul\":39924:39998   */\n      swap2\n      pop\n        /* \"#utility.yul\":40007:40100   */\n      tag_875\n        /* \"#utility.yul\":40096:40099   */\n      dup3\n        /* \"#utility.yul\":40007:40100   */\n      tag_512\n      jump\t// in\n    tag_875:\n        /* \"#utility.yul\":40125:40127   */\n      0x40\n        /* \"#utility.yul\":40120:40123   */\n      dup3\n        /* \"#utility.yul\":40116:40128   */\n      add\n        /* \"#utility.yul\":40109:40128   */\n      swap1\n      pop\n        /* \"#utility.yul\":39768:40134   */\n      swap2\n      swap1\n      pop\n      jump\t// out\n        /* \"#utility.yul\":40140:40559   */\n    tag_190:\n        /* \"#utility.yul\":40306:40310   */\n      0x00\n        /* \"#utility.yul\":40344:40346   */\n      0x20\n        /* \"#utility.yul\":40333:40342   */\n      dup3\n        /* \"#utility.yul\":40329:40347   */\n      add\n        /* \"#utility.yul\":40321:40347   */\n      swap1\n      pop\n        /* \"#utility.yul\":40393:40402   */\n      dup2\n        /* \"#utility.yul\":40387:40391   */\n      dup2\n        /* \"#utility.yul\":40383:40403   */\n      sub\n        /* \"#utility.yul\":40379:40380   */\n      0x00\n        /* \"#utility.yul\":40368:40377   */\n      dup4\n        /* \"#utility.yul\":40364:40381   */\n      add\n        /* \"#utility.yul\":40357:40404   */\n      mstore\n        /* \"#utility.yul\":40421:40552   */\n      tag_877\n        /* \"#utility.yul\":40547:40551   */\n      dup2\n        /* \"#utility.yul\":40421:40552   */\n      tag_513\n      jump\t// in\n    tag_877:\n        /* \"#utility.yul\":40413:40552   */\n      swap1\n      pop\n        /* \"#utility.yul\":40140:40559   */\n      swap2\n      swap1\n      pop\n      jump\t// out\n        /* \"#utility.yul\":40565:40797   */\n    tag_514:\n        /* \"#utility.yul\":40705:40739   */\n      0x43616e6e6f7420616464206e6577206d696c6573746f6e657320746f20696e61\n        /* \"#utility.yul\":40701:40702   */\n      0x00\n        /* \"#utility.yul\":40693:40699   */\n      dup3\n        /* \"#utility.yul\":40689:40703   */\n      add\n        /* \"#utility.yul\":40682:40740   */\n      mstore\n        /* \"#utility.yul\":40774:40789   */\n      0x63746976652070726f6a65637400000000000000000000000000000000000000\n        /* \"#utility.yul\":40769:40771   */\n      0x20\n        /* \"#utility.yul\":40761:40767   */\n      dup3\n        /* \"#utility.yul\":40757:40772   */\n      add\n        /* \"#utility.yul\":40750:40790   */\n      mstore\n        /* \"#utility.yul\":40565:40797   */\n      pop\n      jump\t// out\n        /* \"#utility.yul\":40803:41169   */\n    tag_515:\n        /* \"#utility.yul\":40945:40948   */\n      0x00\n        /* \"#utility.yul\":40966:41033   */\n      tag_880\n        /* \"#utility.yul\":41030:41032   */\n      0x2d\n        /* \"#utility.yul\":41025:41028   */\n      dup4\n        /* \"#utility.yul\":40966:41033   */\n      tag_424\n      jump\t// in\n    tag_880:\n        /* \"#utility.yul\":40959:41033   */\n      swap2\n      pop\n        /* \"#utility.yul\":41042:41135   */\n      tag_881\n        /* \"#utility.yul\":41131:41134   */\n      dup3\n        /* \"#utility.yul\":41042:41135   */\n      tag_514\n      jump\t// in\n    tag_881:\n        /* \"#utility.yul\":41160:41162   */\n      0x40\n        /* \"#utility.yul\":41155:41158   */\n      dup3\n        /* \"#utility.yul\":41151:41163   */\n      add\n        /* \"#utility.yul\":41144:41163   */\n      swap1\n      pop\n        /* \"#utility.yul\":40803:41169   */\n      swap2\n      swap1\n      pop\n      jump\t// out\n        /* \"#utility.yul\":41175:41594   */\n    tag_201:\n        /* \"#utility.yul\":41341:41345   */\n      0x00\n        /* \"#utility.yul\":41379:41381   */\n      0x20\n        /* \"#utility.yul\":41368:41377   */\n      dup3\n        /* \"#utility.yul\":41364:41382   */\n      add\n        /* \"#utility.yul\":41356:41382   */\n      swap1\n      pop\n        /* \"#utility.yul\":41428:41437   */\n      dup2\n        /* \"#utility.yul\":41422:41426   */\n      dup2\n        /* \"#utility.yul\":41418:41438   */\n      sub\n        /* \"#utility.yul\":41414:41415   */\n      0x00\n        /* \"#utility.yul\":41403:41412   */\n      dup4\n        /* \"#utility.yul\":41399:41416   */\n      add\n        /* \"#utility.yul\":41392:41439   */\n      mstore\n        /* \"#utility.yul\":41456:41587   */\n      tag_883\n        /* \"#utility.yul\":41582:41586   */\n      dup2\n        /* \"#utility.yul\":41456:41587   */\n      tag_515\n      jump\t// in\n    tag_883:\n        /* \"#utility.yul\":41448:41587   */\n      swap1\n      pop\n        /* \"#utility.yul\":41175:41594   */\n      swap2\n      swap1\n      pop\n      jump\t// out\n        /* \"#utility.yul\":41600:41830   */\n    tag_516:\n        /* \"#utility.yul\":41740:41774   */\n      0x4f6e6c792070726f6a6563742063726561746f722063616e20616464206e6577\n        /* \"#utility.yul\":41736:41737   */\n      0x00\n        /* \"#utility.yul\":41728:41734   */\n      dup3\n        /* \"#utility.yul\":41724:41738   */\n      add\n        /* \"#utility.yul\":41717:41775   */\n      mstore\n        /* \"#utility.yul\":41809:41822   */\n      0x206d696c6573746f6e6573000000000000000000000000000000000000000000\n        /* \"#utility.yul\":41804:41806   */\n      0x20\n        /* \"#utility.yul\":41796:41802   */\n      dup3\n        /* \"#utility.yul\":41792:41807   */\n      add\n        /* \"#utility.yul\":41785:41823   */\n      mstore\n        /* \"#utility.yul\":41600:41830   */\n      pop\n      jump\t// out\n        /* \"#utility.yul\":41836:42202   */\n    tag_517:\n        /* \"#utility.yul\":41978:41981   */\n      0x00\n        /* \"#utility.yul\":41999:42066   */\n      tag_886\n        /* \"#utility.yul\":42063:42065   */\n      0x2b\n        /* \"#utility.yul\":42058:42061   */\n      dup4\n        /* \"#utility.yul\":41999:42066   */\n      tag_424\n      jump\t// in\n    tag_886:\n        /* \"#utility.yul\":41992:42066   */\n      swap2\n      pop\n        /* \"#utility.yul\":42075:42168   */\n      tag_887\n        /* \"#utility.yul\":42164:42167   */\n      dup3\n        /* \"#utility.yul\":42075:42168   */\n      tag_516\n      jump\t// in\n    tag_887:\n        /* \"#utility.yul\":42193:42195   */\n      0x40\n        /* \"#utility.yul\":42188:42191   */\n      dup3\n        /* \"#utility.yul\":42184:42196   */\n      add\n        /* \"#utility.yul\":42177:42196   */\n      swap1\n      pop\n        /* \"#utility.yul\":41836:42202   */\n      swap2\n      swap1\n      pop\n      jump\t// out\n        /* \"#utility.yul\":42208:42627   */\n    tag_204:\n        /* \"#utility.yul\":42374:42378   */\n      0x00\n        /* \"#utility.yul\":42412:42414   */\n      0x20\n        /* \"#utility.yul\":42401:42410   */\n      dup3\n        /* \"#utility.yul\":42397:42415   */\n      add\n        /* \"#utility.yul\":42389:42415   */\n      swap1\n      pop\n        /* \"#utility.yul\":42461:42470   */\n      dup2\n        /* \"#utility.yul\":42455:42459   */\n      dup2\n        /* \"#utility.yul\":42451:42471   */\n      sub\n        /* \"#utility.yul\":42447:42448   */\n      0x00\n        /* \"#utility.yul\":42436:42445   */\n      dup4\n        /* \"#utility.yul\":42432:42449   */\n      add\n        /* \"#utility.yul\":42425:42472   */\n      mstore\n        /* \"#utility.yul\":42489:42620   */\n      tag_889\n        /* \"#utility.yul\":42615:42619   */\n      dup2\n        /* \"#utility.yul\":42489:42620   */\n      tag_517\n      jump\t// in\n    tag_889:\n        /* \"#utility.yul\":42481:42620   */\n      swap1\n      pop\n        /* \"#utility.yul\":42208:42627   */\n      swap2\n      swap1\n      pop\n      jump\t// out\n        /* \"#utility.yul\":42633:42815   */\n    tag_518:\n        /* \"#utility.yul\":42773:42807   */\n      0x4d7573742068617665206174206c65617374206f6e65206d696c6573746f6e65\n        /* \"#utility.yul\":42769:42770   */\n      0x00\n        /* \"#utility.yul\":42761:42767   */\n      dup3\n        /* \"#utility.yul\":42757:42771   */\n      add\n        /* \"#utility.yul\":42750:42808   */\n      mstore\n        /* \"#utility.yul\":42633:42815   */\n      pop\n      jump\t// out\n        /* \"#utility.yul\":42821:43187   */\n    tag_519:\n        /* \"#utility.yul\":42963:42966   */\n      0x00\n        /* \"#utility.yul\":42984:43051   */\n      tag_892\n        /* \"#utility.yul\":43048:43050   */\n      0x20\n        /* \"#utility.yul\":43043:43046   */\n      dup4\n        /* \"#utility.yul\":42984:43051   */\n      tag_424\n      jump\t// in\n    tag_892:\n        /* \"#utility.yul\":42977:43051   */\n      swap2\n      pop\n        /* \"#utility.yul\":43060:43153   */\n      tag_893\n        /* \"#utility.yul\":43149:43152   */\n      dup3\n        /* \"#utility.yul\":43060:43153   */\n      tag_518\n      jump\t// in\n    tag_893:\n        /* \"#utility.yul\":43178:43180   */\n      0x20\n        /* \"#utility.yul\":43173:43176   */\n      dup3\n        /* \"#utility.yul\":43169:43181   */\n      add\n        /* \"#utility.yul\":43162:43181   */\n      swap1\n      pop\n        /* \"#utility.yul\":42821:43187   */\n      swap2\n      swap1\n      pop\n      jump\t// out\n        /* \"#utility.yul\":43193:43612   */\n    tag_207:\n        /* \"#utility.yul\":43359:43363   */\n      0x00\n        /* \"#utility.yul\":43397:43399   */\n      0x20\n        /* \"#utility.yul\":43386:43395   */\n      dup3\n        /* \"#utility.yul\":43382:43400   */\n      add\n        /* \"#utility.yul\":43374:43400   */\n      swap1\n      pop\n        /* \"#utility.yul\":43446:43455   */\n      dup2\n        /* \"#utility.yul\":43440:43444   */\n      dup2\n        /* \"#utility.yul\":43436:43456   */\n      sub\n        /* \"#utility.yul\":43432:43433   */\n      0x00\n        /* \"#utility.yul\":43421:43430   */\n      dup4\n        /* \"#utility.yul\":43417:43434   */\n      add\n        /* \"#utility.yul\":43410:43457   */\n      mstore\n        /* \"#utility.yul\":43474:43605   */\n      tag_895\n        /* \"#utility.yul\":43600:43604   */\n      dup2\n        /* \"#utility.yul\":43474:43605   */\n      tag_519\n      jump\t// in\n    tag_895:\n        /* \"#utility.yul\":43466:43605   */\n      swap1\n      pop\n        /* \"#utility.yul\":43193:43612   */\n      swap2\n      swap1\n      pop\n      jump\t// out\n        /* \"#utility.yul\":43618:43790   */\n    tag_520:\n        /* \"#utility.yul\":43758:43782   */\n      0x476f616c20616d6f756e742063616e2774206265203000000000000000000000\n        /* \"#utility.yul\":43754:43755   */\n      0x00\n        /* \"#utility.yul\":43746:43752   */\n      dup3\n        /* \"#utility.yul\":43742:43756   */\n      add\n        /* \"#utility.yul\":43735:43783   */\n      mstore\n        /* \"#utility.yul\":43618:43790   */\n      pop\n      jump\t// out\n        /* \"#utility.yul\":43796:44162   */\n    tag_521:\n        /* \"#utility.yul\":43938:43941   */\n      0x00\n        /* \"#utility.yul\":43959:44026   */\n      tag_898\n        /* \"#utility.yul\":44023:44025   */\n      0x16\n        /* \"#utility.yul\":44018:44021   */\n      dup4\n        /* \"#utility.yul\":43959:44026   */\n      tag_424\n      jump\t// in\n    tag_898:\n        /* \"#utility.yul\":43952:44026   */\n      swap2\n      pop\n        /* \"#utility.yul\":44035:44128   */\n      tag_899\n        /* \"#utility.yul\":44124:44127   */\n      dup3\n        /* \"#utility.yul\":44035:44128   */\n      tag_520\n      jump\t// in\n    tag_899:\n        /* \"#utility.yul\":44153:44155   */\n      0x20\n        /* \"#utility.yul\":44148:44151   */\n      dup3\n        /* \"#utility.yul\":44144:44156   */\n      add\n        /* \"#utility.yul\":44137:44156   */\n      swap1\n      pop\n        /* \"#utility.yul\":43796:44162   */\n      swap2\n      swap1\n      pop\n      jump\t// out\n        /* \"#utility.yul\":44168:44587   */\n    tag_215:\n        /* \"#utility.yul\":44334:44338   */\n      0x00\n        /* \"#utility.yul\":44372:44374   */\n      0x20\n        /* \"#utility.yul\":44361:44370   */\n      dup3\n        /* \"#utility.yul\":44357:44375   */\n      add\n        /* \"#utility.yul\":44349:44375   */\n      swap1\n      pop\n        /* \"#utility.yul\":44421:44430   */\n      dup2\n        /* \"#utility.yul\":44415:44419   */\n      dup2\n        /* \"#utility.yul\":44411:44431   */\n      sub\n        /* \"#utility.yul\":44407:44408   */\n      0x00\n        /* \"#utility.yul\":44396:44405   */\n      dup4\n        /* \"#utility.yul\":44392:44409   */\n      add\n        /* \"#utility.yul\":44385:44432   */\n      mstore\n        /* \"#utility.yul\":44449:44580   */\n      tag_901\n        /* \"#utility.yul\":44575:44579   */\n      dup2\n        /* \"#utility.yul\":44449:44580   */\n      tag_521\n      jump\t// in\n    tag_901:\n        /* \"#utility.yul\":44441:44580   */\n      swap1\n      pop\n        /* \"#utility.yul\":44168:44587   */\n      swap2\n      swap1\n      pop\n      jump\t// out\n        /* \"#utility.yul\":44593:44772   */\n    tag_522:\n        /* \"#utility.yul\":44733:44764   */\n      0x446561646c696e652063616e277420626520696e207468652070617374000000\n        /* \"#utility.yul\":44729:44730   */\n      0x00\n        /* \"#utility.yul\":44721:44727   */\n      dup3\n        /* \"#utility.yul\":44717:44731   */\n      add\n        /* \"#utility.yul\":44710:44765   */\n      mstore\n        /* \"#utility.yul\":44593:44772   */\n      pop\n      jump\t// out\n        /* \"#utility.yul\":44778:45144   */\n    tag_523:\n        /* \"#utility.yul\":44920:44923   */\n      0x00\n        /* \"#utility.yul\":44941:45008   */\n      tag_904\n        /* \"#utility.yul\":45005:45007   */\n      0x1d\n        /* \"#utility.yul\":45000:45003   */\n      dup4\n        /* \"#utility.yul\":44941:45008   */\n      tag_424\n      jump\t// in\n    tag_904:\n        /* \"#utility.yul\":44934:45008   */\n      swap2\n      pop\n        /* \"#utility.yul\":45017:45110   */\n      tag_905\n        /* \"#utility.yul\":45106:45109   */\n      dup3\n        /* \"#utility.yul\":45017:45110   */\n      tag_522\n      jump\t// in\n    tag_905:\n        /* \"#utility.yul\":45135:45137   */\n      0x20\n        /* \"#utility.yul\":45130:45133   */\n      dup3\n        /* \"#utility.yul\":45126:45138   */\n      add\n        /* \"#utility.yul\":45119:45138   */\n      swap1\n      pop\n        /* \"#utility.yul\":44778:45144   */\n      swap2\n      swap1\n      pop\n      jump\t// out\n        /* \"#utility.yul\":45150:45569   */\n    tag_220:\n        /* \"#utility.yul\":45316:45320   */\n      0x00\n        /* \"#utility.yul\":45354:45356   */\n      0x20\n        /* \"#utility.yul\":45343:45352   */\n      dup3\n        /* \"#utility.yul\":45339:45357   */\n      add\n        /* \"#utility.yul\":45331:45357   */\n      swap1\n      pop\n        /* \"#utility.yul\":45403:45412   */\n      dup2\n        /* \"#utility.yul\":45397:45401   */\n      dup2\n        /* \"#utility.yul\":45393:45413   */\n      sub\n        /* \"#utility.yul\":45389:45390   */\n      0x00\n        /* \"#utility.yul\":45378:45387   */\n      dup4\n        /* \"#utility.yul\":45374:45391   */\n      add\n        /* \"#utility.yul\":45367:45414   */\n      mstore\n        /* \"#utility.yul\":45431:45562   */\n      tag_907\n        /* \"#utility.yul\":45557:45561   */\n      dup2\n        /* \"#utility.yul\":45431:45562   */\n      tag_523\n      jump\t// in\n    tag_907:\n        /* \"#utility.yul\":45423:45562   */\n      swap1\n      pop\n        /* \"#utility.yul\":45150:45569   */\n      swap2\n      swap1\n      pop\n      jump\t// out\n        /* \"#utility.yul\":45575:45798   */\n    tag_524:\n        /* \"#utility.yul\":45715:45749   */\n      0x4d696c6573746f6e6520676f616c732073686f756c6420626520696e63726561\n        /* \"#utility.yul\":45711:45712   */\n      0x00\n        /* \"#utility.yul\":45703:45709   */\n      dup3\n        /* \"#utility.yul\":45699:45713   */\n      add\n        /* \"#utility.yul\":45692:45750   */\n      mstore\n        /* \"#utility.yul\":45784:45790   */\n      0x73696e6700000000000000000000000000000000000000000000000000000000\n        /* \"#utility.yul\":45779:45781   */\n      0x20\n        /* \"#utility.yul\":45771:45777   */\n      dup3\n        /* \"#utility.yul\":45767:45782   */\n      add\n        /* \"#utility.yul\":45760:45791   */\n      mstore\n        /* \"#utility.yul\":45575:45798   */\n      pop\n      jump\t// out\n        /* \"#utility.yul\":45804:46170   */\n    tag_525:\n        /* \"#utility.yul\":45946:45949   */\n      0x00\n        /* \"#utility.yul\":45967:46034   */\n      tag_910\n        /* \"#utility.yul\":46031:46033   */\n      0x24\n        /* \"#utility.yul\":46026:46029   */\n      dup4\n        /* \"#utility.yul\":45967:46034   */\n      tag_424\n      jump\t// in\n    tag_910:\n        /* \"#utility.yul\":45960:46034   */\n      swap2\n      pop\n        /* \"#utility.yul\":46043:46136   */\n      tag_911\n        /* \"#utility.yul\":46132:46135   */\n      dup3\n        /* \"#utility.yul\":46043:46136   */\n      tag_524\n      jump\t// in\n    tag_911:\n        /* \"#utility.yul\":46161:46163   */\n      0x40\n        /* \"#utility.yul\":46156:46159   */\n      dup3\n        /* \"#utility.yul\":46152:46164   */\n      add\n        /* \"#utility.yul\":46145:46164   */\n      swap1\n      pop\n        /* \"#utility.yul\":45804:46170   */\n      swap2\n      swap1\n      pop\n      jump\t// out\n        /* \"#utility.yul\":46176:46595   */\n    tag_229:\n        /* \"#utility.yul\":46342:46346   */\n      0x00\n        /* \"#utility.yul\":46380:46382   */\n      0x20\n        /* \"#utility.yul\":46369:46378   */\n      dup3\n        /* \"#utility.yul\":46365:46383   */\n      add\n        /* \"#utility.yul\":46357:46383   */\n      swap1\n      pop\n        /* \"#utility.yul\":46429:46438   */\n      dup2\n        /* \"#utility.yul\":46423:46427   */\n      dup2\n        /* \"#utility.yul\":46419:46439   */\n      sub\n        /* \"#utility.yul\":46415:46416   */\n      0x00\n        /* \"#utility.yul\":46404:46413   */\n      dup4\n        /* \"#utility.yul\":46400:46417   */\n      add\n        /* \"#utility.yul\":46393:46440   */\n      mstore\n        /* \"#utility.yul\":46457:46588   */\n      tag_913\n        /* \"#utility.yul\":46583:46587   */\n      dup2\n        /* \"#utility.yul\":46457:46588   */\n      tag_525\n      jump\t// in\n    tag_913:\n        /* \"#utility.yul\":46449:46588   */\n      swap1\n      pop\n        /* \"#utility.yul\":46176:46595   */\n      swap2\n      swap1\n      pop\n      jump\t// out\n        /* \"#utility.yul\":46601:46828   */\n    tag_526:\n        /* \"#utility.yul\":46741:46775   */\n      0x4d696c6573746f6e6520646561646c696e65732073686f756c6420626520696e\n        /* \"#utility.yul\":46737:46738   */\n      0x00\n        /* \"#utility.yul\":46729:46735   */\n      dup3\n        /* \"#utility.yul\":46725:46739   */\n      add\n        /* \"#utility.yul\":46718:46776   */\n      mstore\n        /* \"#utility.yul\":46810:46820   */\n      0x6372656173696e67000000000000000000000000000000000000000000000000\n        /* \"#utility.yul\":46805:46807   */\n      0x20\n        /* \"#utility.yul\":46797:46803   */\n      dup3\n        /* \"#utility.yul\":46793:46808   */\n      add\n        /* \"#utility.yul\":46786:46821   */\n      mstore\n        /* \"#utility.yul\":46601:46828   */\n      pop\n      jump\t// out\n        /* \"#utility.yul\":46834:47200   */\n    tag_527:\n        /* \"#utility.yul\":46976:46979   */\n      0x00\n        /* \"#utility.yul\":46997:47064   */\n      tag_916\n        /* \"#utility.yul\":47061:47063   */\n      0x28\n        /* \"#utility.yul\":47056:47059   */\n      dup4\n        /* \"#utility.yul\":46997:47064   */\n      tag_424\n      jump\t// in\n    tag_916:\n        /* \"#utility.yul\":46990:47064   */\n      swap2\n      pop\n        /* \"#utility.yul\":47073:47166   */\n      tag_917\n        /* \"#utility.yul\":47162:47165   */\n      dup3\n        /* \"#utility.yul\":47073:47166   */\n      tag_526\n      jump\t// in\n    tag_917:\n        /* \"#utility.yul\":47191:47193   */\n      0x40\n        /* \"#utility.yul\":47186:47189   */\n      dup3\n        /* \"#utility.yul\":47182:47194   */\n      add\n        /* \"#utility.yul\":47175:47194   */\n      swap1\n      pop\n        /* \"#utility.yul\":46834:47200   */\n      swap2\n      swap1\n      pop\n      jump\t// out\n        /* \"#utility.yul\":47206:47625   */\n    tag_237:\n        /* \"#utility.yul\":47372:47376   */\n      0x00\n        /* \"#utility.yul\":47410:47412   */\n      0x20\n        /* \"#utility.yul\":47399:47408   */\n      dup3\n        /* \"#utility.yul\":47395:47413   */\n      add\n        /* \"#utility.yul\":47387:47413   */\n      swap1\n      pop\n        /* \"#utility.yul\":47459:47468   */\n      dup2\n        /* \"#utility.yul\":47453:47457   */\n      dup2\n        /* \"#utility.yul\":47449:47469   */\n      sub\n        /* \"#utility.yul\":47445:47446   */\n      0x00\n        /* \"#utility.yul\":47434:47443   */\n      dup4\n        /* \"#utility.yul\":47430:47447   */\n      add\n        /* \"#utility.yul\":47423:47470   */\n      mstore\n        /* \"#utility.yul\":47487:47618   */\n      tag_919\n        /* \"#utility.yul\":47613:47617   */\n      dup2\n        /* \"#utility.yul\":47487:47618   */\n      tag_527\n      jump\t// in\n    tag_919:\n        /* \"#utility.yul\":47479:47618   */\n      swap1\n      pop\n        /* \"#utility.yul\":47206:47625   */\n      swap2\n      swap1\n      pop\n      jump\t// out\n        /* \"#utility.yul\":47631:47864   */\n    tag_300:\n        /* \"#utility.yul\":47670:47673   */\n      0x00\n        /* \"#utility.yul\":47693:47717   */\n      tag_921\n        /* \"#utility.yul\":47711:47716   */\n      dup3\n        /* \"#utility.yul\":47693:47717   */\n      tag_420\n      jump\t// in\n    tag_921:\n        /* \"#utility.yul\":47684:47717   */\n      swap2\n      pop\n        /* \"#utility.yul\":47739:47805   */\n      0xffffffffffffffffffffffffffffffffffffffffffffffffffffffffffffffff\n        /* \"#utility.yul\":47732:47737   */\n      dup3\n        /* \"#utility.yul\":47729:47806   */\n      sub\n        /* \"#utility.yul\":47726:47829   */\n      tag_922\n      jumpi\n        /* \"#utility.yul\":47809:47827   */\n      tag_923\n      tag_490\n      jump\t// in\n    tag_923:\n        /* \"#utility.yul\":47726:47829   */\n    tag_922:\n        /* \"#utility.yul\":47856:47857   */\n      0x01\n        /* \"#utility.yul\":47849:47854   */\n      dup3\n        /* \"#utility.yul\":47845:47858   */\n      add\n        /* \"#utility.yul\":47838:47858   */\n      swap1\n      pop\n        /* \"#utility.yul\":47631:47864   */\n      swap2\n      swap1\n      pop\n      jump\t// out\n        /* \"#utility.yul\":47870:48048   */\n    tag_528:\n        /* \"#utility.yul\":48010:48040   */\n      0x43616e6e6f742073746f7020696e6163746976652070726f6a65637400000000\n        /* \"#utility.yul\":48006:48007   */\n      0x00\n        /* \"#utility.yul\":47998:48004   */\n      dup3\n        /* \"#utility.yul\":47994:48008   */\n      add\n        /* \"#utility.yul\":47987:48041   */\n      mstore\n        /* \"#utility.yul\":47870:48048   */\n      pop\n      jump\t// out\n        /* \"#utility.yul\":48054:48420   */\n    tag_529:\n        /* \"#utility.yul\":48196:48199   */\n      0x00\n        /* \"#utility.yul\":48217:48284   */\n      tag_926\n        /* \"#utility.yul\":48281:48283   */\n      0x1c\n        /* \"#utility.yul\":48276:48279   */\n      dup4\n        /* \"#utility.yul\":48217:48284   */\n      tag_424\n      jump\t// in\n    tag_926:\n        /* \"#utility.yul\":48210:48284   */\n      swap2\n      pop\n        /* \"#utility.yul\":48293:48386   */\n      tag_927\n        /* \"#utility.yul\":48382:48385   */\n      dup3\n        /* \"#utility.yul\":48293:48386   */\n      tag_528\n      jump\t// in\n    tag_927:\n        /* \"#utility.yul\":48411:48413   */\n      0x20\n        /* \"#utility.yul\":48406:48409   */\n      dup3\n        /* \"#utility.yul\":48402:48414   */\n      add\n        /* \"#utility.yul\":48395:48414   */\n      swap1\n      pop\n        /* \"#utility.yul\":48054:48420   */\n      swap2\n      swap1\n      pop\n      jump\t// out\n        /* \"#utility.yul\":48426:48845   */\n    tag_382:\n        /* \"#utility.yul\":48592:48596   */\n      0x00\n        /* \"#utility.yul\":48630:48632   */\n      0x20\n        /* \"#utility.yul\":48619:48628   */\n      dup3\n        /* \"#utility.yul\":48615:48633   */\n      add\n        /* \"#utility.yul\":48607:48633   */\n      swap1\n      pop\n        /* \"#utility.yul\":48679:48688   */\n      dup2\n        /* \"#utility.yul\":48673:48677   */\n      dup2\n        /* \"#utility.yul\":48669:48689   */\n      sub\n        /* \"#utility.yul\":48665:48666   */\n      0x00\n        /* \"#utility.yul\":48654:48663   */\n      dup4\n        /* \"#utility.yul\":48650:48667   */\n      add\n        /* \"#utility.yul\":48643:48690   */\n      mstore\n        /* \"#utility.yul\":48707:48838   */\n      tag_929\n        /* \"#utility.yul\":48833:48837   */\n      dup2\n        /* \"#utility.yul\":48707:48838   */\n      tag_529\n      jump\t// in\n    tag_929:\n        /* \"#utility.yul\":48699:48838   */\n      swap1\n      pop\n        /* \"#utility.yul\":48426:48845   */\n      swap2\n      swap1\n      pop\n      jump\t// out\n        /* \"#utility.yul\":48851:49027   */\n    tag_530:\n        /* \"#utility.yul\":48991:49019   */\n      0x5472616e7366657220746f2063726561746f72206661696c6564000000000000\n        /* \"#utility.yul\":48987:48988   */\n      0x00\n        /* \"#utility.yul\":48979:48985   */\n      dup3\n        /* \"#utility.yul\":48975:48989   */\n      add\n        /* \"#utility.yul\":48968:49020   */\n      mstore\n        /* \"#utility.yul\":48851:49027   */\n      pop\n      jump\t// out\n        /* \"#utility.yul\":49033:49399   */\n    tag_531:\n        /* \"#utility.yul\":49175:49178   */\n      0x00\n        /* \"#utility.yul\":49196:49263   */\n      tag_932\n        /* \"#utility.yul\":49260:49262   */\n      0x1a\n        /* \"#utility.yul\":49255:49258   */\n      dup4\n        /* \"#utility.yul\":49196:49263   */\n      tag_424\n      jump\t// in\n    tag_932:\n        /* \"#utility.yul\":49189:49263   */\n      swap2\n      pop\n        /* \"#utility.yul\":49272:49365   */\n      tag_933\n        /* \"#utility.yul\":49361:49364   */\n      dup3\n        /* \"#utility.yul\":49272:49365   */\n      tag_530\n      jump\t// in\n    tag_933:\n        /* \"#utility.yul\":49390:49392   */\n      0x20\n        /* \"#utility.yul\":49385:49388   */\n      dup3\n        /* \"#utility.yul\":49381:49393   */\n      add\n        /* \"#utility.yul\":49374:49393   */\n      swap1\n      pop\n        /* \"#utility.yul\":49033:49399   */\n      swap2\n      swap1\n      pop\n      jump\t// out\n        /* \"#utility.yul\":49405:49824   */\n    tag_392:\n        /* \"#utility.yul\":49571:49575   */\n      0x00\n        /* \"#utility.yul\":49609:49611   */\n      0x20\n        /* \"#utility.yul\":49598:49607   */\n      dup3\n        /* \"#utility.yul\":49594:49612   */\n      add\n        /* \"#utility.yul\":49586:49612   */\n      swap1\n      pop\n        /* \"#utility.yul\":49658:49667   */\n      dup2\n        /* \"#utility.yul\":49652:49656   */\n      dup2\n        /* \"#utility.yul\":49648:49668   */\n      sub\n        /* \"#utility.yul\":49644:49645   */\n      0x00\n        /* \"#utility.yul\":49633:49642   */\n      dup4\n        /* \"#utility.yul\":49629:49646   */\n      add\n        /* \"#utility.yul\":49622:49669   */\n      mstore\n        /* \"#utility.yul\":49686:49817   */\n      tag_935\n        /* \"#utility.yul\":49812:49816   */\n      dup2\n        /* \"#utility.yul\":49686:49817   */\n      tag_531\n      jump\t// in\n    tag_935:\n        /* \"#utility.yul\":49678:49817   */\n      swap1\n      pop\n        /* \"#utility.yul\":49405:49824   */\n      swap2\n      swap1\n      pop\n      jump\t// out\n        /* \"#utility.yul\":49830:49993   */\n    tag_532:\n        /* \"#utility.yul\":49970:49985   */\n      0x526566756e64206661696c656400000000000000000000000000000000000000\n        /* \"#utility.yul\":49966:49967   */\n      0x00\n        /* \"#utility.yul\":49958:49964   */\n      dup3\n        /* \"#utility.yul\":49954:49968   */\n      add\n        /* \"#utility.yul\":49947:49986   */\n      mstore\n        /* \"#utility.yul\":49830:49993   */\n      pop\n      jump\t// out\n        /* \"#utility.yul\":49999:50365   */\n    tag_533:\n        /* \"#utility.yul\":50141:50144   */\n      0x00\n        /* \"#utility.yul\":50162:50229   */\n      tag_938\n        /* \"#utility.yul\":50226:50228   */\n      0x0d\n        /* \"#utility.yul\":50221:50224   */\n      dup4\n        /* \"#utility.yul\":50162:50229   */\n      tag_424\n      jump\t// in\n    tag_938:\n        /* \"#utility.yul\":50155:50229   */\n      swap2\n      pop\n        /* \"#utility.yul\":50238:50331   */\n      tag_939\n        /* \"#utility.yul\":50327:50330   */\n      dup3\n        /* \"#utility.yul\":50238:50331   */\n      tag_532\n      jump\t// in\n    tag_939:\n        /* \"#utility.yul\":50356:50358   */\n      0x20\n        /* \"#utility.yul\":50351:50354   */\n      dup3\n        /* \"#utility.yul\":50347:50359   */\n      add\n        /* \"#utility.yul\":50340:50359   */\n      swap1\n      pop\n        /* \"#utility.yul\":49999:50365   */\n      swap2\n      swap1\n      pop\n      jump\t// out\n        /* \"#utility.yul\":50371:50790   */\n    tag_413:\n        /* \"#utility.yul\":50537:50541   */\n      0x00\n        /* \"#utility.yul\":50575:50577   */\n      0x20\n        /* \"#utility.yul\":50564:50573   */\n      dup3\n        /* \"#utility.yul\":50560:50578   */\n      add\n        /* \"#utility.yul\":50552:50578   */\n      swap1\n      pop\n        /* \"#utility.yul\":50624:50633   */\n      dup2\n        /* \"#utility.yul\":50618:50622   */\n      dup2\n        /* \"#utility.yul\":50614:50634   */\n      sub\n        /* \"#utility.yul\":50610:50611   */\n      0x00\n        /* \"#utility.yul\":50599:50608   */\n      dup4\n        /* \"#utility.yul\":50595:50612   */\n      add\n        /* \"#utility.yul\":50588:50635   */\n      mstore\n        /* \"#utility.yul\":50652:50783   */\n      tag_941\n        /* \"#utility.yul\":50778:50782   */\n      dup2\n        /* \"#utility.yul\":50652:50783   */\n      tag_533\n      jump\t// in\n    tag_941:\n        /* \"#utility.yul\":50644:50783   */\n      swap1\n      pop\n        /* \"#utility.yul\":50371:50790   */\n      swap2\n      swap1\n      pop\n      jump\t// out\n\n    auxdata: 0xa2646970667358221220e6f2b566ca43eac9b2bf8aa7c7d8936b9453f13703e44f225bbc3ed700c44a6d64736f6c634300081e0033\n}\n",
				"bytecode": {
					"linkReferences": {},
					"object": "6080604052348015600e575f5ffd5b50335f5f6101000a81548173ffffffffffffffffffffffffffffffffffffffff021916908373ffffffffffffffffffffffffffffffffffffffff16021790555061386a8061005b5f395ff3fe60806040526004361061009b575f3560e01c80636c563abe116100635780636c563abe146101975780636db7a960146101b3578063ae632181146101db578063b99122af14610203578063d8a5b36d1461023f578063f2ef441b1461027b5761009b565b80630e4877d61461009f578063107046bd146100c95780631a86e67d1461010b57806333ec0fc5146101335780634e94e8241461016f575b5f5ffd5b3480156100aa575f5ffd5b506100b36102a5565b6040516100c09190612126565b60405180910390f35b3480156100d4575f5ffd5b506100ef60048036038101906100ea9190612183565b6102c9565b6040516101029796959493929190612247565b60405180910390f35b348015610116575f5ffd5b50610131600480360381019061012c919061250a565b6104d3565b005b34801561013e575f5ffd5b5061015960048036038101906101549190612183565b610683565b6040516101669190612695565b60405180910390f35b34801561017a575f5ffd5b5061019560048036038101906101909190612183565b610760565b005b6101b160048036038101906101ac9190612183565b6108e9565b005b3480156101be575f5ffd5b506101d960048036038101906101d49190612183565b610ed1565b005b3480156101e6575f5ffd5b5061020160048036038101906101fc91906126b5565b610fe2565b005b34801561020e575f5ffd5b5061022960048036038101906102249190612183565b611544565b604051610236919061274b565b60405180910390f35b34801561024a575f5ffd5b5061026560048036038101906102609190612183565b611604565b6040516102729190612839565b60405180910390f35b348015610286575f5ffd5b5061028f61175a565b60405161029c9190612a12565b60405180910390f35b5f5f9054906101000a900473ffffffffffffffffffffffffffffffffffffffff1681565b600181815481106102d8575f80fd5b905f5260205f2090600802015f91509050805f015f9054906101000a900473ffffffffffffffffffffffffffffffffffffffff169080600101805461031c90612a5f565b80601f016020809104026020016040519081016040528092919081815260200182805461034890612a5f565b80156103935780601f1061036a57610100808354040283529160200191610393565b820191905f5260205f20905b81548152906001019060200180831161037657829003601f168201915b5050505050908060020180546103a890612a5f565b80601f01602080910402602001604051908101604052809291908181526020018280546103d490612a5f565b801561041f5780601f106103f65761010080835404028352916020019161041f565b820191905f5260205f20905b81548152906001019060200180831161040257829003601f168201915b50505050509080600301805461043490612a5f565b80601f016020809104026020016040519081016040528092919081815260200182805461046090612a5f565b80156104ab5780601f10610482576101008083540402835291602001916104ab565b820191905f5260205f20905b81548152906001019060200180831161048e57829003601f168201915b505050505090806004015490806005015490806007015f9054906101000a900460ff16905087565b5f5f9054906101000a900473ffffffffffffffffffffffffffffffffffffffff1673ffffffffffffffffffffffffffffffffffffffff163373ffffffffffffffffffffffffffffffffffffffff1603610561576040517f08c379a000000000000000000000000000000000000000000000000000000000815260040161055890612aff565b60405180910390fd5b5f6001808160018154018082558091505003905f5260205f209060080201905033815f015f6101000a81548173ffffffffffffffffffffffffffffffffffffffff021916908373ffffffffffffffffffffffffffffffffffffffff160217905550848160010190816105d39190612cbd565b50838160020190816105e59190612cbd565b50828160030190816105f79190612cbd565b505f81600401819055505f81600501819055506001816007015f6101000a81548160ff0219169083151502179055506106406001808054905061063a9190612db9565b83610fe2565b7f1ac2092e16e28eef29d1832f3dc69da1b21284a1f3159d3b26cb238b22fe4f8a6001805490506040516106749190612dec565b60405180910390a15050505050565b60605f6001838154811061069a57610699612e05565b5b905f5260205f20906008020190505f816006018260050154815481106106c3576106c2612e05565b5b905f5260205f20906006020190508060030180548060200260200160405190810160405280929190818152602001828054801561075257602002820191905f5260205f20905b815f9054906101000a900473ffffffffffffffffffffffffffffffffffffffff1673ffffffffffffffffffffffffffffffffffffffff1681526020019060010190808311610709575b505050505092505050919050565b60018054905081106107a7576040517f08c379a000000000000000000000000000000000000000000000000000000000815260040161079e90612e7c565b60405180910390fd5b5f600182815481106107bc576107bb612e05565b5b905f5260205f2090600802019050806007015f9054906101000a900460ff1661081a576040517f08c379a000000000000000000000000000000000000000000000000000000000815260040161081190612ee4565b60405180910390fd5b5f8160060182600501548154811061083557610834612e05565b5b905f5260205f2090600602019050806005015f9054906101000a900460ff1615610894576040517f08c379a000000000000000000000000000000000000000000000000000000000815260040161088b90612f4c565b60405180910390fd5b7f3f9ee693372748925082c0c5ba09ecffc5fddfeecf993becff877eac8a1e08bc815f0160010154825f015f0154846004015484600201546040516108dc9493929190612f6a565b60405180910390a1505050565b6001805490508110610930576040517f08c379a000000000000000000000000000000000000000000000000000000000815260040161092790612ff7565b60405180910390fd5b3373ffffffffffffffffffffffffffffffffffffffff163134111561098a576040517f08c379a000000000000000000000000000000000000000000000000000000000815260040161098190613085565b60405180910390fd5b5f34116109cc576040517f08c379a00000000000000000000000000000000000000000000000000000000081526004016109c3906130ed565b60405180910390fd5b5f600182815481106109e1576109e0612e05565b5b905f5260205f2090600802019050806007015f9054906101000a900460ff16610a3f576040517f08c379a0000000000000000000000000000000000000000000000000000000008152600401610a3690613155565b60405180910390fd5b5f81600601826005015481548110610a5a57610a59612e05565b5b905f5260205f209060060201905042815f016001015411610ab0576040517f08c379a0000000000000000000000000000000000000000000000000000000008152600401610aa7906131bd565b60405180910390fd5b5f816004015f3373ffffffffffffffffffffffffffffffffffffffff1673ffffffffffffffffffffffffffffffffffffffff1681526020019081526020015f205403610b59578060030133908060018154018082558091505060019003905f5260205f20015f9091909190916101000a81548173ffffffffffffffffffffffffffffffffffffffff021916908373ffffffffffffffffffffffffffffffffffffffff1602179055505b34816004015f3373ffffffffffffffffffffffffffffffffffffffff1673ffffffffffffffffffffffffffffffffffffffff1681526020019081526020015f205f828254610ba791906131db565b9250508190555034816002015f828254610bc191906131db565b9250508190555034826004015f828254610bdb91906131db565b925050819055505b805f015f015482600401541115610e87575f815f015f01548360040154610c0a9190612db9565b9050815f015f01548260020181905550815f015f0154836004018190555080826004015f3373ffffffffffffffffffffffffffffffffffffffff1673ffffffffffffffffffffffffffffffffffffffff1681526020019081526020015f205f828254610c769190612db9565b9250508190555060018360060180549050610c919190612db9565b836005015403610d64575f836007015f6101000a81548160ff0219169083151502179055505f3373ffffffffffffffffffffffffffffffffffffffff1682604051610cdb9061323b565b5f6040518083038185875af1925050503d805f8114610d15576040519150601f19603f3d011682016040523d82523d5f602084013e610d1a565b606091505b5050905080610d5e576040517f08c379a0000000000000000000000000000000000000000000000000000000008152600401610d5590613299565b60405180910390fd5b50610e81565b610d6d84611bdb565b82600601836005015481548110610d8757610d86612e05565b5b905f5260205f20906006020191508160030133908060018154018082558091505060019003905f5260205f20015f9091909190916101000a81548173ffffffffffffffffffffffffffffffffffffffff021916908373ffffffffffffffffffffffffffffffffffffffff16021790555080826004015f3373ffffffffffffffffffffffffffffffffffffffff1673ffffffffffffffffffffffffffffffffffffffff1681526020019081526020015f205f828254610e4591906131db565b9250508190555080826002015f828254610e5f91906131db565b9250508190555080836004015f828254610e7991906131db565b925050819055505b50610be3565b7f17e2effa169c5dde193942abd21f6d49e7d32c15ab843da440cb2abdd10f1911833484600401548460020154604051610ec49493929190612f6a565b60405180910390a1505050565b5f5f9054906101000a900473ffffffffffffffffffffffffffffffffffffffff1673ffffffffffffffffffffffffffffffffffffffff163373ffffffffffffffffffffffffffffffffffffffff161480610f97575060018181548110610f3a57610f39612e05565b5b905f5260205f2090600802015f015f9054906101000a900473ffffffffffffffffffffffffffffffffffffffff1673ffffffffffffffffffffffffffffffffffffffff163373ffffffffffffffffffffffffffffffffffffffff16145b610fd6576040517f08c379a0000000000000000000000000000000000000000000000000000000008152600401610fcd90613327565b60405180910390fd5b610fdf81611d45565b50565b6001805490508210611029576040517f08c379a000000000000000000000000000000000000000000000000000000000815260040161102090612e7c565b60405180910390fd5b5f6001838154811061103e5761103d612e05565b5b905f5260205f2090600802019050806007015f9054906101000a900460ff1661109c576040517f08c379a0000000000000000000000000000000000000000000000000000000008152600401611093906133b5565b60405180910390fd5b3373ffffffffffffffffffffffffffffffffffffffff16815f015f9054906101000a900473ffffffffffffffffffffffffffffffffffffffff1673ffffffffffffffffffffffffffffffffffffffff161461112c576040517f08c379a000000000000000000000000000000000000000000000000000000000815260040161112390613443565b60405180910390fd5b5f82511161116f576040517f08c379a0000000000000000000000000000000000000000000000000000000008152600401611166906134ab565b60405180910390fd5b5f5f90505b825181101561153e575f83828151811061119157611190612e05565b5b60200260200101515f0151116111dc576040517f08c379a00000000000000000000000000000000000000000000000000000000081526004016111d390613513565b60405180910390fd5b428382815181106111f0576111ef612e05565b5b6020026020010151602001511161123c576040517f08c379a00000000000000000000000000000000000000000000000000000000081526004016112339061357b565b60405180910390fd5b5f81111561135757826001826112529190612db9565b8151811061126357611262612e05565b5b60200260200101515f015183828151811061128157611280612e05565b5b60200260200101515f0151116112cc576040517f08c379a00000000000000000000000000000000000000000000000000000000081526004016112c390613609565b60405180910390fd5b826001826112da9190612db9565b815181106112eb576112ea612e05565b5b60200260200101516020015183828151811061130a57611309612e05565b5b60200260200101516020015111611356576040517f08c379a000000000000000000000000000000000000000000000000000000000815260040161134d90613697565b60405180910390fd5b5b5f8260060180549050111561149957816006016001836006018054905061137e9190612db9565b8154811061138f5761138e612e05565b5b905f5260205f2090600602015f015f01548382815181106113b3576113b2612e05565b5b60200260200101515f0151116113fe576040517f08c379a00000000000000000000000000000000000000000000000000000000081526004016113f590613609565b60405180910390fd5b81600601600183600601805490506114169190612db9565b8154811061142757611426612e05565b5b905f5260205f2090600602015f016001015483828151811061144c5761144b612e05565b5b60200260200101516020015111611498576040517f08c379a000000000000000000000000000000000000000000000000000000000815260040161148f90613697565b60405180910390fd5b5b5f8260060160018160018154018082558091505003905f5260205f20906006020190508382815181106114cf576114ce612e05565b5b60200260200101515f0151815f015f01819055508382815181106114f6576114f5612e05565b5b602002602001015160200151815f01600101819055505f81600201819055505f816005015f6101000a81548160ff021916908315150217905550508080600101915050611174565b50505050565b61154c61207e565b6001805490508210611593576040517f08c379a000000000000000000000000000000000000000000000000000000000815260040161158a90612e7c565b60405180910390fd5b5f600183815481106115a8576115a7612e05565b5b905f5260205f2090600802019050806006018160050154815481106115d0576115cf612e05565b5b905f5260205f2090600602015f016040518060400160405290815f8201548152602001600182015481525050915050919050565b6060600180549050821061164d576040517f08c379a000000000000000000000000000000000000000000000000000000000815260040161164490612e7c565b60405180910390fd5b5f6001838154811061166257611661612e05565b5b905f5260205f20906008020190505f816006018054905067ffffffffffffffff811115611692576116916122d1565b5b6040519080825280602002602001820160405280156116cb57816020015b6116b861207e565b8152602001906001900390816116b05790505b5090505f5f90505b826006018054905081101561174f578260060181815481106116f8576116f7612e05565b5b905f5260205f2090600602015f016040518060400160405290815f820154815260200160018201548152505082828151811061173757611736612e05565b5b602002602001018190525080806001019150506116d3565b508092505050919050565b60605f5f90505f5f90505b6001805490508110156117c3576001818154811061178657611785612e05565b5b905f5260205f2090600802016007015f9054906101000a900460ff16156117b65781806117b2906136b5565b9250505b8080600101915050611765565b505f8167ffffffffffffffff8111156117df576117de6122d1565b5b60405190808252806020026020018201604052801561181857816020015b611805612096565b8152602001906001900390816117fd5790505b5090505f5f90505f5f90505b600180549050811015611bd1576001818154811061184557611844612e05565b5b905f5260205f2090600802016007015f9054906101000a900460ff1615611bc45761186e612096565b6001828154811061188257611881612e05565b5b905f5260205f2090600802015f015f9054906101000a900473ffffffffffffffffffffffffffffffffffffffff16815f019073ffffffffffffffffffffffffffffffffffffffff16908173ffffffffffffffffffffffffffffffffffffffff1681525050600182815481106118fa576118f9612e05565b5b905f5260205f209060080201600101805461191490612a5f565b80601f016020809104026020016040519081016040528092919081815260200182805461194090612a5f565b801561198b5780601f106119625761010080835404028352916020019161198b565b820191905f5260205f20905b81548152906001019060200180831161196e57829003601f168201915b50505050508160200181905250600182815481106119ac576119ab612e05565b5b905f5260205f20906008020160020180546119c690612a5f565b80601f01602080910402602001604051908101604052809291908181526020018280546119f290612a5f565b8015611a3d5780601f10611a1457610100808354040283529160200191611a3d565b820191905f5260205f20905b815481529060010190602001808311611a2057829003601f168201915b5050505050816040018190525060018281548110611a5e57611a5d612e05565b5b905f5260205f2090600802016003018054611a7890612a5f565b80601f0160208091040260200160405190810160405280929190818152602001828054611aa490612a5f565b8015611aef5780601f10611ac657610100808354040283529160200191611aef565b820191905f5260205f20905b815481529060010190602001808311611ad257829003601f168201915b5050505050816060018190525060018281548110611b1057611b0f612e05565b5b905f5260205f2090600802016004015481608001818152505060018281548110611b3d57611b3c612e05565b5b905f5260205f209060080201600501548160a001818152505060018281548110611b6a57611b69612e05565b5b905f5260205f2090600802016007015f9054906101000a900460ff168160c001901515908115158152505080848481518110611ba957611ba8612e05565b5b60200260200101819052508280611bbf906136b5565b935050505b8080600101915050611824565b5081935050505090565b5f60018281548110611bf057611bef612e05565b5b905f5260205f20906008020190505f81600601826005015481548110611c1957611c18612e05565b5b905f5260205f20906006020190505f816002015490505f83600501541115611c7f578260060160018460050154611c509190612db9565b81548110611c6157611c60612e05565b5b905f5260205f2090600602016002015481611c7c9190612db9565b90505b815f015f0154836004015410611d35576001826005015f6101000a81548160ff021916908315150217905550611cd7835f015f9054906101000a900473ffffffffffffffffffffffffffffffffffffffff1682611de5565b60018360060180549050611ceb9190612db9565b83600501541015611d1457826005015f815480929190611d0a906136b5565b9190505550611d30565b5f836007015f6101000a81548160ff0219169083151502179055505b611d3f565b611d3e84611d45565b5b50505050565b5f60018281548110611d5a57611d59612e05565b5b905f5260205f2090600802019050806007015f9054906101000a900460ff16611db8576040517f08c379a0000000000000000000000000000000000000000000000000000000008152600401611daf90613746565b60405180910390fd5b5f816007015f6101000a81548160ff021916908315150217905550611de1828260050154611e92565b5050565b5f8273ffffffffffffffffffffffffffffffffffffffff1682604051611e0a9061323b565b5f6040518083038185875af1925050503d805f8114611e44576040519150601f19603f3d011682016040523d82523d5f602084013e611e49565b606091505b5050905080611e8d576040517f08c379a0000000000000000000000000000000000000000000000000000000008152600401611e84906137ae565b60405180910390fd5b505050565b5f60018381548110611ea757611ea6612e05565b5b905f5260205f20906008020190505f816006018381548110611ecc57611ecb612e05565b5b905f5260205f20906006020190505f5f90505b8160030180549050811015612077575f826003018281548110611f0557611f04612e05565b5b905f5260205f20015f9054906101000a900473ffffffffffffffffffffffffffffffffffffffff1690505f836004015f8373ffffffffffffffffffffffffffffffffffffffff1673ffffffffffffffffffffffffffffffffffffffff1681526020019081526020015f205490505f811115612068575f846004015f8473ffffffffffffffffffffffffffffffffffffffff1673ffffffffffffffffffffffffffffffffffffffff1681526020019081526020015f20819055505f8273ffffffffffffffffffffffffffffffffffffffff1682604051611fe39061323b565b5f6040518083038185875af1925050503d805f811461201d576040519150601f19603f3d011682016040523d82523d5f602084013e612022565b606091505b5050905080612066576040517f08c379a000000000000000000000000000000000000000000000000000000000815260040161205d90613816565b60405180910390fd5b505b50508080600101915050611edf565b5050505050565b60405180604001604052805f81526020015f81525090565b6040518060e001604052805f73ffffffffffffffffffffffffffffffffffffffff1681526020016060815260200160608152602001606081526020015f81526020015f81526020015f151581525090565b5f73ffffffffffffffffffffffffffffffffffffffff82169050919050565b5f612110826120e7565b9050919050565b61212081612106565b82525050565b5f6020820190506121395f830184612117565b92915050565b5f604051905090565b5f5ffd5b5f5ffd5b5f819050919050565b61216281612150565b811461216c575f5ffd5b50565b5f8135905061217d81612159565b92915050565b5f6020828403121561219857612197612148565b5b5f6121a58482850161216f565b91505092915050565b5f81519050919050565b5f82825260208201905092915050565b8281835e5f83830152505050565b5f601f19601f8301169050919050565b5f6121f0826121ae565b6121fa81856121b8565b935061220a8185602086016121c8565b612213816121d6565b840191505092915050565b61222781612150565b82525050565b5f8115159050919050565b6122418161222d565b82525050565b5f60e08201905061225a5f83018a612117565b818103602083015261226c81896121e6565b9050818103604083015261228081886121e6565b9050818103606083015261229481876121e6565b90506122a3608083018661221e565b6122b060a083018561221e565b6122bd60c0830184612238565b98975050505050505050565b5f5ffd5b5f5ffd5b7f4e487b71000000000000000000000000000000000000000000000000000000005f52604160045260245ffd5b612307826121d6565b810181811067ffffffffffffffff82111715612326576123256122d1565b5b80604052505050565b5f61233861213f565b905061234482826122fe565b919050565b5f67ffffffffffffffff821115612363576123626122d1565b5b61236c826121d6565b9050602081019050919050565b828183375f83830152505050565b5f61239961239484612349565b61232f565b9050828152602081018484840111156123b5576123b46122cd565b5b6123c0848285612379565b509392505050565b5f82601f8301126123dc576123db6122c9565b5b81356123ec848260208601612387565b91505092915050565b5f67ffffffffffffffff82111561240f5761240e6122d1565b5b602082029050602081019050919050565b5f5ffd5b5f5ffd5b5f6040828403121561243d5761243c612424565b5b612447604061232f565b90505f6124568482850161216f565b5f8301525060206124698482850161216f565b60208301525092915050565b5f612487612482846123f5565b61232f565b905080838252602082019050604084028301858111156124aa576124a9612420565b5b835b818110156124d357806124bf8882612428565b8452602084019350506040810190506124ac565b5050509392505050565b5f82601f8301126124f1576124f06122c9565b5b8135612501848260208601612475565b91505092915050565b5f5f5f5f6080858703121561252257612521612148565b5b5f85013567ffffffffffffffff81111561253f5761253e61214c565b5b61254b878288016123c8565b945050602085013567ffffffffffffffff81111561256c5761256b61214c565b5b612578878288016123c8565b935050604085013567ffffffffffffffff8111156125995761259861214c565b5b6125a5878288016123c8565b925050606085013567ffffffffffffffff8111156125c6576125c561214c565b5b6125d2878288016124dd565b91505092959194509250565b5f81519050919050565b5f82825260208201905092915050565b5f819050602082019050919050565b61261081612106565b82525050565b5f6126218383612607565b60208301905092915050565b5f602082019050919050565b5f612643826125de565b61264d81856125e8565b9350612658836125f8565b805f5b8381101561268857815161266f8882612616565b975061267a8361262d565b92505060018101905061265b565b5085935050505092915050565b5f6020820190508181035f8301526126ad8184612639565b905092915050565b5f5f604083850312156126cb576126ca612148565b5b5f6126d88582860161216f565b925050602083013567ffffffffffffffff8111156126f9576126f861214c565b5b612705858286016124dd565b9150509250929050565b61271881612150565b82525050565b604082015f8201516127325f85018261270f565b506020820151612745602085018261270f565b50505050565b5f60408201905061275e5f83018461271e565b92915050565b5f81519050919050565b5f82825260208201905092915050565b5f819050602082019050919050565b604082015f8201516127a15f85018261270f565b5060208201516127b4602085018261270f565b50505050565b5f6127c5838361278d565b60408301905092915050565b5f602082019050919050565b5f6127e782612764565b6127f1818561276e565b93506127fc8361277e565b805f5b8381101561282c57815161281388826127ba565b975061281e836127d1565b9250506001810190506127ff565b5085935050505092915050565b5f6020820190508181035f83015261285181846127dd565b905092915050565b5f81519050919050565b5f82825260208201905092915050565b5f819050602082019050919050565b5f82825260208201905092915050565b5f61289c826121ae565b6128a68185612882565b93506128b68185602086016121c8565b6128bf816121d6565b840191505092915050565b6128d38161222d565b82525050565b5f60e083015f8301516128ee5f860182612607565b50602083015184820360208601526129068282612892565b915050604083015184820360408601526129208282612892565b9150506060830151848203606086015261293a8282612892565b915050608083015161294f608086018261270f565b5060a083015161296260a086018261270f565b5060c083015161297560c08601826128ca565b508091505092915050565b5f61298b83836128d9565b905092915050565b5f602082019050919050565b5f6129a982612859565b6129b38185612863565b9350836020820285016129c585612873565b805f5b85811015612a0057848403895281516129e18582612980565b94506129ec83612993565b925060208a019950506001810190506129c8565b50829750879550505050505092915050565b5f6020820190508181035f830152612a2a818461299f565b905092915050565b7f4e487b71000000000000000000000000000000000000000000000000000000005f52602260045260245ffd5b5f6002820490506001821680612a7657607f821691505b602082108103612a8957612a88612a32565b5b50919050565b7f53797374656d206f776e65722063616e2774206372656174652070726f6a65635f8201527f7473000000000000000000000000000000000000000000000000000000000000602082015250565b5f612ae96022836121b8565b9150612af482612a8f565b604082019050919050565b5f6020820190508181035f830152612b1681612add565b9050919050565b5f819050815f5260205f209050919050565b5f6020601f8301049050919050565b5f82821b905092915050565b5f60088302612b797fffffffffffffffffffffffffffffffffffffffffffffffffffffffffffffffff82612b3e565b612b838683612b3e565b95508019841693508086168417925050509392505050565b5f819050919050565b5f612bbe612bb9612bb484612150565b612b9b565b612150565b9050919050565b5f819050919050565b612bd783612ba4565b612beb612be382612bc5565b848454612b4a565b825550505050565b5f5f905090565b612c02612bf3565b612c0d818484612bce565b505050565b5b81811015612c3057612c255f82612bfa565b600181019050612c13565b5050565b601f821115612c7557612c4681612b1d565b612c4f84612b2f565b81016020851015612c5e578190505b612c72612c6a85612b2f565b830182612c12565b50505b505050565b5f82821c905092915050565b5f612c955f1984600802612c7a565b1980831691505092915050565b5f612cad8383612c86565b9150826002028217905092915050565b612cc6826121ae565b67ffffffffffffffff811115612cdf57612cde6122d1565b5b612ce98254612a5f565b612cf4828285612c34565b5f60209050601f831160018114612d25575f8415612d13578287015190505b612d1d8582612ca2565b865550612d84565b601f198416612d3386612b1d565b5f5b82811015612d5a57848901518255600182019150602085019450602081019050612d35565b86831015612d775784890151612d73601f891682612c86565b8355505b6001600288020188555050505b505050505050565b7f4e487b71000000000000000000000000000000000000000000000000000000005f52601160045260245ffd5b5f612dc382612150565b9150612dce83612150565b9250828203905081811115612de657612de5612d8c565b5b92915050565b5f602082019050612dff5f83018461221e565b92915050565b7f4e487b71000000000000000000000000000000000000000000000000000000005f52603260045260245ffd5b7f496e76616c69642070726f6a6563747320696e646578000000000000000000005f82015250565b5f612e666016836121b8565b9150612e7182612e32565b602082019050919050565b5f6020820190508181035f830152612e9381612e5a565b9050919050565b7f50726f6a656374206d75737420626520616374697665000000000000000000005f82015250565b5f612ece6016836121b8565b9150612ed982612e9a565b602082019050919050565b5f6020820190508181035f830152612efb81612ec2565b9050919050565b7f4d696c6573746f6e652073686f756c64206265206e6f742072656163686564005f82015250565b5f612f36601f836121b8565b9150612f4182612f02565b602082019050919050565b5f6020820190508181035f830152612f6381612f2a565b9050919050565b5f608082019050612f7d5f83018761221e565b612f8a602083018661221e565b612f97604083018561221e565b612fa4606083018461221e565b95945050505050565b7f50726f6a65637420646f65736e277420657869737400000000000000000000005f82015250565b5f612fe16015836121b8565b9150612fec82612fad565b602082019050919050565b5f6020820190508181035f83015261300e81612fd5565b9050919050565b7f596f7520646f6e74206861766520656e6f756768206d6f6e657920746f2066755f8201527f6e64000000000000000000000000000000000000000000000000000000000000602082015250565b5f61306f6022836121b8565b915061307a82613015565b604082019050919050565b5f6020820190508181035f83015261309c81613063565b9050919050565b7f46756e6420616d6f756e742063616e27742062652030000000000000000000005f82015250565b5f6130d76016836121b8565b91506130e2826130a3565b602082019050919050565b5f6020820190508181035f830152613104816130cb565b9050919050565b7f50726f6a656374206d7573742062652061637469766520746f2066756e6400005f82015250565b5f61313f601e836121b8565b915061314a8261310b565b602082019050919050565b5f6020820190508181035f83015261316c81613133565b9050919050565b7f596f752063616e27742066756e6420616674657220646561646c696e650000005f82015250565b5f6131a7601d836121b8565b91506131b282613173565b602082019050919050565b5f6020820190508181035f8301526131d48161319b565b9050919050565b5f6131e582612150565b91506131f083612150565b925082820190508082111561320857613207612d8c565b5b92915050565b5f81905092915050565b50565b5f6132265f8361320e565b915061323182613218565b5f82019050919050565b5f6132458261321b565b9150819050919050565b7f4661696c656420746f2072657475726e20737572706c757300000000000000005f82015250565b5f6132836018836121b8565b915061328e8261324f565b602082019050919050565b5f6020820190508181035f8301526132b081613277565b9050919050565b7f4f6e6c792073797374656d206f776e6572206f722070726f6a656374206f776e5f8201527f65722063616e2073746f702070726f6a65637473000000000000000000000000602082015250565b5f6133116034836121b8565b915061331c826132b7565b604082019050919050565b5f6020820190508181035f83015261333e81613305565b9050919050565b7f43616e6e6f7420616464206e6577206d696c6573746f6e657320746f20696e615f8201527f63746976652070726f6a65637400000000000000000000000000000000000000602082015250565b5f61339f602d836121b8565b91506133aa82613345565b604082019050919050565b5f6020820190508181035f8301526133cc81613393565b9050919050565b7f4f6e6c792070726f6a6563742063726561746f722063616e20616464206e65775f8201527f206d696c6573746f6e6573000000000000000000000000000000000000000000602082015250565b5f61342d602b836121b8565b9150613438826133d3565b604082019050919050565b5f6020820190508181035f83015261345a81613421565b9050919050565b7f4d7573742068617665206174206c65617374206f6e65206d696c6573746f6e655f82015250565b5f6134956020836121b8565b91506134a082613461565b602082019050919050565b5f6020820190508181035f8301526134c281613489565b9050919050565b7f476f616c20616d6f756e742063616e27742062652030000000000000000000005f82015250565b5f6134fd6016836121b8565b9150613508826134c9565b602082019050919050565b5f6020820190508181035f83015261352a816134f1565b9050919050565b7f446561646c696e652063616e277420626520696e2074686520706173740000005f82015250565b5f613565601d836121b8565b915061357082613531565b602082019050919050565b5f6020820190508181035f83015261359281613559565b9050919050565b7f4d696c6573746f6e6520676f616c732073686f756c6420626520696e637265615f8201527f73696e6700000000000000000000000000000000000000000000000000000000602082015250565b5f6135f36024836121b8565b91506135fe82613599565b604082019050919050565b5f6020820190508181035f830152613620816135e7565b9050919050565b7f4d696c6573746f6e6520646561646c696e65732073686f756c6420626520696e5f8201527f6372656173696e67000000000000000000000000000000000000000000000000602082015250565b5f6136816028836121b8565b915061368c82613627565b604082019050919050565b5f6020820190508181035f8301526136ae81613675565b9050919050565b5f6136bf82612150565b91507fffffffffffffffffffffffffffffffffffffffffffffffffffffffffffffffff82036136f1576136f0612d8c565b5b600182019050919050565b7f43616e6e6f742073746f7020696e6163746976652070726f6a656374000000005f82015250565b5f613730601c836121b8565b915061373b826136fc565b602082019050919050565b5f6020820190508181035f83015261375d81613724565b9050919050565b7f5472616e7366657220746f2063726561746f72206661696c65640000000000005f82015250565b5f613798601a836121b8565b91506137a382613764565b602082019050919050565b5f6020820190508181035f8301526137c58161378c565b9050919050565b7f526566756e64206661696c6564000000000000000000000000000000000000005f82015250565b5f613800600d836121b8565b915061380b826137cc565b602082019050919050565b5f6020820190508181035f83015261382d816137f4565b905091905056fea2646970667358221220e6f2b566ca43eac9b2bf8aa7c7d8936b9453f13703e44f225bbc3ed700c44a6d64736f6c634300081e0033",
					"opcodes": "PUSH1 0x80 PUSH1 0x40 MSTORE CALLVALUE DUP1 ISZERO PUSH1 0xE JUMPI PUSH0 PUSH0 REVERT JUMPDEST POP CALLER PUSH0 PUSH0 PUSH2 0x100 EXP DUP2 SLOAD DUP2 PUSH20 0xFFFFFFFFFFFFFFFFFFFFFFFFFFFFFFFFFFFFFFFF MUL NOT AND SWAP1 DUP4 PUSH20 0xFFFFFFFFFFFFFFFFFFFFFFFFFFFFFFFFFFFFFFFF AND MUL OR SWAP1 SSTORE POP PUSH2 0x386A DUP1 PUSH2 0x5B PUSH0 CODECOPY PUSH0 RETURN INVALID PUSH1 0x80 PUSH1 0x40 MSTORE PUSH1 0x4 CALLDATASIZE LT PUSH2 0x9B JUMPI PUSH0 CALLDATALOAD PUSH1 0xE0 SHR DUP1 PUSH4 0x6C563ABE GT PUSH2 0x63 JUMPI DUP1 PUSH4 0x6C563ABE EQ PUSH2 0x197 JUMPI DUP1 PUSH4 0x6DB7A960 EQ PUSH2 0x1B3 JUMPI DUP1 PUSH4 0xAE632181 EQ PUSH2 0x1DB JUMPI DUP1 PUSH4 0xB99122AF EQ PUSH2 0x203 JUMPI DUP1 PUSH4 0xD8A5B36D EQ PUSH2 0x23F JUMPI DUP1 PUSH4 0xF2EF441B EQ PUSH2 0x27B JUMPI PUSH2 0x9B JUMP JUMPDEST DUP1 PUSH4 0xE4877D6 EQ PUSH2 0x9F JUMPI DUP1 PUSH4 0x107046BD EQ PUSH2 0xC9 JUMPI DUP1 PUSH4 0x1A86E67D EQ PUSH2 0x10B JUMPI DUP1 PUSH4 0x33EC0FC5 EQ PUSH2 0x133 JUMPI DUP1 PUSH4 0x4E94E824 EQ PUSH2 0x16F JUMPI JUMPDEST PUSH0 PUSH0 REVERT JUMPDEST CALLVALUE DUP1 ISZERO PUSH2 0xAA JUMPI PUSH0 PUSH0 REVERT JUMPDEST POP PUSH2 0xB3 PUSH2 0x2A5 JUMP JUMPDEST PUSH1 0x40 MLOAD PUSH2 0xC0 SWAP2 SWAP1 PUSH2 0x2126 JUMP JUMPDEST PUSH1 0x40 MLOAD DUP1 SWAP2 SUB SWAP1 RETURN JUMPDEST CALLVALUE DUP1 ISZERO PUSH2 0xD4 JUMPI PUSH0 PUSH0 REVERT JUMPDEST POP PUSH2 0xEF PUSH1 0x4 DUP1 CALLDATASIZE SUB DUP2 ADD SWAP1 PUSH2 0xEA SWAP2 SWAP1 PUSH2 0x2183 JUMP JUMPDEST PUSH2 0x2C9 JUMP JUMPDEST PUSH1 0x40 MLOAD PUSH2 0x102 SWAP8 SWAP7 SWAP6 SWAP5 SWAP4 SWAP3 SWAP2 SWAP1 PUSH2 0x2247 JUMP JUMPDEST PUSH1 0x40 MLOAD DUP1 SWAP2 SUB SWAP1 RETURN JUMPDEST CALLVALUE DUP1 ISZERO PUSH2 0x116 JUMPI PUSH0 PUSH0 REVERT JUMPDEST POP PUSH2 0x131 PUSH1 0x4 DUP1 CALLDATASIZE SUB DUP2 ADD SWAP1 PUSH2 0x12C SWAP2 SWAP1 PUSH2 0x250A JUMP JUMPDEST PUSH2 0x4D3 JUMP JUMPDEST STOP JUMPDEST CALLVALUE DUP1 ISZERO PUSH2 0x13E JUMPI PUSH0 PUSH0 REVERT JUMPDEST POP PUSH2 0x159 PUSH1 0x4 DUP1 CALLDATASIZE SUB DUP2 ADD SWAP1 PUSH2 0x154 SWAP2 SWAP1 PUSH2 0x2183 JUMP JUMPDEST PUSH2 0x683 JUMP JUMPDEST PUSH1 0x40 MLOAD PUSH2 0x166 SWAP2 SWAP1 PUSH2 0x2695 JUMP JUMPDEST PUSH1 0x40 MLOAD DUP1 SWAP2 SUB SWAP1 RETURN JUMPDEST CALLVALUE DUP1 ISZERO PUSH2 0x17A JUMPI PUSH0 PUSH0 REVERT JUMPDEST POP PUSH2 0x195 PUSH1 0x4 DUP1 CALLDATASIZE SUB DUP2 ADD SWAP1 PUSH2 0x190 SWAP2 SWAP1 PUSH2 0x2183 JUMP JUMPDEST PUSH2 0x760 JUMP JUMPDEST STOP JUMPDEST PUSH2 0x1B1 PUSH1 0x4 DUP1 CALLDATASIZE SUB DUP2 ADD SWAP1 PUSH2 0x1AC SWAP2 SWAP1 PUSH2 0x2183 JUMP JUMPDEST PUSH2 0x8E9 JUMP JUMPDEST STOP JUMPDEST CALLVALUE DUP1 ISZERO PUSH2 0x1BE JUMPI PUSH0 PUSH0 REVERT JUMPDEST POP PUSH2 0x1D9 PUSH1 0x4 DUP1 CALLDATASIZE SUB DUP2 ADD SWAP1 PUSH2 0x1D4 SWAP2 SWAP1 PUSH2 0x2183 JUMP JUMPDEST PUSH2 0xED1 JUMP JUMPDEST STOP JUMPDEST CALLVALUE DUP1 ISZERO PUSH2 0x1E6 JUMPI PUSH0 PUSH0 REVERT JUMPDEST POP PUSH2 0x201 PUSH1 0x4 DUP1 CALLDATASIZE SUB DUP2 ADD SWAP1 PUSH2 0x1FC SWAP2 SWAP1 PUSH2 0x26B5 JUMP JUMPDEST PUSH2 0xFE2 JUMP JUMPDEST STOP JUMPDEST CALLVALUE DUP1 ISZERO PUSH2 0x20E JUMPI PUSH0 PUSH0 REVERT JUMPDEST POP PUSH2 0x229 PUSH1 0x4 DUP1 CALLDATASIZE SUB DUP2 ADD SWAP1 PUSH2 0x224 SWAP2 SWAP1 PUSH2 0x2183 JUMP JUMPDEST PUSH2 0x1544 JUMP JUMPDEST PUSH1 0x40 MLOAD PUSH2 0x236 SWAP2 SWAP1 PUSH2 0x274B JUMP JUMPDEST PUSH1 0x40 MLOAD DUP1 SWAP2 SUB SWAP1 RETURN JUMPDEST CALLVALUE DUP1 ISZERO PUSH2 0x24A JUMPI PUSH0 PUSH0 REVERT JUMPDEST POP PUSH2 0x265 PUSH1 0x4 DUP1 CALLDATASIZE SUB DUP2 ADD SWAP1 PUSH2 0x260 SWAP2 SWAP1 PUSH2 0x2183 JUMP JUMPDEST PUSH2 0x1604 JUMP JUMPDEST PUSH1 0x40 MLOAD PUSH2 0x272 SWAP2 SWAP1 PUSH2 0x2839 JUMP JUMPDEST PUSH1 0x40 MLOAD DUP1 SWAP2 SUB SWAP1 RETURN JUMPDEST CALLVALUE DUP1 ISZERO PUSH2 0x286 JUMPI PUSH0 PUSH0 REVERT JUMPDEST POP PUSH2 0x28F PUSH2 0x175A JUMP JUMPDEST PUSH1 0x40 MLOAD PUSH2 0x29C SWAP2 SWAP1 PUSH2 0x2A12 JUMP JUMPDEST PUSH1 0x40 MLOAD DUP1 SWAP2 SUB SWAP1 RETURN JUMPDEST PUSH0 PUSH0 SWAP1 SLOAD SWAP1 PUSH2 0x100 EXP SWAP1 DIV PUSH20 0xFFFFFFFFFFFFFFFFFFFFFFFFFFFFFFFFFFFFFFFF AND DUP2 JUMP JUMPDEST PUSH1 0x1 DUP2 DUP2 SLOAD DUP2 LT PUSH2 0x2D8 JUMPI PUSH0 DUP1 REVERT JUMPDEST SWAP1 PUSH0 MSTORE PUSH1 0x20 PUSH0 KECCAK256 SWAP1 PUSH1 0x8 MUL ADD PUSH0 SWAP2 POP SWAP1 POP DUP1 PUSH0 ADD PUSH0 SWAP1 SLOAD SWAP1 PUSH2 0x100 EXP SWAP1 DIV PUSH20 0xFFFFFFFFFFFFFFFFFFFFFFFFFFFFFFFFFFFFFFFF AND SWAP1 DUP1 PUSH1 0x1 ADD DUP1 SLOAD PUSH2 0x31C SWAP1 PUSH2 0x2A5F JUMP JUMPDEST DUP1 PUSH1 0x1F ADD PUSH1 0x20 DUP1 SWAP2 DIV MUL PUSH1 0x20 ADD PUSH1 0x40 MLOAD SWAP1 DUP2 ADD PUSH1 0x40 MSTORE DUP1 SWAP3 SWAP2 SWAP1 DUP2 DUP2 MSTORE PUSH1 0x20 ADD DUP3 DUP1 SLOAD PUSH2 0x348 SWAP1 PUSH2 0x2A5F JUMP JUMPDEST DUP1 ISZERO PUSH2 0x393 JUMPI DUP1 PUSH1 0x1F LT PUSH2 0x36A JUMPI PUSH2 0x100 DUP1 DUP4 SLOAD DIV MUL DUP4 MSTORE SWAP2 PUSH1 0x20 ADD SWAP2 PUSH2 0x393 JUMP JUMPDEST DUP3 ADD SWAP2 SWAP1 PUSH0 MSTORE PUSH1 0x20 PUSH0 KECCAK256 SWAP1 JUMPDEST DUP2 SLOAD DUP2 MSTORE SWAP1 PUSH1 0x1 ADD SWAP1 PUSH1 0x20 ADD DUP1 DUP4 GT PUSH2 0x376 JUMPI DUP3 SWAP1 SUB PUSH1 0x1F AND DUP3 ADD SWAP2 JUMPDEST POP POP POP POP POP SWAP1 DUP1 PUSH1 0x2 ADD DUP1 SLOAD PUSH2 0x3A8 SWAP1 PUSH2 0x2A5F JUMP JUMPDEST DUP1 PUSH1 0x1F ADD PUSH1 0x20 DUP1 SWAP2 DIV MUL PUSH1 0x20 ADD PUSH1 0x40 MLOAD SWAP1 DUP2 ADD PUSH1 0x40 MSTORE DUP1 SWAP3 SWAP2 SWAP1 DUP2 DUP2 MSTORE PUSH1 0x20 ADD DUP3 DUP1 SLOAD PUSH2 0x3D4 SWAP1 PUSH2 0x2A5F JUMP JUMPDEST DUP1 ISZERO PUSH2 0x41F JUMPI DUP1 PUSH1 0x1F LT PUSH2 0x3F6 JUMPI PUSH2 0x100 DUP1 DUP4 SLOAD DIV MUL DUP4 MSTORE SWAP2 PUSH1 0x20 ADD SWAP2 PUSH2 0x41F JUMP JUMPDEST DUP3 ADD SWAP2 SWAP1 PUSH0 MSTORE PUSH1 0x20 PUSH0 KECCAK256 SWAP1 JUMPDEST DUP2 SLOAD DUP2 MSTORE SWAP1 PUSH1 0x1 ADD SWAP1 PUSH1 0x20 ADD DUP1 DUP4 GT PUSH2 0x402 JUMPI DUP3 SWAP1 SUB PUSH1 0x1F AND DUP3 ADD SWAP2 JUMPDEST POP POP POP POP POP SWAP1 DUP1 PUSH1 0x3 ADD DUP1 SLOAD PUSH2 0x434 SWAP1 PUSH2 0x2A5F JUMP JUMPDEST DUP1 PUSH1 0x1F ADD PUSH1 0x20 DUP1 SWAP2 DIV MUL PUSH1 0x20 ADD PUSH1 0x40 MLOAD SWAP1 DUP2 ADD PUSH1 0x40 MSTORE DUP1 SWAP3 SWAP2 SWAP1 DUP2 DUP2 MSTORE PUSH1 0x20 ADD DUP3 DUP1 SLOAD PUSH2 0x460 SWAP1 PUSH2 0x2A5F JUMP JUMPDEST DUP1 ISZERO PUSH2 0x4AB JUMPI DUP1 PUSH1 0x1F LT PUSH2 0x482 JUMPI PUSH2 0x100 DUP1 DUP4 SLOAD DIV MUL DUP4 MSTORE SWAP2 PUSH1 0x20 ADD SWAP2 PUSH2 0x4AB JUMP JUMPDEST DUP3 ADD SWAP2 SWAP1 PUSH0 MSTORE PUSH1 0x20 PUSH0 KECCAK256 SWAP1 JUMPDEST DUP2 SLOAD DUP2 MSTORE SWAP1 PUSH1 0x1 ADD SWAP1 PUSH1 0x20 ADD DUP1 DUP4 GT PUSH2 0x48E JUMPI DUP3 SWAP1 SUB PUSH1 0x1F AND DUP3 ADD SWAP2 JUMPDEST POP POP POP POP POP SWAP1 DUP1 PUSH1 0x4 ADD SLOAD SWAP1 DUP1 PUSH1 0x5 ADD SLOAD SWAP1 DUP1 PUSH1 0x7 ADD PUSH0 SWAP1 SLOAD SWAP1 PUSH2 0x100 EXP SWAP1 DIV PUSH1 0xFF AND SWAP1 POP DUP8 JUMP JUMPDEST PUSH0 PUSH0 SWAP1 SLOAD SWAP1 PUSH2 0x100 EXP SWAP1 DIV PUSH20 0xFFFFFFFFFFFFFFFFFFFFFFFFFFFFFFFFFFFFFFFF AND PUSH20 0xFFFFFFFFFFFFFFFFFFFFFFFFFFFFFFFFFFFFFFFF AND CALLER PUSH20 0xFFFFFFFFFFFFFFFFFFFFFFFFFFFFFFFFFFFFFFFF AND SUB PUSH2 0x561 JUMPI PUSH1 0x40 MLOAD PUSH32 0x8C379A000000000000000000000000000000000000000000000000000000000 DUP2 MSTORE PUSH1 0x4 ADD PUSH2 0x558 SWAP1 PUSH2 0x2AFF JUMP JUMPDEST PUSH1 0x40 MLOAD DUP1 SWAP2 SUB SWAP1 REVERT JUMPDEST PUSH0 PUSH1 0x1 DUP1 DUP2 PUSH1 0x1 DUP2 SLOAD ADD DUP1 DUP3 SSTORE DUP1 SWAP2 POP POP SUB SWAP1 PUSH0 MSTORE PUSH1 0x20 PUSH0 KECCAK256 SWAP1 PUSH1 0x8 MUL ADD SWAP1 POP CALLER DUP2 PUSH0 ADD PUSH0 PUSH2 0x100 EXP DUP2 SLOAD DUP2 PUSH20 0xFFFFFFFFFFFFFFFFFFFFFFFFFFFFFFFFFFFFFFFF MUL NOT AND SWAP1 DUP4 PUSH20 0xFFFFFFFFFFFFFFFFFFFFFFFFFFFFFFFFFFFFFFFF AND MUL OR SWAP1 SSTORE POP DUP5 DUP2 PUSH1 0x1 ADD SWAP1 DUP2 PUSH2 0x5D3 SWAP2 SWAP1 PUSH2 0x2CBD JUMP JUMPDEST POP DUP4 DUP2 PUSH1 0x2 ADD SWAP1 DUP2 PUSH2 0x5E5 SWAP2 SWAP1 PUSH2 0x2CBD JUMP JUMPDEST POP DUP3 DUP2 PUSH1 0x3 ADD SWAP1 DUP2 PUSH2 0x5F7 SWAP2 SWAP1 PUSH2 0x2CBD JUMP JUMPDEST POP PUSH0 DUP2 PUSH1 0x4 ADD DUP2 SWAP1 SSTORE POP PUSH0 DUP2 PUSH1 0x5 ADD DUP2 SWAP1 SSTORE POP PUSH1 0x1 DUP2 PUSH1 0x7 ADD PUSH0 PUSH2 0x100 EXP DUP2 SLOAD DUP2 PUSH1 0xFF MUL NOT AND SWAP1 DUP4 ISZERO ISZERO MUL OR SWAP1 SSTORE POP PUSH2 0x640 PUSH1 0x1 DUP1 DUP1 SLOAD SWAP1 POP PUSH2 0x63A SWAP2 SWAP1 PUSH2 0x2DB9 JUMP JUMPDEST DUP4 PUSH2 0xFE2 JUMP JUMPDEST PUSH32 0x1AC2092E16E28EEF29D1832F3DC69DA1B21284A1F3159D3B26CB238B22FE4F8A PUSH1 0x1 DUP1 SLOAD SWAP1 POP PUSH1 0x40 MLOAD PUSH2 0x674 SWAP2 SWAP1 PUSH2 0x2DEC JUMP JUMPDEST PUSH1 0x40 MLOAD DUP1 SWAP2 SUB SWAP1 LOG1 POP POP POP POP POP JUMP JUMPDEST PUSH1 0x60 PUSH0 PUSH1 0x1 DUP4 DUP2 SLOAD DUP2 LT PUSH2 0x69A JUMPI PUSH2 0x699 PUSH2 0x2E05 JUMP JUMPDEST JUMPDEST SWAP1 PUSH0 MSTORE PUSH1 0x20 PUSH0 KECCAK256 SWAP1 PUSH1 0x8 MUL ADD SWAP1 POP PUSH0 DUP2 PUSH1 0x6 ADD DUP3 PUSH1 0x5 ADD SLOAD DUP2 SLOAD DUP2 LT PUSH2 0x6C3 JUMPI PUSH2 0x6C2 PUSH2 0x2E05 JUMP JUMPDEST JUMPDEST SWAP1 PUSH0 MSTORE PUSH1 0x20 PUSH0 KECCAK256 SWAP1 PUSH1 0x6 MUL ADD SWAP1 POP DUP1 PUSH1 0x3 ADD DUP1 SLOAD DUP1 PUSH1 0x20 MUL PUSH1 0x20 ADD PUSH1 0x40 MLOAD SWAP1 DUP2 ADD PUSH1 0x40 MSTORE DUP1 SWAP3 SWAP2 SWAP1 DUP2 DUP2 MSTORE PUSH1 0x20 ADD DUP3 DUP1 SLOAD DUP1 ISZERO PUSH2 0x752 JUMPI PUSH1 0x20 MUL DUP3 ADD SWAP2 SWAP1 PUSH0 MSTORE PUSH1 0x20 PUSH0 KECCAK256 SWAP1 JUMPDEST DUP2 PUSH0 SWAP1 SLOAD SWAP1 PUSH2 0x100 EXP SWAP1 DIV PUSH20 0xFFFFFFFFFFFFFFFFFFFFFFFFFFFFFFFFFFFFFFFF AND PUSH20 0xFFFFFFFFFFFFFFFFFFFFFFFFFFFFFFFFFFFFFFFF AND DUP2 MSTORE PUSH1 0x20 ADD SWAP1 PUSH1 0x1 ADD SWAP1 DUP1 DUP4 GT PUSH2 0x709 JUMPI JUMPDEST POP POP POP POP POP SWAP3 POP POP POP SWAP2 SWAP1 POP JUMP JUMPDEST PUSH1 0x1 DUP1 SLOAD SWAP1 POP DUP2 LT PUSH2 0x7A7 JUMPI PUSH1 0x40 MLOAD PUSH32 0x8C379A000000000000000000000000000000000000000000000000000000000 DUP2 MSTORE PUSH1 0x4 ADD PUSH2 0x79E SWAP1 PUSH2 0x2E7C JUMP JUMPDEST PUSH1 0x40 MLOAD DUP1 SWAP2 SUB SWAP1 REVERT JUMPDEST PUSH0 PUSH1 0x1 DUP3 DUP2 SLOAD DUP2 LT PUSH2 0x7BC JUMPI PUSH2 0x7BB PUSH2 0x2E05 JUMP JUMPDEST JUMPDEST SWAP1 PUSH0 MSTORE PUSH1 0x20 PUSH0 KECCAK256 SWAP1 PUSH1 0x8 MUL ADD SWAP1 POP DUP1 PUSH1 0x7 ADD PUSH0 SWAP1 SLOAD SWAP1 PUSH2 0x100 EXP SWAP1 DIV PUSH1 0xFF AND PUSH2 0x81A JUMPI PUSH1 0x40 MLOAD PUSH32 0x8C379A000000000000000000000000000000000000000000000000000000000 DUP2 MSTORE PUSH1 0x4 ADD PUSH2 0x811 SWAP1 PUSH2 0x2EE4 JUMP JUMPDEST PUSH1 0x40 MLOAD DUP1 SWAP2 SUB SWAP1 REVERT JUMPDEST PUSH0 DUP2 PUSH1 0x6 ADD DUP3 PUSH1 0x5 ADD SLOAD DUP2 SLOAD DUP2 LT PUSH2 0x835 JUMPI PUSH2 0x834 PUSH2 0x2E05 JUMP JUMPDEST JUMPDEST SWAP1 PUSH0 MSTORE PUSH1 0x20 PUSH0 KECCAK256 SWAP1 PUSH1 0x6 MUL ADD SWAP1 POP DUP1 PUSH1 0x5 ADD PUSH0 SWAP1 SLOAD SWAP1 PUSH2 0x100 EXP SWAP1 DIV PUSH1 0xFF AND ISZERO PUSH2 0x894 JUMPI PUSH1 0x40 MLOAD PUSH32 0x8C379A000000000000000000000000000000000000000000000000000000000 DUP2 MSTORE PUSH1 0x4 ADD PUSH2 0x88B SWAP1 PUSH2 0x2F4C JUMP JUMPDEST PUSH1 0x40 MLOAD DUP1 SWAP2 SUB SWAP1 REVERT JUMPDEST PUSH32 0x3F9EE693372748925082C0C5BA09ECFFC5FDDFEECF993BECFF877EAC8A1E08BC DUP2 PUSH0 ADD PUSH1 0x1 ADD SLOAD DUP3 PUSH0 ADD PUSH0 ADD SLOAD DUP5 PUSH1 0x4 ADD SLOAD DUP5 PUSH1 0x2 ADD SLOAD PUSH1 0x40 MLOAD PUSH2 0x8DC SWAP5 SWAP4 SWAP3 SWAP2 SWAP1 PUSH2 0x2F6A JUMP JUMPDEST PUSH1 0x40 MLOAD DUP1 SWAP2 SUB SWAP1 LOG1 POP POP POP JUMP JUMPDEST PUSH1 0x1 DUP1 SLOAD SWAP1 POP DUP2 LT PUSH2 0x930 JUMPI PUSH1 0x40 MLOAD PUSH32 0x8C379A000000000000000000000000000000000000000000000000000000000 DUP2 MSTORE PUSH1 0x4 ADD PUSH2 0x927 SWAP1 PUSH2 0x2FF7 JUMP JUMPDEST PUSH1 0x40 MLOAD DUP1 SWAP2 SUB SWAP1 REVERT JUMPDEST CALLER PUSH20 0xFFFFFFFFFFFFFFFFFFFFFFFFFFFFFFFFFFFFFFFF AND BALANCE CALLVALUE GT ISZERO PUSH2 0x98A JUMPI PUSH1 0x40 MLOAD PUSH32 0x8C379A000000000000000000000000000000000000000000000000000000000 DUP2 MSTORE PUSH1 0x4 ADD PUSH2 0x981 SWAP1 PUSH2 0x3085 JUMP JUMPDEST PUSH1 0x40 MLOAD DUP1 SWAP2 SUB SWAP1 REVERT JUMPDEST PUSH0 CALLVALUE GT PUSH2 0x9CC JUMPI PUSH1 0x40 MLOAD PUSH32 0x8C379A000000000000000000000000000000000000000000000000000000000 DUP2 MSTORE PUSH1 0x4 ADD PUSH2 0x9C3 SWAP1 PUSH2 0x30ED JUMP JUMPDEST PUSH1 0x40 MLOAD DUP1 SWAP2 SUB SWAP1 REVERT JUMPDEST PUSH0 PUSH1 0x1 DUP3 DUP2 SLOAD DUP2 LT PUSH2 0x9E1 JUMPI PUSH2 0x9E0 PUSH2 0x2E05 JUMP JUMPDEST JUMPDEST SWAP1 PUSH0 MSTORE PUSH1 0x20 PUSH0 KECCAK256 SWAP1 PUSH1 0x8 MUL ADD SWAP1 POP DUP1 PUSH1 0x7 ADD PUSH0 SWAP1 SLOAD SWAP1 PUSH2 0x100 EXP SWAP1 DIV PUSH1 0xFF AND PUSH2 0xA3F JUMPI PUSH1 0x40 MLOAD PUSH32 0x8C379A000000000000000000000000000000000000000000000000000000000 DUP2 MSTORE PUSH1 0x4 ADD PUSH2 0xA36 SWAP1 PUSH2 0x3155 JUMP JUMPDEST PUSH1 0x40 MLOAD DUP1 SWAP2 SUB SWAP1 REVERT JUMPDEST PUSH0 DUP2 PUSH1 0x6 ADD DUP3 PUSH1 0x5 ADD SLOAD DUP2 SLOAD DUP2 LT PUSH2 0xA5A JUMPI PUSH2 0xA59 PUSH2 0x2E05 JUMP JUMPDEST JUMPDEST SWAP1 PUSH0 MSTORE PUSH1 0x20 PUSH0 KECCAK256 SWAP1 PUSH1 0x6 MUL ADD SWAP1 POP TIMESTAMP DUP2 PUSH0 ADD PUSH1 0x1 ADD SLOAD GT PUSH2 0xAB0 JUMPI PUSH1 0x40 MLOAD PUSH32 0x8C379A000000000000000000000000000000000000000000000000000000000 DUP2 MSTORE PUSH1 0x4 ADD PUSH2 0xAA7 SWAP1 PUSH2 0x31BD JUMP JUMPDEST PUSH1 0x40 MLOAD DUP1 SWAP2 SUB SWAP1 REVERT JUMPDEST PUSH0 DUP2 PUSH1 0x4 ADD PUSH0 CALLER PUSH20 0xFFFFFFFFFFFFFFFFFFFFFFFFFFFFFFFFFFFFFFFF AND PUSH20 0xFFFFFFFFFFFFFFFFFFFFFFFFFFFFFFFFFFFFFFFF AND DUP2 MSTORE PUSH1 0x20 ADD SWAP1 DUP2 MSTORE PUSH1 0x20 ADD PUSH0 KECCAK256 SLOAD SUB PUSH2 0xB59 JUMPI DUP1 PUSH1 0x3 ADD CALLER SWAP1 DUP1 PUSH1 0x1 DUP2 SLOAD ADD DUP1 DUP3 SSTORE DUP1 SWAP2 POP POP PUSH1 0x1 SWAP1 SUB SWAP1 PUSH0 MSTORE PUSH1 0x20 PUSH0 KECCAK256 ADD PUSH0 SWAP1 SWAP2 SWAP1 SWAP2 SWAP1 SWAP2 PUSH2 0x100 EXP DUP2 SLOAD DUP2 PUSH20 0xFFFFFFFFFFFFFFFFFFFFFFFFFFFFFFFFFFFFFFFF MUL NOT AND SWAP1 DUP4 PUSH20 0xFFFFFFFFFFFFFFFFFFFFFFFFFFFFFFFFFFFFFFFF AND MUL OR SWAP1 SSTORE POP JUMPDEST CALLVALUE DUP2 PUSH1 0x4 ADD PUSH0 CALLER PUSH20 0xFFFFFFFFFFFFFFFFFFFFFFFFFFFFFFFFFFFFFFFF AND PUSH20 0xFFFFFFFFFFFFFFFFFFFFFFFFFFFFFFFFFFFFFFFF AND DUP2 MSTORE PUSH1 0x20 ADD SWAP1 DUP2 MSTORE PUSH1 0x20 ADD PUSH0 KECCAK256 PUSH0 DUP3 DUP3 SLOAD PUSH2 0xBA7 SWAP2 SWAP1 PUSH2 0x31DB JUMP JUMPDEST SWAP3 POP POP DUP2 SWAP1 SSTORE POP CALLVALUE DUP2 PUSH1 0x2 ADD PUSH0 DUP3 DUP3 SLOAD PUSH2 0xBC1 SWAP2 SWAP1 PUSH2 0x31DB JUMP JUMPDEST SWAP3 POP POP DUP2 SWAP1 SSTORE POP CALLVALUE DUP3 PUSH1 0x4 ADD PUSH0 DUP3 DUP3 SLOAD PUSH2 0xBDB SWAP2 SWAP1 PUSH2 0x31DB JUMP JUMPDEST SWAP3 POP POP DUP2 SWAP1 SSTORE POP JUMPDEST DUP1 PUSH0 ADD PUSH0 ADD SLOAD DUP3 PUSH1 0x4 ADD SLOAD GT ISZERO PUSH2 0xE87 JUMPI PUSH0 DUP2 PUSH0 ADD PUSH0 ADD SLOAD DUP4 PUSH1 0x4 ADD SLOAD PUSH2 0xC0A SWAP2 SWAP1 PUSH2 0x2DB9 JUMP JUMPDEST SWAP1 POP DUP2 PUSH0 ADD PUSH0 ADD SLOAD DUP3 PUSH1 0x2 ADD DUP2 SWAP1 SSTORE POP DUP2 PUSH0 ADD PUSH0 ADD SLOAD DUP4 PUSH1 0x4 ADD DUP2 SWAP1 SSTORE POP DUP1 DUP3 PUSH1 0x4 ADD PUSH0 CALLER PUSH20 0xFFFFFFFFFFFFFFFFFFFFFFFFFFFFFFFFFFFFFFFF AND PUSH20 0xFFFFFFFFFFFFFFFFFFFFFFFFFFFFFFFFFFFFFFFF AND DUP2 MSTORE PUSH1 0x20 ADD SWAP1 DUP2 MSTORE PUSH1 0x20 ADD PUSH0 KECCAK256 PUSH0 DUP3 DUP3 SLOAD PUSH2 0xC76 SWAP2 SWAP1 PUSH2 0x2DB9 JUMP JUMPDEST SWAP3 POP POP DUP2 SWAP1 SSTORE POP PUSH1 0x1 DUP4 PUSH1 0x6 ADD DUP1 SLOAD SWAP1 POP PUSH2 0xC91 SWAP2 SWAP1 PUSH2 0x2DB9 JUMP JUMPDEST DUP4 PUSH1 0x5 ADD SLOAD SUB PUSH2 0xD64 JUMPI PUSH0 DUP4 PUSH1 0x7 ADD PUSH0 PUSH2 0x100 EXP DUP2 SLOAD DUP2 PUSH1 0xFF MUL NOT AND SWAP1 DUP4 ISZERO ISZERO MUL OR SWAP1 SSTORE POP PUSH0 CALLER PUSH20 0xFFFFFFFFFFFFFFFFFFFFFFFFFFFFFFFFFFFFFFFF AND DUP3 PUSH1 0x40 MLOAD PUSH2 0xCDB SWAP1 PUSH2 0x323B JUMP JUMPDEST PUSH0 PUSH1 0x40 MLOAD DUP1 DUP4 SUB DUP2 DUP6 DUP8 GAS CALL SWAP3 POP POP POP RETURNDATASIZE DUP1 PUSH0 DUP2 EQ PUSH2 0xD15 JUMPI PUSH1 0x40 MLOAD SWAP2 POP PUSH1 0x1F NOT PUSH1 0x3F RETURNDATASIZE ADD AND DUP3 ADD PUSH1 0x40 MSTORE RETURNDATASIZE DUP3 MSTORE RETURNDATASIZE PUSH0 PUSH1 0x20 DUP5 ADD RETURNDATACOPY PUSH2 0xD1A JUMP JUMPDEST PUSH1 0x60 SWAP2 POP JUMPDEST POP POP SWAP1 POP DUP1 PUSH2 0xD5E JUMPI PUSH1 0x40 MLOAD PUSH32 0x8C379A000000000000000000000000000000000000000000000000000000000 DUP2 MSTORE PUSH1 0x4 ADD PUSH2 0xD55 SWAP1 PUSH2 0x3299 JUMP JUMPDEST PUSH1 0x40 MLOAD DUP1 SWAP2 SUB SWAP1 REVERT JUMPDEST POP PUSH2 0xE81 JUMP JUMPDEST PUSH2 0xD6D DUP5 PUSH2 0x1BDB JUMP JUMPDEST DUP3 PUSH1 0x6 ADD DUP4 PUSH1 0x5 ADD SLOAD DUP2 SLOAD DUP2 LT PUSH2 0xD87 JUMPI PUSH2 0xD86 PUSH2 0x2E05 JUMP JUMPDEST JUMPDEST SWAP1 PUSH0 MSTORE PUSH1 0x20 PUSH0 KECCAK256 SWAP1 PUSH1 0x6 MUL ADD SWAP2 POP DUP2 PUSH1 0x3 ADD CALLER SWAP1 DUP1 PUSH1 0x1 DUP2 SLOAD ADD DUP1 DUP3 SSTORE DUP1 SWAP2 POP POP PUSH1 0x1 SWAP1 SUB SWAP1 PUSH0 MSTORE PUSH1 0x20 PUSH0 KECCAK256 ADD PUSH0 SWAP1 SWAP2 SWAP1 SWAP2 SWAP1 SWAP2 PUSH2 0x100 EXP DUP2 SLOAD DUP2 PUSH20 0xFFFFFFFFFFFFFFFFFFFFFFFFFFFFFFFFFFFFFFFF MUL NOT AND SWAP1 DUP4 PUSH20 0xFFFFFFFFFFFFFFFFFFFFFFFFFFFFFFFFFFFFFFFF AND MUL OR SWAP1 SSTORE POP DUP1 DUP3 PUSH1 0x4 ADD PUSH0 CALLER PUSH20 0xFFFFFFFFFFFFFFFFFFFFFFFFFFFFFFFFFFFFFFFF AND PUSH20 0xFFFFFFFFFFFFFFFFFFFFFFFFFFFFFFFFFFFFFFFF AND DUP2 MSTORE PUSH1 0x20 ADD SWAP1 DUP2 MSTORE PUSH1 0x20 ADD PUSH0 KECCAK256 PUSH0 DUP3 DUP3 SLOAD PUSH2 0xE45 SWAP2 SWAP1 PUSH2 0x31DB JUMP JUMPDEST SWAP3 POP POP DUP2 SWAP1 SSTORE POP DUP1 DUP3 PUSH1 0x2 ADD PUSH0 DUP3 DUP3 SLOAD PUSH2 0xE5F SWAP2 SWAP1 PUSH2 0x31DB JUMP JUMPDEST SWAP3 POP POP DUP2 SWAP1 SSTORE POP DUP1 DUP4 PUSH1 0x4 ADD PUSH0 DUP3 DUP3 SLOAD PUSH2 0xE79 SWAP2 SWAP1 PUSH2 0x31DB JUMP JUMPDEST SWAP3 POP POP DUP2 SWAP1 SSTORE POP JUMPDEST POP PUSH2 0xBE3 JUMP JUMPDEST PUSH32 0x17E2EFFA169C5DDE193942ABD21F6D49E7D32C15AB843DA440CB2ABDD10F1911 DUP4 CALLVALUE DUP5 PUSH1 0x4 ADD SLOAD DUP5 PUSH1 0x2 ADD SLOAD PUSH1 0x40 MLOAD PUSH2 0xEC4 SWAP5 SWAP4 SWAP3 SWAP2 SWAP1 PUSH2 0x2F6A JUMP JUMPDEST PUSH1 0x40 MLOAD DUP1 SWAP2 SUB SWAP1 LOG1 POP POP POP JUMP JUMPDEST PUSH0 PUSH0 SWAP1 SLOAD SWAP1 PUSH2 0x100 EXP SWAP1 DIV PUSH20 0xFFFFFFFFFFFFFFFFFFFFFFFFFFFFFFFFFFFFFFFF AND PUSH20 0xFFFFFFFFFFFFFFFFFFFFFFFFFFFFFFFFFFFFFFFF AND CALLER PUSH20 0xFFFFFFFFFFFFFFFFFFFFFFFFFFFFFFFFFFFFFFFF AND EQ DUP1 PUSH2 0xF97 JUMPI POP PUSH1 0x1 DUP2 DUP2 SLOAD DUP2 LT PUSH2 0xF3A JUMPI PUSH2 0xF39 PUSH2 0x2E05 JUMP JUMPDEST JUMPDEST SWAP1 PUSH0 MSTORE PUSH1 0x20 PUSH0 KECCAK256 SWAP1 PUSH1 0x8 MUL ADD PUSH0 ADD PUSH0 SWAP1 SLOAD SWAP1 PUSH2 0x100 EXP SWAP1 DIV PUSH20 0xFFFFFFFFFFFFFFFFFFFFFFFFFFFFFFFFFFFFFFFF AND PUSH20 0xFFFFFFFFFFFFFFFFFFFFFFFFFFFFFFFFFFFFFFFF AND CALLER PUSH20 0xFFFFFFFFFFFFFFFFFFFFFFFFFFFFFFFFFFFFFFFF AND EQ JUMPDEST PUSH2 0xFD6 JUMPI PUSH1 0x40 MLOAD PUSH32 0x8C379A000000000000000000000000000000000000000000000000000000000 DUP2 MSTORE PUSH1 0x4 ADD PUSH2 0xFCD SWAP1 PUSH2 0x3327 JUMP JUMPDEST PUSH1 0x40 MLOAD DUP1 SWAP2 SUB SWAP1 REVERT JUMPDEST PUSH2 0xFDF DUP2 PUSH2 0x1D45 JUMP JUMPDEST POP JUMP JUMPDEST PUSH1 0x1 DUP1 SLOAD SWAP1 POP DUP3 LT PUSH2 0x1029 JUMPI PUSH1 0x40 MLOAD PUSH32 0x8C379A000000000000000000000000000000000000000000000000000000000 DUP2 MSTORE PUSH1 0x4 ADD PUSH2 0x1020 SWAP1 PUSH2 0x2E7C JUMP JUMPDEST PUSH1 0x40 MLOAD DUP1 SWAP2 SUB SWAP1 REVERT JUMPDEST PUSH0 PUSH1 0x1 DUP4 DUP2 SLOAD DUP2 LT PUSH2 0x103E JUMPI PUSH2 0x103D PUSH2 0x2E05 JUMP JUMPDEST JUMPDEST SWAP1 PUSH0 MSTORE PUSH1 0x20 PUSH0 KECCAK256 SWAP1 PUSH1 0x8 MUL ADD SWAP1 POP DUP1 PUSH1 0x7 ADD PUSH0 SWAP1 SLOAD SWAP1 PUSH2 0x100 EXP SWAP1 DIV PUSH1 0xFF AND PUSH2 0x109C JUMPI PUSH1 0x40 MLOAD PUSH32 0x8C379A000000000000000000000000000000000000000000000000000000000 DUP2 MSTORE PUSH1 0x4 ADD PUSH2 0x1093 SWAP1 PUSH2 0x33B5 JUMP JUMPDEST PUSH1 0x40 MLOAD DUP1 SWAP2 SUB SWAP1 REVERT JUMPDEST CALLER PUSH20 0xFFFFFFFFFFFFFFFFFFFFFFFFFFFFFFFFFFFFFFFF AND DUP2 PUSH0 ADD PUSH0 SWAP1 SLOAD SWAP1 PUSH2 0x100 EXP SWAP1 DIV PUSH20 0xFFFFFFFFFFFFFFFFFFFFFFFFFFFFFFFFFFFFFFFF AND PUSH20 0xFFFFFFFFFFFFFFFFFFFFFFFFFFFFFFFFFFFFFFFF AND EQ PUSH2 0x112C JUMPI PUSH1 0x40 MLOAD PUSH32 0x8C379A000000000000000000000000000000000000000000000000000000000 DUP2 MSTORE PUSH1 0x4 ADD PUSH2 0x1123 SWAP1 PUSH2 0x3443 JUMP JUMPDEST PUSH1 0x40 MLOAD DUP1 SWAP2 SUB SWAP1 REVERT JUMPDEST PUSH0 DUP3 MLOAD GT PUSH2 0x116F JUMPI PUSH1 0x40 MLOAD PUSH32 0x8C379A000000000000000000000000000000000000000000000000000000000 DUP2 MSTORE PUSH1 0x4 ADD PUSH2 0x1166 SWAP1 PUSH2 0x34AB JUMP JUMPDEST PUSH1 0x40 MLOAD DUP1 SWAP2 SUB SWAP1 REVERT JUMPDEST PUSH0 PUSH0 SWAP1 POP JUMPDEST DUP3 MLOAD DUP2 LT ISZERO PUSH2 0x153E JUMPI PUSH0 DUP4 DUP3 DUP2 MLOAD DUP2 LT PUSH2 0x1191 JUMPI PUSH2 0x1190 PUSH2 0x2E05 JUMP JUMPDEST JUMPDEST PUSH1 0x20 MUL PUSH1 0x20 ADD ADD MLOAD PUSH0 ADD MLOAD GT PUSH2 0x11DC JUMPI PUSH1 0x40 MLOAD PUSH32 0x8C379A000000000000000000000000000000000000000000000000000000000 DUP2 MSTORE PUSH1 0x4 ADD PUSH2 0x11D3 SWAP1 PUSH2 0x3513 JUMP JUMPDEST PUSH1 0x40 MLOAD DUP1 SWAP2 SUB SWAP1 REVERT JUMPDEST TIMESTAMP DUP4 DUP3 DUP2 MLOAD DUP2 LT PUSH2 0x11F0 JUMPI PUSH2 0x11EF PUSH2 0x2E05 JUMP JUMPDEST JUMPDEST PUSH1 0x20 MUL PUSH1 0x20 ADD ADD MLOAD PUSH1 0x20 ADD MLOAD GT PUSH2 0x123C JUMPI PUSH1 0x40 MLOAD PUSH32 0x8C379A000000000000000000000000000000000000000000000000000000000 DUP2 MSTORE PUSH1 0x4 ADD PUSH2 0x1233 SWAP1 PUSH2 0x357B JUMP JUMPDEST PUSH1 0x40 MLOAD DUP1 SWAP2 SUB SWAP1 REVERT JUMPDEST PUSH0 DUP2 GT ISZERO PUSH2 0x1357 JUMPI DUP3 PUSH1 0x1 DUP3 PUSH2 0x1252 SWAP2 SWAP1 PUSH2 0x2DB9 JUMP JUMPDEST DUP2 MLOAD DUP2 LT PUSH2 0x1263 JUMPI PUSH2 0x1262 PUSH2 0x2E05 JUMP JUMPDEST JUMPDEST PUSH1 0x20 MUL PUSH1 0x20 ADD ADD MLOAD PUSH0 ADD MLOAD DUP4 DUP3 DUP2 MLOAD DUP2 LT PUSH2 0x1281 JUMPI PUSH2 0x1280 PUSH2 0x2E05 JUMP JUMPDEST JUMPDEST PUSH1 0x20 MUL PUSH1 0x20 ADD ADD MLOAD PUSH0 ADD MLOAD GT PUSH2 0x12CC JUMPI PUSH1 0x40 MLOAD PUSH32 0x8C379A000000000000000000000000000000000000000000000000000000000 DUP2 MSTORE PUSH1 0x4 ADD PUSH2 0x12C3 SWAP1 PUSH2 0x3609 JUMP JUMPDEST PUSH1 0x40 MLOAD DUP1 SWAP2 SUB SWAP1 REVERT JUMPDEST DUP3 PUSH1 0x1 DUP3 PUSH2 0x12DA SWAP2 SWAP1 PUSH2 0x2DB9 JUMP JUMPDEST DUP2 MLOAD DUP2 LT PUSH2 0x12EB JUMPI PUSH2 0x12EA PUSH2 0x2E05 JUMP JUMPDEST JUMPDEST PUSH1 0x20 MUL PUSH1 0x20 ADD ADD MLOAD PUSH1 0x20 ADD MLOAD DUP4 DUP3 DUP2 MLOAD DUP2 LT PUSH2 0x130A JUMPI PUSH2 0x1309 PUSH2 0x2E05 JUMP JUMPDEST JUMPDEST PUSH1 0x20 MUL PUSH1 0x20 ADD ADD MLOAD PUSH1 0x20 ADD MLOAD GT PUSH2 0x1356 JUMPI PUSH1 0x40 MLOAD PUSH32 0x8C379A000000000000000000000000000000000000000000000000000000000 DUP2 MSTORE PUSH1 0x4 ADD PUSH2 0x134D SWAP1 PUSH2 0x3697 JUMP JUMPDEST PUSH1 0x40 MLOAD DUP1 SWAP2 SUB SWAP1 REVERT JUMPDEST JUMPDEST PUSH0 DUP3 PUSH1 0x6 ADD DUP1 SLOAD SWAP1 POP GT ISZERO PUSH2 0x1499 JUMPI DUP2 PUSH1 0x6 ADD PUSH1 0x1 DUP4 PUSH1 0x6 ADD DUP1 SLOAD SWAP1 POP PUSH2 0x137E SWAP2 SWAP1 PUSH2 0x2DB9 JUMP JUMPDEST DUP2 SLOAD DUP2 LT PUSH2 0x138F JUMPI PUSH2 0x138E PUSH2 0x2E05 JUMP JUMPDEST JUMPDEST SWAP1 PUSH0 MSTORE PUSH1 0x20 PUSH0 KECCAK256 SWAP1 PUSH1 0x6 MUL ADD PUSH0 ADD PUSH0 ADD SLOAD DUP4 DUP3 DUP2 MLOAD DUP2 LT PUSH2 0x13B3 JUMPI PUSH2 0x13B2 PUSH2 0x2E05 JUMP JUMPDEST JUMPDEST PUSH1 0x20 MUL PUSH1 0x20 ADD ADD MLOAD PUSH0 ADD MLOAD GT PUSH2 0x13FE JUMPI PUSH1 0x40 MLOAD PUSH32 0x8C379A000000000000000000000000000000000000000000000000000000000 DUP2 MSTORE PUSH1 0x4 ADD PUSH2 0x13F5 SWAP1 PUSH2 0x3609 JUMP JUMPDEST PUSH1 0x40 MLOAD DUP1 SWAP2 SUB SWAP1 REVERT JUMPDEST DUP2 PUSH1 0x6 ADD PUSH1 0x1 DUP4 PUSH1 0x6 ADD DUP1 SLOAD SWAP1 POP PUSH2 0x1416 SWAP2 SWAP1 PUSH2 0x2DB9 JUMP JUMPDEST DUP2 SLOAD DUP2 LT PUSH2 0x1427 JUMPI PUSH2 0x1426 PUSH2 0x2E05 JUMP JUMPDEST JUMPDEST SWAP1 PUSH0 MSTORE PUSH1 0x20 PUSH0 KECCAK256 SWAP1 PUSH1 0x6 MUL ADD PUSH0 ADD PUSH1 0x1 ADD SLOAD DUP4 DUP3 DUP2 MLOAD DUP2 LT PUSH2 0x144C JUMPI PUSH2 0x144B PUSH2 0x2E05 JUMP JUMPDEST JUMPDEST PUSH1 0x20 MUL PUSH1 0x20 ADD ADD MLOAD PUSH1 0x20 ADD MLOAD GT PUSH2 0x1498 JUMPI PUSH1 0x40 MLOAD PUSH32 0x8C379A000000000000000000000000000000000000000000000000000000000 DUP2 MSTORE PUSH1 0x4 ADD PUSH2 0x148F SWAP1 PUSH2 0x3697 JUMP JUMPDEST PUSH1 0x40 MLOAD DUP1 SWAP2 SUB SWAP1 REVERT JUMPDEST JUMPDEST PUSH0 DUP3 PUSH1 0x6 ADD PUSH1 0x1 DUP2 PUSH1 0x1 DUP2 SLOAD ADD DUP1 DUP3 SSTORE DUP1 SWAP2 POP POP SUB SWAP1 PUSH0 MSTORE PUSH1 0x20 PUSH0 KECCAK256 SWAP1 PUSH1 0x6 MUL ADD SWAP1 POP DUP4 DUP3 DUP2 MLOAD DUP2 LT PUSH2 0x14CF JUMPI PUSH2 0x14CE PUSH2 0x2E05 JUMP JUMPDEST JUMPDEST PUSH1 0x20 MUL PUSH1 0x20 ADD ADD MLOAD PUSH0 ADD MLOAD DUP2 PUSH0 ADD PUSH0 ADD DUP2 SWAP1 SSTORE POP DUP4 DUP3 DUP2 MLOAD DUP2 LT PUSH2 0x14F6 JUMPI PUSH2 0x14F5 PUSH2 0x2E05 JUMP JUMPDEST JUMPDEST PUSH1 0x20 MUL PUSH1 0x20 ADD ADD MLOAD PUSH1 0x20 ADD MLOAD DUP2 PUSH0 ADD PUSH1 0x1 ADD DUP2 SWAP1 SSTORE POP PUSH0 DUP2 PUSH1 0x2 ADD DUP2 SWAP1 SSTORE POP PUSH0 DUP2 PUSH1 0x5 ADD PUSH0 PUSH2 0x100 EXP DUP2 SLOAD DUP2 PUSH1 0xFF MUL NOT AND SWAP1 DUP4 ISZERO ISZERO MUL OR SWAP1 SSTORE POP POP DUP1 DUP1 PUSH1 0x1 ADD SWAP2 POP POP PUSH2 0x1174 JUMP JUMPDEST POP POP POP POP JUMP JUMPDEST PUSH2 0x154C PUSH2 0x207E JUMP JUMPDEST PUSH1 0x1 DUP1 SLOAD SWAP1 POP DUP3 LT PUSH2 0x1593 JUMPI PUSH1 0x40 MLOAD PUSH32 0x8C379A000000000000000000000000000000000000000000000000000000000 DUP2 MSTORE PUSH1 0x4 ADD PUSH2 0x158A SWAP1 PUSH2 0x2E7C JUMP JUMPDEST PUSH1 0x40 MLOAD DUP1 SWAP2 SUB SWAP1 REVERT JUMPDEST PUSH0 PUSH1 0x1 DUP4 DUP2 SLOAD DUP2 LT PUSH2 0x15A8 JUMPI PUSH2 0x15A7 PUSH2 0x2E05 JUMP JUMPDEST JUMPDEST SWAP1 PUSH0 MSTORE PUSH1 0x20 PUSH0 KECCAK256 SWAP1 PUSH1 0x8 MUL ADD SWAP1 POP DUP1 PUSH1 0x6 ADD DUP2 PUSH1 0x5 ADD SLOAD DUP2 SLOAD DUP2 LT PUSH2 0x15D0 JUMPI PUSH2 0x15CF PUSH2 0x2E05 JUMP JUMPDEST JUMPDEST SWAP1 PUSH0 MSTORE PUSH1 0x20 PUSH0 KECCAK256 SWAP1 PUSH1 0x6 MUL ADD PUSH0 ADD PUSH1 0x40 MLOAD DUP1 PUSH1 0x40 ADD PUSH1 0x40 MSTORE SWAP1 DUP2 PUSH0 DUP3 ADD SLOAD DUP2 MSTORE PUSH1 0x20 ADD PUSH1 0x1 DUP3 ADD SLOAD DUP2 MSTORE POP POP SWAP2 POP POP SWAP2 SWAP1 POP JUMP JUMPDEST PUSH1 0x60 PUSH1 0x1 DUP1 SLOAD SWAP1 POP DUP3 LT PUSH2 0x164D JUMPI PUSH1 0x40 MLOAD PUSH32 0x8C379A000000000000000000000000000000000000000000000000000000000 DUP2 MSTORE PUSH1 0x4 ADD PUSH2 0x1644 SWAP1 PUSH2 0x2E7C JUMP JUMPDEST PUSH1 0x40 MLOAD DUP1 SWAP2 SUB SWAP1 REVERT JUMPDEST PUSH0 PUSH1 0x1 DUP4 DUP2 SLOAD DUP2 LT PUSH2 0x1662 JUMPI PUSH2 0x1661 PUSH2 0x2E05 JUMP JUMPDEST JUMPDEST SWAP1 PUSH0 MSTORE PUSH1 0x20 PUSH0 KECCAK256 SWAP1 PUSH1 0x8 MUL ADD SWAP1 POP PUSH0 DUP2 PUSH1 0x6 ADD DUP1 SLOAD SWAP1 POP PUSH8 0xFFFFFFFFFFFFFFFF DUP2 GT ISZERO PUSH2 0x1692 JUMPI PUSH2 0x1691 PUSH2 0x22D1 JUMP JUMPDEST JUMPDEST PUSH1 0x40 MLOAD SWAP1 DUP1 DUP3 MSTORE DUP1 PUSH1 0x20 MUL PUSH1 0x20 ADD DUP3 ADD PUSH1 0x40 MSTORE DUP1 ISZERO PUSH2 0x16CB JUMPI DUP2 PUSH1 0x20 ADD JUMPDEST PUSH2 0x16B8 PUSH2 0x207E JUMP JUMPDEST DUP2 MSTORE PUSH1 0x20 ADD SWAP1 PUSH1 0x1 SWAP1 SUB SWAP1 DUP2 PUSH2 0x16B0 JUMPI SWAP1 POP JUMPDEST POP SWAP1 POP PUSH0 PUSH0 SWAP1 POP JUMPDEST DUP3 PUSH1 0x6 ADD DUP1 SLOAD SWAP1 POP DUP2 LT ISZERO PUSH2 0x174F JUMPI DUP3 PUSH1 0x6 ADD DUP2 DUP2 SLOAD DUP2 LT PUSH2 0x16F8 JUMPI PUSH2 0x16F7 PUSH2 0x2E05 JUMP JUMPDEST JUMPDEST SWAP1 PUSH0 MSTORE PUSH1 0x20 PUSH0 KECCAK256 SWAP1 PUSH1 0x6 MUL ADD PUSH0 ADD PUSH1 0x40 MLOAD DUP1 PUSH1 0x40 ADD PUSH1 0x40 MSTORE SWAP1 DUP2 PUSH0 DUP3 ADD SLOAD DUP2 MSTORE PUSH1 0x20 ADD PUSH1 0x1 DUP3 ADD SLOAD DUP2 MSTORE POP POP DUP3 DUP3 DUP2 MLOAD DUP2 LT PUSH2 0x1737 JUMPI PUSH2 0x1736 PUSH2 0x2E05 JUMP JUMPDEST JUMPDEST PUSH1 0x20 MUL PUSH1 0x20 ADD ADD DUP2 SWAP1 MSTORE POP DUP1 DUP1 PUSH1 0x1 ADD SWAP2 POP POP PUSH2 0x16D3 JUMP JUMPDEST POP DUP1 SWAP3 POP POP POP SWAP2 SWAP1 POP JUMP JUMPDEST PUSH1 0x60 PUSH0 PUSH0 SWAP1 POP PUSH0 PUSH0 SWAP1 POP JUMPDEST PUSH1 0x1 DUP1 SLOAD SWAP1 POP DUP2 LT ISZERO PUSH2 0x17C3 JUMPI PUSH1 0x1 DUP2 DUP2 SLOAD DUP2 LT PUSH2 0x1786 JUMPI PUSH2 0x1785 PUSH2 0x2E05 JUMP JUMPDEST JUMPDEST SWAP1 PUSH0 MSTORE PUSH1 0x20 PUSH0 KECCAK256 SWAP1 PUSH1 0x8 MUL ADD PUSH1 0x7 ADD PUSH0 SWAP1 SLOAD SWAP1 PUSH2 0x100 EXP SWAP1 DIV PUSH1 0xFF AND ISZERO PUSH2 0x17B6 JUMPI DUP2 DUP1 PUSH2 0x17B2 SWAP1 PUSH2 0x36B5 JUMP JUMPDEST SWAP3 POP POP JUMPDEST DUP1 DUP1 PUSH1 0x1 ADD SWAP2 POP POP PUSH2 0x1765 JUMP JUMPDEST POP PUSH0 DUP2 PUSH8 0xFFFFFFFFFFFFFFFF DUP2 GT ISZERO PUSH2 0x17DF JUMPI PUSH2 0x17DE PUSH2 0x22D1 JUMP JUMPDEST JUMPDEST PUSH1 0x40 MLOAD SWAP1 DUP1 DUP3 MSTORE DUP1 PUSH1 0x20 MUL PUSH1 0x20 ADD DUP3 ADD PUSH1 0x40 MSTORE DUP1 ISZERO PUSH2 0x1818 JUMPI DUP2 PUSH1 0x20 ADD JUMPDEST PUSH2 0x1805 PUSH2 0x2096 JUMP JUMPDEST DUP2 MSTORE PUSH1 0x20 ADD SWAP1 PUSH1 0x1 SWAP1 SUB SWAP1 DUP2 PUSH2 0x17FD JUMPI SWAP1 POP JUMPDEST POP SWAP1 POP PUSH0 PUSH0 SWAP1 POP PUSH0 PUSH0 SWAP1 POP JUMPDEST PUSH1 0x1 DUP1 SLOAD SWAP1 POP DUP2 LT ISZERO PUSH2 0x1BD1 JUMPI PUSH1 0x1 DUP2 DUP2 SLOAD DUP2 LT PUSH2 0x1845 JUMPI PUSH2 0x1844 PUSH2 0x2E05 JUMP JUMPDEST JUMPDEST SWAP1 PUSH0 MSTORE PUSH1 0x20 PUSH0 KECCAK256 SWAP1 PUSH1 0x8 MUL ADD PUSH1 0x7 ADD PUSH0 SWAP1 SLOAD SWAP1 PUSH2 0x100 EXP SWAP1 DIV PUSH1 0xFF AND ISZERO PUSH2 0x1BC4 JUMPI PUSH2 0x186E PUSH2 0x2096 JUMP JUMPDEST PUSH1 0x1 DUP3 DUP2 SLOAD DUP2 LT PUSH2 0x1882 JUMPI PUSH2 0x1881 PUSH2 0x2E05 JUMP JUMPDEST JUMPDEST SWAP1 PUSH0 MSTORE PUSH1 0x20 PUSH0 KECCAK256 SWAP1 PUSH1 0x8 MUL ADD PUSH0 ADD PUSH0 SWAP1 SLOAD SWAP1 PUSH2 0x100 EXP SWAP1 DIV PUSH20 0xFFFFFFFFFFFFFFFFFFFFFFFFFFFFFFFFFFFFFFFF AND DUP2 PUSH0 ADD SWAP1 PUSH20 0xFFFFFFFFFFFFFFFFFFFFFFFFFFFFFFFFFFFFFFFF AND SWAP1 DUP2 PUSH20 0xFFFFFFFFFFFFFFFFFFFFFFFFFFFFFFFFFFFFFFFF AND DUP2 MSTORE POP POP PUSH1 0x1 DUP3 DUP2 SLOAD DUP2 LT PUSH2 0x18FA JUMPI PUSH2 0x18F9 PUSH2 0x2E05 JUMP JUMPDEST JUMPDEST SWAP1 PUSH0 MSTORE PUSH1 0x20 PUSH0 KECCAK256 SWAP1 PUSH1 0x8 MUL ADD PUSH1 0x1 ADD DUP1 SLOAD PUSH2 0x1914 SWAP1 PUSH2 0x2A5F JUMP JUMPDEST DUP1 PUSH1 0x1F ADD PUSH1 0x20 DUP1 SWAP2 DIV MUL PUSH1 0x20 ADD PUSH1 0x40 MLOAD SWAP1 DUP2 ADD PUSH1 0x40 MSTORE DUP1 SWAP3 SWAP2 SWAP1 DUP2 DUP2 MSTORE PUSH1 0x20 ADD DUP3 DUP1 SLOAD PUSH2 0x1940 SWAP1 PUSH2 0x2A5F JUMP JUMPDEST DUP1 ISZERO PUSH2 0x198B JUMPI DUP1 PUSH1 0x1F LT PUSH2 0x1962 JUMPI PUSH2 0x100 DUP1 DUP4 SLOAD DIV MUL DUP4 MSTORE SWAP2 PUSH1 0x20 ADD SWAP2 PUSH2 0x198B JUMP JUMPDEST DUP3 ADD SWAP2 SWAP1 PUSH0 MSTORE PUSH1 0x20 PUSH0 KECCAK256 SWAP1 JUMPDEST DUP2 SLOAD DUP2 MSTORE SWAP1 PUSH1 0x1 ADD SWAP1 PUSH1 0x20 ADD DUP1 DUP4 GT PUSH2 0x196E JUMPI DUP3 SWAP1 SUB PUSH1 0x1F AND DUP3 ADD SWAP2 JUMPDEST POP POP POP POP POP DUP2 PUSH1 0x20 ADD DUP2 SWAP1 MSTORE POP PUSH1 0x1 DUP3 DUP2 SLOAD DUP2 LT PUSH2 0x19AC JUMPI PUSH2 0x19AB PUSH2 0x2E05 JUMP JUMPDEST JUMPDEST SWAP1 PUSH0 MSTORE PUSH1 0x20 PUSH0 KECCAK256 SWAP1 PUSH1 0x8 MUL ADD PUSH1 0x2 ADD DUP1 SLOAD PUSH2 0x19C6 SWAP1 PUSH2 0x2A5F JUMP JUMPDEST DUP1 PUSH1 0x1F ADD PUSH1 0x20 DUP1 SWAP2 DIV MUL PUSH1 0x20 ADD PUSH1 0x40 MLOAD SWAP1 DUP2 ADD PUSH1 0x40 MSTORE DUP1 SWAP3 SWAP2 SWAP1 DUP2 DUP2 MSTORE PUSH1 0x20 ADD DUP3 DUP1 SLOAD PUSH2 0x19F2 SWAP1 PUSH2 0x2A5F JUMP JUMPDEST DUP1 ISZERO PUSH2 0x1A3D JUMPI DUP1 PUSH1 0x1F LT PUSH2 0x1A14 JUMPI PUSH2 0x100 DUP1 DUP4 SLOAD DIV MUL DUP4 MSTORE SWAP2 PUSH1 0x20 ADD SWAP2 PUSH2 0x1A3D JUMP JUMPDEST DUP3 ADD SWAP2 SWAP1 PUSH0 MSTORE PUSH1 0x20 PUSH0 KECCAK256 SWAP1 JUMPDEST DUP2 SLOAD DUP2 MSTORE SWAP1 PUSH1 0x1 ADD SWAP1 PUSH1 0x20 ADD DUP1 DUP4 GT PUSH2 0x1A20 JUMPI DUP3 SWAP1 SUB PUSH1 0x1F AND DUP3 ADD SWAP2 JUMPDEST POP POP POP POP POP DUP2 PUSH1 0x40 ADD DUP2 SWAP1 MSTORE POP PUSH1 0x1 DUP3 DUP2 SLOAD DUP2 LT PUSH2 0x1A5E JUMPI PUSH2 0x1A5D PUSH2 0x2E05 JUMP JUMPDEST JUMPDEST SWAP1 PUSH0 MSTORE PUSH1 0x20 PUSH0 KECCAK256 SWAP1 PUSH1 0x8 MUL ADD PUSH1 0x3 ADD DUP1 SLOAD PUSH2 0x1A78 SWAP1 PUSH2 0x2A5F JUMP JUMPDEST DUP1 PUSH1 0x1F ADD PUSH1 0x20 DUP1 SWAP2 DIV MUL PUSH1 0x20 ADD PUSH1 0x40 MLOAD SWAP1 DUP2 ADD PUSH1 0x40 MSTORE DUP1 SWAP3 SWAP2 SWAP1 DUP2 DUP2 MSTORE PUSH1 0x20 ADD DUP3 DUP1 SLOAD PUSH2 0x1AA4 SWAP1 PUSH2 0x2A5F JUMP JUMPDEST DUP1 ISZERO PUSH2 0x1AEF JUMPI DUP1 PUSH1 0x1F LT PUSH2 0x1AC6 JUMPI PUSH2 0x100 DUP1 DUP4 SLOAD DIV MUL DUP4 MSTORE SWAP2 PUSH1 0x20 ADD SWAP2 PUSH2 0x1AEF JUMP JUMPDEST DUP3 ADD SWAP2 SWAP1 PUSH0 MSTORE PUSH1 0x20 PUSH0 KECCAK256 SWAP1 JUMPDEST DUP2 SLOAD DUP2 MSTORE SWAP1 PUSH1 0x1 ADD SWAP1 PUSH1 0x20 ADD DUP1 DUP4 GT PUSH2 0x1AD2 JUMPI DUP3 SWAP1 SUB PUSH1 0x1F AND DUP3 ADD SWAP2 JUMPDEST POP POP POP POP POP DUP2 PUSH1 0x60 ADD DUP2 SWAP1 MSTORE POP PUSH1 0x1 DUP3 DUP2 SLOAD DUP2 LT PUSH2 0x1B10 JUMPI PUSH2 0x1B0F PUSH2 0x2E05 JUMP JUMPDEST JUMPDEST SWAP1 PUSH0 MSTORE PUSH1 0x20 PUSH0 KECCAK256 SWAP1 PUSH1 0x8 MUL ADD PUSH1 0x4 ADD SLOAD DUP2 PUSH1 0x80 ADD DUP2 DUP2 MSTORE POP POP PUSH1 0x1 DUP3 DUP2 SLOAD DUP2 LT PUSH2 0x1B3D JUMPI PUSH2 0x1B3C PUSH2 0x2E05 JUMP JUMPDEST JUMPDEST SWAP1 PUSH0 MSTORE PUSH1 0x20 PUSH0 KECCAK256 SWAP1 PUSH1 0x8 MUL ADD PUSH1 0x5 ADD SLOAD DUP2 PUSH1 0xA0 ADD DUP2 DUP2 MSTORE POP POP PUSH1 0x1 DUP3 DUP2 SLOAD DUP2 LT PUSH2 0x1B6A JUMPI PUSH2 0x1B69 PUSH2 0x2E05 JUMP JUMPDEST JUMPDEST SWAP1 PUSH0 MSTORE PUSH1 0x20 PUSH0 KECCAK256 SWAP1 PUSH1 0x8 MUL ADD PUSH1 0x7 ADD PUSH0 SWAP1 SLOAD SWAP1 PUSH2 0x100 EXP SWAP1 DIV PUSH1 0xFF AND DUP2 PUSH1 0xC0 ADD SWAP1 ISZERO ISZERO SWAP1 DUP2 ISZERO ISZERO DUP2 MSTORE POP POP DUP1 DUP5 DUP5 DUP2 MLOAD DUP2 LT PUSH2 0x1BA9 JUMPI PUSH2 0x1BA8 PUSH2 0x2E05 JUMP JUMPDEST JUMPDEST PUSH1 0x20 MUL PUSH1 0x20 ADD ADD DUP2 SWAP1 MSTORE POP DUP3 DUP1 PUSH2 0x1BBF SWAP1 PUSH2 0x36B5 JUMP JUMPDEST SWAP4 POP POP POP JUMPDEST DUP1 DUP1 PUSH1 0x1 ADD SWAP2 POP POP PUSH2 0x1824 JUMP JUMPDEST POP DUP2 SWAP4 POP POP POP POP SWAP1 JUMP JUMPDEST PUSH0 PUSH1 0x1 DUP3 DUP2 SLOAD DUP2 LT PUSH2 0x1BF0 JUMPI PUSH2 0x1BEF PUSH2 0x2E05 JUMP JUMPDEST JUMPDEST SWAP1 PUSH0 MSTORE PUSH1 0x20 PUSH0 KECCAK256 SWAP1 PUSH1 0x8 MUL ADD SWAP1 POP PUSH0 DUP2 PUSH1 0x6 ADD DUP3 PUSH1 0x5 ADD SLOAD DUP2 SLOAD DUP2 LT PUSH2 0x1C19 JUMPI PUSH2 0x1C18 PUSH2 0x2E05 JUMP JUMPDEST JUMPDEST SWAP1 PUSH0 MSTORE PUSH1 0x20 PUSH0 KECCAK256 SWAP1 PUSH1 0x6 MUL ADD SWAP1 POP PUSH0 DUP2 PUSH1 0x2 ADD SLOAD SWAP1 POP PUSH0 DUP4 PUSH1 0x5 ADD SLOAD GT ISZERO PUSH2 0x1C7F JUMPI DUP3 PUSH1 0x6 ADD PUSH1 0x1 DUP5 PUSH1 0x5 ADD SLOAD PUSH2 0x1C50 SWAP2 SWAP1 PUSH2 0x2DB9 JUMP JUMPDEST DUP2 SLOAD DUP2 LT PUSH2 0x1C61 JUMPI PUSH2 0x1C60 PUSH2 0x2E05 JUMP JUMPDEST JUMPDEST SWAP1 PUSH0 MSTORE PUSH1 0x20 PUSH0 KECCAK256 SWAP1 PUSH1 0x6 MUL ADD PUSH1 0x2 ADD SLOAD DUP2 PUSH2 0x1C7C SWAP2 SWAP1 PUSH2 0x2DB9 JUMP JUMPDEST SWAP1 POP JUMPDEST DUP2 PUSH0 ADD PUSH0 ADD SLOAD DUP4 PUSH1 0x4 ADD SLOAD LT PUSH2 0x1D35 JUMPI PUSH1 0x1 DUP3 PUSH1 0x5 ADD PUSH0 PUSH2 0x100 EXP DUP2 SLOAD DUP2 PUSH1 0xFF MUL NOT AND SWAP1 DUP4 ISZERO ISZERO MUL OR SWAP1 SSTORE POP PUSH2 0x1CD7 DUP4 PUSH0 ADD PUSH0 SWAP1 SLOAD SWAP1 PUSH2 0x100 EXP SWAP1 DIV PUSH20 0xFFFFFFFFFFFFFFFFFFFFFFFFFFFFFFFFFFFFFFFF AND DUP3 PUSH2 0x1DE5 JUMP JUMPDEST PUSH1 0x1 DUP4 PUSH1 0x6 ADD DUP1 SLOAD SWAP1 POP PUSH2 0x1CEB SWAP2 SWAP1 PUSH2 0x2DB9 JUMP JUMPDEST DUP4 PUSH1 0x5 ADD SLOAD LT ISZERO PUSH2 0x1D14 JUMPI DUP3 PUSH1 0x5 ADD PUSH0 DUP2 SLOAD DUP1 SWAP3 SWAP2 SWAP1 PUSH2 0x1D0A SWAP1 PUSH2 0x36B5 JUMP JUMPDEST SWAP2 SWAP1 POP SSTORE POP PUSH2 0x1D30 JUMP JUMPDEST PUSH0 DUP4 PUSH1 0x7 ADD PUSH0 PUSH2 0x100 EXP DUP2 SLOAD DUP2 PUSH1 0xFF MUL NOT AND SWAP1 DUP4 ISZERO ISZERO MUL OR SWAP1 SSTORE POP JUMPDEST PUSH2 0x1D3F JUMP JUMPDEST PUSH2 0x1D3E DUP5 PUSH2 0x1D45 JUMP JUMPDEST JUMPDEST POP POP POP POP JUMP JUMPDEST PUSH0 PUSH1 0x1 DUP3 DUP2 SLOAD DUP2 LT PUSH2 0x1D5A JUMPI PUSH2 0x1D59 PUSH2 0x2E05 JUMP JUMPDEST JUMPDEST SWAP1 PUSH0 MSTORE PUSH1 0x20 PUSH0 KECCAK256 SWAP1 PUSH1 0x8 MUL ADD SWAP1 POP DUP1 PUSH1 0x7 ADD PUSH0 SWAP1 SLOAD SWAP1 PUSH2 0x100 EXP SWAP1 DIV PUSH1 0xFF AND PUSH2 0x1DB8 JUMPI PUSH1 0x40 MLOAD PUSH32 0x8C379A000000000000000000000000000000000000000000000000000000000 DUP2 MSTORE PUSH1 0x4 ADD PUSH2 0x1DAF SWAP1 PUSH2 0x3746 JUMP JUMPDEST PUSH1 0x40 MLOAD DUP1 SWAP2 SUB SWAP1 REVERT JUMPDEST PUSH0 DUP2 PUSH1 0x7 ADD PUSH0 PUSH2 0x100 EXP DUP2 SLOAD DUP2 PUSH1 0xFF MUL NOT AND SWAP1 DUP4 ISZERO ISZERO MUL OR SWAP1 SSTORE POP PUSH2 0x1DE1 DUP3 DUP3 PUSH1 0x5 ADD SLOAD PUSH2 0x1E92 JUMP JUMPDEST POP POP JUMP JUMPDEST PUSH0 DUP3 PUSH20 0xFFFFFFFFFFFFFFFFFFFFFFFFFFFFFFFFFFFFFFFF AND DUP3 PUSH1 0x40 MLOAD PUSH2 0x1E0A SWAP1 PUSH2 0x323B JUMP JUMPDEST PUSH0 PUSH1 0x40 MLOAD DUP1 DUP4 SUB DUP2 DUP6 DUP8 GAS CALL SWAP3 POP POP POP RETURNDATASIZE DUP1 PUSH0 DUP2 EQ PUSH2 0x1E44 JUMPI PUSH1 0x40 MLOAD SWAP2 POP PUSH1 0x1F NOT PUSH1 0x3F RETURNDATASIZE ADD AND DUP3 ADD PUSH1 0x40 MSTORE RETURNDATASIZE DUP3 MSTORE RETURNDATASIZE PUSH0 PUSH1 0x20 DUP5 ADD RETURNDATACOPY PUSH2 0x1E49 JUMP JUMPDEST PUSH1 0x60 SWAP2 POP JUMPDEST POP POP SWAP1 POP DUP1 PUSH2 0x1E8D JUMPI PUSH1 0x40 MLOAD PUSH32 0x8C379A000000000000000000000000000000000000000000000000000000000 DUP2 MSTORE PUSH1 0x4 ADD PUSH2 0x1E84 SWAP1 PUSH2 0x37AE JUMP JUMPDEST PUSH1 0x40 MLOAD DUP1 SWAP2 SUB SWAP1 REVERT JUMPDEST POP POP POP JUMP JUMPDEST PUSH0 PUSH1 0x1 DUP4 DUP2 SLOAD DUP2 LT PUSH2 0x1EA7 JUMPI PUSH2 0x1EA6 PUSH2 0x2E05 JUMP JUMPDEST JUMPDEST SWAP1 PUSH0 MSTORE PUSH1 0x20 PUSH0 KECCAK256 SWAP1 PUSH1 0x8 MUL ADD SWAP1 POP PUSH0 DUP2 PUSH1 0x6 ADD DUP4 DUP2 SLOAD DUP2 LT PUSH2 0x1ECC JUMPI PUSH2 0x1ECB PUSH2 0x2E05 JUMP JUMPDEST JUMPDEST SWAP1 PUSH0 MSTORE PUSH1 0x20 PUSH0 KECCAK256 SWAP1 PUSH1 0x6 MUL ADD SWAP1 POP PUSH0 PUSH0 SWAP1 POP JUMPDEST DUP2 PUSH1 0x3 ADD DUP1 SLOAD SWAP1 POP DUP2 LT ISZERO PUSH2 0x2077 JUMPI PUSH0 DUP3 PUSH1 0x3 ADD DUP3 DUP2 SLOAD DUP2 LT PUSH2 0x1F05 JUMPI PUSH2 0x1F04 PUSH2 0x2E05 JUMP JUMPDEST JUMPDEST SWAP1 PUSH0 MSTORE PUSH1 0x20 PUSH0 KECCAK256 ADD PUSH0 SWAP1 SLOAD SWAP1 PUSH2 0x100 EXP SWAP1 DIV PUSH20 0xFFFFFFFFFFFFFFFFFFFFFFFFFFFFFFFFFFFFFFFF AND SWAP1 POP PUSH0 DUP4 PUSH1 0x4 ADD PUSH0 DUP4 PUSH20 0xFFFFFFFFFFFFFFFFFFFFFFFFFFFFFFFFFFFFFFFF AND PUSH20 0xFFFFFFFFFFFFFFFFFFFFFFFFFFFFFFFFFFFFFFFF AND DUP2 MSTORE PUSH1 0x20 ADD SWAP1 DUP2 MSTORE PUSH1 0x20 ADD PUSH0 KECCAK256 SLOAD SWAP1 POP PUSH0 DUP2 GT ISZERO PUSH2 0x2068 JUMPI PUSH0 DUP5 PUSH1 0x4 ADD PUSH0 DUP5 PUSH20 0xFFFFFFFFFFFFFFFFFFFFFFFFFFFFFFFFFFFFFFFF AND PUSH20 0xFFFFFFFFFFFFFFFFFFFFFFFFFFFFFFFFFFFFFFFF AND DUP2 MSTORE PUSH1 0x20 ADD SWAP1 DUP2 MSTORE PUSH1 0x20 ADD PUSH0 KECCAK256 DUP2 SWAP1 SSTORE POP PUSH0 DUP3 PUSH20 0xFFFFFFFFFFFFFFFFFFFFFFFFFFFFFFFFFFFFFFFF AND DUP3 PUSH1 0x40 MLOAD PUSH2 0x1FE3 SWAP1 PUSH2 0x323B JUMP JUMPDEST PUSH0 PUSH1 0x40 MLOAD DUP1 DUP4 SUB DUP2 DUP6 DUP8 GAS CALL SWAP3 POP POP POP RETURNDATASIZE DUP1 PUSH0 DUP2 EQ PUSH2 0x201D JUMPI PUSH1 0x40 MLOAD SWAP2 POP PUSH1 0x1F NOT PUSH1 0x3F RETURNDATASIZE ADD AND DUP3 ADD PUSH1 0x40 MSTORE RETURNDATASIZE DUP3 MSTORE RETURNDATASIZE PUSH0 PUSH1 0x20 DUP5 ADD RETURNDATACOPY PUSH2 0x2022 JUMP JUMPDEST PUSH1 0x60 SWAP2 POP JUMPDEST POP POP SWAP1 POP DUP1 PUSH2 0x2066 JUMPI PUSH1 0x40 MLOAD PUSH32 0x8C379A000000000000000000000000000000000000000000000000000000000 DUP2 MSTORE PUSH1 0x4 ADD PUSH2 0x205D SWAP1 PUSH2 0x3816 JUMP JUMPDEST PUSH1 0x40 MLOAD DUP1 SWAP2 SUB SWAP1 REVERT JUMPDEST POP JUMPDEST POP POP DUP1 DUP1 PUSH1 0x1 ADD SWAP2 POP POP PUSH2 0x1EDF JUMP JUMPDEST POP POP POP POP POP JUMP JUMPDEST PUSH1 0x40 MLOAD DUP1 PUSH1 0x40 ADD PUSH1 0x40 MSTORE DUP1 PUSH0 DUP2 MSTORE PUSH1 0x20 ADD PUSH0 DUP2 MSTORE POP SWAP1 JUMP JUMPDEST PUSH1 0x40 MLOAD DUP1 PUSH1 0xE0 ADD PUSH1 0x40 MSTORE DUP1 PUSH0 PUSH20 0xFFFFFFFFFFFFFFFFFFFFFFFFFFFFFFFFFFFFFFFF AND DUP2 MSTORE PUSH1 0x20 ADD PUSH1 0x60 DUP2 MSTORE PUSH1 0x20 ADD PUSH1 0x60 DUP2 MSTORE PUSH1 0x20 ADD PUSH1 0x60 DUP2 MSTORE PUSH1 0x20 ADD PUSH0 DUP2 MSTORE PUSH1 0x20 ADD PUSH0 DUP2 MSTORE PUSH1 0x20 ADD PUSH0 ISZERO ISZERO DUP2 MSTORE POP SWAP1 JUMP JUMPDEST PUSH0 PUSH20 0xFFFFFFFFFFFFFFFFFFFFFFFFFFFFFFFFFFFFFFFF DUP3 AND SWAP1 POP SWAP2 SWAP1 POP JUMP JUMPDEST PUSH0 PUSH2 0x2110 DUP3 PUSH2 0x20E7 JUMP JUMPDEST SWAP1 POP SWAP2 SWAP1 POP JUMP JUMPDEST PUSH2 0x2120 DUP2 PUSH2 0x2106 JUMP JUMPDEST DUP3 MSTORE POP POP JUMP JUMPDEST PUSH0 PUSH1 0x20 DUP3 ADD SWAP1 POP PUSH2 0x2139 PUSH0 DUP4 ADD DUP5 PUSH2 0x2117 JUMP JUMPDEST SWAP3 SWAP2 POP POP JUMP JUMPDEST PUSH0 PUSH1 0x40 MLOAD SWAP1 POP SWAP1 JUMP JUMPDEST PUSH0 PUSH0 REVERT JUMPDEST PUSH0 PUSH0 REVERT JUMPDEST PUSH0 DUP2 SWAP1 POP SWAP2 SWAP1 POP JUMP JUMPDEST PUSH2 0x2162 DUP2 PUSH2 0x2150 JUMP JUMPDEST DUP2 EQ PUSH2 0x216C JUMPI PUSH0 PUSH0 REVERT JUMPDEST POP JUMP JUMPDEST PUSH0 DUP2 CALLDATALOAD SWAP1 POP PUSH2 0x217D DUP2 PUSH2 0x2159 JUMP JUMPDEST SWAP3 SWAP2 POP POP JUMP JUMPDEST PUSH0 PUSH1 0x20 DUP3 DUP5 SUB SLT ISZERO PUSH2 0x2198 JUMPI PUSH2 0x2197 PUSH2 0x2148 JUMP JUMPDEST JUMPDEST PUSH0 PUSH2 0x21A5 DUP5 DUP3 DUP6 ADD PUSH2 0x216F JUMP JUMPDEST SWAP2 POP POP SWAP3 SWAP2 POP POP JUMP JUMPDEST PUSH0 DUP2 MLOAD SWAP1 POP SWAP2 SWAP1 POP JUMP JUMPDEST PUSH0 DUP3 DUP3 MSTORE PUSH1 0x20 DUP3 ADD SWAP1 POP SWAP3 SWAP2 POP POP JUMP JUMPDEST DUP3 DUP2 DUP4 MCOPY PUSH0 DUP4 DUP4 ADD MSTORE POP POP POP JUMP JUMPDEST PUSH0 PUSH1 0x1F NOT PUSH1 0x1F DUP4 ADD AND SWAP1 POP SWAP2 SWAP1 POP JUMP JUMPDEST PUSH0 PUSH2 0x21F0 DUP3 PUSH2 0x21AE JUMP JUMPDEST PUSH2 0x21FA DUP2 DUP6 PUSH2 0x21B8 JUMP JUMPDEST SWAP4 POP PUSH2 0x220A DUP2 DUP6 PUSH1 0x20 DUP7 ADD PUSH2 0x21C8 JUMP JUMPDEST PUSH2 0x2213 DUP2 PUSH2 0x21D6 JUMP JUMPDEST DUP5 ADD SWAP2 POP POP SWAP3 SWAP2 POP POP JUMP JUMPDEST PUSH2 0x2227 DUP2 PUSH2 0x2150 JUMP JUMPDEST DUP3 MSTORE POP POP JUMP JUMPDEST PUSH0 DUP2 ISZERO ISZERO SWAP1 POP SWAP2 SWAP1 POP JUMP JUMPDEST PUSH2 0x2241 DUP2 PUSH2 0x222D JUMP JUMPDEST DUP3 MSTORE POP POP JUMP JUMPDEST PUSH0 PUSH1 0xE0 DUP3 ADD SWAP1 POP PUSH2 0x225A PUSH0 DUP4 ADD DUP11 PUSH2 0x2117 JUMP JUMPDEST DUP2 DUP2 SUB PUSH1 0x20 DUP4 ADD MSTORE PUSH2 0x226C DUP2 DUP10 PUSH2 0x21E6 JUMP JUMPDEST SWAP1 POP DUP2 DUP2 SUB PUSH1 0x40 DUP4 ADD MSTORE PUSH2 0x2280 DUP2 DUP9 PUSH2 0x21E6 JUMP JUMPDEST SWAP1 POP DUP2 DUP2 SUB PUSH1 0x60 DUP4 ADD MSTORE PUSH2 0x2294 DUP2 DUP8 PUSH2 0x21E6 JUMP JUMPDEST SWAP1 POP PUSH2 0x22A3 PUSH1 0x80 DUP4 ADD DUP7 PUSH2 0x221E JUMP JUMPDEST PUSH2 0x22B0 PUSH1 0xA0 DUP4 ADD DUP6 PUSH2 0x221E JUMP JUMPDEST PUSH2 0x22BD PUSH1 0xC0 DUP4 ADD DUP5 PUSH2 0x2238 JUMP JUMPDEST SWAP9 SWAP8 POP POP POP POP POP POP POP POP JUMP JUMPDEST PUSH0 PUSH0 REVERT JUMPDEST PUSH0 PUSH0 REVERT JUMPDEST PUSH32 0x4E487B7100000000000000000000000000000000000000000000000000000000 PUSH0 MSTORE PUSH1 0x41 PUSH1 0x4 MSTORE PUSH1 0x24 PUSH0 REVERT JUMPDEST PUSH2 0x2307 DUP3 PUSH2 0x21D6 JUMP JUMPDEST DUP2 ADD DUP2 DUP2 LT PUSH8 0xFFFFFFFFFFFFFFFF DUP3 GT OR ISZERO PUSH2 0x2326 JUMPI PUSH2 0x2325 PUSH2 0x22D1 JUMP JUMPDEST JUMPDEST DUP1 PUSH1 0x40 MSTORE POP POP POP JUMP JUMPDEST PUSH0 PUSH2 0x2338 PUSH2 0x213F JUMP JUMPDEST SWAP1 POP PUSH2 0x2344 DUP3 DUP3 PUSH2 0x22FE JUMP JUMPDEST SWAP2 SWAP1 POP JUMP JUMPDEST PUSH0 PUSH8 0xFFFFFFFFFFFFFFFF DUP3 GT ISZERO PUSH2 0x2363 JUMPI PUSH2 0x2362 PUSH2 0x22D1 JUMP JUMPDEST JUMPDEST PUSH2 0x236C DUP3 PUSH2 0x21D6 JUMP JUMPDEST SWAP1 POP PUSH1 0x20 DUP2 ADD SWAP1 POP SWAP2 SWAP1 POP JUMP JUMPDEST DUP3 DUP2 DUP4 CALLDATACOPY PUSH0 DUP4 DUP4 ADD MSTORE POP POP POP JUMP JUMPDEST PUSH0 PUSH2 0x2399 PUSH2 0x2394 DUP5 PUSH2 0x2349 JUMP JUMPDEST PUSH2 0x232F JUMP JUMPDEST SWAP1 POP DUP3 DUP2 MSTORE PUSH1 0x20 DUP2 ADD DUP5 DUP5 DUP5 ADD GT ISZERO PUSH2 0x23B5 JUMPI PUSH2 0x23B4 PUSH2 0x22CD JUMP JUMPDEST JUMPDEST PUSH2 0x23C0 DUP5 DUP3 DUP6 PUSH2 0x2379 JUMP JUMPDEST POP SWAP4 SWAP3 POP POP POP JUMP JUMPDEST PUSH0 DUP3 PUSH1 0x1F DUP4 ADD SLT PUSH2 0x23DC JUMPI PUSH2 0x23DB PUSH2 0x22C9 JUMP JUMPDEST JUMPDEST DUP2 CALLDATALOAD PUSH2 0x23EC DUP5 DUP3 PUSH1 0x20 DUP7 ADD PUSH2 0x2387 JUMP JUMPDEST SWAP2 POP POP SWAP3 SWAP2 POP POP JUMP JUMPDEST PUSH0 PUSH8 0xFFFFFFFFFFFFFFFF DUP3 GT ISZERO PUSH2 0x240F JUMPI PUSH2 0x240E PUSH2 0x22D1 JUMP JUMPDEST JUMPDEST PUSH1 0x20 DUP3 MUL SWAP1 POP PUSH1 0x20 DUP2 ADD SWAP1 POP SWAP2 SWAP1 POP JUMP JUMPDEST PUSH0 PUSH0 REVERT JUMPDEST PUSH0 PUSH0 REVERT JUMPDEST PUSH0 PUSH1 0x40 DUP3 DUP5 SUB SLT ISZERO PUSH2 0x243D JUMPI PUSH2 0x243C PUSH2 0x2424 JUMP JUMPDEST JUMPDEST PUSH2 0x2447 PUSH1 0x40 PUSH2 0x232F JUMP JUMPDEST SWAP1 POP PUSH0 PUSH2 0x2456 DUP5 DUP3 DUP6 ADD PUSH2 0x216F JUMP JUMPDEST PUSH0 DUP4 ADD MSTORE POP PUSH1 0x20 PUSH2 0x2469 DUP5 DUP3 DUP6 ADD PUSH2 0x216F JUMP JUMPDEST PUSH1 0x20 DUP4 ADD MSTORE POP SWAP3 SWAP2 POP POP JUMP JUMPDEST PUSH0 PUSH2 0x2487 PUSH2 0x2482 DUP5 PUSH2 0x23F5 JUMP JUMPDEST PUSH2 0x232F JUMP JUMPDEST SWAP1 POP DUP1 DUP4 DUP3 MSTORE PUSH1 0x20 DUP3 ADD SWAP1 POP PUSH1 0x40 DUP5 MUL DUP4 ADD DUP6 DUP2 GT ISZERO PUSH2 0x24AA JUMPI PUSH2 0x24A9 PUSH2 0x2420 JUMP JUMPDEST JUMPDEST DUP4 JUMPDEST DUP2 DUP2 LT ISZERO PUSH2 0x24D3 JUMPI DUP1 PUSH2 0x24BF DUP9 DUP3 PUSH2 0x2428 JUMP JUMPDEST DUP5 MSTORE PUSH1 0x20 DUP5 ADD SWAP4 POP POP PUSH1 0x40 DUP2 ADD SWAP1 POP PUSH2 0x24AC JUMP JUMPDEST POP POP POP SWAP4 SWAP3 POP POP POP JUMP JUMPDEST PUSH0 DUP3 PUSH1 0x1F DUP4 ADD SLT PUSH2 0x24F1 JUMPI PUSH2 0x24F0 PUSH2 0x22C9 JUMP JUMPDEST JUMPDEST DUP2 CALLDATALOAD PUSH2 0x2501 DUP5 DUP3 PUSH1 0x20 DUP7 ADD PUSH2 0x2475 JUMP JUMPDEST SWAP2 POP POP SWAP3 SWAP2 POP POP JUMP JUMPDEST PUSH0 PUSH0 PUSH0 PUSH0 PUSH1 0x80 DUP6 DUP8 SUB SLT ISZERO PUSH2 0x2522 JUMPI PUSH2 0x2521 PUSH2 0x2148 JUMP JUMPDEST JUMPDEST PUSH0 DUP6 ADD CALLDATALOAD PUSH8 0xFFFFFFFFFFFFFFFF DUP2 GT ISZERO PUSH2 0x253F JUMPI PUSH2 0x253E PUSH2 0x214C JUMP JUMPDEST JUMPDEST PUSH2 0x254B DUP8 DUP3 DUP9 ADD PUSH2 0x23C8 JUMP JUMPDEST SWAP5 POP POP PUSH1 0x20 DUP6 ADD CALLDATALOAD PUSH8 0xFFFFFFFFFFFFFFFF DUP2 GT ISZERO PUSH2 0x256C JUMPI PUSH2 0x256B PUSH2 0x214C JUMP JUMPDEST JUMPDEST PUSH2 0x2578 DUP8 DUP3 DUP9 ADD PUSH2 0x23C8 JUMP JUMPDEST SWAP4 POP POP PUSH1 0x40 DUP6 ADD CALLDATALOAD PUSH8 0xFFFFFFFFFFFFFFFF DUP2 GT ISZERO PUSH2 0x2599 JUMPI PUSH2 0x2598 PUSH2 0x214C JUMP JUMPDEST JUMPDEST PUSH2 0x25A5 DUP8 DUP3 DUP9 ADD PUSH2 0x23C8 JUMP JUMPDEST SWAP3 POP POP PUSH1 0x60 DUP6 ADD CALLDATALOAD PUSH8 0xFFFFFFFFFFFFFFFF DUP2 GT ISZERO PUSH2 0x25C6 JUMPI PUSH2 0x25C5 PUSH2 0x214C JUMP JUMPDEST JUMPDEST PUSH2 0x25D2 DUP8 DUP3 DUP9 ADD PUSH2 0x24DD JUMP JUMPDEST SWAP2 POP POP SWAP3 SWAP6 SWAP2 SWAP5 POP SWAP3 POP JUMP JUMPDEST PUSH0 DUP2 MLOAD SWAP1 POP SWAP2 SWAP1 POP JUMP JUMPDEST PUSH0 DUP3 DUP3 MSTORE PUSH1 0x20 DUP3 ADD SWAP1 POP SWAP3 SWAP2 POP POP JUMP JUMPDEST PUSH0 DUP2 SWAP1 POP PUSH1 0x20 DUP3 ADD SWAP1 POP SWAP2 SWAP1 POP JUMP JUMPDEST PUSH2 0x2610 DUP2 PUSH2 0x2106 JUMP JUMPDEST DUP3 MSTORE POP POP JUMP JUMPDEST PUSH0 PUSH2 0x2621 DUP4 DUP4 PUSH2 0x2607 JUMP JUMPDEST PUSH1 0x20 DUP4 ADD SWAP1 POP SWAP3 SWAP2 POP POP JUMP JUMPDEST PUSH0 PUSH1 0x20 DUP3 ADD SWAP1 POP SWAP2 SWAP1 POP JUMP JUMPDEST PUSH0 PUSH2 0x2643 DUP3 PUSH2 0x25DE JUMP JUMPDEST PUSH2 0x264D DUP2 DUP6 PUSH2 0x25E8 JUMP JUMPDEST SWAP4 POP PUSH2 0x2658 DUP4 PUSH2 0x25F8 JUMP JUMPDEST DUP1 PUSH0 JUMPDEST DUP4 DUP2 LT ISZERO PUSH2 0x2688 JUMPI DUP2 MLOAD PUSH2 0x266F DUP9 DUP3 PUSH2 0x2616 JUMP JUMPDEST SWAP8 POP PUSH2 0x267A DUP4 PUSH2 0x262D JUMP JUMPDEST SWAP3 POP POP PUSH1 0x1 DUP2 ADD SWAP1 POP PUSH2 0x265B JUMP JUMPDEST POP DUP6 SWAP4 POP POP POP POP SWAP3 SWAP2 POP POP JUMP JUMPDEST PUSH0 PUSH1 0x20 DUP3 ADD SWAP1 POP DUP2 DUP2 SUB PUSH0 DUP4 ADD MSTORE PUSH2 0x26AD DUP2 DUP5 PUSH2 0x2639 JUMP JUMPDEST SWAP1 POP SWAP3 SWAP2 POP POP JUMP JUMPDEST PUSH0 PUSH0 PUSH1 0x40 DUP4 DUP6 SUB SLT ISZERO PUSH2 0x26CB JUMPI PUSH2 0x26CA PUSH2 0x2148 JUMP JUMPDEST JUMPDEST PUSH0 PUSH2 0x26D8 DUP6 DUP3 DUP7 ADD PUSH2 0x216F JUMP JUMPDEST SWAP3 POP POP PUSH1 0x20 DUP4 ADD CALLDATALOAD PUSH8 0xFFFFFFFFFFFFFFFF DUP2 GT ISZERO PUSH2 0x26F9 JUMPI PUSH2 0x26F8 PUSH2 0x214C JUMP JUMPDEST JUMPDEST PUSH2 0x2705 DUP6 DUP3 DUP7 ADD PUSH2 0x24DD JUMP JUMPDEST SWAP2 POP POP SWAP3 POP SWAP3 SWAP1 POP JUMP JUMPDEST PUSH2 0x2718 DUP2 PUSH2 0x2150 JUMP JUMPDEST DUP3 MSTORE POP POP JUMP JUMPDEST PUSH1 0x40 DUP3 ADD PUSH0 DUP3 ADD MLOAD PUSH2 0x2732 PUSH0 DUP6 ADD DUP3 PUSH2 0x270F JUMP JUMPDEST POP PUSH1 0x20 DUP3 ADD MLOAD PUSH2 0x2745 PUSH1 0x20 DUP6 ADD DUP3 PUSH2 0x270F JUMP JUMPDEST POP POP POP POP JUMP JUMPDEST PUSH0 PUSH1 0x40 DUP3 ADD SWAP1 POP PUSH2 0x275E PUSH0 DUP4 ADD DUP5 PUSH2 0x271E JUMP JUMPDEST SWAP3 SWAP2 POP POP JUMP JUMPDEST PUSH0 DUP2 MLOAD SWAP1 POP SWAP2 SWAP1 POP JUMP JUMPDEST PUSH0 DUP3 DUP3 MSTORE PUSH1 0x20 DUP3 ADD SWAP1 POP SWAP3 SWAP2 POP POP JUMP JUMPDEST PUSH0 DUP2 SWAP1 POP PUSH1 0x20 DUP3 ADD SWAP1 POP SWAP2 SWAP1 POP JUMP JUMPDEST PUSH1 0x40 DUP3 ADD PUSH0 DUP3 ADD MLOAD PUSH2 0x27A1 PUSH0 DUP6 ADD DUP3 PUSH2 0x270F JUMP JUMPDEST POP PUSH1 0x20 DUP3 ADD MLOAD PUSH2 0x27B4 PUSH1 0x20 DUP6 ADD DUP3 PUSH2 0x270F JUMP JUMPDEST POP POP POP POP JUMP JUMPDEST PUSH0 PUSH2 0x27C5 DUP4 DUP4 PUSH2 0x278D JUMP JUMPDEST PUSH1 0x40 DUP4 ADD SWAP1 POP SWAP3 SWAP2 POP POP JUMP JUMPDEST PUSH0 PUSH1 0x20 DUP3 ADD SWAP1 POP SWAP2 SWAP1 POP JUMP JUMPDEST PUSH0 PUSH2 0x27E7 DUP3 PUSH2 0x2764 JUMP JUMPDEST PUSH2 0x27F1 DUP2 DUP6 PUSH2 0x276E JUMP JUMPDEST SWAP4 POP PUSH2 0x27FC DUP4 PUSH2 0x277E JUMP JUMPDEST DUP1 PUSH0 JUMPDEST DUP4 DUP2 LT ISZERO PUSH2 0x282C JUMPI DUP2 MLOAD PUSH2 0x2813 DUP9 DUP3 PUSH2 0x27BA JUMP JUMPDEST SWAP8 POP PUSH2 0x281E DUP4 PUSH2 0x27D1 JUMP JUMPDEST SWAP3 POP POP PUSH1 0x1 DUP2 ADD SWAP1 POP PUSH2 0x27FF JUMP JUMPDEST POP DUP6 SWAP4 POP POP POP POP SWAP3 SWAP2 POP POP JUMP JUMPDEST PUSH0 PUSH1 0x20 DUP3 ADD SWAP1 POP DUP2 DUP2 SUB PUSH0 DUP4 ADD MSTORE PUSH2 0x2851 DUP2 DUP5 PUSH2 0x27DD JUMP JUMPDEST SWAP1 POP SWAP3 SWAP2 POP POP JUMP JUMPDEST PUSH0 DUP2 MLOAD SWAP1 POP SWAP2 SWAP1 POP JUMP JUMPDEST PUSH0 DUP3 DUP3 MSTORE PUSH1 0x20 DUP3 ADD SWAP1 POP SWAP3 SWAP2 POP POP JUMP JUMPDEST PUSH0 DUP2 SWAP1 POP PUSH1 0x20 DUP3 ADD SWAP1 POP SWAP2 SWAP1 POP JUMP JUMPDEST PUSH0 DUP3 DUP3 MSTORE PUSH1 0x20 DUP3 ADD SWAP1 POP SWAP3 SWAP2 POP POP JUMP JUMPDEST PUSH0 PUSH2 0x289C DUP3 PUSH2 0x21AE JUMP JUMPDEST PUSH2 0x28A6 DUP2 DUP6 PUSH2 0x2882 JUMP JUMPDEST SWAP4 POP PUSH2 0x28B6 DUP2 DUP6 PUSH1 0x20 DUP7 ADD PUSH2 0x21C8 JUMP JUMPDEST PUSH2 0x28BF DUP2 PUSH2 0x21D6 JUMP JUMPDEST DUP5 ADD SWAP2 POP POP SWAP3 SWAP2 POP POP JUMP JUMPDEST PUSH2 0x28D3 DUP2 PUSH2 0x222D JUMP JUMPDEST DUP3 MSTORE POP POP JUMP JUMPDEST PUSH0 PUSH1 0xE0 DUP4 ADD PUSH0 DUP4 ADD MLOAD PUSH2 0x28EE PUSH0 DUP7 ADD DUP3 PUSH2 0x2607 JUMP JUMPDEST POP PUSH1 0x20 DUP4 ADD MLOAD DUP5 DUP3 SUB PUSH1 0x20 DUP7 ADD MSTORE PUSH2 0x2906 DUP3 DUP3 PUSH2 0x2892 JUMP JUMPDEST SWAP2 POP POP PUSH1 0x40 DUP4 ADD MLOAD DUP5 DUP3 SUB PUSH1 0x40 DUP7 ADD MSTORE PUSH2 0x2920 DUP3 DUP3 PUSH2 0x2892 JUMP JUMPDEST SWAP2 POP POP PUSH1 0x60 DUP4 ADD MLOAD DUP5 DUP3 SUB PUSH1 0x60 DUP7 ADD MSTORE PUSH2 0x293A DUP3 DUP3 PUSH2 0x2892 JUMP JUMPDEST SWAP2 POP POP PUSH1 0x80 DUP4 ADD MLOAD PUSH2 0x294F PUSH1 0x80 DUP7 ADD DUP3 PUSH2 0x270F JUMP JUMPDEST POP PUSH1 0xA0 DUP4 ADD MLOAD PUSH2 0x2962 PUSH1 0xA0 DUP7 ADD DUP3 PUSH2 0x270F JUMP JUMPDEST POP PUSH1 0xC0 DUP4 ADD MLOAD PUSH2 0x2975 PUSH1 0xC0 DUP7 ADD DUP3 PUSH2 0x28CA JUMP JUMPDEST POP DUP1 SWAP2 POP POP SWAP3 SWAP2 POP POP JUMP JUMPDEST PUSH0 PUSH2 0x298B DUP4 DUP4 PUSH2 0x28D9 JUMP JUMPDEST SWAP1 POP SWAP3 SWAP2 POP POP JUMP JUMPDEST PUSH0 PUSH1 0x20 DUP3 ADD SWAP1 POP SWAP2 SWAP1 POP JUMP JUMPDEST PUSH0 PUSH2 0x29A9 DUP3 PUSH2 0x2859 JUMP JUMPDEST PUSH2 0x29B3 DUP2 DUP6 PUSH2 0x2863 JUMP JUMPDEST SWAP4 POP DUP4 PUSH1 0x20 DUP3 MUL DUP6 ADD PUSH2 0x29C5 DUP6 PUSH2 0x2873 JUMP JUMPDEST DUP1 PUSH0 JUMPDEST DUP6 DUP2 LT ISZERO PUSH2 0x2A00 JUMPI DUP5 DUP5 SUB DUP10 MSTORE DUP2 MLOAD PUSH2 0x29E1 DUP6 DUP3 PUSH2 0x2980 JUMP JUMPDEST SWAP5 POP PUSH2 0x29EC DUP4 PUSH2 0x2993 JUMP JUMPDEST SWAP3 POP PUSH1 0x20 DUP11 ADD SWAP10 POP POP PUSH1 0x1 DUP2 ADD SWAP1 POP PUSH2 0x29C8 JUMP JUMPDEST POP DUP3 SWAP8 POP DUP8 SWAP6 POP POP POP POP POP POP SWAP3 SWAP2 POP POP JUMP JUMPDEST PUSH0 PUSH1 0x20 DUP3 ADD SWAP1 POP DUP2 DUP2 SUB PUSH0 DUP4 ADD MSTORE PUSH2 0x2A2A DUP2 DUP5 PUSH2 0x299F JUMP JUMPDEST SWAP1 POP SWAP3 SWAP2 POP POP JUMP JUMPDEST PUSH32 0x4E487B7100000000000000000000000000000000000000000000000000000000 PUSH0 MSTORE PUSH1 0x22 PUSH1 0x4 MSTORE PUSH1 0x24 PUSH0 REVERT JUMPDEST PUSH0 PUSH1 0x2 DUP3 DIV SWAP1 POP PUSH1 0x1 DUP3 AND DUP1 PUSH2 0x2A76 JUMPI PUSH1 0x7F DUP3 AND SWAP2 POP JUMPDEST PUSH1 0x20 DUP3 LT DUP2 SUB PUSH2 0x2A89 JUMPI PUSH2 0x2A88 PUSH2 0x2A32 JUMP JUMPDEST JUMPDEST POP SWAP2 SWAP1 POP JUMP JUMPDEST PUSH32 0x53797374656D206F776E65722063616E2774206372656174652070726F6A6563 PUSH0 DUP3 ADD MSTORE PUSH32 0x7473000000000000000000000000000000000000000000000000000000000000 PUSH1 0x20 DUP3 ADD MSTORE POP JUMP JUMPDEST PUSH0 PUSH2 0x2AE9 PUSH1 0x22 DUP4 PUSH2 0x21B8 JUMP JUMPDEST SWAP2 POP PUSH2 0x2AF4 DUP3 PUSH2 0x2A8F JUMP JUMPDEST PUSH1 0x40 DUP3 ADD SWAP1 POP SWAP2 SWAP1 POP JUMP JUMPDEST PUSH0 PUSH1 0x20 DUP3 ADD SWAP1 POP DUP2 DUP2 SUB PUSH0 DUP4 ADD MSTORE PUSH2 0x2B16 DUP2 PUSH2 0x2ADD JUMP JUMPDEST SWAP1 POP SWAP2 SWAP1 POP JUMP JUMPDEST PUSH0 DUP2 SWAP1 POP DUP2 PUSH0 MSTORE PUSH1 0x20 PUSH0 KECCAK256 SWAP1 POP SWAP2 SWAP1 POP JUMP JUMPDEST PUSH0 PUSH1 0x20 PUSH1 0x1F DUP4 ADD DIV SWAP1 POP SWAP2 SWAP1 POP JUMP JUMPDEST PUSH0 DUP3 DUP3 SHL SWAP1 POP SWAP3 SWAP2 POP POP JUMP JUMPDEST PUSH0 PUSH1 0x8 DUP4 MUL PUSH2 0x2B79 PUSH32 0xFFFFFFFFFFFFFFFFFFFFFFFFFFFFFFFFFFFFFFFFFFFFFFFFFFFFFFFFFFFFFFFF DUP3 PUSH2 0x2B3E JUMP JUMPDEST PUSH2 0x2B83 DUP7 DUP4 PUSH2 0x2B3E JUMP JUMPDEST SWAP6 POP DUP1 NOT DUP5 AND SWAP4 POP DUP1 DUP7 AND DUP5 OR SWAP3 POP POP POP SWAP4 SWAP3 POP POP POP JUMP JUMPDEST PUSH0 DUP2 SWAP1 POP SWAP2 SWAP1 POP JUMP JUMPDEST PUSH0 PUSH2 0x2BBE PUSH2 0x2BB9 PUSH2 0x2BB4 DUP5 PUSH2 0x2150 JUMP JUMPDEST PUSH2 0x2B9B JUMP JUMPDEST PUSH2 0x2150 JUMP JUMPDEST SWAP1 POP SWAP2 SWAP1 POP JUMP JUMPDEST PUSH0 DUP2 SWAP1 POP SWAP2 SWAP1 POP JUMP JUMPDEST PUSH2 0x2BD7 DUP4 PUSH2 0x2BA4 JUMP JUMPDEST PUSH2 0x2BEB PUSH2 0x2BE3 DUP3 PUSH2 0x2BC5 JUMP JUMPDEST DUP5 DUP5 SLOAD PUSH2 0x2B4A JUMP JUMPDEST DUP3 SSTORE POP POP POP POP JUMP JUMPDEST PUSH0 PUSH0 SWAP1 POP SWAP1 JUMP JUMPDEST PUSH2 0x2C02 PUSH2 0x2BF3 JUMP JUMPDEST PUSH2 0x2C0D DUP2 DUP5 DUP5 PUSH2 0x2BCE JUMP JUMPDEST POP POP POP JUMP JUMPDEST JUMPDEST DUP2 DUP2 LT ISZERO PUSH2 0x2C30 JUMPI PUSH2 0x2C25 PUSH0 DUP3 PUSH2 0x2BFA JUMP JUMPDEST PUSH1 0x1 DUP2 ADD SWAP1 POP PUSH2 0x2C13 JUMP JUMPDEST POP POP JUMP JUMPDEST PUSH1 0x1F DUP3 GT ISZERO PUSH2 0x2C75 JUMPI PUSH2 0x2C46 DUP2 PUSH2 0x2B1D JUMP JUMPDEST PUSH2 0x2C4F DUP5 PUSH2 0x2B2F JUMP JUMPDEST DUP2 ADD PUSH1 0x20 DUP6 LT ISZERO PUSH2 0x2C5E JUMPI DUP2 SWAP1 POP JUMPDEST PUSH2 0x2C72 PUSH2 0x2C6A DUP6 PUSH2 0x2B2F JUMP JUMPDEST DUP4 ADD DUP3 PUSH2 0x2C12 JUMP JUMPDEST POP POP JUMPDEST POP POP POP JUMP JUMPDEST PUSH0 DUP3 DUP3 SHR SWAP1 POP SWAP3 SWAP2 POP POP JUMP JUMPDEST PUSH0 PUSH2 0x2C95 PUSH0 NOT DUP5 PUSH1 0x8 MUL PUSH2 0x2C7A JUMP JUMPDEST NOT DUP1 DUP4 AND SWAP2 POP POP SWAP3 SWAP2 POP POP JUMP JUMPDEST PUSH0 PUSH2 0x2CAD DUP4 DUP4 PUSH2 0x2C86 JUMP JUMPDEST SWAP2 POP DUP3 PUSH1 0x2 MUL DUP3 OR SWAP1 POP SWAP3 SWAP2 POP POP JUMP JUMPDEST PUSH2 0x2CC6 DUP3 PUSH2 0x21AE JUMP JUMPDEST PUSH8 0xFFFFFFFFFFFFFFFF DUP2 GT ISZERO PUSH2 0x2CDF JUMPI PUSH2 0x2CDE PUSH2 0x22D1 JUMP JUMPDEST JUMPDEST PUSH2 0x2CE9 DUP3 SLOAD PUSH2 0x2A5F JUMP JUMPDEST PUSH2 0x2CF4 DUP3 DUP3 DUP6 PUSH2 0x2C34 JUMP JUMPDEST PUSH0 PUSH1 0x20 SWAP1 POP PUSH1 0x1F DUP4 GT PUSH1 0x1 DUP2 EQ PUSH2 0x2D25 JUMPI PUSH0 DUP5 ISZERO PUSH2 0x2D13 JUMPI DUP3 DUP8 ADD MLOAD SWAP1 POP JUMPDEST PUSH2 0x2D1D DUP6 DUP3 PUSH2 0x2CA2 JUMP JUMPDEST DUP7 SSTORE POP PUSH2 0x2D84 JUMP JUMPDEST PUSH1 0x1F NOT DUP5 AND PUSH2 0x2D33 DUP7 PUSH2 0x2B1D JUMP JUMPDEST PUSH0 JUMPDEST DUP3 DUP2 LT ISZERO PUSH2 0x2D5A JUMPI DUP5 DUP10 ADD MLOAD DUP3 SSTORE PUSH1 0x1 DUP3 ADD SWAP2 POP PUSH1 0x20 DUP6 ADD SWAP5 POP PUSH1 0x20 DUP2 ADD SWAP1 POP PUSH2 0x2D35 JUMP JUMPDEST DUP7 DUP4 LT ISZERO PUSH2 0x2D77 JUMPI DUP5 DUP10 ADD MLOAD PUSH2 0x2D73 PUSH1 0x1F DUP10 AND DUP3 PUSH2 0x2C86 JUMP JUMPDEST DUP4 SSTORE POP JUMPDEST PUSH1 0x1 PUSH1 0x2 DUP9 MUL ADD DUP9 SSTORE POP POP POP JUMPDEST POP POP POP POP POP POP JUMP JUMPDEST PUSH32 0x4E487B7100000000000000000000000000000000000000000000000000000000 PUSH0 MSTORE PUSH1 0x11 PUSH1 0x4 MSTORE PUSH1 0x24 PUSH0 REVERT JUMPDEST PUSH0 PUSH2 0x2DC3 DUP3 PUSH2 0x2150 JUMP JUMPDEST SWAP2 POP PUSH2 0x2DCE DUP4 PUSH2 0x2150 JUMP JUMPDEST SWAP3 POP DUP3 DUP3 SUB SWAP1 POP DUP2 DUP2 GT ISZERO PUSH2 0x2DE6 JUMPI PUSH2 0x2DE5 PUSH2 0x2D8C JUMP JUMPDEST JUMPDEST SWAP3 SWAP2 POP POP JUMP JUMPDEST PUSH0 PUSH1 0x20 DUP3 ADD SWAP1 POP PUSH2 0x2DFF PUSH0 DUP4 ADD DUP5 PUSH2 0x221E JUMP JUMPDEST SWAP3 SWAP2 POP POP JUMP JUMPDEST PUSH32 0x4E487B7100000000000000000000000000000000000000000000000000000000 PUSH0 MSTORE PUSH1 0x32 PUSH1 0x4 MSTORE PUSH1 0x24 PUSH0 REVERT JUMPDEST PUSH32 0x496E76616C69642070726F6A6563747320696E64657800000000000000000000 PUSH0 DUP3 ADD MSTORE POP JUMP JUMPDEST PUSH0 PUSH2 0x2E66 PUSH1 0x16 DUP4 PUSH2 0x21B8 JUMP JUMPDEST SWAP2 POP PUSH2 0x2E71 DUP3 PUSH2 0x2E32 JUMP JUMPDEST PUSH1 0x20 DUP3 ADD SWAP1 POP SWAP2 SWAP1 POP JUMP JUMPDEST PUSH0 PUSH1 0x20 DUP3 ADD SWAP1 POP DUP2 DUP2 SUB PUSH0 DUP4 ADD MSTORE PUSH2 0x2E93 DUP2 PUSH2 0x2E5A JUMP JUMPDEST SWAP1 POP SWAP2 SWAP1 POP JUMP JUMPDEST PUSH32 0x50726F6A656374206D7573742062652061637469766500000000000000000000 PUSH0 DUP3 ADD MSTORE POP JUMP JUMPDEST PUSH0 PUSH2 0x2ECE PUSH1 0x16 DUP4 PUSH2 0x21B8 JUMP JUMPDEST SWAP2 POP PUSH2 0x2ED9 DUP3 PUSH2 0x2E9A JUMP JUMPDEST PUSH1 0x20 DUP3 ADD SWAP1 POP SWAP2 SWAP1 POP JUMP JUMPDEST PUSH0 PUSH1 0x20 DUP3 ADD SWAP1 POP DUP2 DUP2 SUB PUSH0 DUP4 ADD MSTORE PUSH2 0x2EFB DUP2 PUSH2 0x2EC2 JUMP JUMPDEST SWAP1 POP SWAP2 SWAP1 POP JUMP JUMPDEST PUSH32 0x4D696C6573746F6E652073686F756C64206265206E6F74207265616368656400 PUSH0 DUP3 ADD MSTORE POP JUMP JUMPDEST PUSH0 PUSH2 0x2F36 PUSH1 0x1F DUP4 PUSH2 0x21B8 JUMP JUMPDEST SWAP2 POP PUSH2 0x2F41 DUP3 PUSH2 0x2F02 JUMP JUMPDEST PUSH1 0x20 DUP3 ADD SWAP1 POP SWAP2 SWAP1 POP JUMP JUMPDEST PUSH0 PUSH1 0x20 DUP3 ADD SWAP1 POP DUP2 DUP2 SUB PUSH0 DUP4 ADD MSTORE PUSH2 0x2F63 DUP2 PUSH2 0x2F2A JUMP JUMPDEST SWAP1 POP SWAP2 SWAP1 POP JUMP JUMPDEST PUSH0 PUSH1 0x80 DUP3 ADD SWAP1 POP PUSH2 0x2F7D PUSH0 DUP4 ADD DUP8 PUSH2 0x221E JUMP JUMPDEST PUSH2 0x2F8A PUSH1 0x20 DUP4 ADD DUP7 PUSH2 0x221E JUMP JUMPDEST PUSH2 0x2F97 PUSH1 0x40 DUP4 ADD DUP6 PUSH2 0x221E JUMP JUMPDEST PUSH2 0x2FA4 PUSH1 0x60 DUP4 ADD DUP5 PUSH2 0x221E JUMP JUMPDEST SWAP6 SWAP5 POP POP POP POP POP JUMP JUMPDEST PUSH32 0x50726F6A65637420646F65736E27742065786973740000000000000000000000 PUSH0 DUP3 ADD MSTORE POP JUMP JUMPDEST PUSH0 PUSH2 0x2FE1 PUSH1 0x15 DUP4 PUSH2 0x21B8 JUMP JUMPDEST SWAP2 POP PUSH2 0x2FEC DUP3 PUSH2 0x2FAD JUMP JUMPDEST PUSH1 0x20 DUP3 ADD SWAP1 POP SWAP2 SWAP1 POP JUMP JUMPDEST PUSH0 PUSH1 0x20 DUP3 ADD SWAP1 POP DUP2 DUP2 SUB PUSH0 DUP4 ADD MSTORE PUSH2 0x300E DUP2 PUSH2 0x2FD5 JUMP JUMPDEST SWAP1 POP SWAP2 SWAP1 POP JUMP JUMPDEST PUSH32 0x596F7520646F6E74206861766520656E6F756768206D6F6E657920746F206675 PUSH0 DUP3 ADD MSTORE PUSH32 0x6E64000000000000000000000000000000000000000000000000000000000000 PUSH1 0x20 DUP3 ADD MSTORE POP JUMP JUMPDEST PUSH0 PUSH2 0x306F PUSH1 0x22 DUP4 PUSH2 0x21B8 JUMP JUMPDEST SWAP2 POP PUSH2 0x307A DUP3 PUSH2 0x3015 JUMP JUMPDEST PUSH1 0x40 DUP3 ADD SWAP1 POP SWAP2 SWAP1 POP JUMP JUMPDEST PUSH0 PUSH1 0x20 DUP3 ADD SWAP1 POP DUP2 DUP2 SUB PUSH0 DUP4 ADD MSTORE PUSH2 0x309C DUP2 PUSH2 0x3063 JUMP JUMPDEST SWAP1 POP SWAP2 SWAP1 POP JUMP JUMPDEST PUSH32 0x46756E6420616D6F756E742063616E2774206265203000000000000000000000 PUSH0 DUP3 ADD MSTORE POP JUMP JUMPDEST PUSH0 PUSH2 0x30D7 PUSH1 0x16 DUP4 PUSH2 0x21B8 JUMP JUMPDEST SWAP2 POP PUSH2 0x30E2 DUP3 PUSH2 0x30A3 JUMP JUMPDEST PUSH1 0x20 DUP3 ADD SWAP1 POP SWAP2 SWAP1 POP JUMP JUMPDEST PUSH0 PUSH1 0x20 DUP3 ADD SWAP1 POP DUP2 DUP2 SUB PUSH0 DUP4 ADD MSTORE PUSH2 0x3104 DUP2 PUSH2 0x30CB JUMP JUMPDEST SWAP1 POP SWAP2 SWAP1 POP JUMP JUMPDEST PUSH32 0x50726F6A656374206D7573742062652061637469766520746F2066756E640000 PUSH0 DUP3 ADD MSTORE POP JUMP JUMPDEST PUSH0 PUSH2 0x313F PUSH1 0x1E DUP4 PUSH2 0x21B8 JUMP JUMPDEST SWAP2 POP PUSH2 0x314A DUP3 PUSH2 0x310B JUMP JUMPDEST PUSH1 0x20 DUP3 ADD SWAP1 POP SWAP2 SWAP1 POP JUMP JUMPDEST PUSH0 PUSH1 0x20 DUP3 ADD SWAP1 POP DUP2 DUP2 SUB PUSH0 DUP4 ADD MSTORE PUSH2 0x316C DUP2 PUSH2 0x3133 JUMP JUMPDEST SWAP1 POP SWAP2 SWAP1 POP JUMP JUMPDEST PUSH32 0x596F752063616E27742066756E6420616674657220646561646C696E65000000 PUSH0 DUP3 ADD MSTORE POP JUMP JUMPDEST PUSH0 PUSH2 0x31A7 PUSH1 0x1D DUP4 PUSH2 0x21B8 JUMP JUMPDEST SWAP2 POP PUSH2 0x31B2 DUP3 PUSH2 0x3173 JUMP JUMPDEST PUSH1 0x20 DUP3 ADD SWAP1 POP SWAP2 SWAP1 POP JUMP JUMPDEST PUSH0 PUSH1 0x20 DUP3 ADD SWAP1 POP DUP2 DUP2 SUB PUSH0 DUP4 ADD MSTORE PUSH2 0x31D4 DUP2 PUSH2 0x319B JUMP JUMPDEST SWAP1 POP SWAP2 SWAP1 POP JUMP JUMPDEST PUSH0 PUSH2 0x31E5 DUP3 PUSH2 0x2150 JUMP JUMPDEST SWAP2 POP PUSH2 0x31F0 DUP4 PUSH2 0x2150 JUMP JUMPDEST SWAP3 POP DUP3 DUP3 ADD SWAP1 POP DUP1 DUP3 GT ISZERO PUSH2 0x3208 JUMPI PUSH2 0x3207 PUSH2 0x2D8C JUMP JUMPDEST JUMPDEST SWAP3 SWAP2 POP POP JUMP JUMPDEST PUSH0 DUP2 SWAP1 POP SWAP3 SWAP2 POP POP JUMP JUMPDEST POP JUMP JUMPDEST PUSH0 PUSH2 0x3226 PUSH0 DUP4 PUSH2 0x320E JUMP JUMPDEST SWAP2 POP PUSH2 0x3231 DUP3 PUSH2 0x3218 JUMP JUMPDEST PUSH0 DUP3 ADD SWAP1 POP SWAP2 SWAP1 POP JUMP JUMPDEST PUSH0 PUSH2 0x3245 DUP3 PUSH2 0x321B JUMP JUMPDEST SWAP2 POP DUP2 SWAP1 POP SWAP2 SWAP1 POP JUMP JUMPDEST PUSH32 0x4661696C656420746F2072657475726E20737572706C75730000000000000000 PUSH0 DUP3 ADD MSTORE POP JUMP JUMPDEST PUSH0 PUSH2 0x3283 PUSH1 0x18 DUP4 PUSH2 0x21B8 JUMP JUMPDEST SWAP2 POP PUSH2 0x328E DUP3 PUSH2 0x324F JUMP JUMPDEST PUSH1 0x20 DUP3 ADD SWAP1 POP SWAP2 SWAP1 POP JUMP JUMPDEST PUSH0 PUSH1 0x20 DUP3 ADD SWAP1 POP DUP2 DUP2 SUB PUSH0 DUP4 ADD MSTORE PUSH2 0x32B0 DUP2 PUSH2 0x3277 JUMP JUMPDEST SWAP1 POP SWAP2 SWAP1 POP JUMP JUMPDEST PUSH32 0x4F6E6C792073797374656D206F776E6572206F722070726F6A656374206F776E PUSH0 DUP3 ADD MSTORE PUSH32 0x65722063616E2073746F702070726F6A65637473000000000000000000000000 PUSH1 0x20 DUP3 ADD MSTORE POP JUMP JUMPDEST PUSH0 PUSH2 0x3311 PUSH1 0x34 DUP4 PUSH2 0x21B8 JUMP JUMPDEST SWAP2 POP PUSH2 0x331C DUP3 PUSH2 0x32B7 JUMP JUMPDEST PUSH1 0x40 DUP3 ADD SWAP1 POP SWAP2 SWAP1 POP JUMP JUMPDEST PUSH0 PUSH1 0x20 DUP3 ADD SWAP1 POP DUP2 DUP2 SUB PUSH0 DUP4 ADD MSTORE PUSH2 0x333E DUP2 PUSH2 0x3305 JUMP JUMPDEST SWAP1 POP SWAP2 SWAP1 POP JUMP JUMPDEST PUSH32 0x43616E6E6F7420616464206E6577206D696C6573746F6E657320746F20696E61 PUSH0 DUP3 ADD MSTORE PUSH32 0x63746976652070726F6A65637400000000000000000000000000000000000000 PUSH1 0x20 DUP3 ADD MSTORE POP JUMP JUMPDEST PUSH0 PUSH2 0x339F PUSH1 0x2D DUP4 PUSH2 0x21B8 JUMP JUMPDEST SWAP2 POP PUSH2 0x33AA DUP3 PUSH2 0x3345 JUMP JUMPDEST PUSH1 0x40 DUP3 ADD SWAP1 POP SWAP2 SWAP1 POP JUMP JUMPDEST PUSH0 PUSH1 0x20 DUP3 ADD SWAP1 POP DUP2 DUP2 SUB PUSH0 DUP4 ADD MSTORE PUSH2 0x33CC DUP2 PUSH2 0x3393 JUMP JUMPDEST SWAP1 POP SWAP2 SWAP1 POP JUMP JUMPDEST PUSH32 0x4F6E6C792070726F6A6563742063726561746F722063616E20616464206E6577 PUSH0 DUP3 ADD MSTORE PUSH32 0x206D696C6573746F6E6573000000000000000000000000000000000000000000 PUSH1 0x20 DUP3 ADD MSTORE POP JUMP JUMPDEST PUSH0 PUSH2 0x342D PUSH1 0x2B DUP4 PUSH2 0x21B8 JUMP JUMPDEST SWAP2 POP PUSH2 0x3438 DUP3 PUSH2 0x33D3 JUMP JUMPDEST PUSH1 0x40 DUP3 ADD SWAP1 POP SWAP2 SWAP1 POP JUMP JUMPDEST PUSH0 PUSH1 0x20 DUP3 ADD SWAP1 POP DUP2 DUP2 SUB PUSH0 DUP4 ADD MSTORE PUSH2 0x345A DUP2 PUSH2 0x3421 JUMP JUMPDEST SWAP1 POP SWAP2 SWAP1 POP JUMP JUMPDEST PUSH32 0x4D7573742068617665206174206C65617374206F6E65206D696C6573746F6E65 PUSH0 DUP3 ADD MSTORE POP JUMP JUMPDEST PUSH0 PUSH2 0x3495 PUSH1 0x20 DUP4 PUSH2 0x21B8 JUMP JUMPDEST SWAP2 POP PUSH2 0x34A0 DUP3 PUSH2 0x3461 JUMP JUMPDEST PUSH1 0x20 DUP3 ADD SWAP1 POP SWAP2 SWAP1 POP JUMP JUMPDEST PUSH0 PUSH1 0x20 DUP3 ADD SWAP1 POP DUP2 DUP2 SUB PUSH0 DUP4 ADD MSTORE PUSH2 0x34C2 DUP2 PUSH2 0x3489 JUMP JUMPDEST SWAP1 POP SWAP2 SWAP1 POP JUMP JUMPDEST PUSH32 0x476F616C20616D6F756E742063616E2774206265203000000000000000000000 PUSH0 DUP3 ADD MSTORE POP JUMP JUMPDEST PUSH0 PUSH2 0x34FD PUSH1 0x16 DUP4 PUSH2 0x21B8 JUMP JUMPDEST SWAP2 POP PUSH2 0x3508 DUP3 PUSH2 0x34C9 JUMP JUMPDEST PUSH1 0x20 DUP3 ADD SWAP1 POP SWAP2 SWAP1 POP JUMP JUMPDEST PUSH0 PUSH1 0x20 DUP3 ADD SWAP1 POP DUP2 DUP2 SUB PUSH0 DUP4 ADD MSTORE PUSH2 0x352A DUP2 PUSH2 0x34F1 JUMP JUMPDEST SWAP1 POP SWAP2 SWAP1 POP JUMP JUMPDEST PUSH32 0x446561646C696E652063616E277420626520696E207468652070617374000000 PUSH0 DUP3 ADD MSTORE POP JUMP JUMPDEST PUSH0 PUSH2 0x3565 PUSH1 0x1D DUP4 PUSH2 0x21B8 JUMP JUMPDEST SWAP2 POP PUSH2 0x3570 DUP3 PUSH2 0x3531 JUMP JUMPDEST PUSH1 0x20 DUP3 ADD SWAP1 POP SWAP2 SWAP1 POP JUMP JUMPDEST PUSH0 PUSH1 0x20 DUP3 ADD SWAP1 POP DUP2 DUP2 SUB PUSH0 DUP4 ADD MSTORE PUSH2 0x3592 DUP2 PUSH2 0x3559 JUMP JUMPDEST SWAP1 POP SWAP2 SWAP1 POP JUMP JUMPDEST PUSH32 0x4D696C6573746F6E6520676F616C732073686F756C6420626520696E63726561 PUSH0 DUP3 ADD MSTORE PUSH32 0x73696E6700000000000000000000000000000000000000000000000000000000 PUSH1 0x20 DUP3 ADD MSTORE POP JUMP JUMPDEST PUSH0 PUSH2 0x35F3 PUSH1 0x24 DUP4 PUSH2 0x21B8 JUMP JUMPDEST SWAP2 POP PUSH2 0x35FE DUP3 PUSH2 0x3599 JUMP JUMPDEST PUSH1 0x40 DUP3 ADD SWAP1 POP SWAP2 SWAP1 POP JUMP JUMPDEST PUSH0 PUSH1 0x20 DUP3 ADD SWAP1 POP DUP2 DUP2 SUB PUSH0 DUP4 ADD MSTORE PUSH2 0x3620 DUP2 PUSH2 0x35E7 JUMP JUMPDEST SWAP1 POP SWAP2 SWAP1 POP JUMP JUMPDEST PUSH32 0x4D696C6573746F6E6520646561646C696E65732073686F756C6420626520696E PUSH0 DUP3 ADD MSTORE PUSH32 0x6372656173696E67000000000000000000000000000000000000000000000000 PUSH1 0x20 DUP3 ADD MSTORE POP JUMP JUMPDEST PUSH0 PUSH2 0x3681 PUSH1 0x28 DUP4 PUSH2 0x21B8 JUMP JUMPDEST SWAP2 POP PUSH2 0x368C DUP3 PUSH2 0x3627 JUMP JUMPDEST PUSH1 0x40 DUP3 ADD SWAP1 POP SWAP2 SWAP1 POP JUMP JUMPDEST PUSH0 PUSH1 0x20 DUP3 ADD SWAP1 POP DUP2 DUP2 SUB PUSH0 DUP4 ADD MSTORE PUSH2 0x36AE DUP2 PUSH2 0x3675 JUMP JUMPDEST SWAP1 POP SWAP2 SWAP1 POP JUMP JUMPDEST PUSH0 PUSH2 0x36BF DUP3 PUSH2 0x2150 JUMP JUMPDEST SWAP2 POP PUSH32 0xFFFFFFFFFFFFFFFFFFFFFFFFFFFFFFFFFFFFFFFFFFFFFFFFFFFFFFFFFFFFFFFF DUP3 SUB PUSH2 0x36F1 JUMPI PUSH2 0x36F0 PUSH2 0x2D8C JUMP JUMPDEST JUMPDEST PUSH1 0x1 DUP3 ADD SWAP1 POP SWAP2 SWAP1 POP JUMP JUMPDEST PUSH32 0x43616E6E6F742073746F7020696E6163746976652070726F6A65637400000000 PUSH0 DUP3 ADD MSTORE POP JUMP JUMPDEST PUSH0 PUSH2 0x3730 PUSH1 0x1C DUP4 PUSH2 0x21B8 JUMP JUMPDEST SWAP2 POP PUSH2 0x373B DUP3 PUSH2 0x36FC JUMP JUMPDEST PUSH1 0x20 DUP3 ADD SWAP1 POP SWAP2 SWAP1 POP JUMP JUMPDEST PUSH0 PUSH1 0x20 DUP3 ADD SWAP1 POP DUP2 DUP2 SUB PUSH0 DUP4 ADD MSTORE PUSH2 0x375D DUP2 PUSH2 0x3724 JUMP JUMPDEST SWAP1 POP SWAP2 SWAP1 POP JUMP JUMPDEST PUSH32 0x5472616E7366657220746F2063726561746F72206661696C6564000000000000 PUSH0 DUP3 ADD MSTORE POP JUMP JUMPDEST PUSH0 PUSH2 0x3798 PUSH1 0x1A DUP4 PUSH2 0x21B8 JUMP JUMPDEST SWAP2 POP PUSH2 0x37A3 DUP3 PUSH2 0x3764 JUMP JUMPDEST PUSH1 0x20 DUP3 ADD SWAP1 POP SWAP2 SWAP1 POP JUMP JUMPDEST PUSH0 PUSH1 0x20 DUP3 ADD SWAP1 POP DUP2 DUP2 SUB PUSH0 DUP4 ADD MSTORE PUSH2 0x37C5 DUP2 PUSH2 0x378C JUMP JUMPDEST SWAP1 POP SWAP2 SWAP1 POP JUMP JUMPDEST PUSH32 0x526566756E64206661696C656400000000000000000000000000000000000000 PUSH0 DUP3 ADD MSTORE POP JUMP JUMPDEST PUSH0 PUSH2 0x3800 PUSH1 0xD DUP4 PUSH2 0x21B8 JUMP JUMPDEST SWAP2 POP PUSH2 0x380B DUP3 PUSH2 0x37CC JUMP JUMPDEST PUSH1 0x20 DUP3 ADD SWAP1 POP SWAP2 SWAP1 POP JUMP JUMPDEST PUSH0 PUSH1 0x20 DUP3 ADD SWAP1 POP DUP2 DUP2 SUB PUSH0 DUP4 ADD MSTORE PUSH2 0x382D DUP2 PUSH2 0x37F4 JUMP JUMPDEST SWAP1 POP SWAP2 SWAP1 POP JUMP INVALID LOG2 PUSH5 0x6970667358 0x22 SLT KECCAK256 DUPN 0xF2 0xB5 PUSH7 0xCA43EAC9B2BF8A 0xA7 0xC7 0xD8 SWAP4 PUSH12 0x9453F13703E44F225BBC3ED7 STOP 0xC4 BLOBBASEFEE PUSH14 0x64736F6C634300081E0033000000 "
				},
				"gasEstimates": {
					"creation": {
						"codeDepositCost": "2888400",
						"executionCost": "27424",
						"totalCost": "2915824"
					},
					"external": {
						"addNewMilestones(uint256,(uint256,uint256)[])": "infinite",
						"checkCurrentMilestone(uint256)": "infinite",
						"createProject(string,string,string,(uint256,uint256)[])": "infinite",
						"fundProject(uint256)": "infinite",
						"getAllActiveProjects()": "infinite",
						"getCurrentMilestoneFunders(uint256)": "infinite",
						"getCurrentMilestoneInfo(uint256)": "infinite",
						"getallMilestonesInfo(uint256)": "infinite",
						"projects(uint256)": "infinite",
						"stopProject(uint256)": "infinite",
						"sysOwner()": "2508"
					},
					"internal": {
						"initiateNextMilestone(uint256)": "infinite",
						"refundMilestone(uint256,uint256)": "infinite",
						"sendMoneyToOwner(address,uint256)": "infinite",
						"stopProjectHelper(uint256)": "infinite"
					}
				},
				"methodIdentifiers": {
					"addNewMilestones(uint256,(uint256,uint256)[])": "ae632181",
					"checkCurrentMilestone(uint256)": "4e94e824",
					"createProject(string,string,string,(uint256,uint256)[])": "1a86e67d",
					"fundProject(uint256)": "6c563abe",
					"getAllActiveProjects()": "f2ef441b",
					"getCurrentMilestoneFunders(uint256)": "33ec0fc5",
					"getCurrentMilestoneInfo(uint256)": "b99122af",
					"getallMilestonesInfo(uint256)": "d8a5b36d",
					"projects(uint256)": "107046bd",
					"stopProject(uint256)": "6db7a960",
					"sysOwner()": "0e4877d6"
				}
			},
			"storageLayout": {
				"storage": [
					{
						"astId": 81,
						"contract": "contracts/CrowdSourcing.sol:CrowdSourcing",
						"label": "sysOwner",
						"offset": 0,
						"slot": "0",
						"type": "t_address"
					},
					{
						"astId": 85,
						"contract": "contracts/CrowdSourcing.sol:CrowdSourcing",
						"label": "projects",
						"offset": 0,
						"slot": "1",
						"type": "t_array(t_struct(Project)20_storage)dyn_storage"
					}
				],
				"types": {
					"t_address": {
						"encoding": "inplace",
						"label": "address",
						"numberOfBytes": "20"
					},
					"t_array(t_address)dyn_storage": {
						"base": "t_address",
						"encoding": "dynamic_array",
						"label": "address[]",
						"numberOfBytes": "32"
					},
					"t_array(t_struct(Milestone)50_storage)dyn_storage": {
						"base": "t_struct(Milestone)50_storage",
						"encoding": "dynamic_array",
						"label": "struct Milestone[]",
						"numberOfBytes": "32"
					},
					"t_array(t_struct(Project)20_storage)dyn_storage": {
						"base": "t_struct(Project)20_storage",
						"encoding": "dynamic_array",
						"label": "struct Project[]",
						"numberOfBytes": "32"
					},
					"t_bool": {
						"encoding": "inplace",
						"label": "bool",
						"numberOfBytes": "1"
					},
					"t_mapping(t_address,t_uint256)": {
						"encoding": "mapping",
						"key": "t_address",
						"label": "mapping(address => uint256)",
						"numberOfBytes": "32",
						"value": "t_uint256"
					},
					"t_string_storage": {
						"encoding": "bytes",
						"label": "string",
						"numberOfBytes": "32"
					},
					"t_struct(Milestone)50_storage": {
						"encoding": "inplace",
						"label": "struct Milestone",
						"members": [
							{
								"astId": 38,
								"contract": "contracts/CrowdSourcing.sol:CrowdSourcing",
								"label": "info",
								"offset": 0,
								"slot": "0",
								"type": "t_struct(MilestoneInfo)55_storage"
							},
							{
								"astId": 40,
								"contract": "contracts/CrowdSourcing.sol:CrowdSourcing",
								"label": "totalFunded",
								"offset": 0,
								"slot": "2",
								"type": "t_uint256"
							},
							{
								"astId": 43,
								"contract": "contracts/CrowdSourcing.sol:CrowdSourcing",
								"label": "funderAddresses",
								"offset": 0,
								"slot": "3",
								"type": "t_array(t_address)dyn_storage"
							},
							{
								"astId": 47,
								"contract": "contracts/CrowdSourcing.sol:CrowdSourcing",
								"label": "funders",
								"offset": 0,
								"slot": "4",
								"type": "t_mapping(t_address,t_uint256)"
							},
							{
								"astId": 49,
								"contract": "contracts/CrowdSourcing.sol:CrowdSourcing",
								"label": "reached",
								"offset": 0,
								"slot": "5",
								"type": "t_bool"
							}
						],
						"numberOfBytes": "192"
					},
					"t_struct(MilestoneInfo)55_storage": {
						"encoding": "inplace",
						"label": "struct MilestoneInfo",
						"members": [
							{
								"astId": 52,
								"contract": "contracts/CrowdSourcing.sol:CrowdSourcing",
								"label": "goalAmount",
								"offset": 0,
								"slot": "0",
								"type": "t_uint256"
							},
							{
								"astId": 54,
								"contract": "contracts/CrowdSourcing.sol:CrowdSourcing",
								"label": "deadline",
								"offset": 0,
								"slot": "1",
								"type": "t_uint256"
							}
						],
						"numberOfBytes": "64"
					},
					"t_struct(Project)20_storage": {
						"encoding": "inplace",
						"label": "struct Project",
						"members": [
							{
								"astId": 3,
								"contract": "contracts/CrowdSourcing.sol:CrowdSourcing",
								"label": "creator",
								"offset": 0,
								"slot": "0",
								"type": "t_address"
							},
							{
								"astId": 5,
								"contract": "contracts/CrowdSourcing.sol:CrowdSourcing",
								"label": "name",
								"offset": 0,
								"slot": "1",
								"type": "t_string_storage"
							},
							{
								"astId": 7,
								"contract": "contracts/CrowdSourcing.sol:CrowdSourcing",
								"label": "headerImageUrl",
								"offset": 0,
								"slot": "2",
								"type": "t_string_storage"
							},
							{
								"astId": 9,
								"contract": "contracts/CrowdSourcing.sol:CrowdSourcing",
								"label": "description",
								"offset": 0,
								"slot": "3",
								"type": "t_string_storage"
							},
							{
								"astId": 11,
								"contract": "contracts/CrowdSourcing.sol:CrowdSourcing",
								"label": "totalFunded",
								"offset": 0,
								"slot": "4",
								"type": "t_uint256"
							},
							{
								"astId": 13,
								"contract": "contracts/CrowdSourcing.sol:CrowdSourcing",
								"label": "currentMilestoneIndex",
								"offset": 0,
								"slot": "5",
								"type": "t_uint256"
							},
							{
								"astId": 17,
								"contract": "contracts/CrowdSourcing.sol:CrowdSourcing",
								"label": "milestones",
								"offset": 0,
								"slot": "6",
								"type": "t_array(t_struct(Milestone)50_storage)dyn_storage"
							},
							{
								"astId": 19,
								"contract": "contracts/CrowdSourcing.sol:CrowdSourcing",
								"label": "isActive",
								"offset": 0,
								"slot": "7",
								"type": "t_bool"
							}
						],
						"numberOfBytes": "256"
					},
					"t_uint256": {
						"encoding": "inplace",
						"label": "uint256",
						"numberOfBytes": "32"
					}
				}
			},
			"userdoc": {
				"kind": "user",
				"methods": {},
				"version": 1
			}
		}
	}
}