{
	"contracts/CrowdSourcing.sol": {
		"CrowdSourcing": {
			"abi": [
				{
					"inputs": [],
					"stateMutability": "nonpayable",
					"type": "constructor"
				},
				{
					"anonymous": false,
					"inputs": [
						{
							"indexed": true,
							"internalType": "uint256",
							"name": "projectIdx",
							"type": "uint256"
						},
						{
							"indexed": true,
							"internalType": "uint256",
							"name": "milestoneIdx",
							"type": "uint256"
						},
						{
							"indexed": false,
							"internalType": "uint256",
							"name": "amount",
							"type": "uint256"
						}
					],
					"name": "MilestoneReached",
					"type": "event"
				},
				{
					"anonymous": false,
					"inputs": [
						{
							"indexed": true,
							"internalType": "uint256",
							"name": "projectIdx",
							"type": "uint256"
						},
						{
							"indexed": true,
							"internalType": "uint256",
							"name": "milestoneIdx",
							"type": "uint256"
						},
						{
							"indexed": false,
							"internalType": "address[]",
							"name": "funders",
							"type": "address[]"
						}
					],
					"name": "MilestoneRefunded",
					"type": "event"
				},
				{
					"anonymous": false,
					"inputs": [
						{
							"indexed": true,
							"internalType": "uint256",
							"name": "projectIdx",
							"type": "uint256"
						}
					],
					"name": "ProjectCancelled",
					"type": "event"
				},
				{
					"inputs": [
						{
							"internalType": "uint256",
							"name": "_projectIdx",
							"type": "uint256"
						}
					],
					"name": "checkMilestone",
					"outputs": [],
					"stateMutability": "nonpayable",
					"type": "function"
				},
				{
					"inputs": [
						{
							"internalType": "string",
							"name": "_name",
							"type": "string"
						},
						{
							"components": [
								{
									"internalType": "uint256",
									"name": "goalAmount",
									"type": "uint256"
								},
								{
									"internalType": "uint256",
									"name": "deadline",
									"type": "uint256"
								}
							],
							"internalType": "struct MilestoneInfo[]",
							"name": "_milestones",
							"type": "tuple[]"
						}
					],
					"name": "createProject",
					"outputs": [],
					"stateMutability": "nonpayable",
					"type": "function"
				},
				{
					"inputs": [
						{
							"internalType": "uint256",
							"name": "_projectIdx",
							"type": "uint256"
						}
					],
					"name": "fundProject",
					"outputs": [],
					"stateMutability": "payable",
					"type": "function"
				},
				{
					"inputs": [
						{
							"internalType": "uint256",
							"name": "",
							"type": "uint256"
						}
					],
					"name": "projects",
					"outputs": [
						{
							"internalType": "address",
							"name": "creator",
							"type": "address"
						},
						{
							"internalType": "string",
							"name": "name",
							"type": "string"
						},
						{
							"internalType": "uint256",
							"name": "totalFunded",
							"type": "uint256"
						},
						{
							"internalType": "uint256",
							"name": "currentMilestoneIndex",
							"type": "uint256"
						},
						{
							"internalType": "bool",
							"name": "isActive",
							"type": "bool"
						}
					],
					"stateMutability": "view",
					"type": "function"
				},
				{
					"inputs": [],
					"name": "sysOwner",
					"outputs": [
						{
							"internalType": "address",
							"name": "",
							"type": "address"
						}
					],
					"stateMutability": "view",
					"type": "function"
				}
			],
			"devdoc": {
				"kind": "dev",
				"methods": {},
				"version": 1
			},
			"evm": {
				"assembly": "    /* \"contracts/CrowdSourcing.sol\":1687:6188  contract CrowdSourcing {... */\n  mstore(0x40, 0x80)\n    /* \"contracts/CrowdSourcing.sol\":1778:1830  constructor() {... */\n  callvalue\n  dup1\n  iszero\n  tag_1\n  jumpi\n  revert(0x00, 0x00)\ntag_1:\n  pop\n    /* \"contracts/CrowdSourcing.sol\":1813:1823  msg.sender */\n  caller\n    /* \"contracts/CrowdSourcing.sol\":1802:1810  sysOwner */\n  0x00\n  0x00\n    /* \"contracts/CrowdSourcing.sol\":1802:1823  sysOwner = msg.sender */\n  0x0100\n  exp\n  dup2\n  sload\n  dup2\n  0xffffffffffffffffffffffffffffffffffffffff\n  mul\n  not\n  and\n  swap1\n  dup4\n  0xffffffffffffffffffffffffffffffffffffffff\n  and\n  mul\n  or\n  swap1\n  sstore\n  pop\n    /* \"contracts/CrowdSourcing.sol\":1687:6188  contract CrowdSourcing {... */\n  dataSize(sub_0)\n  dup1\n  dataOffset(sub_0)\n  0x00\n  codecopy\n  0x00\n  return\nstop\n\nsub_0: assembly {\n        /* \"contracts/CrowdSourcing.sol\":1687:6188  contract CrowdSourcing {... */\n      mstore(0x40, 0x80)\n      jumpi(tag_1, lt(calldatasize, 0x04))\n      shr(0xe0, calldataload(0x00))\n      dup1\n      0x08e38af9\n      eq\n      tag_2\n      jumpi\n      dup1\n      0x0e4877d6\n      eq\n      tag_3\n      jumpi\n      dup1\n      0x107046bd\n      eq\n      tag_4\n      jumpi\n      dup1\n      0x3e7e12a6\n      eq\n      tag_5\n      jumpi\n      dup1\n      0x6c563abe\n      eq\n      tag_6\n      jumpi\n    tag_1:\n      revert(0x00, 0x00)\n        /* \"contracts/CrowdSourcing.sol\":3465:5163  function checkMilestone(... */\n    tag_2:\n      callvalue\n      dup1\n      iszero\n      tag_7\n      jumpi\n      revert(0x00, 0x00)\n    tag_7:\n      pop\n      tag_8\n      0x04\n      dup1\n      calldatasize\n      sub\n      dup2\n      add\n      swap1\n      tag_9\n      swap2\n      swap1\n      tag_10\n      jump\t// in\n    tag_9:\n      tag_11\n      jump\t// in\n    tag_8:\n      stop\n        /* \"contracts/CrowdSourcing.sol\":1716:1739  address public sysOwner */\n    tag_3:\n      callvalue\n      dup1\n      iszero\n      tag_12\n      jumpi\n      revert(0x00, 0x00)\n    tag_12:\n      pop\n      tag_13\n      tag_14\n      jump\t// in\n    tag_13:\n      mload(0x40)\n      tag_15\n      swap2\n      swap1\n      tag_16\n      jump\t// in\n    tag_15:\n      mload(0x40)\n      dup1\n      swap2\n      sub\n      swap1\n      return\n        /* \"contracts/CrowdSourcing.sol\":1746:1771  Project[] public projects */\n    tag_4:\n      callvalue\n      dup1\n      iszero\n      tag_17\n      jumpi\n      revert(0x00, 0x00)\n    tag_17:\n      pop\n      tag_18\n      0x04\n      dup1\n      calldatasize\n      sub\n      dup2\n      add\n      swap1\n      tag_19\n      swap2\n      swap1\n      tag_10\n      jump\t// in\n    tag_19:\n      tag_20\n      jump\t// in\n    tag_18:\n      mload(0x40)\n      tag_21\n      swap6\n      swap5\n      swap4\n      swap3\n      swap2\n      swap1\n      tag_22\n      jump\t// in\n    tag_21:\n      mload(0x40)\n      dup1\n      swap2\n      sub\n      swap1\n      return\n        /* \"contracts/CrowdSourcing.sol\":1836:2679  function createProject(... */\n    tag_5:\n      callvalue\n      dup1\n      iszero\n      tag_23\n      jumpi\n      revert(0x00, 0x00)\n    tag_23:\n      pop\n      tag_24\n      0x04\n      dup1\n      calldatasize\n      sub\n      dup2\n      add\n      swap1\n      tag_25\n      swap2\n      swap1\n      tag_26\n      jump\t// in\n    tag_25:\n      tag_27\n      jump\t// in\n    tag_24:\n      stop\n        /* \"contracts/CrowdSourcing.sol\":2685:3459  function fundProject (... */\n    tag_6:\n      tag_28\n      0x04\n      dup1\n      calldatasize\n      sub\n      dup2\n      add\n      swap1\n      tag_29\n      swap2\n      swap1\n      tag_10\n      jump\t// in\n    tag_29:\n      tag_30\n      jump\t// in\n    tag_28:\n      stop\n        /* \"contracts/CrowdSourcing.sol\":3465:5163  function checkMilestone(... */\n    tag_11:\n        /* \"contracts/CrowdSourcing.sol\":3541:3564  Project storage project */\n      0x00\n        /* \"contracts/CrowdSourcing.sol\":3567:3575  projects */\n      0x01\n        /* \"contracts/CrowdSourcing.sol\":3576:3587  _projectIdx */\n      dup3\n        /* \"contracts/CrowdSourcing.sol\":3567:3588  projects[_projectIdx] */\n      dup2\n      sload\n      dup2\n      lt\n      tag_32\n      jumpi\n      tag_33\n      tag_34\n      jump\t// in\n    tag_33:\n    tag_32:\n      swap1\n      0x00\n      mstore\n      keccak256(0x00, 0x20)\n      swap1\n      0x06\n      mul\n      add\n        /* \"contracts/CrowdSourcing.sol\":3541:3588  Project storage project = projects[_projectIdx] */\n      swap1\n      pop\n        /* \"contracts/CrowdSourcing.sol\":3598:3632  Milestone storage currentMilestone */\n      0x00\n        /* \"contracts/CrowdSourcing.sol\":3635:3642  project */\n      dup2\n        /* \"contracts/CrowdSourcing.sol\":3635:3653  project.milestones */\n      0x04\n      add\n        /* \"contracts/CrowdSourcing.sol\":3654:3661  project */\n      dup3\n        /* \"contracts/CrowdSourcing.sol\":3654:3683  project.currentMilestoneIndex */\n      0x03\n      add\n      sload\n        /* \"contracts/CrowdSourcing.sol\":3635:3684  project.milestones[project.currentMilestoneIndex] */\n      dup2\n      sload\n      dup2\n      lt\n      tag_36\n      jumpi\n      tag_37\n      tag_34\n      jump\t// in\n    tag_37:\n    tag_36:\n      swap1\n      0x00\n      mstore\n      keccak256(0x00, 0x20)\n      swap1\n      0x06\n      mul\n      add\n        /* \"contracts/CrowdSourcing.sol\":3598:3684  Milestone storage currentMilestone = project.milestones[project.currentMilestoneIndex] */\n      swap1\n      pop\n        /* \"contracts/CrowdSourcing.sol\":3702:3709  project */\n      dup2\n        /* \"contracts/CrowdSourcing.sol\":3702:3718  project.isActive */\n      0x05\n      add\n      0x00\n      swap1\n      sload\n      swap1\n      0x0100\n      exp\n      swap1\n      div\n      0xff\n      and\n        /* \"contracts/CrowdSourcing.sol\":3694:3745  require(project.isActive, \"Project must be active\") */\n      tag_39\n      jumpi\n      mload(0x40)\n      0x08c379a000000000000000000000000000000000000000000000000000000000\n      dup2\n      mstore\n      0x04\n      add\n      tag_40\n      swap1\n      tag_41\n      jump\t// in\n    tag_40:\n      mload(0x40)\n      dup1\n      swap2\n      sub\n      swap1\n      revert\n    tag_39:\n        /* \"contracts/CrowdSourcing.sol\":3764:3780  currentMilestone */\n      dup1\n        /* \"contracts/CrowdSourcing.sol\":3764:3788  currentMilestone.reached */\n      0x05\n      add\n      0x00\n      swap1\n      sload\n      swap1\n      0x0100\n      exp\n      swap1\n      div\n      0xff\n      and\n        /* \"contracts/CrowdSourcing.sol\":3763:3788  !currentMilestone.reached */\n      iszero\n        /* \"contracts/CrowdSourcing.sol\":3755:3824  require(!currentMilestone.reached, \"Milestone should be not reached\") */\n      tag_42\n      jumpi\n      mload(0x40)\n      0x08c379a000000000000000000000000000000000000000000000000000000000\n      dup2\n      mstore\n      0x04\n      add\n      tag_43\n      swap1\n      tag_44\n      jump\t// in\n    tag_43:\n      mload(0x40)\n      dup1\n      swap2\n      sub\n      swap1\n      revert\n    tag_42:\n        /* \"contracts/CrowdSourcing.sol\":3861:3877  currentMilestone */\n      dup1\n        /* \"contracts/CrowdSourcing.sol\":3861:3882  currentMilestone.info */\n      0x00\n      add\n        /* \"contracts/CrowdSourcing.sol\":3861:3891  currentMilestone.info.deadline */\n      0x01\n      add\n      sload\n        /* \"contracts/CrowdSourcing.sol\":3842:3857  block.timestamp */\n      timestamp\n        /* \"contracts/CrowdSourcing.sol\":3842:3891  block.timestamp >= currentMilestone.info.deadline */\n      lt\n      iszero\n        /* \"contracts/CrowdSourcing.sol\":3834:3927  require(block.timestamp >= currentMilestone.info.deadline, \"Can only chekck after milestone\") */\n      tag_45\n      jumpi\n      mload(0x40)\n      0x08c379a000000000000000000000000000000000000000000000000000000000\n      dup2\n      mstore\n      0x04\n      add\n      tag_46\n      swap1\n      tag_47\n      jump\t// in\n    tag_46:\n      mload(0x40)\n      dup1\n      swap2\n      sub\n      swap1\n      revert\n    tag_45:\n        /* \"contracts/CrowdSourcing.sol\":4068:4084  currentMilestone */\n      dup1\n        /* \"contracts/CrowdSourcing.sol\":4068:4089  currentMilestone.info */\n      0x00\n      add\n        /* \"contracts/CrowdSourcing.sol\":4068:4100  currentMilestone.info.goalAmount */\n      0x00\n      add\n      sload\n        /* \"contracts/CrowdSourcing.sol\":4036:4052  currentMilestone */\n      dup2\n        /* \"contracts/CrowdSourcing.sol\":4036:4064  currentMilestone.totalFunded */\n      0x02\n      add\n      sload\n        /* \"contracts/CrowdSourcing.sol\":4036:4100  currentMilestone.totalFunded >= currentMilestone.info.goalAmount */\n      lt\n        /* \"contracts/CrowdSourcing.sol\":4033:5157  if(currentMilestone.totalFunded >= currentMilestone.info.goalAmount) {... */\n      tag_48\n      jumpi\n        /* \"contracts/CrowdSourcing.sol\":4147:4151  true */\n      0x01\n        /* \"contracts/CrowdSourcing.sol\":4120:4136  currentMilestone */\n      dup2\n        /* \"contracts/CrowdSourcing.sol\":4120:4144  currentMilestone.reached */\n      0x05\n      add\n      0x00\n        /* \"contracts/CrowdSourcing.sol\":4120:4151  currentMilestone.reached = true */\n      0x0100\n      exp\n      dup2\n      sload\n      dup2\n      0xff\n      mul\n      not\n      and\n      swap1\n      dup4\n      iszero\n      iszero\n      mul\n      or\n      swap1\n      sstore\n      pop\n        /* \"contracts/CrowdSourcing.sol\":4170:4182  bool success */\n      0x00\n        /* \"contracts/CrowdSourcing.sol\":4188:4195  project */\n      dup3\n        /* \"contracts/CrowdSourcing.sol\":4188:4203  project.creator */\n      0x00\n      add\n      0x00\n      swap1\n      sload\n      swap1\n      0x0100\n      exp\n      swap1\n      div\n      0xffffffffffffffffffffffffffffffffffffffff\n      and\n        /* \"contracts/CrowdSourcing.sol\":4188:4208  project.creator.call */\n      0xffffffffffffffffffffffffffffffffffffffff\n      and\n        /* \"contracts/CrowdSourcing.sol\":4216:4232  currentMilestone */\n      dup3\n        /* \"contracts/CrowdSourcing.sol\":4216:4244  currentMilestone.totalFunded */\n      0x02\n      add\n      sload\n        /* \"contracts/CrowdSourcing.sol\":4188:4249  project.creator.call{value: currentMilestone.totalFunded}(\"\") */\n      mload(0x40)\n      tag_49\n      swap1\n      tag_50\n      jump\t// in\n    tag_49:\n      0x00\n      mload(0x40)\n      dup1\n      dup4\n      sub\n      dup2\n      dup6\n      dup8\n      gas\n      call\n      swap3\n      pop\n      pop\n      pop\n      returndatasize\n      dup1\n      0x00\n      dup2\n      eq\n      tag_53\n      jumpi\n      mload(0x40)\n      swap2\n      pop\n      and(add(returndatasize, 0x3f), not(0x1f))\n      dup3\n      add\n      0x40\n      mstore\n      returndatasize\n      dup3\n      mstore\n      returndatasize\n      0x00\n      0x20\n      dup5\n      add\n      returndatacopy\n      jump(tag_52)\n    tag_53:\n      0x60\n      swap2\n      pop\n    tag_52:\n      pop\n        /* \"contracts/CrowdSourcing.sol\":4169:4249  (bool success, ) = project.creator.call{value: currentMilestone.totalFunded}(\"\") */\n      pop\n      swap1\n      pop\n        /* \"contracts/CrowdSourcing.sol\":4275:4282  success */\n      dup1\n        /* \"contracts/CrowdSourcing.sol\":4267:4313  require(success, \"Transfer to creator failed\") */\n      tag_54\n      jumpi\n      mload(0x40)\n      0x08c379a000000000000000000000000000000000000000000000000000000000\n      dup2\n      mstore\n      0x04\n      add\n      tag_55\n      swap1\n      tag_56\n      jump\t// in\n    tag_55:\n      mload(0x40)\n      dup1\n      swap2\n      sub\n      swap1\n      revert\n    tag_54:\n        /* \"contracts/CrowdSourcing.sol\":4510:4511  1 */\n      0x01\n        /* \"contracts/CrowdSourcing.sol\":4482:4489  project */\n      dup4\n        /* \"contracts/CrowdSourcing.sol\":4482:4500  project.milestones */\n      0x04\n      add\n        /* \"contracts/CrowdSourcing.sol\":4482:4507  project.milestones.length */\n      dup1\n      sload\n      swap1\n      pop\n        /* \"contracts/CrowdSourcing.sol\":4482:4511  project.milestones.length - 1 */\n      tag_57\n      swap2\n      swap1\n      tag_58\n      jump\t// in\n    tag_57:\n        /* \"contracts/CrowdSourcing.sol\":4450:4457  project */\n      dup4\n        /* \"contracts/CrowdSourcing.sol\":4450:4479  project.currentMilestoneIndex */\n      0x03\n      add\n      sload\n        /* \"contracts/CrowdSourcing.sol\":4450:4511  project.currentMilestoneIndex < project.milestones.length - 1 */\n      lt\n        /* \"contracts/CrowdSourcing.sol\":4447:4904  if(project.currentMilestoneIndex < project.milestones.length - 1){... */\n      iszero\n      tag_59\n      jumpi\n        /* \"contracts/CrowdSourcing.sol\":4561:4565  true */\n      0x01\n        /* \"contracts/CrowdSourcing.sol\":4534:4550  currentMilestone */\n      dup3\n        /* \"contracts/CrowdSourcing.sol\":4534:4558  currentMilestone.reached */\n      0x05\n      add\n      0x00\n        /* \"contracts/CrowdSourcing.sol\":4534:4565  currentMilestone.reached = true */\n      0x0100\n      exp\n      dup2\n      sload\n      dup2\n      0xff\n      mul\n      not\n      and\n      swap1\n      dup4\n      iszero\n      iszero\n      mul\n      or\n      swap1\n      sstore\n      pop\n        /* \"contracts/CrowdSourcing.sol\":4587:4594  project */\n      dup3\n        /* \"contracts/CrowdSourcing.sol\":4587:4616  project.currentMilestoneIndex */\n      0x03\n      add\n      0x00\n        /* \"contracts/CrowdSourcing.sol\":4587:4618  project.currentMilestoneIndex++ */\n      dup2\n      sload\n      dup1\n      swap3\n      swap2\n      swap1\n      tag_60\n      swap1\n      tag_61\n      jump\t// in\n    tag_60:\n      swap2\n      swap1\n      pop\n      sstore\n      pop\n        /* \"contracts/CrowdSourcing.sol\":4675:4682  project */\n      dup3\n        /* \"contracts/CrowdSourcing.sol\":4675:4704  project.currentMilestoneIndex */\n      0x03\n      add\n      sload\n        /* \"contracts/CrowdSourcing.sol\":4662:4673  _projectIdx */\n      dup5\n        /* \"contracts/CrowdSourcing.sol\":4645:4735  MilestoneReached(_projectIdx, project.currentMilestoneIndex, currentMilestone.totalFunded) */\n      0x98ab122f98189d797b82ca33344809354ae082e584fff378c4f9daba149698c6\n        /* \"contracts/CrowdSourcing.sol\":4706:4722  currentMilestone */\n      dup5\n        /* \"contracts/CrowdSourcing.sol\":4706:4734  currentMilestone.totalFunded */\n      0x02\n      add\n      sload\n        /* \"contracts/CrowdSourcing.sol\":4645:4735  MilestoneReached(_projectIdx, project.currentMilestoneIndex, currentMilestone.totalFunded) */\n      mload(0x40)\n      tag_62\n      swap2\n      swap1\n      tag_63\n      jump\t// in\n    tag_62:\n      mload(0x40)\n      dup1\n      swap2\n      sub\n      swap1\n      log3\n        /* \"contracts/CrowdSourcing.sol\":4447:4904  if(project.currentMilestoneIndex < project.milestones.length - 1){... */\n      jump(tag_64)\n    tag_59:\n        /* \"contracts/CrowdSourcing.sol\":4859:4864  false */\n      0x00\n        /* \"contracts/CrowdSourcing.sol\":4840:4847  project */\n      dup4\n        /* \"contracts/CrowdSourcing.sol\":4840:4856  project.isActive */\n      0x05\n      add\n      0x00\n        /* \"contracts/CrowdSourcing.sol\":4840:4864  project.isActive = false */\n      0x0100\n      exp\n      dup2\n      sload\n      dup2\n      0xff\n      mul\n      not\n      and\n      swap1\n      dup4\n      iszero\n      iszero\n      mul\n      or\n      swap1\n      sstore\n      pop\n        /* \"contracts/CrowdSourcing.sol\":4447:4904  if(project.currentMilestoneIndex < project.milestones.length - 1){... */\n    tag_64:\n        /* \"contracts/CrowdSourcing.sol\":4102:4918  {... */\n      pop\n        /* \"contracts/CrowdSourcing.sol\":4033:5157  if(currentMilestone.totalFunded >= currentMilestone.info.goalAmount) {... */\n      jump(tag_65)\n    tag_48:\n        /* \"contracts/CrowdSourcing.sol\":5020:5025  false */\n      0x00\n        /* \"contracts/CrowdSourcing.sol\":5001:5008  project */\n      dup3\n        /* \"contracts/CrowdSourcing.sol\":5001:5017  project.isActive */\n      0x05\n      add\n      0x00\n        /* \"contracts/CrowdSourcing.sol\":5001:5025  project.isActive = false */\n      0x0100\n      exp\n      dup2\n      sload\n      dup2\n      0xff\n      mul\n      not\n      and\n      swap1\n      dup4\n      iszero\n      iszero\n      mul\n      or\n      swap1\n      sstore\n      pop\n        /* \"contracts/CrowdSourcing.sol\":5039:5098  refundMilestone(_projectIdx, project.currentMilestoneIndex) */\n      tag_66\n        /* \"contracts/CrowdSourcing.sol\":5055:5066  _projectIdx */\n      dup4\n        /* \"contracts/CrowdSourcing.sol\":5068:5075  project */\n      dup4\n        /* \"contracts/CrowdSourcing.sol\":5068:5097  project.currentMilestoneIndex */\n      0x03\n      add\n      sload\n        /* \"contracts/CrowdSourcing.sol\":5039:5054  refundMilestone */\n      tag_67\n        /* \"contracts/CrowdSourcing.sol\":5039:5098  refundMilestone(_projectIdx, project.currentMilestoneIndex) */\n      jump\t// in\n    tag_66:\n        /* \"contracts/CrowdSourcing.sol\":5134:5145  _projectIdx */\n      dup3\n        /* \"contracts/CrowdSourcing.sol\":5117:5146  ProjectCancelled(_projectIdx) */\n      0xe3805ed669490875ae87c5c8b1ad6ecca0e5e67305a833926d0d4317c4822fc0\n      mload(0x40)\n      mload(0x40)\n      dup1\n      swap2\n      sub\n      swap1\n      log2\n        /* \"contracts/CrowdSourcing.sol\":4033:5157  if(currentMilestone.totalFunded >= currentMilestone.info.goalAmount) {... */\n    tag_65:\n        /* \"contracts/CrowdSourcing.sol\":3531:5163  {... */\n      pop\n      pop\n        /* \"contracts/CrowdSourcing.sol\":3465:5163  function checkMilestone(... */\n      pop\n      jump\t// out\n        /* \"contracts/CrowdSourcing.sol\":1716:1739  address public sysOwner */\n    tag_14:\n      0x00\n      0x00\n      swap1\n      sload\n      swap1\n      0x0100\n      exp\n      swap1\n      div\n      0xffffffffffffffffffffffffffffffffffffffff\n      and\n      dup2\n      jump\t// out\n        /* \"contracts/CrowdSourcing.sol\":1746:1771  Project[] public projects */\n    tag_20:\n      0x01\n      dup2\n      dup2\n      sload\n      dup2\n      lt\n      tag_68\n      jumpi\n      0x00\n      dup1\n      revert\n    tag_68:\n      swap1\n      0x00\n      mstore\n      keccak256(0x00, 0x20)\n      swap1\n      0x06\n      mul\n      add\n      0x00\n      swap2\n      pop\n      swap1\n      pop\n      dup1\n      0x00\n      add\n      0x00\n      swap1\n      sload\n      swap1\n      0x0100\n      exp\n      swap1\n      div\n      0xffffffffffffffffffffffffffffffffffffffff\n      and\n      swap1\n      dup1\n      0x01\n      add\n      dup1\n      sload\n      tag_70\n      swap1\n      tag_71\n      jump\t// in\n    tag_70:\n      dup1\n      0x1f\n      add\n      0x20\n      dup1\n      swap2\n      div\n      mul\n      0x20\n      add\n      mload(0x40)\n      swap1\n      dup2\n      add\n      0x40\n      mstore\n      dup1\n      swap3\n      swap2\n      swap1\n      dup2\n      dup2\n      mstore\n      0x20\n      add\n      dup3\n      dup1\n      sload\n      tag_72\n      swap1\n      tag_71\n      jump\t// in\n    tag_72:\n      dup1\n      iszero\n      tag_73\n      jumpi\n      dup1\n      0x1f\n      lt\n      tag_74\n      jumpi\n      0x0100\n      dup1\n      dup4\n      sload\n      div\n      mul\n      dup4\n      mstore\n      swap2\n      0x20\n      add\n      swap2\n      jump(tag_73)\n    tag_74:\n      dup3\n      add\n      swap2\n      swap1\n      0x00\n      mstore\n      keccak256(0x00, 0x20)\n      swap1\n    tag_75:\n      dup2\n      sload\n      dup2\n      mstore\n      swap1\n      0x01\n      add\n      swap1\n      0x20\n      add\n      dup1\n      dup4\n      gt\n      tag_75\n      jumpi\n      dup3\n      swap1\n      sub\n      0x1f\n      and\n      dup3\n      add\n      swap2\n    tag_73:\n      pop\n      pop\n      pop\n      pop\n      pop\n      swap1\n      dup1\n      0x02\n      add\n      sload\n      swap1\n      dup1\n      0x03\n      add\n      sload\n      swap1\n      dup1\n      0x05\n      add\n      0x00\n      swap1\n      sload\n      swap1\n      0x0100\n      exp\n      swap1\n      div\n      0xff\n      and\n      swap1\n      pop\n      dup6\n      jump\t// out\n        /* \"contracts/CrowdSourcing.sol\":1836:2679  function createProject(... */\n    tag_27:\n        /* \"contracts/CrowdSourcing.sol\":1979:1987  sysOwner */\n      0x00\n      0x00\n      swap1\n      sload\n      swap1\n      0x0100\n      exp\n      swap1\n      div\n      0xffffffffffffffffffffffffffffffffffffffff\n      and\n        /* \"contracts/CrowdSourcing.sol\":1965:1987  msg.sender != sysOwner */\n      0xffffffffffffffffffffffffffffffffffffffff\n      and\n        /* \"contracts/CrowdSourcing.sol\":1965:1975  msg.sender */\n      caller\n        /* \"contracts/CrowdSourcing.sol\":1965:1987  msg.sender != sysOwner */\n      0xffffffffffffffffffffffffffffffffffffffff\n      and\n      sub\n        /* \"contracts/CrowdSourcing.sol\":1957:2026  require(msg.sender != sysOwner, \"System owner can't create projects\") */\n      tag_77\n      jumpi\n      mload(0x40)\n      0x08c379a000000000000000000000000000000000000000000000000000000000\n      dup2\n      mstore\n      0x04\n      add\n      tag_78\n      swap1\n      tag_79\n      jump\t// in\n    tag_78:\n      mload(0x40)\n      dup1\n      swap2\n      sub\n      swap1\n      revert\n    tag_77:\n        /* \"contracts/CrowdSourcing.sol\":2065:2066  0 */\n      0x00\n        /* \"contracts/CrowdSourcing.sol\":2044:2055  _milestones */\n      dup2\n        /* \"contracts/CrowdSourcing.sol\":2044:2062  _milestones.length */\n      mload\n        /* \"contracts/CrowdSourcing.sol\":2044:2066  _milestones.length > 0 */\n      gt\n        /* \"contracts/CrowdSourcing.sol\":2036:2103  require(_milestones.length > 0, \"Must have at least one milestone\") */\n      tag_80\n      jumpi\n      mload(0x40)\n      0x08c379a000000000000000000000000000000000000000000000000000000000\n      dup2\n      mstore\n      0x04\n      add\n      tag_81\n      swap1\n      tag_82\n      jump\t// in\n    tag_81:\n      mload(0x40)\n      dup1\n      swap2\n      sub\n      swap1\n      revert\n    tag_80:\n        /* \"contracts/CrowdSourcing.sol\":2114:2137  Project storage project */\n      0x00\n        /* \"contracts/CrowdSourcing.sol\":2140:2148  projects */\n      0x01\n        /* \"contracts/CrowdSourcing.sol\":2140:2155  projects.push() */\n      dup1\n      dup2\n      0x01\n      dup2\n      sload\n      add\n      dup1\n      dup3\n      sstore\n      dup1\n      swap2\n      pop\n      pop\n      sub\n      swap1\n      0x00\n      mstore\n      keccak256(0x00, 0x20)\n      swap1\n      0x06\n      mul\n      add\n        /* \"contracts/CrowdSourcing.sol\":2114:2155  Project storage project = projects.push() */\n      swap1\n      pop\n        /* \"contracts/CrowdSourcing.sol\":2183:2193  msg.sender */\n      caller\n        /* \"contracts/CrowdSourcing.sol\":2165:2172  project */\n      dup2\n        /* \"contracts/CrowdSourcing.sol\":2165:2180  project.creator */\n      0x00\n      add\n      0x00\n        /* \"contracts/CrowdSourcing.sol\":2165:2193  project.creator = msg.sender */\n      0x0100\n      exp\n      dup2\n      sload\n      dup2\n      0xffffffffffffffffffffffffffffffffffffffff\n      mul\n      not\n      and\n      swap1\n      dup4\n      0xffffffffffffffffffffffffffffffffffffffff\n      and\n      mul\n      or\n      swap1\n      sstore\n      pop\n        /* \"contracts/CrowdSourcing.sol\":2218:2223  _name */\n      dup3\n        /* \"contracts/CrowdSourcing.sol\":2203:2210  project */\n      dup2\n        /* \"contracts/CrowdSourcing.sol\":2203:2215  project.name */\n      0x01\n      add\n        /* \"contracts/CrowdSourcing.sol\":2203:2223  project.name = _name */\n      swap1\n      dup2\n      tag_84\n      swap2\n      swap1\n      tag_85\n      jump\t// in\n    tag_84:\n      pop\n        /* \"contracts/CrowdSourcing.sol\":2255:2256  0 */\n      0x00\n        /* \"contracts/CrowdSourcing.sol\":2233:2240  project */\n      dup2\n        /* \"contracts/CrowdSourcing.sol\":2233:2252  project.totalFunded */\n      0x02\n      add\n        /* \"contracts/CrowdSourcing.sol\":2233:2256  project.totalFunded = 0 */\n      dup2\n      swap1\n      sstore\n      pop\n        /* \"contracts/CrowdSourcing.sol\":2298:2299  0 */\n      0x00\n        /* \"contracts/CrowdSourcing.sol\":2266:2273  project */\n      dup2\n        /* \"contracts/CrowdSourcing.sol\":2266:2295  project.currentMilestoneIndex */\n      0x03\n      add\n        /* \"contracts/CrowdSourcing.sol\":2266:2299  project.currentMilestoneIndex = 0 */\n      dup2\n      swap1\n      sstore\n      pop\n        /* \"contracts/CrowdSourcing.sol\":2328:2332  true */\n      0x01\n        /* \"contracts/CrowdSourcing.sol\":2309:2316  project */\n      dup2\n        /* \"contracts/CrowdSourcing.sol\":2309:2325  project.isActive */\n      0x05\n      add\n      0x00\n        /* \"contracts/CrowdSourcing.sol\":2309:2332  project.isActive = true */\n      0x0100\n      exp\n      dup2\n      sload\n      dup2\n      0xff\n      mul\n      not\n      and\n      swap1\n      dup4\n      iszero\n      iszero\n      mul\n      or\n      swap1\n      sstore\n      pop\n        /* \"contracts/CrowdSourcing.sol\":2348:2354  uint i */\n      0x00\n        /* \"contracts/CrowdSourcing.sol\":2355:2356  0 */\n      0x00\n        /* \"contracts/CrowdSourcing.sol\":2348:2356  uint i=0 */\n      swap1\n      pop\n        /* \"contracts/CrowdSourcing.sol\":2344:2673  for(uint i=0; i< _milestones.length; i++){... */\n    tag_86:\n        /* \"contracts/CrowdSourcing.sol\":2361:2372  _milestones */\n      dup3\n        /* \"contracts/CrowdSourcing.sol\":2361:2379  _milestones.length */\n      mload\n        /* \"contracts/CrowdSourcing.sol\":2358:2359  i */\n      dup2\n        /* \"contracts/CrowdSourcing.sol\":2358:2379  i< _milestones.length */\n      lt\n        /* \"contracts/CrowdSourcing.sol\":2344:2673  for(uint i=0; i< _milestones.length; i++){... */\n      iszero\n      tag_87\n      jumpi\n        /* \"contracts/CrowdSourcing.sol\":2399:2426  Milestone storage milestone */\n      0x00\n        /* \"contracts/CrowdSourcing.sol\":2429:2436  project */\n      dup3\n        /* \"contracts/CrowdSourcing.sol\":2429:2447  project.milestones */\n      0x04\n      add\n        /* \"contracts/CrowdSourcing.sol\":2429:2454  project.milestones.push() */\n      0x01\n      dup2\n      0x01\n      dup2\n      sload\n      add\n      dup1\n      dup3\n      sstore\n      dup1\n      swap2\n      pop\n      pop\n      sub\n      swap1\n      0x00\n      mstore\n      keccak256(0x00, 0x20)\n      swap1\n      0x06\n      mul\n      add\n        /* \"contracts/CrowdSourcing.sol\":2399:2454  Milestone storage milestone = project.milestones.push() */\n      swap1\n      pop\n        /* \"contracts/CrowdSourcing.sol\":2496:2507  _milestones */\n      dup4\n        /* \"contracts/CrowdSourcing.sol\":2508:2509  i */\n      dup3\n        /* \"contracts/CrowdSourcing.sol\":2496:2510  _milestones[i] */\n      dup2\n      mload\n      dup2\n      lt\n      tag_90\n      jumpi\n      tag_91\n      tag_34\n      jump\t// in\n    tag_91:\n    tag_90:\n      0x20\n      mul\n      0x20\n      add\n      add\n      mload\n        /* \"contracts/CrowdSourcing.sol\":2496:2521  _milestones[i].goalAmount */\n      0x00\n      add\n      mload\n        /* \"contracts/CrowdSourcing.sol\":2468:2477  milestone */\n      dup2\n        /* \"contracts/CrowdSourcing.sol\":2468:2482  milestone.info */\n      0x00\n      add\n        /* \"contracts/CrowdSourcing.sol\":2468:2493  milestone.info.goalAmount */\n      0x00\n      add\n        /* \"contracts/CrowdSourcing.sol\":2468:2521  milestone.info.goalAmount = _milestones[i].goalAmount */\n      dup2\n      swap1\n      sstore\n      pop\n        /* \"contracts/CrowdSourcing.sol\":2561:2572  _milestones */\n      dup4\n        /* \"contracts/CrowdSourcing.sol\":2573:2574  i */\n      dup3\n        /* \"contracts/CrowdSourcing.sol\":2561:2575  _milestones[i] */\n      dup2\n      mload\n      dup2\n      lt\n      tag_92\n      jumpi\n      tag_93\n      tag_34\n      jump\t// in\n    tag_93:\n    tag_92:\n      0x20\n      mul\n      0x20\n      add\n      add\n      mload\n        /* \"contracts/CrowdSourcing.sol\":2561:2584  _milestones[i].deadline */\n      0x20\n      add\n      mload\n        /* \"contracts/CrowdSourcing.sol\":2535:2544  milestone */\n      dup2\n        /* \"contracts/CrowdSourcing.sol\":2535:2549  milestone.info */\n      0x00\n      add\n        /* \"contracts/CrowdSourcing.sol\":2535:2558  milestone.info.deadline */\n      0x01\n      add\n        /* \"contracts/CrowdSourcing.sol\":2535:2584  milestone.info.deadline = _milestones[i].deadline */\n      dup2\n      swap1\n      sstore\n      pop\n        /* \"contracts/CrowdSourcing.sol\":2622:2623  0 */\n      0x00\n        /* \"contracts/CrowdSourcing.sol\":2598:2607  milestone */\n      dup2\n        /* \"contracts/CrowdSourcing.sol\":2598:2619  milestone.totalFunded */\n      0x02\n      add\n        /* \"contracts/CrowdSourcing.sol\":2598:2623  milestone.totalFunded = 0 */\n      dup2\n      swap1\n      sstore\n      pop\n        /* \"contracts/CrowdSourcing.sol\":2657:2662  false */\n      0x00\n        /* \"contracts/CrowdSourcing.sol\":2637:2646  milestone */\n      dup2\n        /* \"contracts/CrowdSourcing.sol\":2637:2654  milestone.reached */\n      0x05\n      add\n      0x00\n        /* \"contracts/CrowdSourcing.sol\":2637:2662  milestone.reached = false */\n      0x0100\n      exp\n      dup2\n      sload\n      dup2\n      0xff\n      mul\n      not\n      and\n      swap1\n      dup4\n      iszero\n      iszero\n      mul\n      or\n      swap1\n      sstore\n      pop\n        /* \"contracts/CrowdSourcing.sol\":2385:2673  {... */\n      pop\n        /* \"contracts/CrowdSourcing.sol\":2381:2384  i++ */\n      dup1\n      dup1\n      0x01\n      add\n      swap2\n      pop\n      pop\n        /* \"contracts/CrowdSourcing.sol\":2344:2673  for(uint i=0; i< _milestones.length; i++){... */\n      jump(tag_86)\n    tag_87:\n      pop\n        /* \"contracts/CrowdSourcing.sol\":1947:2679  {... */\n      pop\n        /* \"contracts/CrowdSourcing.sol\":1836:2679  function createProject(... */\n      pop\n      pop\n      jump\t// out\n        /* \"contracts/CrowdSourcing.sol\":2685:3459  function fundProject (... */\n    tag_30:\n        /* \"contracts/CrowdSourcing.sol\":2788:2796  projects */\n      0x01\n        /* \"contracts/CrowdSourcing.sol\":2788:2803  projects.length */\n      dup1\n      sload\n      swap1\n      pop\n        /* \"contracts/CrowdSourcing.sol\":2774:2785  _projectIdx */\n      dup2\n        /* \"contracts/CrowdSourcing.sol\":2774:2803  _projectIdx < projects.length */\n      lt\n        /* \"contracts/CrowdSourcing.sol\":2766:2829  require(_projectIdx < projects.length, \"Project doesn't exist\") */\n      tag_95\n      jumpi\n      mload(0x40)\n      0x08c379a000000000000000000000000000000000000000000000000000000000\n      dup2\n      mstore\n      0x04\n      add\n      tag_96\n      swap1\n      tag_97\n      jump\t// in\n    tag_96:\n      mload(0x40)\n      dup1\n      swap2\n      sub\n      swap1\n      revert\n    tag_95:\n        /* \"contracts/CrowdSourcing.sol\":2860:2870  msg.sender */\n      caller\n        /* \"contracts/CrowdSourcing.sol\":2860:2878  msg.sender.balance */\n      0xffffffffffffffffffffffffffffffffffffffff\n      and\n      balance\n        /* \"contracts/CrowdSourcing.sol\":2847:2856  msg.value */\n      callvalue\n        /* \"contracts/CrowdSourcing.sol\":2847:2878  msg.value <= msg.sender.balance */\n      gt\n      iszero\n        /* \"contracts/CrowdSourcing.sol\":2839:2917  require(msg.value <= msg.sender.balance, \"You dont have enough money to fund\") */\n      tag_98\n      jumpi\n      mload(0x40)\n      0x08c379a000000000000000000000000000000000000000000000000000000000\n      dup2\n      mstore\n      0x04\n      add\n      tag_99\n      swap1\n      tag_100\n      jump\t// in\n    tag_99:\n      mload(0x40)\n      dup1\n      swap2\n      sub\n      swap1\n      revert\n    tag_98:\n        /* \"contracts/CrowdSourcing.sol\":2947:2948  0 */\n      0x00\n        /* \"contracts/CrowdSourcing.sol\":2935:2944  msg.value */\n      callvalue\n        /* \"contracts/CrowdSourcing.sol\":2935:2948  msg.value > 0 */\n      gt\n        /* \"contracts/CrowdSourcing.sol\":2927:2975  require(msg.value > 0, \"Fund amount can't be 0\") */\n      tag_101\n      jumpi\n      mload(0x40)\n      0x08c379a000000000000000000000000000000000000000000000000000000000\n      dup2\n      mstore\n      0x04\n      add\n      tag_102\n      swap1\n      tag_103\n      jump\t// in\n    tag_102:\n      mload(0x40)\n      dup1\n      swap2\n      sub\n      swap1\n      revert\n    tag_101:\n        /* \"contracts/CrowdSourcing.sol\":2986:3009  Project storage project */\n      0x00\n        /* \"contracts/CrowdSourcing.sol\":3012:3020  projects */\n      0x01\n        /* \"contracts/CrowdSourcing.sol\":3021:3032  _projectIdx */\n      dup3\n        /* \"contracts/CrowdSourcing.sol\":3012:3033  projects[_projectIdx] */\n      dup2\n      sload\n      dup2\n      lt\n      tag_104\n      jumpi\n      tag_105\n      tag_34\n      jump\t// in\n    tag_105:\n    tag_104:\n      swap1\n      0x00\n      mstore\n      keccak256(0x00, 0x20)\n      swap1\n      0x06\n      mul\n      add\n        /* \"contracts/CrowdSourcing.sol\":2986:3033  Project storage project = projects[_projectIdx] */\n      swap1\n      pop\n        /* \"contracts/CrowdSourcing.sol\":3051:3058  project */\n      dup1\n        /* \"contracts/CrowdSourcing.sol\":3051:3067  project.isActive */\n      0x05\n      add\n      0x00\n      swap1\n      sload\n      swap1\n      0x0100\n      exp\n      swap1\n      div\n      0xff\n      and\n        /* \"contracts/CrowdSourcing.sol\":3043:3102  require(project.isActive, \"Project must be active to fund\") */\n      tag_107\n      jumpi\n      mload(0x40)\n      0x08c379a000000000000000000000000000000000000000000000000000000000\n      dup2\n      mstore\n      0x04\n      add\n      tag_108\n      swap1\n      tag_109\n      jump\t// in\n    tag_108:\n      mload(0x40)\n      dup1\n      swap2\n      sub\n      swap1\n      revert\n    tag_107:\n        /* \"contracts/CrowdSourcing.sol\":3113:3147  Milestone storage currentMilestone */\n      0x00\n        /* \"contracts/CrowdSourcing.sol\":3150:3157  project */\n      dup2\n        /* \"contracts/CrowdSourcing.sol\":3150:3168  project.milestones */\n      0x04\n      add\n        /* \"contracts/CrowdSourcing.sol\":3169:3176  project */\n      dup3\n        /* \"contracts/CrowdSourcing.sol\":3169:3198  project.currentMilestoneIndex */\n      0x03\n      add\n      sload\n        /* \"contracts/CrowdSourcing.sol\":3150:3199  project.milestones[project.currentMilestoneIndex] */\n      dup2\n      sload\n      dup2\n      lt\n      tag_110\n      jumpi\n      tag_111\n      tag_34\n      jump\t// in\n    tag_111:\n    tag_110:\n      swap1\n      0x00\n      mstore\n      keccak256(0x00, 0x20)\n      swap1\n      0x06\n      mul\n      add\n        /* \"contracts/CrowdSourcing.sol\":3113:3199  Milestone storage currentMilestone = project.milestones[project.currentMilestoneIndex] */\n      swap1\n      pop\n        /* \"contracts/CrowdSourcing.sol\":3250:3265  block.timestamp */\n      timestamp\n        /* \"contracts/CrowdSourcing.sol\":3217:3233  currentMilestone */\n      dup2\n        /* \"contracts/CrowdSourcing.sol\":3217:3238  currentMilestone.info */\n      0x00\n      add\n        /* \"contracts/CrowdSourcing.sol\":3217:3247  currentMilestone.info.deadline */\n      0x01\n      add\n      sload\n        /* \"contracts/CrowdSourcing.sol\":3217:3265  currentMilestone.info.deadline < block.timestamp */\n      lt\n        /* \"contracts/CrowdSourcing.sol\":3209:3299  require(currentMilestone.info.deadline < block.timestamp, \"You can't fund after deadline\") */\n      tag_113\n      jumpi\n      mload(0x40)\n      0x08c379a000000000000000000000000000000000000000000000000000000000\n      dup2\n      mstore\n      0x04\n      add\n      tag_114\n      swap1\n      tag_115\n      jump\t// in\n    tag_114:\n      mload(0x40)\n      dup1\n      swap2\n      sub\n      swap1\n      revert\n    tag_113:\n        /* \"contracts/CrowdSourcing.sol\":3350:3359  msg.value */\n      callvalue\n        /* \"contracts/CrowdSourcing.sol\":3310:3326  currentMilestone */\n      dup2\n        /* \"contracts/CrowdSourcing.sol\":3310:3334  currentMilestone.funders */\n      0x04\n      add\n        /* \"contracts/CrowdSourcing.sol\":3310:3346  currentMilestone.funders[msg.sender] */\n      0x00\n        /* \"contracts/CrowdSourcing.sol\":3335:3345  msg.sender */\n      caller\n        /* \"contracts/CrowdSourcing.sol\":3310:3346  currentMilestone.funders[msg.sender] */\n      0xffffffffffffffffffffffffffffffffffffffff\n      and\n      0xffffffffffffffffffffffffffffffffffffffff\n      and\n      dup2\n      mstore\n      0x20\n      add\n      swap1\n      dup2\n      mstore\n      0x20\n      add\n      0x00\n      keccak256\n      0x00\n        /* \"contracts/CrowdSourcing.sol\":3310:3359  currentMilestone.funders[msg.sender] += msg.value */\n      dup3\n      dup3\n      sload\n      tag_116\n      swap2\n      swap1\n      tag_117\n      jump\t// in\n    tag_116:\n      swap3\n      pop\n      pop\n      dup2\n      swap1\n      sstore\n      pop\n        /* \"contracts/CrowdSourcing.sol\":3401:3410  msg.value */\n      callvalue\n        /* \"contracts/CrowdSourcing.sol\":3369:3385  currentMilestone */\n      dup2\n        /* \"contracts/CrowdSourcing.sol\":3369:3397  currentMilestone.totalFunded */\n      0x02\n      add\n      0x00\n        /* \"contracts/CrowdSourcing.sol\":3369:3410  currentMilestone.totalFunded += msg.value */\n      dup3\n      dup3\n      sload\n      tag_118\n      swap2\n      swap1\n      tag_117\n      jump\t// in\n    tag_118:\n      swap3\n      pop\n      pop\n      dup2\n      swap1\n      sstore\n      pop\n        /* \"contracts/CrowdSourcing.sol\":3443:3452  msg.value */\n      callvalue\n        /* \"contracts/CrowdSourcing.sol\":3420:3427  project */\n      dup3\n        /* \"contracts/CrowdSourcing.sol\":3420:3439  project.totalFunded */\n      0x02\n      add\n      0x00\n        /* \"contracts/CrowdSourcing.sol\":3420:3452  project.totalFunded += msg.value */\n      dup3\n      dup3\n      sload\n      tag_119\n      swap2\n      swap1\n      tag_117\n      jump\t// in\n    tag_119:\n      swap3\n      pop\n      pop\n      dup2\n      swap1\n      sstore\n      pop\n        /* \"contracts/CrowdSourcing.sol\":2756:3459  {... */\n      pop\n      pop\n        /* \"contracts/CrowdSourcing.sol\":2685:3459  function fundProject (... */\n      pop\n      jump\t// out\n        /* \"contracts/CrowdSourcing.sol\":5169:5882  function refundMilestone(... */\n    tag_67:\n        /* \"contracts/CrowdSourcing.sol\":5272:5295  Project storage project */\n      0x00\n        /* \"contracts/CrowdSourcing.sol\":5298:5306  projects */\n      0x01\n        /* \"contracts/CrowdSourcing.sol\":5307:5318  _projectIdx */\n      dup4\n        /* \"contracts/CrowdSourcing.sol\":5298:5319  projects[_projectIdx] */\n      dup2\n      sload\n      dup2\n      lt\n      tag_121\n      jumpi\n      tag_122\n      tag_34\n      jump\t// in\n    tag_122:\n    tag_121:\n      swap1\n      0x00\n      mstore\n      keccak256(0x00, 0x20)\n      swap1\n      0x06\n      mul\n      add\n        /* \"contracts/CrowdSourcing.sol\":5272:5319  Project storage project = projects[_projectIdx] */\n      swap1\n      pop\n        /* \"contracts/CrowdSourcing.sol\":5329:5356  Milestone storage milestone */\n      0x00\n        /* \"contracts/CrowdSourcing.sol\":5359:5366  project */\n      dup2\n        /* \"contracts/CrowdSourcing.sol\":5359:5377  project.milestones */\n      0x04\n      add\n        /* \"contracts/CrowdSourcing.sol\":5378:5391  _milestoneIdx */\n      dup4\n        /* \"contracts/CrowdSourcing.sol\":5359:5392  project.milestones[_milestoneIdx] */\n      dup2\n      sload\n      dup2\n      lt\n      tag_124\n      jumpi\n      tag_125\n      tag_34\n      jump\t// in\n    tag_125:\n    tag_124:\n      swap1\n      0x00\n      mstore\n      keccak256(0x00, 0x20)\n      swap1\n      0x06\n      mul\n      add\n        /* \"contracts/CrowdSourcing.sol\":5329:5392  Milestone storage milestone = project.milestones[_milestoneIdx] */\n      swap1\n      pop\n        /* \"contracts/CrowdSourcing.sol\":5407:5413  uint i */\n      0x00\n        /* \"contracts/CrowdSourcing.sol\":5414:5415  0 */\n      0x00\n        /* \"contracts/CrowdSourcing.sol\":5407:5415  uint i=0 */\n      swap1\n      pop\n        /* \"contracts/CrowdSourcing.sol\":5403:5789  for(uint i=0; i<milestone.funderAddresses.length; i++){... */\n    tag_127:\n        /* \"contracts/CrowdSourcing.sol\":5419:5428  milestone */\n      dup2\n        /* \"contracts/CrowdSourcing.sol\":5419:5444  milestone.funderAddresses */\n      0x03\n      add\n        /* \"contracts/CrowdSourcing.sol\":5419:5451  milestone.funderAddresses.length */\n      dup1\n      sload\n      swap1\n      pop\n        /* \"contracts/CrowdSourcing.sol\":5417:5418  i */\n      dup2\n        /* \"contracts/CrowdSourcing.sol\":5417:5451  i<milestone.funderAddresses.length */\n      lt\n        /* \"contracts/CrowdSourcing.sol\":5403:5789  for(uint i=0; i<milestone.funderAddresses.length; i++){... */\n      iszero\n      tag_128\n      jumpi\n        /* \"contracts/CrowdSourcing.sol\":5471:5485  address funder */\n      0x00\n        /* \"contracts/CrowdSourcing.sol\":5488:5497  milestone */\n      dup3\n        /* \"contracts/CrowdSourcing.sol\":5488:5513  milestone.funderAddresses */\n      0x03\n      add\n        /* \"contracts/CrowdSourcing.sol\":5514:5515  i */\n      dup3\n        /* \"contracts/CrowdSourcing.sol\":5488:5516  milestone.funderAddresses[i] */\n      dup2\n      sload\n      dup2\n      lt\n      tag_130\n      jumpi\n      tag_131\n      tag_34\n      jump\t// in\n    tag_131:\n    tag_130:\n      swap1\n      0x00\n      mstore\n      keccak256(0x00, 0x20)\n      add\n      0x00\n      swap1\n      sload\n      swap1\n      0x0100\n      exp\n      swap1\n      div\n      0xffffffffffffffffffffffffffffffffffffffff\n      and\n        /* \"contracts/CrowdSourcing.sol\":5471:5516  address funder = milestone.funderAddresses[i] */\n      swap1\n      pop\n        /* \"contracts/CrowdSourcing.sol\":5530:5541  uint amount */\n      0x00\n        /* \"contracts/CrowdSourcing.sol\":5544:5553  milestone */\n      dup4\n        /* \"contracts/CrowdSourcing.sol\":5544:5561  milestone.funders */\n      0x04\n      add\n        /* \"contracts/CrowdSourcing.sol\":5544:5569  milestone.funders[funder] */\n      0x00\n        /* \"contracts/CrowdSourcing.sol\":5562:5568  funder */\n      dup4\n        /* \"contracts/CrowdSourcing.sol\":5544:5569  milestone.funders[funder] */\n      0xffffffffffffffffffffffffffffffffffffffff\n      and\n      0xffffffffffffffffffffffffffffffffffffffff\n      and\n      dup2\n      mstore\n      0x20\n      add\n      swap1\n      dup2\n      mstore\n      0x20\n      add\n      0x00\n      keccak256\n      sload\n        /* \"contracts/CrowdSourcing.sol\":5530:5569  uint amount = milestone.funders[funder] */\n      swap1\n      pop\n        /* \"contracts/CrowdSourcing.sol\":5596:5597  0 */\n      0x00\n        /* \"contracts/CrowdSourcing.sol\":5587:5593  amount */\n      dup2\n        /* \"contracts/CrowdSourcing.sol\":5587:5597  amount > 0 */\n      gt\n        /* \"contracts/CrowdSourcing.sol\":5584:5779  if(amount > 0) {... */\n      iszero\n      tag_133\n      jumpi\n        /* \"contracts/CrowdSourcing.sol\":5645:5646  0 */\n      0x00\n        /* \"contracts/CrowdSourcing.sol\":5617:5626  milestone */\n      dup5\n        /* \"contracts/CrowdSourcing.sol\":5617:5634  milestone.funders */\n      0x04\n      add\n        /* \"contracts/CrowdSourcing.sol\":5617:5642  milestone.funders[funder] */\n      0x00\n        /* \"contracts/CrowdSourcing.sol\":5635:5641  funder */\n      dup5\n        /* \"contracts/CrowdSourcing.sol\":5617:5642  milestone.funders[funder] */\n      0xffffffffffffffffffffffffffffffffffffffff\n      and\n      0xffffffffffffffffffffffffffffffffffffffff\n      and\n      dup2\n      mstore\n      0x20\n      add\n      swap1\n      dup2\n      mstore\n      0x20\n      add\n      0x00\n      keccak256\n        /* \"contracts/CrowdSourcing.sol\":5617:5646  milestone.funders[funder] = 0 */\n      dup2\n      swap1\n      sstore\n      pop\n        /* \"contracts/CrowdSourcing.sol\":5665:5677  bool success */\n      0x00\n        /* \"contracts/CrowdSourcing.sol\":5683:5689  funder */\n      dup3\n        /* \"contracts/CrowdSourcing.sol\":5683:5694  funder.call */\n      0xffffffffffffffffffffffffffffffffffffffff\n      and\n        /* \"contracts/CrowdSourcing.sol\":5702:5708  amount */\n      dup3\n        /* \"contracts/CrowdSourcing.sol\":5683:5713  funder.call{value: amount}(\"\") */\n      mload(0x40)\n      tag_134\n      swap1\n      tag_50\n      jump\t// in\n    tag_134:\n      0x00\n      mload(0x40)\n      dup1\n      dup4\n      sub\n      dup2\n      dup6\n      dup8\n      gas\n      call\n      swap3\n      pop\n      pop\n      pop\n      returndatasize\n      dup1\n      0x00\n      dup2\n      eq\n      tag_137\n      jumpi\n      mload(0x40)\n      swap2\n      pop\n      and(add(returndatasize, 0x3f), not(0x1f))\n      dup3\n      add\n      0x40\n      mstore\n      returndatasize\n      dup3\n      mstore\n      returndatasize\n      0x00\n      0x20\n      dup5\n      add\n      returndatacopy\n      jump(tag_136)\n    tag_137:\n      0x60\n      swap2\n      pop\n    tag_136:\n      pop\n        /* \"contracts/CrowdSourcing.sol\":5664:5713  (bool success, ) = funder.call{value: amount}(\"\") */\n      pop\n      swap1\n      pop\n        /* \"contracts/CrowdSourcing.sol\":5739:5746  success */\n      dup1\n        /* \"contracts/CrowdSourcing.sol\":5731:5764  require(success, \"Refund failed\") */\n      tag_138\n      jumpi\n      mload(0x40)\n      0x08c379a000000000000000000000000000000000000000000000000000000000\n      dup2\n      mstore\n      0x04\n      add\n      tag_139\n      swap1\n      tag_140\n      jump\t// in\n    tag_139:\n      mload(0x40)\n      dup1\n      swap2\n      sub\n      swap1\n      revert\n    tag_138:\n        /* \"contracts/CrowdSourcing.sol\":5599:5779  {... */\n      pop\n        /* \"contracts/CrowdSourcing.sol\":5584:5779  if(amount > 0) {... */\n    tag_133:\n        /* \"contracts/CrowdSourcing.sol\":5457:5789  {... */\n      pop\n      pop\n        /* \"contracts/CrowdSourcing.sol\":5453:5456  i++ */\n      dup1\n      dup1\n      0x01\n      add\n      swap2\n      pop\n      pop\n        /* \"contracts/CrowdSourcing.sol\":5403:5789  for(uint i=0; i<milestone.funderAddresses.length; i++){... */\n      jump(tag_127)\n    tag_128:\n      pop\n        /* \"contracts/CrowdSourcing.sol\":5834:5847  _milestoneIdx */\n      dup3\n        /* \"contracts/CrowdSourcing.sol\":5821:5832  _projectIdx */\n      dup5\n        /* \"contracts/CrowdSourcing.sol\":5803:5875  MilestoneRefunded(_projectIdx, _milestoneIdx, milestone.funderAddresses) */\n      0x84bb845d12f485aaadcf32d6bc01b9d43865c73fc739029daeaf884752c0e238\n        /* \"contracts/CrowdSourcing.sol\":5849:5858  milestone */\n      dup4\n        /* \"contracts/CrowdSourcing.sol\":5849:5874  milestone.funderAddresses */\n      0x03\n      add\n        /* \"contracts/CrowdSourcing.sol\":5803:5875  MilestoneRefunded(_projectIdx, _milestoneIdx, milestone.funderAddresses) */\n      mload(0x40)\n      tag_141\n      swap2\n      swap1\n      tag_142\n      jump\t// in\n    tag_141:\n      mload(0x40)\n      dup1\n      swap2\n      sub\n      swap1\n      log3\n        /* \"contracts/CrowdSourcing.sol\":5262:5882  {... */\n      pop\n      pop\n        /* \"contracts/CrowdSourcing.sol\":5169:5882  function refundMilestone(... */\n      pop\n      pop\n      jump\t// out\n        /* \"#utility.yul\":7:82   */\n    tag_143:\n        /* \"#utility.yul\":40:46   */\n      0x00\n        /* \"#utility.yul\":73:75   */\n      0x40\n        /* \"#utility.yul\":67:76   */\n      mload\n        /* \"#utility.yul\":57:76   */\n      swap1\n      pop\n        /* \"#utility.yul\":7:82   */\n      swap1\n      jump\t// out\n        /* \"#utility.yul\":88:205   */\n    tag_144:\n        /* \"#utility.yul\":197:198   */\n      0x00\n        /* \"#utility.yul\":194:195   */\n      0x00\n        /* \"#utility.yul\":187:199   */\n      revert\n        /* \"#utility.yul\":211:328   */\n    tag_145:\n        /* \"#utility.yul\":320:321   */\n      0x00\n        /* \"#utility.yul\":317:318   */\n      0x00\n        /* \"#utility.yul\":310:322   */\n      revert\n        /* \"#utility.yul\":334:411   */\n    tag_146:\n        /* \"#utility.yul\":371:378   */\n      0x00\n        /* \"#utility.yul\":400:405   */\n      dup2\n        /* \"#utility.yul\":389:405   */\n      swap1\n      pop\n        /* \"#utility.yul\":334:411   */\n      swap2\n      swap1\n      pop\n      jump\t// out\n        /* \"#utility.yul\":417:539   */\n    tag_147:\n        /* \"#utility.yul\":490:514   */\n      tag_237\n        /* \"#utility.yul\":508:513   */\n      dup2\n        /* \"#utility.yul\":490:514   */\n      tag_146\n      jump\t// in\n    tag_237:\n        /* \"#utility.yul\":483:488   */\n      dup2\n        /* \"#utility.yul\":480:515   */\n      eq\n        /* \"#utility.yul\":470:533   */\n      tag_238\n      jumpi\n        /* \"#utility.yul\":529:530   */\n      0x00\n        /* \"#utility.yul\":526:527   */\n      0x00\n        /* \"#utility.yul\":519:531   */\n      revert\n        /* \"#utility.yul\":470:533   */\n    tag_238:\n        /* \"#utility.yul\":417:539   */\n      pop\n      jump\t// out\n        /* \"#utility.yul\":545:684   */\n    tag_148:\n        /* \"#utility.yul\":591:596   */\n      0x00\n        /* \"#utility.yul\":629:635   */\n      dup2\n        /* \"#utility.yul\":616:636   */\n      calldataload\n        /* \"#utility.yul\":607:636   */\n      swap1\n      pop\n        /* \"#utility.yul\":645:678   */\n      tag_240\n        /* \"#utility.yul\":672:677   */\n      dup2\n        /* \"#utility.yul\":645:678   */\n      tag_147\n      jump\t// in\n    tag_240:\n        /* \"#utility.yul\":545:684   */\n      swap3\n      swap2\n      pop\n      pop\n      jump\t// out\n        /* \"#utility.yul\":690:1019   */\n    tag_10:\n        /* \"#utility.yul\":749:755   */\n      0x00\n        /* \"#utility.yul\":798:800   */\n      0x20\n        /* \"#utility.yul\":786:795   */\n      dup3\n        /* \"#utility.yul\":777:784   */\n      dup5\n        /* \"#utility.yul\":773:796   */\n      sub\n        /* \"#utility.yul\":769:801   */\n      slt\n        /* \"#utility.yul\":766:885   */\n      iszero\n      tag_242\n      jumpi\n        /* \"#utility.yul\":804:883   */\n      tag_243\n      tag_144\n      jump\t// in\n    tag_243:\n        /* \"#utility.yul\":766:885   */\n    tag_242:\n        /* \"#utility.yul\":924:925   */\n      0x00\n        /* \"#utility.yul\":949:1002   */\n      tag_244\n        /* \"#utility.yul\":994:1001   */\n      dup5\n        /* \"#utility.yul\":985:991   */\n      dup3\n        /* \"#utility.yul\":974:983   */\n      dup6\n        /* \"#utility.yul\":970:992   */\n      add\n        /* \"#utility.yul\":949:1002   */\n      tag_148\n      jump\t// in\n    tag_244:\n        /* \"#utility.yul\":939:1002   */\n      swap2\n      pop\n        /* \"#utility.yul\":895:1012   */\n      pop\n        /* \"#utility.yul\":690:1019   */\n      swap3\n      swap2\n      pop\n      pop\n      jump\t// out\n        /* \"#utility.yul\":1025:1151   */\n    tag_149:\n        /* \"#utility.yul\":1062:1069   */\n      0x00\n        /* \"#utility.yul\":1102:1144   */\n      0xffffffffffffffffffffffffffffffffffffffff\n        /* \"#utility.yul\":1095:1100   */\n      dup3\n        /* \"#utility.yul\":1091:1145   */\n      and\n        /* \"#utility.yul\":1080:1145   */\n      swap1\n      pop\n        /* \"#utility.yul\":1025:1151   */\n      swap2\n      swap1\n      pop\n      jump\t// out\n        /* \"#utility.yul\":1157:1253   */\n    tag_150:\n        /* \"#utility.yul\":1194:1201   */\n      0x00\n        /* \"#utility.yul\":1223:1247   */\n      tag_247\n        /* \"#utility.yul\":1241:1246   */\n      dup3\n        /* \"#utility.yul\":1223:1247   */\n      tag_149\n      jump\t// in\n    tag_247:\n        /* \"#utility.yul\":1212:1247   */\n      swap1\n      pop\n        /* \"#utility.yul\":1157:1253   */\n      swap2\n      swap1\n      pop\n      jump\t// out\n        /* \"#utility.yul\":1259:1377   */\n    tag_151:\n        /* \"#utility.yul\":1346:1370   */\n      tag_249\n        /* \"#utility.yul\":1364:1369   */\n      dup2\n        /* \"#utility.yul\":1346:1370   */\n      tag_150\n      jump\t// in\n    tag_249:\n        /* \"#utility.yul\":1341:1344   */\n      dup3\n        /* \"#utility.yul\":1334:1371   */\n      mstore\n        /* \"#utility.yul\":1259:1377   */\n      pop\n      pop\n      jump\t// out\n        /* \"#utility.yul\":1383:1605   */\n    tag_16:\n        /* \"#utility.yul\":1476:1480   */\n      0x00\n        /* \"#utility.yul\":1514:1516   */\n      0x20\n        /* \"#utility.yul\":1503:1512   */\n      dup3\n        /* \"#utility.yul\":1499:1517   */\n      add\n        /* \"#utility.yul\":1491:1517   */\n      swap1\n      pop\n        /* \"#utility.yul\":1527:1598   */\n      tag_251\n        /* \"#utility.yul\":1595:1596   */\n      0x00\n        /* \"#utility.yul\":1584:1593   */\n      dup4\n        /* \"#utility.yul\":1580:1597   */\n      add\n        /* \"#utility.yul\":1571:1577   */\n      dup5\n        /* \"#utility.yul\":1527:1598   */\n      tag_151\n      jump\t// in\n    tag_251:\n        /* \"#utility.yul\":1383:1605   */\n      swap3\n      swap2\n      pop\n      pop\n      jump\t// out\n        /* \"#utility.yul\":1611:1710   */\n    tag_152:\n        /* \"#utility.yul\":1663:1669   */\n      0x00\n        /* \"#utility.yul\":1697:1702   */\n      dup2\n        /* \"#utility.yul\":1691:1703   */\n      mload\n        /* \"#utility.yul\":1681:1703   */\n      swap1\n      pop\n        /* \"#utility.yul\":1611:1710   */\n      swap2\n      swap1\n      pop\n      jump\t// out\n        /* \"#utility.yul\":1716:1885   */\n    tag_153:\n        /* \"#utility.yul\":1800:1811   */\n      0x00\n        /* \"#utility.yul\":1834:1840   */\n      dup3\n        /* \"#utility.yul\":1829:1832   */\n      dup3\n        /* \"#utility.yul\":1822:1841   */\n      mstore\n        /* \"#utility.yul\":1874:1878   */\n      0x20\n        /* \"#utility.yul\":1869:1872   */\n      dup3\n        /* \"#utility.yul\":1865:1879   */\n      add\n        /* \"#utility.yul\":1850:1879   */\n      swap1\n      pop\n        /* \"#utility.yul\":1716:1885   */\n      swap3\n      swap2\n      pop\n      pop\n      jump\t// out\n        /* \"#utility.yul\":1891:2030   */\n    tag_154:\n        /* \"#utility.yul\":1980:1986   */\n      dup3\n        /* \"#utility.yul\":1975:1978   */\n      dup2\n        /* \"#utility.yul\":1970:1973   */\n      dup4\n        /* \"#utility.yul\":1964:1987   */\n      mcopy\n        /* \"#utility.yul\":2021:2022   */\n      0x00\n        /* \"#utility.yul\":2012:2018   */\n      dup4\n        /* \"#utility.yul\":2007:2010   */\n      dup4\n        /* \"#utility.yul\":2003:2019   */\n      add\n        /* \"#utility.yul\":1996:2023   */\n      mstore\n        /* \"#utility.yul\":1891:2030   */\n      pop\n      pop\n      pop\n      jump\t// out\n        /* \"#utility.yul\":2036:2138   */\n    tag_155:\n        /* \"#utility.yul\":2077:2083   */\n      0x00\n        /* \"#utility.yul\":2128:2130   */\n      0x1f\n        /* \"#utility.yul\":2124:2131   */\n      not\n        /* \"#utility.yul\":2119:2121   */\n      0x1f\n        /* \"#utility.yul\":2112:2117   */\n      dup4\n        /* \"#utility.yul\":2108:2122   */\n      add\n        /* \"#utility.yul\":2104:2132   */\n      and\n        /* \"#utility.yul\":2094:2132   */\n      swap1\n      pop\n        /* \"#utility.yul\":2036:2138   */\n      swap2\n      swap1\n      pop\n      jump\t// out\n        /* \"#utility.yul\":2144:2521   */\n    tag_156:\n        /* \"#utility.yul\":2232:2235   */\n      0x00\n        /* \"#utility.yul\":2260:2299   */\n      tag_257\n        /* \"#utility.yul\":2293:2298   */\n      dup3\n        /* \"#utility.yul\":2260:2299   */\n      tag_152\n      jump\t// in\n    tag_257:\n        /* \"#utility.yul\":2315:2386   */\n      tag_258\n        /* \"#utility.yul\":2379:2385   */\n      dup2\n        /* \"#utility.yul\":2374:2377   */\n      dup6\n        /* \"#utility.yul\":2315:2386   */\n      tag_153\n      jump\t// in\n    tag_258:\n        /* \"#utility.yul\":2308:2386   */\n      swap4\n      pop\n        /* \"#utility.yul\":2395:2460   */\n      tag_259\n        /* \"#utility.yul\":2453:2459   */\n      dup2\n        /* \"#utility.yul\":2448:2451   */\n      dup6\n        /* \"#utility.yul\":2441:2445   */\n      0x20\n        /* \"#utility.yul\":2434:2439   */\n      dup7\n        /* \"#utility.yul\":2430:2446   */\n      add\n        /* \"#utility.yul\":2395:2460   */\n      tag_154\n      jump\t// in\n    tag_259:\n        /* \"#utility.yul\":2485:2514   */\n      tag_260\n        /* \"#utility.yul\":2507:2513   */\n      dup2\n        /* \"#utility.yul\":2485:2514   */\n      tag_155\n      jump\t// in\n    tag_260:\n        /* \"#utility.yul\":2480:2483   */\n      dup5\n        /* \"#utility.yul\":2476:2515   */\n      add\n        /* \"#utility.yul\":2469:2515   */\n      swap2\n      pop\n        /* \"#utility.yul\":2236:2521   */\n      pop\n        /* \"#utility.yul\":2144:2521   */\n      swap3\n      swap2\n      pop\n      pop\n      jump\t// out\n        /* \"#utility.yul\":2527:2645   */\n    tag_157:\n        /* \"#utility.yul\":2614:2638   */\n      tag_262\n        /* \"#utility.yul\":2632:2637   */\n      dup2\n        /* \"#utility.yul\":2614:2638   */\n      tag_146\n      jump\t// in\n    tag_262:\n        /* \"#utility.yul\":2609:2612   */\n      dup3\n        /* \"#utility.yul\":2602:2639   */\n      mstore\n        /* \"#utility.yul\":2527:2645   */\n      pop\n      pop\n      jump\t// out\n        /* \"#utility.yul\":2651:2741   */\n    tag_158:\n        /* \"#utility.yul\":2685:2692   */\n      0x00\n        /* \"#utility.yul\":2728:2733   */\n      dup2\n        /* \"#utility.yul\":2721:2734   */\n      iszero\n        /* \"#utility.yul\":2714:2735   */\n      iszero\n        /* \"#utility.yul\":2703:2735   */\n      swap1\n      pop\n        /* \"#utility.yul\":2651:2741   */\n      swap2\n      swap1\n      pop\n      jump\t// out\n        /* \"#utility.yul\":2747:2856   */\n    tag_159:\n        /* \"#utility.yul\":2828:2849   */\n      tag_265\n        /* \"#utility.yul\":2843:2848   */\n      dup2\n        /* \"#utility.yul\":2828:2849   */\n      tag_158\n      jump\t// in\n    tag_265:\n        /* \"#utility.yul\":2823:2826   */\n      dup3\n        /* \"#utility.yul\":2816:2850   */\n      mstore\n        /* \"#utility.yul\":2747:2856   */\n      pop\n      pop\n      jump\t// out\n        /* \"#utility.yul\":2862:3605   */\n    tag_22:\n        /* \"#utility.yul\":3081:3085   */\n      0x00\n        /* \"#utility.yul\":3119:3122   */\n      0xa0\n        /* \"#utility.yul\":3108:3117   */\n      dup3\n        /* \"#utility.yul\":3104:3123   */\n      add\n        /* \"#utility.yul\":3096:3123   */\n      swap1\n      pop\n        /* \"#utility.yul\":3133:3204   */\n      tag_267\n        /* \"#utility.yul\":3201:3202   */\n      0x00\n        /* \"#utility.yul\":3190:3199   */\n      dup4\n        /* \"#utility.yul\":3186:3203   */\n      add\n        /* \"#utility.yul\":3177:3183   */\n      dup9\n        /* \"#utility.yul\":3133:3204   */\n      tag_151\n      jump\t// in\n    tag_267:\n        /* \"#utility.yul\":3251:3260   */\n      dup2\n        /* \"#utility.yul\":3245:3249   */\n      dup2\n        /* \"#utility.yul\":3241:3261   */\n      sub\n        /* \"#utility.yul\":3236:3238   */\n      0x20\n        /* \"#utility.yul\":3225:3234   */\n      dup4\n        /* \"#utility.yul\":3221:3239   */\n      add\n        /* \"#utility.yul\":3214:3262   */\n      mstore\n        /* \"#utility.yul\":3279:3357   */\n      tag_268\n        /* \"#utility.yul\":3352:3356   */\n      dup2\n        /* \"#utility.yul\":3343:3349   */\n      dup8\n        /* \"#utility.yul\":3279:3357   */\n      tag_156\n      jump\t// in\n    tag_268:\n        /* \"#utility.yul\":3271:3357   */\n      swap1\n      pop\n        /* \"#utility.yul\":3367:3439   */\n      tag_269\n        /* \"#utility.yul\":3435:3437   */\n      0x40\n        /* \"#utility.yul\":3424:3433   */\n      dup4\n        /* \"#utility.yul\":3420:3438   */\n      add\n        /* \"#utility.yul\":3411:3417   */\n      dup7\n        /* \"#utility.yul\":3367:3439   */\n      tag_157\n      jump\t// in\n    tag_269:\n        /* \"#utility.yul\":3449:3521   */\n      tag_270\n        /* \"#utility.yul\":3517:3519   */\n      0x60\n        /* \"#utility.yul\":3506:3515   */\n      dup4\n        /* \"#utility.yul\":3502:3520   */\n      add\n        /* \"#utility.yul\":3493:3499   */\n      dup6\n        /* \"#utility.yul\":3449:3521   */\n      tag_157\n      jump\t// in\n    tag_270:\n        /* \"#utility.yul\":3531:3598   */\n      tag_271\n        /* \"#utility.yul\":3593:3596   */\n      0x80\n        /* \"#utility.yul\":3582:3591   */\n      dup4\n        /* \"#utility.yul\":3578:3597   */\n      add\n        /* \"#utility.yul\":3569:3575   */\n      dup5\n        /* \"#utility.yul\":3531:3598   */\n      tag_159\n      jump\t// in\n    tag_271:\n        /* \"#utility.yul\":2862:3605   */\n      swap7\n      swap6\n      pop\n      pop\n      pop\n      pop\n      pop\n      pop\n      jump\t// out\n        /* \"#utility.yul\":3611:3728   */\n    tag_160:\n        /* \"#utility.yul\":3720:3721   */\n      0x00\n        /* \"#utility.yul\":3717:3718   */\n      0x00\n        /* \"#utility.yul\":3710:3722   */\n      revert\n        /* \"#utility.yul\":3734:3851   */\n    tag_161:\n        /* \"#utility.yul\":3843:3844   */\n      0x00\n        /* \"#utility.yul\":3840:3841   */\n      0x00\n        /* \"#utility.yul\":3833:3845   */\n      revert\n        /* \"#utility.yul\":3857:4037   */\n    tag_162:\n        /* \"#utility.yul\":3905:3982   */\n      0x4e487b7100000000000000000000000000000000000000000000000000000000\n        /* \"#utility.yul\":3902:3903   */\n      0x00\n        /* \"#utility.yul\":3895:3983   */\n      mstore\n        /* \"#utility.yul\":4002:4006   */\n      0x41\n        /* \"#utility.yul\":3999:4000   */\n      0x04\n        /* \"#utility.yul\":3992:4007   */\n      mstore\n        /* \"#utility.yul\":4026:4030   */\n      0x24\n        /* \"#utility.yul\":4023:4024   */\n      0x00\n        /* \"#utility.yul\":4016:4031   */\n      revert\n        /* \"#utility.yul\":4043:4324   */\n    tag_163:\n        /* \"#utility.yul\":4126:4153   */\n      tag_276\n        /* \"#utility.yul\":4148:4152   */\n      dup3\n        /* \"#utility.yul\":4126:4153   */\n      tag_155\n      jump\t// in\n    tag_276:\n        /* \"#utility.yul\":4118:4124   */\n      dup2\n        /* \"#utility.yul\":4114:4154   */\n      add\n        /* \"#utility.yul\":4256:4262   */\n      dup2\n        /* \"#utility.yul\":4244:4254   */\n      dup2\n        /* \"#utility.yul\":4241:4263   */\n      lt\n        /* \"#utility.yul\":4220:4238   */\n      0xffffffffffffffff\n        /* \"#utility.yul\":4208:4218   */\n      dup3\n        /* \"#utility.yul\":4205:4239   */\n      gt\n        /* \"#utility.yul\":4202:4264   */\n      or\n        /* \"#utility.yul\":4199:4287   */\n      iszero\n      tag_277\n      jumpi\n        /* \"#utility.yul\":4267:4285   */\n      tag_278\n      tag_162\n      jump\t// in\n    tag_278:\n        /* \"#utility.yul\":4199:4287   */\n    tag_277:\n        /* \"#utility.yul\":4307:4317   */\n      dup1\n        /* \"#utility.yul\":4303:4305   */\n      0x40\n        /* \"#utility.yul\":4296:4318   */\n      mstore\n        /* \"#utility.yul\":4086:4324   */\n      pop\n        /* \"#utility.yul\":4043:4324   */\n      pop\n      pop\n      jump\t// out\n        /* \"#utility.yul\":4330:4459   */\n    tag_164:\n        /* \"#utility.yul\":4364:4370   */\n      0x00\n        /* \"#utility.yul\":4391:4411   */\n      tag_280\n      tag_143\n      jump\t// in\n    tag_280:\n        /* \"#utility.yul\":4381:4411   */\n      swap1\n      pop\n        /* \"#utility.yul\":4420:4453   */\n      tag_281\n        /* \"#utility.yul\":4448:4452   */\n      dup3\n        /* \"#utility.yul\":4440:4446   */\n      dup3\n        /* \"#utility.yul\":4420:4453   */\n      tag_163\n      jump\t// in\n    tag_281:\n        /* \"#utility.yul\":4330:4459   */\n      swap2\n      swap1\n      pop\n      jump\t// out\n        /* \"#utility.yul\":4465:4773   */\n    tag_165:\n        /* \"#utility.yul\":4527:4531   */\n      0x00\n        /* \"#utility.yul\":4617:4635   */\n      0xffffffffffffffff\n        /* \"#utility.yul\":4609:4615   */\n      dup3\n        /* \"#utility.yul\":4606:4636   */\n      gt\n        /* \"#utility.yul\":4603:4659   */\n      iszero\n      tag_283\n      jumpi\n        /* \"#utility.yul\":4639:4657   */\n      tag_284\n      tag_162\n      jump\t// in\n    tag_284:\n        /* \"#utility.yul\":4603:4659   */\n    tag_283:\n        /* \"#utility.yul\":4677:4706   */\n      tag_285\n        /* \"#utility.yul\":4699:4705   */\n      dup3\n        /* \"#utility.yul\":4677:4706   */\n      tag_155\n      jump\t// in\n    tag_285:\n        /* \"#utility.yul\":4669:4706   */\n      swap1\n      pop\n        /* \"#utility.yul\":4761:4765   */\n      0x20\n        /* \"#utility.yul\":4755:4759   */\n      dup2\n        /* \"#utility.yul\":4751:4766   */\n      add\n        /* \"#utility.yul\":4743:4766   */\n      swap1\n      pop\n        /* \"#utility.yul\":4465:4773   */\n      swap2\n      swap1\n      pop\n      jump\t// out\n        /* \"#utility.yul\":4779:4927   */\n    tag_166:\n        /* \"#utility.yul\":4877:4883   */\n      dup3\n        /* \"#utility.yul\":4872:4875   */\n      dup2\n        /* \"#utility.yul\":4867:4870   */\n      dup4\n        /* \"#utility.yul\":4854:4884   */\n      calldatacopy\n        /* \"#utility.yul\":4918:4919   */\n      0x00\n        /* \"#utility.yul\":4909:4915   */\n      dup4\n        /* \"#utility.yul\":4904:4907   */\n      dup4\n        /* \"#utility.yul\":4900:4916   */\n      add\n        /* \"#utility.yul\":4893:4920   */\n      mstore\n        /* \"#utility.yul\":4779:4927   */\n      pop\n      pop\n      pop\n      jump\t// out\n        /* \"#utility.yul\":4933:5358   */\n    tag_167:\n        /* \"#utility.yul\":5011:5016   */\n      0x00\n        /* \"#utility.yul\":5036:5102   */\n      tag_288\n        /* \"#utility.yul\":5052:5101   */\n      tag_289\n        /* \"#utility.yul\":5094:5100   */\n      dup5\n        /* \"#utility.yul\":5052:5101   */\n      tag_165\n      jump\t// in\n    tag_289:\n        /* \"#utility.yul\":5036:5102   */\n      tag_164\n      jump\t// in\n    tag_288:\n        /* \"#utility.yul\":5027:5102   */\n      swap1\n      pop\n        /* \"#utility.yul\":5125:5131   */\n      dup3\n        /* \"#utility.yul\":5118:5123   */\n      dup2\n        /* \"#utility.yul\":5111:5132   */\n      mstore\n        /* \"#utility.yul\":5163:5167   */\n      0x20\n        /* \"#utility.yul\":5156:5161   */\n      dup2\n        /* \"#utility.yul\":5152:5168   */\n      add\n        /* \"#utility.yul\":5201:5204   */\n      dup5\n        /* \"#utility.yul\":5192:5198   */\n      dup5\n        /* \"#utility.yul\":5187:5190   */\n      dup5\n        /* \"#utility.yul\":5183:5199   */\n      add\n        /* \"#utility.yul\":5180:5205   */\n      gt\n        /* \"#utility.yul\":5177:5289   */\n      iszero\n      tag_290\n      jumpi\n        /* \"#utility.yul\":5208:5287   */\n      tag_291\n      tag_161\n      jump\t// in\n    tag_291:\n        /* \"#utility.yul\":5177:5289   */\n    tag_290:\n        /* \"#utility.yul\":5298:5352   */\n      tag_292\n        /* \"#utility.yul\":5345:5351   */\n      dup5\n        /* \"#utility.yul\":5340:5343   */\n      dup3\n        /* \"#utility.yul\":5335:5338   */\n      dup6\n        /* \"#utility.yul\":5298:5352   */\n      tag_166\n      jump\t// in\n    tag_292:\n        /* \"#utility.yul\":5017:5358   */\n      pop\n        /* \"#utility.yul\":4933:5358   */\n      swap4\n      swap3\n      pop\n      pop\n      pop\n      jump\t// out\n        /* \"#utility.yul\":5378:5718   */\n    tag_168:\n        /* \"#utility.yul\":5434:5439   */\n      0x00\n        /* \"#utility.yul\":5483:5486   */\n      dup3\n        /* \"#utility.yul\":5476:5480   */\n      0x1f\n        /* \"#utility.yul\":5468:5474   */\n      dup4\n        /* \"#utility.yul\":5464:5481   */\n      add\n        /* \"#utility.yul\":5460:5487   */\n      slt\n        /* \"#utility.yul\":5450:5572   */\n      tag_294\n      jumpi\n        /* \"#utility.yul\":5491:5570   */\n      tag_295\n      tag_160\n      jump\t// in\n    tag_295:\n        /* \"#utility.yul\":5450:5572   */\n    tag_294:\n        /* \"#utility.yul\":5608:5614   */\n      dup2\n        /* \"#utility.yul\":5595:5615   */\n      calldataload\n        /* \"#utility.yul\":5633:5712   */\n      tag_296\n        /* \"#utility.yul\":5708:5711   */\n      dup5\n        /* \"#utility.yul\":5700:5706   */\n      dup3\n        /* \"#utility.yul\":5693:5697   */\n      0x20\n        /* \"#utility.yul\":5685:5691   */\n      dup7\n        /* \"#utility.yul\":5681:5698   */\n      add\n        /* \"#utility.yul\":5633:5712   */\n      tag_167\n      jump\t// in\n    tag_296:\n        /* \"#utility.yul\":5624:5712   */\n      swap2\n      pop\n        /* \"#utility.yul\":5440:5718   */\n      pop\n        /* \"#utility.yul\":5378:5718   */\n      swap3\n      swap2\n      pop\n      pop\n      jump\t// out\n        /* \"#utility.yul\":5724:6064   */\n    tag_169:\n        /* \"#utility.yul\":5830:5834   */\n      0x00\n        /* \"#utility.yul\":5920:5938   */\n      0xffffffffffffffff\n        /* \"#utility.yul\":5912:5918   */\n      dup3\n        /* \"#utility.yul\":5909:5939   */\n      gt\n        /* \"#utility.yul\":5906:5962   */\n      iszero\n      tag_298\n      jumpi\n        /* \"#utility.yul\":5942:5960   */\n      tag_299\n      tag_162\n      jump\t// in\n    tag_299:\n        /* \"#utility.yul\":5906:5962   */\n    tag_298:\n        /* \"#utility.yul\":5992:5996   */\n      0x20\n        /* \"#utility.yul\":5984:5990   */\n      dup3\n        /* \"#utility.yul\":5980:5997   */\n      mul\n        /* \"#utility.yul\":5972:5997   */\n      swap1\n      pop\n        /* \"#utility.yul\":6052:6056   */\n      0x20\n        /* \"#utility.yul\":6046:6050   */\n      dup2\n        /* \"#utility.yul\":6042:6057   */\n      add\n        /* \"#utility.yul\":6034:6057   */\n      swap1\n      pop\n        /* \"#utility.yul\":5724:6064   */\n      swap2\n      swap1\n      pop\n      jump\t// out\n        /* \"#utility.yul\":6070:6187   */\n    tag_170:\n        /* \"#utility.yul\":6179:6180   */\n      0x00\n        /* \"#utility.yul\":6176:6177   */\n      0x00\n        /* \"#utility.yul\":6169:6181   */\n      revert\n        /* \"#utility.yul\":6193:6310   */\n    tag_171:\n        /* \"#utility.yul\":6302:6303   */\n      0x00\n        /* \"#utility.yul\":6299:6300   */\n      0x00\n        /* \"#utility.yul\":6292:6304   */\n      revert\n        /* \"#utility.yul\":6467:7055   */\n    tag_173:\n        /* \"#utility.yul\":6545:6550   */\n      0x00\n        /* \"#utility.yul\":6589:6593   */\n      0x40\n        /* \"#utility.yul\":6577:6586   */\n      dup3\n        /* \"#utility.yul\":6572:6575   */\n      dup5\n        /* \"#utility.yul\":6568:6587   */\n      sub\n        /* \"#utility.yul\":6564:6594   */\n      slt\n        /* \"#utility.yul\":6561:6678   */\n      iszero\n      tag_304\n      jumpi\n        /* \"#utility.yul\":6597:6676   */\n      tag_305\n      tag_171\n      jump\t// in\n    tag_305:\n        /* \"#utility.yul\":6561:6678   */\n    tag_304:\n        /* \"#utility.yul\":6696:6717   */\n      tag_306\n        /* \"#utility.yul\":6712:6716   */\n      0x40\n        /* \"#utility.yul\":6696:6717   */\n      tag_164\n      jump\t// in\n    tag_306:\n        /* \"#utility.yul\":6687:6717   */\n      swap1\n      pop\n        /* \"#utility.yul\":6782:6783   */\n      0x00\n        /* \"#utility.yul\":6822:6871   */\n      tag_307\n        /* \"#utility.yul\":6867:6870   */\n      dup5\n        /* \"#utility.yul\":6858:6864   */\n      dup3\n        /* \"#utility.yul\":6847:6856   */\n      dup6\n        /* \"#utility.yul\":6843:6865   */\n      add\n        /* \"#utility.yul\":6822:6871   */\n      tag_148\n      jump\t// in\n    tag_307:\n        /* \"#utility.yul\":6815:6819   */\n      0x00\n        /* \"#utility.yul\":6808:6813   */\n      dup4\n        /* \"#utility.yul\":6804:6820   */\n      add\n        /* \"#utility.yul\":6797:6872   */\n      mstore\n        /* \"#utility.yul\":6727:6883   */\n      pop\n        /* \"#utility.yul\":6946:6948   */\n      0x20\n        /* \"#utility.yul\":6987:7036   */\n      tag_308\n        /* \"#utility.yul\":7032:7035   */\n      dup5\n        /* \"#utility.yul\":7023:7029   */\n      dup3\n        /* \"#utility.yul\":7012:7021   */\n      dup6\n        /* \"#utility.yul\":7008:7030   */\n      add\n        /* \"#utility.yul\":6987:7036   */\n      tag_148\n      jump\t// in\n    tag_308:\n        /* \"#utility.yul\":6980:6984   */\n      0x20\n        /* \"#utility.yul\":6973:6978   */\n      dup4\n        /* \"#utility.yul\":6969:6985   */\n      add\n        /* \"#utility.yul\":6962:7037   */\n      mstore\n        /* \"#utility.yul\":6893:7048   */\n      pop\n        /* \"#utility.yul\":6467:7055   */\n      swap3\n      swap2\n      pop\n      pop\n      jump\t// out\n        /* \"#utility.yul\":7091:7888   */\n    tag_174:\n        /* \"#utility.yul\":7216:7221   */\n      0x00\n        /* \"#utility.yul\":7241:7351   */\n      tag_310\n        /* \"#utility.yul\":7257:7350   */\n      tag_311\n        /* \"#utility.yul\":7343:7349   */\n      dup5\n        /* \"#utility.yul\":7257:7350   */\n      tag_169\n      jump\t// in\n    tag_311:\n        /* \"#utility.yul\":7241:7351   */\n      tag_164\n      jump\t// in\n    tag_310:\n        /* \"#utility.yul\":7232:7351   */\n      swap1\n      pop\n        /* \"#utility.yul\":7371:7376   */\n      dup1\n        /* \"#utility.yul\":7400:7406   */\n      dup4\n        /* \"#utility.yul\":7393:7398   */\n      dup3\n        /* \"#utility.yul\":7386:7407   */\n      mstore\n        /* \"#utility.yul\":7434:7438   */\n      0x20\n        /* \"#utility.yul\":7427:7432   */\n      dup3\n        /* \"#utility.yul\":7423:7439   */\n      add\n        /* \"#utility.yul\":7416:7439   */\n      swap1\n      pop\n        /* \"#utility.yul\":7487:7491   */\n      0x40\n        /* \"#utility.yul\":7479:7485   */\n      dup5\n        /* \"#utility.yul\":7475:7492   */\n      mul\n        /* \"#utility.yul\":7467:7473   */\n      dup4\n        /* \"#utility.yul\":7463:7493   */\n      add\n        /* \"#utility.yul\":7516:7519   */\n      dup6\n        /* \"#utility.yul\":7508:7514   */\n      dup2\n        /* \"#utility.yul\":7505:7520   */\n      gt\n        /* \"#utility.yul\":7502:7624   */\n      iszero\n      tag_312\n      jumpi\n        /* \"#utility.yul\":7535:7614   */\n      tag_313\n      tag_170\n      jump\t// in\n    tag_313:\n        /* \"#utility.yul\":7502:7624   */\n    tag_312:\n        /* \"#utility.yul\":7650:7656   */\n      dup4\n        /* \"#utility.yul\":7633:7882   */\n    tag_314:\n        /* \"#utility.yul\":7667:7673   */\n      dup2\n        /* \"#utility.yul\":7662:7665   */\n      dup2\n        /* \"#utility.yul\":7659:7674   */\n      lt\n        /* \"#utility.yul\":7633:7882   */\n      iszero\n      tag_316\n      jumpi\n        /* \"#utility.yul\":7742:7745   */\n      dup1\n        /* \"#utility.yul\":7771:7837   */\n      tag_317\n        /* \"#utility.yul\":7833:7836   */\n      dup9\n        /* \"#utility.yul\":7821:7831   */\n      dup3\n        /* \"#utility.yul\":7771:7837   */\n      tag_173\n      jump\t// in\n    tag_317:\n        /* \"#utility.yul\":7766:7769   */\n      dup5\n        /* \"#utility.yul\":7759:7838   */\n      mstore\n        /* \"#utility.yul\":7867:7871   */\n      0x20\n        /* \"#utility.yul\":7862:7865   */\n      dup5\n        /* \"#utility.yul\":7858:7872   */\n      add\n        /* \"#utility.yul\":7851:7872   */\n      swap4\n      pop\n        /* \"#utility.yul\":7709:7882   */\n      pop\n        /* \"#utility.yul\":7693:7697   */\n      0x40\n        /* \"#utility.yul\":7688:7691   */\n      dup2\n        /* \"#utility.yul\":7684:7698   */\n      add\n        /* \"#utility.yul\":7677:7698   */\n      swap1\n      pop\n        /* \"#utility.yul\":7633:7882   */\n      jump(tag_314)\n    tag_316:\n        /* \"#utility.yul\":7637:7658   */\n      pop\n        /* \"#utility.yul\":7222:7888   */\n      pop\n      pop\n        /* \"#utility.yul\":7091:7888   */\n      swap4\n      swap3\n      pop\n      pop\n      pop\n      jump\t// out\n        /* \"#utility.yul\":7924:8352   */\n    tag_175:\n        /* \"#utility.yul\":8024:8029   */\n      0x00\n        /* \"#utility.yul\":8073:8076   */\n      dup3\n        /* \"#utility.yul\":8066:8070   */\n      0x1f\n        /* \"#utility.yul\":8058:8064   */\n      dup4\n        /* \"#utility.yul\":8054:8071   */\n      add\n        /* \"#utility.yul\":8050:8077   */\n      slt\n        /* \"#utility.yul\":8040:8162   */\n      tag_319\n      jumpi\n        /* \"#utility.yul\":8081:8160   */\n      tag_320\n      tag_160\n      jump\t// in\n    tag_320:\n        /* \"#utility.yul\":8040:8162   */\n    tag_319:\n        /* \"#utility.yul\":8198:8204   */\n      dup2\n        /* \"#utility.yul\":8185:8205   */\n      calldataload\n        /* \"#utility.yul\":8223:8346   */\n      tag_321\n        /* \"#utility.yul\":8342:8345   */\n      dup5\n        /* \"#utility.yul\":8334:8340   */\n      dup3\n        /* \"#utility.yul\":8327:8331   */\n      0x20\n        /* \"#utility.yul\":8319:8325   */\n      dup7\n        /* \"#utility.yul\":8315:8332   */\n      add\n        /* \"#utility.yul\":8223:8346   */\n      tag_174\n      jump\t// in\n    tag_321:\n        /* \"#utility.yul\":8214:8346   */\n      swap2\n      pop\n        /* \"#utility.yul\":8030:8352   */\n      pop\n        /* \"#utility.yul\":7924:8352   */\n      swap3\n      swap2\n      pop\n      pop\n      jump\t// out\n        /* \"#utility.yul\":8358:9280   */\n    tag_26:\n        /* \"#utility.yul\":8490:8496   */\n      0x00\n        /* \"#utility.yul\":8498:8504   */\n      0x00\n        /* \"#utility.yul\":8547:8549   */\n      0x40\n        /* \"#utility.yul\":8535:8544   */\n      dup4\n        /* \"#utility.yul\":8526:8533   */\n      dup6\n        /* \"#utility.yul\":8522:8545   */\n      sub\n        /* \"#utility.yul\":8518:8550   */\n      slt\n        /* \"#utility.yul\":8515:8634   */\n      iszero\n      tag_323\n      jumpi\n        /* \"#utility.yul\":8553:8632   */\n      tag_324\n      tag_144\n      jump\t// in\n    tag_324:\n        /* \"#utility.yul\":8515:8634   */\n    tag_323:\n        /* \"#utility.yul\":8701:8702   */\n      0x00\n        /* \"#utility.yul\":8690:8699   */\n      dup4\n        /* \"#utility.yul\":8686:8703   */\n      add\n        /* \"#utility.yul\":8673:8704   */\n      calldataload\n        /* \"#utility.yul\":8731:8749   */\n      0xffffffffffffffff\n        /* \"#utility.yul\":8723:8729   */\n      dup2\n        /* \"#utility.yul\":8720:8750   */\n      gt\n        /* \"#utility.yul\":8717:8834   */\n      iszero\n      tag_325\n      jumpi\n        /* \"#utility.yul\":8753:8832   */\n      tag_326\n      tag_145\n      jump\t// in\n    tag_326:\n        /* \"#utility.yul\":8717:8834   */\n    tag_325:\n        /* \"#utility.yul\":8858:8921   */\n      tag_327\n        /* \"#utility.yul\":8913:8920   */\n      dup6\n        /* \"#utility.yul\":8904:8910   */\n      dup3\n        /* \"#utility.yul\":8893:8902   */\n      dup7\n        /* \"#utility.yul\":8889:8911   */\n      add\n        /* \"#utility.yul\":8858:8921   */\n      tag_168\n      jump\t// in\n    tag_327:\n        /* \"#utility.yul\":8848:8921   */\n      swap3\n      pop\n        /* \"#utility.yul\":8644:8931   */\n      pop\n        /* \"#utility.yul\":8998:9000   */\n      0x20\n        /* \"#utility.yul\":8987:8996   */\n      dup4\n        /* \"#utility.yul\":8983:9001   */\n      add\n        /* \"#utility.yul\":8970:9002   */\n      calldataload\n        /* \"#utility.yul\":9029:9047   */\n      0xffffffffffffffff\n        /* \"#utility.yul\":9021:9027   */\n      dup2\n        /* \"#utility.yul\":9018:9048   */\n      gt\n        /* \"#utility.yul\":9015:9132   */\n      iszero\n      tag_328\n      jumpi\n        /* \"#utility.yul\":9051:9130   */\n      tag_329\n      tag_145\n      jump\t// in\n    tag_329:\n        /* \"#utility.yul\":9015:9132   */\n    tag_328:\n        /* \"#utility.yul\":9156:9263   */\n      tag_330\n        /* \"#utility.yul\":9255:9262   */\n      dup6\n        /* \"#utility.yul\":9246:9252   */\n      dup3\n        /* \"#utility.yul\":9235:9244   */\n      dup7\n        /* \"#utility.yul\":9231:9253   */\n      add\n        /* \"#utility.yul\":9156:9263   */\n      tag_175\n      jump\t// in\n    tag_330:\n        /* \"#utility.yul\":9146:9263   */\n      swap2\n      pop\n        /* \"#utility.yul\":8941:9273   */\n      pop\n        /* \"#utility.yul\":8358:9280   */\n      swap3\n      pop\n      swap3\n      swap1\n      pop\n      jump\t// out\n        /* \"#utility.yul\":9286:9466   */\n    tag_34:\n        /* \"#utility.yul\":9334:9411   */\n      0x4e487b7100000000000000000000000000000000000000000000000000000000\n        /* \"#utility.yul\":9331:9332   */\n      0x00\n        /* \"#utility.yul\":9324:9412   */\n      mstore\n        /* \"#utility.yul\":9431:9435   */\n      0x32\n        /* \"#utility.yul\":9428:9429   */\n      0x04\n        /* \"#utility.yul\":9421:9436   */\n      mstore\n        /* \"#utility.yul\":9455:9459   */\n      0x24\n        /* \"#utility.yul\":9452:9453   */\n      0x00\n        /* \"#utility.yul\":9445:9460   */\n      revert\n        /* \"#utility.yul\":9472:9644   */\n    tag_176:\n        /* \"#utility.yul\":9612:9636   */\n      0x50726f6a656374206d7573742062652061637469766500000000000000000000\n        /* \"#utility.yul\":9608:9609   */\n      0x00\n        /* \"#utility.yul\":9600:9606   */\n      dup3\n        /* \"#utility.yul\":9596:9610   */\n      add\n        /* \"#utility.yul\":9589:9637   */\n      mstore\n        /* \"#utility.yul\":9472:9644   */\n      pop\n      jump\t// out\n        /* \"#utility.yul\":9650:10016   */\n    tag_177:\n        /* \"#utility.yul\":9792:9795   */\n      0x00\n        /* \"#utility.yul\":9813:9880   */\n      tag_334\n        /* \"#utility.yul\":9877:9879   */\n      0x16\n        /* \"#utility.yul\":9872:9875   */\n      dup4\n        /* \"#utility.yul\":9813:9880   */\n      tag_153\n      jump\t// in\n    tag_334:\n        /* \"#utility.yul\":9806:9880   */\n      swap2\n      pop\n        /* \"#utility.yul\":9889:9982   */\n      tag_335\n        /* \"#utility.yul\":9978:9981   */\n      dup3\n        /* \"#utility.yul\":9889:9982   */\n      tag_176\n      jump\t// in\n    tag_335:\n        /* \"#utility.yul\":10007:10009   */\n      0x20\n        /* \"#utility.yul\":10002:10005   */\n      dup3\n        /* \"#utility.yul\":9998:10010   */\n      add\n        /* \"#utility.yul\":9991:10010   */\n      swap1\n      pop\n        /* \"#utility.yul\":9650:10016   */\n      swap2\n      swap1\n      pop\n      jump\t// out\n        /* \"#utility.yul\":10022:10441   */\n    tag_41:\n        /* \"#utility.yul\":10188:10192   */\n      0x00\n        /* \"#utility.yul\":10226:10228   */\n      0x20\n        /* \"#utility.yul\":10215:10224   */\n      dup3\n        /* \"#utility.yul\":10211:10229   */\n      add\n        /* \"#utility.yul\":10203:10229   */\n      swap1\n      pop\n        /* \"#utility.yul\":10275:10284   */\n      dup2\n        /* \"#utility.yul\":10269:10273   */\n      dup2\n        /* \"#utility.yul\":10265:10285   */\n      sub\n        /* \"#utility.yul\":10261:10262   */\n      0x00\n        /* \"#utility.yul\":10250:10259   */\n      dup4\n        /* \"#utility.yul\":10246:10263   */\n      add\n        /* \"#utility.yul\":10239:10286   */\n      mstore\n        /* \"#utility.yul\":10303:10434   */\n      tag_337\n        /* \"#utility.yul\":10429:10433   */\n      dup2\n        /* \"#utility.yul\":10303:10434   */\n      tag_177\n      jump\t// in\n    tag_337:\n        /* \"#utility.yul\":10295:10434   */\n      swap1\n      pop\n        /* \"#utility.yul\":10022:10441   */\n      swap2\n      swap1\n      pop\n      jump\t// out\n        /* \"#utility.yul\":10447:10628   */\n    tag_178:\n        /* \"#utility.yul\":10587:10620   */\n      0x4d696c6573746f6e652073686f756c64206265206e6f74207265616368656400\n        /* \"#utility.yul\":10583:10584   */\n      0x00\n        /* \"#utility.yul\":10575:10581   */\n      dup3\n        /* \"#utility.yul\":10571:10585   */\n      add\n        /* \"#utility.yul\":10564:10621   */\n      mstore\n        /* \"#utility.yul\":10447:10628   */\n      pop\n      jump\t// out\n        /* \"#utility.yul\":10634:11000   */\n    tag_179:\n        /* \"#utility.yul\":10776:10779   */\n      0x00\n        /* \"#utility.yul\":10797:10864   */\n      tag_340\n        /* \"#utility.yul\":10861:10863   */\n      0x1f\n        /* \"#utility.yul\":10856:10859   */\n      dup4\n        /* \"#utility.yul\":10797:10864   */\n      tag_153\n      jump\t// in\n    tag_340:\n        /* \"#utility.yul\":10790:10864   */\n      swap2\n      pop\n        /* \"#utility.yul\":10873:10966   */\n      tag_341\n        /* \"#utility.yul\":10962:10965   */\n      dup3\n        /* \"#utility.yul\":10873:10966   */\n      tag_178\n      jump\t// in\n    tag_341:\n        /* \"#utility.yul\":10991:10993   */\n      0x20\n        /* \"#utility.yul\":10986:10989   */\n      dup3\n        /* \"#utility.yul\":10982:10994   */\n      add\n        /* \"#utility.yul\":10975:10994   */\n      swap1\n      pop\n        /* \"#utility.yul\":10634:11000   */\n      swap2\n      swap1\n      pop\n      jump\t// out\n        /* \"#utility.yul\":11006:11425   */\n    tag_44:\n        /* \"#utility.yul\":11172:11176   */\n      0x00\n        /* \"#utility.yul\":11210:11212   */\n      0x20\n        /* \"#utility.yul\":11199:11208   */\n      dup3\n        /* \"#utility.yul\":11195:11213   */\n      add\n        /* \"#utility.yul\":11187:11213   */\n      swap1\n      pop\n        /* \"#utility.yul\":11259:11268   */\n      dup2\n        /* \"#utility.yul\":11253:11257   */\n      dup2\n        /* \"#utility.yul\":11249:11269   */\n      sub\n        /* \"#utility.yul\":11245:11246   */\n      0x00\n        /* \"#utility.yul\":11234:11243   */\n      dup4\n        /* \"#utility.yul\":11230:11247   */\n      add\n        /* \"#utility.yul\":11223:11270   */\n      mstore\n        /* \"#utility.yul\":11287:11418   */\n      tag_343\n        /* \"#utility.yul\":11413:11417   */\n      dup2\n        /* \"#utility.yul\":11287:11418   */\n      tag_179\n      jump\t// in\n    tag_343:\n        /* \"#utility.yul\":11279:11418   */\n      swap1\n      pop\n        /* \"#utility.yul\":11006:11425   */\n      swap2\n      swap1\n      pop\n      jump\t// out\n        /* \"#utility.yul\":11431:11612   */\n    tag_180:\n        /* \"#utility.yul\":11571:11604   */\n      0x43616e206f6e6c79206368656b636b206166746572206d696c6573746f6e6500\n        /* \"#utility.yul\":11567:11568   */\n      0x00\n        /* \"#utility.yul\":11559:11565   */\n      dup3\n        /* \"#utility.yul\":11555:11569   */\n      add\n        /* \"#utility.yul\":11548:11605   */\n      mstore\n        /* \"#utility.yul\":11431:11612   */\n      pop\n      jump\t// out\n        /* \"#utility.yul\":11618:11984   */\n    tag_181:\n        /* \"#utility.yul\":11760:11763   */\n      0x00\n        /* \"#utility.yul\":11781:11848   */\n      tag_346\n        /* \"#utility.yul\":11845:11847   */\n      0x1f\n        /* \"#utility.yul\":11840:11843   */\n      dup4\n        /* \"#utility.yul\":11781:11848   */\n      tag_153\n      jump\t// in\n    tag_346:\n        /* \"#utility.yul\":11774:11848   */\n      swap2\n      pop\n        /* \"#utility.yul\":11857:11950   */\n      tag_347\n        /* \"#utility.yul\":11946:11949   */\n      dup3\n        /* \"#utility.yul\":11857:11950   */\n      tag_180\n      jump\t// in\n    tag_347:\n        /* \"#utility.yul\":11975:11977   */\n      0x20\n        /* \"#utility.yul\":11970:11973   */\n      dup3\n        /* \"#utility.yul\":11966:11978   */\n      add\n        /* \"#utility.yul\":11959:11978   */\n      swap1\n      pop\n        /* \"#utility.yul\":11618:11984   */\n      swap2\n      swap1\n      pop\n      jump\t// out\n        /* \"#utility.yul\":11990:12409   */\n    tag_47:\n        /* \"#utility.yul\":12156:12160   */\n      0x00\n        /* \"#utility.yul\":12194:12196   */\n      0x20\n        /* \"#utility.yul\":12183:12192   */\n      dup3\n        /* \"#utility.yul\":12179:12197   */\n      add\n        /* \"#utility.yul\":12171:12197   */\n      swap1\n      pop\n        /* \"#utility.yul\":12243:12252   */\n      dup2\n        /* \"#utility.yul\":12237:12241   */\n      dup2\n        /* \"#utility.yul\":12233:12253   */\n      sub\n        /* \"#utility.yul\":12229:12230   */\n      0x00\n        /* \"#utility.yul\":12218:12227   */\n      dup4\n        /* \"#utility.yul\":12214:12231   */\n      add\n        /* \"#utility.yul\":12207:12254   */\n      mstore\n        /* \"#utility.yul\":12271:12402   */\n      tag_349\n        /* \"#utility.yul\":12397:12401   */\n      dup2\n        /* \"#utility.yul\":12271:12402   */\n      tag_181\n      jump\t// in\n    tag_349:\n        /* \"#utility.yul\":12263:12402   */\n      swap1\n      pop\n        /* \"#utility.yul\":11990:12409   */\n      swap2\n      swap1\n      pop\n      jump\t// out\n        /* \"#utility.yul\":12415:12562   */\n    tag_182:\n        /* \"#utility.yul\":12516:12527   */\n      0x00\n        /* \"#utility.yul\":12553:12556   */\n      dup2\n        /* \"#utility.yul\":12538:12556   */\n      swap1\n      pop\n        /* \"#utility.yul\":12415:12562   */\n      swap3\n      swap2\n      pop\n      pop\n      jump\t// out\n        /* \"#utility.yul\":12568:12682   */\n    tag_183:\n      pop\n      jump\t// out\n        /* \"#utility.yul\":12688:13086   */\n    tag_184:\n        /* \"#utility.yul\":12847:12850   */\n      0x00\n        /* \"#utility.yul\":12868:12951   */\n      tag_353\n        /* \"#utility.yul\":12949:12950   */\n      0x00\n        /* \"#utility.yul\":12944:12947   */\n      dup4\n        /* \"#utility.yul\":12868:12951   */\n      tag_182\n      jump\t// in\n    tag_353:\n        /* \"#utility.yul\":12861:12951   */\n      swap2\n      pop\n        /* \"#utility.yul\":12960:13053   */\n      tag_354\n        /* \"#utility.yul\":13049:13052   */\n      dup3\n        /* \"#utility.yul\":12960:13053   */\n      tag_183\n      jump\t// in\n    tag_354:\n        /* \"#utility.yul\":13078:13079   */\n      0x00\n        /* \"#utility.yul\":13073:13076   */\n      dup3\n        /* \"#utility.yul\":13069:13080   */\n      add\n        /* \"#utility.yul\":13062:13080   */\n      swap1\n      pop\n        /* \"#utility.yul\":12688:13086   */\n      swap2\n      swap1\n      pop\n      jump\t// out\n        /* \"#utility.yul\":13092:13471   */\n    tag_50:\n        /* \"#utility.yul\":13276:13279   */\n      0x00\n        /* \"#utility.yul\":13298:13445   */\n      tag_356\n        /* \"#utility.yul\":13441:13444   */\n      dup3\n        /* \"#utility.yul\":13298:13445   */\n      tag_184\n      jump\t// in\n    tag_356:\n        /* \"#utility.yul\":13291:13445   */\n      swap2\n      pop\n        /* \"#utility.yul\":13462:13465   */\n      dup2\n        /* \"#utility.yul\":13455:13465   */\n      swap1\n      pop\n        /* \"#utility.yul\":13092:13471   */\n      swap2\n      swap1\n      pop\n      jump\t// out\n        /* \"#utility.yul\":13477:13653   */\n    tag_185:\n        /* \"#utility.yul\":13617:13645   */\n      0x5472616e7366657220746f2063726561746f72206661696c6564000000000000\n        /* \"#utility.yul\":13613:13614   */\n      0x00\n        /* \"#utility.yul\":13605:13611   */\n      dup3\n        /* \"#utility.yul\":13601:13615   */\n      add\n        /* \"#utility.yul\":13594:13646   */\n      mstore\n        /* \"#utility.yul\":13477:13653   */\n      pop\n      jump\t// out\n        /* \"#utility.yul\":13659:14025   */\n    tag_186:\n        /* \"#utility.yul\":13801:13804   */\n      0x00\n        /* \"#utility.yul\":13822:13889   */\n      tag_359\n        /* \"#utility.yul\":13886:13888   */\n      0x1a\n        /* \"#utility.yul\":13881:13884   */\n      dup4\n        /* \"#utility.yul\":13822:13889   */\n      tag_153\n      jump\t// in\n    tag_359:\n        /* \"#utility.yul\":13815:13889   */\n      swap2\n      pop\n        /* \"#utility.yul\":13898:13991   */\n      tag_360\n        /* \"#utility.yul\":13987:13990   */\n      dup3\n        /* \"#utility.yul\":13898:13991   */\n      tag_185\n      jump\t// in\n    tag_360:\n        /* \"#utility.yul\":14016:14018   */\n      0x20\n        /* \"#utility.yul\":14011:14014   */\n      dup3\n        /* \"#utility.yul\":14007:14019   */\n      add\n        /* \"#utility.yul\":14000:14019   */\n      swap1\n      pop\n        /* \"#utility.yul\":13659:14025   */\n      swap2\n      swap1\n      pop\n      jump\t// out\n        /* \"#utility.yul\":14031:14450   */\n    tag_56:\n        /* \"#utility.yul\":14197:14201   */\n      0x00\n        /* \"#utility.yul\":14235:14237   */\n      0x20\n        /* \"#utility.yul\":14224:14233   */\n      dup3\n        /* \"#utility.yul\":14220:14238   */\n      add\n        /* \"#utility.yul\":14212:14238   */\n      swap1\n      pop\n        /* \"#utility.yul\":14284:14293   */\n      dup2\n        /* \"#utility.yul\":14278:14282   */\n      dup2\n        /* \"#utility.yul\":14274:14294   */\n      sub\n        /* \"#utility.yul\":14270:14271   */\n      0x00\n        /* \"#utility.yul\":14259:14268   */\n      dup4\n        /* \"#utility.yul\":14255:14272   */\n      add\n        /* \"#utility.yul\":14248:14295   */\n      mstore\n        /* \"#utility.yul\":14312:14443   */\n      tag_362\n        /* \"#utility.yul\":14438:14442   */\n      dup2\n        /* \"#utility.yul\":14312:14443   */\n      tag_186\n      jump\t// in\n    tag_362:\n        /* \"#utility.yul\":14304:14443   */\n      swap1\n      pop\n        /* \"#utility.yul\":14031:14450   */\n      swap2\n      swap1\n      pop\n      jump\t// out\n        /* \"#utility.yul\":14456:14636   */\n    tag_187:\n        /* \"#utility.yul\":14504:14581   */\n      0x4e487b7100000000000000000000000000000000000000000000000000000000\n        /* \"#utility.yul\":14501:14502   */\n      0x00\n        /* \"#utility.yul\":14494:14582   */\n      mstore\n        /* \"#utility.yul\":14601:14605   */\n      0x11\n        /* \"#utility.yul\":14598:14599   */\n      0x04\n        /* \"#utility.yul\":14591:14606   */\n      mstore\n        /* \"#utility.yul\":14625:14629   */\n      0x24\n        /* \"#utility.yul\":14622:14623   */\n      0x00\n        /* \"#utility.yul\":14615:14630   */\n      revert\n        /* \"#utility.yul\":14642:14836   */\n    tag_58:\n        /* \"#utility.yul\":14682:14686   */\n      0x00\n        /* \"#utility.yul\":14702:14722   */\n      tag_365\n        /* \"#utility.yul\":14720:14721   */\n      dup3\n        /* \"#utility.yul\":14702:14722   */\n      tag_146\n      jump\t// in\n    tag_365:\n        /* \"#utility.yul\":14697:14722   */\n      swap2\n      pop\n        /* \"#utility.yul\":14736:14756   */\n      tag_366\n        /* \"#utility.yul\":14754:14755   */\n      dup4\n        /* \"#utility.yul\":14736:14756   */\n      tag_146\n      jump\t// in\n    tag_366:\n        /* \"#utility.yul\":14731:14756   */\n      swap3\n      pop\n        /* \"#utility.yul\":14780:14781   */\n      dup3\n        /* \"#utility.yul\":14777:14778   */\n      dup3\n        /* \"#utility.yul\":14773:14782   */\n      sub\n        /* \"#utility.yul\":14765:14782   */\n      swap1\n      pop\n        /* \"#utility.yul\":14804:14805   */\n      dup2\n        /* \"#utility.yul\":14798:14802   */\n      dup2\n        /* \"#utility.yul\":14795:14806   */\n      gt\n        /* \"#utility.yul\":14792:14829   */\n      iszero\n      tag_367\n      jumpi\n        /* \"#utility.yul\":14809:14827   */\n      tag_368\n      tag_187\n      jump\t// in\n    tag_368:\n        /* \"#utility.yul\":14792:14829   */\n    tag_367:\n        /* \"#utility.yul\":14642:14836   */\n      swap3\n      swap2\n      pop\n      pop\n      jump\t// out\n        /* \"#utility.yul\":14842:15075   */\n    tag_61:\n        /* \"#utility.yul\":14881:14884   */\n      0x00\n        /* \"#utility.yul\":14904:14928   */\n      tag_370\n        /* \"#utility.yul\":14922:14927   */\n      dup3\n        /* \"#utility.yul\":14904:14928   */\n      tag_146\n      jump\t// in\n    tag_370:\n        /* \"#utility.yul\":14895:14928   */\n      swap2\n      pop\n        /* \"#utility.yul\":14950:15016   */\n      0xffffffffffffffffffffffffffffffffffffffffffffffffffffffffffffffff\n        /* \"#utility.yul\":14943:14948   */\n      dup3\n        /* \"#utility.yul\":14940:15017   */\n      sub\n        /* \"#utility.yul\":14937:15040   */\n      tag_371\n      jumpi\n        /* \"#utility.yul\":15020:15038   */\n      tag_372\n      tag_187\n      jump\t// in\n    tag_372:\n        /* \"#utility.yul\":14937:15040   */\n    tag_371:\n        /* \"#utility.yul\":15067:15068   */\n      0x01\n        /* \"#utility.yul\":15060:15065   */\n      dup3\n        /* \"#utility.yul\":15056:15069   */\n      add\n        /* \"#utility.yul\":15049:15069   */\n      swap1\n      pop\n        /* \"#utility.yul\":14842:15075   */\n      swap2\n      swap1\n      pop\n      jump\t// out\n        /* \"#utility.yul\":15081:15303   */\n    tag_63:\n        /* \"#utility.yul\":15174:15178   */\n      0x00\n        /* \"#utility.yul\":15212:15214   */\n      0x20\n        /* \"#utility.yul\":15201:15210   */\n      dup3\n        /* \"#utility.yul\":15197:15215   */\n      add\n        /* \"#utility.yul\":15189:15215   */\n      swap1\n      pop\n        /* \"#utility.yul\":15225:15296   */\n      tag_374\n        /* \"#utility.yul\":15293:15294   */\n      0x00\n        /* \"#utility.yul\":15282:15291   */\n      dup4\n        /* \"#utility.yul\":15278:15295   */\n      add\n        /* \"#utility.yul\":15269:15275   */\n      dup5\n        /* \"#utility.yul\":15225:15296   */\n      tag_157\n      jump\t// in\n    tag_374:\n        /* \"#utility.yul\":15081:15303   */\n      swap3\n      swap2\n      pop\n      pop\n      jump\t// out\n        /* \"#utility.yul\":15309:15489   */\n    tag_188:\n        /* \"#utility.yul\":15357:15434   */\n      0x4e487b7100000000000000000000000000000000000000000000000000000000\n        /* \"#utility.yul\":15354:15355   */\n      0x00\n        /* \"#utility.yul\":15347:15435   */\n      mstore\n        /* \"#utility.yul\":15454:15458   */\n      0x22\n        /* \"#utility.yul\":15451:15452   */\n      0x04\n        /* \"#utility.yul\":15444:15459   */\n      mstore\n        /* \"#utility.yul\":15478:15482   */\n      0x24\n        /* \"#utility.yul\":15475:15476   */\n      0x00\n        /* \"#utility.yul\":15468:15483   */\n      revert\n        /* \"#utility.yul\":15495:15815   */\n    tag_71:\n        /* \"#utility.yul\":15539:15545   */\n      0x00\n        /* \"#utility.yul\":15576:15577   */\n      0x02\n        /* \"#utility.yul\":15570:15574   */\n      dup3\n        /* \"#utility.yul\":15566:15578   */\n      div\n        /* \"#utility.yul\":15556:15578   */\n      swap1\n      pop\n        /* \"#utility.yul\":15623:15624   */\n      0x01\n        /* \"#utility.yul\":15617:15621   */\n      dup3\n        /* \"#utility.yul\":15613:15625   */\n      and\n        /* \"#utility.yul\":15644:15662   */\n      dup1\n        /* \"#utility.yul\":15634:15715   */\n      tag_377\n      jumpi\n        /* \"#utility.yul\":15700:15704   */\n      0x7f\n        /* \"#utility.yul\":15692:15698   */\n      dup3\n        /* \"#utility.yul\":15688:15705   */\n      and\n        /* \"#utility.yul\":15678:15705   */\n      swap2\n      pop\n        /* \"#utility.yul\":15634:15715   */\n    tag_377:\n        /* \"#utility.yul\":15762:15764   */\n      0x20\n        /* \"#utility.yul\":15754:15760   */\n      dup3\n        /* \"#utility.yul\":15751:15765   */\n      lt\n        /* \"#utility.yul\":15731:15749   */\n      dup2\n        /* \"#utility.yul\":15728:15766   */\n      sub\n        /* \"#utility.yul\":15725:15809   */\n      tag_378\n      jumpi\n        /* \"#utility.yul\":15781:15799   */\n      tag_379\n      tag_188\n      jump\t// in\n    tag_379:\n        /* \"#utility.yul\":15725:15809   */\n    tag_378:\n        /* \"#utility.yul\":15546:15815   */\n      pop\n        /* \"#utility.yul\":15495:15815   */\n      swap2\n      swap1\n      pop\n      jump\t// out\n        /* \"#utility.yul\":15821:16042   */\n    tag_189:\n        /* \"#utility.yul\":15961:15995   */\n      0x53797374656d206f776e65722063616e2774206372656174652070726f6a6563\n        /* \"#utility.yul\":15957:15958   */\n      0x00\n        /* \"#utility.yul\":15949:15955   */\n      dup3\n        /* \"#utility.yul\":15945:15959   */\n      add\n        /* \"#utility.yul\":15938:15996   */\n      mstore\n        /* \"#utility.yul\":16030:16034   */\n      0x7473000000000000000000000000000000000000000000000000000000000000\n        /* \"#utility.yul\":16025:16027   */\n      0x20\n        /* \"#utility.yul\":16017:16023   */\n      dup3\n        /* \"#utility.yul\":16013:16028   */\n      add\n        /* \"#utility.yul\":16006:16035   */\n      mstore\n        /* \"#utility.yul\":15821:16042   */\n      pop\n      jump\t// out\n        /* \"#utility.yul\":16048:16414   */\n    tag_190:\n        /* \"#utility.yul\":16190:16193   */\n      0x00\n        /* \"#utility.yul\":16211:16278   */\n      tag_382\n        /* \"#utility.yul\":16275:16277   */\n      0x22\n        /* \"#utility.yul\":16270:16273   */\n      dup4\n        /* \"#utility.yul\":16211:16278   */\n      tag_153\n      jump\t// in\n    tag_382:\n        /* \"#utility.yul\":16204:16278   */\n      swap2\n      pop\n        /* \"#utility.yul\":16287:16380   */\n      tag_383\n        /* \"#utility.yul\":16376:16379   */\n      dup3\n        /* \"#utility.yul\":16287:16380   */\n      tag_189\n      jump\t// in\n    tag_383:\n        /* \"#utility.yul\":16405:16407   */\n      0x40\n        /* \"#utility.yul\":16400:16403   */\n      dup3\n        /* \"#utility.yul\":16396:16408   */\n      add\n        /* \"#utility.yul\":16389:16408   */\n      swap1\n      pop\n        /* \"#utility.yul\":16048:16414   */\n      swap2\n      swap1\n      pop\n      jump\t// out\n        /* \"#utility.yul\":16420:16839   */\n    tag_79:\n        /* \"#utility.yul\":16586:16590   */\n      0x00\n        /* \"#utility.yul\":16624:16626   */\n      0x20\n        /* \"#utility.yul\":16613:16622   */\n      dup3\n        /* \"#utility.yul\":16609:16627   */\n      add\n        /* \"#utility.yul\":16601:16627   */\n      swap1\n      pop\n        /* \"#utility.yul\":16673:16682   */\n      dup2\n        /* \"#utility.yul\":16667:16671   */\n      dup2\n        /* \"#utility.yul\":16663:16683   */\n      sub\n        /* \"#utility.yul\":16659:16660   */\n      0x00\n        /* \"#utility.yul\":16648:16657   */\n      dup4\n        /* \"#utility.yul\":16644:16661   */\n      add\n        /* \"#utility.yul\":16637:16684   */\n      mstore\n        /* \"#utility.yul\":16701:16832   */\n      tag_385\n        /* \"#utility.yul\":16827:16831   */\n      dup2\n        /* \"#utility.yul\":16701:16832   */\n      tag_190\n      jump\t// in\n    tag_385:\n        /* \"#utility.yul\":16693:16832   */\n      swap1\n      pop\n        /* \"#utility.yul\":16420:16839   */\n      swap2\n      swap1\n      pop\n      jump\t// out\n        /* \"#utility.yul\":16845:17027   */\n    tag_191:\n        /* \"#utility.yul\":16985:17019   */\n      0x4d7573742068617665206174206c65617374206f6e65206d696c6573746f6e65\n        /* \"#utility.yul\":16981:16982   */\n      0x00\n        /* \"#utility.yul\":16973:16979   */\n      dup3\n        /* \"#utility.yul\":16969:16983   */\n      add\n        /* \"#utility.yul\":16962:17020   */\n      mstore\n        /* \"#utility.yul\":16845:17027   */\n      pop\n      jump\t// out\n        /* \"#utility.yul\":17033:17399   */\n    tag_192:\n        /* \"#utility.yul\":17175:17178   */\n      0x00\n        /* \"#utility.yul\":17196:17263   */\n      tag_388\n        /* \"#utility.yul\":17260:17262   */\n      0x20\n        /* \"#utility.yul\":17255:17258   */\n      dup4\n        /* \"#utility.yul\":17196:17263   */\n      tag_153\n      jump\t// in\n    tag_388:\n        /* \"#utility.yul\":17189:17263   */\n      swap2\n      pop\n        /* \"#utility.yul\":17272:17365   */\n      tag_389\n        /* \"#utility.yul\":17361:17364   */\n      dup3\n        /* \"#utility.yul\":17272:17365   */\n      tag_191\n      jump\t// in\n    tag_389:\n        /* \"#utility.yul\":17390:17392   */\n      0x20\n        /* \"#utility.yul\":17385:17388   */\n      dup3\n        /* \"#utility.yul\":17381:17393   */\n      add\n        /* \"#utility.yul\":17374:17393   */\n      swap1\n      pop\n        /* \"#utility.yul\":17033:17399   */\n      swap2\n      swap1\n      pop\n      jump\t// out\n        /* \"#utility.yul\":17405:17824   */\n    tag_82:\n        /* \"#utility.yul\":17571:17575   */\n      0x00\n        /* \"#utility.yul\":17609:17611   */\n      0x20\n        /* \"#utility.yul\":17598:17607   */\n      dup3\n        /* \"#utility.yul\":17594:17612   */\n      add\n        /* \"#utility.yul\":17586:17612   */\n      swap1\n      pop\n        /* \"#utility.yul\":17658:17667   */\n      dup2\n        /* \"#utility.yul\":17652:17656   */\n      dup2\n        /* \"#utility.yul\":17648:17668   */\n      sub\n        /* \"#utility.yul\":17644:17645   */\n      0x00\n        /* \"#utility.yul\":17633:17642   */\n      dup4\n        /* \"#utility.yul\":17629:17646   */\n      add\n        /* \"#utility.yul\":17622:17669   */\n      mstore\n        /* \"#utility.yul\":17686:17817   */\n      tag_391\n        /* \"#utility.yul\":17812:17816   */\n      dup2\n        /* \"#utility.yul\":17686:17817   */\n      tag_192\n      jump\t// in\n    tag_391:\n        /* \"#utility.yul\":17678:17817   */\n      swap1\n      pop\n        /* \"#utility.yul\":17405:17824   */\n      swap2\n      swap1\n      pop\n      jump\t// out\n        /* \"#utility.yul\":17830:17971   */\n    tag_193:\n        /* \"#utility.yul\":17879:17883   */\n      0x00\n        /* \"#utility.yul\":17902:17905   */\n      dup2\n        /* \"#utility.yul\":17894:17905   */\n      swap1\n      pop\n        /* \"#utility.yul\":17925:17928   */\n      dup2\n        /* \"#utility.yul\":17922:17923   */\n      0x00\n        /* \"#utility.yul\":17915:17929   */\n      mstore\n        /* \"#utility.yul\":17959:17963   */\n      0x20\n        /* \"#utility.yul\":17956:17957   */\n      0x00\n        /* \"#utility.yul\":17946:17964   */\n      keccak256\n        /* \"#utility.yul\":17938:17964   */\n      swap1\n      pop\n        /* \"#utility.yul\":17830:17971   */\n      swap2\n      swap1\n      pop\n      jump\t// out\n        /* \"#utility.yul\":17977:18070   */\n    tag_194:\n        /* \"#utility.yul\":18014:18020   */\n      0x00\n        /* \"#utility.yul\":18061:18063   */\n      0x20\n        /* \"#utility.yul\":18056:18058   */\n      0x1f\n        /* \"#utility.yul\":18049:18054   */\n      dup4\n        /* \"#utility.yul\":18045:18059   */\n      add\n        /* \"#utility.yul\":18041:18064   */\n      div\n        /* \"#utility.yul\":18031:18064   */\n      swap1\n      pop\n        /* \"#utility.yul\":17977:18070   */\n      swap2\n      swap1\n      pop\n      jump\t// out\n        /* \"#utility.yul\":18076:18183   */\n    tag_195:\n        /* \"#utility.yul\":18120:18128   */\n      0x00\n        /* \"#utility.yul\":18170:18175   */\n      dup3\n        /* \"#utility.yul\":18164:18168   */\n      dup3\n        /* \"#utility.yul\":18160:18176   */\n      shl\n        /* \"#utility.yul\":18139:18176   */\n      swap1\n      pop\n        /* \"#utility.yul\":18076:18183   */\n      swap3\n      swap2\n      pop\n      pop\n      jump\t// out\n        /* \"#utility.yul\":18189:18582   */\n    tag_196:\n        /* \"#utility.yul\":18258:18264   */\n      0x00\n        /* \"#utility.yul\":18308:18309   */\n      0x08\n        /* \"#utility.yul\":18296:18306   */\n      dup4\n        /* \"#utility.yul\":18292:18310   */\n      mul\n        /* \"#utility.yul\":18331:18428   */\n      tag_396\n        /* \"#utility.yul\":18361:18427   */\n      0xffffffffffffffffffffffffffffffffffffffffffffffffffffffffffffffff\n        /* \"#utility.yul\":18350:18359   */\n      dup3\n        /* \"#utility.yul\":18331:18428   */\n      tag_195\n      jump\t// in\n    tag_396:\n        /* \"#utility.yul\":18449:18488   */\n      tag_397\n        /* \"#utility.yul\":18479:18487   */\n      dup7\n        /* \"#utility.yul\":18468:18477   */\n      dup4\n        /* \"#utility.yul\":18449:18488   */\n      tag_195\n      jump\t// in\n    tag_397:\n        /* \"#utility.yul\":18437:18488   */\n      swap6\n      pop\n        /* \"#utility.yul\":18521:18525   */\n      dup1\n        /* \"#utility.yul\":18517:18526   */\n      not\n        /* \"#utility.yul\":18510:18515   */\n      dup5\n        /* \"#utility.yul\":18506:18527   */\n      and\n        /* \"#utility.yul\":18497:18527   */\n      swap4\n      pop\n        /* \"#utility.yul\":18570:18574   */\n      dup1\n        /* \"#utility.yul\":18560:18568   */\n      dup7\n        /* \"#utility.yul\":18556:18575   */\n      and\n        /* \"#utility.yul\":18549:18554   */\n      dup5\n        /* \"#utility.yul\":18546:18576   */\n      or\n        /* \"#utility.yul\":18536:18576   */\n      swap3\n      pop\n        /* \"#utility.yul\":18265:18582   */\n      pop\n      pop\n        /* \"#utility.yul\":18189:18582   */\n      swap4\n      swap3\n      pop\n      pop\n      pop\n      jump\t// out\n        /* \"#utility.yul\":18588:18648   */\n    tag_197:\n        /* \"#utility.yul\":18616:18619   */\n      0x00\n        /* \"#utility.yul\":18637:18642   */\n      dup2\n        /* \"#utility.yul\":18630:18642   */\n      swap1\n      pop\n        /* \"#utility.yul\":18588:18648   */\n      swap2\n      swap1\n      pop\n      jump\t// out\n        /* \"#utility.yul\":18654:18796   */\n    tag_198:\n        /* \"#utility.yul\":18704:18713   */\n      0x00\n        /* \"#utility.yul\":18737:18790   */\n      tag_400\n        /* \"#utility.yul\":18755:18789   */\n      tag_401\n        /* \"#utility.yul\":18764:18788   */\n      tag_402\n        /* \"#utility.yul\":18782:18787   */\n      dup5\n        /* \"#utility.yul\":18764:18788   */\n      tag_146\n      jump\t// in\n    tag_402:\n        /* \"#utility.yul\":18755:18789   */\n      tag_197\n      jump\t// in\n    tag_401:\n        /* \"#utility.yul\":18737:18790   */\n      tag_146\n      jump\t// in\n    tag_400:\n        /* \"#utility.yul\":18724:18790   */\n      swap1\n      pop\n        /* \"#utility.yul\":18654:18796   */\n      swap2\n      swap1\n      pop\n      jump\t// out\n        /* \"#utility.yul\":18802:18877   */\n    tag_199:\n        /* \"#utility.yul\":18845:18848   */\n      0x00\n        /* \"#utility.yul\":18866:18871   */\n      dup2\n        /* \"#utility.yul\":18859:18871   */\n      swap1\n      pop\n        /* \"#utility.yul\":18802:18877   */\n      swap2\n      swap1\n      pop\n      jump\t// out\n        /* \"#utility.yul\":18883:19152   */\n    tag_200:\n        /* \"#utility.yul\":18993:19032   */\n      tag_405\n        /* \"#utility.yul\":19024:19031   */\n      dup4\n        /* \"#utility.yul\":18993:19032   */\n      tag_198\n      jump\t// in\n    tag_405:\n        /* \"#utility.yul\":19054:19145   */\n      tag_406\n        /* \"#utility.yul\":19103:19144   */\n      tag_407\n        /* \"#utility.yul\":19127:19143   */\n      dup3\n        /* \"#utility.yul\":19103:19144   */\n      tag_199\n      jump\t// in\n    tag_407:\n        /* \"#utility.yul\":19095:19101   */\n      dup5\n        /* \"#utility.yul\":19088:19092   */\n      dup5\n        /* \"#utility.yul\":19082:19093   */\n      sload\n        /* \"#utility.yul\":19054:19145   */\n      tag_196\n      jump\t// in\n    tag_406:\n        /* \"#utility.yul\":19048:19052   */\n      dup3\n        /* \"#utility.yul\":19041:19146   */\n      sstore\n        /* \"#utility.yul\":18959:19152   */\n      pop\n        /* \"#utility.yul\":18883:19152   */\n      pop\n      pop\n      pop\n      jump\t// out\n        /* \"#utility.yul\":19158:19231   */\n    tag_201:\n        /* \"#utility.yul\":19203:19206   */\n      0x00\n        /* \"#utility.yul\":19224:19225   */\n      0x00\n        /* \"#utility.yul\":19217:19225   */\n      swap1\n      pop\n        /* \"#utility.yul\":19158:19231   */\n      swap1\n      jump\t// out\n        /* \"#utility.yul\":19237:19426   */\n    tag_202:\n        /* \"#utility.yul\":19314:19346   */\n      tag_410\n      tag_201\n      jump\t// in\n    tag_410:\n        /* \"#utility.yul\":19355:19420   */\n      tag_411\n        /* \"#utility.yul\":19413:19419   */\n      dup2\n        /* \"#utility.yul\":19405:19411   */\n      dup5\n        /* \"#utility.yul\":19399:19403   */\n      dup5\n        /* \"#utility.yul\":19355:19420   */\n      tag_200\n      jump\t// in\n    tag_411:\n        /* \"#utility.yul\":19290:19426   */\n      pop\n        /* \"#utility.yul\":19237:19426   */\n      pop\n      pop\n      jump\t// out\n        /* \"#utility.yul\":19432:19618   */\n    tag_203:\n        /* \"#utility.yul\":19492:19612   */\n    tag_413:\n        /* \"#utility.yul\":19509:19512   */\n      dup2\n        /* \"#utility.yul\":19502:19507   */\n      dup2\n        /* \"#utility.yul\":19499:19513   */\n      lt\n        /* \"#utility.yul\":19492:19612   */\n      iszero\n      tag_415\n      jumpi\n        /* \"#utility.yul\":19563:19602   */\n      tag_416\n        /* \"#utility.yul\":19600:19601   */\n      0x00\n        /* \"#utility.yul\":19593:19598   */\n      dup3\n        /* \"#utility.yul\":19563:19602   */\n      tag_202\n      jump\t// in\n    tag_416:\n        /* \"#utility.yul\":19536:19537   */\n      0x01\n        /* \"#utility.yul\":19529:19534   */\n      dup2\n        /* \"#utility.yul\":19525:19538   */\n      add\n        /* \"#utility.yul\":19516:19538   */\n      swap1\n      pop\n        /* \"#utility.yul\":19492:19612   */\n      jump(tag_413)\n    tag_415:\n        /* \"#utility.yul\":19432:19618   */\n      pop\n      pop\n      jump\t// out\n        /* \"#utility.yul\":19624:20167   */\n    tag_204:\n        /* \"#utility.yul\":19725:19727   */\n      0x1f\n        /* \"#utility.yul\":19720:19723   */\n      dup3\n        /* \"#utility.yul\":19717:19728   */\n      gt\n        /* \"#utility.yul\":19714:20160   */\n      iszero\n      tag_418\n      jumpi\n        /* \"#utility.yul\":19759:19797   */\n      tag_419\n        /* \"#utility.yul\":19791:19796   */\n      dup2\n        /* \"#utility.yul\":19759:19797   */\n      tag_193\n      jump\t// in\n    tag_419:\n        /* \"#utility.yul\":19843:19872   */\n      tag_420\n        /* \"#utility.yul\":19861:19871   */\n      dup5\n        /* \"#utility.yul\":19843:19872   */\n      tag_194\n      jump\t// in\n    tag_420:\n        /* \"#utility.yul\":19833:19841   */\n      dup2\n        /* \"#utility.yul\":19829:19873   */\n      add\n        /* \"#utility.yul\":20026:20028   */\n      0x20\n        /* \"#utility.yul\":20014:20024   */\n      dup6\n        /* \"#utility.yul\":20011:20029   */\n      lt\n        /* \"#utility.yul\":20008:20057   */\n      iszero\n      tag_421\n      jumpi\n        /* \"#utility.yul\":20047:20055   */\n      dup2\n        /* \"#utility.yul\":20032:20055   */\n      swap1\n      pop\n        /* \"#utility.yul\":20008:20057   */\n    tag_421:\n        /* \"#utility.yul\":20070:20150   */\n      tag_422\n        /* \"#utility.yul\":20126:20148   */\n      tag_423\n        /* \"#utility.yul\":20144:20147   */\n      dup6\n        /* \"#utility.yul\":20126:20148   */\n      tag_194\n      jump\t// in\n    tag_423:\n        /* \"#utility.yul\":20116:20124   */\n      dup4\n        /* \"#utility.yul\":20112:20149   */\n      add\n        /* \"#utility.yul\":20099:20110   */\n      dup3\n        /* \"#utility.yul\":20070:20150   */\n      tag_203\n      jump\t// in\n    tag_422:\n        /* \"#utility.yul\":19729:20160   */\n      pop\n      pop\n        /* \"#utility.yul\":19714:20160   */\n    tag_418:\n        /* \"#utility.yul\":19624:20167   */\n      pop\n      pop\n      pop\n      jump\t// out\n        /* \"#utility.yul\":20173:20290   */\n    tag_205:\n        /* \"#utility.yul\":20227:20235   */\n      0x00\n        /* \"#utility.yul\":20277:20282   */\n      dup3\n        /* \"#utility.yul\":20271:20275   */\n      dup3\n        /* \"#utility.yul\":20267:20283   */\n      shr\n        /* \"#utility.yul\":20246:20283   */\n      swap1\n      pop\n        /* \"#utility.yul\":20173:20290   */\n      swap3\n      swap2\n      pop\n      pop\n      jump\t// out\n        /* \"#utility.yul\":20296:20465   */\n    tag_206:\n        /* \"#utility.yul\":20340:20346   */\n      0x00\n        /* \"#utility.yul\":20373:20424   */\n      tag_426\n        /* \"#utility.yul\":20421:20422   */\n      0x00\n        /* \"#utility.yul\":20417:20423   */\n      not\n        /* \"#utility.yul\":20409:20414   */\n      dup5\n        /* \"#utility.yul\":20406:20407   */\n      0x08\n        /* \"#utility.yul\":20402:20415   */\n      mul\n        /* \"#utility.yul\":20373:20424   */\n      tag_205\n      jump\t// in\n    tag_426:\n        /* \"#utility.yul\":20369:20425   */\n      not\n        /* \"#utility.yul\":20454:20458   */\n      dup1\n        /* \"#utility.yul\":20448:20452   */\n      dup4\n        /* \"#utility.yul\":20444:20459   */\n      and\n        /* \"#utility.yul\":20434:20459   */\n      swap2\n      pop\n        /* \"#utility.yul\":20347:20465   */\n      pop\n        /* \"#utility.yul\":20296:20465   */\n      swap3\n      swap2\n      pop\n      pop\n      jump\t// out\n        /* \"#utility.yul\":20470:20765   */\n    tag_207:\n        /* \"#utility.yul\":20546:20550   */\n      0x00\n        /* \"#utility.yul\":20692:20721   */\n      tag_428\n        /* \"#utility.yul\":20717:20720   */\n      dup4\n        /* \"#utility.yul\":20711:20715   */\n      dup4\n        /* \"#utility.yul\":20692:20721   */\n      tag_206\n      jump\t// in\n    tag_428:\n        /* \"#utility.yul\":20684:20721   */\n      swap2\n      pop\n        /* \"#utility.yul\":20754:20757   */\n      dup3\n        /* \"#utility.yul\":20751:20752   */\n      0x02\n        /* \"#utility.yul\":20747:20758   */\n      mul\n        /* \"#utility.yul\":20741:20745   */\n      dup3\n        /* \"#utility.yul\":20738:20759   */\n      or\n        /* \"#utility.yul\":20730:20759   */\n      swap1\n      pop\n        /* \"#utility.yul\":20470:20765   */\n      swap3\n      swap2\n      pop\n      pop\n      jump\t// out\n        /* \"#utility.yul\":20770:22165   */\n    tag_85:\n        /* \"#utility.yul\":20887:20924   */\n      tag_430\n        /* \"#utility.yul\":20920:20923   */\n      dup3\n        /* \"#utility.yul\":20887:20924   */\n      tag_152\n      jump\t// in\n    tag_430:\n        /* \"#utility.yul\":20989:21007   */\n      0xffffffffffffffff\n        /* \"#utility.yul\":20981:20987   */\n      dup2\n        /* \"#utility.yul\":20978:21008   */\n      gt\n        /* \"#utility.yul\":20975:21031   */\n      iszero\n      tag_431\n      jumpi\n        /* \"#utility.yul\":21011:21029   */\n      tag_432\n      tag_162\n      jump\t// in\n    tag_432:\n        /* \"#utility.yul\":20975:21031   */\n    tag_431:\n        /* \"#utility.yul\":21055:21093   */\n      tag_433\n        /* \"#utility.yul\":21087:21091   */\n      dup3\n        /* \"#utility.yul\":21081:21092   */\n      sload\n        /* \"#utility.yul\":21055:21093   */\n      tag_71\n      jump\t// in\n    tag_433:\n        /* \"#utility.yul\":21140:21207   */\n      tag_434\n        /* \"#utility.yul\":21200:21206   */\n      dup3\n        /* \"#utility.yul\":21192:21198   */\n      dup3\n        /* \"#utility.yul\":21186:21190   */\n      dup6\n        /* \"#utility.yul\":21140:21207   */\n      tag_204\n      jump\t// in\n    tag_434:\n        /* \"#utility.yul\":21234:21235   */\n      0x00\n        /* \"#utility.yul\":21258:21262   */\n      0x20\n        /* \"#utility.yul\":21245:21262   */\n      swap1\n      pop\n        /* \"#utility.yul\":21290:21292   */\n      0x1f\n        /* \"#utility.yul\":21282:21288   */\n      dup4\n        /* \"#utility.yul\":21279:21293   */\n      gt\n        /* \"#utility.yul\":21307:21308   */\n      0x01\n        /* \"#utility.yul\":21302:21920   */\n      dup2\n      eq\n      tag_436\n      jumpi\n        /* \"#utility.yul\":21964:21965   */\n      0x00\n        /* \"#utility.yul\":21981:21987   */\n      dup5\n        /* \"#utility.yul\":21978:22055   */\n      iszero\n      tag_437\n      jumpi\n        /* \"#utility.yul\":22030:22039   */\n      dup3\n        /* \"#utility.yul\":22025:22028   */\n      dup8\n        /* \"#utility.yul\":22021:22040   */\n      add\n        /* \"#utility.yul\":22015:22041   */\n      mload\n        /* \"#utility.yul\":22006:22041   */\n      swap1\n      pop\n        /* \"#utility.yul\":21978:22055   */\n    tag_437:\n        /* \"#utility.yul\":22081:22148   */\n      tag_438\n        /* \"#utility.yul\":22141:22147   */\n      dup6\n        /* \"#utility.yul\":22134:22139   */\n      dup3\n        /* \"#utility.yul\":22081:22148   */\n      tag_207\n      jump\t// in\n    tag_438:\n        /* \"#utility.yul\":22075:22079   */\n      dup7\n        /* \"#utility.yul\":22068:22149   */\n      sstore\n        /* \"#utility.yul\":21937:22159   */\n      pop\n        /* \"#utility.yul\":21272:22159   */\n      jump(tag_435)\n        /* \"#utility.yul\":21302:21920   */\n    tag_436:\n        /* \"#utility.yul\":21354:21358   */\n      0x1f\n        /* \"#utility.yul\":21350:21359   */\n      not\n        /* \"#utility.yul\":21342:21348   */\n      dup5\n        /* \"#utility.yul\":21338:21360   */\n      and\n        /* \"#utility.yul\":21388:21425   */\n      tag_439\n        /* \"#utility.yul\":21420:21424   */\n      dup7\n        /* \"#utility.yul\":21388:21425   */\n      tag_193\n      jump\t// in\n    tag_439:\n        /* \"#utility.yul\":21447:21448   */\n      0x00\n        /* \"#utility.yul\":21461:21669   */\n    tag_440:\n        /* \"#utility.yul\":21475:21482   */\n      dup3\n        /* \"#utility.yul\":21472:21473   */\n      dup2\n        /* \"#utility.yul\":21469:21483   */\n      lt\n        /* \"#utility.yul\":21461:21669   */\n      iszero\n      tag_442\n      jumpi\n        /* \"#utility.yul\":21554:21563   */\n      dup5\n        /* \"#utility.yul\":21549:21552   */\n      dup10\n        /* \"#utility.yul\":21545:21564   */\n      add\n        /* \"#utility.yul\":21539:21565   */\n      mload\n        /* \"#utility.yul\":21531:21537   */\n      dup3\n        /* \"#utility.yul\":21524:21566   */\n      sstore\n        /* \"#utility.yul\":21605:21606   */\n      0x01\n        /* \"#utility.yul\":21597:21603   */\n      dup3\n        /* \"#utility.yul\":21593:21607   */\n      add\n        /* \"#utility.yul\":21583:21607   */\n      swap2\n      pop\n        /* \"#utility.yul\":21652:21654   */\n      0x20\n        /* \"#utility.yul\":21641:21650   */\n      dup6\n        /* \"#utility.yul\":21637:21655   */\n      add\n        /* \"#utility.yul\":21624:21655   */\n      swap5\n      pop\n        /* \"#utility.yul\":21498:21502   */\n      0x20\n        /* \"#utility.yul\":21495:21496   */\n      dup2\n        /* \"#utility.yul\":21491:21503   */\n      add\n        /* \"#utility.yul\":21486:21503   */\n      swap1\n      pop\n        /* \"#utility.yul\":21461:21669   */\n      jump(tag_440)\n    tag_442:\n        /* \"#utility.yul\":21697:21703   */\n      dup7\n        /* \"#utility.yul\":21688:21695   */\n      dup4\n        /* \"#utility.yul\":21685:21704   */\n      lt\n        /* \"#utility.yul\":21682:21861   */\n      iszero\n      tag_443\n      jumpi\n        /* \"#utility.yul\":21755:21764   */\n      dup5\n        /* \"#utility.yul\":21750:21753   */\n      dup10\n        /* \"#utility.yul\":21746:21765   */\n      add\n        /* \"#utility.yul\":21740:21766   */\n      mload\n        /* \"#utility.yul\":21798:21846   */\n      tag_444\n        /* \"#utility.yul\":21840:21844   */\n      0x1f\n        /* \"#utility.yul\":21832:21838   */\n      dup10\n        /* \"#utility.yul\":21828:21845   */\n      and\n        /* \"#utility.yul\":21817:21826   */\n      dup3\n        /* \"#utility.yul\":21798:21846   */\n      tag_206\n      jump\t// in\n    tag_444:\n        /* \"#utility.yul\":21790:21796   */\n      dup4\n        /* \"#utility.yul\":21783:21847   */\n      sstore\n        /* \"#utility.yul\":21705:21861   */\n      pop\n        /* \"#utility.yul\":21682:21861   */\n    tag_443:\n        /* \"#utility.yul\":21907:21908   */\n      0x01\n        /* \"#utility.yul\":21903:21904   */\n      0x02\n        /* \"#utility.yul\":21895:21901   */\n      dup9\n        /* \"#utility.yul\":21891:21905   */\n      mul\n        /* \"#utility.yul\":21887:21909   */\n      add\n        /* \"#utility.yul\":21881:21885   */\n      dup9\n        /* \"#utility.yul\":21874:21910   */\n      sstore\n        /* \"#utility.yul\":21309:21920   */\n      pop\n      pop\n      pop\n        /* \"#utility.yul\":21272:22159   */\n    tag_435:\n      pop\n        /* \"#utility.yul\":20862:22165   */\n      pop\n      pop\n      pop\n        /* \"#utility.yul\":20770:22165   */\n      pop\n      pop\n      jump\t// out\n        /* \"#utility.yul\":22171:22342   */\n    tag_208:\n        /* \"#utility.yul\":22311:22334   */\n      0x50726f6a65637420646f65736e27742065786973740000000000000000000000\n        /* \"#utility.yul\":22307:22308   */\n      0x00\n        /* \"#utility.yul\":22299:22305   */\n      dup3\n        /* \"#utility.yul\":22295:22309   */\n      add\n        /* \"#utility.yul\":22288:22335   */\n      mstore\n        /* \"#utility.yul\":22171:22342   */\n      pop\n      jump\t// out\n        /* \"#utility.yul\":22348:22714   */\n    tag_209:\n        /* \"#utility.yul\":22490:22493   */\n      0x00\n        /* \"#utility.yul\":22511:22578   */\n      tag_447\n        /* \"#utility.yul\":22575:22577   */\n      0x15\n        /* \"#utility.yul\":22570:22573   */\n      dup4\n        /* \"#utility.yul\":22511:22578   */\n      tag_153\n      jump\t// in\n    tag_447:\n        /* \"#utility.yul\":22504:22578   */\n      swap2\n      pop\n        /* \"#utility.yul\":22587:22680   */\n      tag_448\n        /* \"#utility.yul\":22676:22679   */\n      dup3\n        /* \"#utility.yul\":22587:22680   */\n      tag_208\n      jump\t// in\n    tag_448:\n        /* \"#utility.yul\":22705:22707   */\n      0x20\n        /* \"#utility.yul\":22700:22703   */\n      dup3\n        /* \"#utility.yul\":22696:22708   */\n      add\n        /* \"#utility.yul\":22689:22708   */\n      swap1\n      pop\n        /* \"#utility.yul\":22348:22714   */\n      swap2\n      swap1\n      pop\n      jump\t// out\n        /* \"#utility.yul\":22720:23139   */\n    tag_97:\n        /* \"#utility.yul\":22886:22890   */\n      0x00\n        /* \"#utility.yul\":22924:22926   */\n      0x20\n        /* \"#utility.yul\":22913:22922   */\n      dup3\n        /* \"#utility.yul\":22909:22927   */\n      add\n        /* \"#utility.yul\":22901:22927   */\n      swap1\n      pop\n        /* \"#utility.yul\":22973:22982   */\n      dup2\n        /* \"#utility.yul\":22967:22971   */\n      dup2\n        /* \"#utility.yul\":22963:22983   */\n      sub\n        /* \"#utility.yul\":22959:22960   */\n      0x00\n        /* \"#utility.yul\":22948:22957   */\n      dup4\n        /* \"#utility.yul\":22944:22961   */\n      add\n        /* \"#utility.yul\":22937:22984   */\n      mstore\n        /* \"#utility.yul\":23001:23132   */\n      tag_450\n        /* \"#utility.yul\":23127:23131   */\n      dup2\n        /* \"#utility.yul\":23001:23132   */\n      tag_209\n      jump\t// in\n    tag_450:\n        /* \"#utility.yul\":22993:23132   */\n      swap1\n      pop\n        /* \"#utility.yul\":22720:23139   */\n      swap2\n      swap1\n      pop\n      jump\t// out\n        /* \"#utility.yul\":23145:23366   */\n    tag_210:\n        /* \"#utility.yul\":23285:23319   */\n      0x596f7520646f6e74206861766520656e6f756768206d6f6e657920746f206675\n        /* \"#utility.yul\":23281:23282   */\n      0x00\n        /* \"#utility.yul\":23273:23279   */\n      dup3\n        /* \"#utility.yul\":23269:23283   */\n      add\n        /* \"#utility.yul\":23262:23320   */\n      mstore\n        /* \"#utility.yul\":23354:23358   */\n      0x6e64000000000000000000000000000000000000000000000000000000000000\n        /* \"#utility.yul\":23349:23351   */\n      0x20\n        /* \"#utility.yul\":23341:23347   */\n      dup3\n        /* \"#utility.yul\":23337:23352   */\n      add\n        /* \"#utility.yul\":23330:23359   */\n      mstore\n        /* \"#utility.yul\":23145:23366   */\n      pop\n      jump\t// out\n        /* \"#utility.yul\":23372:23738   */\n    tag_211:\n        /* \"#utility.yul\":23514:23517   */\n      0x00\n        /* \"#utility.yul\":23535:23602   */\n      tag_453\n        /* \"#utility.yul\":23599:23601   */\n      0x22\n        /* \"#utility.yul\":23594:23597   */\n      dup4\n        /* \"#utility.yul\":23535:23602   */\n      tag_153\n      jump\t// in\n    tag_453:\n        /* \"#utility.yul\":23528:23602   */\n      swap2\n      pop\n        /* \"#utility.yul\":23611:23704   */\n      tag_454\n        /* \"#utility.yul\":23700:23703   */\n      dup3\n        /* \"#utility.yul\":23611:23704   */\n      tag_210\n      jump\t// in\n    tag_454:\n        /* \"#utility.yul\":23729:23731   */\n      0x40\n        /* \"#utility.yul\":23724:23727   */\n      dup3\n        /* \"#utility.yul\":23720:23732   */\n      add\n        /* \"#utility.yul\":23713:23732   */\n      swap1\n      pop\n        /* \"#utility.yul\":23372:23738   */\n      swap2\n      swap1\n      pop\n      jump\t// out\n        /* \"#utility.yul\":23744:24163   */\n    tag_100:\n        /* \"#utility.yul\":23910:23914   */\n      0x00\n        /* \"#utility.yul\":23948:23950   */\n      0x20\n        /* \"#utility.yul\":23937:23946   */\n      dup3\n        /* \"#utility.yul\":23933:23951   */\n      add\n        /* \"#utility.yul\":23925:23951   */\n      swap1\n      pop\n        /* \"#utility.yul\":23997:24006   */\n      dup2\n        /* \"#utility.yul\":23991:23995   */\n      dup2\n        /* \"#utility.yul\":23987:24007   */\n      sub\n        /* \"#utility.yul\":23983:23984   */\n      0x00\n        /* \"#utility.yul\":23972:23981   */\n      dup4\n        /* \"#utility.yul\":23968:23985   */\n      add\n        /* \"#utility.yul\":23961:24008   */\n      mstore\n        /* \"#utility.yul\":24025:24156   */\n      tag_456\n        /* \"#utility.yul\":24151:24155   */\n      dup2\n        /* \"#utility.yul\":24025:24156   */\n      tag_211\n      jump\t// in\n    tag_456:\n        /* \"#utility.yul\":24017:24156   */\n      swap1\n      pop\n        /* \"#utility.yul\":23744:24163   */\n      swap2\n      swap1\n      pop\n      jump\t// out\n        /* \"#utility.yul\":24169:24341   */\n    tag_212:\n        /* \"#utility.yul\":24309:24333   */\n      0x46756e6420616d6f756e742063616e2774206265203000000000000000000000\n        /* \"#utility.yul\":24305:24306   */\n      0x00\n        /* \"#utility.yul\":24297:24303   */\n      dup3\n        /* \"#utility.yul\":24293:24307   */\n      add\n        /* \"#utility.yul\":24286:24334   */\n      mstore\n        /* \"#utility.yul\":24169:24341   */\n      pop\n      jump\t// out\n        /* \"#utility.yul\":24347:24713   */\n    tag_213:\n        /* \"#utility.yul\":24489:24492   */\n      0x00\n        /* \"#utility.yul\":24510:24577   */\n      tag_459\n        /* \"#utility.yul\":24574:24576   */\n      0x16\n        /* \"#utility.yul\":24569:24572   */\n      dup4\n        /* \"#utility.yul\":24510:24577   */\n      tag_153\n      jump\t// in\n    tag_459:\n        /* \"#utility.yul\":24503:24577   */\n      swap2\n      pop\n        /* \"#utility.yul\":24586:24679   */\n      tag_460\n        /* \"#utility.yul\":24675:24678   */\n      dup3\n        /* \"#utility.yul\":24586:24679   */\n      tag_212\n      jump\t// in\n    tag_460:\n        /* \"#utility.yul\":24704:24706   */\n      0x20\n        /* \"#utility.yul\":24699:24702   */\n      dup3\n        /* \"#utility.yul\":24695:24707   */\n      add\n        /* \"#utility.yul\":24688:24707   */\n      swap1\n      pop\n        /* \"#utility.yul\":24347:24713   */\n      swap2\n      swap1\n      pop\n      jump\t// out\n        /* \"#utility.yul\":24719:25138   */\n    tag_103:\n        /* \"#utility.yul\":24885:24889   */\n      0x00\n        /* \"#utility.yul\":24923:24925   */\n      0x20\n        /* \"#utility.yul\":24912:24921   */\n      dup3\n        /* \"#utility.yul\":24908:24926   */\n      add\n        /* \"#utility.yul\":24900:24926   */\n      swap1\n      pop\n        /* \"#utility.yul\":24972:24981   */\n      dup2\n        /* \"#utility.yul\":24966:24970   */\n      dup2\n        /* \"#utility.yul\":24962:24982   */\n      sub\n        /* \"#utility.yul\":24958:24959   */\n      0x00\n        /* \"#utility.yul\":24947:24956   */\n      dup4\n        /* \"#utility.yul\":24943:24960   */\n      add\n        /* \"#utility.yul\":24936:24983   */\n      mstore\n        /* \"#utility.yul\":25000:25131   */\n      tag_462\n        /* \"#utility.yul\":25126:25130   */\n      dup2\n        /* \"#utility.yul\":25000:25131   */\n      tag_213\n      jump\t// in\n    tag_462:\n        /* \"#utility.yul\":24992:25131   */\n      swap1\n      pop\n        /* \"#utility.yul\":24719:25138   */\n      swap2\n      swap1\n      pop\n      jump\t// out\n        /* \"#utility.yul\":25144:25324   */\n    tag_214:\n        /* \"#utility.yul\":25284:25316   */\n      0x50726f6a656374206d7573742062652061637469766520746f2066756e640000\n        /* \"#utility.yul\":25280:25281   */\n      0x00\n        /* \"#utility.yul\":25272:25278   */\n      dup3\n        /* \"#utility.yul\":25268:25282   */\n      add\n        /* \"#utility.yul\":25261:25317   */\n      mstore\n        /* \"#utility.yul\":25144:25324   */\n      pop\n      jump\t// out\n        /* \"#utility.yul\":25330:25696   */\n    tag_215:\n        /* \"#utility.yul\":25472:25475   */\n      0x00\n        /* \"#utility.yul\":25493:25560   */\n      tag_465\n        /* \"#utility.yul\":25557:25559   */\n      0x1e\n        /* \"#utility.yul\":25552:25555   */\n      dup4\n        /* \"#utility.yul\":25493:25560   */\n      tag_153\n      jump\t// in\n    tag_465:\n        /* \"#utility.yul\":25486:25560   */\n      swap2\n      pop\n        /* \"#utility.yul\":25569:25662   */\n      tag_466\n        /* \"#utility.yul\":25658:25661   */\n      dup3\n        /* \"#utility.yul\":25569:25662   */\n      tag_214\n      jump\t// in\n    tag_466:\n        /* \"#utility.yul\":25687:25689   */\n      0x20\n        /* \"#utility.yul\":25682:25685   */\n      dup3\n        /* \"#utility.yul\":25678:25690   */\n      add\n        /* \"#utility.yul\":25671:25690   */\n      swap1\n      pop\n        /* \"#utility.yul\":25330:25696   */\n      swap2\n      swap1\n      pop\n      jump\t// out\n        /* \"#utility.yul\":25702:26121   */\n    tag_109:\n        /* \"#utility.yul\":25868:25872   */\n      0x00\n        /* \"#utility.yul\":25906:25908   */\n      0x20\n        /* \"#utility.yul\":25895:25904   */\n      dup3\n        /* \"#utility.yul\":25891:25909   */\n      add\n        /* \"#utility.yul\":25883:25909   */\n      swap1\n      pop\n        /* \"#utility.yul\":25955:25964   */\n      dup2\n        /* \"#utility.yul\":25949:25953   */\n      dup2\n        /* \"#utility.yul\":25945:25965   */\n      sub\n        /* \"#utility.yul\":25941:25942   */\n      0x00\n        /* \"#utility.yul\":25930:25939   */\n      dup4\n        /* \"#utility.yul\":25926:25943   */\n      add\n        /* \"#utility.yul\":25919:25966   */\n      mstore\n        /* \"#utility.yul\":25983:26114   */\n      tag_468\n        /* \"#utility.yul\":26109:26113   */\n      dup2\n        /* \"#utility.yul\":25983:26114   */\n      tag_215\n      jump\t// in\n    tag_468:\n        /* \"#utility.yul\":25975:26114   */\n      swap1\n      pop\n        /* \"#utility.yul\":25702:26121   */\n      swap2\n      swap1\n      pop\n      jump\t// out\n        /* \"#utility.yul\":26127:26306   */\n    tag_216:\n        /* \"#utility.yul\":26267:26298   */\n      0x596f752063616e27742066756e6420616674657220646561646c696e65000000\n        /* \"#utility.yul\":26263:26264   */\n      0x00\n        /* \"#utility.yul\":26255:26261   */\n      dup3\n        /* \"#utility.yul\":26251:26265   */\n      add\n        /* \"#utility.yul\":26244:26299   */\n      mstore\n        /* \"#utility.yul\":26127:26306   */\n      pop\n      jump\t// out\n        /* \"#utility.yul\":26312:26678   */\n    tag_217:\n        /* \"#utility.yul\":26454:26457   */\n      0x00\n        /* \"#utility.yul\":26475:26542   */\n      tag_471\n        /* \"#utility.yul\":26539:26541   */\n      0x1d\n        /* \"#utility.yul\":26534:26537   */\n      dup4\n        /* \"#utility.yul\":26475:26542   */\n      tag_153\n      jump\t// in\n    tag_471:\n        /* \"#utility.yul\":26468:26542   */\n      swap2\n      pop\n        /* \"#utility.yul\":26551:26644   */\n      tag_472\n        /* \"#utility.yul\":26640:26643   */\n      dup3\n        /* \"#utility.yul\":26551:26644   */\n      tag_216\n      jump\t// in\n    tag_472:\n        /* \"#utility.yul\":26669:26671   */\n      0x20\n        /* \"#utility.yul\":26664:26667   */\n      dup3\n        /* \"#utility.yul\":26660:26672   */\n      add\n        /* \"#utility.yul\":26653:26672   */\n      swap1\n      pop\n        /* \"#utility.yul\":26312:26678   */\n      swap2\n      swap1\n      pop\n      jump\t// out\n        /* \"#utility.yul\":26684:27103   */\n    tag_115:\n        /* \"#utility.yul\":26850:26854   */\n      0x00\n        /* \"#utility.yul\":26888:26890   */\n      0x20\n        /* \"#utility.yul\":26877:26886   */\n      dup3\n        /* \"#utility.yul\":26873:26891   */\n      add\n        /* \"#utility.yul\":26865:26891   */\n      swap1\n      pop\n        /* \"#utility.yul\":26937:26946   */\n      dup2\n        /* \"#utility.yul\":26931:26935   */\n      dup2\n        /* \"#utility.yul\":26927:26947   */\n      sub\n        /* \"#utility.yul\":26923:26924   */\n      0x00\n        /* \"#utility.yul\":26912:26921   */\n      dup4\n        /* \"#utility.yul\":26908:26925   */\n      add\n        /* \"#utility.yul\":26901:26948   */\n      mstore\n        /* \"#utility.yul\":26965:27096   */\n      tag_474\n        /* \"#utility.yul\":27091:27095   */\n      dup2\n        /* \"#utility.yul\":26965:27096   */\n      tag_217\n      jump\t// in\n    tag_474:\n        /* \"#utility.yul\":26957:27096   */\n      swap1\n      pop\n        /* \"#utility.yul\":26684:27103   */\n      swap2\n      swap1\n      pop\n      jump\t// out\n        /* \"#utility.yul\":27109:27300   */\n    tag_117:\n        /* \"#utility.yul\":27149:27152   */\n      0x00\n        /* \"#utility.yul\":27168:27188   */\n      tag_476\n        /* \"#utility.yul\":27186:27187   */\n      dup3\n        /* \"#utility.yul\":27168:27188   */\n      tag_146\n      jump\t// in\n    tag_476:\n        /* \"#utility.yul\":27163:27188   */\n      swap2\n      pop\n        /* \"#utility.yul\":27202:27222   */\n      tag_477\n        /* \"#utility.yul\":27220:27221   */\n      dup4\n        /* \"#utility.yul\":27202:27222   */\n      tag_146\n      jump\t// in\n    tag_477:\n        /* \"#utility.yul\":27197:27222   */\n      swap3\n      pop\n        /* \"#utility.yul\":27245:27246   */\n      dup3\n        /* \"#utility.yul\":27242:27243   */\n      dup3\n        /* \"#utility.yul\":27238:27247   */\n      add\n        /* \"#utility.yul\":27231:27247   */\n      swap1\n      pop\n        /* \"#utility.yul\":27266:27269   */\n      dup1\n        /* \"#utility.yul\":27263:27264   */\n      dup3\n        /* \"#utility.yul\":27260:27270   */\n      gt\n        /* \"#utility.yul\":27257:27293   */\n      iszero\n      tag_478\n      jumpi\n        /* \"#utility.yul\":27273:27291   */\n      tag_479\n      tag_187\n      jump\t// in\n    tag_479:\n        /* \"#utility.yul\":27257:27293   */\n    tag_478:\n        /* \"#utility.yul\":27109:27300   */\n      swap3\n      swap2\n      pop\n      pop\n      jump\t// out\n        /* \"#utility.yul\":27306:27469   */\n    tag_218:\n        /* \"#utility.yul\":27446:27461   */\n      0x526566756e64206661696c656400000000000000000000000000000000000000\n        /* \"#utility.yul\":27442:27443   */\n      0x00\n        /* \"#utility.yul\":27434:27440   */\n      dup3\n        /* \"#utility.yul\":27430:27444   */\n      add\n        /* \"#utility.yul\":27423:27462   */\n      mstore\n        /* \"#utility.yul\":27306:27469   */\n      pop\n      jump\t// out\n        /* \"#utility.yul\":27475:27841   */\n    tag_219:\n        /* \"#utility.yul\":27617:27620   */\n      0x00\n        /* \"#utility.yul\":27638:27705   */\n      tag_482\n        /* \"#utility.yul\":27702:27704   */\n      0x0d\n        /* \"#utility.yul\":27697:27700   */\n      dup4\n        /* \"#utility.yul\":27638:27705   */\n      tag_153\n      jump\t// in\n    tag_482:\n        /* \"#utility.yul\":27631:27705   */\n      swap2\n      pop\n        /* \"#utility.yul\":27714:27807   */\n      tag_483\n        /* \"#utility.yul\":27803:27806   */\n      dup3\n        /* \"#utility.yul\":27714:27807   */\n      tag_218\n      jump\t// in\n    tag_483:\n        /* \"#utility.yul\":27832:27834   */\n      0x20\n        /* \"#utility.yul\":27827:27830   */\n      dup3\n        /* \"#utility.yul\":27823:27835   */\n      add\n        /* \"#utility.yul\":27816:27835   */\n      swap1\n      pop\n        /* \"#utility.yul\":27475:27841   */\n      swap2\n      swap1\n      pop\n      jump\t// out\n        /* \"#utility.yul\":27847:28266   */\n    tag_140:\n        /* \"#utility.yul\":28013:28017   */\n      0x00\n        /* \"#utility.yul\":28051:28053   */\n      0x20\n        /* \"#utility.yul\":28040:28049   */\n      dup3\n        /* \"#utility.yul\":28036:28054   */\n      add\n        /* \"#utility.yul\":28028:28054   */\n      swap1\n      pop\n        /* \"#utility.yul\":28100:28109   */\n      dup2\n        /* \"#utility.yul\":28094:28098   */\n      dup2\n        /* \"#utility.yul\":28090:28110   */\n      sub\n        /* \"#utility.yul\":28086:28087   */\n      0x00\n        /* \"#utility.yul\":28075:28084   */\n      dup4\n        /* \"#utility.yul\":28071:28088   */\n      add\n        /* \"#utility.yul\":28064:28111   */\n      mstore\n        /* \"#utility.yul\":28128:28259   */\n      tag_485\n        /* \"#utility.yul\":28254:28258   */\n      dup2\n        /* \"#utility.yul\":28128:28259   */\n      tag_219\n      jump\t// in\n    tag_485:\n        /* \"#utility.yul\":28120:28259   */\n      swap1\n      pop\n        /* \"#utility.yul\":27847:28266   */\n      swap2\n      swap1\n      pop\n      jump\t// out\n        /* \"#utility.yul\":28272:28383   */\n    tag_220:\n        /* \"#utility.yul\":28336:28342   */\n      0x00\n        /* \"#utility.yul\":28370:28375   */\n      dup2\n        /* \"#utility.yul\":28364:28376   */\n      sload\n        /* \"#utility.yul\":28354:28376   */\n      swap1\n      pop\n        /* \"#utility.yul\":28272:28383   */\n      swap2\n      swap1\n      pop\n      jump\t// out\n        /* \"#utility.yul\":28389:28573   */\n    tag_221:\n        /* \"#utility.yul\":28488:28499   */\n      0x00\n        /* \"#utility.yul\":28522:28528   */\n      dup3\n        /* \"#utility.yul\":28517:28520   */\n      dup3\n        /* \"#utility.yul\":28510:28529   */\n      mstore\n        /* \"#utility.yul\":28562:28566   */\n      0x20\n        /* \"#utility.yul\":28557:28560   */\n      dup3\n        /* \"#utility.yul\":28553:28567   */\n      add\n        /* \"#utility.yul\":28538:28567   */\n      swap1\n      pop\n        /* \"#utility.yul\":28389:28573   */\n      swap3\n      swap2\n      pop\n      pop\n      jump\t// out\n        /* \"#utility.yul\":28579:28735   */\n    tag_222:\n        /* \"#utility.yul\":28643:28647   */\n      0x00\n        /* \"#utility.yul\":28666:28669   */\n      dup2\n        /* \"#utility.yul\":28658:28669   */\n      swap1\n      pop\n        /* \"#utility.yul\":28689:28692   */\n      dup2\n        /* \"#utility.yul\":28686:28687   */\n      0x00\n        /* \"#utility.yul\":28679:28693   */\n      mstore\n        /* \"#utility.yul\":28723:28727   */\n      0x20\n        /* \"#utility.yul\":28720:28721   */\n      0x00\n        /* \"#utility.yul\":28710:28728   */\n      keccak256\n        /* \"#utility.yul\":28702:28728   */\n      swap1\n      pop\n        /* \"#utility.yul\":28579:28735   */\n      swap2\n      swap1\n      pop\n      jump\t// out\n        /* \"#utility.yul\":28741:28849   */\n    tag_223:\n        /* \"#utility.yul\":28818:28842   */\n      tag_490\n        /* \"#utility.yul\":28836:28841   */\n      dup2\n        /* \"#utility.yul\":28818:28842   */\n      tag_150\n      jump\t// in\n    tag_490:\n        /* \"#utility.yul\":28813:28816   */\n      dup3\n        /* \"#utility.yul\":28806:28843   */\n      mstore\n        /* \"#utility.yul\":28741:28849   */\n      pop\n      pop\n      jump\t// out\n        /* \"#utility.yul\":28855:29034   */\n    tag_224:\n        /* \"#utility.yul\":28924:28934   */\n      0x00\n        /* \"#utility.yul\":28945:28991   */\n      tag_492\n        /* \"#utility.yul\":28987:28990   */\n      dup4\n        /* \"#utility.yul\":28979:28985   */\n      dup4\n        /* \"#utility.yul\":28945:28991   */\n      tag_223\n      jump\t// in\n    tag_492:\n        /* \"#utility.yul\":29023:29027   */\n      0x20\n        /* \"#utility.yul\":29018:29021   */\n      dup4\n        /* \"#utility.yul\":29014:29028   */\n      add\n        /* \"#utility.yul\":29000:29028   */\n      swap1\n      pop\n        /* \"#utility.yul\":28855:29034   */\n      swap3\n      swap2\n      pop\n      pop\n      jump\t// out\n        /* \"#utility.yul\":29040:29142   */\n    tag_225:\n        /* \"#utility.yul\":29082:29090   */\n      0x00\n        /* \"#utility.yul\":29129:29134   */\n      dup2\n        /* \"#utility.yul\":29126:29127   */\n      0x00\n        /* \"#utility.yul\":29122:29135   */\n      shr\n        /* \"#utility.yul\":29101:29135   */\n      swap1\n      pop\n        /* \"#utility.yul\":29040:29142   */\n      swap2\n      swap1\n      pop\n      jump\t// out\n        /* \"#utility.yul\":29148:29287   */\n    tag_226:\n        /* \"#utility.yul\":29198:29205   */\n      0x00\n        /* \"#utility.yul\":29238:29280   */\n      0xffffffffffffffffffffffffffffffffffffffff\n        /* \"#utility.yul\":29231:29236   */\n      dup3\n        /* \"#utility.yul\":29227:29281   */\n      and\n        /* \"#utility.yul\":29216:29281   */\n      swap1\n      pop\n        /* \"#utility.yul\":29148:29287   */\n      swap2\n      swap1\n      pop\n      jump\t// out\n        /* \"#utility.yul\":29293:29460   */\n    tag_227:\n        /* \"#utility.yul\":29363:29368   */\n      0x00\n        /* \"#utility.yul\":29388:29454   */\n      tag_496\n        /* \"#utility.yul\":29419:29453   */\n      tag_497\n        /* \"#utility.yul\":29442:29452   */\n      dup4\n        /* \"#utility.yul\":29419:29453   */\n      tag_225\n      jump\t// in\n    tag_497:\n        /* \"#utility.yul\":29388:29454   */\n      tag_226\n      jump\t// in\n    tag_496:\n        /* \"#utility.yul\":29379:29454   */\n      swap1\n      pop\n        /* \"#utility.yul\":29293:29460   */\n      swap2\n      swap1\n      pop\n      jump\t// out\n        /* \"#utility.yul\":29466:29611   */\n    tag_228:\n        /* \"#utility.yul\":29521:29526   */\n      0x00\n        /* \"#utility.yul\":29546:29604   */\n      tag_499\n        /* \"#utility.yul\":29598:29602   */\n      dup3\n        /* \"#utility.yul\":29592:29603   */\n      sload\n        /* \"#utility.yul\":29546:29604   */\n      tag_227\n      jump\t// in\n    tag_499:\n        /* \"#utility.yul\":29537:29604   */\n      swap1\n      pop\n        /* \"#utility.yul\":29466:29611   */\n      swap2\n      swap1\n      pop\n      jump\t// out\n        /* \"#utility.yul\":29617:29727   */\n    tag_229:\n        /* \"#utility.yul\":29684:29688   */\n      0x00\n        /* \"#utility.yul\":29716:29720   */\n      0x01\n        /* \"#utility.yul\":29711:29714   */\n      dup3\n        /* \"#utility.yul\":29707:29721   */\n      add\n        /* \"#utility.yul\":29699:29721   */\n      swap1\n      pop\n        /* \"#utility.yul\":29617:29727   */\n      swap2\n      swap1\n      pop\n      jump\t// out\n        /* \"#utility.yul\":29763:30514   */\n    tag_230:\n        /* \"#utility.yul\":29879:29882   */\n      0x00\n        /* \"#utility.yul\":29908:29959   */\n      tag_502\n        /* \"#utility.yul\":29953:29958   */\n      dup3\n        /* \"#utility.yul\":29908:29959   */\n      tag_220\n      jump\t// in\n    tag_502:\n        /* \"#utility.yul\":29975:30061   */\n      tag_503\n        /* \"#utility.yul\":30054:30060   */\n      dup2\n        /* \"#utility.yul\":30049:30052   */\n      dup6\n        /* \"#utility.yul\":29975:30061   */\n      tag_221\n      jump\t// in\n    tag_503:\n        /* \"#utility.yul\":29968:30061   */\n      swap4\n      pop\n        /* \"#utility.yul\":30085:30138   */\n      tag_504\n        /* \"#utility.yul\":30132:30137   */\n      dup4\n        /* \"#utility.yul\":30085:30138   */\n      tag_222\n      jump\t// in\n    tag_504:\n        /* \"#utility.yul\":30161:30168   */\n      dup1\n        /* \"#utility.yul\":30192:30193   */\n      0x00\n        /* \"#utility.yul\":30177:30489   */\n    tag_505:\n        /* \"#utility.yul\":30202:30208   */\n      dup4\n        /* \"#utility.yul\":30199:30200   */\n      dup2\n        /* \"#utility.yul\":30196:30209   */\n      lt\n        /* \"#utility.yul\":30177:30489   */\n      iszero\n      tag_507\n      jumpi\n        /* \"#utility.yul\":30272:30316   */\n      tag_508\n        /* \"#utility.yul\":30309:30315   */\n      dup3\n        /* \"#utility.yul\":30272:30316   */\n      tag_228\n      jump\t// in\n    tag_508:\n        /* \"#utility.yul\":30336:30399   */\n      tag_509\n        /* \"#utility.yul\":30395:30398   */\n      dup9\n        /* \"#utility.yul\":30380:30393   */\n      dup3\n        /* \"#utility.yul\":30336:30399   */\n      tag_224\n      jump\t// in\n    tag_509:\n        /* \"#utility.yul\":30329:30399   */\n      swap8\n      pop\n        /* \"#utility.yul\":30422:30479   */\n      tag_510\n        /* \"#utility.yul\":30472:30478   */\n      dup4\n        /* \"#utility.yul\":30422:30479   */\n      tag_229\n      jump\t// in\n    tag_510:\n        /* \"#utility.yul\":30412:30479   */\n      swap3\n      pop\n        /* \"#utility.yul\":30237:30489   */\n      pop\n        /* \"#utility.yul\":30224:30225   */\n      0x01\n        /* \"#utility.yul\":30221:30222   */\n      dup2\n        /* \"#utility.yul\":30217:30226   */\n      add\n        /* \"#utility.yul\":30212:30226   */\n      swap1\n      pop\n        /* \"#utility.yul\":30177:30489   */\n      jump(tag_505)\n    tag_507:\n        /* \"#utility.yul\":30181:30195   */\n      pop\n        /* \"#utility.yul\":30505:30508   */\n      dup6\n        /* \"#utility.yul\":30498:30508   */\n      swap4\n      pop\n        /* \"#utility.yul\":29884:30514   */\n      pop\n      pop\n      pop\n        /* \"#utility.yul\":29763:30514   */\n      swap3\n      swap2\n      pop\n      pop\n      jump\t// out\n        /* \"#utility.yul\":30520:30887   */\n    tag_142:\n        /* \"#utility.yul\":30660:30664   */\n      0x00\n        /* \"#utility.yul\":30698:30700   */\n      0x20\n        /* \"#utility.yul\":30687:30696   */\n      dup3\n        /* \"#utility.yul\":30683:30701   */\n      add\n        /* \"#utility.yul\":30675:30701   */\n      swap1\n      pop\n        /* \"#utility.yul\":30747:30756   */\n      dup2\n        /* \"#utility.yul\":30741:30745   */\n      dup2\n        /* \"#utility.yul\":30737:30757   */\n      sub\n        /* \"#utility.yul\":30733:30734   */\n      0x00\n        /* \"#utility.yul\":30722:30731   */\n      dup4\n        /* \"#utility.yul\":30718:30735   */\n      add\n        /* \"#utility.yul\":30711:30758   */\n      mstore\n        /* \"#utility.yul\":30775:30880   */\n      tag_512\n        /* \"#utility.yul\":30875:30879   */\n      dup2\n        /* \"#utility.yul\":30866:30872   */\n      dup5\n        /* \"#utility.yul\":30775:30880   */\n      tag_230\n      jump\t// in\n    tag_512:\n        /* \"#utility.yul\":30767:30880   */\n      swap1\n      pop\n        /* \"#utility.yul\":30520:30887   */\n      swap3\n      swap2\n      pop\n      pop\n      jump\t// out\n\n    auxdata: 0xa2646970667358221220727b8ba0c1fdea22f242eecc6df005c96563fbaf25bb8807fbc9624bd1aa695464736f6c634300081e0033\n}\n",
				"bytecode": {
					"linkReferences": {},
					"object": "6080604052348015600e575f5ffd5b50335f5f6101000a81548173ffffffffffffffffffffffffffffffffffffffff021916908373ffffffffffffffffffffffffffffffffffffffff160217905550611b5d8061005b5f395ff3fe608060405260043610610049575f3560e01c806308e38af91461004d5780630e4877d614610075578063107046bd1461009f5780633e7e12a6146100df5780636c563abe14610107575b5f5ffd5b348015610058575f5ffd5b50610073600480360381019061006e9190610c6d565b610123565b005b348015610080575f5ffd5b5061008961046b565b6040516100969190610cd7565b60405180910390f35b3480156100aa575f5ffd5b506100c560048036038101906100c09190610c6d565b61048f565b6040516100d6959493929190610d89565b60405180910390f35b3480156100ea575f5ffd5b5061010560048036038101906101009190611022565b610581565b005b610121600480360381019061011c9190610c6d565b6107ac565b005b5f6001828154811061013857610137611098565b5b905f5260205f20906006020190505f8160040182600301548154811061016157610160611098565b5b905f5260205f2090600602019050816005015f9054906101000a900460ff166101bf576040517f08c379a00000000000000000000000000000000000000000000000000000000081526004016101b69061110f565b60405180910390fd5b806005015f9054906101000a900460ff1615610210576040517f08c379a000000000000000000000000000000000000000000000000000000000815260040161020790611177565b60405180910390fd5b805f0160010154421015610259576040517f08c379a0000000000000000000000000000000000000000000000000000000008152600401610250906111df565b60405180910390fd5b805f015f015481600201541061040f576001816005015f6101000a81548160ff0219169083151502179055505f825f015f9054906101000a900473ffffffffffffffffffffffffffffffffffffffff1673ffffffffffffffffffffffffffffffffffffffff1682600201546040516102d09061122a565b5f6040518083038185875af1925050503d805f811461030a576040519150601f19603f3d011682016040523d82523d5f602084013e61030f565b606091505b5050905080610353576040517f08c379a000000000000000000000000000000000000000000000000000000000815260040161034a90611288565b60405180910390fd5b6001836004018054905061036791906112d3565b836003015410156103ed576001826005015f6101000a81548160ff021916908315150217905550826003015f8154809291906103a290611306565b91905055508260030154847f98ab122f98189d797b82ca33344809354ae082e584fff378c4f9daba149698c684600201546040516103e0919061134d565b60405180910390a3610409565b5f836005015f6101000a81548160ff0219169083151502179055505b50610466565b5f826005015f6101000a81548160ff021916908315150217905550610438838360030154610a01565b827fe3805ed669490875ae87c5c8b1ad6ecca0e5e67305a833926d0d4317c4822fc060405160405180910390a25b505050565b5f5f9054906101000a900473ffffffffffffffffffffffffffffffffffffffff1681565b6001818154811061049e575f80fd5b905f5260205f2090600602015f91509050805f015f9054906101000a900473ffffffffffffffffffffffffffffffffffffffff16908060010180546104e290611393565b80601f016020809104026020016040519081016040528092919081815260200182805461050e90611393565b80156105595780601f1061053057610100808354040283529160200191610559565b820191905f5260205f20905b81548152906001019060200180831161053c57829003601f168201915b505050505090806002015490806003015490806005015f9054906101000a900460ff16905085565b5f5f9054906101000a900473ffffffffffffffffffffffffffffffffffffffff1673ffffffffffffffffffffffffffffffffffffffff163373ffffffffffffffffffffffffffffffffffffffff160361060f576040517f08c379a000000000000000000000000000000000000000000000000000000000815260040161060690611433565b60405180910390fd5b5f815111610652576040517f08c379a00000000000000000000000000000000000000000000000000000000081526004016106499061149b565b60405180910390fd5b5f6001808160018154018082558091505003905f5260205f209060060201905033815f015f6101000a81548173ffffffffffffffffffffffffffffffffffffffff021916908373ffffffffffffffffffffffffffffffffffffffff160217905550828160010190816106c49190611659565b505f81600201819055505f81600301819055506001816005015f6101000a81548160ff0219169083151502179055505f5f90505b82518110156107a6575f8260040160018160018154018082558091505003905f5260205f209060060201905083828151811061073757610736611098565b5b60200260200101515f0151815f015f018190555083828151811061075e5761075d611098565b5b602002602001015160200151815f01600101819055505f81600201819055505f816005015f6101000a81548160ff0219169083151502179055505080806001019150506106f8565b50505050565b60018054905081106107f3576040517f08c379a00000000000000000000000000000000000000000000000000000000081526004016107ea90611772565b60405180910390fd5b3373ffffffffffffffffffffffffffffffffffffffff163134111561084d576040517f08c379a000000000000000000000000000000000000000000000000000000000815260040161084490611800565b60405180910390fd5b5f341161088f576040517f08c379a000000000000000000000000000000000000000000000000000000000815260040161088690611868565b60405180910390fd5b5f600182815481106108a4576108a3611098565b5b905f5260205f2090600602019050806005015f9054906101000a900460ff16610902576040517f08c379a00000000000000000000000000000000000000000000000000000000081526004016108f9906118d0565b60405180910390fd5b5f8160040182600301548154811061091d5761091c611098565b5b905f5260205f209060060201905042815f016001015410610973576040517f08c379a000000000000000000000000000000000000000000000000000000000815260040161096a90611938565b60405180910390fd5b34816004015f3373ffffffffffffffffffffffffffffffffffffffff1673ffffffffffffffffffffffffffffffffffffffff1681526020019081526020015f205f8282546109c19190611956565b9250508190555034816002015f8282546109db9190611956565b9250508190555034826002015f8282546109f59190611956565b92505081905550505050565b5f60018381548110610a1657610a15611098565b5b905f5260205f20906006020190505f816004018381548110610a3b57610a3a611098565b5b905f5260205f20906006020190505f5f90505b8160030180549050811015610be6575f826003018281548110610a7457610a73611098565b5b905f5260205f20015f9054906101000a900473ffffffffffffffffffffffffffffffffffffffff1690505f836004015f8373ffffffffffffffffffffffffffffffffffffffff1673ffffffffffffffffffffffffffffffffffffffff1681526020019081526020015f205490505f811115610bd7575f846004015f8473ffffffffffffffffffffffffffffffffffffffff1673ffffffffffffffffffffffffffffffffffffffff1681526020019081526020015f20819055505f8273ffffffffffffffffffffffffffffffffffffffff1682604051610b529061122a565b5f6040518083038185875af1925050503d805f8114610b8c576040519150601f19603f3d011682016040523d82523d5f602084013e610b91565b606091505b5050905080610bd5576040517f08c379a0000000000000000000000000000000000000000000000000000000008152600401610bcc906119d3565b60405180910390fd5b505b50508080600101915050610a4e565b5082847f84bb845d12f485aaadcf32d6bc01b9d43865c73fc739029daeaf884752c0e23883600301604051610c1b9190611b07565b60405180910390a350505050565b5f604051905090565b5f5ffd5b5f5ffd5b5f819050919050565b610c4c81610c3a565b8114610c56575f5ffd5b50565b5f81359050610c6781610c43565b92915050565b5f60208284031215610c8257610c81610c32565b5b5f610c8f84828501610c59565b91505092915050565b5f73ffffffffffffffffffffffffffffffffffffffff82169050919050565b5f610cc182610c98565b9050919050565b610cd181610cb7565b82525050565b5f602082019050610cea5f830184610cc8565b92915050565b5f81519050919050565b5f82825260208201905092915050565b8281835e5f83830152505050565b5f601f19601f8301169050919050565b5f610d3282610cf0565b610d3c8185610cfa565b9350610d4c818560208601610d0a565b610d5581610d18565b840191505092915050565b610d6981610c3a565b82525050565b5f8115159050919050565b610d8381610d6f565b82525050565b5f60a082019050610d9c5f830188610cc8565b8181036020830152610dae8187610d28565b9050610dbd6040830186610d60565b610dca6060830185610d60565b610dd76080830184610d7a565b9695505050505050565b5f5ffd5b5f5ffd5b7f4e487b71000000000000000000000000000000000000000000000000000000005f52604160045260245ffd5b610e1f82610d18565b810181811067ffffffffffffffff82111715610e3e57610e3d610de9565b5b80604052505050565b5f610e50610c29565b9050610e5c8282610e16565b919050565b5f67ffffffffffffffff821115610e7b57610e7a610de9565b5b610e8482610d18565b9050602081019050919050565b828183375f83830152505050565b5f610eb1610eac84610e61565b610e47565b905082815260208101848484011115610ecd57610ecc610de5565b5b610ed8848285610e91565b509392505050565b5f82601f830112610ef457610ef3610de1565b5b8135610f04848260208601610e9f565b91505092915050565b5f67ffffffffffffffff821115610f2757610f26610de9565b5b602082029050602081019050919050565b5f5ffd5b5f5ffd5b5f60408284031215610f5557610f54610f3c565b5b610f5f6040610e47565b90505f610f6e84828501610c59565b5f830152506020610f8184828501610c59565b60208301525092915050565b5f610f9f610f9a84610f0d565b610e47565b90508083825260208201905060408402830185811115610fc257610fc1610f38565b5b835b81811015610feb5780610fd78882610f40565b845260208401935050604081019050610fc4565b5050509392505050565b5f82601f83011261100957611008610de1565b5b8135611019848260208601610f8d565b91505092915050565b5f5f6040838503121561103857611037610c32565b5b5f83013567ffffffffffffffff81111561105557611054610c36565b5b61106185828601610ee0565b925050602083013567ffffffffffffffff81111561108257611081610c36565b5b61108e85828601610ff5565b9150509250929050565b7f4e487b71000000000000000000000000000000000000000000000000000000005f52603260045260245ffd5b7f50726f6a656374206d75737420626520616374697665000000000000000000005f82015250565b5f6110f9601683610cfa565b9150611104826110c5565b602082019050919050565b5f6020820190508181035f830152611126816110ed565b9050919050565b7f4d696c6573746f6e652073686f756c64206265206e6f742072656163686564005f82015250565b5f611161601f83610cfa565b915061116c8261112d565b602082019050919050565b5f6020820190508181035f83015261118e81611155565b9050919050565b7f43616e206f6e6c79206368656b636b206166746572206d696c6573746f6e65005f82015250565b5f6111c9601f83610cfa565b91506111d482611195565b602082019050919050565b5f6020820190508181035f8301526111f6816111bd565b9050919050565b5f81905092915050565b50565b5f6112155f836111fd565b915061122082611207565b5f82019050919050565b5f6112348261120a565b9150819050919050565b7f5472616e7366657220746f2063726561746f72206661696c65640000000000005f82015250565b5f611272601a83610cfa565b915061127d8261123e565b602082019050919050565b5f6020820190508181035f83015261129f81611266565b9050919050565b7f4e487b71000000000000000000000000000000000000000000000000000000005f52601160045260245ffd5b5f6112dd82610c3a565b91506112e883610c3a565b9250828203905081811115611300576112ff6112a6565b5b92915050565b5f61131082610c3a565b91507fffffffffffffffffffffffffffffffffffffffffffffffffffffffffffffffff8203611342576113416112a6565b5b600182019050919050565b5f6020820190506113605f830184610d60565b92915050565b7f4e487b71000000000000000000000000000000000000000000000000000000005f52602260045260245ffd5b5f60028204905060018216806113aa57607f821691505b6020821081036113bd576113bc611366565b5b50919050565b7f53797374656d206f776e65722063616e2774206372656174652070726f6a65635f8201527f7473000000000000000000000000000000000000000000000000000000000000602082015250565b5f61141d602283610cfa565b9150611428826113c3565b604082019050919050565b5f6020820190508181035f83015261144a81611411565b9050919050565b7f4d7573742068617665206174206c65617374206f6e65206d696c6573746f6e655f82015250565b5f611485602083610cfa565b915061149082611451565b602082019050919050565b5f6020820190508181035f8301526114b281611479565b9050919050565b5f819050815f5260205f209050919050565b5f6020601f8301049050919050565b5f82821b905092915050565b5f600883026115157fffffffffffffffffffffffffffffffffffffffffffffffffffffffffffffffff826114da565b61151f86836114da565b95508019841693508086168417925050509392505050565b5f819050919050565b5f61155a61155561155084610c3a565b611537565b610c3a565b9050919050565b5f819050919050565b61157383611540565b61158761157f82611561565b8484546114e6565b825550505050565b5f5f905090565b61159e61158f565b6115a981848461156a565b505050565b5b818110156115cc576115c15f82611596565b6001810190506115af565b5050565b601f821115611611576115e2816114b9565b6115eb846114cb565b810160208510156115fa578190505b61160e611606856114cb565b8301826115ae565b50505b505050565b5f82821c905092915050565b5f6116315f1984600802611616565b1980831691505092915050565b5f6116498383611622565b9150826002028217905092915050565b61166282610cf0565b67ffffffffffffffff81111561167b5761167a610de9565b5b6116858254611393565b6116908282856115d0565b5f60209050601f8311600181146116c1575f84156116af578287015190505b6116b9858261163e565b865550611720565b601f1984166116cf866114b9565b5f5b828110156116f6578489015182556001820191506020850194506020810190506116d1565b86831015611713578489015161170f601f891682611622565b8355505b6001600288020188555050505b505050505050565b7f50726f6a65637420646f65736e277420657869737400000000000000000000005f82015250565b5f61175c601583610cfa565b915061176782611728565b602082019050919050565b5f6020820190508181035f83015261178981611750565b9050919050565b7f596f7520646f6e74206861766520656e6f756768206d6f6e657920746f2066755f8201527f6e64000000000000000000000000000000000000000000000000000000000000602082015250565b5f6117ea602283610cfa565b91506117f582611790565b604082019050919050565b5f6020820190508181035f830152611817816117de565b9050919050565b7f46756e6420616d6f756e742063616e27742062652030000000000000000000005f82015250565b5f611852601683610cfa565b915061185d8261181e565b602082019050919050565b5f6020820190508181035f83015261187f81611846565b9050919050565b7f50726f6a656374206d7573742062652061637469766520746f2066756e6400005f82015250565b5f6118ba601e83610cfa565b91506118c582611886565b602082019050919050565b5f6020820190508181035f8301526118e7816118ae565b9050919050565b7f596f752063616e27742066756e6420616674657220646561646c696e650000005f82015250565b5f611922601d83610cfa565b915061192d826118ee565b602082019050919050565b5f6020820190508181035f83015261194f81611916565b9050919050565b5f61196082610c3a565b915061196b83610c3a565b9250828201905080821115611983576119826112a6565b5b92915050565b7f526566756e64206661696c6564000000000000000000000000000000000000005f82015250565b5f6119bd600d83610cfa565b91506119c882611989565b602082019050919050565b5f6020820190508181035f8301526119ea816119b1565b9050919050565b5f81549050919050565b5f82825260208201905092915050565b5f819050815f5260205f209050919050565b611a2681610cb7565b82525050565b5f611a378383611a1d565b60208301905092915050565b5f815f1c9050919050565b5f73ffffffffffffffffffffffffffffffffffffffff82169050919050565b5f611a7f611a7a83611a43565b611a4e565b9050919050565b5f611a918254611a6d565b9050919050565b5f600182019050919050565b5f611aae826119f1565b611ab881856119fb565b9350611ac383611a0b565b805f5b83811015611afa57611ad782611a86565b611ae18882611a2c565b9750611aec83611a98565b925050600181019050611ac6565b5085935050505092915050565b5f6020820190508181035f830152611b1f8184611aa4565b90509291505056fea2646970667358221220727b8ba0c1fdea22f242eecc6df005c96563fbaf25bb8807fbc9624bd1aa695464736f6c634300081e0033",
					"opcodes": "PUSH1 0x80 PUSH1 0x40 MSTORE CALLVALUE DUP1 ISZERO PUSH1 0xE JUMPI PUSH0 PUSH0 REVERT JUMPDEST POP CALLER PUSH0 PUSH0 PUSH2 0x100 EXP DUP2 SLOAD DUP2 PUSH20 0xFFFFFFFFFFFFFFFFFFFFFFFFFFFFFFFFFFFFFFFF MUL NOT AND SWAP1 DUP4 PUSH20 0xFFFFFFFFFFFFFFFFFFFFFFFFFFFFFFFFFFFFFFFF AND MUL OR SWAP1 SSTORE POP PUSH2 0x1B5D DUP1 PUSH2 0x5B PUSH0 CODECOPY PUSH0 RETURN INVALID PUSH1 0x80 PUSH1 0x40 MSTORE PUSH1 0x4 CALLDATASIZE LT PUSH2 0x49 JUMPI PUSH0 CALLDATALOAD PUSH1 0xE0 SHR DUP1 PUSH4 0x8E38AF9 EQ PUSH2 0x4D JUMPI DUP1 PUSH4 0xE4877D6 EQ PUSH2 0x75 JUMPI DUP1 PUSH4 0x107046BD EQ PUSH2 0x9F JUMPI DUP1 PUSH4 0x3E7E12A6 EQ PUSH2 0xDF JUMPI DUP1 PUSH4 0x6C563ABE EQ PUSH2 0x107 JUMPI JUMPDEST PUSH0 PUSH0 REVERT JUMPDEST CALLVALUE DUP1 ISZERO PUSH2 0x58 JUMPI PUSH0 PUSH0 REVERT JUMPDEST POP PUSH2 0x73 PUSH1 0x4 DUP1 CALLDATASIZE SUB DUP2 ADD SWAP1 PUSH2 0x6E SWAP2 SWAP1 PUSH2 0xC6D JUMP JUMPDEST PUSH2 0x123 JUMP JUMPDEST STOP JUMPDEST CALLVALUE DUP1 ISZERO PUSH2 0x80 JUMPI PUSH0 PUSH0 REVERT JUMPDEST POP PUSH2 0x89 PUSH2 0x46B JUMP JUMPDEST PUSH1 0x40 MLOAD PUSH2 0x96 SWAP2 SWAP1 PUSH2 0xCD7 JUMP JUMPDEST PUSH1 0x40 MLOAD DUP1 SWAP2 SUB SWAP1 RETURN JUMPDEST CALLVALUE DUP1 ISZERO PUSH2 0xAA JUMPI PUSH0 PUSH0 REVERT JUMPDEST POP PUSH2 0xC5 PUSH1 0x4 DUP1 CALLDATASIZE SUB DUP2 ADD SWAP1 PUSH2 0xC0 SWAP2 SWAP1 PUSH2 0xC6D JUMP JUMPDEST PUSH2 0x48F JUMP JUMPDEST PUSH1 0x40 MLOAD PUSH2 0xD6 SWAP6 SWAP5 SWAP4 SWAP3 SWAP2 SWAP1 PUSH2 0xD89 JUMP JUMPDEST PUSH1 0x40 MLOAD DUP1 SWAP2 SUB SWAP1 RETURN JUMPDEST CALLVALUE DUP1 ISZERO PUSH2 0xEA JUMPI PUSH0 PUSH0 REVERT JUMPDEST POP PUSH2 0x105 PUSH1 0x4 DUP1 CALLDATASIZE SUB DUP2 ADD SWAP1 PUSH2 0x100 SWAP2 SWAP1 PUSH2 0x1022 JUMP JUMPDEST PUSH2 0x581 JUMP JUMPDEST STOP JUMPDEST PUSH2 0x121 PUSH1 0x4 DUP1 CALLDATASIZE SUB DUP2 ADD SWAP1 PUSH2 0x11C SWAP2 SWAP1 PUSH2 0xC6D JUMP JUMPDEST PUSH2 0x7AC JUMP JUMPDEST STOP JUMPDEST PUSH0 PUSH1 0x1 DUP3 DUP2 SLOAD DUP2 LT PUSH2 0x138 JUMPI PUSH2 0x137 PUSH2 0x1098 JUMP JUMPDEST JUMPDEST SWAP1 PUSH0 MSTORE PUSH1 0x20 PUSH0 KECCAK256 SWAP1 PUSH1 0x6 MUL ADD SWAP1 POP PUSH0 DUP2 PUSH1 0x4 ADD DUP3 PUSH1 0x3 ADD SLOAD DUP2 SLOAD DUP2 LT PUSH2 0x161 JUMPI PUSH2 0x160 PUSH2 0x1098 JUMP JUMPDEST JUMPDEST SWAP1 PUSH0 MSTORE PUSH1 0x20 PUSH0 KECCAK256 SWAP1 PUSH1 0x6 MUL ADD SWAP1 POP DUP2 PUSH1 0x5 ADD PUSH0 SWAP1 SLOAD SWAP1 PUSH2 0x100 EXP SWAP1 DIV PUSH1 0xFF AND PUSH2 0x1BF JUMPI PUSH1 0x40 MLOAD PUSH32 0x8C379A000000000000000000000000000000000000000000000000000000000 DUP2 MSTORE PUSH1 0x4 ADD PUSH2 0x1B6 SWAP1 PUSH2 0x110F JUMP JUMPDEST PUSH1 0x40 MLOAD DUP1 SWAP2 SUB SWAP1 REVERT JUMPDEST DUP1 PUSH1 0x5 ADD PUSH0 SWAP1 SLOAD SWAP1 PUSH2 0x100 EXP SWAP1 DIV PUSH1 0xFF AND ISZERO PUSH2 0x210 JUMPI PUSH1 0x40 MLOAD PUSH32 0x8C379A000000000000000000000000000000000000000000000000000000000 DUP2 MSTORE PUSH1 0x4 ADD PUSH2 0x207 SWAP1 PUSH2 0x1177 JUMP JUMPDEST PUSH1 0x40 MLOAD DUP1 SWAP2 SUB SWAP1 REVERT JUMPDEST DUP1 PUSH0 ADD PUSH1 0x1 ADD SLOAD TIMESTAMP LT ISZERO PUSH2 0x259 JUMPI PUSH1 0x40 MLOAD PUSH32 0x8C379A000000000000000000000000000000000000000000000000000000000 DUP2 MSTORE PUSH1 0x4 ADD PUSH2 0x250 SWAP1 PUSH2 0x11DF JUMP JUMPDEST PUSH1 0x40 MLOAD DUP1 SWAP2 SUB SWAP1 REVERT JUMPDEST DUP1 PUSH0 ADD PUSH0 ADD SLOAD DUP2 PUSH1 0x2 ADD SLOAD LT PUSH2 0x40F JUMPI PUSH1 0x1 DUP2 PUSH1 0x5 ADD PUSH0 PUSH2 0x100 EXP DUP2 SLOAD DUP2 PUSH1 0xFF MUL NOT AND SWAP1 DUP4 ISZERO ISZERO MUL OR SWAP1 SSTORE POP PUSH0 DUP3 PUSH0 ADD PUSH0 SWAP1 SLOAD SWAP1 PUSH2 0x100 EXP SWAP1 DIV PUSH20 0xFFFFFFFFFFFFFFFFFFFFFFFFFFFFFFFFFFFFFFFF AND PUSH20 0xFFFFFFFFFFFFFFFFFFFFFFFFFFFFFFFFFFFFFFFF AND DUP3 PUSH1 0x2 ADD SLOAD PUSH1 0x40 MLOAD PUSH2 0x2D0 SWAP1 PUSH2 0x122A JUMP JUMPDEST PUSH0 PUSH1 0x40 MLOAD DUP1 DUP4 SUB DUP2 DUP6 DUP8 GAS CALL SWAP3 POP POP POP RETURNDATASIZE DUP1 PUSH0 DUP2 EQ PUSH2 0x30A JUMPI PUSH1 0x40 MLOAD SWAP2 POP PUSH1 0x1F NOT PUSH1 0x3F RETURNDATASIZE ADD AND DUP3 ADD PUSH1 0x40 MSTORE RETURNDATASIZE DUP3 MSTORE RETURNDATASIZE PUSH0 PUSH1 0x20 DUP5 ADD RETURNDATACOPY PUSH2 0x30F JUMP JUMPDEST PUSH1 0x60 SWAP2 POP JUMPDEST POP POP SWAP1 POP DUP1 PUSH2 0x353 JUMPI PUSH1 0x40 MLOAD PUSH32 0x8C379A000000000000000000000000000000000000000000000000000000000 DUP2 MSTORE PUSH1 0x4 ADD PUSH2 0x34A SWAP1 PUSH2 0x1288 JUMP JUMPDEST PUSH1 0x40 MLOAD DUP1 SWAP2 SUB SWAP1 REVERT JUMPDEST PUSH1 0x1 DUP4 PUSH1 0x4 ADD DUP1 SLOAD SWAP1 POP PUSH2 0x367 SWAP2 SWAP1 PUSH2 0x12D3 JUMP JUMPDEST DUP4 PUSH1 0x3 ADD SLOAD LT ISZERO PUSH2 0x3ED JUMPI PUSH1 0x1 DUP3 PUSH1 0x5 ADD PUSH0 PUSH2 0x100 EXP DUP2 SLOAD DUP2 PUSH1 0xFF MUL NOT AND SWAP1 DUP4 ISZERO ISZERO MUL OR SWAP1 SSTORE POP DUP3 PUSH1 0x3 ADD PUSH0 DUP2 SLOAD DUP1 SWAP3 SWAP2 SWAP1 PUSH2 0x3A2 SWAP1 PUSH2 0x1306 JUMP JUMPDEST SWAP2 SWAP1 POP SSTORE POP DUP3 PUSH1 0x3 ADD SLOAD DUP5 PUSH32 0x98AB122F98189D797B82CA33344809354AE082E584FFF378C4F9DABA149698C6 DUP5 PUSH1 0x2 ADD SLOAD PUSH1 0x40 MLOAD PUSH2 0x3E0 SWAP2 SWAP1 PUSH2 0x134D JUMP JUMPDEST PUSH1 0x40 MLOAD DUP1 SWAP2 SUB SWAP1 LOG3 PUSH2 0x409 JUMP JUMPDEST PUSH0 DUP4 PUSH1 0x5 ADD PUSH0 PUSH2 0x100 EXP DUP2 SLOAD DUP2 PUSH1 0xFF MUL NOT AND SWAP1 DUP4 ISZERO ISZERO MUL OR SWAP1 SSTORE POP JUMPDEST POP PUSH2 0x466 JUMP JUMPDEST PUSH0 DUP3 PUSH1 0x5 ADD PUSH0 PUSH2 0x100 EXP DUP2 SLOAD DUP2 PUSH1 0xFF MUL NOT AND SWAP1 DUP4 ISZERO ISZERO MUL OR SWAP1 SSTORE POP PUSH2 0x438 DUP4 DUP4 PUSH1 0x3 ADD SLOAD PUSH2 0xA01 JUMP JUMPDEST DUP3 PUSH32 0xE3805ED669490875AE87C5C8B1AD6ECCA0E5E67305A833926D0D4317C4822FC0 PUSH1 0x40 MLOAD PUSH1 0x40 MLOAD DUP1 SWAP2 SUB SWAP1 LOG2 JUMPDEST POP POP POP JUMP JUMPDEST PUSH0 PUSH0 SWAP1 SLOAD SWAP1 PUSH2 0x100 EXP SWAP1 DIV PUSH20 0xFFFFFFFFFFFFFFFFFFFFFFFFFFFFFFFFFFFFFFFF AND DUP2 JUMP JUMPDEST PUSH1 0x1 DUP2 DUP2 SLOAD DUP2 LT PUSH2 0x49E JUMPI PUSH0 DUP1 REVERT JUMPDEST SWAP1 PUSH0 MSTORE PUSH1 0x20 PUSH0 KECCAK256 SWAP1 PUSH1 0x6 MUL ADD PUSH0 SWAP2 POP SWAP1 POP DUP1 PUSH0 ADD PUSH0 SWAP1 SLOAD SWAP1 PUSH2 0x100 EXP SWAP1 DIV PUSH20 0xFFFFFFFFFFFFFFFFFFFFFFFFFFFFFFFFFFFFFFFF AND SWAP1 DUP1 PUSH1 0x1 ADD DUP1 SLOAD PUSH2 0x4E2 SWAP1 PUSH2 0x1393 JUMP JUMPDEST DUP1 PUSH1 0x1F ADD PUSH1 0x20 DUP1 SWAP2 DIV MUL PUSH1 0x20 ADD PUSH1 0x40 MLOAD SWAP1 DUP2 ADD PUSH1 0x40 MSTORE DUP1 SWAP3 SWAP2 SWAP1 DUP2 DUP2 MSTORE PUSH1 0x20 ADD DUP3 DUP1 SLOAD PUSH2 0x50E SWAP1 PUSH2 0x1393 JUMP JUMPDEST DUP1 ISZERO PUSH2 0x559 JUMPI DUP1 PUSH1 0x1F LT PUSH2 0x530 JUMPI PUSH2 0x100 DUP1 DUP4 SLOAD DIV MUL DUP4 MSTORE SWAP2 PUSH1 0x20 ADD SWAP2 PUSH2 0x559 JUMP JUMPDEST DUP3 ADD SWAP2 SWAP1 PUSH0 MSTORE PUSH1 0x20 PUSH0 KECCAK256 SWAP1 JUMPDEST DUP2 SLOAD DUP2 MSTORE SWAP1 PUSH1 0x1 ADD SWAP1 PUSH1 0x20 ADD DUP1 DUP4 GT PUSH2 0x53C JUMPI DUP3 SWAP1 SUB PUSH1 0x1F AND DUP3 ADD SWAP2 JUMPDEST POP POP POP POP POP SWAP1 DUP1 PUSH1 0x2 ADD SLOAD SWAP1 DUP1 PUSH1 0x3 ADD SLOAD SWAP1 DUP1 PUSH1 0x5 ADD PUSH0 SWAP1 SLOAD SWAP1 PUSH2 0x100 EXP SWAP1 DIV PUSH1 0xFF AND SWAP1 POP DUP6 JUMP JUMPDEST PUSH0 PUSH0 SWAP1 SLOAD SWAP1 PUSH2 0x100 EXP SWAP1 DIV PUSH20 0xFFFFFFFFFFFFFFFFFFFFFFFFFFFFFFFFFFFFFFFF AND PUSH20 0xFFFFFFFFFFFFFFFFFFFFFFFFFFFFFFFFFFFFFFFF AND CALLER PUSH20 0xFFFFFFFFFFFFFFFFFFFFFFFFFFFFFFFFFFFFFFFF AND SUB PUSH2 0x60F JUMPI PUSH1 0x40 MLOAD PUSH32 0x8C379A000000000000000000000000000000000000000000000000000000000 DUP2 MSTORE PUSH1 0x4 ADD PUSH2 0x606 SWAP1 PUSH2 0x1433 JUMP JUMPDEST PUSH1 0x40 MLOAD DUP1 SWAP2 SUB SWAP1 REVERT JUMPDEST PUSH0 DUP2 MLOAD GT PUSH2 0x652 JUMPI PUSH1 0x40 MLOAD PUSH32 0x8C379A000000000000000000000000000000000000000000000000000000000 DUP2 MSTORE PUSH1 0x4 ADD PUSH2 0x649 SWAP1 PUSH2 0x149B JUMP JUMPDEST PUSH1 0x40 MLOAD DUP1 SWAP2 SUB SWAP1 REVERT JUMPDEST PUSH0 PUSH1 0x1 DUP1 DUP2 PUSH1 0x1 DUP2 SLOAD ADD DUP1 DUP3 SSTORE DUP1 SWAP2 POP POP SUB SWAP1 PUSH0 MSTORE PUSH1 0x20 PUSH0 KECCAK256 SWAP1 PUSH1 0x6 MUL ADD SWAP1 POP CALLER DUP2 PUSH0 ADD PUSH0 PUSH2 0x100 EXP DUP2 SLOAD DUP2 PUSH20 0xFFFFFFFFFFFFFFFFFFFFFFFFFFFFFFFFFFFFFFFF MUL NOT AND SWAP1 DUP4 PUSH20 0xFFFFFFFFFFFFFFFFFFFFFFFFFFFFFFFFFFFFFFFF AND MUL OR SWAP1 SSTORE POP DUP3 DUP2 PUSH1 0x1 ADD SWAP1 DUP2 PUSH2 0x6C4 SWAP2 SWAP1 PUSH2 0x1659 JUMP JUMPDEST POP PUSH0 DUP2 PUSH1 0x2 ADD DUP2 SWAP1 SSTORE POP PUSH0 DUP2 PUSH1 0x3 ADD DUP2 SWAP1 SSTORE POP PUSH1 0x1 DUP2 PUSH1 0x5 ADD PUSH0 PUSH2 0x100 EXP DUP2 SLOAD DUP2 PUSH1 0xFF MUL NOT AND SWAP1 DUP4 ISZERO ISZERO MUL OR SWAP1 SSTORE POP PUSH0 PUSH0 SWAP1 POP JUMPDEST DUP3 MLOAD DUP2 LT ISZERO PUSH2 0x7A6 JUMPI PUSH0 DUP3 PUSH1 0x4 ADD PUSH1 0x1 DUP2 PUSH1 0x1 DUP2 SLOAD ADD DUP1 DUP3 SSTORE DUP1 SWAP2 POP POP SUB SWAP1 PUSH0 MSTORE PUSH1 0x20 PUSH0 KECCAK256 SWAP1 PUSH1 0x6 MUL ADD SWAP1 POP DUP4 DUP3 DUP2 MLOAD DUP2 LT PUSH2 0x737 JUMPI PUSH2 0x736 PUSH2 0x1098 JUMP JUMPDEST JUMPDEST PUSH1 0x20 MUL PUSH1 0x20 ADD ADD MLOAD PUSH0 ADD MLOAD DUP2 PUSH0 ADD PUSH0 ADD DUP2 SWAP1 SSTORE POP DUP4 DUP3 DUP2 MLOAD DUP2 LT PUSH2 0x75E JUMPI PUSH2 0x75D PUSH2 0x1098 JUMP JUMPDEST JUMPDEST PUSH1 0x20 MUL PUSH1 0x20 ADD ADD MLOAD PUSH1 0x20 ADD MLOAD DUP2 PUSH0 ADD PUSH1 0x1 ADD DUP2 SWAP1 SSTORE POP PUSH0 DUP2 PUSH1 0x2 ADD DUP2 SWAP1 SSTORE POP PUSH0 DUP2 PUSH1 0x5 ADD PUSH0 PUSH2 0x100 EXP DUP2 SLOAD DUP2 PUSH1 0xFF MUL NOT AND SWAP1 DUP4 ISZERO ISZERO MUL OR SWAP1 SSTORE POP POP DUP1 DUP1 PUSH1 0x1 ADD SWAP2 POP POP PUSH2 0x6F8 JUMP JUMPDEST POP POP POP POP JUMP JUMPDEST PUSH1 0x1 DUP1 SLOAD SWAP1 POP DUP2 LT PUSH2 0x7F3 JUMPI PUSH1 0x40 MLOAD PUSH32 0x8C379A000000000000000000000000000000000000000000000000000000000 DUP2 MSTORE PUSH1 0x4 ADD PUSH2 0x7EA SWAP1 PUSH2 0x1772 JUMP JUMPDEST PUSH1 0x40 MLOAD DUP1 SWAP2 SUB SWAP1 REVERT JUMPDEST CALLER PUSH20 0xFFFFFFFFFFFFFFFFFFFFFFFFFFFFFFFFFFFFFFFF AND BALANCE CALLVALUE GT ISZERO PUSH2 0x84D JUMPI PUSH1 0x40 MLOAD PUSH32 0x8C379A000000000000000000000000000000000000000000000000000000000 DUP2 MSTORE PUSH1 0x4 ADD PUSH2 0x844 SWAP1 PUSH2 0x1800 JUMP JUMPDEST PUSH1 0x40 MLOAD DUP1 SWAP2 SUB SWAP1 REVERT JUMPDEST PUSH0 CALLVALUE GT PUSH2 0x88F JUMPI PUSH1 0x40 MLOAD PUSH32 0x8C379A000000000000000000000000000000000000000000000000000000000 DUP2 MSTORE PUSH1 0x4 ADD PUSH2 0x886 SWAP1 PUSH2 0x1868 JUMP JUMPDEST PUSH1 0x40 MLOAD DUP1 SWAP2 SUB SWAP1 REVERT JUMPDEST PUSH0 PUSH1 0x1 DUP3 DUP2 SLOAD DUP2 LT PUSH2 0x8A4 JUMPI PUSH2 0x8A3 PUSH2 0x1098 JUMP JUMPDEST JUMPDEST SWAP1 PUSH0 MSTORE PUSH1 0x20 PUSH0 KECCAK256 SWAP1 PUSH1 0x6 MUL ADD SWAP1 POP DUP1 PUSH1 0x5 ADD PUSH0 SWAP1 SLOAD SWAP1 PUSH2 0x100 EXP SWAP1 DIV PUSH1 0xFF AND PUSH2 0x902 JUMPI PUSH1 0x40 MLOAD PUSH32 0x8C379A000000000000000000000000000000000000000000000000000000000 DUP2 MSTORE PUSH1 0x4 ADD PUSH2 0x8F9 SWAP1 PUSH2 0x18D0 JUMP JUMPDEST PUSH1 0x40 MLOAD DUP1 SWAP2 SUB SWAP1 REVERT JUMPDEST PUSH0 DUP2 PUSH1 0x4 ADD DUP3 PUSH1 0x3 ADD SLOAD DUP2 SLOAD DUP2 LT PUSH2 0x91D JUMPI PUSH2 0x91C PUSH2 0x1098 JUMP JUMPDEST JUMPDEST SWAP1 PUSH0 MSTORE PUSH1 0x20 PUSH0 KECCAK256 SWAP1 PUSH1 0x6 MUL ADD SWAP1 POP TIMESTAMP DUP2 PUSH0 ADD PUSH1 0x1 ADD SLOAD LT PUSH2 0x973 JUMPI PUSH1 0x40 MLOAD PUSH32 0x8C379A000000000000000000000000000000000000000000000000000000000 DUP2 MSTORE PUSH1 0x4 ADD PUSH2 0x96A SWAP1 PUSH2 0x1938 JUMP JUMPDEST PUSH1 0x40 MLOAD DUP1 SWAP2 SUB SWAP1 REVERT JUMPDEST CALLVALUE DUP2 PUSH1 0x4 ADD PUSH0 CALLER PUSH20 0xFFFFFFFFFFFFFFFFFFFFFFFFFFFFFFFFFFFFFFFF AND PUSH20 0xFFFFFFFFFFFFFFFFFFFFFFFFFFFFFFFFFFFFFFFF AND DUP2 MSTORE PUSH1 0x20 ADD SWAP1 DUP2 MSTORE PUSH1 0x20 ADD PUSH0 KECCAK256 PUSH0 DUP3 DUP3 SLOAD PUSH2 0x9C1 SWAP2 SWAP1 PUSH2 0x1956 JUMP JUMPDEST SWAP3 POP POP DUP2 SWAP1 SSTORE POP CALLVALUE DUP2 PUSH1 0x2 ADD PUSH0 DUP3 DUP3 SLOAD PUSH2 0x9DB SWAP2 SWAP1 PUSH2 0x1956 JUMP JUMPDEST SWAP3 POP POP DUP2 SWAP1 SSTORE POP CALLVALUE DUP3 PUSH1 0x2 ADD PUSH0 DUP3 DUP3 SLOAD PUSH2 0x9F5 SWAP2 SWAP1 PUSH2 0x1956 JUMP JUMPDEST SWAP3 POP POP DUP2 SWAP1 SSTORE POP POP POP POP JUMP JUMPDEST PUSH0 PUSH1 0x1 DUP4 DUP2 SLOAD DUP2 LT PUSH2 0xA16 JUMPI PUSH2 0xA15 PUSH2 0x1098 JUMP JUMPDEST JUMPDEST SWAP1 PUSH0 MSTORE PUSH1 0x20 PUSH0 KECCAK256 SWAP1 PUSH1 0x6 MUL ADD SWAP1 POP PUSH0 DUP2 PUSH1 0x4 ADD DUP4 DUP2 SLOAD DUP2 LT PUSH2 0xA3B JUMPI PUSH2 0xA3A PUSH2 0x1098 JUMP JUMPDEST JUMPDEST SWAP1 PUSH0 MSTORE PUSH1 0x20 PUSH0 KECCAK256 SWAP1 PUSH1 0x6 MUL ADD SWAP1 POP PUSH0 PUSH0 SWAP1 POP JUMPDEST DUP2 PUSH1 0x3 ADD DUP1 SLOAD SWAP1 POP DUP2 LT ISZERO PUSH2 0xBE6 JUMPI PUSH0 DUP3 PUSH1 0x3 ADD DUP3 DUP2 SLOAD DUP2 LT PUSH2 0xA74 JUMPI PUSH2 0xA73 PUSH2 0x1098 JUMP JUMPDEST JUMPDEST SWAP1 PUSH0 MSTORE PUSH1 0x20 PUSH0 KECCAK256 ADD PUSH0 SWAP1 SLOAD SWAP1 PUSH2 0x100 EXP SWAP1 DIV PUSH20 0xFFFFFFFFFFFFFFFFFFFFFFFFFFFFFFFFFFFFFFFF AND SWAP1 POP PUSH0 DUP4 PUSH1 0x4 ADD PUSH0 DUP4 PUSH20 0xFFFFFFFFFFFFFFFFFFFFFFFFFFFFFFFFFFFFFFFF AND PUSH20 0xFFFFFFFFFFFFFFFFFFFFFFFFFFFFFFFFFFFFFFFF AND DUP2 MSTORE PUSH1 0x20 ADD SWAP1 DUP2 MSTORE PUSH1 0x20 ADD PUSH0 KECCAK256 SLOAD SWAP1 POP PUSH0 DUP2 GT ISZERO PUSH2 0xBD7 JUMPI PUSH0 DUP5 PUSH1 0x4 ADD PUSH0 DUP5 PUSH20 0xFFFFFFFFFFFFFFFFFFFFFFFFFFFFFFFFFFFFFFFF AND PUSH20 0xFFFFFFFFFFFFFFFFFFFFFFFFFFFFFFFFFFFFFFFF AND DUP2 MSTORE PUSH1 0x20 ADD SWAP1 DUP2 MSTORE PUSH1 0x20 ADD PUSH0 KECCAK256 DUP2 SWAP1 SSTORE POP PUSH0 DUP3 PUSH20 0xFFFFFFFFFFFFFFFFFFFFFFFFFFFFFFFFFFFFFFFF AND DUP3 PUSH1 0x40 MLOAD PUSH2 0xB52 SWAP1 PUSH2 0x122A JUMP JUMPDEST PUSH0 PUSH1 0x40 MLOAD DUP1 DUP4 SUB DUP2 DUP6 DUP8 GAS CALL SWAP3 POP POP POP RETURNDATASIZE DUP1 PUSH0 DUP2 EQ PUSH2 0xB8C JUMPI PUSH1 0x40 MLOAD SWAP2 POP PUSH1 0x1F NOT PUSH1 0x3F RETURNDATASIZE ADD AND DUP3 ADD PUSH1 0x40 MSTORE RETURNDATASIZE DUP3 MSTORE RETURNDATASIZE PUSH0 PUSH1 0x20 DUP5 ADD RETURNDATACOPY PUSH2 0xB91 JUMP JUMPDEST PUSH1 0x60 SWAP2 POP JUMPDEST POP POP SWAP1 POP DUP1 PUSH2 0xBD5 JUMPI PUSH1 0x40 MLOAD PUSH32 0x8C379A000000000000000000000000000000000000000000000000000000000 DUP2 MSTORE PUSH1 0x4 ADD PUSH2 0xBCC SWAP1 PUSH2 0x19D3 JUMP JUMPDEST PUSH1 0x40 MLOAD DUP1 SWAP2 SUB SWAP1 REVERT JUMPDEST POP JUMPDEST POP POP DUP1 DUP1 PUSH1 0x1 ADD SWAP2 POP POP PUSH2 0xA4E JUMP JUMPDEST POP DUP3 DUP5 PUSH32 0x84BB845D12F485AAADCF32D6BC01B9D43865C73FC739029DAEAF884752C0E238 DUP4 PUSH1 0x3 ADD PUSH1 0x40 MLOAD PUSH2 0xC1B SWAP2 SWAP1 PUSH2 0x1B07 JUMP JUMPDEST PUSH1 0x40 MLOAD DUP1 SWAP2 SUB SWAP1 LOG3 POP POP POP POP JUMP JUMPDEST PUSH0 PUSH1 0x40 MLOAD SWAP1 POP SWAP1 JUMP JUMPDEST PUSH0 PUSH0 REVERT JUMPDEST PUSH0 PUSH0 REVERT JUMPDEST PUSH0 DUP2 SWAP1 POP SWAP2 SWAP1 POP JUMP JUMPDEST PUSH2 0xC4C DUP2 PUSH2 0xC3A JUMP JUMPDEST DUP2 EQ PUSH2 0xC56 JUMPI PUSH0 PUSH0 REVERT JUMPDEST POP JUMP JUMPDEST PUSH0 DUP2 CALLDATALOAD SWAP1 POP PUSH2 0xC67 DUP2 PUSH2 0xC43 JUMP JUMPDEST SWAP3 SWAP2 POP POP JUMP JUMPDEST PUSH0 PUSH1 0x20 DUP3 DUP5 SUB SLT ISZERO PUSH2 0xC82 JUMPI PUSH2 0xC81 PUSH2 0xC32 JUMP JUMPDEST JUMPDEST PUSH0 PUSH2 0xC8F DUP5 DUP3 DUP6 ADD PUSH2 0xC59 JUMP JUMPDEST SWAP2 POP POP SWAP3 SWAP2 POP POP JUMP JUMPDEST PUSH0 PUSH20 0xFFFFFFFFFFFFFFFFFFFFFFFFFFFFFFFFFFFFFFFF DUP3 AND SWAP1 POP SWAP2 SWAP1 POP JUMP JUMPDEST PUSH0 PUSH2 0xCC1 DUP3 PUSH2 0xC98 JUMP JUMPDEST SWAP1 POP SWAP2 SWAP1 POP JUMP JUMPDEST PUSH2 0xCD1 DUP2 PUSH2 0xCB7 JUMP JUMPDEST DUP3 MSTORE POP POP JUMP JUMPDEST PUSH0 PUSH1 0x20 DUP3 ADD SWAP1 POP PUSH2 0xCEA PUSH0 DUP4 ADD DUP5 PUSH2 0xCC8 JUMP JUMPDEST SWAP3 SWAP2 POP POP JUMP JUMPDEST PUSH0 DUP2 MLOAD SWAP1 POP SWAP2 SWAP1 POP JUMP JUMPDEST PUSH0 DUP3 DUP3 MSTORE PUSH1 0x20 DUP3 ADD SWAP1 POP SWAP3 SWAP2 POP POP JUMP JUMPDEST DUP3 DUP2 DUP4 MCOPY PUSH0 DUP4 DUP4 ADD MSTORE POP POP POP JUMP JUMPDEST PUSH0 PUSH1 0x1F NOT PUSH1 0x1F DUP4 ADD AND SWAP1 POP SWAP2 SWAP1 POP JUMP JUMPDEST PUSH0 PUSH2 0xD32 DUP3 PUSH2 0xCF0 JUMP JUMPDEST PUSH2 0xD3C DUP2 DUP6 PUSH2 0xCFA JUMP JUMPDEST SWAP4 POP PUSH2 0xD4C DUP2 DUP6 PUSH1 0x20 DUP7 ADD PUSH2 0xD0A JUMP JUMPDEST PUSH2 0xD55 DUP2 PUSH2 0xD18 JUMP JUMPDEST DUP5 ADD SWAP2 POP POP SWAP3 SWAP2 POP POP JUMP JUMPDEST PUSH2 0xD69 DUP2 PUSH2 0xC3A JUMP JUMPDEST DUP3 MSTORE POP POP JUMP JUMPDEST PUSH0 DUP2 ISZERO ISZERO SWAP1 POP SWAP2 SWAP1 POP JUMP JUMPDEST PUSH2 0xD83 DUP2 PUSH2 0xD6F JUMP JUMPDEST DUP3 MSTORE POP POP JUMP JUMPDEST PUSH0 PUSH1 0xA0 DUP3 ADD SWAP1 POP PUSH2 0xD9C PUSH0 DUP4 ADD DUP9 PUSH2 0xCC8 JUMP JUMPDEST DUP2 DUP2 SUB PUSH1 0x20 DUP4 ADD MSTORE PUSH2 0xDAE DUP2 DUP8 PUSH2 0xD28 JUMP JUMPDEST SWAP1 POP PUSH2 0xDBD PUSH1 0x40 DUP4 ADD DUP7 PUSH2 0xD60 JUMP JUMPDEST PUSH2 0xDCA PUSH1 0x60 DUP4 ADD DUP6 PUSH2 0xD60 JUMP JUMPDEST PUSH2 0xDD7 PUSH1 0x80 DUP4 ADD DUP5 PUSH2 0xD7A JUMP JUMPDEST SWAP7 SWAP6 POP POP POP POP POP POP JUMP JUMPDEST PUSH0 PUSH0 REVERT JUMPDEST PUSH0 PUSH0 REVERT JUMPDEST PUSH32 0x4E487B7100000000000000000000000000000000000000000000000000000000 PUSH0 MSTORE PUSH1 0x41 PUSH1 0x4 MSTORE PUSH1 0x24 PUSH0 REVERT JUMPDEST PUSH2 0xE1F DUP3 PUSH2 0xD18 JUMP JUMPDEST DUP2 ADD DUP2 DUP2 LT PUSH8 0xFFFFFFFFFFFFFFFF DUP3 GT OR ISZERO PUSH2 0xE3E JUMPI PUSH2 0xE3D PUSH2 0xDE9 JUMP JUMPDEST JUMPDEST DUP1 PUSH1 0x40 MSTORE POP POP POP JUMP JUMPDEST PUSH0 PUSH2 0xE50 PUSH2 0xC29 JUMP JUMPDEST SWAP1 POP PUSH2 0xE5C DUP3 DUP3 PUSH2 0xE16 JUMP JUMPDEST SWAP2 SWAP1 POP JUMP JUMPDEST PUSH0 PUSH8 0xFFFFFFFFFFFFFFFF DUP3 GT ISZERO PUSH2 0xE7B JUMPI PUSH2 0xE7A PUSH2 0xDE9 JUMP JUMPDEST JUMPDEST PUSH2 0xE84 DUP3 PUSH2 0xD18 JUMP JUMPDEST SWAP1 POP PUSH1 0x20 DUP2 ADD SWAP1 POP SWAP2 SWAP1 POP JUMP JUMPDEST DUP3 DUP2 DUP4 CALLDATACOPY PUSH0 DUP4 DUP4 ADD MSTORE POP POP POP JUMP JUMPDEST PUSH0 PUSH2 0xEB1 PUSH2 0xEAC DUP5 PUSH2 0xE61 JUMP JUMPDEST PUSH2 0xE47 JUMP JUMPDEST SWAP1 POP DUP3 DUP2 MSTORE PUSH1 0x20 DUP2 ADD DUP5 DUP5 DUP5 ADD GT ISZERO PUSH2 0xECD JUMPI PUSH2 0xECC PUSH2 0xDE5 JUMP JUMPDEST JUMPDEST PUSH2 0xED8 DUP5 DUP3 DUP6 PUSH2 0xE91 JUMP JUMPDEST POP SWAP4 SWAP3 POP POP POP JUMP JUMPDEST PUSH0 DUP3 PUSH1 0x1F DUP4 ADD SLT PUSH2 0xEF4 JUMPI PUSH2 0xEF3 PUSH2 0xDE1 JUMP JUMPDEST JUMPDEST DUP2 CALLDATALOAD PUSH2 0xF04 DUP5 DUP3 PUSH1 0x20 DUP7 ADD PUSH2 0xE9F JUMP JUMPDEST SWAP2 POP POP SWAP3 SWAP2 POP POP JUMP JUMPDEST PUSH0 PUSH8 0xFFFFFFFFFFFFFFFF DUP3 GT ISZERO PUSH2 0xF27 JUMPI PUSH2 0xF26 PUSH2 0xDE9 JUMP JUMPDEST JUMPDEST PUSH1 0x20 DUP3 MUL SWAP1 POP PUSH1 0x20 DUP2 ADD SWAP1 POP SWAP2 SWAP1 POP JUMP JUMPDEST PUSH0 PUSH0 REVERT JUMPDEST PUSH0 PUSH0 REVERT JUMPDEST PUSH0 PUSH1 0x40 DUP3 DUP5 SUB SLT ISZERO PUSH2 0xF55 JUMPI PUSH2 0xF54 PUSH2 0xF3C JUMP JUMPDEST JUMPDEST PUSH2 0xF5F PUSH1 0x40 PUSH2 0xE47 JUMP JUMPDEST SWAP1 POP PUSH0 PUSH2 0xF6E DUP5 DUP3 DUP6 ADD PUSH2 0xC59 JUMP JUMPDEST PUSH0 DUP4 ADD MSTORE POP PUSH1 0x20 PUSH2 0xF81 DUP5 DUP3 DUP6 ADD PUSH2 0xC59 JUMP JUMPDEST PUSH1 0x20 DUP4 ADD MSTORE POP SWAP3 SWAP2 POP POP JUMP JUMPDEST PUSH0 PUSH2 0xF9F PUSH2 0xF9A DUP5 PUSH2 0xF0D JUMP JUMPDEST PUSH2 0xE47 JUMP JUMPDEST SWAP1 POP DUP1 DUP4 DUP3 MSTORE PUSH1 0x20 DUP3 ADD SWAP1 POP PUSH1 0x40 DUP5 MUL DUP4 ADD DUP6 DUP2 GT ISZERO PUSH2 0xFC2 JUMPI PUSH2 0xFC1 PUSH2 0xF38 JUMP JUMPDEST JUMPDEST DUP4 JUMPDEST DUP2 DUP2 LT ISZERO PUSH2 0xFEB JUMPI DUP1 PUSH2 0xFD7 DUP9 DUP3 PUSH2 0xF40 JUMP JUMPDEST DUP5 MSTORE PUSH1 0x20 DUP5 ADD SWAP4 POP POP PUSH1 0x40 DUP2 ADD SWAP1 POP PUSH2 0xFC4 JUMP JUMPDEST POP POP POP SWAP4 SWAP3 POP POP POP JUMP JUMPDEST PUSH0 DUP3 PUSH1 0x1F DUP4 ADD SLT PUSH2 0x1009 JUMPI PUSH2 0x1008 PUSH2 0xDE1 JUMP JUMPDEST JUMPDEST DUP2 CALLDATALOAD PUSH2 0x1019 DUP5 DUP3 PUSH1 0x20 DUP7 ADD PUSH2 0xF8D JUMP JUMPDEST SWAP2 POP POP SWAP3 SWAP2 POP POP JUMP JUMPDEST PUSH0 PUSH0 PUSH1 0x40 DUP4 DUP6 SUB SLT ISZERO PUSH2 0x1038 JUMPI PUSH2 0x1037 PUSH2 0xC32 JUMP JUMPDEST JUMPDEST PUSH0 DUP4 ADD CALLDATALOAD PUSH8 0xFFFFFFFFFFFFFFFF DUP2 GT ISZERO PUSH2 0x1055 JUMPI PUSH2 0x1054 PUSH2 0xC36 JUMP JUMPDEST JUMPDEST PUSH2 0x1061 DUP6 DUP3 DUP7 ADD PUSH2 0xEE0 JUMP JUMPDEST SWAP3 POP POP PUSH1 0x20 DUP4 ADD CALLDATALOAD PUSH8 0xFFFFFFFFFFFFFFFF DUP2 GT ISZERO PUSH2 0x1082 JUMPI PUSH2 0x1081 PUSH2 0xC36 JUMP JUMPDEST JUMPDEST PUSH2 0x108E DUP6 DUP3 DUP7 ADD PUSH2 0xFF5 JUMP JUMPDEST SWAP2 POP POP SWAP3 POP SWAP3 SWAP1 POP JUMP JUMPDEST PUSH32 0x4E487B7100000000000000000000000000000000000000000000000000000000 PUSH0 MSTORE PUSH1 0x32 PUSH1 0x4 MSTORE PUSH1 0x24 PUSH0 REVERT JUMPDEST PUSH32 0x50726F6A656374206D7573742062652061637469766500000000000000000000 PUSH0 DUP3 ADD MSTORE POP JUMP JUMPDEST PUSH0 PUSH2 0x10F9 PUSH1 0x16 DUP4 PUSH2 0xCFA JUMP JUMPDEST SWAP2 POP PUSH2 0x1104 DUP3 PUSH2 0x10C5 JUMP JUMPDEST PUSH1 0x20 DUP3 ADD SWAP1 POP SWAP2 SWAP1 POP JUMP JUMPDEST PUSH0 PUSH1 0x20 DUP3 ADD SWAP1 POP DUP2 DUP2 SUB PUSH0 DUP4 ADD MSTORE PUSH2 0x1126 DUP2 PUSH2 0x10ED JUMP JUMPDEST SWAP1 POP SWAP2 SWAP1 POP JUMP JUMPDEST PUSH32 0x4D696C6573746F6E652073686F756C64206265206E6F74207265616368656400 PUSH0 DUP3 ADD MSTORE POP JUMP JUMPDEST PUSH0 PUSH2 0x1161 PUSH1 0x1F DUP4 PUSH2 0xCFA JUMP JUMPDEST SWAP2 POP PUSH2 0x116C DUP3 PUSH2 0x112D JUMP JUMPDEST PUSH1 0x20 DUP3 ADD SWAP1 POP SWAP2 SWAP1 POP JUMP JUMPDEST PUSH0 PUSH1 0x20 DUP3 ADD SWAP1 POP DUP2 DUP2 SUB PUSH0 DUP4 ADD MSTORE PUSH2 0x118E DUP2 PUSH2 0x1155 JUMP JUMPDEST SWAP1 POP SWAP2 SWAP1 POP JUMP JUMPDEST PUSH32 0x43616E206F6E6C79206368656B636B206166746572206D696C6573746F6E6500 PUSH0 DUP3 ADD MSTORE POP JUMP JUMPDEST PUSH0 PUSH2 0x11C9 PUSH1 0x1F DUP4 PUSH2 0xCFA JUMP JUMPDEST SWAP2 POP PUSH2 0x11D4 DUP3 PUSH2 0x1195 JUMP JUMPDEST PUSH1 0x20 DUP3 ADD SWAP1 POP SWAP2 SWAP1 POP JUMP JUMPDEST PUSH0 PUSH1 0x20 DUP3 ADD SWAP1 POP DUP2 DUP2 SUB PUSH0 DUP4 ADD MSTORE PUSH2 0x11F6 DUP2 PUSH2 0x11BD JUMP JUMPDEST SWAP1 POP SWAP2 SWAP1 POP JUMP JUMPDEST PUSH0 DUP2 SWAP1 POP SWAP3 SWAP2 POP POP JUMP JUMPDEST POP JUMP JUMPDEST PUSH0 PUSH2 0x1215 PUSH0 DUP4 PUSH2 0x11FD JUMP JUMPDEST SWAP2 POP PUSH2 0x1220 DUP3 PUSH2 0x1207 JUMP JUMPDEST PUSH0 DUP3 ADD SWAP1 POP SWAP2 SWAP1 POP JUMP JUMPDEST PUSH0 PUSH2 0x1234 DUP3 PUSH2 0x120A JUMP JUMPDEST SWAP2 POP DUP2 SWAP1 POP SWAP2 SWAP1 POP JUMP JUMPDEST PUSH32 0x5472616E7366657220746F2063726561746F72206661696C6564000000000000 PUSH0 DUP3 ADD MSTORE POP JUMP JUMPDEST PUSH0 PUSH2 0x1272 PUSH1 0x1A DUP4 PUSH2 0xCFA JUMP JUMPDEST SWAP2 POP PUSH2 0x127D DUP3 PUSH2 0x123E JUMP JUMPDEST PUSH1 0x20 DUP3 ADD SWAP1 POP SWAP2 SWAP1 POP JUMP JUMPDEST PUSH0 PUSH1 0x20 DUP3 ADD SWAP1 POP DUP2 DUP2 SUB PUSH0 DUP4 ADD MSTORE PUSH2 0x129F DUP2 PUSH2 0x1266 JUMP JUMPDEST SWAP1 POP SWAP2 SWAP1 POP JUMP JUMPDEST PUSH32 0x4E487B7100000000000000000000000000000000000000000000000000000000 PUSH0 MSTORE PUSH1 0x11 PUSH1 0x4 MSTORE PUSH1 0x24 PUSH0 REVERT JUMPDEST PUSH0 PUSH2 0x12DD DUP3 PUSH2 0xC3A JUMP JUMPDEST SWAP2 POP PUSH2 0x12E8 DUP4 PUSH2 0xC3A JUMP JUMPDEST SWAP3 POP DUP3 DUP3 SUB SWAP1 POP DUP2 DUP2 GT ISZERO PUSH2 0x1300 JUMPI PUSH2 0x12FF PUSH2 0x12A6 JUMP JUMPDEST JUMPDEST SWAP3 SWAP2 POP POP JUMP JUMPDEST PUSH0 PUSH2 0x1310 DUP3 PUSH2 0xC3A JUMP JUMPDEST SWAP2 POP PUSH32 0xFFFFFFFFFFFFFFFFFFFFFFFFFFFFFFFFFFFFFFFFFFFFFFFFFFFFFFFFFFFFFFFF DUP3 SUB PUSH2 0x1342 JUMPI PUSH2 0x1341 PUSH2 0x12A6 JUMP JUMPDEST JUMPDEST PUSH1 0x1 DUP3 ADD SWAP1 POP SWAP2 SWAP1 POP JUMP JUMPDEST PUSH0 PUSH1 0x20 DUP3 ADD SWAP1 POP PUSH2 0x1360 PUSH0 DUP4 ADD DUP5 PUSH2 0xD60 JUMP JUMPDEST SWAP3 SWAP2 POP POP JUMP JUMPDEST PUSH32 0x4E487B7100000000000000000000000000000000000000000000000000000000 PUSH0 MSTORE PUSH1 0x22 PUSH1 0x4 MSTORE PUSH1 0x24 PUSH0 REVERT JUMPDEST PUSH0 PUSH1 0x2 DUP3 DIV SWAP1 POP PUSH1 0x1 DUP3 AND DUP1 PUSH2 0x13AA JUMPI PUSH1 0x7F DUP3 AND SWAP2 POP JUMPDEST PUSH1 0x20 DUP3 LT DUP2 SUB PUSH2 0x13BD JUMPI PUSH2 0x13BC PUSH2 0x1366 JUMP JUMPDEST JUMPDEST POP SWAP2 SWAP1 POP JUMP JUMPDEST PUSH32 0x53797374656D206F776E65722063616E2774206372656174652070726F6A6563 PUSH0 DUP3 ADD MSTORE PUSH32 0x7473000000000000000000000000000000000000000000000000000000000000 PUSH1 0x20 DUP3 ADD MSTORE POP JUMP JUMPDEST PUSH0 PUSH2 0x141D PUSH1 0x22 DUP4 PUSH2 0xCFA JUMP JUMPDEST SWAP2 POP PUSH2 0x1428 DUP3 PUSH2 0x13C3 JUMP JUMPDEST PUSH1 0x40 DUP3 ADD SWAP1 POP SWAP2 SWAP1 POP JUMP JUMPDEST PUSH0 PUSH1 0x20 DUP3 ADD SWAP1 POP DUP2 DUP2 SUB PUSH0 DUP4 ADD MSTORE PUSH2 0x144A DUP2 PUSH2 0x1411 JUMP JUMPDEST SWAP1 POP SWAP2 SWAP1 POP JUMP JUMPDEST PUSH32 0x4D7573742068617665206174206C65617374206F6E65206D696C6573746F6E65 PUSH0 DUP3 ADD MSTORE POP JUMP JUMPDEST PUSH0 PUSH2 0x1485 PUSH1 0x20 DUP4 PUSH2 0xCFA JUMP JUMPDEST SWAP2 POP PUSH2 0x1490 DUP3 PUSH2 0x1451 JUMP JUMPDEST PUSH1 0x20 DUP3 ADD SWAP1 POP SWAP2 SWAP1 POP JUMP JUMPDEST PUSH0 PUSH1 0x20 DUP3 ADD SWAP1 POP DUP2 DUP2 SUB PUSH0 DUP4 ADD MSTORE PUSH2 0x14B2 DUP2 PUSH2 0x1479 JUMP JUMPDEST SWAP1 POP SWAP2 SWAP1 POP JUMP JUMPDEST PUSH0 DUP2 SWAP1 POP DUP2 PUSH0 MSTORE PUSH1 0x20 PUSH0 KECCAK256 SWAP1 POP SWAP2 SWAP1 POP JUMP JUMPDEST PUSH0 PUSH1 0x20 PUSH1 0x1F DUP4 ADD DIV SWAP1 POP SWAP2 SWAP1 POP JUMP JUMPDEST PUSH0 DUP3 DUP3 SHL SWAP1 POP SWAP3 SWAP2 POP POP JUMP JUMPDEST PUSH0 PUSH1 0x8 DUP4 MUL PUSH2 0x1515 PUSH32 0xFFFFFFFFFFFFFFFFFFFFFFFFFFFFFFFFFFFFFFFFFFFFFFFFFFFFFFFFFFFFFFFF DUP3 PUSH2 0x14DA JUMP JUMPDEST PUSH2 0x151F DUP7 DUP4 PUSH2 0x14DA JUMP JUMPDEST SWAP6 POP DUP1 NOT DUP5 AND SWAP4 POP DUP1 DUP7 AND DUP5 OR SWAP3 POP POP POP SWAP4 SWAP3 POP POP POP JUMP JUMPDEST PUSH0 DUP2 SWAP1 POP SWAP2 SWAP1 POP JUMP JUMPDEST PUSH0 PUSH2 0x155A PUSH2 0x1555 PUSH2 0x1550 DUP5 PUSH2 0xC3A JUMP JUMPDEST PUSH2 0x1537 JUMP JUMPDEST PUSH2 0xC3A JUMP JUMPDEST SWAP1 POP SWAP2 SWAP1 POP JUMP JUMPDEST PUSH0 DUP2 SWAP1 POP SWAP2 SWAP1 POP JUMP JUMPDEST PUSH2 0x1573 DUP4 PUSH2 0x1540 JUMP JUMPDEST PUSH2 0x1587 PUSH2 0x157F DUP3 PUSH2 0x1561 JUMP JUMPDEST DUP5 DUP5 SLOAD PUSH2 0x14E6 JUMP JUMPDEST DUP3 SSTORE POP POP POP POP JUMP JUMPDEST PUSH0 PUSH0 SWAP1 POP SWAP1 JUMP JUMPDEST PUSH2 0x159E PUSH2 0x158F JUMP JUMPDEST PUSH2 0x15A9 DUP2 DUP5 DUP5 PUSH2 0x156A JUMP JUMPDEST POP POP POP JUMP JUMPDEST JUMPDEST DUP2 DUP2 LT ISZERO PUSH2 0x15CC JUMPI PUSH2 0x15C1 PUSH0 DUP3 PUSH2 0x1596 JUMP JUMPDEST PUSH1 0x1 DUP2 ADD SWAP1 POP PUSH2 0x15AF JUMP JUMPDEST POP POP JUMP JUMPDEST PUSH1 0x1F DUP3 GT ISZERO PUSH2 0x1611 JUMPI PUSH2 0x15E2 DUP2 PUSH2 0x14B9 JUMP JUMPDEST PUSH2 0x15EB DUP5 PUSH2 0x14CB JUMP JUMPDEST DUP2 ADD PUSH1 0x20 DUP6 LT ISZERO PUSH2 0x15FA JUMPI DUP2 SWAP1 POP JUMPDEST PUSH2 0x160E PUSH2 0x1606 DUP6 PUSH2 0x14CB JUMP JUMPDEST DUP4 ADD DUP3 PUSH2 0x15AE JUMP JUMPDEST POP POP JUMPDEST POP POP POP JUMP JUMPDEST PUSH0 DUP3 DUP3 SHR SWAP1 POP SWAP3 SWAP2 POP POP JUMP JUMPDEST PUSH0 PUSH2 0x1631 PUSH0 NOT DUP5 PUSH1 0x8 MUL PUSH2 0x1616 JUMP JUMPDEST NOT DUP1 DUP4 AND SWAP2 POP POP SWAP3 SWAP2 POP POP JUMP JUMPDEST PUSH0 PUSH2 0x1649 DUP4 DUP4 PUSH2 0x1622 JUMP JUMPDEST SWAP2 POP DUP3 PUSH1 0x2 MUL DUP3 OR SWAP1 POP SWAP3 SWAP2 POP POP JUMP JUMPDEST PUSH2 0x1662 DUP3 PUSH2 0xCF0 JUMP JUMPDEST PUSH8 0xFFFFFFFFFFFFFFFF DUP2 GT ISZERO PUSH2 0x167B JUMPI PUSH2 0x167A PUSH2 0xDE9 JUMP JUMPDEST JUMPDEST PUSH2 0x1685 DUP3 SLOAD PUSH2 0x1393 JUMP JUMPDEST PUSH2 0x1690 DUP3 DUP3 DUP6 PUSH2 0x15D0 JUMP JUMPDEST PUSH0 PUSH1 0x20 SWAP1 POP PUSH1 0x1F DUP4 GT PUSH1 0x1 DUP2 EQ PUSH2 0x16C1 JUMPI PUSH0 DUP5 ISZERO PUSH2 0x16AF JUMPI DUP3 DUP8 ADD MLOAD SWAP1 POP JUMPDEST PUSH2 0x16B9 DUP6 DUP3 PUSH2 0x163E JUMP JUMPDEST DUP7 SSTORE POP PUSH2 0x1720 JUMP JUMPDEST PUSH1 0x1F NOT DUP5 AND PUSH2 0x16CF DUP7 PUSH2 0x14B9 JUMP JUMPDEST PUSH0 JUMPDEST DUP3 DUP2 LT ISZERO PUSH2 0x16F6 JUMPI DUP5 DUP10 ADD MLOAD DUP3 SSTORE PUSH1 0x1 DUP3 ADD SWAP2 POP PUSH1 0x20 DUP6 ADD SWAP5 POP PUSH1 0x20 DUP2 ADD SWAP1 POP PUSH2 0x16D1 JUMP JUMPDEST DUP7 DUP4 LT ISZERO PUSH2 0x1713 JUMPI DUP5 DUP10 ADD MLOAD PUSH2 0x170F PUSH1 0x1F DUP10 AND DUP3 PUSH2 0x1622 JUMP JUMPDEST DUP4 SSTORE POP JUMPDEST PUSH1 0x1 PUSH1 0x2 DUP9 MUL ADD DUP9 SSTORE POP POP POP JUMPDEST POP POP POP POP POP POP JUMP JUMPDEST PUSH32 0x50726F6A65637420646F65736E27742065786973740000000000000000000000 PUSH0 DUP3 ADD MSTORE POP JUMP JUMPDEST PUSH0 PUSH2 0x175C PUSH1 0x15 DUP4 PUSH2 0xCFA JUMP JUMPDEST SWAP2 POP PUSH2 0x1767 DUP3 PUSH2 0x1728 JUMP JUMPDEST PUSH1 0x20 DUP3 ADD SWAP1 POP SWAP2 SWAP1 POP JUMP JUMPDEST PUSH0 PUSH1 0x20 DUP3 ADD SWAP1 POP DUP2 DUP2 SUB PUSH0 DUP4 ADD MSTORE PUSH2 0x1789 DUP2 PUSH2 0x1750 JUMP JUMPDEST SWAP1 POP SWAP2 SWAP1 POP JUMP JUMPDEST PUSH32 0x596F7520646F6E74206861766520656E6F756768206D6F6E657920746F206675 PUSH0 DUP3 ADD MSTORE PUSH32 0x6E64000000000000000000000000000000000000000000000000000000000000 PUSH1 0x20 DUP3 ADD MSTORE POP JUMP JUMPDEST PUSH0 PUSH2 0x17EA PUSH1 0x22 DUP4 PUSH2 0xCFA JUMP JUMPDEST SWAP2 POP PUSH2 0x17F5 DUP3 PUSH2 0x1790 JUMP JUMPDEST PUSH1 0x40 DUP3 ADD SWAP1 POP SWAP2 SWAP1 POP JUMP JUMPDEST PUSH0 PUSH1 0x20 DUP3 ADD SWAP1 POP DUP2 DUP2 SUB PUSH0 DUP4 ADD MSTORE PUSH2 0x1817 DUP2 PUSH2 0x17DE JUMP JUMPDEST SWAP1 POP SWAP2 SWAP1 POP JUMP JUMPDEST PUSH32 0x46756E6420616D6F756E742063616E2774206265203000000000000000000000 PUSH0 DUP3 ADD MSTORE POP JUMP JUMPDEST PUSH0 PUSH2 0x1852 PUSH1 0x16 DUP4 PUSH2 0xCFA JUMP JUMPDEST SWAP2 POP PUSH2 0x185D DUP3 PUSH2 0x181E JUMP JUMPDEST PUSH1 0x20 DUP3 ADD SWAP1 POP SWAP2 SWAP1 POP JUMP JUMPDEST PUSH0 PUSH1 0x20 DUP3 ADD SWAP1 POP DUP2 DUP2 SUB PUSH0 DUP4 ADD MSTORE PUSH2 0x187F DUP2 PUSH2 0x1846 JUMP JUMPDEST SWAP1 POP SWAP2 SWAP1 POP JUMP JUMPDEST PUSH32 0x50726F6A656374206D7573742062652061637469766520746F2066756E640000 PUSH0 DUP3 ADD MSTORE POP JUMP JUMPDEST PUSH0 PUSH2 0x18BA PUSH1 0x1E DUP4 PUSH2 0xCFA JUMP JUMPDEST SWAP2 POP PUSH2 0x18C5 DUP3 PUSH2 0x1886 JUMP JUMPDEST PUSH1 0x20 DUP3 ADD SWAP1 POP SWAP2 SWAP1 POP JUMP JUMPDEST PUSH0 PUSH1 0x20 DUP3 ADD SWAP1 POP DUP2 DUP2 SUB PUSH0 DUP4 ADD MSTORE PUSH2 0x18E7 DUP2 PUSH2 0x18AE JUMP JUMPDEST SWAP1 POP SWAP2 SWAP1 POP JUMP JUMPDEST PUSH32 0x596F752063616E27742066756E6420616674657220646561646C696E65000000 PUSH0 DUP3 ADD MSTORE POP JUMP JUMPDEST PUSH0 PUSH2 0x1922 PUSH1 0x1D DUP4 PUSH2 0xCFA JUMP JUMPDEST SWAP2 POP PUSH2 0x192D DUP3 PUSH2 0x18EE JUMP JUMPDEST PUSH1 0x20 DUP3 ADD SWAP1 POP SWAP2 SWAP1 POP JUMP JUMPDEST PUSH0 PUSH1 0x20 DUP3 ADD SWAP1 POP DUP2 DUP2 SUB PUSH0 DUP4 ADD MSTORE PUSH2 0x194F DUP2 PUSH2 0x1916 JUMP JUMPDEST SWAP1 POP SWAP2 SWAP1 POP JUMP JUMPDEST PUSH0 PUSH2 0x1960 DUP3 PUSH2 0xC3A JUMP JUMPDEST SWAP2 POP PUSH2 0x196B DUP4 PUSH2 0xC3A JUMP JUMPDEST SWAP3 POP DUP3 DUP3 ADD SWAP1 POP DUP1 DUP3 GT ISZERO PUSH2 0x1983 JUMPI PUSH2 0x1982 PUSH2 0x12A6 JUMP JUMPDEST JUMPDEST SWAP3 SWAP2 POP POP JUMP JUMPDEST PUSH32 0x526566756E64206661696C656400000000000000000000000000000000000000 PUSH0 DUP3 ADD MSTORE POP JUMP JUMPDEST PUSH0 PUSH2 0x19BD PUSH1 0xD DUP4 PUSH2 0xCFA JUMP JUMPDEST SWAP2 POP PUSH2 0x19C8 DUP3 PUSH2 0x1989 JUMP JUMPDEST PUSH1 0x20 DUP3 ADD SWAP1 POP SWAP2 SWAP1 POP JUMP JUMPDEST PUSH0 PUSH1 0x20 DUP3 ADD SWAP1 POP DUP2 DUP2 SUB PUSH0 DUP4 ADD MSTORE PUSH2 0x19EA DUP2 PUSH2 0x19B1 JUMP JUMPDEST SWAP1 POP SWAP2 SWAP1 POP JUMP JUMPDEST PUSH0 DUP2 SLOAD SWAP1 POP SWAP2 SWAP1 POP JUMP JUMPDEST PUSH0 DUP3 DUP3 MSTORE PUSH1 0x20 DUP3 ADD SWAP1 POP SWAP3 SWAP2 POP POP JUMP JUMPDEST PUSH0 DUP2 SWAP1 POP DUP2 PUSH0 MSTORE PUSH1 0x20 PUSH0 KECCAK256 SWAP1 POP SWAP2 SWAP1 POP JUMP JUMPDEST PUSH2 0x1A26 DUP2 PUSH2 0xCB7 JUMP JUMPDEST DUP3 MSTORE POP POP JUMP JUMPDEST PUSH0 PUSH2 0x1A37 DUP4 DUP4 PUSH2 0x1A1D JUMP JUMPDEST PUSH1 0x20 DUP4 ADD SWAP1 POP SWAP3 SWAP2 POP POP JUMP JUMPDEST PUSH0 DUP2 PUSH0 SHR SWAP1 POP SWAP2 SWAP1 POP JUMP JUMPDEST PUSH0 PUSH20 0xFFFFFFFFFFFFFFFFFFFFFFFFFFFFFFFFFFFFFFFF DUP3 AND SWAP1 POP SWAP2 SWAP1 POP JUMP JUMPDEST PUSH0 PUSH2 0x1A7F PUSH2 0x1A7A DUP4 PUSH2 0x1A43 JUMP JUMPDEST PUSH2 0x1A4E JUMP JUMPDEST SWAP1 POP SWAP2 SWAP1 POP JUMP JUMPDEST PUSH0 PUSH2 0x1A91 DUP3 SLOAD PUSH2 0x1A6D JUMP JUMPDEST SWAP1 POP SWAP2 SWAP1 POP JUMP JUMPDEST PUSH0 PUSH1 0x1 DUP3 ADD SWAP1 POP SWAP2 SWAP1 POP JUMP JUMPDEST PUSH0 PUSH2 0x1AAE DUP3 PUSH2 0x19F1 JUMP JUMPDEST PUSH2 0x1AB8 DUP2 DUP6 PUSH2 0x19FB JUMP JUMPDEST SWAP4 POP PUSH2 0x1AC3 DUP4 PUSH2 0x1A0B JUMP JUMPDEST DUP1 PUSH0 JUMPDEST DUP4 DUP2 LT ISZERO PUSH2 0x1AFA JUMPI PUSH2 0x1AD7 DUP3 PUSH2 0x1A86 JUMP JUMPDEST PUSH2 0x1AE1 DUP9 DUP3 PUSH2 0x1A2C JUMP JUMPDEST SWAP8 POP PUSH2 0x1AEC DUP4 PUSH2 0x1A98 JUMP JUMPDEST SWAP3 POP POP PUSH1 0x1 DUP2 ADD SWAP1 POP PUSH2 0x1AC6 JUMP JUMPDEST POP DUP6 SWAP4 POP POP POP POP SWAP3 SWAP2 POP POP JUMP JUMPDEST PUSH0 PUSH1 0x20 DUP3 ADD SWAP1 POP DUP2 DUP2 SUB PUSH0 DUP4 ADD MSTORE PUSH2 0x1B1F DUP2 DUP5 PUSH2 0x1AA4 JUMP JUMPDEST SWAP1 POP SWAP3 SWAP2 POP POP JUMP INVALID LOG2 PUSH5 0x6970667358 0x22 SLT KECCAK256 PUSH19 0x7B8BA0C1FDEA22F242EECC6DF005C96563FBAF 0x25 0xBB DUP9 SMOD EXTSTATICCALL 0xC9 PUSH3 0x4BD1AA PUSH10 0x5464736F6C634300081E STOP CALLER "
				},
				"gasEstimates": {
					"creation": {
						"codeDepositCost": "1401000",
						"executionCost": "25720",
						"totalCost": "1426720"
					},
					"external": {
						"checkMilestone(uint256)": "infinite",
						"createProject(string,(uint256,uint256)[])": "infinite",
						"fundProject(uint256)": "infinite",
						"projects(uint256)": "infinite",
						"sysOwner()": "2507"
					},
					"internal": {
						"refundMilestone(uint256,uint256)": "infinite"
					}
				},
				"methodIdentifiers": {
					"checkMilestone(uint256)": "08e38af9",
					"createProject(string,(uint256,uint256)[])": "3e7e12a6",
					"fundProject(uint256)": "6c563abe",
					"projects(uint256)": "107046bd",
					"sysOwner()": "0e4877d6"
				}
			},
			"storageLayout": {
				"storage": [
					{
						"astId": 59,
						"contract": "contracts/CrowdSourcing.sol:CrowdSourcing",
						"label": "sysOwner",
						"offset": 0,
						"slot": "0",
						"type": "t_address"
					},
					{
						"astId": 63,
						"contract": "contracts/CrowdSourcing.sol:CrowdSourcing",
						"label": "projects",
						"offset": 0,
						"slot": "1",
						"type": "t_array(t_struct(Project)16_storage)dyn_storage"
					}
				],
				"types": {
					"t_address": {
						"encoding": "inplace",
						"label": "address",
						"numberOfBytes": "20"
					},
					"t_array(t_address)dyn_storage": {
						"base": "t_address",
						"encoding": "dynamic_array",
						"label": "address[]",
						"numberOfBytes": "32"
					},
					"t_array(t_struct(Milestone)31_storage)dyn_storage": {
						"base": "t_struct(Milestone)31_storage",
						"encoding": "dynamic_array",
						"label": "struct Milestone[]",
						"numberOfBytes": "32"
					},
					"t_array(t_struct(Project)16_storage)dyn_storage": {
						"base": "t_struct(Project)16_storage",
						"encoding": "dynamic_array",
						"label": "struct Project[]",
						"numberOfBytes": "32"
					},
					"t_bool": {
						"encoding": "inplace",
						"label": "bool",
						"numberOfBytes": "1"
					},
					"t_mapping(t_address,t_uint256)": {
						"encoding": "mapping",
						"key": "t_address",
						"label": "mapping(address => uint256)",
						"numberOfBytes": "32",
						"value": "t_uint256"
					},
					"t_string_storage": {
						"encoding": "bytes",
						"label": "string",
						"numberOfBytes": "32"
					},
					"t_struct(Milestone)31_storage": {
						"encoding": "inplace",
						"label": "struct Milestone",
						"members": [
							{
								"astId": 19,
								"contract": "contracts/CrowdSourcing.sol:CrowdSourcing",
								"label": "info",
								"offset": 0,
								"slot": "0",
								"type": "t_struct(MilestoneInfo)36_storage"
							},
							{
								"astId": 21,
								"contract": "contracts/CrowdSourcing.sol:CrowdSourcing",
								"label": "totalFunded",
								"offset": 0,
								"slot": "2",
								"type": "t_uint256"
							},
							{
								"astId": 24,
								"contract": "contracts/CrowdSourcing.sol:CrowdSourcing",
								"label": "funderAddresses",
								"offset": 0,
								"slot": "3",
								"type": "t_array(t_address)dyn_storage"
							},
							{
								"astId": 28,
								"contract": "contracts/CrowdSourcing.sol:CrowdSourcing",
								"label": "funders",
								"offset": 0,
								"slot": "4",
								"type": "t_mapping(t_address,t_uint256)"
							},
							{
								"astId": 30,
								"contract": "contracts/CrowdSourcing.sol:CrowdSourcing",
								"label": "reached",
								"offset": 0,
								"slot": "5",
								"type": "t_bool"
							}
						],
						"numberOfBytes": "192"
					},
					"t_struct(MilestoneInfo)36_storage": {
						"encoding": "inplace",
						"label": "struct MilestoneInfo",
						"members": [
							{
								"astId": 33,
								"contract": "contracts/CrowdSourcing.sol:CrowdSourcing",
								"label": "goalAmount",
								"offset": 0,
								"slot": "0",
								"type": "t_uint256"
							},
							{
								"astId": 35,
								"contract": "contracts/CrowdSourcing.sol:CrowdSourcing",
								"label": "deadline",
								"offset": 0,
								"slot": "1",
								"type": "t_uint256"
							}
						],
						"numberOfBytes": "64"
					},
					"t_struct(Project)16_storage": {
						"encoding": "inplace",
						"label": "struct Project",
						"members": [
							{
								"astId": 3,
								"contract": "contracts/CrowdSourcing.sol:CrowdSourcing",
								"label": "creator",
								"offset": 0,
								"slot": "0",
								"type": "t_address"
							},
							{
								"astId": 5,
								"contract": "contracts/CrowdSourcing.sol:CrowdSourcing",
								"label": "name",
								"offset": 0,
								"slot": "1",
								"type": "t_string_storage"
							},
							{
								"astId": 7,
								"contract": "contracts/CrowdSourcing.sol:CrowdSourcing",
								"label": "totalFunded",
								"offset": 0,
								"slot": "2",
								"type": "t_uint256"
							},
							{
								"astId": 9,
								"contract": "contracts/CrowdSourcing.sol:CrowdSourcing",
								"label": "currentMilestoneIndex",
								"offset": 0,
								"slot": "3",
								"type": "t_uint256"
							},
							{
								"astId": 13,
								"contract": "contracts/CrowdSourcing.sol:CrowdSourcing",
								"label": "milestones",
								"offset": 0,
								"slot": "4",
								"type": "t_array(t_struct(Milestone)31_storage)dyn_storage"
							},
							{
								"astId": 15,
								"contract": "contracts/CrowdSourcing.sol:CrowdSourcing",
								"label": "isActive",
								"offset": 0,
								"slot": "5",
								"type": "t_bool"
							}
						],
						"numberOfBytes": "192"
					},
					"t_uint256": {
						"encoding": "inplace",
						"label": "uint256",
						"numberOfBytes": "32"
					}
				}
			},
			"userdoc": {
				"kind": "user",
				"methods": {},
				"version": 1
			}
		}
	}
}