{
	"contracts/CrowdSourcing.sol": {
		"CrowdSourcing": {
			"abi": [
				{
					"inputs": [],
					"stateMutability": "nonpayable",
					"type": "constructor"
				},
				{
					"anonymous": false,
					"inputs": [
						{
							"indexed": false,
							"internalType": "uint256",
							"name": "deadline",
							"type": "uint256"
						},
						{
							"indexed": false,
							"internalType": "uint256",
							"name": "goalAmount",
							"type": "uint256"
						},
						{
							"indexed": false,
							"internalType": "uint256",
							"name": "totalFunded",
							"type": "uint256"
						},
						{
							"indexed": false,
							"internalType": "uint256",
							"name": "currentMileStoneTotalFunded",
							"type": "uint256"
						}
					],
					"name": "CurrentMilestoneStatus",
					"type": "event"
				},
				{
					"anonymous": false,
					"inputs": [
						{
							"indexed": false,
							"internalType": "uint256",
							"name": "projectIndex",
							"type": "uint256"
						}
					],
					"name": "ProjectCreated",
					"type": "event"
				},
				{
					"anonymous": false,
					"inputs": [
						{
							"indexed": false,
							"internalType": "uint256",
							"name": "projectIndex",
							"type": "uint256"
						},
						{
							"indexed": false,
							"internalType": "uint256",
							"name": "amount",
							"type": "uint256"
						},
						{
							"indexed": false,
							"internalType": "uint256",
							"name": "totalFunded",
							"type": "uint256"
						},
						{
							"indexed": false,
							"internalType": "uint256",
							"name": "currentMilestoneTotalFunded",
							"type": "uint256"
						}
					],
					"name": "ProjectFunded",
					"type": "event"
				},
				{
					"inputs": [
						{
							"internalType": "uint256",
							"name": "projectIndex",
							"type": "uint256"
						},
						{
							"components": [
								{
									"internalType": "uint256",
									"name": "goalAmount",
									"type": "uint256"
								},
								{
									"internalType": "uint256",
									"name": "deadline",
									"type": "uint256"
								}
							],
							"internalType": "struct MilestoneInfo[]",
							"name": "milestones",
							"type": "tuple[]"
						}
					],
					"name": "addNewMilestones",
					"outputs": [],
					"stateMutability": "nonpayable",
					"type": "function"
				},
				{
					"inputs": [
						{
							"internalType": "uint256",
							"name": "projectIndex",
							"type": "uint256"
						}
					],
					"name": "checkCurrentMilestone",
					"outputs": [],
					"stateMutability": "nonpayable",
					"type": "function"
				},
				{
					"inputs": [
						{
							"internalType": "string",
							"name": "name",
							"type": "string"
						},
						{
							"internalType": "string",
							"name": "headerImageUrl",
							"type": "string"
						},
						{
							"internalType": "string",
							"name": "description",
							"type": "string"
						},
						{
							"components": [
								{
									"internalType": "uint256",
									"name": "goalAmount",
									"type": "uint256"
								},
								{
									"internalType": "uint256",
									"name": "deadline",
									"type": "uint256"
								}
							],
							"internalType": "struct MilestoneInfo[]",
							"name": "milestones",
							"type": "tuple[]"
						}
					],
					"name": "createProject",
					"outputs": [],
					"stateMutability": "nonpayable",
					"type": "function"
				},
				{
					"inputs": [],
					"name": "deactivateProjectsWithExpiredDeadlines",
					"outputs": [],
					"stateMutability": "nonpayable",
					"type": "function"
				},
				{
					"inputs": [
						{
							"internalType": "uint256",
							"name": "projectIndex",
							"type": "uint256"
						}
					],
					"name": "fundProject",
					"outputs": [],
					"stateMutability": "payable",
					"type": "function"
				},
				{
					"inputs": [],
					"name": "getAllActiveProjects",
					"outputs": [
						{
							"components": [
								{
									"internalType": "address",
									"name": "creator",
									"type": "address"
								},
								{
									"internalType": "string",
									"name": "name",
									"type": "string"
								},
								{
									"internalType": "string",
									"name": "headerImageUrl",
									"type": "string"
								},
								{
									"internalType": "string",
									"name": "description",
									"type": "string"
								},
								{
									"internalType": "uint256",
									"name": "totalFunded",
									"type": "uint256"
								},
								{
									"internalType": "uint256",
									"name": "currentMilestoneIndex",
									"type": "uint256"
								},
								{
									"internalType": "bool",
									"name": "isActive",
									"type": "bool"
								}
							],
							"internalType": "struct ProjectView[]",
							"name": "",
							"type": "tuple[]"
						}
					],
					"stateMutability": "view",
					"type": "function"
				},
				{
					"inputs": [
						{
							"internalType": "uint256",
							"name": "projectIndex",
							"type": "uint256"
						}
					],
					"name": "getCurrentMilestoneFunders",
					"outputs": [
						{
							"internalType": "address[]",
							"name": "",
							"type": "address[]"
						}
					],
					"stateMutability": "view",
					"type": "function"
				},
				{
					"inputs": [
						{
							"internalType": "uint256",
							"name": "projectIndex",
							"type": "uint256"
						}
					],
					"name": "getCurrentMilestoneInfo",
					"outputs": [
						{
							"components": [
								{
									"internalType": "uint256",
									"name": "goalAmount",
									"type": "uint256"
								},
								{
									"internalType": "uint256",
									"name": "deadline",
									"type": "uint256"
								}
							],
							"internalType": "struct MilestoneInfo",
							"name": "",
							"type": "tuple"
						}
					],
					"stateMutability": "view",
					"type": "function"
				},
				{
					"inputs": [
						{
							"internalType": "uint256",
							"name": "projectIndex",
							"type": "uint256"
						}
					],
					"name": "getallMilestonesInfo",
					"outputs": [
						{
							"components": [
								{
									"internalType": "uint256",
									"name": "goalAmount",
									"type": "uint256"
								},
								{
									"internalType": "uint256",
									"name": "deadline",
									"type": "uint256"
								}
							],
							"internalType": "struct MilestoneInfo[]",
							"name": "",
							"type": "tuple[]"
						}
					],
					"stateMutability": "view",
					"type": "function"
				},
				{
					"inputs": [
						{
							"internalType": "uint256",
							"name": "",
							"type": "uint256"
						}
					],
					"name": "projects",
					"outputs": [
						{
							"internalType": "address",
							"name": "creator",
							"type": "address"
						},
						{
							"internalType": "string",
							"name": "name",
							"type": "string"
						},
						{
							"internalType": "string",
							"name": "headerImageUrl",
							"type": "string"
						},
						{
							"internalType": "string",
							"name": "description",
							"type": "string"
						},
						{
							"internalType": "uint256",
							"name": "totalFunded",
							"type": "uint256"
						},
						{
							"internalType": "uint256",
							"name": "currentMilestoneIndex",
							"type": "uint256"
						},
						{
							"internalType": "bool",
							"name": "isActive",
							"type": "bool"
						}
					],
					"stateMutability": "view",
					"type": "function"
				},
				{
					"inputs": [
						{
							"internalType": "uint256",
							"name": "projectIndex",
							"type": "uint256"
						}
					],
					"name": "stopProject",
					"outputs": [],
					"stateMutability": "nonpayable",
					"type": "function"
				},
				{
					"inputs": [],
					"name": "sysOwner",
					"outputs": [
						{
							"internalType": "address",
							"name": "",
							"type": "address"
						}
					],
					"stateMutability": "view",
					"type": "function"
				}
			],
			"devdoc": {
				"kind": "dev",
				"methods": {},
				"version": 1
			},
			"evm": {
				"assembly": "    /* \"contracts/CrowdSourcing.sol\":1835:13512  contract CrowdSourcing {... */\n  mstore(0x40, 0x80)\n    /* \"contracts/CrowdSourcing.sol\":2298:2352  constructor() {... */\n  callvalue\n  dup1\n  iszero\n  tag_1\n  jumpi\n  revert(0x00, 0x00)\ntag_1:\n  pop\n    /* \"contracts/CrowdSourcing.sol\":2334:2344  msg.sender */\n  caller\n    /* \"contracts/CrowdSourcing.sol\":2323:2331  sysOwner */\n  0x00\n  0x00\n    /* \"contracts/CrowdSourcing.sol\":2323:2344  sysOwner = msg.sender */\n  0x0100\n  exp\n  dup2\n  sload\n  dup2\n  0xffffffffffffffffffffffffffffffffffffffff\n  mul\n  not\n  and\n  swap1\n  dup4\n  0xffffffffffffffffffffffffffffffffffffffff\n  and\n  mul\n  or\n  swap1\n  sstore\n  pop\n    /* \"contracts/CrowdSourcing.sol\":1835:13512  contract CrowdSourcing {... */\n  dataSize(sub_0)\n  dup1\n  dataOffset(sub_0)\n  0x00\n  codecopy\n  0x00\n  return\nstop\n\nsub_0: assembly {\n        /* \"contracts/CrowdSourcing.sol\":1835:13512  contract CrowdSourcing {... */\n      mstore(0x40, 0x80)\n      jumpi(tag_1, lt(calldatasize, 0x04))\n      shr(0xe0, calldataload(0x00))\n      dup1\n      0x6db7a960\n      gt\n      tag_14\n      jumpi\n      dup1\n      0x6db7a960\n      eq\n      tag_8\n      jumpi\n      dup1\n      0x7808de38\n      eq\n      tag_9\n      jumpi\n      dup1\n      0xae632181\n      eq\n      tag_10\n      jumpi\n      dup1\n      0xb99122af\n      eq\n      tag_11\n      jumpi\n      dup1\n      0xd8a5b36d\n      eq\n      tag_12\n      jumpi\n      dup1\n      0xf2ef441b\n      eq\n      tag_13\n      jumpi\n      jump(tag_1)\n    tag_14:\n      dup1\n      0x0e4877d6\n      eq\n      tag_2\n      jumpi\n      dup1\n      0x107046bd\n      eq\n      tag_3\n      jumpi\n      dup1\n      0x1a86e67d\n      eq\n      tag_4\n      jumpi\n      dup1\n      0x33ec0fc5\n      eq\n      tag_5\n      jumpi\n      dup1\n      0x4e94e824\n      eq\n      tag_6\n      jumpi\n      dup1\n      0x6c563abe\n      eq\n      tag_7\n      jumpi\n    tag_1:\n      revert(0x00, 0x00)\n        /* \"contracts/CrowdSourcing.sol\":2232:2255  address public sysOwner */\n    tag_2:\n      callvalue\n      dup1\n      iszero\n      tag_15\n      jumpi\n      revert(0x00, 0x00)\n    tag_15:\n      pop\n      tag_16\n      tag_17\n      jump\t// in\n    tag_16:\n      mload(0x40)\n      tag_18\n      swap2\n      swap1\n      tag_19\n      jump\t// in\n    tag_18:\n      mload(0x40)\n      dup1\n      swap2\n      sub\n      swap1\n      return\n        /* \"contracts/CrowdSourcing.sol\":2264:2289  Project[] public projects */\n    tag_3:\n      callvalue\n      dup1\n      iszero\n      tag_20\n      jumpi\n      revert(0x00, 0x00)\n    tag_20:\n      pop\n      tag_21\n      0x04\n      dup1\n      calldatasize\n      sub\n      dup2\n      add\n      swap1\n      tag_22\n      swap2\n      swap1\n      tag_23\n      jump\t// in\n    tag_22:\n      tag_24\n      jump\t// in\n    tag_21:\n      mload(0x40)\n      tag_25\n      swap8\n      swap7\n      swap6\n      swap5\n      swap4\n      swap3\n      swap2\n      swap1\n      tag_26\n      jump\t// in\n    tag_25:\n      mload(0x40)\n      dup1\n      swap2\n      sub\n      swap1\n      return\n        /* \"contracts/CrowdSourcing.sol\":2360:3076  function createProject(... */\n    tag_4:\n      callvalue\n      dup1\n      iszero\n      tag_27\n      jumpi\n      revert(0x00, 0x00)\n    tag_27:\n      pop\n      tag_28\n      0x04\n      dup1\n      calldatasize\n      sub\n      dup2\n      add\n      swap1\n      tag_29\n      swap2\n      swap1\n      tag_30\n      jump\t// in\n    tag_29:\n      tag_31\n      jump\t// in\n    tag_28:\n      stop\n        /* \"contracts/CrowdSourcing.sol\":11537:11846  function getCurrentMilestoneFunders(uint projectIndex) external view returns(address[] memory) {... */\n    tag_5:\n      callvalue\n      dup1\n      iszero\n      tag_32\n      jumpi\n      revert(0x00, 0x00)\n    tag_32:\n      pop\n      tag_33\n      0x04\n      dup1\n      calldatasize\n      sub\n      dup2\n      add\n      swap1\n      tag_34\n      swap2\n      swap1\n      tag_23\n      jump\t// in\n    tag_34:\n      tag_35\n      jump\t// in\n    tag_33:\n      mload(0x40)\n      tag_36\n      swap2\n      swap1\n      tag_37\n      jump\t// in\n    tag_36:\n      mload(0x40)\n      dup1\n      swap2\n      sub\n      swap1\n      return\n        /* \"contracts/CrowdSourcing.sol\":5355:6040  function checkCurrentMilestone(uint projectIndex) external {... */\n    tag_6:\n      callvalue\n      dup1\n      iszero\n      tag_38\n      jumpi\n      revert(0x00, 0x00)\n    tag_38:\n      pop\n      tag_39\n      0x04\n      dup1\n      calldatasize\n      sub\n      dup2\n      add\n      swap1\n      tag_40\n      swap2\n      swap1\n      tag_23\n      jump\t// in\n    tag_40:\n      tag_41\n      jump\t// in\n    tag_39:\n      stop\n        /* \"contracts/CrowdSourcing.sol\":3084:5347  function fundProject(uint projectIndex) external payable {... */\n    tag_7:\n      tag_42\n      0x04\n      dup1\n      calldatasize\n      sub\n      dup2\n      add\n      swap1\n      tag_43\n      swap2\n      swap1\n      tag_23\n      jump\t// in\n    tag_43:\n      tag_44\n      jump\t// in\n    tag_42:\n      stop\n        /* \"contracts/CrowdSourcing.sol\":8351:8650  function stopProject(uint projectIndex) external {... */\n    tag_8:\n      callvalue\n      dup1\n      iszero\n      tag_45\n      jumpi\n      revert(0x00, 0x00)\n    tag_45:\n      pop\n      tag_46\n      0x04\n      dup1\n      calldatasize\n      sub\n      dup2\n      add\n      swap1\n      tag_47\n      swap2\n      swap1\n      tag_23\n      jump\t// in\n    tag_47:\n      tag_48\n      jump\t// in\n    tag_46:\n      stop\n        /* \"contracts/CrowdSourcing.sol\":10687:11194  function deactivateProjectsWithExpiredDeadlines() external {... */\n    tag_9:\n      callvalue\n      dup1\n      iszero\n      tag_49\n      jumpi\n      revert(0x00, 0x00)\n    tag_49:\n      pop\n      tag_50\n      tag_51\n      jump\t// in\n    tag_50:\n      stop\n        /* \"contracts/CrowdSourcing.sol\":8961:10679  function addNewMilestones(uint projectIndex, MilestoneInfo[] memory milestones) public {... */\n    tag_10:\n      callvalue\n      dup1\n      iszero\n      tag_52\n      jumpi\n      revert(0x00, 0x00)\n    tag_52:\n      pop\n      tag_53\n      0x04\n      dup1\n      calldatasize\n      sub\n      dup2\n      add\n      swap1\n      tag_54\n      swap2\n      swap1\n      tag_55\n      jump\t// in\n    tag_54:\n      tag_56\n      jump\t// in\n    tag_53:\n      stop\n        /* \"contracts/CrowdSourcing.sol\":11217:11529  function getCurrentMilestoneInfo(uint projectIndex) external view returns (MilestoneInfo memory) {... */\n    tag_11:\n      callvalue\n      dup1\n      iszero\n      tag_57\n      jumpi\n      revert(0x00, 0x00)\n    tag_57:\n      pop\n      tag_58\n      0x04\n      dup1\n      calldatasize\n      sub\n      dup2\n      add\n      swap1\n      tag_59\n      swap2\n      swap1\n      tag_23\n      jump\t// in\n    tag_59:\n      tag_60\n      jump\t// in\n    tag_58:\n      mload(0x40)\n      tag_61\n      swap2\n      swap1\n      tag_62\n      jump\t// in\n    tag_61:\n      mload(0x40)\n      dup1\n      swap2\n      sub\n      swap1\n      return\n        /* \"contracts/CrowdSourcing.sol\":11854:12359  function getallMilestonesInfo(uint projectIndex) external view returns (MilestoneInfo[] memory) {... */\n    tag_12:\n      callvalue\n      dup1\n      iszero\n      tag_63\n      jumpi\n      revert(0x00, 0x00)\n    tag_63:\n      pop\n      tag_64\n      0x04\n      dup1\n      calldatasize\n      sub\n      dup2\n      add\n      swap1\n      tag_65\n      swap2\n      swap1\n      tag_23\n      jump\t// in\n    tag_65:\n      tag_66\n      jump\t// in\n    tag_64:\n      mload(0x40)\n      tag_67\n      swap2\n      swap1\n      tag_68\n      jump\t// in\n    tag_67:\n      mload(0x40)\n      dup1\n      swap2\n      sub\n      swap1\n      return\n        /* \"contracts/CrowdSourcing.sol\":12367:13509  function getAllActiveProjects() external view returns (ProjectView[] memory) {... */\n    tag_13:\n      callvalue\n      dup1\n      iszero\n      tag_69\n      jumpi\n      revert(0x00, 0x00)\n    tag_69:\n      pop\n      tag_70\n      tag_71\n      jump\t// in\n    tag_70:\n      mload(0x40)\n      tag_72\n      swap2\n      swap1\n      tag_73\n      jump\t// in\n    tag_72:\n      mload(0x40)\n      dup1\n      swap2\n      sub\n      swap1\n      return\n        /* \"contracts/CrowdSourcing.sol\":2232:2255  address public sysOwner */\n    tag_17:\n      0x00\n      0x00\n      swap1\n      sload\n      swap1\n      0x0100\n      exp\n      swap1\n      div\n      0xffffffffffffffffffffffffffffffffffffffff\n      and\n      dup2\n      jump\t// out\n        /* \"contracts/CrowdSourcing.sol\":2264:2289  Project[] public projects */\n    tag_24:\n      0x01\n      dup2\n      dup2\n      sload\n      dup2\n      lt\n      tag_74\n      jumpi\n      0x00\n      dup1\n      revert\n    tag_74:\n      swap1\n      0x00\n      mstore\n      keccak256(0x00, 0x20)\n      swap1\n      0x08\n      mul\n      add\n      0x00\n      swap2\n      pop\n      swap1\n      pop\n      dup1\n      0x00\n      add\n      0x00\n      swap1\n      sload\n      swap1\n      0x0100\n      exp\n      swap1\n      div\n      0xffffffffffffffffffffffffffffffffffffffff\n      and\n      swap1\n      dup1\n      0x01\n      add\n      dup1\n      sload\n      tag_76\n      swap1\n      tag_77\n      jump\t// in\n    tag_76:\n      dup1\n      0x1f\n      add\n      0x20\n      dup1\n      swap2\n      div\n      mul\n      0x20\n      add\n      mload(0x40)\n      swap1\n      dup2\n      add\n      0x40\n      mstore\n      dup1\n      swap3\n      swap2\n      swap1\n      dup2\n      dup2\n      mstore\n      0x20\n      add\n      dup3\n      dup1\n      sload\n      tag_78\n      swap1\n      tag_77\n      jump\t// in\n    tag_78:\n      dup1\n      iszero\n      tag_79\n      jumpi\n      dup1\n      0x1f\n      lt\n      tag_80\n      jumpi\n      0x0100\n      dup1\n      dup4\n      sload\n      div\n      mul\n      dup4\n      mstore\n      swap2\n      0x20\n      add\n      swap2\n      jump(tag_79)\n    tag_80:\n      dup3\n      add\n      swap2\n      swap1\n      0x00\n      mstore\n      keccak256(0x00, 0x20)\n      swap1\n    tag_81:\n      dup2\n      sload\n      dup2\n      mstore\n      swap1\n      0x01\n      add\n      swap1\n      0x20\n      add\n      dup1\n      dup4\n      gt\n      tag_81\n      jumpi\n      dup3\n      swap1\n      sub\n      0x1f\n      and\n      dup3\n      add\n      swap2\n    tag_79:\n      pop\n      pop\n      pop\n      pop\n      pop\n      swap1\n      dup1\n      0x02\n      add\n      dup1\n      sload\n      tag_82\n      swap1\n      tag_77\n      jump\t// in\n    tag_82:\n      dup1\n      0x1f\n      add\n      0x20\n      dup1\n      swap2\n      div\n      mul\n      0x20\n      add\n      mload(0x40)\n      swap1\n      dup2\n      add\n      0x40\n      mstore\n      dup1\n      swap3\n      swap2\n      swap1\n      dup2\n      dup2\n      mstore\n      0x20\n      add\n      dup3\n      dup1\n      sload\n      tag_83\n      swap1\n      tag_77\n      jump\t// in\n    tag_83:\n      dup1\n      iszero\n      tag_84\n      jumpi\n      dup1\n      0x1f\n      lt\n      tag_85\n      jumpi\n      0x0100\n      dup1\n      dup4\n      sload\n      div\n      mul\n      dup4\n      mstore\n      swap2\n      0x20\n      add\n      swap2\n      jump(tag_84)\n    tag_85:\n      dup3\n      add\n      swap2\n      swap1\n      0x00\n      mstore\n      keccak256(0x00, 0x20)\n      swap1\n    tag_86:\n      dup2\n      sload\n      dup2\n      mstore\n      swap1\n      0x01\n      add\n      swap1\n      0x20\n      add\n      dup1\n      dup4\n      gt\n      tag_86\n      jumpi\n      dup3\n      swap1\n      sub\n      0x1f\n      and\n      dup3\n      add\n      swap2\n    tag_84:\n      pop\n      pop\n      pop\n      pop\n      pop\n      swap1\n      dup1\n      0x03\n      add\n      dup1\n      sload\n      tag_87\n      swap1\n      tag_77\n      jump\t// in\n    tag_87:\n      dup1\n      0x1f\n      add\n      0x20\n      dup1\n      swap2\n      div\n      mul\n      0x20\n      add\n      mload(0x40)\n      swap1\n      dup2\n      add\n      0x40\n      mstore\n      dup1\n      swap3\n      swap2\n      swap1\n      dup2\n      dup2\n      mstore\n      0x20\n      add\n      dup3\n      dup1\n      sload\n      tag_88\n      swap1\n      tag_77\n      jump\t// in\n    tag_88:\n      dup1\n      iszero\n      tag_89\n      jumpi\n      dup1\n      0x1f\n      lt\n      tag_90\n      jumpi\n      0x0100\n      dup1\n      dup4\n      sload\n      div\n      mul\n      dup4\n      mstore\n      swap2\n      0x20\n      add\n      swap2\n      jump(tag_89)\n    tag_90:\n      dup3\n      add\n      swap2\n      swap1\n      0x00\n      mstore\n      keccak256(0x00, 0x20)\n      swap1\n    tag_91:\n      dup2\n      sload\n      dup2\n      mstore\n      swap1\n      0x01\n      add\n      swap1\n      0x20\n      add\n      dup1\n      dup4\n      gt\n      tag_91\n      jumpi\n      dup3\n      swap1\n      sub\n      0x1f\n      and\n      dup3\n      add\n      swap2\n    tag_89:\n      pop\n      pop\n      pop\n      pop\n      pop\n      swap1\n      dup1\n      0x04\n      add\n      sload\n      swap1\n      dup1\n      0x05\n      add\n      sload\n      swap1\n      dup1\n      0x07\n      add\n      0x00\n      swap1\n      sload\n      swap1\n      0x0100\n      exp\n      swap1\n      div\n      0xff\n      and\n      swap1\n      pop\n      dup8\n      jump\t// out\n        /* \"contracts/CrowdSourcing.sol\":2360:3076  function createProject(... */\n    tag_31:\n        /* \"contracts/CrowdSourcing.sol\":2580:2588  sysOwner */\n      0x00\n      0x00\n      swap1\n      sload\n      swap1\n      0x0100\n      exp\n      swap1\n      div\n      0xffffffffffffffffffffffffffffffffffffffff\n      and\n        /* \"contracts/CrowdSourcing.sol\":2566:2588  msg.sender != sysOwner */\n      0xffffffffffffffffffffffffffffffffffffffff\n      and\n        /* \"contracts/CrowdSourcing.sol\":2566:2576  msg.sender */\n      caller\n        /* \"contracts/CrowdSourcing.sol\":2566:2588  msg.sender != sysOwner */\n      0xffffffffffffffffffffffffffffffffffffffff\n      and\n      sub\n        /* \"contracts/CrowdSourcing.sol\":2558:2627  require(msg.sender != sysOwner, \"System owner can't create projects\") */\n      tag_93\n      jumpi\n      mload(0x40)\n      0x08c379a000000000000000000000000000000000000000000000000000000000\n      dup2\n      mstore\n      0x04\n      add\n      tag_94\n      swap1\n      tag_95\n      jump\t// in\n    tag_94:\n      mload(0x40)\n      dup1\n      swap2\n      sub\n      swap1\n      revert\n    tag_93:\n        /* \"contracts/CrowdSourcing.sol\":2640:2663  Project storage project */\n      0x00\n        /* \"contracts/CrowdSourcing.sol\":2666:2674  projects */\n      0x01\n        /* \"contracts/CrowdSourcing.sol\":2666:2681  projects.push() */\n      dup1\n      dup2\n      0x01\n      dup2\n      sload\n      add\n      dup1\n      dup3\n      sstore\n      dup1\n      swap2\n      pop\n      pop\n      sub\n      swap1\n      0x00\n      mstore\n      keccak256(0x00, 0x20)\n      swap1\n      0x08\n      mul\n      add\n        /* \"contracts/CrowdSourcing.sol\":2640:2681  Project storage project = projects.push() */\n      swap1\n      pop\n        /* \"contracts/CrowdSourcing.sol\":2710:2720  msg.sender */\n      caller\n        /* \"contracts/CrowdSourcing.sol\":2692:2699  project */\n      dup2\n        /* \"contracts/CrowdSourcing.sol\":2692:2707  project.creator */\n      0x00\n      add\n      0x00\n        /* \"contracts/CrowdSourcing.sol\":2692:2720  project.creator = msg.sender */\n      0x0100\n      exp\n      dup2\n      sload\n      dup2\n      0xffffffffffffffffffffffffffffffffffffffff\n      mul\n      not\n      and\n      swap1\n      dup4\n      0xffffffffffffffffffffffffffffffffffffffff\n      and\n      mul\n      or\n      swap1\n      sstore\n      pop\n        /* \"contracts/CrowdSourcing.sol\":2746:2750  name */\n      dup5\n        /* \"contracts/CrowdSourcing.sol\":2731:2738  project */\n      dup2\n        /* \"contracts/CrowdSourcing.sol\":2731:2743  project.name */\n      0x01\n      add\n        /* \"contracts/CrowdSourcing.sol\":2731:2750  project.name = name */\n      swap1\n      dup2\n      tag_97\n      swap2\n      swap1\n      tag_98\n      jump\t// in\n    tag_97:\n      pop\n        /* \"contracts/CrowdSourcing.sol\":2786:2800  headerImageUrl */\n      dup4\n        /* \"contracts/CrowdSourcing.sol\":2761:2768  project */\n      dup2\n        /* \"contracts/CrowdSourcing.sol\":2761:2783  project.headerImageUrl */\n      0x02\n      add\n        /* \"contracts/CrowdSourcing.sol\":2761:2800  project.headerImageUrl = headerImageUrl */\n      swap1\n      dup2\n      tag_99\n      swap2\n      swap1\n      tag_98\n      jump\t// in\n    tag_99:\n      pop\n        /* \"contracts/CrowdSourcing.sol\":2833:2844  description */\n      dup3\n        /* \"contracts/CrowdSourcing.sol\":2811:2818  project */\n      dup2\n        /* \"contracts/CrowdSourcing.sol\":2811:2830  project.description */\n      0x03\n      add\n        /* \"contracts/CrowdSourcing.sol\":2811:2844  project.description = description */\n      swap1\n      dup2\n      tag_100\n      swap2\n      swap1\n      tag_98\n      jump\t// in\n    tag_100:\n      pop\n        /* \"contracts/CrowdSourcing.sol\":2877:2878  0 */\n      0x00\n        /* \"contracts/CrowdSourcing.sol\":2855:2862  project */\n      dup2\n        /* \"contracts/CrowdSourcing.sol\":2855:2874  project.totalFunded */\n      0x04\n      add\n        /* \"contracts/CrowdSourcing.sol\":2855:2878  project.totalFunded = 0 */\n      dup2\n      swap1\n      sstore\n      pop\n        /* \"contracts/CrowdSourcing.sol\":2921:2922  0 */\n      0x00\n        /* \"contracts/CrowdSourcing.sol\":2889:2896  project */\n      dup2\n        /* \"contracts/CrowdSourcing.sol\":2889:2918  project.currentMilestoneIndex */\n      0x05\n      add\n        /* \"contracts/CrowdSourcing.sol\":2889:2922  project.currentMilestoneIndex = 0 */\n      dup2\n      swap1\n      sstore\n      pop\n        /* \"contracts/CrowdSourcing.sol\":2952:2956  true */\n      0x01\n        /* \"contracts/CrowdSourcing.sol\":2933:2940  project */\n      dup2\n        /* \"contracts/CrowdSourcing.sol\":2933:2949  project.isActive */\n      0x07\n      add\n      0x00\n        /* \"contracts/CrowdSourcing.sol\":2933:2956  project.isActive = true */\n      0x0100\n      exp\n      dup2\n      sload\n      dup2\n      0xff\n      mul\n      not\n      and\n      swap1\n      dup4\n      iszero\n      iszero\n      mul\n      or\n      swap1\n      sstore\n      pop\n        /* \"contracts/CrowdSourcing.sol\":2969:3017  addNewMilestones(projects.length-1 , milestones) */\n      tag_101\n        /* \"contracts/CrowdSourcing.sol\":3002:3003  1 */\n      0x01\n        /* \"contracts/CrowdSourcing.sol\":2986:2994  projects */\n      dup1\n        /* \"contracts/CrowdSourcing.sol\":2986:3001  projects.length */\n      dup1\n      sload\n      swap1\n      pop\n        /* \"contracts/CrowdSourcing.sol\":2986:3003  projects.length-1 */\n      tag_102\n      swap2\n      swap1\n      tag_103\n      jump\t// in\n    tag_102:\n        /* \"contracts/CrowdSourcing.sol\":3006:3016  milestones */\n      dup4\n        /* \"contracts/CrowdSourcing.sol\":2969:2985  addNewMilestones */\n      tag_56\n        /* \"contracts/CrowdSourcing.sol\":2969:3017  addNewMilestones(projects.length-1 , milestones) */\n      jump\t// in\n    tag_101:\n        /* \"contracts/CrowdSourcing.sol\":3035:3068  ProjectCreated(projects.length-1) */\n      0x1ac2092e16e28eef29d1832f3dc69da1b21284a1f3159d3b26cb238b22fe4f8a\n        /* \"contracts/CrowdSourcing.sol\":3066:3067  1 */\n      0x01\n        /* \"contracts/CrowdSourcing.sol\":3050:3058  projects */\n      dup1\n        /* \"contracts/CrowdSourcing.sol\":3050:3065  projects.length */\n      dup1\n      sload\n      swap1\n      pop\n        /* \"contracts/CrowdSourcing.sol\":3050:3067  projects.length-1 */\n      tag_104\n      swap2\n      swap1\n      tag_103\n      jump\t// in\n    tag_104:\n        /* \"contracts/CrowdSourcing.sol\":3035:3068  ProjectCreated(projects.length-1) */\n      mload(0x40)\n      tag_105\n      swap2\n      swap1\n      tag_106\n      jump\t// in\n    tag_105:\n      mload(0x40)\n      dup1\n      swap2\n      sub\n      swap1\n      log1\n        /* \"contracts/CrowdSourcing.sol\":2547:3076  {... */\n      pop\n        /* \"contracts/CrowdSourcing.sol\":2360:3076  function createProject(... */\n      pop\n      pop\n      pop\n      pop\n      jump\t// out\n        /* \"contracts/CrowdSourcing.sol\":11537:11846  function getCurrentMilestoneFunders(uint projectIndex) external view returns(address[] memory) {... */\n    tag_35:\n        /* \"contracts/CrowdSourcing.sol\":11614:11630  address[] memory */\n      0x60\n        /* \"contracts/CrowdSourcing.sol\":11643:11666  Project storage project */\n      0x00\n        /* \"contracts/CrowdSourcing.sol\":11669:11677  projects */\n      0x01\n        /* \"contracts/CrowdSourcing.sol\":11678:11690  projectIndex */\n      dup4\n        /* \"contracts/CrowdSourcing.sol\":11669:11691  projects[projectIndex] */\n      dup2\n      sload\n      dup2\n      lt\n      tag_108\n      jumpi\n      tag_109\n      tag_110\n      jump\t// in\n    tag_109:\n    tag_108:\n      swap1\n      0x00\n      mstore\n      keccak256(0x00, 0x20)\n      swap1\n      0x08\n      mul\n      add\n        /* \"contracts/CrowdSourcing.sol\":11643:11691  Project storage project = projects[projectIndex] */\n      swap1\n      pop\n        /* \"contracts/CrowdSourcing.sol\":11702:11736  Milestone storage currentMilestone */\n      0x00\n        /* \"contracts/CrowdSourcing.sol\":11739:11746  project */\n      dup2\n        /* \"contracts/CrowdSourcing.sol\":11739:11757  project.milestones */\n      0x06\n      add\n        /* \"contracts/CrowdSourcing.sol\":11758:11765  project */\n      dup3\n        /* \"contracts/CrowdSourcing.sol\":11758:11787  project.currentMilestoneIndex */\n      0x05\n      add\n      sload\n        /* \"contracts/CrowdSourcing.sol\":11739:11788  project.milestones[project.currentMilestoneIndex] */\n      dup2\n      sload\n      dup2\n      lt\n      tag_112\n      jumpi\n      tag_113\n      tag_110\n      jump\t// in\n    tag_113:\n    tag_112:\n      swap1\n      0x00\n      mstore\n      keccak256(0x00, 0x20)\n      swap1\n      0x06\n      mul\n      add\n        /* \"contracts/CrowdSourcing.sol\":11702:11788  Milestone storage currentMilestone = project.milestones[project.currentMilestoneIndex] */\n      swap1\n      pop\n        /* \"contracts/CrowdSourcing.sol\":11806:11822  currentMilestone */\n      dup1\n        /* \"contracts/CrowdSourcing.sol\":11806:11838  currentMilestone.funderAddresses */\n      0x03\n      add\n        /* \"contracts/CrowdSourcing.sol\":11799:11838  return currentMilestone.funderAddresses */\n      dup1\n      sload\n      dup1\n      0x20\n      mul\n      0x20\n      add\n      mload(0x40)\n      swap1\n      dup2\n      add\n      0x40\n      mstore\n      dup1\n      swap3\n      swap2\n      swap1\n      dup2\n      dup2\n      mstore\n      0x20\n      add\n      dup3\n      dup1\n      sload\n      dup1\n      iszero\n      tag_115\n      jumpi\n      0x20\n      mul\n      dup3\n      add\n      swap2\n      swap1\n      0x00\n      mstore\n      keccak256(0x00, 0x20)\n      swap1\n    tag_116:\n      dup2\n      0x00\n      swap1\n      sload\n      swap1\n      0x0100\n      exp\n      swap1\n      div\n      0xffffffffffffffffffffffffffffffffffffffff\n      and\n      0xffffffffffffffffffffffffffffffffffffffff\n      and\n      dup2\n      mstore\n      0x20\n      add\n      swap1\n      0x01\n      add\n      swap1\n      dup1\n      dup4\n      gt\n      tag_116\n      jumpi\n    tag_115:\n      pop\n      pop\n      pop\n      pop\n      pop\n      swap3\n      pop\n      pop\n      pop\n        /* \"contracts/CrowdSourcing.sol\":11537:11846  function getCurrentMilestoneFunders(uint projectIndex) external view returns(address[] memory) {... */\n      swap2\n      swap1\n      pop\n      jump\t// out\n        /* \"contracts/CrowdSourcing.sol\":5355:6040  function checkCurrentMilestone(uint projectIndex) external {... */\n    tag_41:\n        /* \"contracts/CrowdSourcing.sol\":5448:5456  projects */\n      0x01\n        /* \"contracts/CrowdSourcing.sol\":5448:5463  projects.length */\n      dup1\n      sload\n      swap1\n      pop\n        /* \"contracts/CrowdSourcing.sol\":5433:5445  projectIndex */\n      dup2\n        /* \"contracts/CrowdSourcing.sol\":5433:5463  projectIndex < projects.length */\n      lt\n        /* \"contracts/CrowdSourcing.sol\":5425:5490  require(projectIndex < projects.length, \"Invalid projects index\") */\n      tag_118\n      jumpi\n      mload(0x40)\n      0x08c379a000000000000000000000000000000000000000000000000000000000\n      dup2\n      mstore\n      0x04\n      add\n      tag_119\n      swap1\n      tag_120\n      jump\t// in\n    tag_119:\n      mload(0x40)\n      dup1\n      swap2\n      sub\n      swap1\n      revert\n    tag_118:\n        /* \"contracts/CrowdSourcing.sol\":5501:5524  Project storage project */\n      0x00\n        /* \"contracts/CrowdSourcing.sol\":5527:5535  projects */\n      0x01\n        /* \"contracts/CrowdSourcing.sol\":5536:5548  projectIndex */\n      dup3\n        /* \"contracts/CrowdSourcing.sol\":5527:5549  projects[projectIndex] */\n      dup2\n      sload\n      dup2\n      lt\n      tag_121\n      jumpi\n      tag_122\n      tag_110\n      jump\t// in\n    tag_122:\n    tag_121:\n      swap1\n      0x00\n      mstore\n      keccak256(0x00, 0x20)\n      swap1\n      0x08\n      mul\n      add\n        /* \"contracts/CrowdSourcing.sol\":5501:5549  Project storage project = projects[projectIndex] */\n      swap1\n      pop\n        /* \"contracts/CrowdSourcing.sol\":5568:5575  project */\n      dup1\n        /* \"contracts/CrowdSourcing.sol\":5568:5584  project.isActive */\n      0x07\n      add\n      0x00\n      swap1\n      sload\n      swap1\n      0x0100\n      exp\n      swap1\n      div\n      0xff\n      and\n        /* \"contracts/CrowdSourcing.sol\":5560:5611  require(project.isActive, \"Project must be active\") */\n      tag_124\n      jumpi\n      mload(0x40)\n      0x08c379a000000000000000000000000000000000000000000000000000000000\n      dup2\n      mstore\n      0x04\n      add\n      tag_125\n      swap1\n      tag_126\n      jump\t// in\n    tag_125:\n      mload(0x40)\n      dup1\n      swap2\n      sub\n      swap1\n      revert\n    tag_124:\n        /* \"contracts/CrowdSourcing.sol\":5622:5656  Milestone storage currentMilestone */\n      0x00\n        /* \"contracts/CrowdSourcing.sol\":5659:5666  project */\n      dup2\n        /* \"contracts/CrowdSourcing.sol\":5659:5677  project.milestones */\n      0x06\n      add\n        /* \"contracts/CrowdSourcing.sol\":5692:5699  project */\n      dup3\n        /* \"contracts/CrowdSourcing.sol\":5692:5721  project.currentMilestoneIndex */\n      0x05\n      add\n      sload\n        /* \"contracts/CrowdSourcing.sol\":5659:5732  project.milestones[... */\n      dup2\n      sload\n      dup2\n      lt\n      tag_127\n      jumpi\n      tag_128\n      tag_110\n      jump\t// in\n    tag_128:\n    tag_127:\n      swap1\n      0x00\n      mstore\n      keccak256(0x00, 0x20)\n      swap1\n      0x06\n      mul\n      add\n        /* \"contracts/CrowdSourcing.sol\":5622:5732  Milestone storage currentMilestone = project.milestones[... */\n      swap1\n      pop\n        /* \"contracts/CrowdSourcing.sol\":5752:5768  currentMilestone */\n      dup1\n        /* \"contracts/CrowdSourcing.sol\":5752:5776  currentMilestone.reached */\n      0x05\n      add\n      0x00\n      swap1\n      sload\n      swap1\n      0x0100\n      exp\n      swap1\n      div\n      0xff\n      and\n        /* \"contracts/CrowdSourcing.sol\":5751:5776  !currentMilestone.reached */\n      iszero\n        /* \"contracts/CrowdSourcing.sol\":5743:5812  require(!currentMilestone.reached, \"Milestone should be not reached\") */\n      tag_130\n      jumpi\n      mload(0x40)\n      0x08c379a000000000000000000000000000000000000000000000000000000000\n      dup2\n      mstore\n      0x04\n      add\n      tag_131\n      swap1\n      tag_132\n      jump\t// in\n    tag_131:\n      mload(0x40)\n      dup1\n      swap2\n      sub\n      swap1\n      revert\n    tag_130:\n        /* \"contracts/CrowdSourcing.sol\":5830:6032  CurrentMilestoneStatus(... */\n      0x3f9ee693372748925082c0c5ba09ecffc5fddfeecf993becff877eac8a1e08bc\n        /* \"contracts/CrowdSourcing.sol\":5867:5883  currentMilestone */\n      dup2\n        /* \"contracts/CrowdSourcing.sol\":5867:5888  currentMilestone.info */\n      0x00\n      add\n        /* \"contracts/CrowdSourcing.sol\":5867:5897  currentMilestone.info.deadline */\n      0x01\n      add\n      sload\n        /* \"contracts/CrowdSourcing.sol\":5912:5928  currentMilestone */\n      dup3\n        /* \"contracts/CrowdSourcing.sol\":5912:5933  currentMilestone.info */\n      0x00\n      add\n        /* \"contracts/CrowdSourcing.sol\":5912:5944  currentMilestone.info.goalAmount */\n      0x00\n      add\n      sload\n        /* \"contracts/CrowdSourcing.sol\":5959:5966  project */\n      dup5\n        /* \"contracts/CrowdSourcing.sol\":5959:5978  project.totalFunded */\n      0x04\n      add\n      sload\n        /* \"contracts/CrowdSourcing.sol\":5993:6009  currentMilestone */\n      dup5\n        /* \"contracts/CrowdSourcing.sol\":5993:6021  currentMilestone.totalFunded */\n      0x02\n      add\n      sload\n        /* \"contracts/CrowdSourcing.sol\":5830:6032  CurrentMilestoneStatus(... */\n      mload(0x40)\n      tag_133\n      swap5\n      swap4\n      swap3\n      swap2\n      swap1\n      tag_134\n      jump\t// in\n    tag_133:\n      mload(0x40)\n      dup1\n      swap2\n      sub\n      swap1\n      log1\n        /* \"contracts/CrowdSourcing.sol\":5414:6040  {... */\n      pop\n      pop\n        /* \"contracts/CrowdSourcing.sol\":5355:6040  function checkCurrentMilestone(uint projectIndex) external {... */\n      pop\n      jump\t// out\n        /* \"contracts/CrowdSourcing.sol\":3084:5347  function fundProject(uint projectIndex) external payable {... */\n    tag_44:\n        /* \"contracts/CrowdSourcing.sol\":3175:3183  projects */\n      0x01\n        /* \"contracts/CrowdSourcing.sol\":3175:3190  projects.length */\n      dup1\n      sload\n      swap1\n      pop\n        /* \"contracts/CrowdSourcing.sol\":3160:3172  projectIndex */\n      dup2\n        /* \"contracts/CrowdSourcing.sol\":3160:3190  projectIndex < projects.length */\n      lt\n        /* \"contracts/CrowdSourcing.sol\":3152:3216  require(projectIndex < projects.length, \"Project doesn't exist\") */\n      tag_136\n      jumpi\n      mload(0x40)\n      0x08c379a000000000000000000000000000000000000000000000000000000000\n      dup2\n      mstore\n      0x04\n      add\n      tag_137\n      swap1\n      tag_138\n      jump\t// in\n    tag_137:\n      mload(0x40)\n      dup1\n      swap2\n      sub\n      swap1\n      revert\n    tag_136:\n        /* \"contracts/CrowdSourcing.sol\":3262:3272  msg.sender */\n      caller\n        /* \"contracts/CrowdSourcing.sol\":3262:3280  msg.sender.balance */\n      0xffffffffffffffffffffffffffffffffffffffff\n      and\n      balance\n        /* \"contracts/CrowdSourcing.sol\":3249:3258  msg.value */\n      callvalue\n        /* \"contracts/CrowdSourcing.sol\":3249:3280  msg.value <= msg.sender.balance */\n      gt\n      iszero\n        /* \"contracts/CrowdSourcing.sol\":3227:3342  require(... */\n      tag_139\n      jumpi\n      mload(0x40)\n      0x08c379a000000000000000000000000000000000000000000000000000000000\n      dup2\n      mstore\n      0x04\n      add\n      tag_140\n      swap1\n      tag_141\n      jump\t// in\n    tag_140:\n      mload(0x40)\n      dup1\n      swap2\n      sub\n      swap1\n      revert\n    tag_139:\n        /* \"contracts/CrowdSourcing.sol\":3373:3374  0 */\n      0x00\n        /* \"contracts/CrowdSourcing.sol\":3361:3370  msg.value */\n      callvalue\n        /* \"contracts/CrowdSourcing.sol\":3361:3374  msg.value > 0 */\n      gt\n        /* \"contracts/CrowdSourcing.sol\":3353:3401  require(msg.value > 0, \"Fund amount can't be 0\") */\n      tag_142\n      jumpi\n      mload(0x40)\n      0x08c379a000000000000000000000000000000000000000000000000000000000\n      dup2\n      mstore\n      0x04\n      add\n      tag_143\n      swap1\n      tag_144\n      jump\t// in\n    tag_143:\n      mload(0x40)\n      dup1\n      swap2\n      sub\n      swap1\n      revert\n    tag_142:\n        /* \"contracts/CrowdSourcing.sol\":3414:3437  Project storage project */\n      0x00\n        /* \"contracts/CrowdSourcing.sol\":3440:3448  projects */\n      0x01\n        /* \"contracts/CrowdSourcing.sol\":3449:3461  projectIndex */\n      dup3\n        /* \"contracts/CrowdSourcing.sol\":3440:3462  projects[projectIndex] */\n      dup2\n      sload\n      dup2\n      lt\n      tag_145\n      jumpi\n      tag_146\n      tag_110\n      jump\t// in\n    tag_146:\n    tag_145:\n      swap1\n      0x00\n      mstore\n      keccak256(0x00, 0x20)\n      swap1\n      0x08\n      mul\n      add\n        /* \"contracts/CrowdSourcing.sol\":3414:3462  Project storage project = projects[projectIndex] */\n      swap1\n      pop\n        /* \"contracts/CrowdSourcing.sol\":3481:3488  project */\n      dup1\n        /* \"contracts/CrowdSourcing.sol\":3481:3497  project.isActive */\n      0x07\n      add\n      0x00\n      swap1\n      sload\n      swap1\n      0x0100\n      exp\n      swap1\n      div\n      0xff\n      and\n        /* \"contracts/CrowdSourcing.sol\":3473:3532  require(project.isActive, \"Project must be active to fund\") */\n      tag_148\n      jumpi\n      mload(0x40)\n      0x08c379a000000000000000000000000000000000000000000000000000000000\n      dup2\n      mstore\n      0x04\n      add\n      tag_149\n      swap1\n      tag_150\n      jump\t// in\n    tag_149:\n      mload(0x40)\n      dup1\n      swap2\n      sub\n      swap1\n      revert\n    tag_148:\n        /* \"contracts/CrowdSourcing.sol\":3545:3579  Milestone storage currentMilestone */\n      0x00\n        /* \"contracts/CrowdSourcing.sol\":3582:3589  project */\n      dup2\n        /* \"contracts/CrowdSourcing.sol\":3582:3600  project.milestones */\n      0x06\n      add\n        /* \"contracts/CrowdSourcing.sol\":3615:3622  project */\n      dup3\n        /* \"contracts/CrowdSourcing.sol\":3615:3644  project.currentMilestoneIndex */\n      0x05\n      add\n      sload\n        /* \"contracts/CrowdSourcing.sol\":3582:3655  project.milestones[... */\n      dup2\n      sload\n      dup2\n      lt\n      tag_151\n      jumpi\n      tag_152\n      tag_110\n      jump\t// in\n    tag_152:\n    tag_151:\n      swap1\n      0x00\n      mstore\n      keccak256(0x00, 0x20)\n      swap1\n      0x06\n      mul\n      add\n        /* \"contracts/CrowdSourcing.sol\":3545:3655  Milestone storage currentMilestone = project.milestones[... */\n      swap1\n      pop\n        /* \"contracts/CrowdSourcing.sol\":3721:3736  block.timestamp */\n      timestamp\n        /* \"contracts/CrowdSourcing.sol\":3688:3704  currentMilestone */\n      dup2\n        /* \"contracts/CrowdSourcing.sol\":3688:3709  currentMilestone.info */\n      0x00\n      add\n        /* \"contracts/CrowdSourcing.sol\":3688:3718  currentMilestone.info.deadline */\n      0x01\n      add\n      sload\n        /* \"contracts/CrowdSourcing.sol\":3688:3736  currentMilestone.info.deadline > block.timestamp */\n      gt\n        /* \"contracts/CrowdSourcing.sol\":3666:3793  require(... */\n      tag_154\n      jumpi\n      mload(0x40)\n      0x08c379a000000000000000000000000000000000000000000000000000000000\n      dup2\n      mstore\n      0x04\n      add\n      tag_155\n      swap1\n      tag_156\n      jump\t// in\n    tag_155:\n      mload(0x40)\n      dup1\n      swap2\n      sub\n      swap1\n      revert\n    tag_154:\n        /* \"contracts/CrowdSourcing.sol\":3855:3856  0 */\n      0x00\n        /* \"contracts/CrowdSourcing.sol\":3815:3831  currentMilestone */\n      dup2\n        /* \"contracts/CrowdSourcing.sol\":3815:3839  currentMilestone.funders */\n      0x04\n      add\n        /* \"contracts/CrowdSourcing.sol\":3815:3851  currentMilestone.funders[msg.sender] */\n      0x00\n        /* \"contracts/CrowdSourcing.sol\":3840:3850  msg.sender */\n      caller\n        /* \"contracts/CrowdSourcing.sol\":3815:3851  currentMilestone.funders[msg.sender] */\n      0xffffffffffffffffffffffffffffffffffffffff\n      and\n      0xffffffffffffffffffffffffffffffffffffffff\n      and\n      dup2\n      mstore\n      0x20\n      add\n      swap1\n      dup2\n      mstore\n      0x20\n      add\n      0x00\n      keccak256\n      sload\n        /* \"contracts/CrowdSourcing.sol\":3815:3856  currentMilestone.funders[msg.sender] == 0 */\n      sub\n        /* \"contracts/CrowdSourcing.sol\":3811:3934  if (currentMilestone.funders[msg.sender] == 0) {... */\n      tag_157\n      jumpi\n        /* \"contracts/CrowdSourcing.sol\":3873:3889  currentMilestone */\n      dup1\n        /* \"contracts/CrowdSourcing.sol\":3873:3905  currentMilestone.funderAddresses */\n      0x03\n      add\n        /* \"contracts/CrowdSourcing.sol\":3911:3921  msg.sender */\n      caller\n        /* \"contracts/CrowdSourcing.sol\":3873:3922  currentMilestone.funderAddresses.push(msg.sender) */\n      swap1\n      dup1\n      0x01\n      dup2\n      sload\n      add\n      dup1\n      dup3\n      sstore\n      dup1\n      swap2\n      pop\n      pop\n      0x01\n      swap1\n      sub\n      swap1\n      0x00\n      mstore\n      keccak256(0x00, 0x20)\n      add\n      0x00\n      swap1\n      swap2\n      swap1\n      swap2\n      swap1\n      swap2\n      0x0100\n      exp\n      dup2\n      sload\n      dup2\n      0xffffffffffffffffffffffffffffffffffffffff\n      mul\n      not\n      and\n      swap1\n      dup4\n      0xffffffffffffffffffffffffffffffffffffffff\n      and\n      mul\n      or\n      swap1\n      sstore\n      pop\n        /* \"contracts/CrowdSourcing.sol\":3811:3934  if (currentMilestone.funders[msg.sender] == 0) {... */\n    tag_157:\n        /* \"contracts/CrowdSourcing.sol\":3986:3995  msg.value */\n      callvalue\n        /* \"contracts/CrowdSourcing.sol\":3946:3962  currentMilestone */\n      dup2\n        /* \"contracts/CrowdSourcing.sol\":3946:3970  currentMilestone.funders */\n      0x04\n      add\n        /* \"contracts/CrowdSourcing.sol\":3946:3982  currentMilestone.funders[msg.sender] */\n      0x00\n        /* \"contracts/CrowdSourcing.sol\":3971:3981  msg.sender */\n      caller\n        /* \"contracts/CrowdSourcing.sol\":3946:3982  currentMilestone.funders[msg.sender] */\n      0xffffffffffffffffffffffffffffffffffffffff\n      and\n      0xffffffffffffffffffffffffffffffffffffffff\n      and\n      dup2\n      mstore\n      0x20\n      add\n      swap1\n      dup2\n      mstore\n      0x20\n      add\n      0x00\n      keccak256\n      0x00\n        /* \"contracts/CrowdSourcing.sol\":3946:3995  currentMilestone.funders[msg.sender] += msg.value */\n      dup3\n      dup3\n      sload\n      tag_159\n      swap2\n      swap1\n      tag_160\n      jump\t// in\n    tag_159:\n      swap3\n      pop\n      pop\n      dup2\n      swap1\n      sstore\n      pop\n        /* \"contracts/CrowdSourcing.sol\":4038:4047  msg.value */\n      callvalue\n        /* \"contracts/CrowdSourcing.sol\":4006:4022  currentMilestone */\n      dup2\n        /* \"contracts/CrowdSourcing.sol\":4006:4034  currentMilestone.totalFunded */\n      0x02\n      add\n      0x00\n        /* \"contracts/CrowdSourcing.sol\":4006:4047  currentMilestone.totalFunded += msg.value */\n      dup3\n      dup3\n      sload\n      tag_161\n      swap2\n      swap1\n      tag_160\n      jump\t// in\n    tag_161:\n      swap3\n      pop\n      pop\n      dup2\n      swap1\n      sstore\n      pop\n        /* \"contracts/CrowdSourcing.sol\":4081:4090  msg.value */\n      callvalue\n        /* \"contracts/CrowdSourcing.sol\":4058:4065  project */\n      dup3\n        /* \"contracts/CrowdSourcing.sol\":4058:4077  project.totalFunded */\n      0x04\n      add\n      0x00\n        /* \"contracts/CrowdSourcing.sol\":4058:4090  project.totalFunded += msg.value */\n      dup3\n      dup3\n      sload\n      tag_162\n      swap2\n      swap1\n      tag_160\n      jump\t// in\n    tag_162:\n      swap3\n      pop\n      pop\n      dup2\n      swap1\n      sstore\n      pop\n        /* \"contracts/CrowdSourcing.sol\":4103:5170  while(project.totalFunded > currentMilestone.info.goalAmount) {... */\n    tag_163:\n        /* \"contracts/CrowdSourcing.sol\":4131:4147  currentMilestone */\n      dup1\n        /* \"contracts/CrowdSourcing.sol\":4131:4152  currentMilestone.info */\n      0x00\n      add\n        /* \"contracts/CrowdSourcing.sol\":4131:4163  currentMilestone.info.goalAmount */\n      0x00\n      add\n      sload\n        /* \"contracts/CrowdSourcing.sol\":4109:4116  project */\n      dup3\n        /* \"contracts/CrowdSourcing.sol\":4109:4128  project.totalFunded */\n      0x04\n      add\n      sload\n        /* \"contracts/CrowdSourcing.sol\":4109:4163  project.totalFunded > currentMilestone.info.goalAmount */\n      gt\n        /* \"contracts/CrowdSourcing.sol\":4103:5170  while(project.totalFunded > currentMilestone.info.goalAmount) {... */\n      iszero\n      tag_164\n      jumpi\n        /* \"contracts/CrowdSourcing.sol\":4182:4194  uint surplus */\n      0x00\n        /* \"contracts/CrowdSourcing.sol\":4219:4235  currentMilestone */\n      dup2\n        /* \"contracts/CrowdSourcing.sol\":4219:4240  currentMilestone.info */\n      0x00\n      add\n        /* \"contracts/CrowdSourcing.sol\":4219:4251  currentMilestone.info.goalAmount */\n      0x00\n      add\n      sload\n        /* \"contracts/CrowdSourcing.sol\":4197:4204  project */\n      dup4\n        /* \"contracts/CrowdSourcing.sol\":4197:4216  project.totalFunded */\n      0x04\n      add\n      sload\n        /* \"contracts/CrowdSourcing.sol\":4197:4251  project.totalFunded - currentMilestone.info.goalAmount */\n      tag_165\n      swap2\n      swap1\n      tag_103\n      jump\t// in\n    tag_165:\n        /* \"contracts/CrowdSourcing.sol\":4182:4251  uint surplus = project.totalFunded - currentMilestone.info.goalAmount */\n      swap1\n      pop\n        /* \"contracts/CrowdSourcing.sol\":4297:4313  currentMilestone */\n      dup2\n        /* \"contracts/CrowdSourcing.sol\":4297:4318  currentMilestone.info */\n      0x00\n      add\n        /* \"contracts/CrowdSourcing.sol\":4297:4329  currentMilestone.info.goalAmount */\n      0x00\n      add\n      sload\n        /* \"contracts/CrowdSourcing.sol\":4266:4282  currentMilestone */\n      dup3\n        /* \"contracts/CrowdSourcing.sol\":4266:4294  currentMilestone.totalFunded */\n      0x02\n      add\n        /* \"contracts/CrowdSourcing.sol\":4266:4329  currentMilestone.totalFunded = currentMilestone.info.goalAmount */\n      dup2\n      swap1\n      sstore\n      pop\n        /* \"contracts/CrowdSourcing.sol\":4366:4382  currentMilestone */\n      dup2\n        /* \"contracts/CrowdSourcing.sol\":4366:4387  currentMilestone.info */\n      0x00\n      add\n        /* \"contracts/CrowdSourcing.sol\":4366:4398  currentMilestone.info.goalAmount */\n      0x00\n      add\n      sload\n        /* \"contracts/CrowdSourcing.sol\":4344:4351  project */\n      dup4\n        /* \"contracts/CrowdSourcing.sol\":4344:4363  project.totalFunded */\n      0x04\n      add\n        /* \"contracts/CrowdSourcing.sol\":4344:4398  project.totalFunded = currentMilestone.info.goalAmount */\n      dup2\n      swap1\n      sstore\n      pop\n        /* \"contracts/CrowdSourcing.sol\":4453:4460  surplus */\n      dup1\n        /* \"contracts/CrowdSourcing.sol\":4413:4429  currentMilestone */\n      dup3\n        /* \"contracts/CrowdSourcing.sol\":4413:4437  currentMilestone.funders */\n      0x04\n      add\n        /* \"contracts/CrowdSourcing.sol\":4413:4449  currentMilestone.funders[msg.sender] */\n      0x00\n        /* \"contracts/CrowdSourcing.sol\":4438:4448  msg.sender */\n      caller\n        /* \"contracts/CrowdSourcing.sol\":4413:4449  currentMilestone.funders[msg.sender] */\n      0xffffffffffffffffffffffffffffffffffffffff\n      and\n      0xffffffffffffffffffffffffffffffffffffffff\n      and\n      dup2\n      mstore\n      0x20\n      add\n      swap1\n      dup2\n      mstore\n      0x20\n      add\n      0x00\n      keccak256\n      0x00\n        /* \"contracts/CrowdSourcing.sol\":4413:4460  currentMilestone.funders[msg.sender] -= surplus */\n      dup3\n      dup3\n      sload\n      tag_166\n      swap2\n      swap1\n      tag_103\n      jump\t// in\n    tag_166:\n      swap3\n      pop\n      pop\n      dup2\n      swap1\n      sstore\n      pop\n        /* \"contracts/CrowdSourcing.sol\":4553:4554  1 */\n      0x01\n        /* \"contracts/CrowdSourcing.sol\":4525:4532  project */\n      dup4\n        /* \"contracts/CrowdSourcing.sol\":4525:4543  project.milestones */\n      0x06\n      add\n        /* \"contracts/CrowdSourcing.sol\":4525:4550  project.milestones.length */\n      dup1\n      sload\n      swap1\n      pop\n        /* \"contracts/CrowdSourcing.sol\":4525:4554  project.milestones.length - 1 */\n      tag_167\n      swap2\n      swap1\n      tag_103\n      jump\t// in\n    tag_167:\n        /* \"contracts/CrowdSourcing.sol\":4492:4499  project */\n      dup4\n        /* \"contracts/CrowdSourcing.sol\":4492:4521  project.currentMilestoneIndex */\n      0x05\n      add\n      sload\n        /* \"contracts/CrowdSourcing.sol\":4492:4554  project.currentMilestoneIndex == project.milestones.length - 1 */\n      sub\n        /* \"contracts/CrowdSourcing.sol\":4489:5159  if(project.currentMilestoneIndex == project.milestones.length - 1) {... */\n      tag_168\n      jumpi\n        /* \"contracts/CrowdSourcing.sol\":4594:4599  false */\n      0x00\n        /* \"contracts/CrowdSourcing.sol\":4575:4582  project */\n      dup4\n        /* \"contracts/CrowdSourcing.sol\":4575:4591  project.isActive */\n      0x07\n      add\n      0x00\n        /* \"contracts/CrowdSourcing.sol\":4575:4599  project.isActive = false */\n      0x0100\n      exp\n      dup2\n      sload\n      dup2\n      0xff\n      mul\n      not\n      and\n      swap1\n      dup4\n      iszero\n      iszero\n      mul\n      or\n      swap1\n      sstore\n      pop\n        /* \"contracts/CrowdSourcing.sol\":4619:4631  bool success */\n      0x00\n        /* \"contracts/CrowdSourcing.sol\":4637:4647  msg.sender */\n      caller\n        /* \"contracts/CrowdSourcing.sol\":4637:4652  msg.sender.call */\n      0xffffffffffffffffffffffffffffffffffffffff\n      and\n        /* \"contracts/CrowdSourcing.sol\":4660:4667  surplus */\n      dup3\n        /* \"contracts/CrowdSourcing.sol\":4637:4672  msg.sender.call{value: surplus}(\"\") */\n      mload(0x40)\n      tag_169\n      swap1\n      tag_170\n      jump\t// in\n    tag_169:\n      0x00\n      mload(0x40)\n      dup1\n      dup4\n      sub\n      dup2\n      dup6\n      dup8\n      gas\n      call\n      swap3\n      pop\n      pop\n      pop\n      returndatasize\n      dup1\n      0x00\n      dup2\n      eq\n      tag_173\n      jumpi\n      mload(0x40)\n      swap2\n      pop\n      and(add(returndatasize, 0x3f), not(0x1f))\n      dup3\n      add\n      0x40\n      mstore\n      returndatasize\n      dup3\n      mstore\n      returndatasize\n      0x00\n      0x20\n      dup5\n      add\n      returndatacopy\n      jump(tag_172)\n    tag_173:\n      0x60\n      swap2\n      pop\n    tag_172:\n      pop\n        /* \"contracts/CrowdSourcing.sol\":4618:4672  (bool success, ) = msg.sender.call{value: surplus}(\"\") */\n      pop\n      swap1\n      pop\n        /* \"contracts/CrowdSourcing.sol\":4699:4706  success */\n      dup1\n        /* \"contracts/CrowdSourcing.sol\":4691:4735  require(success, \"Failed to return surplus\") */\n      tag_174\n      jumpi\n      mload(0x40)\n      0x08c379a000000000000000000000000000000000000000000000000000000000\n      dup2\n      mstore\n      0x04\n      add\n      tag_175\n      swap1\n      tag_176\n      jump\t// in\n    tag_175:\n      mload(0x40)\n      dup1\n      swap2\n      sub\n      swap1\n      revert\n    tag_174:\n        /* \"contracts/CrowdSourcing.sol\":4556:4755  {... */\n      pop\n        /* \"contracts/CrowdSourcing.sol\":4489:5159  if(project.currentMilestoneIndex == project.milestones.length - 1) {... */\n      jump(tag_177)\n    tag_168:\n        /* \"contracts/CrowdSourcing.sol\":4780:4815  initiateNextMilestone(projectIndex) */\n      tag_178\n        /* \"contracts/CrowdSourcing.sol\":4802:4814  projectIndex */\n      dup5\n        /* \"contracts/CrowdSourcing.sol\":4780:4801  initiateNextMilestone */\n      tag_179\n        /* \"contracts/CrowdSourcing.sol\":4780:4815  initiateNextMilestone(projectIndex) */\n      jump\t// in\n    tag_178:\n        /* \"contracts/CrowdSourcing.sol\":4853:4860  project */\n      dup3\n        /* \"contracts/CrowdSourcing.sol\":4853:4871  project.milestones */\n      0x06\n      add\n        /* \"contracts/CrowdSourcing.sol\":4872:4879  project */\n      dup4\n        /* \"contracts/CrowdSourcing.sol\":4872:4901  project.currentMilestoneIndex */\n      0x05\n      add\n      sload\n        /* \"contracts/CrowdSourcing.sol\":4853:4902  project.milestones[project.currentMilestoneIndex] */\n      dup2\n      sload\n      dup2\n      lt\n      tag_180\n      jumpi\n      tag_181\n      tag_110\n      jump\t// in\n    tag_181:\n    tag_180:\n      swap1\n      0x00\n      mstore\n      keccak256(0x00, 0x20)\n      swap1\n      0x06\n      mul\n      add\n        /* \"contracts/CrowdSourcing.sol\":4834:4902  currentMilestone = project.milestones[project.currentMilestoneIndex] */\n      swap2\n      pop\n        /* \"contracts/CrowdSourcing.sol\":4921:4937  currentMilestone */\n      dup2\n        /* \"contracts/CrowdSourcing.sol\":4921:4953  currentMilestone.funderAddresses */\n      0x03\n      add\n        /* \"contracts/CrowdSourcing.sol\":4959:4969  msg.sender */\n      caller\n        /* \"contracts/CrowdSourcing.sol\":4921:4970  currentMilestone.funderAddresses.push(msg.sender) */\n      swap1\n      dup1\n      0x01\n      dup2\n      sload\n      add\n      dup1\n      dup3\n      sstore\n      dup1\n      swap2\n      pop\n      pop\n      0x01\n      swap1\n      sub\n      swap1\n      0x00\n      mstore\n      keccak256(0x00, 0x20)\n      add\n      0x00\n      swap1\n      swap2\n      swap1\n      swap2\n      swap1\n      swap2\n      0x0100\n      exp\n      dup2\n      sload\n      dup2\n      0xffffffffffffffffffffffffffffffffffffffff\n      mul\n      not\n      and\n      swap1\n      dup4\n      0xffffffffffffffffffffffffffffffffffffffff\n      and\n      mul\n      or\n      swap1\n      sstore\n      pop\n        /* \"contracts/CrowdSourcing.sol\":5029:5036  surplus */\n      dup1\n        /* \"contracts/CrowdSourcing.sol\":4989:5005  currentMilestone */\n      dup3\n        /* \"contracts/CrowdSourcing.sol\":4989:5013  currentMilestone.funders */\n      0x04\n      add\n        /* \"contracts/CrowdSourcing.sol\":4989:5025  currentMilestone.funders[msg.sender] */\n      0x00\n        /* \"contracts/CrowdSourcing.sol\":5014:5024  msg.sender */\n      caller\n        /* \"contracts/CrowdSourcing.sol\":4989:5025  currentMilestone.funders[msg.sender] */\n      0xffffffffffffffffffffffffffffffffffffffff\n      and\n      0xffffffffffffffffffffffffffffffffffffffff\n      and\n      dup2\n      mstore\n      0x20\n      add\n      swap1\n      dup2\n      mstore\n      0x20\n      add\n      0x00\n      keccak256\n      0x00\n        /* \"contracts/CrowdSourcing.sol\":4989:5036  currentMilestone.funders[msg.sender] += surplus */\n      dup3\n      dup3\n      sload\n      tag_184\n      swap2\n      swap1\n      tag_160\n      jump\t// in\n    tag_184:\n      swap3\n      pop\n      pop\n      dup2\n      swap1\n      sstore\n      pop\n        /* \"contracts/CrowdSourcing.sol\":5087:5094  surplus */\n      dup1\n        /* \"contracts/CrowdSourcing.sol\":5055:5071  currentMilestone */\n      dup3\n        /* \"contracts/CrowdSourcing.sol\":5055:5083  currentMilestone.totalFunded */\n      0x02\n      add\n      0x00\n        /* \"contracts/CrowdSourcing.sol\":5055:5094  currentMilestone.totalFunded += surplus */\n      dup3\n      dup3\n      sload\n      tag_185\n      swap2\n      swap1\n      tag_160\n      jump\t// in\n    tag_185:\n      swap3\n      pop\n      pop\n      dup2\n      swap1\n      sstore\n      pop\n        /* \"contracts/CrowdSourcing.sol\":5136:5143  surplus */\n      dup1\n        /* \"contracts/CrowdSourcing.sol\":5113:5120  project */\n      dup4\n        /* \"contracts/CrowdSourcing.sol\":5113:5132  project.totalFunded */\n      0x04\n      add\n      0x00\n        /* \"contracts/CrowdSourcing.sol\":5113:5143  project.totalFunded += surplus */\n      dup3\n      dup3\n      sload\n      tag_186\n      swap2\n      swap1\n      tag_160\n      jump\t// in\n    tag_186:\n      swap3\n      pop\n      pop\n      dup2\n      swap1\n      sstore\n      pop\n        /* \"contracts/CrowdSourcing.sol\":4489:5159  if(project.currentMilestoneIndex == project.milestones.length - 1) {... */\n    tag_177:\n        /* \"contracts/CrowdSourcing.sol\":4165:5170  {... */\n      pop\n        /* \"contracts/CrowdSourcing.sol\":4103:5170  while(project.totalFunded > currentMilestone.info.goalAmount) {... */\n      jump(tag_163)\n    tag_164:\n        /* \"contracts/CrowdSourcing.sol\":5187:5339  ProjectFunded(... */\n      0x17e2effa169c5dde193942abd21f6d49e7d32c15ab843da440cb2abdd10f1911\n        /* \"contracts/CrowdSourcing.sol\":5215:5227  projectIndex */\n      dup4\n        /* \"contracts/CrowdSourcing.sol\":5242:5251  msg.value */\n      callvalue\n        /* \"contracts/CrowdSourcing.sol\":5266:5273  project */\n      dup5\n        /* \"contracts/CrowdSourcing.sol\":5266:5285  project.totalFunded */\n      0x04\n      add\n      sload\n        /* \"contracts/CrowdSourcing.sol\":5300:5316  currentMilestone */\n      dup5\n        /* \"contracts/CrowdSourcing.sol\":5300:5328  currentMilestone.totalFunded */\n      0x02\n      add\n      sload\n        /* \"contracts/CrowdSourcing.sol\":5187:5339  ProjectFunded(... */\n      mload(0x40)\n      tag_187\n      swap5\n      swap4\n      swap3\n      swap2\n      swap1\n      tag_134\n      jump\t// in\n    tag_187:\n      mload(0x40)\n      dup1\n      swap2\n      sub\n      swap1\n      log1\n        /* \"contracts/CrowdSourcing.sol\":3141:5347  {... */\n      pop\n      pop\n        /* \"contracts/CrowdSourcing.sol\":3084:5347  function fundProject(uint projectIndex) external payable {... */\n      pop\n      jump\t// out\n        /* \"contracts/CrowdSourcing.sol\":8351:8650  function stopProject(uint projectIndex) external {... */\n    tag_48:\n        /* \"contracts/CrowdSourcing.sol\":8447:8455  sysOwner */\n      0x00\n      0x00\n      swap1\n      sload\n      swap1\n      0x0100\n      exp\n      swap1\n      div\n      0xffffffffffffffffffffffffffffffffffffffff\n      and\n        /* \"contracts/CrowdSourcing.sol\":8433:8455  msg.sender == sysOwner */\n      0xffffffffffffffffffffffffffffffffffffffff\n      and\n        /* \"contracts/CrowdSourcing.sol\":8433:8443  msg.sender */\n      caller\n        /* \"contracts/CrowdSourcing.sol\":8433:8455  msg.sender == sysOwner */\n      0xffffffffffffffffffffffffffffffffffffffff\n      and\n      eq\n        /* \"contracts/CrowdSourcing.sol\":8433:8520  msg.sender == sysOwner ||... */\n      dup1\n      tag_189\n      jumpi\n      pop\n        /* \"contracts/CrowdSourcing.sol\":8490:8498  projects */\n      0x01\n        /* \"contracts/CrowdSourcing.sol\":8499:8511  projectIndex */\n      dup2\n        /* \"contracts/CrowdSourcing.sol\":8490:8512  projects[projectIndex] */\n      dup2\n      sload\n      dup2\n      lt\n      tag_190\n      jumpi\n      tag_191\n      tag_110\n      jump\t// in\n    tag_191:\n    tag_190:\n      swap1\n      0x00\n      mstore\n      keccak256(0x00, 0x20)\n      swap1\n      0x08\n      mul\n      add\n        /* \"contracts/CrowdSourcing.sol\":8490:8520  projects[projectIndex].creator */\n      0x00\n      add\n      0x00\n      swap1\n      sload\n      swap1\n      0x0100\n      exp\n      swap1\n      div\n      0xffffffffffffffffffffffffffffffffffffffff\n      and\n        /* \"contracts/CrowdSourcing.sol\":8476:8520  msg.sender == projects[projectIndex].creator */\n      0xffffffffffffffffffffffffffffffffffffffff\n      and\n        /* \"contracts/CrowdSourcing.sol\":8476:8486  msg.sender */\n      caller\n        /* \"contracts/CrowdSourcing.sol\":8476:8520  msg.sender == projects[projectIndex].creator */\n      0xffffffffffffffffffffffffffffffffffffffff\n      and\n      eq\n        /* \"contracts/CrowdSourcing.sol\":8433:8520  msg.sender == sysOwner ||... */\n    tag_189:\n        /* \"contracts/CrowdSourcing.sol\":8411:8600  require(... */\n      tag_193\n      jumpi\n      mload(0x40)\n      0x08c379a000000000000000000000000000000000000000000000000000000000\n      dup2\n      mstore\n      0x04\n      add\n      tag_194\n      swap1\n      tag_195\n      jump\t// in\n    tag_194:\n      mload(0x40)\n      dup1\n      swap2\n      sub\n      swap1\n      revert\n    tag_193:\n        /* \"contracts/CrowdSourcing.sol\":8611:8642  stopProjectHelper(projectIndex) */\n      tag_196\n        /* \"contracts/CrowdSourcing.sol\":8629:8641  projectIndex */\n      dup2\n        /* \"contracts/CrowdSourcing.sol\":8611:8628  stopProjectHelper */\n      tag_197\n        /* \"contracts/CrowdSourcing.sol\":8611:8642  stopProjectHelper(projectIndex) */\n      jump\t// in\n    tag_196:\n        /* \"contracts/CrowdSourcing.sol\":8351:8650  function stopProject(uint projectIndex) external {... */\n      pop\n      jump\t// out\n        /* \"contracts/CrowdSourcing.sol\":10687:11194  function deactivateProjectsWithExpiredDeadlines() external {... */\n    tag_51:\n        /* \"contracts/CrowdSourcing.sol\":10779:10787  sysOwner */\n      0x00\n      0x00\n      swap1\n      sload\n      swap1\n      0x0100\n      exp\n      swap1\n      div\n      0xffffffffffffffffffffffffffffffffffffffff\n      and\n        /* \"contracts/CrowdSourcing.sol\":10765:10787  msg.sender == sysOwner */\n      0xffffffffffffffffffffffffffffffffffffffff\n      and\n        /* \"contracts/CrowdSourcing.sol\":10765:10775  msg.sender */\n      caller\n        /* \"contracts/CrowdSourcing.sol\":10765:10787  msg.sender == sysOwner */\n      0xffffffffffffffffffffffffffffffffffffffff\n      and\n      eq\n        /* \"contracts/CrowdSourcing.sol\":10757:10829  require(msg.sender == sysOwner, \"Only sysOwner can deactivate projects\") */\n      tag_199\n      jumpi\n      mload(0x40)\n      0x08c379a000000000000000000000000000000000000000000000000000000000\n      dup2\n      mstore\n      0x04\n      add\n      tag_200\n      swap1\n      tag_201\n      jump\t// in\n    tag_200:\n      mload(0x40)\n      dup1\n      swap2\n      sub\n      swap1\n      revert\n    tag_199:\n        /* \"contracts/CrowdSourcing.sol\":10844:10850  uint i */\n      0x00\n        /* \"contracts/CrowdSourcing.sol\":10851:10852  0 */\n      0x00\n        /* \"contracts/CrowdSourcing.sol\":10844:10852  uint i=0 */\n      swap1\n      pop\n        /* \"contracts/CrowdSourcing.sol\":10840:11187  for(uint i=0; i < projects.length; i++) {... */\n    tag_202:\n        /* \"contracts/CrowdSourcing.sol\":10858:10866  projects */\n      0x01\n        /* \"contracts/CrowdSourcing.sol\":10858:10873  projects.length */\n      dup1\n      sload\n      swap1\n      pop\n        /* \"contracts/CrowdSourcing.sol\":10854:10855  i */\n      dup2\n        /* \"contracts/CrowdSourcing.sol\":10854:10873  i < projects.length */\n      lt\n        /* \"contracts/CrowdSourcing.sol\":10840:11187  for(uint i=0; i < projects.length; i++) {... */\n      iszero\n      tag_203\n      jumpi\n        /* \"contracts/CrowdSourcing.sol\":10895:10918  Project storage project */\n      0x00\n        /* \"contracts/CrowdSourcing.sol\":10921:10929  projects */\n      0x01\n        /* \"contracts/CrowdSourcing.sol\":10930:10931  i */\n      dup3\n        /* \"contracts/CrowdSourcing.sol\":10921:10932  projects[i] */\n      dup2\n      sload\n      dup2\n      lt\n      tag_205\n      jumpi\n      tag_206\n      tag_110\n      jump\t// in\n    tag_206:\n    tag_205:\n      swap1\n      0x00\n      mstore\n      keccak256(0x00, 0x20)\n      swap1\n      0x08\n      mul\n      add\n        /* \"contracts/CrowdSourcing.sol\":10895:10932  Project storage project = projects[i] */\n      swap1\n      pop\n        /* \"contracts/CrowdSourcing.sol\":10947:10981  Milestone storage currentMilestone */\n      0x00\n        /* \"contracts/CrowdSourcing.sol\":10984:10991  project */\n      dup2\n        /* \"contracts/CrowdSourcing.sol\":10984:11002  project.milestones */\n      0x06\n      add\n        /* \"contracts/CrowdSourcing.sol\":11003:11010  project */\n      dup3\n        /* \"contracts/CrowdSourcing.sol\":11003:11032  project.currentMilestoneIndex */\n      0x05\n      add\n      sload\n        /* \"contracts/CrowdSourcing.sol\":10984:11033  project.milestones[project.currentMilestoneIndex] */\n      dup2\n      sload\n      dup2\n      lt\n      tag_208\n      jumpi\n      tag_209\n      tag_110\n      jump\t// in\n    tag_209:\n    tag_208:\n      swap1\n      0x00\n      mstore\n      keccak256(0x00, 0x20)\n      swap1\n      0x06\n      mul\n      add\n        /* \"contracts/CrowdSourcing.sol\":10947:11033  Milestone storage currentMilestone = project.milestones[project.currentMilestoneIndex] */\n      swap1\n      pop\n        /* \"contracts/CrowdSourcing.sol\":11051:11058  project */\n      dup2\n        /* \"contracts/CrowdSourcing.sol\":11051:11067  project.isActive */\n      0x07\n      add\n      0x00\n      swap1\n      sload\n      swap1\n      0x0100\n      exp\n      swap1\n      div\n      0xff\n      and\n        /* \"contracts/CrowdSourcing.sol\":11051:11119  project.isActive && currentMilestone.info.deadline < block.timestamp */\n      dup1\n      iszero\n      tag_211\n      jumpi\n      pop\n        /* \"contracts/CrowdSourcing.sol\":11104:11119  block.timestamp */\n      timestamp\n        /* \"contracts/CrowdSourcing.sol\":11071:11087  currentMilestone */\n      dup2\n        /* \"contracts/CrowdSourcing.sol\":11071:11092  currentMilestone.info */\n      0x00\n      add\n        /* \"contracts/CrowdSourcing.sol\":11071:11101  currentMilestone.info.deadline */\n      0x01\n      add\n      sload\n        /* \"contracts/CrowdSourcing.sol\":11071:11119  currentMilestone.info.deadline < block.timestamp */\n      lt\n        /* \"contracts/CrowdSourcing.sol\":11051:11119  project.isActive && currentMilestone.info.deadline < block.timestamp */\n    tag_211:\n        /* \"contracts/CrowdSourcing.sol\":11048:11176  if(project.isActive && currentMilestone.info.deadline < block.timestamp) {... */\n      iszero\n      tag_212\n      jumpi\n        /* \"contracts/CrowdSourcing.sol\":11140:11160  stopProjectHelper(i) */\n      tag_213\n        /* \"contracts/CrowdSourcing.sol\":11158:11159  i */\n      dup4\n        /* \"contracts/CrowdSourcing.sol\":11140:11157  stopProjectHelper */\n      tag_197\n        /* \"contracts/CrowdSourcing.sol\":11140:11160  stopProjectHelper(i) */\n      jump\t// in\n    tag_213:\n        /* \"contracts/CrowdSourcing.sol\":11048:11176  if(project.isActive && currentMilestone.info.deadline < block.timestamp) {... */\n    tag_212:\n        /* \"contracts/CrowdSourcing.sol\":10880:11187  {... */\n      pop\n      pop\n        /* \"contracts/CrowdSourcing.sol\":10875:10878  i++ */\n      dup1\n      dup1\n      0x01\n      add\n      swap2\n      pop\n      pop\n        /* \"contracts/CrowdSourcing.sol\":10840:11187  for(uint i=0; i < projects.length; i++) {... */\n      jump(tag_202)\n    tag_203:\n      pop\n        /* \"contracts/CrowdSourcing.sol\":10687:11194  function deactivateProjectsWithExpiredDeadlines() external {... */\n      jump\t// out\n        /* \"contracts/CrowdSourcing.sol\":8961:10679  function addNewMilestones(uint projectIndex, MilestoneInfo[] memory milestones) public {... */\n    tag_56:\n        /* \"contracts/CrowdSourcing.sol\":9082:9090  projects */\n      0x01\n        /* \"contracts/CrowdSourcing.sol\":9082:9097  projects.length */\n      dup1\n      sload\n      swap1\n      pop\n        /* \"contracts/CrowdSourcing.sol\":9067:9079  projectIndex */\n      dup3\n        /* \"contracts/CrowdSourcing.sol\":9067:9097  projectIndex < projects.length */\n      lt\n        /* \"contracts/CrowdSourcing.sol\":9059:9124  require(projectIndex < projects.length, \"Invalid projects index\") */\n      tag_215\n      jumpi\n      mload(0x40)\n      0x08c379a000000000000000000000000000000000000000000000000000000000\n      dup2\n      mstore\n      0x04\n      add\n      tag_216\n      swap1\n      tag_120\n      jump\t// in\n    tag_216:\n      mload(0x40)\n      dup1\n      swap2\n      sub\n      swap1\n      revert\n    tag_215:\n        /* \"contracts/CrowdSourcing.sol\":9135:9158  Project storage project */\n      0x00\n        /* \"contracts/CrowdSourcing.sol\":9161:9169  projects */\n      0x01\n        /* \"contracts/CrowdSourcing.sol\":9170:9182  projectIndex */\n      dup4\n        /* \"contracts/CrowdSourcing.sol\":9161:9183  projects[projectIndex] */\n      dup2\n      sload\n      dup2\n      lt\n      tag_217\n      jumpi\n      tag_218\n      tag_110\n      jump\t// in\n    tag_218:\n    tag_217:\n      swap1\n      0x00\n      mstore\n      keccak256(0x00, 0x20)\n      swap1\n      0x08\n      mul\n      add\n        /* \"contracts/CrowdSourcing.sol\":9135:9183  Project storage project = projects[projectIndex] */\n      swap1\n      pop\n        /* \"contracts/CrowdSourcing.sol\":9202:9209  project */\n      dup1\n        /* \"contracts/CrowdSourcing.sol\":9202:9218  project.isActive */\n      0x07\n      add\n      0x00\n      swap1\n      sload\n      swap1\n      0x0100\n      exp\n      swap1\n      div\n      0xff\n      and\n        /* \"contracts/CrowdSourcing.sol\":9194:9268  require(project.isActive, \"Cannot add new milestones to inactive project\") */\n      tag_220\n      jumpi\n      mload(0x40)\n      0x08c379a000000000000000000000000000000000000000000000000000000000\n      dup2\n      mstore\n      0x04\n      add\n      tag_221\n      swap1\n      tag_222\n      jump\t// in\n    tag_221:\n      mload(0x40)\n      dup1\n      swap2\n      sub\n      swap1\n      revert\n    tag_220:\n        /* \"contracts/CrowdSourcing.sol\":9306:9316  msg.sender */\n      caller\n        /* \"contracts/CrowdSourcing.sol\":9287:9316  project.creator == msg.sender */\n      0xffffffffffffffffffffffffffffffffffffffff\n      and\n        /* \"contracts/CrowdSourcing.sol\":9287:9294  project */\n      dup2\n        /* \"contracts/CrowdSourcing.sol\":9287:9302  project.creator */\n      0x00\n      add\n      0x00\n      swap1\n      sload\n      swap1\n      0x0100\n      exp\n      swap1\n      div\n      0xffffffffffffffffffffffffffffffffffffffff\n      and\n        /* \"contracts/CrowdSourcing.sol\":9287:9316  project.creator == msg.sender */\n      0xffffffffffffffffffffffffffffffffffffffff\n      and\n      eq\n        /* \"contracts/CrowdSourcing.sol\":9279:9364  require(project.creator == msg.sender, \"Only project creator can add new milestones\") */\n      tag_223\n      jumpi\n      mload(0x40)\n      0x08c379a000000000000000000000000000000000000000000000000000000000\n      dup2\n      mstore\n      0x04\n      add\n      tag_224\n      swap1\n      tag_225\n      jump\t// in\n    tag_224:\n      mload(0x40)\n      dup1\n      swap2\n      sub\n      swap1\n      revert\n    tag_223:\n        /* \"contracts/CrowdSourcing.sol\":9403:9404  0 */\n      0x00\n        /* \"contracts/CrowdSourcing.sol\":9383:9393  milestones */\n      dup3\n        /* \"contracts/CrowdSourcing.sol\":9383:9400  milestones.length */\n      mload\n        /* \"contracts/CrowdSourcing.sol\":9383:9404  milestones.length > 0 */\n      gt\n        /* \"contracts/CrowdSourcing.sol\":9375:9441  require(milestones.length > 0, \"Must have at least one milestone\") */\n      tag_226\n      jumpi\n      mload(0x40)\n      0x08c379a000000000000000000000000000000000000000000000000000000000\n      dup2\n      mstore\n      0x04\n      add\n      tag_227\n      swap1\n      tag_228\n      jump\t// in\n    tag_227:\n      mload(0x40)\n      dup1\n      swap2\n      sub\n      swap1\n      revert\n    tag_226:\n        /* \"contracts/CrowdSourcing.sol\":9456:9462  uint i */\n      0x00\n        /* \"contracts/CrowdSourcing.sol\":9463:9464  0 */\n      0x00\n        /* \"contracts/CrowdSourcing.sol\":9456:9464  uint i=0 */\n      swap1\n      pop\n        /* \"contracts/CrowdSourcing.sol\":9452:10672  for(uint i=0; i<milestones.length; i++) {   ... */\n    tag_229:\n        /* \"contracts/CrowdSourcing.sol\":9468:9478  milestones */\n      dup3\n        /* \"contracts/CrowdSourcing.sol\":9468:9485  milestones.length */\n      mload\n        /* \"contracts/CrowdSourcing.sol\":9466:9467  i */\n      dup2\n        /* \"contracts/CrowdSourcing.sol\":9466:9485  i<milestones.length */\n      lt\n        /* \"contracts/CrowdSourcing.sol\":9452:10672  for(uint i=0; i<milestones.length; i++) {   ... */\n      iszero\n      tag_230\n      jumpi\n        /* \"contracts/CrowdSourcing.sol\":9545:9546  0 */\n      0x00\n        /* \"contracts/CrowdSourcing.sol\":9518:9528  milestones */\n      dup4\n        /* \"contracts/CrowdSourcing.sol\":9529:9530  i */\n      dup3\n        /* \"contracts/CrowdSourcing.sol\":9518:9531  milestones[i] */\n      dup2\n      mload\n      dup2\n      lt\n      tag_232\n      jumpi\n      tag_233\n      tag_110\n      jump\t// in\n    tag_233:\n    tag_232:\n      0x20\n      mul\n      0x20\n      add\n      add\n      mload\n        /* \"contracts/CrowdSourcing.sol\":9518:9542  milestones[i].goalAmount */\n      0x00\n      add\n      mload\n        /* \"contracts/CrowdSourcing.sol\":9518:9546  milestones[i].goalAmount > 0 */\n      gt\n        /* \"contracts/CrowdSourcing.sol\":9510:9573  require(milestones[i].goalAmount > 0, \"Goal amount can't be 0\") */\n      tag_234\n      jumpi\n      mload(0x40)\n      0x08c379a000000000000000000000000000000000000000000000000000000000\n      dup2\n      mstore\n      0x04\n      add\n      tag_235\n      swap1\n      tag_236\n      jump\t// in\n    tag_235:\n      mload(0x40)\n      dup1\n      swap2\n      sub\n      swap1\n      revert\n    tag_234:\n        /* \"contracts/CrowdSourcing.sol\":9639:9654  block.timestamp */\n      timestamp\n        /* \"contracts/CrowdSourcing.sol\":9614:9624  milestones */\n      dup4\n        /* \"contracts/CrowdSourcing.sol\":9625:9626  i */\n      dup3\n        /* \"contracts/CrowdSourcing.sol\":9614:9627  milestones[i] */\n      dup2\n      mload\n      dup2\n      lt\n      tag_237\n      jumpi\n      tag_238\n      tag_110\n      jump\t// in\n    tag_238:\n    tag_237:\n      0x20\n      mul\n      0x20\n      add\n      add\n      mload\n        /* \"contracts/CrowdSourcing.sol\":9614:9636  milestones[i].deadline */\n      0x20\n      add\n      mload\n        /* \"contracts/CrowdSourcing.sol\":9614:9654  milestones[i].deadline > block.timestamp */\n      gt\n        /* \"contracts/CrowdSourcing.sol\":9588:9719  require(... */\n      tag_239\n      jumpi\n      mload(0x40)\n      0x08c379a000000000000000000000000000000000000000000000000000000000\n      dup2\n      mstore\n      0x04\n      add\n      tag_240\n      swap1\n      tag_241\n      jump\t// in\n    tag_240:\n      mload(0x40)\n      dup1\n      swap2\n      sub\n      swap1\n      revert\n    tag_239:\n        /* \"contracts/CrowdSourcing.sol\":9741:9742  0 */\n      0x00\n        /* \"contracts/CrowdSourcing.sol\":9737:9738  i */\n      dup2\n        /* \"contracts/CrowdSourcing.sol\":9737:9742  i > 0 */\n      gt\n        /* \"contracts/CrowdSourcing.sol\":9734:10001  if(i > 0){... */\n      iszero\n      tag_242\n      jumpi\n        /* \"contracts/CrowdSourcing.sol\":9797:9807  milestones */\n      dup3\n        /* \"contracts/CrowdSourcing.sol\":9810:9811  1 */\n      0x01\n        /* \"contracts/CrowdSourcing.sol\":9808:9809  i */\n      dup3\n        /* \"contracts/CrowdSourcing.sol\":9808:9811  i-1 */\n      tag_243\n      swap2\n      swap1\n      tag_103\n      jump\t// in\n    tag_243:\n        /* \"contracts/CrowdSourcing.sol\":9797:9812  milestones[i-1] */\n      dup2\n      mload\n      dup2\n      lt\n      tag_244\n      jumpi\n      tag_245\n      tag_110\n      jump\t// in\n    tag_245:\n    tag_244:\n      0x20\n      mul\n      0x20\n      add\n      add\n      mload\n        /* \"contracts/CrowdSourcing.sol\":9797:9823  milestones[i-1].goalAmount */\n      0x00\n      add\n      mload\n        /* \"contracts/CrowdSourcing.sol\":9770:9780  milestones */\n      dup4\n        /* \"contracts/CrowdSourcing.sol\":9781:9782  i */\n      dup3\n        /* \"contracts/CrowdSourcing.sol\":9770:9783  milestones[i] */\n      dup2\n      mload\n      dup2\n      lt\n      tag_246\n      jumpi\n      tag_247\n      tag_110\n      jump\t// in\n    tag_247:\n    tag_246:\n      0x20\n      mul\n      0x20\n      add\n      add\n      mload\n        /* \"contracts/CrowdSourcing.sol\":9770:9794  milestones[i].goalAmount */\n      0x00\n      add\n      mload\n        /* \"contracts/CrowdSourcing.sol\":9770:9823  milestones[i].goalAmount > milestones[i-1].goalAmount */\n      gt\n        /* \"contracts/CrowdSourcing.sol\":9762:9864  require(milestones[i].goalAmount > milestones[i-1].goalAmount, \"Milestone goals should be increasing\") */\n      tag_248\n      jumpi\n      mload(0x40)\n      0x08c379a000000000000000000000000000000000000000000000000000000000\n      dup2\n      mstore\n      0x04\n      add\n      tag_249\n      swap1\n      tag_250\n      jump\t// in\n    tag_249:\n      mload(0x40)\n      dup1\n      swap2\n      sub\n      swap1\n      revert\n    tag_248:\n        /* \"contracts/CrowdSourcing.sol\":9916:9926  milestones */\n      dup3\n        /* \"contracts/CrowdSourcing.sol\":9929:9930  1 */\n      0x01\n        /* \"contracts/CrowdSourcing.sol\":9927:9928  i */\n      dup3\n        /* \"contracts/CrowdSourcing.sol\":9927:9930  i-1 */\n      tag_251\n      swap2\n      swap1\n      tag_103\n      jump\t// in\n    tag_251:\n        /* \"contracts/CrowdSourcing.sol\":9916:9931  milestones[i-1] */\n      dup2\n      mload\n      dup2\n      lt\n      tag_252\n      jumpi\n      tag_253\n      tag_110\n      jump\t// in\n    tag_253:\n    tag_252:\n      0x20\n      mul\n      0x20\n      add\n      add\n      mload\n        /* \"contracts/CrowdSourcing.sol\":9916:9940  milestones[i-1].deadline */\n      0x20\n      add\n      mload\n        /* \"contracts/CrowdSourcing.sol\":9891:9901  milestones */\n      dup4\n        /* \"contracts/CrowdSourcing.sol\":9902:9903  i */\n      dup3\n        /* \"contracts/CrowdSourcing.sol\":9891:9904  milestones[i] */\n      dup2\n      mload\n      dup2\n      lt\n      tag_254\n      jumpi\n      tag_255\n      tag_110\n      jump\t// in\n    tag_255:\n    tag_254:\n      0x20\n      mul\n      0x20\n      add\n      add\n      mload\n        /* \"contracts/CrowdSourcing.sol\":9891:9913  milestones[i].deadline */\n      0x20\n      add\n      mload\n        /* \"contracts/CrowdSourcing.sol\":9891:9940  milestones[i].deadline > milestones[i-1].deadline */\n      gt\n        /* \"contracts/CrowdSourcing.sol\":9883:9985  require(milestones[i].deadline > milestones[i-1].deadline, \"Milestone deadlines should be increasing\") */\n      tag_256\n      jumpi\n      mload(0x40)\n      0x08c379a000000000000000000000000000000000000000000000000000000000\n      dup2\n      mstore\n      0x04\n      add\n      tag_257\n      swap1\n      tag_258\n      jump\t// in\n    tag_257:\n      mload(0x40)\n      dup1\n      swap2\n      sub\n      swap1\n      revert\n    tag_256:\n        /* \"contracts/CrowdSourcing.sol\":9734:10001  if(i > 0){... */\n    tag_242:\n        /* \"contracts/CrowdSourcing.sol\":10046:10047  0 */\n      0x00\n        /* \"contracts/CrowdSourcing.sol\":10018:10025  project */\n      dup3\n        /* \"contracts/CrowdSourcing.sol\":10018:10036  project.milestones */\n      0x06\n      add\n        /* \"contracts/CrowdSourcing.sol\":10018:10043  project.milestones.length */\n      dup1\n      sload\n      swap1\n      pop\n        /* \"contracts/CrowdSourcing.sol\":10018:10047  project.milestones.length > 0 */\n      gt\n        /* \"contracts/CrowdSourcing.sol\":10015:10381  if(project.milestones.length > 0) {... */\n      iszero\n      tag_259\n      jumpi\n        /* \"contracts/CrowdSourcing.sol\":10103:10110  project */\n      dup2\n        /* \"contracts/CrowdSourcing.sol\":10103:10121  project.milestones */\n      0x06\n      add\n        /* \"contracts/CrowdSourcing.sol\":10148:10149  1 */\n      0x01\n        /* \"contracts/CrowdSourcing.sol\":10122:10129  project */\n      dup4\n        /* \"contracts/CrowdSourcing.sol\":10122:10140  project.milestones */\n      0x06\n      add\n        /* \"contracts/CrowdSourcing.sol\":10122:10147  project.milestones.length */\n      dup1\n      sload\n      swap1\n      pop\n        /* \"contracts/CrowdSourcing.sol\":10122:10149  project.milestones.length-1 */\n      tag_260\n      swap2\n      swap1\n      tag_103\n      jump\t// in\n    tag_260:\n        /* \"contracts/CrowdSourcing.sol\":10103:10150  project.milestones[project.milestones.length-1] */\n      dup2\n      sload\n      dup2\n      lt\n      tag_261\n      jumpi\n      tag_262\n      tag_110\n      jump\t// in\n    tag_262:\n    tag_261:\n      swap1\n      0x00\n      mstore\n      keccak256(0x00, 0x20)\n      swap1\n      0x06\n      mul\n      add\n        /* \"contracts/CrowdSourcing.sol\":10103:10155  project.milestones[project.milestones.length-1].info */\n      0x00\n      add\n        /* \"contracts/CrowdSourcing.sol\":10103:10166  project.milestones[project.milestones.length-1].info.goalAmount */\n      0x00\n      add\n      sload\n        /* \"contracts/CrowdSourcing.sol\":10076:10086  milestones */\n      dup4\n        /* \"contracts/CrowdSourcing.sol\":10087:10088  i */\n      dup3\n        /* \"contracts/CrowdSourcing.sol\":10076:10089  milestones[i] */\n      dup2\n      mload\n      dup2\n      lt\n      tag_264\n      jumpi\n      tag_265\n      tag_110\n      jump\t// in\n    tag_265:\n    tag_264:\n      0x20\n      mul\n      0x20\n      add\n      add\n      mload\n        /* \"contracts/CrowdSourcing.sol\":10076:10100  milestones[i].goalAmount */\n      0x00\n      add\n      mload\n        /* \"contracts/CrowdSourcing.sol\":10076:10166  milestones[i].goalAmount > project.milestones[project.milestones.length-1].info.goalAmount */\n      gt\n        /* \"contracts/CrowdSourcing.sol\":10068:10207  require(milestones[i].goalAmount > project.milestones[project.milestones.length-1].info.goalAmount, \"Milestone goals should be increasing\") */\n      tag_266\n      jumpi\n      mload(0x40)\n      0x08c379a000000000000000000000000000000000000000000000000000000000\n      dup2\n      mstore\n      0x04\n      add\n      tag_267\n      swap1\n      tag_250\n      jump\t// in\n    tag_267:\n      mload(0x40)\n      dup1\n      swap2\n      sub\n      swap1\n      revert\n    tag_266:\n        /* \"contracts/CrowdSourcing.sol\":10259:10266  project */\n      dup2\n        /* \"contracts/CrowdSourcing.sol\":10259:10277  project.milestones */\n      0x06\n      add\n        /* \"contracts/CrowdSourcing.sol\":10304:10305  1 */\n      0x01\n        /* \"contracts/CrowdSourcing.sol\":10278:10285  project */\n      dup4\n        /* \"contracts/CrowdSourcing.sol\":10278:10296  project.milestones */\n      0x06\n      add\n        /* \"contracts/CrowdSourcing.sol\":10278:10303  project.milestones.length */\n      dup1\n      sload\n      swap1\n      pop\n        /* \"contracts/CrowdSourcing.sol\":10278:10305  project.milestones.length-1 */\n      tag_268\n      swap2\n      swap1\n      tag_103\n      jump\t// in\n    tag_268:\n        /* \"contracts/CrowdSourcing.sol\":10259:10306  project.milestones[project.milestones.length-1] */\n      dup2\n      sload\n      dup2\n      lt\n      tag_269\n      jumpi\n      tag_270\n      tag_110\n      jump\t// in\n    tag_270:\n    tag_269:\n      swap1\n      0x00\n      mstore\n      keccak256(0x00, 0x20)\n      swap1\n      0x06\n      mul\n      add\n        /* \"contracts/CrowdSourcing.sol\":10259:10311  project.milestones[project.milestones.length-1].info */\n      0x00\n      add\n        /* \"contracts/CrowdSourcing.sol\":10259:10320  project.milestones[project.milestones.length-1].info.deadline */\n      0x01\n      add\n      sload\n        /* \"contracts/CrowdSourcing.sol\":10234:10244  milestones */\n      dup4\n        /* \"contracts/CrowdSourcing.sol\":10245:10246  i */\n      dup3\n        /* \"contracts/CrowdSourcing.sol\":10234:10247  milestones[i] */\n      dup2\n      mload\n      dup2\n      lt\n      tag_272\n      jumpi\n      tag_273\n      tag_110\n      jump\t// in\n    tag_273:\n    tag_272:\n      0x20\n      mul\n      0x20\n      add\n      add\n      mload\n        /* \"contracts/CrowdSourcing.sol\":10234:10256  milestones[i].deadline */\n      0x20\n      add\n      mload\n        /* \"contracts/CrowdSourcing.sol\":10234:10320  milestones[i].deadline > project.milestones[project.milestones.length-1].info.deadline */\n      gt\n        /* \"contracts/CrowdSourcing.sol\":10226:10365  require(milestones[i].deadline > project.milestones[project.milestones.length-1].info.deadline, \"Milestone deadlines should be increasing\") */\n      tag_274\n      jumpi\n      mload(0x40)\n      0x08c379a000000000000000000000000000000000000000000000000000000000\n      dup2\n      mstore\n      0x04\n      add\n      tag_275\n      swap1\n      tag_258\n      jump\t// in\n    tag_275:\n      mload(0x40)\n      dup1\n      swap2\n      sub\n      swap1\n      revert\n    tag_274:\n        /* \"contracts/CrowdSourcing.sol\":10015:10381  if(project.milestones.length > 0) {... */\n    tag_259:\n        /* \"contracts/CrowdSourcing.sol\":10395:10422  Milestone storage milestone */\n      0x00\n        /* \"contracts/CrowdSourcing.sol\":10425:10432  project */\n      dup3\n        /* \"contracts/CrowdSourcing.sol\":10425:10443  project.milestones */\n      0x06\n      add\n        /* \"contracts/CrowdSourcing.sol\":10425:10450  project.milestones.push() */\n      0x01\n      dup2\n      0x01\n      dup2\n      sload\n      add\n      dup1\n      dup3\n      sstore\n      dup1\n      swap2\n      pop\n      pop\n      sub\n      swap1\n      0x00\n      mstore\n      keccak256(0x00, 0x20)\n      swap1\n      0x06\n      mul\n      add\n        /* \"contracts/CrowdSourcing.sol\":10395:10450  Milestone storage milestone = project.milestones.push() */\n      swap1\n      pop\n        /* \"contracts/CrowdSourcing.sol\":10493:10503  milestones */\n      dup4\n        /* \"contracts/CrowdSourcing.sol\":10504:10505  i */\n      dup3\n        /* \"contracts/CrowdSourcing.sol\":10493:10506  milestones[i] */\n      dup2\n      mload\n      dup2\n      lt\n      tag_277\n      jumpi\n      tag_278\n      tag_110\n      jump\t// in\n    tag_278:\n    tag_277:\n      0x20\n      mul\n      0x20\n      add\n      add\n      mload\n        /* \"contracts/CrowdSourcing.sol\":10493:10517  milestones[i].goalAmount */\n      0x00\n      add\n      mload\n        /* \"contracts/CrowdSourcing.sol\":10465:10474  milestone */\n      dup2\n        /* \"contracts/CrowdSourcing.sol\":10465:10479  milestone.info */\n      0x00\n      add\n        /* \"contracts/CrowdSourcing.sol\":10465:10490  milestone.info.goalAmount */\n      0x00\n      add\n        /* \"contracts/CrowdSourcing.sol\":10465:10517  milestone.info.goalAmount = milestones[i].goalAmount */\n      dup2\n      swap1\n      sstore\n      pop\n        /* \"contracts/CrowdSourcing.sol\":10558:10568  milestones */\n      dup4\n        /* \"contracts/CrowdSourcing.sol\":10569:10570  i */\n      dup3\n        /* \"contracts/CrowdSourcing.sol\":10558:10571  milestones[i] */\n      dup2\n      mload\n      dup2\n      lt\n      tag_279\n      jumpi\n      tag_280\n      tag_110\n      jump\t// in\n    tag_280:\n    tag_279:\n      0x20\n      mul\n      0x20\n      add\n      add\n      mload\n        /* \"contracts/CrowdSourcing.sol\":10558:10580  milestones[i].deadline */\n      0x20\n      add\n      mload\n        /* \"contracts/CrowdSourcing.sol\":10532:10541  milestone */\n      dup2\n        /* \"contracts/CrowdSourcing.sol\":10532:10546  milestone.info */\n      0x00\n      add\n        /* \"contracts/CrowdSourcing.sol\":10532:10555  milestone.info.deadline */\n      0x01\n      add\n        /* \"contracts/CrowdSourcing.sol\":10532:10580  milestone.info.deadline = milestones[i].deadline */\n      dup2\n      swap1\n      sstore\n      pop\n        /* \"contracts/CrowdSourcing.sol\":10619:10620  0 */\n      0x00\n        /* \"contracts/CrowdSourcing.sol\":10595:10604  milestone */\n      dup2\n        /* \"contracts/CrowdSourcing.sol\":10595:10616  milestone.totalFunded */\n      0x02\n      add\n        /* \"contracts/CrowdSourcing.sol\":10595:10620  milestone.totalFunded = 0 */\n      dup2\n      swap1\n      sstore\n      pop\n        /* \"contracts/CrowdSourcing.sol\":10655:10660  false */\n      0x00\n        /* \"contracts/CrowdSourcing.sol\":10635:10644  milestone */\n      dup2\n        /* \"contracts/CrowdSourcing.sol\":10635:10652  milestone.reached */\n      0x05\n      add\n      0x00\n        /* \"contracts/CrowdSourcing.sol\":10635:10660  milestone.reached = false */\n      0x0100\n      exp\n      dup2\n      sload\n      dup2\n      0xff\n      mul\n      not\n      and\n      swap1\n      dup4\n      iszero\n      iszero\n      mul\n      or\n      swap1\n      sstore\n      pop\n        /* \"contracts/CrowdSourcing.sol\":9492:10672  {   ... */\n      pop\n        /* \"contracts/CrowdSourcing.sol\":9487:9490  i++ */\n      dup1\n      dup1\n      0x01\n      add\n      swap2\n      pop\n      pop\n        /* \"contracts/CrowdSourcing.sol\":9452:10672  for(uint i=0; i<milestones.length; i++) {   ... */\n      jump(tag_229)\n    tag_230:\n      pop\n        /* \"contracts/CrowdSourcing.sol\":9048:10679  {... */\n      pop\n        /* \"contracts/CrowdSourcing.sol\":8961:10679  function addNewMilestones(uint projectIndex, MilestoneInfo[] memory milestones) public {... */\n      pop\n      pop\n      jump\t// out\n        /* \"contracts/CrowdSourcing.sol\":11217:11529  function getCurrentMilestoneInfo(uint projectIndex) external view returns (MilestoneInfo memory) {... */\n    tag_60:\n        /* \"contracts/CrowdSourcing.sol\":11292:11312  MilestoneInfo memory */\n      tag_281\n      tag_282\n      jump\t// in\n    tag_281:\n        /* \"contracts/CrowdSourcing.sol\":11348:11356  projects */\n      0x01\n        /* \"contracts/CrowdSourcing.sol\":11348:11363  projects.length */\n      dup1\n      sload\n      swap1\n      pop\n        /* \"contracts/CrowdSourcing.sol\":11333:11345  projectIndex */\n      dup3\n        /* \"contracts/CrowdSourcing.sol\":11333:11363  projectIndex < projects.length */\n      lt\n        /* \"contracts/CrowdSourcing.sol\":11325:11390  require(projectIndex < projects.length, \"Invalid projects index\") */\n      tag_284\n      jumpi\n      mload(0x40)\n      0x08c379a000000000000000000000000000000000000000000000000000000000\n      dup2\n      mstore\n      0x04\n      add\n      tag_285\n      swap1\n      tag_120\n      jump\t// in\n    tag_285:\n      mload(0x40)\n      dup1\n      swap2\n      sub\n      swap1\n      revert\n    tag_284:\n        /* \"contracts/CrowdSourcing.sol\":11401:11424  Project storage project */\n      0x00\n        /* \"contracts/CrowdSourcing.sol\":11427:11435  projects */\n      0x01\n        /* \"contracts/CrowdSourcing.sol\":11436:11448  projectIndex */\n      dup4\n        /* \"contracts/CrowdSourcing.sol\":11427:11449  projects[projectIndex] */\n      dup2\n      sload\n      dup2\n      lt\n      tag_286\n      jumpi\n      tag_287\n      tag_110\n      jump\t// in\n    tag_287:\n    tag_286:\n      swap1\n      0x00\n      mstore\n      keccak256(0x00, 0x20)\n      swap1\n      0x08\n      mul\n      add\n        /* \"contracts/CrowdSourcing.sol\":11401:11449  Project storage project = projects[projectIndex] */\n      swap1\n      pop\n        /* \"contracts/CrowdSourcing.sol\":11467:11474  project */\n      dup1\n        /* \"contracts/CrowdSourcing.sol\":11467:11485  project.milestones */\n      0x06\n      add\n        /* \"contracts/CrowdSourcing.sol\":11486:11493  project */\n      dup2\n        /* \"contracts/CrowdSourcing.sol\":11486:11515  project.currentMilestoneIndex */\n      0x05\n      add\n      sload\n        /* \"contracts/CrowdSourcing.sol\":11467:11516  project.milestones[project.currentMilestoneIndex] */\n      dup2\n      sload\n      dup2\n      lt\n      tag_289\n      jumpi\n      tag_290\n      tag_110\n      jump\t// in\n    tag_290:\n    tag_289:\n      swap1\n      0x00\n      mstore\n      keccak256(0x00, 0x20)\n      swap1\n      0x06\n      mul\n      add\n        /* \"contracts/CrowdSourcing.sol\":11467:11521  project.milestones[project.currentMilestoneIndex].info */\n      0x00\n      add\n        /* \"contracts/CrowdSourcing.sol\":11460:11521  return project.milestones[project.currentMilestoneIndex].info */\n      mload(0x40)\n      dup1\n      0x40\n      add\n      0x40\n      mstore\n      swap1\n      dup2\n      0x00\n      dup3\n      add\n      sload\n      dup2\n      mstore\n      0x20\n      add\n      0x01\n      dup3\n      add\n      sload\n      dup2\n      mstore\n      pop\n      pop\n      swap2\n      pop\n      pop\n        /* \"contracts/CrowdSourcing.sol\":11217:11529  function getCurrentMilestoneInfo(uint projectIndex) external view returns (MilestoneInfo memory) {... */\n      swap2\n      swap1\n      pop\n      jump\t// out\n        /* \"contracts/CrowdSourcing.sol\":11854:12359  function getallMilestonesInfo(uint projectIndex) external view returns (MilestoneInfo[] memory) {... */\n    tag_66:\n        /* \"contracts/CrowdSourcing.sol\":11926:11948  MilestoneInfo[] memory */\n      0x60\n        /* \"contracts/CrowdSourcing.sol\":11984:11992  projects */\n      0x01\n        /* \"contracts/CrowdSourcing.sol\":11984:11999  projects.length */\n      dup1\n      sload\n      swap1\n      pop\n        /* \"contracts/CrowdSourcing.sol\":11969:11981  projectIndex */\n      dup3\n        /* \"contracts/CrowdSourcing.sol\":11969:11999  projectIndex < projects.length */\n      lt\n        /* \"contracts/CrowdSourcing.sol\":11961:12026  require(projectIndex < projects.length, \"Invalid projects index\") */\n      tag_293\n      jumpi\n      mload(0x40)\n      0x08c379a000000000000000000000000000000000000000000000000000000000\n      dup2\n      mstore\n      0x04\n      add\n      tag_294\n      swap1\n      tag_120\n      jump\t// in\n    tag_294:\n      mload(0x40)\n      dup1\n      swap2\n      sub\n      swap1\n      revert\n    tag_293:\n        /* \"contracts/CrowdSourcing.sol\":12037:12060  Project storage project */\n      0x00\n        /* \"contracts/CrowdSourcing.sol\":12063:12071  projects */\n      0x01\n        /* \"contracts/CrowdSourcing.sol\":12072:12084  projectIndex */\n      dup4\n        /* \"contracts/CrowdSourcing.sol\":12063:12085  projects[projectIndex] */\n      dup2\n      sload\n      dup2\n      lt\n      tag_295\n      jumpi\n      tag_296\n      tag_110\n      jump\t// in\n    tag_296:\n    tag_295:\n      swap1\n      0x00\n      mstore\n      keccak256(0x00, 0x20)\n      swap1\n      0x08\n      mul\n      add\n        /* \"contracts/CrowdSourcing.sol\":12037:12085  Project storage project = projects[projectIndex] */\n      swap1\n      pop\n        /* \"contracts/CrowdSourcing.sol\":12096:12132  MilestoneInfo[] memory milestoneInfo */\n      0x00\n        /* \"contracts/CrowdSourcing.sol\":12155:12162  project */\n      dup2\n        /* \"contracts/CrowdSourcing.sol\":12155:12173  project.milestones */\n      0x06\n      add\n        /* \"contracts/CrowdSourcing.sol\":12155:12180  project.milestones.length */\n      dup1\n      sload\n      swap1\n      pop\n        /* \"contracts/CrowdSourcing.sol\":12135:12181  new MilestoneInfo[](project.milestones.length) */\n      0xffffffffffffffff\n      dup2\n      gt\n      iszero\n      tag_298\n      jumpi\n      tag_299\n      tag_300\n      jump\t// in\n    tag_299:\n    tag_298:\n      mload(0x40)\n      swap1\n      dup1\n      dup3\n      mstore\n      dup1\n      0x20\n      mul\n      0x20\n      add\n      dup3\n      add\n      0x40\n      mstore\n      dup1\n      iszero\n      tag_301\n      jumpi\n      dup2\n      0x20\n      add\n    tag_302:\n      tag_303\n      tag_282\n      jump\t// in\n    tag_303:\n      dup2\n      mstore\n      0x20\n      add\n      swap1\n      0x01\n      swap1\n      sub\n      swap1\n      dup2\n      tag_302\n      jumpi\n      swap1\n      pop\n    tag_301:\n      pop\n        /* \"contracts/CrowdSourcing.sol\":12096:12181  MilestoneInfo[] memory milestoneInfo = new MilestoneInfo[](project.milestones.length) */\n      swap1\n      pop\n        /* \"contracts/CrowdSourcing.sol\":12196:12202  uint i */\n      0x00\n        /* \"contracts/CrowdSourcing.sol\":12203:12204  0 */\n      0x00\n        /* \"contracts/CrowdSourcing.sol\":12196:12204  uint i=0 */\n      swap1\n      pop\n        /* \"contracts/CrowdSourcing.sol\":12192:12314  for(uint i=0; i < project.milestones.length; i++) {... */\n    tag_304:\n        /* \"contracts/CrowdSourcing.sol\":12210:12217  project */\n      dup3\n        /* \"contracts/CrowdSourcing.sol\":12210:12228  project.milestones */\n      0x06\n      add\n        /* \"contracts/CrowdSourcing.sol\":12210:12235  project.milestones.length */\n      dup1\n      sload\n      swap1\n      pop\n        /* \"contracts/CrowdSourcing.sol\":12206:12207  i */\n      dup2\n        /* \"contracts/CrowdSourcing.sol\":12206:12235  i < project.milestones.length */\n      lt\n        /* \"contracts/CrowdSourcing.sol\":12192:12314  for(uint i=0; i < project.milestones.length; i++) {... */\n      iszero\n      tag_305\n      jumpi\n        /* \"contracts/CrowdSourcing.sol\":12276:12283  project */\n      dup3\n        /* \"contracts/CrowdSourcing.sol\":12276:12294  project.milestones */\n      0x06\n      add\n        /* \"contracts/CrowdSourcing.sol\":12295:12296  i */\n      dup2\n        /* \"contracts/CrowdSourcing.sol\":12276:12297  project.milestones[i] */\n      dup2\n      sload\n      dup2\n      lt\n      tag_307\n      jumpi\n      tag_308\n      tag_110\n      jump\t// in\n    tag_308:\n    tag_307:\n      swap1\n      0x00\n      mstore\n      keccak256(0x00, 0x20)\n      swap1\n      0x06\n      mul\n      add\n        /* \"contracts/CrowdSourcing.sol\":12276:12302  project.milestones[i].info */\n      0x00\n      add\n        /* \"contracts/CrowdSourcing.sol\":12257:12302  milestoneInfo[i] = project.milestones[i].info */\n      mload(0x40)\n      dup1\n      0x40\n      add\n      0x40\n      mstore\n      swap1\n      dup2\n      0x00\n      dup3\n      add\n      sload\n      dup2\n      mstore\n      0x20\n      add\n      0x01\n      dup3\n      add\n      sload\n      dup2\n      mstore\n      pop\n      pop\n        /* \"contracts/CrowdSourcing.sol\":12257:12270  milestoneInfo */\n      dup3\n        /* \"contracts/CrowdSourcing.sol\":12271:12272  i */\n      dup3\n        /* \"contracts/CrowdSourcing.sol\":12257:12273  milestoneInfo[i] */\n      dup2\n      mload\n      dup2\n      lt\n      tag_310\n      jumpi\n      tag_311\n      tag_110\n      jump\t// in\n    tag_311:\n    tag_310:\n      0x20\n      mul\n      0x20\n      add\n      add\n        /* \"contracts/CrowdSourcing.sol\":12257:12302  milestoneInfo[i] = project.milestones[i].info */\n      dup2\n      swap1\n      mstore\n      pop\n        /* \"contracts/CrowdSourcing.sol\":12237:12240  i++ */\n      dup1\n      dup1\n      0x01\n      add\n      swap2\n      pop\n      pop\n        /* \"contracts/CrowdSourcing.sol\":12192:12314  for(uint i=0; i < project.milestones.length; i++) {... */\n      jump(tag_304)\n    tag_305:\n      pop\n        /* \"contracts/CrowdSourcing.sol\":12338:12351  milestoneInfo */\n      dup1\n        /* \"contracts/CrowdSourcing.sol\":12331:12351  return milestoneInfo */\n      swap3\n      pop\n      pop\n      pop\n        /* \"contracts/CrowdSourcing.sol\":11854:12359  function getallMilestonesInfo(uint projectIndex) external view returns (MilestoneInfo[] memory) {... */\n      swap2\n      swap1\n      pop\n      jump\t// out\n        /* \"contracts/CrowdSourcing.sol\":12367:13509  function getAllActiveProjects() external view returns (ProjectView[] memory) {... */\n    tag_71:\n        /* \"contracts/CrowdSourcing.sol\":12422:12442  ProjectView[] memory */\n      0x60\n        /* \"contracts/CrowdSourcing.sol\":12455:12479  uint activeProjectsCount */\n      0x00\n        /* \"contracts/CrowdSourcing.sol\":12482:12483  0 */\n      0x00\n        /* \"contracts/CrowdSourcing.sol\":12455:12483  uint activeProjectsCount = 0 */\n      swap1\n      pop\n        /* \"contracts/CrowdSourcing.sol\":12499:12505  uint i */\n      0x00\n        /* \"contracts/CrowdSourcing.sol\":12508:12509  0 */\n      0x00\n        /* \"contracts/CrowdSourcing.sol\":12499:12509  uint i = 0 */\n      swap1\n      pop\n        /* \"contracts/CrowdSourcing.sol\":12494:12645  for (uint i = 0; i < projects.length; i++) {... */\n    tag_313:\n        /* \"contracts/CrowdSourcing.sol\":12515:12523  projects */\n      0x01\n        /* \"contracts/CrowdSourcing.sol\":12515:12530  projects.length */\n      dup1\n      sload\n      swap1\n      pop\n        /* \"contracts/CrowdSourcing.sol\":12511:12512  i */\n      dup2\n        /* \"contracts/CrowdSourcing.sol\":12511:12530  i < projects.length */\n      lt\n        /* \"contracts/CrowdSourcing.sol\":12494:12645  for (uint i = 0; i < projects.length; i++) {... */\n      iszero\n      tag_314\n      jumpi\n        /* \"contracts/CrowdSourcing.sol\":12556:12564  projects */\n      0x01\n        /* \"contracts/CrowdSourcing.sol\":12565:12566  i */\n      dup2\n        /* \"contracts/CrowdSourcing.sol\":12556:12567  projects[i] */\n      dup2\n      sload\n      dup2\n      lt\n      tag_316\n      jumpi\n      tag_317\n      tag_110\n      jump\t// in\n    tag_317:\n    tag_316:\n      swap1\n      0x00\n      mstore\n      keccak256(0x00, 0x20)\n      swap1\n      0x08\n      mul\n      add\n        /* \"contracts/CrowdSourcing.sol\":12556:12576  projects[i].isActive */\n      0x07\n      add\n      0x00\n      swap1\n      sload\n      swap1\n      0x0100\n      exp\n      swap1\n      div\n      0xff\n      and\n        /* \"contracts/CrowdSourcing.sol\":12552:12634  if (projects[i].isActive) {... */\n      iszero\n      tag_319\n      jumpi\n        /* \"contracts/CrowdSourcing.sol\":12597:12618  activeProjectsCount++ */\n      dup2\n      dup1\n      tag_320\n      swap1\n      tag_321\n      jump\t// in\n    tag_320:\n      swap3\n      pop\n      pop\n        /* \"contracts/CrowdSourcing.sol\":12552:12634  if (projects[i].isActive) {... */\n    tag_319:\n        /* \"contracts/CrowdSourcing.sol\":12532:12535  i++ */\n      dup1\n      dup1\n      0x01\n      add\n      swap2\n      pop\n      pop\n        /* \"contracts/CrowdSourcing.sol\":12494:12645  for (uint i = 0; i < projects.length; i++) {... */\n      jump(tag_313)\n    tag_314:\n      pop\n        /* \"contracts/CrowdSourcing.sol\":12657:12690  ProjectView[] memory tempProjects */\n      0x00\n        /* \"contracts/CrowdSourcing.sol\":12711:12730  activeProjectsCount */\n      dup2\n        /* \"contracts/CrowdSourcing.sol\":12693:12731  new ProjectView[](activeProjectsCount) */\n      0xffffffffffffffff\n      dup2\n      gt\n      iszero\n      tag_322\n      jumpi\n      tag_323\n      tag_300\n      jump\t// in\n    tag_323:\n    tag_322:\n      mload(0x40)\n      swap1\n      dup1\n      dup3\n      mstore\n      dup1\n      0x20\n      mul\n      0x20\n      add\n      dup3\n      add\n      0x40\n      mstore\n      dup1\n      iszero\n      tag_324\n      jumpi\n      dup2\n      0x20\n      add\n    tag_325:\n      tag_326\n      tag_327\n      jump\t// in\n    tag_326:\n      dup2\n      mstore\n      0x20\n      add\n      swap1\n      0x01\n      swap1\n      sub\n      swap1\n      dup2\n      tag_325\n      jumpi\n      swap1\n      pop\n    tag_324:\n      pop\n        /* \"contracts/CrowdSourcing.sol\":12657:12731  ProjectView[] memory tempProjects = new ProjectView[](activeProjectsCount) */\n      swap1\n      pop\n        /* \"contracts/CrowdSourcing.sol\":12744:12754  uint index */\n      0x00\n        /* \"contracts/CrowdSourcing.sol\":12755:12756  0 */\n      0x00\n        /* \"contracts/CrowdSourcing.sol\":12744:12756  uint index=0 */\n      swap1\n      pop\n        /* \"contracts/CrowdSourcing.sol\":12771:12777  uint i */\n      0x00\n        /* \"contracts/CrowdSourcing.sol\":12778:12779  0 */\n      0x00\n        /* \"contracts/CrowdSourcing.sol\":12771:12779  uint i=0 */\n      swap1\n      pop\n        /* \"contracts/CrowdSourcing.sol\":12767:13472  for(uint i=0; i<projects.length; i++){... */\n    tag_328:\n        /* \"contracts/CrowdSourcing.sol\":12783:12791  projects */\n      0x01\n        /* \"contracts/CrowdSourcing.sol\":12783:12798  projects.length */\n      dup1\n      sload\n      swap1\n      pop\n        /* \"contracts/CrowdSourcing.sol\":12781:12782  i */\n      dup2\n        /* \"contracts/CrowdSourcing.sol\":12781:12798  i<projects.length */\n      lt\n        /* \"contracts/CrowdSourcing.sol\":12767:13472  for(uint i=0; i<projects.length; i++){... */\n      iszero\n      tag_329\n      jumpi\n        /* \"contracts/CrowdSourcing.sol\":12822:12830  projects */\n      0x01\n        /* \"contracts/CrowdSourcing.sol\":12831:12832  i */\n      dup2\n        /* \"contracts/CrowdSourcing.sol\":12822:12833  projects[i] */\n      dup2\n      sload\n      dup2\n      lt\n      tag_331\n      jumpi\n      tag_332\n      tag_110\n      jump\t// in\n    tag_332:\n    tag_331:\n      swap1\n      0x00\n      mstore\n      keccak256(0x00, 0x20)\n      swap1\n      0x08\n      mul\n      add\n        /* \"contracts/CrowdSourcing.sol\":12822:12842  projects[i].isActive */\n      0x07\n      add\n      0x00\n      swap1\n      sload\n      swap1\n      0x0100\n      exp\n      swap1\n      div\n      0xff\n      and\n        /* \"contracts/CrowdSourcing.sol\":12819:13461  if(projects[i].isActive) {... */\n      iszero\n      tag_334\n      jumpi\n        /* \"contracts/CrowdSourcing.sol\":12863:12893  ProjectView memory tempProject */\n      tag_335\n      tag_327\n      jump\t// in\n    tag_335:\n        /* \"contracts/CrowdSourcing.sol\":12934:12942  projects */\n      0x01\n        /* \"contracts/CrowdSourcing.sol\":12943:12944  i */\n      dup3\n        /* \"contracts/CrowdSourcing.sol\":12934:12945  projects[i] */\n      dup2\n      sload\n      dup2\n      lt\n      tag_336\n      jumpi\n      tag_337\n      tag_110\n      jump\t// in\n    tag_337:\n    tag_336:\n      swap1\n      0x00\n      mstore\n      keccak256(0x00, 0x20)\n      swap1\n      0x08\n      mul\n      add\n        /* \"contracts/CrowdSourcing.sol\":12934:12953  projects[i].creator */\n      0x00\n      add\n      0x00\n      swap1\n      sload\n      swap1\n      0x0100\n      exp\n      swap1\n      div\n      0xffffffffffffffffffffffffffffffffffffffff\n      and\n        /* \"contracts/CrowdSourcing.sol\":12912:12923  tempProject */\n      dup2\n        /* \"contracts/CrowdSourcing.sol\":12912:12931  tempProject.creator */\n      0x00\n      add\n        /* \"contracts/CrowdSourcing.sol\":12912:12953  tempProject.creator = projects[i].creator */\n      swap1\n      0xffffffffffffffffffffffffffffffffffffffff\n      and\n      swap1\n      dup2\n      0xffffffffffffffffffffffffffffffffffffffff\n      and\n      dup2\n      mstore\n      pop\n      pop\n        /* \"contracts/CrowdSourcing.sol\":12991:12999  projects */\n      0x01\n        /* \"contracts/CrowdSourcing.sol\":13000:13001  i */\n      dup3\n        /* \"contracts/CrowdSourcing.sol\":12991:13002  projects[i] */\n      dup2\n      sload\n      dup2\n      lt\n      tag_339\n      jumpi\n      tag_340\n      tag_110\n      jump\t// in\n    tag_340:\n    tag_339:\n      swap1\n      0x00\n      mstore\n      keccak256(0x00, 0x20)\n      swap1\n      0x08\n      mul\n      add\n        /* \"contracts/CrowdSourcing.sol\":12991:13007  projects[i].name */\n      0x01\n      add\n        /* \"contracts/CrowdSourcing.sol\":12972:13007  tempProject.name = projects[i].name */\n      dup1\n      sload\n      tag_342\n      swap1\n      tag_77\n      jump\t// in\n    tag_342:\n      dup1\n      0x1f\n      add\n      0x20\n      dup1\n      swap2\n      div\n      mul\n      0x20\n      add\n      mload(0x40)\n      swap1\n      dup2\n      add\n      0x40\n      mstore\n      dup1\n      swap3\n      swap2\n      swap1\n      dup2\n      dup2\n      mstore\n      0x20\n      add\n      dup3\n      dup1\n      sload\n      tag_343\n      swap1\n      tag_77\n      jump\t// in\n    tag_343:\n      dup1\n      iszero\n      tag_344\n      jumpi\n      dup1\n      0x1f\n      lt\n      tag_345\n      jumpi\n      0x0100\n      dup1\n      dup4\n      sload\n      div\n      mul\n      dup4\n      mstore\n      swap2\n      0x20\n      add\n      swap2\n      jump(tag_344)\n    tag_345:\n      dup3\n      add\n      swap2\n      swap1\n      0x00\n      mstore\n      keccak256(0x00, 0x20)\n      swap1\n    tag_346:\n      dup2\n      sload\n      dup2\n      mstore\n      swap1\n      0x01\n      add\n      swap1\n      0x20\n      add\n      dup1\n      dup4\n      gt\n      tag_346\n      jumpi\n      dup3\n      swap1\n      sub\n      0x1f\n      and\n      dup3\n      add\n      swap2\n    tag_344:\n      pop\n      pop\n      pop\n      pop\n      pop\n        /* \"contracts/CrowdSourcing.sol\":12972:12983  tempProject */\n      dup2\n        /* \"contracts/CrowdSourcing.sol\":12972:12988  tempProject.name */\n      0x20\n      add\n        /* \"contracts/CrowdSourcing.sol\":12972:13007  tempProject.name = projects[i].name */\n      dup2\n      swap1\n      mstore\n      pop\n        /* \"contracts/CrowdSourcing.sol\":13055:13063  projects */\n      0x01\n        /* \"contracts/CrowdSourcing.sol\":13064:13065  i */\n      dup3\n        /* \"contracts/CrowdSourcing.sol\":13055:13066  projects[i] */\n      dup2\n      sload\n      dup2\n      lt\n      tag_347\n      jumpi\n      tag_348\n      tag_110\n      jump\t// in\n    tag_348:\n    tag_347:\n      swap1\n      0x00\n      mstore\n      keccak256(0x00, 0x20)\n      swap1\n      0x08\n      mul\n      add\n        /* \"contracts/CrowdSourcing.sol\":13055:13081  projects[i].headerImageUrl */\n      0x02\n      add\n        /* \"contracts/CrowdSourcing.sol\":13026:13081  tempProject.headerImageUrl = projects[i].headerImageUrl */\n      dup1\n      sload\n      tag_350\n      swap1\n      tag_77\n      jump\t// in\n    tag_350:\n      dup1\n      0x1f\n      add\n      0x20\n      dup1\n      swap2\n      div\n      mul\n      0x20\n      add\n      mload(0x40)\n      swap1\n      dup2\n      add\n      0x40\n      mstore\n      dup1\n      swap3\n      swap2\n      swap1\n      dup2\n      dup2\n      mstore\n      0x20\n      add\n      dup3\n      dup1\n      sload\n      tag_351\n      swap1\n      tag_77\n      jump\t// in\n    tag_351:\n      dup1\n      iszero\n      tag_352\n      jumpi\n      dup1\n      0x1f\n      lt\n      tag_353\n      jumpi\n      0x0100\n      dup1\n      dup4\n      sload\n      div\n      mul\n      dup4\n      mstore\n      swap2\n      0x20\n      add\n      swap2\n      jump(tag_352)\n    tag_353:\n      dup3\n      add\n      swap2\n      swap1\n      0x00\n      mstore\n      keccak256(0x00, 0x20)\n      swap1\n    tag_354:\n      dup2\n      sload\n      dup2\n      mstore\n      swap1\n      0x01\n      add\n      swap1\n      0x20\n      add\n      dup1\n      dup4\n      gt\n      tag_354\n      jumpi\n      dup3\n      swap1\n      sub\n      0x1f\n      and\n      dup3\n      add\n      swap2\n    tag_352:\n      pop\n      pop\n      pop\n      pop\n      pop\n        /* \"contracts/CrowdSourcing.sol\":13026:13037  tempProject */\n      dup2\n        /* \"contracts/CrowdSourcing.sol\":13026:13052  tempProject.headerImageUrl */\n      0x40\n      add\n        /* \"contracts/CrowdSourcing.sol\":13026:13081  tempProject.headerImageUrl = projects[i].headerImageUrl */\n      dup2\n      swap1\n      mstore\n      pop\n        /* \"contracts/CrowdSourcing.sol\":13126:13134  projects */\n      0x01\n        /* \"contracts/CrowdSourcing.sol\":13135:13136  i */\n      dup3\n        /* \"contracts/CrowdSourcing.sol\":13126:13137  projects[i] */\n      dup2\n      sload\n      dup2\n      lt\n      tag_355\n      jumpi\n      tag_356\n      tag_110\n      jump\t// in\n    tag_356:\n    tag_355:\n      swap1\n      0x00\n      mstore\n      keccak256(0x00, 0x20)\n      swap1\n      0x08\n      mul\n      add\n        /* \"contracts/CrowdSourcing.sol\":13126:13149  projects[i].description */\n      0x03\n      add\n        /* \"contracts/CrowdSourcing.sol\":13100:13149  tempProject.description = projects[i].description */\n      dup1\n      sload\n      tag_358\n      swap1\n      tag_77\n      jump\t// in\n    tag_358:\n      dup1\n      0x1f\n      add\n      0x20\n      dup1\n      swap2\n      div\n      mul\n      0x20\n      add\n      mload(0x40)\n      swap1\n      dup2\n      add\n      0x40\n      mstore\n      dup1\n      swap3\n      swap2\n      swap1\n      dup2\n      dup2\n      mstore\n      0x20\n      add\n      dup3\n      dup1\n      sload\n      tag_359\n      swap1\n      tag_77\n      jump\t// in\n    tag_359:\n      dup1\n      iszero\n      tag_360\n      jumpi\n      dup1\n      0x1f\n      lt\n      tag_361\n      jumpi\n      0x0100\n      dup1\n      dup4\n      sload\n      div\n      mul\n      dup4\n      mstore\n      swap2\n      0x20\n      add\n      swap2\n      jump(tag_360)\n    tag_361:\n      dup3\n      add\n      swap2\n      swap1\n      0x00\n      mstore\n      keccak256(0x00, 0x20)\n      swap1\n    tag_362:\n      dup2\n      sload\n      dup2\n      mstore\n      swap1\n      0x01\n      add\n      swap1\n      0x20\n      add\n      dup1\n      dup4\n      gt\n      tag_362\n      jumpi\n      dup3\n      swap1\n      sub\n      0x1f\n      and\n      dup3\n      add\n      swap2\n    tag_360:\n      pop\n      pop\n      pop\n      pop\n      pop\n        /* \"contracts/CrowdSourcing.sol\":13100:13111  tempProject */\n      dup2\n        /* \"contracts/CrowdSourcing.sol\":13100:13123  tempProject.description */\n      0x60\n      add\n        /* \"contracts/CrowdSourcing.sol\":13100:13149  tempProject.description = projects[i].description */\n      dup2\n      swap1\n      mstore\n      pop\n        /* \"contracts/CrowdSourcing.sol\":13194:13202  projects */\n      0x01\n        /* \"contracts/CrowdSourcing.sol\":13203:13204  i */\n      dup3\n        /* \"contracts/CrowdSourcing.sol\":13194:13205  projects[i] */\n      dup2\n      sload\n      dup2\n      lt\n      tag_363\n      jumpi\n      tag_364\n      tag_110\n      jump\t// in\n    tag_364:\n    tag_363:\n      swap1\n      0x00\n      mstore\n      keccak256(0x00, 0x20)\n      swap1\n      0x08\n      mul\n      add\n        /* \"contracts/CrowdSourcing.sol\":13194:13217  projects[i].totalFunded */\n      0x04\n      add\n      sload\n        /* \"contracts/CrowdSourcing.sol\":13168:13179  tempProject */\n      dup2\n        /* \"contracts/CrowdSourcing.sol\":13168:13191  tempProject.totalFunded */\n      0x80\n      add\n        /* \"contracts/CrowdSourcing.sol\":13168:13217  tempProject.totalFunded = projects[i].totalFunded */\n      dup2\n      dup2\n      mstore\n      pop\n      pop\n        /* \"contracts/CrowdSourcing.sol\":13272:13280  projects */\n      0x01\n        /* \"contracts/CrowdSourcing.sol\":13281:13282  i */\n      dup3\n        /* \"contracts/CrowdSourcing.sol\":13272:13283  projects[i] */\n      dup2\n      sload\n      dup2\n      lt\n      tag_366\n      jumpi\n      tag_367\n      tag_110\n      jump\t// in\n    tag_367:\n    tag_366:\n      swap1\n      0x00\n      mstore\n      keccak256(0x00, 0x20)\n      swap1\n      0x08\n      mul\n      add\n        /* \"contracts/CrowdSourcing.sol\":13272:13305  projects[i].currentMilestoneIndex */\n      0x05\n      add\n      sload\n        /* \"contracts/CrowdSourcing.sol\":13236:13247  tempProject */\n      dup2\n        /* \"contracts/CrowdSourcing.sol\":13236:13269  tempProject.currentMilestoneIndex */\n      0xa0\n      add\n        /* \"contracts/CrowdSourcing.sol\":13236:13305  tempProject.currentMilestoneIndex = projects[i].currentMilestoneIndex */\n      dup2\n      dup2\n      mstore\n      pop\n      pop\n        /* \"contracts/CrowdSourcing.sol\":13347:13355  projects */\n      0x01\n        /* \"contracts/CrowdSourcing.sol\":13356:13357  i */\n      dup3\n        /* \"contracts/CrowdSourcing.sol\":13347:13358  projects[i] */\n      dup2\n      sload\n      dup2\n      lt\n      tag_369\n      jumpi\n      tag_370\n      tag_110\n      jump\t// in\n    tag_370:\n    tag_369:\n      swap1\n      0x00\n      mstore\n      keccak256(0x00, 0x20)\n      swap1\n      0x08\n      mul\n      add\n        /* \"contracts/CrowdSourcing.sol\":13347:13367  projects[i].isActive */\n      0x07\n      add\n      0x00\n      swap1\n      sload\n      swap1\n      0x0100\n      exp\n      swap1\n      div\n      0xff\n      and\n        /* \"contracts/CrowdSourcing.sol\":13324:13335  tempProject */\n      dup2\n        /* \"contracts/CrowdSourcing.sol\":13324:13344  tempProject.isActive */\n      0xc0\n      add\n        /* \"contracts/CrowdSourcing.sol\":13324:13367  tempProject.isActive = projects[i].isActive */\n      swap1\n      iszero\n      iszero\n      swap1\n      dup2\n      iszero\n      iszero\n      dup2\n      mstore\n      pop\n      pop\n        /* \"contracts/CrowdSourcing.sol\":13408:13419  tempProject */\n      dup1\n        /* \"contracts/CrowdSourcing.sol\":13386:13398  tempProjects */\n      dup5\n        /* \"contracts/CrowdSourcing.sol\":13399:13404  index */\n      dup5\n        /* \"contracts/CrowdSourcing.sol\":13386:13405  tempProjects[index] */\n      dup2\n      mload\n      dup2\n      lt\n      tag_372\n      jumpi\n      tag_373\n      tag_110\n      jump\t// in\n    tag_373:\n    tag_372:\n      0x20\n      mul\n      0x20\n      add\n      add\n        /* \"contracts/CrowdSourcing.sol\":13386:13419  tempProjects[index] = tempProject */\n      dup2\n      swap1\n      mstore\n      pop\n        /* \"contracts/CrowdSourcing.sol\":13438:13445  index++ */\n      dup3\n      dup1\n      tag_374\n      swap1\n      tag_321\n      jump\t// in\n    tag_374:\n      swap4\n      pop\n      pop\n        /* \"contracts/CrowdSourcing.sol\":12844:13461  {... */\n      pop\n        /* \"contracts/CrowdSourcing.sol\":12819:13461  if(projects[i].isActive) {... */\n    tag_334:\n        /* \"contracts/CrowdSourcing.sol\":12800:12803  i++ */\n      dup1\n      dup1\n      0x01\n      add\n      swap2\n      pop\n      pop\n        /* \"contracts/CrowdSourcing.sol\":12767:13472  for(uint i=0; i<projects.length; i++){... */\n      jump(tag_328)\n    tag_329:\n      pop\n        /* \"contracts/CrowdSourcing.sol\":13489:13501  tempProjects */\n      dup2\n        /* \"contracts/CrowdSourcing.sol\":13482:13501  return tempProjects */\n      swap4\n      pop\n      pop\n      pop\n      pop\n        /* \"contracts/CrowdSourcing.sol\":12367:13509  function getAllActiveProjects() external view returns (ProjectView[] memory) {... */\n      swap1\n      jump\t// out\n        /* \"contracts/CrowdSourcing.sol\":6138:7216  function initiateNextMilestone(uint projectIndex) private {... */\n    tag_179:\n        /* \"contracts/CrowdSourcing.sol\":6207:6230  Project storage project */\n      0x00\n        /* \"contracts/CrowdSourcing.sol\":6233:6241  projects */\n      0x01\n        /* \"contracts/CrowdSourcing.sol\":6242:6254  projectIndex */\n      dup3\n        /* \"contracts/CrowdSourcing.sol\":6233:6255  projects[projectIndex] */\n      dup2\n      sload\n      dup2\n      lt\n      tag_376\n      jumpi\n      tag_377\n      tag_110\n      jump\t// in\n    tag_377:\n    tag_376:\n      swap1\n      0x00\n      mstore\n      keccak256(0x00, 0x20)\n      swap1\n      0x08\n      mul\n      add\n        /* \"contracts/CrowdSourcing.sol\":6207:6255  Project storage project = projects[projectIndex] */\n      swap1\n      pop\n        /* \"contracts/CrowdSourcing.sol\":6266:6300  Milestone storage currentMilestone */\n      0x00\n        /* \"contracts/CrowdSourcing.sol\":6303:6310  project */\n      dup2\n        /* \"contracts/CrowdSourcing.sol\":6303:6321  project.milestones */\n      0x06\n      add\n        /* \"contracts/CrowdSourcing.sol\":6336:6343  project */\n      dup3\n        /* \"contracts/CrowdSourcing.sol\":6336:6365  project.currentMilestoneIndex */\n      0x05\n      add\n      sload\n        /* \"contracts/CrowdSourcing.sol\":6303:6376  project.milestones[... */\n      dup2\n      sload\n      dup2\n      lt\n      tag_379\n      jumpi\n      tag_380\n      tag_110\n      jump\t// in\n    tag_380:\n    tag_379:\n      swap1\n      0x00\n      mstore\n      keccak256(0x00, 0x20)\n      swap1\n      0x06\n      mul\n      add\n        /* \"contracts/CrowdSourcing.sol\":6266:6376  Milestone storage currentMilestone = project.milestones[... */\n      swap1\n      pop\n        /* \"contracts/CrowdSourcing.sol\":6387:6409  uint moneyAmountToSend */\n      0x00\n        /* \"contracts/CrowdSourcing.sol\":6412:6428  currentMilestone */\n      dup2\n        /* \"contracts/CrowdSourcing.sol\":6412:6440  currentMilestone.totalFunded */\n      0x02\n      add\n      sload\n        /* \"contracts/CrowdSourcing.sol\":6387:6440  uint moneyAmountToSend = currentMilestone.totalFunded */\n      swap1\n      pop\n        /* \"contracts/CrowdSourcing.sol\":6486:6487  0 */\n      0x00\n        /* \"contracts/CrowdSourcing.sol\":6454:6461  project */\n      dup4\n        /* \"contracts/CrowdSourcing.sol\":6454:6483  project.currentMilestoneIndex */\n      0x05\n      add\n      sload\n        /* \"contracts/CrowdSourcing.sol\":6454:6487  project.currentMilestoneIndex > 0 */\n      gt\n        /* \"contracts/CrowdSourcing.sol\":6451:6602  if(project.currentMilestoneIndex > 0) {... */\n      iszero\n      tag_382\n      jumpi\n        /* \"contracts/CrowdSourcing.sol\":6525:6532  project */\n      dup3\n        /* \"contracts/CrowdSourcing.sol\":6525:6543  project.milestones */\n      0x06\n      add\n        /* \"contracts/CrowdSourcing.sol\":6576:6577  1 */\n      0x01\n        /* \"contracts/CrowdSourcing.sol\":6544:6551  project */\n      dup5\n        /* \"contracts/CrowdSourcing.sol\":6544:6573  project.currentMilestoneIndex */\n      0x05\n      add\n      sload\n        /* \"contracts/CrowdSourcing.sol\":6544:6577  project.currentMilestoneIndex - 1 */\n      tag_383\n      swap2\n      swap1\n      tag_103\n      jump\t// in\n    tag_383:\n        /* \"contracts/CrowdSourcing.sol\":6525:6578  project.milestones[project.currentMilestoneIndex - 1] */\n      dup2\n      sload\n      dup2\n      lt\n      tag_384\n      jumpi\n      tag_385\n      tag_110\n      jump\t// in\n    tag_385:\n    tag_384:\n      swap1\n      0x00\n      mstore\n      keccak256(0x00, 0x20)\n      swap1\n      0x06\n      mul\n      add\n        /* \"contracts/CrowdSourcing.sol\":6525:6590  project.milestones[project.currentMilestoneIndex - 1].totalFunded */\n      0x02\n      add\n      sload\n        /* \"contracts/CrowdSourcing.sol\":6504:6590  moneyAmountToSend -= project.milestones[project.currentMilestoneIndex - 1].totalFunded */\n      dup2\n      tag_387\n      swap2\n      swap1\n      tag_103\n      jump\t// in\n    tag_387:\n      swap1\n      pop\n        /* \"contracts/CrowdSourcing.sol\":6451:6602  if(project.currentMilestoneIndex > 0) {... */\n    tag_382:\n        /* \"contracts/CrowdSourcing.sol\":6645:6661  currentMilestone */\n      dup2\n        /* \"contracts/CrowdSourcing.sol\":6645:6666  currentMilestone.info */\n      0x00\n      add\n        /* \"contracts/CrowdSourcing.sol\":6645:6677  currentMilestone.info.goalAmount */\n      0x00\n      add\n      sload\n        /* \"contracts/CrowdSourcing.sol\":6622:6629  project */\n      dup4\n        /* \"contracts/CrowdSourcing.sol\":6622:6641  project.totalFunded */\n      0x04\n      add\n      sload\n        /* \"contracts/CrowdSourcing.sol\":6622:6677  project.totalFunded >= currentMilestone.info.goalAmount */\n      lt\n        /* \"contracts/CrowdSourcing.sol\":6618:7209  if (project.totalFunded >= currentMilestone.info.goalAmount) {... */\n      tag_388\n      jumpi\n        /* \"contracts/CrowdSourcing.sol\":6721:6725  true */\n      0x01\n        /* \"contracts/CrowdSourcing.sol\":6694:6710  currentMilestone */\n      dup3\n        /* \"contracts/CrowdSourcing.sol\":6694:6718  currentMilestone.reached */\n      0x05\n      add\n      0x00\n        /* \"contracts/CrowdSourcing.sol\":6694:6725  currentMilestone.reached = true */\n      0x0100\n      exp\n      dup2\n      sload\n      dup2\n      0xff\n      mul\n      not\n      and\n      swap1\n      dup4\n      iszero\n      iszero\n      mul\n      or\n      swap1\n      sstore\n      pop\n        /* \"contracts/CrowdSourcing.sol\":6740:6792  sendMoneyToOwner(project.creator, moneyAmountToSend) */\n      tag_389\n        /* \"contracts/CrowdSourcing.sol\":6757:6764  project */\n      dup4\n        /* \"contracts/CrowdSourcing.sol\":6757:6772  project.creator */\n      0x00\n      add\n      0x00\n      swap1\n      sload\n      swap1\n      0x0100\n      exp\n      swap1\n      div\n      0xffffffffffffffffffffffffffffffffffffffff\n      and\n        /* \"contracts/CrowdSourcing.sol\":6774:6791  moneyAmountToSend */\n      dup3\n        /* \"contracts/CrowdSourcing.sol\":6740:6756  sendMoneyToOwner */\n      tag_390\n        /* \"contracts/CrowdSourcing.sol\":6740:6792  sendMoneyToOwner(project.creator, moneyAmountToSend) */\n      jump\t// in\n    tag_389:\n        /* \"contracts/CrowdSourcing.sol\":6873:6874  1 */\n      0x01\n        /* \"contracts/CrowdSourcing.sol\":6845:6852  project */\n      dup4\n        /* \"contracts/CrowdSourcing.sol\":6845:6863  project.milestones */\n      0x06\n      add\n        /* \"contracts/CrowdSourcing.sol\":6845:6870  project.milestones.length */\n      dup1\n      sload\n      swap1\n      pop\n        /* \"contracts/CrowdSourcing.sol\":6845:6874  project.milestones.length - 1 */\n      tag_391\n      swap2\n      swap1\n      tag_103\n      jump\t// in\n    tag_391:\n        /* \"contracts/CrowdSourcing.sol\":6813:6820  project */\n      dup4\n        /* \"contracts/CrowdSourcing.sol\":6813:6842  project.currentMilestoneIndex */\n      0x05\n      add\n      sload\n        /* \"contracts/CrowdSourcing.sol\":6813:6874  project.currentMilestoneIndex < project.milestones.length - 1 */\n      lt\n        /* \"contracts/CrowdSourcing.sol\":6809:7070  if (project.currentMilestoneIndex < project.milestones.length - 1) {... */\n      iszero\n      tag_392\n      jumpi\n        /* \"contracts/CrowdSourcing.sol\":6895:6902  project */\n      dup3\n        /* \"contracts/CrowdSourcing.sol\":6895:6924  project.currentMilestoneIndex */\n      0x05\n      add\n      0x00\n        /* \"contracts/CrowdSourcing.sol\":6895:6926  project.currentMilestoneIndex++ */\n      dup2\n      sload\n      dup1\n      swap3\n      swap2\n      swap1\n      tag_393\n      swap1\n      tag_321\n      jump\t// in\n    tag_393:\n      swap2\n      swap1\n      pop\n      sstore\n      pop\n        /* \"contracts/CrowdSourcing.sol\":6809:7070  if (project.currentMilestoneIndex < project.milestones.length - 1) {... */\n      jump(tag_394)\n    tag_392:\n        /* \"contracts/CrowdSourcing.sol\":7049:7054  false */\n      0x00\n        /* \"contracts/CrowdSourcing.sol\":7030:7037  project */\n      dup4\n        /* \"contracts/CrowdSourcing.sol\":7030:7046  project.isActive */\n      0x07\n      add\n      0x00\n        /* \"contracts/CrowdSourcing.sol\":7030:7054  project.isActive = false */\n      0x0100\n      exp\n      dup2\n      sload\n      dup2\n      0xff\n      mul\n      not\n      and\n      swap1\n      dup4\n      iszero\n      iszero\n      mul\n      or\n      swap1\n      sstore\n      pop\n        /* \"contracts/CrowdSourcing.sol\":6809:7070  if (project.currentMilestoneIndex < project.milestones.length - 1) {... */\n    tag_394:\n        /* \"contracts/CrowdSourcing.sol\":6618:7209  if (project.totalFunded >= currentMilestone.info.goalAmount) {... */\n      jump(tag_395)\n    tag_388:\n        /* \"contracts/CrowdSourcing.sol\":7166:7197  stopProjectHelper(projectIndex) */\n      tag_396\n        /* \"contracts/CrowdSourcing.sol\":7184:7196  projectIndex */\n      dup5\n        /* \"contracts/CrowdSourcing.sol\":7166:7183  stopProjectHelper */\n      tag_197\n        /* \"contracts/CrowdSourcing.sol\":7166:7197  stopProjectHelper(projectIndex) */\n      jump\t// in\n    tag_396:\n        /* \"contracts/CrowdSourcing.sol\":6618:7209  if (project.totalFunded >= currentMilestone.info.goalAmount) {... */\n    tag_395:\n        /* \"contracts/CrowdSourcing.sol\":6196:7216  {... */\n      pop\n      pop\n      pop\n        /* \"contracts/CrowdSourcing.sol\":6138:7216  function initiateNextMilestone(uint projectIndex) private {... */\n      pop\n      jump\t// out\n        /* \"contracts/CrowdSourcing.sol\":8658:8953  function stopProjectHelper(uint projectIndex) private {... */\n    tag_197:\n        /* \"contracts/CrowdSourcing.sol\":8723:8746  Project storage project */\n      0x00\n        /* \"contracts/CrowdSourcing.sol\":8749:8757  projects */\n      0x01\n        /* \"contracts/CrowdSourcing.sol\":8758:8770  projectIndex */\n      dup3\n        /* \"contracts/CrowdSourcing.sol\":8749:8771  projects[projectIndex] */\n      dup2\n      sload\n      dup2\n      lt\n      tag_398\n      jumpi\n      tag_399\n      tag_110\n      jump\t// in\n    tag_399:\n    tag_398:\n      swap1\n      0x00\n      mstore\n      keccak256(0x00, 0x20)\n      swap1\n      0x08\n      mul\n      add\n        /* \"contracts/CrowdSourcing.sol\":8723:8771  Project storage project = projects[projectIndex] */\n      swap1\n      pop\n        /* \"contracts/CrowdSourcing.sol\":8790:8797  project */\n      dup1\n        /* \"contracts/CrowdSourcing.sol\":8790:8806  project.isActive */\n      0x07\n      add\n      0x00\n      swap1\n      sload\n      swap1\n      0x0100\n      exp\n      swap1\n      div\n      0xff\n      and\n        /* \"contracts/CrowdSourcing.sol\":8782:8839  require(project.isActive, \"Cannot stop inactive project\") */\n      tag_401\n      jumpi\n      mload(0x40)\n      0x08c379a000000000000000000000000000000000000000000000000000000000\n      dup2\n      mstore\n      0x04\n      add\n      tag_402\n      swap1\n      tag_403\n      jump\t// in\n    tag_402:\n      mload(0x40)\n      dup1\n      swap2\n      sub\n      swap1\n      revert\n    tag_401:\n        /* \"contracts/CrowdSourcing.sol\":8869:8874  false */\n      0x00\n        /* \"contracts/CrowdSourcing.sol\":8850:8857  project */\n      dup2\n        /* \"contracts/CrowdSourcing.sol\":8850:8866  project.isActive */\n      0x07\n      add\n      0x00\n        /* \"contracts/CrowdSourcing.sol\":8850:8874  project.isActive = false */\n      0x0100\n      exp\n      dup2\n      sload\n      dup2\n      0xff\n      mul\n      not\n      and\n      swap1\n      dup4\n      iszero\n      iszero\n      mul\n      or\n      swap1\n      sstore\n      pop\n        /* \"contracts/CrowdSourcing.sol\":8885:8945  refundMilestone(projectIndex, project.currentMilestoneIndex) */\n      tag_404\n        /* \"contracts/CrowdSourcing.sol\":8901:8913  projectIndex */\n      dup3\n        /* \"contracts/CrowdSourcing.sol\":8915:8922  project */\n      dup3\n        /* \"contracts/CrowdSourcing.sol\":8915:8944  project.currentMilestoneIndex */\n      0x05\n      add\n      sload\n        /* \"contracts/CrowdSourcing.sol\":8885:8900  refundMilestone */\n      tag_405\n        /* \"contracts/CrowdSourcing.sol\":8885:8945  refundMilestone(projectIndex, project.currentMilestoneIndex) */\n      jump\t// in\n    tag_404:\n        /* \"contracts/CrowdSourcing.sol\":8712:8953  {... */\n      pop\n        /* \"contracts/CrowdSourcing.sol\":8658:8953  function stopProjectHelper(uint projectIndex) private {... */\n      pop\n      jump\t// out\n        /* \"contracts/CrowdSourcing.sol\":7224:7463  function sendMoneyToOwner(... */\n    tag_390:\n        /* \"contracts/CrowdSourcing.sol\":7337:7349  bool success */\n      0x00\n        /* \"contracts/CrowdSourcing.sol\":7355:7369  projectCreator */\n      dup3\n        /* \"contracts/CrowdSourcing.sol\":7355:7374  projectCreator.call */\n      0xffffffffffffffffffffffffffffffffffffffff\n      and\n        /* \"contracts/CrowdSourcing.sol\":7382:7393  moneyAmount */\n      dup3\n        /* \"contracts/CrowdSourcing.sol\":7355:7398  projectCreator.call{value: moneyAmount}(\"\") */\n      mload(0x40)\n      tag_407\n      swap1\n      tag_170\n      jump\t// in\n    tag_407:\n      0x00\n      mload(0x40)\n      dup1\n      dup4\n      sub\n      dup2\n      dup6\n      dup8\n      gas\n      call\n      swap3\n      pop\n      pop\n      pop\n      returndatasize\n      dup1\n      0x00\n      dup2\n      eq\n      tag_410\n      jumpi\n      mload(0x40)\n      swap2\n      pop\n      and(add(returndatasize, 0x3f), not(0x1f))\n      dup3\n      add\n      0x40\n      mstore\n      returndatasize\n      dup3\n      mstore\n      returndatasize\n      0x00\n      0x20\n      dup5\n      add\n      returndatacopy\n      jump(tag_409)\n    tag_410:\n      0x60\n      swap2\n      pop\n    tag_409:\n      pop\n        /* \"contracts/CrowdSourcing.sol\":7336:7398  (bool success, ) = projectCreator.call{value: moneyAmount}(\"\") */\n      pop\n      swap1\n      pop\n        /* \"contracts/CrowdSourcing.sol\":7417:7424  success */\n      dup1\n        /* \"contracts/CrowdSourcing.sol\":7409:7455  require(success, \"Transfer to creator failed\") */\n      tag_411\n      jumpi\n      mload(0x40)\n      0x08c379a000000000000000000000000000000000000000000000000000000000\n      dup2\n      mstore\n      0x04\n      add\n      tag_412\n      swap1\n      tag_413\n      jump\t// in\n    tag_412:\n      mload(0x40)\n      dup1\n      swap2\n      sub\n      swap1\n      revert\n    tag_411:\n        /* \"contracts/CrowdSourcing.sol\":7325:7463  {... */\n      pop\n        /* \"contracts/CrowdSourcing.sol\":7224:7463  function sendMoneyToOwner(... */\n      pop\n      pop\n      jump\t// out\n        /* \"contracts/CrowdSourcing.sol\":7471:8194  function refundMilestone(uint projectIndex, uint milestoneIdx) private {... */\n    tag_405:\n        /* \"contracts/CrowdSourcing.sol\":7553:7576  Project storage project */\n      0x00\n        /* \"contracts/CrowdSourcing.sol\":7579:7587  projects */\n      0x01\n        /* \"contracts/CrowdSourcing.sol\":7588:7600  projectIndex */\n      dup4\n        /* \"contracts/CrowdSourcing.sol\":7579:7601  projects[projectIndex] */\n      dup2\n      sload\n      dup2\n      lt\n      tag_415\n      jumpi\n      tag_416\n      tag_110\n      jump\t// in\n    tag_416:\n    tag_415:\n      swap1\n      0x00\n      mstore\n      keccak256(0x00, 0x20)\n      swap1\n      0x08\n      mul\n      add\n        /* \"contracts/CrowdSourcing.sol\":7553:7601  Project storage project = projects[projectIndex] */\n      swap1\n      pop\n        /* \"contracts/CrowdSourcing.sol\":7612:7639  Milestone storage milestone */\n      0x00\n        /* \"contracts/CrowdSourcing.sol\":7642:7649  project */\n      dup2\n        /* \"contracts/CrowdSourcing.sol\":7642:7660  project.milestones */\n      0x06\n      add\n        /* \"contracts/CrowdSourcing.sol\":7661:7673  milestoneIdx */\n      dup4\n        /* \"contracts/CrowdSourcing.sol\":7642:7674  project.milestones[milestoneIdx] */\n      dup2\n      sload\n      dup2\n      lt\n      tag_418\n      jumpi\n      tag_419\n      tag_110\n      jump\t// in\n    tag_419:\n    tag_418:\n      swap1\n      0x00\n      mstore\n      keccak256(0x00, 0x20)\n      swap1\n      0x06\n      mul\n      add\n        /* \"contracts/CrowdSourcing.sol\":7612:7674  Milestone storage milestone = project.milestones[milestoneIdx] */\n      swap1\n      pop\n        /* \"contracts/CrowdSourcing.sol\":7692:7698  uint i */\n      0x00\n        /* \"contracts/CrowdSourcing.sol\":7701:7702  0 */\n      0x00\n        /* \"contracts/CrowdSourcing.sol\":7692:7702  uint i = 0 */\n      swap1\n      pop\n        /* \"contracts/CrowdSourcing.sol\":7687:8187  for (uint i = 0; i < milestone.funderAddresses.length; i++) {... */\n    tag_421:\n        /* \"contracts/CrowdSourcing.sol\":7708:7717  milestone */\n      dup2\n        /* \"contracts/CrowdSourcing.sol\":7708:7733  milestone.funderAddresses */\n      0x03\n      add\n        /* \"contracts/CrowdSourcing.sol\":7708:7740  milestone.funderAddresses.length */\n      dup1\n      sload\n      swap1\n      pop\n        /* \"contracts/CrowdSourcing.sol\":7704:7705  i */\n      dup2\n        /* \"contracts/CrowdSourcing.sol\":7704:7740  i < milestone.funderAddresses.length */\n      lt\n        /* \"contracts/CrowdSourcing.sol\":7687:8187  for (uint i = 0; i < milestone.funderAddresses.length; i++) {... */\n      iszero\n      tag_422\n      jumpi\n        /* \"contracts/CrowdSourcing.sol\":7762:7776  address funder */\n      0x00\n        /* \"contracts/CrowdSourcing.sol\":7779:7788  milestone */\n      dup3\n        /* \"contracts/CrowdSourcing.sol\":7779:7804  milestone.funderAddresses */\n      0x03\n      add\n        /* \"contracts/CrowdSourcing.sol\":7805:7806  i */\n      dup3\n        /* \"contracts/CrowdSourcing.sol\":7779:7807  milestone.funderAddresses[i] */\n      dup2\n      sload\n      dup2\n      lt\n      tag_424\n      jumpi\n      tag_425\n      tag_110\n      jump\t// in\n    tag_425:\n    tag_424:\n      swap1\n      0x00\n      mstore\n      keccak256(0x00, 0x20)\n      add\n      0x00\n      swap1\n      sload\n      swap1\n      0x0100\n      exp\n      swap1\n      div\n      0xffffffffffffffffffffffffffffffffffffffff\n      and\n        /* \"contracts/CrowdSourcing.sol\":7762:7807  address funder = milestone.funderAddresses[i] */\n      swap1\n      pop\n        /* \"contracts/CrowdSourcing.sol\":7822:7833  uint amount */\n      0x00\n        /* \"contracts/CrowdSourcing.sol\":7836:7845  milestone */\n      dup4\n        /* \"contracts/CrowdSourcing.sol\":7836:7853  milestone.funders */\n      0x04\n      add\n        /* \"contracts/CrowdSourcing.sol\":7836:7861  milestone.funders[funder] */\n      0x00\n        /* \"contracts/CrowdSourcing.sol\":7854:7860  funder */\n      dup4\n        /* \"contracts/CrowdSourcing.sol\":7836:7861  milestone.funders[funder] */\n      0xffffffffffffffffffffffffffffffffffffffff\n      and\n      0xffffffffffffffffffffffffffffffffffffffff\n      and\n      dup2\n      mstore\n      0x20\n      add\n      swap1\n      dup2\n      mstore\n      0x20\n      add\n      0x00\n      keccak256\n      sload\n        /* \"contracts/CrowdSourcing.sol\":7822:7861  uint amount = milestone.funders[funder] */\n      swap1\n      pop\n        /* \"contracts/CrowdSourcing.sol\":7891:7892  0 */\n      0x00\n        /* \"contracts/CrowdSourcing.sol\":7882:7888  amount */\n      dup2\n        /* \"contracts/CrowdSourcing.sol\":7882:7892  amount > 0 */\n      gt\n        /* \"contracts/CrowdSourcing.sol\":7878:8176  if (amount > 0) {... */\n      iszero\n      tag_427\n      jumpi\n        /* \"contracts/CrowdSourcing.sol\":7941:7942  0 */\n      0x00\n        /* \"contracts/CrowdSourcing.sol\":7913:7922  milestone */\n      dup5\n        /* \"contracts/CrowdSourcing.sol\":7913:7930  milestone.funders */\n      0x04\n      add\n        /* \"contracts/CrowdSourcing.sol\":7913:7938  milestone.funders[funder] */\n      0x00\n        /* \"contracts/CrowdSourcing.sol\":7931:7937  funder */\n      dup5\n        /* \"contracts/CrowdSourcing.sol\":7913:7938  milestone.funders[funder] */\n      0xffffffffffffffffffffffffffffffffffffffff\n      and\n      0xffffffffffffffffffffffffffffffffffffffff\n      and\n      dup2\n      mstore\n      0x20\n      add\n      swap1\n      dup2\n      mstore\n      0x20\n      add\n      0x00\n      keccak256\n        /* \"contracts/CrowdSourcing.sol\":7913:7942  milestone.funders[funder] = 0 */\n      dup2\n      swap1\n      sstore\n      pop\n        /* \"contracts/CrowdSourcing.sol\":7962:7974  bool success */\n      0x00\n        /* \"contracts/CrowdSourcing.sol\":7980:7986  funder */\n      dup3\n        /* \"contracts/CrowdSourcing.sol\":7980:7991  funder.call */\n      0xffffffffffffffffffffffffffffffffffffffff\n      and\n        /* \"contracts/CrowdSourcing.sol\":7999:8005  amount */\n      dup3\n        /* \"contracts/CrowdSourcing.sol\":7980:8010  funder.call{value: amount}(\"\") */\n      mload(0x40)\n      tag_428\n      swap1\n      tag_170\n      jump\t// in\n    tag_428:\n      0x00\n      mload(0x40)\n      dup1\n      dup4\n      sub\n      dup2\n      dup6\n      dup8\n      gas\n      call\n      swap3\n      pop\n      pop\n      pop\n      returndatasize\n      dup1\n      0x00\n      dup2\n      eq\n      tag_431\n      jumpi\n      mload(0x40)\n      swap2\n      pop\n      and(add(returndatasize, 0x3f), not(0x1f))\n      dup3\n      add\n      0x40\n      mstore\n      returndatasize\n      dup3\n      mstore\n      returndatasize\n      0x00\n      0x20\n      dup5\n      add\n      returndatacopy\n      jump(tag_430)\n    tag_431:\n      0x60\n      swap2\n      pop\n    tag_430:\n      pop\n        /* \"contracts/CrowdSourcing.sol\":7961:8010  (bool success, ) = funder.call{value: amount}(\"\") */\n      pop\n      swap1\n      pop\n        /* \"contracts/CrowdSourcing.sol\":8037:8044  success */\n      dup1\n        /* \"contracts/CrowdSourcing.sol\":8029:8062  require(success, \"Refund failed\") */\n      tag_432\n      jumpi\n      mload(0x40)\n      0x08c379a000000000000000000000000000000000000000000000000000000000\n      dup2\n      mstore\n      0x04\n      add\n      tag_433\n      swap1\n      tag_434\n      jump\t// in\n    tag_433:\n      mload(0x40)\n      dup1\n      swap2\n      sub\n      swap1\n      revert\n    tag_432:\n        /* \"contracts/CrowdSourcing.sol\":8104:8110  amount */\n      dup2\n        /* \"contracts/CrowdSourcing.sol\":8081:8088  project */\n      dup7\n        /* \"contracts/CrowdSourcing.sol\":8081:8100  project.totalFunded */\n      0x04\n      add\n      0x00\n        /* \"contracts/CrowdSourcing.sol\":8081:8110  project.totalFunded -= amount */\n      dup3\n      dup3\n      sload\n      tag_435\n      swap2\n      swap1\n      tag_103\n      jump\t// in\n    tag_435:\n      swap3\n      pop\n      pop\n      dup2\n      swap1\n      sstore\n      pop\n        /* \"contracts/CrowdSourcing.sol\":8154:8160  amount */\n      dup2\n        /* \"contracts/CrowdSourcing.sol\":8129:8138  milestone */\n      dup6\n        /* \"contracts/CrowdSourcing.sol\":8129:8150  milestone.totalFunded */\n      0x02\n      add\n      0x00\n        /* \"contracts/CrowdSourcing.sol\":8129:8160  milestone.totalFunded -= amount */\n      dup3\n      dup3\n      sload\n      tag_436\n      swap2\n      swap1\n      tag_103\n      jump\t// in\n    tag_436:\n      swap3\n      pop\n      pop\n      dup2\n      swap1\n      sstore\n      pop\n        /* \"contracts/CrowdSourcing.sol\":7894:8176  {... */\n      pop\n        /* \"contracts/CrowdSourcing.sol\":7878:8176  if (amount > 0) {... */\n    tag_427:\n        /* \"contracts/CrowdSourcing.sol\":7747:8187  {... */\n      pop\n      pop\n        /* \"contracts/CrowdSourcing.sol\":7742:7745  i++ */\n      dup1\n      dup1\n      0x01\n      add\n      swap2\n      pop\n      pop\n        /* \"contracts/CrowdSourcing.sol\":7687:8187  for (uint i = 0; i < milestone.funderAddresses.length; i++) {... */\n      jump(tag_421)\n    tag_422:\n      pop\n        /* \"contracts/CrowdSourcing.sol\":7542:8194  {... */\n      pop\n      pop\n        /* \"contracts/CrowdSourcing.sol\":7471:8194  function refundMilestone(uint projectIndex, uint milestoneIdx) private {... */\n      pop\n      pop\n      jump\t// out\n    tag_282:\n      mload(0x40)\n      dup1\n      0x40\n      add\n      0x40\n      mstore\n      dup1\n      0x00\n      dup2\n      mstore\n      0x20\n      add\n      0x00\n      dup2\n      mstore\n      pop\n      swap1\n      jump\t// out\n    tag_327:\n      mload(0x40)\n      dup1\n      0xe0\n      add\n      0x40\n      mstore\n      dup1\n      and(0xffffffffffffffffffffffffffffffffffffffff, 0x00)\n      dup2\n      mstore\n      0x20\n      add\n      0x60\n      dup2\n      mstore\n      0x20\n      add\n      0x60\n      dup2\n      mstore\n      0x20\n      add\n      0x60\n      dup2\n      mstore\n      0x20\n      add\n      0x00\n      dup2\n      mstore\n      0x20\n      add\n      0x00\n      dup2\n      mstore\n      0x20\n      add\n      iszero(iszero(0x00))\n      dup2\n      mstore\n      pop\n      swap1\n      jump\t// out\n        /* \"#utility.yul\":7:133   */\n    tag_437:\n        /* \"#utility.yul\":44:51   */\n      0x00\n        /* \"#utility.yul\":84:126   */\n      0xffffffffffffffffffffffffffffffffffffffff\n        /* \"#utility.yul\":77:82   */\n      dup3\n        /* \"#utility.yul\":73:127   */\n      and\n        /* \"#utility.yul\":62:127   */\n      swap1\n      pop\n        /* \"#utility.yul\":7:133   */\n      swap2\n      swap1\n      pop\n      jump\t// out\n        /* \"#utility.yul\":139:235   */\n    tag_438:\n        /* \"#utility.yul\":176:183   */\n      0x00\n        /* \"#utility.yul\":205:229   */\n      tag_562\n        /* \"#utility.yul\":223:228   */\n      dup3\n        /* \"#utility.yul\":205:229   */\n      tag_437\n      jump\t// in\n    tag_562:\n        /* \"#utility.yul\":194:229   */\n      swap1\n      pop\n        /* \"#utility.yul\":139:235   */\n      swap2\n      swap1\n      pop\n      jump\t// out\n        /* \"#utility.yul\":241:359   */\n    tag_439:\n        /* \"#utility.yul\":328:352   */\n      tag_564\n        /* \"#utility.yul\":346:351   */\n      dup2\n        /* \"#utility.yul\":328:352   */\n      tag_438\n      jump\t// in\n    tag_564:\n        /* \"#utility.yul\":323:326   */\n      dup3\n        /* \"#utility.yul\":316:353   */\n      mstore\n        /* \"#utility.yul\":241:359   */\n      pop\n      pop\n      jump\t// out\n        /* \"#utility.yul\":365:587   */\n    tag_19:\n        /* \"#utility.yul\":458:462   */\n      0x00\n        /* \"#utility.yul\":496:498   */\n      0x20\n        /* \"#utility.yul\":485:494   */\n      dup3\n        /* \"#utility.yul\":481:499   */\n      add\n        /* \"#utility.yul\":473:499   */\n      swap1\n      pop\n        /* \"#utility.yul\":509:580   */\n      tag_566\n        /* \"#utility.yul\":577:578   */\n      0x00\n        /* \"#utility.yul\":566:575   */\n      dup4\n        /* \"#utility.yul\":562:579   */\n      add\n        /* \"#utility.yul\":553:559   */\n      dup5\n        /* \"#utility.yul\":509:580   */\n      tag_439\n      jump\t// in\n    tag_566:\n        /* \"#utility.yul\":365:587   */\n      swap3\n      swap2\n      pop\n      pop\n      jump\t// out\n        /* \"#utility.yul\":593:668   */\n    tag_440:\n        /* \"#utility.yul\":626:632   */\n      0x00\n        /* \"#utility.yul\":659:661   */\n      0x40\n        /* \"#utility.yul\":653:662   */\n      mload\n        /* \"#utility.yul\":643:662   */\n      swap1\n      pop\n        /* \"#utility.yul\":593:668   */\n      swap1\n      jump\t// out\n        /* \"#utility.yul\":674:791   */\n    tag_441:\n        /* \"#utility.yul\":783:784   */\n      0x00\n        /* \"#utility.yul\":780:781   */\n      0x00\n        /* \"#utility.yul\":773:785   */\n      revert\n        /* \"#utility.yul\":797:914   */\n    tag_442:\n        /* \"#utility.yul\":906:907   */\n      0x00\n        /* \"#utility.yul\":903:904   */\n      0x00\n        /* \"#utility.yul\":896:908   */\n      revert\n        /* \"#utility.yul\":920:997   */\n    tag_443:\n        /* \"#utility.yul\":957:964   */\n      0x00\n        /* \"#utility.yul\":986:991   */\n      dup2\n        /* \"#utility.yul\":975:991   */\n      swap1\n      pop\n        /* \"#utility.yul\":920:997   */\n      swap2\n      swap1\n      pop\n      jump\t// out\n        /* \"#utility.yul\":1003:1125   */\n    tag_444:\n        /* \"#utility.yul\":1076:1100   */\n      tag_572\n        /* \"#utility.yul\":1094:1099   */\n      dup2\n        /* \"#utility.yul\":1076:1100   */\n      tag_443\n      jump\t// in\n    tag_572:\n        /* \"#utility.yul\":1069:1074   */\n      dup2\n        /* \"#utility.yul\":1066:1101   */\n      eq\n        /* \"#utility.yul\":1056:1119   */\n      tag_573\n      jumpi\n        /* \"#utility.yul\":1115:1116   */\n      0x00\n        /* \"#utility.yul\":1112:1113   */\n      0x00\n        /* \"#utility.yul\":1105:1117   */\n      revert\n        /* \"#utility.yul\":1056:1119   */\n    tag_573:\n        /* \"#utility.yul\":1003:1125   */\n      pop\n      jump\t// out\n        /* \"#utility.yul\":1131:1270   */\n    tag_445:\n        /* \"#utility.yul\":1177:1182   */\n      0x00\n        /* \"#utility.yul\":1215:1221   */\n      dup2\n        /* \"#utility.yul\":1202:1222   */\n      calldataload\n        /* \"#utility.yul\":1193:1222   */\n      swap1\n      pop\n        /* \"#utility.yul\":1231:1264   */\n      tag_575\n        /* \"#utility.yul\":1258:1263   */\n      dup2\n        /* \"#utility.yul\":1231:1264   */\n      tag_444\n      jump\t// in\n    tag_575:\n        /* \"#utility.yul\":1131:1270   */\n      swap3\n      swap2\n      pop\n      pop\n      jump\t// out\n        /* \"#utility.yul\":1276:1605   */\n    tag_23:\n        /* \"#utility.yul\":1335:1341   */\n      0x00\n        /* \"#utility.yul\":1384:1386   */\n      0x20\n        /* \"#utility.yul\":1372:1381   */\n      dup3\n        /* \"#utility.yul\":1363:1370   */\n      dup5\n        /* \"#utility.yul\":1359:1382   */\n      sub\n        /* \"#utility.yul\":1355:1387   */\n      slt\n        /* \"#utility.yul\":1352:1471   */\n      iszero\n      tag_577\n      jumpi\n        /* \"#utility.yul\":1390:1469   */\n      tag_578\n      tag_441\n      jump\t// in\n    tag_578:\n        /* \"#utility.yul\":1352:1471   */\n    tag_577:\n        /* \"#utility.yul\":1510:1511   */\n      0x00\n        /* \"#utility.yul\":1535:1588   */\n      tag_579\n        /* \"#utility.yul\":1580:1587   */\n      dup5\n        /* \"#utility.yul\":1571:1577   */\n      dup3\n        /* \"#utility.yul\":1560:1569   */\n      dup6\n        /* \"#utility.yul\":1556:1578   */\n      add\n        /* \"#utility.yul\":1535:1588   */\n      tag_445\n      jump\t// in\n    tag_579:\n        /* \"#utility.yul\":1525:1588   */\n      swap2\n      pop\n        /* \"#utility.yul\":1481:1598   */\n      pop\n        /* \"#utility.yul\":1276:1605   */\n      swap3\n      swap2\n      pop\n      pop\n      jump\t// out\n        /* \"#utility.yul\":1611:1710   */\n    tag_446:\n        /* \"#utility.yul\":1663:1669   */\n      0x00\n        /* \"#utility.yul\":1697:1702   */\n      dup2\n        /* \"#utility.yul\":1691:1703   */\n      mload\n        /* \"#utility.yul\":1681:1703   */\n      swap1\n      pop\n        /* \"#utility.yul\":1611:1710   */\n      swap2\n      swap1\n      pop\n      jump\t// out\n        /* \"#utility.yul\":1716:1885   */\n    tag_447:\n        /* \"#utility.yul\":1800:1811   */\n      0x00\n        /* \"#utility.yul\":1834:1840   */\n      dup3\n        /* \"#utility.yul\":1829:1832   */\n      dup3\n        /* \"#utility.yul\":1822:1841   */\n      mstore\n        /* \"#utility.yul\":1874:1878   */\n      0x20\n        /* \"#utility.yul\":1869:1872   */\n      dup3\n        /* \"#utility.yul\":1865:1879   */\n      add\n        /* \"#utility.yul\":1850:1879   */\n      swap1\n      pop\n        /* \"#utility.yul\":1716:1885   */\n      swap3\n      swap2\n      pop\n      pop\n      jump\t// out\n        /* \"#utility.yul\":1891:2030   */\n    tag_448:\n        /* \"#utility.yul\":1980:1986   */\n      dup3\n        /* \"#utility.yul\":1975:1978   */\n      dup2\n        /* \"#utility.yul\":1970:1973   */\n      dup4\n        /* \"#utility.yul\":1964:1987   */\n      mcopy\n        /* \"#utility.yul\":2021:2022   */\n      0x00\n        /* \"#utility.yul\":2012:2018   */\n      dup4\n        /* \"#utility.yul\":2007:2010   */\n      dup4\n        /* \"#utility.yul\":2003:2019   */\n      add\n        /* \"#utility.yul\":1996:2023   */\n      mstore\n        /* \"#utility.yul\":1891:2030   */\n      pop\n      pop\n      pop\n      jump\t// out\n        /* \"#utility.yul\":2036:2138   */\n    tag_449:\n        /* \"#utility.yul\":2077:2083   */\n      0x00\n        /* \"#utility.yul\":2128:2130   */\n      0x1f\n        /* \"#utility.yul\":2124:2131   */\n      not\n        /* \"#utility.yul\":2119:2121   */\n      0x1f\n        /* \"#utility.yul\":2112:2117   */\n      dup4\n        /* \"#utility.yul\":2108:2122   */\n      add\n        /* \"#utility.yul\":2104:2132   */\n      and\n        /* \"#utility.yul\":2094:2132   */\n      swap1\n      pop\n        /* \"#utility.yul\":2036:2138   */\n      swap2\n      swap1\n      pop\n      jump\t// out\n        /* \"#utility.yul\":2144:2521   */\n    tag_450:\n        /* \"#utility.yul\":2232:2235   */\n      0x00\n        /* \"#utility.yul\":2260:2299   */\n      tag_585\n        /* \"#utility.yul\":2293:2298   */\n      dup3\n        /* \"#utility.yul\":2260:2299   */\n      tag_446\n      jump\t// in\n    tag_585:\n        /* \"#utility.yul\":2315:2386   */\n      tag_586\n        /* \"#utility.yul\":2379:2385   */\n      dup2\n        /* \"#utility.yul\":2374:2377   */\n      dup6\n        /* \"#utility.yul\":2315:2386   */\n      tag_447\n      jump\t// in\n    tag_586:\n        /* \"#utility.yul\":2308:2386   */\n      swap4\n      pop\n        /* \"#utility.yul\":2395:2460   */\n      tag_587\n        /* \"#utility.yul\":2453:2459   */\n      dup2\n        /* \"#utility.yul\":2448:2451   */\n      dup6\n        /* \"#utility.yul\":2441:2445   */\n      0x20\n        /* \"#utility.yul\":2434:2439   */\n      dup7\n        /* \"#utility.yul\":2430:2446   */\n      add\n        /* \"#utility.yul\":2395:2460   */\n      tag_448\n      jump\t// in\n    tag_587:\n        /* \"#utility.yul\":2485:2514   */\n      tag_588\n        /* \"#utility.yul\":2507:2513   */\n      dup2\n        /* \"#utility.yul\":2485:2514   */\n      tag_449\n      jump\t// in\n    tag_588:\n        /* \"#utility.yul\":2480:2483   */\n      dup5\n        /* \"#utility.yul\":2476:2515   */\n      add\n        /* \"#utility.yul\":2469:2515   */\n      swap2\n      pop\n        /* \"#utility.yul\":2236:2521   */\n      pop\n        /* \"#utility.yul\":2144:2521   */\n      swap3\n      swap2\n      pop\n      pop\n      jump\t// out\n        /* \"#utility.yul\":2527:2645   */\n    tag_451:\n        /* \"#utility.yul\":2614:2638   */\n      tag_590\n        /* \"#utility.yul\":2632:2637   */\n      dup2\n        /* \"#utility.yul\":2614:2638   */\n      tag_443\n      jump\t// in\n    tag_590:\n        /* \"#utility.yul\":2609:2612   */\n      dup3\n        /* \"#utility.yul\":2602:2639   */\n      mstore\n        /* \"#utility.yul\":2527:2645   */\n      pop\n      pop\n      jump\t// out\n        /* \"#utility.yul\":2651:2741   */\n    tag_452:\n        /* \"#utility.yul\":2685:2692   */\n      0x00\n        /* \"#utility.yul\":2728:2733   */\n      dup2\n        /* \"#utility.yul\":2721:2734   */\n      iszero\n        /* \"#utility.yul\":2714:2735   */\n      iszero\n        /* \"#utility.yul\":2703:2735   */\n      swap1\n      pop\n        /* \"#utility.yul\":2651:2741   */\n      swap2\n      swap1\n      pop\n      jump\t// out\n        /* \"#utility.yul\":2747:2856   */\n    tag_453:\n        /* \"#utility.yul\":2828:2849   */\n      tag_593\n        /* \"#utility.yul\":2843:2848   */\n      dup2\n        /* \"#utility.yul\":2828:2849   */\n      tag_452\n      jump\t// in\n    tag_593:\n        /* \"#utility.yul\":2823:2826   */\n      dup3\n        /* \"#utility.yul\":2816:2850   */\n      mstore\n        /* \"#utility.yul\":2747:2856   */\n      pop\n      pop\n      jump\t// out\n        /* \"#utility.yul\":2862:4009   */\n    tag_26:\n        /* \"#utility.yul\":3177:3181   */\n      0x00\n        /* \"#utility.yul\":3215:3218   */\n      0xe0\n        /* \"#utility.yul\":3204:3213   */\n      dup3\n        /* \"#utility.yul\":3200:3219   */\n      add\n        /* \"#utility.yul\":3192:3219   */\n      swap1\n      pop\n        /* \"#utility.yul\":3229:3300   */\n      tag_595\n        /* \"#utility.yul\":3297:3298   */\n      0x00\n        /* \"#utility.yul\":3286:3295   */\n      dup4\n        /* \"#utility.yul\":3282:3299   */\n      add\n        /* \"#utility.yul\":3273:3279   */\n      dup11\n        /* \"#utility.yul\":3229:3300   */\n      tag_439\n      jump\t// in\n    tag_595:\n        /* \"#utility.yul\":3347:3356   */\n      dup2\n        /* \"#utility.yul\":3341:3345   */\n      dup2\n        /* \"#utility.yul\":3337:3357   */\n      sub\n        /* \"#utility.yul\":3332:3334   */\n      0x20\n        /* \"#utility.yul\":3321:3330   */\n      dup4\n        /* \"#utility.yul\":3317:3335   */\n      add\n        /* \"#utility.yul\":3310:3358   */\n      mstore\n        /* \"#utility.yul\":3375:3453   */\n      tag_596\n        /* \"#utility.yul\":3448:3452   */\n      dup2\n        /* \"#utility.yul\":3439:3445   */\n      dup10\n        /* \"#utility.yul\":3375:3453   */\n      tag_450\n      jump\t// in\n    tag_596:\n        /* \"#utility.yul\":3367:3453   */\n      swap1\n      pop\n        /* \"#utility.yul\":3500:3509   */\n      dup2\n        /* \"#utility.yul\":3494:3498   */\n      dup2\n        /* \"#utility.yul\":3490:3510   */\n      sub\n        /* \"#utility.yul\":3485:3487   */\n      0x40\n        /* \"#utility.yul\":3474:3483   */\n      dup4\n        /* \"#utility.yul\":3470:3488   */\n      add\n        /* \"#utility.yul\":3463:3511   */\n      mstore\n        /* \"#utility.yul\":3528:3606   */\n      tag_597\n        /* \"#utility.yul\":3601:3605   */\n      dup2\n        /* \"#utility.yul\":3592:3598   */\n      dup9\n        /* \"#utility.yul\":3528:3606   */\n      tag_450\n      jump\t// in\n    tag_597:\n        /* \"#utility.yul\":3520:3606   */\n      swap1\n      pop\n        /* \"#utility.yul\":3653:3662   */\n      dup2\n        /* \"#utility.yul\":3647:3651   */\n      dup2\n        /* \"#utility.yul\":3643:3663   */\n      sub\n        /* \"#utility.yul\":3638:3640   */\n      0x60\n        /* \"#utility.yul\":3627:3636   */\n      dup4\n        /* \"#utility.yul\":3623:3641   */\n      add\n        /* \"#utility.yul\":3616:3664   */\n      mstore\n        /* \"#utility.yul\":3681:3759   */\n      tag_598\n        /* \"#utility.yul\":3754:3758   */\n      dup2\n        /* \"#utility.yul\":3745:3751   */\n      dup8\n        /* \"#utility.yul\":3681:3759   */\n      tag_450\n      jump\t// in\n    tag_598:\n        /* \"#utility.yul\":3673:3759   */\n      swap1\n      pop\n        /* \"#utility.yul\":3769:3842   */\n      tag_599\n        /* \"#utility.yul\":3837:3840   */\n      0x80\n        /* \"#utility.yul\":3826:3835   */\n      dup4\n        /* \"#utility.yul\":3822:3841   */\n      add\n        /* \"#utility.yul\":3813:3819   */\n      dup7\n        /* \"#utility.yul\":3769:3842   */\n      tag_451\n      jump\t// in\n    tag_599:\n        /* \"#utility.yul\":3852:3925   */\n      tag_600\n        /* \"#utility.yul\":3920:3923   */\n      0xa0\n        /* \"#utility.yul\":3909:3918   */\n      dup4\n        /* \"#utility.yul\":3905:3924   */\n      add\n        /* \"#utility.yul\":3896:3902   */\n      dup6\n        /* \"#utility.yul\":3852:3925   */\n      tag_451\n      jump\t// in\n    tag_600:\n        /* \"#utility.yul\":3935:4002   */\n      tag_601\n        /* \"#utility.yul\":3997:4000   */\n      0xc0\n        /* \"#utility.yul\":3986:3995   */\n      dup4\n        /* \"#utility.yul\":3982:4001   */\n      add\n        /* \"#utility.yul\":3973:3979   */\n      dup5\n        /* \"#utility.yul\":3935:4002   */\n      tag_453\n      jump\t// in\n    tag_601:\n        /* \"#utility.yul\":2862:4009   */\n      swap9\n      swap8\n      pop\n      pop\n      pop\n      pop\n      pop\n      pop\n      pop\n      pop\n      jump\t// out\n        /* \"#utility.yul\":4015:4132   */\n    tag_454:\n        /* \"#utility.yul\":4124:4125   */\n      0x00\n        /* \"#utility.yul\":4121:4122   */\n      0x00\n        /* \"#utility.yul\":4114:4126   */\n      revert\n        /* \"#utility.yul\":4138:4255   */\n    tag_455:\n        /* \"#utility.yul\":4247:4248   */\n      0x00\n        /* \"#utility.yul\":4244:4245   */\n      0x00\n        /* \"#utility.yul\":4237:4249   */\n      revert\n        /* \"#utility.yul\":4261:4441   */\n    tag_300:\n        /* \"#utility.yul\":4309:4386   */\n      0x4e487b7100000000000000000000000000000000000000000000000000000000\n        /* \"#utility.yul\":4306:4307   */\n      0x00\n        /* \"#utility.yul\":4299:4387   */\n      mstore\n        /* \"#utility.yul\":4406:4410   */\n      0x41\n        /* \"#utility.yul\":4403:4404   */\n      0x04\n        /* \"#utility.yul\":4396:4411   */\n      mstore\n        /* \"#utility.yul\":4430:4434   */\n      0x24\n        /* \"#utility.yul\":4427:4428   */\n      0x00\n        /* \"#utility.yul\":4420:4435   */\n      revert\n        /* \"#utility.yul\":4447:4728   */\n    tag_456:\n        /* \"#utility.yul\":4530:4557   */\n      tag_606\n        /* \"#utility.yul\":4552:4556   */\n      dup3\n        /* \"#utility.yul\":4530:4557   */\n      tag_449\n      jump\t// in\n    tag_606:\n        /* \"#utility.yul\":4522:4528   */\n      dup2\n        /* \"#utility.yul\":4518:4558   */\n      add\n        /* \"#utility.yul\":4660:4666   */\n      dup2\n        /* \"#utility.yul\":4648:4658   */\n      dup2\n        /* \"#utility.yul\":4645:4667   */\n      lt\n        /* \"#utility.yul\":4624:4642   */\n      0xffffffffffffffff\n        /* \"#utility.yul\":4612:4622   */\n      dup3\n        /* \"#utility.yul\":4609:4643   */\n      gt\n        /* \"#utility.yul\":4606:4668   */\n      or\n        /* \"#utility.yul\":4603:4691   */\n      iszero\n      tag_607\n      jumpi\n        /* \"#utility.yul\":4671:4689   */\n      tag_608\n      tag_300\n      jump\t// in\n    tag_608:\n        /* \"#utility.yul\":4603:4691   */\n    tag_607:\n        /* \"#utility.yul\":4711:4721   */\n      dup1\n        /* \"#utility.yul\":4707:4709   */\n      0x40\n        /* \"#utility.yul\":4700:4722   */\n      mstore\n        /* \"#utility.yul\":4490:4728   */\n      pop\n        /* \"#utility.yul\":4447:4728   */\n      pop\n      pop\n      jump\t// out\n        /* \"#utility.yul\":4734:4863   */\n    tag_457:\n        /* \"#utility.yul\":4768:4774   */\n      0x00\n        /* \"#utility.yul\":4795:4815   */\n      tag_610\n      tag_440\n      jump\t// in\n    tag_610:\n        /* \"#utility.yul\":4785:4815   */\n      swap1\n      pop\n        /* \"#utility.yul\":4824:4857   */\n      tag_611\n        /* \"#utility.yul\":4852:4856   */\n      dup3\n        /* \"#utility.yul\":4844:4850   */\n      dup3\n        /* \"#utility.yul\":4824:4857   */\n      tag_456\n      jump\t// in\n    tag_611:\n        /* \"#utility.yul\":4734:4863   */\n      swap2\n      swap1\n      pop\n      jump\t// out\n        /* \"#utility.yul\":4869:5177   */\n    tag_458:\n        /* \"#utility.yul\":4931:4935   */\n      0x00\n        /* \"#utility.yul\":5021:5039   */\n      0xffffffffffffffff\n        /* \"#utility.yul\":5013:5019   */\n      dup3\n        /* \"#utility.yul\":5010:5040   */\n      gt\n        /* \"#utility.yul\":5007:5063   */\n      iszero\n      tag_613\n      jumpi\n        /* \"#utility.yul\":5043:5061   */\n      tag_614\n      tag_300\n      jump\t// in\n    tag_614:\n        /* \"#utility.yul\":5007:5063   */\n    tag_613:\n        /* \"#utility.yul\":5081:5110   */\n      tag_615\n        /* \"#utility.yul\":5103:5109   */\n      dup3\n        /* \"#utility.yul\":5081:5110   */\n      tag_449\n      jump\t// in\n    tag_615:\n        /* \"#utility.yul\":5073:5110   */\n      swap1\n      pop\n        /* \"#utility.yul\":5165:5169   */\n      0x20\n        /* \"#utility.yul\":5159:5163   */\n      dup2\n        /* \"#utility.yul\":5155:5170   */\n      add\n        /* \"#utility.yul\":5147:5170   */\n      swap1\n      pop\n        /* \"#utility.yul\":4869:5177   */\n      swap2\n      swap1\n      pop\n      jump\t// out\n        /* \"#utility.yul\":5183:5331   */\n    tag_459:\n        /* \"#utility.yul\":5281:5287   */\n      dup3\n        /* \"#utility.yul\":5276:5279   */\n      dup2\n        /* \"#utility.yul\":5271:5274   */\n      dup4\n        /* \"#utility.yul\":5258:5288   */\n      calldatacopy\n        /* \"#utility.yul\":5322:5323   */\n      0x00\n        /* \"#utility.yul\":5313:5319   */\n      dup4\n        /* \"#utility.yul\":5308:5311   */\n      dup4\n        /* \"#utility.yul\":5304:5320   */\n      add\n        /* \"#utility.yul\":5297:5324   */\n      mstore\n        /* \"#utility.yul\":5183:5331   */\n      pop\n      pop\n      pop\n      jump\t// out\n        /* \"#utility.yul\":5337:5762   */\n    tag_460:\n        /* \"#utility.yul\":5415:5420   */\n      0x00\n        /* \"#utility.yul\":5440:5506   */\n      tag_618\n        /* \"#utility.yul\":5456:5505   */\n      tag_619\n        /* \"#utility.yul\":5498:5504   */\n      dup5\n        /* \"#utility.yul\":5456:5505   */\n      tag_458\n      jump\t// in\n    tag_619:\n        /* \"#utility.yul\":5440:5506   */\n      tag_457\n      jump\t// in\n    tag_618:\n        /* \"#utility.yul\":5431:5506   */\n      swap1\n      pop\n        /* \"#utility.yul\":5529:5535   */\n      dup3\n        /* \"#utility.yul\":5522:5527   */\n      dup2\n        /* \"#utility.yul\":5515:5536   */\n      mstore\n        /* \"#utility.yul\":5567:5571   */\n      0x20\n        /* \"#utility.yul\":5560:5565   */\n      dup2\n        /* \"#utility.yul\":5556:5572   */\n      add\n        /* \"#utility.yul\":5605:5608   */\n      dup5\n        /* \"#utility.yul\":5596:5602   */\n      dup5\n        /* \"#utility.yul\":5591:5594   */\n      dup5\n        /* \"#utility.yul\":5587:5603   */\n      add\n        /* \"#utility.yul\":5584:5609   */\n      gt\n        /* \"#utility.yul\":5581:5693   */\n      iszero\n      tag_620\n      jumpi\n        /* \"#utility.yul\":5612:5691   */\n      tag_621\n      tag_455\n      jump\t// in\n    tag_621:\n        /* \"#utility.yul\":5581:5693   */\n    tag_620:\n        /* \"#utility.yul\":5702:5756   */\n      tag_622\n        /* \"#utility.yul\":5749:5755   */\n      dup5\n        /* \"#utility.yul\":5744:5747   */\n      dup3\n        /* \"#utility.yul\":5739:5742   */\n      dup6\n        /* \"#utility.yul\":5702:5756   */\n      tag_459\n      jump\t// in\n    tag_622:\n        /* \"#utility.yul\":5421:5762   */\n      pop\n        /* \"#utility.yul\":5337:5762   */\n      swap4\n      swap3\n      pop\n      pop\n      pop\n      jump\t// out\n        /* \"#utility.yul\":5782:6122   */\n    tag_461:\n        /* \"#utility.yul\":5838:5843   */\n      0x00\n        /* \"#utility.yul\":5887:5890   */\n      dup3\n        /* \"#utility.yul\":5880:5884   */\n      0x1f\n        /* \"#utility.yul\":5872:5878   */\n      dup4\n        /* \"#utility.yul\":5868:5885   */\n      add\n        /* \"#utility.yul\":5864:5891   */\n      slt\n        /* \"#utility.yul\":5854:5976   */\n      tag_624\n      jumpi\n        /* \"#utility.yul\":5895:5974   */\n      tag_625\n      tag_454\n      jump\t// in\n    tag_625:\n        /* \"#utility.yul\":5854:5976   */\n    tag_624:\n        /* \"#utility.yul\":6012:6018   */\n      dup2\n        /* \"#utility.yul\":5999:6019   */\n      calldataload\n        /* \"#utility.yul\":6037:6116   */\n      tag_626\n        /* \"#utility.yul\":6112:6115   */\n      dup5\n        /* \"#utility.yul\":6104:6110   */\n      dup3\n        /* \"#utility.yul\":6097:6101   */\n      0x20\n        /* \"#utility.yul\":6089:6095   */\n      dup7\n        /* \"#utility.yul\":6085:6102   */\n      add\n        /* \"#utility.yul\":6037:6116   */\n      tag_460\n      jump\t// in\n    tag_626:\n        /* \"#utility.yul\":6028:6116   */\n      swap2\n      pop\n        /* \"#utility.yul\":5844:6122   */\n      pop\n        /* \"#utility.yul\":5782:6122   */\n      swap3\n      swap2\n      pop\n      pop\n      jump\t// out\n        /* \"#utility.yul\":6128:6468   */\n    tag_462:\n        /* \"#utility.yul\":6234:6238   */\n      0x00\n        /* \"#utility.yul\":6324:6342   */\n      0xffffffffffffffff\n        /* \"#utility.yul\":6316:6322   */\n      dup3\n        /* \"#utility.yul\":6313:6343   */\n      gt\n        /* \"#utility.yul\":6310:6366   */\n      iszero\n      tag_628\n      jumpi\n        /* \"#utility.yul\":6346:6364   */\n      tag_629\n      tag_300\n      jump\t// in\n    tag_629:\n        /* \"#utility.yul\":6310:6366   */\n    tag_628:\n        /* \"#utility.yul\":6396:6400   */\n      0x20\n        /* \"#utility.yul\":6388:6394   */\n      dup3\n        /* \"#utility.yul\":6384:6401   */\n      mul\n        /* \"#utility.yul\":6376:6401   */\n      swap1\n      pop\n        /* \"#utility.yul\":6456:6460   */\n      0x20\n        /* \"#utility.yul\":6450:6454   */\n      dup2\n        /* \"#utility.yul\":6446:6461   */\n      add\n        /* \"#utility.yul\":6438:6461   */\n      swap1\n      pop\n        /* \"#utility.yul\":6128:6468   */\n      swap2\n      swap1\n      pop\n      jump\t// out\n        /* \"#utility.yul\":6474:6591   */\n    tag_463:\n        /* \"#utility.yul\":6583:6584   */\n      0x00\n        /* \"#utility.yul\":6580:6581   */\n      0x00\n        /* \"#utility.yul\":6573:6585   */\n      revert\n        /* \"#utility.yul\":6597:6714   */\n    tag_464:\n        /* \"#utility.yul\":6706:6707   */\n      0x00\n        /* \"#utility.yul\":6703:6704   */\n      0x00\n        /* \"#utility.yul\":6696:6708   */\n      revert\n        /* \"#utility.yul\":6871:7459   */\n    tag_466:\n        /* \"#utility.yul\":6949:6954   */\n      0x00\n        /* \"#utility.yul\":6993:6997   */\n      0x40\n        /* \"#utility.yul\":6981:6990   */\n      dup3\n        /* \"#utility.yul\":6976:6979   */\n      dup5\n        /* \"#utility.yul\":6972:6991   */\n      sub\n        /* \"#utility.yul\":6968:6998   */\n      slt\n        /* \"#utility.yul\":6965:7082   */\n      iszero\n      tag_634\n      jumpi\n        /* \"#utility.yul\":7001:7080   */\n      tag_635\n      tag_464\n      jump\t// in\n    tag_635:\n        /* \"#utility.yul\":6965:7082   */\n    tag_634:\n        /* \"#utility.yul\":7100:7121   */\n      tag_636\n        /* \"#utility.yul\":7116:7120   */\n      0x40\n        /* \"#utility.yul\":7100:7121   */\n      tag_457\n      jump\t// in\n    tag_636:\n        /* \"#utility.yul\":7091:7121   */\n      swap1\n      pop\n        /* \"#utility.yul\":7186:7187   */\n      0x00\n        /* \"#utility.yul\":7226:7275   */\n      tag_637\n        /* \"#utility.yul\":7271:7274   */\n      dup5\n        /* \"#utility.yul\":7262:7268   */\n      dup3\n        /* \"#utility.yul\":7251:7260   */\n      dup6\n        /* \"#utility.yul\":7247:7269   */\n      add\n        /* \"#utility.yul\":7226:7275   */\n      tag_445\n      jump\t// in\n    tag_637:\n        /* \"#utility.yul\":7219:7223   */\n      0x00\n        /* \"#utility.yul\":7212:7217   */\n      dup4\n        /* \"#utility.yul\":7208:7224   */\n      add\n        /* \"#utility.yul\":7201:7276   */\n      mstore\n        /* \"#utility.yul\":7131:7287   */\n      pop\n        /* \"#utility.yul\":7350:7352   */\n      0x20\n        /* \"#utility.yul\":7391:7440   */\n      tag_638\n        /* \"#utility.yul\":7436:7439   */\n      dup5\n        /* \"#utility.yul\":7427:7433   */\n      dup3\n        /* \"#utility.yul\":7416:7425   */\n      dup6\n        /* \"#utility.yul\":7412:7434   */\n      add\n        /* \"#utility.yul\":7391:7440   */\n      tag_445\n      jump\t// in\n    tag_638:\n        /* \"#utility.yul\":7384:7388   */\n      0x20\n        /* \"#utility.yul\":7377:7382   */\n      dup4\n        /* \"#utility.yul\":7373:7389   */\n      add\n        /* \"#utility.yul\":7366:7441   */\n      mstore\n        /* \"#utility.yul\":7297:7452   */\n      pop\n        /* \"#utility.yul\":6871:7459   */\n      swap3\n      swap2\n      pop\n      pop\n      jump\t// out\n        /* \"#utility.yul\":7495:8292   */\n    tag_467:\n        /* \"#utility.yul\":7620:7625   */\n      0x00\n        /* \"#utility.yul\":7645:7755   */\n      tag_640\n        /* \"#utility.yul\":7661:7754   */\n      tag_641\n        /* \"#utility.yul\":7747:7753   */\n      dup5\n        /* \"#utility.yul\":7661:7754   */\n      tag_462\n      jump\t// in\n    tag_641:\n        /* \"#utility.yul\":7645:7755   */\n      tag_457\n      jump\t// in\n    tag_640:\n        /* \"#utility.yul\":7636:7755   */\n      swap1\n      pop\n        /* \"#utility.yul\":7775:7780   */\n      dup1\n        /* \"#utility.yul\":7804:7810   */\n      dup4\n        /* \"#utility.yul\":7797:7802   */\n      dup3\n        /* \"#utility.yul\":7790:7811   */\n      mstore\n        /* \"#utility.yul\":7838:7842   */\n      0x20\n        /* \"#utility.yul\":7831:7836   */\n      dup3\n        /* \"#utility.yul\":7827:7843   */\n      add\n        /* \"#utility.yul\":7820:7843   */\n      swap1\n      pop\n        /* \"#utility.yul\":7891:7895   */\n      0x40\n        /* \"#utility.yul\":7883:7889   */\n      dup5\n        /* \"#utility.yul\":7879:7896   */\n      mul\n        /* \"#utility.yul\":7871:7877   */\n      dup4\n        /* \"#utility.yul\":7867:7897   */\n      add\n        /* \"#utility.yul\":7920:7923   */\n      dup6\n        /* \"#utility.yul\":7912:7918   */\n      dup2\n        /* \"#utility.yul\":7909:7924   */\n      gt\n        /* \"#utility.yul\":7906:8028   */\n      iszero\n      tag_642\n      jumpi\n        /* \"#utility.yul\":7939:8018   */\n      tag_643\n      tag_463\n      jump\t// in\n    tag_643:\n        /* \"#utility.yul\":7906:8028   */\n    tag_642:\n        /* \"#utility.yul\":8054:8060   */\n      dup4\n        /* \"#utility.yul\":8037:8286   */\n    tag_644:\n        /* \"#utility.yul\":8071:8077   */\n      dup2\n        /* \"#utility.yul\":8066:8069   */\n      dup2\n        /* \"#utility.yul\":8063:8078   */\n      lt\n        /* \"#utility.yul\":8037:8286   */\n      iszero\n      tag_646\n      jumpi\n        /* \"#utility.yul\":8146:8149   */\n      dup1\n        /* \"#utility.yul\":8175:8241   */\n      tag_647\n        /* \"#utility.yul\":8237:8240   */\n      dup9\n        /* \"#utility.yul\":8225:8235   */\n      dup3\n        /* \"#utility.yul\":8175:8241   */\n      tag_466\n      jump\t// in\n    tag_647:\n        /* \"#utility.yul\":8170:8173   */\n      dup5\n        /* \"#utility.yul\":8163:8242   */\n      mstore\n        /* \"#utility.yul\":8271:8275   */\n      0x20\n        /* \"#utility.yul\":8266:8269   */\n      dup5\n        /* \"#utility.yul\":8262:8276   */\n      add\n        /* \"#utility.yul\":8255:8276   */\n      swap4\n      pop\n        /* \"#utility.yul\":8113:8286   */\n      pop\n        /* \"#utility.yul\":8097:8101   */\n      0x40\n        /* \"#utility.yul\":8092:8095   */\n      dup2\n        /* \"#utility.yul\":8088:8102   */\n      add\n        /* \"#utility.yul\":8081:8102   */\n      swap1\n      pop\n        /* \"#utility.yul\":8037:8286   */\n      jump(tag_644)\n    tag_646:\n        /* \"#utility.yul\":8041:8062   */\n      pop\n        /* \"#utility.yul\":7626:8292   */\n      pop\n      pop\n        /* \"#utility.yul\":7495:8292   */\n      swap4\n      swap3\n      pop\n      pop\n      pop\n      jump\t// out\n        /* \"#utility.yul\":8328:8756   */\n    tag_468:\n        /* \"#utility.yul\":8428:8433   */\n      0x00\n        /* \"#utility.yul\":8477:8480   */\n      dup3\n        /* \"#utility.yul\":8470:8474   */\n      0x1f\n        /* \"#utility.yul\":8462:8468   */\n      dup4\n        /* \"#utility.yul\":8458:8475   */\n      add\n        /* \"#utility.yul\":8454:8481   */\n      slt\n        /* \"#utility.yul\":8444:8566   */\n      tag_649\n      jumpi\n        /* \"#utility.yul\":8485:8564   */\n      tag_650\n      tag_454\n      jump\t// in\n    tag_650:\n        /* \"#utility.yul\":8444:8566   */\n    tag_649:\n        /* \"#utility.yul\":8602:8608   */\n      dup2\n        /* \"#utility.yul\":8589:8609   */\n      calldataload\n        /* \"#utility.yul\":8627:8750   */\n      tag_651\n        /* \"#utility.yul\":8746:8749   */\n      dup5\n        /* \"#utility.yul\":8738:8744   */\n      dup3\n        /* \"#utility.yul\":8731:8735   */\n      0x20\n        /* \"#utility.yul\":8723:8729   */\n      dup7\n        /* \"#utility.yul\":8719:8736   */\n      add\n        /* \"#utility.yul\":8627:8750   */\n      tag_467\n      jump\t// in\n    tag_651:\n        /* \"#utility.yul\":8618:8750   */\n      swap2\n      pop\n        /* \"#utility.yul\":8434:8756   */\n      pop\n        /* \"#utility.yul\":8328:8756   */\n      swap3\n      swap2\n      pop\n      pop\n      jump\t// out\n        /* \"#utility.yul\":8762:10335   */\n    tag_30:\n        /* \"#utility.yul\":8932:8938   */\n      0x00\n        /* \"#utility.yul\":8940:8946   */\n      0x00\n        /* \"#utility.yul\":8948:8954   */\n      0x00\n        /* \"#utility.yul\":8956:8962   */\n      0x00\n        /* \"#utility.yul\":9005:9008   */\n      0x80\n        /* \"#utility.yul\":8993:9002   */\n      dup6\n        /* \"#utility.yul\":8984:8991   */\n      dup8\n        /* \"#utility.yul\":8980:9003   */\n      sub\n        /* \"#utility.yul\":8976:9009   */\n      slt\n        /* \"#utility.yul\":8973:9093   */\n      iszero\n      tag_653\n      jumpi\n        /* \"#utility.yul\":9012:9091   */\n      tag_654\n      tag_441\n      jump\t// in\n    tag_654:\n        /* \"#utility.yul\":8973:9093   */\n    tag_653:\n        /* \"#utility.yul\":9160:9161   */\n      0x00\n        /* \"#utility.yul\":9149:9158   */\n      dup6\n        /* \"#utility.yul\":9145:9162   */\n      add\n        /* \"#utility.yul\":9132:9163   */\n      calldataload\n        /* \"#utility.yul\":9190:9208   */\n      0xffffffffffffffff\n        /* \"#utility.yul\":9182:9188   */\n      dup2\n        /* \"#utility.yul\":9179:9209   */\n      gt\n        /* \"#utility.yul\":9176:9293   */\n      iszero\n      tag_655\n      jumpi\n        /* \"#utility.yul\":9212:9291   */\n      tag_656\n      tag_442\n      jump\t// in\n    tag_656:\n        /* \"#utility.yul\":9176:9293   */\n    tag_655:\n        /* \"#utility.yul\":9317:9380   */\n      tag_657\n        /* \"#utility.yul\":9372:9379   */\n      dup8\n        /* \"#utility.yul\":9363:9369   */\n      dup3\n        /* \"#utility.yul\":9352:9361   */\n      dup9\n        /* \"#utility.yul\":9348:9370   */\n      add\n        /* \"#utility.yul\":9317:9380   */\n      tag_461\n      jump\t// in\n    tag_657:\n        /* \"#utility.yul\":9307:9380   */\n      swap5\n      pop\n        /* \"#utility.yul\":9103:9390   */\n      pop\n        /* \"#utility.yul\":9457:9459   */\n      0x20\n        /* \"#utility.yul\":9446:9455   */\n      dup6\n        /* \"#utility.yul\":9442:9460   */\n      add\n        /* \"#utility.yul\":9429:9461   */\n      calldataload\n        /* \"#utility.yul\":9488:9506   */\n      0xffffffffffffffff\n        /* \"#utility.yul\":9480:9486   */\n      dup2\n        /* \"#utility.yul\":9477:9507   */\n      gt\n        /* \"#utility.yul\":9474:9591   */\n      iszero\n      tag_658\n      jumpi\n        /* \"#utility.yul\":9510:9589   */\n      tag_659\n      tag_442\n      jump\t// in\n    tag_659:\n        /* \"#utility.yul\":9474:9591   */\n    tag_658:\n        /* \"#utility.yul\":9615:9678   */\n      tag_660\n        /* \"#utility.yul\":9670:9677   */\n      dup8\n        /* \"#utility.yul\":9661:9667   */\n      dup3\n        /* \"#utility.yul\":9650:9659   */\n      dup9\n        /* \"#utility.yul\":9646:9668   */\n      add\n        /* \"#utility.yul\":9615:9678   */\n      tag_461\n      jump\t// in\n    tag_660:\n        /* \"#utility.yul\":9605:9678   */\n      swap4\n      pop\n        /* \"#utility.yul\":9400:9688   */\n      pop\n        /* \"#utility.yul\":9755:9757   */\n      0x40\n        /* \"#utility.yul\":9744:9753   */\n      dup6\n        /* \"#utility.yul\":9740:9758   */\n      add\n        /* \"#utility.yul\":9727:9759   */\n      calldataload\n        /* \"#utility.yul\":9786:9804   */\n      0xffffffffffffffff\n        /* \"#utility.yul\":9778:9784   */\n      dup2\n        /* \"#utility.yul\":9775:9805   */\n      gt\n        /* \"#utility.yul\":9772:9889   */\n      iszero\n      tag_661\n      jumpi\n        /* \"#utility.yul\":9808:9887   */\n      tag_662\n      tag_442\n      jump\t// in\n    tag_662:\n        /* \"#utility.yul\":9772:9889   */\n    tag_661:\n        /* \"#utility.yul\":9913:9976   */\n      tag_663\n        /* \"#utility.yul\":9968:9975   */\n      dup8\n        /* \"#utility.yul\":9959:9965   */\n      dup3\n        /* \"#utility.yul\":9948:9957   */\n      dup9\n        /* \"#utility.yul\":9944:9966   */\n      add\n        /* \"#utility.yul\":9913:9976   */\n      tag_461\n      jump\t// in\n    tag_663:\n        /* \"#utility.yul\":9903:9976   */\n      swap3\n      pop\n        /* \"#utility.yul\":9698:9986   */\n      pop\n        /* \"#utility.yul\":10053:10055   */\n      0x60\n        /* \"#utility.yul\":10042:10051   */\n      dup6\n        /* \"#utility.yul\":10038:10056   */\n      add\n        /* \"#utility.yul\":10025:10057   */\n      calldataload\n        /* \"#utility.yul\":10084:10102   */\n      0xffffffffffffffff\n        /* \"#utility.yul\":10076:10082   */\n      dup2\n        /* \"#utility.yul\":10073:10103   */\n      gt\n        /* \"#utility.yul\":10070:10187   */\n      iszero\n      tag_664\n      jumpi\n        /* \"#utility.yul\":10106:10185   */\n      tag_665\n      tag_442\n      jump\t// in\n    tag_665:\n        /* \"#utility.yul\":10070:10187   */\n    tag_664:\n        /* \"#utility.yul\":10211:10318   */\n      tag_666\n        /* \"#utility.yul\":10310:10317   */\n      dup8\n        /* \"#utility.yul\":10301:10307   */\n      dup3\n        /* \"#utility.yul\":10290:10299   */\n      dup9\n        /* \"#utility.yul\":10286:10308   */\n      add\n        /* \"#utility.yul\":10211:10318   */\n      tag_468\n      jump\t// in\n    tag_666:\n        /* \"#utility.yul\":10201:10318   */\n      swap2\n      pop\n        /* \"#utility.yul\":9996:10328   */\n      pop\n        /* \"#utility.yul\":8762:10335   */\n      swap3\n      swap6\n      swap2\n      swap5\n      pop\n      swap3\n      pop\n      jump\t// out\n        /* \"#utility.yul\":10341:10455   */\n    tag_469:\n        /* \"#utility.yul\":10408:10414   */\n      0x00\n        /* \"#utility.yul\":10442:10447   */\n      dup2\n        /* \"#utility.yul\":10436:10448   */\n      mload\n        /* \"#utility.yul\":10426:10448   */\n      swap1\n      pop\n        /* \"#utility.yul\":10341:10455   */\n      swap2\n      swap1\n      pop\n      jump\t// out\n        /* \"#utility.yul\":10461:10645   */\n    tag_470:\n        /* \"#utility.yul\":10560:10571   */\n      0x00\n        /* \"#utility.yul\":10594:10600   */\n      dup3\n        /* \"#utility.yul\":10589:10592   */\n      dup3\n        /* \"#utility.yul\":10582:10601   */\n      mstore\n        /* \"#utility.yul\":10634:10638   */\n      0x20\n        /* \"#utility.yul\":10629:10632   */\n      dup3\n        /* \"#utility.yul\":10625:10639   */\n      add\n        /* \"#utility.yul\":10610:10639   */\n      swap1\n      pop\n        /* \"#utility.yul\":10461:10645   */\n      swap3\n      swap2\n      pop\n      pop\n      jump\t// out\n        /* \"#utility.yul\":10651:10783   */\n    tag_471:\n        /* \"#utility.yul\":10718:10722   */\n      0x00\n        /* \"#utility.yul\":10741:10744   */\n      dup2\n        /* \"#utility.yul\":10733:10744   */\n      swap1\n      pop\n        /* \"#utility.yul\":10771:10775   */\n      0x20\n        /* \"#utility.yul\":10766:10769   */\n      dup3\n        /* \"#utility.yul\":10762:10776   */\n      add\n        /* \"#utility.yul\":10754:10776   */\n      swap1\n      pop\n        /* \"#utility.yul\":10651:10783   */\n      swap2\n      swap1\n      pop\n      jump\t// out\n        /* \"#utility.yul\":10789:10897   */\n    tag_472:\n        /* \"#utility.yul\":10866:10890   */\n      tag_671\n        /* \"#utility.yul\":10884:10889   */\n      dup2\n        /* \"#utility.yul\":10866:10890   */\n      tag_438\n      jump\t// in\n    tag_671:\n        /* \"#utility.yul\":10861:10864   */\n      dup3\n        /* \"#utility.yul\":10854:10891   */\n      mstore\n        /* \"#utility.yul\":10789:10897   */\n      pop\n      pop\n      jump\t// out\n        /* \"#utility.yul\":10903:11082   */\n    tag_473:\n        /* \"#utility.yul\":10972:10982   */\n      0x00\n        /* \"#utility.yul\":10993:11039   */\n      tag_673\n        /* \"#utility.yul\":11035:11038   */\n      dup4\n        /* \"#utility.yul\":11027:11033   */\n      dup4\n        /* \"#utility.yul\":10993:11039   */\n      tag_472\n      jump\t// in\n    tag_673:\n        /* \"#utility.yul\":11071:11075   */\n      0x20\n        /* \"#utility.yul\":11066:11069   */\n      dup4\n        /* \"#utility.yul\":11062:11076   */\n      add\n        /* \"#utility.yul\":11048:11076   */\n      swap1\n      pop\n        /* \"#utility.yul\":10903:11082   */\n      swap3\n      swap2\n      pop\n      pop\n      jump\t// out\n        /* \"#utility.yul\":11088:11201   */\n    tag_474:\n        /* \"#utility.yul\":11158:11162   */\n      0x00\n        /* \"#utility.yul\":11190:11194   */\n      0x20\n        /* \"#utility.yul\":11185:11188   */\n      dup3\n        /* \"#utility.yul\":11181:11195   */\n      add\n        /* \"#utility.yul\":11173:11195   */\n      swap1\n      pop\n        /* \"#utility.yul\":11088:11201   */\n      swap2\n      swap1\n      pop\n      jump\t// out\n        /* \"#utility.yul\":11237:11969   */\n    tag_475:\n        /* \"#utility.yul\":11356:11359   */\n      0x00\n        /* \"#utility.yul\":11385:11439   */\n      tag_676\n        /* \"#utility.yul\":11433:11438   */\n      dup3\n        /* \"#utility.yul\":11385:11439   */\n      tag_469\n      jump\t// in\n    tag_676:\n        /* \"#utility.yul\":11455:11541   */\n      tag_677\n        /* \"#utility.yul\":11534:11540   */\n      dup2\n        /* \"#utility.yul\":11529:11532   */\n      dup6\n        /* \"#utility.yul\":11455:11541   */\n      tag_470\n      jump\t// in\n    tag_677:\n        /* \"#utility.yul\":11448:11541   */\n      swap4\n      pop\n        /* \"#utility.yul\":11565:11621   */\n      tag_678\n        /* \"#utility.yul\":11615:11620   */\n      dup4\n        /* \"#utility.yul\":11565:11621   */\n      tag_471\n      jump\t// in\n    tag_678:\n        /* \"#utility.yul\":11644:11651   */\n      dup1\n        /* \"#utility.yul\":11675:11676   */\n      0x00\n        /* \"#utility.yul\":11660:11944   */\n    tag_679:\n        /* \"#utility.yul\":11685:11691   */\n      dup4\n        /* \"#utility.yul\":11682:11683   */\n      dup2\n        /* \"#utility.yul\":11679:11692   */\n      lt\n        /* \"#utility.yul\":11660:11944   */\n      iszero\n      tag_681\n      jumpi\n        /* \"#utility.yul\":11761:11767   */\n      dup2\n        /* \"#utility.yul\":11755:11768   */\n      mload\n        /* \"#utility.yul\":11788:11851   */\n      tag_682\n        /* \"#utility.yul\":11847:11850   */\n      dup9\n        /* \"#utility.yul\":11832:11845   */\n      dup3\n        /* \"#utility.yul\":11788:11851   */\n      tag_473\n      jump\t// in\n    tag_682:\n        /* \"#utility.yul\":11781:11851   */\n      swap8\n      pop\n        /* \"#utility.yul\":11874:11934   */\n      tag_683\n        /* \"#utility.yul\":11927:11933   */\n      dup4\n        /* \"#utility.yul\":11874:11934   */\n      tag_474\n      jump\t// in\n    tag_683:\n        /* \"#utility.yul\":11864:11934   */\n      swap3\n      pop\n        /* \"#utility.yul\":11720:11944   */\n      pop\n        /* \"#utility.yul\":11707:11708   */\n      0x01\n        /* \"#utility.yul\":11704:11705   */\n      dup2\n        /* \"#utility.yul\":11700:11709   */\n      add\n        /* \"#utility.yul\":11695:11709   */\n      swap1\n      pop\n        /* \"#utility.yul\":11660:11944   */\n      jump(tag_679)\n    tag_681:\n        /* \"#utility.yul\":11664:11678   */\n      pop\n        /* \"#utility.yul\":11960:11963   */\n      dup6\n        /* \"#utility.yul\":11953:11963   */\n      swap4\n      pop\n        /* \"#utility.yul\":11361:11969   */\n      pop\n      pop\n      pop\n        /* \"#utility.yul\":11237:11969   */\n      swap3\n      swap2\n      pop\n      pop\n      jump\t// out\n        /* \"#utility.yul\":11975:12348   */\n    tag_37:\n        /* \"#utility.yul\":12118:12122   */\n      0x00\n        /* \"#utility.yul\":12156:12158   */\n      0x20\n        /* \"#utility.yul\":12145:12154   */\n      dup3\n        /* \"#utility.yul\":12141:12159   */\n      add\n        /* \"#utility.yul\":12133:12159   */\n      swap1\n      pop\n        /* \"#utility.yul\":12205:12214   */\n      dup2\n        /* \"#utility.yul\":12199:12203   */\n      dup2\n        /* \"#utility.yul\":12195:12215   */\n      sub\n        /* \"#utility.yul\":12191:12192   */\n      0x00\n        /* \"#utility.yul\":12180:12189   */\n      dup4\n        /* \"#utility.yul\":12176:12193   */\n      add\n        /* \"#utility.yul\":12169:12216   */\n      mstore\n        /* \"#utility.yul\":12233:12341   */\n      tag_685\n        /* \"#utility.yul\":12336:12340   */\n      dup2\n        /* \"#utility.yul\":12327:12333   */\n      dup5\n        /* \"#utility.yul\":12233:12341   */\n      tag_475\n      jump\t// in\n    tag_685:\n        /* \"#utility.yul\":12225:12341   */\n      swap1\n      pop\n        /* \"#utility.yul\":11975:12348   */\n      swap3\n      swap2\n      pop\n      pop\n      jump\t// out\n        /* \"#utility.yul\":12354:13096   */\n    tag_55:\n        /* \"#utility.yul\":12476:12482   */\n      0x00\n        /* \"#utility.yul\":12484:12490   */\n      0x00\n        /* \"#utility.yul\":12533:12535   */\n      0x40\n        /* \"#utility.yul\":12521:12530   */\n      dup4\n        /* \"#utility.yul\":12512:12519   */\n      dup6\n        /* \"#utility.yul\":12508:12531   */\n      sub\n        /* \"#utility.yul\":12504:12536   */\n      slt\n        /* \"#utility.yul\":12501:12620   */\n      iszero\n      tag_687\n      jumpi\n        /* \"#utility.yul\":12539:12618   */\n      tag_688\n      tag_441\n      jump\t// in\n    tag_688:\n        /* \"#utility.yul\":12501:12620   */\n    tag_687:\n        /* \"#utility.yul\":12659:12660   */\n      0x00\n        /* \"#utility.yul\":12684:12737   */\n      tag_689\n        /* \"#utility.yul\":12729:12736   */\n      dup6\n        /* \"#utility.yul\":12720:12726   */\n      dup3\n        /* \"#utility.yul\":12709:12718   */\n      dup7\n        /* \"#utility.yul\":12705:12727   */\n      add\n        /* \"#utility.yul\":12684:12737   */\n      tag_445\n      jump\t// in\n    tag_689:\n        /* \"#utility.yul\":12674:12737   */\n      swap3\n      pop\n        /* \"#utility.yul\":12630:12747   */\n      pop\n        /* \"#utility.yul\":12814:12816   */\n      0x20\n        /* \"#utility.yul\":12803:12812   */\n      dup4\n        /* \"#utility.yul\":12799:12817   */\n      add\n        /* \"#utility.yul\":12786:12818   */\n      calldataload\n        /* \"#utility.yul\":12845:12863   */\n      0xffffffffffffffff\n        /* \"#utility.yul\":12837:12843   */\n      dup2\n        /* \"#utility.yul\":12834:12864   */\n      gt\n        /* \"#utility.yul\":12831:12948   */\n      iszero\n      tag_690\n      jumpi\n        /* \"#utility.yul\":12867:12946   */\n      tag_691\n      tag_442\n      jump\t// in\n    tag_691:\n        /* \"#utility.yul\":12831:12948   */\n    tag_690:\n        /* \"#utility.yul\":12972:13079   */\n      tag_692\n        /* \"#utility.yul\":13071:13078   */\n      dup6\n        /* \"#utility.yul\":13062:13068   */\n      dup3\n        /* \"#utility.yul\":13051:13060   */\n      dup7\n        /* \"#utility.yul\":13047:13069   */\n      add\n        /* \"#utility.yul\":12972:13079   */\n      tag_468\n      jump\t// in\n    tag_692:\n        /* \"#utility.yul\":12962:13079   */\n      swap2\n      pop\n        /* \"#utility.yul\":12757:13089   */\n      pop\n        /* \"#utility.yul\":12354:13096   */\n      swap3\n      pop\n      swap3\n      swap1\n      pop\n      jump\t// out\n        /* \"#utility.yul\":13102:13210   */\n    tag_476:\n        /* \"#utility.yul\":13179:13203   */\n      tag_694\n        /* \"#utility.yul\":13197:13202   */\n      dup2\n        /* \"#utility.yul\":13179:13203   */\n      tag_443\n      jump\t// in\n    tag_694:\n        /* \"#utility.yul\":13174:13177   */\n      dup3\n        /* \"#utility.yul\":13167:13204   */\n      mstore\n        /* \"#utility.yul\":13102:13210   */\n      pop\n      pop\n      jump\t// out\n        /* \"#utility.yul\":13268:13793   */\n    tag_477:\n        /* \"#utility.yul\":13423:13427   */\n      0x40\n        /* \"#utility.yul\":13418:13421   */\n      dup3\n        /* \"#utility.yul\":13414:13428   */\n      add\n        /* \"#utility.yul\":13516:13520   */\n      0x00\n        /* \"#utility.yul\":13509:13514   */\n      dup3\n        /* \"#utility.yul\":13505:13521   */\n      add\n        /* \"#utility.yul\":13499:13522   */\n      mload\n        /* \"#utility.yul\":13535:13598   */\n      tag_696\n        /* \"#utility.yul\":13592:13596   */\n      0x00\n        /* \"#utility.yul\":13587:13590   */\n      dup6\n        /* \"#utility.yul\":13583:13597   */\n      add\n        /* \"#utility.yul\":13569:13581   */\n      dup3\n        /* \"#utility.yul\":13535:13598   */\n      tag_476\n      jump\t// in\n    tag_696:\n        /* \"#utility.yul\":13438:13608   */\n      pop\n        /* \"#utility.yul\":13694:13698   */\n      0x20\n        /* \"#utility.yul\":13687:13692   */\n      dup3\n        /* \"#utility.yul\":13683:13699   */\n      add\n        /* \"#utility.yul\":13677:13700   */\n      mload\n        /* \"#utility.yul\":13713:13776   */\n      tag_697\n        /* \"#utility.yul\":13770:13774   */\n      0x20\n        /* \"#utility.yul\":13765:13768   */\n      dup6\n        /* \"#utility.yul\":13761:13775   */\n      add\n        /* \"#utility.yul\":13747:13759   */\n      dup3\n        /* \"#utility.yul\":13713:13776   */\n      tag_476\n      jump\t// in\n    tag_697:\n        /* \"#utility.yul\":13618:13786   */\n      pop\n        /* \"#utility.yul\":13392:13793   */\n      pop\n        /* \"#utility.yul\":13268:13793   */\n      pop\n      pop\n      jump\t// out\n        /* \"#utility.yul\":13799:14137   */\n    tag_62:\n        /* \"#utility.yul\":13950:13954   */\n      0x00\n        /* \"#utility.yul\":13988:13990   */\n      0x40\n        /* \"#utility.yul\":13977:13986   */\n      dup3\n        /* \"#utility.yul\":13973:13991   */\n      add\n        /* \"#utility.yul\":13965:13991   */\n      swap1\n      pop\n        /* \"#utility.yul\":14001:14130   */\n      tag_699\n        /* \"#utility.yul\":14127:14128   */\n      0x00\n        /* \"#utility.yul\":14116:14125   */\n      dup4\n        /* \"#utility.yul\":14112:14129   */\n      add\n        /* \"#utility.yul\":14103:14109   */\n      dup5\n        /* \"#utility.yul\":14001:14130   */\n      tag_477\n      jump\t// in\n    tag_699:\n        /* \"#utility.yul\":13799:14137   */\n      swap3\n      swap2\n      pop\n      pop\n      jump\t// out\n        /* \"#utility.yul\":14143:14286   */\n    tag_478:\n        /* \"#utility.yul\":14239:14245   */\n      0x00\n        /* \"#utility.yul\":14273:14278   */\n      dup2\n        /* \"#utility.yul\":14267:14279   */\n      mload\n        /* \"#utility.yul\":14257:14279   */\n      swap1\n      pop\n        /* \"#utility.yul\":14143:14286   */\n      swap2\n      swap1\n      pop\n      jump\t// out\n        /* \"#utility.yul\":14292:14505   */\n    tag_479:\n        /* \"#utility.yul\":14420:14431   */\n      0x00\n        /* \"#utility.yul\":14454:14460   */\n      dup3\n        /* \"#utility.yul\":14449:14452   */\n      dup3\n        /* \"#utility.yul\":14442:14461   */\n      mstore\n        /* \"#utility.yul\":14494:14498   */\n      0x20\n        /* \"#utility.yul\":14489:14492   */\n      dup3\n        /* \"#utility.yul\":14485:14499   */\n      add\n        /* \"#utility.yul\":14470:14499   */\n      swap1\n      pop\n        /* \"#utility.yul\":14292:14505   */\n      swap3\n      swap2\n      pop\n      pop\n      jump\t// out\n        /* \"#utility.yul\":14511:14672   */\n    tag_480:\n        /* \"#utility.yul\":14607:14611   */\n      0x00\n        /* \"#utility.yul\":14630:14633   */\n      dup2\n        /* \"#utility.yul\":14622:14633   */\n      swap1\n      pop\n        /* \"#utility.yul\":14660:14664   */\n      0x20\n        /* \"#utility.yul\":14655:14658   */\n      dup3\n        /* \"#utility.yul\":14651:14665   */\n      add\n        /* \"#utility.yul\":14643:14665   */\n      swap1\n      pop\n        /* \"#utility.yul\":14511:14672   */\n      swap2\n      swap1\n      pop\n      jump\t// out\n        /* \"#utility.yul\":14730:15245   */\n    tag_481:\n        /* \"#utility.yul\":14875:14879   */\n      0x40\n        /* \"#utility.yul\":14870:14873   */\n      dup3\n        /* \"#utility.yul\":14866:14880   */\n      add\n        /* \"#utility.yul\":14968:14972   */\n      0x00\n        /* \"#utility.yul\":14961:14966   */\n      dup3\n        /* \"#utility.yul\":14957:14973   */\n      add\n        /* \"#utility.yul\":14951:14974   */\n      mload\n        /* \"#utility.yul\":14987:15050   */\n      tag_704\n        /* \"#utility.yul\":15044:15048   */\n      0x00\n        /* \"#utility.yul\":15039:15042   */\n      dup6\n        /* \"#utility.yul\":15035:15049   */\n      add\n        /* \"#utility.yul\":15021:15033   */\n      dup3\n        /* \"#utility.yul\":14987:15050   */\n      tag_476\n      jump\t// in\n    tag_704:\n        /* \"#utility.yul\":14890:15060   */\n      pop\n        /* \"#utility.yul\":15146:15150   */\n      0x20\n        /* \"#utility.yul\":15139:15144   */\n      dup3\n        /* \"#utility.yul\":15135:15151   */\n      add\n        /* \"#utility.yul\":15129:15152   */\n      mload\n        /* \"#utility.yul\":15165:15228   */\n      tag_705\n        /* \"#utility.yul\":15222:15226   */\n      0x20\n        /* \"#utility.yul\":15217:15220   */\n      dup6\n        /* \"#utility.yul\":15213:15227   */\n      add\n        /* \"#utility.yul\":15199:15211   */\n      dup3\n        /* \"#utility.yul\":15165:15228   */\n      tag_476\n      jump\t// in\n    tag_705:\n        /* \"#utility.yul\":15070:15238   */\n      pop\n        /* \"#utility.yul\":14844:15245   */\n      pop\n        /* \"#utility.yul\":14730:15245   */\n      pop\n      pop\n      jump\t// out\n        /* \"#utility.yul\":15251:15546   */\n    tag_482:\n        /* \"#utility.yul\":15378:15388   */\n      0x00\n        /* \"#utility.yul\":15399:15503   */\n      tag_707\n        /* \"#utility.yul\":15499:15502   */\n      dup4\n        /* \"#utility.yul\":15491:15497   */\n      dup4\n        /* \"#utility.yul\":15399:15503   */\n      tag_481\n      jump\t// in\n    tag_707:\n        /* \"#utility.yul\":15535:15539   */\n      0x40\n        /* \"#utility.yul\":15530:15533   */\n      dup4\n        /* \"#utility.yul\":15526:15540   */\n      add\n        /* \"#utility.yul\":15512:15540   */\n      swap1\n      pop\n        /* \"#utility.yul\":15251:15546   */\n      swap3\n      swap2\n      pop\n      pop\n      jump\t// out\n        /* \"#utility.yul\":15552:15694   */\n    tag_483:\n        /* \"#utility.yul\":15651:15655   */\n      0x00\n        /* \"#utility.yul\":15683:15687   */\n      0x20\n        /* \"#utility.yul\":15678:15681   */\n      dup3\n        /* \"#utility.yul\":15674:15688   */\n      add\n        /* \"#utility.yul\":15666:15688   */\n      swap1\n      pop\n        /* \"#utility.yul\":15552:15694   */\n      swap2\n      swap1\n      pop\n      jump\t// out\n        /* \"#utility.yul\":15756:16720   */\n    tag_484:\n        /* \"#utility.yul\":15933:15936   */\n      0x00\n        /* \"#utility.yul\":15962:16045   */\n      tag_710\n        /* \"#utility.yul\":16039:16044   */\n      dup3\n        /* \"#utility.yul\":15962:16045   */\n      tag_478\n      jump\t// in\n    tag_710:\n        /* \"#utility.yul\":16061:16176   */\n      tag_711\n        /* \"#utility.yul\":16169:16175   */\n      dup2\n        /* \"#utility.yul\":16164:16167   */\n      dup6\n        /* \"#utility.yul\":16061:16176   */\n      tag_479\n      jump\t// in\n    tag_711:\n        /* \"#utility.yul\":16054:16176   */\n      swap4\n      pop\n        /* \"#utility.yul\":16200:16285   */\n      tag_712\n        /* \"#utility.yul\":16279:16284   */\n      dup4\n        /* \"#utility.yul\":16200:16285   */\n      tag_480\n      jump\t// in\n    tag_712:\n        /* \"#utility.yul\":16308:16315   */\n      dup1\n        /* \"#utility.yul\":16339:16340   */\n      0x00\n        /* \"#utility.yul\":16324:16695   */\n    tag_713:\n        /* \"#utility.yul\":16349:16355   */\n      dup4\n        /* \"#utility.yul\":16346:16347   */\n      dup2\n        /* \"#utility.yul\":16343:16356   */\n      lt\n        /* \"#utility.yul\":16324:16695   */\n      iszero\n      tag_715\n      jumpi\n        /* \"#utility.yul\":16425:16431   */\n      dup2\n        /* \"#utility.yul\":16419:16432   */\n      mload\n        /* \"#utility.yul\":16452:16573   */\n      tag_716\n        /* \"#utility.yul\":16569:16572   */\n      dup9\n        /* \"#utility.yul\":16554:16567   */\n      dup3\n        /* \"#utility.yul\":16452:16573   */\n      tag_482\n      jump\t// in\n    tag_716:\n        /* \"#utility.yul\":16445:16573   */\n      swap8\n      pop\n        /* \"#utility.yul\":16596:16685   */\n      tag_717\n        /* \"#utility.yul\":16678:16684   */\n      dup4\n        /* \"#utility.yul\":16596:16685   */\n      tag_483\n      jump\t// in\n    tag_717:\n        /* \"#utility.yul\":16586:16685   */\n      swap3\n      pop\n        /* \"#utility.yul\":16384:16695   */\n      pop\n        /* \"#utility.yul\":16371:16372   */\n      0x01\n        /* \"#utility.yul\":16368:16369   */\n      dup2\n        /* \"#utility.yul\":16364:16373   */\n      add\n        /* \"#utility.yul\":16359:16373   */\n      swap1\n      pop\n        /* \"#utility.yul\":16324:16695   */\n      jump(tag_713)\n    tag_715:\n        /* \"#utility.yul\":16328:16342   */\n      pop\n        /* \"#utility.yul\":16711:16714   */\n      dup6\n        /* \"#utility.yul\":16704:16714   */\n      swap4\n      pop\n        /* \"#utility.yul\":15938:16720   */\n      pop\n      pop\n      pop\n        /* \"#utility.yul\":15756:16720   */\n      swap3\n      swap2\n      pop\n      pop\n      jump\t// out\n        /* \"#utility.yul\":16726:17215   */\n    tag_68:\n        /* \"#utility.yul\":16927:16931   */\n      0x00\n        /* \"#utility.yul\":16965:16967   */\n      0x20\n        /* \"#utility.yul\":16954:16963   */\n      dup3\n        /* \"#utility.yul\":16950:16968   */\n      add\n        /* \"#utility.yul\":16942:16968   */\n      swap1\n      pop\n        /* \"#utility.yul\":17014:17023   */\n      dup2\n        /* \"#utility.yul\":17008:17012   */\n      dup2\n        /* \"#utility.yul\":17004:17024   */\n      sub\n        /* \"#utility.yul\":17000:17001   */\n      0x00\n        /* \"#utility.yul\":16989:16998   */\n      dup4\n        /* \"#utility.yul\":16985:17002   */\n      add\n        /* \"#utility.yul\":16978:17025   */\n      mstore\n        /* \"#utility.yul\":17042:17208   */\n      tag_719\n        /* \"#utility.yul\":17203:17207   */\n      dup2\n        /* \"#utility.yul\":17194:17200   */\n      dup5\n        /* \"#utility.yul\":17042:17208   */\n      tag_484\n      jump\t// in\n    tag_719:\n        /* \"#utility.yul\":17034:17208   */\n      swap1\n      pop\n        /* \"#utility.yul\":16726:17215   */\n      swap3\n      swap2\n      pop\n      pop\n      jump\t// out\n        /* \"#utility.yul\":17221:17362   */\n    tag_485:\n        /* \"#utility.yul\":17315:17321   */\n      0x00\n        /* \"#utility.yul\":17349:17354   */\n      dup2\n        /* \"#utility.yul\":17343:17355   */\n      mload\n        /* \"#utility.yul\":17333:17355   */\n      swap1\n      pop\n        /* \"#utility.yul\":17221:17362   */\n      swap2\n      swap1\n      pop\n      jump\t// out\n        /* \"#utility.yul\":17368:17579   */\n    tag_486:\n        /* \"#utility.yul\":17494:17505   */\n      0x00\n        /* \"#utility.yul\":17528:17534   */\n      dup3\n        /* \"#utility.yul\":17523:17526   */\n      dup3\n        /* \"#utility.yul\":17516:17535   */\n      mstore\n        /* \"#utility.yul\":17568:17572   */\n      0x20\n        /* \"#utility.yul\":17563:17566   */\n      dup3\n        /* \"#utility.yul\":17559:17573   */\n      add\n        /* \"#utility.yul\":17544:17573   */\n      swap1\n      pop\n        /* \"#utility.yul\":17368:17579   */\n      swap3\n      swap2\n      pop\n      pop\n      jump\t// out\n        /* \"#utility.yul\":17585:17744   */\n    tag_487:\n        /* \"#utility.yul\":17679:17683   */\n      0x00\n        /* \"#utility.yul\":17702:17705   */\n      dup2\n        /* \"#utility.yul\":17694:17705   */\n      swap1\n      pop\n        /* \"#utility.yul\":17732:17736   */\n      0x20\n        /* \"#utility.yul\":17727:17730   */\n      dup3\n        /* \"#utility.yul\":17723:17737   */\n      add\n        /* \"#utility.yul\":17715:17737   */\n      swap1\n      pop\n        /* \"#utility.yul\":17585:17744   */\n      swap2\n      swap1\n      pop\n      jump\t// out\n        /* \"#utility.yul\":17750:17909   */\n    tag_488:\n        /* \"#utility.yul\":17824:17835   */\n      0x00\n        /* \"#utility.yul\":17858:17864   */\n      dup3\n        /* \"#utility.yul\":17853:17856   */\n      dup3\n        /* \"#utility.yul\":17846:17865   */\n      mstore\n        /* \"#utility.yul\":17898:17902   */\n      0x20\n        /* \"#utility.yul\":17893:17896   */\n      dup3\n        /* \"#utility.yul\":17889:17903   */\n      add\n        /* \"#utility.yul\":17874:17903   */\n      swap1\n      pop\n        /* \"#utility.yul\":17750:17909   */\n      swap3\n      swap2\n      pop\n      pop\n      jump\t// out\n        /* \"#utility.yul\":17915:18272   */\n    tag_489:\n        /* \"#utility.yul\":17993:17996   */\n      0x00\n        /* \"#utility.yul\":18021:18060   */\n      tag_725\n        /* \"#utility.yul\":18054:18059   */\n      dup3\n        /* \"#utility.yul\":18021:18060   */\n      tag_446\n      jump\t// in\n    tag_725:\n        /* \"#utility.yul\":18076:18137   */\n      tag_726\n        /* \"#utility.yul\":18130:18136   */\n      dup2\n        /* \"#utility.yul\":18125:18128   */\n      dup6\n        /* \"#utility.yul\":18076:18137   */\n      tag_488\n      jump\t// in\n    tag_726:\n        /* \"#utility.yul\":18069:18137   */\n      swap4\n      pop\n        /* \"#utility.yul\":18146:18211   */\n      tag_727\n        /* \"#utility.yul\":18204:18210   */\n      dup2\n        /* \"#utility.yul\":18199:18202   */\n      dup6\n        /* \"#utility.yul\":18192:18196   */\n      0x20\n        /* \"#utility.yul\":18185:18190   */\n      dup7\n        /* \"#utility.yul\":18181:18197   */\n      add\n        /* \"#utility.yul\":18146:18211   */\n      tag_448\n      jump\t// in\n    tag_727:\n        /* \"#utility.yul\":18236:18265   */\n      tag_728\n        /* \"#utility.yul\":18258:18264   */\n      dup2\n        /* \"#utility.yul\":18236:18265   */\n      tag_449\n      jump\t// in\n    tag_728:\n        /* \"#utility.yul\":18231:18234   */\n      dup5\n        /* \"#utility.yul\":18227:18266   */\n      add\n        /* \"#utility.yul\":18220:18266   */\n      swap2\n      pop\n        /* \"#utility.yul\":17997:18272   */\n      pop\n        /* \"#utility.yul\":17915:18272   */\n      swap3\n      swap2\n      pop\n      pop\n      jump\t// out\n        /* \"#utility.yul\":18278:18377   */\n    tag_490:\n        /* \"#utility.yul\":18349:18370   */\n      tag_730\n        /* \"#utility.yul\":18364:18369   */\n      dup2\n        /* \"#utility.yul\":18349:18370   */\n      tag_452\n      jump\t// in\n    tag_730:\n        /* \"#utility.yul\":18344:18347   */\n      dup3\n        /* \"#utility.yul\":18337:18371   */\n      mstore\n        /* \"#utility.yul\":18278:18377   */\n      pop\n      pop\n      jump\t// out\n        /* \"#utility.yul\":18431:20085   */\n    tag_491:\n        /* \"#utility.yul\":18544:18547   */\n      0x00\n        /* \"#utility.yul\":18580:18584   */\n      0xe0\n        /* \"#utility.yul\":18575:18578   */\n      dup4\n        /* \"#utility.yul\":18571:18585   */\n      add\n        /* \"#utility.yul\":18670:18674   */\n      0x00\n        /* \"#utility.yul\":18663:18668   */\n      dup4\n        /* \"#utility.yul\":18659:18675   */\n      add\n        /* \"#utility.yul\":18653:18676   */\n      mload\n        /* \"#utility.yul\":18689:18752   */\n      tag_732\n        /* \"#utility.yul\":18746:18750   */\n      0x00\n        /* \"#utility.yul\":18741:18744   */\n      dup7\n        /* \"#utility.yul\":18737:18751   */\n      add\n        /* \"#utility.yul\":18723:18735   */\n      dup3\n        /* \"#utility.yul\":18689:18752   */\n      tag_472\n      jump\t// in\n    tag_732:\n        /* \"#utility.yul\":18595:18762   */\n      pop\n        /* \"#utility.yul\":18844:18848   */\n      0x20\n        /* \"#utility.yul\":18837:18842   */\n      dup4\n        /* \"#utility.yul\":18833:18849   */\n      add\n        /* \"#utility.yul\":18827:18850   */\n      mload\n        /* \"#utility.yul\":18897:18900   */\n      dup5\n        /* \"#utility.yul\":18891:18895   */\n      dup3\n        /* \"#utility.yul\":18887:18901   */\n      sub\n        /* \"#utility.yul\":18880:18884   */\n      0x20\n        /* \"#utility.yul\":18875:18878   */\n      dup7\n        /* \"#utility.yul\":18871:18885   */\n      add\n        /* \"#utility.yul\":18864:18902   */\n      mstore\n        /* \"#utility.yul\":18923:18996   */\n      tag_733\n        /* \"#utility.yul\":18991:18995   */\n      dup3\n        /* \"#utility.yul\":18977:18989   */\n      dup3\n        /* \"#utility.yul\":18923:18996   */\n      tag_489\n      jump\t// in\n    tag_733:\n        /* \"#utility.yul\":18915:18996   */\n      swap2\n      pop\n        /* \"#utility.yul\":18772:19007   */\n      pop\n        /* \"#utility.yul\":19099:19103   */\n      0x40\n        /* \"#utility.yul\":19092:19097   */\n      dup4\n        /* \"#utility.yul\":19088:19104   */\n      add\n        /* \"#utility.yul\":19082:19105   */\n      mload\n        /* \"#utility.yul\":19152:19155   */\n      dup5\n        /* \"#utility.yul\":19146:19150   */\n      dup3\n        /* \"#utility.yul\":19142:19156   */\n      sub\n        /* \"#utility.yul\":19135:19139   */\n      0x40\n        /* \"#utility.yul\":19130:19133   */\n      dup7\n        /* \"#utility.yul\":19126:19140   */\n      add\n        /* \"#utility.yul\":19119:19157   */\n      mstore\n        /* \"#utility.yul\":19178:19251   */\n      tag_734\n        /* \"#utility.yul\":19246:19250   */\n      dup3\n        /* \"#utility.yul\":19232:19244   */\n      dup3\n        /* \"#utility.yul\":19178:19251   */\n      tag_489\n      jump\t// in\n    tag_734:\n        /* \"#utility.yul\":19170:19251   */\n      swap2\n      pop\n        /* \"#utility.yul\":19017:19262   */\n      pop\n        /* \"#utility.yul\":19351:19355   */\n      0x60\n        /* \"#utility.yul\":19344:19349   */\n      dup4\n        /* \"#utility.yul\":19340:19356   */\n      add\n        /* \"#utility.yul\":19334:19357   */\n      mload\n        /* \"#utility.yul\":19404:19407   */\n      dup5\n        /* \"#utility.yul\":19398:19402   */\n      dup3\n        /* \"#utility.yul\":19394:19408   */\n      sub\n        /* \"#utility.yul\":19387:19391   */\n      0x60\n        /* \"#utility.yul\":19382:19385   */\n      dup7\n        /* \"#utility.yul\":19378:19392   */\n      add\n        /* \"#utility.yul\":19371:19409   */\n      mstore\n        /* \"#utility.yul\":19430:19503   */\n      tag_735\n        /* \"#utility.yul\":19498:19502   */\n      dup3\n        /* \"#utility.yul\":19484:19496   */\n      dup3\n        /* \"#utility.yul\":19430:19503   */\n      tag_489\n      jump\t// in\n    tag_735:\n        /* \"#utility.yul\":19422:19503   */\n      swap2\n      pop\n        /* \"#utility.yul\":19272:19514   */\n      pop\n        /* \"#utility.yul\":19603:19607   */\n      0x80\n        /* \"#utility.yul\":19596:19601   */\n      dup4\n        /* \"#utility.yul\":19592:19608   */\n      add\n        /* \"#utility.yul\":19586:19609   */\n      mload\n        /* \"#utility.yul\":19622:19685   */\n      tag_736\n        /* \"#utility.yul\":19679:19683   */\n      0x80\n        /* \"#utility.yul\":19674:19677   */\n      dup7\n        /* \"#utility.yul\":19670:19684   */\n      add\n        /* \"#utility.yul\":19656:19668   */\n      dup3\n        /* \"#utility.yul\":19622:19685   */\n      tag_476\n      jump\t// in\n    tag_736:\n        /* \"#utility.yul\":19524:19695   */\n      pop\n        /* \"#utility.yul\":19794:19798   */\n      0xa0\n        /* \"#utility.yul\":19787:19792   */\n      dup4\n        /* \"#utility.yul\":19783:19799   */\n      add\n        /* \"#utility.yul\":19777:19800   */\n      mload\n        /* \"#utility.yul\":19813:19876   */\n      tag_737\n        /* \"#utility.yul\":19870:19874   */\n      0xa0\n        /* \"#utility.yul\":19865:19868   */\n      dup7\n        /* \"#utility.yul\":19861:19875   */\n      add\n        /* \"#utility.yul\":19847:19859   */\n      dup3\n        /* \"#utility.yul\":19813:19876   */\n      tag_476\n      jump\t// in\n    tag_737:\n        /* \"#utility.yul\":19705:19886   */\n      pop\n        /* \"#utility.yul\":19972:19976   */\n      0xc0\n        /* \"#utility.yul\":19965:19970   */\n      dup4\n        /* \"#utility.yul\":19961:19977   */\n      add\n        /* \"#utility.yul\":19955:19978   */\n      mload\n        /* \"#utility.yul\":19991:20048   */\n      tag_738\n        /* \"#utility.yul\":20042:20046   */\n      0xc0\n        /* \"#utility.yul\":20037:20040   */\n      dup7\n        /* \"#utility.yul\":20033:20047   */\n      add\n        /* \"#utility.yul\":20019:20031   */\n      dup3\n        /* \"#utility.yul\":19991:20048   */\n      tag_490\n      jump\t// in\n    tag_738:\n        /* \"#utility.yul\":19896:20058   */\n      pop\n        /* \"#utility.yul\":20075:20079   */\n      dup1\n        /* \"#utility.yul\":20068:20079   */\n      swap2\n      pop\n        /* \"#utility.yul\":18549:20085   */\n      pop\n        /* \"#utility.yul\":18431:20085   */\n      swap3\n      swap2\n      pop\n      pop\n      jump\t// out\n        /* \"#utility.yul\":20091:20355   */\n    tag_492:\n        /* \"#utility.yul\":20214:20224   */\n      0x00\n        /* \"#utility.yul\":20249:20349   */\n      tag_740\n        /* \"#utility.yul\":20345:20348   */\n      dup4\n        /* \"#utility.yul\":20337:20343   */\n      dup4\n        /* \"#utility.yul\":20249:20349   */\n      tag_491\n      jump\t// in\n    tag_740:\n        /* \"#utility.yul\":20235:20349   */\n      swap1\n      pop\n        /* \"#utility.yul\":20091:20355   */\n      swap3\n      swap2\n      pop\n      pop\n      jump\t// out\n        /* \"#utility.yul\":20361:20501   */\n    tag_493:\n        /* \"#utility.yul\":20458:20462   */\n      0x00\n        /* \"#utility.yul\":20490:20494   */\n      0x20\n        /* \"#utility.yul\":20485:20488   */\n      dup3\n        /* \"#utility.yul\":20481:20495   */\n      add\n        /* \"#utility.yul\":20473:20495   */\n      swap1\n      pop\n        /* \"#utility.yul\":20361:20501   */\n      swap2\n      swap1\n      pop\n      jump\t// out\n        /* \"#utility.yul\":20559:21686   */\n    tag_494:\n        /* \"#utility.yul\":20732:20735   */\n      0x00\n        /* \"#utility.yul\":20761:20842   */\n      tag_743\n        /* \"#utility.yul\":20836:20841   */\n      dup3\n        /* \"#utility.yul\":20761:20842   */\n      tag_485\n      jump\t// in\n    tag_743:\n        /* \"#utility.yul\":20858:20971   */\n      tag_744\n        /* \"#utility.yul\":20964:20970   */\n      dup2\n        /* \"#utility.yul\":20959:20962   */\n      dup6\n        /* \"#utility.yul\":20858:20971   */\n      tag_486\n      jump\t// in\n    tag_744:\n        /* \"#utility.yul\":20851:20971   */\n      swap4\n      pop\n        /* \"#utility.yul\":20997:21000   */\n      dup4\n        /* \"#utility.yul\":21042:21046   */\n      0x20\n        /* \"#utility.yul\":21034:21040   */\n      dup3\n        /* \"#utility.yul\":21030:21047   */\n      mul\n        /* \"#utility.yul\":21025:21028   */\n      dup6\n        /* \"#utility.yul\":21021:21048   */\n      add\n        /* \"#utility.yul\":21072:21155   */\n      tag_745\n        /* \"#utility.yul\":21149:21154   */\n      dup6\n        /* \"#utility.yul\":21072:21155   */\n      tag_487\n      jump\t// in\n    tag_745:\n        /* \"#utility.yul\":21178:21185   */\n      dup1\n        /* \"#utility.yul\":21209:21210   */\n      0x00\n        /* \"#utility.yul\":21194:21641   */\n    tag_746:\n        /* \"#utility.yul\":21219:21225   */\n      dup6\n        /* \"#utility.yul\":21216:21217   */\n      dup2\n        /* \"#utility.yul\":21213:21226   */\n      lt\n        /* \"#utility.yul\":21194:21641   */\n      iszero\n      tag_748\n      jumpi\n        /* \"#utility.yul\":21290:21299   */\n      dup5\n        /* \"#utility.yul\":21284:21288   */\n      dup5\n        /* \"#utility.yul\":21280:21300   */\n      sub\n        /* \"#utility.yul\":21275:21278   */\n      dup10\n        /* \"#utility.yul\":21268:21301   */\n      mstore\n        /* \"#utility.yul\":21341:21347   */\n      dup2\n        /* \"#utility.yul\":21335:21348   */\n      mload\n        /* \"#utility.yul\":21369:21487   */\n      tag_749\n        /* \"#utility.yul\":21482:21486   */\n      dup6\n        /* \"#utility.yul\":21467:21480   */\n      dup3\n        /* \"#utility.yul\":21369:21487   */\n      tag_492\n      jump\t// in\n    tag_749:\n        /* \"#utility.yul\":21361:21487   */\n      swap5\n      pop\n        /* \"#utility.yul\":21510:21597   */\n      tag_750\n        /* \"#utility.yul\":21590:21596   */\n      dup4\n        /* \"#utility.yul\":21510:21597   */\n      tag_493\n      jump\t// in\n    tag_750:\n        /* \"#utility.yul\":21500:21597   */\n      swap3\n      pop\n        /* \"#utility.yul\":21626:21630   */\n      0x20\n        /* \"#utility.yul\":21621:21624   */\n      dup11\n        /* \"#utility.yul\":21617:21631   */\n      add\n        /* \"#utility.yul\":21610:21631   */\n      swap10\n      pop\n        /* \"#utility.yul\":21254:21641   */\n      pop\n        /* \"#utility.yul\":21241:21242   */\n      0x01\n        /* \"#utility.yul\":21238:21239   */\n      dup2\n        /* \"#utility.yul\":21234:21243   */\n      add\n        /* \"#utility.yul\":21229:21243   */\n      swap1\n      pop\n        /* \"#utility.yul\":21194:21641   */\n      jump(tag_746)\n    tag_748:\n        /* \"#utility.yul\":21198:21212   */\n      pop\n        /* \"#utility.yul\":21657:21661   */\n      dup3\n        /* \"#utility.yul\":21650:21661   */\n      swap8\n      pop\n        /* \"#utility.yul\":21677:21680   */\n      dup8\n        /* \"#utility.yul\":21670:21680   */\n      swap6\n      pop\n        /* \"#utility.yul\":20737:21686   */\n      pop\n      pop\n      pop\n      pop\n      pop\n        /* \"#utility.yul\":20559:21686   */\n      swap3\n      swap2\n      pop\n      pop\n      jump\t// out\n        /* \"#utility.yul\":21692:22173   */\n    tag_73:\n        /* \"#utility.yul\":21889:21893   */\n      0x00\n        /* \"#utility.yul\":21927:21929   */\n      0x20\n        /* \"#utility.yul\":21916:21925   */\n      dup3\n        /* \"#utility.yul\":21912:21930   */\n      add\n        /* \"#utility.yul\":21904:21930   */\n      swap1\n      pop\n        /* \"#utility.yul\":21976:21985   */\n      dup2\n        /* \"#utility.yul\":21970:21974   */\n      dup2\n        /* \"#utility.yul\":21966:21986   */\n      sub\n        /* \"#utility.yul\":21962:21963   */\n      0x00\n        /* \"#utility.yul\":21951:21960   */\n      dup4\n        /* \"#utility.yul\":21947:21964   */\n      add\n        /* \"#utility.yul\":21940:21987   */\n      mstore\n        /* \"#utility.yul\":22004:22166   */\n      tag_752\n        /* \"#utility.yul\":22161:22165   */\n      dup2\n        /* \"#utility.yul\":22152:22158   */\n      dup5\n        /* \"#utility.yul\":22004:22166   */\n      tag_494\n      jump\t// in\n    tag_752:\n        /* \"#utility.yul\":21996:22166   */\n      swap1\n      pop\n        /* \"#utility.yul\":21692:22173   */\n      swap3\n      swap2\n      pop\n      pop\n      jump\t// out\n        /* \"#utility.yul\":22179:22359   */\n    tag_495:\n        /* \"#utility.yul\":22227:22304   */\n      0x4e487b7100000000000000000000000000000000000000000000000000000000\n        /* \"#utility.yul\":22224:22225   */\n      0x00\n        /* \"#utility.yul\":22217:22305   */\n      mstore\n        /* \"#utility.yul\":22324:22328   */\n      0x22\n        /* \"#utility.yul\":22321:22322   */\n      0x04\n        /* \"#utility.yul\":22314:22329   */\n      mstore\n        /* \"#utility.yul\":22348:22352   */\n      0x24\n        /* \"#utility.yul\":22345:22346   */\n      0x00\n        /* \"#utility.yul\":22338:22353   */\n      revert\n        /* \"#utility.yul\":22365:22685   */\n    tag_77:\n        /* \"#utility.yul\":22409:22415   */\n      0x00\n        /* \"#utility.yul\":22446:22447   */\n      0x02\n        /* \"#utility.yul\":22440:22444   */\n      dup3\n        /* \"#utility.yul\":22436:22448   */\n      div\n        /* \"#utility.yul\":22426:22448   */\n      swap1\n      pop\n        /* \"#utility.yul\":22493:22494   */\n      0x01\n        /* \"#utility.yul\":22487:22491   */\n      dup3\n        /* \"#utility.yul\":22483:22495   */\n      and\n        /* \"#utility.yul\":22514:22532   */\n      dup1\n        /* \"#utility.yul\":22504:22585   */\n      tag_755\n      jumpi\n        /* \"#utility.yul\":22570:22574   */\n      0x7f\n        /* \"#utility.yul\":22562:22568   */\n      dup3\n        /* \"#utility.yul\":22558:22575   */\n      and\n        /* \"#utility.yul\":22548:22575   */\n      swap2\n      pop\n        /* \"#utility.yul\":22504:22585   */\n    tag_755:\n        /* \"#utility.yul\":22632:22634   */\n      0x20\n        /* \"#utility.yul\":22624:22630   */\n      dup3\n        /* \"#utility.yul\":22621:22635   */\n      lt\n        /* \"#utility.yul\":22601:22619   */\n      dup2\n        /* \"#utility.yul\":22598:22636   */\n      sub\n        /* \"#utility.yul\":22595:22679   */\n      tag_756\n      jumpi\n        /* \"#utility.yul\":22651:22669   */\n      tag_757\n      tag_495\n      jump\t// in\n    tag_757:\n        /* \"#utility.yul\":22595:22679   */\n    tag_756:\n        /* \"#utility.yul\":22416:22685   */\n      pop\n        /* \"#utility.yul\":22365:22685   */\n      swap2\n      swap1\n      pop\n      jump\t// out\n        /* \"#utility.yul\":22691:22912   */\n    tag_496:\n        /* \"#utility.yul\":22831:22865   */\n      0x53797374656d206f776e65722063616e2774206372656174652070726f6a6563\n        /* \"#utility.yul\":22827:22828   */\n      0x00\n        /* \"#utility.yul\":22819:22825   */\n      dup3\n        /* \"#utility.yul\":22815:22829   */\n      add\n        /* \"#utility.yul\":22808:22866   */\n      mstore\n        /* \"#utility.yul\":22900:22904   */\n      0x7473000000000000000000000000000000000000000000000000000000000000\n        /* \"#utility.yul\":22895:22897   */\n      0x20\n        /* \"#utility.yul\":22887:22893   */\n      dup3\n        /* \"#utility.yul\":22883:22898   */\n      add\n        /* \"#utility.yul\":22876:22905   */\n      mstore\n        /* \"#utility.yul\":22691:22912   */\n      pop\n      jump\t// out\n        /* \"#utility.yul\":22918:23284   */\n    tag_497:\n        /* \"#utility.yul\":23060:23063   */\n      0x00\n        /* \"#utility.yul\":23081:23148   */\n      tag_760\n        /* \"#utility.yul\":23145:23147   */\n      0x22\n        /* \"#utility.yul\":23140:23143   */\n      dup4\n        /* \"#utility.yul\":23081:23148   */\n      tag_447\n      jump\t// in\n    tag_760:\n        /* \"#utility.yul\":23074:23148   */\n      swap2\n      pop\n        /* \"#utility.yul\":23157:23250   */\n      tag_761\n        /* \"#utility.yul\":23246:23249   */\n      dup3\n        /* \"#utility.yul\":23157:23250   */\n      tag_496\n      jump\t// in\n    tag_761:\n        /* \"#utility.yul\":23275:23277   */\n      0x40\n        /* \"#utility.yul\":23270:23273   */\n      dup3\n        /* \"#utility.yul\":23266:23278   */\n      add\n        /* \"#utility.yul\":23259:23278   */\n      swap1\n      pop\n        /* \"#utility.yul\":22918:23284   */\n      swap2\n      swap1\n      pop\n      jump\t// out\n        /* \"#utility.yul\":23290:23709   */\n    tag_95:\n        /* \"#utility.yul\":23456:23460   */\n      0x00\n        /* \"#utility.yul\":23494:23496   */\n      0x20\n        /* \"#utility.yul\":23483:23492   */\n      dup3\n        /* \"#utility.yul\":23479:23497   */\n      add\n        /* \"#utility.yul\":23471:23497   */\n      swap1\n      pop\n        /* \"#utility.yul\":23543:23552   */\n      dup2\n        /* \"#utility.yul\":23537:23541   */\n      dup2\n        /* \"#utility.yul\":23533:23553   */\n      sub\n        /* \"#utility.yul\":23529:23530   */\n      0x00\n        /* \"#utility.yul\":23518:23527   */\n      dup4\n        /* \"#utility.yul\":23514:23531   */\n      add\n        /* \"#utility.yul\":23507:23554   */\n      mstore\n        /* \"#utility.yul\":23571:23702   */\n      tag_763\n        /* \"#utility.yul\":23697:23701   */\n      dup2\n        /* \"#utility.yul\":23571:23702   */\n      tag_497\n      jump\t// in\n    tag_763:\n        /* \"#utility.yul\":23563:23702   */\n      swap1\n      pop\n        /* \"#utility.yul\":23290:23709   */\n      swap2\n      swap1\n      pop\n      jump\t// out\n        /* \"#utility.yul\":23715:23856   */\n    tag_498:\n        /* \"#utility.yul\":23764:23768   */\n      0x00\n        /* \"#utility.yul\":23787:23790   */\n      dup2\n        /* \"#utility.yul\":23779:23790   */\n      swap1\n      pop\n        /* \"#utility.yul\":23810:23813   */\n      dup2\n        /* \"#utility.yul\":23807:23808   */\n      0x00\n        /* \"#utility.yul\":23800:23814   */\n      mstore\n        /* \"#utility.yul\":23844:23848   */\n      0x20\n        /* \"#utility.yul\":23841:23842   */\n      0x00\n        /* \"#utility.yul\":23831:23849   */\n      keccak256\n        /* \"#utility.yul\":23823:23849   */\n      swap1\n      pop\n        /* \"#utility.yul\":23715:23856   */\n      swap2\n      swap1\n      pop\n      jump\t// out\n        /* \"#utility.yul\":23862:23955   */\n    tag_499:\n        /* \"#utility.yul\":23899:23905   */\n      0x00\n        /* \"#utility.yul\":23946:23948   */\n      0x20\n        /* \"#utility.yul\":23941:23943   */\n      0x1f\n        /* \"#utility.yul\":23934:23939   */\n      dup4\n        /* \"#utility.yul\":23930:23944   */\n      add\n        /* \"#utility.yul\":23926:23949   */\n      div\n        /* \"#utility.yul\":23916:23949   */\n      swap1\n      pop\n        /* \"#utility.yul\":23862:23955   */\n      swap2\n      swap1\n      pop\n      jump\t// out\n        /* \"#utility.yul\":23961:24068   */\n    tag_500:\n        /* \"#utility.yul\":24005:24013   */\n      0x00\n        /* \"#utility.yul\":24055:24060   */\n      dup3\n        /* \"#utility.yul\":24049:24053   */\n      dup3\n        /* \"#utility.yul\":24045:24061   */\n      shl\n        /* \"#utility.yul\":24024:24061   */\n      swap1\n      pop\n        /* \"#utility.yul\":23961:24068   */\n      swap3\n      swap2\n      pop\n      pop\n      jump\t// out\n        /* \"#utility.yul\":24074:24467   */\n    tag_501:\n        /* \"#utility.yul\":24143:24149   */\n      0x00\n        /* \"#utility.yul\":24193:24194   */\n      0x08\n        /* \"#utility.yul\":24181:24191   */\n      dup4\n        /* \"#utility.yul\":24177:24195   */\n      mul\n        /* \"#utility.yul\":24216:24313   */\n      tag_768\n        /* \"#utility.yul\":24246:24312   */\n      0xffffffffffffffffffffffffffffffffffffffffffffffffffffffffffffffff\n        /* \"#utility.yul\":24235:24244   */\n      dup3\n        /* \"#utility.yul\":24216:24313   */\n      tag_500\n      jump\t// in\n    tag_768:\n        /* \"#utility.yul\":24334:24373   */\n      tag_769\n        /* \"#utility.yul\":24364:24372   */\n      dup7\n        /* \"#utility.yul\":24353:24362   */\n      dup4\n        /* \"#utility.yul\":24334:24373   */\n      tag_500\n      jump\t// in\n    tag_769:\n        /* \"#utility.yul\":24322:24373   */\n      swap6\n      pop\n        /* \"#utility.yul\":24406:24410   */\n      dup1\n        /* \"#utility.yul\":24402:24411   */\n      not\n        /* \"#utility.yul\":24395:24400   */\n      dup5\n        /* \"#utility.yul\":24391:24412   */\n      and\n        /* \"#utility.yul\":24382:24412   */\n      swap4\n      pop\n        /* \"#utility.yul\":24455:24459   */\n      dup1\n        /* \"#utility.yul\":24445:24453   */\n      dup7\n        /* \"#utility.yul\":24441:24460   */\n      and\n        /* \"#utility.yul\":24434:24439   */\n      dup5\n        /* \"#utility.yul\":24431:24461   */\n      or\n        /* \"#utility.yul\":24421:24461   */\n      swap3\n      pop\n        /* \"#utility.yul\":24150:24467   */\n      pop\n      pop\n        /* \"#utility.yul\":24074:24467   */\n      swap4\n      swap3\n      pop\n      pop\n      pop\n      jump\t// out\n        /* \"#utility.yul\":24473:24533   */\n    tag_502:\n        /* \"#utility.yul\":24501:24504   */\n      0x00\n        /* \"#utility.yul\":24522:24527   */\n      dup2\n        /* \"#utility.yul\":24515:24527   */\n      swap1\n      pop\n        /* \"#utility.yul\":24473:24533   */\n      swap2\n      swap1\n      pop\n      jump\t// out\n        /* \"#utility.yul\":24539:24681   */\n    tag_503:\n        /* \"#utility.yul\":24589:24598   */\n      0x00\n        /* \"#utility.yul\":24622:24675   */\n      tag_772\n        /* \"#utility.yul\":24640:24674   */\n      tag_773\n        /* \"#utility.yul\":24649:24673   */\n      tag_774\n        /* \"#utility.yul\":24667:24672   */\n      dup5\n        /* \"#utility.yul\":24649:24673   */\n      tag_443\n      jump\t// in\n    tag_774:\n        /* \"#utility.yul\":24640:24674   */\n      tag_502\n      jump\t// in\n    tag_773:\n        /* \"#utility.yul\":24622:24675   */\n      tag_443\n      jump\t// in\n    tag_772:\n        /* \"#utility.yul\":24609:24675   */\n      swap1\n      pop\n        /* \"#utility.yul\":24539:24681   */\n      swap2\n      swap1\n      pop\n      jump\t// out\n        /* \"#utility.yul\":24687:24762   */\n    tag_504:\n        /* \"#utility.yul\":24730:24733   */\n      0x00\n        /* \"#utility.yul\":24751:24756   */\n      dup2\n        /* \"#utility.yul\":24744:24756   */\n      swap1\n      pop\n        /* \"#utility.yul\":24687:24762   */\n      swap2\n      swap1\n      pop\n      jump\t// out\n        /* \"#utility.yul\":24768:25037   */\n    tag_505:\n        /* \"#utility.yul\":24878:24917   */\n      tag_777\n        /* \"#utility.yul\":24909:24916   */\n      dup4\n        /* \"#utility.yul\":24878:24917   */\n      tag_503\n      jump\t// in\n    tag_777:\n        /* \"#utility.yul\":24939:25030   */\n      tag_778\n        /* \"#utility.yul\":24988:25029   */\n      tag_779\n        /* \"#utility.yul\":25012:25028   */\n      dup3\n        /* \"#utility.yul\":24988:25029   */\n      tag_504\n      jump\t// in\n    tag_779:\n        /* \"#utility.yul\":24980:24986   */\n      dup5\n        /* \"#utility.yul\":24973:24977   */\n      dup5\n        /* \"#utility.yul\":24967:24978   */\n      sload\n        /* \"#utility.yul\":24939:25030   */\n      tag_501\n      jump\t// in\n    tag_778:\n        /* \"#utility.yul\":24933:24937   */\n      dup3\n        /* \"#utility.yul\":24926:25031   */\n      sstore\n        /* \"#utility.yul\":24844:25037   */\n      pop\n        /* \"#utility.yul\":24768:25037   */\n      pop\n      pop\n      pop\n      jump\t// out\n        /* \"#utility.yul\":25043:25116   */\n    tag_506:\n        /* \"#utility.yul\":25088:25091   */\n      0x00\n        /* \"#utility.yul\":25109:25110   */\n      0x00\n        /* \"#utility.yul\":25102:25110   */\n      swap1\n      pop\n        /* \"#utility.yul\":25043:25116   */\n      swap1\n      jump\t// out\n        /* \"#utility.yul\":25122:25311   */\n    tag_507:\n        /* \"#utility.yul\":25199:25231   */\n      tag_782\n      tag_506\n      jump\t// in\n    tag_782:\n        /* \"#utility.yul\":25240:25305   */\n      tag_783\n        /* \"#utility.yul\":25298:25304   */\n      dup2\n        /* \"#utility.yul\":25290:25296   */\n      dup5\n        /* \"#utility.yul\":25284:25288   */\n      dup5\n        /* \"#utility.yul\":25240:25305   */\n      tag_505\n      jump\t// in\n    tag_783:\n        /* \"#utility.yul\":25175:25311   */\n      pop\n        /* \"#utility.yul\":25122:25311   */\n      pop\n      pop\n      jump\t// out\n        /* \"#utility.yul\":25317:25503   */\n    tag_508:\n        /* \"#utility.yul\":25377:25497   */\n    tag_785:\n        /* \"#utility.yul\":25394:25397   */\n      dup2\n        /* \"#utility.yul\":25387:25392   */\n      dup2\n        /* \"#utility.yul\":25384:25398   */\n      lt\n        /* \"#utility.yul\":25377:25497   */\n      iszero\n      tag_787\n      jumpi\n        /* \"#utility.yul\":25448:25487   */\n      tag_788\n        /* \"#utility.yul\":25485:25486   */\n      0x00\n        /* \"#utility.yul\":25478:25483   */\n      dup3\n        /* \"#utility.yul\":25448:25487   */\n      tag_507\n      jump\t// in\n    tag_788:\n        /* \"#utility.yul\":25421:25422   */\n      0x01\n        /* \"#utility.yul\":25414:25419   */\n      dup2\n        /* \"#utility.yul\":25410:25423   */\n      add\n        /* \"#utility.yul\":25401:25423   */\n      swap1\n      pop\n        /* \"#utility.yul\":25377:25497   */\n      jump(tag_785)\n    tag_787:\n        /* \"#utility.yul\":25317:25503   */\n      pop\n      pop\n      jump\t// out\n        /* \"#utility.yul\":25509:26052   */\n    tag_509:\n        /* \"#utility.yul\":25610:25612   */\n      0x1f\n        /* \"#utility.yul\":25605:25608   */\n      dup3\n        /* \"#utility.yul\":25602:25613   */\n      gt\n        /* \"#utility.yul\":25599:26045   */\n      iszero\n      tag_790\n      jumpi\n        /* \"#utility.yul\":25644:25682   */\n      tag_791\n        /* \"#utility.yul\":25676:25681   */\n      dup2\n        /* \"#utility.yul\":25644:25682   */\n      tag_498\n      jump\t// in\n    tag_791:\n        /* \"#utility.yul\":25728:25757   */\n      tag_792\n        /* \"#utility.yul\":25746:25756   */\n      dup5\n        /* \"#utility.yul\":25728:25757   */\n      tag_499\n      jump\t// in\n    tag_792:\n        /* \"#utility.yul\":25718:25726   */\n      dup2\n        /* \"#utility.yul\":25714:25758   */\n      add\n        /* \"#utility.yul\":25911:25913   */\n      0x20\n        /* \"#utility.yul\":25899:25909   */\n      dup6\n        /* \"#utility.yul\":25896:25914   */\n      lt\n        /* \"#utility.yul\":25893:25942   */\n      iszero\n      tag_793\n      jumpi\n        /* \"#utility.yul\":25932:25940   */\n      dup2\n        /* \"#utility.yul\":25917:25940   */\n      swap1\n      pop\n        /* \"#utility.yul\":25893:25942   */\n    tag_793:\n        /* \"#utility.yul\":25955:26035   */\n      tag_794\n        /* \"#utility.yul\":26011:26033   */\n      tag_795\n        /* \"#utility.yul\":26029:26032   */\n      dup6\n        /* \"#utility.yul\":26011:26033   */\n      tag_499\n      jump\t// in\n    tag_795:\n        /* \"#utility.yul\":26001:26009   */\n      dup4\n        /* \"#utility.yul\":25997:26034   */\n      add\n        /* \"#utility.yul\":25984:25995   */\n      dup3\n        /* \"#utility.yul\":25955:26035   */\n      tag_508\n      jump\t// in\n    tag_794:\n        /* \"#utility.yul\":25614:26045   */\n      pop\n      pop\n        /* \"#utility.yul\":25599:26045   */\n    tag_790:\n        /* \"#utility.yul\":25509:26052   */\n      pop\n      pop\n      pop\n      jump\t// out\n        /* \"#utility.yul\":26058:26175   */\n    tag_510:\n        /* \"#utility.yul\":26112:26120   */\n      0x00\n        /* \"#utility.yul\":26162:26167   */\n      dup3\n        /* \"#utility.yul\":26156:26160   */\n      dup3\n        /* \"#utility.yul\":26152:26168   */\n      shr\n        /* \"#utility.yul\":26131:26168   */\n      swap1\n      pop\n        /* \"#utility.yul\":26058:26175   */\n      swap3\n      swap2\n      pop\n      pop\n      jump\t// out\n        /* \"#utility.yul\":26181:26350   */\n    tag_511:\n        /* \"#utility.yul\":26225:26231   */\n      0x00\n        /* \"#utility.yul\":26258:26309   */\n      tag_798\n        /* \"#utility.yul\":26306:26307   */\n      0x00\n        /* \"#utility.yul\":26302:26308   */\n      not\n        /* \"#utility.yul\":26294:26299   */\n      dup5\n        /* \"#utility.yul\":26291:26292   */\n      0x08\n        /* \"#utility.yul\":26287:26300   */\n      mul\n        /* \"#utility.yul\":26258:26309   */\n      tag_510\n      jump\t// in\n    tag_798:\n        /* \"#utility.yul\":26254:26310   */\n      not\n        /* \"#utility.yul\":26339:26343   */\n      dup1\n        /* \"#utility.yul\":26333:26337   */\n      dup4\n        /* \"#utility.yul\":26329:26344   */\n      and\n        /* \"#utility.yul\":26319:26344   */\n      swap2\n      pop\n        /* \"#utility.yul\":26232:26350   */\n      pop\n        /* \"#utility.yul\":26181:26350   */\n      swap3\n      swap2\n      pop\n      pop\n      jump\t// out\n        /* \"#utility.yul\":26355:26650   */\n    tag_512:\n        /* \"#utility.yul\":26431:26435   */\n      0x00\n        /* \"#utility.yul\":26577:26606   */\n      tag_800\n        /* \"#utility.yul\":26602:26605   */\n      dup4\n        /* \"#utility.yul\":26596:26600   */\n      dup4\n        /* \"#utility.yul\":26577:26606   */\n      tag_511\n      jump\t// in\n    tag_800:\n        /* \"#utility.yul\":26569:26606   */\n      swap2\n      pop\n        /* \"#utility.yul\":26639:26642   */\n      dup3\n        /* \"#utility.yul\":26636:26637   */\n      0x02\n        /* \"#utility.yul\":26632:26643   */\n      mul\n        /* \"#utility.yul\":26626:26630   */\n      dup3\n        /* \"#utility.yul\":26623:26644   */\n      or\n        /* \"#utility.yul\":26615:26644   */\n      swap1\n      pop\n        /* \"#utility.yul\":26355:26650   */\n      swap3\n      swap2\n      pop\n      pop\n      jump\t// out\n        /* \"#utility.yul\":26655:28050   */\n    tag_98:\n        /* \"#utility.yul\":26772:26809   */\n      tag_802\n        /* \"#utility.yul\":26805:26808   */\n      dup3\n        /* \"#utility.yul\":26772:26809   */\n      tag_446\n      jump\t// in\n    tag_802:\n        /* \"#utility.yul\":26874:26892   */\n      0xffffffffffffffff\n        /* \"#utility.yul\":26866:26872   */\n      dup2\n        /* \"#utility.yul\":26863:26893   */\n      gt\n        /* \"#utility.yul\":26860:26916   */\n      iszero\n      tag_803\n      jumpi\n        /* \"#utility.yul\":26896:26914   */\n      tag_804\n      tag_300\n      jump\t// in\n    tag_804:\n        /* \"#utility.yul\":26860:26916   */\n    tag_803:\n        /* \"#utility.yul\":26940:26978   */\n      tag_805\n        /* \"#utility.yul\":26972:26976   */\n      dup3\n        /* \"#utility.yul\":26966:26977   */\n      sload\n        /* \"#utility.yul\":26940:26978   */\n      tag_77\n      jump\t// in\n    tag_805:\n        /* \"#utility.yul\":27025:27092   */\n      tag_806\n        /* \"#utility.yul\":27085:27091   */\n      dup3\n        /* \"#utility.yul\":27077:27083   */\n      dup3\n        /* \"#utility.yul\":27071:27075   */\n      dup6\n        /* \"#utility.yul\":27025:27092   */\n      tag_509\n      jump\t// in\n    tag_806:\n        /* \"#utility.yul\":27119:27120   */\n      0x00\n        /* \"#utility.yul\":27143:27147   */\n      0x20\n        /* \"#utility.yul\":27130:27147   */\n      swap1\n      pop\n        /* \"#utility.yul\":27175:27177   */\n      0x1f\n        /* \"#utility.yul\":27167:27173   */\n      dup4\n        /* \"#utility.yul\":27164:27178   */\n      gt\n        /* \"#utility.yul\":27192:27193   */\n      0x01\n        /* \"#utility.yul\":27187:27805   */\n      dup2\n      eq\n      tag_808\n      jumpi\n        /* \"#utility.yul\":27849:27850   */\n      0x00\n        /* \"#utility.yul\":27866:27872   */\n      dup5\n        /* \"#utility.yul\":27863:27940   */\n      iszero\n      tag_809\n      jumpi\n        /* \"#utility.yul\":27915:27924   */\n      dup3\n        /* \"#utility.yul\":27910:27913   */\n      dup8\n        /* \"#utility.yul\":27906:27925   */\n      add\n        /* \"#utility.yul\":27900:27926   */\n      mload\n        /* \"#utility.yul\":27891:27926   */\n      swap1\n      pop\n        /* \"#utility.yul\":27863:27940   */\n    tag_809:\n        /* \"#utility.yul\":27966:28033   */\n      tag_810\n        /* \"#utility.yul\":28026:28032   */\n      dup6\n        /* \"#utility.yul\":28019:28024   */\n      dup3\n        /* \"#utility.yul\":27966:28033   */\n      tag_512\n      jump\t// in\n    tag_810:\n        /* \"#utility.yul\":27960:27964   */\n      dup7\n        /* \"#utility.yul\":27953:28034   */\n      sstore\n        /* \"#utility.yul\":27822:28044   */\n      pop\n        /* \"#utility.yul\":27157:28044   */\n      jump(tag_807)\n        /* \"#utility.yul\":27187:27805   */\n    tag_808:\n        /* \"#utility.yul\":27239:27243   */\n      0x1f\n        /* \"#utility.yul\":27235:27244   */\n      not\n        /* \"#utility.yul\":27227:27233   */\n      dup5\n        /* \"#utility.yul\":27223:27245   */\n      and\n        /* \"#utility.yul\":27273:27310   */\n      tag_811\n        /* \"#utility.yul\":27305:27309   */\n      dup7\n        /* \"#utility.yul\":27273:27310   */\n      tag_498\n      jump\t// in\n    tag_811:\n        /* \"#utility.yul\":27332:27333   */\n      0x00\n        /* \"#utility.yul\":27346:27554   */\n    tag_812:\n        /* \"#utility.yul\":27360:27367   */\n      dup3\n        /* \"#utility.yul\":27357:27358   */\n      dup2\n        /* \"#utility.yul\":27354:27368   */\n      lt\n        /* \"#utility.yul\":27346:27554   */\n      iszero\n      tag_814\n      jumpi\n        /* \"#utility.yul\":27439:27448   */\n      dup5\n        /* \"#utility.yul\":27434:27437   */\n      dup10\n        /* \"#utility.yul\":27430:27449   */\n      add\n        /* \"#utility.yul\":27424:27450   */\n      mload\n        /* \"#utility.yul\":27416:27422   */\n      dup3\n        /* \"#utility.yul\":27409:27451   */\n      sstore\n        /* \"#utility.yul\":27490:27491   */\n      0x01\n        /* \"#utility.yul\":27482:27488   */\n      dup3\n        /* \"#utility.yul\":27478:27492   */\n      add\n        /* \"#utility.yul\":27468:27492   */\n      swap2\n      pop\n        /* \"#utility.yul\":27537:27539   */\n      0x20\n        /* \"#utility.yul\":27526:27535   */\n      dup6\n        /* \"#utility.yul\":27522:27540   */\n      add\n        /* \"#utility.yul\":27509:27540   */\n      swap5\n      pop\n        /* \"#utility.yul\":27383:27387   */\n      0x20\n        /* \"#utility.yul\":27380:27381   */\n      dup2\n        /* \"#utility.yul\":27376:27388   */\n      add\n        /* \"#utility.yul\":27371:27388   */\n      swap1\n      pop\n        /* \"#utility.yul\":27346:27554   */\n      jump(tag_812)\n    tag_814:\n        /* \"#utility.yul\":27582:27588   */\n      dup7\n        /* \"#utility.yul\":27573:27580   */\n      dup4\n        /* \"#utility.yul\":27570:27589   */\n      lt\n        /* \"#utility.yul\":27567:27746   */\n      iszero\n      tag_815\n      jumpi\n        /* \"#utility.yul\":27640:27649   */\n      dup5\n        /* \"#utility.yul\":27635:27638   */\n      dup10\n        /* \"#utility.yul\":27631:27650   */\n      add\n        /* \"#utility.yul\":27625:27651   */\n      mload\n        /* \"#utility.yul\":27683:27731   */\n      tag_816\n        /* \"#utility.yul\":27725:27729   */\n      0x1f\n        /* \"#utility.yul\":27717:27723   */\n      dup10\n        /* \"#utility.yul\":27713:27730   */\n      and\n        /* \"#utility.yul\":27702:27711   */\n      dup3\n        /* \"#utility.yul\":27683:27731   */\n      tag_511\n      jump\t// in\n    tag_816:\n        /* \"#utility.yul\":27675:27681   */\n      dup4\n        /* \"#utility.yul\":27668:27732   */\n      sstore\n        /* \"#utility.yul\":27590:27746   */\n      pop\n        /* \"#utility.yul\":27567:27746   */\n    tag_815:\n        /* \"#utility.yul\":27792:27793   */\n      0x01\n        /* \"#utility.yul\":27788:27789   */\n      0x02\n        /* \"#utility.yul\":27780:27786   */\n      dup9\n        /* \"#utility.yul\":27776:27790   */\n      mul\n        /* \"#utility.yul\":27772:27794   */\n      add\n        /* \"#utility.yul\":27766:27770   */\n      dup9\n        /* \"#utility.yul\":27759:27795   */\n      sstore\n        /* \"#utility.yul\":27194:27805   */\n      pop\n      pop\n      pop\n        /* \"#utility.yul\":27157:28044   */\n    tag_807:\n      pop\n        /* \"#utility.yul\":26747:28050   */\n      pop\n      pop\n      pop\n        /* \"#utility.yul\":26655:28050   */\n      pop\n      pop\n      jump\t// out\n        /* \"#utility.yul\":28056:28236   */\n    tag_513:\n        /* \"#utility.yul\":28104:28181   */\n      0x4e487b7100000000000000000000000000000000000000000000000000000000\n        /* \"#utility.yul\":28101:28102   */\n      0x00\n        /* \"#utility.yul\":28094:28182   */\n      mstore\n        /* \"#utility.yul\":28201:28205   */\n      0x11\n        /* \"#utility.yul\":28198:28199   */\n      0x04\n        /* \"#utility.yul\":28191:28206   */\n      mstore\n        /* \"#utility.yul\":28225:28229   */\n      0x24\n        /* \"#utility.yul\":28222:28223   */\n      0x00\n        /* \"#utility.yul\":28215:28230   */\n      revert\n        /* \"#utility.yul\":28242:28436   */\n    tag_103:\n        /* \"#utility.yul\":28282:28286   */\n      0x00\n        /* \"#utility.yul\":28302:28322   */\n      tag_819\n        /* \"#utility.yul\":28320:28321   */\n      dup3\n        /* \"#utility.yul\":28302:28322   */\n      tag_443\n      jump\t// in\n    tag_819:\n        /* \"#utility.yul\":28297:28322   */\n      swap2\n      pop\n        /* \"#utility.yul\":28336:28356   */\n      tag_820\n        /* \"#utility.yul\":28354:28355   */\n      dup4\n        /* \"#utility.yul\":28336:28356   */\n      tag_443\n      jump\t// in\n    tag_820:\n        /* \"#utility.yul\":28331:28356   */\n      swap3\n      pop\n        /* \"#utility.yul\":28380:28381   */\n      dup3\n        /* \"#utility.yul\":28377:28378   */\n      dup3\n        /* \"#utility.yul\":28373:28382   */\n      sub\n        /* \"#utility.yul\":28365:28382   */\n      swap1\n      pop\n        /* \"#utility.yul\":28404:28405   */\n      dup2\n        /* \"#utility.yul\":28398:28402   */\n      dup2\n        /* \"#utility.yul\":28395:28406   */\n      gt\n        /* \"#utility.yul\":28392:28429   */\n      iszero\n      tag_821\n      jumpi\n        /* \"#utility.yul\":28409:28427   */\n      tag_822\n      tag_513\n      jump\t// in\n    tag_822:\n        /* \"#utility.yul\":28392:28429   */\n    tag_821:\n        /* \"#utility.yul\":28242:28436   */\n      swap3\n      swap2\n      pop\n      pop\n      jump\t// out\n        /* \"#utility.yul\":28442:28664   */\n    tag_106:\n        /* \"#utility.yul\":28535:28539   */\n      0x00\n        /* \"#utility.yul\":28573:28575   */\n      0x20\n        /* \"#utility.yul\":28562:28571   */\n      dup3\n        /* \"#utility.yul\":28558:28576   */\n      add\n        /* \"#utility.yul\":28550:28576   */\n      swap1\n      pop\n        /* \"#utility.yul\":28586:28657   */\n      tag_824\n        /* \"#utility.yul\":28654:28655   */\n      0x00\n        /* \"#utility.yul\":28643:28652   */\n      dup4\n        /* \"#utility.yul\":28639:28656   */\n      add\n        /* \"#utility.yul\":28630:28636   */\n      dup5\n        /* \"#utility.yul\":28586:28657   */\n      tag_451\n      jump\t// in\n    tag_824:\n        /* \"#utility.yul\":28442:28664   */\n      swap3\n      swap2\n      pop\n      pop\n      jump\t// out\n        /* \"#utility.yul\":28670:28850   */\n    tag_110:\n        /* \"#utility.yul\":28718:28795   */\n      0x4e487b7100000000000000000000000000000000000000000000000000000000\n        /* \"#utility.yul\":28715:28716   */\n      0x00\n        /* \"#utility.yul\":28708:28796   */\n      mstore\n        /* \"#utility.yul\":28815:28819   */\n      0x32\n        /* \"#utility.yul\":28812:28813   */\n      0x04\n        /* \"#utility.yul\":28805:28820   */\n      mstore\n        /* \"#utility.yul\":28839:28843   */\n      0x24\n        /* \"#utility.yul\":28836:28837   */\n      0x00\n        /* \"#utility.yul\":28829:28844   */\n      revert\n        /* \"#utility.yul\":28856:29028   */\n    tag_514:\n        /* \"#utility.yul\":28996:29020   */\n      0x496e76616c69642070726f6a6563747320696e64657800000000000000000000\n        /* \"#utility.yul\":28992:28993   */\n      0x00\n        /* \"#utility.yul\":28984:28990   */\n      dup3\n        /* \"#utility.yul\":28980:28994   */\n      add\n        /* \"#utility.yul\":28973:29021   */\n      mstore\n        /* \"#utility.yul\":28856:29028   */\n      pop\n      jump\t// out\n        /* \"#utility.yul\":29034:29400   */\n    tag_515:\n        /* \"#utility.yul\":29176:29179   */\n      0x00\n        /* \"#utility.yul\":29197:29264   */\n      tag_828\n        /* \"#utility.yul\":29261:29263   */\n      0x16\n        /* \"#utility.yul\":29256:29259   */\n      dup4\n        /* \"#utility.yul\":29197:29264   */\n      tag_447\n      jump\t// in\n    tag_828:\n        /* \"#utility.yul\":29190:29264   */\n      swap2\n      pop\n        /* \"#utility.yul\":29273:29366   */\n      tag_829\n        /* \"#utility.yul\":29362:29365   */\n      dup3\n        /* \"#utility.yul\":29273:29366   */\n      tag_514\n      jump\t// in\n    tag_829:\n        /* \"#utility.yul\":29391:29393   */\n      0x20\n        /* \"#utility.yul\":29386:29389   */\n      dup3\n        /* \"#utility.yul\":29382:29394   */\n      add\n        /* \"#utility.yul\":29375:29394   */\n      swap1\n      pop\n        /* \"#utility.yul\":29034:29400   */\n      swap2\n      swap1\n      pop\n      jump\t// out\n        /* \"#utility.yul\":29406:29825   */\n    tag_120:\n        /* \"#utility.yul\":29572:29576   */\n      0x00\n        /* \"#utility.yul\":29610:29612   */\n      0x20\n        /* \"#utility.yul\":29599:29608   */\n      dup3\n        /* \"#utility.yul\":29595:29613   */\n      add\n        /* \"#utility.yul\":29587:29613   */\n      swap1\n      pop\n        /* \"#utility.yul\":29659:29668   */\n      dup2\n        /* \"#utility.yul\":29653:29657   */\n      dup2\n        /* \"#utility.yul\":29649:29669   */\n      sub\n        /* \"#utility.yul\":29645:29646   */\n      0x00\n        /* \"#utility.yul\":29634:29643   */\n      dup4\n        /* \"#utility.yul\":29630:29647   */\n      add\n        /* \"#utility.yul\":29623:29670   */\n      mstore\n        /* \"#utility.yul\":29687:29818   */\n      tag_831\n        /* \"#utility.yul\":29813:29817   */\n      dup2\n        /* \"#utility.yul\":29687:29818   */\n      tag_515\n      jump\t// in\n    tag_831:\n        /* \"#utility.yul\":29679:29818   */\n      swap1\n      pop\n        /* \"#utility.yul\":29406:29825   */\n      swap2\n      swap1\n      pop\n      jump\t// out\n        /* \"#utility.yul\":29831:30003   */\n    tag_516:\n        /* \"#utility.yul\":29971:29995   */\n      0x50726f6a656374206d7573742062652061637469766500000000000000000000\n        /* \"#utility.yul\":29967:29968   */\n      0x00\n        /* \"#utility.yul\":29959:29965   */\n      dup3\n        /* \"#utility.yul\":29955:29969   */\n      add\n        /* \"#utility.yul\":29948:29996   */\n      mstore\n        /* \"#utility.yul\":29831:30003   */\n      pop\n      jump\t// out\n        /* \"#utility.yul\":30009:30375   */\n    tag_517:\n        /* \"#utility.yul\":30151:30154   */\n      0x00\n        /* \"#utility.yul\":30172:30239   */\n      tag_834\n        /* \"#utility.yul\":30236:30238   */\n      0x16\n        /* \"#utility.yul\":30231:30234   */\n      dup4\n        /* \"#utility.yul\":30172:30239   */\n      tag_447\n      jump\t// in\n    tag_834:\n        /* \"#utility.yul\":30165:30239   */\n      swap2\n      pop\n        /* \"#utility.yul\":30248:30341   */\n      tag_835\n        /* \"#utility.yul\":30337:30340   */\n      dup3\n        /* \"#utility.yul\":30248:30341   */\n      tag_516\n      jump\t// in\n    tag_835:\n        /* \"#utility.yul\":30366:30368   */\n      0x20\n        /* \"#utility.yul\":30361:30364   */\n      dup3\n        /* \"#utility.yul\":30357:30369   */\n      add\n        /* \"#utility.yul\":30350:30369   */\n      swap1\n      pop\n        /* \"#utility.yul\":30009:30375   */\n      swap2\n      swap1\n      pop\n      jump\t// out\n        /* \"#utility.yul\":30381:30800   */\n    tag_126:\n        /* \"#utility.yul\":30547:30551   */\n      0x00\n        /* \"#utility.yul\":30585:30587   */\n      0x20\n        /* \"#utility.yul\":30574:30583   */\n      dup3\n        /* \"#utility.yul\":30570:30588   */\n      add\n        /* \"#utility.yul\":30562:30588   */\n      swap1\n      pop\n        /* \"#utility.yul\":30634:30643   */\n      dup2\n        /* \"#utility.yul\":30628:30632   */\n      dup2\n        /* \"#utility.yul\":30624:30644   */\n      sub\n        /* \"#utility.yul\":30620:30621   */\n      0x00\n        /* \"#utility.yul\":30609:30618   */\n      dup4\n        /* \"#utility.yul\":30605:30622   */\n      add\n        /* \"#utility.yul\":30598:30645   */\n      mstore\n        /* \"#utility.yul\":30662:30793   */\n      tag_837\n        /* \"#utility.yul\":30788:30792   */\n      dup2\n        /* \"#utility.yul\":30662:30793   */\n      tag_517\n      jump\t// in\n    tag_837:\n        /* \"#utility.yul\":30654:30793   */\n      swap1\n      pop\n        /* \"#utility.yul\":30381:30800   */\n      swap2\n      swap1\n      pop\n      jump\t// out\n        /* \"#utility.yul\":30806:30987   */\n    tag_518:\n        /* \"#utility.yul\":30946:30979   */\n      0x4d696c6573746f6e652073686f756c64206265206e6f74207265616368656400\n        /* \"#utility.yul\":30942:30943   */\n      0x00\n        /* \"#utility.yul\":30934:30940   */\n      dup3\n        /* \"#utility.yul\":30930:30944   */\n      add\n        /* \"#utility.yul\":30923:30980   */\n      mstore\n        /* \"#utility.yul\":30806:30987   */\n      pop\n      jump\t// out\n        /* \"#utility.yul\":30993:31359   */\n    tag_519:\n        /* \"#utility.yul\":31135:31138   */\n      0x00\n        /* \"#utility.yul\":31156:31223   */\n      tag_840\n        /* \"#utility.yul\":31220:31222   */\n      0x1f\n        /* \"#utility.yul\":31215:31218   */\n      dup4\n        /* \"#utility.yul\":31156:31223   */\n      tag_447\n      jump\t// in\n    tag_840:\n        /* \"#utility.yul\":31149:31223   */\n      swap2\n      pop\n        /* \"#utility.yul\":31232:31325   */\n      tag_841\n        /* \"#utility.yul\":31321:31324   */\n      dup3\n        /* \"#utility.yul\":31232:31325   */\n      tag_518\n      jump\t// in\n    tag_841:\n        /* \"#utility.yul\":31350:31352   */\n      0x20\n        /* \"#utility.yul\":31345:31348   */\n      dup3\n        /* \"#utility.yul\":31341:31353   */\n      add\n        /* \"#utility.yul\":31334:31353   */\n      swap1\n      pop\n        /* \"#utility.yul\":30993:31359   */\n      swap2\n      swap1\n      pop\n      jump\t// out\n        /* \"#utility.yul\":31365:31784   */\n    tag_132:\n        /* \"#utility.yul\":31531:31535   */\n      0x00\n        /* \"#utility.yul\":31569:31571   */\n      0x20\n        /* \"#utility.yul\":31558:31567   */\n      dup3\n        /* \"#utility.yul\":31554:31572   */\n      add\n        /* \"#utility.yul\":31546:31572   */\n      swap1\n      pop\n        /* \"#utility.yul\":31618:31627   */\n      dup2\n        /* \"#utility.yul\":31612:31616   */\n      dup2\n        /* \"#utility.yul\":31608:31628   */\n      sub\n        /* \"#utility.yul\":31604:31605   */\n      0x00\n        /* \"#utility.yul\":31593:31602   */\n      dup4\n        /* \"#utility.yul\":31589:31606   */\n      add\n        /* \"#utility.yul\":31582:31629   */\n      mstore\n        /* \"#utility.yul\":31646:31777   */\n      tag_843\n        /* \"#utility.yul\":31772:31776   */\n      dup2\n        /* \"#utility.yul\":31646:31777   */\n      tag_519\n      jump\t// in\n    tag_843:\n        /* \"#utility.yul\":31638:31777   */\n      swap1\n      pop\n        /* \"#utility.yul\":31365:31784   */\n      swap2\n      swap1\n      pop\n      jump\t// out\n        /* \"#utility.yul\":31790:32343   */\n    tag_134:\n        /* \"#utility.yul\":31967:31971   */\n      0x00\n        /* \"#utility.yul\":32005:32008   */\n      0x80\n        /* \"#utility.yul\":31994:32003   */\n      dup3\n        /* \"#utility.yul\":31990:32009   */\n      add\n        /* \"#utility.yul\":31982:32009   */\n      swap1\n      pop\n        /* \"#utility.yul\":32019:32090   */\n      tag_845\n        /* \"#utility.yul\":32087:32088   */\n      0x00\n        /* \"#utility.yul\":32076:32085   */\n      dup4\n        /* \"#utility.yul\":32072:32089   */\n      add\n        /* \"#utility.yul\":32063:32069   */\n      dup8\n        /* \"#utility.yul\":32019:32090   */\n      tag_451\n      jump\t// in\n    tag_845:\n        /* \"#utility.yul\":32100:32172   */\n      tag_846\n        /* \"#utility.yul\":32168:32170   */\n      0x20\n        /* \"#utility.yul\":32157:32166   */\n      dup4\n        /* \"#utility.yul\":32153:32171   */\n      add\n        /* \"#utility.yul\":32144:32150   */\n      dup7\n        /* \"#utility.yul\":32100:32172   */\n      tag_451\n      jump\t// in\n    tag_846:\n        /* \"#utility.yul\":32182:32254   */\n      tag_847\n        /* \"#utility.yul\":32250:32252   */\n      0x40\n        /* \"#utility.yul\":32239:32248   */\n      dup4\n        /* \"#utility.yul\":32235:32253   */\n      add\n        /* \"#utility.yul\":32226:32232   */\n      dup6\n        /* \"#utility.yul\":32182:32254   */\n      tag_451\n      jump\t// in\n    tag_847:\n        /* \"#utility.yul\":32264:32336   */\n      tag_848\n        /* \"#utility.yul\":32332:32334   */\n      0x60\n        /* \"#utility.yul\":32321:32330   */\n      dup4\n        /* \"#utility.yul\":32317:32335   */\n      add\n        /* \"#utility.yul\":32308:32314   */\n      dup5\n        /* \"#utility.yul\":32264:32336   */\n      tag_451\n      jump\t// in\n    tag_848:\n        /* \"#utility.yul\":31790:32343   */\n      swap6\n      swap5\n      pop\n      pop\n      pop\n      pop\n      pop\n      jump\t// out\n        /* \"#utility.yul\":32349:32520   */\n    tag_520:\n        /* \"#utility.yul\":32489:32512   */\n      0x50726f6a65637420646f65736e27742065786973740000000000000000000000\n        /* \"#utility.yul\":32485:32486   */\n      0x00\n        /* \"#utility.yul\":32477:32483   */\n      dup3\n        /* \"#utility.yul\":32473:32487   */\n      add\n        /* \"#utility.yul\":32466:32513   */\n      mstore\n        /* \"#utility.yul\":32349:32520   */\n      pop\n      jump\t// out\n        /* \"#utility.yul\":32526:32892   */\n    tag_521:\n        /* \"#utility.yul\":32668:32671   */\n      0x00\n        /* \"#utility.yul\":32689:32756   */\n      tag_851\n        /* \"#utility.yul\":32753:32755   */\n      0x15\n        /* \"#utility.yul\":32748:32751   */\n      dup4\n        /* \"#utility.yul\":32689:32756   */\n      tag_447\n      jump\t// in\n    tag_851:\n        /* \"#utility.yul\":32682:32756   */\n      swap2\n      pop\n        /* \"#utility.yul\":32765:32858   */\n      tag_852\n        /* \"#utility.yul\":32854:32857   */\n      dup3\n        /* \"#utility.yul\":32765:32858   */\n      tag_520\n      jump\t// in\n    tag_852:\n        /* \"#utility.yul\":32883:32885   */\n      0x20\n        /* \"#utility.yul\":32878:32881   */\n      dup3\n        /* \"#utility.yul\":32874:32886   */\n      add\n        /* \"#utility.yul\":32867:32886   */\n      swap1\n      pop\n        /* \"#utility.yul\":32526:32892   */\n      swap2\n      swap1\n      pop\n      jump\t// out\n        /* \"#utility.yul\":32898:33317   */\n    tag_138:\n        /* \"#utility.yul\":33064:33068   */\n      0x00\n        /* \"#utility.yul\":33102:33104   */\n      0x20\n        /* \"#utility.yul\":33091:33100   */\n      dup3\n        /* \"#utility.yul\":33087:33105   */\n      add\n        /* \"#utility.yul\":33079:33105   */\n      swap1\n      pop\n        /* \"#utility.yul\":33151:33160   */\n      dup2\n        /* \"#utility.yul\":33145:33149   */\n      dup2\n        /* \"#utility.yul\":33141:33161   */\n      sub\n        /* \"#utility.yul\":33137:33138   */\n      0x00\n        /* \"#utility.yul\":33126:33135   */\n      dup4\n        /* \"#utility.yul\":33122:33139   */\n      add\n        /* \"#utility.yul\":33115:33162   */\n      mstore\n        /* \"#utility.yul\":33179:33310   */\n      tag_854\n        /* \"#utility.yul\":33305:33309   */\n      dup2\n        /* \"#utility.yul\":33179:33310   */\n      tag_521\n      jump\t// in\n    tag_854:\n        /* \"#utility.yul\":33171:33310   */\n      swap1\n      pop\n        /* \"#utility.yul\":32898:33317   */\n      swap2\n      swap1\n      pop\n      jump\t// out\n        /* \"#utility.yul\":33323:33544   */\n    tag_522:\n        /* \"#utility.yul\":33463:33497   */\n      0x596f7520646f6e74206861766520656e6f756768206d6f6e657920746f206675\n        /* \"#utility.yul\":33459:33460   */\n      0x00\n        /* \"#utility.yul\":33451:33457   */\n      dup3\n        /* \"#utility.yul\":33447:33461   */\n      add\n        /* \"#utility.yul\":33440:33498   */\n      mstore\n        /* \"#utility.yul\":33532:33536   */\n      0x6e64000000000000000000000000000000000000000000000000000000000000\n        /* \"#utility.yul\":33527:33529   */\n      0x20\n        /* \"#utility.yul\":33519:33525   */\n      dup3\n        /* \"#utility.yul\":33515:33530   */\n      add\n        /* \"#utility.yul\":33508:33537   */\n      mstore\n        /* \"#utility.yul\":33323:33544   */\n      pop\n      jump\t// out\n        /* \"#utility.yul\":33550:33916   */\n    tag_523:\n        /* \"#utility.yul\":33692:33695   */\n      0x00\n        /* \"#utility.yul\":33713:33780   */\n      tag_857\n        /* \"#utility.yul\":33777:33779   */\n      0x22\n        /* \"#utility.yul\":33772:33775   */\n      dup4\n        /* \"#utility.yul\":33713:33780   */\n      tag_447\n      jump\t// in\n    tag_857:\n        /* \"#utility.yul\":33706:33780   */\n      swap2\n      pop\n        /* \"#utility.yul\":33789:33882   */\n      tag_858\n        /* \"#utility.yul\":33878:33881   */\n      dup3\n        /* \"#utility.yul\":33789:33882   */\n      tag_522\n      jump\t// in\n    tag_858:\n        /* \"#utility.yul\":33907:33909   */\n      0x40\n        /* \"#utility.yul\":33902:33905   */\n      dup3\n        /* \"#utility.yul\":33898:33910   */\n      add\n        /* \"#utility.yul\":33891:33910   */\n      swap1\n      pop\n        /* \"#utility.yul\":33550:33916   */\n      swap2\n      swap1\n      pop\n      jump\t// out\n        /* \"#utility.yul\":33922:34341   */\n    tag_141:\n        /* \"#utility.yul\":34088:34092   */\n      0x00\n        /* \"#utility.yul\":34126:34128   */\n      0x20\n        /* \"#utility.yul\":34115:34124   */\n      dup3\n        /* \"#utility.yul\":34111:34129   */\n      add\n        /* \"#utility.yul\":34103:34129   */\n      swap1\n      pop\n        /* \"#utility.yul\":34175:34184   */\n      dup2\n        /* \"#utility.yul\":34169:34173   */\n      dup2\n        /* \"#utility.yul\":34165:34185   */\n      sub\n        /* \"#utility.yul\":34161:34162   */\n      0x00\n        /* \"#utility.yul\":34150:34159   */\n      dup4\n        /* \"#utility.yul\":34146:34163   */\n      add\n        /* \"#utility.yul\":34139:34186   */\n      mstore\n        /* \"#utility.yul\":34203:34334   */\n      tag_860\n        /* \"#utility.yul\":34329:34333   */\n      dup2\n        /* \"#utility.yul\":34203:34334   */\n      tag_523\n      jump\t// in\n    tag_860:\n        /* \"#utility.yul\":34195:34334   */\n      swap1\n      pop\n        /* \"#utility.yul\":33922:34341   */\n      swap2\n      swap1\n      pop\n      jump\t// out\n        /* \"#utility.yul\":34347:34519   */\n    tag_524:\n        /* \"#utility.yul\":34487:34511   */\n      0x46756e6420616d6f756e742063616e2774206265203000000000000000000000\n        /* \"#utility.yul\":34483:34484   */\n      0x00\n        /* \"#utility.yul\":34475:34481   */\n      dup3\n        /* \"#utility.yul\":34471:34485   */\n      add\n        /* \"#utility.yul\":34464:34512   */\n      mstore\n        /* \"#utility.yul\":34347:34519   */\n      pop\n      jump\t// out\n        /* \"#utility.yul\":34525:34891   */\n    tag_525:\n        /* \"#utility.yul\":34667:34670   */\n      0x00\n        /* \"#utility.yul\":34688:34755   */\n      tag_863\n        /* \"#utility.yul\":34752:34754   */\n      0x16\n        /* \"#utility.yul\":34747:34750   */\n      dup4\n        /* \"#utility.yul\":34688:34755   */\n      tag_447\n      jump\t// in\n    tag_863:\n        /* \"#utility.yul\":34681:34755   */\n      swap2\n      pop\n        /* \"#utility.yul\":34764:34857   */\n      tag_864\n        /* \"#utility.yul\":34853:34856   */\n      dup3\n        /* \"#utility.yul\":34764:34857   */\n      tag_524\n      jump\t// in\n    tag_864:\n        /* \"#utility.yul\":34882:34884   */\n      0x20\n        /* \"#utility.yul\":34877:34880   */\n      dup3\n        /* \"#utility.yul\":34873:34885   */\n      add\n        /* \"#utility.yul\":34866:34885   */\n      swap1\n      pop\n        /* \"#utility.yul\":34525:34891   */\n      swap2\n      swap1\n      pop\n      jump\t// out\n        /* \"#utility.yul\":34897:35316   */\n    tag_144:\n        /* \"#utility.yul\":35063:35067   */\n      0x00\n        /* \"#utility.yul\":35101:35103   */\n      0x20\n        /* \"#utility.yul\":35090:35099   */\n      dup3\n        /* \"#utility.yul\":35086:35104   */\n      add\n        /* \"#utility.yul\":35078:35104   */\n      swap1\n      pop\n        /* \"#utility.yul\":35150:35159   */\n      dup2\n        /* \"#utility.yul\":35144:35148   */\n      dup2\n        /* \"#utility.yul\":35140:35160   */\n      sub\n        /* \"#utility.yul\":35136:35137   */\n      0x00\n        /* \"#utility.yul\":35125:35134   */\n      dup4\n        /* \"#utility.yul\":35121:35138   */\n      add\n        /* \"#utility.yul\":35114:35161   */\n      mstore\n        /* \"#utility.yul\":35178:35309   */\n      tag_866\n        /* \"#utility.yul\":35304:35308   */\n      dup2\n        /* \"#utility.yul\":35178:35309   */\n      tag_525\n      jump\t// in\n    tag_866:\n        /* \"#utility.yul\":35170:35309   */\n      swap1\n      pop\n        /* \"#utility.yul\":34897:35316   */\n      swap2\n      swap1\n      pop\n      jump\t// out\n        /* \"#utility.yul\":35322:35502   */\n    tag_526:\n        /* \"#utility.yul\":35462:35494   */\n      0x50726f6a656374206d7573742062652061637469766520746f2066756e640000\n        /* \"#utility.yul\":35458:35459   */\n      0x00\n        /* \"#utility.yul\":35450:35456   */\n      dup3\n        /* \"#utility.yul\":35446:35460   */\n      add\n        /* \"#utility.yul\":35439:35495   */\n      mstore\n        /* \"#utility.yul\":35322:35502   */\n      pop\n      jump\t// out\n        /* \"#utility.yul\":35508:35874   */\n    tag_527:\n        /* \"#utility.yul\":35650:35653   */\n      0x00\n        /* \"#utility.yul\":35671:35738   */\n      tag_869\n        /* \"#utility.yul\":35735:35737   */\n      0x1e\n        /* \"#utility.yul\":35730:35733   */\n      dup4\n        /* \"#utility.yul\":35671:35738   */\n      tag_447\n      jump\t// in\n    tag_869:\n        /* \"#utility.yul\":35664:35738   */\n      swap2\n      pop\n        /* \"#utility.yul\":35747:35840   */\n      tag_870\n        /* \"#utility.yul\":35836:35839   */\n      dup3\n        /* \"#utility.yul\":35747:35840   */\n      tag_526\n      jump\t// in\n    tag_870:\n        /* \"#utility.yul\":35865:35867   */\n      0x20\n        /* \"#utility.yul\":35860:35863   */\n      dup3\n        /* \"#utility.yul\":35856:35868   */\n      add\n        /* \"#utility.yul\":35849:35868   */\n      swap1\n      pop\n        /* \"#utility.yul\":35508:35874   */\n      swap2\n      swap1\n      pop\n      jump\t// out\n        /* \"#utility.yul\":35880:36299   */\n    tag_150:\n        /* \"#utility.yul\":36046:36050   */\n      0x00\n        /* \"#utility.yul\":36084:36086   */\n      0x20\n        /* \"#utility.yul\":36073:36082   */\n      dup3\n        /* \"#utility.yul\":36069:36087   */\n      add\n        /* \"#utility.yul\":36061:36087   */\n      swap1\n      pop\n        /* \"#utility.yul\":36133:36142   */\n      dup2\n        /* \"#utility.yul\":36127:36131   */\n      dup2\n        /* \"#utility.yul\":36123:36143   */\n      sub\n        /* \"#utility.yul\":36119:36120   */\n      0x00\n        /* \"#utility.yul\":36108:36117   */\n      dup4\n        /* \"#utility.yul\":36104:36121   */\n      add\n        /* \"#utility.yul\":36097:36144   */\n      mstore\n        /* \"#utility.yul\":36161:36292   */\n      tag_872\n        /* \"#utility.yul\":36287:36291   */\n      dup2\n        /* \"#utility.yul\":36161:36292   */\n      tag_527\n      jump\t// in\n    tag_872:\n        /* \"#utility.yul\":36153:36292   */\n      swap1\n      pop\n        /* \"#utility.yul\":35880:36299   */\n      swap2\n      swap1\n      pop\n      jump\t// out\n        /* \"#utility.yul\":36305:36484   */\n    tag_528:\n        /* \"#utility.yul\":36445:36476   */\n      0x596f752063616e27742066756e6420616674657220646561646c696e65000000\n        /* \"#utility.yul\":36441:36442   */\n      0x00\n        /* \"#utility.yul\":36433:36439   */\n      dup3\n        /* \"#utility.yul\":36429:36443   */\n      add\n        /* \"#utility.yul\":36422:36477   */\n      mstore\n        /* \"#utility.yul\":36305:36484   */\n      pop\n      jump\t// out\n        /* \"#utility.yul\":36490:36856   */\n    tag_529:\n        /* \"#utility.yul\":36632:36635   */\n      0x00\n        /* \"#utility.yul\":36653:36720   */\n      tag_875\n        /* \"#utility.yul\":36717:36719   */\n      0x1d\n        /* \"#utility.yul\":36712:36715   */\n      dup4\n        /* \"#utility.yul\":36653:36720   */\n      tag_447\n      jump\t// in\n    tag_875:\n        /* \"#utility.yul\":36646:36720   */\n      swap2\n      pop\n        /* \"#utility.yul\":36729:36822   */\n      tag_876\n        /* \"#utility.yul\":36818:36821   */\n      dup3\n        /* \"#utility.yul\":36729:36822   */\n      tag_528\n      jump\t// in\n    tag_876:\n        /* \"#utility.yul\":36847:36849   */\n      0x20\n        /* \"#utility.yul\":36842:36845   */\n      dup3\n        /* \"#utility.yul\":36838:36850   */\n      add\n        /* \"#utility.yul\":36831:36850   */\n      swap1\n      pop\n        /* \"#utility.yul\":36490:36856   */\n      swap2\n      swap1\n      pop\n      jump\t// out\n        /* \"#utility.yul\":36862:37281   */\n    tag_156:\n        /* \"#utility.yul\":37028:37032   */\n      0x00\n        /* \"#utility.yul\":37066:37068   */\n      0x20\n        /* \"#utility.yul\":37055:37064   */\n      dup3\n        /* \"#utility.yul\":37051:37069   */\n      add\n        /* \"#utility.yul\":37043:37069   */\n      swap1\n      pop\n        /* \"#utility.yul\":37115:37124   */\n      dup2\n        /* \"#utility.yul\":37109:37113   */\n      dup2\n        /* \"#utility.yul\":37105:37125   */\n      sub\n        /* \"#utility.yul\":37101:37102   */\n      0x00\n        /* \"#utility.yul\":37090:37099   */\n      dup4\n        /* \"#utility.yul\":37086:37103   */\n      add\n        /* \"#utility.yul\":37079:37126   */\n      mstore\n        /* \"#utility.yul\":37143:37274   */\n      tag_878\n        /* \"#utility.yul\":37269:37273   */\n      dup2\n        /* \"#utility.yul\":37143:37274   */\n      tag_529\n      jump\t// in\n    tag_878:\n        /* \"#utility.yul\":37135:37274   */\n      swap1\n      pop\n        /* \"#utility.yul\":36862:37281   */\n      swap2\n      swap1\n      pop\n      jump\t// out\n        /* \"#utility.yul\":37287:37478   */\n    tag_160:\n        /* \"#utility.yul\":37327:37330   */\n      0x00\n        /* \"#utility.yul\":37346:37366   */\n      tag_880\n        /* \"#utility.yul\":37364:37365   */\n      dup3\n        /* \"#utility.yul\":37346:37366   */\n      tag_443\n      jump\t// in\n    tag_880:\n        /* \"#utility.yul\":37341:37366   */\n      swap2\n      pop\n        /* \"#utility.yul\":37380:37400   */\n      tag_881\n        /* \"#utility.yul\":37398:37399   */\n      dup4\n        /* \"#utility.yul\":37380:37400   */\n      tag_443\n      jump\t// in\n    tag_881:\n        /* \"#utility.yul\":37375:37400   */\n      swap3\n      pop\n        /* \"#utility.yul\":37423:37424   */\n      dup3\n        /* \"#utility.yul\":37420:37421   */\n      dup3\n        /* \"#utility.yul\":37416:37425   */\n      add\n        /* \"#utility.yul\":37409:37425   */\n      swap1\n      pop\n        /* \"#utility.yul\":37444:37447   */\n      dup1\n        /* \"#utility.yul\":37441:37442   */\n      dup3\n        /* \"#utility.yul\":37438:37448   */\n      gt\n        /* \"#utility.yul\":37435:37471   */\n      iszero\n      tag_882\n      jumpi\n        /* \"#utility.yul\":37451:37469   */\n      tag_883\n      tag_513\n      jump\t// in\n    tag_883:\n        /* \"#utility.yul\":37435:37471   */\n    tag_882:\n        /* \"#utility.yul\":37287:37478   */\n      swap3\n      swap2\n      pop\n      pop\n      jump\t// out\n        /* \"#utility.yul\":37484:37631   */\n    tag_530:\n        /* \"#utility.yul\":37585:37596   */\n      0x00\n        /* \"#utility.yul\":37622:37625   */\n      dup2\n        /* \"#utility.yul\":37607:37625   */\n      swap1\n      pop\n        /* \"#utility.yul\":37484:37631   */\n      swap3\n      swap2\n      pop\n      pop\n      jump\t// out\n        /* \"#utility.yul\":37637:37751   */\n    tag_531:\n      pop\n      jump\t// out\n        /* \"#utility.yul\":37757:38155   */\n    tag_532:\n        /* \"#utility.yul\":37916:37919   */\n      0x00\n        /* \"#utility.yul\":37937:38020   */\n      tag_887\n        /* \"#utility.yul\":38018:38019   */\n      0x00\n        /* \"#utility.yul\":38013:38016   */\n      dup4\n        /* \"#utility.yul\":37937:38020   */\n      tag_530\n      jump\t// in\n    tag_887:\n        /* \"#utility.yul\":37930:38020   */\n      swap2\n      pop\n        /* \"#utility.yul\":38029:38122   */\n      tag_888\n        /* \"#utility.yul\":38118:38121   */\n      dup3\n        /* \"#utility.yul\":38029:38122   */\n      tag_531\n      jump\t// in\n    tag_888:\n        /* \"#utility.yul\":38147:38148   */\n      0x00\n        /* \"#utility.yul\":38142:38145   */\n      dup3\n        /* \"#utility.yul\":38138:38149   */\n      add\n        /* \"#utility.yul\":38131:38149   */\n      swap1\n      pop\n        /* \"#utility.yul\":37757:38155   */\n      swap2\n      swap1\n      pop\n      jump\t// out\n        /* \"#utility.yul\":38161:38540   */\n    tag_170:\n        /* \"#utility.yul\":38345:38348   */\n      0x00\n        /* \"#utility.yul\":38367:38514   */\n      tag_890\n        /* \"#utility.yul\":38510:38513   */\n      dup3\n        /* \"#utility.yul\":38367:38514   */\n      tag_532\n      jump\t// in\n    tag_890:\n        /* \"#utility.yul\":38360:38514   */\n      swap2\n      pop\n        /* \"#utility.yul\":38531:38534   */\n      dup2\n        /* \"#utility.yul\":38524:38534   */\n      swap1\n      pop\n        /* \"#utility.yul\":38161:38540   */\n      swap2\n      swap1\n      pop\n      jump\t// out\n        /* \"#utility.yul\":38546:38720   */\n    tag_533:\n        /* \"#utility.yul\":38686:38712   */\n      0x4661696c656420746f2072657475726e20737572706c75730000000000000000\n        /* \"#utility.yul\":38682:38683   */\n      0x00\n        /* \"#utility.yul\":38674:38680   */\n      dup3\n        /* \"#utility.yul\":38670:38684   */\n      add\n        /* \"#utility.yul\":38663:38713   */\n      mstore\n        /* \"#utility.yul\":38546:38720   */\n      pop\n      jump\t// out\n        /* \"#utility.yul\":38726:39092   */\n    tag_534:\n        /* \"#utility.yul\":38868:38871   */\n      0x00\n        /* \"#utility.yul\":38889:38956   */\n      tag_893\n        /* \"#utility.yul\":38953:38955   */\n      0x18\n        /* \"#utility.yul\":38948:38951   */\n      dup4\n        /* \"#utility.yul\":38889:38956   */\n      tag_447\n      jump\t// in\n    tag_893:\n        /* \"#utility.yul\":38882:38956   */\n      swap2\n      pop\n        /* \"#utility.yul\":38965:39058   */\n      tag_894\n        /* \"#utility.yul\":39054:39057   */\n      dup3\n        /* \"#utility.yul\":38965:39058   */\n      tag_533\n      jump\t// in\n    tag_894:\n        /* \"#utility.yul\":39083:39085   */\n      0x20\n        /* \"#utility.yul\":39078:39081   */\n      dup3\n        /* \"#utility.yul\":39074:39086   */\n      add\n        /* \"#utility.yul\":39067:39086   */\n      swap1\n      pop\n        /* \"#utility.yul\":38726:39092   */\n      swap2\n      swap1\n      pop\n      jump\t// out\n        /* \"#utility.yul\":39098:39517   */\n    tag_176:\n        /* \"#utility.yul\":39264:39268   */\n      0x00\n        /* \"#utility.yul\":39302:39304   */\n      0x20\n        /* \"#utility.yul\":39291:39300   */\n      dup3\n        /* \"#utility.yul\":39287:39305   */\n      add\n        /* \"#utility.yul\":39279:39305   */\n      swap1\n      pop\n        /* \"#utility.yul\":39351:39360   */\n      dup2\n        /* \"#utility.yul\":39345:39349   */\n      dup2\n        /* \"#utility.yul\":39341:39361   */\n      sub\n        /* \"#utility.yul\":39337:39338   */\n      0x00\n        /* \"#utility.yul\":39326:39335   */\n      dup4\n        /* \"#utility.yul\":39322:39339   */\n      add\n        /* \"#utility.yul\":39315:39362   */\n      mstore\n        /* \"#utility.yul\":39379:39510   */\n      tag_896\n        /* \"#utility.yul\":39505:39509   */\n      dup2\n        /* \"#utility.yul\":39379:39510   */\n      tag_534\n      jump\t// in\n    tag_896:\n        /* \"#utility.yul\":39371:39510   */\n      swap1\n      pop\n        /* \"#utility.yul\":39098:39517   */\n      swap2\n      swap1\n      pop\n      jump\t// out\n        /* \"#utility.yul\":39523:39762   */\n    tag_535:\n        /* \"#utility.yul\":39663:39697   */\n      0x4f6e6c792073797374656d206f776e6572206f722070726f6a656374206f776e\n        /* \"#utility.yul\":39659:39660   */\n      0x00\n        /* \"#utility.yul\":39651:39657   */\n      dup3\n        /* \"#utility.yul\":39647:39661   */\n      add\n        /* \"#utility.yul\":39640:39698   */\n      mstore\n        /* \"#utility.yul\":39732:39754   */\n      0x65722063616e2073746f702070726f6a65637473000000000000000000000000\n        /* \"#utility.yul\":39727:39729   */\n      0x20\n        /* \"#utility.yul\":39719:39725   */\n      dup3\n        /* \"#utility.yul\":39715:39730   */\n      add\n        /* \"#utility.yul\":39708:39755   */\n      mstore\n        /* \"#utility.yul\":39523:39762   */\n      pop\n      jump\t// out\n        /* \"#utility.yul\":39768:40134   */\n    tag_536:\n        /* \"#utility.yul\":39910:39913   */\n      0x00\n        /* \"#utility.yul\":39931:39998   */\n      tag_899\n        /* \"#utility.yul\":39995:39997   */\n      0x34\n        /* \"#utility.yul\":39990:39993   */\n      dup4\n        /* \"#utility.yul\":39931:39998   */\n      tag_447\n      jump\t// in\n    tag_899:\n        /* \"#utility.yul\":39924:39998   */\n      swap2\n      pop\n        /* \"#utility.yul\":40007:40100   */\n      tag_900\n        /* \"#utility.yul\":40096:40099   */\n      dup3\n        /* \"#utility.yul\":40007:40100   */\n      tag_535\n      jump\t// in\n    tag_900:\n        /* \"#utility.yul\":40125:40127   */\n      0x40\n        /* \"#utility.yul\":40120:40123   */\n      dup3\n        /* \"#utility.yul\":40116:40128   */\n      add\n        /* \"#utility.yul\":40109:40128   */\n      swap1\n      pop\n        /* \"#utility.yul\":39768:40134   */\n      swap2\n      swap1\n      pop\n      jump\t// out\n        /* \"#utility.yul\":40140:40559   */\n    tag_195:\n        /* \"#utility.yul\":40306:40310   */\n      0x00\n        /* \"#utility.yul\":40344:40346   */\n      0x20\n        /* \"#utility.yul\":40333:40342   */\n      dup3\n        /* \"#utility.yul\":40329:40347   */\n      add\n        /* \"#utility.yul\":40321:40347   */\n      swap1\n      pop\n        /* \"#utility.yul\":40393:40402   */\n      dup2\n        /* \"#utility.yul\":40387:40391   */\n      dup2\n        /* \"#utility.yul\":40383:40403   */\n      sub\n        /* \"#utility.yul\":40379:40380   */\n      0x00\n        /* \"#utility.yul\":40368:40377   */\n      dup4\n        /* \"#utility.yul\":40364:40381   */\n      add\n        /* \"#utility.yul\":40357:40404   */\n      mstore\n        /* \"#utility.yul\":40421:40552   */\n      tag_902\n        /* \"#utility.yul\":40547:40551   */\n      dup2\n        /* \"#utility.yul\":40421:40552   */\n      tag_536\n      jump\t// in\n    tag_902:\n        /* \"#utility.yul\":40413:40552   */\n      swap1\n      pop\n        /* \"#utility.yul\":40140:40559   */\n      swap2\n      swap1\n      pop\n      jump\t// out\n        /* \"#utility.yul\":40565:40789   */\n    tag_537:\n        /* \"#utility.yul\":40705:40739   */\n      0x4f6e6c79207379734f776e65722063616e20646561637469766174652070726f\n        /* \"#utility.yul\":40701:40702   */\n      0x00\n        /* \"#utility.yul\":40693:40699   */\n      dup3\n        /* \"#utility.yul\":40689:40703   */\n      add\n        /* \"#utility.yul\":40682:40740   */\n      mstore\n        /* \"#utility.yul\":40774:40781   */\n      0x6a65637473000000000000000000000000000000000000000000000000000000\n        /* \"#utility.yul\":40769:40771   */\n      0x20\n        /* \"#utility.yul\":40761:40767   */\n      dup3\n        /* \"#utility.yul\":40757:40772   */\n      add\n        /* \"#utility.yul\":40750:40782   */\n      mstore\n        /* \"#utility.yul\":40565:40789   */\n      pop\n      jump\t// out\n        /* \"#utility.yul\":40795:41161   */\n    tag_538:\n        /* \"#utility.yul\":40937:40940   */\n      0x00\n        /* \"#utility.yul\":40958:41025   */\n      tag_905\n        /* \"#utility.yul\":41022:41024   */\n      0x25\n        /* \"#utility.yul\":41017:41020   */\n      dup4\n        /* \"#utility.yul\":40958:41025   */\n      tag_447\n      jump\t// in\n    tag_905:\n        /* \"#utility.yul\":40951:41025   */\n      swap2\n      pop\n        /* \"#utility.yul\":41034:41127   */\n      tag_906\n        /* \"#utility.yul\":41123:41126   */\n      dup3\n        /* \"#utility.yul\":41034:41127   */\n      tag_537\n      jump\t// in\n    tag_906:\n        /* \"#utility.yul\":41152:41154   */\n      0x40\n        /* \"#utility.yul\":41147:41150   */\n      dup3\n        /* \"#utility.yul\":41143:41155   */\n      add\n        /* \"#utility.yul\":41136:41155   */\n      swap1\n      pop\n        /* \"#utility.yul\":40795:41161   */\n      swap2\n      swap1\n      pop\n      jump\t// out\n        /* \"#utility.yul\":41167:41586   */\n    tag_201:\n        /* \"#utility.yul\":41333:41337   */\n      0x00\n        /* \"#utility.yul\":41371:41373   */\n      0x20\n        /* \"#utility.yul\":41360:41369   */\n      dup3\n        /* \"#utility.yul\":41356:41374   */\n      add\n        /* \"#utility.yul\":41348:41374   */\n      swap1\n      pop\n        /* \"#utility.yul\":41420:41429   */\n      dup2\n        /* \"#utility.yul\":41414:41418   */\n      dup2\n        /* \"#utility.yul\":41410:41430   */\n      sub\n        /* \"#utility.yul\":41406:41407   */\n      0x00\n        /* \"#utility.yul\":41395:41404   */\n      dup4\n        /* \"#utility.yul\":41391:41408   */\n      add\n        /* \"#utility.yul\":41384:41431   */\n      mstore\n        /* \"#utility.yul\":41448:41579   */\n      tag_908\n        /* \"#utility.yul\":41574:41578   */\n      dup2\n        /* \"#utility.yul\":41448:41579   */\n      tag_538\n      jump\t// in\n    tag_908:\n        /* \"#utility.yul\":41440:41579   */\n      swap1\n      pop\n        /* \"#utility.yul\":41167:41586   */\n      swap2\n      swap1\n      pop\n      jump\t// out\n        /* \"#utility.yul\":41592:41824   */\n    tag_539:\n        /* \"#utility.yul\":41732:41766   */\n      0x43616e6e6f7420616464206e6577206d696c6573746f6e657320746f20696e61\n        /* \"#utility.yul\":41728:41729   */\n      0x00\n        /* \"#utility.yul\":41720:41726   */\n      dup3\n        /* \"#utility.yul\":41716:41730   */\n      add\n        /* \"#utility.yul\":41709:41767   */\n      mstore\n        /* \"#utility.yul\":41801:41816   */\n      0x63746976652070726f6a65637400000000000000000000000000000000000000\n        /* \"#utility.yul\":41796:41798   */\n      0x20\n        /* \"#utility.yul\":41788:41794   */\n      dup3\n        /* \"#utility.yul\":41784:41799   */\n      add\n        /* \"#utility.yul\":41777:41817   */\n      mstore\n        /* \"#utility.yul\":41592:41824   */\n      pop\n      jump\t// out\n        /* \"#utility.yul\":41830:42196   */\n    tag_540:\n        /* \"#utility.yul\":41972:41975   */\n      0x00\n        /* \"#utility.yul\":41993:42060   */\n      tag_911\n        /* \"#utility.yul\":42057:42059   */\n      0x2d\n        /* \"#utility.yul\":42052:42055   */\n      dup4\n        /* \"#utility.yul\":41993:42060   */\n      tag_447\n      jump\t// in\n    tag_911:\n        /* \"#utility.yul\":41986:42060   */\n      swap2\n      pop\n        /* \"#utility.yul\":42069:42162   */\n      tag_912\n        /* \"#utility.yul\":42158:42161   */\n      dup3\n        /* \"#utility.yul\":42069:42162   */\n      tag_539\n      jump\t// in\n    tag_912:\n        /* \"#utility.yul\":42187:42189   */\n      0x40\n        /* \"#utility.yul\":42182:42185   */\n      dup3\n        /* \"#utility.yul\":42178:42190   */\n      add\n        /* \"#utility.yul\":42171:42190   */\n      swap1\n      pop\n        /* \"#utility.yul\":41830:42196   */\n      swap2\n      swap1\n      pop\n      jump\t// out\n        /* \"#utility.yul\":42202:42621   */\n    tag_222:\n        /* \"#utility.yul\":42368:42372   */\n      0x00\n        /* \"#utility.yul\":42406:42408   */\n      0x20\n        /* \"#utility.yul\":42395:42404   */\n      dup3\n        /* \"#utility.yul\":42391:42409   */\n      add\n        /* \"#utility.yul\":42383:42409   */\n      swap1\n      pop\n        /* \"#utility.yul\":42455:42464   */\n      dup2\n        /* \"#utility.yul\":42449:42453   */\n      dup2\n        /* \"#utility.yul\":42445:42465   */\n      sub\n        /* \"#utility.yul\":42441:42442   */\n      0x00\n        /* \"#utility.yul\":42430:42439   */\n      dup4\n        /* \"#utility.yul\":42426:42443   */\n      add\n        /* \"#utility.yul\":42419:42466   */\n      mstore\n        /* \"#utility.yul\":42483:42614   */\n      tag_914\n        /* \"#utility.yul\":42609:42613   */\n      dup2\n        /* \"#utility.yul\":42483:42614   */\n      tag_540\n      jump\t// in\n    tag_914:\n        /* \"#utility.yul\":42475:42614   */\n      swap1\n      pop\n        /* \"#utility.yul\":42202:42621   */\n      swap2\n      swap1\n      pop\n      jump\t// out\n        /* \"#utility.yul\":42627:42857   */\n    tag_541:\n        /* \"#utility.yul\":42767:42801   */\n      0x4f6e6c792070726f6a6563742063726561746f722063616e20616464206e6577\n        /* \"#utility.yul\":42763:42764   */\n      0x00\n        /* \"#utility.yul\":42755:42761   */\n      dup3\n        /* \"#utility.yul\":42751:42765   */\n      add\n        /* \"#utility.yul\":42744:42802   */\n      mstore\n        /* \"#utility.yul\":42836:42849   */\n      0x206d696c6573746f6e6573000000000000000000000000000000000000000000\n        /* \"#utility.yul\":42831:42833   */\n      0x20\n        /* \"#utility.yul\":42823:42829   */\n      dup3\n        /* \"#utility.yul\":42819:42834   */\n      add\n        /* \"#utility.yul\":42812:42850   */\n      mstore\n        /* \"#utility.yul\":42627:42857   */\n      pop\n      jump\t// out\n        /* \"#utility.yul\":42863:43229   */\n    tag_542:\n        /* \"#utility.yul\":43005:43008   */\n      0x00\n        /* \"#utility.yul\":43026:43093   */\n      tag_917\n        /* \"#utility.yul\":43090:43092   */\n      0x2b\n        /* \"#utility.yul\":43085:43088   */\n      dup4\n        /* \"#utility.yul\":43026:43093   */\n      tag_447\n      jump\t// in\n    tag_917:\n        /* \"#utility.yul\":43019:43093   */\n      swap2\n      pop\n        /* \"#utility.yul\":43102:43195   */\n      tag_918\n        /* \"#utility.yul\":43191:43194   */\n      dup3\n        /* \"#utility.yul\":43102:43195   */\n      tag_541\n      jump\t// in\n    tag_918:\n        /* \"#utility.yul\":43220:43222   */\n      0x40\n        /* \"#utility.yul\":43215:43218   */\n      dup3\n        /* \"#utility.yul\":43211:43223   */\n      add\n        /* \"#utility.yul\":43204:43223   */\n      swap1\n      pop\n        /* \"#utility.yul\":42863:43229   */\n      swap2\n      swap1\n      pop\n      jump\t// out\n        /* \"#utility.yul\":43235:43654   */\n    tag_225:\n        /* \"#utility.yul\":43401:43405   */\n      0x00\n        /* \"#utility.yul\":43439:43441   */\n      0x20\n        /* \"#utility.yul\":43428:43437   */\n      dup3\n        /* \"#utility.yul\":43424:43442   */\n      add\n        /* \"#utility.yul\":43416:43442   */\n      swap1\n      pop\n        /* \"#utility.yul\":43488:43497   */\n      dup2\n        /* \"#utility.yul\":43482:43486   */\n      dup2\n        /* \"#utility.yul\":43478:43498   */\n      sub\n        /* \"#utility.yul\":43474:43475   */\n      0x00\n        /* \"#utility.yul\":43463:43472   */\n      dup4\n        /* \"#utility.yul\":43459:43476   */\n      add\n        /* \"#utility.yul\":43452:43499   */\n      mstore\n        /* \"#utility.yul\":43516:43647   */\n      tag_920\n        /* \"#utility.yul\":43642:43646   */\n      dup2\n        /* \"#utility.yul\":43516:43647   */\n      tag_542\n      jump\t// in\n    tag_920:\n        /* \"#utility.yul\":43508:43647   */\n      swap1\n      pop\n        /* \"#utility.yul\":43235:43654   */\n      swap2\n      swap1\n      pop\n      jump\t// out\n        /* \"#utility.yul\":43660:43842   */\n    tag_543:\n        /* \"#utility.yul\":43800:43834   */\n      0x4d7573742068617665206174206c65617374206f6e65206d696c6573746f6e65\n        /* \"#utility.yul\":43796:43797   */\n      0x00\n        /* \"#utility.yul\":43788:43794   */\n      dup3\n        /* \"#utility.yul\":43784:43798   */\n      add\n        /* \"#utility.yul\":43777:43835   */\n      mstore\n        /* \"#utility.yul\":43660:43842   */\n      pop\n      jump\t// out\n        /* \"#utility.yul\":43848:44214   */\n    tag_544:\n        /* \"#utility.yul\":43990:43993   */\n      0x00\n        /* \"#utility.yul\":44011:44078   */\n      tag_923\n        /* \"#utility.yul\":44075:44077   */\n      0x20\n        /* \"#utility.yul\":44070:44073   */\n      dup4\n        /* \"#utility.yul\":44011:44078   */\n      tag_447\n      jump\t// in\n    tag_923:\n        /* \"#utility.yul\":44004:44078   */\n      swap2\n      pop\n        /* \"#utility.yul\":44087:44180   */\n      tag_924\n        /* \"#utility.yul\":44176:44179   */\n      dup3\n        /* \"#utility.yul\":44087:44180   */\n      tag_543\n      jump\t// in\n    tag_924:\n        /* \"#utility.yul\":44205:44207   */\n      0x20\n        /* \"#utility.yul\":44200:44203   */\n      dup3\n        /* \"#utility.yul\":44196:44208   */\n      add\n        /* \"#utility.yul\":44189:44208   */\n      swap1\n      pop\n        /* \"#utility.yul\":43848:44214   */\n      swap2\n      swap1\n      pop\n      jump\t// out\n        /* \"#utility.yul\":44220:44639   */\n    tag_228:\n        /* \"#utility.yul\":44386:44390   */\n      0x00\n        /* \"#utility.yul\":44424:44426   */\n      0x20\n        /* \"#utility.yul\":44413:44422   */\n      dup3\n        /* \"#utility.yul\":44409:44427   */\n      add\n        /* \"#utility.yul\":44401:44427   */\n      swap1\n      pop\n        /* \"#utility.yul\":44473:44482   */\n      dup2\n        /* \"#utility.yul\":44467:44471   */\n      dup2\n        /* \"#utility.yul\":44463:44483   */\n      sub\n        /* \"#utility.yul\":44459:44460   */\n      0x00\n        /* \"#utility.yul\":44448:44457   */\n      dup4\n        /* \"#utility.yul\":44444:44461   */\n      add\n        /* \"#utility.yul\":44437:44484   */\n      mstore\n        /* \"#utility.yul\":44501:44632   */\n      tag_926\n        /* \"#utility.yul\":44627:44631   */\n      dup2\n        /* \"#utility.yul\":44501:44632   */\n      tag_544\n      jump\t// in\n    tag_926:\n        /* \"#utility.yul\":44493:44632   */\n      swap1\n      pop\n        /* \"#utility.yul\":44220:44639   */\n      swap2\n      swap1\n      pop\n      jump\t// out\n        /* \"#utility.yul\":44645:44817   */\n    tag_545:\n        /* \"#utility.yul\":44785:44809   */\n      0x476f616c20616d6f756e742063616e2774206265203000000000000000000000\n        /* \"#utility.yul\":44781:44782   */\n      0x00\n        /* \"#utility.yul\":44773:44779   */\n      dup3\n        /* \"#utility.yul\":44769:44783   */\n      add\n        /* \"#utility.yul\":44762:44810   */\n      mstore\n        /* \"#utility.yul\":44645:44817   */\n      pop\n      jump\t// out\n        /* \"#utility.yul\":44823:45189   */\n    tag_546:\n        /* \"#utility.yul\":44965:44968   */\n      0x00\n        /* \"#utility.yul\":44986:45053   */\n      tag_929\n        /* \"#utility.yul\":45050:45052   */\n      0x16\n        /* \"#utility.yul\":45045:45048   */\n      dup4\n        /* \"#utility.yul\":44986:45053   */\n      tag_447\n      jump\t// in\n    tag_929:\n        /* \"#utility.yul\":44979:45053   */\n      swap2\n      pop\n        /* \"#utility.yul\":45062:45155   */\n      tag_930\n        /* \"#utility.yul\":45151:45154   */\n      dup3\n        /* \"#utility.yul\":45062:45155   */\n      tag_545\n      jump\t// in\n    tag_930:\n        /* \"#utility.yul\":45180:45182   */\n      0x20\n        /* \"#utility.yul\":45175:45178   */\n      dup3\n        /* \"#utility.yul\":45171:45183   */\n      add\n        /* \"#utility.yul\":45164:45183   */\n      swap1\n      pop\n        /* \"#utility.yul\":44823:45189   */\n      swap2\n      swap1\n      pop\n      jump\t// out\n        /* \"#utility.yul\":45195:45614   */\n    tag_236:\n        /* \"#utility.yul\":45361:45365   */\n      0x00\n        /* \"#utility.yul\":45399:45401   */\n      0x20\n        /* \"#utility.yul\":45388:45397   */\n      dup3\n        /* \"#utility.yul\":45384:45402   */\n      add\n        /* \"#utility.yul\":45376:45402   */\n      swap1\n      pop\n        /* \"#utility.yul\":45448:45457   */\n      dup2\n        /* \"#utility.yul\":45442:45446   */\n      dup2\n        /* \"#utility.yul\":45438:45458   */\n      sub\n        /* \"#utility.yul\":45434:45435   */\n      0x00\n        /* \"#utility.yul\":45423:45432   */\n      dup4\n        /* \"#utility.yul\":45419:45436   */\n      add\n        /* \"#utility.yul\":45412:45459   */\n      mstore\n        /* \"#utility.yul\":45476:45607   */\n      tag_932\n        /* \"#utility.yul\":45602:45606   */\n      dup2\n        /* \"#utility.yul\":45476:45607   */\n      tag_546\n      jump\t// in\n    tag_932:\n        /* \"#utility.yul\":45468:45607   */\n      swap1\n      pop\n        /* \"#utility.yul\":45195:45614   */\n      swap2\n      swap1\n      pop\n      jump\t// out\n        /* \"#utility.yul\":45620:45799   */\n    tag_547:\n        /* \"#utility.yul\":45760:45791   */\n      0x446561646c696e652063616e277420626520696e207468652070617374000000\n        /* \"#utility.yul\":45756:45757   */\n      0x00\n        /* \"#utility.yul\":45748:45754   */\n      dup3\n        /* \"#utility.yul\":45744:45758   */\n      add\n        /* \"#utility.yul\":45737:45792   */\n      mstore\n        /* \"#utility.yul\":45620:45799   */\n      pop\n      jump\t// out\n        /* \"#utility.yul\":45805:46171   */\n    tag_548:\n        /* \"#utility.yul\":45947:45950   */\n      0x00\n        /* \"#utility.yul\":45968:46035   */\n      tag_935\n        /* \"#utility.yul\":46032:46034   */\n      0x1d\n        /* \"#utility.yul\":46027:46030   */\n      dup4\n        /* \"#utility.yul\":45968:46035   */\n      tag_447\n      jump\t// in\n    tag_935:\n        /* \"#utility.yul\":45961:46035   */\n      swap2\n      pop\n        /* \"#utility.yul\":46044:46137   */\n      tag_936\n        /* \"#utility.yul\":46133:46136   */\n      dup3\n        /* \"#utility.yul\":46044:46137   */\n      tag_547\n      jump\t// in\n    tag_936:\n        /* \"#utility.yul\":46162:46164   */\n      0x20\n        /* \"#utility.yul\":46157:46160   */\n      dup3\n        /* \"#utility.yul\":46153:46165   */\n      add\n        /* \"#utility.yul\":46146:46165   */\n      swap1\n      pop\n        /* \"#utility.yul\":45805:46171   */\n      swap2\n      swap1\n      pop\n      jump\t// out\n        /* \"#utility.yul\":46177:46596   */\n    tag_241:\n        /* \"#utility.yul\":46343:46347   */\n      0x00\n        /* \"#utility.yul\":46381:46383   */\n      0x20\n        /* \"#utility.yul\":46370:46379   */\n      dup3\n        /* \"#utility.yul\":46366:46384   */\n      add\n        /* \"#utility.yul\":46358:46384   */\n      swap1\n      pop\n        /* \"#utility.yul\":46430:46439   */\n      dup2\n        /* \"#utility.yul\":46424:46428   */\n      dup2\n        /* \"#utility.yul\":46420:46440   */\n      sub\n        /* \"#utility.yul\":46416:46417   */\n      0x00\n        /* \"#utility.yul\":46405:46414   */\n      dup4\n        /* \"#utility.yul\":46401:46418   */\n      add\n        /* \"#utility.yul\":46394:46441   */\n      mstore\n        /* \"#utility.yul\":46458:46589   */\n      tag_938\n        /* \"#utility.yul\":46584:46588   */\n      dup2\n        /* \"#utility.yul\":46458:46589   */\n      tag_548\n      jump\t// in\n    tag_938:\n        /* \"#utility.yul\":46450:46589   */\n      swap1\n      pop\n        /* \"#utility.yul\":46177:46596   */\n      swap2\n      swap1\n      pop\n      jump\t// out\n        /* \"#utility.yul\":46602:46825   */\n    tag_549:\n        /* \"#utility.yul\":46742:46776   */\n      0x4d696c6573746f6e6520676f616c732073686f756c6420626520696e63726561\n        /* \"#utility.yul\":46738:46739   */\n      0x00\n        /* \"#utility.yul\":46730:46736   */\n      dup3\n        /* \"#utility.yul\":46726:46740   */\n      add\n        /* \"#utility.yul\":46719:46777   */\n      mstore\n        /* \"#utility.yul\":46811:46817   */\n      0x73696e6700000000000000000000000000000000000000000000000000000000\n        /* \"#utility.yul\":46806:46808   */\n      0x20\n        /* \"#utility.yul\":46798:46804   */\n      dup3\n        /* \"#utility.yul\":46794:46809   */\n      add\n        /* \"#utility.yul\":46787:46818   */\n      mstore\n        /* \"#utility.yul\":46602:46825   */\n      pop\n      jump\t// out\n        /* \"#utility.yul\":46831:47197   */\n    tag_550:\n        /* \"#utility.yul\":46973:46976   */\n      0x00\n        /* \"#utility.yul\":46994:47061   */\n      tag_941\n        /* \"#utility.yul\":47058:47060   */\n      0x24\n        /* \"#utility.yul\":47053:47056   */\n      dup4\n        /* \"#utility.yul\":46994:47061   */\n      tag_447\n      jump\t// in\n    tag_941:\n        /* \"#utility.yul\":46987:47061   */\n      swap2\n      pop\n        /* \"#utility.yul\":47070:47163   */\n      tag_942\n        /* \"#utility.yul\":47159:47162   */\n      dup3\n        /* \"#utility.yul\":47070:47163   */\n      tag_549\n      jump\t// in\n    tag_942:\n        /* \"#utility.yul\":47188:47190   */\n      0x40\n        /* \"#utility.yul\":47183:47186   */\n      dup3\n        /* \"#utility.yul\":47179:47191   */\n      add\n        /* \"#utility.yul\":47172:47191   */\n      swap1\n      pop\n        /* \"#utility.yul\":46831:47197   */\n      swap2\n      swap1\n      pop\n      jump\t// out\n        /* \"#utility.yul\":47203:47622   */\n    tag_250:\n        /* \"#utility.yul\":47369:47373   */\n      0x00\n        /* \"#utility.yul\":47407:47409   */\n      0x20\n        /* \"#utility.yul\":47396:47405   */\n      dup3\n        /* \"#utility.yul\":47392:47410   */\n      add\n        /* \"#utility.yul\":47384:47410   */\n      swap1\n      pop\n        /* \"#utility.yul\":47456:47465   */\n      dup2\n        /* \"#utility.yul\":47450:47454   */\n      dup2\n        /* \"#utility.yul\":47446:47466   */\n      sub\n        /* \"#utility.yul\":47442:47443   */\n      0x00\n        /* \"#utility.yul\":47431:47440   */\n      dup4\n        /* \"#utility.yul\":47427:47444   */\n      add\n        /* \"#utility.yul\":47420:47467   */\n      mstore\n        /* \"#utility.yul\":47484:47615   */\n      tag_944\n        /* \"#utility.yul\":47610:47614   */\n      dup2\n        /* \"#utility.yul\":47484:47615   */\n      tag_550\n      jump\t// in\n    tag_944:\n        /* \"#utility.yul\":47476:47615   */\n      swap1\n      pop\n        /* \"#utility.yul\":47203:47622   */\n      swap2\n      swap1\n      pop\n      jump\t// out\n        /* \"#utility.yul\":47628:47855   */\n    tag_551:\n        /* \"#utility.yul\":47768:47802   */\n      0x4d696c6573746f6e6520646561646c696e65732073686f756c6420626520696e\n        /* \"#utility.yul\":47764:47765   */\n      0x00\n        /* \"#utility.yul\":47756:47762   */\n      dup3\n        /* \"#utility.yul\":47752:47766   */\n      add\n        /* \"#utility.yul\":47745:47803   */\n      mstore\n        /* \"#utility.yul\":47837:47847   */\n      0x6372656173696e67000000000000000000000000000000000000000000000000\n        /* \"#utility.yul\":47832:47834   */\n      0x20\n        /* \"#utility.yul\":47824:47830   */\n      dup3\n        /* \"#utility.yul\":47820:47835   */\n      add\n        /* \"#utility.yul\":47813:47848   */\n      mstore\n        /* \"#utility.yul\":47628:47855   */\n      pop\n      jump\t// out\n        /* \"#utility.yul\":47861:48227   */\n    tag_552:\n        /* \"#utility.yul\":48003:48006   */\n      0x00\n        /* \"#utility.yul\":48024:48091   */\n      tag_947\n        /* \"#utility.yul\":48088:48090   */\n      0x28\n        /* \"#utility.yul\":48083:48086   */\n      dup4\n        /* \"#utility.yul\":48024:48091   */\n      tag_447\n      jump\t// in\n    tag_947:\n        /* \"#utility.yul\":48017:48091   */\n      swap2\n      pop\n        /* \"#utility.yul\":48100:48193   */\n      tag_948\n        /* \"#utility.yul\":48189:48192   */\n      dup3\n        /* \"#utility.yul\":48100:48193   */\n      tag_551\n      jump\t// in\n    tag_948:\n        /* \"#utility.yul\":48218:48220   */\n      0x40\n        /* \"#utility.yul\":48213:48216   */\n      dup3\n        /* \"#utility.yul\":48209:48221   */\n      add\n        /* \"#utility.yul\":48202:48221   */\n      swap1\n      pop\n        /* \"#utility.yul\":47861:48227   */\n      swap2\n      swap1\n      pop\n      jump\t// out\n        /* \"#utility.yul\":48233:48652   */\n    tag_258:\n        /* \"#utility.yul\":48399:48403   */\n      0x00\n        /* \"#utility.yul\":48437:48439   */\n      0x20\n        /* \"#utility.yul\":48426:48435   */\n      dup3\n        /* \"#utility.yul\":48422:48440   */\n      add\n        /* \"#utility.yul\":48414:48440   */\n      swap1\n      pop\n        /* \"#utility.yul\":48486:48495   */\n      dup2\n        /* \"#utility.yul\":48480:48484   */\n      dup2\n        /* \"#utility.yul\":48476:48496   */\n      sub\n        /* \"#utility.yul\":48472:48473   */\n      0x00\n        /* \"#utility.yul\":48461:48470   */\n      dup4\n        /* \"#utility.yul\":48457:48474   */\n      add\n        /* \"#utility.yul\":48450:48497   */\n      mstore\n        /* \"#utility.yul\":48514:48645   */\n      tag_950\n        /* \"#utility.yul\":48640:48644   */\n      dup2\n        /* \"#utility.yul\":48514:48645   */\n      tag_552\n      jump\t// in\n    tag_950:\n        /* \"#utility.yul\":48506:48645   */\n      swap1\n      pop\n        /* \"#utility.yul\":48233:48652   */\n      swap2\n      swap1\n      pop\n      jump\t// out\n        /* \"#utility.yul\":48658:48891   */\n    tag_321:\n        /* \"#utility.yul\":48697:48700   */\n      0x00\n        /* \"#utility.yul\":48720:48744   */\n      tag_952\n        /* \"#utility.yul\":48738:48743   */\n      dup3\n        /* \"#utility.yul\":48720:48744   */\n      tag_443\n      jump\t// in\n    tag_952:\n        /* \"#utility.yul\":48711:48744   */\n      swap2\n      pop\n        /* \"#utility.yul\":48766:48832   */\n      0xffffffffffffffffffffffffffffffffffffffffffffffffffffffffffffffff\n        /* \"#utility.yul\":48759:48764   */\n      dup3\n        /* \"#utility.yul\":48756:48833   */\n      sub\n        /* \"#utility.yul\":48753:48856   */\n      tag_953\n      jumpi\n        /* \"#utility.yul\":48836:48854   */\n      tag_954\n      tag_513\n      jump\t// in\n    tag_954:\n        /* \"#utility.yul\":48753:48856   */\n    tag_953:\n        /* \"#utility.yul\":48883:48884   */\n      0x01\n        /* \"#utility.yul\":48876:48881   */\n      dup3\n        /* \"#utility.yul\":48872:48885   */\n      add\n        /* \"#utility.yul\":48865:48885   */\n      swap1\n      pop\n        /* \"#utility.yul\":48658:48891   */\n      swap2\n      swap1\n      pop\n      jump\t// out\n        /* \"#utility.yul\":48897:49075   */\n    tag_553:\n        /* \"#utility.yul\":49037:49067   */\n      0x43616e6e6f742073746f7020696e6163746976652070726f6a65637400000000\n        /* \"#utility.yul\":49033:49034   */\n      0x00\n        /* \"#utility.yul\":49025:49031   */\n      dup3\n        /* \"#utility.yul\":49021:49035   */\n      add\n        /* \"#utility.yul\":49014:49068   */\n      mstore\n        /* \"#utility.yul\":48897:49075   */\n      pop\n      jump\t// out\n        /* \"#utility.yul\":49081:49447   */\n    tag_554:\n        /* \"#utility.yul\":49223:49226   */\n      0x00\n        /* \"#utility.yul\":49244:49311   */\n      tag_957\n        /* \"#utility.yul\":49308:49310   */\n      0x1c\n        /* \"#utility.yul\":49303:49306   */\n      dup4\n        /* \"#utility.yul\":49244:49311   */\n      tag_447\n      jump\t// in\n    tag_957:\n        /* \"#utility.yul\":49237:49311   */\n      swap2\n      pop\n        /* \"#utility.yul\":49320:49413   */\n      tag_958\n        /* \"#utility.yul\":49409:49412   */\n      dup3\n        /* \"#utility.yul\":49320:49413   */\n      tag_553\n      jump\t// in\n    tag_958:\n        /* \"#utility.yul\":49438:49440   */\n      0x20\n        /* \"#utility.yul\":49433:49436   */\n      dup3\n        /* \"#utility.yul\":49429:49441   */\n      add\n        /* \"#utility.yul\":49422:49441   */\n      swap1\n      pop\n        /* \"#utility.yul\":49081:49447   */\n      swap2\n      swap1\n      pop\n      jump\t// out\n        /* \"#utility.yul\":49453:49872   */\n    tag_403:\n        /* \"#utility.yul\":49619:49623   */\n      0x00\n        /* \"#utility.yul\":49657:49659   */\n      0x20\n        /* \"#utility.yul\":49646:49655   */\n      dup3\n        /* \"#utility.yul\":49642:49660   */\n      add\n        /* \"#utility.yul\":49634:49660   */\n      swap1\n      pop\n        /* \"#utility.yul\":49706:49715   */\n      dup2\n        /* \"#utility.yul\":49700:49704   */\n      dup2\n        /* \"#utility.yul\":49696:49716   */\n      sub\n        /* \"#utility.yul\":49692:49693   */\n      0x00\n        /* \"#utility.yul\":49681:49690   */\n      dup4\n        /* \"#utility.yul\":49677:49694   */\n      add\n        /* \"#utility.yul\":49670:49717   */\n      mstore\n        /* \"#utility.yul\":49734:49865   */\n      tag_960\n        /* \"#utility.yul\":49860:49864   */\n      dup2\n        /* \"#utility.yul\":49734:49865   */\n      tag_554\n      jump\t// in\n    tag_960:\n        /* \"#utility.yul\":49726:49865   */\n      swap1\n      pop\n        /* \"#utility.yul\":49453:49872   */\n      swap2\n      swap1\n      pop\n      jump\t// out\n        /* \"#utility.yul\":49878:50054   */\n    tag_555:\n        /* \"#utility.yul\":50018:50046   */\n      0x5472616e7366657220746f2063726561746f72206661696c6564000000000000\n        /* \"#utility.yul\":50014:50015   */\n      0x00\n        /* \"#utility.yul\":50006:50012   */\n      dup3\n        /* \"#utility.yul\":50002:50016   */\n      add\n        /* \"#utility.yul\":49995:50047   */\n      mstore\n        /* \"#utility.yul\":49878:50054   */\n      pop\n      jump\t// out\n        /* \"#utility.yul\":50060:50426   */\n    tag_556:\n        /* \"#utility.yul\":50202:50205   */\n      0x00\n        /* \"#utility.yul\":50223:50290   */\n      tag_963\n        /* \"#utility.yul\":50287:50289   */\n      0x1a\n        /* \"#utility.yul\":50282:50285   */\n      dup4\n        /* \"#utility.yul\":50223:50290   */\n      tag_447\n      jump\t// in\n    tag_963:\n        /* \"#utility.yul\":50216:50290   */\n      swap2\n      pop\n        /* \"#utility.yul\":50299:50392   */\n      tag_964\n        /* \"#utility.yul\":50388:50391   */\n      dup3\n        /* \"#utility.yul\":50299:50392   */\n      tag_555\n      jump\t// in\n    tag_964:\n        /* \"#utility.yul\":50417:50419   */\n      0x20\n        /* \"#utility.yul\":50412:50415   */\n      dup3\n        /* \"#utility.yul\":50408:50420   */\n      add\n        /* \"#utility.yul\":50401:50420   */\n      swap1\n      pop\n        /* \"#utility.yul\":50060:50426   */\n      swap2\n      swap1\n      pop\n      jump\t// out\n        /* \"#utility.yul\":50432:50851   */\n    tag_413:\n        /* \"#utility.yul\":50598:50602   */\n      0x00\n        /* \"#utility.yul\":50636:50638   */\n      0x20\n        /* \"#utility.yul\":50625:50634   */\n      dup3\n        /* \"#utility.yul\":50621:50639   */\n      add\n        /* \"#utility.yul\":50613:50639   */\n      swap1\n      pop\n        /* \"#utility.yul\":50685:50694   */\n      dup2\n        /* \"#utility.yul\":50679:50683   */\n      dup2\n        /* \"#utility.yul\":50675:50695   */\n      sub\n        /* \"#utility.yul\":50671:50672   */\n      0x00\n        /* \"#utility.yul\":50660:50669   */\n      dup4\n        /* \"#utility.yul\":50656:50673   */\n      add\n        /* \"#utility.yul\":50649:50696   */\n      mstore\n        /* \"#utility.yul\":50713:50844   */\n      tag_966\n        /* \"#utility.yul\":50839:50843   */\n      dup2\n        /* \"#utility.yul\":50713:50844   */\n      tag_556\n      jump\t// in\n    tag_966:\n        /* \"#utility.yul\":50705:50844   */\n      swap1\n      pop\n        /* \"#utility.yul\":50432:50851   */\n      swap2\n      swap1\n      pop\n      jump\t// out\n        /* \"#utility.yul\":50857:51020   */\n    tag_557:\n        /* \"#utility.yul\":50997:51012   */\n      0x526566756e64206661696c656400000000000000000000000000000000000000\n        /* \"#utility.yul\":50993:50994   */\n      0x00\n        /* \"#utility.yul\":50985:50991   */\n      dup3\n        /* \"#utility.yul\":50981:50995   */\n      add\n        /* \"#utility.yul\":50974:51013   */\n      mstore\n        /* \"#utility.yul\":50857:51020   */\n      pop\n      jump\t// out\n        /* \"#utility.yul\":51026:51392   */\n    tag_558:\n        /* \"#utility.yul\":51168:51171   */\n      0x00\n        /* \"#utility.yul\":51189:51256   */\n      tag_969\n        /* \"#utility.yul\":51253:51255   */\n      0x0d\n        /* \"#utility.yul\":51248:51251   */\n      dup4\n        /* \"#utility.yul\":51189:51256   */\n      tag_447\n      jump\t// in\n    tag_969:\n        /* \"#utility.yul\":51182:51256   */\n      swap2\n      pop\n        /* \"#utility.yul\":51265:51358   */\n      tag_970\n        /* \"#utility.yul\":51354:51357   */\n      dup3\n        /* \"#utility.yul\":51265:51358   */\n      tag_557\n      jump\t// in\n    tag_970:\n        /* \"#utility.yul\":51383:51385   */\n      0x20\n        /* \"#utility.yul\":51378:51381   */\n      dup3\n        /* \"#utility.yul\":51374:51386   */\n      add\n        /* \"#utility.yul\":51367:51386   */\n      swap1\n      pop\n        /* \"#utility.yul\":51026:51392   */\n      swap2\n      swap1\n      pop\n      jump\t// out\n        /* \"#utility.yul\":51398:51817   */\n    tag_434:\n        /* \"#utility.yul\":51564:51568   */\n      0x00\n        /* \"#utility.yul\":51602:51604   */\n      0x20\n        /* \"#utility.yul\":51591:51600   */\n      dup3\n        /* \"#utility.yul\":51587:51605   */\n      add\n        /* \"#utility.yul\":51579:51605   */\n      swap1\n      pop\n        /* \"#utility.yul\":51651:51660   */\n      dup2\n        /* \"#utility.yul\":51645:51649   */\n      dup2\n        /* \"#utility.yul\":51641:51661   */\n      sub\n        /* \"#utility.yul\":51637:51638   */\n      0x00\n        /* \"#utility.yul\":51626:51635   */\n      dup4\n        /* \"#utility.yul\":51622:51639   */\n      add\n        /* \"#utility.yul\":51615:51662   */\n      mstore\n        /* \"#utility.yul\":51679:51810   */\n      tag_972\n        /* \"#utility.yul\":51805:51809   */\n      dup2\n        /* \"#utility.yul\":51679:51810   */\n      tag_558\n      jump\t// in\n    tag_972:\n        /* \"#utility.yul\":51671:51810   */\n      swap1\n      pop\n        /* \"#utility.yul\":51398:51817   */\n      swap2\n      swap1\n      pop\n      jump\t// out\n\n    auxdata: 0xa2646970667358221220b8fbe60425f41af8c0d58ec2b6f72cddd7247c96ca6228b8b22dc456aec6466d64736f6c634300081e0033\n}\n",
				"bytecode": {
					"linkReferences": {},
					"object": "6080604052348015600e575f5ffd5b50335f5f6101000a81548173ffffffffffffffffffffffffffffffffffffffff021916908373ffffffffffffffffffffffffffffffffffffffff160217905550613a878061005b5f395ff3fe6080604052600436106100a6575f3560e01c80636db7a960116100635780636db7a960146101be5780637808de38146101e6578063ae632181146101fc578063b99122af14610224578063d8a5b36d14610260578063f2ef441b1461029c576100a6565b80630e4877d6146100aa578063107046bd146100d45780631a86e67d1461011657806333ec0fc51461013e5780634e94e8241461017a5780636c563abe146101a2575b5f5ffd5b3480156100b5575f5ffd5b506100be6102c6565b6040516100cb91906122b5565b60405180910390f35b3480156100df575f5ffd5b506100fa60048036038101906100f59190612312565b6102ea565b60405161010d97969594939291906123d6565b60405180910390f35b348015610121575f5ffd5b5061013c60048036038101906101379190612699565b6104f4565b005b348015610149575f5ffd5b50610164600480360381019061015f9190612312565b6106af565b6040516101719190612824565b60405180910390f35b348015610185575f5ffd5b506101a0600480360381019061019b9190612312565b61078c565b005b6101bc60048036038101906101b79190612312565b610915565b005b3480156101c9575f5ffd5b506101e460048036038101906101df9190612312565b610efd565b005b3480156101f1575f5ffd5b506101fa61100e565b005b348015610207575f5ffd5b50610222600480360381019061021d9190612844565b61113d565b005b34801561022f575f5ffd5b5061024a60048036038101906102459190612312565b61169f565b60405161025791906128da565b60405180910390f35b34801561026b575f5ffd5b5061028660048036038101906102819190612312565b61175f565b60405161029391906129c8565b60405180910390f35b3480156102a7575f5ffd5b506102b06118b5565b6040516102bd9190612ba1565b60405180910390f35b5f5f9054906101000a900473ffffffffffffffffffffffffffffffffffffffff1681565b600181815481106102f9575f80fd5b905f5260205f2090600802015f91509050805f015f9054906101000a900473ffffffffffffffffffffffffffffffffffffffff169080600101805461033d90612bee565b80601f016020809104026020016040519081016040528092919081815260200182805461036990612bee565b80156103b45780601f1061038b576101008083540402835291602001916103b4565b820191905f5260205f20905b81548152906001019060200180831161039757829003601f168201915b5050505050908060020180546103c990612bee565b80601f01602080910402602001604051908101604052809291908181526020018280546103f590612bee565b80156104405780601f1061041757610100808354040283529160200191610440565b820191905f5260205f20905b81548152906001019060200180831161042357829003601f168201915b50505050509080600301805461045590612bee565b80601f016020809104026020016040519081016040528092919081815260200182805461048190612bee565b80156104cc5780601f106104a3576101008083540402835291602001916104cc565b820191905f5260205f20905b8154815290600101906020018083116104af57829003601f168201915b505050505090806004015490806005015490806007015f9054906101000a900460ff16905087565b5f5f9054906101000a900473ffffffffffffffffffffffffffffffffffffffff1673ffffffffffffffffffffffffffffffffffffffff163373ffffffffffffffffffffffffffffffffffffffff1603610582576040517f08c379a000000000000000000000000000000000000000000000000000000000815260040161057990612c8e565b60405180910390fd5b5f6001808160018154018082558091505003905f5260205f209060080201905033815f015f6101000a81548173ffffffffffffffffffffffffffffffffffffffff021916908373ffffffffffffffffffffffffffffffffffffffff160217905550848160010190816105f49190612e4c565b50838160020190816106069190612e4c565b50828160030190816106189190612e4c565b505f81600401819055505f81600501819055506001816007015f6101000a81548160ff0219169083151502179055506106616001808054905061065b9190612f48565b8361113d565b7f1ac2092e16e28eef29d1832f3dc69da1b21284a1f3159d3b26cb238b22fe4f8a600180805490506106939190612f48565b6040516106a09190612f7b565b60405180910390a15050505050565b60605f600183815481106106c6576106c5612f94565b5b905f5260205f20906008020190505f816006018260050154815481106106ef576106ee612f94565b5b905f5260205f20906006020190508060030180548060200260200160405190810160405280929190818152602001828054801561077e57602002820191905f5260205f20905b815f9054906101000a900473ffffffffffffffffffffffffffffffffffffffff1673ffffffffffffffffffffffffffffffffffffffff1681526020019060010190808311610735575b505050505092505050919050565b60018054905081106107d3576040517f08c379a00000000000000000000000000000000000000000000000000000000081526004016107ca9061300b565b60405180910390fd5b5f600182815481106107e8576107e7612f94565b5b905f5260205f2090600802019050806007015f9054906101000a900460ff16610846576040517f08c379a000000000000000000000000000000000000000000000000000000000815260040161083d90613073565b60405180910390fd5b5f8160060182600501548154811061086157610860612f94565b5b905f5260205f2090600602019050806005015f9054906101000a900460ff16156108c0576040517f08c379a00000000000000000000000000000000000000000000000000000000081526004016108b7906130db565b60405180910390fd5b7f3f9ee693372748925082c0c5ba09ecffc5fddfeecf993becff877eac8a1e08bc815f0160010154825f015f01548460040154846002015460405161090894939291906130f9565b60405180910390a1505050565b600180549050811061095c576040517f08c379a000000000000000000000000000000000000000000000000000000000815260040161095390613186565b60405180910390fd5b3373ffffffffffffffffffffffffffffffffffffffff16313411156109b6576040517f08c379a00000000000000000000000000000000000000000000000000000000081526004016109ad90613214565b60405180910390fd5b5f34116109f8576040517f08c379a00000000000000000000000000000000000000000000000000000000081526004016109ef9061327c565b60405180910390fd5b5f60018281548110610a0d57610a0c612f94565b5b905f5260205f2090600802019050806007015f9054906101000a900460ff16610a6b576040517f08c379a0000000000000000000000000000000000000000000000000000000008152600401610a62906132e4565b60405180910390fd5b5f81600601826005015481548110610a8657610a85612f94565b5b905f5260205f209060060201905042815f016001015411610adc576040517f08c379a0000000000000000000000000000000000000000000000000000000008152600401610ad39061334c565b60405180910390fd5b5f816004015f3373ffffffffffffffffffffffffffffffffffffffff1673ffffffffffffffffffffffffffffffffffffffff1681526020019081526020015f205403610b85578060030133908060018154018082558091505060019003905f5260205f20015f9091909190916101000a81548173ffffffffffffffffffffffffffffffffffffffff021916908373ffffffffffffffffffffffffffffffffffffffff1602179055505b34816004015f3373ffffffffffffffffffffffffffffffffffffffff1673ffffffffffffffffffffffffffffffffffffffff1681526020019081526020015f205f828254610bd3919061336a565b9250508190555034816002015f828254610bed919061336a565b9250508190555034826004015f828254610c07919061336a565b925050819055505b805f015f015482600401541115610eb3575f815f015f01548360040154610c369190612f48565b9050815f015f01548260020181905550815f015f0154836004018190555080826004015f3373ffffffffffffffffffffffffffffffffffffffff1673ffffffffffffffffffffffffffffffffffffffff1681526020019081526020015f205f828254610ca29190612f48565b9250508190555060018360060180549050610cbd9190612f48565b836005015403610d90575f836007015f6101000a81548160ff0219169083151502179055505f3373ffffffffffffffffffffffffffffffffffffffff1682604051610d07906133ca565b5f6040518083038185875af1925050503d805f8114610d41576040519150601f19603f3d011682016040523d82523d5f602084013e610d46565b606091505b5050905080610d8a576040517f08c379a0000000000000000000000000000000000000000000000000000000008152600401610d8190613428565b60405180910390fd5b50610ead565b610d9984611d36565b82600601836005015481548110610db357610db2612f94565b5b905f5260205f20906006020191508160030133908060018154018082558091505060019003905f5260205f20015f9091909190916101000a81548173ffffffffffffffffffffffffffffffffffffffff021916908373ffffffffffffffffffffffffffffffffffffffff16021790555080826004015f3373ffffffffffffffffffffffffffffffffffffffff1673ffffffffffffffffffffffffffffffffffffffff1681526020019081526020015f205f828254610e71919061336a565b9250508190555080826002015f828254610e8b919061336a565b9250508190555080836004015f828254610ea5919061336a565b925050819055505b50610c0f565b7f17e2effa169c5dde193942abd21f6d49e7d32c15ab843da440cb2abdd10f1911833484600401548460020154604051610ef094939291906130f9565b60405180910390a1505050565b5f5f9054906101000a900473ffffffffffffffffffffffffffffffffffffffff1673ffffffffffffffffffffffffffffffffffffffff163373ffffffffffffffffffffffffffffffffffffffff161480610fc3575060018181548110610f6657610f65612f94565b5b905f5260205f2090600802015f015f9054906101000a900473ffffffffffffffffffffffffffffffffffffffff1673ffffffffffffffffffffffffffffffffffffffff163373ffffffffffffffffffffffffffffffffffffffff16145b611002576040517f08c379a0000000000000000000000000000000000000000000000000000000008152600401610ff9906134b6565b60405180910390fd5b61100b81611ea0565b50565b5f5f9054906101000a900473ffffffffffffffffffffffffffffffffffffffff1673ffffffffffffffffffffffffffffffffffffffff163373ffffffffffffffffffffffffffffffffffffffff161461109c576040517f08c379a000000000000000000000000000000000000000000000000000000000815260040161109390613544565b60405180910390fd5b5f5f90505b60018054905081101561113a575f600182815481106110c3576110c2612f94565b5b905f5260205f20906008020190505f816006018260050154815481106110ec576110eb612f94565b5b905f5260205f2090600602019050816007015f9054906101000a900460ff16801561111c575042815f0160010154105b1561112b5761112a83611ea0565b5b505080806001019150506110a1565b50565b6001805490508210611184576040517f08c379a000000000000000000000000000000000000000000000000000000000815260040161117b9061300b565b60405180910390fd5b5f6001838154811061119957611198612f94565b5b905f5260205f2090600802019050806007015f9054906101000a900460ff166111f7576040517f08c379a00000000000000000000000000000000000000000000000000000000081526004016111ee906135d2565b60405180910390fd5b3373ffffffffffffffffffffffffffffffffffffffff16815f015f9054906101000a900473ffffffffffffffffffffffffffffffffffffffff1673ffffffffffffffffffffffffffffffffffffffff1614611287576040517f08c379a000000000000000000000000000000000000000000000000000000000815260040161127e90613660565b60405180910390fd5b5f8251116112ca576040517f08c379a00000000000000000000000000000000000000000000000000000000081526004016112c1906136c8565b60405180910390fd5b5f5f90505b8251811015611699575f8382815181106112ec576112eb612f94565b5b60200260200101515f015111611337576040517f08c379a000000000000000000000000000000000000000000000000000000000815260040161132e90613730565b60405180910390fd5b4283828151811061134b5761134a612f94565b5b60200260200101516020015111611397576040517f08c379a000000000000000000000000000000000000000000000000000000000815260040161138e90613798565b60405180910390fd5b5f8111156114b257826001826113ad9190612f48565b815181106113be576113bd612f94565b5b60200260200101515f01518382815181106113dc576113db612f94565b5b60200260200101515f015111611427576040517f08c379a000000000000000000000000000000000000000000000000000000000815260040161141e90613826565b60405180910390fd5b826001826114359190612f48565b8151811061144657611445612f94565b5b60200260200101516020015183828151811061146557611464612f94565b5b602002602001015160200151116114b1576040517f08c379a00000000000000000000000000000000000000000000000000000000081526004016114a8906138b4565b60405180910390fd5b5b5f826006018054905011156115f45781600601600183600601805490506114d99190612f48565b815481106114ea576114e9612f94565b5b905f5260205f2090600602015f015f015483828151811061150e5761150d612f94565b5b60200260200101515f015111611559576040517f08c379a000000000000000000000000000000000000000000000000000000000815260040161155090613826565b60405180910390fd5b81600601600183600601805490506115719190612f48565b8154811061158257611581612f94565b5b905f5260205f2090600602015f01600101548382815181106115a7576115a6612f94565b5b602002602001015160200151116115f3576040517f08c379a00000000000000000000000000000000000000000000000000000000081526004016115ea906138b4565b60405180910390fd5b5b5f8260060160018160018154018082558091505003905f5260205f209060060201905083828151811061162a57611629612f94565b5b60200260200101515f0151815f015f018190555083828151811061165157611650612f94565b5b602002602001015160200151815f01600101819055505f81600201819055505f816005015f6101000a81548160ff0219169083151502179055505080806001019150506112cf565b50505050565b6116a761220d565b60018054905082106116ee576040517f08c379a00000000000000000000000000000000000000000000000000000000081526004016116e59061300b565b60405180910390fd5b5f6001838154811061170357611702612f94565b5b905f5260205f20906008020190508060060181600501548154811061172b5761172a612f94565b5b905f5260205f2090600602015f016040518060400160405290815f8201548152602001600182015481525050915050919050565b606060018054905082106117a8576040517f08c379a000000000000000000000000000000000000000000000000000000000815260040161179f9061300b565b60405180910390fd5b5f600183815481106117bd576117bc612f94565b5b905f5260205f20906008020190505f816006018054905067ffffffffffffffff8111156117ed576117ec612460565b5b60405190808252806020026020018201604052801561182657816020015b61181361220d565b81526020019060019003908161180b5790505b5090505f5f90505b82600601805490508110156118aa5782600601818154811061185357611852612f94565b5b905f5260205f2090600602015f016040518060400160405290815f820154815260200160018201548152505082828151811061189257611891612f94565b5b6020026020010181905250808060010191505061182e565b508092505050919050565b60605f5f90505f5f90505b60018054905081101561191e57600181815481106118e1576118e0612f94565b5b905f5260205f2090600802016007015f9054906101000a900460ff161561191157818061190d906138d2565b9250505b80806001019150506118c0565b505f8167ffffffffffffffff81111561193a57611939612460565b5b60405190808252806020026020018201604052801561197357816020015b611960612225565b8152602001906001900390816119585790505b5090505f5f90505f5f90505b600180549050811015611d2c57600181815481106119a05761199f612f94565b5b905f5260205f2090600802016007015f9054906101000a900460ff1615611d1f576119c9612225565b600182815481106119dd576119dc612f94565b5b905f5260205f2090600802015f015f9054906101000a900473ffffffffffffffffffffffffffffffffffffffff16815f019073ffffffffffffffffffffffffffffffffffffffff16908173ffffffffffffffffffffffffffffffffffffffff168152505060018281548110611a5557611a54612f94565b5b905f5260205f2090600802016001018054611a6f90612bee565b80601f0160208091040260200160405190810160405280929190818152602001828054611a9b90612bee565b8015611ae65780601f10611abd57610100808354040283529160200191611ae6565b820191905f5260205f20905b815481529060010190602001808311611ac957829003601f168201915b5050505050816020018190525060018281548110611b0757611b06612f94565b5b905f5260205f2090600802016002018054611b2190612bee565b80601f0160208091040260200160405190810160405280929190818152602001828054611b4d90612bee565b8015611b985780601f10611b6f57610100808354040283529160200191611b98565b820191905f5260205f20905b815481529060010190602001808311611b7b57829003601f168201915b5050505050816040018190525060018281548110611bb957611bb8612f94565b5b905f5260205f2090600802016003018054611bd390612bee565b80601f0160208091040260200160405190810160405280929190818152602001828054611bff90612bee565b8015611c4a5780601f10611c2157610100808354040283529160200191611c4a565b820191905f5260205f20905b815481529060010190602001808311611c2d57829003601f168201915b5050505050816060018190525060018281548110611c6b57611c6a612f94565b5b905f5260205f2090600802016004015481608001818152505060018281548110611c9857611c97612f94565b5b905f5260205f209060080201600501548160a001818152505060018281548110611cc557611cc4612f94565b5b905f5260205f2090600802016007015f9054906101000a900460ff168160c001901515908115158152505080848481518110611d0457611d03612f94565b5b60200260200101819052508280611d1a906138d2565b935050505b808060010191505061197f565b5081935050505090565b5f60018281548110611d4b57611d4a612f94565b5b905f5260205f20906008020190505f81600601826005015481548110611d7457611d73612f94565b5b905f5260205f20906006020190505f816002015490505f83600501541115611dda578260060160018460050154611dab9190612f48565b81548110611dbc57611dbb612f94565b5b905f5260205f2090600602016002015481611dd79190612f48565b90505b815f015f0154836004015410611e90576001826005015f6101000a81548160ff021916908315150217905550611e32835f015f9054906101000a900473ffffffffffffffffffffffffffffffffffffffff1682611f40565b60018360060180549050611e469190612f48565b83600501541015611e6f57826005015f815480929190611e65906138d2565b9190505550611e8b565b5f836007015f6101000a81548160ff0219169083151502179055505b611e9a565b611e9984611ea0565b5b50505050565b5f60018281548110611eb557611eb4612f94565b5b905f5260205f2090600802019050806007015f9054906101000a900460ff16611f13576040517f08c379a0000000000000000000000000000000000000000000000000000000008152600401611f0a90613963565b60405180910390fd5b5f816007015f6101000a81548160ff021916908315150217905550611f3c828260050154611fed565b5050565b5f8273ffffffffffffffffffffffffffffffffffffffff1682604051611f65906133ca565b5f6040518083038185875af1925050503d805f8114611f9f576040519150601f19603f3d011682016040523d82523d5f602084013e611fa4565b606091505b5050905080611fe8576040517f08c379a0000000000000000000000000000000000000000000000000000000008152600401611fdf906139cb565b60405180910390fd5b505050565b5f6001838154811061200257612001612f94565b5b905f5260205f20906008020190505f81600601838154811061202757612026612f94565b5b905f5260205f20906006020190505f5f90505b8160030180549050811015612206575f8260030182815481106120605761205f612f94565b5b905f5260205f20015f9054906101000a900473ffffffffffffffffffffffffffffffffffffffff1690505f836004015f8373ffffffffffffffffffffffffffffffffffffffff1673ffffffffffffffffffffffffffffffffffffffff1681526020019081526020015f205490505f8111156121f7575f846004015f8473ffffffffffffffffffffffffffffffffffffffff1673ffffffffffffffffffffffffffffffffffffffff1681526020019081526020015f20819055505f8273ffffffffffffffffffffffffffffffffffffffff168260405161213e906133ca565b5f6040518083038185875af1925050503d805f8114612178576040519150601f19603f3d011682016040523d82523d5f602084013e61217d565b606091505b50509050806121c1576040517f08c379a00000000000000000000000000000000000000000000000000000000081526004016121b890613a33565b60405180910390fd5b81866004015f8282546121d49190612f48565b9250508190555081856002015f8282546121ee9190612f48565b92505081905550505b5050808060010191505061203a565b5050505050565b60405180604001604052805f81526020015f81525090565b6040518060e001604052805f73ffffffffffffffffffffffffffffffffffffffff1681526020016060815260200160608152602001606081526020015f81526020015f81526020015f151581525090565b5f73ffffffffffffffffffffffffffffffffffffffff82169050919050565b5f61229f82612276565b9050919050565b6122af81612295565b82525050565b5f6020820190506122c85f8301846122a6565b92915050565b5f604051905090565b5f5ffd5b5f5ffd5b5f819050919050565b6122f1816122df565b81146122fb575f5ffd5b50565b5f8135905061230c816122e8565b92915050565b5f60208284031215612327576123266122d7565b5b5f612334848285016122fe565b91505092915050565b5f81519050919050565b5f82825260208201905092915050565b8281835e5f83830152505050565b5f601f19601f8301169050919050565b5f61237f8261233d565b6123898185612347565b9350612399818560208601612357565b6123a281612365565b840191505092915050565b6123b6816122df565b82525050565b5f8115159050919050565b6123d0816123bc565b82525050565b5f60e0820190506123e95f83018a6122a6565b81810360208301526123fb8189612375565b9050818103604083015261240f8188612375565b905081810360608301526124238187612375565b905061243260808301866123ad565b61243f60a08301856123ad565b61244c60c08301846123c7565b98975050505050505050565b5f5ffd5b5f5ffd5b7f4e487b71000000000000000000000000000000000000000000000000000000005f52604160045260245ffd5b61249682612365565b810181811067ffffffffffffffff821117156124b5576124b4612460565b5b80604052505050565b5f6124c76122ce565b90506124d3828261248d565b919050565b5f67ffffffffffffffff8211156124f2576124f1612460565b5b6124fb82612365565b9050602081019050919050565b828183375f83830152505050565b5f612528612523846124d8565b6124be565b9050828152602081018484840111156125445761254361245c565b5b61254f848285612508565b509392505050565b5f82601f83011261256b5761256a612458565b5b813561257b848260208601612516565b91505092915050565b5f67ffffffffffffffff82111561259e5761259d612460565b5b602082029050602081019050919050565b5f5ffd5b5f5ffd5b5f604082840312156125cc576125cb6125b3565b5b6125d660406124be565b90505f6125e5848285016122fe565b5f8301525060206125f8848285016122fe565b60208301525092915050565b5f61261661261184612584565b6124be565b90508083825260208201905060408402830185811115612639576126386125af565b5b835b81811015612662578061264e88826125b7565b84526020840193505060408101905061263b565b5050509392505050565b5f82601f8301126126805761267f612458565b5b8135612690848260208601612604565b91505092915050565b5f5f5f5f608085870312156126b1576126b06122d7565b5b5f85013567ffffffffffffffff8111156126ce576126cd6122db565b5b6126da87828801612557565b945050602085013567ffffffffffffffff8111156126fb576126fa6122db565b5b61270787828801612557565b935050604085013567ffffffffffffffff811115612728576127276122db565b5b61273487828801612557565b925050606085013567ffffffffffffffff811115612755576127546122db565b5b6127618782880161266c565b91505092959194509250565b5f81519050919050565b5f82825260208201905092915050565b5f819050602082019050919050565b61279f81612295565b82525050565b5f6127b08383612796565b60208301905092915050565b5f602082019050919050565b5f6127d28261276d565b6127dc8185612777565b93506127e783612787565b805f5b838110156128175781516127fe88826127a5565b9750612809836127bc565b9250506001810190506127ea565b5085935050505092915050565b5f6020820190508181035f83015261283c81846127c8565b905092915050565b5f5f6040838503121561285a576128596122d7565b5b5f612867858286016122fe565b925050602083013567ffffffffffffffff811115612888576128876122db565b5b6128948582860161266c565b9150509250929050565b6128a7816122df565b82525050565b604082015f8201516128c15f85018261289e565b5060208201516128d4602085018261289e565b50505050565b5f6040820190506128ed5f8301846128ad565b92915050565b5f81519050919050565b5f82825260208201905092915050565b5f819050602082019050919050565b604082015f8201516129305f85018261289e565b506020820151612943602085018261289e565b50505050565b5f612954838361291c565b60408301905092915050565b5f602082019050919050565b5f612976826128f3565b61298081856128fd565b935061298b8361290d565b805f5b838110156129bb5781516129a28882612949565b97506129ad83612960565b92505060018101905061298e565b5085935050505092915050565b5f6020820190508181035f8301526129e0818461296c565b905092915050565b5f81519050919050565b5f82825260208201905092915050565b5f819050602082019050919050565b5f82825260208201905092915050565b5f612a2b8261233d565b612a358185612a11565b9350612a45818560208601612357565b612a4e81612365565b840191505092915050565b612a62816123bc565b82525050565b5f60e083015f830151612a7d5f860182612796565b5060208301518482036020860152612a958282612a21565b91505060408301518482036040860152612aaf8282612a21565b91505060608301518482036060860152612ac98282612a21565b9150506080830151612ade608086018261289e565b5060a0830151612af160a086018261289e565b5060c0830151612b0460c0860182612a59565b508091505092915050565b5f612b1a8383612a68565b905092915050565b5f602082019050919050565b5f612b38826129e8565b612b4281856129f2565b935083602082028501612b5485612a02565b805f5b85811015612b8f5784840389528151612b708582612b0f565b9450612b7b83612b22565b925060208a01995050600181019050612b57565b50829750879550505050505092915050565b5f6020820190508181035f830152612bb98184612b2e565b905092915050565b7f4e487b71000000000000000000000000000000000000000000000000000000005f52602260045260245ffd5b5f6002820490506001821680612c0557607f821691505b602082108103612c1857612c17612bc1565b5b50919050565b7f53797374656d206f776e65722063616e2774206372656174652070726f6a65635f8201527f7473000000000000000000000000000000000000000000000000000000000000602082015250565b5f612c78602283612347565b9150612c8382612c1e565b604082019050919050565b5f6020820190508181035f830152612ca581612c6c565b9050919050565b5f819050815f5260205f209050919050565b5f6020601f8301049050919050565b5f82821b905092915050565b5f60088302612d087fffffffffffffffffffffffffffffffffffffffffffffffffffffffffffffffff82612ccd565b612d128683612ccd565b95508019841693508086168417925050509392505050565b5f819050919050565b5f612d4d612d48612d43846122df565b612d2a565b6122df565b9050919050565b5f819050919050565b612d6683612d33565b612d7a612d7282612d54565b848454612cd9565b825550505050565b5f5f905090565b612d91612d82565b612d9c818484612d5d565b505050565b5b81811015612dbf57612db45f82612d89565b600181019050612da2565b5050565b601f821115612e0457612dd581612cac565b612dde84612cbe565b81016020851015612ded578190505b612e01612df985612cbe565b830182612da1565b50505b505050565b5f82821c905092915050565b5f612e245f1984600802612e09565b1980831691505092915050565b5f612e3c8383612e15565b9150826002028217905092915050565b612e558261233d565b67ffffffffffffffff811115612e6e57612e6d612460565b5b612e788254612bee565b612e83828285612dc3565b5f60209050601f831160018114612eb4575f8415612ea2578287015190505b612eac8582612e31565b865550612f13565b601f198416612ec286612cac565b5f5b82811015612ee957848901518255600182019150602085019450602081019050612ec4565b86831015612f065784890151612f02601f891682612e15565b8355505b6001600288020188555050505b505050505050565b7f4e487b71000000000000000000000000000000000000000000000000000000005f52601160045260245ffd5b5f612f52826122df565b9150612f5d836122df565b9250828203905081811115612f7557612f74612f1b565b5b92915050565b5f602082019050612f8e5f8301846123ad565b92915050565b7f4e487b71000000000000000000000000000000000000000000000000000000005f52603260045260245ffd5b7f496e76616c69642070726f6a6563747320696e646578000000000000000000005f82015250565b5f612ff5601683612347565b915061300082612fc1565b602082019050919050565b5f6020820190508181035f83015261302281612fe9565b9050919050565b7f50726f6a656374206d75737420626520616374697665000000000000000000005f82015250565b5f61305d601683612347565b915061306882613029565b602082019050919050565b5f6020820190508181035f83015261308a81613051565b9050919050565b7f4d696c6573746f6e652073686f756c64206265206e6f742072656163686564005f82015250565b5f6130c5601f83612347565b91506130d082613091565b602082019050919050565b5f6020820190508181035f8301526130f2816130b9565b9050919050565b5f60808201905061310c5f8301876123ad565b61311960208301866123ad565b61312660408301856123ad565b61313360608301846123ad565b95945050505050565b7f50726f6a65637420646f65736e277420657869737400000000000000000000005f82015250565b5f613170601583612347565b915061317b8261313c565b602082019050919050565b5f6020820190508181035f83015261319d81613164565b9050919050565b7f596f7520646f6e74206861766520656e6f756768206d6f6e657920746f2066755f8201527f6e64000000000000000000000000000000000000000000000000000000000000602082015250565b5f6131fe602283612347565b9150613209826131a4565b604082019050919050565b5f6020820190508181035f83015261322b816131f2565b9050919050565b7f46756e6420616d6f756e742063616e27742062652030000000000000000000005f82015250565b5f613266601683612347565b915061327182613232565b602082019050919050565b5f6020820190508181035f8301526132938161325a565b9050919050565b7f50726f6a656374206d7573742062652061637469766520746f2066756e6400005f82015250565b5f6132ce601e83612347565b91506132d98261329a565b602082019050919050565b5f6020820190508181035f8301526132fb816132c2565b9050919050565b7f596f752063616e27742066756e6420616674657220646561646c696e650000005f82015250565b5f613336601d83612347565b915061334182613302565b602082019050919050565b5f6020820190508181035f8301526133638161332a565b9050919050565b5f613374826122df565b915061337f836122df565b925082820190508082111561339757613396612f1b565b5b92915050565b5f81905092915050565b50565b5f6133b55f8361339d565b91506133c0826133a7565b5f82019050919050565b5f6133d4826133aa565b9150819050919050565b7f4661696c656420746f2072657475726e20737572706c757300000000000000005f82015250565b5f613412601883612347565b915061341d826133de565b602082019050919050565b5f6020820190508181035f83015261343f81613406565b9050919050565b7f4f6e6c792073797374656d206f776e6572206f722070726f6a656374206f776e5f8201527f65722063616e2073746f702070726f6a65637473000000000000000000000000602082015250565b5f6134a0603483612347565b91506134ab82613446565b604082019050919050565b5f6020820190508181035f8301526134cd81613494565b9050919050565b7f4f6e6c79207379734f776e65722063616e20646561637469766174652070726f5f8201527f6a65637473000000000000000000000000000000000000000000000000000000602082015250565b5f61352e602583612347565b9150613539826134d4565b604082019050919050565b5f6020820190508181035f83015261355b81613522565b9050919050565b7f43616e6e6f7420616464206e6577206d696c6573746f6e657320746f20696e615f8201527f63746976652070726f6a65637400000000000000000000000000000000000000602082015250565b5f6135bc602d83612347565b91506135c782613562565b604082019050919050565b5f6020820190508181035f8301526135e9816135b0565b9050919050565b7f4f6e6c792070726f6a6563742063726561746f722063616e20616464206e65775f8201527f206d696c6573746f6e6573000000000000000000000000000000000000000000602082015250565b5f61364a602b83612347565b9150613655826135f0565b604082019050919050565b5f6020820190508181035f8301526136778161363e565b9050919050565b7f4d7573742068617665206174206c65617374206f6e65206d696c6573746f6e655f82015250565b5f6136b2602083612347565b91506136bd8261367e565b602082019050919050565b5f6020820190508181035f8301526136df816136a6565b9050919050565b7f476f616c20616d6f756e742063616e27742062652030000000000000000000005f82015250565b5f61371a601683612347565b9150613725826136e6565b602082019050919050565b5f6020820190508181035f8301526137478161370e565b9050919050565b7f446561646c696e652063616e277420626520696e2074686520706173740000005f82015250565b5f613782601d83612347565b915061378d8261374e565b602082019050919050565b5f6020820190508181035f8301526137af81613776565b9050919050565b7f4d696c6573746f6e6520676f616c732073686f756c6420626520696e637265615f8201527f73696e6700000000000000000000000000000000000000000000000000000000602082015250565b5f613810602483612347565b915061381b826137b6565b604082019050919050565b5f6020820190508181035f83015261383d81613804565b9050919050565b7f4d696c6573746f6e6520646561646c696e65732073686f756c6420626520696e5f8201527f6372656173696e67000000000000000000000000000000000000000000000000602082015250565b5f61389e602883612347565b91506138a982613844565b604082019050919050565b5f6020820190508181035f8301526138cb81613892565b9050919050565b5f6138dc826122df565b91507fffffffffffffffffffffffffffffffffffffffffffffffffffffffffffffffff820361390e5761390d612f1b565b5b600182019050919050565b7f43616e6e6f742073746f7020696e6163746976652070726f6a656374000000005f82015250565b5f61394d601c83612347565b915061395882613919565b602082019050919050565b5f6020820190508181035f83015261397a81613941565b9050919050565b7f5472616e7366657220746f2063726561746f72206661696c65640000000000005f82015250565b5f6139b5601a83612347565b91506139c082613981565b602082019050919050565b5f6020820190508181035f8301526139e2816139a9565b9050919050565b7f526566756e64206661696c6564000000000000000000000000000000000000005f82015250565b5f613a1d600d83612347565b9150613a28826139e9565b602082019050919050565b5f6020820190508181035f830152613a4a81613a11565b905091905056fea2646970667358221220b8fbe60425f41af8c0d58ec2b6f72cddd7247c96ca6228b8b22dc456aec6466d64736f6c634300081e0033",
					"opcodes": "PUSH1 0x80 PUSH1 0x40 MSTORE CALLVALUE DUP1 ISZERO PUSH1 0xE JUMPI PUSH0 PUSH0 REVERT JUMPDEST POP CALLER PUSH0 PUSH0 PUSH2 0x100 EXP DUP2 SLOAD DUP2 PUSH20 0xFFFFFFFFFFFFFFFFFFFFFFFFFFFFFFFFFFFFFFFF MUL NOT AND SWAP1 DUP4 PUSH20 0xFFFFFFFFFFFFFFFFFFFFFFFFFFFFFFFFFFFFFFFF AND MUL OR SWAP1 SSTORE POP PUSH2 0x3A87 DUP1 PUSH2 0x5B PUSH0 CODECOPY PUSH0 RETURN INVALID PUSH1 0x80 PUSH1 0x40 MSTORE PUSH1 0x4 CALLDATASIZE LT PUSH2 0xA6 JUMPI PUSH0 CALLDATALOAD PUSH1 0xE0 SHR DUP1 PUSH4 0x6DB7A960 GT PUSH2 0x63 JUMPI DUP1 PUSH4 0x6DB7A960 EQ PUSH2 0x1BE JUMPI DUP1 PUSH4 0x7808DE38 EQ PUSH2 0x1E6 JUMPI DUP1 PUSH4 0xAE632181 EQ PUSH2 0x1FC JUMPI DUP1 PUSH4 0xB99122AF EQ PUSH2 0x224 JUMPI DUP1 PUSH4 0xD8A5B36D EQ PUSH2 0x260 JUMPI DUP1 PUSH4 0xF2EF441B EQ PUSH2 0x29C JUMPI PUSH2 0xA6 JUMP JUMPDEST DUP1 PUSH4 0xE4877D6 EQ PUSH2 0xAA JUMPI DUP1 PUSH4 0x107046BD EQ PUSH2 0xD4 JUMPI DUP1 PUSH4 0x1A86E67D EQ PUSH2 0x116 JUMPI DUP1 PUSH4 0x33EC0FC5 EQ PUSH2 0x13E JUMPI DUP1 PUSH4 0x4E94E824 EQ PUSH2 0x17A JUMPI DUP1 PUSH4 0x6C563ABE EQ PUSH2 0x1A2 JUMPI JUMPDEST PUSH0 PUSH0 REVERT JUMPDEST CALLVALUE DUP1 ISZERO PUSH2 0xB5 JUMPI PUSH0 PUSH0 REVERT JUMPDEST POP PUSH2 0xBE PUSH2 0x2C6 JUMP JUMPDEST PUSH1 0x40 MLOAD PUSH2 0xCB SWAP2 SWAP1 PUSH2 0x22B5 JUMP JUMPDEST PUSH1 0x40 MLOAD DUP1 SWAP2 SUB SWAP1 RETURN JUMPDEST CALLVALUE DUP1 ISZERO PUSH2 0xDF JUMPI PUSH0 PUSH0 REVERT JUMPDEST POP PUSH2 0xFA PUSH1 0x4 DUP1 CALLDATASIZE SUB DUP2 ADD SWAP1 PUSH2 0xF5 SWAP2 SWAP1 PUSH2 0x2312 JUMP JUMPDEST PUSH2 0x2EA JUMP JUMPDEST PUSH1 0x40 MLOAD PUSH2 0x10D SWAP8 SWAP7 SWAP6 SWAP5 SWAP4 SWAP3 SWAP2 SWAP1 PUSH2 0x23D6 JUMP JUMPDEST PUSH1 0x40 MLOAD DUP1 SWAP2 SUB SWAP1 RETURN JUMPDEST CALLVALUE DUP1 ISZERO PUSH2 0x121 JUMPI PUSH0 PUSH0 REVERT JUMPDEST POP PUSH2 0x13C PUSH1 0x4 DUP1 CALLDATASIZE SUB DUP2 ADD SWAP1 PUSH2 0x137 SWAP2 SWAP1 PUSH2 0x2699 JUMP JUMPDEST PUSH2 0x4F4 JUMP JUMPDEST STOP JUMPDEST CALLVALUE DUP1 ISZERO PUSH2 0x149 JUMPI PUSH0 PUSH0 REVERT JUMPDEST POP PUSH2 0x164 PUSH1 0x4 DUP1 CALLDATASIZE SUB DUP2 ADD SWAP1 PUSH2 0x15F SWAP2 SWAP1 PUSH2 0x2312 JUMP JUMPDEST PUSH2 0x6AF JUMP JUMPDEST PUSH1 0x40 MLOAD PUSH2 0x171 SWAP2 SWAP1 PUSH2 0x2824 JUMP JUMPDEST PUSH1 0x40 MLOAD DUP1 SWAP2 SUB SWAP1 RETURN JUMPDEST CALLVALUE DUP1 ISZERO PUSH2 0x185 JUMPI PUSH0 PUSH0 REVERT JUMPDEST POP PUSH2 0x1A0 PUSH1 0x4 DUP1 CALLDATASIZE SUB DUP2 ADD SWAP1 PUSH2 0x19B SWAP2 SWAP1 PUSH2 0x2312 JUMP JUMPDEST PUSH2 0x78C JUMP JUMPDEST STOP JUMPDEST PUSH2 0x1BC PUSH1 0x4 DUP1 CALLDATASIZE SUB DUP2 ADD SWAP1 PUSH2 0x1B7 SWAP2 SWAP1 PUSH2 0x2312 JUMP JUMPDEST PUSH2 0x915 JUMP JUMPDEST STOP JUMPDEST CALLVALUE DUP1 ISZERO PUSH2 0x1C9 JUMPI PUSH0 PUSH0 REVERT JUMPDEST POP PUSH2 0x1E4 PUSH1 0x4 DUP1 CALLDATASIZE SUB DUP2 ADD SWAP1 PUSH2 0x1DF SWAP2 SWAP1 PUSH2 0x2312 JUMP JUMPDEST PUSH2 0xEFD JUMP JUMPDEST STOP JUMPDEST CALLVALUE DUP1 ISZERO PUSH2 0x1F1 JUMPI PUSH0 PUSH0 REVERT JUMPDEST POP PUSH2 0x1FA PUSH2 0x100E JUMP JUMPDEST STOP JUMPDEST CALLVALUE DUP1 ISZERO PUSH2 0x207 JUMPI PUSH0 PUSH0 REVERT JUMPDEST POP PUSH2 0x222 PUSH1 0x4 DUP1 CALLDATASIZE SUB DUP2 ADD SWAP1 PUSH2 0x21D SWAP2 SWAP1 PUSH2 0x2844 JUMP JUMPDEST PUSH2 0x113D JUMP JUMPDEST STOP JUMPDEST CALLVALUE DUP1 ISZERO PUSH2 0x22F JUMPI PUSH0 PUSH0 REVERT JUMPDEST POP PUSH2 0x24A PUSH1 0x4 DUP1 CALLDATASIZE SUB DUP2 ADD SWAP1 PUSH2 0x245 SWAP2 SWAP1 PUSH2 0x2312 JUMP JUMPDEST PUSH2 0x169F JUMP JUMPDEST PUSH1 0x40 MLOAD PUSH2 0x257 SWAP2 SWAP1 PUSH2 0x28DA JUMP JUMPDEST PUSH1 0x40 MLOAD DUP1 SWAP2 SUB SWAP1 RETURN JUMPDEST CALLVALUE DUP1 ISZERO PUSH2 0x26B JUMPI PUSH0 PUSH0 REVERT JUMPDEST POP PUSH2 0x286 PUSH1 0x4 DUP1 CALLDATASIZE SUB DUP2 ADD SWAP1 PUSH2 0x281 SWAP2 SWAP1 PUSH2 0x2312 JUMP JUMPDEST PUSH2 0x175F JUMP JUMPDEST PUSH1 0x40 MLOAD PUSH2 0x293 SWAP2 SWAP1 PUSH2 0x29C8 JUMP JUMPDEST PUSH1 0x40 MLOAD DUP1 SWAP2 SUB SWAP1 RETURN JUMPDEST CALLVALUE DUP1 ISZERO PUSH2 0x2A7 JUMPI PUSH0 PUSH0 REVERT JUMPDEST POP PUSH2 0x2B0 PUSH2 0x18B5 JUMP JUMPDEST PUSH1 0x40 MLOAD PUSH2 0x2BD SWAP2 SWAP1 PUSH2 0x2BA1 JUMP JUMPDEST PUSH1 0x40 MLOAD DUP1 SWAP2 SUB SWAP1 RETURN JUMPDEST PUSH0 PUSH0 SWAP1 SLOAD SWAP1 PUSH2 0x100 EXP SWAP1 DIV PUSH20 0xFFFFFFFFFFFFFFFFFFFFFFFFFFFFFFFFFFFFFFFF AND DUP2 JUMP JUMPDEST PUSH1 0x1 DUP2 DUP2 SLOAD DUP2 LT PUSH2 0x2F9 JUMPI PUSH0 DUP1 REVERT JUMPDEST SWAP1 PUSH0 MSTORE PUSH1 0x20 PUSH0 KECCAK256 SWAP1 PUSH1 0x8 MUL ADD PUSH0 SWAP2 POP SWAP1 POP DUP1 PUSH0 ADD PUSH0 SWAP1 SLOAD SWAP1 PUSH2 0x100 EXP SWAP1 DIV PUSH20 0xFFFFFFFFFFFFFFFFFFFFFFFFFFFFFFFFFFFFFFFF AND SWAP1 DUP1 PUSH1 0x1 ADD DUP1 SLOAD PUSH2 0x33D SWAP1 PUSH2 0x2BEE JUMP JUMPDEST DUP1 PUSH1 0x1F ADD PUSH1 0x20 DUP1 SWAP2 DIV MUL PUSH1 0x20 ADD PUSH1 0x40 MLOAD SWAP1 DUP2 ADD PUSH1 0x40 MSTORE DUP1 SWAP3 SWAP2 SWAP1 DUP2 DUP2 MSTORE PUSH1 0x20 ADD DUP3 DUP1 SLOAD PUSH2 0x369 SWAP1 PUSH2 0x2BEE JUMP JUMPDEST DUP1 ISZERO PUSH2 0x3B4 JUMPI DUP1 PUSH1 0x1F LT PUSH2 0x38B JUMPI PUSH2 0x100 DUP1 DUP4 SLOAD DIV MUL DUP4 MSTORE SWAP2 PUSH1 0x20 ADD SWAP2 PUSH2 0x3B4 JUMP JUMPDEST DUP3 ADD SWAP2 SWAP1 PUSH0 MSTORE PUSH1 0x20 PUSH0 KECCAK256 SWAP1 JUMPDEST DUP2 SLOAD DUP2 MSTORE SWAP1 PUSH1 0x1 ADD SWAP1 PUSH1 0x20 ADD DUP1 DUP4 GT PUSH2 0x397 JUMPI DUP3 SWAP1 SUB PUSH1 0x1F AND DUP3 ADD SWAP2 JUMPDEST POP POP POP POP POP SWAP1 DUP1 PUSH1 0x2 ADD DUP1 SLOAD PUSH2 0x3C9 SWAP1 PUSH2 0x2BEE JUMP JUMPDEST DUP1 PUSH1 0x1F ADD PUSH1 0x20 DUP1 SWAP2 DIV MUL PUSH1 0x20 ADD PUSH1 0x40 MLOAD SWAP1 DUP2 ADD PUSH1 0x40 MSTORE DUP1 SWAP3 SWAP2 SWAP1 DUP2 DUP2 MSTORE PUSH1 0x20 ADD DUP3 DUP1 SLOAD PUSH2 0x3F5 SWAP1 PUSH2 0x2BEE JUMP JUMPDEST DUP1 ISZERO PUSH2 0x440 JUMPI DUP1 PUSH1 0x1F LT PUSH2 0x417 JUMPI PUSH2 0x100 DUP1 DUP4 SLOAD DIV MUL DUP4 MSTORE SWAP2 PUSH1 0x20 ADD SWAP2 PUSH2 0x440 JUMP JUMPDEST DUP3 ADD SWAP2 SWAP1 PUSH0 MSTORE PUSH1 0x20 PUSH0 KECCAK256 SWAP1 JUMPDEST DUP2 SLOAD DUP2 MSTORE SWAP1 PUSH1 0x1 ADD SWAP1 PUSH1 0x20 ADD DUP1 DUP4 GT PUSH2 0x423 JUMPI DUP3 SWAP1 SUB PUSH1 0x1F AND DUP3 ADD SWAP2 JUMPDEST POP POP POP POP POP SWAP1 DUP1 PUSH1 0x3 ADD DUP1 SLOAD PUSH2 0x455 SWAP1 PUSH2 0x2BEE JUMP JUMPDEST DUP1 PUSH1 0x1F ADD PUSH1 0x20 DUP1 SWAP2 DIV MUL PUSH1 0x20 ADD PUSH1 0x40 MLOAD SWAP1 DUP2 ADD PUSH1 0x40 MSTORE DUP1 SWAP3 SWAP2 SWAP1 DUP2 DUP2 MSTORE PUSH1 0x20 ADD DUP3 DUP1 SLOAD PUSH2 0x481 SWAP1 PUSH2 0x2BEE JUMP JUMPDEST DUP1 ISZERO PUSH2 0x4CC JUMPI DUP1 PUSH1 0x1F LT PUSH2 0x4A3 JUMPI PUSH2 0x100 DUP1 DUP4 SLOAD DIV MUL DUP4 MSTORE SWAP2 PUSH1 0x20 ADD SWAP2 PUSH2 0x4CC JUMP JUMPDEST DUP3 ADD SWAP2 SWAP1 PUSH0 MSTORE PUSH1 0x20 PUSH0 KECCAK256 SWAP1 JUMPDEST DUP2 SLOAD DUP2 MSTORE SWAP1 PUSH1 0x1 ADD SWAP1 PUSH1 0x20 ADD DUP1 DUP4 GT PUSH2 0x4AF JUMPI DUP3 SWAP1 SUB PUSH1 0x1F AND DUP3 ADD SWAP2 JUMPDEST POP POP POP POP POP SWAP1 DUP1 PUSH1 0x4 ADD SLOAD SWAP1 DUP1 PUSH1 0x5 ADD SLOAD SWAP1 DUP1 PUSH1 0x7 ADD PUSH0 SWAP1 SLOAD SWAP1 PUSH2 0x100 EXP SWAP1 DIV PUSH1 0xFF AND SWAP1 POP DUP8 JUMP JUMPDEST PUSH0 PUSH0 SWAP1 SLOAD SWAP1 PUSH2 0x100 EXP SWAP1 DIV PUSH20 0xFFFFFFFFFFFFFFFFFFFFFFFFFFFFFFFFFFFFFFFF AND PUSH20 0xFFFFFFFFFFFFFFFFFFFFFFFFFFFFFFFFFFFFFFFF AND CALLER PUSH20 0xFFFFFFFFFFFFFFFFFFFFFFFFFFFFFFFFFFFFFFFF AND SUB PUSH2 0x582 JUMPI PUSH1 0x40 MLOAD PUSH32 0x8C379A000000000000000000000000000000000000000000000000000000000 DUP2 MSTORE PUSH1 0x4 ADD PUSH2 0x579 SWAP1 PUSH2 0x2C8E JUMP JUMPDEST PUSH1 0x40 MLOAD DUP1 SWAP2 SUB SWAP1 REVERT JUMPDEST PUSH0 PUSH1 0x1 DUP1 DUP2 PUSH1 0x1 DUP2 SLOAD ADD DUP1 DUP3 SSTORE DUP1 SWAP2 POP POP SUB SWAP1 PUSH0 MSTORE PUSH1 0x20 PUSH0 KECCAK256 SWAP1 PUSH1 0x8 MUL ADD SWAP1 POP CALLER DUP2 PUSH0 ADD PUSH0 PUSH2 0x100 EXP DUP2 SLOAD DUP2 PUSH20 0xFFFFFFFFFFFFFFFFFFFFFFFFFFFFFFFFFFFFFFFF MUL NOT AND SWAP1 DUP4 PUSH20 0xFFFFFFFFFFFFFFFFFFFFFFFFFFFFFFFFFFFFFFFF AND MUL OR SWAP1 SSTORE POP DUP5 DUP2 PUSH1 0x1 ADD SWAP1 DUP2 PUSH2 0x5F4 SWAP2 SWAP1 PUSH2 0x2E4C JUMP JUMPDEST POP DUP4 DUP2 PUSH1 0x2 ADD SWAP1 DUP2 PUSH2 0x606 SWAP2 SWAP1 PUSH2 0x2E4C JUMP JUMPDEST POP DUP3 DUP2 PUSH1 0x3 ADD SWAP1 DUP2 PUSH2 0x618 SWAP2 SWAP1 PUSH2 0x2E4C JUMP JUMPDEST POP PUSH0 DUP2 PUSH1 0x4 ADD DUP2 SWAP1 SSTORE POP PUSH0 DUP2 PUSH1 0x5 ADD DUP2 SWAP1 SSTORE POP PUSH1 0x1 DUP2 PUSH1 0x7 ADD PUSH0 PUSH2 0x100 EXP DUP2 SLOAD DUP2 PUSH1 0xFF MUL NOT AND SWAP1 DUP4 ISZERO ISZERO MUL OR SWAP1 SSTORE POP PUSH2 0x661 PUSH1 0x1 DUP1 DUP1 SLOAD SWAP1 POP PUSH2 0x65B SWAP2 SWAP1 PUSH2 0x2F48 JUMP JUMPDEST DUP4 PUSH2 0x113D JUMP JUMPDEST PUSH32 0x1AC2092E16E28EEF29D1832F3DC69DA1B21284A1F3159D3B26CB238B22FE4F8A PUSH1 0x1 DUP1 DUP1 SLOAD SWAP1 POP PUSH2 0x693 SWAP2 SWAP1 PUSH2 0x2F48 JUMP JUMPDEST PUSH1 0x40 MLOAD PUSH2 0x6A0 SWAP2 SWAP1 PUSH2 0x2F7B JUMP JUMPDEST PUSH1 0x40 MLOAD DUP1 SWAP2 SUB SWAP1 LOG1 POP POP POP POP POP JUMP JUMPDEST PUSH1 0x60 PUSH0 PUSH1 0x1 DUP4 DUP2 SLOAD DUP2 LT PUSH2 0x6C6 JUMPI PUSH2 0x6C5 PUSH2 0x2F94 JUMP JUMPDEST JUMPDEST SWAP1 PUSH0 MSTORE PUSH1 0x20 PUSH0 KECCAK256 SWAP1 PUSH1 0x8 MUL ADD SWAP1 POP PUSH0 DUP2 PUSH1 0x6 ADD DUP3 PUSH1 0x5 ADD SLOAD DUP2 SLOAD DUP2 LT PUSH2 0x6EF JUMPI PUSH2 0x6EE PUSH2 0x2F94 JUMP JUMPDEST JUMPDEST SWAP1 PUSH0 MSTORE PUSH1 0x20 PUSH0 KECCAK256 SWAP1 PUSH1 0x6 MUL ADD SWAP1 POP DUP1 PUSH1 0x3 ADD DUP1 SLOAD DUP1 PUSH1 0x20 MUL PUSH1 0x20 ADD PUSH1 0x40 MLOAD SWAP1 DUP2 ADD PUSH1 0x40 MSTORE DUP1 SWAP3 SWAP2 SWAP1 DUP2 DUP2 MSTORE PUSH1 0x20 ADD DUP3 DUP1 SLOAD DUP1 ISZERO PUSH2 0x77E JUMPI PUSH1 0x20 MUL DUP3 ADD SWAP2 SWAP1 PUSH0 MSTORE PUSH1 0x20 PUSH0 KECCAK256 SWAP1 JUMPDEST DUP2 PUSH0 SWAP1 SLOAD SWAP1 PUSH2 0x100 EXP SWAP1 DIV PUSH20 0xFFFFFFFFFFFFFFFFFFFFFFFFFFFFFFFFFFFFFFFF AND PUSH20 0xFFFFFFFFFFFFFFFFFFFFFFFFFFFFFFFFFFFFFFFF AND DUP2 MSTORE PUSH1 0x20 ADD SWAP1 PUSH1 0x1 ADD SWAP1 DUP1 DUP4 GT PUSH2 0x735 JUMPI JUMPDEST POP POP POP POP POP SWAP3 POP POP POP SWAP2 SWAP1 POP JUMP JUMPDEST PUSH1 0x1 DUP1 SLOAD SWAP1 POP DUP2 LT PUSH2 0x7D3 JUMPI PUSH1 0x40 MLOAD PUSH32 0x8C379A000000000000000000000000000000000000000000000000000000000 DUP2 MSTORE PUSH1 0x4 ADD PUSH2 0x7CA SWAP1 PUSH2 0x300B JUMP JUMPDEST PUSH1 0x40 MLOAD DUP1 SWAP2 SUB SWAP1 REVERT JUMPDEST PUSH0 PUSH1 0x1 DUP3 DUP2 SLOAD DUP2 LT PUSH2 0x7E8 JUMPI PUSH2 0x7E7 PUSH2 0x2F94 JUMP JUMPDEST JUMPDEST SWAP1 PUSH0 MSTORE PUSH1 0x20 PUSH0 KECCAK256 SWAP1 PUSH1 0x8 MUL ADD SWAP1 POP DUP1 PUSH1 0x7 ADD PUSH0 SWAP1 SLOAD SWAP1 PUSH2 0x100 EXP SWAP1 DIV PUSH1 0xFF AND PUSH2 0x846 JUMPI PUSH1 0x40 MLOAD PUSH32 0x8C379A000000000000000000000000000000000000000000000000000000000 DUP2 MSTORE PUSH1 0x4 ADD PUSH2 0x83D SWAP1 PUSH2 0x3073 JUMP JUMPDEST PUSH1 0x40 MLOAD DUP1 SWAP2 SUB SWAP1 REVERT JUMPDEST PUSH0 DUP2 PUSH1 0x6 ADD DUP3 PUSH1 0x5 ADD SLOAD DUP2 SLOAD DUP2 LT PUSH2 0x861 JUMPI PUSH2 0x860 PUSH2 0x2F94 JUMP JUMPDEST JUMPDEST SWAP1 PUSH0 MSTORE PUSH1 0x20 PUSH0 KECCAK256 SWAP1 PUSH1 0x6 MUL ADD SWAP1 POP DUP1 PUSH1 0x5 ADD PUSH0 SWAP1 SLOAD SWAP1 PUSH2 0x100 EXP SWAP1 DIV PUSH1 0xFF AND ISZERO PUSH2 0x8C0 JUMPI PUSH1 0x40 MLOAD PUSH32 0x8C379A000000000000000000000000000000000000000000000000000000000 DUP2 MSTORE PUSH1 0x4 ADD PUSH2 0x8B7 SWAP1 PUSH2 0x30DB JUMP JUMPDEST PUSH1 0x40 MLOAD DUP1 SWAP2 SUB SWAP1 REVERT JUMPDEST PUSH32 0x3F9EE693372748925082C0C5BA09ECFFC5FDDFEECF993BECFF877EAC8A1E08BC DUP2 PUSH0 ADD PUSH1 0x1 ADD SLOAD DUP3 PUSH0 ADD PUSH0 ADD SLOAD DUP5 PUSH1 0x4 ADD SLOAD DUP5 PUSH1 0x2 ADD SLOAD PUSH1 0x40 MLOAD PUSH2 0x908 SWAP5 SWAP4 SWAP3 SWAP2 SWAP1 PUSH2 0x30F9 JUMP JUMPDEST PUSH1 0x40 MLOAD DUP1 SWAP2 SUB SWAP1 LOG1 POP POP POP JUMP JUMPDEST PUSH1 0x1 DUP1 SLOAD SWAP1 POP DUP2 LT PUSH2 0x95C JUMPI PUSH1 0x40 MLOAD PUSH32 0x8C379A000000000000000000000000000000000000000000000000000000000 DUP2 MSTORE PUSH1 0x4 ADD PUSH2 0x953 SWAP1 PUSH2 0x3186 JUMP JUMPDEST PUSH1 0x40 MLOAD DUP1 SWAP2 SUB SWAP1 REVERT JUMPDEST CALLER PUSH20 0xFFFFFFFFFFFFFFFFFFFFFFFFFFFFFFFFFFFFFFFF AND BALANCE CALLVALUE GT ISZERO PUSH2 0x9B6 JUMPI PUSH1 0x40 MLOAD PUSH32 0x8C379A000000000000000000000000000000000000000000000000000000000 DUP2 MSTORE PUSH1 0x4 ADD PUSH2 0x9AD SWAP1 PUSH2 0x3214 JUMP JUMPDEST PUSH1 0x40 MLOAD DUP1 SWAP2 SUB SWAP1 REVERT JUMPDEST PUSH0 CALLVALUE GT PUSH2 0x9F8 JUMPI PUSH1 0x40 MLOAD PUSH32 0x8C379A000000000000000000000000000000000000000000000000000000000 DUP2 MSTORE PUSH1 0x4 ADD PUSH2 0x9EF SWAP1 PUSH2 0x327C JUMP JUMPDEST PUSH1 0x40 MLOAD DUP1 SWAP2 SUB SWAP1 REVERT JUMPDEST PUSH0 PUSH1 0x1 DUP3 DUP2 SLOAD DUP2 LT PUSH2 0xA0D JUMPI PUSH2 0xA0C PUSH2 0x2F94 JUMP JUMPDEST JUMPDEST SWAP1 PUSH0 MSTORE PUSH1 0x20 PUSH0 KECCAK256 SWAP1 PUSH1 0x8 MUL ADD SWAP1 POP DUP1 PUSH1 0x7 ADD PUSH0 SWAP1 SLOAD SWAP1 PUSH2 0x100 EXP SWAP1 DIV PUSH1 0xFF AND PUSH2 0xA6B JUMPI PUSH1 0x40 MLOAD PUSH32 0x8C379A000000000000000000000000000000000000000000000000000000000 DUP2 MSTORE PUSH1 0x4 ADD PUSH2 0xA62 SWAP1 PUSH2 0x32E4 JUMP JUMPDEST PUSH1 0x40 MLOAD DUP1 SWAP2 SUB SWAP1 REVERT JUMPDEST PUSH0 DUP2 PUSH1 0x6 ADD DUP3 PUSH1 0x5 ADD SLOAD DUP2 SLOAD DUP2 LT PUSH2 0xA86 JUMPI PUSH2 0xA85 PUSH2 0x2F94 JUMP JUMPDEST JUMPDEST SWAP1 PUSH0 MSTORE PUSH1 0x20 PUSH0 KECCAK256 SWAP1 PUSH1 0x6 MUL ADD SWAP1 POP TIMESTAMP DUP2 PUSH0 ADD PUSH1 0x1 ADD SLOAD GT PUSH2 0xADC JUMPI PUSH1 0x40 MLOAD PUSH32 0x8C379A000000000000000000000000000000000000000000000000000000000 DUP2 MSTORE PUSH1 0x4 ADD PUSH2 0xAD3 SWAP1 PUSH2 0x334C JUMP JUMPDEST PUSH1 0x40 MLOAD DUP1 SWAP2 SUB SWAP1 REVERT JUMPDEST PUSH0 DUP2 PUSH1 0x4 ADD PUSH0 CALLER PUSH20 0xFFFFFFFFFFFFFFFFFFFFFFFFFFFFFFFFFFFFFFFF AND PUSH20 0xFFFFFFFFFFFFFFFFFFFFFFFFFFFFFFFFFFFFFFFF AND DUP2 MSTORE PUSH1 0x20 ADD SWAP1 DUP2 MSTORE PUSH1 0x20 ADD PUSH0 KECCAK256 SLOAD SUB PUSH2 0xB85 JUMPI DUP1 PUSH1 0x3 ADD CALLER SWAP1 DUP1 PUSH1 0x1 DUP2 SLOAD ADD DUP1 DUP3 SSTORE DUP1 SWAP2 POP POP PUSH1 0x1 SWAP1 SUB SWAP1 PUSH0 MSTORE PUSH1 0x20 PUSH0 KECCAK256 ADD PUSH0 SWAP1 SWAP2 SWAP1 SWAP2 SWAP1 SWAP2 PUSH2 0x100 EXP DUP2 SLOAD DUP2 PUSH20 0xFFFFFFFFFFFFFFFFFFFFFFFFFFFFFFFFFFFFFFFF MUL NOT AND SWAP1 DUP4 PUSH20 0xFFFFFFFFFFFFFFFFFFFFFFFFFFFFFFFFFFFFFFFF AND MUL OR SWAP1 SSTORE POP JUMPDEST CALLVALUE DUP2 PUSH1 0x4 ADD PUSH0 CALLER PUSH20 0xFFFFFFFFFFFFFFFFFFFFFFFFFFFFFFFFFFFFFFFF AND PUSH20 0xFFFFFFFFFFFFFFFFFFFFFFFFFFFFFFFFFFFFFFFF AND DUP2 MSTORE PUSH1 0x20 ADD SWAP1 DUP2 MSTORE PUSH1 0x20 ADD PUSH0 KECCAK256 PUSH0 DUP3 DUP3 SLOAD PUSH2 0xBD3 SWAP2 SWAP1 PUSH2 0x336A JUMP JUMPDEST SWAP3 POP POP DUP2 SWAP1 SSTORE POP CALLVALUE DUP2 PUSH1 0x2 ADD PUSH0 DUP3 DUP3 SLOAD PUSH2 0xBED SWAP2 SWAP1 PUSH2 0x336A JUMP JUMPDEST SWAP3 POP POP DUP2 SWAP1 SSTORE POP CALLVALUE DUP3 PUSH1 0x4 ADD PUSH0 DUP3 DUP3 SLOAD PUSH2 0xC07 SWAP2 SWAP1 PUSH2 0x336A JUMP JUMPDEST SWAP3 POP POP DUP2 SWAP1 SSTORE POP JUMPDEST DUP1 PUSH0 ADD PUSH0 ADD SLOAD DUP3 PUSH1 0x4 ADD SLOAD GT ISZERO PUSH2 0xEB3 JUMPI PUSH0 DUP2 PUSH0 ADD PUSH0 ADD SLOAD DUP4 PUSH1 0x4 ADD SLOAD PUSH2 0xC36 SWAP2 SWAP1 PUSH2 0x2F48 JUMP JUMPDEST SWAP1 POP DUP2 PUSH0 ADD PUSH0 ADD SLOAD DUP3 PUSH1 0x2 ADD DUP2 SWAP1 SSTORE POP DUP2 PUSH0 ADD PUSH0 ADD SLOAD DUP4 PUSH1 0x4 ADD DUP2 SWAP1 SSTORE POP DUP1 DUP3 PUSH1 0x4 ADD PUSH0 CALLER PUSH20 0xFFFFFFFFFFFFFFFFFFFFFFFFFFFFFFFFFFFFFFFF AND PUSH20 0xFFFFFFFFFFFFFFFFFFFFFFFFFFFFFFFFFFFFFFFF AND DUP2 MSTORE PUSH1 0x20 ADD SWAP1 DUP2 MSTORE PUSH1 0x20 ADD PUSH0 KECCAK256 PUSH0 DUP3 DUP3 SLOAD PUSH2 0xCA2 SWAP2 SWAP1 PUSH2 0x2F48 JUMP JUMPDEST SWAP3 POP POP DUP2 SWAP1 SSTORE POP PUSH1 0x1 DUP4 PUSH1 0x6 ADD DUP1 SLOAD SWAP1 POP PUSH2 0xCBD SWAP2 SWAP1 PUSH2 0x2F48 JUMP JUMPDEST DUP4 PUSH1 0x5 ADD SLOAD SUB PUSH2 0xD90 JUMPI PUSH0 DUP4 PUSH1 0x7 ADD PUSH0 PUSH2 0x100 EXP DUP2 SLOAD DUP2 PUSH1 0xFF MUL NOT AND SWAP1 DUP4 ISZERO ISZERO MUL OR SWAP1 SSTORE POP PUSH0 CALLER PUSH20 0xFFFFFFFFFFFFFFFFFFFFFFFFFFFFFFFFFFFFFFFF AND DUP3 PUSH1 0x40 MLOAD PUSH2 0xD07 SWAP1 PUSH2 0x33CA JUMP JUMPDEST PUSH0 PUSH1 0x40 MLOAD DUP1 DUP4 SUB DUP2 DUP6 DUP8 GAS CALL SWAP3 POP POP POP RETURNDATASIZE DUP1 PUSH0 DUP2 EQ PUSH2 0xD41 JUMPI PUSH1 0x40 MLOAD SWAP2 POP PUSH1 0x1F NOT PUSH1 0x3F RETURNDATASIZE ADD AND DUP3 ADD PUSH1 0x40 MSTORE RETURNDATASIZE DUP3 MSTORE RETURNDATASIZE PUSH0 PUSH1 0x20 DUP5 ADD RETURNDATACOPY PUSH2 0xD46 JUMP JUMPDEST PUSH1 0x60 SWAP2 POP JUMPDEST POP POP SWAP1 POP DUP1 PUSH2 0xD8A JUMPI PUSH1 0x40 MLOAD PUSH32 0x8C379A000000000000000000000000000000000000000000000000000000000 DUP2 MSTORE PUSH1 0x4 ADD PUSH2 0xD81 SWAP1 PUSH2 0x3428 JUMP JUMPDEST PUSH1 0x40 MLOAD DUP1 SWAP2 SUB SWAP1 REVERT JUMPDEST POP PUSH2 0xEAD JUMP JUMPDEST PUSH2 0xD99 DUP5 PUSH2 0x1D36 JUMP JUMPDEST DUP3 PUSH1 0x6 ADD DUP4 PUSH1 0x5 ADD SLOAD DUP2 SLOAD DUP2 LT PUSH2 0xDB3 JUMPI PUSH2 0xDB2 PUSH2 0x2F94 JUMP JUMPDEST JUMPDEST SWAP1 PUSH0 MSTORE PUSH1 0x20 PUSH0 KECCAK256 SWAP1 PUSH1 0x6 MUL ADD SWAP2 POP DUP2 PUSH1 0x3 ADD CALLER SWAP1 DUP1 PUSH1 0x1 DUP2 SLOAD ADD DUP1 DUP3 SSTORE DUP1 SWAP2 POP POP PUSH1 0x1 SWAP1 SUB SWAP1 PUSH0 MSTORE PUSH1 0x20 PUSH0 KECCAK256 ADD PUSH0 SWAP1 SWAP2 SWAP1 SWAP2 SWAP1 SWAP2 PUSH2 0x100 EXP DUP2 SLOAD DUP2 PUSH20 0xFFFFFFFFFFFFFFFFFFFFFFFFFFFFFFFFFFFFFFFF MUL NOT AND SWAP1 DUP4 PUSH20 0xFFFFFFFFFFFFFFFFFFFFFFFFFFFFFFFFFFFFFFFF AND MUL OR SWAP1 SSTORE POP DUP1 DUP3 PUSH1 0x4 ADD PUSH0 CALLER PUSH20 0xFFFFFFFFFFFFFFFFFFFFFFFFFFFFFFFFFFFFFFFF AND PUSH20 0xFFFFFFFFFFFFFFFFFFFFFFFFFFFFFFFFFFFFFFFF AND DUP2 MSTORE PUSH1 0x20 ADD SWAP1 DUP2 MSTORE PUSH1 0x20 ADD PUSH0 KECCAK256 PUSH0 DUP3 DUP3 SLOAD PUSH2 0xE71 SWAP2 SWAP1 PUSH2 0x336A JUMP JUMPDEST SWAP3 POP POP DUP2 SWAP1 SSTORE POP DUP1 DUP3 PUSH1 0x2 ADD PUSH0 DUP3 DUP3 SLOAD PUSH2 0xE8B SWAP2 SWAP1 PUSH2 0x336A JUMP JUMPDEST SWAP3 POP POP DUP2 SWAP1 SSTORE POP DUP1 DUP4 PUSH1 0x4 ADD PUSH0 DUP3 DUP3 SLOAD PUSH2 0xEA5 SWAP2 SWAP1 PUSH2 0x336A JUMP JUMPDEST SWAP3 POP POP DUP2 SWAP1 SSTORE POP JUMPDEST POP PUSH2 0xC0F JUMP JUMPDEST PUSH32 0x17E2EFFA169C5DDE193942ABD21F6D49E7D32C15AB843DA440CB2ABDD10F1911 DUP4 CALLVALUE DUP5 PUSH1 0x4 ADD SLOAD DUP5 PUSH1 0x2 ADD SLOAD PUSH1 0x40 MLOAD PUSH2 0xEF0 SWAP5 SWAP4 SWAP3 SWAP2 SWAP1 PUSH2 0x30F9 JUMP JUMPDEST PUSH1 0x40 MLOAD DUP1 SWAP2 SUB SWAP1 LOG1 POP POP POP JUMP JUMPDEST PUSH0 PUSH0 SWAP1 SLOAD SWAP1 PUSH2 0x100 EXP SWAP1 DIV PUSH20 0xFFFFFFFFFFFFFFFFFFFFFFFFFFFFFFFFFFFFFFFF AND PUSH20 0xFFFFFFFFFFFFFFFFFFFFFFFFFFFFFFFFFFFFFFFF AND CALLER PUSH20 0xFFFFFFFFFFFFFFFFFFFFFFFFFFFFFFFFFFFFFFFF AND EQ DUP1 PUSH2 0xFC3 JUMPI POP PUSH1 0x1 DUP2 DUP2 SLOAD DUP2 LT PUSH2 0xF66 JUMPI PUSH2 0xF65 PUSH2 0x2F94 JUMP JUMPDEST JUMPDEST SWAP1 PUSH0 MSTORE PUSH1 0x20 PUSH0 KECCAK256 SWAP1 PUSH1 0x8 MUL ADD PUSH0 ADD PUSH0 SWAP1 SLOAD SWAP1 PUSH2 0x100 EXP SWAP1 DIV PUSH20 0xFFFFFFFFFFFFFFFFFFFFFFFFFFFFFFFFFFFFFFFF AND PUSH20 0xFFFFFFFFFFFFFFFFFFFFFFFFFFFFFFFFFFFFFFFF AND CALLER PUSH20 0xFFFFFFFFFFFFFFFFFFFFFFFFFFFFFFFFFFFFFFFF AND EQ JUMPDEST PUSH2 0x1002 JUMPI PUSH1 0x40 MLOAD PUSH32 0x8C379A000000000000000000000000000000000000000000000000000000000 DUP2 MSTORE PUSH1 0x4 ADD PUSH2 0xFF9 SWAP1 PUSH2 0x34B6 JUMP JUMPDEST PUSH1 0x40 MLOAD DUP1 SWAP2 SUB SWAP1 REVERT JUMPDEST PUSH2 0x100B DUP2 PUSH2 0x1EA0 JUMP JUMPDEST POP JUMP JUMPDEST PUSH0 PUSH0 SWAP1 SLOAD SWAP1 PUSH2 0x100 EXP SWAP1 DIV PUSH20 0xFFFFFFFFFFFFFFFFFFFFFFFFFFFFFFFFFFFFFFFF AND PUSH20 0xFFFFFFFFFFFFFFFFFFFFFFFFFFFFFFFFFFFFFFFF AND CALLER PUSH20 0xFFFFFFFFFFFFFFFFFFFFFFFFFFFFFFFFFFFFFFFF AND EQ PUSH2 0x109C JUMPI PUSH1 0x40 MLOAD PUSH32 0x8C379A000000000000000000000000000000000000000000000000000000000 DUP2 MSTORE PUSH1 0x4 ADD PUSH2 0x1093 SWAP1 PUSH2 0x3544 JUMP JUMPDEST PUSH1 0x40 MLOAD DUP1 SWAP2 SUB SWAP1 REVERT JUMPDEST PUSH0 PUSH0 SWAP1 POP JUMPDEST PUSH1 0x1 DUP1 SLOAD SWAP1 POP DUP2 LT ISZERO PUSH2 0x113A JUMPI PUSH0 PUSH1 0x1 DUP3 DUP2 SLOAD DUP2 LT PUSH2 0x10C3 JUMPI PUSH2 0x10C2 PUSH2 0x2F94 JUMP JUMPDEST JUMPDEST SWAP1 PUSH0 MSTORE PUSH1 0x20 PUSH0 KECCAK256 SWAP1 PUSH1 0x8 MUL ADD SWAP1 POP PUSH0 DUP2 PUSH1 0x6 ADD DUP3 PUSH1 0x5 ADD SLOAD DUP2 SLOAD DUP2 LT PUSH2 0x10EC JUMPI PUSH2 0x10EB PUSH2 0x2F94 JUMP JUMPDEST JUMPDEST SWAP1 PUSH0 MSTORE PUSH1 0x20 PUSH0 KECCAK256 SWAP1 PUSH1 0x6 MUL ADD SWAP1 POP DUP2 PUSH1 0x7 ADD PUSH0 SWAP1 SLOAD SWAP1 PUSH2 0x100 EXP SWAP1 DIV PUSH1 0xFF AND DUP1 ISZERO PUSH2 0x111C JUMPI POP TIMESTAMP DUP2 PUSH0 ADD PUSH1 0x1 ADD SLOAD LT JUMPDEST ISZERO PUSH2 0x112B JUMPI PUSH2 0x112A DUP4 PUSH2 0x1EA0 JUMP JUMPDEST JUMPDEST POP POP DUP1 DUP1 PUSH1 0x1 ADD SWAP2 POP POP PUSH2 0x10A1 JUMP JUMPDEST POP JUMP JUMPDEST PUSH1 0x1 DUP1 SLOAD SWAP1 POP DUP3 LT PUSH2 0x1184 JUMPI PUSH1 0x40 MLOAD PUSH32 0x8C379A000000000000000000000000000000000000000000000000000000000 DUP2 MSTORE PUSH1 0x4 ADD PUSH2 0x117B SWAP1 PUSH2 0x300B JUMP JUMPDEST PUSH1 0x40 MLOAD DUP1 SWAP2 SUB SWAP1 REVERT JUMPDEST PUSH0 PUSH1 0x1 DUP4 DUP2 SLOAD DUP2 LT PUSH2 0x1199 JUMPI PUSH2 0x1198 PUSH2 0x2F94 JUMP JUMPDEST JUMPDEST SWAP1 PUSH0 MSTORE PUSH1 0x20 PUSH0 KECCAK256 SWAP1 PUSH1 0x8 MUL ADD SWAP1 POP DUP1 PUSH1 0x7 ADD PUSH0 SWAP1 SLOAD SWAP1 PUSH2 0x100 EXP SWAP1 DIV PUSH1 0xFF AND PUSH2 0x11F7 JUMPI PUSH1 0x40 MLOAD PUSH32 0x8C379A000000000000000000000000000000000000000000000000000000000 DUP2 MSTORE PUSH1 0x4 ADD PUSH2 0x11EE SWAP1 PUSH2 0x35D2 JUMP JUMPDEST PUSH1 0x40 MLOAD DUP1 SWAP2 SUB SWAP1 REVERT JUMPDEST CALLER PUSH20 0xFFFFFFFFFFFFFFFFFFFFFFFFFFFFFFFFFFFFFFFF AND DUP2 PUSH0 ADD PUSH0 SWAP1 SLOAD SWAP1 PUSH2 0x100 EXP SWAP1 DIV PUSH20 0xFFFFFFFFFFFFFFFFFFFFFFFFFFFFFFFFFFFFFFFF AND PUSH20 0xFFFFFFFFFFFFFFFFFFFFFFFFFFFFFFFFFFFFFFFF AND EQ PUSH2 0x1287 JUMPI PUSH1 0x40 MLOAD PUSH32 0x8C379A000000000000000000000000000000000000000000000000000000000 DUP2 MSTORE PUSH1 0x4 ADD PUSH2 0x127E SWAP1 PUSH2 0x3660 JUMP JUMPDEST PUSH1 0x40 MLOAD DUP1 SWAP2 SUB SWAP1 REVERT JUMPDEST PUSH0 DUP3 MLOAD GT PUSH2 0x12CA JUMPI PUSH1 0x40 MLOAD PUSH32 0x8C379A000000000000000000000000000000000000000000000000000000000 DUP2 MSTORE PUSH1 0x4 ADD PUSH2 0x12C1 SWAP1 PUSH2 0x36C8 JUMP JUMPDEST PUSH1 0x40 MLOAD DUP1 SWAP2 SUB SWAP1 REVERT JUMPDEST PUSH0 PUSH0 SWAP1 POP JUMPDEST DUP3 MLOAD DUP2 LT ISZERO PUSH2 0x1699 JUMPI PUSH0 DUP4 DUP3 DUP2 MLOAD DUP2 LT PUSH2 0x12EC JUMPI PUSH2 0x12EB PUSH2 0x2F94 JUMP JUMPDEST JUMPDEST PUSH1 0x20 MUL PUSH1 0x20 ADD ADD MLOAD PUSH0 ADD MLOAD GT PUSH2 0x1337 JUMPI PUSH1 0x40 MLOAD PUSH32 0x8C379A000000000000000000000000000000000000000000000000000000000 DUP2 MSTORE PUSH1 0x4 ADD PUSH2 0x132E SWAP1 PUSH2 0x3730 JUMP JUMPDEST PUSH1 0x40 MLOAD DUP1 SWAP2 SUB SWAP1 REVERT JUMPDEST TIMESTAMP DUP4 DUP3 DUP2 MLOAD DUP2 LT PUSH2 0x134B JUMPI PUSH2 0x134A PUSH2 0x2F94 JUMP JUMPDEST JUMPDEST PUSH1 0x20 MUL PUSH1 0x20 ADD ADD MLOAD PUSH1 0x20 ADD MLOAD GT PUSH2 0x1397 JUMPI PUSH1 0x40 MLOAD PUSH32 0x8C379A000000000000000000000000000000000000000000000000000000000 DUP2 MSTORE PUSH1 0x4 ADD PUSH2 0x138E SWAP1 PUSH2 0x3798 JUMP JUMPDEST PUSH1 0x40 MLOAD DUP1 SWAP2 SUB SWAP1 REVERT JUMPDEST PUSH0 DUP2 GT ISZERO PUSH2 0x14B2 JUMPI DUP3 PUSH1 0x1 DUP3 PUSH2 0x13AD SWAP2 SWAP1 PUSH2 0x2F48 JUMP JUMPDEST DUP2 MLOAD DUP2 LT PUSH2 0x13BE JUMPI PUSH2 0x13BD PUSH2 0x2F94 JUMP JUMPDEST JUMPDEST PUSH1 0x20 MUL PUSH1 0x20 ADD ADD MLOAD PUSH0 ADD MLOAD DUP4 DUP3 DUP2 MLOAD DUP2 LT PUSH2 0x13DC JUMPI PUSH2 0x13DB PUSH2 0x2F94 JUMP JUMPDEST JUMPDEST PUSH1 0x20 MUL PUSH1 0x20 ADD ADD MLOAD PUSH0 ADD MLOAD GT PUSH2 0x1427 JUMPI PUSH1 0x40 MLOAD PUSH32 0x8C379A000000000000000000000000000000000000000000000000000000000 DUP2 MSTORE PUSH1 0x4 ADD PUSH2 0x141E SWAP1 PUSH2 0x3826 JUMP JUMPDEST PUSH1 0x40 MLOAD DUP1 SWAP2 SUB SWAP1 REVERT JUMPDEST DUP3 PUSH1 0x1 DUP3 PUSH2 0x1435 SWAP2 SWAP1 PUSH2 0x2F48 JUMP JUMPDEST DUP2 MLOAD DUP2 LT PUSH2 0x1446 JUMPI PUSH2 0x1445 PUSH2 0x2F94 JUMP JUMPDEST JUMPDEST PUSH1 0x20 MUL PUSH1 0x20 ADD ADD MLOAD PUSH1 0x20 ADD MLOAD DUP4 DUP3 DUP2 MLOAD DUP2 LT PUSH2 0x1465 JUMPI PUSH2 0x1464 PUSH2 0x2F94 JUMP JUMPDEST JUMPDEST PUSH1 0x20 MUL PUSH1 0x20 ADD ADD MLOAD PUSH1 0x20 ADD MLOAD GT PUSH2 0x14B1 JUMPI PUSH1 0x40 MLOAD PUSH32 0x8C379A000000000000000000000000000000000000000000000000000000000 DUP2 MSTORE PUSH1 0x4 ADD PUSH2 0x14A8 SWAP1 PUSH2 0x38B4 JUMP JUMPDEST PUSH1 0x40 MLOAD DUP1 SWAP2 SUB SWAP1 REVERT JUMPDEST JUMPDEST PUSH0 DUP3 PUSH1 0x6 ADD DUP1 SLOAD SWAP1 POP GT ISZERO PUSH2 0x15F4 JUMPI DUP2 PUSH1 0x6 ADD PUSH1 0x1 DUP4 PUSH1 0x6 ADD DUP1 SLOAD SWAP1 POP PUSH2 0x14D9 SWAP2 SWAP1 PUSH2 0x2F48 JUMP JUMPDEST DUP2 SLOAD DUP2 LT PUSH2 0x14EA JUMPI PUSH2 0x14E9 PUSH2 0x2F94 JUMP JUMPDEST JUMPDEST SWAP1 PUSH0 MSTORE PUSH1 0x20 PUSH0 KECCAK256 SWAP1 PUSH1 0x6 MUL ADD PUSH0 ADD PUSH0 ADD SLOAD DUP4 DUP3 DUP2 MLOAD DUP2 LT PUSH2 0x150E JUMPI PUSH2 0x150D PUSH2 0x2F94 JUMP JUMPDEST JUMPDEST PUSH1 0x20 MUL PUSH1 0x20 ADD ADD MLOAD PUSH0 ADD MLOAD GT PUSH2 0x1559 JUMPI PUSH1 0x40 MLOAD PUSH32 0x8C379A000000000000000000000000000000000000000000000000000000000 DUP2 MSTORE PUSH1 0x4 ADD PUSH2 0x1550 SWAP1 PUSH2 0x3826 JUMP JUMPDEST PUSH1 0x40 MLOAD DUP1 SWAP2 SUB SWAP1 REVERT JUMPDEST DUP2 PUSH1 0x6 ADD PUSH1 0x1 DUP4 PUSH1 0x6 ADD DUP1 SLOAD SWAP1 POP PUSH2 0x1571 SWAP2 SWAP1 PUSH2 0x2F48 JUMP JUMPDEST DUP2 SLOAD DUP2 LT PUSH2 0x1582 JUMPI PUSH2 0x1581 PUSH2 0x2F94 JUMP JUMPDEST JUMPDEST SWAP1 PUSH0 MSTORE PUSH1 0x20 PUSH0 KECCAK256 SWAP1 PUSH1 0x6 MUL ADD PUSH0 ADD PUSH1 0x1 ADD SLOAD DUP4 DUP3 DUP2 MLOAD DUP2 LT PUSH2 0x15A7 JUMPI PUSH2 0x15A6 PUSH2 0x2F94 JUMP JUMPDEST JUMPDEST PUSH1 0x20 MUL PUSH1 0x20 ADD ADD MLOAD PUSH1 0x20 ADD MLOAD GT PUSH2 0x15F3 JUMPI PUSH1 0x40 MLOAD PUSH32 0x8C379A000000000000000000000000000000000000000000000000000000000 DUP2 MSTORE PUSH1 0x4 ADD PUSH2 0x15EA SWAP1 PUSH2 0x38B4 JUMP JUMPDEST PUSH1 0x40 MLOAD DUP1 SWAP2 SUB SWAP1 REVERT JUMPDEST JUMPDEST PUSH0 DUP3 PUSH1 0x6 ADD PUSH1 0x1 DUP2 PUSH1 0x1 DUP2 SLOAD ADD DUP1 DUP3 SSTORE DUP1 SWAP2 POP POP SUB SWAP1 PUSH0 MSTORE PUSH1 0x20 PUSH0 KECCAK256 SWAP1 PUSH1 0x6 MUL ADD SWAP1 POP DUP4 DUP3 DUP2 MLOAD DUP2 LT PUSH2 0x162A JUMPI PUSH2 0x1629 PUSH2 0x2F94 JUMP JUMPDEST JUMPDEST PUSH1 0x20 MUL PUSH1 0x20 ADD ADD MLOAD PUSH0 ADD MLOAD DUP2 PUSH0 ADD PUSH0 ADD DUP2 SWAP1 SSTORE POP DUP4 DUP3 DUP2 MLOAD DUP2 LT PUSH2 0x1651 JUMPI PUSH2 0x1650 PUSH2 0x2F94 JUMP JUMPDEST JUMPDEST PUSH1 0x20 MUL PUSH1 0x20 ADD ADD MLOAD PUSH1 0x20 ADD MLOAD DUP2 PUSH0 ADD PUSH1 0x1 ADD DUP2 SWAP1 SSTORE POP PUSH0 DUP2 PUSH1 0x2 ADD DUP2 SWAP1 SSTORE POP PUSH0 DUP2 PUSH1 0x5 ADD PUSH0 PUSH2 0x100 EXP DUP2 SLOAD DUP2 PUSH1 0xFF MUL NOT AND SWAP1 DUP4 ISZERO ISZERO MUL OR SWAP1 SSTORE POP POP DUP1 DUP1 PUSH1 0x1 ADD SWAP2 POP POP PUSH2 0x12CF JUMP JUMPDEST POP POP POP POP JUMP JUMPDEST PUSH2 0x16A7 PUSH2 0x220D JUMP JUMPDEST PUSH1 0x1 DUP1 SLOAD SWAP1 POP DUP3 LT PUSH2 0x16EE JUMPI PUSH1 0x40 MLOAD PUSH32 0x8C379A000000000000000000000000000000000000000000000000000000000 DUP2 MSTORE PUSH1 0x4 ADD PUSH2 0x16E5 SWAP1 PUSH2 0x300B JUMP JUMPDEST PUSH1 0x40 MLOAD DUP1 SWAP2 SUB SWAP1 REVERT JUMPDEST PUSH0 PUSH1 0x1 DUP4 DUP2 SLOAD DUP2 LT PUSH2 0x1703 JUMPI PUSH2 0x1702 PUSH2 0x2F94 JUMP JUMPDEST JUMPDEST SWAP1 PUSH0 MSTORE PUSH1 0x20 PUSH0 KECCAK256 SWAP1 PUSH1 0x8 MUL ADD SWAP1 POP DUP1 PUSH1 0x6 ADD DUP2 PUSH1 0x5 ADD SLOAD DUP2 SLOAD DUP2 LT PUSH2 0x172B JUMPI PUSH2 0x172A PUSH2 0x2F94 JUMP JUMPDEST JUMPDEST SWAP1 PUSH0 MSTORE PUSH1 0x20 PUSH0 KECCAK256 SWAP1 PUSH1 0x6 MUL ADD PUSH0 ADD PUSH1 0x40 MLOAD DUP1 PUSH1 0x40 ADD PUSH1 0x40 MSTORE SWAP1 DUP2 PUSH0 DUP3 ADD SLOAD DUP2 MSTORE PUSH1 0x20 ADD PUSH1 0x1 DUP3 ADD SLOAD DUP2 MSTORE POP POP SWAP2 POP POP SWAP2 SWAP1 POP JUMP JUMPDEST PUSH1 0x60 PUSH1 0x1 DUP1 SLOAD SWAP1 POP DUP3 LT PUSH2 0x17A8 JUMPI PUSH1 0x40 MLOAD PUSH32 0x8C379A000000000000000000000000000000000000000000000000000000000 DUP2 MSTORE PUSH1 0x4 ADD PUSH2 0x179F SWAP1 PUSH2 0x300B JUMP JUMPDEST PUSH1 0x40 MLOAD DUP1 SWAP2 SUB SWAP1 REVERT JUMPDEST PUSH0 PUSH1 0x1 DUP4 DUP2 SLOAD DUP2 LT PUSH2 0x17BD JUMPI PUSH2 0x17BC PUSH2 0x2F94 JUMP JUMPDEST JUMPDEST SWAP1 PUSH0 MSTORE PUSH1 0x20 PUSH0 KECCAK256 SWAP1 PUSH1 0x8 MUL ADD SWAP1 POP PUSH0 DUP2 PUSH1 0x6 ADD DUP1 SLOAD SWAP1 POP PUSH8 0xFFFFFFFFFFFFFFFF DUP2 GT ISZERO PUSH2 0x17ED JUMPI PUSH2 0x17EC PUSH2 0x2460 JUMP JUMPDEST JUMPDEST PUSH1 0x40 MLOAD SWAP1 DUP1 DUP3 MSTORE DUP1 PUSH1 0x20 MUL PUSH1 0x20 ADD DUP3 ADD PUSH1 0x40 MSTORE DUP1 ISZERO PUSH2 0x1826 JUMPI DUP2 PUSH1 0x20 ADD JUMPDEST PUSH2 0x1813 PUSH2 0x220D JUMP JUMPDEST DUP2 MSTORE PUSH1 0x20 ADD SWAP1 PUSH1 0x1 SWAP1 SUB SWAP1 DUP2 PUSH2 0x180B JUMPI SWAP1 POP JUMPDEST POP SWAP1 POP PUSH0 PUSH0 SWAP1 POP JUMPDEST DUP3 PUSH1 0x6 ADD DUP1 SLOAD SWAP1 POP DUP2 LT ISZERO PUSH2 0x18AA JUMPI DUP3 PUSH1 0x6 ADD DUP2 DUP2 SLOAD DUP2 LT PUSH2 0x1853 JUMPI PUSH2 0x1852 PUSH2 0x2F94 JUMP JUMPDEST JUMPDEST SWAP1 PUSH0 MSTORE PUSH1 0x20 PUSH0 KECCAK256 SWAP1 PUSH1 0x6 MUL ADD PUSH0 ADD PUSH1 0x40 MLOAD DUP1 PUSH1 0x40 ADD PUSH1 0x40 MSTORE SWAP1 DUP2 PUSH0 DUP3 ADD SLOAD DUP2 MSTORE PUSH1 0x20 ADD PUSH1 0x1 DUP3 ADD SLOAD DUP2 MSTORE POP POP DUP3 DUP3 DUP2 MLOAD DUP2 LT PUSH2 0x1892 JUMPI PUSH2 0x1891 PUSH2 0x2F94 JUMP JUMPDEST JUMPDEST PUSH1 0x20 MUL PUSH1 0x20 ADD ADD DUP2 SWAP1 MSTORE POP DUP1 DUP1 PUSH1 0x1 ADD SWAP2 POP POP PUSH2 0x182E JUMP JUMPDEST POP DUP1 SWAP3 POP POP POP SWAP2 SWAP1 POP JUMP JUMPDEST PUSH1 0x60 PUSH0 PUSH0 SWAP1 POP PUSH0 PUSH0 SWAP1 POP JUMPDEST PUSH1 0x1 DUP1 SLOAD SWAP1 POP DUP2 LT ISZERO PUSH2 0x191E JUMPI PUSH1 0x1 DUP2 DUP2 SLOAD DUP2 LT PUSH2 0x18E1 JUMPI PUSH2 0x18E0 PUSH2 0x2F94 JUMP JUMPDEST JUMPDEST SWAP1 PUSH0 MSTORE PUSH1 0x20 PUSH0 KECCAK256 SWAP1 PUSH1 0x8 MUL ADD PUSH1 0x7 ADD PUSH0 SWAP1 SLOAD SWAP1 PUSH2 0x100 EXP SWAP1 DIV PUSH1 0xFF AND ISZERO PUSH2 0x1911 JUMPI DUP2 DUP1 PUSH2 0x190D SWAP1 PUSH2 0x38D2 JUMP JUMPDEST SWAP3 POP POP JUMPDEST DUP1 DUP1 PUSH1 0x1 ADD SWAP2 POP POP PUSH2 0x18C0 JUMP JUMPDEST POP PUSH0 DUP2 PUSH8 0xFFFFFFFFFFFFFFFF DUP2 GT ISZERO PUSH2 0x193A JUMPI PUSH2 0x1939 PUSH2 0x2460 JUMP JUMPDEST JUMPDEST PUSH1 0x40 MLOAD SWAP1 DUP1 DUP3 MSTORE DUP1 PUSH1 0x20 MUL PUSH1 0x20 ADD DUP3 ADD PUSH1 0x40 MSTORE DUP1 ISZERO PUSH2 0x1973 JUMPI DUP2 PUSH1 0x20 ADD JUMPDEST PUSH2 0x1960 PUSH2 0x2225 JUMP JUMPDEST DUP2 MSTORE PUSH1 0x20 ADD SWAP1 PUSH1 0x1 SWAP1 SUB SWAP1 DUP2 PUSH2 0x1958 JUMPI SWAP1 POP JUMPDEST POP SWAP1 POP PUSH0 PUSH0 SWAP1 POP PUSH0 PUSH0 SWAP1 POP JUMPDEST PUSH1 0x1 DUP1 SLOAD SWAP1 POP DUP2 LT ISZERO PUSH2 0x1D2C JUMPI PUSH1 0x1 DUP2 DUP2 SLOAD DUP2 LT PUSH2 0x19A0 JUMPI PUSH2 0x199F PUSH2 0x2F94 JUMP JUMPDEST JUMPDEST SWAP1 PUSH0 MSTORE PUSH1 0x20 PUSH0 KECCAK256 SWAP1 PUSH1 0x8 MUL ADD PUSH1 0x7 ADD PUSH0 SWAP1 SLOAD SWAP1 PUSH2 0x100 EXP SWAP1 DIV PUSH1 0xFF AND ISZERO PUSH2 0x1D1F JUMPI PUSH2 0x19C9 PUSH2 0x2225 JUMP JUMPDEST PUSH1 0x1 DUP3 DUP2 SLOAD DUP2 LT PUSH2 0x19DD JUMPI PUSH2 0x19DC PUSH2 0x2F94 JUMP JUMPDEST JUMPDEST SWAP1 PUSH0 MSTORE PUSH1 0x20 PUSH0 KECCAK256 SWAP1 PUSH1 0x8 MUL ADD PUSH0 ADD PUSH0 SWAP1 SLOAD SWAP1 PUSH2 0x100 EXP SWAP1 DIV PUSH20 0xFFFFFFFFFFFFFFFFFFFFFFFFFFFFFFFFFFFFFFFF AND DUP2 PUSH0 ADD SWAP1 PUSH20 0xFFFFFFFFFFFFFFFFFFFFFFFFFFFFFFFFFFFFFFFF AND SWAP1 DUP2 PUSH20 0xFFFFFFFFFFFFFFFFFFFFFFFFFFFFFFFFFFFFFFFF AND DUP2 MSTORE POP POP PUSH1 0x1 DUP3 DUP2 SLOAD DUP2 LT PUSH2 0x1A55 JUMPI PUSH2 0x1A54 PUSH2 0x2F94 JUMP JUMPDEST JUMPDEST SWAP1 PUSH0 MSTORE PUSH1 0x20 PUSH0 KECCAK256 SWAP1 PUSH1 0x8 MUL ADD PUSH1 0x1 ADD DUP1 SLOAD PUSH2 0x1A6F SWAP1 PUSH2 0x2BEE JUMP JUMPDEST DUP1 PUSH1 0x1F ADD PUSH1 0x20 DUP1 SWAP2 DIV MUL PUSH1 0x20 ADD PUSH1 0x40 MLOAD SWAP1 DUP2 ADD PUSH1 0x40 MSTORE DUP1 SWAP3 SWAP2 SWAP1 DUP2 DUP2 MSTORE PUSH1 0x20 ADD DUP3 DUP1 SLOAD PUSH2 0x1A9B SWAP1 PUSH2 0x2BEE JUMP JUMPDEST DUP1 ISZERO PUSH2 0x1AE6 JUMPI DUP1 PUSH1 0x1F LT PUSH2 0x1ABD JUMPI PUSH2 0x100 DUP1 DUP4 SLOAD DIV MUL DUP4 MSTORE SWAP2 PUSH1 0x20 ADD SWAP2 PUSH2 0x1AE6 JUMP JUMPDEST DUP3 ADD SWAP2 SWAP1 PUSH0 MSTORE PUSH1 0x20 PUSH0 KECCAK256 SWAP1 JUMPDEST DUP2 SLOAD DUP2 MSTORE SWAP1 PUSH1 0x1 ADD SWAP1 PUSH1 0x20 ADD DUP1 DUP4 GT PUSH2 0x1AC9 JUMPI DUP3 SWAP1 SUB PUSH1 0x1F AND DUP3 ADD SWAP2 JUMPDEST POP POP POP POP POP DUP2 PUSH1 0x20 ADD DUP2 SWAP1 MSTORE POP PUSH1 0x1 DUP3 DUP2 SLOAD DUP2 LT PUSH2 0x1B07 JUMPI PUSH2 0x1B06 PUSH2 0x2F94 JUMP JUMPDEST JUMPDEST SWAP1 PUSH0 MSTORE PUSH1 0x20 PUSH0 KECCAK256 SWAP1 PUSH1 0x8 MUL ADD PUSH1 0x2 ADD DUP1 SLOAD PUSH2 0x1B21 SWAP1 PUSH2 0x2BEE JUMP JUMPDEST DUP1 PUSH1 0x1F ADD PUSH1 0x20 DUP1 SWAP2 DIV MUL PUSH1 0x20 ADD PUSH1 0x40 MLOAD SWAP1 DUP2 ADD PUSH1 0x40 MSTORE DUP1 SWAP3 SWAP2 SWAP1 DUP2 DUP2 MSTORE PUSH1 0x20 ADD DUP3 DUP1 SLOAD PUSH2 0x1B4D SWAP1 PUSH2 0x2BEE JUMP JUMPDEST DUP1 ISZERO PUSH2 0x1B98 JUMPI DUP1 PUSH1 0x1F LT PUSH2 0x1B6F JUMPI PUSH2 0x100 DUP1 DUP4 SLOAD DIV MUL DUP4 MSTORE SWAP2 PUSH1 0x20 ADD SWAP2 PUSH2 0x1B98 JUMP JUMPDEST DUP3 ADD SWAP2 SWAP1 PUSH0 MSTORE PUSH1 0x20 PUSH0 KECCAK256 SWAP1 JUMPDEST DUP2 SLOAD DUP2 MSTORE SWAP1 PUSH1 0x1 ADD SWAP1 PUSH1 0x20 ADD DUP1 DUP4 GT PUSH2 0x1B7B JUMPI DUP3 SWAP1 SUB PUSH1 0x1F AND DUP3 ADD SWAP2 JUMPDEST POP POP POP POP POP DUP2 PUSH1 0x40 ADD DUP2 SWAP1 MSTORE POP PUSH1 0x1 DUP3 DUP2 SLOAD DUP2 LT PUSH2 0x1BB9 JUMPI PUSH2 0x1BB8 PUSH2 0x2F94 JUMP JUMPDEST JUMPDEST SWAP1 PUSH0 MSTORE PUSH1 0x20 PUSH0 KECCAK256 SWAP1 PUSH1 0x8 MUL ADD PUSH1 0x3 ADD DUP1 SLOAD PUSH2 0x1BD3 SWAP1 PUSH2 0x2BEE JUMP JUMPDEST DUP1 PUSH1 0x1F ADD PUSH1 0x20 DUP1 SWAP2 DIV MUL PUSH1 0x20 ADD PUSH1 0x40 MLOAD SWAP1 DUP2 ADD PUSH1 0x40 MSTORE DUP1 SWAP3 SWAP2 SWAP1 DUP2 DUP2 MSTORE PUSH1 0x20 ADD DUP3 DUP1 SLOAD PUSH2 0x1BFF SWAP1 PUSH2 0x2BEE JUMP JUMPDEST DUP1 ISZERO PUSH2 0x1C4A JUMPI DUP1 PUSH1 0x1F LT PUSH2 0x1C21 JUMPI PUSH2 0x100 DUP1 DUP4 SLOAD DIV MUL DUP4 MSTORE SWAP2 PUSH1 0x20 ADD SWAP2 PUSH2 0x1C4A JUMP JUMPDEST DUP3 ADD SWAP2 SWAP1 PUSH0 MSTORE PUSH1 0x20 PUSH0 KECCAK256 SWAP1 JUMPDEST DUP2 SLOAD DUP2 MSTORE SWAP1 PUSH1 0x1 ADD SWAP1 PUSH1 0x20 ADD DUP1 DUP4 GT PUSH2 0x1C2D JUMPI DUP3 SWAP1 SUB PUSH1 0x1F AND DUP3 ADD SWAP2 JUMPDEST POP POP POP POP POP DUP2 PUSH1 0x60 ADD DUP2 SWAP1 MSTORE POP PUSH1 0x1 DUP3 DUP2 SLOAD DUP2 LT PUSH2 0x1C6B JUMPI PUSH2 0x1C6A PUSH2 0x2F94 JUMP JUMPDEST JUMPDEST SWAP1 PUSH0 MSTORE PUSH1 0x20 PUSH0 KECCAK256 SWAP1 PUSH1 0x8 MUL ADD PUSH1 0x4 ADD SLOAD DUP2 PUSH1 0x80 ADD DUP2 DUP2 MSTORE POP POP PUSH1 0x1 DUP3 DUP2 SLOAD DUP2 LT PUSH2 0x1C98 JUMPI PUSH2 0x1C97 PUSH2 0x2F94 JUMP JUMPDEST JUMPDEST SWAP1 PUSH0 MSTORE PUSH1 0x20 PUSH0 KECCAK256 SWAP1 PUSH1 0x8 MUL ADD PUSH1 0x5 ADD SLOAD DUP2 PUSH1 0xA0 ADD DUP2 DUP2 MSTORE POP POP PUSH1 0x1 DUP3 DUP2 SLOAD DUP2 LT PUSH2 0x1CC5 JUMPI PUSH2 0x1CC4 PUSH2 0x2F94 JUMP JUMPDEST JUMPDEST SWAP1 PUSH0 MSTORE PUSH1 0x20 PUSH0 KECCAK256 SWAP1 PUSH1 0x8 MUL ADD PUSH1 0x7 ADD PUSH0 SWAP1 SLOAD SWAP1 PUSH2 0x100 EXP SWAP1 DIV PUSH1 0xFF AND DUP2 PUSH1 0xC0 ADD SWAP1 ISZERO ISZERO SWAP1 DUP2 ISZERO ISZERO DUP2 MSTORE POP POP DUP1 DUP5 DUP5 DUP2 MLOAD DUP2 LT PUSH2 0x1D04 JUMPI PUSH2 0x1D03 PUSH2 0x2F94 JUMP JUMPDEST JUMPDEST PUSH1 0x20 MUL PUSH1 0x20 ADD ADD DUP2 SWAP1 MSTORE POP DUP3 DUP1 PUSH2 0x1D1A SWAP1 PUSH2 0x38D2 JUMP JUMPDEST SWAP4 POP POP POP JUMPDEST DUP1 DUP1 PUSH1 0x1 ADD SWAP2 POP POP PUSH2 0x197F JUMP JUMPDEST POP DUP2 SWAP4 POP POP POP POP SWAP1 JUMP JUMPDEST PUSH0 PUSH1 0x1 DUP3 DUP2 SLOAD DUP2 LT PUSH2 0x1D4B JUMPI PUSH2 0x1D4A PUSH2 0x2F94 JUMP JUMPDEST JUMPDEST SWAP1 PUSH0 MSTORE PUSH1 0x20 PUSH0 KECCAK256 SWAP1 PUSH1 0x8 MUL ADD SWAP1 POP PUSH0 DUP2 PUSH1 0x6 ADD DUP3 PUSH1 0x5 ADD SLOAD DUP2 SLOAD DUP2 LT PUSH2 0x1D74 JUMPI PUSH2 0x1D73 PUSH2 0x2F94 JUMP JUMPDEST JUMPDEST SWAP1 PUSH0 MSTORE PUSH1 0x20 PUSH0 KECCAK256 SWAP1 PUSH1 0x6 MUL ADD SWAP1 POP PUSH0 DUP2 PUSH1 0x2 ADD SLOAD SWAP1 POP PUSH0 DUP4 PUSH1 0x5 ADD SLOAD GT ISZERO PUSH2 0x1DDA JUMPI DUP3 PUSH1 0x6 ADD PUSH1 0x1 DUP5 PUSH1 0x5 ADD SLOAD PUSH2 0x1DAB SWAP2 SWAP1 PUSH2 0x2F48 JUMP JUMPDEST DUP2 SLOAD DUP2 LT PUSH2 0x1DBC JUMPI PUSH2 0x1DBB PUSH2 0x2F94 JUMP JUMPDEST JUMPDEST SWAP1 PUSH0 MSTORE PUSH1 0x20 PUSH0 KECCAK256 SWAP1 PUSH1 0x6 MUL ADD PUSH1 0x2 ADD SLOAD DUP2 PUSH2 0x1DD7 SWAP2 SWAP1 PUSH2 0x2F48 JUMP JUMPDEST SWAP1 POP JUMPDEST DUP2 PUSH0 ADD PUSH0 ADD SLOAD DUP4 PUSH1 0x4 ADD SLOAD LT PUSH2 0x1E90 JUMPI PUSH1 0x1 DUP3 PUSH1 0x5 ADD PUSH0 PUSH2 0x100 EXP DUP2 SLOAD DUP2 PUSH1 0xFF MUL NOT AND SWAP1 DUP4 ISZERO ISZERO MUL OR SWAP1 SSTORE POP PUSH2 0x1E32 DUP4 PUSH0 ADD PUSH0 SWAP1 SLOAD SWAP1 PUSH2 0x100 EXP SWAP1 DIV PUSH20 0xFFFFFFFFFFFFFFFFFFFFFFFFFFFFFFFFFFFFFFFF AND DUP3 PUSH2 0x1F40 JUMP JUMPDEST PUSH1 0x1 DUP4 PUSH1 0x6 ADD DUP1 SLOAD SWAP1 POP PUSH2 0x1E46 SWAP2 SWAP1 PUSH2 0x2F48 JUMP JUMPDEST DUP4 PUSH1 0x5 ADD SLOAD LT ISZERO PUSH2 0x1E6F JUMPI DUP3 PUSH1 0x5 ADD PUSH0 DUP2 SLOAD DUP1 SWAP3 SWAP2 SWAP1 PUSH2 0x1E65 SWAP1 PUSH2 0x38D2 JUMP JUMPDEST SWAP2 SWAP1 POP SSTORE POP PUSH2 0x1E8B JUMP JUMPDEST PUSH0 DUP4 PUSH1 0x7 ADD PUSH0 PUSH2 0x100 EXP DUP2 SLOAD DUP2 PUSH1 0xFF MUL NOT AND SWAP1 DUP4 ISZERO ISZERO MUL OR SWAP1 SSTORE POP JUMPDEST PUSH2 0x1E9A JUMP JUMPDEST PUSH2 0x1E99 DUP5 PUSH2 0x1EA0 JUMP JUMPDEST JUMPDEST POP POP POP POP JUMP JUMPDEST PUSH0 PUSH1 0x1 DUP3 DUP2 SLOAD DUP2 LT PUSH2 0x1EB5 JUMPI PUSH2 0x1EB4 PUSH2 0x2F94 JUMP JUMPDEST JUMPDEST SWAP1 PUSH0 MSTORE PUSH1 0x20 PUSH0 KECCAK256 SWAP1 PUSH1 0x8 MUL ADD SWAP1 POP DUP1 PUSH1 0x7 ADD PUSH0 SWAP1 SLOAD SWAP1 PUSH2 0x100 EXP SWAP1 DIV PUSH1 0xFF AND PUSH2 0x1F13 JUMPI PUSH1 0x40 MLOAD PUSH32 0x8C379A000000000000000000000000000000000000000000000000000000000 DUP2 MSTORE PUSH1 0x4 ADD PUSH2 0x1F0A SWAP1 PUSH2 0x3963 JUMP JUMPDEST PUSH1 0x40 MLOAD DUP1 SWAP2 SUB SWAP1 REVERT JUMPDEST PUSH0 DUP2 PUSH1 0x7 ADD PUSH0 PUSH2 0x100 EXP DUP2 SLOAD DUP2 PUSH1 0xFF MUL NOT AND SWAP1 DUP4 ISZERO ISZERO MUL OR SWAP1 SSTORE POP PUSH2 0x1F3C DUP3 DUP3 PUSH1 0x5 ADD SLOAD PUSH2 0x1FED JUMP JUMPDEST POP POP JUMP JUMPDEST PUSH0 DUP3 PUSH20 0xFFFFFFFFFFFFFFFFFFFFFFFFFFFFFFFFFFFFFFFF AND DUP3 PUSH1 0x40 MLOAD PUSH2 0x1F65 SWAP1 PUSH2 0x33CA JUMP JUMPDEST PUSH0 PUSH1 0x40 MLOAD DUP1 DUP4 SUB DUP2 DUP6 DUP8 GAS CALL SWAP3 POP POP POP RETURNDATASIZE DUP1 PUSH0 DUP2 EQ PUSH2 0x1F9F JUMPI PUSH1 0x40 MLOAD SWAP2 POP PUSH1 0x1F NOT PUSH1 0x3F RETURNDATASIZE ADD AND DUP3 ADD PUSH1 0x40 MSTORE RETURNDATASIZE DUP3 MSTORE RETURNDATASIZE PUSH0 PUSH1 0x20 DUP5 ADD RETURNDATACOPY PUSH2 0x1FA4 JUMP JUMPDEST PUSH1 0x60 SWAP2 POP JUMPDEST POP POP SWAP1 POP DUP1 PUSH2 0x1FE8 JUMPI PUSH1 0x40 MLOAD PUSH32 0x8C379A000000000000000000000000000000000000000000000000000000000 DUP2 MSTORE PUSH1 0x4 ADD PUSH2 0x1FDF SWAP1 PUSH2 0x39CB JUMP JUMPDEST PUSH1 0x40 MLOAD DUP1 SWAP2 SUB SWAP1 REVERT JUMPDEST POP POP POP JUMP JUMPDEST PUSH0 PUSH1 0x1 DUP4 DUP2 SLOAD DUP2 LT PUSH2 0x2002 JUMPI PUSH2 0x2001 PUSH2 0x2F94 JUMP JUMPDEST JUMPDEST SWAP1 PUSH0 MSTORE PUSH1 0x20 PUSH0 KECCAK256 SWAP1 PUSH1 0x8 MUL ADD SWAP1 POP PUSH0 DUP2 PUSH1 0x6 ADD DUP4 DUP2 SLOAD DUP2 LT PUSH2 0x2027 JUMPI PUSH2 0x2026 PUSH2 0x2F94 JUMP JUMPDEST JUMPDEST SWAP1 PUSH0 MSTORE PUSH1 0x20 PUSH0 KECCAK256 SWAP1 PUSH1 0x6 MUL ADD SWAP1 POP PUSH0 PUSH0 SWAP1 POP JUMPDEST DUP2 PUSH1 0x3 ADD DUP1 SLOAD SWAP1 POP DUP2 LT ISZERO PUSH2 0x2206 JUMPI PUSH0 DUP3 PUSH1 0x3 ADD DUP3 DUP2 SLOAD DUP2 LT PUSH2 0x2060 JUMPI PUSH2 0x205F PUSH2 0x2F94 JUMP JUMPDEST JUMPDEST SWAP1 PUSH0 MSTORE PUSH1 0x20 PUSH0 KECCAK256 ADD PUSH0 SWAP1 SLOAD SWAP1 PUSH2 0x100 EXP SWAP1 DIV PUSH20 0xFFFFFFFFFFFFFFFFFFFFFFFFFFFFFFFFFFFFFFFF AND SWAP1 POP PUSH0 DUP4 PUSH1 0x4 ADD PUSH0 DUP4 PUSH20 0xFFFFFFFFFFFFFFFFFFFFFFFFFFFFFFFFFFFFFFFF AND PUSH20 0xFFFFFFFFFFFFFFFFFFFFFFFFFFFFFFFFFFFFFFFF AND DUP2 MSTORE PUSH1 0x20 ADD SWAP1 DUP2 MSTORE PUSH1 0x20 ADD PUSH0 KECCAK256 SLOAD SWAP1 POP PUSH0 DUP2 GT ISZERO PUSH2 0x21F7 JUMPI PUSH0 DUP5 PUSH1 0x4 ADD PUSH0 DUP5 PUSH20 0xFFFFFFFFFFFFFFFFFFFFFFFFFFFFFFFFFFFFFFFF AND PUSH20 0xFFFFFFFFFFFFFFFFFFFFFFFFFFFFFFFFFFFFFFFF AND DUP2 MSTORE PUSH1 0x20 ADD SWAP1 DUP2 MSTORE PUSH1 0x20 ADD PUSH0 KECCAK256 DUP2 SWAP1 SSTORE POP PUSH0 DUP3 PUSH20 0xFFFFFFFFFFFFFFFFFFFFFFFFFFFFFFFFFFFFFFFF AND DUP3 PUSH1 0x40 MLOAD PUSH2 0x213E SWAP1 PUSH2 0x33CA JUMP JUMPDEST PUSH0 PUSH1 0x40 MLOAD DUP1 DUP4 SUB DUP2 DUP6 DUP8 GAS CALL SWAP3 POP POP POP RETURNDATASIZE DUP1 PUSH0 DUP2 EQ PUSH2 0x2178 JUMPI PUSH1 0x40 MLOAD SWAP2 POP PUSH1 0x1F NOT PUSH1 0x3F RETURNDATASIZE ADD AND DUP3 ADD PUSH1 0x40 MSTORE RETURNDATASIZE DUP3 MSTORE RETURNDATASIZE PUSH0 PUSH1 0x20 DUP5 ADD RETURNDATACOPY PUSH2 0x217D JUMP JUMPDEST PUSH1 0x60 SWAP2 POP JUMPDEST POP POP SWAP1 POP DUP1 PUSH2 0x21C1 JUMPI PUSH1 0x40 MLOAD PUSH32 0x8C379A000000000000000000000000000000000000000000000000000000000 DUP2 MSTORE PUSH1 0x4 ADD PUSH2 0x21B8 SWAP1 PUSH2 0x3A33 JUMP JUMPDEST PUSH1 0x40 MLOAD DUP1 SWAP2 SUB SWAP1 REVERT JUMPDEST DUP2 DUP7 PUSH1 0x4 ADD PUSH0 DUP3 DUP3 SLOAD PUSH2 0x21D4 SWAP2 SWAP1 PUSH2 0x2F48 JUMP JUMPDEST SWAP3 POP POP DUP2 SWAP1 SSTORE POP DUP2 DUP6 PUSH1 0x2 ADD PUSH0 DUP3 DUP3 SLOAD PUSH2 0x21EE SWAP2 SWAP1 PUSH2 0x2F48 JUMP JUMPDEST SWAP3 POP POP DUP2 SWAP1 SSTORE POP POP JUMPDEST POP POP DUP1 DUP1 PUSH1 0x1 ADD SWAP2 POP POP PUSH2 0x203A JUMP JUMPDEST POP POP POP POP POP JUMP JUMPDEST PUSH1 0x40 MLOAD DUP1 PUSH1 0x40 ADD PUSH1 0x40 MSTORE DUP1 PUSH0 DUP2 MSTORE PUSH1 0x20 ADD PUSH0 DUP2 MSTORE POP SWAP1 JUMP JUMPDEST PUSH1 0x40 MLOAD DUP1 PUSH1 0xE0 ADD PUSH1 0x40 MSTORE DUP1 PUSH0 PUSH20 0xFFFFFFFFFFFFFFFFFFFFFFFFFFFFFFFFFFFFFFFF AND DUP2 MSTORE PUSH1 0x20 ADD PUSH1 0x60 DUP2 MSTORE PUSH1 0x20 ADD PUSH1 0x60 DUP2 MSTORE PUSH1 0x20 ADD PUSH1 0x60 DUP2 MSTORE PUSH1 0x20 ADD PUSH0 DUP2 MSTORE PUSH1 0x20 ADD PUSH0 DUP2 MSTORE PUSH1 0x20 ADD PUSH0 ISZERO ISZERO DUP2 MSTORE POP SWAP1 JUMP JUMPDEST PUSH0 PUSH20 0xFFFFFFFFFFFFFFFFFFFFFFFFFFFFFFFFFFFFFFFF DUP3 AND SWAP1 POP SWAP2 SWAP1 POP JUMP JUMPDEST PUSH0 PUSH2 0x229F DUP3 PUSH2 0x2276 JUMP JUMPDEST SWAP1 POP SWAP2 SWAP1 POP JUMP JUMPDEST PUSH2 0x22AF DUP2 PUSH2 0x2295 JUMP JUMPDEST DUP3 MSTORE POP POP JUMP JUMPDEST PUSH0 PUSH1 0x20 DUP3 ADD SWAP1 POP PUSH2 0x22C8 PUSH0 DUP4 ADD DUP5 PUSH2 0x22A6 JUMP JUMPDEST SWAP3 SWAP2 POP POP JUMP JUMPDEST PUSH0 PUSH1 0x40 MLOAD SWAP1 POP SWAP1 JUMP JUMPDEST PUSH0 PUSH0 REVERT JUMPDEST PUSH0 PUSH0 REVERT JUMPDEST PUSH0 DUP2 SWAP1 POP SWAP2 SWAP1 POP JUMP JUMPDEST PUSH2 0x22F1 DUP2 PUSH2 0x22DF JUMP JUMPDEST DUP2 EQ PUSH2 0x22FB JUMPI PUSH0 PUSH0 REVERT JUMPDEST POP JUMP JUMPDEST PUSH0 DUP2 CALLDATALOAD SWAP1 POP PUSH2 0x230C DUP2 PUSH2 0x22E8 JUMP JUMPDEST SWAP3 SWAP2 POP POP JUMP JUMPDEST PUSH0 PUSH1 0x20 DUP3 DUP5 SUB SLT ISZERO PUSH2 0x2327 JUMPI PUSH2 0x2326 PUSH2 0x22D7 JUMP JUMPDEST JUMPDEST PUSH0 PUSH2 0x2334 DUP5 DUP3 DUP6 ADD PUSH2 0x22FE JUMP JUMPDEST SWAP2 POP POP SWAP3 SWAP2 POP POP JUMP JUMPDEST PUSH0 DUP2 MLOAD SWAP1 POP SWAP2 SWAP1 POP JUMP JUMPDEST PUSH0 DUP3 DUP3 MSTORE PUSH1 0x20 DUP3 ADD SWAP1 POP SWAP3 SWAP2 POP POP JUMP JUMPDEST DUP3 DUP2 DUP4 MCOPY PUSH0 DUP4 DUP4 ADD MSTORE POP POP POP JUMP JUMPDEST PUSH0 PUSH1 0x1F NOT PUSH1 0x1F DUP4 ADD AND SWAP1 POP SWAP2 SWAP1 POP JUMP JUMPDEST PUSH0 PUSH2 0x237F DUP3 PUSH2 0x233D JUMP JUMPDEST PUSH2 0x2389 DUP2 DUP6 PUSH2 0x2347 JUMP JUMPDEST SWAP4 POP PUSH2 0x2399 DUP2 DUP6 PUSH1 0x20 DUP7 ADD PUSH2 0x2357 JUMP JUMPDEST PUSH2 0x23A2 DUP2 PUSH2 0x2365 JUMP JUMPDEST DUP5 ADD SWAP2 POP POP SWAP3 SWAP2 POP POP JUMP JUMPDEST PUSH2 0x23B6 DUP2 PUSH2 0x22DF JUMP JUMPDEST DUP3 MSTORE POP POP JUMP JUMPDEST PUSH0 DUP2 ISZERO ISZERO SWAP1 POP SWAP2 SWAP1 POP JUMP JUMPDEST PUSH2 0x23D0 DUP2 PUSH2 0x23BC JUMP JUMPDEST DUP3 MSTORE POP POP JUMP JUMPDEST PUSH0 PUSH1 0xE0 DUP3 ADD SWAP1 POP PUSH2 0x23E9 PUSH0 DUP4 ADD DUP11 PUSH2 0x22A6 JUMP JUMPDEST DUP2 DUP2 SUB PUSH1 0x20 DUP4 ADD MSTORE PUSH2 0x23FB DUP2 DUP10 PUSH2 0x2375 JUMP JUMPDEST SWAP1 POP DUP2 DUP2 SUB PUSH1 0x40 DUP4 ADD MSTORE PUSH2 0x240F DUP2 DUP9 PUSH2 0x2375 JUMP JUMPDEST SWAP1 POP DUP2 DUP2 SUB PUSH1 0x60 DUP4 ADD MSTORE PUSH2 0x2423 DUP2 DUP8 PUSH2 0x2375 JUMP JUMPDEST SWAP1 POP PUSH2 0x2432 PUSH1 0x80 DUP4 ADD DUP7 PUSH2 0x23AD JUMP JUMPDEST PUSH2 0x243F PUSH1 0xA0 DUP4 ADD DUP6 PUSH2 0x23AD JUMP JUMPDEST PUSH2 0x244C PUSH1 0xC0 DUP4 ADD DUP5 PUSH2 0x23C7 JUMP JUMPDEST SWAP9 SWAP8 POP POP POP POP POP POP POP POP JUMP JUMPDEST PUSH0 PUSH0 REVERT JUMPDEST PUSH0 PUSH0 REVERT JUMPDEST PUSH32 0x4E487B7100000000000000000000000000000000000000000000000000000000 PUSH0 MSTORE PUSH1 0x41 PUSH1 0x4 MSTORE PUSH1 0x24 PUSH0 REVERT JUMPDEST PUSH2 0x2496 DUP3 PUSH2 0x2365 JUMP JUMPDEST DUP2 ADD DUP2 DUP2 LT PUSH8 0xFFFFFFFFFFFFFFFF DUP3 GT OR ISZERO PUSH2 0x24B5 JUMPI PUSH2 0x24B4 PUSH2 0x2460 JUMP JUMPDEST JUMPDEST DUP1 PUSH1 0x40 MSTORE POP POP POP JUMP JUMPDEST PUSH0 PUSH2 0x24C7 PUSH2 0x22CE JUMP JUMPDEST SWAP1 POP PUSH2 0x24D3 DUP3 DUP3 PUSH2 0x248D JUMP JUMPDEST SWAP2 SWAP1 POP JUMP JUMPDEST PUSH0 PUSH8 0xFFFFFFFFFFFFFFFF DUP3 GT ISZERO PUSH2 0x24F2 JUMPI PUSH2 0x24F1 PUSH2 0x2460 JUMP JUMPDEST JUMPDEST PUSH2 0x24FB DUP3 PUSH2 0x2365 JUMP JUMPDEST SWAP1 POP PUSH1 0x20 DUP2 ADD SWAP1 POP SWAP2 SWAP1 POP JUMP JUMPDEST DUP3 DUP2 DUP4 CALLDATACOPY PUSH0 DUP4 DUP4 ADD MSTORE POP POP POP JUMP JUMPDEST PUSH0 PUSH2 0x2528 PUSH2 0x2523 DUP5 PUSH2 0x24D8 JUMP JUMPDEST PUSH2 0x24BE JUMP JUMPDEST SWAP1 POP DUP3 DUP2 MSTORE PUSH1 0x20 DUP2 ADD DUP5 DUP5 DUP5 ADD GT ISZERO PUSH2 0x2544 JUMPI PUSH2 0x2543 PUSH2 0x245C JUMP JUMPDEST JUMPDEST PUSH2 0x254F DUP5 DUP3 DUP6 PUSH2 0x2508 JUMP JUMPDEST POP SWAP4 SWAP3 POP POP POP JUMP JUMPDEST PUSH0 DUP3 PUSH1 0x1F DUP4 ADD SLT PUSH2 0x256B JUMPI PUSH2 0x256A PUSH2 0x2458 JUMP JUMPDEST JUMPDEST DUP2 CALLDATALOAD PUSH2 0x257B DUP5 DUP3 PUSH1 0x20 DUP7 ADD PUSH2 0x2516 JUMP JUMPDEST SWAP2 POP POP SWAP3 SWAP2 POP POP JUMP JUMPDEST PUSH0 PUSH8 0xFFFFFFFFFFFFFFFF DUP3 GT ISZERO PUSH2 0x259E JUMPI PUSH2 0x259D PUSH2 0x2460 JUMP JUMPDEST JUMPDEST PUSH1 0x20 DUP3 MUL SWAP1 POP PUSH1 0x20 DUP2 ADD SWAP1 POP SWAP2 SWAP1 POP JUMP JUMPDEST PUSH0 PUSH0 REVERT JUMPDEST PUSH0 PUSH0 REVERT JUMPDEST PUSH0 PUSH1 0x40 DUP3 DUP5 SUB SLT ISZERO PUSH2 0x25CC JUMPI PUSH2 0x25CB PUSH2 0x25B3 JUMP JUMPDEST JUMPDEST PUSH2 0x25D6 PUSH1 0x40 PUSH2 0x24BE JUMP JUMPDEST SWAP1 POP PUSH0 PUSH2 0x25E5 DUP5 DUP3 DUP6 ADD PUSH2 0x22FE JUMP JUMPDEST PUSH0 DUP4 ADD MSTORE POP PUSH1 0x20 PUSH2 0x25F8 DUP5 DUP3 DUP6 ADD PUSH2 0x22FE JUMP JUMPDEST PUSH1 0x20 DUP4 ADD MSTORE POP SWAP3 SWAP2 POP POP JUMP JUMPDEST PUSH0 PUSH2 0x2616 PUSH2 0x2611 DUP5 PUSH2 0x2584 JUMP JUMPDEST PUSH2 0x24BE JUMP JUMPDEST SWAP1 POP DUP1 DUP4 DUP3 MSTORE PUSH1 0x20 DUP3 ADD SWAP1 POP PUSH1 0x40 DUP5 MUL DUP4 ADD DUP6 DUP2 GT ISZERO PUSH2 0x2639 JUMPI PUSH2 0x2638 PUSH2 0x25AF JUMP JUMPDEST JUMPDEST DUP4 JUMPDEST DUP2 DUP2 LT ISZERO PUSH2 0x2662 JUMPI DUP1 PUSH2 0x264E DUP9 DUP3 PUSH2 0x25B7 JUMP JUMPDEST DUP5 MSTORE PUSH1 0x20 DUP5 ADD SWAP4 POP POP PUSH1 0x40 DUP2 ADD SWAP1 POP PUSH2 0x263B JUMP JUMPDEST POP POP POP SWAP4 SWAP3 POP POP POP JUMP JUMPDEST PUSH0 DUP3 PUSH1 0x1F DUP4 ADD SLT PUSH2 0x2680 JUMPI PUSH2 0x267F PUSH2 0x2458 JUMP JUMPDEST JUMPDEST DUP2 CALLDATALOAD PUSH2 0x2690 DUP5 DUP3 PUSH1 0x20 DUP7 ADD PUSH2 0x2604 JUMP JUMPDEST SWAP2 POP POP SWAP3 SWAP2 POP POP JUMP JUMPDEST PUSH0 PUSH0 PUSH0 PUSH0 PUSH1 0x80 DUP6 DUP8 SUB SLT ISZERO PUSH2 0x26B1 JUMPI PUSH2 0x26B0 PUSH2 0x22D7 JUMP JUMPDEST JUMPDEST PUSH0 DUP6 ADD CALLDATALOAD PUSH8 0xFFFFFFFFFFFFFFFF DUP2 GT ISZERO PUSH2 0x26CE JUMPI PUSH2 0x26CD PUSH2 0x22DB JUMP JUMPDEST JUMPDEST PUSH2 0x26DA DUP8 DUP3 DUP9 ADD PUSH2 0x2557 JUMP JUMPDEST SWAP5 POP POP PUSH1 0x20 DUP6 ADD CALLDATALOAD PUSH8 0xFFFFFFFFFFFFFFFF DUP2 GT ISZERO PUSH2 0x26FB JUMPI PUSH2 0x26FA PUSH2 0x22DB JUMP JUMPDEST JUMPDEST PUSH2 0x2707 DUP8 DUP3 DUP9 ADD PUSH2 0x2557 JUMP JUMPDEST SWAP4 POP POP PUSH1 0x40 DUP6 ADD CALLDATALOAD PUSH8 0xFFFFFFFFFFFFFFFF DUP2 GT ISZERO PUSH2 0x2728 JUMPI PUSH2 0x2727 PUSH2 0x22DB JUMP JUMPDEST JUMPDEST PUSH2 0x2734 DUP8 DUP3 DUP9 ADD PUSH2 0x2557 JUMP JUMPDEST SWAP3 POP POP PUSH1 0x60 DUP6 ADD CALLDATALOAD PUSH8 0xFFFFFFFFFFFFFFFF DUP2 GT ISZERO PUSH2 0x2755 JUMPI PUSH2 0x2754 PUSH2 0x22DB JUMP JUMPDEST JUMPDEST PUSH2 0x2761 DUP8 DUP3 DUP9 ADD PUSH2 0x266C JUMP JUMPDEST SWAP2 POP POP SWAP3 SWAP6 SWAP2 SWAP5 POP SWAP3 POP JUMP JUMPDEST PUSH0 DUP2 MLOAD SWAP1 POP SWAP2 SWAP1 POP JUMP JUMPDEST PUSH0 DUP3 DUP3 MSTORE PUSH1 0x20 DUP3 ADD SWAP1 POP SWAP3 SWAP2 POP POP JUMP JUMPDEST PUSH0 DUP2 SWAP1 POP PUSH1 0x20 DUP3 ADD SWAP1 POP SWAP2 SWAP1 POP JUMP JUMPDEST PUSH2 0x279F DUP2 PUSH2 0x2295 JUMP JUMPDEST DUP3 MSTORE POP POP JUMP JUMPDEST PUSH0 PUSH2 0x27B0 DUP4 DUP4 PUSH2 0x2796 JUMP JUMPDEST PUSH1 0x20 DUP4 ADD SWAP1 POP SWAP3 SWAP2 POP POP JUMP JUMPDEST PUSH0 PUSH1 0x20 DUP3 ADD SWAP1 POP SWAP2 SWAP1 POP JUMP JUMPDEST PUSH0 PUSH2 0x27D2 DUP3 PUSH2 0x276D JUMP JUMPDEST PUSH2 0x27DC DUP2 DUP6 PUSH2 0x2777 JUMP JUMPDEST SWAP4 POP PUSH2 0x27E7 DUP4 PUSH2 0x2787 JUMP JUMPDEST DUP1 PUSH0 JUMPDEST DUP4 DUP2 LT ISZERO PUSH2 0x2817 JUMPI DUP2 MLOAD PUSH2 0x27FE DUP9 DUP3 PUSH2 0x27A5 JUMP JUMPDEST SWAP8 POP PUSH2 0x2809 DUP4 PUSH2 0x27BC JUMP JUMPDEST SWAP3 POP POP PUSH1 0x1 DUP2 ADD SWAP1 POP PUSH2 0x27EA JUMP JUMPDEST POP DUP6 SWAP4 POP POP POP POP SWAP3 SWAP2 POP POP JUMP JUMPDEST PUSH0 PUSH1 0x20 DUP3 ADD SWAP1 POP DUP2 DUP2 SUB PUSH0 DUP4 ADD MSTORE PUSH2 0x283C DUP2 DUP5 PUSH2 0x27C8 JUMP JUMPDEST SWAP1 POP SWAP3 SWAP2 POP POP JUMP JUMPDEST PUSH0 PUSH0 PUSH1 0x40 DUP4 DUP6 SUB SLT ISZERO PUSH2 0x285A JUMPI PUSH2 0x2859 PUSH2 0x22D7 JUMP JUMPDEST JUMPDEST PUSH0 PUSH2 0x2867 DUP6 DUP3 DUP7 ADD PUSH2 0x22FE JUMP JUMPDEST SWAP3 POP POP PUSH1 0x20 DUP4 ADD CALLDATALOAD PUSH8 0xFFFFFFFFFFFFFFFF DUP2 GT ISZERO PUSH2 0x2888 JUMPI PUSH2 0x2887 PUSH2 0x22DB JUMP JUMPDEST JUMPDEST PUSH2 0x2894 DUP6 DUP3 DUP7 ADD PUSH2 0x266C JUMP JUMPDEST SWAP2 POP POP SWAP3 POP SWAP3 SWAP1 POP JUMP JUMPDEST PUSH2 0x28A7 DUP2 PUSH2 0x22DF JUMP JUMPDEST DUP3 MSTORE POP POP JUMP JUMPDEST PUSH1 0x40 DUP3 ADD PUSH0 DUP3 ADD MLOAD PUSH2 0x28C1 PUSH0 DUP6 ADD DUP3 PUSH2 0x289E JUMP JUMPDEST POP PUSH1 0x20 DUP3 ADD MLOAD PUSH2 0x28D4 PUSH1 0x20 DUP6 ADD DUP3 PUSH2 0x289E JUMP JUMPDEST POP POP POP POP JUMP JUMPDEST PUSH0 PUSH1 0x40 DUP3 ADD SWAP1 POP PUSH2 0x28ED PUSH0 DUP4 ADD DUP5 PUSH2 0x28AD JUMP JUMPDEST SWAP3 SWAP2 POP POP JUMP JUMPDEST PUSH0 DUP2 MLOAD SWAP1 POP SWAP2 SWAP1 POP JUMP JUMPDEST PUSH0 DUP3 DUP3 MSTORE PUSH1 0x20 DUP3 ADD SWAP1 POP SWAP3 SWAP2 POP POP JUMP JUMPDEST PUSH0 DUP2 SWAP1 POP PUSH1 0x20 DUP3 ADD SWAP1 POP SWAP2 SWAP1 POP JUMP JUMPDEST PUSH1 0x40 DUP3 ADD PUSH0 DUP3 ADD MLOAD PUSH2 0x2930 PUSH0 DUP6 ADD DUP3 PUSH2 0x289E JUMP JUMPDEST POP PUSH1 0x20 DUP3 ADD MLOAD PUSH2 0x2943 PUSH1 0x20 DUP6 ADD DUP3 PUSH2 0x289E JUMP JUMPDEST POP POP POP POP JUMP JUMPDEST PUSH0 PUSH2 0x2954 DUP4 DUP4 PUSH2 0x291C JUMP JUMPDEST PUSH1 0x40 DUP4 ADD SWAP1 POP SWAP3 SWAP2 POP POP JUMP JUMPDEST PUSH0 PUSH1 0x20 DUP3 ADD SWAP1 POP SWAP2 SWAP1 POP JUMP JUMPDEST PUSH0 PUSH2 0x2976 DUP3 PUSH2 0x28F3 JUMP JUMPDEST PUSH2 0x2980 DUP2 DUP6 PUSH2 0x28FD JUMP JUMPDEST SWAP4 POP PUSH2 0x298B DUP4 PUSH2 0x290D JUMP JUMPDEST DUP1 PUSH0 JUMPDEST DUP4 DUP2 LT ISZERO PUSH2 0x29BB JUMPI DUP2 MLOAD PUSH2 0x29A2 DUP9 DUP3 PUSH2 0x2949 JUMP JUMPDEST SWAP8 POP PUSH2 0x29AD DUP4 PUSH2 0x2960 JUMP JUMPDEST SWAP3 POP POP PUSH1 0x1 DUP2 ADD SWAP1 POP PUSH2 0x298E JUMP JUMPDEST POP DUP6 SWAP4 POP POP POP POP SWAP3 SWAP2 POP POP JUMP JUMPDEST PUSH0 PUSH1 0x20 DUP3 ADD SWAP1 POP DUP2 DUP2 SUB PUSH0 DUP4 ADD MSTORE PUSH2 0x29E0 DUP2 DUP5 PUSH2 0x296C JUMP JUMPDEST SWAP1 POP SWAP3 SWAP2 POP POP JUMP JUMPDEST PUSH0 DUP2 MLOAD SWAP1 POP SWAP2 SWAP1 POP JUMP JUMPDEST PUSH0 DUP3 DUP3 MSTORE PUSH1 0x20 DUP3 ADD SWAP1 POP SWAP3 SWAP2 POP POP JUMP JUMPDEST PUSH0 DUP2 SWAP1 POP PUSH1 0x20 DUP3 ADD SWAP1 POP SWAP2 SWAP1 POP JUMP JUMPDEST PUSH0 DUP3 DUP3 MSTORE PUSH1 0x20 DUP3 ADD SWAP1 POP SWAP3 SWAP2 POP POP JUMP JUMPDEST PUSH0 PUSH2 0x2A2B DUP3 PUSH2 0x233D JUMP JUMPDEST PUSH2 0x2A35 DUP2 DUP6 PUSH2 0x2A11 JUMP JUMPDEST SWAP4 POP PUSH2 0x2A45 DUP2 DUP6 PUSH1 0x20 DUP7 ADD PUSH2 0x2357 JUMP JUMPDEST PUSH2 0x2A4E DUP2 PUSH2 0x2365 JUMP JUMPDEST DUP5 ADD SWAP2 POP POP SWAP3 SWAP2 POP POP JUMP JUMPDEST PUSH2 0x2A62 DUP2 PUSH2 0x23BC JUMP JUMPDEST DUP3 MSTORE POP POP JUMP JUMPDEST PUSH0 PUSH1 0xE0 DUP4 ADD PUSH0 DUP4 ADD MLOAD PUSH2 0x2A7D PUSH0 DUP7 ADD DUP3 PUSH2 0x2796 JUMP JUMPDEST POP PUSH1 0x20 DUP4 ADD MLOAD DUP5 DUP3 SUB PUSH1 0x20 DUP7 ADD MSTORE PUSH2 0x2A95 DUP3 DUP3 PUSH2 0x2A21 JUMP JUMPDEST SWAP2 POP POP PUSH1 0x40 DUP4 ADD MLOAD DUP5 DUP3 SUB PUSH1 0x40 DUP7 ADD MSTORE PUSH2 0x2AAF DUP3 DUP3 PUSH2 0x2A21 JUMP JUMPDEST SWAP2 POP POP PUSH1 0x60 DUP4 ADD MLOAD DUP5 DUP3 SUB PUSH1 0x60 DUP7 ADD MSTORE PUSH2 0x2AC9 DUP3 DUP3 PUSH2 0x2A21 JUMP JUMPDEST SWAP2 POP POP PUSH1 0x80 DUP4 ADD MLOAD PUSH2 0x2ADE PUSH1 0x80 DUP7 ADD DUP3 PUSH2 0x289E JUMP JUMPDEST POP PUSH1 0xA0 DUP4 ADD MLOAD PUSH2 0x2AF1 PUSH1 0xA0 DUP7 ADD DUP3 PUSH2 0x289E JUMP JUMPDEST POP PUSH1 0xC0 DUP4 ADD MLOAD PUSH2 0x2B04 PUSH1 0xC0 DUP7 ADD DUP3 PUSH2 0x2A59 JUMP JUMPDEST POP DUP1 SWAP2 POP POP SWAP3 SWAP2 POP POP JUMP JUMPDEST PUSH0 PUSH2 0x2B1A DUP4 DUP4 PUSH2 0x2A68 JUMP JUMPDEST SWAP1 POP SWAP3 SWAP2 POP POP JUMP JUMPDEST PUSH0 PUSH1 0x20 DUP3 ADD SWAP1 POP SWAP2 SWAP1 POP JUMP JUMPDEST PUSH0 PUSH2 0x2B38 DUP3 PUSH2 0x29E8 JUMP JUMPDEST PUSH2 0x2B42 DUP2 DUP6 PUSH2 0x29F2 JUMP JUMPDEST SWAP4 POP DUP4 PUSH1 0x20 DUP3 MUL DUP6 ADD PUSH2 0x2B54 DUP6 PUSH2 0x2A02 JUMP JUMPDEST DUP1 PUSH0 JUMPDEST DUP6 DUP2 LT ISZERO PUSH2 0x2B8F JUMPI DUP5 DUP5 SUB DUP10 MSTORE DUP2 MLOAD PUSH2 0x2B70 DUP6 DUP3 PUSH2 0x2B0F JUMP JUMPDEST SWAP5 POP PUSH2 0x2B7B DUP4 PUSH2 0x2B22 JUMP JUMPDEST SWAP3 POP PUSH1 0x20 DUP11 ADD SWAP10 POP POP PUSH1 0x1 DUP2 ADD SWAP1 POP PUSH2 0x2B57 JUMP JUMPDEST POP DUP3 SWAP8 POP DUP8 SWAP6 POP POP POP POP POP POP SWAP3 SWAP2 POP POP JUMP JUMPDEST PUSH0 PUSH1 0x20 DUP3 ADD SWAP1 POP DUP2 DUP2 SUB PUSH0 DUP4 ADD MSTORE PUSH2 0x2BB9 DUP2 DUP5 PUSH2 0x2B2E JUMP JUMPDEST SWAP1 POP SWAP3 SWAP2 POP POP JUMP JUMPDEST PUSH32 0x4E487B7100000000000000000000000000000000000000000000000000000000 PUSH0 MSTORE PUSH1 0x22 PUSH1 0x4 MSTORE PUSH1 0x24 PUSH0 REVERT JUMPDEST PUSH0 PUSH1 0x2 DUP3 DIV SWAP1 POP PUSH1 0x1 DUP3 AND DUP1 PUSH2 0x2C05 JUMPI PUSH1 0x7F DUP3 AND SWAP2 POP JUMPDEST PUSH1 0x20 DUP3 LT DUP2 SUB PUSH2 0x2C18 JUMPI PUSH2 0x2C17 PUSH2 0x2BC1 JUMP JUMPDEST JUMPDEST POP SWAP2 SWAP1 POP JUMP JUMPDEST PUSH32 0x53797374656D206F776E65722063616E2774206372656174652070726F6A6563 PUSH0 DUP3 ADD MSTORE PUSH32 0x7473000000000000000000000000000000000000000000000000000000000000 PUSH1 0x20 DUP3 ADD MSTORE POP JUMP JUMPDEST PUSH0 PUSH2 0x2C78 PUSH1 0x22 DUP4 PUSH2 0x2347 JUMP JUMPDEST SWAP2 POP PUSH2 0x2C83 DUP3 PUSH2 0x2C1E JUMP JUMPDEST PUSH1 0x40 DUP3 ADD SWAP1 POP SWAP2 SWAP1 POP JUMP JUMPDEST PUSH0 PUSH1 0x20 DUP3 ADD SWAP1 POP DUP2 DUP2 SUB PUSH0 DUP4 ADD MSTORE PUSH2 0x2CA5 DUP2 PUSH2 0x2C6C JUMP JUMPDEST SWAP1 POP SWAP2 SWAP1 POP JUMP JUMPDEST PUSH0 DUP2 SWAP1 POP DUP2 PUSH0 MSTORE PUSH1 0x20 PUSH0 KECCAK256 SWAP1 POP SWAP2 SWAP1 POP JUMP JUMPDEST PUSH0 PUSH1 0x20 PUSH1 0x1F DUP4 ADD DIV SWAP1 POP SWAP2 SWAP1 POP JUMP JUMPDEST PUSH0 DUP3 DUP3 SHL SWAP1 POP SWAP3 SWAP2 POP POP JUMP JUMPDEST PUSH0 PUSH1 0x8 DUP4 MUL PUSH2 0x2D08 PUSH32 0xFFFFFFFFFFFFFFFFFFFFFFFFFFFFFFFFFFFFFFFFFFFFFFFFFFFFFFFFFFFFFFFF DUP3 PUSH2 0x2CCD JUMP JUMPDEST PUSH2 0x2D12 DUP7 DUP4 PUSH2 0x2CCD JUMP JUMPDEST SWAP6 POP DUP1 NOT DUP5 AND SWAP4 POP DUP1 DUP7 AND DUP5 OR SWAP3 POP POP POP SWAP4 SWAP3 POP POP POP JUMP JUMPDEST PUSH0 DUP2 SWAP1 POP SWAP2 SWAP1 POP JUMP JUMPDEST PUSH0 PUSH2 0x2D4D PUSH2 0x2D48 PUSH2 0x2D43 DUP5 PUSH2 0x22DF JUMP JUMPDEST PUSH2 0x2D2A JUMP JUMPDEST PUSH2 0x22DF JUMP JUMPDEST SWAP1 POP SWAP2 SWAP1 POP JUMP JUMPDEST PUSH0 DUP2 SWAP1 POP SWAP2 SWAP1 POP JUMP JUMPDEST PUSH2 0x2D66 DUP4 PUSH2 0x2D33 JUMP JUMPDEST PUSH2 0x2D7A PUSH2 0x2D72 DUP3 PUSH2 0x2D54 JUMP JUMPDEST DUP5 DUP5 SLOAD PUSH2 0x2CD9 JUMP JUMPDEST DUP3 SSTORE POP POP POP POP JUMP JUMPDEST PUSH0 PUSH0 SWAP1 POP SWAP1 JUMP JUMPDEST PUSH2 0x2D91 PUSH2 0x2D82 JUMP JUMPDEST PUSH2 0x2D9C DUP2 DUP5 DUP5 PUSH2 0x2D5D JUMP JUMPDEST POP POP POP JUMP JUMPDEST JUMPDEST DUP2 DUP2 LT ISZERO PUSH2 0x2DBF JUMPI PUSH2 0x2DB4 PUSH0 DUP3 PUSH2 0x2D89 JUMP JUMPDEST PUSH1 0x1 DUP2 ADD SWAP1 POP PUSH2 0x2DA2 JUMP JUMPDEST POP POP JUMP JUMPDEST PUSH1 0x1F DUP3 GT ISZERO PUSH2 0x2E04 JUMPI PUSH2 0x2DD5 DUP2 PUSH2 0x2CAC JUMP JUMPDEST PUSH2 0x2DDE DUP5 PUSH2 0x2CBE JUMP JUMPDEST DUP2 ADD PUSH1 0x20 DUP6 LT ISZERO PUSH2 0x2DED JUMPI DUP2 SWAP1 POP JUMPDEST PUSH2 0x2E01 PUSH2 0x2DF9 DUP6 PUSH2 0x2CBE JUMP JUMPDEST DUP4 ADD DUP3 PUSH2 0x2DA1 JUMP JUMPDEST POP POP JUMPDEST POP POP POP JUMP JUMPDEST PUSH0 DUP3 DUP3 SHR SWAP1 POP SWAP3 SWAP2 POP POP JUMP JUMPDEST PUSH0 PUSH2 0x2E24 PUSH0 NOT DUP5 PUSH1 0x8 MUL PUSH2 0x2E09 JUMP JUMPDEST NOT DUP1 DUP4 AND SWAP2 POP POP SWAP3 SWAP2 POP POP JUMP JUMPDEST PUSH0 PUSH2 0x2E3C DUP4 DUP4 PUSH2 0x2E15 JUMP JUMPDEST SWAP2 POP DUP3 PUSH1 0x2 MUL DUP3 OR SWAP1 POP SWAP3 SWAP2 POP POP JUMP JUMPDEST PUSH2 0x2E55 DUP3 PUSH2 0x233D JUMP JUMPDEST PUSH8 0xFFFFFFFFFFFFFFFF DUP2 GT ISZERO PUSH2 0x2E6E JUMPI PUSH2 0x2E6D PUSH2 0x2460 JUMP JUMPDEST JUMPDEST PUSH2 0x2E78 DUP3 SLOAD PUSH2 0x2BEE JUMP JUMPDEST PUSH2 0x2E83 DUP3 DUP3 DUP6 PUSH2 0x2DC3 JUMP JUMPDEST PUSH0 PUSH1 0x20 SWAP1 POP PUSH1 0x1F DUP4 GT PUSH1 0x1 DUP2 EQ PUSH2 0x2EB4 JUMPI PUSH0 DUP5 ISZERO PUSH2 0x2EA2 JUMPI DUP3 DUP8 ADD MLOAD SWAP1 POP JUMPDEST PUSH2 0x2EAC DUP6 DUP3 PUSH2 0x2E31 JUMP JUMPDEST DUP7 SSTORE POP PUSH2 0x2F13 JUMP JUMPDEST PUSH1 0x1F NOT DUP5 AND PUSH2 0x2EC2 DUP7 PUSH2 0x2CAC JUMP JUMPDEST PUSH0 JUMPDEST DUP3 DUP2 LT ISZERO PUSH2 0x2EE9 JUMPI DUP5 DUP10 ADD MLOAD DUP3 SSTORE PUSH1 0x1 DUP3 ADD SWAP2 POP PUSH1 0x20 DUP6 ADD SWAP5 POP PUSH1 0x20 DUP2 ADD SWAP1 POP PUSH2 0x2EC4 JUMP JUMPDEST DUP7 DUP4 LT ISZERO PUSH2 0x2F06 JUMPI DUP5 DUP10 ADD MLOAD PUSH2 0x2F02 PUSH1 0x1F DUP10 AND DUP3 PUSH2 0x2E15 JUMP JUMPDEST DUP4 SSTORE POP JUMPDEST PUSH1 0x1 PUSH1 0x2 DUP9 MUL ADD DUP9 SSTORE POP POP POP JUMPDEST POP POP POP POP POP POP JUMP JUMPDEST PUSH32 0x4E487B7100000000000000000000000000000000000000000000000000000000 PUSH0 MSTORE PUSH1 0x11 PUSH1 0x4 MSTORE PUSH1 0x24 PUSH0 REVERT JUMPDEST PUSH0 PUSH2 0x2F52 DUP3 PUSH2 0x22DF JUMP JUMPDEST SWAP2 POP PUSH2 0x2F5D DUP4 PUSH2 0x22DF JUMP JUMPDEST SWAP3 POP DUP3 DUP3 SUB SWAP1 POP DUP2 DUP2 GT ISZERO PUSH2 0x2F75 JUMPI PUSH2 0x2F74 PUSH2 0x2F1B JUMP JUMPDEST JUMPDEST SWAP3 SWAP2 POP POP JUMP JUMPDEST PUSH0 PUSH1 0x20 DUP3 ADD SWAP1 POP PUSH2 0x2F8E PUSH0 DUP4 ADD DUP5 PUSH2 0x23AD JUMP JUMPDEST SWAP3 SWAP2 POP POP JUMP JUMPDEST PUSH32 0x4E487B7100000000000000000000000000000000000000000000000000000000 PUSH0 MSTORE PUSH1 0x32 PUSH1 0x4 MSTORE PUSH1 0x24 PUSH0 REVERT JUMPDEST PUSH32 0x496E76616C69642070726F6A6563747320696E64657800000000000000000000 PUSH0 DUP3 ADD MSTORE POP JUMP JUMPDEST PUSH0 PUSH2 0x2FF5 PUSH1 0x16 DUP4 PUSH2 0x2347 JUMP JUMPDEST SWAP2 POP PUSH2 0x3000 DUP3 PUSH2 0x2FC1 JUMP JUMPDEST PUSH1 0x20 DUP3 ADD SWAP1 POP SWAP2 SWAP1 POP JUMP JUMPDEST PUSH0 PUSH1 0x20 DUP3 ADD SWAP1 POP DUP2 DUP2 SUB PUSH0 DUP4 ADD MSTORE PUSH2 0x3022 DUP2 PUSH2 0x2FE9 JUMP JUMPDEST SWAP1 POP SWAP2 SWAP1 POP JUMP JUMPDEST PUSH32 0x50726F6A656374206D7573742062652061637469766500000000000000000000 PUSH0 DUP3 ADD MSTORE POP JUMP JUMPDEST PUSH0 PUSH2 0x305D PUSH1 0x16 DUP4 PUSH2 0x2347 JUMP JUMPDEST SWAP2 POP PUSH2 0x3068 DUP3 PUSH2 0x3029 JUMP JUMPDEST PUSH1 0x20 DUP3 ADD SWAP1 POP SWAP2 SWAP1 POP JUMP JUMPDEST PUSH0 PUSH1 0x20 DUP3 ADD SWAP1 POP DUP2 DUP2 SUB PUSH0 DUP4 ADD MSTORE PUSH2 0x308A DUP2 PUSH2 0x3051 JUMP JUMPDEST SWAP1 POP SWAP2 SWAP1 POP JUMP JUMPDEST PUSH32 0x4D696C6573746F6E652073686F756C64206265206E6F74207265616368656400 PUSH0 DUP3 ADD MSTORE POP JUMP JUMPDEST PUSH0 PUSH2 0x30C5 PUSH1 0x1F DUP4 PUSH2 0x2347 JUMP JUMPDEST SWAP2 POP PUSH2 0x30D0 DUP3 PUSH2 0x3091 JUMP JUMPDEST PUSH1 0x20 DUP3 ADD SWAP1 POP SWAP2 SWAP1 POP JUMP JUMPDEST PUSH0 PUSH1 0x20 DUP3 ADD SWAP1 POP DUP2 DUP2 SUB PUSH0 DUP4 ADD MSTORE PUSH2 0x30F2 DUP2 PUSH2 0x30B9 JUMP JUMPDEST SWAP1 POP SWAP2 SWAP1 POP JUMP JUMPDEST PUSH0 PUSH1 0x80 DUP3 ADD SWAP1 POP PUSH2 0x310C PUSH0 DUP4 ADD DUP8 PUSH2 0x23AD JUMP JUMPDEST PUSH2 0x3119 PUSH1 0x20 DUP4 ADD DUP7 PUSH2 0x23AD JUMP JUMPDEST PUSH2 0x3126 PUSH1 0x40 DUP4 ADD DUP6 PUSH2 0x23AD JUMP JUMPDEST PUSH2 0x3133 PUSH1 0x60 DUP4 ADD DUP5 PUSH2 0x23AD JUMP JUMPDEST SWAP6 SWAP5 POP POP POP POP POP JUMP JUMPDEST PUSH32 0x50726F6A65637420646F65736E27742065786973740000000000000000000000 PUSH0 DUP3 ADD MSTORE POP JUMP JUMPDEST PUSH0 PUSH2 0x3170 PUSH1 0x15 DUP4 PUSH2 0x2347 JUMP JUMPDEST SWAP2 POP PUSH2 0x317B DUP3 PUSH2 0x313C JUMP JUMPDEST PUSH1 0x20 DUP3 ADD SWAP1 POP SWAP2 SWAP1 POP JUMP JUMPDEST PUSH0 PUSH1 0x20 DUP3 ADD SWAP1 POP DUP2 DUP2 SUB PUSH0 DUP4 ADD MSTORE PUSH2 0x319D DUP2 PUSH2 0x3164 JUMP JUMPDEST SWAP1 POP SWAP2 SWAP1 POP JUMP JUMPDEST PUSH32 0x596F7520646F6E74206861766520656E6F756768206D6F6E657920746F206675 PUSH0 DUP3 ADD MSTORE PUSH32 0x6E64000000000000000000000000000000000000000000000000000000000000 PUSH1 0x20 DUP3 ADD MSTORE POP JUMP JUMPDEST PUSH0 PUSH2 0x31FE PUSH1 0x22 DUP4 PUSH2 0x2347 JUMP JUMPDEST SWAP2 POP PUSH2 0x3209 DUP3 PUSH2 0x31A4 JUMP JUMPDEST PUSH1 0x40 DUP3 ADD SWAP1 POP SWAP2 SWAP1 POP JUMP JUMPDEST PUSH0 PUSH1 0x20 DUP3 ADD SWAP1 POP DUP2 DUP2 SUB PUSH0 DUP4 ADD MSTORE PUSH2 0x322B DUP2 PUSH2 0x31F2 JUMP JUMPDEST SWAP1 POP SWAP2 SWAP1 POP JUMP JUMPDEST PUSH32 0x46756E6420616D6F756E742063616E2774206265203000000000000000000000 PUSH0 DUP3 ADD MSTORE POP JUMP JUMPDEST PUSH0 PUSH2 0x3266 PUSH1 0x16 DUP4 PUSH2 0x2347 JUMP JUMPDEST SWAP2 POP PUSH2 0x3271 DUP3 PUSH2 0x3232 JUMP JUMPDEST PUSH1 0x20 DUP3 ADD SWAP1 POP SWAP2 SWAP1 POP JUMP JUMPDEST PUSH0 PUSH1 0x20 DUP3 ADD SWAP1 POP DUP2 DUP2 SUB PUSH0 DUP4 ADD MSTORE PUSH2 0x3293 DUP2 PUSH2 0x325A JUMP JUMPDEST SWAP1 POP SWAP2 SWAP1 POP JUMP JUMPDEST PUSH32 0x50726F6A656374206D7573742062652061637469766520746F2066756E640000 PUSH0 DUP3 ADD MSTORE POP JUMP JUMPDEST PUSH0 PUSH2 0x32CE PUSH1 0x1E DUP4 PUSH2 0x2347 JUMP JUMPDEST SWAP2 POP PUSH2 0x32D9 DUP3 PUSH2 0x329A JUMP JUMPDEST PUSH1 0x20 DUP3 ADD SWAP1 POP SWAP2 SWAP1 POP JUMP JUMPDEST PUSH0 PUSH1 0x20 DUP3 ADD SWAP1 POP DUP2 DUP2 SUB PUSH0 DUP4 ADD MSTORE PUSH2 0x32FB DUP2 PUSH2 0x32C2 JUMP JUMPDEST SWAP1 POP SWAP2 SWAP1 POP JUMP JUMPDEST PUSH32 0x596F752063616E27742066756E6420616674657220646561646C696E65000000 PUSH0 DUP3 ADD MSTORE POP JUMP JUMPDEST PUSH0 PUSH2 0x3336 PUSH1 0x1D DUP4 PUSH2 0x2347 JUMP JUMPDEST SWAP2 POP PUSH2 0x3341 DUP3 PUSH2 0x3302 JUMP JUMPDEST PUSH1 0x20 DUP3 ADD SWAP1 POP SWAP2 SWAP1 POP JUMP JUMPDEST PUSH0 PUSH1 0x20 DUP3 ADD SWAP1 POP DUP2 DUP2 SUB PUSH0 DUP4 ADD MSTORE PUSH2 0x3363 DUP2 PUSH2 0x332A JUMP JUMPDEST SWAP1 POP SWAP2 SWAP1 POP JUMP JUMPDEST PUSH0 PUSH2 0x3374 DUP3 PUSH2 0x22DF JUMP JUMPDEST SWAP2 POP PUSH2 0x337F DUP4 PUSH2 0x22DF JUMP JUMPDEST SWAP3 POP DUP3 DUP3 ADD SWAP1 POP DUP1 DUP3 GT ISZERO PUSH2 0x3397 JUMPI PUSH2 0x3396 PUSH2 0x2F1B JUMP JUMPDEST JUMPDEST SWAP3 SWAP2 POP POP JUMP JUMPDEST PUSH0 DUP2 SWAP1 POP SWAP3 SWAP2 POP POP JUMP JUMPDEST POP JUMP JUMPDEST PUSH0 PUSH2 0x33B5 PUSH0 DUP4 PUSH2 0x339D JUMP JUMPDEST SWAP2 POP PUSH2 0x33C0 DUP3 PUSH2 0x33A7 JUMP JUMPDEST PUSH0 DUP3 ADD SWAP1 POP SWAP2 SWAP1 POP JUMP JUMPDEST PUSH0 PUSH2 0x33D4 DUP3 PUSH2 0x33AA JUMP JUMPDEST SWAP2 POP DUP2 SWAP1 POP SWAP2 SWAP1 POP JUMP JUMPDEST PUSH32 0x4661696C656420746F2072657475726E20737572706C75730000000000000000 PUSH0 DUP3 ADD MSTORE POP JUMP JUMPDEST PUSH0 PUSH2 0x3412 PUSH1 0x18 DUP4 PUSH2 0x2347 JUMP JUMPDEST SWAP2 POP PUSH2 0x341D DUP3 PUSH2 0x33DE JUMP JUMPDEST PUSH1 0x20 DUP3 ADD SWAP1 POP SWAP2 SWAP1 POP JUMP JUMPDEST PUSH0 PUSH1 0x20 DUP3 ADD SWAP1 POP DUP2 DUP2 SUB PUSH0 DUP4 ADD MSTORE PUSH2 0x343F DUP2 PUSH2 0x3406 JUMP JUMPDEST SWAP1 POP SWAP2 SWAP1 POP JUMP JUMPDEST PUSH32 0x4F6E6C792073797374656D206F776E6572206F722070726F6A656374206F776E PUSH0 DUP3 ADD MSTORE PUSH32 0x65722063616E2073746F702070726F6A65637473000000000000000000000000 PUSH1 0x20 DUP3 ADD MSTORE POP JUMP JUMPDEST PUSH0 PUSH2 0x34A0 PUSH1 0x34 DUP4 PUSH2 0x2347 JUMP JUMPDEST SWAP2 POP PUSH2 0x34AB DUP3 PUSH2 0x3446 JUMP JUMPDEST PUSH1 0x40 DUP3 ADD SWAP1 POP SWAP2 SWAP1 POP JUMP JUMPDEST PUSH0 PUSH1 0x20 DUP3 ADD SWAP1 POP DUP2 DUP2 SUB PUSH0 DUP4 ADD MSTORE PUSH2 0x34CD DUP2 PUSH2 0x3494 JUMP JUMPDEST SWAP1 POP SWAP2 SWAP1 POP JUMP JUMPDEST PUSH32 0x4F6E6C79207379734F776E65722063616E20646561637469766174652070726F PUSH0 DUP3 ADD MSTORE PUSH32 0x6A65637473000000000000000000000000000000000000000000000000000000 PUSH1 0x20 DUP3 ADD MSTORE POP JUMP JUMPDEST PUSH0 PUSH2 0x352E PUSH1 0x25 DUP4 PUSH2 0x2347 JUMP JUMPDEST SWAP2 POP PUSH2 0x3539 DUP3 PUSH2 0x34D4 JUMP JUMPDEST PUSH1 0x40 DUP3 ADD SWAP1 POP SWAP2 SWAP1 POP JUMP JUMPDEST PUSH0 PUSH1 0x20 DUP3 ADD SWAP1 POP DUP2 DUP2 SUB PUSH0 DUP4 ADD MSTORE PUSH2 0x355B DUP2 PUSH2 0x3522 JUMP JUMPDEST SWAP1 POP SWAP2 SWAP1 POP JUMP JUMPDEST PUSH32 0x43616E6E6F7420616464206E6577206D696C6573746F6E657320746F20696E61 PUSH0 DUP3 ADD MSTORE PUSH32 0x63746976652070726F6A65637400000000000000000000000000000000000000 PUSH1 0x20 DUP3 ADD MSTORE POP JUMP JUMPDEST PUSH0 PUSH2 0x35BC PUSH1 0x2D DUP4 PUSH2 0x2347 JUMP JUMPDEST SWAP2 POP PUSH2 0x35C7 DUP3 PUSH2 0x3562 JUMP JUMPDEST PUSH1 0x40 DUP3 ADD SWAP1 POP SWAP2 SWAP1 POP JUMP JUMPDEST PUSH0 PUSH1 0x20 DUP3 ADD SWAP1 POP DUP2 DUP2 SUB PUSH0 DUP4 ADD MSTORE PUSH2 0x35E9 DUP2 PUSH2 0x35B0 JUMP JUMPDEST SWAP1 POP SWAP2 SWAP1 POP JUMP JUMPDEST PUSH32 0x4F6E6C792070726F6A6563742063726561746F722063616E20616464206E6577 PUSH0 DUP3 ADD MSTORE PUSH32 0x206D696C6573746F6E6573000000000000000000000000000000000000000000 PUSH1 0x20 DUP3 ADD MSTORE POP JUMP JUMPDEST PUSH0 PUSH2 0x364A PUSH1 0x2B DUP4 PUSH2 0x2347 JUMP JUMPDEST SWAP2 POP PUSH2 0x3655 DUP3 PUSH2 0x35F0 JUMP JUMPDEST PUSH1 0x40 DUP3 ADD SWAP1 POP SWAP2 SWAP1 POP JUMP JUMPDEST PUSH0 PUSH1 0x20 DUP3 ADD SWAP1 POP DUP2 DUP2 SUB PUSH0 DUP4 ADD MSTORE PUSH2 0x3677 DUP2 PUSH2 0x363E JUMP JUMPDEST SWAP1 POP SWAP2 SWAP1 POP JUMP JUMPDEST PUSH32 0x4D7573742068617665206174206C65617374206F6E65206D696C6573746F6E65 PUSH0 DUP3 ADD MSTORE POP JUMP JUMPDEST PUSH0 PUSH2 0x36B2 PUSH1 0x20 DUP4 PUSH2 0x2347 JUMP JUMPDEST SWAP2 POP PUSH2 0x36BD DUP3 PUSH2 0x367E JUMP JUMPDEST PUSH1 0x20 DUP3 ADD SWAP1 POP SWAP2 SWAP1 POP JUMP JUMPDEST PUSH0 PUSH1 0x20 DUP3 ADD SWAP1 POP DUP2 DUP2 SUB PUSH0 DUP4 ADD MSTORE PUSH2 0x36DF DUP2 PUSH2 0x36A6 JUMP JUMPDEST SWAP1 POP SWAP2 SWAP1 POP JUMP JUMPDEST PUSH32 0x476F616C20616D6F756E742063616E2774206265203000000000000000000000 PUSH0 DUP3 ADD MSTORE POP JUMP JUMPDEST PUSH0 PUSH2 0x371A PUSH1 0x16 DUP4 PUSH2 0x2347 JUMP JUMPDEST SWAP2 POP PUSH2 0x3725 DUP3 PUSH2 0x36E6 JUMP JUMPDEST PUSH1 0x20 DUP3 ADD SWAP1 POP SWAP2 SWAP1 POP JUMP JUMPDEST PUSH0 PUSH1 0x20 DUP3 ADD SWAP1 POP DUP2 DUP2 SUB PUSH0 DUP4 ADD MSTORE PUSH2 0x3747 DUP2 PUSH2 0x370E JUMP JUMPDEST SWAP1 POP SWAP2 SWAP1 POP JUMP JUMPDEST PUSH32 0x446561646C696E652063616E277420626520696E207468652070617374000000 PUSH0 DUP3 ADD MSTORE POP JUMP JUMPDEST PUSH0 PUSH2 0x3782 PUSH1 0x1D DUP4 PUSH2 0x2347 JUMP JUMPDEST SWAP2 POP PUSH2 0x378D DUP3 PUSH2 0x374E JUMP JUMPDEST PUSH1 0x20 DUP3 ADD SWAP1 POP SWAP2 SWAP1 POP JUMP JUMPDEST PUSH0 PUSH1 0x20 DUP3 ADD SWAP1 POP DUP2 DUP2 SUB PUSH0 DUP4 ADD MSTORE PUSH2 0x37AF DUP2 PUSH2 0x3776 JUMP JUMPDEST SWAP1 POP SWAP2 SWAP1 POP JUMP JUMPDEST PUSH32 0x4D696C6573746F6E6520676F616C732073686F756C6420626520696E63726561 PUSH0 DUP3 ADD MSTORE PUSH32 0x73696E6700000000000000000000000000000000000000000000000000000000 PUSH1 0x20 DUP3 ADD MSTORE POP JUMP JUMPDEST PUSH0 PUSH2 0x3810 PUSH1 0x24 DUP4 PUSH2 0x2347 JUMP JUMPDEST SWAP2 POP PUSH2 0x381B DUP3 PUSH2 0x37B6 JUMP JUMPDEST PUSH1 0x40 DUP3 ADD SWAP1 POP SWAP2 SWAP1 POP JUMP JUMPDEST PUSH0 PUSH1 0x20 DUP3 ADD SWAP1 POP DUP2 DUP2 SUB PUSH0 DUP4 ADD MSTORE PUSH2 0x383D DUP2 PUSH2 0x3804 JUMP JUMPDEST SWAP1 POP SWAP2 SWAP1 POP JUMP JUMPDEST PUSH32 0x4D696C6573746F6E6520646561646C696E65732073686F756C6420626520696E PUSH0 DUP3 ADD MSTORE PUSH32 0x6372656173696E67000000000000000000000000000000000000000000000000 PUSH1 0x20 DUP3 ADD MSTORE POP JUMP JUMPDEST PUSH0 PUSH2 0x389E PUSH1 0x28 DUP4 PUSH2 0x2347 JUMP JUMPDEST SWAP2 POP PUSH2 0x38A9 DUP3 PUSH2 0x3844 JUMP JUMPDEST PUSH1 0x40 DUP3 ADD SWAP1 POP SWAP2 SWAP1 POP JUMP JUMPDEST PUSH0 PUSH1 0x20 DUP3 ADD SWAP1 POP DUP2 DUP2 SUB PUSH0 DUP4 ADD MSTORE PUSH2 0x38CB DUP2 PUSH2 0x3892 JUMP JUMPDEST SWAP1 POP SWAP2 SWAP1 POP JUMP JUMPDEST PUSH0 PUSH2 0x38DC DUP3 PUSH2 0x22DF JUMP JUMPDEST SWAP2 POP PUSH32 0xFFFFFFFFFFFFFFFFFFFFFFFFFFFFFFFFFFFFFFFFFFFFFFFFFFFFFFFFFFFFFFFF DUP3 SUB PUSH2 0x390E JUMPI PUSH2 0x390D PUSH2 0x2F1B JUMP JUMPDEST JUMPDEST PUSH1 0x1 DUP3 ADD SWAP1 POP SWAP2 SWAP1 POP JUMP JUMPDEST PUSH32 0x43616E6E6F742073746F7020696E6163746976652070726F6A65637400000000 PUSH0 DUP3 ADD MSTORE POP JUMP JUMPDEST PUSH0 PUSH2 0x394D PUSH1 0x1C DUP4 PUSH2 0x2347 JUMP JUMPDEST SWAP2 POP PUSH2 0x3958 DUP3 PUSH2 0x3919 JUMP JUMPDEST PUSH1 0x20 DUP3 ADD SWAP1 POP SWAP2 SWAP1 POP JUMP JUMPDEST PUSH0 PUSH1 0x20 DUP3 ADD SWAP1 POP DUP2 DUP2 SUB PUSH0 DUP4 ADD MSTORE PUSH2 0x397A DUP2 PUSH2 0x3941 JUMP JUMPDEST SWAP1 POP SWAP2 SWAP1 POP JUMP JUMPDEST PUSH32 0x5472616E7366657220746F2063726561746F72206661696C6564000000000000 PUSH0 DUP3 ADD MSTORE POP JUMP JUMPDEST PUSH0 PUSH2 0x39B5 PUSH1 0x1A DUP4 PUSH2 0x2347 JUMP JUMPDEST SWAP2 POP PUSH2 0x39C0 DUP3 PUSH2 0x3981 JUMP JUMPDEST PUSH1 0x20 DUP3 ADD SWAP1 POP SWAP2 SWAP1 POP JUMP JUMPDEST PUSH0 PUSH1 0x20 DUP3 ADD SWAP1 POP DUP2 DUP2 SUB PUSH0 DUP4 ADD MSTORE PUSH2 0x39E2 DUP2 PUSH2 0x39A9 JUMP JUMPDEST SWAP1 POP SWAP2 SWAP1 POP JUMP JUMPDEST PUSH32 0x526566756E64206661696C656400000000000000000000000000000000000000 PUSH0 DUP3 ADD MSTORE POP JUMP JUMPDEST PUSH0 PUSH2 0x3A1D PUSH1 0xD DUP4 PUSH2 0x2347 JUMP JUMPDEST SWAP2 POP PUSH2 0x3A28 DUP3 PUSH2 0x39E9 JUMP JUMPDEST PUSH1 0x20 DUP3 ADD SWAP1 POP SWAP2 SWAP1 POP JUMP JUMPDEST PUSH0 PUSH1 0x20 DUP3 ADD SWAP1 POP DUP2 DUP2 SUB PUSH0 DUP4 ADD MSTORE PUSH2 0x3A4A DUP2 PUSH2 0x3A11 JUMP JUMPDEST SWAP1 POP SWAP2 SWAP1 POP JUMP INVALID LOG2 PUSH5 0x6970667358 0x22 SLT KECCAK256 0xB8 EXTSTATICCALL DUPN 0x4 0x25 DELEGATECALL BYTE EXTCALL 0xC0 0xD5 DUP15 0xC2 0xB6 0xF7 0x2C 0xDD 0xD7 0x24 PUSH29 0x96CA6228B8B22DC456AEC6466D64736F6C634300081E00330000000000 "
				},
				"gasEstimates": {
					"creation": {
						"codeDepositCost": "2996600",
						"executionCost": "27556",
						"totalCost": "3024156"
					},
					"external": {
						"addNewMilestones(uint256,(uint256,uint256)[])": "infinite",
						"checkCurrentMilestone(uint256)": "infinite",
						"createProject(string,string,string,(uint256,uint256)[])": "infinite",
						"deactivateProjectsWithExpiredDeadlines()": "infinite",
						"fundProject(uint256)": "infinite",
						"getAllActiveProjects()": "infinite",
						"getCurrentMilestoneFunders(uint256)": "infinite",
						"getCurrentMilestoneInfo(uint256)": "infinite",
						"getallMilestonesInfo(uint256)": "infinite",
						"projects(uint256)": "infinite",
						"stopProject(uint256)": "infinite",
						"sysOwner()": "2508"
					},
					"internal": {
						"initiateNextMilestone(uint256)": "infinite",
						"refundMilestone(uint256,uint256)": "infinite",
						"sendMoneyToOwner(address,uint256)": "infinite",
						"stopProjectHelper(uint256)": "infinite"
					}
				},
				"methodIdentifiers": {
					"addNewMilestones(uint256,(uint256,uint256)[])": "ae632181",
					"checkCurrentMilestone(uint256)": "4e94e824",
					"createProject(string,string,string,(uint256,uint256)[])": "1a86e67d",
					"deactivateProjectsWithExpiredDeadlines()": "7808de38",
					"fundProject(uint256)": "6c563abe",
					"getAllActiveProjects()": "f2ef441b",
					"getCurrentMilestoneFunders(uint256)": "33ec0fc5",
					"getCurrentMilestoneInfo(uint256)": "b99122af",
					"getallMilestonesInfo(uint256)": "d8a5b36d",
					"projects(uint256)": "107046bd",
					"stopProject(uint256)": "6db7a960",
					"sysOwner()": "0e4877d6"
				}
			},
			"storageLayout": {
				"storage": [
					{
						"astId": 81,
						"contract": "contracts/CrowdSourcing.sol:CrowdSourcing",
						"label": "sysOwner",
						"offset": 0,
						"slot": "0",
						"type": "t_address"
					},
					{
						"astId": 85,
						"contract": "contracts/CrowdSourcing.sol:CrowdSourcing",
						"label": "projects",
						"offset": 0,
						"slot": "1",
						"type": "t_array(t_struct(Project)20_storage)dyn_storage"
					}
				],
				"types": {
					"t_address": {
						"encoding": "inplace",
						"label": "address",
						"numberOfBytes": "20"
					},
					"t_array(t_address)dyn_storage": {
						"base": "t_address",
						"encoding": "dynamic_array",
						"label": "address[]",
						"numberOfBytes": "32"
					},
					"t_array(t_struct(Milestone)50_storage)dyn_storage": {
						"base": "t_struct(Milestone)50_storage",
						"encoding": "dynamic_array",
						"label": "struct Milestone[]",
						"numberOfBytes": "32"
					},
					"t_array(t_struct(Project)20_storage)dyn_storage": {
						"base": "t_struct(Project)20_storage",
						"encoding": "dynamic_array",
						"label": "struct Project[]",
						"numberOfBytes": "32"
					},
					"t_bool": {
						"encoding": "inplace",
						"label": "bool",
						"numberOfBytes": "1"
					},
					"t_mapping(t_address,t_uint256)": {
						"encoding": "mapping",
						"key": "t_address",
						"label": "mapping(address => uint256)",
						"numberOfBytes": "32",
						"value": "t_uint256"
					},
					"t_string_storage": {
						"encoding": "bytes",
						"label": "string",
						"numberOfBytes": "32"
					},
					"t_struct(Milestone)50_storage": {
						"encoding": "inplace",
						"label": "struct Milestone",
						"members": [
							{
								"astId": 38,
								"contract": "contracts/CrowdSourcing.sol:CrowdSourcing",
								"label": "info",
								"offset": 0,
								"slot": "0",
								"type": "t_struct(MilestoneInfo)55_storage"
							},
							{
								"astId": 40,
								"contract": "contracts/CrowdSourcing.sol:CrowdSourcing",
								"label": "totalFunded",
								"offset": 0,
								"slot": "2",
								"type": "t_uint256"
							},
							{
								"astId": 43,
								"contract": "contracts/CrowdSourcing.sol:CrowdSourcing",
								"label": "funderAddresses",
								"offset": 0,
								"slot": "3",
								"type": "t_array(t_address)dyn_storage"
							},
							{
								"astId": 47,
								"contract": "contracts/CrowdSourcing.sol:CrowdSourcing",
								"label": "funders",
								"offset": 0,
								"slot": "4",
								"type": "t_mapping(t_address,t_uint256)"
							},
							{
								"astId": 49,
								"contract": "contracts/CrowdSourcing.sol:CrowdSourcing",
								"label": "reached",
								"offset": 0,
								"slot": "5",
								"type": "t_bool"
							}
						],
						"numberOfBytes": "192"
					},
					"t_struct(MilestoneInfo)55_storage": {
						"encoding": "inplace",
						"label": "struct MilestoneInfo",
						"members": [
							{
								"astId": 52,
								"contract": "contracts/CrowdSourcing.sol:CrowdSourcing",
								"label": "goalAmount",
								"offset": 0,
								"slot": "0",
								"type": "t_uint256"
							},
							{
								"astId": 54,
								"contract": "contracts/CrowdSourcing.sol:CrowdSourcing",
								"label": "deadline",
								"offset": 0,
								"slot": "1",
								"type": "t_uint256"
							}
						],
						"numberOfBytes": "64"
					},
					"t_struct(Project)20_storage": {
						"encoding": "inplace",
						"label": "struct Project",
						"members": [
							{
								"astId": 3,
								"contract": "contracts/CrowdSourcing.sol:CrowdSourcing",
								"label": "creator",
								"offset": 0,
								"slot": "0",
								"type": "t_address"
							},
							{
								"astId": 5,
								"contract": "contracts/CrowdSourcing.sol:CrowdSourcing",
								"label": "name",
								"offset": 0,
								"slot": "1",
								"type": "t_string_storage"
							},
							{
								"astId": 7,
								"contract": "contracts/CrowdSourcing.sol:CrowdSourcing",
								"label": "headerImageUrl",
								"offset": 0,
								"slot": "2",
								"type": "t_string_storage"
							},
							{
								"astId": 9,
								"contract": "contracts/CrowdSourcing.sol:CrowdSourcing",
								"label": "description",
								"offset": 0,
								"slot": "3",
								"type": "t_string_storage"
							},
							{
								"astId": 11,
								"contract": "contracts/CrowdSourcing.sol:CrowdSourcing",
								"label": "totalFunded",
								"offset": 0,
								"slot": "4",
								"type": "t_uint256"
							},
							{
								"astId": 13,
								"contract": "contracts/CrowdSourcing.sol:CrowdSourcing",
								"label": "currentMilestoneIndex",
								"offset": 0,
								"slot": "5",
								"type": "t_uint256"
							},
							{
								"astId": 17,
								"contract": "contracts/CrowdSourcing.sol:CrowdSourcing",
								"label": "milestones",
								"offset": 0,
								"slot": "6",
								"type": "t_array(t_struct(Milestone)50_storage)dyn_storage"
							},
							{
								"astId": 19,
								"contract": "contracts/CrowdSourcing.sol:CrowdSourcing",
								"label": "isActive",
								"offset": 0,
								"slot": "7",
								"type": "t_bool"
							}
						],
						"numberOfBytes": "256"
					},
					"t_uint256": {
						"encoding": "inplace",
						"label": "uint256",
						"numberOfBytes": "32"
					}
				}
			},
			"userdoc": {
				"kind": "user",
				"methods": {},
				"version": 1
			}
		}
	}
}