{
	"contracts/CrowdSourcing.sol": {
		"CrowdSourcing": {
			"abi": [
				{
					"inputs": [],
					"stateMutability": "nonpayable",
					"type": "constructor"
				},
				{
					"inputs": [
						{
							"internalType": "uint256",
							"name": "_projectIdx",
							"type": "uint256"
						}
					],
					"name": "checkMilestone",
					"outputs": [],
					"stateMutability": "nonpayable",
					"type": "function"
				},
				{
					"inputs": [
						{
							"internalType": "string",
							"name": "_name",
							"type": "string"
						},
						{
							"components": [
								{
									"internalType": "uint256",
									"name": "goalAmount",
									"type": "uint256"
								},
								{
									"internalType": "uint256",
									"name": "deadline",
									"type": "uint256"
								}
							],
							"internalType": "struct MilestoneInfo[]",
							"name": "_milestones",
							"type": "tuple[]"
						}
					],
					"name": "createProject",
					"outputs": [],
					"stateMutability": "nonpayable",
					"type": "function"
				},
				{
					"inputs": [
						{
							"internalType": "uint256",
							"name": "_projectIdx",
							"type": "uint256"
						}
					],
					"name": "fundProject",
					"outputs": [],
					"stateMutability": "payable",
					"type": "function"
				},
				{
					"inputs": [
						{
							"internalType": "uint256",
							"name": "",
							"type": "uint256"
						}
					],
					"name": "projects",
					"outputs": [
						{
							"internalType": "address",
							"name": "creator",
							"type": "address"
						},
						{
							"internalType": "string",
							"name": "name",
							"type": "string"
						},
						{
							"internalType": "uint256",
							"name": "totalFunded",
							"type": "uint256"
						},
						{
							"internalType": "uint256",
							"name": "currentMilestoneIndex",
							"type": "uint256"
						},
						{
							"internalType": "bool",
							"name": "isActive",
							"type": "bool"
						}
					],
					"stateMutability": "view",
					"type": "function"
				},
				{
					"inputs": [],
					"name": "sysOwner",
					"outputs": [
						{
							"internalType": "address",
							"name": "",
							"type": "address"
						}
					],
					"stateMutability": "view",
					"type": "function"
				}
			],
			"devdoc": {
				"kind": "dev",
				"methods": {},
				"version": 1
			},
			"evm": {
				"assembly": "    /* \"contracts/CrowdSourcing.sol\":1421:4335  contract CrowdSourcing {... */\n  mstore(0x40, 0x80)\n    /* \"contracts/CrowdSourcing.sol\":1512:1564  constructor() {... */\n  callvalue\n  dup1\n  iszero\n  tag_1\n  jumpi\n  revert(0x00, 0x00)\ntag_1:\n  pop\n    /* \"contracts/CrowdSourcing.sol\":1547:1557  msg.sender */\n  caller\n    /* \"contracts/CrowdSourcing.sol\":1536:1544  sysOwner */\n  0x00\n  0x00\n    /* \"contracts/CrowdSourcing.sol\":1536:1557  sysOwner = msg.sender */\n  0x0100\n  exp\n  dup2\n  sload\n  dup2\n  0xffffffffffffffffffffffffffffffffffffffff\n  mul\n  not\n  and\n  swap1\n  dup4\n  0xffffffffffffffffffffffffffffffffffffffff\n  and\n  mul\n  or\n  swap1\n  sstore\n  pop\n    /* \"contracts/CrowdSourcing.sol\":1421:4335  contract CrowdSourcing {... */\n  dataSize(sub_0)\n  dup1\n  dataOffset(sub_0)\n  0x00\n  codecopy\n  0x00\n  return\nstop\n\nsub_0: assembly {\n        /* \"contracts/CrowdSourcing.sol\":1421:4335  contract CrowdSourcing {... */\n      mstore(0x40, 0x80)\n      jumpi(tag_1, lt(calldatasize, 0x04))\n      shr(0xe0, calldataload(0x00))\n      dup1\n      0x08e38af9\n      eq\n      tag_2\n      jumpi\n      dup1\n      0x0e4877d6\n      eq\n      tag_3\n      jumpi\n      dup1\n      0x107046bd\n      eq\n      tag_4\n      jumpi\n      dup1\n      0x3e7e12a6\n      eq\n      tag_5\n      jumpi\n      dup1\n      0x6c563abe\n      eq\n      tag_6\n      jumpi\n    tag_1:\n      revert(0x00, 0x00)\n        /* \"contracts/CrowdSourcing.sol\":3099:4333  function checkMilestone(... */\n    tag_2:\n      callvalue\n      dup1\n      iszero\n      tag_7\n      jumpi\n      revert(0x00, 0x00)\n    tag_7:\n      pop\n      tag_8\n      0x04\n      dup1\n      calldatasize\n      sub\n      dup2\n      add\n      swap1\n      tag_9\n      swap2\n      swap1\n      tag_10\n      jump\t// in\n    tag_9:\n      tag_11\n      jump\t// in\n    tag_8:\n      stop\n        /* \"contracts/CrowdSourcing.sol\":1450:1473  address public sysOwner */\n    tag_3:\n      callvalue\n      dup1\n      iszero\n      tag_12\n      jumpi\n      revert(0x00, 0x00)\n    tag_12:\n      pop\n      tag_13\n      tag_14\n      jump\t// in\n    tag_13:\n      mload(0x40)\n      tag_15\n      swap2\n      swap1\n      tag_16\n      jump\t// in\n    tag_15:\n      mload(0x40)\n      dup1\n      swap2\n      sub\n      swap1\n      return\n        /* \"contracts/CrowdSourcing.sol\":1480:1505  Project[] public projects */\n    tag_4:\n      callvalue\n      dup1\n      iszero\n      tag_17\n      jumpi\n      revert(0x00, 0x00)\n    tag_17:\n      pop\n      tag_18\n      0x04\n      dup1\n      calldatasize\n      sub\n      dup2\n      add\n      swap1\n      tag_19\n      swap2\n      swap1\n      tag_10\n      jump\t// in\n    tag_19:\n      tag_20\n      jump\t// in\n    tag_18:\n      mload(0x40)\n      tag_21\n      swap6\n      swap5\n      swap4\n      swap3\n      swap2\n      swap1\n      tag_22\n      jump\t// in\n    tag_21:\n      mload(0x40)\n      dup1\n      swap2\n      sub\n      swap1\n      return\n        /* \"contracts/CrowdSourcing.sol\":1570:2413  function createProject(... */\n    tag_5:\n      callvalue\n      dup1\n      iszero\n      tag_23\n      jumpi\n      revert(0x00, 0x00)\n    tag_23:\n      pop\n      tag_24\n      0x04\n      dup1\n      calldatasize\n      sub\n      dup2\n      add\n      swap1\n      tag_25\n      swap2\n      swap1\n      tag_26\n      jump\t// in\n    tag_25:\n      tag_27\n      jump\t// in\n    tag_24:\n      stop\n        /* \"contracts/CrowdSourcing.sol\":2419:3093  function fundProject (... */\n    tag_6:\n      tag_28\n      0x04\n      dup1\n      calldatasize\n      sub\n      dup2\n      add\n      swap1\n      tag_29\n      swap2\n      swap1\n      tag_10\n      jump\t// in\n    tag_29:\n      tag_30\n      jump\t// in\n    tag_28:\n      stop\n        /* \"contracts/CrowdSourcing.sol\":3099:4333  function checkMilestone(... */\n    tag_11:\n        /* \"contracts/CrowdSourcing.sol\":3175:3198  Project storage project */\n      0x00\n        /* \"contracts/CrowdSourcing.sol\":3201:3209  projects */\n      0x01\n        /* \"contracts/CrowdSourcing.sol\":3210:3221  _projectIdx */\n      dup3\n        /* \"contracts/CrowdSourcing.sol\":3201:3222  projects[_projectIdx] */\n      dup2\n      sload\n      dup2\n      lt\n      tag_32\n      jumpi\n      tag_33\n      tag_34\n      jump\t// in\n    tag_33:\n    tag_32:\n      swap1\n      0x00\n      mstore\n      keccak256(0x00, 0x20)\n      swap1\n      0x06\n      mul\n      add\n        /* \"contracts/CrowdSourcing.sol\":3175:3222  Project storage project = projects[_projectIdx] */\n      swap1\n      pop\n        /* \"contracts/CrowdSourcing.sol\":3232:3266  Milestone storage currentMilestone */\n      0x00\n        /* \"contracts/CrowdSourcing.sol\":3269:3276  project */\n      dup2\n        /* \"contracts/CrowdSourcing.sol\":3269:3287  project.milestones */\n      0x04\n      add\n        /* \"contracts/CrowdSourcing.sol\":3288:3295  project */\n      dup3\n        /* \"contracts/CrowdSourcing.sol\":3288:3317  project.currentMilestoneIndex */\n      0x03\n      add\n      sload\n        /* \"contracts/CrowdSourcing.sol\":3269:3318  project.milestones[project.currentMilestoneIndex] */\n      dup2\n      sload\n      dup2\n      lt\n      tag_36\n      jumpi\n      tag_37\n      tag_34\n      jump\t// in\n    tag_37:\n    tag_36:\n      swap1\n      0x00\n      mstore\n      keccak256(0x00, 0x20)\n      swap1\n      0x05\n      mul\n      add\n        /* \"contracts/CrowdSourcing.sol\":3232:3318  Milestone storage currentMilestone = project.milestones[project.currentMilestoneIndex] */\n      swap1\n      pop\n        /* \"contracts/CrowdSourcing.sol\":3336:3343  project */\n      dup2\n        /* \"contracts/CrowdSourcing.sol\":3336:3352  project.isActive */\n      0x05\n      add\n      0x00\n      swap1\n      sload\n      swap1\n      0x0100\n      exp\n      swap1\n      div\n      0xff\n      and\n        /* \"contracts/CrowdSourcing.sol\":3328:3379  require(project.isActive, \"Project must be active\") */\n      tag_39\n      jumpi\n      mload(0x40)\n      0x08c379a000000000000000000000000000000000000000000000000000000000\n      dup2\n      mstore\n      0x04\n      add\n      tag_40\n      swap1\n      tag_41\n      jump\t// in\n    tag_40:\n      mload(0x40)\n      dup1\n      swap2\n      sub\n      swap1\n      revert\n    tag_39:\n        /* \"contracts/CrowdSourcing.sol\":3398:3414  currentMilestone */\n      dup1\n        /* \"contracts/CrowdSourcing.sol\":3398:3422  currentMilestone.reached */\n      0x04\n      add\n      0x00\n      swap1\n      sload\n      swap1\n      0x0100\n      exp\n      swap1\n      div\n      0xff\n      and\n        /* \"contracts/CrowdSourcing.sol\":3397:3422  !currentMilestone.reached */\n      iszero\n        /* \"contracts/CrowdSourcing.sol\":3389:3458  require(!currentMilestone.reached, \"Milestone should be not reached\") */\n      tag_42\n      jumpi\n      mload(0x40)\n      0x08c379a000000000000000000000000000000000000000000000000000000000\n      dup2\n      mstore\n      0x04\n      add\n      tag_43\n      swap1\n      tag_44\n      jump\t// in\n    tag_43:\n      mload(0x40)\n      dup1\n      swap2\n      sub\n      swap1\n      revert\n    tag_42:\n        /* \"contracts/CrowdSourcing.sol\":3511:3527  currentMilestone */\n      dup1\n        /* \"contracts/CrowdSourcing.sol\":3511:3539  currentMilestone.totalFunded */\n      0x02\n      add\n      sload\n        /* \"contracts/CrowdSourcing.sol\":3476:3492  currentMilestone */\n      dup2\n        /* \"contracts/CrowdSourcing.sol\":3476:3497  currentMilestone.info */\n      0x00\n      add\n        /* \"contracts/CrowdSourcing.sol\":3476:3508  currentMilestone.info.goalAmount */\n      0x00\n      add\n      sload\n        /* \"contracts/CrowdSourcing.sol\":3476:3539  currentMilestone.info.goalAmount > currentMilestone.totalFunded */\n      gt\n        /* \"contracts/CrowdSourcing.sol\":3468:3583  require(currentMilestone.info.goalAmount > currentMilestone.totalFunded, \"Milestone shouldn't be funded to refund\") */\n      tag_45\n      jumpi\n      mload(0x40)\n      0x08c379a000000000000000000000000000000000000000000000000000000000\n      dup2\n      mstore\n      0x04\n      add\n      tag_46\n      swap1\n      tag_47\n      jump\t// in\n    tag_46:\n      mload(0x40)\n      dup1\n      swap2\n      sub\n      swap1\n      revert\n    tag_45:\n        /* \"contracts/CrowdSourcing.sol\":3708:3724  currentMilestone */\n      dup1\n        /* \"contracts/CrowdSourcing.sol\":3708:3729  currentMilestone.info */\n      0x00\n      add\n        /* \"contracts/CrowdSourcing.sol\":3708:3738  currentMilestone.info.deadline */\n      0x01\n      add\n      sload\n        /* \"contracts/CrowdSourcing.sol\":3689:3704  block.timestamp */\n      timestamp\n        /* \"contracts/CrowdSourcing.sol\":3689:3738  block.timestamp >= currentMilestone.info.deadline */\n      lt\n        /* \"contracts/CrowdSourcing.sol\":3686:4326  if(block.timestamp >= currentMilestone.info.deadline) {... */\n      tag_48\n      jumpi\n        /* \"contracts/CrowdSourcing.sol\":3789:3805  currentMilestone */\n      dup1\n        /* \"contracts/CrowdSourcing.sol\":3789:3810  currentMilestone.info */\n      0x00\n      add\n        /* \"contracts/CrowdSourcing.sol\":3789:3821  currentMilestone.info.goalAmount */\n      0x00\n      add\n      sload\n        /* \"contracts/CrowdSourcing.sol\":3757:3773  currentMilestone */\n      dup2\n        /* \"contracts/CrowdSourcing.sol\":3757:3785  currentMilestone.totalFunded */\n      0x02\n      add\n      sload\n        /* \"contracts/CrowdSourcing.sol\":3757:3821  currentMilestone.totalFunded >= currentMilestone.info.goalAmount */\n      lt\n        /* \"contracts/CrowdSourcing.sol\":3754:4316  if(currentMilestone.totalFunded >= currentMilestone.info.goalAmount) {... */\n      tag_49\n      jumpi\n        /* \"contracts/CrowdSourcing.sol\":3868:3872  true */\n      0x01\n        /* \"contracts/CrowdSourcing.sol\":3841:3857  currentMilestone */\n      dup2\n        /* \"contracts/CrowdSourcing.sol\":3841:3865  currentMilestone.reached */\n      0x04\n      add\n      0x00\n        /* \"contracts/CrowdSourcing.sol\":3841:3872  currentMilestone.reached = true */\n      0x0100\n      exp\n      dup2\n      sload\n      dup2\n      0xff\n      mul\n      not\n      and\n      swap1\n      dup4\n      iszero\n      iszero\n      mul\n      or\n      swap1\n      sstore\n      pop\n        /* \"contracts/CrowdSourcing.sol\":4041:4048  project */\n      dup2\n        /* \"contracts/CrowdSourcing.sol\":4041:4059  project.milestones */\n      0x04\n      add\n        /* \"contracts/CrowdSourcing.sol\":4041:4066  project.milestones.length */\n      dup1\n      sload\n      swap1\n      pop\n        /* \"contracts/CrowdSourcing.sol\":4009:4016  project */\n      dup3\n        /* \"contracts/CrowdSourcing.sol\":4009:4038  project.currentMilestoneIndex */\n      0x03\n      add\n      sload\n        /* \"contracts/CrowdSourcing.sol\":4009:4066  project.currentMilestoneIndex < project.milestones.length */\n      lt\n        /* \"contracts/CrowdSourcing.sol\":4006:4139  if(project.currentMilestoneIndex < project.milestones.length){... */\n      iszero\n      tag_50\n      jumpi\n        /* \"contracts/CrowdSourcing.sol\":4089:4096  project */\n      dup2\n        /* \"contracts/CrowdSourcing.sol\":4089:4118  project.currentMilestoneIndex */\n      0x03\n      add\n      0x00\n        /* \"contracts/CrowdSourcing.sol\":4089:4120  project.currentMilestoneIndex++ */\n      dup2\n      sload\n      dup1\n      swap3\n      swap2\n      swap1\n      tag_51\n      swap1\n      tag_52\n      jump\t// in\n    tag_51:\n      swap2\n      swap1\n      pop\n      sstore\n      pop\n        /* \"contracts/CrowdSourcing.sol\":4006:4139  if(project.currentMilestoneIndex < project.milestones.length){... */\n    tag_50:\n        /* \"contracts/CrowdSourcing.sol\":3754:4316  if(currentMilestone.totalFunded >= currentMilestone.info.goalAmount) {... */\n      jump(tag_53)\n    tag_49:\n        /* \"contracts/CrowdSourcing.sol\":4255:4260  false */\n      0x00\n        /* \"contracts/CrowdSourcing.sol\":4236:4243  project */\n      dup3\n        /* \"contracts/CrowdSourcing.sol\":4236:4252  project.isActive */\n      0x05\n      add\n      0x00\n        /* \"contracts/CrowdSourcing.sol\":4236:4260  project.isActive = false */\n      0x0100\n      exp\n      dup2\n      sload\n      dup2\n      0xff\n      mul\n      not\n      and\n      swap1\n      dup4\n      iszero\n      iszero\n      mul\n      or\n      swap1\n      sstore\n      pop\n        /* \"contracts/CrowdSourcing.sol\":3754:4316  if(currentMilestone.totalFunded >= currentMilestone.info.goalAmount) {... */\n    tag_53:\n        /* \"contracts/CrowdSourcing.sol\":3686:4326  if(block.timestamp >= currentMilestone.info.deadline) {... */\n    tag_48:\n        /* \"contracts/CrowdSourcing.sol\":3165:4333  {... */\n      pop\n      pop\n        /* \"contracts/CrowdSourcing.sol\":3099:4333  function checkMilestone(... */\n      pop\n      jump\t// out\n        /* \"contracts/CrowdSourcing.sol\":1450:1473  address public sysOwner */\n    tag_14:\n      0x00\n      0x00\n      swap1\n      sload\n      swap1\n      0x0100\n      exp\n      swap1\n      div\n      0xffffffffffffffffffffffffffffffffffffffff\n      and\n      dup2\n      jump\t// out\n        /* \"contracts/CrowdSourcing.sol\":1480:1505  Project[] public projects */\n    tag_20:\n      0x01\n      dup2\n      dup2\n      sload\n      dup2\n      lt\n      tag_54\n      jumpi\n      0x00\n      dup1\n      revert\n    tag_54:\n      swap1\n      0x00\n      mstore\n      keccak256(0x00, 0x20)\n      swap1\n      0x06\n      mul\n      add\n      0x00\n      swap2\n      pop\n      swap1\n      pop\n      dup1\n      0x00\n      add\n      0x00\n      swap1\n      sload\n      swap1\n      0x0100\n      exp\n      swap1\n      div\n      0xffffffffffffffffffffffffffffffffffffffff\n      and\n      swap1\n      dup1\n      0x01\n      add\n      dup1\n      sload\n      tag_56\n      swap1\n      tag_57\n      jump\t// in\n    tag_56:\n      dup1\n      0x1f\n      add\n      0x20\n      dup1\n      swap2\n      div\n      mul\n      0x20\n      add\n      mload(0x40)\n      swap1\n      dup2\n      add\n      0x40\n      mstore\n      dup1\n      swap3\n      swap2\n      swap1\n      dup2\n      dup2\n      mstore\n      0x20\n      add\n      dup3\n      dup1\n      sload\n      tag_58\n      swap1\n      tag_57\n      jump\t// in\n    tag_58:\n      dup1\n      iszero\n      tag_59\n      jumpi\n      dup1\n      0x1f\n      lt\n      tag_60\n      jumpi\n      0x0100\n      dup1\n      dup4\n      sload\n      div\n      mul\n      dup4\n      mstore\n      swap2\n      0x20\n      add\n      swap2\n      jump(tag_59)\n    tag_60:\n      dup3\n      add\n      swap2\n      swap1\n      0x00\n      mstore\n      keccak256(0x00, 0x20)\n      swap1\n    tag_61:\n      dup2\n      sload\n      dup2\n      mstore\n      swap1\n      0x01\n      add\n      swap1\n      0x20\n      add\n      dup1\n      dup4\n      gt\n      tag_61\n      jumpi\n      dup3\n      swap1\n      sub\n      0x1f\n      and\n      dup3\n      add\n      swap2\n    tag_59:\n      pop\n      pop\n      pop\n      pop\n      pop\n      swap1\n      dup1\n      0x02\n      add\n      sload\n      swap1\n      dup1\n      0x03\n      add\n      sload\n      swap1\n      dup1\n      0x05\n      add\n      0x00\n      swap1\n      sload\n      swap1\n      0x0100\n      exp\n      swap1\n      div\n      0xff\n      and\n      swap1\n      pop\n      dup6\n      jump\t// out\n        /* \"contracts/CrowdSourcing.sol\":1570:2413  function createProject(... */\n    tag_27:\n        /* \"contracts/CrowdSourcing.sol\":1713:1721  sysOwner */\n      0x00\n      0x00\n      swap1\n      sload\n      swap1\n      0x0100\n      exp\n      swap1\n      div\n      0xffffffffffffffffffffffffffffffffffffffff\n      and\n        /* \"contracts/CrowdSourcing.sol\":1699:1721  msg.sender != sysOwner */\n      0xffffffffffffffffffffffffffffffffffffffff\n      and\n        /* \"contracts/CrowdSourcing.sol\":1699:1709  msg.sender */\n      caller\n        /* \"contracts/CrowdSourcing.sol\":1699:1721  msg.sender != sysOwner */\n      0xffffffffffffffffffffffffffffffffffffffff\n      and\n      sub\n        /* \"contracts/CrowdSourcing.sol\":1691:1760  require(msg.sender != sysOwner, \"System owner can't create projects\") */\n      tag_63\n      jumpi\n      mload(0x40)\n      0x08c379a000000000000000000000000000000000000000000000000000000000\n      dup2\n      mstore\n      0x04\n      add\n      tag_64\n      swap1\n      tag_65\n      jump\t// in\n    tag_64:\n      mload(0x40)\n      dup1\n      swap2\n      sub\n      swap1\n      revert\n    tag_63:\n        /* \"contracts/CrowdSourcing.sol\":1799:1800  0 */\n      0x00\n        /* \"contracts/CrowdSourcing.sol\":1778:1789  _milestones */\n      dup2\n        /* \"contracts/CrowdSourcing.sol\":1778:1796  _milestones.length */\n      mload\n        /* \"contracts/CrowdSourcing.sol\":1778:1800  _milestones.length > 0 */\n      gt\n        /* \"contracts/CrowdSourcing.sol\":1770:1837  require(_milestones.length > 0, \"Must have at least one milestone\") */\n      tag_66\n      jumpi\n      mload(0x40)\n      0x08c379a000000000000000000000000000000000000000000000000000000000\n      dup2\n      mstore\n      0x04\n      add\n      tag_67\n      swap1\n      tag_68\n      jump\t// in\n    tag_67:\n      mload(0x40)\n      dup1\n      swap2\n      sub\n      swap1\n      revert\n    tag_66:\n        /* \"contracts/CrowdSourcing.sol\":1848:1871  Project storage project */\n      0x00\n        /* \"contracts/CrowdSourcing.sol\":1874:1882  projects */\n      0x01\n        /* \"contracts/CrowdSourcing.sol\":1874:1889  projects.push() */\n      dup1\n      dup2\n      0x01\n      dup2\n      sload\n      add\n      dup1\n      dup3\n      sstore\n      dup1\n      swap2\n      pop\n      pop\n      sub\n      swap1\n      0x00\n      mstore\n      keccak256(0x00, 0x20)\n      swap1\n      0x06\n      mul\n      add\n        /* \"contracts/CrowdSourcing.sol\":1848:1889  Project storage project = projects.push() */\n      swap1\n      pop\n        /* \"contracts/CrowdSourcing.sol\":1917:1927  msg.sender */\n      caller\n        /* \"contracts/CrowdSourcing.sol\":1899:1906  project */\n      dup2\n        /* \"contracts/CrowdSourcing.sol\":1899:1914  project.creator */\n      0x00\n      add\n      0x00\n        /* \"contracts/CrowdSourcing.sol\":1899:1927  project.creator = msg.sender */\n      0x0100\n      exp\n      dup2\n      sload\n      dup2\n      0xffffffffffffffffffffffffffffffffffffffff\n      mul\n      not\n      and\n      swap1\n      dup4\n      0xffffffffffffffffffffffffffffffffffffffff\n      and\n      mul\n      or\n      swap1\n      sstore\n      pop\n        /* \"contracts/CrowdSourcing.sol\":1952:1957  _name */\n      dup3\n        /* \"contracts/CrowdSourcing.sol\":1937:1944  project */\n      dup2\n        /* \"contracts/CrowdSourcing.sol\":1937:1949  project.name */\n      0x01\n      add\n        /* \"contracts/CrowdSourcing.sol\":1937:1957  project.name = _name */\n      swap1\n      dup2\n      tag_70\n      swap2\n      swap1\n      tag_71\n      jump\t// in\n    tag_70:\n      pop\n        /* \"contracts/CrowdSourcing.sol\":1989:1990  0 */\n      0x00\n        /* \"contracts/CrowdSourcing.sol\":1967:1974  project */\n      dup2\n        /* \"contracts/CrowdSourcing.sol\":1967:1986  project.totalFunded */\n      0x02\n      add\n        /* \"contracts/CrowdSourcing.sol\":1967:1990  project.totalFunded = 0 */\n      dup2\n      swap1\n      sstore\n      pop\n        /* \"contracts/CrowdSourcing.sol\":2032:2033  0 */\n      0x00\n        /* \"contracts/CrowdSourcing.sol\":2000:2007  project */\n      dup2\n        /* \"contracts/CrowdSourcing.sol\":2000:2029  project.currentMilestoneIndex */\n      0x03\n      add\n        /* \"contracts/CrowdSourcing.sol\":2000:2033  project.currentMilestoneIndex = 0 */\n      dup2\n      swap1\n      sstore\n      pop\n        /* \"contracts/CrowdSourcing.sol\":2062:2066  true */\n      0x01\n        /* \"contracts/CrowdSourcing.sol\":2043:2050  project */\n      dup2\n        /* \"contracts/CrowdSourcing.sol\":2043:2059  project.isActive */\n      0x05\n      add\n      0x00\n        /* \"contracts/CrowdSourcing.sol\":2043:2066  project.isActive = true */\n      0x0100\n      exp\n      dup2\n      sload\n      dup2\n      0xff\n      mul\n      not\n      and\n      swap1\n      dup4\n      iszero\n      iszero\n      mul\n      or\n      swap1\n      sstore\n      pop\n        /* \"contracts/CrowdSourcing.sol\":2082:2088  uint i */\n      0x00\n        /* \"contracts/CrowdSourcing.sol\":2089:2090  0 */\n      0x00\n        /* \"contracts/CrowdSourcing.sol\":2082:2090  uint i=0 */\n      swap1\n      pop\n        /* \"contracts/CrowdSourcing.sol\":2078:2407  for(uint i=0; i< _milestones.length; i++){... */\n    tag_72:\n        /* \"contracts/CrowdSourcing.sol\":2095:2106  _milestones */\n      dup3\n        /* \"contracts/CrowdSourcing.sol\":2095:2113  _milestones.length */\n      mload\n        /* \"contracts/CrowdSourcing.sol\":2092:2093  i */\n      dup2\n        /* \"contracts/CrowdSourcing.sol\":2092:2113  i< _milestones.length */\n      lt\n        /* \"contracts/CrowdSourcing.sol\":2078:2407  for(uint i=0; i< _milestones.length; i++){... */\n      iszero\n      tag_73\n      jumpi\n        /* \"contracts/CrowdSourcing.sol\":2133:2160  Milestone storage milestone */\n      0x00\n        /* \"contracts/CrowdSourcing.sol\":2163:2170  project */\n      dup3\n        /* \"contracts/CrowdSourcing.sol\":2163:2181  project.milestones */\n      0x04\n      add\n        /* \"contracts/CrowdSourcing.sol\":2163:2188  project.milestones.push() */\n      0x01\n      dup2\n      0x01\n      dup2\n      sload\n      add\n      dup1\n      dup3\n      sstore\n      dup1\n      swap2\n      pop\n      pop\n      sub\n      swap1\n      0x00\n      mstore\n      keccak256(0x00, 0x20)\n      swap1\n      0x05\n      mul\n      add\n        /* \"contracts/CrowdSourcing.sol\":2133:2188  Milestone storage milestone = project.milestones.push() */\n      swap1\n      pop\n        /* \"contracts/CrowdSourcing.sol\":2230:2241  _milestones */\n      dup4\n        /* \"contracts/CrowdSourcing.sol\":2242:2243  i */\n      dup3\n        /* \"contracts/CrowdSourcing.sol\":2230:2244  _milestones[i] */\n      dup2\n      mload\n      dup2\n      lt\n      tag_76\n      jumpi\n      tag_77\n      tag_34\n      jump\t// in\n    tag_77:\n    tag_76:\n      0x20\n      mul\n      0x20\n      add\n      add\n      mload\n        /* \"contracts/CrowdSourcing.sol\":2230:2255  _milestones[i].goalAmount */\n      0x00\n      add\n      mload\n        /* \"contracts/CrowdSourcing.sol\":2202:2211  milestone */\n      dup2\n        /* \"contracts/CrowdSourcing.sol\":2202:2216  milestone.info */\n      0x00\n      add\n        /* \"contracts/CrowdSourcing.sol\":2202:2227  milestone.info.goalAmount */\n      0x00\n      add\n        /* \"contracts/CrowdSourcing.sol\":2202:2255  milestone.info.goalAmount = _milestones[i].goalAmount */\n      dup2\n      swap1\n      sstore\n      pop\n        /* \"contracts/CrowdSourcing.sol\":2295:2306  _milestones */\n      dup4\n        /* \"contracts/CrowdSourcing.sol\":2307:2308  i */\n      dup3\n        /* \"contracts/CrowdSourcing.sol\":2295:2309  _milestones[i] */\n      dup2\n      mload\n      dup2\n      lt\n      tag_78\n      jumpi\n      tag_79\n      tag_34\n      jump\t// in\n    tag_79:\n    tag_78:\n      0x20\n      mul\n      0x20\n      add\n      add\n      mload\n        /* \"contracts/CrowdSourcing.sol\":2295:2318  _milestones[i].deadline */\n      0x20\n      add\n      mload\n        /* \"contracts/CrowdSourcing.sol\":2269:2278  milestone */\n      dup2\n        /* \"contracts/CrowdSourcing.sol\":2269:2283  milestone.info */\n      0x00\n      add\n        /* \"contracts/CrowdSourcing.sol\":2269:2292  milestone.info.deadline */\n      0x01\n      add\n        /* \"contracts/CrowdSourcing.sol\":2269:2318  milestone.info.deadline = _milestones[i].deadline */\n      dup2\n      swap1\n      sstore\n      pop\n        /* \"contracts/CrowdSourcing.sol\":2356:2357  0 */\n      0x00\n        /* \"contracts/CrowdSourcing.sol\":2332:2341  milestone */\n      dup2\n        /* \"contracts/CrowdSourcing.sol\":2332:2353  milestone.totalFunded */\n      0x02\n      add\n        /* \"contracts/CrowdSourcing.sol\":2332:2357  milestone.totalFunded = 0 */\n      dup2\n      swap1\n      sstore\n      pop\n        /* \"contracts/CrowdSourcing.sol\":2391:2396  false */\n      0x00\n        /* \"contracts/CrowdSourcing.sol\":2371:2380  milestone */\n      dup2\n        /* \"contracts/CrowdSourcing.sol\":2371:2388  milestone.reached */\n      0x04\n      add\n      0x00\n        /* \"contracts/CrowdSourcing.sol\":2371:2396  milestone.reached = false */\n      0x0100\n      exp\n      dup2\n      sload\n      dup2\n      0xff\n      mul\n      not\n      and\n      swap1\n      dup4\n      iszero\n      iszero\n      mul\n      or\n      swap1\n      sstore\n      pop\n        /* \"contracts/CrowdSourcing.sol\":2119:2407  {... */\n      pop\n        /* \"contracts/CrowdSourcing.sol\":2115:2118  i++ */\n      dup1\n      dup1\n      0x01\n      add\n      swap2\n      pop\n      pop\n        /* \"contracts/CrowdSourcing.sol\":2078:2407  for(uint i=0; i< _milestones.length; i++){... */\n      jump(tag_72)\n    tag_73:\n      pop\n        /* \"contracts/CrowdSourcing.sol\":1681:2413  {... */\n      pop\n        /* \"contracts/CrowdSourcing.sol\":1570:2413  function createProject(... */\n      pop\n      pop\n      jump\t// out\n        /* \"contracts/CrowdSourcing.sol\":2419:3093  function fundProject (... */\n    tag_30:\n        /* \"contracts/CrowdSourcing.sol\":2522:2530  projects */\n      0x01\n        /* \"contracts/CrowdSourcing.sol\":2522:2537  projects.length */\n      dup1\n      sload\n      swap1\n      pop\n        /* \"contracts/CrowdSourcing.sol\":2508:2519  _projectIdx */\n      dup2\n        /* \"contracts/CrowdSourcing.sol\":2508:2537  _projectIdx < projects.length */\n      lt\n        /* \"contracts/CrowdSourcing.sol\":2500:2563  require(_projectIdx < projects.length, \"Project doesn't exist\") */\n      tag_81\n      jumpi\n      mload(0x40)\n      0x08c379a000000000000000000000000000000000000000000000000000000000\n      dup2\n      mstore\n      0x04\n      add\n      tag_82\n      swap1\n      tag_83\n      jump\t// in\n    tag_82:\n      mload(0x40)\n      dup1\n      swap2\n      sub\n      swap1\n      revert\n    tag_81:\n        /* \"contracts/CrowdSourcing.sol\":2594:2604  msg.sender */\n      caller\n        /* \"contracts/CrowdSourcing.sol\":2594:2612  msg.sender.balance */\n      0xffffffffffffffffffffffffffffffffffffffff\n      and\n      balance\n        /* \"contracts/CrowdSourcing.sol\":2581:2590  msg.value */\n      callvalue\n        /* \"contracts/CrowdSourcing.sol\":2581:2612  msg.value >= msg.sender.balance */\n      lt\n      iszero\n        /* \"contracts/CrowdSourcing.sol\":2573:2651  require(msg.value >= msg.sender.balance, \"You dont have enough money to fund\") */\n      tag_84\n      jumpi\n      mload(0x40)\n      0x08c379a000000000000000000000000000000000000000000000000000000000\n      dup2\n      mstore\n      0x04\n      add\n      tag_85\n      swap1\n      tag_86\n      jump\t// in\n    tag_85:\n      mload(0x40)\n      dup1\n      swap2\n      sub\n      swap1\n      revert\n    tag_84:\n        /* \"contracts/CrowdSourcing.sol\":2681:2682  0 */\n      0x00\n        /* \"contracts/CrowdSourcing.sol\":2669:2678  msg.value */\n      callvalue\n        /* \"contracts/CrowdSourcing.sol\":2669:2682  msg.value > 0 */\n      gt\n        /* \"contracts/CrowdSourcing.sol\":2661:2709  require(msg.value > 0, \"Fund amount can't be 0\") */\n      tag_87\n      jumpi\n      mload(0x40)\n      0x08c379a000000000000000000000000000000000000000000000000000000000\n      dup2\n      mstore\n      0x04\n      add\n      tag_88\n      swap1\n      tag_89\n      jump\t// in\n    tag_88:\n      mload(0x40)\n      dup1\n      swap2\n      sub\n      swap1\n      revert\n    tag_87:\n        /* \"contracts/CrowdSourcing.sol\":2720:2743  Project storage project */\n      0x00\n        /* \"contracts/CrowdSourcing.sol\":2746:2754  projects */\n      0x01\n        /* \"contracts/CrowdSourcing.sol\":2755:2766  _projectIdx */\n      dup3\n        /* \"contracts/CrowdSourcing.sol\":2746:2767  projects[_projectIdx] */\n      dup2\n      sload\n      dup2\n      lt\n      tag_90\n      jumpi\n      tag_91\n      tag_34\n      jump\t// in\n    tag_91:\n    tag_90:\n      swap1\n      0x00\n      mstore\n      keccak256(0x00, 0x20)\n      swap1\n      0x06\n      mul\n      add\n        /* \"contracts/CrowdSourcing.sol\":2720:2767  Project storage project = projects[_projectIdx] */\n      swap1\n      pop\n        /* \"contracts/CrowdSourcing.sol\":2785:2792  project */\n      dup1\n        /* \"contracts/CrowdSourcing.sol\":2785:2801  project.isActive */\n      0x05\n      add\n      0x00\n      swap1\n      sload\n      swap1\n      0x0100\n      exp\n      swap1\n      div\n      0xff\n      and\n        /* \"contracts/CrowdSourcing.sol\":2777:2836  require(project.isActive, \"Project must be active to fund\") */\n      tag_93\n      jumpi\n      mload(0x40)\n      0x08c379a000000000000000000000000000000000000000000000000000000000\n      dup2\n      mstore\n      0x04\n      add\n      tag_94\n      swap1\n      tag_95\n      jump\t// in\n    tag_94:\n      mload(0x40)\n      dup1\n      swap2\n      sub\n      swap1\n      revert\n    tag_93:\n        /* \"contracts/CrowdSourcing.sol\":2847:2881  Milestone storage currentMilestone */\n      0x00\n        /* \"contracts/CrowdSourcing.sol\":2884:2891  project */\n      dup2\n        /* \"contracts/CrowdSourcing.sol\":2884:2902  project.milestones */\n      0x04\n      add\n        /* \"contracts/CrowdSourcing.sol\":2903:2910  project */\n      dup3\n        /* \"contracts/CrowdSourcing.sol\":2903:2932  project.currentMilestoneIndex */\n      0x03\n      add\n      sload\n        /* \"contracts/CrowdSourcing.sol\":2884:2933  project.milestones[project.currentMilestoneIndex] */\n      dup2\n      sload\n      dup2\n      lt\n      tag_96\n      jumpi\n      tag_97\n      tag_34\n      jump\t// in\n    tag_97:\n    tag_96:\n      swap1\n      0x00\n      mstore\n      keccak256(0x00, 0x20)\n      swap1\n      0x05\n      mul\n      add\n        /* \"contracts/CrowdSourcing.sol\":2847:2933  Milestone storage currentMilestone = project.milestones[project.currentMilestoneIndex] */\n      swap1\n      pop\n        /* \"contracts/CrowdSourcing.sol\":2984:2993  msg.value */\n      callvalue\n        /* \"contracts/CrowdSourcing.sol\":2944:2960  currentMilestone */\n      dup2\n        /* \"contracts/CrowdSourcing.sol\":2944:2968  currentMilestone.funders */\n      0x03\n      add\n        /* \"contracts/CrowdSourcing.sol\":2944:2980  currentMilestone.funders[msg.sender] */\n      0x00\n        /* \"contracts/CrowdSourcing.sol\":2969:2979  msg.sender */\n      caller\n        /* \"contracts/CrowdSourcing.sol\":2944:2980  currentMilestone.funders[msg.sender] */\n      0xffffffffffffffffffffffffffffffffffffffff\n      and\n      0xffffffffffffffffffffffffffffffffffffffff\n      and\n      dup2\n      mstore\n      0x20\n      add\n      swap1\n      dup2\n      mstore\n      0x20\n      add\n      0x00\n      keccak256\n      0x00\n        /* \"contracts/CrowdSourcing.sol\":2944:2993  currentMilestone.funders[msg.sender] += msg.value */\n      dup3\n      dup3\n      sload\n      tag_99\n      swap2\n      swap1\n      tag_100\n      jump\t// in\n    tag_99:\n      swap3\n      pop\n      pop\n      dup2\n      swap1\n      sstore\n      pop\n        /* \"contracts/CrowdSourcing.sol\":3035:3044  msg.value */\n      callvalue\n        /* \"contracts/CrowdSourcing.sol\":3003:3019  currentMilestone */\n      dup2\n        /* \"contracts/CrowdSourcing.sol\":3003:3031  currentMilestone.totalFunded */\n      0x02\n      add\n      0x00\n        /* \"contracts/CrowdSourcing.sol\":3003:3044  currentMilestone.totalFunded += msg.value */\n      dup3\n      dup3\n      sload\n      tag_101\n      swap2\n      swap1\n      tag_100\n      jump\t// in\n    tag_101:\n      swap3\n      pop\n      pop\n      dup2\n      swap1\n      sstore\n      pop\n        /* \"contracts/CrowdSourcing.sol\":3077:3086  msg.value */\n      callvalue\n        /* \"contracts/CrowdSourcing.sol\":3054:3061  project */\n      dup3\n        /* \"contracts/CrowdSourcing.sol\":3054:3073  project.totalFunded */\n      0x02\n      add\n      0x00\n        /* \"contracts/CrowdSourcing.sol\":3054:3086  project.totalFunded += msg.value */\n      dup3\n      dup3\n      sload\n      tag_102\n      swap2\n      swap1\n      tag_100\n      jump\t// in\n    tag_102:\n      swap3\n      pop\n      pop\n      dup2\n      swap1\n      sstore\n      pop\n        /* \"contracts/CrowdSourcing.sol\":2490:3093  {... */\n      pop\n      pop\n        /* \"contracts/CrowdSourcing.sol\":2419:3093  function fundProject (... */\n      pop\n      jump\t// out\n        /* \"#utility.yul\":7:82   */\n    tag_103:\n        /* \"#utility.yul\":40:46   */\n      0x00\n        /* \"#utility.yul\":73:75   */\n      0x40\n        /* \"#utility.yul\":67:76   */\n      mload\n        /* \"#utility.yul\":57:76   */\n      swap1\n      pop\n        /* \"#utility.yul\":7:82   */\n      swap1\n      jump\t// out\n        /* \"#utility.yul\":88:205   */\n    tag_104:\n        /* \"#utility.yul\":197:198   */\n      0x00\n        /* \"#utility.yul\":194:195   */\n      0x00\n        /* \"#utility.yul\":187:199   */\n      revert\n        /* \"#utility.yul\":211:328   */\n    tag_105:\n        /* \"#utility.yul\":320:321   */\n      0x00\n        /* \"#utility.yul\":317:318   */\n      0x00\n        /* \"#utility.yul\":310:322   */\n      revert\n        /* \"#utility.yul\":334:411   */\n    tag_106:\n        /* \"#utility.yul\":371:378   */\n      0x00\n        /* \"#utility.yul\":400:405   */\n      dup2\n        /* \"#utility.yul\":389:405   */\n      swap1\n      pop\n        /* \"#utility.yul\":334:411   */\n      swap2\n      swap1\n      pop\n      jump\t// out\n        /* \"#utility.yul\":417:539   */\n    tag_107:\n        /* \"#utility.yul\":490:514   */\n      tag_177\n        /* \"#utility.yul\":508:513   */\n      dup2\n        /* \"#utility.yul\":490:514   */\n      tag_106\n      jump\t// in\n    tag_177:\n        /* \"#utility.yul\":483:488   */\n      dup2\n        /* \"#utility.yul\":480:515   */\n      eq\n        /* \"#utility.yul\":470:533   */\n      tag_178\n      jumpi\n        /* \"#utility.yul\":529:530   */\n      0x00\n        /* \"#utility.yul\":526:527   */\n      0x00\n        /* \"#utility.yul\":519:531   */\n      revert\n        /* \"#utility.yul\":470:533   */\n    tag_178:\n        /* \"#utility.yul\":417:539   */\n      pop\n      jump\t// out\n        /* \"#utility.yul\":545:684   */\n    tag_108:\n        /* \"#utility.yul\":591:596   */\n      0x00\n        /* \"#utility.yul\":629:635   */\n      dup2\n        /* \"#utility.yul\":616:636   */\n      calldataload\n        /* \"#utility.yul\":607:636   */\n      swap1\n      pop\n        /* \"#utility.yul\":645:678   */\n      tag_180\n        /* \"#utility.yul\":672:677   */\n      dup2\n        /* \"#utility.yul\":645:678   */\n      tag_107\n      jump\t// in\n    tag_180:\n        /* \"#utility.yul\":545:684   */\n      swap3\n      swap2\n      pop\n      pop\n      jump\t// out\n        /* \"#utility.yul\":690:1019   */\n    tag_10:\n        /* \"#utility.yul\":749:755   */\n      0x00\n        /* \"#utility.yul\":798:800   */\n      0x20\n        /* \"#utility.yul\":786:795   */\n      dup3\n        /* \"#utility.yul\":777:784   */\n      dup5\n        /* \"#utility.yul\":773:796   */\n      sub\n        /* \"#utility.yul\":769:801   */\n      slt\n        /* \"#utility.yul\":766:885   */\n      iszero\n      tag_182\n      jumpi\n        /* \"#utility.yul\":804:883   */\n      tag_183\n      tag_104\n      jump\t// in\n    tag_183:\n        /* \"#utility.yul\":766:885   */\n    tag_182:\n        /* \"#utility.yul\":924:925   */\n      0x00\n        /* \"#utility.yul\":949:1002   */\n      tag_184\n        /* \"#utility.yul\":994:1001   */\n      dup5\n        /* \"#utility.yul\":985:991   */\n      dup3\n        /* \"#utility.yul\":974:983   */\n      dup6\n        /* \"#utility.yul\":970:992   */\n      add\n        /* \"#utility.yul\":949:1002   */\n      tag_108\n      jump\t// in\n    tag_184:\n        /* \"#utility.yul\":939:1002   */\n      swap2\n      pop\n        /* \"#utility.yul\":895:1012   */\n      pop\n        /* \"#utility.yul\":690:1019   */\n      swap3\n      swap2\n      pop\n      pop\n      jump\t// out\n        /* \"#utility.yul\":1025:1151   */\n    tag_109:\n        /* \"#utility.yul\":1062:1069   */\n      0x00\n        /* \"#utility.yul\":1102:1144   */\n      0xffffffffffffffffffffffffffffffffffffffff\n        /* \"#utility.yul\":1095:1100   */\n      dup3\n        /* \"#utility.yul\":1091:1145   */\n      and\n        /* \"#utility.yul\":1080:1145   */\n      swap1\n      pop\n        /* \"#utility.yul\":1025:1151   */\n      swap2\n      swap1\n      pop\n      jump\t// out\n        /* \"#utility.yul\":1157:1253   */\n    tag_110:\n        /* \"#utility.yul\":1194:1201   */\n      0x00\n        /* \"#utility.yul\":1223:1247   */\n      tag_187\n        /* \"#utility.yul\":1241:1246   */\n      dup3\n        /* \"#utility.yul\":1223:1247   */\n      tag_109\n      jump\t// in\n    tag_187:\n        /* \"#utility.yul\":1212:1247   */\n      swap1\n      pop\n        /* \"#utility.yul\":1157:1253   */\n      swap2\n      swap1\n      pop\n      jump\t// out\n        /* \"#utility.yul\":1259:1377   */\n    tag_111:\n        /* \"#utility.yul\":1346:1370   */\n      tag_189\n        /* \"#utility.yul\":1364:1369   */\n      dup2\n        /* \"#utility.yul\":1346:1370   */\n      tag_110\n      jump\t// in\n    tag_189:\n        /* \"#utility.yul\":1341:1344   */\n      dup3\n        /* \"#utility.yul\":1334:1371   */\n      mstore\n        /* \"#utility.yul\":1259:1377   */\n      pop\n      pop\n      jump\t// out\n        /* \"#utility.yul\":1383:1605   */\n    tag_16:\n        /* \"#utility.yul\":1476:1480   */\n      0x00\n        /* \"#utility.yul\":1514:1516   */\n      0x20\n        /* \"#utility.yul\":1503:1512   */\n      dup3\n        /* \"#utility.yul\":1499:1517   */\n      add\n        /* \"#utility.yul\":1491:1517   */\n      swap1\n      pop\n        /* \"#utility.yul\":1527:1598   */\n      tag_191\n        /* \"#utility.yul\":1595:1596   */\n      0x00\n        /* \"#utility.yul\":1584:1593   */\n      dup4\n        /* \"#utility.yul\":1580:1597   */\n      add\n        /* \"#utility.yul\":1571:1577   */\n      dup5\n        /* \"#utility.yul\":1527:1598   */\n      tag_111\n      jump\t// in\n    tag_191:\n        /* \"#utility.yul\":1383:1605   */\n      swap3\n      swap2\n      pop\n      pop\n      jump\t// out\n        /* \"#utility.yul\":1611:1710   */\n    tag_112:\n        /* \"#utility.yul\":1663:1669   */\n      0x00\n        /* \"#utility.yul\":1697:1702   */\n      dup2\n        /* \"#utility.yul\":1691:1703   */\n      mload\n        /* \"#utility.yul\":1681:1703   */\n      swap1\n      pop\n        /* \"#utility.yul\":1611:1710   */\n      swap2\n      swap1\n      pop\n      jump\t// out\n        /* \"#utility.yul\":1716:1885   */\n    tag_113:\n        /* \"#utility.yul\":1800:1811   */\n      0x00\n        /* \"#utility.yul\":1834:1840   */\n      dup3\n        /* \"#utility.yul\":1829:1832   */\n      dup3\n        /* \"#utility.yul\":1822:1841   */\n      mstore\n        /* \"#utility.yul\":1874:1878   */\n      0x20\n        /* \"#utility.yul\":1869:1872   */\n      dup3\n        /* \"#utility.yul\":1865:1879   */\n      add\n        /* \"#utility.yul\":1850:1879   */\n      swap1\n      pop\n        /* \"#utility.yul\":1716:1885   */\n      swap3\n      swap2\n      pop\n      pop\n      jump\t// out\n        /* \"#utility.yul\":1891:2030   */\n    tag_114:\n        /* \"#utility.yul\":1980:1986   */\n      dup3\n        /* \"#utility.yul\":1975:1978   */\n      dup2\n        /* \"#utility.yul\":1970:1973   */\n      dup4\n        /* \"#utility.yul\":1964:1987   */\n      mcopy\n        /* \"#utility.yul\":2021:2022   */\n      0x00\n        /* \"#utility.yul\":2012:2018   */\n      dup4\n        /* \"#utility.yul\":2007:2010   */\n      dup4\n        /* \"#utility.yul\":2003:2019   */\n      add\n        /* \"#utility.yul\":1996:2023   */\n      mstore\n        /* \"#utility.yul\":1891:2030   */\n      pop\n      pop\n      pop\n      jump\t// out\n        /* \"#utility.yul\":2036:2138   */\n    tag_115:\n        /* \"#utility.yul\":2077:2083   */\n      0x00\n        /* \"#utility.yul\":2128:2130   */\n      0x1f\n        /* \"#utility.yul\":2124:2131   */\n      not\n        /* \"#utility.yul\":2119:2121   */\n      0x1f\n        /* \"#utility.yul\":2112:2117   */\n      dup4\n        /* \"#utility.yul\":2108:2122   */\n      add\n        /* \"#utility.yul\":2104:2132   */\n      and\n        /* \"#utility.yul\":2094:2132   */\n      swap1\n      pop\n        /* \"#utility.yul\":2036:2138   */\n      swap2\n      swap1\n      pop\n      jump\t// out\n        /* \"#utility.yul\":2144:2521   */\n    tag_116:\n        /* \"#utility.yul\":2232:2235   */\n      0x00\n        /* \"#utility.yul\":2260:2299   */\n      tag_197\n        /* \"#utility.yul\":2293:2298   */\n      dup3\n        /* \"#utility.yul\":2260:2299   */\n      tag_112\n      jump\t// in\n    tag_197:\n        /* \"#utility.yul\":2315:2386   */\n      tag_198\n        /* \"#utility.yul\":2379:2385   */\n      dup2\n        /* \"#utility.yul\":2374:2377   */\n      dup6\n        /* \"#utility.yul\":2315:2386   */\n      tag_113\n      jump\t// in\n    tag_198:\n        /* \"#utility.yul\":2308:2386   */\n      swap4\n      pop\n        /* \"#utility.yul\":2395:2460   */\n      tag_199\n        /* \"#utility.yul\":2453:2459   */\n      dup2\n        /* \"#utility.yul\":2448:2451   */\n      dup6\n        /* \"#utility.yul\":2441:2445   */\n      0x20\n        /* \"#utility.yul\":2434:2439   */\n      dup7\n        /* \"#utility.yul\":2430:2446   */\n      add\n        /* \"#utility.yul\":2395:2460   */\n      tag_114\n      jump\t// in\n    tag_199:\n        /* \"#utility.yul\":2485:2514   */\n      tag_200\n        /* \"#utility.yul\":2507:2513   */\n      dup2\n        /* \"#utility.yul\":2485:2514   */\n      tag_115\n      jump\t// in\n    tag_200:\n        /* \"#utility.yul\":2480:2483   */\n      dup5\n        /* \"#utility.yul\":2476:2515   */\n      add\n        /* \"#utility.yul\":2469:2515   */\n      swap2\n      pop\n        /* \"#utility.yul\":2236:2521   */\n      pop\n        /* \"#utility.yul\":2144:2521   */\n      swap3\n      swap2\n      pop\n      pop\n      jump\t// out\n        /* \"#utility.yul\":2527:2645   */\n    tag_117:\n        /* \"#utility.yul\":2614:2638   */\n      tag_202\n        /* \"#utility.yul\":2632:2637   */\n      dup2\n        /* \"#utility.yul\":2614:2638   */\n      tag_106\n      jump\t// in\n    tag_202:\n        /* \"#utility.yul\":2609:2612   */\n      dup3\n        /* \"#utility.yul\":2602:2639   */\n      mstore\n        /* \"#utility.yul\":2527:2645   */\n      pop\n      pop\n      jump\t// out\n        /* \"#utility.yul\":2651:2741   */\n    tag_118:\n        /* \"#utility.yul\":2685:2692   */\n      0x00\n        /* \"#utility.yul\":2728:2733   */\n      dup2\n        /* \"#utility.yul\":2721:2734   */\n      iszero\n        /* \"#utility.yul\":2714:2735   */\n      iszero\n        /* \"#utility.yul\":2703:2735   */\n      swap1\n      pop\n        /* \"#utility.yul\":2651:2741   */\n      swap2\n      swap1\n      pop\n      jump\t// out\n        /* \"#utility.yul\":2747:2856   */\n    tag_119:\n        /* \"#utility.yul\":2828:2849   */\n      tag_205\n        /* \"#utility.yul\":2843:2848   */\n      dup2\n        /* \"#utility.yul\":2828:2849   */\n      tag_118\n      jump\t// in\n    tag_205:\n        /* \"#utility.yul\":2823:2826   */\n      dup3\n        /* \"#utility.yul\":2816:2850   */\n      mstore\n        /* \"#utility.yul\":2747:2856   */\n      pop\n      pop\n      jump\t// out\n        /* \"#utility.yul\":2862:3605   */\n    tag_22:\n        /* \"#utility.yul\":3081:3085   */\n      0x00\n        /* \"#utility.yul\":3119:3122   */\n      0xa0\n        /* \"#utility.yul\":3108:3117   */\n      dup3\n        /* \"#utility.yul\":3104:3123   */\n      add\n        /* \"#utility.yul\":3096:3123   */\n      swap1\n      pop\n        /* \"#utility.yul\":3133:3204   */\n      tag_207\n        /* \"#utility.yul\":3201:3202   */\n      0x00\n        /* \"#utility.yul\":3190:3199   */\n      dup4\n        /* \"#utility.yul\":3186:3203   */\n      add\n        /* \"#utility.yul\":3177:3183   */\n      dup9\n        /* \"#utility.yul\":3133:3204   */\n      tag_111\n      jump\t// in\n    tag_207:\n        /* \"#utility.yul\":3251:3260   */\n      dup2\n        /* \"#utility.yul\":3245:3249   */\n      dup2\n        /* \"#utility.yul\":3241:3261   */\n      sub\n        /* \"#utility.yul\":3236:3238   */\n      0x20\n        /* \"#utility.yul\":3225:3234   */\n      dup4\n        /* \"#utility.yul\":3221:3239   */\n      add\n        /* \"#utility.yul\":3214:3262   */\n      mstore\n        /* \"#utility.yul\":3279:3357   */\n      tag_208\n        /* \"#utility.yul\":3352:3356   */\n      dup2\n        /* \"#utility.yul\":3343:3349   */\n      dup8\n        /* \"#utility.yul\":3279:3357   */\n      tag_116\n      jump\t// in\n    tag_208:\n        /* \"#utility.yul\":3271:3357   */\n      swap1\n      pop\n        /* \"#utility.yul\":3367:3439   */\n      tag_209\n        /* \"#utility.yul\":3435:3437   */\n      0x40\n        /* \"#utility.yul\":3424:3433   */\n      dup4\n        /* \"#utility.yul\":3420:3438   */\n      add\n        /* \"#utility.yul\":3411:3417   */\n      dup7\n        /* \"#utility.yul\":3367:3439   */\n      tag_117\n      jump\t// in\n    tag_209:\n        /* \"#utility.yul\":3449:3521   */\n      tag_210\n        /* \"#utility.yul\":3517:3519   */\n      0x60\n        /* \"#utility.yul\":3506:3515   */\n      dup4\n        /* \"#utility.yul\":3502:3520   */\n      add\n        /* \"#utility.yul\":3493:3499   */\n      dup6\n        /* \"#utility.yul\":3449:3521   */\n      tag_117\n      jump\t// in\n    tag_210:\n        /* \"#utility.yul\":3531:3598   */\n      tag_211\n        /* \"#utility.yul\":3593:3596   */\n      0x80\n        /* \"#utility.yul\":3582:3591   */\n      dup4\n        /* \"#utility.yul\":3578:3597   */\n      add\n        /* \"#utility.yul\":3569:3575   */\n      dup5\n        /* \"#utility.yul\":3531:3598   */\n      tag_119\n      jump\t// in\n    tag_211:\n        /* \"#utility.yul\":2862:3605   */\n      swap7\n      swap6\n      pop\n      pop\n      pop\n      pop\n      pop\n      pop\n      jump\t// out\n        /* \"#utility.yul\":3611:3728   */\n    tag_120:\n        /* \"#utility.yul\":3720:3721   */\n      0x00\n        /* \"#utility.yul\":3717:3718   */\n      0x00\n        /* \"#utility.yul\":3710:3722   */\n      revert\n        /* \"#utility.yul\":3734:3851   */\n    tag_121:\n        /* \"#utility.yul\":3843:3844   */\n      0x00\n        /* \"#utility.yul\":3840:3841   */\n      0x00\n        /* \"#utility.yul\":3833:3845   */\n      revert\n        /* \"#utility.yul\":3857:4037   */\n    tag_122:\n        /* \"#utility.yul\":3905:3982   */\n      0x4e487b7100000000000000000000000000000000000000000000000000000000\n        /* \"#utility.yul\":3902:3903   */\n      0x00\n        /* \"#utility.yul\":3895:3983   */\n      mstore\n        /* \"#utility.yul\":4002:4006   */\n      0x41\n        /* \"#utility.yul\":3999:4000   */\n      0x04\n        /* \"#utility.yul\":3992:4007   */\n      mstore\n        /* \"#utility.yul\":4026:4030   */\n      0x24\n        /* \"#utility.yul\":4023:4024   */\n      0x00\n        /* \"#utility.yul\":4016:4031   */\n      revert\n        /* \"#utility.yul\":4043:4324   */\n    tag_123:\n        /* \"#utility.yul\":4126:4153   */\n      tag_216\n        /* \"#utility.yul\":4148:4152   */\n      dup3\n        /* \"#utility.yul\":4126:4153   */\n      tag_115\n      jump\t// in\n    tag_216:\n        /* \"#utility.yul\":4118:4124   */\n      dup2\n        /* \"#utility.yul\":4114:4154   */\n      add\n        /* \"#utility.yul\":4256:4262   */\n      dup2\n        /* \"#utility.yul\":4244:4254   */\n      dup2\n        /* \"#utility.yul\":4241:4263   */\n      lt\n        /* \"#utility.yul\":4220:4238   */\n      0xffffffffffffffff\n        /* \"#utility.yul\":4208:4218   */\n      dup3\n        /* \"#utility.yul\":4205:4239   */\n      gt\n        /* \"#utility.yul\":4202:4264   */\n      or\n        /* \"#utility.yul\":4199:4287   */\n      iszero\n      tag_217\n      jumpi\n        /* \"#utility.yul\":4267:4285   */\n      tag_218\n      tag_122\n      jump\t// in\n    tag_218:\n        /* \"#utility.yul\":4199:4287   */\n    tag_217:\n        /* \"#utility.yul\":4307:4317   */\n      dup1\n        /* \"#utility.yul\":4303:4305   */\n      0x40\n        /* \"#utility.yul\":4296:4318   */\n      mstore\n        /* \"#utility.yul\":4086:4324   */\n      pop\n        /* \"#utility.yul\":4043:4324   */\n      pop\n      pop\n      jump\t// out\n        /* \"#utility.yul\":4330:4459   */\n    tag_124:\n        /* \"#utility.yul\":4364:4370   */\n      0x00\n        /* \"#utility.yul\":4391:4411   */\n      tag_220\n      tag_103\n      jump\t// in\n    tag_220:\n        /* \"#utility.yul\":4381:4411   */\n      swap1\n      pop\n        /* \"#utility.yul\":4420:4453   */\n      tag_221\n        /* \"#utility.yul\":4448:4452   */\n      dup3\n        /* \"#utility.yul\":4440:4446   */\n      dup3\n        /* \"#utility.yul\":4420:4453   */\n      tag_123\n      jump\t// in\n    tag_221:\n        /* \"#utility.yul\":4330:4459   */\n      swap2\n      swap1\n      pop\n      jump\t// out\n        /* \"#utility.yul\":4465:4773   */\n    tag_125:\n        /* \"#utility.yul\":4527:4531   */\n      0x00\n        /* \"#utility.yul\":4617:4635   */\n      0xffffffffffffffff\n        /* \"#utility.yul\":4609:4615   */\n      dup3\n        /* \"#utility.yul\":4606:4636   */\n      gt\n        /* \"#utility.yul\":4603:4659   */\n      iszero\n      tag_223\n      jumpi\n        /* \"#utility.yul\":4639:4657   */\n      tag_224\n      tag_122\n      jump\t// in\n    tag_224:\n        /* \"#utility.yul\":4603:4659   */\n    tag_223:\n        /* \"#utility.yul\":4677:4706   */\n      tag_225\n        /* \"#utility.yul\":4699:4705   */\n      dup3\n        /* \"#utility.yul\":4677:4706   */\n      tag_115\n      jump\t// in\n    tag_225:\n        /* \"#utility.yul\":4669:4706   */\n      swap1\n      pop\n        /* \"#utility.yul\":4761:4765   */\n      0x20\n        /* \"#utility.yul\":4755:4759   */\n      dup2\n        /* \"#utility.yul\":4751:4766   */\n      add\n        /* \"#utility.yul\":4743:4766   */\n      swap1\n      pop\n        /* \"#utility.yul\":4465:4773   */\n      swap2\n      swap1\n      pop\n      jump\t// out\n        /* \"#utility.yul\":4779:4927   */\n    tag_126:\n        /* \"#utility.yul\":4877:4883   */\n      dup3\n        /* \"#utility.yul\":4872:4875   */\n      dup2\n        /* \"#utility.yul\":4867:4870   */\n      dup4\n        /* \"#utility.yul\":4854:4884   */\n      calldatacopy\n        /* \"#utility.yul\":4918:4919   */\n      0x00\n        /* \"#utility.yul\":4909:4915   */\n      dup4\n        /* \"#utility.yul\":4904:4907   */\n      dup4\n        /* \"#utility.yul\":4900:4916   */\n      add\n        /* \"#utility.yul\":4893:4920   */\n      mstore\n        /* \"#utility.yul\":4779:4927   */\n      pop\n      pop\n      pop\n      jump\t// out\n        /* \"#utility.yul\":4933:5358   */\n    tag_127:\n        /* \"#utility.yul\":5011:5016   */\n      0x00\n        /* \"#utility.yul\":5036:5102   */\n      tag_228\n        /* \"#utility.yul\":5052:5101   */\n      tag_229\n        /* \"#utility.yul\":5094:5100   */\n      dup5\n        /* \"#utility.yul\":5052:5101   */\n      tag_125\n      jump\t// in\n    tag_229:\n        /* \"#utility.yul\":5036:5102   */\n      tag_124\n      jump\t// in\n    tag_228:\n        /* \"#utility.yul\":5027:5102   */\n      swap1\n      pop\n        /* \"#utility.yul\":5125:5131   */\n      dup3\n        /* \"#utility.yul\":5118:5123   */\n      dup2\n        /* \"#utility.yul\":5111:5132   */\n      mstore\n        /* \"#utility.yul\":5163:5167   */\n      0x20\n        /* \"#utility.yul\":5156:5161   */\n      dup2\n        /* \"#utility.yul\":5152:5168   */\n      add\n        /* \"#utility.yul\":5201:5204   */\n      dup5\n        /* \"#utility.yul\":5192:5198   */\n      dup5\n        /* \"#utility.yul\":5187:5190   */\n      dup5\n        /* \"#utility.yul\":5183:5199   */\n      add\n        /* \"#utility.yul\":5180:5205   */\n      gt\n        /* \"#utility.yul\":5177:5289   */\n      iszero\n      tag_230\n      jumpi\n        /* \"#utility.yul\":5208:5287   */\n      tag_231\n      tag_121\n      jump\t// in\n    tag_231:\n        /* \"#utility.yul\":5177:5289   */\n    tag_230:\n        /* \"#utility.yul\":5298:5352   */\n      tag_232\n        /* \"#utility.yul\":5345:5351   */\n      dup5\n        /* \"#utility.yul\":5340:5343   */\n      dup3\n        /* \"#utility.yul\":5335:5338   */\n      dup6\n        /* \"#utility.yul\":5298:5352   */\n      tag_126\n      jump\t// in\n    tag_232:\n        /* \"#utility.yul\":5017:5358   */\n      pop\n        /* \"#utility.yul\":4933:5358   */\n      swap4\n      swap3\n      pop\n      pop\n      pop\n      jump\t// out\n        /* \"#utility.yul\":5378:5718   */\n    tag_128:\n        /* \"#utility.yul\":5434:5439   */\n      0x00\n        /* \"#utility.yul\":5483:5486   */\n      dup3\n        /* \"#utility.yul\":5476:5480   */\n      0x1f\n        /* \"#utility.yul\":5468:5474   */\n      dup4\n        /* \"#utility.yul\":5464:5481   */\n      add\n        /* \"#utility.yul\":5460:5487   */\n      slt\n        /* \"#utility.yul\":5450:5572   */\n      tag_234\n      jumpi\n        /* \"#utility.yul\":5491:5570   */\n      tag_235\n      tag_120\n      jump\t// in\n    tag_235:\n        /* \"#utility.yul\":5450:5572   */\n    tag_234:\n        /* \"#utility.yul\":5608:5614   */\n      dup2\n        /* \"#utility.yul\":5595:5615   */\n      calldataload\n        /* \"#utility.yul\":5633:5712   */\n      tag_236\n        /* \"#utility.yul\":5708:5711   */\n      dup5\n        /* \"#utility.yul\":5700:5706   */\n      dup3\n        /* \"#utility.yul\":5693:5697   */\n      0x20\n        /* \"#utility.yul\":5685:5691   */\n      dup7\n        /* \"#utility.yul\":5681:5698   */\n      add\n        /* \"#utility.yul\":5633:5712   */\n      tag_127\n      jump\t// in\n    tag_236:\n        /* \"#utility.yul\":5624:5712   */\n      swap2\n      pop\n        /* \"#utility.yul\":5440:5718   */\n      pop\n        /* \"#utility.yul\":5378:5718   */\n      swap3\n      swap2\n      pop\n      pop\n      jump\t// out\n        /* \"#utility.yul\":5724:6064   */\n    tag_129:\n        /* \"#utility.yul\":5830:5834   */\n      0x00\n        /* \"#utility.yul\":5920:5938   */\n      0xffffffffffffffff\n        /* \"#utility.yul\":5912:5918   */\n      dup3\n        /* \"#utility.yul\":5909:5939   */\n      gt\n        /* \"#utility.yul\":5906:5962   */\n      iszero\n      tag_238\n      jumpi\n        /* \"#utility.yul\":5942:5960   */\n      tag_239\n      tag_122\n      jump\t// in\n    tag_239:\n        /* \"#utility.yul\":5906:5962   */\n    tag_238:\n        /* \"#utility.yul\":5992:5996   */\n      0x20\n        /* \"#utility.yul\":5984:5990   */\n      dup3\n        /* \"#utility.yul\":5980:5997   */\n      mul\n        /* \"#utility.yul\":5972:5997   */\n      swap1\n      pop\n        /* \"#utility.yul\":6052:6056   */\n      0x20\n        /* \"#utility.yul\":6046:6050   */\n      dup2\n        /* \"#utility.yul\":6042:6057   */\n      add\n        /* \"#utility.yul\":6034:6057   */\n      swap1\n      pop\n        /* \"#utility.yul\":5724:6064   */\n      swap2\n      swap1\n      pop\n      jump\t// out\n        /* \"#utility.yul\":6070:6187   */\n    tag_130:\n        /* \"#utility.yul\":6179:6180   */\n      0x00\n        /* \"#utility.yul\":6176:6177   */\n      0x00\n        /* \"#utility.yul\":6169:6181   */\n      revert\n        /* \"#utility.yul\":6193:6310   */\n    tag_131:\n        /* \"#utility.yul\":6302:6303   */\n      0x00\n        /* \"#utility.yul\":6299:6300   */\n      0x00\n        /* \"#utility.yul\":6292:6304   */\n      revert\n        /* \"#utility.yul\":6467:7055   */\n    tag_133:\n        /* \"#utility.yul\":6545:6550   */\n      0x00\n        /* \"#utility.yul\":6589:6593   */\n      0x40\n        /* \"#utility.yul\":6577:6586   */\n      dup3\n        /* \"#utility.yul\":6572:6575   */\n      dup5\n        /* \"#utility.yul\":6568:6587   */\n      sub\n        /* \"#utility.yul\":6564:6594   */\n      slt\n        /* \"#utility.yul\":6561:6678   */\n      iszero\n      tag_244\n      jumpi\n        /* \"#utility.yul\":6597:6676   */\n      tag_245\n      tag_131\n      jump\t// in\n    tag_245:\n        /* \"#utility.yul\":6561:6678   */\n    tag_244:\n        /* \"#utility.yul\":6696:6717   */\n      tag_246\n        /* \"#utility.yul\":6712:6716   */\n      0x40\n        /* \"#utility.yul\":6696:6717   */\n      tag_124\n      jump\t// in\n    tag_246:\n        /* \"#utility.yul\":6687:6717   */\n      swap1\n      pop\n        /* \"#utility.yul\":6782:6783   */\n      0x00\n        /* \"#utility.yul\":6822:6871   */\n      tag_247\n        /* \"#utility.yul\":6867:6870   */\n      dup5\n        /* \"#utility.yul\":6858:6864   */\n      dup3\n        /* \"#utility.yul\":6847:6856   */\n      dup6\n        /* \"#utility.yul\":6843:6865   */\n      add\n        /* \"#utility.yul\":6822:6871   */\n      tag_108\n      jump\t// in\n    tag_247:\n        /* \"#utility.yul\":6815:6819   */\n      0x00\n        /* \"#utility.yul\":6808:6813   */\n      dup4\n        /* \"#utility.yul\":6804:6820   */\n      add\n        /* \"#utility.yul\":6797:6872   */\n      mstore\n        /* \"#utility.yul\":6727:6883   */\n      pop\n        /* \"#utility.yul\":6946:6948   */\n      0x20\n        /* \"#utility.yul\":6987:7036   */\n      tag_248\n        /* \"#utility.yul\":7032:7035   */\n      dup5\n        /* \"#utility.yul\":7023:7029   */\n      dup3\n        /* \"#utility.yul\":7012:7021   */\n      dup6\n        /* \"#utility.yul\":7008:7030   */\n      add\n        /* \"#utility.yul\":6987:7036   */\n      tag_108\n      jump\t// in\n    tag_248:\n        /* \"#utility.yul\":6980:6984   */\n      0x20\n        /* \"#utility.yul\":6973:6978   */\n      dup4\n        /* \"#utility.yul\":6969:6985   */\n      add\n        /* \"#utility.yul\":6962:7037   */\n      mstore\n        /* \"#utility.yul\":6893:7048   */\n      pop\n        /* \"#utility.yul\":6467:7055   */\n      swap3\n      swap2\n      pop\n      pop\n      jump\t// out\n        /* \"#utility.yul\":7091:7888   */\n    tag_134:\n        /* \"#utility.yul\":7216:7221   */\n      0x00\n        /* \"#utility.yul\":7241:7351   */\n      tag_250\n        /* \"#utility.yul\":7257:7350   */\n      tag_251\n        /* \"#utility.yul\":7343:7349   */\n      dup5\n        /* \"#utility.yul\":7257:7350   */\n      tag_129\n      jump\t// in\n    tag_251:\n        /* \"#utility.yul\":7241:7351   */\n      tag_124\n      jump\t// in\n    tag_250:\n        /* \"#utility.yul\":7232:7351   */\n      swap1\n      pop\n        /* \"#utility.yul\":7371:7376   */\n      dup1\n        /* \"#utility.yul\":7400:7406   */\n      dup4\n        /* \"#utility.yul\":7393:7398   */\n      dup3\n        /* \"#utility.yul\":7386:7407   */\n      mstore\n        /* \"#utility.yul\":7434:7438   */\n      0x20\n        /* \"#utility.yul\":7427:7432   */\n      dup3\n        /* \"#utility.yul\":7423:7439   */\n      add\n        /* \"#utility.yul\":7416:7439   */\n      swap1\n      pop\n        /* \"#utility.yul\":7487:7491   */\n      0x40\n        /* \"#utility.yul\":7479:7485   */\n      dup5\n        /* \"#utility.yul\":7475:7492   */\n      mul\n        /* \"#utility.yul\":7467:7473   */\n      dup4\n        /* \"#utility.yul\":7463:7493   */\n      add\n        /* \"#utility.yul\":7516:7519   */\n      dup6\n        /* \"#utility.yul\":7508:7514   */\n      dup2\n        /* \"#utility.yul\":7505:7520   */\n      gt\n        /* \"#utility.yul\":7502:7624   */\n      iszero\n      tag_252\n      jumpi\n        /* \"#utility.yul\":7535:7614   */\n      tag_253\n      tag_130\n      jump\t// in\n    tag_253:\n        /* \"#utility.yul\":7502:7624   */\n    tag_252:\n        /* \"#utility.yul\":7650:7656   */\n      dup4\n        /* \"#utility.yul\":7633:7882   */\n    tag_254:\n        /* \"#utility.yul\":7667:7673   */\n      dup2\n        /* \"#utility.yul\":7662:7665   */\n      dup2\n        /* \"#utility.yul\":7659:7674   */\n      lt\n        /* \"#utility.yul\":7633:7882   */\n      iszero\n      tag_256\n      jumpi\n        /* \"#utility.yul\":7742:7745   */\n      dup1\n        /* \"#utility.yul\":7771:7837   */\n      tag_257\n        /* \"#utility.yul\":7833:7836   */\n      dup9\n        /* \"#utility.yul\":7821:7831   */\n      dup3\n        /* \"#utility.yul\":7771:7837   */\n      tag_133\n      jump\t// in\n    tag_257:\n        /* \"#utility.yul\":7766:7769   */\n      dup5\n        /* \"#utility.yul\":7759:7838   */\n      mstore\n        /* \"#utility.yul\":7867:7871   */\n      0x20\n        /* \"#utility.yul\":7862:7865   */\n      dup5\n        /* \"#utility.yul\":7858:7872   */\n      add\n        /* \"#utility.yul\":7851:7872   */\n      swap4\n      pop\n        /* \"#utility.yul\":7709:7882   */\n      pop\n        /* \"#utility.yul\":7693:7697   */\n      0x40\n        /* \"#utility.yul\":7688:7691   */\n      dup2\n        /* \"#utility.yul\":7684:7698   */\n      add\n        /* \"#utility.yul\":7677:7698   */\n      swap1\n      pop\n        /* \"#utility.yul\":7633:7882   */\n      jump(tag_254)\n    tag_256:\n        /* \"#utility.yul\":7637:7658   */\n      pop\n        /* \"#utility.yul\":7222:7888   */\n      pop\n      pop\n        /* \"#utility.yul\":7091:7888   */\n      swap4\n      swap3\n      pop\n      pop\n      pop\n      jump\t// out\n        /* \"#utility.yul\":7924:8352   */\n    tag_135:\n        /* \"#utility.yul\":8024:8029   */\n      0x00\n        /* \"#utility.yul\":8073:8076   */\n      dup3\n        /* \"#utility.yul\":8066:8070   */\n      0x1f\n        /* \"#utility.yul\":8058:8064   */\n      dup4\n        /* \"#utility.yul\":8054:8071   */\n      add\n        /* \"#utility.yul\":8050:8077   */\n      slt\n        /* \"#utility.yul\":8040:8162   */\n      tag_259\n      jumpi\n        /* \"#utility.yul\":8081:8160   */\n      tag_260\n      tag_120\n      jump\t// in\n    tag_260:\n        /* \"#utility.yul\":8040:8162   */\n    tag_259:\n        /* \"#utility.yul\":8198:8204   */\n      dup2\n        /* \"#utility.yul\":8185:8205   */\n      calldataload\n        /* \"#utility.yul\":8223:8346   */\n      tag_261\n        /* \"#utility.yul\":8342:8345   */\n      dup5\n        /* \"#utility.yul\":8334:8340   */\n      dup3\n        /* \"#utility.yul\":8327:8331   */\n      0x20\n        /* \"#utility.yul\":8319:8325   */\n      dup7\n        /* \"#utility.yul\":8315:8332   */\n      add\n        /* \"#utility.yul\":8223:8346   */\n      tag_134\n      jump\t// in\n    tag_261:\n        /* \"#utility.yul\":8214:8346   */\n      swap2\n      pop\n        /* \"#utility.yul\":8030:8352   */\n      pop\n        /* \"#utility.yul\":7924:8352   */\n      swap3\n      swap2\n      pop\n      pop\n      jump\t// out\n        /* \"#utility.yul\":8358:9280   */\n    tag_26:\n        /* \"#utility.yul\":8490:8496   */\n      0x00\n        /* \"#utility.yul\":8498:8504   */\n      0x00\n        /* \"#utility.yul\":8547:8549   */\n      0x40\n        /* \"#utility.yul\":8535:8544   */\n      dup4\n        /* \"#utility.yul\":8526:8533   */\n      dup6\n        /* \"#utility.yul\":8522:8545   */\n      sub\n        /* \"#utility.yul\":8518:8550   */\n      slt\n        /* \"#utility.yul\":8515:8634   */\n      iszero\n      tag_263\n      jumpi\n        /* \"#utility.yul\":8553:8632   */\n      tag_264\n      tag_104\n      jump\t// in\n    tag_264:\n        /* \"#utility.yul\":8515:8634   */\n    tag_263:\n        /* \"#utility.yul\":8701:8702   */\n      0x00\n        /* \"#utility.yul\":8690:8699   */\n      dup4\n        /* \"#utility.yul\":8686:8703   */\n      add\n        /* \"#utility.yul\":8673:8704   */\n      calldataload\n        /* \"#utility.yul\":8731:8749   */\n      0xffffffffffffffff\n        /* \"#utility.yul\":8723:8729   */\n      dup2\n        /* \"#utility.yul\":8720:8750   */\n      gt\n        /* \"#utility.yul\":8717:8834   */\n      iszero\n      tag_265\n      jumpi\n        /* \"#utility.yul\":8753:8832   */\n      tag_266\n      tag_105\n      jump\t// in\n    tag_266:\n        /* \"#utility.yul\":8717:8834   */\n    tag_265:\n        /* \"#utility.yul\":8858:8921   */\n      tag_267\n        /* \"#utility.yul\":8913:8920   */\n      dup6\n        /* \"#utility.yul\":8904:8910   */\n      dup3\n        /* \"#utility.yul\":8893:8902   */\n      dup7\n        /* \"#utility.yul\":8889:8911   */\n      add\n        /* \"#utility.yul\":8858:8921   */\n      tag_128\n      jump\t// in\n    tag_267:\n        /* \"#utility.yul\":8848:8921   */\n      swap3\n      pop\n        /* \"#utility.yul\":8644:8931   */\n      pop\n        /* \"#utility.yul\":8998:9000   */\n      0x20\n        /* \"#utility.yul\":8987:8996   */\n      dup4\n        /* \"#utility.yul\":8983:9001   */\n      add\n        /* \"#utility.yul\":8970:9002   */\n      calldataload\n        /* \"#utility.yul\":9029:9047   */\n      0xffffffffffffffff\n        /* \"#utility.yul\":9021:9027   */\n      dup2\n        /* \"#utility.yul\":9018:9048   */\n      gt\n        /* \"#utility.yul\":9015:9132   */\n      iszero\n      tag_268\n      jumpi\n        /* \"#utility.yul\":9051:9130   */\n      tag_269\n      tag_105\n      jump\t// in\n    tag_269:\n        /* \"#utility.yul\":9015:9132   */\n    tag_268:\n        /* \"#utility.yul\":9156:9263   */\n      tag_270\n        /* \"#utility.yul\":9255:9262   */\n      dup6\n        /* \"#utility.yul\":9246:9252   */\n      dup3\n        /* \"#utility.yul\":9235:9244   */\n      dup7\n        /* \"#utility.yul\":9231:9253   */\n      add\n        /* \"#utility.yul\":9156:9263   */\n      tag_135\n      jump\t// in\n    tag_270:\n        /* \"#utility.yul\":9146:9263   */\n      swap2\n      pop\n        /* \"#utility.yul\":8941:9273   */\n      pop\n        /* \"#utility.yul\":8358:9280   */\n      swap3\n      pop\n      swap3\n      swap1\n      pop\n      jump\t// out\n        /* \"#utility.yul\":9286:9466   */\n    tag_34:\n        /* \"#utility.yul\":9334:9411   */\n      0x4e487b7100000000000000000000000000000000000000000000000000000000\n        /* \"#utility.yul\":9331:9332   */\n      0x00\n        /* \"#utility.yul\":9324:9412   */\n      mstore\n        /* \"#utility.yul\":9431:9435   */\n      0x32\n        /* \"#utility.yul\":9428:9429   */\n      0x04\n        /* \"#utility.yul\":9421:9436   */\n      mstore\n        /* \"#utility.yul\":9455:9459   */\n      0x24\n        /* \"#utility.yul\":9452:9453   */\n      0x00\n        /* \"#utility.yul\":9445:9460   */\n      revert\n        /* \"#utility.yul\":9472:9644   */\n    tag_136:\n        /* \"#utility.yul\":9612:9636   */\n      0x50726f6a656374206d7573742062652061637469766500000000000000000000\n        /* \"#utility.yul\":9608:9609   */\n      0x00\n        /* \"#utility.yul\":9600:9606   */\n      dup3\n        /* \"#utility.yul\":9596:9610   */\n      add\n        /* \"#utility.yul\":9589:9637   */\n      mstore\n        /* \"#utility.yul\":9472:9644   */\n      pop\n      jump\t// out\n        /* \"#utility.yul\":9650:10016   */\n    tag_137:\n        /* \"#utility.yul\":9792:9795   */\n      0x00\n        /* \"#utility.yul\":9813:9880   */\n      tag_274\n        /* \"#utility.yul\":9877:9879   */\n      0x16\n        /* \"#utility.yul\":9872:9875   */\n      dup4\n        /* \"#utility.yul\":9813:9880   */\n      tag_113\n      jump\t// in\n    tag_274:\n        /* \"#utility.yul\":9806:9880   */\n      swap2\n      pop\n        /* \"#utility.yul\":9889:9982   */\n      tag_275\n        /* \"#utility.yul\":9978:9981   */\n      dup3\n        /* \"#utility.yul\":9889:9982   */\n      tag_136\n      jump\t// in\n    tag_275:\n        /* \"#utility.yul\":10007:10009   */\n      0x20\n        /* \"#utility.yul\":10002:10005   */\n      dup3\n        /* \"#utility.yul\":9998:10010   */\n      add\n        /* \"#utility.yul\":9991:10010   */\n      swap1\n      pop\n        /* \"#utility.yul\":9650:10016   */\n      swap2\n      swap1\n      pop\n      jump\t// out\n        /* \"#utility.yul\":10022:10441   */\n    tag_41:\n        /* \"#utility.yul\":10188:10192   */\n      0x00\n        /* \"#utility.yul\":10226:10228   */\n      0x20\n        /* \"#utility.yul\":10215:10224   */\n      dup3\n        /* \"#utility.yul\":10211:10229   */\n      add\n        /* \"#utility.yul\":10203:10229   */\n      swap1\n      pop\n        /* \"#utility.yul\":10275:10284   */\n      dup2\n        /* \"#utility.yul\":10269:10273   */\n      dup2\n        /* \"#utility.yul\":10265:10285   */\n      sub\n        /* \"#utility.yul\":10261:10262   */\n      0x00\n        /* \"#utility.yul\":10250:10259   */\n      dup4\n        /* \"#utility.yul\":10246:10263   */\n      add\n        /* \"#utility.yul\":10239:10286   */\n      mstore\n        /* \"#utility.yul\":10303:10434   */\n      tag_277\n        /* \"#utility.yul\":10429:10433   */\n      dup2\n        /* \"#utility.yul\":10303:10434   */\n      tag_137\n      jump\t// in\n    tag_277:\n        /* \"#utility.yul\":10295:10434   */\n      swap1\n      pop\n        /* \"#utility.yul\":10022:10441   */\n      swap2\n      swap1\n      pop\n      jump\t// out\n        /* \"#utility.yul\":10447:10628   */\n    tag_138:\n        /* \"#utility.yul\":10587:10620   */\n      0x4d696c6573746f6e652073686f756c64206265206e6f74207265616368656400\n        /* \"#utility.yul\":10583:10584   */\n      0x00\n        /* \"#utility.yul\":10575:10581   */\n      dup3\n        /* \"#utility.yul\":10571:10585   */\n      add\n        /* \"#utility.yul\":10564:10621   */\n      mstore\n        /* \"#utility.yul\":10447:10628   */\n      pop\n      jump\t// out\n        /* \"#utility.yul\":10634:11000   */\n    tag_139:\n        /* \"#utility.yul\":10776:10779   */\n      0x00\n        /* \"#utility.yul\":10797:10864   */\n      tag_280\n        /* \"#utility.yul\":10861:10863   */\n      0x1f\n        /* \"#utility.yul\":10856:10859   */\n      dup4\n        /* \"#utility.yul\":10797:10864   */\n      tag_113\n      jump\t// in\n    tag_280:\n        /* \"#utility.yul\":10790:10864   */\n      swap2\n      pop\n        /* \"#utility.yul\":10873:10966   */\n      tag_281\n        /* \"#utility.yul\":10962:10965   */\n      dup3\n        /* \"#utility.yul\":10873:10966   */\n      tag_138\n      jump\t// in\n    tag_281:\n        /* \"#utility.yul\":10991:10993   */\n      0x20\n        /* \"#utility.yul\":10986:10989   */\n      dup3\n        /* \"#utility.yul\":10982:10994   */\n      add\n        /* \"#utility.yul\":10975:10994   */\n      swap1\n      pop\n        /* \"#utility.yul\":10634:11000   */\n      swap2\n      swap1\n      pop\n      jump\t// out\n        /* \"#utility.yul\":11006:11425   */\n    tag_44:\n        /* \"#utility.yul\":11172:11176   */\n      0x00\n        /* \"#utility.yul\":11210:11212   */\n      0x20\n        /* \"#utility.yul\":11199:11208   */\n      dup3\n        /* \"#utility.yul\":11195:11213   */\n      add\n        /* \"#utility.yul\":11187:11213   */\n      swap1\n      pop\n        /* \"#utility.yul\":11259:11268   */\n      dup2\n        /* \"#utility.yul\":11253:11257   */\n      dup2\n        /* \"#utility.yul\":11249:11269   */\n      sub\n        /* \"#utility.yul\":11245:11246   */\n      0x00\n        /* \"#utility.yul\":11234:11243   */\n      dup4\n        /* \"#utility.yul\":11230:11247   */\n      add\n        /* \"#utility.yul\":11223:11270   */\n      mstore\n        /* \"#utility.yul\":11287:11418   */\n      tag_283\n        /* \"#utility.yul\":11413:11417   */\n      dup2\n        /* \"#utility.yul\":11287:11418   */\n      tag_139\n      jump\t// in\n    tag_283:\n        /* \"#utility.yul\":11279:11418   */\n      swap1\n      pop\n        /* \"#utility.yul\":11006:11425   */\n      swap2\n      swap1\n      pop\n      jump\t// out\n        /* \"#utility.yul\":11431:11657   */\n    tag_140:\n        /* \"#utility.yul\":11571:11605   */\n      0x4d696c6573746f6e652073686f756c646e27742062652066756e64656420746f\n        /* \"#utility.yul\":11567:11568   */\n      0x00\n        /* \"#utility.yul\":11559:11565   */\n      dup3\n        /* \"#utility.yul\":11555:11569   */\n      add\n        /* \"#utility.yul\":11548:11606   */\n      mstore\n        /* \"#utility.yul\":11640:11649   */\n      0x20726566756e6400000000000000000000000000000000000000000000000000\n        /* \"#utility.yul\":11635:11637   */\n      0x20\n        /* \"#utility.yul\":11627:11633   */\n      dup3\n        /* \"#utility.yul\":11623:11638   */\n      add\n        /* \"#utility.yul\":11616:11650   */\n      mstore\n        /* \"#utility.yul\":11431:11657   */\n      pop\n      jump\t// out\n        /* \"#utility.yul\":11663:12029   */\n    tag_141:\n        /* \"#utility.yul\":11805:11808   */\n      0x00\n        /* \"#utility.yul\":11826:11893   */\n      tag_286\n        /* \"#utility.yul\":11890:11892   */\n      0x27\n        /* \"#utility.yul\":11885:11888   */\n      dup4\n        /* \"#utility.yul\":11826:11893   */\n      tag_113\n      jump\t// in\n    tag_286:\n        /* \"#utility.yul\":11819:11893   */\n      swap2\n      pop\n        /* \"#utility.yul\":11902:11995   */\n      tag_287\n        /* \"#utility.yul\":11991:11994   */\n      dup3\n        /* \"#utility.yul\":11902:11995   */\n      tag_140\n      jump\t// in\n    tag_287:\n        /* \"#utility.yul\":12020:12022   */\n      0x40\n        /* \"#utility.yul\":12015:12018   */\n      dup3\n        /* \"#utility.yul\":12011:12023   */\n      add\n        /* \"#utility.yul\":12004:12023   */\n      swap1\n      pop\n        /* \"#utility.yul\":11663:12029   */\n      swap2\n      swap1\n      pop\n      jump\t// out\n        /* \"#utility.yul\":12035:12454   */\n    tag_47:\n        /* \"#utility.yul\":12201:12205   */\n      0x00\n        /* \"#utility.yul\":12239:12241   */\n      0x20\n        /* \"#utility.yul\":12228:12237   */\n      dup3\n        /* \"#utility.yul\":12224:12242   */\n      add\n        /* \"#utility.yul\":12216:12242   */\n      swap1\n      pop\n        /* \"#utility.yul\":12288:12297   */\n      dup2\n        /* \"#utility.yul\":12282:12286   */\n      dup2\n        /* \"#utility.yul\":12278:12298   */\n      sub\n        /* \"#utility.yul\":12274:12275   */\n      0x00\n        /* \"#utility.yul\":12263:12272   */\n      dup4\n        /* \"#utility.yul\":12259:12276   */\n      add\n        /* \"#utility.yul\":12252:12299   */\n      mstore\n        /* \"#utility.yul\":12316:12447   */\n      tag_289\n        /* \"#utility.yul\":12442:12446   */\n      dup2\n        /* \"#utility.yul\":12316:12447   */\n      tag_141\n      jump\t// in\n    tag_289:\n        /* \"#utility.yul\":12308:12447   */\n      swap1\n      pop\n        /* \"#utility.yul\":12035:12454   */\n      swap2\n      swap1\n      pop\n      jump\t// out\n        /* \"#utility.yul\":12460:12640   */\n    tag_142:\n        /* \"#utility.yul\":12508:12585   */\n      0x4e487b7100000000000000000000000000000000000000000000000000000000\n        /* \"#utility.yul\":12505:12506   */\n      0x00\n        /* \"#utility.yul\":12498:12586   */\n      mstore\n        /* \"#utility.yul\":12605:12609   */\n      0x11\n        /* \"#utility.yul\":12602:12603   */\n      0x04\n        /* \"#utility.yul\":12595:12610   */\n      mstore\n        /* \"#utility.yul\":12629:12633   */\n      0x24\n        /* \"#utility.yul\":12626:12627   */\n      0x00\n        /* \"#utility.yul\":12619:12634   */\n      revert\n        /* \"#utility.yul\":12646:12879   */\n    tag_52:\n        /* \"#utility.yul\":12685:12688   */\n      0x00\n        /* \"#utility.yul\":12708:12732   */\n      tag_292\n        /* \"#utility.yul\":12726:12731   */\n      dup3\n        /* \"#utility.yul\":12708:12732   */\n      tag_106\n      jump\t// in\n    tag_292:\n        /* \"#utility.yul\":12699:12732   */\n      swap2\n      pop\n        /* \"#utility.yul\":12754:12820   */\n      0xffffffffffffffffffffffffffffffffffffffffffffffffffffffffffffffff\n        /* \"#utility.yul\":12747:12752   */\n      dup3\n        /* \"#utility.yul\":12744:12821   */\n      sub\n        /* \"#utility.yul\":12741:12844   */\n      tag_293\n      jumpi\n        /* \"#utility.yul\":12824:12842   */\n      tag_294\n      tag_142\n      jump\t// in\n    tag_294:\n        /* \"#utility.yul\":12741:12844   */\n    tag_293:\n        /* \"#utility.yul\":12871:12872   */\n      0x01\n        /* \"#utility.yul\":12864:12869   */\n      dup3\n        /* \"#utility.yul\":12860:12873   */\n      add\n        /* \"#utility.yul\":12853:12873   */\n      swap1\n      pop\n        /* \"#utility.yul\":12646:12879   */\n      swap2\n      swap1\n      pop\n      jump\t// out\n        /* \"#utility.yul\":12885:13065   */\n    tag_143:\n        /* \"#utility.yul\":12933:13010   */\n      0x4e487b7100000000000000000000000000000000000000000000000000000000\n        /* \"#utility.yul\":12930:12931   */\n      0x00\n        /* \"#utility.yul\":12923:13011   */\n      mstore\n        /* \"#utility.yul\":13030:13034   */\n      0x22\n        /* \"#utility.yul\":13027:13028   */\n      0x04\n        /* \"#utility.yul\":13020:13035   */\n      mstore\n        /* \"#utility.yul\":13054:13058   */\n      0x24\n        /* \"#utility.yul\":13051:13052   */\n      0x00\n        /* \"#utility.yul\":13044:13059   */\n      revert\n        /* \"#utility.yul\":13071:13391   */\n    tag_57:\n        /* \"#utility.yul\":13115:13121   */\n      0x00\n        /* \"#utility.yul\":13152:13153   */\n      0x02\n        /* \"#utility.yul\":13146:13150   */\n      dup3\n        /* \"#utility.yul\":13142:13154   */\n      div\n        /* \"#utility.yul\":13132:13154   */\n      swap1\n      pop\n        /* \"#utility.yul\":13199:13200   */\n      0x01\n        /* \"#utility.yul\":13193:13197   */\n      dup3\n        /* \"#utility.yul\":13189:13201   */\n      and\n        /* \"#utility.yul\":13220:13238   */\n      dup1\n        /* \"#utility.yul\":13210:13291   */\n      tag_297\n      jumpi\n        /* \"#utility.yul\":13276:13280   */\n      0x7f\n        /* \"#utility.yul\":13268:13274   */\n      dup3\n        /* \"#utility.yul\":13264:13281   */\n      and\n        /* \"#utility.yul\":13254:13281   */\n      swap2\n      pop\n        /* \"#utility.yul\":13210:13291   */\n    tag_297:\n        /* \"#utility.yul\":13338:13340   */\n      0x20\n        /* \"#utility.yul\":13330:13336   */\n      dup3\n        /* \"#utility.yul\":13327:13341   */\n      lt\n        /* \"#utility.yul\":13307:13325   */\n      dup2\n        /* \"#utility.yul\":13304:13342   */\n      sub\n        /* \"#utility.yul\":13301:13385   */\n      tag_298\n      jumpi\n        /* \"#utility.yul\":13357:13375   */\n      tag_299\n      tag_143\n      jump\t// in\n    tag_299:\n        /* \"#utility.yul\":13301:13385   */\n    tag_298:\n        /* \"#utility.yul\":13122:13391   */\n      pop\n        /* \"#utility.yul\":13071:13391   */\n      swap2\n      swap1\n      pop\n      jump\t// out\n        /* \"#utility.yul\":13397:13618   */\n    tag_144:\n        /* \"#utility.yul\":13537:13571   */\n      0x53797374656d206f776e65722063616e2774206372656174652070726f6a6563\n        /* \"#utility.yul\":13533:13534   */\n      0x00\n        /* \"#utility.yul\":13525:13531   */\n      dup3\n        /* \"#utility.yul\":13521:13535   */\n      add\n        /* \"#utility.yul\":13514:13572   */\n      mstore\n        /* \"#utility.yul\":13606:13610   */\n      0x7473000000000000000000000000000000000000000000000000000000000000\n        /* \"#utility.yul\":13601:13603   */\n      0x20\n        /* \"#utility.yul\":13593:13599   */\n      dup3\n        /* \"#utility.yul\":13589:13604   */\n      add\n        /* \"#utility.yul\":13582:13611   */\n      mstore\n        /* \"#utility.yul\":13397:13618   */\n      pop\n      jump\t// out\n        /* \"#utility.yul\":13624:13990   */\n    tag_145:\n        /* \"#utility.yul\":13766:13769   */\n      0x00\n        /* \"#utility.yul\":13787:13854   */\n      tag_302\n        /* \"#utility.yul\":13851:13853   */\n      0x22\n        /* \"#utility.yul\":13846:13849   */\n      dup4\n        /* \"#utility.yul\":13787:13854   */\n      tag_113\n      jump\t// in\n    tag_302:\n        /* \"#utility.yul\":13780:13854   */\n      swap2\n      pop\n        /* \"#utility.yul\":13863:13956   */\n      tag_303\n        /* \"#utility.yul\":13952:13955   */\n      dup3\n        /* \"#utility.yul\":13863:13956   */\n      tag_144\n      jump\t// in\n    tag_303:\n        /* \"#utility.yul\":13981:13983   */\n      0x40\n        /* \"#utility.yul\":13976:13979   */\n      dup3\n        /* \"#utility.yul\":13972:13984   */\n      add\n        /* \"#utility.yul\":13965:13984   */\n      swap1\n      pop\n        /* \"#utility.yul\":13624:13990   */\n      swap2\n      swap1\n      pop\n      jump\t// out\n        /* \"#utility.yul\":13996:14415   */\n    tag_65:\n        /* \"#utility.yul\":14162:14166   */\n      0x00\n        /* \"#utility.yul\":14200:14202   */\n      0x20\n        /* \"#utility.yul\":14189:14198   */\n      dup3\n        /* \"#utility.yul\":14185:14203   */\n      add\n        /* \"#utility.yul\":14177:14203   */\n      swap1\n      pop\n        /* \"#utility.yul\":14249:14258   */\n      dup2\n        /* \"#utility.yul\":14243:14247   */\n      dup2\n        /* \"#utility.yul\":14239:14259   */\n      sub\n        /* \"#utility.yul\":14235:14236   */\n      0x00\n        /* \"#utility.yul\":14224:14233   */\n      dup4\n        /* \"#utility.yul\":14220:14237   */\n      add\n        /* \"#utility.yul\":14213:14260   */\n      mstore\n        /* \"#utility.yul\":14277:14408   */\n      tag_305\n        /* \"#utility.yul\":14403:14407   */\n      dup2\n        /* \"#utility.yul\":14277:14408   */\n      tag_145\n      jump\t// in\n    tag_305:\n        /* \"#utility.yul\":14269:14408   */\n      swap1\n      pop\n        /* \"#utility.yul\":13996:14415   */\n      swap2\n      swap1\n      pop\n      jump\t// out\n        /* \"#utility.yul\":14421:14603   */\n    tag_146:\n        /* \"#utility.yul\":14561:14595   */\n      0x4d7573742068617665206174206c65617374206f6e65206d696c6573746f6e65\n        /* \"#utility.yul\":14557:14558   */\n      0x00\n        /* \"#utility.yul\":14549:14555   */\n      dup3\n        /* \"#utility.yul\":14545:14559   */\n      add\n        /* \"#utility.yul\":14538:14596   */\n      mstore\n        /* \"#utility.yul\":14421:14603   */\n      pop\n      jump\t// out\n        /* \"#utility.yul\":14609:14975   */\n    tag_147:\n        /* \"#utility.yul\":14751:14754   */\n      0x00\n        /* \"#utility.yul\":14772:14839   */\n      tag_308\n        /* \"#utility.yul\":14836:14838   */\n      0x20\n        /* \"#utility.yul\":14831:14834   */\n      dup4\n        /* \"#utility.yul\":14772:14839   */\n      tag_113\n      jump\t// in\n    tag_308:\n        /* \"#utility.yul\":14765:14839   */\n      swap2\n      pop\n        /* \"#utility.yul\":14848:14941   */\n      tag_309\n        /* \"#utility.yul\":14937:14940   */\n      dup3\n        /* \"#utility.yul\":14848:14941   */\n      tag_146\n      jump\t// in\n    tag_309:\n        /* \"#utility.yul\":14966:14968   */\n      0x20\n        /* \"#utility.yul\":14961:14964   */\n      dup3\n        /* \"#utility.yul\":14957:14969   */\n      add\n        /* \"#utility.yul\":14950:14969   */\n      swap1\n      pop\n        /* \"#utility.yul\":14609:14975   */\n      swap2\n      swap1\n      pop\n      jump\t// out\n        /* \"#utility.yul\":14981:15400   */\n    tag_68:\n        /* \"#utility.yul\":15147:15151   */\n      0x00\n        /* \"#utility.yul\":15185:15187   */\n      0x20\n        /* \"#utility.yul\":15174:15183   */\n      dup3\n        /* \"#utility.yul\":15170:15188   */\n      add\n        /* \"#utility.yul\":15162:15188   */\n      swap1\n      pop\n        /* \"#utility.yul\":15234:15243   */\n      dup2\n        /* \"#utility.yul\":15228:15232   */\n      dup2\n        /* \"#utility.yul\":15224:15244   */\n      sub\n        /* \"#utility.yul\":15220:15221   */\n      0x00\n        /* \"#utility.yul\":15209:15218   */\n      dup4\n        /* \"#utility.yul\":15205:15222   */\n      add\n        /* \"#utility.yul\":15198:15245   */\n      mstore\n        /* \"#utility.yul\":15262:15393   */\n      tag_311\n        /* \"#utility.yul\":15388:15392   */\n      dup2\n        /* \"#utility.yul\":15262:15393   */\n      tag_147\n      jump\t// in\n    tag_311:\n        /* \"#utility.yul\":15254:15393   */\n      swap1\n      pop\n        /* \"#utility.yul\":14981:15400   */\n      swap2\n      swap1\n      pop\n      jump\t// out\n        /* \"#utility.yul\":15406:15547   */\n    tag_148:\n        /* \"#utility.yul\":15455:15459   */\n      0x00\n        /* \"#utility.yul\":15478:15481   */\n      dup2\n        /* \"#utility.yul\":15470:15481   */\n      swap1\n      pop\n        /* \"#utility.yul\":15501:15504   */\n      dup2\n        /* \"#utility.yul\":15498:15499   */\n      0x00\n        /* \"#utility.yul\":15491:15505   */\n      mstore\n        /* \"#utility.yul\":15535:15539   */\n      0x20\n        /* \"#utility.yul\":15532:15533   */\n      0x00\n        /* \"#utility.yul\":15522:15540   */\n      keccak256\n        /* \"#utility.yul\":15514:15540   */\n      swap1\n      pop\n        /* \"#utility.yul\":15406:15547   */\n      swap2\n      swap1\n      pop\n      jump\t// out\n        /* \"#utility.yul\":15553:15646   */\n    tag_149:\n        /* \"#utility.yul\":15590:15596   */\n      0x00\n        /* \"#utility.yul\":15637:15639   */\n      0x20\n        /* \"#utility.yul\":15632:15634   */\n      0x1f\n        /* \"#utility.yul\":15625:15630   */\n      dup4\n        /* \"#utility.yul\":15621:15635   */\n      add\n        /* \"#utility.yul\":15617:15640   */\n      div\n        /* \"#utility.yul\":15607:15640   */\n      swap1\n      pop\n        /* \"#utility.yul\":15553:15646   */\n      swap2\n      swap1\n      pop\n      jump\t// out\n        /* \"#utility.yul\":15652:15759   */\n    tag_150:\n        /* \"#utility.yul\":15696:15704   */\n      0x00\n        /* \"#utility.yul\":15746:15751   */\n      dup3\n        /* \"#utility.yul\":15740:15744   */\n      dup3\n        /* \"#utility.yul\":15736:15752   */\n      shl\n        /* \"#utility.yul\":15715:15752   */\n      swap1\n      pop\n        /* \"#utility.yul\":15652:15759   */\n      swap3\n      swap2\n      pop\n      pop\n      jump\t// out\n        /* \"#utility.yul\":15765:16158   */\n    tag_151:\n        /* \"#utility.yul\":15834:15840   */\n      0x00\n        /* \"#utility.yul\":15884:15885   */\n      0x08\n        /* \"#utility.yul\":15872:15882   */\n      dup4\n        /* \"#utility.yul\":15868:15886   */\n      mul\n        /* \"#utility.yul\":15907:16004   */\n      tag_316\n        /* \"#utility.yul\":15937:16003   */\n      0xffffffffffffffffffffffffffffffffffffffffffffffffffffffffffffffff\n        /* \"#utility.yul\":15926:15935   */\n      dup3\n        /* \"#utility.yul\":15907:16004   */\n      tag_150\n      jump\t// in\n    tag_316:\n        /* \"#utility.yul\":16025:16064   */\n      tag_317\n        /* \"#utility.yul\":16055:16063   */\n      dup7\n        /* \"#utility.yul\":16044:16053   */\n      dup4\n        /* \"#utility.yul\":16025:16064   */\n      tag_150\n      jump\t// in\n    tag_317:\n        /* \"#utility.yul\":16013:16064   */\n      swap6\n      pop\n        /* \"#utility.yul\":16097:16101   */\n      dup1\n        /* \"#utility.yul\":16093:16102   */\n      not\n        /* \"#utility.yul\":16086:16091   */\n      dup5\n        /* \"#utility.yul\":16082:16103   */\n      and\n        /* \"#utility.yul\":16073:16103   */\n      swap4\n      pop\n        /* \"#utility.yul\":16146:16150   */\n      dup1\n        /* \"#utility.yul\":16136:16144   */\n      dup7\n        /* \"#utility.yul\":16132:16151   */\n      and\n        /* \"#utility.yul\":16125:16130   */\n      dup5\n        /* \"#utility.yul\":16122:16152   */\n      or\n        /* \"#utility.yul\":16112:16152   */\n      swap3\n      pop\n        /* \"#utility.yul\":15841:16158   */\n      pop\n      pop\n        /* \"#utility.yul\":15765:16158   */\n      swap4\n      swap3\n      pop\n      pop\n      pop\n      jump\t// out\n        /* \"#utility.yul\":16164:16224   */\n    tag_152:\n        /* \"#utility.yul\":16192:16195   */\n      0x00\n        /* \"#utility.yul\":16213:16218   */\n      dup2\n        /* \"#utility.yul\":16206:16218   */\n      swap1\n      pop\n        /* \"#utility.yul\":16164:16224   */\n      swap2\n      swap1\n      pop\n      jump\t// out\n        /* \"#utility.yul\":16230:16372   */\n    tag_153:\n        /* \"#utility.yul\":16280:16289   */\n      0x00\n        /* \"#utility.yul\":16313:16366   */\n      tag_320\n        /* \"#utility.yul\":16331:16365   */\n      tag_321\n        /* \"#utility.yul\":16340:16364   */\n      tag_322\n        /* \"#utility.yul\":16358:16363   */\n      dup5\n        /* \"#utility.yul\":16340:16364   */\n      tag_106\n      jump\t// in\n    tag_322:\n        /* \"#utility.yul\":16331:16365   */\n      tag_152\n      jump\t// in\n    tag_321:\n        /* \"#utility.yul\":16313:16366   */\n      tag_106\n      jump\t// in\n    tag_320:\n        /* \"#utility.yul\":16300:16366   */\n      swap1\n      pop\n        /* \"#utility.yul\":16230:16372   */\n      swap2\n      swap1\n      pop\n      jump\t// out\n        /* \"#utility.yul\":16378:16453   */\n    tag_154:\n        /* \"#utility.yul\":16421:16424   */\n      0x00\n        /* \"#utility.yul\":16442:16447   */\n      dup2\n        /* \"#utility.yul\":16435:16447   */\n      swap1\n      pop\n        /* \"#utility.yul\":16378:16453   */\n      swap2\n      swap1\n      pop\n      jump\t// out\n        /* \"#utility.yul\":16459:16728   */\n    tag_155:\n        /* \"#utility.yul\":16569:16608   */\n      tag_325\n        /* \"#utility.yul\":16600:16607   */\n      dup4\n        /* \"#utility.yul\":16569:16608   */\n      tag_153\n      jump\t// in\n    tag_325:\n        /* \"#utility.yul\":16630:16721   */\n      tag_326\n        /* \"#utility.yul\":16679:16720   */\n      tag_327\n        /* \"#utility.yul\":16703:16719   */\n      dup3\n        /* \"#utility.yul\":16679:16720   */\n      tag_154\n      jump\t// in\n    tag_327:\n        /* \"#utility.yul\":16671:16677   */\n      dup5\n        /* \"#utility.yul\":16664:16668   */\n      dup5\n        /* \"#utility.yul\":16658:16669   */\n      sload\n        /* \"#utility.yul\":16630:16721   */\n      tag_151\n      jump\t// in\n    tag_326:\n        /* \"#utility.yul\":16624:16628   */\n      dup3\n        /* \"#utility.yul\":16617:16722   */\n      sstore\n        /* \"#utility.yul\":16535:16728   */\n      pop\n        /* \"#utility.yul\":16459:16728   */\n      pop\n      pop\n      pop\n      jump\t// out\n        /* \"#utility.yul\":16734:16807   */\n    tag_156:\n        /* \"#utility.yul\":16779:16782   */\n      0x00\n        /* \"#utility.yul\":16800:16801   */\n      0x00\n        /* \"#utility.yul\":16793:16801   */\n      swap1\n      pop\n        /* \"#utility.yul\":16734:16807   */\n      swap1\n      jump\t// out\n        /* \"#utility.yul\":16813:17002   */\n    tag_157:\n        /* \"#utility.yul\":16890:16922   */\n      tag_330\n      tag_156\n      jump\t// in\n    tag_330:\n        /* \"#utility.yul\":16931:16996   */\n      tag_331\n        /* \"#utility.yul\":16989:16995   */\n      dup2\n        /* \"#utility.yul\":16981:16987   */\n      dup5\n        /* \"#utility.yul\":16975:16979   */\n      dup5\n        /* \"#utility.yul\":16931:16996   */\n      tag_155\n      jump\t// in\n    tag_331:\n        /* \"#utility.yul\":16866:17002   */\n      pop\n        /* \"#utility.yul\":16813:17002   */\n      pop\n      pop\n      jump\t// out\n        /* \"#utility.yul\":17008:17194   */\n    tag_158:\n        /* \"#utility.yul\":17068:17188   */\n    tag_333:\n        /* \"#utility.yul\":17085:17088   */\n      dup2\n        /* \"#utility.yul\":17078:17083   */\n      dup2\n        /* \"#utility.yul\":17075:17089   */\n      lt\n        /* \"#utility.yul\":17068:17188   */\n      iszero\n      tag_335\n      jumpi\n        /* \"#utility.yul\":17139:17178   */\n      tag_336\n        /* \"#utility.yul\":17176:17177   */\n      0x00\n        /* \"#utility.yul\":17169:17174   */\n      dup3\n        /* \"#utility.yul\":17139:17178   */\n      tag_157\n      jump\t// in\n    tag_336:\n        /* \"#utility.yul\":17112:17113   */\n      0x01\n        /* \"#utility.yul\":17105:17110   */\n      dup2\n        /* \"#utility.yul\":17101:17114   */\n      add\n        /* \"#utility.yul\":17092:17114   */\n      swap1\n      pop\n        /* \"#utility.yul\":17068:17188   */\n      jump(tag_333)\n    tag_335:\n        /* \"#utility.yul\":17008:17194   */\n      pop\n      pop\n      jump\t// out\n        /* \"#utility.yul\":17200:17743   */\n    tag_159:\n        /* \"#utility.yul\":17301:17303   */\n      0x1f\n        /* \"#utility.yul\":17296:17299   */\n      dup3\n        /* \"#utility.yul\":17293:17304   */\n      gt\n        /* \"#utility.yul\":17290:17736   */\n      iszero\n      tag_338\n      jumpi\n        /* \"#utility.yul\":17335:17373   */\n      tag_339\n        /* \"#utility.yul\":17367:17372   */\n      dup2\n        /* \"#utility.yul\":17335:17373   */\n      tag_148\n      jump\t// in\n    tag_339:\n        /* \"#utility.yul\":17419:17448   */\n      tag_340\n        /* \"#utility.yul\":17437:17447   */\n      dup5\n        /* \"#utility.yul\":17419:17448   */\n      tag_149\n      jump\t// in\n    tag_340:\n        /* \"#utility.yul\":17409:17417   */\n      dup2\n        /* \"#utility.yul\":17405:17449   */\n      add\n        /* \"#utility.yul\":17602:17604   */\n      0x20\n        /* \"#utility.yul\":17590:17600   */\n      dup6\n        /* \"#utility.yul\":17587:17605   */\n      lt\n        /* \"#utility.yul\":17584:17633   */\n      iszero\n      tag_341\n      jumpi\n        /* \"#utility.yul\":17623:17631   */\n      dup2\n        /* \"#utility.yul\":17608:17631   */\n      swap1\n      pop\n        /* \"#utility.yul\":17584:17633   */\n    tag_341:\n        /* \"#utility.yul\":17646:17726   */\n      tag_342\n        /* \"#utility.yul\":17702:17724   */\n      tag_343\n        /* \"#utility.yul\":17720:17723   */\n      dup6\n        /* \"#utility.yul\":17702:17724   */\n      tag_149\n      jump\t// in\n    tag_343:\n        /* \"#utility.yul\":17692:17700   */\n      dup4\n        /* \"#utility.yul\":17688:17725   */\n      add\n        /* \"#utility.yul\":17675:17686   */\n      dup3\n        /* \"#utility.yul\":17646:17726   */\n      tag_158\n      jump\t// in\n    tag_342:\n        /* \"#utility.yul\":17305:17736   */\n      pop\n      pop\n        /* \"#utility.yul\":17290:17736   */\n    tag_338:\n        /* \"#utility.yul\":17200:17743   */\n      pop\n      pop\n      pop\n      jump\t// out\n        /* \"#utility.yul\":17749:17866   */\n    tag_160:\n        /* \"#utility.yul\":17803:17811   */\n      0x00\n        /* \"#utility.yul\":17853:17858   */\n      dup3\n        /* \"#utility.yul\":17847:17851   */\n      dup3\n        /* \"#utility.yul\":17843:17859   */\n      shr\n        /* \"#utility.yul\":17822:17859   */\n      swap1\n      pop\n        /* \"#utility.yul\":17749:17866   */\n      swap3\n      swap2\n      pop\n      pop\n      jump\t// out\n        /* \"#utility.yul\":17872:18041   */\n    tag_161:\n        /* \"#utility.yul\":17916:17922   */\n      0x00\n        /* \"#utility.yul\":17949:18000   */\n      tag_346\n        /* \"#utility.yul\":17997:17998   */\n      0x00\n        /* \"#utility.yul\":17993:17999   */\n      not\n        /* \"#utility.yul\":17985:17990   */\n      dup5\n        /* \"#utility.yul\":17982:17983   */\n      0x08\n        /* \"#utility.yul\":17978:17991   */\n      mul\n        /* \"#utility.yul\":17949:18000   */\n      tag_160\n      jump\t// in\n    tag_346:\n        /* \"#utility.yul\":17945:18001   */\n      not\n        /* \"#utility.yul\":18030:18034   */\n      dup1\n        /* \"#utility.yul\":18024:18028   */\n      dup4\n        /* \"#utility.yul\":18020:18035   */\n      and\n        /* \"#utility.yul\":18010:18035   */\n      swap2\n      pop\n        /* \"#utility.yul\":17923:18041   */\n      pop\n        /* \"#utility.yul\":17872:18041   */\n      swap3\n      swap2\n      pop\n      pop\n      jump\t// out\n        /* \"#utility.yul\":18046:18341   */\n    tag_162:\n        /* \"#utility.yul\":18122:18126   */\n      0x00\n        /* \"#utility.yul\":18268:18297   */\n      tag_348\n        /* \"#utility.yul\":18293:18296   */\n      dup4\n        /* \"#utility.yul\":18287:18291   */\n      dup4\n        /* \"#utility.yul\":18268:18297   */\n      tag_161\n      jump\t// in\n    tag_348:\n        /* \"#utility.yul\":18260:18297   */\n      swap2\n      pop\n        /* \"#utility.yul\":18330:18333   */\n      dup3\n        /* \"#utility.yul\":18327:18328   */\n      0x02\n        /* \"#utility.yul\":18323:18334   */\n      mul\n        /* \"#utility.yul\":18317:18321   */\n      dup3\n        /* \"#utility.yul\":18314:18335   */\n      or\n        /* \"#utility.yul\":18306:18335   */\n      swap1\n      pop\n        /* \"#utility.yul\":18046:18341   */\n      swap3\n      swap2\n      pop\n      pop\n      jump\t// out\n        /* \"#utility.yul\":18346:19741   */\n    tag_71:\n        /* \"#utility.yul\":18463:18500   */\n      tag_350\n        /* \"#utility.yul\":18496:18499   */\n      dup3\n        /* \"#utility.yul\":18463:18500   */\n      tag_112\n      jump\t// in\n    tag_350:\n        /* \"#utility.yul\":18565:18583   */\n      0xffffffffffffffff\n        /* \"#utility.yul\":18557:18563   */\n      dup2\n        /* \"#utility.yul\":18554:18584   */\n      gt\n        /* \"#utility.yul\":18551:18607   */\n      iszero\n      tag_351\n      jumpi\n        /* \"#utility.yul\":18587:18605   */\n      tag_352\n      tag_122\n      jump\t// in\n    tag_352:\n        /* \"#utility.yul\":18551:18607   */\n    tag_351:\n        /* \"#utility.yul\":18631:18669   */\n      tag_353\n        /* \"#utility.yul\":18663:18667   */\n      dup3\n        /* \"#utility.yul\":18657:18668   */\n      sload\n        /* \"#utility.yul\":18631:18669   */\n      tag_57\n      jump\t// in\n    tag_353:\n        /* \"#utility.yul\":18716:18783   */\n      tag_354\n        /* \"#utility.yul\":18776:18782   */\n      dup3\n        /* \"#utility.yul\":18768:18774   */\n      dup3\n        /* \"#utility.yul\":18762:18766   */\n      dup6\n        /* \"#utility.yul\":18716:18783   */\n      tag_159\n      jump\t// in\n    tag_354:\n        /* \"#utility.yul\":18810:18811   */\n      0x00\n        /* \"#utility.yul\":18834:18838   */\n      0x20\n        /* \"#utility.yul\":18821:18838   */\n      swap1\n      pop\n        /* \"#utility.yul\":18866:18868   */\n      0x1f\n        /* \"#utility.yul\":18858:18864   */\n      dup4\n        /* \"#utility.yul\":18855:18869   */\n      gt\n        /* \"#utility.yul\":18883:18884   */\n      0x01\n        /* \"#utility.yul\":18878:19496   */\n      dup2\n      eq\n      tag_356\n      jumpi\n        /* \"#utility.yul\":19540:19541   */\n      0x00\n        /* \"#utility.yul\":19557:19563   */\n      dup5\n        /* \"#utility.yul\":19554:19631   */\n      iszero\n      tag_357\n      jumpi\n        /* \"#utility.yul\":19606:19615   */\n      dup3\n        /* \"#utility.yul\":19601:19604   */\n      dup8\n        /* \"#utility.yul\":19597:19616   */\n      add\n        /* \"#utility.yul\":19591:19617   */\n      mload\n        /* \"#utility.yul\":19582:19617   */\n      swap1\n      pop\n        /* \"#utility.yul\":19554:19631   */\n    tag_357:\n        /* \"#utility.yul\":19657:19724   */\n      tag_358\n        /* \"#utility.yul\":19717:19723   */\n      dup6\n        /* \"#utility.yul\":19710:19715   */\n      dup3\n        /* \"#utility.yul\":19657:19724   */\n      tag_162\n      jump\t// in\n    tag_358:\n        /* \"#utility.yul\":19651:19655   */\n      dup7\n        /* \"#utility.yul\":19644:19725   */\n      sstore\n        /* \"#utility.yul\":19513:19735   */\n      pop\n        /* \"#utility.yul\":18848:19735   */\n      jump(tag_355)\n        /* \"#utility.yul\":18878:19496   */\n    tag_356:\n        /* \"#utility.yul\":18930:18934   */\n      0x1f\n        /* \"#utility.yul\":18926:18935   */\n      not\n        /* \"#utility.yul\":18918:18924   */\n      dup5\n        /* \"#utility.yul\":18914:18936   */\n      and\n        /* \"#utility.yul\":18964:19001   */\n      tag_359\n        /* \"#utility.yul\":18996:19000   */\n      dup7\n        /* \"#utility.yul\":18964:19001   */\n      tag_148\n      jump\t// in\n    tag_359:\n        /* \"#utility.yul\":19023:19024   */\n      0x00\n        /* \"#utility.yul\":19037:19245   */\n    tag_360:\n        /* \"#utility.yul\":19051:19058   */\n      dup3\n        /* \"#utility.yul\":19048:19049   */\n      dup2\n        /* \"#utility.yul\":19045:19059   */\n      lt\n        /* \"#utility.yul\":19037:19245   */\n      iszero\n      tag_362\n      jumpi\n        /* \"#utility.yul\":19130:19139   */\n      dup5\n        /* \"#utility.yul\":19125:19128   */\n      dup10\n        /* \"#utility.yul\":19121:19140   */\n      add\n        /* \"#utility.yul\":19115:19141   */\n      mload\n        /* \"#utility.yul\":19107:19113   */\n      dup3\n        /* \"#utility.yul\":19100:19142   */\n      sstore\n        /* \"#utility.yul\":19181:19182   */\n      0x01\n        /* \"#utility.yul\":19173:19179   */\n      dup3\n        /* \"#utility.yul\":19169:19183   */\n      add\n        /* \"#utility.yul\":19159:19183   */\n      swap2\n      pop\n        /* \"#utility.yul\":19228:19230   */\n      0x20\n        /* \"#utility.yul\":19217:19226   */\n      dup6\n        /* \"#utility.yul\":19213:19231   */\n      add\n        /* \"#utility.yul\":19200:19231   */\n      swap5\n      pop\n        /* \"#utility.yul\":19074:19078   */\n      0x20\n        /* \"#utility.yul\":19071:19072   */\n      dup2\n        /* \"#utility.yul\":19067:19079   */\n      add\n        /* \"#utility.yul\":19062:19079   */\n      swap1\n      pop\n        /* \"#utility.yul\":19037:19245   */\n      jump(tag_360)\n    tag_362:\n        /* \"#utility.yul\":19273:19279   */\n      dup7\n        /* \"#utility.yul\":19264:19271   */\n      dup4\n        /* \"#utility.yul\":19261:19280   */\n      lt\n        /* \"#utility.yul\":19258:19437   */\n      iszero\n      tag_363\n      jumpi\n        /* \"#utility.yul\":19331:19340   */\n      dup5\n        /* \"#utility.yul\":19326:19329   */\n      dup10\n        /* \"#utility.yul\":19322:19341   */\n      add\n        /* \"#utility.yul\":19316:19342   */\n      mload\n        /* \"#utility.yul\":19374:19422   */\n      tag_364\n        /* \"#utility.yul\":19416:19420   */\n      0x1f\n        /* \"#utility.yul\":19408:19414   */\n      dup10\n        /* \"#utility.yul\":19404:19421   */\n      and\n        /* \"#utility.yul\":19393:19402   */\n      dup3\n        /* \"#utility.yul\":19374:19422   */\n      tag_161\n      jump\t// in\n    tag_364:\n        /* \"#utility.yul\":19366:19372   */\n      dup4\n        /* \"#utility.yul\":19359:19423   */\n      sstore\n        /* \"#utility.yul\":19281:19437   */\n      pop\n        /* \"#utility.yul\":19258:19437   */\n    tag_363:\n        /* \"#utility.yul\":19483:19484   */\n      0x01\n        /* \"#utility.yul\":19479:19480   */\n      0x02\n        /* \"#utility.yul\":19471:19477   */\n      dup9\n        /* \"#utility.yul\":19467:19481   */\n      mul\n        /* \"#utility.yul\":19463:19485   */\n      add\n        /* \"#utility.yul\":19457:19461   */\n      dup9\n        /* \"#utility.yul\":19450:19486   */\n      sstore\n        /* \"#utility.yul\":18885:19496   */\n      pop\n      pop\n      pop\n        /* \"#utility.yul\":18848:19735   */\n    tag_355:\n      pop\n        /* \"#utility.yul\":18438:19741   */\n      pop\n      pop\n      pop\n        /* \"#utility.yul\":18346:19741   */\n      pop\n      pop\n      jump\t// out\n        /* \"#utility.yul\":19747:19918   */\n    tag_163:\n        /* \"#utility.yul\":19887:19910   */\n      0x50726f6a65637420646f65736e27742065786973740000000000000000000000\n        /* \"#utility.yul\":19883:19884   */\n      0x00\n        /* \"#utility.yul\":19875:19881   */\n      dup3\n        /* \"#utility.yul\":19871:19885   */\n      add\n        /* \"#utility.yul\":19864:19911   */\n      mstore\n        /* \"#utility.yul\":19747:19918   */\n      pop\n      jump\t// out\n        /* \"#utility.yul\":19924:20290   */\n    tag_164:\n        /* \"#utility.yul\":20066:20069   */\n      0x00\n        /* \"#utility.yul\":20087:20154   */\n      tag_367\n        /* \"#utility.yul\":20151:20153   */\n      0x15\n        /* \"#utility.yul\":20146:20149   */\n      dup4\n        /* \"#utility.yul\":20087:20154   */\n      tag_113\n      jump\t// in\n    tag_367:\n        /* \"#utility.yul\":20080:20154   */\n      swap2\n      pop\n        /* \"#utility.yul\":20163:20256   */\n      tag_368\n        /* \"#utility.yul\":20252:20255   */\n      dup3\n        /* \"#utility.yul\":20163:20256   */\n      tag_163\n      jump\t// in\n    tag_368:\n        /* \"#utility.yul\":20281:20283   */\n      0x20\n        /* \"#utility.yul\":20276:20279   */\n      dup3\n        /* \"#utility.yul\":20272:20284   */\n      add\n        /* \"#utility.yul\":20265:20284   */\n      swap1\n      pop\n        /* \"#utility.yul\":19924:20290   */\n      swap2\n      swap1\n      pop\n      jump\t// out\n        /* \"#utility.yul\":20296:20715   */\n    tag_83:\n        /* \"#utility.yul\":20462:20466   */\n      0x00\n        /* \"#utility.yul\":20500:20502   */\n      0x20\n        /* \"#utility.yul\":20489:20498   */\n      dup3\n        /* \"#utility.yul\":20485:20503   */\n      add\n        /* \"#utility.yul\":20477:20503   */\n      swap1\n      pop\n        /* \"#utility.yul\":20549:20558   */\n      dup2\n        /* \"#utility.yul\":20543:20547   */\n      dup2\n        /* \"#utility.yul\":20539:20559   */\n      sub\n        /* \"#utility.yul\":20535:20536   */\n      0x00\n        /* \"#utility.yul\":20524:20533   */\n      dup4\n        /* \"#utility.yul\":20520:20537   */\n      add\n        /* \"#utility.yul\":20513:20560   */\n      mstore\n        /* \"#utility.yul\":20577:20708   */\n      tag_370\n        /* \"#utility.yul\":20703:20707   */\n      dup2\n        /* \"#utility.yul\":20577:20708   */\n      tag_164\n      jump\t// in\n    tag_370:\n        /* \"#utility.yul\":20569:20708   */\n      swap1\n      pop\n        /* \"#utility.yul\":20296:20715   */\n      swap2\n      swap1\n      pop\n      jump\t// out\n        /* \"#utility.yul\":20721:20942   */\n    tag_165:\n        /* \"#utility.yul\":20861:20895   */\n      0x596f7520646f6e74206861766520656e6f756768206d6f6e657920746f206675\n        /* \"#utility.yul\":20857:20858   */\n      0x00\n        /* \"#utility.yul\":20849:20855   */\n      dup3\n        /* \"#utility.yul\":20845:20859   */\n      add\n        /* \"#utility.yul\":20838:20896   */\n      mstore\n        /* \"#utility.yul\":20930:20934   */\n      0x6e64000000000000000000000000000000000000000000000000000000000000\n        /* \"#utility.yul\":20925:20927   */\n      0x20\n        /* \"#utility.yul\":20917:20923   */\n      dup3\n        /* \"#utility.yul\":20913:20928   */\n      add\n        /* \"#utility.yul\":20906:20935   */\n      mstore\n        /* \"#utility.yul\":20721:20942   */\n      pop\n      jump\t// out\n        /* \"#utility.yul\":20948:21314   */\n    tag_166:\n        /* \"#utility.yul\":21090:21093   */\n      0x00\n        /* \"#utility.yul\":21111:21178   */\n      tag_373\n        /* \"#utility.yul\":21175:21177   */\n      0x22\n        /* \"#utility.yul\":21170:21173   */\n      dup4\n        /* \"#utility.yul\":21111:21178   */\n      tag_113\n      jump\t// in\n    tag_373:\n        /* \"#utility.yul\":21104:21178   */\n      swap2\n      pop\n        /* \"#utility.yul\":21187:21280   */\n      tag_374\n        /* \"#utility.yul\":21276:21279   */\n      dup3\n        /* \"#utility.yul\":21187:21280   */\n      tag_165\n      jump\t// in\n    tag_374:\n        /* \"#utility.yul\":21305:21307   */\n      0x40\n        /* \"#utility.yul\":21300:21303   */\n      dup3\n        /* \"#utility.yul\":21296:21308   */\n      add\n        /* \"#utility.yul\":21289:21308   */\n      swap1\n      pop\n        /* \"#utility.yul\":20948:21314   */\n      swap2\n      swap1\n      pop\n      jump\t// out\n        /* \"#utility.yul\":21320:21739   */\n    tag_86:\n        /* \"#utility.yul\":21486:21490   */\n      0x00\n        /* \"#utility.yul\":21524:21526   */\n      0x20\n        /* \"#utility.yul\":21513:21522   */\n      dup3\n        /* \"#utility.yul\":21509:21527   */\n      add\n        /* \"#utility.yul\":21501:21527   */\n      swap1\n      pop\n        /* \"#utility.yul\":21573:21582   */\n      dup2\n        /* \"#utility.yul\":21567:21571   */\n      dup2\n        /* \"#utility.yul\":21563:21583   */\n      sub\n        /* \"#utility.yul\":21559:21560   */\n      0x00\n        /* \"#utility.yul\":21548:21557   */\n      dup4\n        /* \"#utility.yul\":21544:21561   */\n      add\n        /* \"#utility.yul\":21537:21584   */\n      mstore\n        /* \"#utility.yul\":21601:21732   */\n      tag_376\n        /* \"#utility.yul\":21727:21731   */\n      dup2\n        /* \"#utility.yul\":21601:21732   */\n      tag_166\n      jump\t// in\n    tag_376:\n        /* \"#utility.yul\":21593:21732   */\n      swap1\n      pop\n        /* \"#utility.yul\":21320:21739   */\n      swap2\n      swap1\n      pop\n      jump\t// out\n        /* \"#utility.yul\":21745:21917   */\n    tag_167:\n        /* \"#utility.yul\":21885:21909   */\n      0x46756e6420616d6f756e742063616e2774206265203000000000000000000000\n        /* \"#utility.yul\":21881:21882   */\n      0x00\n        /* \"#utility.yul\":21873:21879   */\n      dup3\n        /* \"#utility.yul\":21869:21883   */\n      add\n        /* \"#utility.yul\":21862:21910   */\n      mstore\n        /* \"#utility.yul\":21745:21917   */\n      pop\n      jump\t// out\n        /* \"#utility.yul\":21923:22289   */\n    tag_168:\n        /* \"#utility.yul\":22065:22068   */\n      0x00\n        /* \"#utility.yul\":22086:22153   */\n      tag_379\n        /* \"#utility.yul\":22150:22152   */\n      0x16\n        /* \"#utility.yul\":22145:22148   */\n      dup4\n        /* \"#utility.yul\":22086:22153   */\n      tag_113\n      jump\t// in\n    tag_379:\n        /* \"#utility.yul\":22079:22153   */\n      swap2\n      pop\n        /* \"#utility.yul\":22162:22255   */\n      tag_380\n        /* \"#utility.yul\":22251:22254   */\n      dup3\n        /* \"#utility.yul\":22162:22255   */\n      tag_167\n      jump\t// in\n    tag_380:\n        /* \"#utility.yul\":22280:22282   */\n      0x20\n        /* \"#utility.yul\":22275:22278   */\n      dup3\n        /* \"#utility.yul\":22271:22283   */\n      add\n        /* \"#utility.yul\":22264:22283   */\n      swap1\n      pop\n        /* \"#utility.yul\":21923:22289   */\n      swap2\n      swap1\n      pop\n      jump\t// out\n        /* \"#utility.yul\":22295:22714   */\n    tag_89:\n        /* \"#utility.yul\":22461:22465   */\n      0x00\n        /* \"#utility.yul\":22499:22501   */\n      0x20\n        /* \"#utility.yul\":22488:22497   */\n      dup3\n        /* \"#utility.yul\":22484:22502   */\n      add\n        /* \"#utility.yul\":22476:22502   */\n      swap1\n      pop\n        /* \"#utility.yul\":22548:22557   */\n      dup2\n        /* \"#utility.yul\":22542:22546   */\n      dup2\n        /* \"#utility.yul\":22538:22558   */\n      sub\n        /* \"#utility.yul\":22534:22535   */\n      0x00\n        /* \"#utility.yul\":22523:22532   */\n      dup4\n        /* \"#utility.yul\":22519:22536   */\n      add\n        /* \"#utility.yul\":22512:22559   */\n      mstore\n        /* \"#utility.yul\":22576:22707   */\n      tag_382\n        /* \"#utility.yul\":22702:22706   */\n      dup2\n        /* \"#utility.yul\":22576:22707   */\n      tag_168\n      jump\t// in\n    tag_382:\n        /* \"#utility.yul\":22568:22707   */\n      swap1\n      pop\n        /* \"#utility.yul\":22295:22714   */\n      swap2\n      swap1\n      pop\n      jump\t// out\n        /* \"#utility.yul\":22720:22900   */\n    tag_169:\n        /* \"#utility.yul\":22860:22892   */\n      0x50726f6a656374206d7573742062652061637469766520746f2066756e640000\n        /* \"#utility.yul\":22856:22857   */\n      0x00\n        /* \"#utility.yul\":22848:22854   */\n      dup3\n        /* \"#utility.yul\":22844:22858   */\n      add\n        /* \"#utility.yul\":22837:22893   */\n      mstore\n        /* \"#utility.yul\":22720:22900   */\n      pop\n      jump\t// out\n        /* \"#utility.yul\":22906:23272   */\n    tag_170:\n        /* \"#utility.yul\":23048:23051   */\n      0x00\n        /* \"#utility.yul\":23069:23136   */\n      tag_385\n        /* \"#utility.yul\":23133:23135   */\n      0x1e\n        /* \"#utility.yul\":23128:23131   */\n      dup4\n        /* \"#utility.yul\":23069:23136   */\n      tag_113\n      jump\t// in\n    tag_385:\n        /* \"#utility.yul\":23062:23136   */\n      swap2\n      pop\n        /* \"#utility.yul\":23145:23238   */\n      tag_386\n        /* \"#utility.yul\":23234:23237   */\n      dup3\n        /* \"#utility.yul\":23145:23238   */\n      tag_169\n      jump\t// in\n    tag_386:\n        /* \"#utility.yul\":23263:23265   */\n      0x20\n        /* \"#utility.yul\":23258:23261   */\n      dup3\n        /* \"#utility.yul\":23254:23266   */\n      add\n        /* \"#utility.yul\":23247:23266   */\n      swap1\n      pop\n        /* \"#utility.yul\":22906:23272   */\n      swap2\n      swap1\n      pop\n      jump\t// out\n        /* \"#utility.yul\":23278:23697   */\n    tag_95:\n        /* \"#utility.yul\":23444:23448   */\n      0x00\n        /* \"#utility.yul\":23482:23484   */\n      0x20\n        /* \"#utility.yul\":23471:23480   */\n      dup3\n        /* \"#utility.yul\":23467:23485   */\n      add\n        /* \"#utility.yul\":23459:23485   */\n      swap1\n      pop\n        /* \"#utility.yul\":23531:23540   */\n      dup2\n        /* \"#utility.yul\":23525:23529   */\n      dup2\n        /* \"#utility.yul\":23521:23541   */\n      sub\n        /* \"#utility.yul\":23517:23518   */\n      0x00\n        /* \"#utility.yul\":23506:23515   */\n      dup4\n        /* \"#utility.yul\":23502:23519   */\n      add\n        /* \"#utility.yul\":23495:23542   */\n      mstore\n        /* \"#utility.yul\":23559:23690   */\n      tag_388\n        /* \"#utility.yul\":23685:23689   */\n      dup2\n        /* \"#utility.yul\":23559:23690   */\n      tag_170\n      jump\t// in\n    tag_388:\n        /* \"#utility.yul\":23551:23690   */\n      swap1\n      pop\n        /* \"#utility.yul\":23278:23697   */\n      swap2\n      swap1\n      pop\n      jump\t// out\n        /* \"#utility.yul\":23703:23894   */\n    tag_100:\n        /* \"#utility.yul\":23743:23746   */\n      0x00\n        /* \"#utility.yul\":23762:23782   */\n      tag_390\n        /* \"#utility.yul\":23780:23781   */\n      dup3\n        /* \"#utility.yul\":23762:23782   */\n      tag_106\n      jump\t// in\n    tag_390:\n        /* \"#utility.yul\":23757:23782   */\n      swap2\n      pop\n        /* \"#utility.yul\":23796:23816   */\n      tag_391\n        /* \"#utility.yul\":23814:23815   */\n      dup4\n        /* \"#utility.yul\":23796:23816   */\n      tag_106\n      jump\t// in\n    tag_391:\n        /* \"#utility.yul\":23791:23816   */\n      swap3\n      pop\n        /* \"#utility.yul\":23839:23840   */\n      dup3\n        /* \"#utility.yul\":23836:23837   */\n      dup3\n        /* \"#utility.yul\":23832:23841   */\n      add\n        /* \"#utility.yul\":23825:23841   */\n      swap1\n      pop\n        /* \"#utility.yul\":23860:23863   */\n      dup1\n        /* \"#utility.yul\":23857:23858   */\n      dup3\n        /* \"#utility.yul\":23854:23864   */\n      gt\n        /* \"#utility.yul\":23851:23887   */\n      iszero\n      tag_392\n      jumpi\n        /* \"#utility.yul\":23867:23885   */\n      tag_393\n      tag_142\n      jump\t// in\n    tag_393:\n        /* \"#utility.yul\":23851:23887   */\n    tag_392:\n        /* \"#utility.yul\":23703:23894   */\n      swap3\n      swap2\n      pop\n      pop\n      jump\t// out\n\n    auxdata: 0xa26469706673582212205c67a4e46cbaa5f5f17ff9325ba2bb4824aecd0390a4b0c15de3727ae5dbf1eb64736f6c634300081e0033\n}\n",
				"bytecode": {
					"linkReferences": {},
					"object": "6080604052348015600e575f5ffd5b50335f5f6101000a81548173ffffffffffffffffffffffffffffffffffffffff021916908373ffffffffffffffffffffffffffffffffffffffff1602179055506114958061005b5f395ff3fe608060405260043610610049575f3560e01c806308e38af91461004d5780630e4877d614610075578063107046bd1461009f5780633e7e12a6146100df5780636c563abe14610107575b5f5ffd5b348015610058575f5ffd5b50610073600480360381019061006e919061087a565b610123565b005b348015610080575f5ffd5b506100896102e8565b60405161009691906108e4565b60405180910390f35b3480156100aa575f5ffd5b506100c560048036038101906100c0919061087a565b61030c565b6040516100d6959493929190610996565b60405180910390f35b3480156100ea575f5ffd5b5061010560048036038101906101009190610c2f565b6103fe565b005b610121600480360381019061011c919061087a565b610629565b005b5f6001828154811061013857610137610ca5565b5b905f5260205f20906006020190505f8160040182600301548154811061016157610160610ca5565b5b905f5260205f2090600502019050816005015f9054906101000a900460ff166101bf576040517f08c379a00000000000000000000000000000000000000000000000000000000081526004016101b690610d1c565b60405180910390fd5b806004015f9054906101000a900460ff1615610210576040517f08c379a000000000000000000000000000000000000000000000000000000000815260040161020790610d84565b60405180910390fd5b8060020154815f015f01541161025b576040517f08c379a000000000000000000000000000000000000000000000000000000000815260040161025290610e12565b60405180910390fd5b805f016001015442106102e357805f015f01548160020154106102c6576001816004015f6101000a81548160ff0219169083151502179055508160040180549050826003015410156102c157816003015f8154809291906102bb90610e5d565b91905055505b6102e2565b5f826005015f6101000a81548160ff0219169083151502179055505b5b505050565b5f5f9054906101000a900473ffffffffffffffffffffffffffffffffffffffff1681565b6001818154811061031b575f80fd5b905f5260205f2090600602015f91509050805f015f9054906101000a900473ffffffffffffffffffffffffffffffffffffffff169080600101805461035f90610ed1565b80601f016020809104026020016040519081016040528092919081815260200182805461038b90610ed1565b80156103d65780601f106103ad576101008083540402835291602001916103d6565b820191905f5260205f20905b8154815290600101906020018083116103b957829003601f168201915b505050505090806002015490806003015490806005015f9054906101000a900460ff16905085565b5f5f9054906101000a900473ffffffffffffffffffffffffffffffffffffffff1673ffffffffffffffffffffffffffffffffffffffff163373ffffffffffffffffffffffffffffffffffffffff160361048c576040517f08c379a000000000000000000000000000000000000000000000000000000000815260040161048390610f71565b60405180910390fd5b5f8151116104cf576040517f08c379a00000000000000000000000000000000000000000000000000000000081526004016104c690610fd9565b60405180910390fd5b5f6001808160018154018082558091505003905f5260205f209060060201905033815f015f6101000a81548173ffffffffffffffffffffffffffffffffffffffff021916908373ffffffffffffffffffffffffffffffffffffffff160217905550828160010190816105419190611197565b505f81600201819055505f81600301819055506001816005015f6101000a81548160ff0219169083151502179055505f5f90505b8251811015610623575f8260040160018160018154018082558091505003905f5260205f20906005020190508382815181106105b4576105b3610ca5565b5b60200260200101515f0151815f015f01819055508382815181106105db576105da610ca5565b5b602002602001015160200151815f01600101819055505f81600201819055505f816004015f6101000a81548160ff021916908315150217905550508080600101915050610575565b50505050565b6001805490508110610670576040517f08c379a0000000000000000000000000000000000000000000000000000000008152600401610667906112b0565b60405180910390fd5b3373ffffffffffffffffffffffffffffffffffffffff16313410156106ca576040517f08c379a00000000000000000000000000000000000000000000000000000000081526004016106c19061133e565b60405180910390fd5b5f341161070c576040517f08c379a0000000000000000000000000000000000000000000000000000000008152600401610703906113a6565b60405180910390fd5b5f6001828154811061072157610720610ca5565b5b905f5260205f2090600602019050806005015f9054906101000a900460ff1661077f576040517f08c379a00000000000000000000000000000000000000000000000000000000081526004016107769061140e565b60405180910390fd5b5f8160040182600301548154811061079a57610799610ca5565b5b905f5260205f209060050201905034816003015f3373ffffffffffffffffffffffffffffffffffffffff1673ffffffffffffffffffffffffffffffffffffffff1681526020019081526020015f205f8282546107f6919061142c565b9250508190555034816002015f828254610810919061142c565b9250508190555034826002015f82825461082a919061142c565b92505081905550505050565b5f604051905090565b5f5ffd5b5f5ffd5b5f819050919050565b61085981610847565b8114610863575f5ffd5b50565b5f8135905061087481610850565b92915050565b5f6020828403121561088f5761088e61083f565b5b5f61089c84828501610866565b91505092915050565b5f73ffffffffffffffffffffffffffffffffffffffff82169050919050565b5f6108ce826108a5565b9050919050565b6108de816108c4565b82525050565b5f6020820190506108f75f8301846108d5565b92915050565b5f81519050919050565b5f82825260208201905092915050565b8281835e5f83830152505050565b5f601f19601f8301169050919050565b5f61093f826108fd565b6109498185610907565b9350610959818560208601610917565b61096281610925565b840191505092915050565b61097681610847565b82525050565b5f8115159050919050565b6109908161097c565b82525050565b5f60a0820190506109a95f8301886108d5565b81810360208301526109bb8187610935565b90506109ca604083018661096d565b6109d7606083018561096d565b6109e46080830184610987565b9695505050505050565b5f5ffd5b5f5ffd5b7f4e487b71000000000000000000000000000000000000000000000000000000005f52604160045260245ffd5b610a2c82610925565b810181811067ffffffffffffffff82111715610a4b57610a4a6109f6565b5b80604052505050565b5f610a5d610836565b9050610a698282610a23565b919050565b5f67ffffffffffffffff821115610a8857610a876109f6565b5b610a9182610925565b9050602081019050919050565b828183375f83830152505050565b5f610abe610ab984610a6e565b610a54565b905082815260208101848484011115610ada57610ad96109f2565b5b610ae5848285610a9e565b509392505050565b5f82601f830112610b0157610b006109ee565b5b8135610b11848260208601610aac565b91505092915050565b5f67ffffffffffffffff821115610b3457610b336109f6565b5b602082029050602081019050919050565b5f5ffd5b5f5ffd5b5f60408284031215610b6257610b61610b49565b5b610b6c6040610a54565b90505f610b7b84828501610866565b5f830152506020610b8e84828501610866565b60208301525092915050565b5f610bac610ba784610b1a565b610a54565b90508083825260208201905060408402830185811115610bcf57610bce610b45565b5b835b81811015610bf85780610be48882610b4d565b845260208401935050604081019050610bd1565b5050509392505050565b5f82601f830112610c1657610c156109ee565b5b8135610c26848260208601610b9a565b91505092915050565b5f5f60408385031215610c4557610c4461083f565b5b5f83013567ffffffffffffffff811115610c6257610c61610843565b5b610c6e85828601610aed565b925050602083013567ffffffffffffffff811115610c8f57610c8e610843565b5b610c9b85828601610c02565b9150509250929050565b7f4e487b71000000000000000000000000000000000000000000000000000000005f52603260045260245ffd5b7f50726f6a656374206d75737420626520616374697665000000000000000000005f82015250565b5f610d06601683610907565b9150610d1182610cd2565b602082019050919050565b5f6020820190508181035f830152610d3381610cfa565b9050919050565b7f4d696c6573746f6e652073686f756c64206265206e6f742072656163686564005f82015250565b5f610d6e601f83610907565b9150610d7982610d3a565b602082019050919050565b5f6020820190508181035f830152610d9b81610d62565b9050919050565b7f4d696c6573746f6e652073686f756c646e27742062652066756e64656420746f5f8201527f20726566756e6400000000000000000000000000000000000000000000000000602082015250565b5f610dfc602783610907565b9150610e0782610da2565b604082019050919050565b5f6020820190508181035f830152610e2981610df0565b9050919050565b7f4e487b71000000000000000000000000000000000000000000000000000000005f52601160045260245ffd5b5f610e6782610847565b91507fffffffffffffffffffffffffffffffffffffffffffffffffffffffffffffffff8203610e9957610e98610e30565b5b600182019050919050565b7f4e487b71000000000000000000000000000000000000000000000000000000005f52602260045260245ffd5b5f6002820490506001821680610ee857607f821691505b602082108103610efb57610efa610ea4565b5b50919050565b7f53797374656d206f776e65722063616e2774206372656174652070726f6a65635f8201527f7473000000000000000000000000000000000000000000000000000000000000602082015250565b5f610f5b602283610907565b9150610f6682610f01565b604082019050919050565b5f6020820190508181035f830152610f8881610f4f565b9050919050565b7f4d7573742068617665206174206c65617374206f6e65206d696c6573746f6e655f82015250565b5f610fc3602083610907565b9150610fce82610f8f565b602082019050919050565b5f6020820190508181035f830152610ff081610fb7565b9050919050565b5f819050815f5260205f209050919050565b5f6020601f8301049050919050565b5f82821b905092915050565b5f600883026110537fffffffffffffffffffffffffffffffffffffffffffffffffffffffffffffffff82611018565b61105d8683611018565b95508019841693508086168417925050509392505050565b5f819050919050565b5f61109861109361108e84610847565b611075565b610847565b9050919050565b5f819050919050565b6110b18361107e565b6110c56110bd8261109f565b848454611024565b825550505050565b5f5f905090565b6110dc6110cd565b6110e78184846110a8565b505050565b5b8181101561110a576110ff5f826110d4565b6001810190506110ed565b5050565b601f82111561114f5761112081610ff7565b61112984611009565b81016020851015611138578190505b61114c61114485611009565b8301826110ec565b50505b505050565b5f82821c905092915050565b5f61116f5f1984600802611154565b1980831691505092915050565b5f6111878383611160565b9150826002028217905092915050565b6111a0826108fd565b67ffffffffffffffff8111156111b9576111b86109f6565b5b6111c38254610ed1565b6111ce82828561110e565b5f60209050601f8311600181146111ff575f84156111ed578287015190505b6111f7858261117c565b86555061125e565b601f19841661120d86610ff7565b5f5b828110156112345784890151825560018201915060208501945060208101905061120f565b86831015611251578489015161124d601f891682611160565b8355505b6001600288020188555050505b505050505050565b7f50726f6a65637420646f65736e277420657869737400000000000000000000005f82015250565b5f61129a601583610907565b91506112a582611266565b602082019050919050565b5f6020820190508181035f8301526112c78161128e565b9050919050565b7f596f7520646f6e74206861766520656e6f756768206d6f6e657920746f2066755f8201527f6e64000000000000000000000000000000000000000000000000000000000000602082015250565b5f611328602283610907565b9150611333826112ce565b604082019050919050565b5f6020820190508181035f8301526113558161131c565b9050919050565b7f46756e6420616d6f756e742063616e27742062652030000000000000000000005f82015250565b5f611390601683610907565b915061139b8261135c565b602082019050919050565b5f6020820190508181035f8301526113bd81611384565b9050919050565b7f50726f6a656374206d7573742062652061637469766520746f2066756e6400005f82015250565b5f6113f8601e83610907565b9150611403826113c4565b602082019050919050565b5f6020820190508181035f830152611425816113ec565b9050919050565b5f61143682610847565b915061144183610847565b925082820190508082111561145957611458610e30565b5b9291505056fea26469706673582212205c67a4e46cbaa5f5f17ff9325ba2bb4824aecd0390a4b0c15de3727ae5dbf1eb64736f6c634300081e0033",
					"opcodes": "PUSH1 0x80 PUSH1 0x40 MSTORE CALLVALUE DUP1 ISZERO PUSH1 0xE JUMPI PUSH0 PUSH0 REVERT JUMPDEST POP CALLER PUSH0 PUSH0 PUSH2 0x100 EXP DUP2 SLOAD DUP2 PUSH20 0xFFFFFFFFFFFFFFFFFFFFFFFFFFFFFFFFFFFFFFFF MUL NOT AND SWAP1 DUP4 PUSH20 0xFFFFFFFFFFFFFFFFFFFFFFFFFFFFFFFFFFFFFFFF AND MUL OR SWAP1 SSTORE POP PUSH2 0x1495 DUP1 PUSH2 0x5B PUSH0 CODECOPY PUSH0 RETURN INVALID PUSH1 0x80 PUSH1 0x40 MSTORE PUSH1 0x4 CALLDATASIZE LT PUSH2 0x49 JUMPI PUSH0 CALLDATALOAD PUSH1 0xE0 SHR DUP1 PUSH4 0x8E38AF9 EQ PUSH2 0x4D JUMPI DUP1 PUSH4 0xE4877D6 EQ PUSH2 0x75 JUMPI DUP1 PUSH4 0x107046BD EQ PUSH2 0x9F JUMPI DUP1 PUSH4 0x3E7E12A6 EQ PUSH2 0xDF JUMPI DUP1 PUSH4 0x6C563ABE EQ PUSH2 0x107 JUMPI JUMPDEST PUSH0 PUSH0 REVERT JUMPDEST CALLVALUE DUP1 ISZERO PUSH2 0x58 JUMPI PUSH0 PUSH0 REVERT JUMPDEST POP PUSH2 0x73 PUSH1 0x4 DUP1 CALLDATASIZE SUB DUP2 ADD SWAP1 PUSH2 0x6E SWAP2 SWAP1 PUSH2 0x87A JUMP JUMPDEST PUSH2 0x123 JUMP JUMPDEST STOP JUMPDEST CALLVALUE DUP1 ISZERO PUSH2 0x80 JUMPI PUSH0 PUSH0 REVERT JUMPDEST POP PUSH2 0x89 PUSH2 0x2E8 JUMP JUMPDEST PUSH1 0x40 MLOAD PUSH2 0x96 SWAP2 SWAP1 PUSH2 0x8E4 JUMP JUMPDEST PUSH1 0x40 MLOAD DUP1 SWAP2 SUB SWAP1 RETURN JUMPDEST CALLVALUE DUP1 ISZERO PUSH2 0xAA JUMPI PUSH0 PUSH0 REVERT JUMPDEST POP PUSH2 0xC5 PUSH1 0x4 DUP1 CALLDATASIZE SUB DUP2 ADD SWAP1 PUSH2 0xC0 SWAP2 SWAP1 PUSH2 0x87A JUMP JUMPDEST PUSH2 0x30C JUMP JUMPDEST PUSH1 0x40 MLOAD PUSH2 0xD6 SWAP6 SWAP5 SWAP4 SWAP3 SWAP2 SWAP1 PUSH2 0x996 JUMP JUMPDEST PUSH1 0x40 MLOAD DUP1 SWAP2 SUB SWAP1 RETURN JUMPDEST CALLVALUE DUP1 ISZERO PUSH2 0xEA JUMPI PUSH0 PUSH0 REVERT JUMPDEST POP PUSH2 0x105 PUSH1 0x4 DUP1 CALLDATASIZE SUB DUP2 ADD SWAP1 PUSH2 0x100 SWAP2 SWAP1 PUSH2 0xC2F JUMP JUMPDEST PUSH2 0x3FE JUMP JUMPDEST STOP JUMPDEST PUSH2 0x121 PUSH1 0x4 DUP1 CALLDATASIZE SUB DUP2 ADD SWAP1 PUSH2 0x11C SWAP2 SWAP1 PUSH2 0x87A JUMP JUMPDEST PUSH2 0x629 JUMP JUMPDEST STOP JUMPDEST PUSH0 PUSH1 0x1 DUP3 DUP2 SLOAD DUP2 LT PUSH2 0x138 JUMPI PUSH2 0x137 PUSH2 0xCA5 JUMP JUMPDEST JUMPDEST SWAP1 PUSH0 MSTORE PUSH1 0x20 PUSH0 KECCAK256 SWAP1 PUSH1 0x6 MUL ADD SWAP1 POP PUSH0 DUP2 PUSH1 0x4 ADD DUP3 PUSH1 0x3 ADD SLOAD DUP2 SLOAD DUP2 LT PUSH2 0x161 JUMPI PUSH2 0x160 PUSH2 0xCA5 JUMP JUMPDEST JUMPDEST SWAP1 PUSH0 MSTORE PUSH1 0x20 PUSH0 KECCAK256 SWAP1 PUSH1 0x5 MUL ADD SWAP1 POP DUP2 PUSH1 0x5 ADD PUSH0 SWAP1 SLOAD SWAP1 PUSH2 0x100 EXP SWAP1 DIV PUSH1 0xFF AND PUSH2 0x1BF JUMPI PUSH1 0x40 MLOAD PUSH32 0x8C379A000000000000000000000000000000000000000000000000000000000 DUP2 MSTORE PUSH1 0x4 ADD PUSH2 0x1B6 SWAP1 PUSH2 0xD1C JUMP JUMPDEST PUSH1 0x40 MLOAD DUP1 SWAP2 SUB SWAP1 REVERT JUMPDEST DUP1 PUSH1 0x4 ADD PUSH0 SWAP1 SLOAD SWAP1 PUSH2 0x100 EXP SWAP1 DIV PUSH1 0xFF AND ISZERO PUSH2 0x210 JUMPI PUSH1 0x40 MLOAD PUSH32 0x8C379A000000000000000000000000000000000000000000000000000000000 DUP2 MSTORE PUSH1 0x4 ADD PUSH2 0x207 SWAP1 PUSH2 0xD84 JUMP JUMPDEST PUSH1 0x40 MLOAD DUP1 SWAP2 SUB SWAP1 REVERT JUMPDEST DUP1 PUSH1 0x2 ADD SLOAD DUP2 PUSH0 ADD PUSH0 ADD SLOAD GT PUSH2 0x25B JUMPI PUSH1 0x40 MLOAD PUSH32 0x8C379A000000000000000000000000000000000000000000000000000000000 DUP2 MSTORE PUSH1 0x4 ADD PUSH2 0x252 SWAP1 PUSH2 0xE12 JUMP JUMPDEST PUSH1 0x40 MLOAD DUP1 SWAP2 SUB SWAP1 REVERT JUMPDEST DUP1 PUSH0 ADD PUSH1 0x1 ADD SLOAD TIMESTAMP LT PUSH2 0x2E3 JUMPI DUP1 PUSH0 ADD PUSH0 ADD SLOAD DUP2 PUSH1 0x2 ADD SLOAD LT PUSH2 0x2C6 JUMPI PUSH1 0x1 DUP2 PUSH1 0x4 ADD PUSH0 PUSH2 0x100 EXP DUP2 SLOAD DUP2 PUSH1 0xFF MUL NOT AND SWAP1 DUP4 ISZERO ISZERO MUL OR SWAP1 SSTORE POP DUP2 PUSH1 0x4 ADD DUP1 SLOAD SWAP1 POP DUP3 PUSH1 0x3 ADD SLOAD LT ISZERO PUSH2 0x2C1 JUMPI DUP2 PUSH1 0x3 ADD PUSH0 DUP2 SLOAD DUP1 SWAP3 SWAP2 SWAP1 PUSH2 0x2BB SWAP1 PUSH2 0xE5D JUMP JUMPDEST SWAP2 SWAP1 POP SSTORE POP JUMPDEST PUSH2 0x2E2 JUMP JUMPDEST PUSH0 DUP3 PUSH1 0x5 ADD PUSH0 PUSH2 0x100 EXP DUP2 SLOAD DUP2 PUSH1 0xFF MUL NOT AND SWAP1 DUP4 ISZERO ISZERO MUL OR SWAP1 SSTORE POP JUMPDEST JUMPDEST POP POP POP JUMP JUMPDEST PUSH0 PUSH0 SWAP1 SLOAD SWAP1 PUSH2 0x100 EXP SWAP1 DIV PUSH20 0xFFFFFFFFFFFFFFFFFFFFFFFFFFFFFFFFFFFFFFFF AND DUP2 JUMP JUMPDEST PUSH1 0x1 DUP2 DUP2 SLOAD DUP2 LT PUSH2 0x31B JUMPI PUSH0 DUP1 REVERT JUMPDEST SWAP1 PUSH0 MSTORE PUSH1 0x20 PUSH0 KECCAK256 SWAP1 PUSH1 0x6 MUL ADD PUSH0 SWAP2 POP SWAP1 POP DUP1 PUSH0 ADD PUSH0 SWAP1 SLOAD SWAP1 PUSH2 0x100 EXP SWAP1 DIV PUSH20 0xFFFFFFFFFFFFFFFFFFFFFFFFFFFFFFFFFFFFFFFF AND SWAP1 DUP1 PUSH1 0x1 ADD DUP1 SLOAD PUSH2 0x35F SWAP1 PUSH2 0xED1 JUMP JUMPDEST DUP1 PUSH1 0x1F ADD PUSH1 0x20 DUP1 SWAP2 DIV MUL PUSH1 0x20 ADD PUSH1 0x40 MLOAD SWAP1 DUP2 ADD PUSH1 0x40 MSTORE DUP1 SWAP3 SWAP2 SWAP1 DUP2 DUP2 MSTORE PUSH1 0x20 ADD DUP3 DUP1 SLOAD PUSH2 0x38B SWAP1 PUSH2 0xED1 JUMP JUMPDEST DUP1 ISZERO PUSH2 0x3D6 JUMPI DUP1 PUSH1 0x1F LT PUSH2 0x3AD JUMPI PUSH2 0x100 DUP1 DUP4 SLOAD DIV MUL DUP4 MSTORE SWAP2 PUSH1 0x20 ADD SWAP2 PUSH2 0x3D6 JUMP JUMPDEST DUP3 ADD SWAP2 SWAP1 PUSH0 MSTORE PUSH1 0x20 PUSH0 KECCAK256 SWAP1 JUMPDEST DUP2 SLOAD DUP2 MSTORE SWAP1 PUSH1 0x1 ADD SWAP1 PUSH1 0x20 ADD DUP1 DUP4 GT PUSH2 0x3B9 JUMPI DUP3 SWAP1 SUB PUSH1 0x1F AND DUP3 ADD SWAP2 JUMPDEST POP POP POP POP POP SWAP1 DUP1 PUSH1 0x2 ADD SLOAD SWAP1 DUP1 PUSH1 0x3 ADD SLOAD SWAP1 DUP1 PUSH1 0x5 ADD PUSH0 SWAP1 SLOAD SWAP1 PUSH2 0x100 EXP SWAP1 DIV PUSH1 0xFF AND SWAP1 POP DUP6 JUMP JUMPDEST PUSH0 PUSH0 SWAP1 SLOAD SWAP1 PUSH2 0x100 EXP SWAP1 DIV PUSH20 0xFFFFFFFFFFFFFFFFFFFFFFFFFFFFFFFFFFFFFFFF AND PUSH20 0xFFFFFFFFFFFFFFFFFFFFFFFFFFFFFFFFFFFFFFFF AND CALLER PUSH20 0xFFFFFFFFFFFFFFFFFFFFFFFFFFFFFFFFFFFFFFFF AND SUB PUSH2 0x48C JUMPI PUSH1 0x40 MLOAD PUSH32 0x8C379A000000000000000000000000000000000000000000000000000000000 DUP2 MSTORE PUSH1 0x4 ADD PUSH2 0x483 SWAP1 PUSH2 0xF71 JUMP JUMPDEST PUSH1 0x40 MLOAD DUP1 SWAP2 SUB SWAP1 REVERT JUMPDEST PUSH0 DUP2 MLOAD GT PUSH2 0x4CF JUMPI PUSH1 0x40 MLOAD PUSH32 0x8C379A000000000000000000000000000000000000000000000000000000000 DUP2 MSTORE PUSH1 0x4 ADD PUSH2 0x4C6 SWAP1 PUSH2 0xFD9 JUMP JUMPDEST PUSH1 0x40 MLOAD DUP1 SWAP2 SUB SWAP1 REVERT JUMPDEST PUSH0 PUSH1 0x1 DUP1 DUP2 PUSH1 0x1 DUP2 SLOAD ADD DUP1 DUP3 SSTORE DUP1 SWAP2 POP POP SUB SWAP1 PUSH0 MSTORE PUSH1 0x20 PUSH0 KECCAK256 SWAP1 PUSH1 0x6 MUL ADD SWAP1 POP CALLER DUP2 PUSH0 ADD PUSH0 PUSH2 0x100 EXP DUP2 SLOAD DUP2 PUSH20 0xFFFFFFFFFFFFFFFFFFFFFFFFFFFFFFFFFFFFFFFF MUL NOT AND SWAP1 DUP4 PUSH20 0xFFFFFFFFFFFFFFFFFFFFFFFFFFFFFFFFFFFFFFFF AND MUL OR SWAP1 SSTORE POP DUP3 DUP2 PUSH1 0x1 ADD SWAP1 DUP2 PUSH2 0x541 SWAP2 SWAP1 PUSH2 0x1197 JUMP JUMPDEST POP PUSH0 DUP2 PUSH1 0x2 ADD DUP2 SWAP1 SSTORE POP PUSH0 DUP2 PUSH1 0x3 ADD DUP2 SWAP1 SSTORE POP PUSH1 0x1 DUP2 PUSH1 0x5 ADD PUSH0 PUSH2 0x100 EXP DUP2 SLOAD DUP2 PUSH1 0xFF MUL NOT AND SWAP1 DUP4 ISZERO ISZERO MUL OR SWAP1 SSTORE POP PUSH0 PUSH0 SWAP1 POP JUMPDEST DUP3 MLOAD DUP2 LT ISZERO PUSH2 0x623 JUMPI PUSH0 DUP3 PUSH1 0x4 ADD PUSH1 0x1 DUP2 PUSH1 0x1 DUP2 SLOAD ADD DUP1 DUP3 SSTORE DUP1 SWAP2 POP POP SUB SWAP1 PUSH0 MSTORE PUSH1 0x20 PUSH0 KECCAK256 SWAP1 PUSH1 0x5 MUL ADD SWAP1 POP DUP4 DUP3 DUP2 MLOAD DUP2 LT PUSH2 0x5B4 JUMPI PUSH2 0x5B3 PUSH2 0xCA5 JUMP JUMPDEST JUMPDEST PUSH1 0x20 MUL PUSH1 0x20 ADD ADD MLOAD PUSH0 ADD MLOAD DUP2 PUSH0 ADD PUSH0 ADD DUP2 SWAP1 SSTORE POP DUP4 DUP3 DUP2 MLOAD DUP2 LT PUSH2 0x5DB JUMPI PUSH2 0x5DA PUSH2 0xCA5 JUMP JUMPDEST JUMPDEST PUSH1 0x20 MUL PUSH1 0x20 ADD ADD MLOAD PUSH1 0x20 ADD MLOAD DUP2 PUSH0 ADD PUSH1 0x1 ADD DUP2 SWAP1 SSTORE POP PUSH0 DUP2 PUSH1 0x2 ADD DUP2 SWAP1 SSTORE POP PUSH0 DUP2 PUSH1 0x4 ADD PUSH0 PUSH2 0x100 EXP DUP2 SLOAD DUP2 PUSH1 0xFF MUL NOT AND SWAP1 DUP4 ISZERO ISZERO MUL OR SWAP1 SSTORE POP POP DUP1 DUP1 PUSH1 0x1 ADD SWAP2 POP POP PUSH2 0x575 JUMP JUMPDEST POP POP POP POP JUMP JUMPDEST PUSH1 0x1 DUP1 SLOAD SWAP1 POP DUP2 LT PUSH2 0x670 JUMPI PUSH1 0x40 MLOAD PUSH32 0x8C379A000000000000000000000000000000000000000000000000000000000 DUP2 MSTORE PUSH1 0x4 ADD PUSH2 0x667 SWAP1 PUSH2 0x12B0 JUMP JUMPDEST PUSH1 0x40 MLOAD DUP1 SWAP2 SUB SWAP1 REVERT JUMPDEST CALLER PUSH20 0xFFFFFFFFFFFFFFFFFFFFFFFFFFFFFFFFFFFFFFFF AND BALANCE CALLVALUE LT ISZERO PUSH2 0x6CA JUMPI PUSH1 0x40 MLOAD PUSH32 0x8C379A000000000000000000000000000000000000000000000000000000000 DUP2 MSTORE PUSH1 0x4 ADD PUSH2 0x6C1 SWAP1 PUSH2 0x133E JUMP JUMPDEST PUSH1 0x40 MLOAD DUP1 SWAP2 SUB SWAP1 REVERT JUMPDEST PUSH0 CALLVALUE GT PUSH2 0x70C JUMPI PUSH1 0x40 MLOAD PUSH32 0x8C379A000000000000000000000000000000000000000000000000000000000 DUP2 MSTORE PUSH1 0x4 ADD PUSH2 0x703 SWAP1 PUSH2 0x13A6 JUMP JUMPDEST PUSH1 0x40 MLOAD DUP1 SWAP2 SUB SWAP1 REVERT JUMPDEST PUSH0 PUSH1 0x1 DUP3 DUP2 SLOAD DUP2 LT PUSH2 0x721 JUMPI PUSH2 0x720 PUSH2 0xCA5 JUMP JUMPDEST JUMPDEST SWAP1 PUSH0 MSTORE PUSH1 0x20 PUSH0 KECCAK256 SWAP1 PUSH1 0x6 MUL ADD SWAP1 POP DUP1 PUSH1 0x5 ADD PUSH0 SWAP1 SLOAD SWAP1 PUSH2 0x100 EXP SWAP1 DIV PUSH1 0xFF AND PUSH2 0x77F JUMPI PUSH1 0x40 MLOAD PUSH32 0x8C379A000000000000000000000000000000000000000000000000000000000 DUP2 MSTORE PUSH1 0x4 ADD PUSH2 0x776 SWAP1 PUSH2 0x140E JUMP JUMPDEST PUSH1 0x40 MLOAD DUP1 SWAP2 SUB SWAP1 REVERT JUMPDEST PUSH0 DUP2 PUSH1 0x4 ADD DUP3 PUSH1 0x3 ADD SLOAD DUP2 SLOAD DUP2 LT PUSH2 0x79A JUMPI PUSH2 0x799 PUSH2 0xCA5 JUMP JUMPDEST JUMPDEST SWAP1 PUSH0 MSTORE PUSH1 0x20 PUSH0 KECCAK256 SWAP1 PUSH1 0x5 MUL ADD SWAP1 POP CALLVALUE DUP2 PUSH1 0x3 ADD PUSH0 CALLER PUSH20 0xFFFFFFFFFFFFFFFFFFFFFFFFFFFFFFFFFFFFFFFF AND PUSH20 0xFFFFFFFFFFFFFFFFFFFFFFFFFFFFFFFFFFFFFFFF AND DUP2 MSTORE PUSH1 0x20 ADD SWAP1 DUP2 MSTORE PUSH1 0x20 ADD PUSH0 KECCAK256 PUSH0 DUP3 DUP3 SLOAD PUSH2 0x7F6 SWAP2 SWAP1 PUSH2 0x142C JUMP JUMPDEST SWAP3 POP POP DUP2 SWAP1 SSTORE POP CALLVALUE DUP2 PUSH1 0x2 ADD PUSH0 DUP3 DUP3 SLOAD PUSH2 0x810 SWAP2 SWAP1 PUSH2 0x142C JUMP JUMPDEST SWAP3 POP POP DUP2 SWAP1 SSTORE POP CALLVALUE DUP3 PUSH1 0x2 ADD PUSH0 DUP3 DUP3 SLOAD PUSH2 0x82A SWAP2 SWAP1 PUSH2 0x142C JUMP JUMPDEST SWAP3 POP POP DUP2 SWAP1 SSTORE POP POP POP POP JUMP JUMPDEST PUSH0 PUSH1 0x40 MLOAD SWAP1 POP SWAP1 JUMP JUMPDEST PUSH0 PUSH0 REVERT JUMPDEST PUSH0 PUSH0 REVERT JUMPDEST PUSH0 DUP2 SWAP1 POP SWAP2 SWAP1 POP JUMP JUMPDEST PUSH2 0x859 DUP2 PUSH2 0x847 JUMP JUMPDEST DUP2 EQ PUSH2 0x863 JUMPI PUSH0 PUSH0 REVERT JUMPDEST POP JUMP JUMPDEST PUSH0 DUP2 CALLDATALOAD SWAP1 POP PUSH2 0x874 DUP2 PUSH2 0x850 JUMP JUMPDEST SWAP3 SWAP2 POP POP JUMP JUMPDEST PUSH0 PUSH1 0x20 DUP3 DUP5 SUB SLT ISZERO PUSH2 0x88F JUMPI PUSH2 0x88E PUSH2 0x83F JUMP JUMPDEST JUMPDEST PUSH0 PUSH2 0x89C DUP5 DUP3 DUP6 ADD PUSH2 0x866 JUMP JUMPDEST SWAP2 POP POP SWAP3 SWAP2 POP POP JUMP JUMPDEST PUSH0 PUSH20 0xFFFFFFFFFFFFFFFFFFFFFFFFFFFFFFFFFFFFFFFF DUP3 AND SWAP1 POP SWAP2 SWAP1 POP JUMP JUMPDEST PUSH0 PUSH2 0x8CE DUP3 PUSH2 0x8A5 JUMP JUMPDEST SWAP1 POP SWAP2 SWAP1 POP JUMP JUMPDEST PUSH2 0x8DE DUP2 PUSH2 0x8C4 JUMP JUMPDEST DUP3 MSTORE POP POP JUMP JUMPDEST PUSH0 PUSH1 0x20 DUP3 ADD SWAP1 POP PUSH2 0x8F7 PUSH0 DUP4 ADD DUP5 PUSH2 0x8D5 JUMP JUMPDEST SWAP3 SWAP2 POP POP JUMP JUMPDEST PUSH0 DUP2 MLOAD SWAP1 POP SWAP2 SWAP1 POP JUMP JUMPDEST PUSH0 DUP3 DUP3 MSTORE PUSH1 0x20 DUP3 ADD SWAP1 POP SWAP3 SWAP2 POP POP JUMP JUMPDEST DUP3 DUP2 DUP4 MCOPY PUSH0 DUP4 DUP4 ADD MSTORE POP POP POP JUMP JUMPDEST PUSH0 PUSH1 0x1F NOT PUSH1 0x1F DUP4 ADD AND SWAP1 POP SWAP2 SWAP1 POP JUMP JUMPDEST PUSH0 PUSH2 0x93F DUP3 PUSH2 0x8FD JUMP JUMPDEST PUSH2 0x949 DUP2 DUP6 PUSH2 0x907 JUMP JUMPDEST SWAP4 POP PUSH2 0x959 DUP2 DUP6 PUSH1 0x20 DUP7 ADD PUSH2 0x917 JUMP JUMPDEST PUSH2 0x962 DUP2 PUSH2 0x925 JUMP JUMPDEST DUP5 ADD SWAP2 POP POP SWAP3 SWAP2 POP POP JUMP JUMPDEST PUSH2 0x976 DUP2 PUSH2 0x847 JUMP JUMPDEST DUP3 MSTORE POP POP JUMP JUMPDEST PUSH0 DUP2 ISZERO ISZERO SWAP1 POP SWAP2 SWAP1 POP JUMP JUMPDEST PUSH2 0x990 DUP2 PUSH2 0x97C JUMP JUMPDEST DUP3 MSTORE POP POP JUMP JUMPDEST PUSH0 PUSH1 0xA0 DUP3 ADD SWAP1 POP PUSH2 0x9A9 PUSH0 DUP4 ADD DUP9 PUSH2 0x8D5 JUMP JUMPDEST DUP2 DUP2 SUB PUSH1 0x20 DUP4 ADD MSTORE PUSH2 0x9BB DUP2 DUP8 PUSH2 0x935 JUMP JUMPDEST SWAP1 POP PUSH2 0x9CA PUSH1 0x40 DUP4 ADD DUP7 PUSH2 0x96D JUMP JUMPDEST PUSH2 0x9D7 PUSH1 0x60 DUP4 ADD DUP6 PUSH2 0x96D JUMP JUMPDEST PUSH2 0x9E4 PUSH1 0x80 DUP4 ADD DUP5 PUSH2 0x987 JUMP JUMPDEST SWAP7 SWAP6 POP POP POP POP POP POP JUMP JUMPDEST PUSH0 PUSH0 REVERT JUMPDEST PUSH0 PUSH0 REVERT JUMPDEST PUSH32 0x4E487B7100000000000000000000000000000000000000000000000000000000 PUSH0 MSTORE PUSH1 0x41 PUSH1 0x4 MSTORE PUSH1 0x24 PUSH0 REVERT JUMPDEST PUSH2 0xA2C DUP3 PUSH2 0x925 JUMP JUMPDEST DUP2 ADD DUP2 DUP2 LT PUSH8 0xFFFFFFFFFFFFFFFF DUP3 GT OR ISZERO PUSH2 0xA4B JUMPI PUSH2 0xA4A PUSH2 0x9F6 JUMP JUMPDEST JUMPDEST DUP1 PUSH1 0x40 MSTORE POP POP POP JUMP JUMPDEST PUSH0 PUSH2 0xA5D PUSH2 0x836 JUMP JUMPDEST SWAP1 POP PUSH2 0xA69 DUP3 DUP3 PUSH2 0xA23 JUMP JUMPDEST SWAP2 SWAP1 POP JUMP JUMPDEST PUSH0 PUSH8 0xFFFFFFFFFFFFFFFF DUP3 GT ISZERO PUSH2 0xA88 JUMPI PUSH2 0xA87 PUSH2 0x9F6 JUMP JUMPDEST JUMPDEST PUSH2 0xA91 DUP3 PUSH2 0x925 JUMP JUMPDEST SWAP1 POP PUSH1 0x20 DUP2 ADD SWAP1 POP SWAP2 SWAP1 POP JUMP JUMPDEST DUP3 DUP2 DUP4 CALLDATACOPY PUSH0 DUP4 DUP4 ADD MSTORE POP POP POP JUMP JUMPDEST PUSH0 PUSH2 0xABE PUSH2 0xAB9 DUP5 PUSH2 0xA6E JUMP JUMPDEST PUSH2 0xA54 JUMP JUMPDEST SWAP1 POP DUP3 DUP2 MSTORE PUSH1 0x20 DUP2 ADD DUP5 DUP5 DUP5 ADD GT ISZERO PUSH2 0xADA JUMPI PUSH2 0xAD9 PUSH2 0x9F2 JUMP JUMPDEST JUMPDEST PUSH2 0xAE5 DUP5 DUP3 DUP6 PUSH2 0xA9E JUMP JUMPDEST POP SWAP4 SWAP3 POP POP POP JUMP JUMPDEST PUSH0 DUP3 PUSH1 0x1F DUP4 ADD SLT PUSH2 0xB01 JUMPI PUSH2 0xB00 PUSH2 0x9EE JUMP JUMPDEST JUMPDEST DUP2 CALLDATALOAD PUSH2 0xB11 DUP5 DUP3 PUSH1 0x20 DUP7 ADD PUSH2 0xAAC JUMP JUMPDEST SWAP2 POP POP SWAP3 SWAP2 POP POP JUMP JUMPDEST PUSH0 PUSH8 0xFFFFFFFFFFFFFFFF DUP3 GT ISZERO PUSH2 0xB34 JUMPI PUSH2 0xB33 PUSH2 0x9F6 JUMP JUMPDEST JUMPDEST PUSH1 0x20 DUP3 MUL SWAP1 POP PUSH1 0x20 DUP2 ADD SWAP1 POP SWAP2 SWAP1 POP JUMP JUMPDEST PUSH0 PUSH0 REVERT JUMPDEST PUSH0 PUSH0 REVERT JUMPDEST PUSH0 PUSH1 0x40 DUP3 DUP5 SUB SLT ISZERO PUSH2 0xB62 JUMPI PUSH2 0xB61 PUSH2 0xB49 JUMP JUMPDEST JUMPDEST PUSH2 0xB6C PUSH1 0x40 PUSH2 0xA54 JUMP JUMPDEST SWAP1 POP PUSH0 PUSH2 0xB7B DUP5 DUP3 DUP6 ADD PUSH2 0x866 JUMP JUMPDEST PUSH0 DUP4 ADD MSTORE POP PUSH1 0x20 PUSH2 0xB8E DUP5 DUP3 DUP6 ADD PUSH2 0x866 JUMP JUMPDEST PUSH1 0x20 DUP4 ADD MSTORE POP SWAP3 SWAP2 POP POP JUMP JUMPDEST PUSH0 PUSH2 0xBAC PUSH2 0xBA7 DUP5 PUSH2 0xB1A JUMP JUMPDEST PUSH2 0xA54 JUMP JUMPDEST SWAP1 POP DUP1 DUP4 DUP3 MSTORE PUSH1 0x20 DUP3 ADD SWAP1 POP PUSH1 0x40 DUP5 MUL DUP4 ADD DUP6 DUP2 GT ISZERO PUSH2 0xBCF JUMPI PUSH2 0xBCE PUSH2 0xB45 JUMP JUMPDEST JUMPDEST DUP4 JUMPDEST DUP2 DUP2 LT ISZERO PUSH2 0xBF8 JUMPI DUP1 PUSH2 0xBE4 DUP9 DUP3 PUSH2 0xB4D JUMP JUMPDEST DUP5 MSTORE PUSH1 0x20 DUP5 ADD SWAP4 POP POP PUSH1 0x40 DUP2 ADD SWAP1 POP PUSH2 0xBD1 JUMP JUMPDEST POP POP POP SWAP4 SWAP3 POP POP POP JUMP JUMPDEST PUSH0 DUP3 PUSH1 0x1F DUP4 ADD SLT PUSH2 0xC16 JUMPI PUSH2 0xC15 PUSH2 0x9EE JUMP JUMPDEST JUMPDEST DUP2 CALLDATALOAD PUSH2 0xC26 DUP5 DUP3 PUSH1 0x20 DUP7 ADD PUSH2 0xB9A JUMP JUMPDEST SWAP2 POP POP SWAP3 SWAP2 POP POP JUMP JUMPDEST PUSH0 PUSH0 PUSH1 0x40 DUP4 DUP6 SUB SLT ISZERO PUSH2 0xC45 JUMPI PUSH2 0xC44 PUSH2 0x83F JUMP JUMPDEST JUMPDEST PUSH0 DUP4 ADD CALLDATALOAD PUSH8 0xFFFFFFFFFFFFFFFF DUP2 GT ISZERO PUSH2 0xC62 JUMPI PUSH2 0xC61 PUSH2 0x843 JUMP JUMPDEST JUMPDEST PUSH2 0xC6E DUP6 DUP3 DUP7 ADD PUSH2 0xAED JUMP JUMPDEST SWAP3 POP POP PUSH1 0x20 DUP4 ADD CALLDATALOAD PUSH8 0xFFFFFFFFFFFFFFFF DUP2 GT ISZERO PUSH2 0xC8F JUMPI PUSH2 0xC8E PUSH2 0x843 JUMP JUMPDEST JUMPDEST PUSH2 0xC9B DUP6 DUP3 DUP7 ADD PUSH2 0xC02 JUMP JUMPDEST SWAP2 POP POP SWAP3 POP SWAP3 SWAP1 POP JUMP JUMPDEST PUSH32 0x4E487B7100000000000000000000000000000000000000000000000000000000 PUSH0 MSTORE PUSH1 0x32 PUSH1 0x4 MSTORE PUSH1 0x24 PUSH0 REVERT JUMPDEST PUSH32 0x50726F6A656374206D7573742062652061637469766500000000000000000000 PUSH0 DUP3 ADD MSTORE POP JUMP JUMPDEST PUSH0 PUSH2 0xD06 PUSH1 0x16 DUP4 PUSH2 0x907 JUMP JUMPDEST SWAP2 POP PUSH2 0xD11 DUP3 PUSH2 0xCD2 JUMP JUMPDEST PUSH1 0x20 DUP3 ADD SWAP1 POP SWAP2 SWAP1 POP JUMP JUMPDEST PUSH0 PUSH1 0x20 DUP3 ADD SWAP1 POP DUP2 DUP2 SUB PUSH0 DUP4 ADD MSTORE PUSH2 0xD33 DUP2 PUSH2 0xCFA JUMP JUMPDEST SWAP1 POP SWAP2 SWAP1 POP JUMP JUMPDEST PUSH32 0x4D696C6573746F6E652073686F756C64206265206E6F74207265616368656400 PUSH0 DUP3 ADD MSTORE POP JUMP JUMPDEST PUSH0 PUSH2 0xD6E PUSH1 0x1F DUP4 PUSH2 0x907 JUMP JUMPDEST SWAP2 POP PUSH2 0xD79 DUP3 PUSH2 0xD3A JUMP JUMPDEST PUSH1 0x20 DUP3 ADD SWAP1 POP SWAP2 SWAP1 POP JUMP JUMPDEST PUSH0 PUSH1 0x20 DUP3 ADD SWAP1 POP DUP2 DUP2 SUB PUSH0 DUP4 ADD MSTORE PUSH2 0xD9B DUP2 PUSH2 0xD62 JUMP JUMPDEST SWAP1 POP SWAP2 SWAP1 POP JUMP JUMPDEST PUSH32 0x4D696C6573746F6E652073686F756C646E27742062652066756E64656420746F PUSH0 DUP3 ADD MSTORE PUSH32 0x20726566756E6400000000000000000000000000000000000000000000000000 PUSH1 0x20 DUP3 ADD MSTORE POP JUMP JUMPDEST PUSH0 PUSH2 0xDFC PUSH1 0x27 DUP4 PUSH2 0x907 JUMP JUMPDEST SWAP2 POP PUSH2 0xE07 DUP3 PUSH2 0xDA2 JUMP JUMPDEST PUSH1 0x40 DUP3 ADD SWAP1 POP SWAP2 SWAP1 POP JUMP JUMPDEST PUSH0 PUSH1 0x20 DUP3 ADD SWAP1 POP DUP2 DUP2 SUB PUSH0 DUP4 ADD MSTORE PUSH2 0xE29 DUP2 PUSH2 0xDF0 JUMP JUMPDEST SWAP1 POP SWAP2 SWAP1 POP JUMP JUMPDEST PUSH32 0x4E487B7100000000000000000000000000000000000000000000000000000000 PUSH0 MSTORE PUSH1 0x11 PUSH1 0x4 MSTORE PUSH1 0x24 PUSH0 REVERT JUMPDEST PUSH0 PUSH2 0xE67 DUP3 PUSH2 0x847 JUMP JUMPDEST SWAP2 POP PUSH32 0xFFFFFFFFFFFFFFFFFFFFFFFFFFFFFFFFFFFFFFFFFFFFFFFFFFFFFFFFFFFFFFFF DUP3 SUB PUSH2 0xE99 JUMPI PUSH2 0xE98 PUSH2 0xE30 JUMP JUMPDEST JUMPDEST PUSH1 0x1 DUP3 ADD SWAP1 POP SWAP2 SWAP1 POP JUMP JUMPDEST PUSH32 0x4E487B7100000000000000000000000000000000000000000000000000000000 PUSH0 MSTORE PUSH1 0x22 PUSH1 0x4 MSTORE PUSH1 0x24 PUSH0 REVERT JUMPDEST PUSH0 PUSH1 0x2 DUP3 DIV SWAP1 POP PUSH1 0x1 DUP3 AND DUP1 PUSH2 0xEE8 JUMPI PUSH1 0x7F DUP3 AND SWAP2 POP JUMPDEST PUSH1 0x20 DUP3 LT DUP2 SUB PUSH2 0xEFB JUMPI PUSH2 0xEFA PUSH2 0xEA4 JUMP JUMPDEST JUMPDEST POP SWAP2 SWAP1 POP JUMP JUMPDEST PUSH32 0x53797374656D206F776E65722063616E2774206372656174652070726F6A6563 PUSH0 DUP3 ADD MSTORE PUSH32 0x7473000000000000000000000000000000000000000000000000000000000000 PUSH1 0x20 DUP3 ADD MSTORE POP JUMP JUMPDEST PUSH0 PUSH2 0xF5B PUSH1 0x22 DUP4 PUSH2 0x907 JUMP JUMPDEST SWAP2 POP PUSH2 0xF66 DUP3 PUSH2 0xF01 JUMP JUMPDEST PUSH1 0x40 DUP3 ADD SWAP1 POP SWAP2 SWAP1 POP JUMP JUMPDEST PUSH0 PUSH1 0x20 DUP3 ADD SWAP1 POP DUP2 DUP2 SUB PUSH0 DUP4 ADD MSTORE PUSH2 0xF88 DUP2 PUSH2 0xF4F JUMP JUMPDEST SWAP1 POP SWAP2 SWAP1 POP JUMP JUMPDEST PUSH32 0x4D7573742068617665206174206C65617374206F6E65206D696C6573746F6E65 PUSH0 DUP3 ADD MSTORE POP JUMP JUMPDEST PUSH0 PUSH2 0xFC3 PUSH1 0x20 DUP4 PUSH2 0x907 JUMP JUMPDEST SWAP2 POP PUSH2 0xFCE DUP3 PUSH2 0xF8F JUMP JUMPDEST PUSH1 0x20 DUP3 ADD SWAP1 POP SWAP2 SWAP1 POP JUMP JUMPDEST PUSH0 PUSH1 0x20 DUP3 ADD SWAP1 POP DUP2 DUP2 SUB PUSH0 DUP4 ADD MSTORE PUSH2 0xFF0 DUP2 PUSH2 0xFB7 JUMP JUMPDEST SWAP1 POP SWAP2 SWAP1 POP JUMP JUMPDEST PUSH0 DUP2 SWAP1 POP DUP2 PUSH0 MSTORE PUSH1 0x20 PUSH0 KECCAK256 SWAP1 POP SWAP2 SWAP1 POP JUMP JUMPDEST PUSH0 PUSH1 0x20 PUSH1 0x1F DUP4 ADD DIV SWAP1 POP SWAP2 SWAP1 POP JUMP JUMPDEST PUSH0 DUP3 DUP3 SHL SWAP1 POP SWAP3 SWAP2 POP POP JUMP JUMPDEST PUSH0 PUSH1 0x8 DUP4 MUL PUSH2 0x1053 PUSH32 0xFFFFFFFFFFFFFFFFFFFFFFFFFFFFFFFFFFFFFFFFFFFFFFFFFFFFFFFFFFFFFFFF DUP3 PUSH2 0x1018 JUMP JUMPDEST PUSH2 0x105D DUP7 DUP4 PUSH2 0x1018 JUMP JUMPDEST SWAP6 POP DUP1 NOT DUP5 AND SWAP4 POP DUP1 DUP7 AND DUP5 OR SWAP3 POP POP POP SWAP4 SWAP3 POP POP POP JUMP JUMPDEST PUSH0 DUP2 SWAP1 POP SWAP2 SWAP1 POP JUMP JUMPDEST PUSH0 PUSH2 0x1098 PUSH2 0x1093 PUSH2 0x108E DUP5 PUSH2 0x847 JUMP JUMPDEST PUSH2 0x1075 JUMP JUMPDEST PUSH2 0x847 JUMP JUMPDEST SWAP1 POP SWAP2 SWAP1 POP JUMP JUMPDEST PUSH0 DUP2 SWAP1 POP SWAP2 SWAP1 POP JUMP JUMPDEST PUSH2 0x10B1 DUP4 PUSH2 0x107E JUMP JUMPDEST PUSH2 0x10C5 PUSH2 0x10BD DUP3 PUSH2 0x109F JUMP JUMPDEST DUP5 DUP5 SLOAD PUSH2 0x1024 JUMP JUMPDEST DUP3 SSTORE POP POP POP POP JUMP JUMPDEST PUSH0 PUSH0 SWAP1 POP SWAP1 JUMP JUMPDEST PUSH2 0x10DC PUSH2 0x10CD JUMP JUMPDEST PUSH2 0x10E7 DUP2 DUP5 DUP5 PUSH2 0x10A8 JUMP JUMPDEST POP POP POP JUMP JUMPDEST JUMPDEST DUP2 DUP2 LT ISZERO PUSH2 0x110A JUMPI PUSH2 0x10FF PUSH0 DUP3 PUSH2 0x10D4 JUMP JUMPDEST PUSH1 0x1 DUP2 ADD SWAP1 POP PUSH2 0x10ED JUMP JUMPDEST POP POP JUMP JUMPDEST PUSH1 0x1F DUP3 GT ISZERO PUSH2 0x114F JUMPI PUSH2 0x1120 DUP2 PUSH2 0xFF7 JUMP JUMPDEST PUSH2 0x1129 DUP5 PUSH2 0x1009 JUMP JUMPDEST DUP2 ADD PUSH1 0x20 DUP6 LT ISZERO PUSH2 0x1138 JUMPI DUP2 SWAP1 POP JUMPDEST PUSH2 0x114C PUSH2 0x1144 DUP6 PUSH2 0x1009 JUMP JUMPDEST DUP4 ADD DUP3 PUSH2 0x10EC JUMP JUMPDEST POP POP JUMPDEST POP POP POP JUMP JUMPDEST PUSH0 DUP3 DUP3 SHR SWAP1 POP SWAP3 SWAP2 POP POP JUMP JUMPDEST PUSH0 PUSH2 0x116F PUSH0 NOT DUP5 PUSH1 0x8 MUL PUSH2 0x1154 JUMP JUMPDEST NOT DUP1 DUP4 AND SWAP2 POP POP SWAP3 SWAP2 POP POP JUMP JUMPDEST PUSH0 PUSH2 0x1187 DUP4 DUP4 PUSH2 0x1160 JUMP JUMPDEST SWAP2 POP DUP3 PUSH1 0x2 MUL DUP3 OR SWAP1 POP SWAP3 SWAP2 POP POP JUMP JUMPDEST PUSH2 0x11A0 DUP3 PUSH2 0x8FD JUMP JUMPDEST PUSH8 0xFFFFFFFFFFFFFFFF DUP2 GT ISZERO PUSH2 0x11B9 JUMPI PUSH2 0x11B8 PUSH2 0x9F6 JUMP JUMPDEST JUMPDEST PUSH2 0x11C3 DUP3 SLOAD PUSH2 0xED1 JUMP JUMPDEST PUSH2 0x11CE DUP3 DUP3 DUP6 PUSH2 0x110E JUMP JUMPDEST PUSH0 PUSH1 0x20 SWAP1 POP PUSH1 0x1F DUP4 GT PUSH1 0x1 DUP2 EQ PUSH2 0x11FF JUMPI PUSH0 DUP5 ISZERO PUSH2 0x11ED JUMPI DUP3 DUP8 ADD MLOAD SWAP1 POP JUMPDEST PUSH2 0x11F7 DUP6 DUP3 PUSH2 0x117C JUMP JUMPDEST DUP7 SSTORE POP PUSH2 0x125E JUMP JUMPDEST PUSH1 0x1F NOT DUP5 AND PUSH2 0x120D DUP7 PUSH2 0xFF7 JUMP JUMPDEST PUSH0 JUMPDEST DUP3 DUP2 LT ISZERO PUSH2 0x1234 JUMPI DUP5 DUP10 ADD MLOAD DUP3 SSTORE PUSH1 0x1 DUP3 ADD SWAP2 POP PUSH1 0x20 DUP6 ADD SWAP5 POP PUSH1 0x20 DUP2 ADD SWAP1 POP PUSH2 0x120F JUMP JUMPDEST DUP7 DUP4 LT ISZERO PUSH2 0x1251 JUMPI DUP5 DUP10 ADD MLOAD PUSH2 0x124D PUSH1 0x1F DUP10 AND DUP3 PUSH2 0x1160 JUMP JUMPDEST DUP4 SSTORE POP JUMPDEST PUSH1 0x1 PUSH1 0x2 DUP9 MUL ADD DUP9 SSTORE POP POP POP JUMPDEST POP POP POP POP POP POP JUMP JUMPDEST PUSH32 0x50726F6A65637420646F65736E27742065786973740000000000000000000000 PUSH0 DUP3 ADD MSTORE POP JUMP JUMPDEST PUSH0 PUSH2 0x129A PUSH1 0x15 DUP4 PUSH2 0x907 JUMP JUMPDEST SWAP2 POP PUSH2 0x12A5 DUP3 PUSH2 0x1266 JUMP JUMPDEST PUSH1 0x20 DUP3 ADD SWAP1 POP SWAP2 SWAP1 POP JUMP JUMPDEST PUSH0 PUSH1 0x20 DUP3 ADD SWAP1 POP DUP2 DUP2 SUB PUSH0 DUP4 ADD MSTORE PUSH2 0x12C7 DUP2 PUSH2 0x128E JUMP JUMPDEST SWAP1 POP SWAP2 SWAP1 POP JUMP JUMPDEST PUSH32 0x596F7520646F6E74206861766520656E6F756768206D6F6E657920746F206675 PUSH0 DUP3 ADD MSTORE PUSH32 0x6E64000000000000000000000000000000000000000000000000000000000000 PUSH1 0x20 DUP3 ADD MSTORE POP JUMP JUMPDEST PUSH0 PUSH2 0x1328 PUSH1 0x22 DUP4 PUSH2 0x907 JUMP JUMPDEST SWAP2 POP PUSH2 0x1333 DUP3 PUSH2 0x12CE JUMP JUMPDEST PUSH1 0x40 DUP3 ADD SWAP1 POP SWAP2 SWAP1 POP JUMP JUMPDEST PUSH0 PUSH1 0x20 DUP3 ADD SWAP1 POP DUP2 DUP2 SUB PUSH0 DUP4 ADD MSTORE PUSH2 0x1355 DUP2 PUSH2 0x131C JUMP JUMPDEST SWAP1 POP SWAP2 SWAP1 POP JUMP JUMPDEST PUSH32 0x46756E6420616D6F756E742063616E2774206265203000000000000000000000 PUSH0 DUP3 ADD MSTORE POP JUMP JUMPDEST PUSH0 PUSH2 0x1390 PUSH1 0x16 DUP4 PUSH2 0x907 JUMP JUMPDEST SWAP2 POP PUSH2 0x139B DUP3 PUSH2 0x135C JUMP JUMPDEST PUSH1 0x20 DUP3 ADD SWAP1 POP SWAP2 SWAP1 POP JUMP JUMPDEST PUSH0 PUSH1 0x20 DUP3 ADD SWAP1 POP DUP2 DUP2 SUB PUSH0 DUP4 ADD MSTORE PUSH2 0x13BD DUP2 PUSH2 0x1384 JUMP JUMPDEST SWAP1 POP SWAP2 SWAP1 POP JUMP JUMPDEST PUSH32 0x50726F6A656374206D7573742062652061637469766520746F2066756E640000 PUSH0 DUP3 ADD MSTORE POP JUMP JUMPDEST PUSH0 PUSH2 0x13F8 PUSH1 0x1E DUP4 PUSH2 0x907 JUMP JUMPDEST SWAP2 POP PUSH2 0x1403 DUP3 PUSH2 0x13C4 JUMP JUMPDEST PUSH1 0x20 DUP3 ADD SWAP1 POP SWAP2 SWAP1 POP JUMP JUMPDEST PUSH0 PUSH1 0x20 DUP3 ADD SWAP1 POP DUP2 DUP2 SUB PUSH0 DUP4 ADD MSTORE PUSH2 0x1425 DUP2 PUSH2 0x13EC JUMP JUMPDEST SWAP1 POP SWAP2 SWAP1 POP JUMP JUMPDEST PUSH0 PUSH2 0x1436 DUP3 PUSH2 0x847 JUMP JUMPDEST SWAP2 POP PUSH2 0x1441 DUP4 PUSH2 0x847 JUMP JUMPDEST SWAP3 POP DUP3 DUP3 ADD SWAP1 POP DUP1 DUP3 GT ISZERO PUSH2 0x1459 JUMPI PUSH2 0x1458 PUSH2 0xE30 JUMP JUMPDEST JUMPDEST SWAP3 SWAP2 POP POP JUMP INVALID LOG2 PUSH5 0x6970667358 0x22 SLT KECCAK256 TLOAD PUSH8 0xA4E46CBAA5F5F17F EXTDELEGATECALL ORIGIN JUMPDEST LOG2 0xBB BASEFEE 0x24 0xAE 0xCD SUB SWAP1 LOG4 0xB0 0xC1 TSTORE CALLF 0x727A JUMPF 0xDBF1 0xEB PUSH5 0x736F6C6343 STOP ADDMOD 0x1E STOP CALLER "
				},
				"gasEstimates": {
					"creation": {
						"codeDepositCost": "1053800",
						"executionCost": "25356",
						"totalCost": "1079156"
					},
					"external": {
						"checkMilestone(uint256)": "infinite",
						"createProject(string,(uint256,uint256)[])": "infinite",
						"fundProject(uint256)": "infinite",
						"projects(uint256)": "infinite",
						"sysOwner()": "2507"
					}
				},
				"methodIdentifiers": {
					"checkMilestone(uint256)": "08e38af9",
					"createProject(string,(uint256,uint256)[])": "3e7e12a6",
					"fundProject(uint256)": "6c563abe",
					"projects(uint256)": "107046bd",
					"sysOwner()": "0e4877d6"
				}
			},
			"storageLayout": {
				"storage": [
					{
						"astId": 35,
						"contract": "contracts/CrowdSourcing.sol:CrowdSourcing",
						"label": "sysOwner",
						"offset": 0,
						"slot": "0",
						"type": "t_address"
					},
					{
						"astId": 39,
						"contract": "contracts/CrowdSourcing.sol:CrowdSourcing",
						"label": "projects",
						"offset": 0,
						"slot": "1",
						"type": "t_array(t_struct(Project)16_storage)dyn_storage"
					}
				],
				"types": {
					"t_address": {
						"encoding": "inplace",
						"label": "address",
						"numberOfBytes": "20"
					},
					"t_array(t_struct(Milestone)28_storage)dyn_storage": {
						"base": "t_struct(Milestone)28_storage",
						"encoding": "dynamic_array",
						"label": "struct Milestone[]",
						"numberOfBytes": "32"
					},
					"t_array(t_struct(Project)16_storage)dyn_storage": {
						"base": "t_struct(Project)16_storage",
						"encoding": "dynamic_array",
						"label": "struct Project[]",
						"numberOfBytes": "32"
					},
					"t_bool": {
						"encoding": "inplace",
						"label": "bool",
						"numberOfBytes": "1"
					},
					"t_mapping(t_address,t_uint256)": {
						"encoding": "mapping",
						"key": "t_address",
						"label": "mapping(address => uint256)",
						"numberOfBytes": "32",
						"value": "t_uint256"
					},
					"t_string_storage": {
						"encoding": "bytes",
						"label": "string",
						"numberOfBytes": "32"
					},
					"t_struct(Milestone)28_storage": {
						"encoding": "inplace",
						"label": "struct Milestone",
						"members": [
							{
								"astId": 19,
								"contract": "contracts/CrowdSourcing.sol:CrowdSourcing",
								"label": "info",
								"offset": 0,
								"slot": "0",
								"type": "t_struct(MilestoneInfo)33_storage"
							},
							{
								"astId": 21,
								"contract": "contracts/CrowdSourcing.sol:CrowdSourcing",
								"label": "totalFunded",
								"offset": 0,
								"slot": "2",
								"type": "t_uint256"
							},
							{
								"astId": 25,
								"contract": "contracts/CrowdSourcing.sol:CrowdSourcing",
								"label": "funders",
								"offset": 0,
								"slot": "3",
								"type": "t_mapping(t_address,t_uint256)"
							},
							{
								"astId": 27,
								"contract": "contracts/CrowdSourcing.sol:CrowdSourcing",
								"label": "reached",
								"offset": 0,
								"slot": "4",
								"type": "t_bool"
							}
						],
						"numberOfBytes": "160"
					},
					"t_struct(MilestoneInfo)33_storage": {
						"encoding": "inplace",
						"label": "struct MilestoneInfo",
						"members": [
							{
								"astId": 30,
								"contract": "contracts/CrowdSourcing.sol:CrowdSourcing",
								"label": "goalAmount",
								"offset": 0,
								"slot": "0",
								"type": "t_uint256"
							},
							{
								"astId": 32,
								"contract": "contracts/CrowdSourcing.sol:CrowdSourcing",
								"label": "deadline",
								"offset": 0,
								"slot": "1",
								"type": "t_uint256"
							}
						],
						"numberOfBytes": "64"
					},
					"t_struct(Project)16_storage": {
						"encoding": "inplace",
						"label": "struct Project",
						"members": [
							{
								"astId": 3,
								"contract": "contracts/CrowdSourcing.sol:CrowdSourcing",
								"label": "creator",
								"offset": 0,
								"slot": "0",
								"type": "t_address"
							},
							{
								"astId": 5,
								"contract": "contracts/CrowdSourcing.sol:CrowdSourcing",
								"label": "name",
								"offset": 0,
								"slot": "1",
								"type": "t_string_storage"
							},
							{
								"astId": 7,
								"contract": "contracts/CrowdSourcing.sol:CrowdSourcing",
								"label": "totalFunded",
								"offset": 0,
								"slot": "2",
								"type": "t_uint256"
							},
							{
								"astId": 9,
								"contract": "contracts/CrowdSourcing.sol:CrowdSourcing",
								"label": "currentMilestoneIndex",
								"offset": 0,
								"slot": "3",
								"type": "t_uint256"
							},
							{
								"astId": 13,
								"contract": "contracts/CrowdSourcing.sol:CrowdSourcing",
								"label": "milestones",
								"offset": 0,
								"slot": "4",
								"type": "t_array(t_struct(Milestone)28_storage)dyn_storage"
							},
							{
								"astId": 15,
								"contract": "contracts/CrowdSourcing.sol:CrowdSourcing",
								"label": "isActive",
								"offset": 0,
								"slot": "5",
								"type": "t_bool"
							}
						],
						"numberOfBytes": "192"
					},
					"t_uint256": {
						"encoding": "inplace",
						"label": "uint256",
						"numberOfBytes": "32"
					}
				}
			},
			"userdoc": {
				"kind": "user",
				"methods": {},
				"version": 1
			}
		}
	}
}