{
  "contractName": "CrowdSourcing",
  "abi": [
    {
      "inputs": [],
      "stateMutability": "nonpayable",
      "type": "constructor"
    },
    {
      "anonymous": false,
      "inputs": [
        {
          "indexed": false,
          "internalType": "uint256",
          "name": "deadline",
          "type": "uint256"
        },
        {
          "indexed": false,
          "internalType": "uint256",
          "name": "goalAmount",
          "type": "uint256"
        },
        {
          "indexed": false,
          "internalType": "uint256",
          "name": "totalFunded",
          "type": "uint256"
        },
        {
          "indexed": false,
          "internalType": "uint256",
          "name": "currentMileStoneTotalFunded",
          "type": "uint256"
        }
      ],
      "name": "CurrentMilestoneStatus",
      "type": "event"
    },
    {
      "anonymous": false,
      "inputs": [
        {
          "indexed": false,
          "internalType": "uint256",
          "name": "projectIndex",
          "type": "uint256"
        }
      ],
      "name": "ProjectCreated",
      "type": "event"
    },
    {
      "anonymous": false,
      "inputs": [
        {
          "indexed": false,
          "internalType": "uint256",
          "name": "projectIndex",
          "type": "uint256"
        },
        {
          "indexed": false,
          "internalType": "uint256",
          "name": "amount",
          "type": "uint256"
        },
        {
          "indexed": false,
          "internalType": "uint256",
          "name": "totalFunded",
          "type": "uint256"
        },
        {
          "indexed": false,
          "internalType": "uint256",
          "name": "currentMilestoneTotalFunded",
          "type": "uint256"
        }
      ],
      "name": "ProjectFunded",
      "type": "event"
    },
    {
      "inputs": [
        {
          "internalType": "uint256",
          "name": "",
          "type": "uint256"
        }
      ],
      "name": "projects",
      "outputs": [
        {
          "internalType": "address",
          "name": "creator",
          "type": "address"
        },
        {
          "internalType": "string",
          "name": "name",
          "type": "string"
        },
        {
          "internalType": "string",
          "name": "headerImageUrl",
          "type": "string"
        },
        {
          "internalType": "string",
          "name": "description",
          "type": "string"
        },
        {
          "internalType": "uint256",
          "name": "totalFunded",
          "type": "uint256"
        },
        {
          "internalType": "uint256",
          "name": "currentMilestoneIndex",
          "type": "uint256"
        },
        {
          "internalType": "bool",
          "name": "isActive",
          "type": "bool"
        }
      ],
      "stateMutability": "view",
      "type": "function",
      "constant": true
    },
    {
      "inputs": [],
      "name": "sysOwner",
      "outputs": [
        {
          "internalType": "address",
          "name": "",
          "type": "address"
        }
      ],
      "stateMutability": "view",
      "type": "function",
      "constant": true
    },
    {
      "inputs": [
        {
          "internalType": "string",
          "name": "name",
          "type": "string"
        },
        {
          "internalType": "string",
          "name": "headerImageUrl",
          "type": "string"
        },
        {
          "internalType": "string",
          "name": "description",
          "type": "string"
        },
        {
          "components": [
            {
              "internalType": "uint256",
              "name": "goalAmount",
              "type": "uint256"
            },
            {
              "internalType": "uint256",
              "name": "deadline",
              "type": "uint256"
            }
          ],
          "internalType": "struct MilestoneInfo[]",
          "name": "milestones",
          "type": "tuple[]"
        }
      ],
      "name": "createProject",
      "outputs": [],
      "stateMutability": "nonpayable",
      "type": "function"
    },
    {
      "inputs": [
        {
          "internalType": "uint256",
          "name": "projectIndex",
          "type": "uint256"
        }
      ],
      "name": "fundProject",
      "outputs": [],
      "stateMutability": "payable",
      "type": "function",
      "payable": true
    },
    {
      "inputs": [
        {
          "internalType": "uint256",
          "name": "projectIndex",
          "type": "uint256"
        }
      ],
      "name": "checkCurrentMilestone",
      "outputs": [],
      "stateMutability": "nonpayable",
      "type": "function"
    },
    {
      "inputs": [
        {
          "internalType": "uint256",
          "name": "projectIndex",
          "type": "uint256"
        }
      ],
      "name": "stopProject",
      "outputs": [],
      "stateMutability": "nonpayable",
      "type": "function"
    },
    {
      "inputs": [
        {
          "internalType": "uint256",
          "name": "projectIndex",
          "type": "uint256"
        },
        {
          "components": [
            {
              "internalType": "uint256",
              "name": "goalAmount",
              "type": "uint256"
            },
            {
              "internalType": "uint256",
              "name": "deadline",
              "type": "uint256"
            }
          ],
          "internalType": "struct MilestoneInfo[]",
          "name": "milestones",
          "type": "tuple[]"
        }
      ],
      "name": "addNewMilestones",
      "outputs": [],
      "stateMutability": "nonpayable",
      "type": "function"
    },
    {
      "inputs": [
        {
          "internalType": "uint256",
          "name": "projectIndex",
          "type": "uint256"
        }
      ],
      "name": "getCurrentMilestoneInfo",
      "outputs": [
        {
          "components": [
            {
              "internalType": "uint256",
              "name": "goalAmount",
              "type": "uint256"
            },
            {
              "internalType": "uint256",
              "name": "deadline",
              "type": "uint256"
            }
          ],
          "internalType": "struct MilestoneInfo",
          "name": "",
          "type": "tuple"
        }
      ],
      "stateMutability": "view",
      "type": "function",
      "constant": true
    },
    {
      "inputs": [
        {
          "internalType": "uint256",
          "name": "projectIndex",
          "type": "uint256"
        }
      ],
      "name": "getCurrentMilestoneFunders",
      "outputs": [
        {
          "internalType": "address[]",
          "name": "",
          "type": "address[]"
        }
      ],
      "stateMutability": "view",
      "type": "function",
      "constant": true
    },
    {
      "inputs": [
        {
          "internalType": "uint256",
          "name": "projectIndex",
          "type": "uint256"
        }
      ],
      "name": "getallMilestonesInfo",
      "outputs": [
        {
          "components": [
            {
              "internalType": "uint256",
              "name": "goalAmount",
              "type": "uint256"
            },
            {
              "internalType": "uint256",
              "name": "deadline",
              "type": "uint256"
            }
          ],
          "internalType": "struct MilestoneInfo[]",
          "name": "",
          "type": "tuple[]"
        }
      ],
      "stateMutability": "view",
      "type": "function",
      "constant": true
    },
    {
      "inputs": [],
      "name": "getAllActiveProjects",
      "outputs": [
        {
          "components": [
            {
              "internalType": "address",
              "name": "creator",
              "type": "address"
            },
            {
              "internalType": "string",
              "name": "name",
              "type": "string"
            },
            {
              "internalType": "string",
              "name": "headerImageUrl",
              "type": "string"
            },
            {
              "internalType": "string",
              "name": "description",
              "type": "string"
            },
            {
              "internalType": "uint256",
              "name": "totalFunded",
              "type": "uint256"
            },
            {
              "internalType": "uint256",
              "name": "currentMilestoneIndex",
              "type": "uint256"
            },
            {
              "internalType": "bool",
              "name": "isActive",
              "type": "bool"
            }
          ],
          "internalType": "struct ProjectView[]",
          "name": "",
          "type": "tuple[]"
        }
      ],
      "stateMutability": "view",
      "type": "function",
      "constant": true
    }
  ],
  "bytecode": "0x608060405234801561001057600080fd5b50336000806101000a81548173ffffffffffffffffffffffffffffffffffffffff021916908373ffffffffffffffffffffffffffffffffffffffff1602179055506138ab806100606000396000f3fe60806040526004361061009c5760003560e01c80636c563abe116100645780636c563abe1461019e5780636db7a960146101ba578063ae632181146101e3578063b99122af1461020c578063d8a5b36d14610249578063f2ef441b146102865761009c565b80630e4877d6146100a1578063107046bd146100cc5780631a86e67d1461010f57806333ec0fc5146101385780634e94e82414610175575b600080fd5b3480156100ad57600080fd5b506100b66102b1565b6040516100c391906122db565b60405180910390f35b3480156100d857600080fd5b506100f360048036038101906100ee9190612340565b6102d5565b6040516101069796959493929190612430565b60405180910390f35b34801561011b57600080fd5b5061013660048036038101906101319190612706565b6104ec565b005b34801561014457600080fd5b5061015f600480360381019061015a9190612340565b6106b9565b60405161016c919061289b565b60405180910390f35b34801561018157600080fd5b5061019c60048036038101906101979190612340565b61079f565b005b6101b860048036038101906101b39190612340565b610933565b005b3480156101c657600080fd5b506101e160048036038101906101dc9190612340565b610f4b565b005b3480156101ef57600080fd5b5061020a600480360381019061020591906128bd565b611060565b005b34801561021857600080fd5b50610233600480360381019061022e9190612340565b6115e5565b6040516102409190612957565b60405180910390f35b34801561025557600080fd5b50610270600480360381019061026b9190612340565b6116ac565b60405161027d9190612a50565b60405180910390f35b34801561029257600080fd5b5061029b61180e565b6040516102a89190612c37565b60405180910390f35b60008054906101000a900473ffffffffffffffffffffffffffffffffffffffff1681565b600181815481106102e557600080fd5b90600052602060002090600802016000915090508060000160009054906101000a900473ffffffffffffffffffffffffffffffffffffffff169080600101805461032e90612c88565b80601f016020809104026020016040519081016040528092919081815260200182805461035a90612c88565b80156103a75780601f1061037c576101008083540402835291602001916103a7565b820191906000526020600020905b81548152906001019060200180831161038a57829003601f168201915b5050505050908060020180546103bc90612c88565b80601f01602080910402602001604051908101604052809291908181526020018280546103e890612c88565b80156104355780601f1061040a57610100808354040283529160200191610435565b820191906000526020600020905b81548152906001019060200180831161041857829003601f168201915b50505050509080600301805461044a90612c88565b80601f016020809104026020016040519081016040528092919081815260200182805461047690612c88565b80156104c35780601f10610498576101008083540402835291602001916104c3565b820191906000526020600020905b8154815290600101906020018083116104a657829003601f168201915b5050505050908060040154908060050154908060070160009054906101000a900460ff16905087565b60008054906101000a900473ffffffffffffffffffffffffffffffffffffffff1673ffffffffffffffffffffffffffffffffffffffff163373ffffffffffffffffffffffffffffffffffffffff160361057a576040517f08c379a000000000000000000000000000000000000000000000000000000000815260040161057190612d2b565b60405180910390fd5b6000600180816001815401808255809150500390600052602060002090600802019050338160000160006101000a81548173ffffffffffffffffffffffffffffffffffffffff021916908373ffffffffffffffffffffffffffffffffffffffff160217905550848160010190805190602001906105f8929190612188565b5083816002019080519060200190610611929190612188565b508281600301908051906020019061062a929190612188565b50600081600401819055506000816005018190555060018160070160006101000a81548160ff021916908315150217905550610676600180805490506106709190612d7a565b83611060565b7f1ac2092e16e28eef29d1832f3dc69da1b21284a1f3159d3b26cb238b22fe4f8a6001805490506040516106aa9190612dae565b60405180910390a15050505050565b60606000600183815481106106d1576106d0612dc9565b5b906000526020600020906008020190506000816006018260050154815481106106fd576106fc612dc9565b5b906000526020600020906006020190508060030180548060200260200160405190810160405280929190818152602001828054801561079157602002820191906000526020600020905b8160009054906101000a900473ffffffffffffffffffffffffffffffffffffffff1673ffffffffffffffffffffffffffffffffffffffff1681526020019060010190808311610747575b505050505092505050919050565b60018054905081106107e6576040517f08c379a00000000000000000000000000000000000000000000000000000000081526004016107dd90612e44565b60405180910390fd5b6000600182815481106107fc576107fb612dc9565b5b906000526020600020906008020190508060070160009054906101000a900460ff1661085d576040517f08c379a000000000000000000000000000000000000000000000000000000000815260040161085490612eb0565b60405180910390fd5b60008160060182600501548154811061087957610878612dc9565b5b906000526020600020906006020190508060050160009054906101000a900460ff16156108db576040517f08c379a00000000000000000000000000000000000000000000000000000000081526004016108d290612f1c565b60405180910390fd5b7f3f9ee693372748925082c0c5ba09ecffc5fddfeecf993becff877eac8a1e08bc81600001600101548260000160000154846004015484600201546040516109269493929190612f3c565b60405180910390a1505050565b600180549050811061097a576040517f08c379a000000000000000000000000000000000000000000000000000000000815260040161097190612fcd565b60405180910390fd5b3373ffffffffffffffffffffffffffffffffffffffff16313411156109d4576040517f08c379a00000000000000000000000000000000000000000000000000000000081526004016109cb9061305f565b60405180910390fd5b60003411610a17576040517f08c379a0000000000000000000000000000000000000000000000000000000008152600401610a0e906130cb565b60405180910390fd5b600060018281548110610a2d57610a2c612dc9565b5b906000526020600020906008020190508060070160009054906101000a900460ff16610a8e576040517f08c379a0000000000000000000000000000000000000000000000000000000008152600401610a8590613137565b60405180910390fd5b600081600601826005015481548110610aaa57610aa9612dc9565b5b9060005260206000209060060201905042816000016001015411610b03576040517f08c379a0000000000000000000000000000000000000000000000000000000008152600401610afa906131a3565b60405180910390fd5b60008160040160003373ffffffffffffffffffffffffffffffffffffffff1673ffffffffffffffffffffffffffffffffffffffff1681526020019081526020016000205403610bb25780600301339080600181540180825580915050600190039060005260206000200160009091909190916101000a81548173ffffffffffffffffffffffffffffffffffffffff021916908373ffffffffffffffffffffffffffffffffffffffff1602179055505b348160040160003373ffffffffffffffffffffffffffffffffffffffff1673ffffffffffffffffffffffffffffffffffffffff1681526020019081526020016000206000828254610c0391906131c3565b9250508190555034816002016000828254610c1e91906131c3565b9250508190555034826004016000828254610c3991906131c3565b925050819055505b806000016000015482600401541115610f0157600081600001600001548360040154610c6d9190612d7a565b90508160000160000154826002018190555081600001600001548360040181905550808260040160003373ffffffffffffffffffffffffffffffffffffffff1673ffffffffffffffffffffffffffffffffffffffff1681526020019081526020016000206000828254610ce09190612d7a565b9250508190555060018360060180549050610cfb9190612d7a565b836005015403610dd45760008360070160006101000a81548160ff02191690831515021790555060003373ffffffffffffffffffffffffffffffffffffffff1682604051610d489061324a565b60006040518083038185875af1925050503d8060008114610d85576040519150601f19603f3d011682016040523d82523d6000602084013e610d8a565b606091505b5050905080610dce576040517f08c379a0000000000000000000000000000000000000000000000000000000008152600401610dc5906132ab565b60405180910390fd5b50610efb565b610ddd84611cb0565b82600601836005015481548110610df757610df6612dc9565b5b9060005260206000209060060201915081600301339080600181540180825580915050600190039060005260206000200160009091909190916101000a81548173ffffffffffffffffffffffffffffffffffffffff021916908373ffffffffffffffffffffffffffffffffffffffff160217905550808260040160003373ffffffffffffffffffffffffffffffffffffffff1673ffffffffffffffffffffffffffffffffffffffff1681526020019081526020016000206000828254610ebd91906131c3565b9250508190555080826002016000828254610ed891906131c3565b9250508190555080836004016000828254610ef391906131c3565b925050819055505b50610c41565b7f17e2effa169c5dde193942abd21f6d49e7d32c15ab843da440cb2abdd10f1911833484600401548460020154604051610f3e9493929190612f3c565b60405180910390a1505050565b60008054906101000a900473ffffffffffffffffffffffffffffffffffffffff1673ffffffffffffffffffffffffffffffffffffffff163373ffffffffffffffffffffffffffffffffffffffff161480611015575060018181548110610fb457610fb3612dc9565b5b906000526020600020906008020160000160009054906101000a900473ffffffffffffffffffffffffffffffffffffffff1673ffffffffffffffffffffffffffffffffffffffff163373ffffffffffffffffffffffffffffffffffffffff16145b611054576040517f08c379a000000000000000000000000000000000000000000000000000000000815260040161104b9061333d565b60405180910390fd5b61105d81611e2c565b50565b60018054905082106110a7576040517f08c379a000000000000000000000000000000000000000000000000000000000815260040161109e90612e44565b60405180910390fd5b6000600183815481106110bd576110bc612dc9565b5b906000526020600020906008020190508060070160009054906101000a900460ff1661111e576040517f08c379a0000000000000000000000000000000000000000000000000000000008152600401611115906133cf565b60405180910390fd5b3373ffffffffffffffffffffffffffffffffffffffff168160000160009054906101000a900473ffffffffffffffffffffffffffffffffffffffff1673ffffffffffffffffffffffffffffffffffffffff16146111b0576040517f08c379a00000000000000000000000000000000000000000000000000000000081526004016111a790613461565b60405180910390fd5b60008251116111f4576040517f08c379a00000000000000000000000000000000000000000000000000000000081526004016111eb906134cd565b60405180910390fd5b60005b82518110156115df57600083828151811061121557611214612dc9565b5b60200260200101516000015111611261576040517f08c379a000000000000000000000000000000000000000000000000000000000815260040161125890613539565b60405180910390fd5b4283828151811061127557611274612dc9565b5b602002602001015160200151116112c1576040517f08c379a00000000000000000000000000000000000000000000000000000000081526004016112b8906135a5565b60405180910390fd5b60008111156113df57826001826112d89190612d7a565b815181106112e9576112e8612dc9565b5b60200260200101516000015183828151811061130857611307612dc9565b5b60200260200101516000015111611354576040517f08c379a000000000000000000000000000000000000000000000000000000000815260040161134b90613637565b60405180910390fd5b826001826113629190612d7a565b8151811061137357611372612dc9565b5b60200260200101516020015183828151811061139257611391612dc9565b5b602002602001015160200151116113de576040517f08c379a00000000000000000000000000000000000000000000000000000000081526004016113d5906136c9565b60405180910390fd5b5b60008260060180549050111561152a5781600601600183600601805490506114079190612d7a565b8154811061141857611417612dc9565b5b9060005260206000209060060201600001600001548382815181106114405761143f612dc9565b5b6020026020010151600001511161148c576040517f08c379a000000000000000000000000000000000000000000000000000000000815260040161148390613637565b60405180910390fd5b81600601600183600601805490506114a49190612d7a565b815481106114b5576114b4612dc9565b5b9060005260206000209060060201600001600101548382815181106114dd576114dc612dc9565b5b60200260200101516020015111611529576040517f08c379a0000000000000000000000000000000000000000000000000000000008152600401611520906136c9565b60405180910390fd5b5b600082600601600181600181540180825580915050039060005260206000209060060201905083828151811061156357611562612dc9565b5b602002602001015160000151816000016000018190555083828151811061158d5761158c612dc9565b5b60200260200101516020015181600001600101819055506000816002018190555060008160050160006101000a81548160ff0219169083151502179055505080806115d7906136e9565b9150506111f7565b50505050565b6115ed61220e565b6001805490508210611634576040517f08c379a000000000000000000000000000000000000000000000000000000000815260040161162b90612e44565b60405180910390fd5b60006001838154811061164a57611649612dc9565b5b906000526020600020906008020190508060060181600501548154811061167457611673612dc9565b5b906000526020600020906006020160000160405180604001604052908160008201548152602001600182015481525050915050919050565b606060018054905082106116f5576040517f08c379a00000000000000000000000000000000000000000000000000000000081526004016116ec90612e44565b60405180910390fd5b60006001838154811061170b5761170a612dc9565b5b906000526020600020906008020190506000816006018054905067ffffffffffffffff81111561173e5761173d6124be565b5b60405190808252806020026020018201604052801561177757816020015b61176461220e565b81526020019060019003908161175c5790505b50905060005b8260060180549050811015611803578260060181815481106117a2576117a1612dc9565b5b9060005260206000209060060201600001604051806040016040529081600082015481526020016001820154815250508282815181106117e5576117e4612dc9565b5b602002602001018190525080806117fb906136e9565b91505061177d565b508092505050919050565b60606000805b60018054905081101561187b576001818154811061183557611834612dc9565b5b906000526020600020906008020160070160009054906101000a900460ff1615611868578180611864906136e9565b9250505b8080611873906136e9565b915050611814565b5060008167ffffffffffffffff811115611898576118976124be565b5b6040519080825280602002602001820160405280156118d157816020015b6118be612228565b8152602001906001900390816118b65790505b5090506000805b600180549050811015611ca657600181815481106118f9576118f8612dc9565b5b906000526020600020906008020160070160009054906101000a900460ff1615611c9357611925612228565b6001828154811061193957611938612dc9565b5b906000526020600020906008020160000160009054906101000a900473ffffffffffffffffffffffffffffffffffffffff16816000019073ffffffffffffffffffffffffffffffffffffffff16908173ffffffffffffffffffffffffffffffffffffffff1681525050600182815481106119b6576119b5612dc9565b5b906000526020600020906008020160010180546119d290612c88565b80601f01602080910402602001604051908101604052809291908181526020018280546119fe90612c88565b8015611a4b5780601f10611a2057610100808354040283529160200191611a4b565b820191906000526020600020905b815481529060010190602001808311611a2e57829003601f168201915b5050505050816020018190525060018281548110611a6c57611a6b612dc9565b5b90600052602060002090600802016002018054611a8890612c88565b80601f0160208091040260200160405190810160405280929190818152602001828054611ab490612c88565b8015611b015780601f10611ad657610100808354040283529160200191611b01565b820191906000526020600020905b815481529060010190602001808311611ae457829003601f168201915b5050505050816040018190525060018281548110611b2257611b21612dc9565b5b90600052602060002090600802016003018054611b3e90612c88565b80601f0160208091040260200160405190810160405280929190818152602001828054611b6a90612c88565b8015611bb75780601f10611b8c57610100808354040283529160200191611bb7565b820191906000526020600020905b815481529060010190602001808311611b9a57829003601f168201915b5050505050816060018190525060018281548110611bd857611bd7612dc9565b5b90600052602060002090600802016004015481608001818152505060018281548110611c0757611c06612dc9565b5b9060005260206000209060080201600501548160a001818152505060018281548110611c3657611c35612dc9565b5b906000526020600020906008020160070160009054906101000a900460ff168160c001901515908115158152505080848481518110611c7857611c77612dc9565b5b60200260200101819052508280611c8e906136e9565b935050505b8080611c9e906136e9565b9150506118d8565b5081935050505090565b600060018281548110611cc657611cc5612dc9565b5b90600052602060002090600802019050600081600601826005015481548110611cf257611cf1612dc9565b5b90600052602060002090600602019050600081600201549050600083600501541115611d5e578260060160018460050154611d2d9190612d7a565b81548110611d3e57611d3d612dc9565b5b90600052602060002090600602016002015481611d5b9190612d7a565b90505b8160000160000154836004015410611e1c5760018260050160006101000a81548160ff021916908315150217905550611dbb8360000160009054906101000a900473ffffffffffffffffffffffffffffffffffffffff1682611ed2565b60018360060180549050611dcf9190612d7a565b83600501541015611df957826005016000815480929190611def906136e9565b9190505550611e17565b60008360070160006101000a81548160ff0219169083151502179055505b611e26565b611e2584611e2c565b5b50505050565b600060018281548110611e4257611e41612dc9565b5b906000526020600020906008020190508060070160009054906101000a900460ff16611ea3576040517f08c379a0000000000000000000000000000000000000000000000000000000008152600401611e9a9061377d565b60405180910390fd5b60008160070160006101000a81548160ff021916908315150217905550611ece828260050154611f83565b5050565b60008273ffffffffffffffffffffffffffffffffffffffff1682604051611ef89061324a565b60006040518083038185875af1925050503d8060008114611f35576040519150601f19603f3d011682016040523d82523d6000602084013e611f3a565b606091505b5050905080611f7e576040517f08c379a0000000000000000000000000000000000000000000000000000000008152600401611f75906137e9565b60405180910390fd5b505050565b600060018381548110611f9957611f98612dc9565b5b906000526020600020906008020190506000816006018381548110611fc157611fc0612dc9565b5b9060005260206000209060060201905060005b8160030180549050811015612181576000826003018281548110611ffb57611ffa612dc9565b5b9060005260206000200160009054906101000a900473ffffffffffffffffffffffffffffffffffffffff16905060008360040160008373ffffffffffffffffffffffffffffffffffffffff1673ffffffffffffffffffffffffffffffffffffffff168152602001908152602001600020549050600081111561216c5760008460040160008473ffffffffffffffffffffffffffffffffffffffff1673ffffffffffffffffffffffffffffffffffffffff1681526020019081526020016000208190555060008273ffffffffffffffffffffffffffffffffffffffff16826040516120e49061324a565b60006040518083038185875af1925050503d8060008114612121576040519150601f19603f3d011682016040523d82523d6000602084013e612126565b606091505b505090508061216a576040517f08c379a000000000000000000000000000000000000000000000000000000000815260040161216190613855565b60405180910390fd5b505b50508080612179906136e9565b915050611fd4565b5050505050565b82805461219490612c88565b90600052602060002090601f0160209004810192826121b657600085556121fd565b82601f106121cf57805160ff19168380011785556121fd565b828001600101855582156121fd579182015b828111156121fc5782518255916020019190600101906121e1565b5b50905061220a919061227d565b5090565b604051806040016040528060008152602001600081525090565b6040518060e00160405280600073ffffffffffffffffffffffffffffffffffffffff16815260200160608152602001606081526020016060815260200160008152602001600081526020016000151581525090565b5b8082111561229657600081600090555060010161227e565b5090565b600073ffffffffffffffffffffffffffffffffffffffff82169050919050565b60006122c58261229a565b9050919050565b6122d5816122ba565b82525050565b60006020820190506122f060008301846122cc565b92915050565b6000604051905090565b600080fd5b600080fd5b6000819050919050565b61231d8161230a565b811461232857600080fd5b50565b60008135905061233a81612314565b92915050565b60006020828403121561235657612355612300565b5b60006123648482850161232b565b91505092915050565b600081519050919050565b600082825260208201905092915050565b60005b838110156123a757808201518184015260208101905061238c565b838111156123b6576000848401525b50505050565b6000601f19601f8301169050919050565b60006123d88261236d565b6123e28185612378565b93506123f2818560208601612389565b6123fb816123bc565b840191505092915050565b61240f8161230a565b82525050565b60008115159050919050565b61242a81612415565b82525050565b600060e082019050612445600083018a6122cc565b818103602083015261245781896123cd565b9050818103604083015261246b81886123cd565b9050818103606083015261247f81876123cd565b905061248e6080830186612406565b61249b60a0830185612406565b6124a860c0830184612421565b98975050505050505050565b600080fd5b600080fd5b7f4e487b7100000000000000000000000000000000000000000000000000000000600052604160045260246000fd5b6124f6826123bc565b810181811067ffffffffffffffff82111715612515576125146124be565b5b80604052505050565b60006125286122f6565b905061253482826124ed565b919050565b600067ffffffffffffffff821115612554576125536124be565b5b61255d826123bc565b9050602081019050919050565b82818337600083830152505050565b600061258c61258784612539565b61251e565b9050828152602081018484840111156125a8576125a76124b9565b5b6125b384828561256a565b509392505050565b600082601f8301126125d0576125cf6124b4565b5b81356125e0848260208601612579565b91505092915050565b600067ffffffffffffffff821115612604576126036124be565b5b602082029050602081019050919050565b600080fd5b600080fd5b6000604082840312156126355761263461261a565b5b61263f604061251e565b9050600061264f8482850161232b565b60008301525060206126638482850161232b565b60208301525092915050565b600061268261267d846125e9565b61251e565b905080838252602082019050604084028301858111156126a5576126a4612615565b5b835b818110156126ce57806126ba888261261f565b8452602084019350506040810190506126a7565b5050509392505050565b600082601f8301126126ed576126ec6124b4565b5b81356126fd84826020860161266f565b91505092915050565b600080600080608085870312156127205761271f612300565b5b600085013567ffffffffffffffff81111561273e5761273d612305565b5b61274a878288016125bb565b945050602085013567ffffffffffffffff81111561276b5761276a612305565b5b612777878288016125bb565b935050604085013567ffffffffffffffff81111561279857612797612305565b5b6127a4878288016125bb565b925050606085013567ffffffffffffffff8111156127c5576127c4612305565b5b6127d1878288016126d8565b91505092959194509250565b600081519050919050565b600082825260208201905092915050565b6000819050602082019050919050565b612812816122ba565b82525050565b60006128248383612809565b60208301905092915050565b6000602082019050919050565b6000612848826127dd565b61285281856127e8565b935061285d836127f9565b8060005b8381101561288e5781516128758882612818565b975061288083612830565b925050600181019050612861565b5085935050505092915050565b600060208201905081810360008301526128b5818461283d565b905092915050565b600080604083850312156128d4576128d3612300565b5b60006128e28582860161232b565b925050602083013567ffffffffffffffff81111561290357612902612305565b5b61290f858286016126d8565b9150509250929050565b6129228161230a565b82525050565b60408201600082015161293e6000850182612919565b5060208201516129516020850182612919565b50505050565b600060408201905061296c6000830184612928565b92915050565b600081519050919050565b600082825260208201905092915050565b6000819050602082019050919050565b6040820160008201516129b46000850182612919565b5060208201516129c76020850182612919565b50505050565b60006129d9838361299e565b60408301905092915050565b6000602082019050919050565b60006129fd82612972565b612a07818561297d565b9350612a128361298e565b8060005b83811015612a43578151612a2a88826129cd565b9750612a35836129e5565b925050600181019050612a16565b5085935050505092915050565b60006020820190508181036000830152612a6a81846129f2565b905092915050565b600081519050919050565b600082825260208201905092915050565b6000819050602082019050919050565b600082825260208201905092915050565b6000612aba8261236d565b612ac48185612a9e565b9350612ad4818560208601612389565b612add816123bc565b840191505092915050565b612af181612415565b82525050565b600060e083016000830151612b0f6000860182612809565b5060208301518482036020860152612b278282612aaf565b91505060408301518482036040860152612b418282612aaf565b91505060608301518482036060860152612b5b8282612aaf565b9150506080830151612b706080860182612919565b5060a0830151612b8360a0860182612919565b5060c0830151612b9660c0860182612ae8565b508091505092915050565b6000612bad8383612af7565b905092915050565b6000602082019050919050565b6000612bcd82612a72565b612bd78185612a7d565b935083602082028501612be985612a8e565b8060005b85811015612c255784840389528151612c068582612ba1565b9450612c1183612bb5565b925060208a01995050600181019050612bed565b50829750879550505050505092915050565b60006020820190508181036000830152612c518184612bc2565b905092915050565b7f4e487b7100000000000000000000000000000000000000000000000000000000600052602260045260246000fd5b60006002820490506001821680612ca057607f821691505b602082108103612cb357612cb2612c59565b5b50919050565b7f53797374656d206f776e65722063616e2774206372656174652070726f6a656360008201527f7473000000000000000000000000000000000000000000000000000000000000602082015250565b6000612d15602283612378565b9150612d2082612cb9565b604082019050919050565b60006020820190508181036000830152612d4481612d08565b9050919050565b7f4e487b7100000000000000000000000000000000000000000000000000000000600052601160045260246000fd5b6000612d858261230a565b9150612d908361230a565b925082821015612da357612da2612d4b565b5b828203905092915050565b6000602082019050612dc36000830184612406565b92915050565b7f4e487b7100000000000000000000000000000000000000000000000000000000600052603260045260246000fd5b7f496e76616c69642070726f6a6563747320696e64657800000000000000000000600082015250565b6000612e2e601683612378565b9150612e3982612df8565b602082019050919050565b60006020820190508181036000830152612e5d81612e21565b9050919050565b7f50726f6a656374206d7573742062652061637469766500000000000000000000600082015250565b6000612e9a601683612378565b9150612ea582612e64565b602082019050919050565b60006020820190508181036000830152612ec981612e8d565b9050919050565b7f4d696c6573746f6e652073686f756c64206265206e6f74207265616368656400600082015250565b6000612f06601f83612378565b9150612f1182612ed0565b602082019050919050565b60006020820190508181036000830152612f3581612ef9565b9050919050565b6000608082019050612f516000830187612406565b612f5e6020830186612406565b612f6b6040830185612406565b612f786060830184612406565b95945050505050565b7f50726f6a65637420646f65736e27742065786973740000000000000000000000600082015250565b6000612fb7601583612378565b9150612fc282612f81565b602082019050919050565b60006020820190508181036000830152612fe681612faa565b9050919050565b7f596f7520646f6e74206861766520656e6f756768206d6f6e657920746f20667560008201527f6e64000000000000000000000000000000000000000000000000000000000000602082015250565b6000613049602283612378565b915061305482612fed565b604082019050919050565b600060208201905081810360008301526130788161303c565b9050919050565b7f46756e6420616d6f756e742063616e2774206265203000000000000000000000600082015250565b60006130b5601683612378565b91506130c08261307f565b602082019050919050565b600060208201905081810360008301526130e4816130a8565b9050919050565b7f50726f6a656374206d7573742062652061637469766520746f2066756e640000600082015250565b6000613121601e83612378565b915061312c826130eb565b602082019050919050565b6000602082019050818103600083015261315081613114565b9050919050565b7f596f752063616e27742066756e6420616674657220646561646c696e65000000600082015250565b600061318d601d83612378565b915061319882613157565b602082019050919050565b600060208201905081810360008301526131bc81613180565b9050919050565b60006131ce8261230a565b91506131d98361230a565b9250827fffffffffffffffffffffffffffffffffffffffffffffffffffffffffffffffff0382111561320e5761320d612d4b565b5b828201905092915050565b600081905092915050565b50565b6000613234600083613219565b915061323f82613224565b600082019050919050565b600061325582613227565b9150819050919050565b7f4661696c656420746f2072657475726e20737572706c75730000000000000000600082015250565b6000613295601883612378565b91506132a08261325f565b602082019050919050565b600060208201905081810360008301526132c481613288565b9050919050565b7f4f6e6c792073797374656d206f776e6572206f722070726f6a656374206f776e60008201527f65722063616e2073746f702070726f6a65637473000000000000000000000000602082015250565b6000613327603483612378565b9150613332826132cb565b604082019050919050565b600060208201905081810360008301526133568161331a565b9050919050565b7f43616e6e6f7420616464206e6577206d696c6573746f6e657320746f20696e6160008201527f63746976652070726f6a65637400000000000000000000000000000000000000602082015250565b60006133b9602d83612378565b91506133c48261335d565b604082019050919050565b600060208201905081810360008301526133e8816133ac565b9050919050565b7f4f6e6c792070726f6a6563742063726561746f722063616e20616464206e657760008201527f206d696c6573746f6e6573000000000000000000000000000000000000000000602082015250565b600061344b602b83612378565b9150613456826133ef565b604082019050919050565b6000602082019050818103600083015261347a8161343e565b9050919050565b7f4d7573742068617665206174206c65617374206f6e65206d696c6573746f6e65600082015250565b60006134b7602083612378565b91506134c282613481565b602082019050919050565b600060208201905081810360008301526134e6816134aa565b9050919050565b7f476f616c20616d6f756e742063616e2774206265203000000000000000000000600082015250565b6000613523601683612378565b915061352e826134ed565b602082019050919050565b6000602082019050818103600083015261355281613516565b9050919050565b7f446561646c696e652063616e277420626520696e207468652070617374000000600082015250565b600061358f601d83612378565b915061359a82613559565b602082019050919050565b600060208201905081810360008301526135be81613582565b9050919050565b7f4d696c6573746f6e6520676f616c732073686f756c6420626520696e6372656160008201527f73696e6700000000000000000000000000000000000000000000000000000000602082015250565b6000613621602483612378565b915061362c826135c5565b604082019050919050565b6000602082019050818103600083015261365081613614565b9050919050565b7f4d696c6573746f6e6520646561646c696e65732073686f756c6420626520696e60008201527f6372656173696e67000000000000000000000000000000000000000000000000602082015250565b60006136b3602883612378565b91506136be82613657565b604082019050919050565b600060208201905081810360008301526136e2816136a6565b9050919050565b60006136f48261230a565b91507fffffffffffffffffffffffffffffffffffffffffffffffffffffffffffffffff820361372657613725612d4b565b5b600182019050919050565b7f43616e6e6f742073746f7020696e6163746976652070726f6a65637400000000600082015250565b6000613767601c83612378565b915061377282613731565b602082019050919050565b600060208201905081810360008301526137968161375a565b9050919050565b7f5472616e7366657220746f2063726561746f72206661696c6564000000000000600082015250565b60006137d3601a83612378565b91506137de8261379d565b602082019050919050565b60006020820190508181036000830152613802816137c6565b9050919050565b7f526566756e64206661696c656400000000000000000000000000000000000000600082015250565b600061383f600d83612378565b915061384a82613809565b602082019050919050565b6000602082019050818103600083015261386e81613832565b905091905056fea26469706673582212207b39dbc09d6a7f9baa77107a35d28732bbda6f3ac0a0ac673384f48cfa4aab2264736f6c634300080d0033",
  "immutableReferences": {},
  "source": "// SPDX-License-Identifier: MIT\r\npragma solidity ^0.8.13;\r\n/*\r\n    Crowdsourcing with milestones, expected logic:\r\n    - There is a general system owner, who owns the crowdsourcing \"page\"\r\n    - Users can create projects, which other users can fund:\r\n    - Those projects have milestones, upon reaching a certain milestone by a certain date,\r\n    the project creator receives the money. Else (if it's not reached by a certain date),\r\n    all investors are refunded.\r\n\r\n    E.g. PC1 creates a project \"Cool project\" with 3 milestones:\r\n    100 euros by Nov 20\r\n    1000 eur by Nov 30\r\n    10000 eur by Dec 30\r\n\r\n    Nov 18\r\n    F1 funds 50 eur, F2 funds 25 eur, F3 Funds 26 Eur\r\n    Nov 19\r\n    F4 funds 50 eur\r\n    Nov 20\r\n    Check for milestone 1 deadline, reached. PC1 gets 151 eur. project not cancelled\r\n    Nov 29\r\n    F1 funds 500 eur, F2 funds 9 eur\r\n    Nov 30\r\n    Check for milestone 2 deadline - not reached. Project cancelled.\r\n    F1 gets 500 eur back, F2 gets 9 eur back, F3, F4 get nothing back.\r\n    PC1 keeps 101 eur from before.\r\n*/\r\n\r\n\r\nstruct Project {\r\n    address creator;\r\n    string name;\r\n    string headerImageUrl;\r\n    string description;\r\n    uint totalFunded;\r\n    uint currentMilestoneIndex;\r\n    Milestone[] milestones;\r\n    bool isActive; // i.e. not cancelled\r\n}\r\n\r\nstruct ProjectView {\r\n    address creator;\r\n    string name;\r\n    string headerImageUrl;\r\n    string description;\r\n    uint totalFunded;\r\n    uint currentMilestoneIndex;\r\n    bool isActive;\r\n}\r\n\r\nstruct Milestone {\r\n    MilestoneInfo info;\r\n    uint totalFunded; // only current milestone total funded, used to transfer money to owner only lol\r\n    address[] funderAddresses;\r\n    mapping(address => uint) funders; // adress amount funded\r\n    bool reached;\r\n}\r\n\r\nstruct MilestoneInfo {\r\n    uint goalAmount;\r\n    uint deadline;\r\n}\r\n\r\ncontract CrowdSourcing {\r\n    event ProjectCreated(uint projectIndex);\r\n\r\n    event ProjectFunded(\r\n        uint projectIndex,\r\n        uint amount,\r\n        uint totalFunded,\r\n        uint currentMilestoneTotalFunded\r\n    );\r\n\r\n    event CurrentMilestoneStatus(\r\n        uint deadline,\r\n        uint goalAmount,\r\n        uint totalFunded,\r\n        uint currentMileStoneTotalFunded\r\n    );\r\n\r\n    address public sysOwner;\r\n\r\n    Project[] public projects;\r\n\r\n    constructor() {\r\n        sysOwner = msg.sender;\r\n    }\r\n\r\n    function createProject(\r\n        string memory name,\r\n        string memory headerImageUrl,\r\n        string memory description,\r\n        MilestoneInfo[] memory milestones\r\n    ) external {\r\n        require(msg.sender != sysOwner, \"System owner can't create projects\");\r\n\r\n        Project storage project = projects.push();\r\n        project.creator = msg.sender;\r\n        project.name = name;\r\n        project.headerImageUrl = headerImageUrl;\r\n        project.description = description;\r\n        project.totalFunded = 0;\r\n        project.currentMilestoneIndex = 0;\r\n        project.isActive = true;\r\n\r\n        addNewMilestones(projects.length-1 , milestones);\r\n\r\n        emit ProjectCreated(projects.length);\r\n    }\r\n\r\n    function fundProject(uint projectIndex) external payable {\r\n        require(projectIndex < projects.length, \"Project doesn't exist\");\r\n        require(\r\n            msg.value <= msg.sender.balance,\r\n            \"You dont have enough money to fund\"\r\n        );\r\n        require(msg.value > 0, \"Fund amount can't be 0\");\r\n\r\n        Project storage project = projects[projectIndex];\r\n        require(project.isActive, \"Project must be active to fund\");\r\n\r\n        Milestone storage currentMilestone = project.milestones[\r\n            project.currentMilestoneIndex\r\n        ];\r\n        require(\r\n            currentMilestone.info.deadline > block.timestamp,\r\n            \"You can't fund after deadline\"\r\n        );\r\n     \r\n        if (currentMilestone.funders[msg.sender] == 0) {\r\n            currentMilestone.funderAddresses.push(msg.sender);\r\n        }\r\n\r\n        currentMilestone.funders[msg.sender] += msg.value;\r\n        currentMilestone.totalFunded += msg.value;\r\n        project.totalFunded += msg.value;\r\n\r\n        while(project.totalFunded > currentMilestone.info.goalAmount) {\r\n\r\n            uint surplus = project.totalFunded - currentMilestone.info.goalAmount;\r\n            currentMilestone.totalFunded = currentMilestone.info.goalAmount;\r\n            project.totalFunded = currentMilestone.info.goalAmount;\r\n            currentMilestone.funders[msg.sender] -= surplus;\r\n            \r\n            if(project.currentMilestoneIndex == project.milestones.length - 1) {\r\n                project.isActive = false;\r\n                (bool success, ) = msg.sender.call{value: surplus}(\"\");\r\n                require(success, \"Failed to return surplus\");    \r\n            } else {\r\n                initiateNextMilestone(projectIndex);\r\n                currentMilestone = project.milestones[project.currentMilestoneIndex];\r\n                currentMilestone.funderAddresses.push(msg.sender);\r\n                currentMilestone.funders[msg.sender] += surplus;\r\n                currentMilestone.totalFunded += surplus;\r\n                project.totalFunded += surplus;\r\n            }\r\n        }\r\n\r\n        emit ProjectFunded(\r\n            projectIndex,\r\n            msg.value,\r\n            project.totalFunded,\r\n            currentMilestone.totalFunded\r\n        );\r\n    }\r\n\r\n    function checkCurrentMilestone(uint projectIndex) external {\r\n        require(projectIndex < projects.length, \"Invalid projects index\");\r\n        Project storage project = projects[projectIndex];\r\n        require(project.isActive, \"Project must be active\");\r\n        Milestone storage currentMilestone = project.milestones[\r\n            project.currentMilestoneIndex\r\n        ];\r\n        require(!currentMilestone.reached, \"Milestone should be not reached\");\r\n\r\n        emit CurrentMilestoneStatus(\r\n            currentMilestone.info.deadline,\r\n            currentMilestone.info.goalAmount,\r\n            project.totalFunded,\r\n            currentMilestone.totalFunded\r\n        );\r\n    }\r\n\r\n    //this function will be used only to move onto next milestone once one was completed\r\n    function initiateNextMilestone(uint projectIndex) private {\r\n        Project storage project = projects[projectIndex];\r\n        Milestone storage currentMilestone = project.milestones[\r\n            project.currentMilestoneIndex\r\n        ];\r\n        uint moneyAmountToSend = currentMilestone.totalFunded;\r\n        if(project.currentMilestoneIndex > 0) {\r\n            moneyAmountToSend -= project.milestones[project.currentMilestoneIndex - 1].totalFunded;\r\n        }\r\n    \r\n        if (project.totalFunded >= currentMilestone.info.goalAmount) {\r\n            currentMilestone.reached = true;\r\n            sendMoneyToOwner(project.creator, moneyAmountToSend);\r\n\r\n            if (project.currentMilestoneIndex < project.milestones.length - 1) {\r\n                project.currentMilestoneIndex++;\r\n            } else {\r\n                // project is \"done\" after being fully funded\r\n                project.isActive = false;\r\n            }\r\n        } else {\r\n            // cancel if milestone not reached after timestamp\r\n            stopProjectHelper(projectIndex);\r\n        }\r\n    }\r\n\r\n    function sendMoneyToOwner(\r\n        address projectCreator,\r\n        uint moneyAmount\r\n    ) private {\r\n        (bool success, ) = projectCreator.call{value: moneyAmount}(\"\");\r\n        require(success, \"Transfer to creator failed\");\r\n    }\r\n\r\n    function refundMilestone(uint projectIndex, uint milestoneIdx) private {\r\n        Project storage project = projects[projectIndex];\r\n        Milestone storage milestone = project.milestones[milestoneIdx];\r\n\r\n        for (uint i = 0; i < milestone.funderAddresses.length; i++) {\r\n            address funder = milestone.funderAddresses[i];\r\n            uint amount = milestone.funders[funder];\r\n\r\n            if (amount > 0) {\r\n                milestone.funders[funder] = 0;\r\n                (bool success, ) = funder.call{value: amount}(\"\");\r\n                require(success, \"Refund failed\");\r\n            }\r\n        }\r\n    }\r\n\r\n    // To stop projects that the sysOwner deems as scams/illega/whatever\r\n    // or for when project owners realize they aren't feasible or smt idk\r\n    function stopProject(uint projectIndex) external {\r\n        require(\r\n            msg.sender == sysOwner ||\r\n                msg.sender == projects[projectIndex].creator,\r\n            \"Only system owner or project owner can stop projects\"\r\n        );\r\n        stopProjectHelper(projectIndex);\r\n    }\r\n\r\n    function stopProjectHelper(uint projectIndex) private {\r\n        Project storage project = projects[projectIndex];\r\n        require(project.isActive, \"Cannot stop inactive project\");\r\n        project.isActive = false;\r\n        refundMilestone(projectIndex, project.currentMilestoneIndex);\r\n    }\r\n\r\n    function addNewMilestones(uint projectIndex, MilestoneInfo[] memory milestones) public {\r\n        require(projectIndex < projects.length, \"Invalid projects index\");\r\n        Project storage project = projects[projectIndex];\r\n        require(project.isActive, \"Cannot add new milestones to inactive project\");\r\n        require(project.creator == msg.sender, \"Only project creator can add new milestones\");\r\n        require(milestones.length > 0, \"Must have at least one milestone\");\r\n        for(uint i=0; i<milestones.length; i++) {   \r\n            require(milestones[i].goalAmount > 0, \"Goal amount can't be 0\");\r\n            require(\r\n                milestones[i].deadline > block.timestamp,\r\n                \"Deadline can't be in the past\"\r\n            );\r\n            if(i > 0){\r\n                require(milestones[i].goalAmount > milestones[i-1].goalAmount, \"Milestone goals should be increasing\");\r\n                require(milestones[i].deadline > milestones[i-1].deadline, \"Milestone deadlines should be increasing\");\r\n            }\r\n            if(project.milestones.length > 0) {\r\n                require(milestones[i].goalAmount > project.milestones[project.milestones.length-1].info.goalAmount, \"Milestone goals should be increasing\");\r\n                require(milestones[i].deadline > project.milestones[project.milestones.length-1].info.deadline, \"Milestone deadlines should be increasing\");\r\n            }\r\n            Milestone storage milestone = project.milestones.push();\r\n            milestone.info.goalAmount = milestones[i].goalAmount;\r\n            milestone.info.deadline = milestones[i].deadline;\r\n            milestone.totalFunded = 0;\r\n            milestone.reached = false;\r\n        }\r\n    }\r\n\r\n    //getters\r\n    function getCurrentMilestoneInfo(uint projectIndex) external view returns (MilestoneInfo memory) {\r\n        require(projectIndex < projects.length, \"Invalid projects index\");\r\n        Project storage project = projects[projectIndex];\r\n        return project.milestones[project.currentMilestoneIndex].info;\r\n    }\r\n\r\n    function getCurrentMilestoneFunders(uint projectIndex) external view returns(address[] memory) {\r\n        Project storage project = projects[projectIndex];\r\n        Milestone storage currentMilestone = project.milestones[project.currentMilestoneIndex];\r\n        return currentMilestone.funderAddresses;\r\n    }\r\n\r\n    function getallMilestonesInfo(uint projectIndex) external view returns (MilestoneInfo[] memory) {\r\n        require(projectIndex < projects.length, \"Invalid projects index\");\r\n        Project storage project = projects[projectIndex];\r\n        MilestoneInfo[] memory milestoneInfo = new MilestoneInfo[](project.milestones.length);\r\n        for(uint i=0; i < project.milestones.length; i++) {\r\n            milestoneInfo[i] = project.milestones[i].info;\r\n        }       \r\n        return milestoneInfo;\r\n    }\r\n\r\n    function getAllActiveProjects() external view returns (ProjectView[] memory) {\r\n        uint activeProjectsCount = 0;\r\n        for (uint i = 0; i < projects.length; i++) {\r\n            if (projects[i].isActive) {\r\n                activeProjectsCount++;\r\n            }\r\n        }\r\n\r\n        ProjectView[] memory tempProjects = new ProjectView[](activeProjectsCount);\r\n\r\n        uint index=0;\r\n        for(uint i=0; i<projects.length; i++){\r\n            if(projects[i].isActive) {\r\n                ProjectView memory tempProject;\r\n                tempProject.creator = projects[i].creator;\r\n                tempProject.name = projects[i].name;\r\n                tempProject.headerImageUrl = projects[i].headerImageUrl;\r\n                tempProject.description = projects[i].description;\r\n                tempProject.totalFunded = projects[i].totalFunded;\r\n                tempProject.currentMilestoneIndex = projects[i].currentMilestoneIndex;\r\n                tempProject.isActive = projects[i].isActive;\r\n                tempProjects[index] = tempProject;\r\n                index++;\r\n            }\r\n        }\r\n        return tempProjects;\r\n    }\r\n}\r\n\r\n\r\n\r\n\r\n\r\n\r\n  ",
  "sourcePath": "C:\\Users\\JustinasLetukas\\Documents\\Github\\Blockchain-4-dApps\\contracts\\CrowdSourcing.sol",
  "compiler": {
    "name": "solc",
    "version": "0.8.13+commit.abaa5c0e.Emscripten.clang"
  },
  "schemaVersion": "3.4.16",
  "updatedAt": "2025-12-09T01:08:28.589Z",
  "networkType": "ethereum",
  "devdoc": {
    "kind": "dev",
    "methods": {},
    "version": 1
  },
  "userdoc": {
    "kind": "user",
    "methods": {},
    "version": 1
  }
}