{
  "contractName": "CrowdSourcing",
  "abi": [
    {
      "inputs": [],
      "stateMutability": "nonpayable",
      "type": "constructor"
    },
    {
      "anonymous": false,
      "inputs": [
        {
          "indexed": false,
          "internalType": "uint256",
          "name": "deadline",
          "type": "uint256"
        },
        {
          "indexed": false,
          "internalType": "uint256",
          "name": "goalAmount",
          "type": "uint256"
        },
        {
          "indexed": false,
          "internalType": "uint256",
          "name": "totalFunded",
          "type": "uint256"
        },
        {
          "indexed": false,
          "internalType": "uint256",
          "name": "currentMileStoneTotalFunded",
          "type": "uint256"
        }
      ],
      "name": "CurrentMilestoneStatus",
      "type": "event"
    },
    {
      "anonymous": false,
      "inputs": [
        {
          "indexed": false,
          "internalType": "uint256",
          "name": "projectIdx",
          "type": "uint256"
        }
      ],
      "name": "ProjectCreated",
      "type": "event"
    },
    {
      "anonymous": false,
      "inputs": [
        {
          "indexed": false,
          "internalType": "uint256",
          "name": "projectIdx",
          "type": "uint256"
        },
        {
          "indexed": false,
          "internalType": "uint256",
          "name": "amount",
          "type": "uint256"
        },
        {
          "indexed": false,
          "internalType": "uint256",
          "name": "totalFunded",
          "type": "uint256"
        },
        {
          "indexed": false,
          "internalType": "uint256",
          "name": "currentMilestoneTotalFunded",
          "type": "uint256"
        }
      ],
      "name": "ProjectFunded",
      "type": "event"
    },
    {
      "inputs": [
        {
          "internalType": "uint256",
          "name": "",
          "type": "uint256"
        }
      ],
      "name": "projects",
      "outputs": [
        {
          "internalType": "address",
          "name": "creator",
          "type": "address"
        },
        {
          "internalType": "string",
          "name": "name",
          "type": "string"
        },
        {
          "internalType": "string",
          "name": "headerImageUrl",
          "type": "string"
        },
        {
          "internalType": "string",
          "name": "description",
          "type": "string"
        },
        {
          "internalType": "uint256",
          "name": "totalFunded",
          "type": "uint256"
        },
        {
          "internalType": "uint256",
          "name": "currentMilestoneIndex",
          "type": "uint256"
        },
        {
          "internalType": "bool",
          "name": "isActive",
          "type": "bool"
        }
      ],
      "stateMutability": "view",
      "type": "function",
      "constant": true
    },
    {
      "inputs": [],
      "name": "sysOwner",
      "outputs": [
        {
          "internalType": "address",
          "name": "",
          "type": "address"
        }
      ],
      "stateMutability": "view",
      "type": "function",
      "constant": true
    },
    {
      "inputs": [
        {
          "internalType": "string",
          "name": "_name",
          "type": "string"
        },
        {
          "internalType": "string",
          "name": "_headerImageUrl",
          "type": "string"
        },
        {
          "internalType": "string",
          "name": "_description",
          "type": "string"
        },
        {
          "components": [
            {
              "internalType": "uint256",
              "name": "goalAmount",
              "type": "uint256"
            },
            {
              "internalType": "uint256",
              "name": "deadline",
              "type": "uint256"
            }
          ],
          "internalType": "struct MilestoneInfo[]",
          "name": "_milestones",
          "type": "tuple[]"
        }
      ],
      "name": "createProject",
      "outputs": [],
      "stateMutability": "nonpayable",
      "type": "function"
    },
    {
      "inputs": [
        {
          "internalType": "uint256",
          "name": "_projectIdx",
          "type": "uint256"
        }
      ],
      "name": "fundProject",
      "outputs": [],
      "stateMutability": "payable",
      "type": "function",
      "payable": true
    },
    {
      "inputs": [
        {
          "internalType": "uint256",
          "name": "_projectIdx",
          "type": "uint256"
        }
      ],
      "name": "checkCurrentMilestone",
      "outputs": [],
      "stateMutability": "nonpayable",
      "type": "function"
    },
    {
      "inputs": [
        {
          "internalType": "uint256",
          "name": "_projectIdx",
          "type": "uint256"
        }
      ],
      "name": "stopProject",
      "outputs": [],
      "stateMutability": "nonpayable",
      "type": "function"
    }
  ],
  "bytecode": "0x608060405234801561001057600080fd5b50336000806101000a81548173ffffffffffffffffffffffffffffffffffffffff021916908373ffffffffffffffffffffffffffffffffffffffff16021790555061234d806100606000396000f3fe6080604052600436106100555760003560e01c80630e4877d61461005a578063107046bd146100855780631a86e67d146100c85780634e94e824146100f15780636c563abe1461011a5780636db7a96014610136575b600080fd5b34801561006657600080fd5b5061006f61015f565b60405161007c9190611519565b60405180910390f35b34801561009157600080fd5b506100ac60048036038101906100a7919061157e565b610183565b6040516100bf979695949392919061166e565b60405180910390f35b3480156100d457600080fd5b506100ef60048036038101906100ea9190611944565b61039a565b005b3480156100fd57600080fd5b506101186004803603810190610113919061157e565b610734565b005b610134600480360381019061012f919061157e565b610881565b005b34801561014257600080fd5b5061015d6004803603810190610158919061157e565b610e99565b005b60008054906101000a900473ffffffffffffffffffffffffffffffffffffffff1681565b6001818154811061019357600080fd5b90600052602060002090600802016000915090508060000160009054906101000a900473ffffffffffffffffffffffffffffffffffffffff16908060010180546101dc90611a4a565b80601f016020809104026020016040519081016040528092919081815260200182805461020890611a4a565b80156102555780601f1061022a57610100808354040283529160200191610255565b820191906000526020600020905b81548152906001019060200180831161023857829003601f168201915b50505050509080600201805461026a90611a4a565b80601f016020809104026020016040519081016040528092919081815260200182805461029690611a4a565b80156102e35780601f106102b8576101008083540402835291602001916102e3565b820191906000526020600020905b8154815290600101906020018083116102c657829003601f168201915b5050505050908060030180546102f890611a4a565b80601f016020809104026020016040519081016040528092919081815260200182805461032490611a4a565b80156103715780601f1061034657610100808354040283529160200191610371565b820191906000526020600020905b81548152906001019060200180831161035457829003601f168201915b5050505050908060040154908060050154908060070160009054906101000a900460ff16905087565b60008054906101000a900473ffffffffffffffffffffffffffffffffffffffff1673ffffffffffffffffffffffffffffffffffffffff163373ffffffffffffffffffffffffffffffffffffffff1603610428576040517f08c379a000000000000000000000000000000000000000000000000000000000815260040161041f90611aed565b60405180910390fd5b600081511161046c576040517f08c379a000000000000000000000000000000000000000000000000000000000815260040161046390611b59565b60405180910390fd5b60005b815181101561054c57600082828151811061048d5761048c611b79565b5b602002602001015160000151116104d9576040517f08c379a00000000000000000000000000000000000000000000000000000000081526004016104d090611bf4565b60405180910390fd5b428282815181106104ed576104ec611b79565b5b60200260200101516020015111610539576040517f08c379a000000000000000000000000000000000000000000000000000000000815260040161053090611c60565b60405180910390fd5b808061054490611caf565b91505061046f565b506000600180816001815401808255809150500390600052602060002090600802019050338160000160006101000a81548173ffffffffffffffffffffffffffffffffffffffff021916908373ffffffffffffffffffffffffffffffffffffffff160217905550848160010190805190602001906105cb929190611435565b50838160020190805190602001906105e4929190611435565b50828160030190805190602001906105fd929190611435565b50600081600401819055506000816005018190555060018160070160006101000a81548160ff02191690831515021790555060005b82518110156106f057600082600601600181600181540180825580915050039060005260206000209060060201905083828151811061067457610673611b79565b5b602002602001015160000151816000016000018190555083828151811061069e5761069d611b79565b5b60200260200101516020015181600001600101819055506000816002018190555060008160050160006101000a81548160ff0219169083151502179055505080806106e890611caf565b915050610632565b507f1ac2092e16e28eef29d1832f3dc69da1b21284a1f3159d3b26cb238b22fe4f8a6001805490506040516107259190611cf7565b60405180910390a15050505050565b60006001828154811061074a57610749611b79565b5b906000526020600020906008020190508060070160009054906101000a900460ff166107ab576040517f08c379a00000000000000000000000000000000000000000000000000000000081526004016107a290611d5e565b60405180910390fd5b6000816006018260050154815481106107c7576107c6611b79565b5b906000526020600020906006020190508060050160009054906101000a900460ff1615610829576040517f08c379a000000000000000000000000000000000000000000000000000000000815260040161082090611dca565b60405180910390fd5b7f3f9ee693372748925082c0c5ba09ecffc5fddfeecf993becff877eac8a1e08bc81600001600101548260000160000154846004015484600201546040516108749493929190611dea565b60405180910390a1505050565b60018054905081106108c8576040517f08c379a00000000000000000000000000000000000000000000000000000000081526004016108bf90611e7b565b60405180910390fd5b3373ffffffffffffffffffffffffffffffffffffffff1631341115610922576040517f08c379a000000000000000000000000000000000000000000000000000000000815260040161091990611f0d565b60405180910390fd5b60003411610965576040517f08c379a000000000000000000000000000000000000000000000000000000000815260040161095c90611f79565b60405180910390fd5b60006001828154811061097b5761097a611b79565b5b906000526020600020906008020190508060070160009054906101000a900460ff166109dc576040517f08c379a00000000000000000000000000000000000000000000000000000000081526004016109d390611fe5565b60405180910390fd5b6000816006018260050154815481106109f8576109f7611b79565b5b9060005260206000209060060201905042816000016001015411610a51576040517f08c379a0000000000000000000000000000000000000000000000000000000008152600401610a4890612051565b60405180910390fd5b60008160040160003373ffffffffffffffffffffffffffffffffffffffff1673ffffffffffffffffffffffffffffffffffffffff1681526020019081526020016000205403610b005780600301339080600181540180825580915050600190039060005260206000200160009091909190916101000a81548173ffffffffffffffffffffffffffffffffffffffff021916908373ffffffffffffffffffffffffffffffffffffffff1602179055505b348160040160003373ffffffffffffffffffffffffffffffffffffffff1673ffffffffffffffffffffffffffffffffffffffff1681526020019081526020016000206000828254610b519190612071565b9250508190555034816002016000828254610b6c9190612071565b9250508190555034826004016000828254610b879190612071565b925050819055505b806000016000015482600401541115610e4f57600081600001600001548360040154610bbb91906120c7565b90508160000160000154826002018190555081600001600001548360040181905550808260040160003373ffffffffffffffffffffffffffffffffffffffff1673ffffffffffffffffffffffffffffffffffffffff1681526020019081526020016000206000828254610c2e91906120c7565b9250508190555060018360060180549050610c4991906120c7565b836005015403610d225760008360070160006101000a81548160ff02191690831515021790555060003373ffffffffffffffffffffffffffffffffffffffff1682604051610c969061212c565b60006040518083038185875af1925050503d8060008114610cd3576040519150601f19603f3d011682016040523d82523d6000602084013e610cd8565b606091505b5050905080610d1c576040517f08c379a0000000000000000000000000000000000000000000000000000000008152600401610d139061218d565b60405180910390fd5b50610e49565b610d2b84610fae565b82600601836005015481548110610d4557610d44611b79565b5b9060005260206000209060060201915081600301339080600181540180825580915050600190039060005260206000200160009091909190916101000a81548173ffffffffffffffffffffffffffffffffffffffff021916908373ffffffffffffffffffffffffffffffffffffffff160217905550808260040160003373ffffffffffffffffffffffffffffffffffffffff1673ffffffffffffffffffffffffffffffffffffffff1681526020019081526020016000206000828254610e0b9190612071565b9250508190555080826002016000828254610e269190612071565b9250508190555080836004016000828254610e419190612071565b925050819055505b50610b8f565b7f17e2effa169c5dde193942abd21f6d49e7d32c15ab843da440cb2abdd10f1911833484600401548460020154604051610e8c9493929190611dea565b60405180910390a1505050565b60008054906101000a900473ffffffffffffffffffffffffffffffffffffffff1673ffffffffffffffffffffffffffffffffffffffff163373ffffffffffffffffffffffffffffffffffffffff161480610f63575060018181548110610f0257610f01611b79565b5b906000526020600020906008020160000160009054906101000a900473ffffffffffffffffffffffffffffffffffffffff1673ffffffffffffffffffffffffffffffffffffffff163373ffffffffffffffffffffffffffffffffffffffff16145b610fa2576040517f08c379a0000000000000000000000000000000000000000000000000000000008152600401610f999061221f565b60405180910390fd5b610fab8161112a565b50565b600060018281548110610fc457610fc3611b79565b5b90600052602060002090600802019050600081600601826005015481548110610ff057610fef611b79565b5b9060005260206000209060060201905060008160020154905060008360050154111561105c57826006016001846005015461102b91906120c7565b8154811061103c5761103b611b79565b5b9060005260206000209060060201600201548161105991906120c7565b90505b816000016000015483600401541061111a5760018260050160006101000a81548160ff0219169083151502179055506110b98360000160009054906101000a900473ffffffffffffffffffffffffffffffffffffffff168261117f565b600183600601805490506110cd91906120c7565b836005015410156110f7578260050160008154809291906110ed90611caf565b9190505550611115565b60008360070160006101000a81548160ff0219169083151502179055505b611124565b6111238461112a565b5b50505050565b6000600182815481106111405761113f611b79565b5b9060005260206000209060080201905060008160070160006101000a81548160ff02191690831515021790555061117b828260050154611230565b5050565b60008273ffffffffffffffffffffffffffffffffffffffff16826040516111a59061212c565b60006040518083038185875af1925050503d80600081146111e2576040519150601f19603f3d011682016040523d82523d6000602084013e6111e7565b606091505b505090508061122b576040517f08c379a00000000000000000000000000000000000000000000000000000000081526004016112229061228b565b60405180910390fd5b505050565b60006001838154811061124657611245611b79565b5b90600052602060002090600802019050600081600601838154811061126e5761126d611b79565b5b9060005260206000209060060201905060005b816003018054905081101561142e5760008260030182815481106112a8576112a7611b79565b5b9060005260206000200160009054906101000a900473ffffffffffffffffffffffffffffffffffffffff16905060008360040160008373ffffffffffffffffffffffffffffffffffffffff1673ffffffffffffffffffffffffffffffffffffffff16815260200190815260200160002054905060008111156114195760008460040160008473ffffffffffffffffffffffffffffffffffffffff1673ffffffffffffffffffffffffffffffffffffffff1681526020019081526020016000208190555060008273ffffffffffffffffffffffffffffffffffffffff16826040516113919061212c565b60006040518083038185875af1925050503d80600081146113ce576040519150601f19603f3d011682016040523d82523d6000602084013e6113d3565b606091505b5050905080611417576040517f08c379a000000000000000000000000000000000000000000000000000000000815260040161140e906122f7565b60405180910390fd5b505b5050808061142690611caf565b915050611281565b5050505050565b82805461144190611a4a565b90600052602060002090601f01602090048101928261146357600085556114aa565b82601f1061147c57805160ff19168380011785556114aa565b828001600101855582156114aa579182015b828111156114a957825182559160200191906001019061148e565b5b5090506114b791906114bb565b5090565b5b808211156114d45760008160009055506001016114bc565b5090565b600073ffffffffffffffffffffffffffffffffffffffff82169050919050565b6000611503826114d8565b9050919050565b611513816114f8565b82525050565b600060208201905061152e600083018461150a565b92915050565b6000604051905090565b600080fd5b600080fd5b6000819050919050565b61155b81611548565b811461156657600080fd5b50565b60008135905061157881611552565b92915050565b6000602082840312156115945761159361153e565b5b60006115a284828501611569565b91505092915050565b600081519050919050565b600082825260208201905092915050565b60005b838110156115e55780820151818401526020810190506115ca565b838111156115f4576000848401525b50505050565b6000601f19601f8301169050919050565b6000611616826115ab565b61162081856115b6565b93506116308185602086016115c7565b611639816115fa565b840191505092915050565b61164d81611548565b82525050565b60008115159050919050565b61166881611653565b82525050565b600060e082019050611683600083018a61150a565b8181036020830152611695818961160b565b905081810360408301526116a9818861160b565b905081810360608301526116bd818761160b565b90506116cc6080830186611644565b6116d960a0830185611644565b6116e660c083018461165f565b98975050505050505050565b600080fd5b600080fd5b7f4e487b7100000000000000000000000000000000000000000000000000000000600052604160045260246000fd5b611734826115fa565b810181811067ffffffffffffffff82111715611753576117526116fc565b5b80604052505050565b6000611766611534565b9050611772828261172b565b919050565b600067ffffffffffffffff821115611792576117916116fc565b5b61179b826115fa565b9050602081019050919050565b82818337600083830152505050565b60006117ca6117c584611777565b61175c565b9050828152602081018484840111156117e6576117e56116f7565b5b6117f18482856117a8565b509392505050565b600082601f83011261180e5761180d6116f2565b5b813561181e8482602086016117b7565b91505092915050565b600067ffffffffffffffff821115611842576118416116fc565b5b602082029050602081019050919050565b600080fd5b600080fd5b60006040828403121561187357611872611858565b5b61187d604061175c565b9050600061188d84828501611569565b60008301525060206118a184828501611569565b60208301525092915050565b60006118c06118bb84611827565b61175c565b905080838252602082019050604084028301858111156118e3576118e2611853565b5b835b8181101561190c57806118f8888261185d565b8452602084019350506040810190506118e5565b5050509392505050565b600082601f83011261192b5761192a6116f2565b5b813561193b8482602086016118ad565b91505092915050565b6000806000806080858703121561195e5761195d61153e565b5b600085013567ffffffffffffffff81111561197c5761197b611543565b5b611988878288016117f9565b945050602085013567ffffffffffffffff8111156119a9576119a8611543565b5b6119b5878288016117f9565b935050604085013567ffffffffffffffff8111156119d6576119d5611543565b5b6119e2878288016117f9565b925050606085013567ffffffffffffffff811115611a0357611a02611543565b5b611a0f87828801611916565b91505092959194509250565b7f4e487b7100000000000000000000000000000000000000000000000000000000600052602260045260246000fd5b60006002820490506001821680611a6257607f821691505b602082108103611a7557611a74611a1b565b5b50919050565b7f53797374656d206f776e65722063616e2774206372656174652070726f6a656360008201527f7473000000000000000000000000000000000000000000000000000000000000602082015250565b6000611ad76022836115b6565b9150611ae282611a7b565b604082019050919050565b60006020820190508181036000830152611b0681611aca565b9050919050565b7f4d7573742068617665206174206c65617374206f6e65206d696c6573746f6e65600082015250565b6000611b436020836115b6565b9150611b4e82611b0d565b602082019050919050565b60006020820190508181036000830152611b7281611b36565b9050919050565b7f4e487b7100000000000000000000000000000000000000000000000000000000600052603260045260246000fd5b7f476f616c20616d6f756e742063616e2774206265203000000000000000000000600082015250565b6000611bde6016836115b6565b9150611be982611ba8565b602082019050919050565b60006020820190508181036000830152611c0d81611bd1565b9050919050565b7f446561646c696e652063616e277420626520696e207468652070617374000000600082015250565b6000611c4a601d836115b6565b9150611c5582611c14565b602082019050919050565b60006020820190508181036000830152611c7981611c3d565b9050919050565b7f4e487b7100000000000000000000000000000000000000000000000000000000600052601160045260246000fd5b6000611cba82611548565b91507fffffffffffffffffffffffffffffffffffffffffffffffffffffffffffffffff8203611cec57611ceb611c80565b5b600182019050919050565b6000602082019050611d0c6000830184611644565b92915050565b7f50726f6a656374206d7573742062652061637469766500000000000000000000600082015250565b6000611d486016836115b6565b9150611d5382611d12565b602082019050919050565b60006020820190508181036000830152611d7781611d3b565b9050919050565b7f4d696c6573746f6e652073686f756c64206265206e6f74207265616368656400600082015250565b6000611db4601f836115b6565b9150611dbf82611d7e565b602082019050919050565b60006020820190508181036000830152611de381611da7565b9050919050565b6000608082019050611dff6000830187611644565b611e0c6020830186611644565b611e196040830185611644565b611e266060830184611644565b95945050505050565b7f50726f6a65637420646f65736e27742065786973740000000000000000000000600082015250565b6000611e656015836115b6565b9150611e7082611e2f565b602082019050919050565b60006020820190508181036000830152611e9481611e58565b9050919050565b7f596f7520646f6e74206861766520656e6f756768206d6f6e657920746f20667560008201527f6e64000000000000000000000000000000000000000000000000000000000000602082015250565b6000611ef76022836115b6565b9150611f0282611e9b565b604082019050919050565b60006020820190508181036000830152611f2681611eea565b9050919050565b7f46756e6420616d6f756e742063616e2774206265203000000000000000000000600082015250565b6000611f636016836115b6565b9150611f6e82611f2d565b602082019050919050565b60006020820190508181036000830152611f9281611f56565b9050919050565b7f50726f6a656374206d7573742062652061637469766520746f2066756e640000600082015250565b6000611fcf601e836115b6565b9150611fda82611f99565b602082019050919050565b60006020820190508181036000830152611ffe81611fc2565b9050919050565b7f596f752063616e27742066756e6420616674657220646561646c696e65000000600082015250565b600061203b601d836115b6565b915061204682612005565b602082019050919050565b6000602082019050818103600083015261206a8161202e565b9050919050565b600061207c82611548565b915061208783611548565b9250827fffffffffffffffffffffffffffffffffffffffffffffffffffffffffffffffff038211156120bc576120bb611c80565b5b828201905092915050565b60006120d282611548565b91506120dd83611548565b9250828210156120f0576120ef611c80565b5b828203905092915050565b600081905092915050565b50565b60006121166000836120fb565b915061212182612106565b600082019050919050565b600061213782612109565b9150819050919050565b7f4661696c656420746f2072657475726e20737572706c75730000000000000000600082015250565b60006121776018836115b6565b915061218282612141565b602082019050919050565b600060208201905081810360008301526121a68161216a565b9050919050565b7f4f6e6c792073797374656d206f776e6572206f722070726f6a656374206f776e60008201527f65722063616e2073746f702070726f6a65637473000000000000000000000000602082015250565b60006122096034836115b6565b9150612214826121ad565b604082019050919050565b60006020820190508181036000830152612238816121fc565b9050919050565b7f5472616e7366657220746f2063726561746f72206661696c6564000000000000600082015250565b6000612275601a836115b6565b91506122808261223f565b602082019050919050565b600060208201905081810360008301526122a481612268565b9050919050565b7f526566756e64206661696c656400000000000000000000000000000000000000600082015250565b60006122e1600d836115b6565b91506122ec826122ab565b602082019050919050565b60006020820190508181036000830152612310816122d4565b905091905056fea2646970667358221220fd76a7a7ca0d8bded2f20bdb10a7eb0a08c90c005b045bfd712e8552e2f2b42464736f6c634300080d0033",
  "immutableReferences": {},
  "source": "// SPDX-License-Identifier: MIT\r\npragma solidity ^0.8.13;\r\n/*\r\n    Crowdsourcing with milestones, expected logic:\r\n    - There is a general system owner, who owns the crowdsourcing \"page\"\r\n    - Users can create projects, which other users can fund:\r\n    - Those projects have milestones, upon reaching a certain milestone by a certain date,\r\n    the project creator receives the money. Else (if it's not reached by a certain date),\r\n    all investors are refunded.\r\n\r\n    E.g. PC1 creates a project \"Cool project\" with 3 milestones:\r\n    100 euros by Nov 20\r\n    1000 eur by Nov 30\r\n    10000 eur by Dec 30\r\n\r\n    Nov 18\r\n    F1 funds 50 eur, F2 funds 25 eur, F3 Funds 26 Eur\r\n    Nov 19\r\n    F4 funds 50 eur\r\n    Nov 20\r\n    Check for milestone 1 deadline, reached. PC1 gets 151 eur. project not cancelled\r\n    Nov 29\r\n    F1 funds 500 eur, F2 funds 9 eur\r\n    Nov 30\r\n    Check for milestone 2 deadline - not reached. Project cancelled.\r\n    F1 gets 500 eur back, F2 gets 9 eur back, F3, F4 get nothing back.\r\n    PC1 keeps 101 eur from before.\r\n*/\r\n\r\nstruct Project {\r\n    address creator;\r\n    string name;\r\n    string headerImageUrl;\r\n    string description;\r\n    uint totalFunded;\r\n    uint currentMilestoneIndex;\r\n    Milestone[] milestones;\r\n    bool isActive; // i.e. not cancelled\r\n}\r\n\r\nstruct Milestone {\r\n    MilestoneInfo info;\r\n    uint totalFunded; // only current milestone total funded, used to transfer money to owner only lol\r\n    address[] funderAddresses;\r\n    mapping(address => uint) funders; // adress amount funded\r\n    bool reached;\r\n}\r\n\r\nstruct MilestoneInfo {\r\n    uint goalAmount;\r\n    uint deadline;\r\n}\r\n\r\ncontract CrowdSourcing {\r\n    event ProjectCreated(uint projectIdx);\r\n\r\n    event ProjectFunded(\r\n        uint projectIdx,\r\n        uint amount,\r\n        uint totalFunded,\r\n        uint currentMilestoneTotalFunded\r\n    );\r\n\r\n    event CurrentMilestoneStatus(\r\n        uint deadline,\r\n        uint goalAmount,\r\n        uint totalFunded,\r\n        uint currentMileStoneTotalFunded\r\n    );\r\n\r\n    address public sysOwner;\r\n\r\n    Project[] public projects;\r\n\r\n    constructor() {\r\n        sysOwner = msg.sender;\r\n    }\r\n\r\n    function createProject(\r\n        string memory _name,\r\n        string memory _headerImageUrl,\r\n        string memory _description,\r\n        MilestoneInfo[] memory _milestones\r\n    ) external {\r\n        require(msg.sender != sysOwner, \"System owner can't create projects\");\r\n        require(_milestones.length > 0, \"Must have at least one milestone\");\r\n        for (uint i = 0; i < _milestones.length; i++) {\r\n            require(_milestones[i].goalAmount > 0, \"Goal amount can't be 0\");\r\n            require(\r\n                _milestones[i].deadline > block.timestamp,\r\n                \"Deadline can't be in the past\"\r\n            );\r\n        }\r\n\r\n        Project storage project = projects.push();\r\n        project.creator = msg.sender;\r\n        project.name = _name;\r\n        project.headerImageUrl = _headerImageUrl;\r\n        project.description = _description;\r\n        project.totalFunded = 0;\r\n        project.currentMilestoneIndex = 0;\r\n        project.isActive = true;\r\n\r\n        for (uint i = 0; i < _milestones.length; i++) {\r\n            Milestone storage milestone = project.milestones.push();\r\n            milestone.info.goalAmount = _milestones[i].goalAmount;\r\n            milestone.info.deadline = _milestones[i].deadline;\r\n            milestone.totalFunded = 0;\r\n            milestone.reached = false;\r\n        }\r\n\r\n        emit ProjectCreated(projects.length);\r\n    }\r\n\r\n    function fundProject(uint _projectIdx) external payable {\r\n        require(_projectIdx < projects.length, \"Project doesn't exist\");\r\n        require(\r\n            msg.value <= msg.sender.balance,\r\n            \"You dont have enough money to fund\"\r\n        );\r\n        require(msg.value > 0, \"Fund amount can't be 0\");\r\n\r\n        Project storage project = projects[_projectIdx];\r\n        require(project.isActive, \"Project must be active to fund\");\r\n\r\n        Milestone storage currentMilestone = project.milestones[\r\n            project.currentMilestoneIndex\r\n        ];\r\n        require(\r\n            currentMilestone.info.deadline > block.timestamp,\r\n            \"You can't fund after deadline\"\r\n        );\r\n     \r\n        if (currentMilestone.funders[msg.sender] == 0) {\r\n            currentMilestone.funderAddresses.push(msg.sender);\r\n        }\r\n\r\n        currentMilestone.funders[msg.sender] += msg.value;\r\n        currentMilestone.totalFunded += msg.value;\r\n        project.totalFunded += msg.value;\r\n\r\n        while(project.totalFunded > currentMilestone.info.goalAmount) {\r\n\r\n            uint surplus = project.totalFunded - currentMilestone.info.goalAmount;\r\n            currentMilestone.totalFunded = currentMilestone.info.goalAmount;\r\n            project.totalFunded = currentMilestone.info.goalAmount;\r\n            currentMilestone.funders[msg.sender] -= surplus;\r\n            \r\n            if(project.currentMilestoneIndex == project.milestones.length - 1) {\r\n                project.isActive = false;\r\n                (bool success, ) = msg.sender.call{value: surplus}(\"\");\r\n                require(success, \"Failed to return surplus\");    \r\n            } else {\r\n                initiateNextMilestone(_projectIdx);\r\n                currentMilestone = project.milestones[project.currentMilestoneIndex];\r\n                currentMilestone.funderAddresses.push(msg.sender);\r\n                currentMilestone.funders[msg.sender] += surplus;\r\n                currentMilestone.totalFunded += surplus;\r\n                project.totalFunded += surplus;\r\n            }\r\n        }\r\n\r\n        emit ProjectFunded(\r\n            _projectIdx,\r\n            msg.value,\r\n            project.totalFunded,\r\n            currentMilestone.totalFunded\r\n        );\r\n    }\r\n\r\n    function checkCurrentMilestone(uint _projectIdx) external {\r\n        Project storage project = projects[_projectIdx];\r\n        require(project.isActive, \"Project must be active\");\r\n        Milestone storage currentMilestone = project.milestones[\r\n            project.currentMilestoneIndex\r\n        ];\r\n        require(!currentMilestone.reached, \"Milestone should be not reached\");\r\n\r\n        emit CurrentMilestoneStatus(\r\n            currentMilestone.info.deadline,\r\n            currentMilestone.info.goalAmount,\r\n            project.totalFunded,\r\n            currentMilestone.totalFunded\r\n        );\r\n    }\r\n\r\n    //this function will be used only to move onto next milestone once one was completed\r\n    function initiateNextMilestone(uint _projectIdx) private {\r\n        Project storage project = projects[_projectIdx];\r\n        Milestone storage currentMilestone = project.milestones[\r\n            project.currentMilestoneIndex\r\n        ];\r\n        uint moneyAmountToSend = currentMilestone.totalFunded;\r\n        if(project.currentMilestoneIndex > 0) {\r\n            moneyAmountToSend -= project.milestones[project.currentMilestoneIndex - 1].totalFunded;\r\n        }\r\n    \r\n        if (project.totalFunded >= currentMilestone.info.goalAmount) {\r\n            currentMilestone.reached = true;\r\n            sendMoneyToOwner(project.creator, moneyAmountToSend);\r\n\r\n            if (project.currentMilestoneIndex < project.milestones.length - 1) {\r\n                project.currentMilestoneIndex++;\r\n            } else {\r\n                // project is \"done\" after being fully funded\r\n                project.isActive = false;\r\n            }\r\n        } else {\r\n            // cancel if milestone not reached after timestamp\r\n            stopProjectHelper(_projectIdx);\r\n        }\r\n    }\r\n\r\n    function sendMoneyToOwner(\r\n        address projectCreator,\r\n        uint moneyAmount\r\n    ) private {\r\n        (bool success, ) = projectCreator.call{value: moneyAmount}(\"\");\r\n        require(success, \"Transfer to creator failed\");\r\n    }\r\n\r\n    function refundMilestone(uint _projectIdx, uint _milestoneIdx) private {\r\n        Project storage project = projects[_projectIdx];\r\n        Milestone storage milestone = project.milestones[_milestoneIdx];\r\n\r\n        for (uint i = 0; i < milestone.funderAddresses.length; i++) {\r\n            address funder = milestone.funderAddresses[i];\r\n            uint amount = milestone.funders[funder];\r\n\r\n            if (amount > 0) {\r\n                milestone.funders[funder] = 0;\r\n                (bool success, ) = funder.call{value: amount}(\"\");\r\n                require(success, \"Refund failed\");\r\n            }\r\n        }\r\n    }\r\n\r\n    // To stop projects that the sysOwner deems as scams/illega/whatever\r\n    // or for when project owners realize they aren't feasible or smt idk\r\n    function stopProject(uint _projectIdx) external {\r\n        require(\r\n            msg.sender == sysOwner ||\r\n                msg.sender == projects[_projectIdx].creator,\r\n            \"Only system owner or project owner can stop projects\"\r\n        );\r\n        stopProjectHelper(_projectIdx);\r\n    }\r\n\r\n    function stopProjectHelper(uint _projectIdx) private {\r\n        Project storage project = projects[_projectIdx];\r\n        project.isActive = false;\r\n        refundMilestone(_projectIdx, project.currentMilestoneIndex);\r\n    }\r\n\r\n    /*\r\n    TODO LIST:\r\n    - daug kitu dalyku. visa logika\r\n    - pratestuot ar tai kas egizstuoja veikia lmao\r\n    */\r\n}\r\n",
  "sourcePath": "C:\\Users\\JustinasLetukas\\Documents\\Github\\Blockchain-4-dApps\\contracts\\CrowdSourcing.sol",
  "compiler": {
    "name": "solc",
    "version": "0.8.13+commit.abaa5c0e.Emscripten.clang"
  },
  "schemaVersion": "3.4.16",
  "updatedAt": "2025-12-07T02:04:39.212Z",
  "networkType": "ethereum",
  "devdoc": {
    "kind": "dev",
    "methods": {},
    "version": 1
  },
  "userdoc": {
    "kind": "user",
    "methods": {},
    "version": 1
  }
}