{
  "contractName": "CrowdSourcing",
  "abi": [
    {
      "inputs": [],
      "stateMutability": "nonpayable",
      "type": "constructor"
    },
    {
      "anonymous": false,
      "inputs": [
        {
          "indexed": false,
          "internalType": "uint256",
          "name": "deadline",
          "type": "uint256"
        },
        {
          "indexed": false,
          "internalType": "uint256",
          "name": "goalAmount",
          "type": "uint256"
        },
        {
          "indexed": false,
          "internalType": "uint256",
          "name": "totalFunded",
          "type": "uint256"
        },
        {
          "indexed": false,
          "internalType": "uint256",
          "name": "currentMileStoneTotalFunded",
          "type": "uint256"
        }
      ],
      "name": "CurrentMilestoneStatus",
      "type": "event"
    },
    {
      "anonymous": false,
      "inputs": [
        {
          "indexed": false,
          "internalType": "uint256",
          "name": "projectIndex",
          "type": "uint256"
        }
      ],
      "name": "ProjectCreated",
      "type": "event"
    },
    {
      "anonymous": false,
      "inputs": [
        {
          "indexed": false,
          "internalType": "uint256",
          "name": "projectIndex",
          "type": "uint256"
        },
        {
          "indexed": false,
          "internalType": "uint256",
          "name": "amount",
          "type": "uint256"
        },
        {
          "indexed": false,
          "internalType": "uint256",
          "name": "totalFunded",
          "type": "uint256"
        },
        {
          "indexed": false,
          "internalType": "uint256",
          "name": "currentMilestoneTotalFunded",
          "type": "uint256"
        }
      ],
      "name": "ProjectFunded",
      "type": "event"
    },
    {
      "inputs": [
        {
          "internalType": "uint256",
          "name": "",
          "type": "uint256"
        }
      ],
      "name": "projects",
      "outputs": [
        {
          "internalType": "address",
          "name": "creator",
          "type": "address"
        },
        {
          "internalType": "string",
          "name": "name",
          "type": "string"
        },
        {
          "internalType": "string",
          "name": "headerImageUrl",
          "type": "string"
        },
        {
          "internalType": "string",
          "name": "description",
          "type": "string"
        },
        {
          "internalType": "uint256",
          "name": "totalFunded",
          "type": "uint256"
        },
        {
          "internalType": "uint256",
          "name": "currentMilestoneIndex",
          "type": "uint256"
        },
        {
          "internalType": "bool",
          "name": "isActive",
          "type": "bool"
        }
      ],
      "stateMutability": "view",
      "type": "function",
      "constant": true
    },
    {
      "inputs": [],
      "name": "sysOwner",
      "outputs": [
        {
          "internalType": "address",
          "name": "",
          "type": "address"
        }
      ],
      "stateMutability": "view",
      "type": "function",
      "constant": true
    },
    {
      "inputs": [
        {
          "internalType": "string",
          "name": "name",
          "type": "string"
        },
        {
          "internalType": "string",
          "name": "headerImageUrl",
          "type": "string"
        },
        {
          "internalType": "string",
          "name": "description",
          "type": "string"
        },
        {
          "components": [
            {
              "internalType": "uint256",
              "name": "goalAmount",
              "type": "uint256"
            },
            {
              "internalType": "uint256",
              "name": "deadline",
              "type": "uint256"
            }
          ],
          "internalType": "struct MilestoneInfo[]",
          "name": "milestones",
          "type": "tuple[]"
        }
      ],
      "name": "createProject",
      "outputs": [],
      "stateMutability": "nonpayable",
      "type": "function"
    },
    {
      "inputs": [
        {
          "internalType": "uint256",
          "name": "projectIndex",
          "type": "uint256"
        }
      ],
      "name": "fundProject",
      "outputs": [],
      "stateMutability": "payable",
      "type": "function",
      "payable": true
    },
    {
      "inputs": [
        {
          "internalType": "uint256",
          "name": "projectIndex",
          "type": "uint256"
        }
      ],
      "name": "checkCurrentMilestone",
      "outputs": [],
      "stateMutability": "nonpayable",
      "type": "function"
    },
    {
      "inputs": [
        {
          "internalType": "uint256",
          "name": "projectIndex",
          "type": "uint256"
        }
      ],
      "name": "stopProject",
      "outputs": [],
      "stateMutability": "nonpayable",
      "type": "function"
    },
    {
      "inputs": [
        {
          "internalType": "uint256",
          "name": "projectIndex",
          "type": "uint256"
        },
        {
          "components": [
            {
              "internalType": "uint256",
              "name": "goalAmount",
              "type": "uint256"
            },
            {
              "internalType": "uint256",
              "name": "deadline",
              "type": "uint256"
            }
          ],
          "internalType": "struct MilestoneInfo[]",
          "name": "milestones",
          "type": "tuple[]"
        }
      ],
      "name": "addNewMilestones",
      "outputs": [],
      "stateMutability": "nonpayable",
      "type": "function"
    },
    {
      "inputs": [],
      "name": "deactivateProjectsWithExpiredDeadlines",
      "outputs": [],
      "stateMutability": "nonpayable",
      "type": "function"
    },
    {
      "inputs": [
        {
          "internalType": "uint256",
          "name": "projectIndex",
          "type": "uint256"
        }
      ],
      "name": "getCurrentMilestoneInfo",
      "outputs": [
        {
          "components": [
            {
              "internalType": "uint256",
              "name": "goalAmount",
              "type": "uint256"
            },
            {
              "internalType": "uint256",
              "name": "deadline",
              "type": "uint256"
            }
          ],
          "internalType": "struct MilestoneInfo",
          "name": "",
          "type": "tuple"
        }
      ],
      "stateMutability": "view",
      "type": "function",
      "constant": true
    },
    {
      "inputs": [
        {
          "internalType": "uint256",
          "name": "projectIndex",
          "type": "uint256"
        }
      ],
      "name": "getCurrentMilestoneFunders",
      "outputs": [
        {
          "internalType": "address[]",
          "name": "",
          "type": "address[]"
        }
      ],
      "stateMutability": "view",
      "type": "function",
      "constant": true
    },
    {
      "inputs": [
        {
          "internalType": "uint256",
          "name": "projectIndex",
          "type": "uint256"
        }
      ],
      "name": "getallMilestonesInfo",
      "outputs": [
        {
          "components": [
            {
              "internalType": "uint256",
              "name": "goalAmount",
              "type": "uint256"
            },
            {
              "internalType": "uint256",
              "name": "deadline",
              "type": "uint256"
            }
          ],
          "internalType": "struct MilestoneInfo[]",
          "name": "",
          "type": "tuple[]"
        }
      ],
      "stateMutability": "view",
      "type": "function",
      "constant": true
    },
    {
      "inputs": [],
      "name": "getAllActiveProjects",
      "outputs": [
        {
          "components": [
            {
              "internalType": "address",
              "name": "creator",
              "type": "address"
            },
            {
              "internalType": "string",
              "name": "name",
              "type": "string"
            },
            {
              "internalType": "string",
              "name": "headerImageUrl",
              "type": "string"
            },
            {
              "internalType": "string",
              "name": "description",
              "type": "string"
            },
            {
              "internalType": "uint256",
              "name": "totalFunded",
              "type": "uint256"
            },
            {
              "internalType": "uint256",
              "name": "currentMilestoneIndex",
              "type": "uint256"
            },
            {
              "internalType": "bool",
              "name": "isActive",
              "type": "bool"
            }
          ],
          "internalType": "struct ProjectView[]",
          "name": "",
          "type": "tuple[]"
        }
      ],
      "stateMutability": "view",
      "type": "function",
      "constant": true
    }
  ],
  "bytecode": "0x608060405234801561001057600080fd5b50336000806101000a81548173ffffffffffffffffffffffffffffffffffffffff021916908373ffffffffffffffffffffffffffffffffffffffff160217905550613adb806100606000396000f3fe6080604052600436106100a75760003560e01c80636db7a960116100645780636db7a960146101c55780637808de38146101ee578063ae63218114610205578063b99122af1461022e578063d8a5b36d1461026b578063f2ef441b146102a8576100a7565b80630e4877d6146100ac578063107046bd146100d75780631a86e67d1461011a57806333ec0fc5146101435780634e94e824146101805780636c563abe146101a9575b600080fd5b3480156100b857600080fd5b506100c16102d3565b6040516100ce9190612479565b60405180910390f35b3480156100e357600080fd5b506100fe60048036038101906100f991906124de565b6102f7565b60405161011197969594939291906125ce565b60405180910390f35b34801561012657600080fd5b50610141600480360381019061013c91906128a4565b61050e565b005b34801561014f57600080fd5b5061016a600480360381019061016591906124de565b6106e6565b6040516101779190612a39565b60405180910390f35b34801561018c57600080fd5b506101a760048036038101906101a291906124de565b6107cc565b005b6101c360048036038101906101be91906124de565b610960565b005b3480156101d157600080fd5b506101ec60048036038101906101e791906124de565b610f78565b005b3480156101fa57600080fd5b5061020361108d565b005b34801561021157600080fd5b5061022c60048036038101906102279190612a5b565b6111c8565b005b34801561023a57600080fd5b50610255600480360381019061025091906124de565b61174d565b6040516102629190612af5565b60405180910390f35b34801561027757600080fd5b50610292600480360381019061028d91906124de565b611814565b60405161029f9190612bee565b60405180910390f35b3480156102b457600080fd5b506102bd611976565b6040516102ca9190612dd5565b60405180910390f35b60008054906101000a900473ffffffffffffffffffffffffffffffffffffffff1681565b6001818154811061030757600080fd5b90600052602060002090600802016000915090508060000160009054906101000a900473ffffffffffffffffffffffffffffffffffffffff169080600101805461035090612e26565b80601f016020809104026020016040519081016040528092919081815260200182805461037c90612e26565b80156103c95780601f1061039e576101008083540402835291602001916103c9565b820191906000526020600020905b8154815290600101906020018083116103ac57829003601f168201915b5050505050908060020180546103de90612e26565b80601f016020809104026020016040519081016040528092919081815260200182805461040a90612e26565b80156104575780601f1061042c57610100808354040283529160200191610457565b820191906000526020600020905b81548152906001019060200180831161043a57829003601f168201915b50505050509080600301805461046c90612e26565b80601f016020809104026020016040519081016040528092919081815260200182805461049890612e26565b80156104e55780601f106104ba576101008083540402835291602001916104e5565b820191906000526020600020905b8154815290600101906020018083116104c857829003601f168201915b5050505050908060040154908060050154908060070160009054906101000a900460ff16905087565b60008054906101000a900473ffffffffffffffffffffffffffffffffffffffff1673ffffffffffffffffffffffffffffffffffffffff163373ffffffffffffffffffffffffffffffffffffffff160361059c576040517f08c379a000000000000000000000000000000000000000000000000000000000815260040161059390612ec9565b60405180910390fd5b6000600180816001815401808255809150500390600052602060002090600802019050338160000160006101000a81548173ffffffffffffffffffffffffffffffffffffffff021916908373ffffffffffffffffffffffffffffffffffffffff1602179055508481600101908051906020019061061a929190612326565b5083816002019080519060200190610633929190612326565b508281600301908051906020019061064c929190612326565b50600081600401819055506000816005018190555060018160070160006101000a81548160ff021916908315150217905550610698600180805490506106929190612f18565b836111c8565b7f1ac2092e16e28eef29d1832f3dc69da1b21284a1f3159d3b26cb238b22fe4f8a600180805490506106ca9190612f18565b6040516106d79190612f4c565b60405180910390a15050505050565b60606000600183815481106106fe576106fd612f67565b5b9060005260206000209060080201905060008160060182600501548154811061072a57610729612f67565b5b90600052602060002090600602019050806003018054806020026020016040519081016040528092919081815260200182805480156107be57602002820191906000526020600020905b8160009054906101000a900473ffffffffffffffffffffffffffffffffffffffff1673ffffffffffffffffffffffffffffffffffffffff1681526020019060010190808311610774575b505050505092505050919050565b6001805490508110610813576040517f08c379a000000000000000000000000000000000000000000000000000000000815260040161080a90612fe2565b60405180910390fd5b60006001828154811061082957610828612f67565b5b906000526020600020906008020190508060070160009054906101000a900460ff1661088a576040517f08c379a00000000000000000000000000000000000000000000000000000000081526004016108819061304e565b60405180910390fd5b6000816006018260050154815481106108a6576108a5612f67565b5b906000526020600020906006020190508060050160009054906101000a900460ff1615610908576040517f08c379a00000000000000000000000000000000000000000000000000000000081526004016108ff906130ba565b60405180910390fd5b7f3f9ee693372748925082c0c5ba09ecffc5fddfeecf993becff877eac8a1e08bc816000016001015482600001600001548460040154846002015460405161095394939291906130da565b60405180910390a1505050565b60018054905081106109a7576040517f08c379a000000000000000000000000000000000000000000000000000000000815260040161099e9061316b565b60405180910390fd5b3373ffffffffffffffffffffffffffffffffffffffff1631341115610a01576040517f08c379a00000000000000000000000000000000000000000000000000000000081526004016109f8906131fd565b60405180910390fd5b60003411610a44576040517f08c379a0000000000000000000000000000000000000000000000000000000008152600401610a3b90613269565b60405180910390fd5b600060018281548110610a5a57610a59612f67565b5b906000526020600020906008020190508060070160009054906101000a900460ff16610abb576040517f08c379a0000000000000000000000000000000000000000000000000000000008152600401610ab2906132d5565b60405180910390fd5b600081600601826005015481548110610ad757610ad6612f67565b5b9060005260206000209060060201905042816000016001015411610b30576040517f08c379a0000000000000000000000000000000000000000000000000000000008152600401610b2790613341565b60405180910390fd5b60008160040160003373ffffffffffffffffffffffffffffffffffffffff1673ffffffffffffffffffffffffffffffffffffffff1681526020019081526020016000205403610bdf5780600301339080600181540180825580915050600190039060005260206000200160009091909190916101000a81548173ffffffffffffffffffffffffffffffffffffffff021916908373ffffffffffffffffffffffffffffffffffffffff1602179055505b348160040160003373ffffffffffffffffffffffffffffffffffffffff1673ffffffffffffffffffffffffffffffffffffffff1681526020019081526020016000206000828254610c309190613361565b9250508190555034816002016000828254610c4b9190613361565b9250508190555034826004016000828254610c669190613361565b925050819055505b806000016000015482600401541115610f2e57600081600001600001548360040154610c9a9190612f18565b90508160000160000154826002018190555081600001600001548360040181905550808260040160003373ffffffffffffffffffffffffffffffffffffffff1673ffffffffffffffffffffffffffffffffffffffff1681526020019081526020016000206000828254610d0d9190612f18565b9250508190555060018360060180549050610d289190612f18565b836005015403610e015760008360070160006101000a81548160ff02191690831515021790555060003373ffffffffffffffffffffffffffffffffffffffff1682604051610d75906133e8565b60006040518083038185875af1925050503d8060008114610db2576040519150601f19603f3d011682016040523d82523d6000602084013e610db7565b606091505b5050905080610dfb576040517f08c379a0000000000000000000000000000000000000000000000000000000008152600401610df290613449565b60405180910390fd5b50610f28565b610e0a84611e18565b82600601836005015481548110610e2457610e23612f67565b5b9060005260206000209060060201915081600301339080600181540180825580915050600190039060005260206000200160009091909190916101000a81548173ffffffffffffffffffffffffffffffffffffffff021916908373ffffffffffffffffffffffffffffffffffffffff160217905550808260040160003373ffffffffffffffffffffffffffffffffffffffff1673ffffffffffffffffffffffffffffffffffffffff1681526020019081526020016000206000828254610eea9190613361565b9250508190555080826002016000828254610f059190613361565b9250508190555080836004016000828254610f209190613361565b925050819055505b50610c6e565b7f17e2effa169c5dde193942abd21f6d49e7d32c15ab843da440cb2abdd10f1911833484600401548460020154604051610f6b94939291906130da565b60405180910390a1505050565b60008054906101000a900473ffffffffffffffffffffffffffffffffffffffff1673ffffffffffffffffffffffffffffffffffffffff163373ffffffffffffffffffffffffffffffffffffffff161480611042575060018181548110610fe157610fe0612f67565b5b906000526020600020906008020160000160009054906101000a900473ffffffffffffffffffffffffffffffffffffffff1673ffffffffffffffffffffffffffffffffffffffff163373ffffffffffffffffffffffffffffffffffffffff16145b611081576040517f08c379a0000000000000000000000000000000000000000000000000000000008152600401611078906134db565b60405180910390fd5b61108a81611f94565b50565b60008054906101000a900473ffffffffffffffffffffffffffffffffffffffff1673ffffffffffffffffffffffffffffffffffffffff163373ffffffffffffffffffffffffffffffffffffffff161461111b576040517f08c379a00000000000000000000000000000000000000000000000000000000081526004016111129061356d565b60405180910390fd5b60005b6001805490508110156111c55760006001828154811061114157611140612f67565b5b9060005260206000209060080201905060008160060182600501548154811061116d5761116c612f67565b5b906000526020600020906006020190508160070160009054906101000a900460ff1680156111a15750428160000160010154105b156111b0576111af83611f94565b5b505080806111bd9061358d565b91505061111e565b50565b600180549050821061120f576040517f08c379a000000000000000000000000000000000000000000000000000000000815260040161120690612fe2565b60405180910390fd5b60006001838154811061122557611224612f67565b5b906000526020600020906008020190508060070160009054906101000a900460ff16611286576040517f08c379a000000000000000000000000000000000000000000000000000000000815260040161127d90613647565b60405180910390fd5b3373ffffffffffffffffffffffffffffffffffffffff168160000160009054906101000a900473ffffffffffffffffffffffffffffffffffffffff1673ffffffffffffffffffffffffffffffffffffffff1614611318576040517f08c379a000000000000000000000000000000000000000000000000000000000815260040161130f906136d9565b60405180910390fd5b600082511161135c576040517f08c379a000000000000000000000000000000000000000000000000000000000815260040161135390613745565b60405180910390fd5b60005b825181101561174757600083828151811061137d5761137c612f67565b5b602002602001015160000151116113c9576040517f08c379a00000000000000000000000000000000000000000000000000000000081526004016113c0906137b1565b60405180910390fd5b428382815181106113dd576113dc612f67565b5b60200260200101516020015111611429576040517f08c379a00000000000000000000000000000000000000000000000000000000081526004016114209061381d565b60405180910390fd5b600081111561154757826001826114409190612f18565b8151811061145157611450612f67565b5b6020026020010151600001518382815181106114705761146f612f67565b5b602002602001015160000151116114bc576040517f08c379a00000000000000000000000000000000000000000000000000000000081526004016114b3906138af565b60405180910390fd5b826001826114ca9190612f18565b815181106114db576114da612f67565b5b6020026020010151602001518382815181106114fa576114f9612f67565b5b60200260200101516020015111611546576040517f08c379a000000000000000000000000000000000000000000000000000000000815260040161153d90613941565b60405180910390fd5b5b60008260060180549050111561169257816006016001836006018054905061156f9190612f18565b815481106115805761157f612f67565b5b9060005260206000209060060201600001600001548382815181106115a8576115a7612f67565b5b602002602001015160000151116115f4576040517f08c379a00000000000000000000000000000000000000000000000000000000081526004016115eb906138af565b60405180910390fd5b816006016001836006018054905061160c9190612f18565b8154811061161d5761161c612f67565b5b90600052602060002090600602016000016001015483828151811061164557611644612f67565b5b60200260200101516020015111611691576040517f08c379a000000000000000000000000000000000000000000000000000000000815260040161168890613941565b60405180910390fd5b5b60008260060160018160018154018082558091505003906000526020600020906006020190508382815181106116cb576116ca612f67565b5b60200260200101516000015181600001600001819055508382815181106116f5576116f4612f67565b5b60200260200101516020015181600001600101819055506000816002018190555060008160050160006101000a81548160ff02191690831515021790555050808061173f9061358d565b91505061135f565b50505050565b6117556123ac565b600180549050821061179c576040517f08c379a000000000000000000000000000000000000000000000000000000000815260040161179390612fe2565b60405180910390fd5b6000600183815481106117b2576117b1612f67565b5b90600052602060002090600802019050806006018160050154815481106117dc576117db612f67565b5b906000526020600020906006020160000160405180604001604052908160008201548152602001600182015481525050915050919050565b6060600180549050821061185d576040517f08c379a000000000000000000000000000000000000000000000000000000000815260040161185490612fe2565b60405180910390fd5b60006001838154811061187357611872612f67565b5b906000526020600020906008020190506000816006018054905067ffffffffffffffff8111156118a6576118a561265c565b5b6040519080825280602002602001820160405280156118df57816020015b6118cc6123ac565b8152602001906001900390816118c45790505b50905060005b826006018054905081101561196b5782600601818154811061190a57611909612f67565b5b90600052602060002090600602016000016040518060400160405290816000820154815260200160018201548152505082828151811061194d5761194c612f67565b5b602002602001018190525080806119639061358d565b9150506118e5565b508092505050919050565b60606000805b6001805490508110156119e3576001818154811061199d5761199c612f67565b5b906000526020600020906008020160070160009054906101000a900460ff16156119d05781806119cc9061358d565b9250505b80806119db9061358d565b91505061197c565b5060008167ffffffffffffffff811115611a00576119ff61265c565b5b604051908082528060200260200182016040528015611a3957816020015b611a266123c6565b815260200190600190039081611a1e5790505b5090506000805b600180549050811015611e0e5760018181548110611a6157611a60612f67565b5b906000526020600020906008020160070160009054906101000a900460ff1615611dfb57611a8d6123c6565b60018281548110611aa157611aa0612f67565b5b906000526020600020906008020160000160009054906101000a900473ffffffffffffffffffffffffffffffffffffffff16816000019073ffffffffffffffffffffffffffffffffffffffff16908173ffffffffffffffffffffffffffffffffffffffff168152505060018281548110611b1e57611b1d612f67565b5b90600052602060002090600802016001018054611b3a90612e26565b80601f0160208091040260200160405190810160405280929190818152602001828054611b6690612e26565b8015611bb35780601f10611b8857610100808354040283529160200191611bb3565b820191906000526020600020905b815481529060010190602001808311611b9657829003601f168201915b5050505050816020018190525060018281548110611bd457611bd3612f67565b5b90600052602060002090600802016002018054611bf090612e26565b80601f0160208091040260200160405190810160405280929190818152602001828054611c1c90612e26565b8015611c695780601f10611c3e57610100808354040283529160200191611c69565b820191906000526020600020905b815481529060010190602001808311611c4c57829003601f168201915b5050505050816040018190525060018281548110611c8a57611c89612f67565b5b90600052602060002090600802016003018054611ca690612e26565b80601f0160208091040260200160405190810160405280929190818152602001828054611cd290612e26565b8015611d1f5780601f10611cf457610100808354040283529160200191611d1f565b820191906000526020600020905b815481529060010190602001808311611d0257829003601f168201915b5050505050816060018190525060018281548110611d4057611d3f612f67565b5b90600052602060002090600802016004015481608001818152505060018281548110611d6f57611d6e612f67565b5b9060005260206000209060080201600501548160a001818152505060018281548110611d9e57611d9d612f67565b5b906000526020600020906008020160070160009054906101000a900460ff168160c001901515908115158152505080848481518110611de057611ddf612f67565b5b60200260200101819052508280611df69061358d565b935050505b8080611e069061358d565b915050611a40565b5081935050505090565b600060018281548110611e2e57611e2d612f67565b5b90600052602060002090600802019050600081600601826005015481548110611e5a57611e59612f67565b5b90600052602060002090600602019050600081600201549050600083600501541115611ec6578260060160018460050154611e959190612f18565b81548110611ea657611ea5612f67565b5b90600052602060002090600602016002015481611ec39190612f18565b90505b8160000160000154836004015410611f845760018260050160006101000a81548160ff021916908315150217905550611f238360000160009054906101000a900473ffffffffffffffffffffffffffffffffffffffff168261203a565b60018360060180549050611f379190612f18565b83600501541015611f6157826005016000815480929190611f579061358d565b9190505550611f7f565b60008360070160006101000a81548160ff0219169083151502179055505b611f8e565b611f8d84611f94565b5b50505050565b600060018281548110611faa57611fa9612f67565b5b906000526020600020906008020190508060070160009054906101000a900460ff1661200b576040517f08c379a0000000000000000000000000000000000000000000000000000000008152600401612002906139ad565b60405180910390fd5b60008160070160006101000a81548160ff0219169083151502179055506120368282600501546120eb565b5050565b60008273ffffffffffffffffffffffffffffffffffffffff1682604051612060906133e8565b60006040518083038185875af1925050503d806000811461209d576040519150601f19603f3d011682016040523d82523d6000602084013e6120a2565b606091505b50509050806120e6576040517f08c379a00000000000000000000000000000000000000000000000000000000081526004016120dd90613a19565b60405180910390fd5b505050565b60006001838154811061210157612100612f67565b5b90600052602060002090600802019050600081600601838154811061212957612128612f67565b5b9060005260206000209060060201905060005b816003018054905081101561231f57600082600301828154811061216357612162612f67565b5b9060005260206000200160009054906101000a900473ffffffffffffffffffffffffffffffffffffffff16905060008360040160008373ffffffffffffffffffffffffffffffffffffffff1673ffffffffffffffffffffffffffffffffffffffff168152602001908152602001600020549050600081111561230a5760008460040160008473ffffffffffffffffffffffffffffffffffffffff1673ffffffffffffffffffffffffffffffffffffffff1681526020019081526020016000208190555060008273ffffffffffffffffffffffffffffffffffffffff168260405161224c906133e8565b60006040518083038185875af1925050503d8060008114612289576040519150601f19603f3d011682016040523d82523d6000602084013e61228e565b606091505b50509050806122d2576040517f08c379a00000000000000000000000000000000000000000000000000000000081526004016122c990613a85565b60405180910390fd5b818660040160008282546122e69190612f18565b92505081905550818560020160008282546123019190612f18565b92505081905550505b505080806123179061358d565b91505061213c565b5050505050565b82805461233290612e26565b90600052602060002090601f016020900481019282612354576000855561239b565b82601f1061236d57805160ff191683800117855561239b565b8280016001018555821561239b579182015b8281111561239a57825182559160200191906001019061237f565b5b5090506123a8919061241b565b5090565b604051806040016040528060008152602001600081525090565b6040518060e00160405280600073ffffffffffffffffffffffffffffffffffffffff16815260200160608152602001606081526020016060815260200160008152602001600081526020016000151581525090565b5b8082111561243457600081600090555060010161241c565b5090565b600073ffffffffffffffffffffffffffffffffffffffff82169050919050565b600061246382612438565b9050919050565b61247381612458565b82525050565b600060208201905061248e600083018461246a565b92915050565b6000604051905090565b600080fd5b600080fd5b6000819050919050565b6124bb816124a8565b81146124c657600080fd5b50565b6000813590506124d8816124b2565b92915050565b6000602082840312156124f4576124f361249e565b5b6000612502848285016124c9565b91505092915050565b600081519050919050565b600082825260208201905092915050565b60005b8381101561254557808201518184015260208101905061252a565b83811115612554576000848401525b50505050565b6000601f19601f8301169050919050565b60006125768261250b565b6125808185612516565b9350612590818560208601612527565b6125998161255a565b840191505092915050565b6125ad816124a8565b82525050565b60008115159050919050565b6125c8816125b3565b82525050565b600060e0820190506125e3600083018a61246a565b81810360208301526125f5818961256b565b90508181036040830152612609818861256b565b9050818103606083015261261d818761256b565b905061262c60808301866125a4565b61263960a08301856125a4565b61264660c08301846125bf565b98975050505050505050565b600080fd5b600080fd5b7f4e487b7100000000000000000000000000000000000000000000000000000000600052604160045260246000fd5b6126948261255a565b810181811067ffffffffffffffff821117156126b3576126b261265c565b5b80604052505050565b60006126c6612494565b90506126d2828261268b565b919050565b600067ffffffffffffffff8211156126f2576126f161265c565b5b6126fb8261255a565b9050602081019050919050565b82818337600083830152505050565b600061272a612725846126d7565b6126bc565b90508281526020810184848401111561274657612745612657565b5b612751848285612708565b509392505050565b600082601f83011261276e5761276d612652565b5b813561277e848260208601612717565b91505092915050565b600067ffffffffffffffff8211156127a2576127a161265c565b5b602082029050602081019050919050565b600080fd5b600080fd5b6000604082840312156127d3576127d26127b8565b5b6127dd60406126bc565b905060006127ed848285016124c9565b6000830152506020612801848285016124c9565b60208301525092915050565b600061282061281b84612787565b6126bc565b90508083825260208201905060408402830185811115612843576128426127b3565b5b835b8181101561286c578061285888826127bd565b845260208401935050604081019050612845565b5050509392505050565b600082601f83011261288b5761288a612652565b5b813561289b84826020860161280d565b91505092915050565b600080600080608085870312156128be576128bd61249e565b5b600085013567ffffffffffffffff8111156128dc576128db6124a3565b5b6128e887828801612759565b945050602085013567ffffffffffffffff811115612909576129086124a3565b5b61291587828801612759565b935050604085013567ffffffffffffffff811115612936576129356124a3565b5b61294287828801612759565b925050606085013567ffffffffffffffff811115612963576129626124a3565b5b61296f87828801612876565b91505092959194509250565b600081519050919050565b600082825260208201905092915050565b6000819050602082019050919050565b6129b081612458565b82525050565b60006129c283836129a7565b60208301905092915050565b6000602082019050919050565b60006129e68261297b565b6129f08185612986565b93506129fb83612997565b8060005b83811015612a2c578151612a1388826129b6565b9750612a1e836129ce565b9250506001810190506129ff565b5085935050505092915050565b60006020820190508181036000830152612a5381846129db565b905092915050565b60008060408385031215612a7257612a7161249e565b5b6000612a80858286016124c9565b925050602083013567ffffffffffffffff811115612aa157612aa06124a3565b5b612aad85828601612876565b9150509250929050565b612ac0816124a8565b82525050565b604082016000820151612adc6000850182612ab7565b506020820151612aef6020850182612ab7565b50505050565b6000604082019050612b0a6000830184612ac6565b92915050565b600081519050919050565b600082825260208201905092915050565b6000819050602082019050919050565b604082016000820151612b526000850182612ab7565b506020820151612b656020850182612ab7565b50505050565b6000612b778383612b3c565b60408301905092915050565b6000602082019050919050565b6000612b9b82612b10565b612ba58185612b1b565b9350612bb083612b2c565b8060005b83811015612be1578151612bc88882612b6b565b9750612bd383612b83565b925050600181019050612bb4565b5085935050505092915050565b60006020820190508181036000830152612c088184612b90565b905092915050565b600081519050919050565b600082825260208201905092915050565b6000819050602082019050919050565b600082825260208201905092915050565b6000612c588261250b565b612c628185612c3c565b9350612c72818560208601612527565b612c7b8161255a565b840191505092915050565b612c8f816125b3565b82525050565b600060e083016000830151612cad60008601826129a7565b5060208301518482036020860152612cc58282612c4d565b91505060408301518482036040860152612cdf8282612c4d565b91505060608301518482036060860152612cf98282612c4d565b9150506080830151612d0e6080860182612ab7565b5060a0830151612d2160a0860182612ab7565b5060c0830151612d3460c0860182612c86565b508091505092915050565b6000612d4b8383612c95565b905092915050565b6000602082019050919050565b6000612d6b82612c10565b612d758185612c1b565b935083602082028501612d8785612c2c565b8060005b85811015612dc35784840389528151612da48582612d3f565b9450612daf83612d53565b925060208a01995050600181019050612d8b565b50829750879550505050505092915050565b60006020820190508181036000830152612def8184612d60565b905092915050565b7f4e487b7100000000000000000000000000000000000000000000000000000000600052602260045260246000fd5b60006002820490506001821680612e3e57607f821691505b602082108103612e5157612e50612df7565b5b50919050565b7f53797374656d206f776e65722063616e2774206372656174652070726f6a656360008201527f7473000000000000000000000000000000000000000000000000000000000000602082015250565b6000612eb3602283612516565b9150612ebe82612e57565b604082019050919050565b60006020820190508181036000830152612ee281612ea6565b9050919050565b7f4e487b7100000000000000000000000000000000000000000000000000000000600052601160045260246000fd5b6000612f23826124a8565b9150612f2e836124a8565b925082821015612f4157612f40612ee9565b5b828203905092915050565b6000602082019050612f6160008301846125a4565b92915050565b7f4e487b7100000000000000000000000000000000000000000000000000000000600052603260045260246000fd5b7f496e76616c69642070726f6a6563747320696e64657800000000000000000000600082015250565b6000612fcc601683612516565b9150612fd782612f96565b602082019050919050565b60006020820190508181036000830152612ffb81612fbf565b9050919050565b7f50726f6a656374206d7573742062652061637469766500000000000000000000600082015250565b6000613038601683612516565b915061304382613002565b602082019050919050565b600060208201905081810360008301526130678161302b565b9050919050565b7f4d696c6573746f6e652073686f756c64206265206e6f74207265616368656400600082015250565b60006130a4601f83612516565b91506130af8261306e565b602082019050919050565b600060208201905081810360008301526130d381613097565b9050919050565b60006080820190506130ef60008301876125a4565b6130fc60208301866125a4565b61310960408301856125a4565b61311660608301846125a4565b95945050505050565b7f50726f6a65637420646f65736e27742065786973740000000000000000000000600082015250565b6000613155601583612516565b91506131608261311f565b602082019050919050565b6000602082019050818103600083015261318481613148565b9050919050565b7f596f7520646f6e74206861766520656e6f756768206d6f6e657920746f20667560008201527f6e64000000000000000000000000000000000000000000000000000000000000602082015250565b60006131e7602283612516565b91506131f28261318b565b604082019050919050565b60006020820190508181036000830152613216816131da565b9050919050565b7f46756e6420616d6f756e742063616e2774206265203000000000000000000000600082015250565b6000613253601683612516565b915061325e8261321d565b602082019050919050565b6000602082019050818103600083015261328281613246565b9050919050565b7f50726f6a656374206d7573742062652061637469766520746f2066756e640000600082015250565b60006132bf601e83612516565b91506132ca82613289565b602082019050919050565b600060208201905081810360008301526132ee816132b2565b9050919050565b7f596f752063616e27742066756e6420616674657220646561646c696e65000000600082015250565b600061332b601d83612516565b9150613336826132f5565b602082019050919050565b6000602082019050818103600083015261335a8161331e565b9050919050565b600061336c826124a8565b9150613377836124a8565b9250827fffffffffffffffffffffffffffffffffffffffffffffffffffffffffffffffff038211156133ac576133ab612ee9565b5b828201905092915050565b600081905092915050565b50565b60006133d26000836133b7565b91506133dd826133c2565b600082019050919050565b60006133f3826133c5565b9150819050919050565b7f4661696c656420746f2072657475726e20737572706c75730000000000000000600082015250565b6000613433601883612516565b915061343e826133fd565b602082019050919050565b6000602082019050818103600083015261346281613426565b9050919050565b7f4f6e6c792073797374656d206f776e6572206f722070726f6a656374206f776e60008201527f65722063616e2073746f702070726f6a65637473000000000000000000000000602082015250565b60006134c5603483612516565b91506134d082613469565b604082019050919050565b600060208201905081810360008301526134f4816134b8565b9050919050565b7f4f6e6c79207379734f776e65722063616e20646561637469766174652070726f60008201527f6a65637473000000000000000000000000000000000000000000000000000000602082015250565b6000613557602583612516565b9150613562826134fb565b604082019050919050565b600060208201905081810360008301526135868161354a565b9050919050565b6000613598826124a8565b91507fffffffffffffffffffffffffffffffffffffffffffffffffffffffffffffffff82036135ca576135c9612ee9565b5b600182019050919050565b7f43616e6e6f7420616464206e6577206d696c6573746f6e657320746f20696e6160008201527f63746976652070726f6a65637400000000000000000000000000000000000000602082015250565b6000613631602d83612516565b915061363c826135d5565b604082019050919050565b6000602082019050818103600083015261366081613624565b9050919050565b7f4f6e6c792070726f6a6563742063726561746f722063616e20616464206e657760008201527f206d696c6573746f6e6573000000000000000000000000000000000000000000602082015250565b60006136c3602b83612516565b91506136ce82613667565b604082019050919050565b600060208201905081810360008301526136f2816136b6565b9050919050565b7f4d7573742068617665206174206c65617374206f6e65206d696c6573746f6e65600082015250565b600061372f602083612516565b915061373a826136f9565b602082019050919050565b6000602082019050818103600083015261375e81613722565b9050919050565b7f476f616c20616d6f756e742063616e2774206265203000000000000000000000600082015250565b600061379b601683612516565b91506137a682613765565b602082019050919050565b600060208201905081810360008301526137ca8161378e565b9050919050565b7f446561646c696e652063616e277420626520696e207468652070617374000000600082015250565b6000613807601d83612516565b9150613812826137d1565b602082019050919050565b60006020820190508181036000830152613836816137fa565b9050919050565b7f4d696c6573746f6e6520676f616c732073686f756c6420626520696e6372656160008201527f73696e6700000000000000000000000000000000000000000000000000000000602082015250565b6000613899602483612516565b91506138a48261383d565b604082019050919050565b600060208201905081810360008301526138c88161388c565b9050919050565b7f4d696c6573746f6e6520646561646c696e65732073686f756c6420626520696e60008201527f6372656173696e67000000000000000000000000000000000000000000000000602082015250565b600061392b602883612516565b9150613936826138cf565b604082019050919050565b6000602082019050818103600083015261395a8161391e565b9050919050565b7f43616e6e6f742073746f7020696e6163746976652070726f6a65637400000000600082015250565b6000613997601c83612516565b91506139a282613961565b602082019050919050565b600060208201905081810360008301526139c68161398a565b9050919050565b7f5472616e7366657220746f2063726561746f72206661696c6564000000000000600082015250565b6000613a03601a83612516565b9150613a0e826139cd565b602082019050919050565b60006020820190508181036000830152613a32816139f6565b9050919050565b7f526566756e64206661696c656400000000000000000000000000000000000000600082015250565b6000613a6f600d83612516565b9150613a7a82613a39565b602082019050919050565b60006020820190508181036000830152613a9e81613a62565b905091905056fea2646970667358221220b7fd081d00763294aa1868c7c5cb9b7832dc057a776e79f9cae074d3f784567764736f6c634300080d0033",
  "immutableReferences": {},
  "source": "// SPDX-License-Identifier: MIT\r\npragma solidity ^0.8.13;\r\n/*\r\n    Crowdsourcing with milestones, expected logic:\r\n    - There is a general system owner, who owns the crowdsourcing \"page\"\r\n    - Users can create projects, which other users can fund:\r\n    - Those projects have milestones, upon reaching a certain milestone by a certain date,\r\n    the project creator receives the money. Else (if it's not reached by a certain date),\r\n    all investors are refunded.\r\n\r\n    E.g. PC1 creates a project \"Cool project\" with 3 milestones:\r\n    100 euros by Nov 20\r\n    1000 eur by Nov 30\r\n    10000 eur by Dec 30\r\n\r\n    Nov 18\r\n    F1 funds 50 eur, F2 funds 25 eur, F3 Funds 26 Eur\r\n    Nov 19\r\n    F4 funds 50 eur\r\n    Nov 20\r\n    Check for milestone 1 deadline, reached. PC1 gets 151 eur. project not cancelled\r\n    Nov 29\r\n    F1 funds 500 eur, F2 funds 9 eur\r\n    Nov 30\r\n    Check for milestone 2 deadline - not reached. Project cancelled.\r\n    F1 gets 500 eur back, F2 gets 9 eur back, F3, F4 get nothing back.\r\n    PC1 keeps 101 eur from before.\r\n*/\r\n\r\n\r\nstruct Project {\r\n    address creator;\r\n    string name;\r\n    string headerImageUrl;\r\n    string description;\r\n    uint totalFunded;\r\n    uint currentMilestoneIndex;\r\n    Milestone[] milestones;\r\n    bool isActive; // i.e. not cancelled\r\n}\r\n\r\nstruct ProjectView {\r\n    address creator;\r\n    string name;\r\n    string headerImageUrl;\r\n    string description;\r\n    uint totalFunded;\r\n    uint currentMilestoneIndex;\r\n    bool isActive;\r\n}\r\n\r\nstruct Milestone {\r\n    MilestoneInfo info;\r\n    uint totalFunded; // only current milestone total funded, used to transfer money to owner only lol\r\n    address[] funderAddresses;\r\n    mapping(address => uint) funders; // adress amount funded\r\n    bool reached;\r\n}\r\n\r\nstruct MilestoneInfo {\r\n    uint goalAmount;\r\n    uint deadline;\r\n}\r\n\r\ncontract CrowdSourcing {\r\n    event ProjectCreated(uint projectIndex);\r\n\r\n    event ProjectFunded(\r\n        uint projectIndex,\r\n        uint amount,\r\n        uint totalFunded,\r\n        uint currentMilestoneTotalFunded\r\n    );\r\n\r\n    event CurrentMilestoneStatus(\r\n        uint deadline,\r\n        uint goalAmount,\r\n        uint totalFunded,\r\n        uint currentMileStoneTotalFunded\r\n    );\r\n\r\n    address public sysOwner;\r\n\r\n    Project[] public projects;\r\n\r\n    constructor() {\r\n        sysOwner = msg.sender;\r\n    }\r\n\r\n    function createProject(\r\n        string memory name,\r\n        string memory headerImageUrl,\r\n        string memory description,\r\n        MilestoneInfo[] memory milestones\r\n    ) external {\r\n        require(msg.sender != sysOwner, \"System owner can't create projects\");\r\n\r\n        Project storage project = projects.push();\r\n        project.creator = msg.sender;\r\n        project.name = name;\r\n        project.headerImageUrl = headerImageUrl;\r\n        project.description = description;\r\n        project.totalFunded = 0;\r\n        project.currentMilestoneIndex = 0;\r\n        project.isActive = true;\r\n\r\n        addNewMilestones(projects.length-1 , milestones);\r\n\r\n        emit ProjectCreated(projects.length-1);\r\n    }\r\n\r\n    function fundProject(uint projectIndex) external payable {\r\n        require(projectIndex < projects.length, \"Project doesn't exist\");\r\n        require(\r\n            msg.value <= msg.sender.balance,\r\n            \"You dont have enough money to fund\"\r\n        );\r\n        require(msg.value > 0, \"Fund amount can't be 0\");\r\n\r\n        Project storage project = projects[projectIndex];\r\n        require(project.isActive, \"Project must be active to fund\");\r\n\r\n        Milestone storage currentMilestone = project.milestones[\r\n            project.currentMilestoneIndex\r\n        ];\r\n        require(\r\n            currentMilestone.info.deadline > block.timestamp,\r\n            \"You can't fund after deadline\"\r\n        );\r\n     \r\n        if (currentMilestone.funders[msg.sender] == 0) {\r\n            currentMilestone.funderAddresses.push(msg.sender);\r\n        }\r\n\r\n        currentMilestone.funders[msg.sender] += msg.value;\r\n        currentMilestone.totalFunded += msg.value;\r\n        project.totalFunded += msg.value;\r\n\r\n        while(project.totalFunded > currentMilestone.info.goalAmount) {\r\n\r\n            uint surplus = project.totalFunded - currentMilestone.info.goalAmount;\r\n            currentMilestone.totalFunded = currentMilestone.info.goalAmount;\r\n            project.totalFunded = currentMilestone.info.goalAmount;\r\n            currentMilestone.funders[msg.sender] -= surplus;\r\n            \r\n            if(project.currentMilestoneIndex == project.milestones.length - 1) {\r\n                project.isActive = false;\r\n                (bool success, ) = msg.sender.call{value: surplus}(\"\");\r\n                require(success, \"Failed to return surplus\");    \r\n            } else {\r\n                initiateNextMilestone(projectIndex);\r\n                currentMilestone = project.milestones[project.currentMilestoneIndex];\r\n                currentMilestone.funderAddresses.push(msg.sender);\r\n                currentMilestone.funders[msg.sender] += surplus;\r\n                currentMilestone.totalFunded += surplus;\r\n                project.totalFunded += surplus;\r\n            }\r\n        }\r\n\r\n        emit ProjectFunded(\r\n            projectIndex,\r\n            msg.value,\r\n            project.totalFunded,\r\n            currentMilestone.totalFunded\r\n        );\r\n    }\r\n\r\n    function checkCurrentMilestone(uint projectIndex) external {\r\n        require(projectIndex < projects.length, \"Invalid projects index\");\r\n        Project storage project = projects[projectIndex];\r\n        require(project.isActive, \"Project must be active\");\r\n        Milestone storage currentMilestone = project.milestones[\r\n            project.currentMilestoneIndex\r\n        ];\r\n        require(!currentMilestone.reached, \"Milestone should be not reached\");\r\n\r\n        emit CurrentMilestoneStatus(\r\n            currentMilestone.info.deadline,\r\n            currentMilestone.info.goalAmount,\r\n            project.totalFunded,\r\n            currentMilestone.totalFunded\r\n        );\r\n    }\r\n\r\n    //this function will be used only to move onto next milestone once one was completed\r\n    function initiateNextMilestone(uint projectIndex) private {\r\n        Project storage project = projects[projectIndex];\r\n        Milestone storage currentMilestone = project.milestones[\r\n            project.currentMilestoneIndex\r\n        ];\r\n        uint moneyAmountToSend = currentMilestone.totalFunded;\r\n        if(project.currentMilestoneIndex > 0) {\r\n            moneyAmountToSend -= project.milestones[project.currentMilestoneIndex - 1].totalFunded;\r\n        }\r\n    \r\n        if (project.totalFunded >= currentMilestone.info.goalAmount) {\r\n            currentMilestone.reached = true;\r\n            sendMoneyToOwner(project.creator, moneyAmountToSend);\r\n\r\n            if (project.currentMilestoneIndex < project.milestones.length - 1) {\r\n                project.currentMilestoneIndex++;\r\n            } else {\r\n                // project is \"done\" after being fully funded\r\n                project.isActive = false;\r\n            }\r\n        } else {\r\n            // cancel if milestone not reached after timestamp\r\n            stopProjectHelper(projectIndex);\r\n        }\r\n    }\r\n\r\n    function sendMoneyToOwner(\r\n        address projectCreator,\r\n        uint moneyAmount\r\n    ) private {\r\n        (bool success, ) = projectCreator.call{value: moneyAmount}(\"\");\r\n        require(success, \"Transfer to creator failed\");\r\n    }\r\n\r\n    function refundMilestone(uint projectIndex, uint milestoneIdx) private {\r\n        Project storage project = projects[projectIndex];\r\n        Milestone storage milestone = project.milestones[milestoneIdx];\r\n\r\n        for (uint i = 0; i < milestone.funderAddresses.length; i++) {\r\n            address funder = milestone.funderAddresses[i];\r\n            uint amount = milestone.funders[funder];\r\n\r\n            if (amount > 0) {\r\n                milestone.funders[funder] = 0;\r\n                (bool success, ) = funder.call{value: amount}(\"\");\r\n                require(success, \"Refund failed\");\r\n                project.totalFunded -= amount;\r\n                milestone.totalFunded -= amount;\r\n            }\r\n        }\r\n    }\r\n\r\n    // To stop projects that the sysOwner deems as scams/illega/whatever\r\n    // or for when project owners realize they aren't feasible or smt idk\r\n    function stopProject(uint projectIndex) external {\r\n        require(\r\n            msg.sender == sysOwner ||\r\n                msg.sender == projects[projectIndex].creator,\r\n            \"Only system owner or project owner can stop projects\"\r\n        );\r\n        stopProjectHelper(projectIndex);\r\n    }\r\n\r\n    function stopProjectHelper(uint projectIndex) private {\r\n        Project storage project = projects[projectIndex];\r\n        require(project.isActive, \"Cannot stop inactive project\");\r\n        project.isActive = false;\r\n        refundMilestone(projectIndex, project.currentMilestoneIndex);\r\n    }\r\n\r\n    function addNewMilestones(uint projectIndex, MilestoneInfo[] memory milestones) public {\r\n        require(projectIndex < projects.length, \"Invalid projects index\");\r\n        Project storage project = projects[projectIndex];\r\n        require(project.isActive, \"Cannot add new milestones to inactive project\");\r\n        require(project.creator == msg.sender, \"Only project creator can add new milestones\");\r\n        require(milestones.length > 0, \"Must have at least one milestone\");\r\n        for(uint i=0; i<milestones.length; i++) {   \r\n            require(milestones[i].goalAmount > 0, \"Goal amount can't be 0\");\r\n            require(\r\n                milestones[i].deadline > block.timestamp,\r\n                \"Deadline can't be in the past\"\r\n            );\r\n            if(i > 0){\r\n                require(milestones[i].goalAmount > milestones[i-1].goalAmount, \"Milestone goals should be increasing\");\r\n                require(milestones[i].deadline > milestones[i-1].deadline, \"Milestone deadlines should be increasing\");\r\n            }\r\n            if(project.milestones.length > 0) {\r\n                require(milestones[i].goalAmount > project.milestones[project.milestones.length-1].info.goalAmount, \"Milestone goals should be increasing\");\r\n                require(milestones[i].deadline > project.milestones[project.milestones.length-1].info.deadline, \"Milestone deadlines should be increasing\");\r\n            }\r\n            Milestone storage milestone = project.milestones.push();\r\n            milestone.info.goalAmount = milestones[i].goalAmount;\r\n            milestone.info.deadline = milestones[i].deadline;\r\n            milestone.totalFunded = 0;\r\n            milestone.reached = false;\r\n        }\r\n    }\r\n\r\n    function deactivateProjectsWithExpiredDeadlines() external {\r\n        require(msg.sender == sysOwner, \"Only sysOwner can deactivate projects\");\r\n        for(uint i=0; i < projects.length; i++) {\r\n            Project storage project = projects[i];\r\n            Milestone storage currentMilestone = project.milestones[project.currentMilestoneIndex];\r\n            if(project.isActive && currentMilestone.info.deadline < block.timestamp) {\r\n                stopProjectHelper(i);\r\n            }\r\n        }\r\n    }\r\n\r\n    //getters\r\n    function getCurrentMilestoneInfo(uint projectIndex) external view returns (MilestoneInfo memory) {\r\n        require(projectIndex < projects.length, \"Invalid projects index\");\r\n        Project storage project = projects[projectIndex];\r\n        return project.milestones[project.currentMilestoneIndex].info;\r\n    }\r\n\r\n    function getCurrentMilestoneFunders(uint projectIndex) external view returns(address[] memory) {\r\n        Project storage project = projects[projectIndex];\r\n        Milestone storage currentMilestone = project.milestones[project.currentMilestoneIndex];\r\n        return currentMilestone.funderAddresses;\r\n    }\r\n\r\n    function getallMilestonesInfo(uint projectIndex) external view returns (MilestoneInfo[] memory) {\r\n        require(projectIndex < projects.length, \"Invalid projects index\");\r\n        Project storage project = projects[projectIndex];\r\n        MilestoneInfo[] memory milestoneInfo = new MilestoneInfo[](project.milestones.length);\r\n        for(uint i=0; i < project.milestones.length; i++) {\r\n            milestoneInfo[i] = project.milestones[i].info;\r\n        }       \r\n        return milestoneInfo;\r\n    }\r\n\r\n    function getAllActiveProjects() external view returns (ProjectView[] memory) {\r\n        uint activeProjectsCount = 0;\r\n        for (uint i = 0; i < projects.length; i++) {\r\n            if (projects[i].isActive) {\r\n                activeProjectsCount++;\r\n            }\r\n        }\r\n\r\n        ProjectView[] memory tempProjects = new ProjectView[](activeProjectsCount);\r\n\r\n        uint index=0;\r\n        for(uint i=0; i<projects.length; i++){\r\n            if(projects[i].isActive) {\r\n                ProjectView memory tempProject;\r\n                tempProject.creator = projects[i].creator;\r\n                tempProject.name = projects[i].name;\r\n                tempProject.headerImageUrl = projects[i].headerImageUrl;\r\n                tempProject.description = projects[i].description;\r\n                tempProject.totalFunded = projects[i].totalFunded;\r\n                tempProject.currentMilestoneIndex = projects[i].currentMilestoneIndex;\r\n                tempProject.isActive = projects[i].isActive;\r\n                tempProjects[index] = tempProject;\r\n                index++;\r\n            }\r\n        }\r\n        return tempProjects;\r\n    }\r\n}\r\n\r\n\r\n\r\n\r\n\r\n\r\n  ",
  "sourcePath": "C:\\Users\\JustinasLetukas\\Documents\\Github\\Blockchain-4-dApps\\contracts\\CrowdSourcing.sol",
  "compiler": {
    "name": "solc",
    "version": "0.8.13+commit.abaa5c0e.Emscripten.clang"
  },
  "schemaVersion": "3.4.16",
  "updatedAt": "2025-12-09T20:40:01.974Z",
  "networkType": "ethereum",
  "devdoc": {
    "kind": "dev",
    "methods": {},
    "version": 1
  },
  "userdoc": {
    "kind": "user",
    "methods": {},
    "version": 1
  }
}