{
  "contractName": "CrowdSourcing",
  "abi": [
    {
      "inputs": [],
      "stateMutability": "nonpayable",
      "type": "constructor"
    },
    {
      "anonymous": false,
      "inputs": [
        {
          "indexed": false,
          "internalType": "uint256",
          "name": "deadline",
          "type": "uint256"
        },
        {
          "indexed": false,
          "internalType": "uint256",
          "name": "goalAmount",
          "type": "uint256"
        },
        {
          "indexed": false,
          "internalType": "uint256",
          "name": "totalFunded",
          "type": "uint256"
        },
        {
          "indexed": false,
          "internalType": "uint256",
          "name": "currentMileStoneTotalFunded",
          "type": "uint256"
        }
      ],
      "name": "CurrentMilestoneStatus",
      "type": "event"
    },
    {
      "anonymous": false,
      "inputs": [
        {
          "indexed": false,
          "internalType": "uint256",
          "name": "projectIdx",
          "type": "uint256"
        }
      ],
      "name": "ProjectCreated",
      "type": "event"
    },
    {
      "anonymous": false,
      "inputs": [
        {
          "indexed": false,
          "internalType": "uint256",
          "name": "projectIdx",
          "type": "uint256"
        },
        {
          "indexed": false,
          "internalType": "uint256",
          "name": "amount",
          "type": "uint256"
        },
        {
          "indexed": false,
          "internalType": "uint256",
          "name": "totalFunded",
          "type": "uint256"
        },
        {
          "indexed": false,
          "internalType": "uint256",
          "name": "currentMilestoneTotalFunded",
          "type": "uint256"
        }
      ],
      "name": "ProjectFunded",
      "type": "event"
    },
    {
      "inputs": [
        {
          "internalType": "uint256",
          "name": "",
          "type": "uint256"
        }
      ],
      "name": "projects",
      "outputs": [
        {
          "internalType": "address",
          "name": "creator",
          "type": "address"
        },
        {
          "internalType": "string",
          "name": "name",
          "type": "string"
        },
        {
          "internalType": "string",
          "name": "headerImageUrl",
          "type": "string"
        },
        {
          "internalType": "string",
          "name": "description",
          "type": "string"
        },
        {
          "internalType": "uint256",
          "name": "totalFunded",
          "type": "uint256"
        },
        {
          "internalType": "uint256",
          "name": "currentMilestoneIndex",
          "type": "uint256"
        },
        {
          "internalType": "bool",
          "name": "isActive",
          "type": "bool"
        }
      ],
      "stateMutability": "view",
      "type": "function",
      "constant": true
    },
    {
      "inputs": [],
      "name": "sysOwner",
      "outputs": [
        {
          "internalType": "address",
          "name": "",
          "type": "address"
        }
      ],
      "stateMutability": "view",
      "type": "function",
      "constant": true
    },
    {
      "inputs": [
        {
          "internalType": "string",
          "name": "_name",
          "type": "string"
        },
        {
          "internalType": "string",
          "name": "_headerImageUrl",
          "type": "string"
        },
        {
          "internalType": "string",
          "name": "_description",
          "type": "string"
        },
        {
          "components": [
            {
              "internalType": "uint256",
              "name": "goalAmount",
              "type": "uint256"
            },
            {
              "internalType": "uint256",
              "name": "deadline",
              "type": "uint256"
            }
          ],
          "internalType": "struct MilestoneInfo[]",
          "name": "_milestones",
          "type": "tuple[]"
        }
      ],
      "name": "createProject",
      "outputs": [],
      "stateMutability": "nonpayable",
      "type": "function"
    },
    {
      "inputs": [
        {
          "internalType": "uint256",
          "name": "_projectIdx",
          "type": "uint256"
        }
      ],
      "name": "fundProject",
      "outputs": [],
      "stateMutability": "payable",
      "type": "function",
      "payable": true
    },
    {
      "inputs": [
        {
          "internalType": "uint256",
          "name": "_projectIdx",
          "type": "uint256"
        }
      ],
      "name": "checkCurrentMilestone",
      "outputs": [],
      "stateMutability": "nonpayable",
      "type": "function"
    },
    {
      "inputs": [
        {
          "internalType": "uint256",
          "name": "_projectIdx",
          "type": "uint256"
        }
      ],
      "name": "getCurrentMilestoneFunders",
      "outputs": [
        {
          "components": [
            {
              "internalType": "uint256",
              "name": "goalAmount",
              "type": "uint256"
            },
            {
              "internalType": "uint256",
              "name": "deadline",
              "type": "uint256"
            }
          ],
          "internalType": "struct MilestoneInfo",
          "name": "",
          "type": "tuple"
        }
      ],
      "stateMutability": "view",
      "type": "function",
      "constant": true
    },
    {
      "inputs": [
        {
          "internalType": "uint256",
          "name": "_projectIdx",
          "type": "uint256"
        }
      ],
      "name": "stopProject",
      "outputs": [],
      "stateMutability": "nonpayable",
      "type": "function"
    }
  ],
  "bytecode": "0x608060405234801561001057600080fd5b50336000806101000a81548173ffffffffffffffffffffffffffffffffffffffff021916908373ffffffffffffffffffffffffffffffffffffffff160217905550612612806100606000396000f3fe6080604052600436106100705760003560e01c806333ec0fc51161004e57806333ec0fc51461010c5780634e94e824146101495780636c563abe146101725780636db7a9601461018e57610070565b80630e4877d614610075578063107046bd146100a05780631a86e67d146100e3575b600080fd5b34801561008157600080fd5b5061008a6101b7565b60405161009791906116ad565b60405180910390f35b3480156100ac57600080fd5b506100c760048036038101906100c29190611712565b6101db565b6040516100da9796959493929190611802565b60405180910390f35b3480156100ef57600080fd5b5061010a60048036038101906101059190611ad8565b6103f2565b005b34801561011857600080fd5b50610133600480360381019061012e9190611712565b61078c565b6040516101409190611bed565b60405180910390f35b34801561015557600080fd5b50610170600480360381019061016b9190611712565b61085d565b005b61018c60048036038101906101879190611712565b6109aa565b005b34801561019a57600080fd5b506101b560048036038101906101b09190611712565b610fc2565b005b60008054906101000a900473ffffffffffffffffffffffffffffffffffffffff1681565b600181815481106101eb57600080fd5b90600052602060002090600802016000915090508060000160009054906101000a900473ffffffffffffffffffffffffffffffffffffffff169080600101805461023490611c37565b80601f016020809104026020016040519081016040528092919081815260200182805461026090611c37565b80156102ad5780601f10610282576101008083540402835291602001916102ad565b820191906000526020600020905b81548152906001019060200180831161029057829003601f168201915b5050505050908060020180546102c290611c37565b80601f01602080910402602001604051908101604052809291908181526020018280546102ee90611c37565b801561033b5780601f106103105761010080835404028352916020019161033b565b820191906000526020600020905b81548152906001019060200180831161031e57829003601f168201915b50505050509080600301805461035090611c37565b80601f016020809104026020016040519081016040528092919081815260200182805461037c90611c37565b80156103c95780601f1061039e576101008083540402835291602001916103c9565b820191906000526020600020905b8154815290600101906020018083116103ac57829003601f168201915b5050505050908060040154908060050154908060070160009054906101000a900460ff16905087565b60008054906101000a900473ffffffffffffffffffffffffffffffffffffffff1673ffffffffffffffffffffffffffffffffffffffff163373ffffffffffffffffffffffffffffffffffffffff1603610480576040517f08c379a000000000000000000000000000000000000000000000000000000000815260040161047790611cda565b60405180910390fd5b60008151116104c4576040517f08c379a00000000000000000000000000000000000000000000000000000000081526004016104bb90611d46565b60405180910390fd5b60005b81518110156105a45760008282815181106104e5576104e4611d66565b5b60200260200101516000015111610531576040517f08c379a000000000000000000000000000000000000000000000000000000000815260040161052890611de1565b60405180910390fd5b4282828151811061054557610544611d66565b5b60200260200101516020015111610591576040517f08c379a000000000000000000000000000000000000000000000000000000000815260040161058890611e4d565b60405180910390fd5b808061059c90611e9c565b9150506104c7565b506000600180816001815401808255809150500390600052602060002090600802019050338160000160006101000a81548173ffffffffffffffffffffffffffffffffffffffff021916908373ffffffffffffffffffffffffffffffffffffffff160217905550848160010190805190602001906106239291906115af565b508381600201908051906020019061063c9291906115af565b50828160030190805190602001906106559291906115af565b50600081600401819055506000816005018190555060018160070160006101000a81548160ff02191690831515021790555060005b82518110156107485760008260060160018160018154018082558091505003906000526020600020906006020190508382815181106106cc576106cb611d66565b5b60200260200101516000015181600001600001819055508382815181106106f6576106f5611d66565b5b60200260200101516020015181600001600101819055506000816002018190555060008160050160006101000a81548160ff02191690831515021790555050808061074090611e9c565b91505061068a565b507f1ac2092e16e28eef29d1832f3dc69da1b21284a1f3159d3b26cb238b22fe4f8a60018054905060405161077d9190611ee4565b60405180910390a15050505050565b610794611635565b6000600183815481106107aa576107a9611d66565b5b906000526020600020906008020190508060070160009054906101000a900460ff1661080b576040517f08c379a000000000000000000000000000000000000000000000000000000000815260040161080290611f4b565b60405180910390fd5b8060060181600501548154811061082557610824611d66565b5b906000526020600020906006020160000160405180604001604052908160008201548152602001600182015481525050915050919050565b60006001828154811061087357610872611d66565b5b906000526020600020906008020190508060070160009054906101000a900460ff166108d4576040517f08c379a00000000000000000000000000000000000000000000000000000000081526004016108cb90611fb7565b60405180910390fd5b6000816006018260050154815481106108f0576108ef611d66565b5b906000526020600020906006020190508060050160009054906101000a900460ff1615610952576040517f08c379a000000000000000000000000000000000000000000000000000000000815260040161094990612023565b60405180910390fd5b7f3f9ee693372748925082c0c5ba09ecffc5fddfeecf993becff877eac8a1e08bc816000016001015482600001600001548460040154846002015460405161099d9493929190612043565b60405180910390a1505050565b60018054905081106109f1576040517f08c379a00000000000000000000000000000000000000000000000000000000081526004016109e8906120d4565b60405180910390fd5b3373ffffffffffffffffffffffffffffffffffffffff1631341115610a4b576040517f08c379a0000000000000000000000000000000000000000000000000000000008152600401610a4290612166565b60405180910390fd5b60003411610a8e576040517f08c379a0000000000000000000000000000000000000000000000000000000008152600401610a85906121d2565b60405180910390fd5b600060018281548110610aa457610aa3611d66565b5b906000526020600020906008020190508060070160009054906101000a900460ff16610b05576040517f08c379a0000000000000000000000000000000000000000000000000000000008152600401610afc9061223e565b60405180910390fd5b600081600601826005015481548110610b2157610b20611d66565b5b9060005260206000209060060201905042816000016001015411610b7a576040517f08c379a0000000000000000000000000000000000000000000000000000000008152600401610b71906122aa565b60405180910390fd5b60008160040160003373ffffffffffffffffffffffffffffffffffffffff1673ffffffffffffffffffffffffffffffffffffffff1681526020019081526020016000205403610c295780600301339080600181540180825580915050600190039060005260206000200160009091909190916101000a81548173ffffffffffffffffffffffffffffffffffffffff021916908373ffffffffffffffffffffffffffffffffffffffff1602179055505b348160040160003373ffffffffffffffffffffffffffffffffffffffff1673ffffffffffffffffffffffffffffffffffffffff1681526020019081526020016000206000828254610c7a91906122ca565b9250508190555034816002016000828254610c9591906122ca565b9250508190555034826004016000828254610cb091906122ca565b925050819055505b806000016000015482600401541115610f7857600081600001600001548360040154610ce49190612320565b90508160000160000154826002018190555081600001600001548360040181905550808260040160003373ffffffffffffffffffffffffffffffffffffffff1673ffffffffffffffffffffffffffffffffffffffff1681526020019081526020016000206000828254610d579190612320565b9250508190555060018360060180549050610d729190612320565b836005015403610e4b5760008360070160006101000a81548160ff02191690831515021790555060003373ffffffffffffffffffffffffffffffffffffffff1682604051610dbf90612385565b60006040518083038185875af1925050503d8060008114610dfc576040519150601f19603f3d011682016040523d82523d6000602084013e610e01565b606091505b5050905080610e45576040517f08c379a0000000000000000000000000000000000000000000000000000000008152600401610e3c906123e6565b60405180910390fd5b50610f72565b610e54846110d7565b82600601836005015481548110610e6e57610e6d611d66565b5b9060005260206000209060060201915081600301339080600181540180825580915050600190039060005260206000200160009091909190916101000a81548173ffffffffffffffffffffffffffffffffffffffff021916908373ffffffffffffffffffffffffffffffffffffffff160217905550808260040160003373ffffffffffffffffffffffffffffffffffffffff1673ffffffffffffffffffffffffffffffffffffffff1681526020019081526020016000206000828254610f3491906122ca565b9250508190555080826002016000828254610f4f91906122ca565b9250508190555080836004016000828254610f6a91906122ca565b925050819055505b50610cb8565b7f17e2effa169c5dde193942abd21f6d49e7d32c15ab843da440cb2abdd10f1911833484600401548460020154604051610fb59493929190612043565b60405180910390a1505050565b60008054906101000a900473ffffffffffffffffffffffffffffffffffffffff1673ffffffffffffffffffffffffffffffffffffffff163373ffffffffffffffffffffffffffffffffffffffff16148061108c57506001818154811061102b5761102a611d66565b5b906000526020600020906008020160000160009054906101000a900473ffffffffffffffffffffffffffffffffffffffff1673ffffffffffffffffffffffffffffffffffffffff163373ffffffffffffffffffffffffffffffffffffffff16145b6110cb576040517f08c379a00000000000000000000000000000000000000000000000000000000081526004016110c290612478565b60405180910390fd5b6110d481611253565b50565b6000600182815481106110ed576110ec611d66565b5b9060005260206000209060080201905060008160060182600501548154811061111957611118611d66565b5b906000526020600020906006020190506000816002015490506000836005015411156111855782600601600184600501546111549190612320565b8154811061116557611164611d66565b5b906000526020600020906006020160020154816111829190612320565b90505b81600001600001548360040154106112435760018260050160006101000a81548160ff0219169083151502179055506111e28360000160009054906101000a900473ffffffffffffffffffffffffffffffffffffffff16826112f9565b600183600601805490506111f69190612320565b836005015410156112205782600501600081548092919061121690611e9c565b919050555061123e565b60008360070160006101000a81548160ff0219169083151502179055505b61124d565b61124c84611253565b5b50505050565b60006001828154811061126957611268611d66565b5b906000526020600020906008020190508060070160009054906101000a900460ff166112ca576040517f08c379a00000000000000000000000000000000000000000000000000000000081526004016112c1906124e4565b60405180910390fd5b60008160070160006101000a81548160ff0219169083151502179055506112f58282600501546113aa565b5050565b60008273ffffffffffffffffffffffffffffffffffffffff168260405161131f90612385565b60006040518083038185875af1925050503d806000811461135c576040519150601f19603f3d011682016040523d82523d6000602084013e611361565b606091505b50509050806113a5576040517f08c379a000000000000000000000000000000000000000000000000000000000815260040161139c90612550565b60405180910390fd5b505050565b6000600183815481106113c0576113bf611d66565b5b9060005260206000209060080201905060008160060183815481106113e8576113e7611d66565b5b9060005260206000209060060201905060005b81600301805490508110156115a857600082600301828154811061142257611421611d66565b5b9060005260206000200160009054906101000a900473ffffffffffffffffffffffffffffffffffffffff16905060008360040160008373ffffffffffffffffffffffffffffffffffffffff1673ffffffffffffffffffffffffffffffffffffffff16815260200190815260200160002054905060008111156115935760008460040160008473ffffffffffffffffffffffffffffffffffffffff1673ffffffffffffffffffffffffffffffffffffffff1681526020019081526020016000208190555060008273ffffffffffffffffffffffffffffffffffffffff168260405161150b90612385565b60006040518083038185875af1925050503d8060008114611548576040519150601f19603f3d011682016040523d82523d6000602084013e61154d565b606091505b5050905080611591576040517f08c379a0000000000000000000000000000000000000000000000000000000008152600401611588906125bc565b60405180910390fd5b505b505080806115a090611e9c565b9150506113fb565b5050505050565b8280546115bb90611c37565b90600052602060002090601f0160209004810192826115dd5760008555611624565b82601f106115f657805160ff1916838001178555611624565b82800160010185558215611624579182015b82811115611623578251825591602001919060010190611608565b5b509050611631919061164f565b5090565b604051806040016040528060008152602001600081525090565b5b80821115611668576000816000905550600101611650565b5090565b600073ffffffffffffffffffffffffffffffffffffffff82169050919050565b60006116978261166c565b9050919050565b6116a78161168c565b82525050565b60006020820190506116c2600083018461169e565b92915050565b6000604051905090565b600080fd5b600080fd5b6000819050919050565b6116ef816116dc565b81146116fa57600080fd5b50565b60008135905061170c816116e6565b92915050565b600060208284031215611728576117276116d2565b5b6000611736848285016116fd565b91505092915050565b600081519050919050565b600082825260208201905092915050565b60005b8381101561177957808201518184015260208101905061175e565b83811115611788576000848401525b50505050565b6000601f19601f8301169050919050565b60006117aa8261173f565b6117b4818561174a565b93506117c481856020860161175b565b6117cd8161178e565b840191505092915050565b6117e1816116dc565b82525050565b60008115159050919050565b6117fc816117e7565b82525050565b600060e082019050611817600083018a61169e565b8181036020830152611829818961179f565b9050818103604083015261183d818861179f565b90508181036060830152611851818761179f565b905061186060808301866117d8565b61186d60a08301856117d8565b61187a60c08301846117f3565b98975050505050505050565b600080fd5b600080fd5b7f4e487b7100000000000000000000000000000000000000000000000000000000600052604160045260246000fd5b6118c88261178e565b810181811067ffffffffffffffff821117156118e7576118e6611890565b5b80604052505050565b60006118fa6116c8565b905061190682826118bf565b919050565b600067ffffffffffffffff82111561192657611925611890565b5b61192f8261178e565b9050602081019050919050565b82818337600083830152505050565b600061195e6119598461190b565b6118f0565b90508281526020810184848401111561197a5761197961188b565b5b61198584828561193c565b509392505050565b600082601f8301126119a2576119a1611886565b5b81356119b284826020860161194b565b91505092915050565b600067ffffffffffffffff8211156119d6576119d5611890565b5b602082029050602081019050919050565b600080fd5b600080fd5b600060408284031215611a0757611a066119ec565b5b611a1160406118f0565b90506000611a21848285016116fd565b6000830152506020611a35848285016116fd565b60208301525092915050565b6000611a54611a4f846119bb565b6118f0565b90508083825260208201905060408402830185811115611a7757611a766119e7565b5b835b81811015611aa05780611a8c88826119f1565b845260208401935050604081019050611a79565b5050509392505050565b600082601f830112611abf57611abe611886565b5b8135611acf848260208601611a41565b91505092915050565b60008060008060808587031215611af257611af16116d2565b5b600085013567ffffffffffffffff811115611b1057611b0f6116d7565b5b611b1c8782880161198d565b945050602085013567ffffffffffffffff811115611b3d57611b3c6116d7565b5b611b498782880161198d565b935050604085013567ffffffffffffffff811115611b6a57611b696116d7565b5b611b768782880161198d565b925050606085013567ffffffffffffffff811115611b9757611b966116d7565b5b611ba387828801611aaa565b91505092959194509250565b611bb8816116dc565b82525050565b604082016000820151611bd46000850182611baf565b506020820151611be76020850182611baf565b50505050565b6000604082019050611c026000830184611bbe565b92915050565b7f4e487b7100000000000000000000000000000000000000000000000000000000600052602260045260246000fd5b60006002820490506001821680611c4f57607f821691505b602082108103611c6257611c61611c08565b5b50919050565b7f53797374656d206f776e65722063616e2774206372656174652070726f6a656360008201527f7473000000000000000000000000000000000000000000000000000000000000602082015250565b6000611cc460228361174a565b9150611ccf82611c68565b604082019050919050565b60006020820190508181036000830152611cf381611cb7565b9050919050565b7f4d7573742068617665206174206c65617374206f6e65206d696c6573746f6e65600082015250565b6000611d3060208361174a565b9150611d3b82611cfa565b602082019050919050565b60006020820190508181036000830152611d5f81611d23565b9050919050565b7f4e487b7100000000000000000000000000000000000000000000000000000000600052603260045260246000fd5b7f476f616c20616d6f756e742063616e2774206265203000000000000000000000600082015250565b6000611dcb60168361174a565b9150611dd682611d95565b602082019050919050565b60006020820190508181036000830152611dfa81611dbe565b9050919050565b7f446561646c696e652063616e277420626520696e207468652070617374000000600082015250565b6000611e37601d8361174a565b9150611e4282611e01565b602082019050919050565b60006020820190508181036000830152611e6681611e2a565b9050919050565b7f4e487b7100000000000000000000000000000000000000000000000000000000600052601160045260246000fd5b6000611ea7826116dc565b91507fffffffffffffffffffffffffffffffffffffffffffffffffffffffffffffffff8203611ed957611ed8611e6d565b5b600182019050919050565b6000602082019050611ef960008301846117d8565b92915050565b7f43616e6e6f74207669657720696e6163746976652070726f6a65637400000000600082015250565b6000611f35601c8361174a565b9150611f4082611eff565b602082019050919050565b60006020820190508181036000830152611f6481611f28565b9050919050565b7f50726f6a656374206d7573742062652061637469766500000000000000000000600082015250565b6000611fa160168361174a565b9150611fac82611f6b565b602082019050919050565b60006020820190508181036000830152611fd081611f94565b9050919050565b7f4d696c6573746f6e652073686f756c64206265206e6f74207265616368656400600082015250565b600061200d601f8361174a565b915061201882611fd7565b602082019050919050565b6000602082019050818103600083015261203c81612000565b9050919050565b600060808201905061205860008301876117d8565b61206560208301866117d8565b61207260408301856117d8565b61207f60608301846117d8565b95945050505050565b7f50726f6a65637420646f65736e27742065786973740000000000000000000000600082015250565b60006120be60158361174a565b91506120c982612088565b602082019050919050565b600060208201905081810360008301526120ed816120b1565b9050919050565b7f596f7520646f6e74206861766520656e6f756768206d6f6e657920746f20667560008201527f6e64000000000000000000000000000000000000000000000000000000000000602082015250565b600061215060228361174a565b915061215b826120f4565b604082019050919050565b6000602082019050818103600083015261217f81612143565b9050919050565b7f46756e6420616d6f756e742063616e2774206265203000000000000000000000600082015250565b60006121bc60168361174a565b91506121c782612186565b602082019050919050565b600060208201905081810360008301526121eb816121af565b9050919050565b7f50726f6a656374206d7573742062652061637469766520746f2066756e640000600082015250565b6000612228601e8361174a565b9150612233826121f2565b602082019050919050565b600060208201905081810360008301526122578161221b565b9050919050565b7f596f752063616e27742066756e6420616674657220646561646c696e65000000600082015250565b6000612294601d8361174a565b915061229f8261225e565b602082019050919050565b600060208201905081810360008301526122c381612287565b9050919050565b60006122d5826116dc565b91506122e0836116dc565b9250827fffffffffffffffffffffffffffffffffffffffffffffffffffffffffffffffff0382111561231557612314611e6d565b5b828201905092915050565b600061232b826116dc565b9150612336836116dc565b92508282101561234957612348611e6d565b5b828203905092915050565b600081905092915050565b50565b600061236f600083612354565b915061237a8261235f565b600082019050919050565b600061239082612362565b9150819050919050565b7f4661696c656420746f2072657475726e20737572706c75730000000000000000600082015250565b60006123d060188361174a565b91506123db8261239a565b602082019050919050565b600060208201905081810360008301526123ff816123c3565b9050919050565b7f4f6e6c792073797374656d206f776e6572206f722070726f6a656374206f776e60008201527f65722063616e2073746f702070726f6a65637473000000000000000000000000602082015250565b600061246260348361174a565b915061246d82612406565b604082019050919050565b6000602082019050818103600083015261249181612455565b9050919050565b7f43616e6e6f742073746f7020696e6163746976652070726f6a65637400000000600082015250565b60006124ce601c8361174a565b91506124d982612498565b602082019050919050565b600060208201905081810360008301526124fd816124c1565b9050919050565b7f5472616e7366657220746f2063726561746f72206661696c6564000000000000600082015250565b600061253a601a8361174a565b915061254582612504565b602082019050919050565b600060208201905081810360008301526125698161252d565b9050919050565b7f526566756e64206661696c656400000000000000000000000000000000000000600082015250565b60006125a6600d8361174a565b91506125b182612570565b602082019050919050565b600060208201905081810360008301526125d581612599565b905091905056fea264697066735822122007a7a24651de88fcc662aa8e04826e978c549c3a0b79279e92aed501982f29fa64736f6c634300080d0033",
  "immutableReferences": {},
  "source": "// SPDX-License-Identifier: MIT\r\npragma solidity ^0.8.13;\r\n/*\r\n    Crowdsourcing with milestones, expected logic:\r\n    - There is a general system owner, who owns the crowdsourcing \"page\"\r\n    - Users can create projects, which other users can fund:\r\n    - Those projects have milestones, upon reaching a certain milestone by a certain date,\r\n    the project creator receives the money. Else (if it's not reached by a certain date),\r\n    all investors are refunded.\r\n\r\n    E.g. PC1 creates a project \"Cool project\" with 3 milestones:\r\n    100 euros by Nov 20\r\n    1000 eur by Nov 30\r\n    10000 eur by Dec 30\r\n\r\n    Nov 18\r\n    F1 funds 50 eur, F2 funds 25 eur, F3 Funds 26 Eur\r\n    Nov 19\r\n    F4 funds 50 eur\r\n    Nov 20\r\n    Check for milestone 1 deadline, reached. PC1 gets 151 eur. project not cancelled\r\n    Nov 29\r\n    F1 funds 500 eur, F2 funds 9 eur\r\n    Nov 30\r\n    Check for milestone 2 deadline - not reached. Project cancelled.\r\n    F1 gets 500 eur back, F2 gets 9 eur back, F3, F4 get nothing back.\r\n    PC1 keeps 101 eur from before.\r\n*/\r\n\r\nstruct Project {\r\n    address creator;\r\n    string name;\r\n    string headerImageUrl;\r\n    string description;\r\n    uint totalFunded;\r\n    uint currentMilestoneIndex;\r\n    Milestone[] milestones;\r\n    bool isActive; // i.e. not cancelled\r\n}\r\n\r\nstruct Milestone {\r\n    MilestoneInfo info;\r\n    uint totalFunded; // only current milestone total funded, used to transfer money to owner only lol\r\n    address[] funderAddresses;\r\n    mapping(address => uint) funders; // adress amount funded\r\n    bool reached;\r\n}\r\n\r\nstruct MilestoneInfo {\r\n    uint goalAmount;\r\n    uint deadline;\r\n}\r\n\r\ncontract CrowdSourcing {\r\n    event ProjectCreated(uint projectIdx);\r\n\r\n    event ProjectFunded(\r\n        uint projectIdx,\r\n        uint amount,\r\n        uint totalFunded,\r\n        uint currentMilestoneTotalFunded\r\n    );\r\n\r\n    event CurrentMilestoneStatus(\r\n        uint deadline,\r\n        uint goalAmount,\r\n        uint totalFunded,\r\n        uint currentMileStoneTotalFunded\r\n    );\r\n\r\n    address public sysOwner;\r\n\r\n    Project[] public projects;\r\n\r\n    constructor() {\r\n        sysOwner = msg.sender;\r\n    }\r\n\r\n    function createProject(\r\n        string memory _name,\r\n        string memory _headerImageUrl,\r\n        string memory _description,\r\n        MilestoneInfo[] memory _milestones\r\n    ) external {\r\n        require(msg.sender != sysOwner, \"System owner can't create projects\");\r\n        require(_milestones.length > 0, \"Must have at least one milestone\");\r\n        for (uint i = 0; i < _milestones.length; i++) {\r\n            require(_milestones[i].goalAmount > 0, \"Goal amount can't be 0\");\r\n            require(\r\n                _milestones[i].deadline > block.timestamp,\r\n                \"Deadline can't be in the past\"\r\n            );\r\n        }\r\n\r\n        Project storage project = projects.push();\r\n        project.creator = msg.sender;\r\n        project.name = _name;\r\n        project.headerImageUrl = _headerImageUrl;\r\n        project.description = _description;\r\n        project.totalFunded = 0;\r\n        project.currentMilestoneIndex = 0;\r\n        project.isActive = true;\r\n\r\n        for (uint i = 0; i < _milestones.length; i++) {\r\n            Milestone storage milestone = project.milestones.push();\r\n            milestone.info.goalAmount = _milestones[i].goalAmount;\r\n            milestone.info.deadline = _milestones[i].deadline;\r\n            milestone.totalFunded = 0;\r\n            milestone.reached = false;\r\n        }\r\n\r\n        emit ProjectCreated(projects.length);\r\n    }\r\n\r\n    function fundProject(uint _projectIdx) external payable {\r\n        require(_projectIdx < projects.length, \"Project doesn't exist\");\r\n        require(\r\n            msg.value <= msg.sender.balance,\r\n            \"You dont have enough money to fund\"\r\n        );\r\n        require(msg.value > 0, \"Fund amount can't be 0\");\r\n\r\n        Project storage project = projects[_projectIdx];\r\n        require(project.isActive, \"Project must be active to fund\");\r\n\r\n        Milestone storage currentMilestone = project.milestones[\r\n            project.currentMilestoneIndex\r\n        ];\r\n        require(\r\n            currentMilestone.info.deadline > block.timestamp,\r\n            \"You can't fund after deadline\"\r\n        );\r\n     \r\n        if (currentMilestone.funders[msg.sender] == 0) {\r\n            currentMilestone.funderAddresses.push(msg.sender);\r\n        }\r\n\r\n        currentMilestone.funders[msg.sender] += msg.value;\r\n        currentMilestone.totalFunded += msg.value;\r\n        project.totalFunded += msg.value;\r\n\r\n        while(project.totalFunded > currentMilestone.info.goalAmount) {\r\n\r\n            uint surplus = project.totalFunded - currentMilestone.info.goalAmount;\r\n            currentMilestone.totalFunded = currentMilestone.info.goalAmount;\r\n            project.totalFunded = currentMilestone.info.goalAmount;\r\n            currentMilestone.funders[msg.sender] -= surplus;\r\n            \r\n            if(project.currentMilestoneIndex == project.milestones.length - 1) {\r\n                project.isActive = false;\r\n                (bool success, ) = msg.sender.call{value: surplus}(\"\");\r\n                require(success, \"Failed to return surplus\");    \r\n            } else {\r\n                initiateNextMilestone(_projectIdx);\r\n                currentMilestone = project.milestones[project.currentMilestoneIndex];\r\n                currentMilestone.funderAddresses.push(msg.sender);\r\n                currentMilestone.funders[msg.sender] += surplus;\r\n                currentMilestone.totalFunded += surplus;\r\n                project.totalFunded += surplus;\r\n            }\r\n        }\r\n\r\n        emit ProjectFunded(\r\n            _projectIdx,\r\n            msg.value,\r\n            project.totalFunded,\r\n            currentMilestone.totalFunded\r\n        );\r\n    }\r\n\r\n    function checkCurrentMilestone(uint _projectIdx) external {\r\n        Project storage project = projects[_projectIdx];\r\n        require(project.isActive, \"Project must be active\");\r\n        Milestone storage currentMilestone = project.milestones[\r\n            project.currentMilestoneIndex\r\n        ];\r\n        require(!currentMilestone.reached, \"Milestone should be not reached\");\r\n\r\n        emit CurrentMilestoneStatus(\r\n            currentMilestone.info.deadline,\r\n            currentMilestone.info.goalAmount,\r\n            project.totalFunded,\r\n            currentMilestone.totalFunded\r\n        );\r\n    }\r\n\r\n    //this function will be used only to move onto next milestone once one was completed\r\n    function initiateNextMilestone(uint _projectIdx) private {\r\n        Project storage project = projects[_projectIdx];\r\n        Milestone storage currentMilestone = project.milestones[\r\n            project.currentMilestoneIndex\r\n        ];\r\n        uint moneyAmountToSend = currentMilestone.totalFunded;\r\n        if(project.currentMilestoneIndex > 0) {\r\n            moneyAmountToSend -= project.milestones[project.currentMilestoneIndex - 1].totalFunded;\r\n        }\r\n    \r\n        if (project.totalFunded >= currentMilestone.info.goalAmount) {\r\n            currentMilestone.reached = true;\r\n            sendMoneyToOwner(project.creator, moneyAmountToSend);\r\n\r\n            if (project.currentMilestoneIndex < project.milestones.length - 1) {\r\n                project.currentMilestoneIndex++;\r\n            } else {\r\n                // project is \"done\" after being fully funded\r\n                project.isActive = false;\r\n            }\r\n        } else {\r\n            // cancel if milestone not reached after timestamp\r\n            stopProjectHelper(_projectIdx);\r\n        }\r\n    }\r\n\r\n    function sendMoneyToOwner(\r\n        address projectCreator,\r\n        uint moneyAmount\r\n    ) private {\r\n        (bool success, ) = projectCreator.call{value: moneyAmount}(\"\");\r\n        require(success, \"Transfer to creator failed\");\r\n    }\r\n\r\n    function refundMilestone(uint _projectIdx, uint _milestoneIdx) private {\r\n        Project storage project = projects[_projectIdx];\r\n        Milestone storage milestone = project.milestones[_milestoneIdx];\r\n\r\n        for (uint i = 0; i < milestone.funderAddresses.length; i++) {\r\n            address funder = milestone.funderAddresses[i];\r\n            uint amount = milestone.funders[funder];\r\n\r\n            if (amount > 0) {\r\n                milestone.funders[funder] = 0;\r\n                (bool success, ) = funder.call{value: amount}(\"\");\r\n                require(success, \"Refund failed\");\r\n            }\r\n        }\r\n    }\r\n\r\n    function getCurrentMilestoneFunders(uint _projectIdx) public view returns (MilestoneInfo memory) {\r\n        Project storage project = projects[_projectIdx];\r\n        require(project.isActive, \"Cannot view inactive project\");\r\n        return project.milestones[project.currentMilestoneIndex].info ;\r\n    }\r\n\r\n    // To stop projects that the sysOwner deems as scams/illega/whatever\r\n    // or for when project owners realize they aren't feasible or smt idk\r\n    function stopProject(uint _projectIdx) external {\r\n        require(\r\n            msg.sender == sysOwner ||\r\n                msg.sender == projects[_projectIdx].creator,\r\n            \"Only system owner or project owner can stop projects\"\r\n        );\r\n        stopProjectHelper(_projectIdx);\r\n    }\r\n\r\n    function stopProjectHelper(uint _projectIdx) private {\r\n        Project storage project = projects[_projectIdx];\r\n        require(project.isActive, \"Cannot stop inactive project\");\r\n        project.isActive = false;\r\n        refundMilestone(_projectIdx, project.currentMilestoneIndex);\r\n    }\r\n\r\n    /*\r\n    TODO LIST:\r\n    - daug kitu dalyku. visa logika\r\n    - pratestuot ar tai kas egizstuoja veikia lmao\r\n    */\r\n}\r\n",
  "sourcePath": "C:\\Users\\JustinasLetukas\\Documents\\Github\\Blockchain-4-dApps\\contracts\\CrowdSourcing.sol",
  "compiler": {
    "name": "solc",
    "version": "0.8.13+commit.abaa5c0e.Emscripten.clang"
  },
  "schemaVersion": "3.4.16",
  "updatedAt": "2025-12-08T00:01:21.106Z",
  "networkType": "ethereum",
  "devdoc": {
    "kind": "dev",
    "methods": {},
    "version": 1
  },
  "userdoc": {
    "kind": "user",
    "methods": {},
    "version": 1
  }
}