{
  "contractName": "CrowdSourcing",
  "abi": [
    {
      "inputs": [],
      "stateMutability": "nonpayable",
      "type": "constructor"
    },
    {
      "anonymous": false,
      "inputs": [
        {
          "indexed": false,
          "internalType": "uint256",
          "name": "deadline",
          "type": "uint256"
        },
        {
          "indexed": false,
          "internalType": "uint256",
          "name": "goalAmount",
          "type": "uint256"
        },
        {
          "indexed": false,
          "internalType": "uint256",
          "name": "totalFunded",
          "type": "uint256"
        },
        {
          "indexed": false,
          "internalType": "uint256",
          "name": "currentMileStoneTotalFunded",
          "type": "uint256"
        }
      ],
      "name": "CurrentMilestoneStatus",
      "type": "event"
    },
    {
      "anonymous": false,
      "inputs": [
        {
          "indexed": false,
          "internalType": "uint256",
          "name": "projectIdx",
          "type": "uint256"
        }
      ],
      "name": "ProjectCreated",
      "type": "event"
    },
    {
      "anonymous": false,
      "inputs": [
        {
          "indexed": false,
          "internalType": "uint256",
          "name": "projectIdx",
          "type": "uint256"
        },
        {
          "indexed": false,
          "internalType": "uint256",
          "name": "amount",
          "type": "uint256"
        },
        {
          "indexed": false,
          "internalType": "uint256",
          "name": "totalFunded",
          "type": "uint256"
        },
        {
          "indexed": false,
          "internalType": "uint256",
          "name": "currentMilestoneTotalFunded",
          "type": "uint256"
        }
      ],
      "name": "ProjectFunded",
      "type": "event"
    },
    {
      "inputs": [
        {
          "internalType": "uint256",
          "name": "",
          "type": "uint256"
        }
      ],
      "name": "projects",
      "outputs": [
        {
          "internalType": "address",
          "name": "creator",
          "type": "address"
        },
        {
          "internalType": "string",
          "name": "name",
          "type": "string"
        },
        {
          "internalType": "string",
          "name": "headerImageUrl",
          "type": "string"
        },
        {
          "internalType": "string",
          "name": "description",
          "type": "string"
        },
        {
          "internalType": "uint256",
          "name": "totalFunded",
          "type": "uint256"
        },
        {
          "internalType": "uint256",
          "name": "currentMilestoneIndex",
          "type": "uint256"
        },
        {
          "internalType": "bool",
          "name": "isActive",
          "type": "bool"
        }
      ],
      "stateMutability": "view",
      "type": "function",
      "constant": true
    },
    {
      "inputs": [],
      "name": "sysOwner",
      "outputs": [
        {
          "internalType": "address",
          "name": "",
          "type": "address"
        }
      ],
      "stateMutability": "view",
      "type": "function",
      "constant": true
    },
    {
      "inputs": [
        {
          "internalType": "string",
          "name": "_name",
          "type": "string"
        },
        {
          "internalType": "string",
          "name": "_headerImageUrl",
          "type": "string"
        },
        {
          "internalType": "string",
          "name": "_description",
          "type": "string"
        },
        {
          "components": [
            {
              "internalType": "uint256",
              "name": "goalAmount",
              "type": "uint256"
            },
            {
              "internalType": "uint256",
              "name": "deadline",
              "type": "uint256"
            }
          ],
          "internalType": "struct MilestoneInfo[]",
          "name": "_milestones",
          "type": "tuple[]"
        }
      ],
      "name": "createProject",
      "outputs": [],
      "stateMutability": "nonpayable",
      "type": "function"
    },
    {
      "inputs": [
        {
          "internalType": "uint256",
          "name": "_projectIdx",
          "type": "uint256"
        }
      ],
      "name": "fundProject",
      "outputs": [],
      "stateMutability": "payable",
      "type": "function",
      "payable": true
    },
    {
      "inputs": [
        {
          "internalType": "uint256",
          "name": "_projectIdx",
          "type": "uint256"
        }
      ],
      "name": "checkCurrentMilestone",
      "outputs": [],
      "stateMutability": "nonpayable",
      "type": "function"
    },
    {
      "inputs": [
        {
          "internalType": "uint256",
          "name": "_projectIdx",
          "type": "uint256"
        }
      ],
      "name": "checkMilestone",
      "outputs": [],
      "stateMutability": "nonpayable",
      "type": "function"
    },
    {
      "inputs": [
        {
          "internalType": "uint256",
          "name": "_projectIdx",
          "type": "uint256"
        }
      ],
      "name": "stopProject",
      "outputs": [],
      "stateMutability": "nonpayable",
      "type": "function"
    }
  ],
  "bytecode": "0x608060405234801561001057600080fd5b50336000806101000a81548173ffffffffffffffffffffffffffffffffffffffff021916908373ffffffffffffffffffffffffffffffffffffffff160217905550612164806100606000396000f3fe6080604052600436106100705760003560e01c80631a86e67d1161004e5780631a86e67d1461010c5780634e94e824146101355780636c563abe1461015e5780636db7a9601461017a57610070565b806308e38af9146100755780630e4877d61461009e578063107046bd146100c9575b600080fd5b34801561008157600080fd5b5061009c60048036038101906100979190611339565b6101a3565b005b3480156100aa57600080fd5b506100b36103b3565b6040516100c091906113a7565b60405180910390f35b3480156100d557600080fd5b506100f060048036038101906100eb9190611339565b6103d7565b6040516101039796959493929190611485565b60405180910390f35b34801561011857600080fd5b50610133600480360381019061012e919061175b565b6105ee565b005b34801561014157600080fd5b5061015c60048036038101906101579190611339565b610988565b005b61017860048036038101906101739190611339565b610ad5565b005b34801561018657600080fd5b506101a1600480360381019061019c9190611339565b610e2c565b005b6000600182815481106101b9576101b8611832565b5b906000526020600020906008020190506000816006018260050154815481106101e5576101e4611832565b5b906000526020600020906006020190508160070160009054906101000a900460ff16610246576040517f08c379a000000000000000000000000000000000000000000000000000000000815260040161023d906118ad565b60405180910390fd5b8060050160009054906101000a900460ff1615610298576040517f08c379a000000000000000000000000000000000000000000000000000000000815260040161028f90611919565b60405180910390fd5b80600001600101544210156102e2576040517f08c379a00000000000000000000000000000000000000000000000000000000081526004016102d990611985565b60405180910390fd5b80600001600001548260040154106103a45760018160050160006101000a81548160ff0219169083151502179055506103438260000160009054906101000a900473ffffffffffffffffffffffffffffffffffffffff168260020154610f41565b6001826006018054905061035791906119d4565b826005015410156103815781600501600081548092919061037790611a08565b919050555061039f565b60008260070160006101000a81548160ff0219169083151502179055505b6103ae565b6103ad83610ff2565b5b505050565b60008054906101000a900473ffffffffffffffffffffffffffffffffffffffff1681565b600181815481106103e757600080fd5b90600052602060002090600802016000915090508060000160009054906101000a900473ffffffffffffffffffffffffffffffffffffffff169080600101805461043090611a7f565b80601f016020809104026020016040519081016040528092919081815260200182805461045c90611a7f565b80156104a95780601f1061047e576101008083540402835291602001916104a9565b820191906000526020600020905b81548152906001019060200180831161048c57829003601f168201915b5050505050908060020180546104be90611a7f565b80601f01602080910402602001604051908101604052809291908181526020018280546104ea90611a7f565b80156105375780601f1061050c57610100808354040283529160200191610537565b820191906000526020600020905b81548152906001019060200180831161051a57829003601f168201915b50505050509080600301805461054c90611a7f565b80601f016020809104026020016040519081016040528092919081815260200182805461057890611a7f565b80156105c55780601f1061059a576101008083540402835291602001916105c5565b820191906000526020600020905b8154815290600101906020018083116105a857829003601f168201915b5050505050908060040154908060050154908060070160009054906101000a900460ff16905087565b60008054906101000a900473ffffffffffffffffffffffffffffffffffffffff1673ffffffffffffffffffffffffffffffffffffffff163373ffffffffffffffffffffffffffffffffffffffff160361067c576040517f08c379a000000000000000000000000000000000000000000000000000000000815260040161067390611b22565b60405180910390fd5b60008151116106c0576040517f08c379a00000000000000000000000000000000000000000000000000000000081526004016106b790611b8e565b60405180910390fd5b60005b81518110156107a05760008282815181106106e1576106e0611832565b5b6020026020010151600001511161072d576040517f08c379a000000000000000000000000000000000000000000000000000000000815260040161072490611bfa565b60405180910390fd5b4282828151811061074157610740611832565b5b6020026020010151602001511161078d576040517f08c379a000000000000000000000000000000000000000000000000000000000815260040161078490611c66565b60405180910390fd5b808061079890611a08565b9150506106c3565b506000600180816001815401808255809150500390600052602060002090600802019050338160000160006101000a81548173ffffffffffffffffffffffffffffffffffffffff021916908373ffffffffffffffffffffffffffffffffffffffff1602179055508481600101908051906020019061081f92919061124c565b508381600201908051906020019061083892919061124c565b508281600301908051906020019061085192919061124c565b50600081600401819055506000816005018190555060018160070160006101000a81548160ff02191690831515021790555060005b82518110156109445760008260060160018160018154018082558091505003906000526020600020906006020190508382815181106108c8576108c7611832565b5b60200260200101516000015181600001600001819055508382815181106108f2576108f1611832565b5b60200260200101516020015181600001600101819055506000816002018190555060008160050160006101000a81548160ff02191690831515021790555050808061093c90611a08565b915050610886565b507f1ac2092e16e28eef29d1832f3dc69da1b21284a1f3159d3b26cb238b22fe4f8a6001805490506040516109799190611c86565b60405180910390a15050505050565b60006001828154811061099e5761099d611832565b5b906000526020600020906008020190508060070160009054906101000a900460ff166109ff576040517f08c379a00000000000000000000000000000000000000000000000000000000081526004016109f6906118ad565b60405180910390fd5b600081600601826005015481548110610a1b57610a1a611832565b5b906000526020600020906006020190508060050160009054906101000a900460ff1615610a7d576040517f08c379a0000000000000000000000000000000000000000000000000000000008152600401610a7490611919565b60405180910390fd5b7f3f9ee693372748925082c0c5ba09ecffc5fddfeecf993becff877eac8a1e08bc8160000160010154826000016000015484600401548460020154604051610ac89493929190611ca1565b60405180910390a1505050565b6001805490508110610b1c576040517f08c379a0000000000000000000000000000000000000000000000000000000008152600401610b1390611d32565b60405180910390fd5b3373ffffffffffffffffffffffffffffffffffffffff1631341115610b76576040517f08c379a0000000000000000000000000000000000000000000000000000000008152600401610b6d90611dc4565b60405180910390fd5b60003411610bb9576040517f08c379a0000000000000000000000000000000000000000000000000000000008152600401610bb090611e30565b60405180910390fd5b600060018281548110610bcf57610bce611832565b5b906000526020600020906008020190508060070160009054906101000a900460ff16610c30576040517f08c379a0000000000000000000000000000000000000000000000000000000008152600401610c2790611e9c565b60405180910390fd5b600081600601826005015481548110610c4c57610c4b611832565b5b9060005260206000209060060201905042816000016001015411610ca5576040517f08c379a0000000000000000000000000000000000000000000000000000000008152600401610c9c90611f08565b60405180910390fd5b348160040160003373ffffffffffffffffffffffffffffffffffffffff1673ffffffffffffffffffffffffffffffffffffffff1681526020019081526020016000206000828254610cf69190611f28565b9250508190555034816002016000828254610d119190611f28565b9250508190555034826004016000828254610d2c9190611f28565b9250508190555060008160040160003373ffffffffffffffffffffffffffffffffffffffff1673ffffffffffffffffffffffffffffffffffffffff1681526020019081526020016000205403610de25780600301339080600181540180825580915050600190039060005260206000200160009091909190916101000a81548173ffffffffffffffffffffffffffffffffffffffff021916908373ffffffffffffffffffffffffffffffffffffffff1602179055505b7f17e2effa169c5dde193942abd21f6d49e7d32c15ab843da440cb2abdd10f1911833484600401548460020154604051610e1f9493929190611ca1565b60405180910390a1505050565b60008054906101000a900473ffffffffffffffffffffffffffffffffffffffff1673ffffffffffffffffffffffffffffffffffffffff163373ffffffffffffffffffffffffffffffffffffffff161480610ef6575060018181548110610e9557610e94611832565b5b906000526020600020906008020160000160009054906101000a900473ffffffffffffffffffffffffffffffffffffffff1673ffffffffffffffffffffffffffffffffffffffff163373ffffffffffffffffffffffffffffffffffffffff16145b610f35576040517f08c379a0000000000000000000000000000000000000000000000000000000008152600401610f2c90611ff0565b60405180910390fd5b610f3e81610ff2565b50565b60008273ffffffffffffffffffffffffffffffffffffffff1682604051610f6790612041565b60006040518083038185875af1925050503d8060008114610fa4576040519150601f19603f3d011682016040523d82523d6000602084013e610fa9565b606091505b5050905080610fed576040517f08c379a0000000000000000000000000000000000000000000000000000000008152600401610fe4906120a2565b60405180910390fd5b505050565b60006001828154811061100857611007611832565b5b9060005260206000209060080201905060008160070160006101000a81548160ff021916908315150217905550611043828260050154611047565b5050565b60006001838154811061105d5761105c611832565b5b90600052602060002090600802019050600081600601838154811061108557611084611832565b5b9060005260206000209060060201905060005b81600301805490508110156112455760008260030182815481106110bf576110be611832565b5b9060005260206000200160009054906101000a900473ffffffffffffffffffffffffffffffffffffffff16905060008360040160008373ffffffffffffffffffffffffffffffffffffffff1673ffffffffffffffffffffffffffffffffffffffff16815260200190815260200160002054905060008111156112305760008460040160008473ffffffffffffffffffffffffffffffffffffffff1673ffffffffffffffffffffffffffffffffffffffff1681526020019081526020016000208190555060008273ffffffffffffffffffffffffffffffffffffffff16826040516111a890612041565b60006040518083038185875af1925050503d80600081146111e5576040519150601f19603f3d011682016040523d82523d6000602084013e6111ea565b606091505b505090508061122e576040517f08c379a00000000000000000000000000000000000000000000000000000000081526004016112259061210e565b60405180910390fd5b505b5050808061123d90611a08565b915050611098565b5050505050565b82805461125890611a7f565b90600052602060002090601f01602090048101928261127a57600085556112c1565b82601f1061129357805160ff19168380011785556112c1565b828001600101855582156112c1579182015b828111156112c05782518255916020019190600101906112a5565b5b5090506112ce91906112d2565b5090565b5b808211156112eb5760008160009055506001016112d3565b5090565b6000604051905090565b600080fd5b600080fd5b6000819050919050565b61131681611303565b811461132157600080fd5b50565b6000813590506113338161130d565b92915050565b60006020828403121561134f5761134e6112f9565b5b600061135d84828501611324565b91505092915050565b600073ffffffffffffffffffffffffffffffffffffffff82169050919050565b600061139182611366565b9050919050565b6113a181611386565b82525050565b60006020820190506113bc6000830184611398565b92915050565b600081519050919050565b600082825260208201905092915050565b60005b838110156113fc5780820151818401526020810190506113e1565b8381111561140b576000848401525b50505050565b6000601f19601f8301169050919050565b600061142d826113c2565b61143781856113cd565b93506114478185602086016113de565b61145081611411565b840191505092915050565b61146481611303565b82525050565b60008115159050919050565b61147f8161146a565b82525050565b600060e08201905061149a600083018a611398565b81810360208301526114ac8189611422565b905081810360408301526114c08188611422565b905081810360608301526114d48187611422565b90506114e3608083018661145b565b6114f060a083018561145b565b6114fd60c0830184611476565b98975050505050505050565b600080fd5b600080fd5b7f4e487b7100000000000000000000000000000000000000000000000000000000600052604160045260246000fd5b61154b82611411565b810181811067ffffffffffffffff8211171561156a57611569611513565b5b80604052505050565b600061157d6112ef565b90506115898282611542565b919050565b600067ffffffffffffffff8211156115a9576115a8611513565b5b6115b282611411565b9050602081019050919050565b82818337600083830152505050565b60006115e16115dc8461158e565b611573565b9050828152602081018484840111156115fd576115fc61150e565b5b6116088482856115bf565b509392505050565b600082601f83011261162557611624611509565b5b81356116358482602086016115ce565b91505092915050565b600067ffffffffffffffff82111561165957611658611513565b5b602082029050602081019050919050565b600080fd5b600080fd5b60006040828403121561168a5761168961166f565b5b6116946040611573565b905060006116a484828501611324565b60008301525060206116b884828501611324565b60208301525092915050565b60006116d76116d28461163e565b611573565b905080838252602082019050604084028301858111156116fa576116f961166a565b5b835b81811015611723578061170f8882611674565b8452602084019350506040810190506116fc565b5050509392505050565b600082601f83011261174257611741611509565b5b81356117528482602086016116c4565b91505092915050565b60008060008060808587031215611775576117746112f9565b5b600085013567ffffffffffffffff811115611793576117926112fe565b5b61179f87828801611610565b945050602085013567ffffffffffffffff8111156117c0576117bf6112fe565b5b6117cc87828801611610565b935050604085013567ffffffffffffffff8111156117ed576117ec6112fe565b5b6117f987828801611610565b925050606085013567ffffffffffffffff81111561181a576118196112fe565b5b6118268782880161172d565b91505092959194509250565b7f4e487b7100000000000000000000000000000000000000000000000000000000600052603260045260246000fd5b7f50726f6a656374206d7573742062652061637469766500000000000000000000600082015250565b60006118976016836113cd565b91506118a282611861565b602082019050919050565b600060208201905081810360008301526118c68161188a565b9050919050565b7f4d696c6573746f6e652073686f756c64206265206e6f74207265616368656400600082015250565b6000611903601f836113cd565b915061190e826118cd565b602082019050919050565b60006020820190508181036000830152611932816118f6565b9050919050565b7f43616e206f6e6c79206368656b636b206166746572206d696c6573746f6e6500600082015250565b600061196f601f836113cd565b915061197a82611939565b602082019050919050565b6000602082019050818103600083015261199e81611962565b9050919050565b7f4e487b7100000000000000000000000000000000000000000000000000000000600052601160045260246000fd5b60006119df82611303565b91506119ea83611303565b9250828210156119fd576119fc6119a5565b5b828203905092915050565b6000611a1382611303565b91507fffffffffffffffffffffffffffffffffffffffffffffffffffffffffffffffff8203611a4557611a446119a5565b5b600182019050919050565b7f4e487b7100000000000000000000000000000000000000000000000000000000600052602260045260246000fd5b60006002820490506001821680611a9757607f821691505b602082108103611aaa57611aa9611a50565b5b50919050565b7f53797374656d206f776e65722063616e2774206372656174652070726f6a656360008201527f7473000000000000000000000000000000000000000000000000000000000000602082015250565b6000611b0c6022836113cd565b9150611b1782611ab0565b604082019050919050565b60006020820190508181036000830152611b3b81611aff565b9050919050565b7f4d7573742068617665206174206c65617374206f6e65206d696c6573746f6e65600082015250565b6000611b786020836113cd565b9150611b8382611b42565b602082019050919050565b60006020820190508181036000830152611ba781611b6b565b9050919050565b7f476f616c20616d6f756e742063616e2774206265203000000000000000000000600082015250565b6000611be46016836113cd565b9150611bef82611bae565b602082019050919050565b60006020820190508181036000830152611c1381611bd7565b9050919050565b7f446561646c696e652063616e277420626520696e207468652070617374000000600082015250565b6000611c50601d836113cd565b9150611c5b82611c1a565b602082019050919050565b60006020820190508181036000830152611c7f81611c43565b9050919050565b6000602082019050611c9b600083018461145b565b92915050565b6000608082019050611cb6600083018761145b565b611cc3602083018661145b565b611cd0604083018561145b565b611cdd606083018461145b565b95945050505050565b7f50726f6a65637420646f65736e27742065786973740000000000000000000000600082015250565b6000611d1c6015836113cd565b9150611d2782611ce6565b602082019050919050565b60006020820190508181036000830152611d4b81611d0f565b9050919050565b7f596f7520646f6e74206861766520656e6f756768206d6f6e657920746f20667560008201527f6e64000000000000000000000000000000000000000000000000000000000000602082015250565b6000611dae6022836113cd565b9150611db982611d52565b604082019050919050565b60006020820190508181036000830152611ddd81611da1565b9050919050565b7f46756e6420616d6f756e742063616e2774206265203000000000000000000000600082015250565b6000611e1a6016836113cd565b9150611e2582611de4565b602082019050919050565b60006020820190508181036000830152611e4981611e0d565b9050919050565b7f50726f6a656374206d7573742062652061637469766520746f2066756e640000600082015250565b6000611e86601e836113cd565b9150611e9182611e50565b602082019050919050565b60006020820190508181036000830152611eb581611e79565b9050919050565b7f596f752063616e27742066756e6420616674657220646561646c696e65000000600082015250565b6000611ef2601d836113cd565b9150611efd82611ebc565b602082019050919050565b60006020820190508181036000830152611f2181611ee5565b9050919050565b6000611f3382611303565b9150611f3e83611303565b9250827fffffffffffffffffffffffffffffffffffffffffffffffffffffffffffffffff03821115611f7357611f726119a5565b5b828201905092915050565b7f4f6e6c792073797374656d206f776e6572206f722070726f6a656374206f776e60008201527f65722063616e2073746f702070726f6a65637473000000000000000000000000602082015250565b6000611fda6034836113cd565b9150611fe582611f7e565b604082019050919050565b6000602082019050818103600083015261200981611fcd565b9050919050565b600081905092915050565b50565b600061202b600083612010565b91506120368261201b565b600082019050919050565b600061204c8261201e565b9150819050919050565b7f5472616e7366657220746f2063726561746f72206661696c6564000000000000600082015250565b600061208c601a836113cd565b915061209782612056565b602082019050919050565b600060208201905081810360008301526120bb8161207f565b9050919050565b7f526566756e64206661696c656400000000000000000000000000000000000000600082015250565b60006120f8600d836113cd565b9150612103826120c2565b602082019050919050565b60006020820190508181036000830152612127816120eb565b905091905056fea2646970667358221220d4d8142bc041e5e9ee82b4b2350e5338d2d550690288d26da18efba87a6dc19964736f6c634300080d0033",
  "immutableReferences": {},
  "source": "// SPDX-License-Identifier: MIT\npragma solidity ^0.8.13;\n/*\n    Crowdsourcing with milestones, expected logic:\n    - There is a general system owner, who owns the crowdsourcing \"page\"\n    - Users can create projects, which other users can fund:\n    - Those projects have milestones, upon reaching a certain milestone by a certain date,\n    the project creator receives the money. Else (if it's not reached by a certain date),\n    all investors are refunded.\n\n    E.g. PC1 creates a project \"Cool project\" with 3 milestones:\n    100 euros by Nov 20\n    1000 eur by Nov 30\n    10000 eur by Dec 30\n\n    Nov 18\n    F1 funds 50 eur, F2 funds 25 eur, F3 Funds 26 Eur\n    Nov 19\n    F4 funds 50 eur\n    Nov 20\n    Check for milestone 1 deadline, reached. PC1 gets 151 eur. project not cancelled\n    Nov 29\n    F1 funds 500 eur, F2 funds 9 eur\n    Nov 30\n    Check for milestone 2 deadline - not reached. Project cancelled.\n    F1 gets 500 eur back, F2 gets 9 eur back, F3, F4 get nothing back.\n    PC1 keeps 101 eur from before.\n*/\n\nstruct Project {\n    address creator;\n    string name;\n    string headerImageUrl;\n    string description;\n    uint totalFunded;\n    uint currentMilestoneIndex;\n    Milestone[] milestones;\n    bool isActive; // i.e. not cancelled\n}\n\nstruct Milestone {\n    MilestoneInfo info;\n    uint totalFunded; // only current milestone total funded, used to transfer money to owner only lol\n    address[] funderAddresses;\n    mapping(address => uint) funders; // adress amount funded\n    bool reached;\n}\n\nstruct MilestoneInfo {\n    uint goalAmount;\n    uint deadline;\n}\n\ncontract CrowdSourcing {\n    event ProjectCreated(uint projectIdx);\n\n    event ProjectFunded(\n        uint projectIdx,\n        uint amount,\n        uint totalFunded,\n        uint currentMilestoneTotalFunded\n    );\n\n    event CurrentMilestoneStatus(\n        uint deadline,\n        uint goalAmount,\n        uint totalFunded,\n        uint currentMileStoneTotalFunded\n    );\n\n    address public sysOwner;\n\n    Project[] public projects;\n\n    constructor() {\n        sysOwner = msg.sender;\n    }\n\n    function createProject(\n        string memory _name,\n        string memory _headerImageUrl,\n        string memory _description,\n        MilestoneInfo[] memory _milestones\n    ) external {\n        require(msg.sender != sysOwner, \"System owner can't create projects\");\n        require(_milestones.length > 0, \"Must have at least one milestone\");\n        for (uint i = 0; i < _milestones.length; i++) {\n            require(_milestones[i].goalAmount > 0, \"Goal amount can't be 0\");\n            require(\n                _milestones[i].deadline > block.timestamp,\n                \"Deadline can't be in the past\"\n            );\n        }\n\n        Project storage project = projects.push();\n        project.creator = msg.sender;\n        project.name = _name;\n        project.headerImageUrl = _headerImageUrl;\n        project.description = _description;\n        project.totalFunded = 0;\n        project.currentMilestoneIndex = 0;\n        project.isActive = true;\n\n        for (uint i = 0; i < _milestones.length; i++) {\n            Milestone storage milestone = project.milestones.push();\n            milestone.info.goalAmount = _milestones[i].goalAmount;\n            milestone.info.deadline = _milestones[i].deadline;\n            milestone.totalFunded = 0;\n            milestone.reached = false;\n        }\n\n        emit ProjectCreated(projects.length);\n    }\n\n    function fundProject(uint _projectIdx) external payable {\n        require(_projectIdx < projects.length, \"Project doesn't exist\");\n        require(\n            msg.value <= msg.sender.balance,\n            \"You dont have enough money to fund\"\n        );\n        require(msg.value > 0, \"Fund amount can't be 0\");\n\n        Project storage project = projects[_projectIdx];\n        require(project.isActive, \"Project must be active to fund\");\n\n        Milestone storage currentMilestone = project.milestones[\n            project.currentMilestoneIndex\n        ];\n        require(\n            currentMilestone.info.deadline > block.timestamp,\n            \"You can't fund after deadline\"\n        );\n\n        currentMilestone.funders[msg.sender] += msg.value;\n        currentMilestone.totalFunded += msg.value;\n        project.totalFunded += msg.value;\n        if (currentMilestone.funders[msg.sender] == 0) {\n            currentMilestone.funderAddresses.push(msg.sender);\n        }\n\n        emit ProjectFunded(\n            _projectIdx,\n            msg.value,\n            project.totalFunded,\n            currentMilestone.totalFunded\n        );\n    }\n\n    function checkCurrentMilestone(uint _projectIdx) external {\n        Project storage project = projects[_projectIdx];\n        require(project.isActive, \"Project must be active\");\n        Milestone storage currentMilestone = project.milestones[\n            project.currentMilestoneIndex\n        ];\n        require(!currentMilestone.reached, \"Milestone should be not reached\");\n\n        emit CurrentMilestoneStatus(\n            currentMilestone.info.deadline,\n            currentMilestone.info.goalAmount,\n            project.totalFunded,\n            currentMilestone.totalFunded\n        );\n    }\n\n    // TODO: sita reiks pervadint, nes cia bsk neaisku, bet cia mzdg triggerina logika pinigeliu davimo ir pns lol\n    function checkMilestone(uint _projectIdx) external {\n        Project storage project = projects[_projectIdx];\n        Milestone storage currentMilestone = project.milestones[\n            project.currentMilestoneIndex\n        ];\n        require(project.isActive, \"Project must be active\");\n        require(!currentMilestone.reached, \"Milestone should be not reached\");\n        require(\n            block.timestamp >= currentMilestone.info.deadline,\n            \"Can only chekck after milestone\"\n        );\n\n        if (project.totalFunded >= currentMilestone.info.goalAmount) {\n            currentMilestone.reached = true;\n            sendMoneyToOwner(project.creator, currentMilestone.totalFunded);\n\n            if (project.currentMilestoneIndex < project.milestones.length - 1) {\n                project.currentMilestoneIndex++;\n            } else {\n                // project is \"done\" after being fully funded\n                project.isActive = false;\n            }\n        } else {\n            // cancel if milestone not reached after timestamp\n            stopProjectHelper(_projectIdx);\n        }\n    }\n\n    function sendMoneyToOwner(\n        address projectCreator,\n        uint moneyAmount\n    ) private {\n        (bool success, ) = projectCreator.call{value: moneyAmount}(\"\");\n        require(success, \"Transfer to creator failed\");\n    }\n\n    function refundMilestone(uint _projectIdx, uint _milestoneIdx) private {\n        Project storage project = projects[_projectIdx];\n        Milestone storage milestone = project.milestones[_milestoneIdx];\n\n        for (uint i = 0; i < milestone.funderAddresses.length; i++) {\n            address funder = milestone.funderAddresses[i];\n            uint amount = milestone.funders[funder];\n\n            if (amount > 0) {\n                milestone.funders[funder] = 0;\n                (bool success, ) = funder.call{value: amount}(\"\");\n                require(success, \"Refund failed\");\n            }\n        }\n    }\n\n    // To stop projects that the sysOwner deems as scams/illega/whatever\n    // or for when project owners realize they aren't feasible or smt idk\n    function stopProject(uint _projectIdx) external {\n        require(\n            msg.sender == sysOwner ||\n                msg.sender == projects[_projectIdx].creator,\n            \"Only system owner or project owner can stop projects\"\n        );\n        stopProjectHelper(_projectIdx);\n    }\n\n    function stopProjectHelper(uint _projectIdx) private {\n        Project storage project = projects[_projectIdx];\n        project.isActive = false;\n        refundMilestone(_projectIdx, project.currentMilestoneIndex);\n    }\n\n    /*\n    TODO LIST:\n    - daug kitu dalyku. visa logika\n    - pratestuot ar tai kas egizstuoja veikia lmao\n    */\n}\n",
  "sourcePath": "/home/arnas/Desktop/Blockchain4/contracts/CrowdSourcing.sol",
  "compiler": {
    "name": "solc",
    "version": "0.8.13+commit.abaa5c0e.Emscripten.clang"
  },
  "schemaVersion": "3.4.16",
  "updatedAt": "2025-12-06T16:46:06.392Z",
  "networkType": "ethereum",
  "devdoc": {
    "kind": "dev",
    "methods": {},
    "version": 1
  },
  "userdoc": {
    "kind": "user",
    "methods": {},
    "version": 1
  }
}