{
	"data": {
		"bytecode": {
			"linkReferences": {},
			"object": "6080604052348015600e575f5ffd5b50335f5f6101000a81548173ffffffffffffffffffffffffffffffffffffffff021916908373ffffffffffffffffffffffffffffffffffffffff1602179055506141af8061005b5f395ff3fe6080604052600436106100c1575f3560e01c80636db7a9601161007e578063b99122af11610058578063b99122af14610240578063d8a5b36d1461027c578063f2ef441b146102b8578063fabf5968146102e2576100c1565b80636db7a960146101da5780637808de3814610202578063ae63218114610218576100c1565b80630e4877d6146100c5578063107046bd146100ef5780631a86e67d1461013257806333ec0fc51461015a5780634e94e824146101965780636c563abe146101be575b5f5ffd5b3480156100d0575f5ffd5b506100d961031e565b6040516100e6919061289c565b60405180910390f35b3480156100fa575f5ffd5b50610115600480360381019061011091906128f9565b610342565b6040516101299897969594939291906129bd565b60405180910390f35b34801561013d575f5ffd5b5061015860048036038101906101539190612c8f565b61055f565b005b348015610165575f5ffd5b50610180600480360381019061017b91906128f9565b610736565b60405161018d9190612e1a565b60405180910390f35b3480156101a1575f5ffd5b506101bc60048036038101906101b791906128f9565b610813565b005b6101d860048036038101906101d391906128f9565b61099c565b005b3480156101e5575f5ffd5b5061020060048036038101906101fb91906128f9565b610f84565b005b34801561020d575f5ffd5b50610216611095565b005b348015610223575f5ffd5b5061023e60048036038101906102399190612e3a565b6111c4565b005b34801561024b575f5ffd5b50610266600480360381019061026191906128f9565b611726565b6040516102739190612ed0565b60405180910390f35b348015610287575f5ffd5b506102a2600480360381019061029d91906128f9565b61183c565b6040516102af9190612fbe565b60405180910390f35b3480156102c3575f5ffd5b506102cc611992565b6040516102d991906131c0565b60405180910390f35b3480156102ed575f5ffd5b50610308600480360381019061030391906128f9565b611e5e565b60405161031591906132b0565b60405180910390f35b5f5f9054906101000a900473ffffffffffffffffffffffffffffffffffffffff1681565b60018181548110610351575f80fd5b905f5260205f2090600802015f91509050805f015f9054906101000a900473ffffffffffffffffffffffffffffffffffffffff1690806001018054610395906132fd565b80601f01602080910402602001604051908101604052809291908181526020018280546103c1906132fd565b801561040c5780601f106103e35761010080835404028352916020019161040c565b820191905f5260205f20905b8154815290600101906020018083116103ef57829003601f168201915b505050505090806002018054610421906132fd565b80601f016020809104026020016040519081016040528092919081815260200182805461044d906132fd565b80156104985780601f1061046f57610100808354040283529160200191610498565b820191905f5260205f20905b81548152906001019060200180831161047b57829003601f168201915b5050505050908060030180546104ad906132fd565b80601f01602080910402602001604051908101604052809291908181526020018280546104d9906132fd565b80156105245780601f106104fb57610100808354040283529160200191610524565b820191905f5260205f20905b81548152906001019060200180831161050757829003601f168201915b505050505090806004015490806005015490806007015f9054906101000a900460ff16908060070160019054906101000a900460ff16905088565b5f5f9054906101000a900473ffffffffffffffffffffffffffffffffffffffff1673ffffffffffffffffffffffffffffffffffffffff163373ffffffffffffffffffffffffffffffffffffffff16036105ed576040517f08c379a00000000000000000000000000000000000000000000000000000000081526004016105e49061339d565b60405180910390fd5b5f6001808160018154018082558091505003905f5260205f209060080201905033815f015f6101000a81548173ffffffffffffffffffffffffffffffffffffffff021916908373ffffffffffffffffffffffffffffffffffffffff1602179055508481600101908161065f919061355b565b5083816002019081610671919061355b565b5082816003019081610683919061355b565b505f81600401819055505f81600501819055506001816007015f6101000a81548160ff0219169083151502179055505f8160070160016101000a81548160ff0219169083151502179055506106e8600180805490506106e29190613657565b836111c4565b7f1ac2092e16e28eef29d1832f3dc69da1b21284a1f3159d3b26cb238b22fe4f8a6001808054905061071a9190613657565b604051610727919061368a565b60405180910390a15050505050565b60605f6001838154811061074d5761074c6136a3565b5b905f5260205f20906008020190505f81600601826005015481548110610776576107756136a3565b5b905f5260205f20906006020190508060030180548060200260200160405190810160405280929190818152602001828054801561080557602002820191905f5260205f20905b815f9054906101000a900473ffffffffffffffffffffffffffffffffffffffff1673ffffffffffffffffffffffffffffffffffffffff16815260200190600101908083116107bc575b505050505092505050919050565b600180549050811061085a576040517f08c379a00000000000000000000000000000000000000000000000000000000081526004016108519061371a565b60405180910390fd5b5f6001828154811061086f5761086e6136a3565b5b905f5260205f2090600802019050806007015f9054906101000a900460ff166108cd576040517f08c379a00000000000000000000000000000000000000000000000000000000081526004016108c490613782565b60405180910390fd5b5f816006018260050154815481106108e8576108e76136a3565b5b905f5260205f2090600602019050806005015f9054906101000a900460ff1615610947576040517f08c379a000000000000000000000000000000000000000000000000000000000815260040161093e906137ea565b60405180910390fd5b7f3f9ee693372748925082c0c5ba09ecffc5fddfeecf993becff877eac8a1e08bc815f0160010154825f015f01548460040154846002015460405161098f9493929190613808565b60405180910390a1505050565b60018054905081106109e3576040517f08c379a00000000000000000000000000000000000000000000000000000000081526004016109da90613895565b60405180910390fd5b3373ffffffffffffffffffffffffffffffffffffffff1631341115610a3d576040517f08c379a0000000000000000000000000000000000000000000000000000000008152600401610a3490613923565b60405180910390fd5b5f3411610a7f576040517f08c379a0000000000000000000000000000000000000000000000000000000008152600401610a769061398b565b60405180910390fd5b5f60018281548110610a9457610a936136a3565b5b905f5260205f2090600802019050806007015f9054906101000a900460ff16610af2576040517f08c379a0000000000000000000000000000000000000000000000000000000008152600401610ae9906139f3565b60405180910390fd5b5f81600601826005015481548110610b0d57610b0c6136a3565b5b905f5260205f209060060201905042815f016001015411610b63576040517f08c379a0000000000000000000000000000000000000000000000000000000008152600401610b5a90613a5b565b60405180910390fd5b5f816004015f3373ffffffffffffffffffffffffffffffffffffffff1673ffffffffffffffffffffffffffffffffffffffff1681526020019081526020015f205403610c0c578060030133908060018154018082558091505060019003905f5260205f20015f9091909190916101000a81548173ffffffffffffffffffffffffffffffffffffffff021916908373ffffffffffffffffffffffffffffffffffffffff1602179055505b34816004015f3373ffffffffffffffffffffffffffffffffffffffff1673ffffffffffffffffffffffffffffffffffffffff1681526020019081526020015f205f828254610c5a9190613a79565b9250508190555034816002015f828254610c749190613a79565b9250508190555034826004015f828254610c8e9190613a79565b925050819055505b805f015f015482600401541115610f3a575f815f015f01548360040154610cbd9190613657565b9050815f015f01548260020181905550815f015f0154836004018190555080826004015f3373ffffffffffffffffffffffffffffffffffffffff1673ffffffffffffffffffffffffffffffffffffffff1681526020019081526020015f205f828254610d299190613657565b9250508190555060018360060180549050610d449190613657565b836005015403610e17575f836007015f6101000a81548160ff0219169083151502179055505f3373ffffffffffffffffffffffffffffffffffffffff1682604051610d8e90613ad9565b5f6040518083038185875af1925050503d805f8114610dc8576040519150601f19603f3d011682016040523d82523d5f602084013e610dcd565b606091505b5050905080610e11576040517f08c379a0000000000000000000000000000000000000000000000000000000008152600401610e0890613b37565b60405180910390fd5b50610f34565b610e20846122f1565b82600601836005015481548110610e3a57610e396136a3565b5b905f5260205f20906006020191508160030133908060018154018082558091505060019003905f5260205f20015f9091909190916101000a81548173ffffffffffffffffffffffffffffffffffffffff021916908373ffffffffffffffffffffffffffffffffffffffff16021790555080826004015f3373ffffffffffffffffffffffffffffffffffffffff1673ffffffffffffffffffffffffffffffffffffffff1681526020019081526020015f205f828254610ef89190613a79565b9250508190555080826002015f828254610f129190613a79565b9250508190555080836004015f828254610f2c9190613a79565b925050819055505b50610c96565b7f17e2effa169c5dde193942abd21f6d49e7d32c15ab843da440cb2abdd10f1911833484600401548460020154604051610f779493929190613808565b60405180910390a1505050565b5f5f9054906101000a900473ffffffffffffffffffffffffffffffffffffffff1673ffffffffffffffffffffffffffffffffffffffff163373ffffffffffffffffffffffffffffffffffffffff16148061104a575060018181548110610fed57610fec6136a3565b5b905f5260205f2090600802015f015f9054906101000a900473ffffffffffffffffffffffffffffffffffffffff1673ffffffffffffffffffffffffffffffffffffffff163373ffffffffffffffffffffffffffffffffffffffff16145b611089576040517f08c379a000000000000000000000000000000000000000000000000000000000815260040161108090613bc5565b60405180910390fd5b61109281612478565b50565b5f5f9054906101000a900473ffffffffffffffffffffffffffffffffffffffff1673ffffffffffffffffffffffffffffffffffffffff163373ffffffffffffffffffffffffffffffffffffffff1614611123576040517f08c379a000000000000000000000000000000000000000000000000000000000815260040161111a90613c53565b60405180910390fd5b5f5f90505b6001805490508110156111c1575f6001828154811061114a576111496136a3565b5b905f5260205f20906008020190505f81600601826005015481548110611173576111726136a3565b5b905f5260205f2090600602019050816007015f9054906101000a900460ff1680156111a3575042815f0160010154105b156111b2576111b183612478565b5b50508080600101915050611128565b50565b600180549050821061120b576040517f08c379a00000000000000000000000000000000000000000000000000000000081526004016112029061371a565b60405180910390fd5b5f600183815481106112205761121f6136a3565b5b905f5260205f2090600802019050806007015f9054906101000a900460ff1661127e576040517f08c379a000000000000000000000000000000000000000000000000000000000815260040161127590613ce1565b60405180910390fd5b3373ffffffffffffffffffffffffffffffffffffffff16815f015f9054906101000a900473ffffffffffffffffffffffffffffffffffffffff1673ffffffffffffffffffffffffffffffffffffffff161461130e576040517f08c379a000000000000000000000000000000000000000000000000000000000815260040161130590613d6f565b60405180910390fd5b5f825111611351576040517f08c379a000000000000000000000000000000000000000000000000000000000815260040161134890613dd7565b60405180910390fd5b5f5f90505b8251811015611720575f838281518110611373576113726136a3565b5b60200260200101515f0151116113be576040517f08c379a00000000000000000000000000000000000000000000000000000000081526004016113b590613e3f565b60405180910390fd5b428382815181106113d2576113d16136a3565b5b6020026020010151602001511161141e576040517f08c379a000000000000000000000000000000000000000000000000000000000815260040161141590613ea7565b60405180910390fd5b5f81111561153957826001826114349190613657565b81518110611445576114446136a3565b5b60200260200101515f0151838281518110611463576114626136a3565b5b60200260200101515f0151116114ae576040517f08c379a00000000000000000000000000000000000000000000000000000000081526004016114a590613f35565b60405180910390fd5b826001826114bc9190613657565b815181106114cd576114cc6136a3565b5b6020026020010151602001518382815181106114ec576114eb6136a3565b5b60200260200101516020015111611538576040517f08c379a000000000000000000000000000000000000000000000000000000000815260040161152f90613fc3565b60405180910390fd5b5b5f8260060180549050111561167b5781600601600183600601805490506115609190613657565b81548110611571576115706136a3565b5b905f5260205f2090600602015f015f0154838281518110611595576115946136a3565b5b60200260200101515f0151116115e0576040517f08c379a00000000000000000000000000000000000000000000000000000000081526004016115d790613f35565b60405180910390fd5b81600601600183600601805490506115f89190613657565b81548110611609576116086136a3565b5b905f5260205f2090600602015f016001015483828151811061162e5761162d6136a3565b5b6020026020010151602001511161167a576040517f08c379a000000000000000000000000000000000000000000000000000000000815260040161167190613fc3565b60405180910390fd5b5b5f8260060160018160018154018082558091505003905f5260205f20906006020190508382815181106116b1576116b06136a3565b5b60200260200101515f0151815f015f01819055508382815181106116d8576116d76136a3565b5b602002602001015160200151815f01600101819055505f81600201819055505f816005015f6101000a81548160ff021916908315150217905550508080600101915050611356565b50505050565b61172e6127e5565b6001805490508210611775576040517f08c379a000000000000000000000000000000000000000000000000000000000815260040161176c9061371a565b60405180910390fd5b5f6001838154811061178a576117896136a3565b5b905f5260205f209060080201905042816006018260050154815481106117b3576117b26136a3565b5b905f5260205f2090600602015f01600101541080156117df5750806007015f9054906101000a900460ff165b156117ee576117ed83612478565b5b80600601816005015481548110611808576118076136a3565b5b905f5260205f2090600602015f016040518060400160405290815f8201548152602001600182015481525050915050919050565b60606001805490508210611885576040517f08c379a000000000000000000000000000000000000000000000000000000000815260040161187c9061371a565b60405180910390fd5b5f6001838154811061189a576118996136a3565b5b905f5260205f20906008020190505f816006018054905067ffffffffffffffff8111156118ca576118c9612a56565b5b60405190808252806020026020018201604052801561190357816020015b6118f06127e5565b8152602001906001900390816118e85790505b5090505f5f90505b8260060180549050811015611987578260060181815481106119305761192f6136a3565b5b905f5260205f2090600602015f016040518060400160405290815f820154815260200160018201548152505082828151811061196f5761196e6136a3565b5b6020026020010181905250808060010191505061190b565b508092505050919050565b60605f5f90505f5f90505b6001805490508110156119fb57600181815481106119be576119bd6136a3565b5b905f5260205f2090600802016007015f9054906101000a900460ff16156119ee5781806119ea90613fe1565b9250505b808060010191505061199d565b505f8167ffffffffffffffff811115611a1757611a16612a56565b5b604051908082528060200260200182016040528015611a5057816020015b611a3d6127fd565b815260200190600190039081611a355790505b5090505f5f90505f5f90505b600180549050811015611e545760018181548110611a7d57611a7c6136a3565b5b905f5260205f2090600802016007015f9054906101000a900460ff1615611e4757611aa66127fd565b60018281548110611aba57611ab96136a3565b5b905f5260205f2090600802015f015f9054906101000a900473ffffffffffffffffffffffffffffffffffffffff16815f019073ffffffffffffffffffffffffffffffffffffffff16908173ffffffffffffffffffffffffffffffffffffffff168152505060018281548110611b3257611b316136a3565b5b905f5260205f2090600802016001018054611b4c906132fd565b80601f0160208091040260200160405190810160405280929190818152602001828054611b78906132fd565b8015611bc35780601f10611b9a57610100808354040283529160200191611bc3565b820191905f5260205f20905b815481529060010190602001808311611ba657829003601f168201915b5050505050816020018190525060018281548110611be457611be36136a3565b5b905f5260205f2090600802016002018054611bfe906132fd565b80601f0160208091040260200160405190810160405280929190818152602001828054611c2a906132fd565b8015611c755780601f10611c4c57610100808354040283529160200191611c75565b820191905f5260205f20905b815481529060010190602001808311611c5857829003601f168201915b5050505050816040018190525060018281548110611c9657611c956136a3565b5b905f5260205f2090600802016003018054611cb0906132fd565b80601f0160208091040260200160405190810160405280929190818152602001828054611cdc906132fd565b8015611d275780601f10611cfe57610100808354040283529160200191611d27565b820191905f5260205f20905b815481529060010190602001808311611d0a57829003601f168201915b5050505050816060018190525060018281548110611d4857611d476136a3565b5b905f5260205f2090600802016004015481608001818152505060018281548110611d7557611d746136a3565b5b905f5260205f209060080201600501548160a001818152505060018281548110611da257611da16136a3565b5b905f5260205f2090600802016007015f9054906101000a900460ff168160c001901515908115158152505060018281548110611de157611de06136a3565b5b905f5260205f20906008020160070160019054906101000a900460ff168160e0019015159081151581525050818161010001818152505080848481518110611e2c57611e2b6136a3565b5b60200260200101819052508280611e4290613fe1565b935050505b8080600101915050611a5c565b5081935050505090565b611e666127fd565b6001805490508210611ead576040517f08c379a0000000000000000000000000000000000000000000000000000000008152600401611ea49061371a565b60405180910390fd5b5f60018381548110611ec257611ec16136a3565b5b905f5260205f20906008020190504281600601826005015481548110611eeb57611eea6136a3565b5b905f5260205f2090600602015f0160010154108015611f175750806007015f9054906101000a900460ff165b15611f2657611f2583612478565b5b611f2e6127fd565b60018481548110611f4257611f416136a3565b5b905f5260205f2090600802015f015f9054906101000a900473ffffffffffffffffffffffffffffffffffffffff16815f019073ffffffffffffffffffffffffffffffffffffffff16908173ffffffffffffffffffffffffffffffffffffffff168152505060018481548110611fba57611fb96136a3565b5b905f5260205f2090600802016001018054611fd4906132fd565b80601f0160208091040260200160405190810160405280929190818152602001828054612000906132fd565b801561204b5780601f106120225761010080835404028352916020019161204b565b820191905f5260205f20905b81548152906001019060200180831161202e57829003601f168201915b505050505081602001819052506001848154811061206c5761206b6136a3565b5b905f5260205f2090600802016002018054612086906132fd565b80601f01602080910402602001604051908101604052809291908181526020018280546120b2906132fd565b80156120fd5780601f106120d4576101008083540402835291602001916120fd565b820191905f5260205f20905b8154815290600101906020018083116120e057829003601f168201915b505050505081604001819052506001848154811061211e5761211d6136a3565b5b905f5260205f2090600802016003018054612138906132fd565b80601f0160208091040260200160405190810160405280929190818152602001828054612164906132fd565b80156121af5780601f10612186576101008083540402835291602001916121af565b820191905f5260205f20905b81548152906001019060200180831161219257829003601f168201915b50505050508160600181905250600184815481106121d0576121cf6136a3565b5b905f5260205f20906008020160040154816080018181525050600184815481106121fd576121fc6136a3565b5b905f5260205f209060080201600501548160a00181815250506001848154811061222a576122296136a3565b5b905f5260205f2090600802016007015f9054906101000a900460ff168160c001901515908115158152505060018481548110612269576122686136a3565b5b905f5260205f20906008020160070160019054906101000a900460ff168160e001901515908115158152505083816101000181815250507f44bfa1a13633868c1d56f0fe1c8cb101001d1737e2692e78157e239d5d529630826007015f9054906101000a900460ff166040516122df9190614028565b60405180910390a18092505050919050565b5f60018281548110612306576123056136a3565b5b905f5260205f20906008020190505f8160060182600501548154811061232f5761232e6136a3565b5b905f5260205f20906006020190505f816002015490505f836005015411156123955782600601600184600501546123669190613657565b81548110612377576123766136a3565b5b905f5260205f20906006020160020154816123929190613657565b90505b815f015f0154836004015410612468576001826005015f6101000a81548160ff0219169083151502179055506123ed835f015f9054906101000a900473ffffffffffffffffffffffffffffffffffffffff1682612518565b600183600601805490506124019190613657565b8360050154101561242a57826005015f81548092919061242090613fe1565b9190505550612463565b5f836007015f6101000a81548160ff02191690831515021790555060018360070160016101000a81548160ff0219169083151502179055505b612472565b61247184612478565b5b50505050565b5f6001828154811061248d5761248c6136a3565b5b905f5260205f2090600802019050806007015f9054906101000a900460ff166124eb576040517f08c379a00000000000000000000000000000000000000000000000000000000081526004016124e29061408b565b60405180910390fd5b5f816007015f6101000a81548160ff0219169083151502179055506125148282600501546125c5565b5050565b5f8273ffffffffffffffffffffffffffffffffffffffff168260405161253d90613ad9565b5f6040518083038185875af1925050503d805f8114612577576040519150601f19603f3d011682016040523d82523d5f602084013e61257c565b606091505b50509050806125c0576040517f08c379a00000000000000000000000000000000000000000000000000000000081526004016125b7906140f3565b60405180910390fd5b505050565b5f600183815481106125da576125d96136a3565b5b905f5260205f20906008020190505f8160060183815481106125ff576125fe6136a3565b5b905f5260205f20906006020190505f5f90505b81600301805490508110156127de575f826003018281548110612638576126376136a3565b5b905f5260205f20015f9054906101000a900473ffffffffffffffffffffffffffffffffffffffff1690505f836004015f8373ffffffffffffffffffffffffffffffffffffffff1673ffffffffffffffffffffffffffffffffffffffff1681526020019081526020015f205490505f8111156127cf575f846004015f8473ffffffffffffffffffffffffffffffffffffffff1673ffffffffffffffffffffffffffffffffffffffff1681526020019081526020015f20819055505f8273ffffffffffffffffffffffffffffffffffffffff168260405161271690613ad9565b5f6040518083038185875af1925050503d805f8114612750576040519150601f19603f3d011682016040523d82523d5f602084013e612755565b606091505b5050905080612799576040517f08c379a00000000000000000000000000000000000000000000000000000000081526004016127909061415b565b60405180910390fd5b81866004015f8282546127ac9190613657565b9250508190555081856002015f8282546127c69190613657565b92505081905550505b50508080600101915050612612565b5050505050565b60405180604001604052805f81526020015f81525090565b6040518061012001604052805f73ffffffffffffffffffffffffffffffffffffffff1681526020016060815260200160608152602001606081526020015f81526020015f81526020015f151581526020015f151581526020015f81525090565b5f73ffffffffffffffffffffffffffffffffffffffff82169050919050565b5f6128868261285d565b9050919050565b6128968161287c565b82525050565b5f6020820190506128af5f83018461288d565b92915050565b5f604051905090565b5f5ffd5b5f5ffd5b5f819050919050565b6128d8816128c6565b81146128e2575f5ffd5b50565b5f813590506128f3816128cf565b92915050565b5f6020828403121561290e5761290d6128be565b5b5f61291b848285016128e5565b91505092915050565b5f81519050919050565b5f82825260208201905092915050565b8281835e5f83830152505050565b5f601f19601f8301169050919050565b5f61296682612924565b612970818561292e565b935061298081856020860161293e565b6129898161294c565b840191505092915050565b61299d816128c6565b82525050565b5f8115159050919050565b6129b7816129a3565b82525050565b5f610100820190506129d15f83018b61288d565b81810360208301526129e3818a61295c565b905081810360408301526129f7818961295c565b90508181036060830152612a0b818861295c565b9050612a1a6080830187612994565b612a2760a0830186612994565b612a3460c08301856129ae565b612a4160e08301846129ae565b9998505050505050505050565b5f5ffd5b5f5ffd5b7f4e487b71000000000000000000000000000000000000000000000000000000005f52604160045260245ffd5b612a8c8261294c565b810181811067ffffffffffffffff82111715612aab57612aaa612a56565b5b80604052505050565b5f612abd6128b5565b9050612ac98282612a83565b919050565b5f67ffffffffffffffff821115612ae857612ae7612a56565b5b612af18261294c565b9050602081019050919050565b828183375f83830152505050565b5f612b1e612b1984612ace565b612ab4565b905082815260208101848484011115612b3a57612b39612a52565b5b612b45848285612afe565b509392505050565b5f82601f830112612b6157612b60612a4e565b5b8135612b71848260208601612b0c565b91505092915050565b5f67ffffffffffffffff821115612b9457612b93612a56565b5b602082029050602081019050919050565b5f5ffd5b5f5ffd5b5f60408284031215612bc257612bc1612ba9565b5b612bcc6040612ab4565b90505f612bdb848285016128e5565b5f830152506020612bee848285016128e5565b60208301525092915050565b5f612c0c612c0784612b7a565b612ab4565b90508083825260208201905060408402830185811115612c2f57612c2e612ba5565b5b835b81811015612c585780612c448882612bad565b845260208401935050604081019050612c31565b5050509392505050565b5f82601f830112612c7657612c75612a4e565b5b8135612c86848260208601612bfa565b91505092915050565b5f5f5f5f60808587031215612ca757612ca66128be565b5b5f85013567ffffffffffffffff811115612cc457612cc36128c2565b5b612cd087828801612b4d565b945050602085013567ffffffffffffffff811115612cf157612cf06128c2565b5b612cfd87828801612b4d565b935050604085013567ffffffffffffffff811115612d1e57612d1d6128c2565b5b612d2a87828801612b4d565b925050606085013567ffffffffffffffff811115612d4b57612d4a6128c2565b5b612d5787828801612c62565b91505092959194509250565b5f81519050919050565b5f82825260208201905092915050565b5f819050602082019050919050565b612d958161287c565b82525050565b5f612da68383612d8c565b60208301905092915050565b5f602082019050919050565b5f612dc882612d63565b612dd28185612d6d565b9350612ddd83612d7d565b805f5b83811015612e0d578151612df48882612d9b565b9750612dff83612db2565b925050600181019050612de0565b5085935050505092915050565b5f6020820190508181035f830152612e328184612dbe565b905092915050565b5f5f60408385031215612e5057612e4f6128be565b5b5f612e5d858286016128e5565b925050602083013567ffffffffffffffff811115612e7e57612e7d6128c2565b5b612e8a85828601612c62565b9150509250929050565b612e9d816128c6565b82525050565b604082015f820151612eb75f850182612e94565b506020820151612eca6020850182612e94565b50505050565b5f604082019050612ee35f830184612ea3565b92915050565b5f81519050919050565b5f82825260208201905092915050565b5f819050602082019050919050565b604082015f820151612f265f850182612e94565b506020820151612f396020850182612e94565b50505050565b5f612f4a8383612f12565b60408301905092915050565b5f602082019050919050565b5f612f6c82612ee9565b612f768185612ef3565b9350612f8183612f03565b805f5b83811015612fb1578151612f988882612f3f565b9750612fa383612f56565b925050600181019050612f84565b5085935050505092915050565b5f6020820190508181035f830152612fd68184612f62565b905092915050565b5f81519050919050565b5f82825260208201905092915050565b5f819050602082019050919050565b5f82825260208201905092915050565b5f61302182612924565b61302b8185613007565b935061303b81856020860161293e565b6130448161294c565b840191505092915050565b613058816129a3565b82525050565b5f61012083015f8301516130745f860182612d8c565b506020830151848203602086015261308c8282613017565b915050604083015184820360408601526130a68282613017565b915050606083015184820360608601526130c08282613017565b91505060808301516130d56080860182612e94565b5060a08301516130e860a0860182612e94565b5060c08301516130fb60c086018261304f565b5060e083015161310e60e086018261304f565b50610100830151613123610100860182612e94565b508091505092915050565b5f613139838361305e565b905092915050565b5f602082019050919050565b5f61315782612fde565b6131618185612fe8565b93508360208202850161317385612ff8565b805f5b858110156131ae578484038952815161318f858261312e565b945061319a83613141565b925060208a01995050600181019050613176565b50829750879550505050505092915050565b5f6020820190508181035f8301526131d8818461314d565b905092915050565b5f61012083015f8301516131f65f860182612d8c565b506020830151848203602086015261320e8282613017565b915050604083015184820360408601526132288282613017565b915050606083015184820360608601526132428282613017565b91505060808301516132576080860182612e94565b5060a083015161326a60a0860182612e94565b5060c083015161327d60c086018261304f565b5060e083015161329060e086018261304f565b506101008301516132a5610100860182612e94565b508091505092915050565b5f6020820190508181035f8301526132c881846131e0565b905092915050565b7f4e487b71000000000000000000000000000000000000000000000000000000005f52602260045260245ffd5b5f600282049050600182168061331457607f821691505b602082108103613327576133266132d0565b5b50919050565b7f53797374656d206f776e65722063616e2774206372656174652070726f6a65635f8201527f7473000000000000000000000000000000000000000000000000000000000000602082015250565b5f61338760228361292e565b91506133928261332d565b604082019050919050565b5f6020820190508181035f8301526133b48161337b565b9050919050565b5f819050815f5260205f209050919050565b5f6020601f8301049050919050565b5f82821b905092915050565b5f600883026134177fffffffffffffffffffffffffffffffffffffffffffffffffffffffffffffffff826133dc565b61342186836133dc565b95508019841693508086168417925050509392505050565b5f819050919050565b5f61345c613457613452846128c6565b613439565b6128c6565b9050919050565b5f819050919050565b61347583613442565b61348961348182613463565b8484546133e8565b825550505050565b5f5f905090565b6134a0613491565b6134ab81848461346c565b505050565b5b818110156134ce576134c35f82613498565b6001810190506134b1565b5050565b601f821115613513576134e4816133bb565b6134ed846133cd565b810160208510156134fc578190505b613510613508856133cd565b8301826134b0565b50505b505050565b5f82821c905092915050565b5f6135335f1984600802613518565b1980831691505092915050565b5f61354b8383613524565b9150826002028217905092915050565b61356482612924565b67ffffffffffffffff81111561357d5761357c612a56565b5b61358782546132fd565b6135928282856134d2565b5f60209050601f8311600181146135c3575f84156135b1578287015190505b6135bb8582613540565b865550613622565b601f1984166135d1866133bb565b5f5b828110156135f8578489015182556001820191506020850194506020810190506135d3565b868310156136155784890151613611601f891682613524565b8355505b6001600288020188555050505b505050505050565b7f4e487b71000000000000000000000000000000000000000000000000000000005f52601160045260245ffd5b5f613661826128c6565b915061366c836128c6565b92508282039050818111156136845761368361362a565b5b92915050565b5f60208201905061369d5f830184612994565b92915050565b7f4e487b71000000000000000000000000000000000000000000000000000000005f52603260045260245ffd5b7f496e76616c69642070726f6a6563747320696e646578000000000000000000005f82015250565b5f61370460168361292e565b915061370f826136d0565b602082019050919050565b5f6020820190508181035f830152613731816136f8565b9050919050565b7f50726f6a656374206d75737420626520616374697665000000000000000000005f82015250565b5f61376c60168361292e565b915061377782613738565b602082019050919050565b5f6020820190508181035f83015261379981613760565b9050919050565b7f4d696c6573746f6e652073686f756c64206265206e6f742072656163686564005f82015250565b5f6137d4601f8361292e565b91506137df826137a0565b602082019050919050565b5f6020820190508181035f830152613801816137c8565b9050919050565b5f60808201905061381b5f830187612994565b6138286020830186612994565b6138356040830185612994565b6138426060830184612994565b95945050505050565b7f50726f6a65637420646f65736e277420657869737400000000000000000000005f82015250565b5f61387f60158361292e565b915061388a8261384b565b602082019050919050565b5f6020820190508181035f8301526138ac81613873565b9050919050565b7f596f7520646f6e74206861766520656e6f756768206d6f6e657920746f2066755f8201527f6e64000000000000000000000000000000000000000000000000000000000000602082015250565b5f61390d60228361292e565b9150613918826138b3565b604082019050919050565b5f6020820190508181035f83015261393a81613901565b9050919050565b7f46756e6420616d6f756e742063616e27742062652030000000000000000000005f82015250565b5f61397560168361292e565b915061398082613941565b602082019050919050565b5f6020820190508181035f8301526139a281613969565b9050919050565b7f50726f6a656374206d7573742062652061637469766520746f2066756e6400005f82015250565b5f6139dd601e8361292e565b91506139e8826139a9565b602082019050919050565b5f6020820190508181035f830152613a0a816139d1565b9050919050565b7f596f752063616e27742066756e6420616674657220646561646c696e650000005f82015250565b5f613a45601d8361292e565b9150613a5082613a11565b602082019050919050565b5f6020820190508181035f830152613a7281613a39565b9050919050565b5f613a83826128c6565b9150613a8e836128c6565b9250828201905080821115613aa657613aa561362a565b5b92915050565b5f81905092915050565b50565b5f613ac45f83613aac565b9150613acf82613ab6565b5f82019050919050565b5f613ae382613ab9565b9150819050919050565b7f4661696c656420746f2072657475726e20737572706c757300000000000000005f82015250565b5f613b2160188361292e565b9150613b2c82613aed565b602082019050919050565b5f6020820190508181035f830152613b4e81613b15565b9050919050565b7f4f6e6c792073797374656d206f776e6572206f722070726f6a656374206f776e5f8201527f65722063616e2073746f702070726f6a65637473000000000000000000000000602082015250565b5f613baf60348361292e565b9150613bba82613b55565b604082019050919050565b5f6020820190508181035f830152613bdc81613ba3565b9050919050565b7f4f6e6c79207379734f776e65722063616e20646561637469766174652070726f5f8201527f6a65637473000000000000000000000000000000000000000000000000000000602082015250565b5f613c3d60258361292e565b9150613c4882613be3565b604082019050919050565b5f6020820190508181035f830152613c6a81613c31565b9050919050565b7f43616e6e6f7420616464206e6577206d696c6573746f6e657320746f20696e615f8201527f63746976652070726f6a65637400000000000000000000000000000000000000602082015250565b5f613ccb602d8361292e565b9150613cd682613c71565b604082019050919050565b5f6020820190508181035f830152613cf881613cbf565b9050919050565b7f4f6e6c792070726f6a6563742063726561746f722063616e20616464206e65775f8201527f206d696c6573746f6e6573000000000000000000000000000000000000000000602082015250565b5f613d59602b8361292e565b9150613d6482613cff565b604082019050919050565b5f6020820190508181035f830152613d8681613d4d565b9050919050565b7f4d7573742068617665206174206c65617374206f6e65206d696c6573746f6e655f82015250565b5f613dc160208361292e565b9150613dcc82613d8d565b602082019050919050565b5f6020820190508181035f830152613dee81613db5565b9050919050565b7f476f616c20616d6f756e742063616e27742062652030000000000000000000005f82015250565b5f613e2960168361292e565b9150613e3482613df5565b602082019050919050565b5f6020820190508181035f830152613e5681613e1d565b9050919050565b7f446561646c696e652063616e277420626520696e2074686520706173740000005f82015250565b5f613e91601d8361292e565b9150613e9c82613e5d565b602082019050919050565b5f6020820190508181035f830152613ebe81613e85565b9050919050565b7f4d696c6573746f6e6520676f616c732073686f756c6420626520696e637265615f8201527f73696e6700000000000000000000000000000000000000000000000000000000602082015250565b5f613f1f60248361292e565b9150613f2a82613ec5565b604082019050919050565b5f6020820190508181035f830152613f4c81613f13565b9050919050565b7f4d696c6573746f6e6520646561646c696e65732073686f756c6420626520696e5f8201527f6372656173696e67000000000000000000000000000000000000000000000000602082015250565b5f613fad60288361292e565b9150613fb882613f53565b604082019050919050565b5f6020820190508181035f830152613fda81613fa1565b9050919050565b5f613feb826128c6565b91507fffffffffffffffffffffffffffffffffffffffffffffffffffffffffffffffff820361401d5761401c61362a565b5b600182019050919050565b5f60208201905061403b5f8301846129ae565b92915050565b7f43616e6e6f742073746f7020696e6163746976652070726f6a656374000000005f82015250565b5f614075601c8361292e565b915061408082614041565b602082019050919050565b5f6020820190508181035f8301526140a281614069565b9050919050565b7f5472616e7366657220746f2063726561746f72206661696c65640000000000005f82015250565b5f6140dd601a8361292e565b91506140e8826140a9565b602082019050919050565b5f6020820190508181035f83015261410a816140d1565b9050919050565b7f526566756e64206661696c6564000000000000000000000000000000000000005f82015250565b5f614145600d8361292e565b915061415082614111565b602082019050919050565b5f6020820190508181035f83015261417281614139565b905091905056fea2646970667358221220520f5af4a3fc9cbe01b104643d3c51b6391f97601fd9e5f2ddb47308e1e0ec6f64736f6c634300081e0033",
			"opcodes": "PUSH1 0x80 PUSH1 0x40 MSTORE CALLVALUE DUP1 ISZERO PUSH1 0xE JUMPI PUSH0 PUSH0 REVERT JUMPDEST POP CALLER PUSH0 PUSH0 PUSH2 0x100 EXP DUP2 SLOAD DUP2 PUSH20 0xFFFFFFFFFFFFFFFFFFFFFFFFFFFFFFFFFFFFFFFF MUL NOT AND SWAP1 DUP4 PUSH20 0xFFFFFFFFFFFFFFFFFFFFFFFFFFFFFFFFFFFFFFFF AND MUL OR SWAP1 SSTORE POP PUSH2 0x41AF DUP1 PUSH2 0x5B PUSH0 CODECOPY PUSH0 RETURN INVALID PUSH1 0x80 PUSH1 0x40 MSTORE PUSH1 0x4 CALLDATASIZE LT PUSH2 0xC1 JUMPI PUSH0 CALLDATALOAD PUSH1 0xE0 SHR DUP1 PUSH4 0x6DB7A960 GT PUSH2 0x7E JUMPI DUP1 PUSH4 0xB99122AF GT PUSH2 0x58 JUMPI DUP1 PUSH4 0xB99122AF EQ PUSH2 0x240 JUMPI DUP1 PUSH4 0xD8A5B36D EQ PUSH2 0x27C JUMPI DUP1 PUSH4 0xF2EF441B EQ PUSH2 0x2B8 JUMPI DUP1 PUSH4 0xFABF5968 EQ PUSH2 0x2E2 JUMPI PUSH2 0xC1 JUMP JUMPDEST DUP1 PUSH4 0x6DB7A960 EQ PUSH2 0x1DA JUMPI DUP1 PUSH4 0x7808DE38 EQ PUSH2 0x202 JUMPI DUP1 PUSH4 0xAE632181 EQ PUSH2 0x218 JUMPI PUSH2 0xC1 JUMP JUMPDEST DUP1 PUSH4 0xE4877D6 EQ PUSH2 0xC5 JUMPI DUP1 PUSH4 0x107046BD EQ PUSH2 0xEF JUMPI DUP1 PUSH4 0x1A86E67D EQ PUSH2 0x132 JUMPI DUP1 PUSH4 0x33EC0FC5 EQ PUSH2 0x15A JUMPI DUP1 PUSH4 0x4E94E824 EQ PUSH2 0x196 JUMPI DUP1 PUSH4 0x6C563ABE EQ PUSH2 0x1BE JUMPI JUMPDEST PUSH0 PUSH0 REVERT JUMPDEST CALLVALUE DUP1 ISZERO PUSH2 0xD0 JUMPI PUSH0 PUSH0 REVERT JUMPDEST POP PUSH2 0xD9 PUSH2 0x31E JUMP JUMPDEST PUSH1 0x40 MLOAD PUSH2 0xE6 SWAP2 SWAP1 PUSH2 0x289C JUMP JUMPDEST PUSH1 0x40 MLOAD DUP1 SWAP2 SUB SWAP1 RETURN JUMPDEST CALLVALUE DUP1 ISZERO PUSH2 0xFA JUMPI PUSH0 PUSH0 REVERT JUMPDEST POP PUSH2 0x115 PUSH1 0x4 DUP1 CALLDATASIZE SUB DUP2 ADD SWAP1 PUSH2 0x110 SWAP2 SWAP1 PUSH2 0x28F9 JUMP JUMPDEST PUSH2 0x342 JUMP JUMPDEST PUSH1 0x40 MLOAD PUSH2 0x129 SWAP9 SWAP8 SWAP7 SWAP6 SWAP5 SWAP4 SWAP3 SWAP2 SWAP1 PUSH2 0x29BD JUMP JUMPDEST PUSH1 0x40 MLOAD DUP1 SWAP2 SUB SWAP1 RETURN JUMPDEST CALLVALUE DUP1 ISZERO PUSH2 0x13D JUMPI PUSH0 PUSH0 REVERT JUMPDEST POP PUSH2 0x158 PUSH1 0x4 DUP1 CALLDATASIZE SUB DUP2 ADD SWAP1 PUSH2 0x153 SWAP2 SWAP1 PUSH2 0x2C8F JUMP JUMPDEST PUSH2 0x55F JUMP JUMPDEST STOP JUMPDEST CALLVALUE DUP1 ISZERO PUSH2 0x165 JUMPI PUSH0 PUSH0 REVERT JUMPDEST POP PUSH2 0x180 PUSH1 0x4 DUP1 CALLDATASIZE SUB DUP2 ADD SWAP1 PUSH2 0x17B SWAP2 SWAP1 PUSH2 0x28F9 JUMP JUMPDEST PUSH2 0x736 JUMP JUMPDEST PUSH1 0x40 MLOAD PUSH2 0x18D SWAP2 SWAP1 PUSH2 0x2E1A JUMP JUMPDEST PUSH1 0x40 MLOAD DUP1 SWAP2 SUB SWAP1 RETURN JUMPDEST CALLVALUE DUP1 ISZERO PUSH2 0x1A1 JUMPI PUSH0 PUSH0 REVERT JUMPDEST POP PUSH2 0x1BC PUSH1 0x4 DUP1 CALLDATASIZE SUB DUP2 ADD SWAP1 PUSH2 0x1B7 SWAP2 SWAP1 PUSH2 0x28F9 JUMP JUMPDEST PUSH2 0x813 JUMP JUMPDEST STOP JUMPDEST PUSH2 0x1D8 PUSH1 0x4 DUP1 CALLDATASIZE SUB DUP2 ADD SWAP1 PUSH2 0x1D3 SWAP2 SWAP1 PUSH2 0x28F9 JUMP JUMPDEST PUSH2 0x99C JUMP JUMPDEST STOP JUMPDEST CALLVALUE DUP1 ISZERO PUSH2 0x1E5 JUMPI PUSH0 PUSH0 REVERT JUMPDEST POP PUSH2 0x200 PUSH1 0x4 DUP1 CALLDATASIZE SUB DUP2 ADD SWAP1 PUSH2 0x1FB SWAP2 SWAP1 PUSH2 0x28F9 JUMP JUMPDEST PUSH2 0xF84 JUMP JUMPDEST STOP JUMPDEST CALLVALUE DUP1 ISZERO PUSH2 0x20D JUMPI PUSH0 PUSH0 REVERT JUMPDEST POP PUSH2 0x216 PUSH2 0x1095 JUMP JUMPDEST STOP JUMPDEST CALLVALUE DUP1 ISZERO PUSH2 0x223 JUMPI PUSH0 PUSH0 REVERT JUMPDEST POP PUSH2 0x23E PUSH1 0x4 DUP1 CALLDATASIZE SUB DUP2 ADD SWAP1 PUSH2 0x239 SWAP2 SWAP1 PUSH2 0x2E3A JUMP JUMPDEST PUSH2 0x11C4 JUMP JUMPDEST STOP JUMPDEST CALLVALUE DUP1 ISZERO PUSH2 0x24B JUMPI PUSH0 PUSH0 REVERT JUMPDEST POP PUSH2 0x266 PUSH1 0x4 DUP1 CALLDATASIZE SUB DUP2 ADD SWAP1 PUSH2 0x261 SWAP2 SWAP1 PUSH2 0x28F9 JUMP JUMPDEST PUSH2 0x1726 JUMP JUMPDEST PUSH1 0x40 MLOAD PUSH2 0x273 SWAP2 SWAP1 PUSH2 0x2ED0 JUMP JUMPDEST PUSH1 0x40 MLOAD DUP1 SWAP2 SUB SWAP1 RETURN JUMPDEST CALLVALUE DUP1 ISZERO PUSH2 0x287 JUMPI PUSH0 PUSH0 REVERT JUMPDEST POP PUSH2 0x2A2 PUSH1 0x4 DUP1 CALLDATASIZE SUB DUP2 ADD SWAP1 PUSH2 0x29D SWAP2 SWAP1 PUSH2 0x28F9 JUMP JUMPDEST PUSH2 0x183C JUMP JUMPDEST PUSH1 0x40 MLOAD PUSH2 0x2AF SWAP2 SWAP1 PUSH2 0x2FBE JUMP JUMPDEST PUSH1 0x40 MLOAD DUP1 SWAP2 SUB SWAP1 RETURN JUMPDEST CALLVALUE DUP1 ISZERO PUSH2 0x2C3 JUMPI PUSH0 PUSH0 REVERT JUMPDEST POP PUSH2 0x2CC PUSH2 0x1992 JUMP JUMPDEST PUSH1 0x40 MLOAD PUSH2 0x2D9 SWAP2 SWAP1 PUSH2 0x31C0 JUMP JUMPDEST PUSH1 0x40 MLOAD DUP1 SWAP2 SUB SWAP1 RETURN JUMPDEST CALLVALUE DUP1 ISZERO PUSH2 0x2ED JUMPI PUSH0 PUSH0 REVERT JUMPDEST POP PUSH2 0x308 PUSH1 0x4 DUP1 CALLDATASIZE SUB DUP2 ADD SWAP1 PUSH2 0x303 SWAP2 SWAP1 PUSH2 0x28F9 JUMP JUMPDEST PUSH2 0x1E5E JUMP JUMPDEST PUSH1 0x40 MLOAD PUSH2 0x315 SWAP2 SWAP1 PUSH2 0x32B0 JUMP JUMPDEST PUSH1 0x40 MLOAD DUP1 SWAP2 SUB SWAP1 RETURN JUMPDEST PUSH0 PUSH0 SWAP1 SLOAD SWAP1 PUSH2 0x100 EXP SWAP1 DIV PUSH20 0xFFFFFFFFFFFFFFFFFFFFFFFFFFFFFFFFFFFFFFFF AND DUP2 JUMP JUMPDEST PUSH1 0x1 DUP2 DUP2 SLOAD DUP2 LT PUSH2 0x351 JUMPI PUSH0 DUP1 REVERT JUMPDEST SWAP1 PUSH0 MSTORE PUSH1 0x20 PUSH0 KECCAK256 SWAP1 PUSH1 0x8 MUL ADD PUSH0 SWAP2 POP SWAP1 POP DUP1 PUSH0 ADD PUSH0 SWAP1 SLOAD SWAP1 PUSH2 0x100 EXP SWAP1 DIV PUSH20 0xFFFFFFFFFFFFFFFFFFFFFFFFFFFFFFFFFFFFFFFF AND SWAP1 DUP1 PUSH1 0x1 ADD DUP1 SLOAD PUSH2 0x395 SWAP1 PUSH2 0x32FD JUMP JUMPDEST DUP1 PUSH1 0x1F ADD PUSH1 0x20 DUP1 SWAP2 DIV MUL PUSH1 0x20 ADD PUSH1 0x40 MLOAD SWAP1 DUP2 ADD PUSH1 0x40 MSTORE DUP1 SWAP3 SWAP2 SWAP1 DUP2 DUP2 MSTORE PUSH1 0x20 ADD DUP3 DUP1 SLOAD PUSH2 0x3C1 SWAP1 PUSH2 0x32FD JUMP JUMPDEST DUP1 ISZERO PUSH2 0x40C JUMPI DUP1 PUSH1 0x1F LT PUSH2 0x3E3 JUMPI PUSH2 0x100 DUP1 DUP4 SLOAD DIV MUL DUP4 MSTORE SWAP2 PUSH1 0x20 ADD SWAP2 PUSH2 0x40C JUMP JUMPDEST DUP3 ADD SWAP2 SWAP1 PUSH0 MSTORE PUSH1 0x20 PUSH0 KECCAK256 SWAP1 JUMPDEST DUP2 SLOAD DUP2 MSTORE SWAP1 PUSH1 0x1 ADD SWAP1 PUSH1 0x20 ADD DUP1 DUP4 GT PUSH2 0x3EF JUMPI DUP3 SWAP1 SUB PUSH1 0x1F AND DUP3 ADD SWAP2 JUMPDEST POP POP POP POP POP SWAP1 DUP1 PUSH1 0x2 ADD DUP1 SLOAD PUSH2 0x421 SWAP1 PUSH2 0x32FD JUMP JUMPDEST DUP1 PUSH1 0x1F ADD PUSH1 0x20 DUP1 SWAP2 DIV MUL PUSH1 0x20 ADD PUSH1 0x40 MLOAD SWAP1 DUP2 ADD PUSH1 0x40 MSTORE DUP1 SWAP3 SWAP2 SWAP1 DUP2 DUP2 MSTORE PUSH1 0x20 ADD DUP3 DUP1 SLOAD PUSH2 0x44D SWAP1 PUSH2 0x32FD JUMP JUMPDEST DUP1 ISZERO PUSH2 0x498 JUMPI DUP1 PUSH1 0x1F LT PUSH2 0x46F JUMPI PUSH2 0x100 DUP1 DUP4 SLOAD DIV MUL DUP4 MSTORE SWAP2 PUSH1 0x20 ADD SWAP2 PUSH2 0x498 JUMP JUMPDEST DUP3 ADD SWAP2 SWAP1 PUSH0 MSTORE PUSH1 0x20 PUSH0 KECCAK256 SWAP1 JUMPDEST DUP2 SLOAD DUP2 MSTORE SWAP1 PUSH1 0x1 ADD SWAP1 PUSH1 0x20 ADD DUP1 DUP4 GT PUSH2 0x47B JUMPI DUP3 SWAP1 SUB PUSH1 0x1F AND DUP3 ADD SWAP2 JUMPDEST POP POP POP POP POP SWAP1 DUP1 PUSH1 0x3 ADD DUP1 SLOAD PUSH2 0x4AD SWAP1 PUSH2 0x32FD JUMP JUMPDEST DUP1 PUSH1 0x1F ADD PUSH1 0x20 DUP1 SWAP2 DIV MUL PUSH1 0x20 ADD PUSH1 0x40 MLOAD SWAP1 DUP2 ADD PUSH1 0x40 MSTORE DUP1 SWAP3 SWAP2 SWAP1 DUP2 DUP2 MSTORE PUSH1 0x20 ADD DUP3 DUP1 SLOAD PUSH2 0x4D9 SWAP1 PUSH2 0x32FD JUMP JUMPDEST DUP1 ISZERO PUSH2 0x524 JUMPI DUP1 PUSH1 0x1F LT PUSH2 0x4FB JUMPI PUSH2 0x100 DUP1 DUP4 SLOAD DIV MUL DUP4 MSTORE SWAP2 PUSH1 0x20 ADD SWAP2 PUSH2 0x524 JUMP JUMPDEST DUP3 ADD SWAP2 SWAP1 PUSH0 MSTORE PUSH1 0x20 PUSH0 KECCAK256 SWAP1 JUMPDEST DUP2 SLOAD DUP2 MSTORE SWAP1 PUSH1 0x1 ADD SWAP1 PUSH1 0x20 ADD DUP1 DUP4 GT PUSH2 0x507 JUMPI DUP3 SWAP1 SUB PUSH1 0x1F AND DUP3 ADD SWAP2 JUMPDEST POP POP POP POP POP SWAP1 DUP1 PUSH1 0x4 ADD SLOAD SWAP1 DUP1 PUSH1 0x5 ADD SLOAD SWAP1 DUP1 PUSH1 0x7 ADD PUSH0 SWAP1 SLOAD SWAP1 PUSH2 0x100 EXP SWAP1 DIV PUSH1 0xFF AND SWAP1 DUP1 PUSH1 0x7 ADD PUSH1 0x1 SWAP1 SLOAD SWAP1 PUSH2 0x100 EXP SWAP1 DIV PUSH1 0xFF AND SWAP1 POP DUP9 JUMP JUMPDEST PUSH0 PUSH0 SWAP1 SLOAD SWAP1 PUSH2 0x100 EXP SWAP1 DIV PUSH20 0xFFFFFFFFFFFFFFFFFFFFFFFFFFFFFFFFFFFFFFFF AND PUSH20 0xFFFFFFFFFFFFFFFFFFFFFFFFFFFFFFFFFFFFFFFF AND CALLER PUSH20 0xFFFFFFFFFFFFFFFFFFFFFFFFFFFFFFFFFFFFFFFF AND SUB PUSH2 0x5ED JUMPI PUSH1 0x40 MLOAD PUSH32 0x8C379A000000000000000000000000000000000000000000000000000000000 DUP2 MSTORE PUSH1 0x4 ADD PUSH2 0x5E4 SWAP1 PUSH2 0x339D JUMP JUMPDEST PUSH1 0x40 MLOAD DUP1 SWAP2 SUB SWAP1 REVERT JUMPDEST PUSH0 PUSH1 0x1 DUP1 DUP2 PUSH1 0x1 DUP2 SLOAD ADD DUP1 DUP3 SSTORE DUP1 SWAP2 POP POP SUB SWAP1 PUSH0 MSTORE PUSH1 0x20 PUSH0 KECCAK256 SWAP1 PUSH1 0x8 MUL ADD SWAP1 POP CALLER DUP2 PUSH0 ADD PUSH0 PUSH2 0x100 EXP DUP2 SLOAD DUP2 PUSH20 0xFFFFFFFFFFFFFFFFFFFFFFFFFFFFFFFFFFFFFFFF MUL NOT AND SWAP1 DUP4 PUSH20 0xFFFFFFFFFFFFFFFFFFFFFFFFFFFFFFFFFFFFFFFF AND MUL OR SWAP1 SSTORE POP DUP5 DUP2 PUSH1 0x1 ADD SWAP1 DUP2 PUSH2 0x65F SWAP2 SWAP1 PUSH2 0x355B JUMP JUMPDEST POP DUP4 DUP2 PUSH1 0x2 ADD SWAP1 DUP2 PUSH2 0x671 SWAP2 SWAP1 PUSH2 0x355B JUMP JUMPDEST POP DUP3 DUP2 PUSH1 0x3 ADD SWAP1 DUP2 PUSH2 0x683 SWAP2 SWAP1 PUSH2 0x355B JUMP JUMPDEST POP PUSH0 DUP2 PUSH1 0x4 ADD DUP2 SWAP1 SSTORE POP PUSH0 DUP2 PUSH1 0x5 ADD DUP2 SWAP1 SSTORE POP PUSH1 0x1 DUP2 PUSH1 0x7 ADD PUSH0 PUSH2 0x100 EXP DUP2 SLOAD DUP2 PUSH1 0xFF MUL NOT AND SWAP1 DUP4 ISZERO ISZERO MUL OR SWAP1 SSTORE POP PUSH0 DUP2 PUSH1 0x7 ADD PUSH1 0x1 PUSH2 0x100 EXP DUP2 SLOAD DUP2 PUSH1 0xFF MUL NOT AND SWAP1 DUP4 ISZERO ISZERO MUL OR SWAP1 SSTORE POP PUSH2 0x6E8 PUSH1 0x1 DUP1 DUP1 SLOAD SWAP1 POP PUSH2 0x6E2 SWAP2 SWAP1 PUSH2 0x3657 JUMP JUMPDEST DUP4 PUSH2 0x11C4 JUMP JUMPDEST PUSH32 0x1AC2092E16E28EEF29D1832F3DC69DA1B21284A1F3159D3B26CB238B22FE4F8A PUSH1 0x1 DUP1 DUP1 SLOAD SWAP1 POP PUSH2 0x71A SWAP2 SWAP1 PUSH2 0x3657 JUMP JUMPDEST PUSH1 0x40 MLOAD PUSH2 0x727 SWAP2 SWAP1 PUSH2 0x368A JUMP JUMPDEST PUSH1 0x40 MLOAD DUP1 SWAP2 SUB SWAP1 LOG1 POP POP POP POP POP JUMP JUMPDEST PUSH1 0x60 PUSH0 PUSH1 0x1 DUP4 DUP2 SLOAD DUP2 LT PUSH2 0x74D JUMPI PUSH2 0x74C PUSH2 0x36A3 JUMP JUMPDEST JUMPDEST SWAP1 PUSH0 MSTORE PUSH1 0x20 PUSH0 KECCAK256 SWAP1 PUSH1 0x8 MUL ADD SWAP1 POP PUSH0 DUP2 PUSH1 0x6 ADD DUP3 PUSH1 0x5 ADD SLOAD DUP2 SLOAD DUP2 LT PUSH2 0x776 JUMPI PUSH2 0x775 PUSH2 0x36A3 JUMP JUMPDEST JUMPDEST SWAP1 PUSH0 MSTORE PUSH1 0x20 PUSH0 KECCAK256 SWAP1 PUSH1 0x6 MUL ADD SWAP1 POP DUP1 PUSH1 0x3 ADD DUP1 SLOAD DUP1 PUSH1 0x20 MUL PUSH1 0x20 ADD PUSH1 0x40 MLOAD SWAP1 DUP2 ADD PUSH1 0x40 MSTORE DUP1 SWAP3 SWAP2 SWAP1 DUP2 DUP2 MSTORE PUSH1 0x20 ADD DUP3 DUP1 SLOAD DUP1 ISZERO PUSH2 0x805 JUMPI PUSH1 0x20 MUL DUP3 ADD SWAP2 SWAP1 PUSH0 MSTORE PUSH1 0x20 PUSH0 KECCAK256 SWAP1 JUMPDEST DUP2 PUSH0 SWAP1 SLOAD SWAP1 PUSH2 0x100 EXP SWAP1 DIV PUSH20 0xFFFFFFFFFFFFFFFFFFFFFFFFFFFFFFFFFFFFFFFF AND PUSH20 0xFFFFFFFFFFFFFFFFFFFFFFFFFFFFFFFFFFFFFFFF AND DUP2 MSTORE PUSH1 0x20 ADD SWAP1 PUSH1 0x1 ADD SWAP1 DUP1 DUP4 GT PUSH2 0x7BC JUMPI JUMPDEST POP POP POP POP POP SWAP3 POP POP POP SWAP2 SWAP1 POP JUMP JUMPDEST PUSH1 0x1 DUP1 SLOAD SWAP1 POP DUP2 LT PUSH2 0x85A JUMPI PUSH1 0x40 MLOAD PUSH32 0x8C379A000000000000000000000000000000000000000000000000000000000 DUP2 MSTORE PUSH1 0x4 ADD PUSH2 0x851 SWAP1 PUSH2 0x371A JUMP JUMPDEST PUSH1 0x40 MLOAD DUP1 SWAP2 SUB SWAP1 REVERT JUMPDEST PUSH0 PUSH1 0x1 DUP3 DUP2 SLOAD DUP2 LT PUSH2 0x86F JUMPI PUSH2 0x86E PUSH2 0x36A3 JUMP JUMPDEST JUMPDEST SWAP1 PUSH0 MSTORE PUSH1 0x20 PUSH0 KECCAK256 SWAP1 PUSH1 0x8 MUL ADD SWAP1 POP DUP1 PUSH1 0x7 ADD PUSH0 SWAP1 SLOAD SWAP1 PUSH2 0x100 EXP SWAP1 DIV PUSH1 0xFF AND PUSH2 0x8CD JUMPI PUSH1 0x40 MLOAD PUSH32 0x8C379A000000000000000000000000000000000000000000000000000000000 DUP2 MSTORE PUSH1 0x4 ADD PUSH2 0x8C4 SWAP1 PUSH2 0x3782 JUMP JUMPDEST PUSH1 0x40 MLOAD DUP1 SWAP2 SUB SWAP1 REVERT JUMPDEST PUSH0 DUP2 PUSH1 0x6 ADD DUP3 PUSH1 0x5 ADD SLOAD DUP2 SLOAD DUP2 LT PUSH2 0x8E8 JUMPI PUSH2 0x8E7 PUSH2 0x36A3 JUMP JUMPDEST JUMPDEST SWAP1 PUSH0 MSTORE PUSH1 0x20 PUSH0 KECCAK256 SWAP1 PUSH1 0x6 MUL ADD SWAP1 POP DUP1 PUSH1 0x5 ADD PUSH0 SWAP1 SLOAD SWAP1 PUSH2 0x100 EXP SWAP1 DIV PUSH1 0xFF AND ISZERO PUSH2 0x947 JUMPI PUSH1 0x40 MLOAD PUSH32 0x8C379A000000000000000000000000000000000000000000000000000000000 DUP2 MSTORE PUSH1 0x4 ADD PUSH2 0x93E SWAP1 PUSH2 0x37EA JUMP JUMPDEST PUSH1 0x40 MLOAD DUP1 SWAP2 SUB SWAP1 REVERT JUMPDEST PUSH32 0x3F9EE693372748925082C0C5BA09ECFFC5FDDFEECF993BECFF877EAC8A1E08BC DUP2 PUSH0 ADD PUSH1 0x1 ADD SLOAD DUP3 PUSH0 ADD PUSH0 ADD SLOAD DUP5 PUSH1 0x4 ADD SLOAD DUP5 PUSH1 0x2 ADD SLOAD PUSH1 0x40 MLOAD PUSH2 0x98F SWAP5 SWAP4 SWAP3 SWAP2 SWAP1 PUSH2 0x3808 JUMP JUMPDEST PUSH1 0x40 MLOAD DUP1 SWAP2 SUB SWAP1 LOG1 POP POP POP JUMP JUMPDEST PUSH1 0x1 DUP1 SLOAD SWAP1 POP DUP2 LT PUSH2 0x9E3 JUMPI PUSH1 0x40 MLOAD PUSH32 0x8C379A000000000000000000000000000000000000000000000000000000000 DUP2 MSTORE PUSH1 0x4 ADD PUSH2 0x9DA SWAP1 PUSH2 0x3895 JUMP JUMPDEST PUSH1 0x40 MLOAD DUP1 SWAP2 SUB SWAP1 REVERT JUMPDEST CALLER PUSH20 0xFFFFFFFFFFFFFFFFFFFFFFFFFFFFFFFFFFFFFFFF AND BALANCE CALLVALUE GT ISZERO PUSH2 0xA3D JUMPI PUSH1 0x40 MLOAD PUSH32 0x8C379A000000000000000000000000000000000000000000000000000000000 DUP2 MSTORE PUSH1 0x4 ADD PUSH2 0xA34 SWAP1 PUSH2 0x3923 JUMP JUMPDEST PUSH1 0x40 MLOAD DUP1 SWAP2 SUB SWAP1 REVERT JUMPDEST PUSH0 CALLVALUE GT PUSH2 0xA7F JUMPI PUSH1 0x40 MLOAD PUSH32 0x8C379A000000000000000000000000000000000000000000000000000000000 DUP2 MSTORE PUSH1 0x4 ADD PUSH2 0xA76 SWAP1 PUSH2 0x398B JUMP JUMPDEST PUSH1 0x40 MLOAD DUP1 SWAP2 SUB SWAP1 REVERT JUMPDEST PUSH0 PUSH1 0x1 DUP3 DUP2 SLOAD DUP2 LT PUSH2 0xA94 JUMPI PUSH2 0xA93 PUSH2 0x36A3 JUMP JUMPDEST JUMPDEST SWAP1 PUSH0 MSTORE PUSH1 0x20 PUSH0 KECCAK256 SWAP1 PUSH1 0x8 MUL ADD SWAP1 POP DUP1 PUSH1 0x7 ADD PUSH0 SWAP1 SLOAD SWAP1 PUSH2 0x100 EXP SWAP1 DIV PUSH1 0xFF AND PUSH2 0xAF2 JUMPI PUSH1 0x40 MLOAD PUSH32 0x8C379A000000000000000000000000000000000000000000000000000000000 DUP2 MSTORE PUSH1 0x4 ADD PUSH2 0xAE9 SWAP1 PUSH2 0x39F3 JUMP JUMPDEST PUSH1 0x40 MLOAD DUP1 SWAP2 SUB SWAP1 REVERT JUMPDEST PUSH0 DUP2 PUSH1 0x6 ADD DUP3 PUSH1 0x5 ADD SLOAD DUP2 SLOAD DUP2 LT PUSH2 0xB0D JUMPI PUSH2 0xB0C PUSH2 0x36A3 JUMP JUMPDEST JUMPDEST SWAP1 PUSH0 MSTORE PUSH1 0x20 PUSH0 KECCAK256 SWAP1 PUSH1 0x6 MUL ADD SWAP1 POP TIMESTAMP DUP2 PUSH0 ADD PUSH1 0x1 ADD SLOAD GT PUSH2 0xB63 JUMPI PUSH1 0x40 MLOAD PUSH32 0x8C379A000000000000000000000000000000000000000000000000000000000 DUP2 MSTORE PUSH1 0x4 ADD PUSH2 0xB5A SWAP1 PUSH2 0x3A5B JUMP JUMPDEST PUSH1 0x40 MLOAD DUP1 SWAP2 SUB SWAP1 REVERT JUMPDEST PUSH0 DUP2 PUSH1 0x4 ADD PUSH0 CALLER PUSH20 0xFFFFFFFFFFFFFFFFFFFFFFFFFFFFFFFFFFFFFFFF AND PUSH20 0xFFFFFFFFFFFFFFFFFFFFFFFFFFFFFFFFFFFFFFFF AND DUP2 MSTORE PUSH1 0x20 ADD SWAP1 DUP2 MSTORE PUSH1 0x20 ADD PUSH0 KECCAK256 SLOAD SUB PUSH2 0xC0C JUMPI DUP1 PUSH1 0x3 ADD CALLER SWAP1 DUP1 PUSH1 0x1 DUP2 SLOAD ADD DUP1 DUP3 SSTORE DUP1 SWAP2 POP POP PUSH1 0x1 SWAP1 SUB SWAP1 PUSH0 MSTORE PUSH1 0x20 PUSH0 KECCAK256 ADD PUSH0 SWAP1 SWAP2 SWAP1 SWAP2 SWAP1 SWAP2 PUSH2 0x100 EXP DUP2 SLOAD DUP2 PUSH20 0xFFFFFFFFFFFFFFFFFFFFFFFFFFFFFFFFFFFFFFFF MUL NOT AND SWAP1 DUP4 PUSH20 0xFFFFFFFFFFFFFFFFFFFFFFFFFFFFFFFFFFFFFFFF AND MUL OR SWAP1 SSTORE POP JUMPDEST CALLVALUE DUP2 PUSH1 0x4 ADD PUSH0 CALLER PUSH20 0xFFFFFFFFFFFFFFFFFFFFFFFFFFFFFFFFFFFFFFFF AND PUSH20 0xFFFFFFFFFFFFFFFFFFFFFFFFFFFFFFFFFFFFFFFF AND DUP2 MSTORE PUSH1 0x20 ADD SWAP1 DUP2 MSTORE PUSH1 0x20 ADD PUSH0 KECCAK256 PUSH0 DUP3 DUP3 SLOAD PUSH2 0xC5A SWAP2 SWAP1 PUSH2 0x3A79 JUMP JUMPDEST SWAP3 POP POP DUP2 SWAP1 SSTORE POP CALLVALUE DUP2 PUSH1 0x2 ADD PUSH0 DUP3 DUP3 SLOAD PUSH2 0xC74 SWAP2 SWAP1 PUSH2 0x3A79 JUMP JUMPDEST SWAP3 POP POP DUP2 SWAP1 SSTORE POP CALLVALUE DUP3 PUSH1 0x4 ADD PUSH0 DUP3 DUP3 SLOAD PUSH2 0xC8E SWAP2 SWAP1 PUSH2 0x3A79 JUMP JUMPDEST SWAP3 POP POP DUP2 SWAP1 SSTORE POP JUMPDEST DUP1 PUSH0 ADD PUSH0 ADD SLOAD DUP3 PUSH1 0x4 ADD SLOAD GT ISZERO PUSH2 0xF3A JUMPI PUSH0 DUP2 PUSH0 ADD PUSH0 ADD SLOAD DUP4 PUSH1 0x4 ADD SLOAD PUSH2 0xCBD SWAP2 SWAP1 PUSH2 0x3657 JUMP JUMPDEST SWAP1 POP DUP2 PUSH0 ADD PUSH0 ADD SLOAD DUP3 PUSH1 0x2 ADD DUP2 SWAP1 SSTORE POP DUP2 PUSH0 ADD PUSH0 ADD SLOAD DUP4 PUSH1 0x4 ADD DUP2 SWAP1 SSTORE POP DUP1 DUP3 PUSH1 0x4 ADD PUSH0 CALLER PUSH20 0xFFFFFFFFFFFFFFFFFFFFFFFFFFFFFFFFFFFFFFFF AND PUSH20 0xFFFFFFFFFFFFFFFFFFFFFFFFFFFFFFFFFFFFFFFF AND DUP2 MSTORE PUSH1 0x20 ADD SWAP1 DUP2 MSTORE PUSH1 0x20 ADD PUSH0 KECCAK256 PUSH0 DUP3 DUP3 SLOAD PUSH2 0xD29 SWAP2 SWAP1 PUSH2 0x3657 JUMP JUMPDEST SWAP3 POP POP DUP2 SWAP1 SSTORE POP PUSH1 0x1 DUP4 PUSH1 0x6 ADD DUP1 SLOAD SWAP1 POP PUSH2 0xD44 SWAP2 SWAP1 PUSH2 0x3657 JUMP JUMPDEST DUP4 PUSH1 0x5 ADD SLOAD SUB PUSH2 0xE17 JUMPI PUSH0 DUP4 PUSH1 0x7 ADD PUSH0 PUSH2 0x100 EXP DUP2 SLOAD DUP2 PUSH1 0xFF MUL NOT AND SWAP1 DUP4 ISZERO ISZERO MUL OR SWAP1 SSTORE POP PUSH0 CALLER PUSH20 0xFFFFFFFFFFFFFFFFFFFFFFFFFFFFFFFFFFFFFFFF AND DUP3 PUSH1 0x40 MLOAD PUSH2 0xD8E SWAP1 PUSH2 0x3AD9 JUMP JUMPDEST PUSH0 PUSH1 0x40 MLOAD DUP1 DUP4 SUB DUP2 DUP6 DUP8 GAS CALL SWAP3 POP POP POP RETURNDATASIZE DUP1 PUSH0 DUP2 EQ PUSH2 0xDC8 JUMPI PUSH1 0x40 MLOAD SWAP2 POP PUSH1 0x1F NOT PUSH1 0x3F RETURNDATASIZE ADD AND DUP3 ADD PUSH1 0x40 MSTORE RETURNDATASIZE DUP3 MSTORE RETURNDATASIZE PUSH0 PUSH1 0x20 DUP5 ADD RETURNDATACOPY PUSH2 0xDCD JUMP JUMPDEST PUSH1 0x60 SWAP2 POP JUMPDEST POP POP SWAP1 POP DUP1 PUSH2 0xE11 JUMPI PUSH1 0x40 MLOAD PUSH32 0x8C379A000000000000000000000000000000000000000000000000000000000 DUP2 MSTORE PUSH1 0x4 ADD PUSH2 0xE08 SWAP1 PUSH2 0x3B37 JUMP JUMPDEST PUSH1 0x40 MLOAD DUP1 SWAP2 SUB SWAP1 REVERT JUMPDEST POP PUSH2 0xF34 JUMP JUMPDEST PUSH2 0xE20 DUP5 PUSH2 0x22F1 JUMP JUMPDEST DUP3 PUSH1 0x6 ADD DUP4 PUSH1 0x5 ADD SLOAD DUP2 SLOAD DUP2 LT PUSH2 0xE3A JUMPI PUSH2 0xE39 PUSH2 0x36A3 JUMP JUMPDEST JUMPDEST SWAP1 PUSH0 MSTORE PUSH1 0x20 PUSH0 KECCAK256 SWAP1 PUSH1 0x6 MUL ADD SWAP2 POP DUP2 PUSH1 0x3 ADD CALLER SWAP1 DUP1 PUSH1 0x1 DUP2 SLOAD ADD DUP1 DUP3 SSTORE DUP1 SWAP2 POP POP PUSH1 0x1 SWAP1 SUB SWAP1 PUSH0 MSTORE PUSH1 0x20 PUSH0 KECCAK256 ADD PUSH0 SWAP1 SWAP2 SWAP1 SWAP2 SWAP1 SWAP2 PUSH2 0x100 EXP DUP2 SLOAD DUP2 PUSH20 0xFFFFFFFFFFFFFFFFFFFFFFFFFFFFFFFFFFFFFFFF MUL NOT AND SWAP1 DUP4 PUSH20 0xFFFFFFFFFFFFFFFFFFFFFFFFFFFFFFFFFFFFFFFF AND MUL OR SWAP1 SSTORE POP DUP1 DUP3 PUSH1 0x4 ADD PUSH0 CALLER PUSH20 0xFFFFFFFFFFFFFFFFFFFFFFFFFFFFFFFFFFFFFFFF AND PUSH20 0xFFFFFFFFFFFFFFFFFFFFFFFFFFFFFFFFFFFFFFFF AND DUP2 MSTORE PUSH1 0x20 ADD SWAP1 DUP2 MSTORE PUSH1 0x20 ADD PUSH0 KECCAK256 PUSH0 DUP3 DUP3 SLOAD PUSH2 0xEF8 SWAP2 SWAP1 PUSH2 0x3A79 JUMP JUMPDEST SWAP3 POP POP DUP2 SWAP1 SSTORE POP DUP1 DUP3 PUSH1 0x2 ADD PUSH0 DUP3 DUP3 SLOAD PUSH2 0xF12 SWAP2 SWAP1 PUSH2 0x3A79 JUMP JUMPDEST SWAP3 POP POP DUP2 SWAP1 SSTORE POP DUP1 DUP4 PUSH1 0x4 ADD PUSH0 DUP3 DUP3 SLOAD PUSH2 0xF2C SWAP2 SWAP1 PUSH2 0x3A79 JUMP JUMPDEST SWAP3 POP POP DUP2 SWAP1 SSTORE POP JUMPDEST POP PUSH2 0xC96 JUMP JUMPDEST PUSH32 0x17E2EFFA169C5DDE193942ABD21F6D49E7D32C15AB843DA440CB2ABDD10F1911 DUP4 CALLVALUE DUP5 PUSH1 0x4 ADD SLOAD DUP5 PUSH1 0x2 ADD SLOAD PUSH1 0x40 MLOAD PUSH2 0xF77 SWAP5 SWAP4 SWAP3 SWAP2 SWAP1 PUSH2 0x3808 JUMP JUMPDEST PUSH1 0x40 MLOAD DUP1 SWAP2 SUB SWAP1 LOG1 POP POP POP JUMP JUMPDEST PUSH0 PUSH0 SWAP1 SLOAD SWAP1 PUSH2 0x100 EXP SWAP1 DIV PUSH20 0xFFFFFFFFFFFFFFFFFFFFFFFFFFFFFFFFFFFFFFFF AND PUSH20 0xFFFFFFFFFFFFFFFFFFFFFFFFFFFFFFFFFFFFFFFF AND CALLER PUSH20 0xFFFFFFFFFFFFFFFFFFFFFFFFFFFFFFFFFFFFFFFF AND EQ DUP1 PUSH2 0x104A JUMPI POP PUSH1 0x1 DUP2 DUP2 SLOAD DUP2 LT PUSH2 0xFED JUMPI PUSH2 0xFEC PUSH2 0x36A3 JUMP JUMPDEST JUMPDEST SWAP1 PUSH0 MSTORE PUSH1 0x20 PUSH0 KECCAK256 SWAP1 PUSH1 0x8 MUL ADD PUSH0 ADD PUSH0 SWAP1 SLOAD SWAP1 PUSH2 0x100 EXP SWAP1 DIV PUSH20 0xFFFFFFFFFFFFFFFFFFFFFFFFFFFFFFFFFFFFFFFF AND PUSH20 0xFFFFFFFFFFFFFFFFFFFFFFFFFFFFFFFFFFFFFFFF AND CALLER PUSH20 0xFFFFFFFFFFFFFFFFFFFFFFFFFFFFFFFFFFFFFFFF AND EQ JUMPDEST PUSH2 0x1089 JUMPI PUSH1 0x40 MLOAD PUSH32 0x8C379A000000000000000000000000000000000000000000000000000000000 DUP2 MSTORE PUSH1 0x4 ADD PUSH2 0x1080 SWAP1 PUSH2 0x3BC5 JUMP JUMPDEST PUSH1 0x40 MLOAD DUP1 SWAP2 SUB SWAP1 REVERT JUMPDEST PUSH2 0x1092 DUP2 PUSH2 0x2478 JUMP JUMPDEST POP JUMP JUMPDEST PUSH0 PUSH0 SWAP1 SLOAD SWAP1 PUSH2 0x100 EXP SWAP1 DIV PUSH20 0xFFFFFFFFFFFFFFFFFFFFFFFFFFFFFFFFFFFFFFFF AND PUSH20 0xFFFFFFFFFFFFFFFFFFFFFFFFFFFFFFFFFFFFFFFF AND CALLER PUSH20 0xFFFFFFFFFFFFFFFFFFFFFFFFFFFFFFFFFFFFFFFF AND EQ PUSH2 0x1123 JUMPI PUSH1 0x40 MLOAD PUSH32 0x8C379A000000000000000000000000000000000000000000000000000000000 DUP2 MSTORE PUSH1 0x4 ADD PUSH2 0x111A SWAP1 PUSH2 0x3C53 JUMP JUMPDEST PUSH1 0x40 MLOAD DUP1 SWAP2 SUB SWAP1 REVERT JUMPDEST PUSH0 PUSH0 SWAP1 POP JUMPDEST PUSH1 0x1 DUP1 SLOAD SWAP1 POP DUP2 LT ISZERO PUSH2 0x11C1 JUMPI PUSH0 PUSH1 0x1 DUP3 DUP2 SLOAD DUP2 LT PUSH2 0x114A JUMPI PUSH2 0x1149 PUSH2 0x36A3 JUMP JUMPDEST JUMPDEST SWAP1 PUSH0 MSTORE PUSH1 0x20 PUSH0 KECCAK256 SWAP1 PUSH1 0x8 MUL ADD SWAP1 POP PUSH0 DUP2 PUSH1 0x6 ADD DUP3 PUSH1 0x5 ADD SLOAD DUP2 SLOAD DUP2 LT PUSH2 0x1173 JUMPI PUSH2 0x1172 PUSH2 0x36A3 JUMP JUMPDEST JUMPDEST SWAP1 PUSH0 MSTORE PUSH1 0x20 PUSH0 KECCAK256 SWAP1 PUSH1 0x6 MUL ADD SWAP1 POP DUP2 PUSH1 0x7 ADD PUSH0 SWAP1 SLOAD SWAP1 PUSH2 0x100 EXP SWAP1 DIV PUSH1 0xFF AND DUP1 ISZERO PUSH2 0x11A3 JUMPI POP TIMESTAMP DUP2 PUSH0 ADD PUSH1 0x1 ADD SLOAD LT JUMPDEST ISZERO PUSH2 0x11B2 JUMPI PUSH2 0x11B1 DUP4 PUSH2 0x2478 JUMP JUMPDEST JUMPDEST POP POP DUP1 DUP1 PUSH1 0x1 ADD SWAP2 POP POP PUSH2 0x1128 JUMP JUMPDEST POP JUMP JUMPDEST PUSH1 0x1 DUP1 SLOAD SWAP1 POP DUP3 LT PUSH2 0x120B JUMPI PUSH1 0x40 MLOAD PUSH32 0x8C379A000000000000000000000000000000000000000000000000000000000 DUP2 MSTORE PUSH1 0x4 ADD PUSH2 0x1202 SWAP1 PUSH2 0x371A JUMP JUMPDEST PUSH1 0x40 MLOAD DUP1 SWAP2 SUB SWAP1 REVERT JUMPDEST PUSH0 PUSH1 0x1 DUP4 DUP2 SLOAD DUP2 LT PUSH2 0x1220 JUMPI PUSH2 0x121F PUSH2 0x36A3 JUMP JUMPDEST JUMPDEST SWAP1 PUSH0 MSTORE PUSH1 0x20 PUSH0 KECCAK256 SWAP1 PUSH1 0x8 MUL ADD SWAP1 POP DUP1 PUSH1 0x7 ADD PUSH0 SWAP1 SLOAD SWAP1 PUSH2 0x100 EXP SWAP1 DIV PUSH1 0xFF AND PUSH2 0x127E JUMPI PUSH1 0x40 MLOAD PUSH32 0x8C379A000000000000000000000000000000000000000000000000000000000 DUP2 MSTORE PUSH1 0x4 ADD PUSH2 0x1275 SWAP1 PUSH2 0x3CE1 JUMP JUMPDEST PUSH1 0x40 MLOAD DUP1 SWAP2 SUB SWAP1 REVERT JUMPDEST CALLER PUSH20 0xFFFFFFFFFFFFFFFFFFFFFFFFFFFFFFFFFFFFFFFF AND DUP2 PUSH0 ADD PUSH0 SWAP1 SLOAD SWAP1 PUSH2 0x100 EXP SWAP1 DIV PUSH20 0xFFFFFFFFFFFFFFFFFFFFFFFFFFFFFFFFFFFFFFFF AND PUSH20 0xFFFFFFFFFFFFFFFFFFFFFFFFFFFFFFFFFFFFFFFF AND EQ PUSH2 0x130E JUMPI PUSH1 0x40 MLOAD PUSH32 0x8C379A000000000000000000000000000000000000000000000000000000000 DUP2 MSTORE PUSH1 0x4 ADD PUSH2 0x1305 SWAP1 PUSH2 0x3D6F JUMP JUMPDEST PUSH1 0x40 MLOAD DUP1 SWAP2 SUB SWAP1 REVERT JUMPDEST PUSH0 DUP3 MLOAD GT PUSH2 0x1351 JUMPI PUSH1 0x40 MLOAD PUSH32 0x8C379A000000000000000000000000000000000000000000000000000000000 DUP2 MSTORE PUSH1 0x4 ADD PUSH2 0x1348 SWAP1 PUSH2 0x3DD7 JUMP JUMPDEST PUSH1 0x40 MLOAD DUP1 SWAP2 SUB SWAP1 REVERT JUMPDEST PUSH0 PUSH0 SWAP1 POP JUMPDEST DUP3 MLOAD DUP2 LT ISZERO PUSH2 0x1720 JUMPI PUSH0 DUP4 DUP3 DUP2 MLOAD DUP2 LT PUSH2 0x1373 JUMPI PUSH2 0x1372 PUSH2 0x36A3 JUMP JUMPDEST JUMPDEST PUSH1 0x20 MUL PUSH1 0x20 ADD ADD MLOAD PUSH0 ADD MLOAD GT PUSH2 0x13BE JUMPI PUSH1 0x40 MLOAD PUSH32 0x8C379A000000000000000000000000000000000000000000000000000000000 DUP2 MSTORE PUSH1 0x4 ADD PUSH2 0x13B5 SWAP1 PUSH2 0x3E3F JUMP JUMPDEST PUSH1 0x40 MLOAD DUP1 SWAP2 SUB SWAP1 REVERT JUMPDEST TIMESTAMP DUP4 DUP3 DUP2 MLOAD DUP2 LT PUSH2 0x13D2 JUMPI PUSH2 0x13D1 PUSH2 0x36A3 JUMP JUMPDEST JUMPDEST PUSH1 0x20 MUL PUSH1 0x20 ADD ADD MLOAD PUSH1 0x20 ADD MLOAD GT PUSH2 0x141E JUMPI PUSH1 0x40 MLOAD PUSH32 0x8C379A000000000000000000000000000000000000000000000000000000000 DUP2 MSTORE PUSH1 0x4 ADD PUSH2 0x1415 SWAP1 PUSH2 0x3EA7 JUMP JUMPDEST PUSH1 0x40 MLOAD DUP1 SWAP2 SUB SWAP1 REVERT JUMPDEST PUSH0 DUP2 GT ISZERO PUSH2 0x1539 JUMPI DUP3 PUSH1 0x1 DUP3 PUSH2 0x1434 SWAP2 SWAP1 PUSH2 0x3657 JUMP JUMPDEST DUP2 MLOAD DUP2 LT PUSH2 0x1445 JUMPI PUSH2 0x1444 PUSH2 0x36A3 JUMP JUMPDEST JUMPDEST PUSH1 0x20 MUL PUSH1 0x20 ADD ADD MLOAD PUSH0 ADD MLOAD DUP4 DUP3 DUP2 MLOAD DUP2 LT PUSH2 0x1463 JUMPI PUSH2 0x1462 PUSH2 0x36A3 JUMP JUMPDEST JUMPDEST PUSH1 0x20 MUL PUSH1 0x20 ADD ADD MLOAD PUSH0 ADD MLOAD GT PUSH2 0x14AE JUMPI PUSH1 0x40 MLOAD PUSH32 0x8C379A000000000000000000000000000000000000000000000000000000000 DUP2 MSTORE PUSH1 0x4 ADD PUSH2 0x14A5 SWAP1 PUSH2 0x3F35 JUMP JUMPDEST PUSH1 0x40 MLOAD DUP1 SWAP2 SUB SWAP1 REVERT JUMPDEST DUP3 PUSH1 0x1 DUP3 PUSH2 0x14BC SWAP2 SWAP1 PUSH2 0x3657 JUMP JUMPDEST DUP2 MLOAD DUP2 LT PUSH2 0x14CD JUMPI PUSH2 0x14CC PUSH2 0x36A3 JUMP JUMPDEST JUMPDEST PUSH1 0x20 MUL PUSH1 0x20 ADD ADD MLOAD PUSH1 0x20 ADD MLOAD DUP4 DUP3 DUP2 MLOAD DUP2 LT PUSH2 0x14EC JUMPI PUSH2 0x14EB PUSH2 0x36A3 JUMP JUMPDEST JUMPDEST PUSH1 0x20 MUL PUSH1 0x20 ADD ADD MLOAD PUSH1 0x20 ADD MLOAD GT PUSH2 0x1538 JUMPI PUSH1 0x40 MLOAD PUSH32 0x8C379A000000000000000000000000000000000000000000000000000000000 DUP2 MSTORE PUSH1 0x4 ADD PUSH2 0x152F SWAP1 PUSH2 0x3FC3 JUMP JUMPDEST PUSH1 0x40 MLOAD DUP1 SWAP2 SUB SWAP1 REVERT JUMPDEST JUMPDEST PUSH0 DUP3 PUSH1 0x6 ADD DUP1 SLOAD SWAP1 POP GT ISZERO PUSH2 0x167B JUMPI DUP2 PUSH1 0x6 ADD PUSH1 0x1 DUP4 PUSH1 0x6 ADD DUP1 SLOAD SWAP1 POP PUSH2 0x1560 SWAP2 SWAP1 PUSH2 0x3657 JUMP JUMPDEST DUP2 SLOAD DUP2 LT PUSH2 0x1571 JUMPI PUSH2 0x1570 PUSH2 0x36A3 JUMP JUMPDEST JUMPDEST SWAP1 PUSH0 MSTORE PUSH1 0x20 PUSH0 KECCAK256 SWAP1 PUSH1 0x6 MUL ADD PUSH0 ADD PUSH0 ADD SLOAD DUP4 DUP3 DUP2 MLOAD DUP2 LT PUSH2 0x1595 JUMPI PUSH2 0x1594 PUSH2 0x36A3 JUMP JUMPDEST JUMPDEST PUSH1 0x20 MUL PUSH1 0x20 ADD ADD MLOAD PUSH0 ADD MLOAD GT PUSH2 0x15E0 JUMPI PUSH1 0x40 MLOAD PUSH32 0x8C379A000000000000000000000000000000000000000000000000000000000 DUP2 MSTORE PUSH1 0x4 ADD PUSH2 0x15D7 SWAP1 PUSH2 0x3F35 JUMP JUMPDEST PUSH1 0x40 MLOAD DUP1 SWAP2 SUB SWAP1 REVERT JUMPDEST DUP2 PUSH1 0x6 ADD PUSH1 0x1 DUP4 PUSH1 0x6 ADD DUP1 SLOAD SWAP1 POP PUSH2 0x15F8 SWAP2 SWAP1 PUSH2 0x3657 JUMP JUMPDEST DUP2 SLOAD DUP2 LT PUSH2 0x1609 JUMPI PUSH2 0x1608 PUSH2 0x36A3 JUMP JUMPDEST JUMPDEST SWAP1 PUSH0 MSTORE PUSH1 0x20 PUSH0 KECCAK256 SWAP1 PUSH1 0x6 MUL ADD PUSH0 ADD PUSH1 0x1 ADD SLOAD DUP4 DUP3 DUP2 MLOAD DUP2 LT PUSH2 0x162E JUMPI PUSH2 0x162D PUSH2 0x36A3 JUMP JUMPDEST JUMPDEST PUSH1 0x20 MUL PUSH1 0x20 ADD ADD MLOAD PUSH1 0x20 ADD MLOAD GT PUSH2 0x167A JUMPI PUSH1 0x40 MLOAD PUSH32 0x8C379A000000000000000000000000000000000000000000000000000000000 DUP2 MSTORE PUSH1 0x4 ADD PUSH2 0x1671 SWAP1 PUSH2 0x3FC3 JUMP JUMPDEST PUSH1 0x40 MLOAD DUP1 SWAP2 SUB SWAP1 REVERT JUMPDEST JUMPDEST PUSH0 DUP3 PUSH1 0x6 ADD PUSH1 0x1 DUP2 PUSH1 0x1 DUP2 SLOAD ADD DUP1 DUP3 SSTORE DUP1 SWAP2 POP POP SUB SWAP1 PUSH0 MSTORE PUSH1 0x20 PUSH0 KECCAK256 SWAP1 PUSH1 0x6 MUL ADD SWAP1 POP DUP4 DUP3 DUP2 MLOAD DUP2 LT PUSH2 0x16B1 JUMPI PUSH2 0x16B0 PUSH2 0x36A3 JUMP JUMPDEST JUMPDEST PUSH1 0x20 MUL PUSH1 0x20 ADD ADD MLOAD PUSH0 ADD MLOAD DUP2 PUSH0 ADD PUSH0 ADD DUP2 SWAP1 SSTORE POP DUP4 DUP3 DUP2 MLOAD DUP2 LT PUSH2 0x16D8 JUMPI PUSH2 0x16D7 PUSH2 0x36A3 JUMP JUMPDEST JUMPDEST PUSH1 0x20 MUL PUSH1 0x20 ADD ADD MLOAD PUSH1 0x20 ADD MLOAD DUP2 PUSH0 ADD PUSH1 0x1 ADD DUP2 SWAP1 SSTORE POP PUSH0 DUP2 PUSH1 0x2 ADD DUP2 SWAP1 SSTORE POP PUSH0 DUP2 PUSH1 0x5 ADD PUSH0 PUSH2 0x100 EXP DUP2 SLOAD DUP2 PUSH1 0xFF MUL NOT AND SWAP1 DUP4 ISZERO ISZERO MUL OR SWAP1 SSTORE POP POP DUP1 DUP1 PUSH1 0x1 ADD SWAP2 POP POP PUSH2 0x1356 JUMP JUMPDEST POP POP POP POP JUMP JUMPDEST PUSH2 0x172E PUSH2 0x27E5 JUMP JUMPDEST PUSH1 0x1 DUP1 SLOAD SWAP1 POP DUP3 LT PUSH2 0x1775 JUMPI PUSH1 0x40 MLOAD PUSH32 0x8C379A000000000000000000000000000000000000000000000000000000000 DUP2 MSTORE PUSH1 0x4 ADD PUSH2 0x176C SWAP1 PUSH2 0x371A JUMP JUMPDEST PUSH1 0x40 MLOAD DUP1 SWAP2 SUB SWAP1 REVERT JUMPDEST PUSH0 PUSH1 0x1 DUP4 DUP2 SLOAD DUP2 LT PUSH2 0x178A JUMPI PUSH2 0x1789 PUSH2 0x36A3 JUMP JUMPDEST JUMPDEST SWAP1 PUSH0 MSTORE PUSH1 0x20 PUSH0 KECCAK256 SWAP1 PUSH1 0x8 MUL ADD SWAP1 POP TIMESTAMP DUP2 PUSH1 0x6 ADD DUP3 PUSH1 0x5 ADD SLOAD DUP2 SLOAD DUP2 LT PUSH2 0x17B3 JUMPI PUSH2 0x17B2 PUSH2 0x36A3 JUMP JUMPDEST JUMPDEST SWAP1 PUSH0 MSTORE PUSH1 0x20 PUSH0 KECCAK256 SWAP1 PUSH1 0x6 MUL ADD PUSH0 ADD PUSH1 0x1 ADD SLOAD LT DUP1 ISZERO PUSH2 0x17DF JUMPI POP DUP1 PUSH1 0x7 ADD PUSH0 SWAP1 SLOAD SWAP1 PUSH2 0x100 EXP SWAP1 DIV PUSH1 0xFF AND JUMPDEST ISZERO PUSH2 0x17EE JUMPI PUSH2 0x17ED DUP4 PUSH2 0x2478 JUMP JUMPDEST JUMPDEST DUP1 PUSH1 0x6 ADD DUP2 PUSH1 0x5 ADD SLOAD DUP2 SLOAD DUP2 LT PUSH2 0x1808 JUMPI PUSH2 0x1807 PUSH2 0x36A3 JUMP JUMPDEST JUMPDEST SWAP1 PUSH0 MSTORE PUSH1 0x20 PUSH0 KECCAK256 SWAP1 PUSH1 0x6 MUL ADD PUSH0 ADD PUSH1 0x40 MLOAD DUP1 PUSH1 0x40 ADD PUSH1 0x40 MSTORE SWAP1 DUP2 PUSH0 DUP3 ADD SLOAD DUP2 MSTORE PUSH1 0x20 ADD PUSH1 0x1 DUP3 ADD SLOAD DUP2 MSTORE POP POP SWAP2 POP POP SWAP2 SWAP1 POP JUMP JUMPDEST PUSH1 0x60 PUSH1 0x1 DUP1 SLOAD SWAP1 POP DUP3 LT PUSH2 0x1885 JUMPI PUSH1 0x40 MLOAD PUSH32 0x8C379A000000000000000000000000000000000000000000000000000000000 DUP2 MSTORE PUSH1 0x4 ADD PUSH2 0x187C SWAP1 PUSH2 0x371A JUMP JUMPDEST PUSH1 0x40 MLOAD DUP1 SWAP2 SUB SWAP1 REVERT JUMPDEST PUSH0 PUSH1 0x1 DUP4 DUP2 SLOAD DUP2 LT PUSH2 0x189A JUMPI PUSH2 0x1899 PUSH2 0x36A3 JUMP JUMPDEST JUMPDEST SWAP1 PUSH0 MSTORE PUSH1 0x20 PUSH0 KECCAK256 SWAP1 PUSH1 0x8 MUL ADD SWAP1 POP PUSH0 DUP2 PUSH1 0x6 ADD DUP1 SLOAD SWAP1 POP PUSH8 0xFFFFFFFFFFFFFFFF DUP2 GT ISZERO PUSH2 0x18CA JUMPI PUSH2 0x18C9 PUSH2 0x2A56 JUMP JUMPDEST JUMPDEST PUSH1 0x40 MLOAD SWAP1 DUP1 DUP3 MSTORE DUP1 PUSH1 0x20 MUL PUSH1 0x20 ADD DUP3 ADD PUSH1 0x40 MSTORE DUP1 ISZERO PUSH2 0x1903 JUMPI DUP2 PUSH1 0x20 ADD JUMPDEST PUSH2 0x18F0 PUSH2 0x27E5 JUMP JUMPDEST DUP2 MSTORE PUSH1 0x20 ADD SWAP1 PUSH1 0x1 SWAP1 SUB SWAP1 DUP2 PUSH2 0x18E8 JUMPI SWAP1 POP JUMPDEST POP SWAP1 POP PUSH0 PUSH0 SWAP1 POP JUMPDEST DUP3 PUSH1 0x6 ADD DUP1 SLOAD SWAP1 POP DUP2 LT ISZERO PUSH2 0x1987 JUMPI DUP3 PUSH1 0x6 ADD DUP2 DUP2 SLOAD DUP2 LT PUSH2 0x1930 JUMPI PUSH2 0x192F PUSH2 0x36A3 JUMP JUMPDEST JUMPDEST SWAP1 PUSH0 MSTORE PUSH1 0x20 PUSH0 KECCAK256 SWAP1 PUSH1 0x6 MUL ADD PUSH0 ADD PUSH1 0x40 MLOAD DUP1 PUSH1 0x40 ADD PUSH1 0x40 MSTORE SWAP1 DUP2 PUSH0 DUP3 ADD SLOAD DUP2 MSTORE PUSH1 0x20 ADD PUSH1 0x1 DUP3 ADD SLOAD DUP2 MSTORE POP POP DUP3 DUP3 DUP2 MLOAD DUP2 LT PUSH2 0x196F JUMPI PUSH2 0x196E PUSH2 0x36A3 JUMP JUMPDEST JUMPDEST PUSH1 0x20 MUL PUSH1 0x20 ADD ADD DUP2 SWAP1 MSTORE POP DUP1 DUP1 PUSH1 0x1 ADD SWAP2 POP POP PUSH2 0x190B JUMP JUMPDEST POP DUP1 SWAP3 POP POP POP SWAP2 SWAP1 POP JUMP JUMPDEST PUSH1 0x60 PUSH0 PUSH0 SWAP1 POP PUSH0 PUSH0 SWAP1 POP JUMPDEST PUSH1 0x1 DUP1 SLOAD SWAP1 POP DUP2 LT ISZERO PUSH2 0x19FB JUMPI PUSH1 0x1 DUP2 DUP2 SLOAD DUP2 LT PUSH2 0x19BE JUMPI PUSH2 0x19BD PUSH2 0x36A3 JUMP JUMPDEST JUMPDEST SWAP1 PUSH0 MSTORE PUSH1 0x20 PUSH0 KECCAK256 SWAP1 PUSH1 0x8 MUL ADD PUSH1 0x7 ADD PUSH0 SWAP1 SLOAD SWAP1 PUSH2 0x100 EXP SWAP1 DIV PUSH1 0xFF AND ISZERO PUSH2 0x19EE JUMPI DUP2 DUP1 PUSH2 0x19EA SWAP1 PUSH2 0x3FE1 JUMP JUMPDEST SWAP3 POP POP JUMPDEST DUP1 DUP1 PUSH1 0x1 ADD SWAP2 POP POP PUSH2 0x199D JUMP JUMPDEST POP PUSH0 DUP2 PUSH8 0xFFFFFFFFFFFFFFFF DUP2 GT ISZERO PUSH2 0x1A17 JUMPI PUSH2 0x1A16 PUSH2 0x2A56 JUMP JUMPDEST JUMPDEST PUSH1 0x40 MLOAD SWAP1 DUP1 DUP3 MSTORE DUP1 PUSH1 0x20 MUL PUSH1 0x20 ADD DUP3 ADD PUSH1 0x40 MSTORE DUP1 ISZERO PUSH2 0x1A50 JUMPI DUP2 PUSH1 0x20 ADD JUMPDEST PUSH2 0x1A3D PUSH2 0x27FD JUMP JUMPDEST DUP2 MSTORE PUSH1 0x20 ADD SWAP1 PUSH1 0x1 SWAP1 SUB SWAP1 DUP2 PUSH2 0x1A35 JUMPI SWAP1 POP JUMPDEST POP SWAP1 POP PUSH0 PUSH0 SWAP1 POP PUSH0 PUSH0 SWAP1 POP JUMPDEST PUSH1 0x1 DUP1 SLOAD SWAP1 POP DUP2 LT ISZERO PUSH2 0x1E54 JUMPI PUSH1 0x1 DUP2 DUP2 SLOAD DUP2 LT PUSH2 0x1A7D JUMPI PUSH2 0x1A7C PUSH2 0x36A3 JUMP JUMPDEST JUMPDEST SWAP1 PUSH0 MSTORE PUSH1 0x20 PUSH0 KECCAK256 SWAP1 PUSH1 0x8 MUL ADD PUSH1 0x7 ADD PUSH0 SWAP1 SLOAD SWAP1 PUSH2 0x100 EXP SWAP1 DIV PUSH1 0xFF AND ISZERO PUSH2 0x1E47 JUMPI PUSH2 0x1AA6 PUSH2 0x27FD JUMP JUMPDEST PUSH1 0x1 DUP3 DUP2 SLOAD DUP2 LT PUSH2 0x1ABA JUMPI PUSH2 0x1AB9 PUSH2 0x36A3 JUMP JUMPDEST JUMPDEST SWAP1 PUSH0 MSTORE PUSH1 0x20 PUSH0 KECCAK256 SWAP1 PUSH1 0x8 MUL ADD PUSH0 ADD PUSH0 SWAP1 SLOAD SWAP1 PUSH2 0x100 EXP SWAP1 DIV PUSH20 0xFFFFFFFFFFFFFFFFFFFFFFFFFFFFFFFFFFFFFFFF AND DUP2 PUSH0 ADD SWAP1 PUSH20 0xFFFFFFFFFFFFFFFFFFFFFFFFFFFFFFFFFFFFFFFF AND SWAP1 DUP2 PUSH20 0xFFFFFFFFFFFFFFFFFFFFFFFFFFFFFFFFFFFFFFFF AND DUP2 MSTORE POP POP PUSH1 0x1 DUP3 DUP2 SLOAD DUP2 LT PUSH2 0x1B32 JUMPI PUSH2 0x1B31 PUSH2 0x36A3 JUMP JUMPDEST JUMPDEST SWAP1 PUSH0 MSTORE PUSH1 0x20 PUSH0 KECCAK256 SWAP1 PUSH1 0x8 MUL ADD PUSH1 0x1 ADD DUP1 SLOAD PUSH2 0x1B4C SWAP1 PUSH2 0x32FD JUMP JUMPDEST DUP1 PUSH1 0x1F ADD PUSH1 0x20 DUP1 SWAP2 DIV MUL PUSH1 0x20 ADD PUSH1 0x40 MLOAD SWAP1 DUP2 ADD PUSH1 0x40 MSTORE DUP1 SWAP3 SWAP2 SWAP1 DUP2 DUP2 MSTORE PUSH1 0x20 ADD DUP3 DUP1 SLOAD PUSH2 0x1B78 SWAP1 PUSH2 0x32FD JUMP JUMPDEST DUP1 ISZERO PUSH2 0x1BC3 JUMPI DUP1 PUSH1 0x1F LT PUSH2 0x1B9A JUMPI PUSH2 0x100 DUP1 DUP4 SLOAD DIV MUL DUP4 MSTORE SWAP2 PUSH1 0x20 ADD SWAP2 PUSH2 0x1BC3 JUMP JUMPDEST DUP3 ADD SWAP2 SWAP1 PUSH0 MSTORE PUSH1 0x20 PUSH0 KECCAK256 SWAP1 JUMPDEST DUP2 SLOAD DUP2 MSTORE SWAP1 PUSH1 0x1 ADD SWAP1 PUSH1 0x20 ADD DUP1 DUP4 GT PUSH2 0x1BA6 JUMPI DUP3 SWAP1 SUB PUSH1 0x1F AND DUP3 ADD SWAP2 JUMPDEST POP POP POP POP POP DUP2 PUSH1 0x20 ADD DUP2 SWAP1 MSTORE POP PUSH1 0x1 DUP3 DUP2 SLOAD DUP2 LT PUSH2 0x1BE4 JUMPI PUSH2 0x1BE3 PUSH2 0x36A3 JUMP JUMPDEST JUMPDEST SWAP1 PUSH0 MSTORE PUSH1 0x20 PUSH0 KECCAK256 SWAP1 PUSH1 0x8 MUL ADD PUSH1 0x2 ADD DUP1 SLOAD PUSH2 0x1BFE SWAP1 PUSH2 0x32FD JUMP JUMPDEST DUP1 PUSH1 0x1F ADD PUSH1 0x20 DUP1 SWAP2 DIV MUL PUSH1 0x20 ADD PUSH1 0x40 MLOAD SWAP1 DUP2 ADD PUSH1 0x40 MSTORE DUP1 SWAP3 SWAP2 SWAP1 DUP2 DUP2 MSTORE PUSH1 0x20 ADD DUP3 DUP1 SLOAD PUSH2 0x1C2A SWAP1 PUSH2 0x32FD JUMP JUMPDEST DUP1 ISZERO PUSH2 0x1C75 JUMPI DUP1 PUSH1 0x1F LT PUSH2 0x1C4C JUMPI PUSH2 0x100 DUP1 DUP4 SLOAD DIV MUL DUP4 MSTORE SWAP2 PUSH1 0x20 ADD SWAP2 PUSH2 0x1C75 JUMP JUMPDEST DUP3 ADD SWAP2 SWAP1 PUSH0 MSTORE PUSH1 0x20 PUSH0 KECCAK256 SWAP1 JUMPDEST DUP2 SLOAD DUP2 MSTORE SWAP1 PUSH1 0x1 ADD SWAP1 PUSH1 0x20 ADD DUP1 DUP4 GT PUSH2 0x1C58 JUMPI DUP3 SWAP1 SUB PUSH1 0x1F AND DUP3 ADD SWAP2 JUMPDEST POP POP POP POP POP DUP2 PUSH1 0x40 ADD DUP2 SWAP1 MSTORE POP PUSH1 0x1 DUP3 DUP2 SLOAD DUP2 LT PUSH2 0x1C96 JUMPI PUSH2 0x1C95 PUSH2 0x36A3 JUMP JUMPDEST JUMPDEST SWAP1 PUSH0 MSTORE PUSH1 0x20 PUSH0 KECCAK256 SWAP1 PUSH1 0x8 MUL ADD PUSH1 0x3 ADD DUP1 SLOAD PUSH2 0x1CB0 SWAP1 PUSH2 0x32FD JUMP JUMPDEST DUP1 PUSH1 0x1F ADD PUSH1 0x20 DUP1 SWAP2 DIV MUL PUSH1 0x20 ADD PUSH1 0x40 MLOAD SWAP1 DUP2 ADD PUSH1 0x40 MSTORE DUP1 SWAP3 SWAP2 SWAP1 DUP2 DUP2 MSTORE PUSH1 0x20 ADD DUP3 DUP1 SLOAD PUSH2 0x1CDC SWAP1 PUSH2 0x32FD JUMP JUMPDEST DUP1 ISZERO PUSH2 0x1D27 JUMPI DUP1 PUSH1 0x1F LT PUSH2 0x1CFE JUMPI PUSH2 0x100 DUP1 DUP4 SLOAD DIV MUL DUP4 MSTORE SWAP2 PUSH1 0x20 ADD SWAP2 PUSH2 0x1D27 JUMP JUMPDEST DUP3 ADD SWAP2 SWAP1 PUSH0 MSTORE PUSH1 0x20 PUSH0 KECCAK256 SWAP1 JUMPDEST DUP2 SLOAD DUP2 MSTORE SWAP1 PUSH1 0x1 ADD SWAP1 PUSH1 0x20 ADD DUP1 DUP4 GT PUSH2 0x1D0A JUMPI DUP3 SWAP1 SUB PUSH1 0x1F AND DUP3 ADD SWAP2 JUMPDEST POP POP POP POP POP DUP2 PUSH1 0x60 ADD DUP2 SWAP1 MSTORE POP PUSH1 0x1 DUP3 DUP2 SLOAD DUP2 LT PUSH2 0x1D48 JUMPI PUSH2 0x1D47 PUSH2 0x36A3 JUMP JUMPDEST JUMPDEST SWAP1 PUSH0 MSTORE PUSH1 0x20 PUSH0 KECCAK256 SWAP1 PUSH1 0x8 MUL ADD PUSH1 0x4 ADD SLOAD DUP2 PUSH1 0x80 ADD DUP2 DUP2 MSTORE POP POP PUSH1 0x1 DUP3 DUP2 SLOAD DUP2 LT PUSH2 0x1D75 JUMPI PUSH2 0x1D74 PUSH2 0x36A3 JUMP JUMPDEST JUMPDEST SWAP1 PUSH0 MSTORE PUSH1 0x20 PUSH0 KECCAK256 SWAP1 PUSH1 0x8 MUL ADD PUSH1 0x5 ADD SLOAD DUP2 PUSH1 0xA0 ADD DUP2 DUP2 MSTORE POP POP PUSH1 0x1 DUP3 DUP2 SLOAD DUP2 LT PUSH2 0x1DA2 JUMPI PUSH2 0x1DA1 PUSH2 0x36A3 JUMP JUMPDEST JUMPDEST SWAP1 PUSH0 MSTORE PUSH1 0x20 PUSH0 KECCAK256 SWAP1 PUSH1 0x8 MUL ADD PUSH1 0x7 ADD PUSH0 SWAP1 SLOAD SWAP1 PUSH2 0x100 EXP SWAP1 DIV PUSH1 0xFF AND DUP2 PUSH1 0xC0 ADD SWAP1 ISZERO ISZERO SWAP1 DUP2 ISZERO ISZERO DUP2 MSTORE POP POP PUSH1 0x1 DUP3 DUP2 SLOAD DUP2 LT PUSH2 0x1DE1 JUMPI PUSH2 0x1DE0 PUSH2 0x36A3 JUMP JUMPDEST JUMPDEST SWAP1 PUSH0 MSTORE PUSH1 0x20 PUSH0 KECCAK256 SWAP1 PUSH1 0x8 MUL ADD PUSH1 0x7 ADD PUSH1 0x1 SWAP1 SLOAD SWAP1 PUSH2 0x100 EXP SWAP1 DIV PUSH1 0xFF AND DUP2 PUSH1 0xE0 ADD SWAP1 ISZERO ISZERO SWAP1 DUP2 ISZERO ISZERO DUP2 MSTORE POP POP DUP2 DUP2 PUSH2 0x100 ADD DUP2 DUP2 MSTORE POP POP DUP1 DUP5 DUP5 DUP2 MLOAD DUP2 LT PUSH2 0x1E2C JUMPI PUSH2 0x1E2B PUSH2 0x36A3 JUMP JUMPDEST JUMPDEST PUSH1 0x20 MUL PUSH1 0x20 ADD ADD DUP2 SWAP1 MSTORE POP DUP3 DUP1 PUSH2 0x1E42 SWAP1 PUSH2 0x3FE1 JUMP JUMPDEST SWAP4 POP POP POP JUMPDEST DUP1 DUP1 PUSH1 0x1 ADD SWAP2 POP POP PUSH2 0x1A5C JUMP JUMPDEST POP DUP2 SWAP4 POP POP POP POP SWAP1 JUMP JUMPDEST PUSH2 0x1E66 PUSH2 0x27FD JUMP JUMPDEST PUSH1 0x1 DUP1 SLOAD SWAP1 POP DUP3 LT PUSH2 0x1EAD JUMPI PUSH1 0x40 MLOAD PUSH32 0x8C379A000000000000000000000000000000000000000000000000000000000 DUP2 MSTORE PUSH1 0x4 ADD PUSH2 0x1EA4 SWAP1 PUSH2 0x371A JUMP JUMPDEST PUSH1 0x40 MLOAD DUP1 SWAP2 SUB SWAP1 REVERT JUMPDEST PUSH0 PUSH1 0x1 DUP4 DUP2 SLOAD DUP2 LT PUSH2 0x1EC2 JUMPI PUSH2 0x1EC1 PUSH2 0x36A3 JUMP JUMPDEST JUMPDEST SWAP1 PUSH0 MSTORE PUSH1 0x20 PUSH0 KECCAK256 SWAP1 PUSH1 0x8 MUL ADD SWAP1 POP TIMESTAMP DUP2 PUSH1 0x6 ADD DUP3 PUSH1 0x5 ADD SLOAD DUP2 SLOAD DUP2 LT PUSH2 0x1EEB JUMPI PUSH2 0x1EEA PUSH2 0x36A3 JUMP JUMPDEST JUMPDEST SWAP1 PUSH0 MSTORE PUSH1 0x20 PUSH0 KECCAK256 SWAP1 PUSH1 0x6 MUL ADD PUSH0 ADD PUSH1 0x1 ADD SLOAD LT DUP1 ISZERO PUSH2 0x1F17 JUMPI POP DUP1 PUSH1 0x7 ADD PUSH0 SWAP1 SLOAD SWAP1 PUSH2 0x100 EXP SWAP1 DIV PUSH1 0xFF AND JUMPDEST ISZERO PUSH2 0x1F26 JUMPI PUSH2 0x1F25 DUP4 PUSH2 0x2478 JUMP JUMPDEST JUMPDEST PUSH2 0x1F2E PUSH2 0x27FD JUMP JUMPDEST PUSH1 0x1 DUP5 DUP2 SLOAD DUP2 LT PUSH2 0x1F42 JUMPI PUSH2 0x1F41 PUSH2 0x36A3 JUMP JUMPDEST JUMPDEST SWAP1 PUSH0 MSTORE PUSH1 0x20 PUSH0 KECCAK256 SWAP1 PUSH1 0x8 MUL ADD PUSH0 ADD PUSH0 SWAP1 SLOAD SWAP1 PUSH2 0x100 EXP SWAP1 DIV PUSH20 0xFFFFFFFFFFFFFFFFFFFFFFFFFFFFFFFFFFFFFFFF AND DUP2 PUSH0 ADD SWAP1 PUSH20 0xFFFFFFFFFFFFFFFFFFFFFFFFFFFFFFFFFFFFFFFF AND SWAP1 DUP2 PUSH20 0xFFFFFFFFFFFFFFFFFFFFFFFFFFFFFFFFFFFFFFFF AND DUP2 MSTORE POP POP PUSH1 0x1 DUP5 DUP2 SLOAD DUP2 LT PUSH2 0x1FBA JUMPI PUSH2 0x1FB9 PUSH2 0x36A3 JUMP JUMPDEST JUMPDEST SWAP1 PUSH0 MSTORE PUSH1 0x20 PUSH0 KECCAK256 SWAP1 PUSH1 0x8 MUL ADD PUSH1 0x1 ADD DUP1 SLOAD PUSH2 0x1FD4 SWAP1 PUSH2 0x32FD JUMP JUMPDEST DUP1 PUSH1 0x1F ADD PUSH1 0x20 DUP1 SWAP2 DIV MUL PUSH1 0x20 ADD PUSH1 0x40 MLOAD SWAP1 DUP2 ADD PUSH1 0x40 MSTORE DUP1 SWAP3 SWAP2 SWAP1 DUP2 DUP2 MSTORE PUSH1 0x20 ADD DUP3 DUP1 SLOAD PUSH2 0x2000 SWAP1 PUSH2 0x32FD JUMP JUMPDEST DUP1 ISZERO PUSH2 0x204B JUMPI DUP1 PUSH1 0x1F LT PUSH2 0x2022 JUMPI PUSH2 0x100 DUP1 DUP4 SLOAD DIV MUL DUP4 MSTORE SWAP2 PUSH1 0x20 ADD SWAP2 PUSH2 0x204B JUMP JUMPDEST DUP3 ADD SWAP2 SWAP1 PUSH0 MSTORE PUSH1 0x20 PUSH0 KECCAK256 SWAP1 JUMPDEST DUP2 SLOAD DUP2 MSTORE SWAP1 PUSH1 0x1 ADD SWAP1 PUSH1 0x20 ADD DUP1 DUP4 GT PUSH2 0x202E JUMPI DUP3 SWAP1 SUB PUSH1 0x1F AND DUP3 ADD SWAP2 JUMPDEST POP POP POP POP POP DUP2 PUSH1 0x20 ADD DUP2 SWAP1 MSTORE POP PUSH1 0x1 DUP5 DUP2 SLOAD DUP2 LT PUSH2 0x206C JUMPI PUSH2 0x206B PUSH2 0x36A3 JUMP JUMPDEST JUMPDEST SWAP1 PUSH0 MSTORE PUSH1 0x20 PUSH0 KECCAK256 SWAP1 PUSH1 0x8 MUL ADD PUSH1 0x2 ADD DUP1 SLOAD PUSH2 0x2086 SWAP1 PUSH2 0x32FD JUMP JUMPDEST DUP1 PUSH1 0x1F ADD PUSH1 0x20 DUP1 SWAP2 DIV MUL PUSH1 0x20 ADD PUSH1 0x40 MLOAD SWAP1 DUP2 ADD PUSH1 0x40 MSTORE DUP1 SWAP3 SWAP2 SWAP1 DUP2 DUP2 MSTORE PUSH1 0x20 ADD DUP3 DUP1 SLOAD PUSH2 0x20B2 SWAP1 PUSH2 0x32FD JUMP JUMPDEST DUP1 ISZERO PUSH2 0x20FD JUMPI DUP1 PUSH1 0x1F LT PUSH2 0x20D4 JUMPI PUSH2 0x100 DUP1 DUP4 SLOAD DIV MUL DUP4 MSTORE SWAP2 PUSH1 0x20 ADD SWAP2 PUSH2 0x20FD JUMP JUMPDEST DUP3 ADD SWAP2 SWAP1 PUSH0 MSTORE PUSH1 0x20 PUSH0 KECCAK256 SWAP1 JUMPDEST DUP2 SLOAD DUP2 MSTORE SWAP1 PUSH1 0x1 ADD SWAP1 PUSH1 0x20 ADD DUP1 DUP4 GT PUSH2 0x20E0 JUMPI DUP3 SWAP1 SUB PUSH1 0x1F AND DUP3 ADD SWAP2 JUMPDEST POP POP POP POP POP DUP2 PUSH1 0x40 ADD DUP2 SWAP1 MSTORE POP PUSH1 0x1 DUP5 DUP2 SLOAD DUP2 LT PUSH2 0x211E JUMPI PUSH2 0x211D PUSH2 0x36A3 JUMP JUMPDEST JUMPDEST SWAP1 PUSH0 MSTORE PUSH1 0x20 PUSH0 KECCAK256 SWAP1 PUSH1 0x8 MUL ADD PUSH1 0x3 ADD DUP1 SLOAD PUSH2 0x2138 SWAP1 PUSH2 0x32FD JUMP JUMPDEST DUP1 PUSH1 0x1F ADD PUSH1 0x20 DUP1 SWAP2 DIV MUL PUSH1 0x20 ADD PUSH1 0x40 MLOAD SWAP1 DUP2 ADD PUSH1 0x40 MSTORE DUP1 SWAP3 SWAP2 SWAP1 DUP2 DUP2 MSTORE PUSH1 0x20 ADD DUP3 DUP1 SLOAD PUSH2 0x2164 SWAP1 PUSH2 0x32FD JUMP JUMPDEST DUP1 ISZERO PUSH2 0x21AF JUMPI DUP1 PUSH1 0x1F LT PUSH2 0x2186 JUMPI PUSH2 0x100 DUP1 DUP4 SLOAD DIV MUL DUP4 MSTORE SWAP2 PUSH1 0x20 ADD SWAP2 PUSH2 0x21AF JUMP JUMPDEST DUP3 ADD SWAP2 SWAP1 PUSH0 MSTORE PUSH1 0x20 PUSH0 KECCAK256 SWAP1 JUMPDEST DUP2 SLOAD DUP2 MSTORE SWAP1 PUSH1 0x1 ADD SWAP1 PUSH1 0x20 ADD DUP1 DUP4 GT PUSH2 0x2192 JUMPI DUP3 SWAP1 SUB PUSH1 0x1F AND DUP3 ADD SWAP2 JUMPDEST POP POP POP POP POP DUP2 PUSH1 0x60 ADD DUP2 SWAP1 MSTORE POP PUSH1 0x1 DUP5 DUP2 SLOAD DUP2 LT PUSH2 0x21D0 JUMPI PUSH2 0x21CF PUSH2 0x36A3 JUMP JUMPDEST JUMPDEST SWAP1 PUSH0 MSTORE PUSH1 0x20 PUSH0 KECCAK256 SWAP1 PUSH1 0x8 MUL ADD PUSH1 0x4 ADD SLOAD DUP2 PUSH1 0x80 ADD DUP2 DUP2 MSTORE POP POP PUSH1 0x1 DUP5 DUP2 SLOAD DUP2 LT PUSH2 0x21FD JUMPI PUSH2 0x21FC PUSH2 0x36A3 JUMP JUMPDEST JUMPDEST SWAP1 PUSH0 MSTORE PUSH1 0x20 PUSH0 KECCAK256 SWAP1 PUSH1 0x8 MUL ADD PUSH1 0x5 ADD SLOAD DUP2 PUSH1 0xA0 ADD DUP2 DUP2 MSTORE POP POP PUSH1 0x1 DUP5 DUP2 SLOAD DUP2 LT PUSH2 0x222A JUMPI PUSH2 0x2229 PUSH2 0x36A3 JUMP JUMPDEST JUMPDEST SWAP1 PUSH0 MSTORE PUSH1 0x20 PUSH0 KECCAK256 SWAP1 PUSH1 0x8 MUL ADD PUSH1 0x7 ADD PUSH0 SWAP1 SLOAD SWAP1 PUSH2 0x100 EXP SWAP1 DIV PUSH1 0xFF AND DUP2 PUSH1 0xC0 ADD SWAP1 ISZERO ISZERO SWAP1 DUP2 ISZERO ISZERO DUP2 MSTORE POP POP PUSH1 0x1 DUP5 DUP2 SLOAD DUP2 LT PUSH2 0x2269 JUMPI PUSH2 0x2268 PUSH2 0x36A3 JUMP JUMPDEST JUMPDEST SWAP1 PUSH0 MSTORE PUSH1 0x20 PUSH0 KECCAK256 SWAP1 PUSH1 0x8 MUL ADD PUSH1 0x7 ADD PUSH1 0x1 SWAP1 SLOAD SWAP1 PUSH2 0x100 EXP SWAP1 DIV PUSH1 0xFF AND DUP2 PUSH1 0xE0 ADD SWAP1 ISZERO ISZERO SWAP1 DUP2 ISZERO ISZERO DUP2 MSTORE POP POP DUP4 DUP2 PUSH2 0x100 ADD DUP2 DUP2 MSTORE POP POP PUSH32 0x44BFA1A13633868C1D56F0FE1C8CB101001D1737E2692E78157E239D5D529630 DUP3 PUSH1 0x7 ADD PUSH0 SWAP1 SLOAD SWAP1 PUSH2 0x100 EXP SWAP1 DIV PUSH1 0xFF AND PUSH1 0x40 MLOAD PUSH2 0x22DF SWAP2 SWAP1 PUSH2 0x4028 JUMP JUMPDEST PUSH1 0x40 MLOAD DUP1 SWAP2 SUB SWAP1 LOG1 DUP1 SWAP3 POP POP POP SWAP2 SWAP1 POP JUMP JUMPDEST PUSH0 PUSH1 0x1 DUP3 DUP2 SLOAD DUP2 LT PUSH2 0x2306 JUMPI PUSH2 0x2305 PUSH2 0x36A3 JUMP JUMPDEST JUMPDEST SWAP1 PUSH0 MSTORE PUSH1 0x20 PUSH0 KECCAK256 SWAP1 PUSH1 0x8 MUL ADD SWAP1 POP PUSH0 DUP2 PUSH1 0x6 ADD DUP3 PUSH1 0x5 ADD SLOAD DUP2 SLOAD DUP2 LT PUSH2 0x232F JUMPI PUSH2 0x232E PUSH2 0x36A3 JUMP JUMPDEST JUMPDEST SWAP1 PUSH0 MSTORE PUSH1 0x20 PUSH0 KECCAK256 SWAP1 PUSH1 0x6 MUL ADD SWAP1 POP PUSH0 DUP2 PUSH1 0x2 ADD SLOAD SWAP1 POP PUSH0 DUP4 PUSH1 0x5 ADD SLOAD GT ISZERO PUSH2 0x2395 JUMPI DUP3 PUSH1 0x6 ADD PUSH1 0x1 DUP5 PUSH1 0x5 ADD SLOAD PUSH2 0x2366 SWAP2 SWAP1 PUSH2 0x3657 JUMP JUMPDEST DUP2 SLOAD DUP2 LT PUSH2 0x2377 JUMPI PUSH2 0x2376 PUSH2 0x36A3 JUMP JUMPDEST JUMPDEST SWAP1 PUSH0 MSTORE PUSH1 0x20 PUSH0 KECCAK256 SWAP1 PUSH1 0x6 MUL ADD PUSH1 0x2 ADD SLOAD DUP2 PUSH2 0x2392 SWAP2 SWAP1 PUSH2 0x3657 JUMP JUMPDEST SWAP1 POP JUMPDEST DUP2 PUSH0 ADD PUSH0 ADD SLOAD DUP4 PUSH1 0x4 ADD SLOAD LT PUSH2 0x2468 JUMPI PUSH1 0x1 DUP3 PUSH1 0x5 ADD PUSH0 PUSH2 0x100 EXP DUP2 SLOAD DUP2 PUSH1 0xFF MUL NOT AND SWAP1 DUP4 ISZERO ISZERO MUL OR SWAP1 SSTORE POP PUSH2 0x23ED DUP4 PUSH0 ADD PUSH0 SWAP1 SLOAD SWAP1 PUSH2 0x100 EXP SWAP1 DIV PUSH20 0xFFFFFFFFFFFFFFFFFFFFFFFFFFFFFFFFFFFFFFFF AND DUP3 PUSH2 0x2518 JUMP JUMPDEST PUSH1 0x1 DUP4 PUSH1 0x6 ADD DUP1 SLOAD SWAP1 POP PUSH2 0x2401 SWAP2 SWAP1 PUSH2 0x3657 JUMP JUMPDEST DUP4 PUSH1 0x5 ADD SLOAD LT ISZERO PUSH2 0x242A JUMPI DUP3 PUSH1 0x5 ADD PUSH0 DUP2 SLOAD DUP1 SWAP3 SWAP2 SWAP1 PUSH2 0x2420 SWAP1 PUSH2 0x3FE1 JUMP JUMPDEST SWAP2 SWAP1 POP SSTORE POP PUSH2 0x2463 JUMP JUMPDEST PUSH0 DUP4 PUSH1 0x7 ADD PUSH0 PUSH2 0x100 EXP DUP2 SLOAD DUP2 PUSH1 0xFF MUL NOT AND SWAP1 DUP4 ISZERO ISZERO MUL OR SWAP1 SSTORE POP PUSH1 0x1 DUP4 PUSH1 0x7 ADD PUSH1 0x1 PUSH2 0x100 EXP DUP2 SLOAD DUP2 PUSH1 0xFF MUL NOT AND SWAP1 DUP4 ISZERO ISZERO MUL OR SWAP1 SSTORE POP JUMPDEST PUSH2 0x2472 JUMP JUMPDEST PUSH2 0x2471 DUP5 PUSH2 0x2478 JUMP JUMPDEST JUMPDEST POP POP POP POP JUMP JUMPDEST PUSH0 PUSH1 0x1 DUP3 DUP2 SLOAD DUP2 LT PUSH2 0x248D JUMPI PUSH2 0x248C PUSH2 0x36A3 JUMP JUMPDEST JUMPDEST SWAP1 PUSH0 MSTORE PUSH1 0x20 PUSH0 KECCAK256 SWAP1 PUSH1 0x8 MUL ADD SWAP1 POP DUP1 PUSH1 0x7 ADD PUSH0 SWAP1 SLOAD SWAP1 PUSH2 0x100 EXP SWAP1 DIV PUSH1 0xFF AND PUSH2 0x24EB JUMPI PUSH1 0x40 MLOAD PUSH32 0x8C379A000000000000000000000000000000000000000000000000000000000 DUP2 MSTORE PUSH1 0x4 ADD PUSH2 0x24E2 SWAP1 PUSH2 0x408B JUMP JUMPDEST PUSH1 0x40 MLOAD DUP1 SWAP2 SUB SWAP1 REVERT JUMPDEST PUSH0 DUP2 PUSH1 0x7 ADD PUSH0 PUSH2 0x100 EXP DUP2 SLOAD DUP2 PUSH1 0xFF MUL NOT AND SWAP1 DUP4 ISZERO ISZERO MUL OR SWAP1 SSTORE POP PUSH2 0x2514 DUP3 DUP3 PUSH1 0x5 ADD SLOAD PUSH2 0x25C5 JUMP JUMPDEST POP POP JUMP JUMPDEST PUSH0 DUP3 PUSH20 0xFFFFFFFFFFFFFFFFFFFFFFFFFFFFFFFFFFFFFFFF AND DUP3 PUSH1 0x40 MLOAD PUSH2 0x253D SWAP1 PUSH2 0x3AD9 JUMP JUMPDEST PUSH0 PUSH1 0x40 MLOAD DUP1 DUP4 SUB DUP2 DUP6 DUP8 GAS CALL SWAP3 POP POP POP RETURNDATASIZE DUP1 PUSH0 DUP2 EQ PUSH2 0x2577 JUMPI PUSH1 0x40 MLOAD SWAP2 POP PUSH1 0x1F NOT PUSH1 0x3F RETURNDATASIZE ADD AND DUP3 ADD PUSH1 0x40 MSTORE RETURNDATASIZE DUP3 MSTORE RETURNDATASIZE PUSH0 PUSH1 0x20 DUP5 ADD RETURNDATACOPY PUSH2 0x257C JUMP JUMPDEST PUSH1 0x60 SWAP2 POP JUMPDEST POP POP SWAP1 POP DUP1 PUSH2 0x25C0 JUMPI PUSH1 0x40 MLOAD PUSH32 0x8C379A000000000000000000000000000000000000000000000000000000000 DUP2 MSTORE PUSH1 0x4 ADD PUSH2 0x25B7 SWAP1 PUSH2 0x40F3 JUMP JUMPDEST PUSH1 0x40 MLOAD DUP1 SWAP2 SUB SWAP1 REVERT JUMPDEST POP POP POP JUMP JUMPDEST PUSH0 PUSH1 0x1 DUP4 DUP2 SLOAD DUP2 LT PUSH2 0x25DA JUMPI PUSH2 0x25D9 PUSH2 0x36A3 JUMP JUMPDEST JUMPDEST SWAP1 PUSH0 MSTORE PUSH1 0x20 PUSH0 KECCAK256 SWAP1 PUSH1 0x8 MUL ADD SWAP1 POP PUSH0 DUP2 PUSH1 0x6 ADD DUP4 DUP2 SLOAD DUP2 LT PUSH2 0x25FF JUMPI PUSH2 0x25FE PUSH2 0x36A3 JUMP JUMPDEST JUMPDEST SWAP1 PUSH0 MSTORE PUSH1 0x20 PUSH0 KECCAK256 SWAP1 PUSH1 0x6 MUL ADD SWAP1 POP PUSH0 PUSH0 SWAP1 POP JUMPDEST DUP2 PUSH1 0x3 ADD DUP1 SLOAD SWAP1 POP DUP2 LT ISZERO PUSH2 0x27DE JUMPI PUSH0 DUP3 PUSH1 0x3 ADD DUP3 DUP2 SLOAD DUP2 LT PUSH2 0x2638 JUMPI PUSH2 0x2637 PUSH2 0x36A3 JUMP JUMPDEST JUMPDEST SWAP1 PUSH0 MSTORE PUSH1 0x20 PUSH0 KECCAK256 ADD PUSH0 SWAP1 SLOAD SWAP1 PUSH2 0x100 EXP SWAP1 DIV PUSH20 0xFFFFFFFFFFFFFFFFFFFFFFFFFFFFFFFFFFFFFFFF AND SWAP1 POP PUSH0 DUP4 PUSH1 0x4 ADD PUSH0 DUP4 PUSH20 0xFFFFFFFFFFFFFFFFFFFFFFFFFFFFFFFFFFFFFFFF AND PUSH20 0xFFFFFFFFFFFFFFFFFFFFFFFFFFFFFFFFFFFFFFFF AND DUP2 MSTORE PUSH1 0x20 ADD SWAP1 DUP2 MSTORE PUSH1 0x20 ADD PUSH0 KECCAK256 SLOAD SWAP1 POP PUSH0 DUP2 GT ISZERO PUSH2 0x27CF JUMPI PUSH0 DUP5 PUSH1 0x4 ADD PUSH0 DUP5 PUSH20 0xFFFFFFFFFFFFFFFFFFFFFFFFFFFFFFFFFFFFFFFF AND PUSH20 0xFFFFFFFFFFFFFFFFFFFFFFFFFFFFFFFFFFFFFFFF AND DUP2 MSTORE PUSH1 0x20 ADD SWAP1 DUP2 MSTORE PUSH1 0x20 ADD PUSH0 KECCAK256 DUP2 SWAP1 SSTORE POP PUSH0 DUP3 PUSH20 0xFFFFFFFFFFFFFFFFFFFFFFFFFFFFFFFFFFFFFFFF AND DUP3 PUSH1 0x40 MLOAD PUSH2 0x2716 SWAP1 PUSH2 0x3AD9 JUMP JUMPDEST PUSH0 PUSH1 0x40 MLOAD DUP1 DUP4 SUB DUP2 DUP6 DUP8 GAS CALL SWAP3 POP POP POP RETURNDATASIZE DUP1 PUSH0 DUP2 EQ PUSH2 0x2750 JUMPI PUSH1 0x40 MLOAD SWAP2 POP PUSH1 0x1F NOT PUSH1 0x3F RETURNDATASIZE ADD AND DUP3 ADD PUSH1 0x40 MSTORE RETURNDATASIZE DUP3 MSTORE RETURNDATASIZE PUSH0 PUSH1 0x20 DUP5 ADD RETURNDATACOPY PUSH2 0x2755 JUMP JUMPDEST PUSH1 0x60 SWAP2 POP JUMPDEST POP POP SWAP1 POP DUP1 PUSH2 0x2799 JUMPI PUSH1 0x40 MLOAD PUSH32 0x8C379A000000000000000000000000000000000000000000000000000000000 DUP2 MSTORE PUSH1 0x4 ADD PUSH2 0x2790 SWAP1 PUSH2 0x415B JUMP JUMPDEST PUSH1 0x40 MLOAD DUP1 SWAP2 SUB SWAP1 REVERT JUMPDEST DUP2 DUP7 PUSH1 0x4 ADD PUSH0 DUP3 DUP3 SLOAD PUSH2 0x27AC SWAP2 SWAP1 PUSH2 0x3657 JUMP JUMPDEST SWAP3 POP POP DUP2 SWAP1 SSTORE POP DUP2 DUP6 PUSH1 0x2 ADD PUSH0 DUP3 DUP3 SLOAD PUSH2 0x27C6 SWAP2 SWAP1 PUSH2 0x3657 JUMP JUMPDEST SWAP3 POP POP DUP2 SWAP1 SSTORE POP POP JUMPDEST POP POP DUP1 DUP1 PUSH1 0x1 ADD SWAP2 POP POP PUSH2 0x2612 JUMP JUMPDEST POP POP POP POP POP JUMP JUMPDEST PUSH1 0x40 MLOAD DUP1 PUSH1 0x40 ADD PUSH1 0x40 MSTORE DUP1 PUSH0 DUP2 MSTORE PUSH1 0x20 ADD PUSH0 DUP2 MSTORE POP SWAP1 JUMP JUMPDEST PUSH1 0x40 MLOAD DUP1 PUSH2 0x120 ADD PUSH1 0x40 MSTORE DUP1 PUSH0 PUSH20 0xFFFFFFFFFFFFFFFFFFFFFFFFFFFFFFFFFFFFFFFF AND DUP2 MSTORE PUSH1 0x20 ADD PUSH1 0x60 DUP2 MSTORE PUSH1 0x20 ADD PUSH1 0x60 DUP2 MSTORE PUSH1 0x20 ADD PUSH1 0x60 DUP2 MSTORE PUSH1 0x20 ADD PUSH0 DUP2 MSTORE PUSH1 0x20 ADD PUSH0 DUP2 MSTORE PUSH1 0x20 ADD PUSH0 ISZERO ISZERO DUP2 MSTORE PUSH1 0x20 ADD PUSH0 ISZERO ISZERO DUP2 MSTORE PUSH1 0x20 ADD PUSH0 DUP2 MSTORE POP SWAP1 JUMP JUMPDEST PUSH0 PUSH20 0xFFFFFFFFFFFFFFFFFFFFFFFFFFFFFFFFFFFFFFFF DUP3 AND SWAP1 POP SWAP2 SWAP1 POP JUMP JUMPDEST PUSH0 PUSH2 0x2886 DUP3 PUSH2 0x285D JUMP JUMPDEST SWAP1 POP SWAP2 SWAP1 POP JUMP JUMPDEST PUSH2 0x2896 DUP2 PUSH2 0x287C JUMP JUMPDEST DUP3 MSTORE POP POP JUMP JUMPDEST PUSH0 PUSH1 0x20 DUP3 ADD SWAP1 POP PUSH2 0x28AF PUSH0 DUP4 ADD DUP5 PUSH2 0x288D JUMP JUMPDEST SWAP3 SWAP2 POP POP JUMP JUMPDEST PUSH0 PUSH1 0x40 MLOAD SWAP1 POP SWAP1 JUMP JUMPDEST PUSH0 PUSH0 REVERT JUMPDEST PUSH0 PUSH0 REVERT JUMPDEST PUSH0 DUP2 SWAP1 POP SWAP2 SWAP1 POP JUMP JUMPDEST PUSH2 0x28D8 DUP2 PUSH2 0x28C6 JUMP JUMPDEST DUP2 EQ PUSH2 0x28E2 JUMPI PUSH0 PUSH0 REVERT JUMPDEST POP JUMP JUMPDEST PUSH0 DUP2 CALLDATALOAD SWAP1 POP PUSH2 0x28F3 DUP2 PUSH2 0x28CF JUMP JUMPDEST SWAP3 SWAP2 POP POP JUMP JUMPDEST PUSH0 PUSH1 0x20 DUP3 DUP5 SUB SLT ISZERO PUSH2 0x290E JUMPI PUSH2 0x290D PUSH2 0x28BE JUMP JUMPDEST JUMPDEST PUSH0 PUSH2 0x291B DUP5 DUP3 DUP6 ADD PUSH2 0x28E5 JUMP JUMPDEST SWAP2 POP POP SWAP3 SWAP2 POP POP JUMP JUMPDEST PUSH0 DUP2 MLOAD SWAP1 POP SWAP2 SWAP1 POP JUMP JUMPDEST PUSH0 DUP3 DUP3 MSTORE PUSH1 0x20 DUP3 ADD SWAP1 POP SWAP3 SWAP2 POP POP JUMP JUMPDEST DUP3 DUP2 DUP4 MCOPY PUSH0 DUP4 DUP4 ADD MSTORE POP POP POP JUMP JUMPDEST PUSH0 PUSH1 0x1F NOT PUSH1 0x1F DUP4 ADD AND SWAP1 POP SWAP2 SWAP1 POP JUMP JUMPDEST PUSH0 PUSH2 0x2966 DUP3 PUSH2 0x2924 JUMP JUMPDEST PUSH2 0x2970 DUP2 DUP6 PUSH2 0x292E JUMP JUMPDEST SWAP4 POP PUSH2 0x2980 DUP2 DUP6 PUSH1 0x20 DUP7 ADD PUSH2 0x293E JUMP JUMPDEST PUSH2 0x2989 DUP2 PUSH2 0x294C JUMP JUMPDEST DUP5 ADD SWAP2 POP POP SWAP3 SWAP2 POP POP JUMP JUMPDEST PUSH2 0x299D DUP2 PUSH2 0x28C6 JUMP JUMPDEST DUP3 MSTORE POP POP JUMP JUMPDEST PUSH0 DUP2 ISZERO ISZERO SWAP1 POP SWAP2 SWAP1 POP JUMP JUMPDEST PUSH2 0x29B7 DUP2 PUSH2 0x29A3 JUMP JUMPDEST DUP3 MSTORE POP POP JUMP JUMPDEST PUSH0 PUSH2 0x100 DUP3 ADD SWAP1 POP PUSH2 0x29D1 PUSH0 DUP4 ADD DUP12 PUSH2 0x288D JUMP JUMPDEST DUP2 DUP2 SUB PUSH1 0x20 DUP4 ADD MSTORE PUSH2 0x29E3 DUP2 DUP11 PUSH2 0x295C JUMP JUMPDEST SWAP1 POP DUP2 DUP2 SUB PUSH1 0x40 DUP4 ADD MSTORE PUSH2 0x29F7 DUP2 DUP10 PUSH2 0x295C JUMP JUMPDEST SWAP1 POP DUP2 DUP2 SUB PUSH1 0x60 DUP4 ADD MSTORE PUSH2 0x2A0B DUP2 DUP9 PUSH2 0x295C JUMP JUMPDEST SWAP1 POP PUSH2 0x2A1A PUSH1 0x80 DUP4 ADD DUP8 PUSH2 0x2994 JUMP JUMPDEST PUSH2 0x2A27 PUSH1 0xA0 DUP4 ADD DUP7 PUSH2 0x2994 JUMP JUMPDEST PUSH2 0x2A34 PUSH1 0xC0 DUP4 ADD DUP6 PUSH2 0x29AE JUMP JUMPDEST PUSH2 0x2A41 PUSH1 0xE0 DUP4 ADD DUP5 PUSH2 0x29AE JUMP JUMPDEST SWAP10 SWAP9 POP POP POP POP POP POP POP POP POP JUMP JUMPDEST PUSH0 PUSH0 REVERT JUMPDEST PUSH0 PUSH0 REVERT JUMPDEST PUSH32 0x4E487B7100000000000000000000000000000000000000000000000000000000 PUSH0 MSTORE PUSH1 0x41 PUSH1 0x4 MSTORE PUSH1 0x24 PUSH0 REVERT JUMPDEST PUSH2 0x2A8C DUP3 PUSH2 0x294C JUMP JUMPDEST DUP2 ADD DUP2 DUP2 LT PUSH8 0xFFFFFFFFFFFFFFFF DUP3 GT OR ISZERO PUSH2 0x2AAB JUMPI PUSH2 0x2AAA PUSH2 0x2A56 JUMP JUMPDEST JUMPDEST DUP1 PUSH1 0x40 MSTORE POP POP POP JUMP JUMPDEST PUSH0 PUSH2 0x2ABD PUSH2 0x28B5 JUMP JUMPDEST SWAP1 POP PUSH2 0x2AC9 DUP3 DUP3 PUSH2 0x2A83 JUMP JUMPDEST SWAP2 SWAP1 POP JUMP JUMPDEST PUSH0 PUSH8 0xFFFFFFFFFFFFFFFF DUP3 GT ISZERO PUSH2 0x2AE8 JUMPI PUSH2 0x2AE7 PUSH2 0x2A56 JUMP JUMPDEST JUMPDEST PUSH2 0x2AF1 DUP3 PUSH2 0x294C JUMP JUMPDEST SWAP1 POP PUSH1 0x20 DUP2 ADD SWAP1 POP SWAP2 SWAP1 POP JUMP JUMPDEST DUP3 DUP2 DUP4 CALLDATACOPY PUSH0 DUP4 DUP4 ADD MSTORE POP POP POP JUMP JUMPDEST PUSH0 PUSH2 0x2B1E PUSH2 0x2B19 DUP5 PUSH2 0x2ACE JUMP JUMPDEST PUSH2 0x2AB4 JUMP JUMPDEST SWAP1 POP DUP3 DUP2 MSTORE PUSH1 0x20 DUP2 ADD DUP5 DUP5 DUP5 ADD GT ISZERO PUSH2 0x2B3A JUMPI PUSH2 0x2B39 PUSH2 0x2A52 JUMP JUMPDEST JUMPDEST PUSH2 0x2B45 DUP5 DUP3 DUP6 PUSH2 0x2AFE JUMP JUMPDEST POP SWAP4 SWAP3 POP POP POP JUMP JUMPDEST PUSH0 DUP3 PUSH1 0x1F DUP4 ADD SLT PUSH2 0x2B61 JUMPI PUSH2 0x2B60 PUSH2 0x2A4E JUMP JUMPDEST JUMPDEST DUP2 CALLDATALOAD PUSH2 0x2B71 DUP5 DUP3 PUSH1 0x20 DUP7 ADD PUSH2 0x2B0C JUMP JUMPDEST SWAP2 POP POP SWAP3 SWAP2 POP POP JUMP JUMPDEST PUSH0 PUSH8 0xFFFFFFFFFFFFFFFF DUP3 GT ISZERO PUSH2 0x2B94 JUMPI PUSH2 0x2B93 PUSH2 0x2A56 JUMP JUMPDEST JUMPDEST PUSH1 0x20 DUP3 MUL SWAP1 POP PUSH1 0x20 DUP2 ADD SWAP1 POP SWAP2 SWAP1 POP JUMP JUMPDEST PUSH0 PUSH0 REVERT JUMPDEST PUSH0 PUSH0 REVERT JUMPDEST PUSH0 PUSH1 0x40 DUP3 DUP5 SUB SLT ISZERO PUSH2 0x2BC2 JUMPI PUSH2 0x2BC1 PUSH2 0x2BA9 JUMP JUMPDEST JUMPDEST PUSH2 0x2BCC PUSH1 0x40 PUSH2 0x2AB4 JUMP JUMPDEST SWAP1 POP PUSH0 PUSH2 0x2BDB DUP5 DUP3 DUP6 ADD PUSH2 0x28E5 JUMP JUMPDEST PUSH0 DUP4 ADD MSTORE POP PUSH1 0x20 PUSH2 0x2BEE DUP5 DUP3 DUP6 ADD PUSH2 0x28E5 JUMP JUMPDEST PUSH1 0x20 DUP4 ADD MSTORE POP SWAP3 SWAP2 POP POP JUMP JUMPDEST PUSH0 PUSH2 0x2C0C PUSH2 0x2C07 DUP5 PUSH2 0x2B7A JUMP JUMPDEST PUSH2 0x2AB4 JUMP JUMPDEST SWAP1 POP DUP1 DUP4 DUP3 MSTORE PUSH1 0x20 DUP3 ADD SWAP1 POP PUSH1 0x40 DUP5 MUL DUP4 ADD DUP6 DUP2 GT ISZERO PUSH2 0x2C2F JUMPI PUSH2 0x2C2E PUSH2 0x2BA5 JUMP JUMPDEST JUMPDEST DUP4 JUMPDEST DUP2 DUP2 LT ISZERO PUSH2 0x2C58 JUMPI DUP1 PUSH2 0x2C44 DUP9 DUP3 PUSH2 0x2BAD JUMP JUMPDEST DUP5 MSTORE PUSH1 0x20 DUP5 ADD SWAP4 POP POP PUSH1 0x40 DUP2 ADD SWAP1 POP PUSH2 0x2C31 JUMP JUMPDEST POP POP POP SWAP4 SWAP3 POP POP POP JUMP JUMPDEST PUSH0 DUP3 PUSH1 0x1F DUP4 ADD SLT PUSH2 0x2C76 JUMPI PUSH2 0x2C75 PUSH2 0x2A4E JUMP JUMPDEST JUMPDEST DUP2 CALLDATALOAD PUSH2 0x2C86 DUP5 DUP3 PUSH1 0x20 DUP7 ADD PUSH2 0x2BFA JUMP JUMPDEST SWAP2 POP POP SWAP3 SWAP2 POP POP JUMP JUMPDEST PUSH0 PUSH0 PUSH0 PUSH0 PUSH1 0x80 DUP6 DUP8 SUB SLT ISZERO PUSH2 0x2CA7 JUMPI PUSH2 0x2CA6 PUSH2 0x28BE JUMP JUMPDEST JUMPDEST PUSH0 DUP6 ADD CALLDATALOAD PUSH8 0xFFFFFFFFFFFFFFFF DUP2 GT ISZERO PUSH2 0x2CC4 JUMPI PUSH2 0x2CC3 PUSH2 0x28C2 JUMP JUMPDEST JUMPDEST PUSH2 0x2CD0 DUP8 DUP3 DUP9 ADD PUSH2 0x2B4D JUMP JUMPDEST SWAP5 POP POP PUSH1 0x20 DUP6 ADD CALLDATALOAD PUSH8 0xFFFFFFFFFFFFFFFF DUP2 GT ISZERO PUSH2 0x2CF1 JUMPI PUSH2 0x2CF0 PUSH2 0x28C2 JUMP JUMPDEST JUMPDEST PUSH2 0x2CFD DUP8 DUP3 DUP9 ADD PUSH2 0x2B4D JUMP JUMPDEST SWAP4 POP POP PUSH1 0x40 DUP6 ADD CALLDATALOAD PUSH8 0xFFFFFFFFFFFFFFFF DUP2 GT ISZERO PUSH2 0x2D1E JUMPI PUSH2 0x2D1D PUSH2 0x28C2 JUMP JUMPDEST JUMPDEST PUSH2 0x2D2A DUP8 DUP3 DUP9 ADD PUSH2 0x2B4D JUMP JUMPDEST SWAP3 POP POP PUSH1 0x60 DUP6 ADD CALLDATALOAD PUSH8 0xFFFFFFFFFFFFFFFF DUP2 GT ISZERO PUSH2 0x2D4B JUMPI PUSH2 0x2D4A PUSH2 0x28C2 JUMP JUMPDEST JUMPDEST PUSH2 0x2D57 DUP8 DUP3 DUP9 ADD PUSH2 0x2C62 JUMP JUMPDEST SWAP2 POP POP SWAP3 SWAP6 SWAP2 SWAP5 POP SWAP3 POP JUMP JUMPDEST PUSH0 DUP2 MLOAD SWAP1 POP SWAP2 SWAP1 POP JUMP JUMPDEST PUSH0 DUP3 DUP3 MSTORE PUSH1 0x20 DUP3 ADD SWAP1 POP SWAP3 SWAP2 POP POP JUMP JUMPDEST PUSH0 DUP2 SWAP1 POP PUSH1 0x20 DUP3 ADD SWAP1 POP SWAP2 SWAP1 POP JUMP JUMPDEST PUSH2 0x2D95 DUP2 PUSH2 0x287C JUMP JUMPDEST DUP3 MSTORE POP POP JUMP JUMPDEST PUSH0 PUSH2 0x2DA6 DUP4 DUP4 PUSH2 0x2D8C JUMP JUMPDEST PUSH1 0x20 DUP4 ADD SWAP1 POP SWAP3 SWAP2 POP POP JUMP JUMPDEST PUSH0 PUSH1 0x20 DUP3 ADD SWAP1 POP SWAP2 SWAP1 POP JUMP JUMPDEST PUSH0 PUSH2 0x2DC8 DUP3 PUSH2 0x2D63 JUMP JUMPDEST PUSH2 0x2DD2 DUP2 DUP6 PUSH2 0x2D6D JUMP JUMPDEST SWAP4 POP PUSH2 0x2DDD DUP4 PUSH2 0x2D7D JUMP JUMPDEST DUP1 PUSH0 JUMPDEST DUP4 DUP2 LT ISZERO PUSH2 0x2E0D JUMPI DUP2 MLOAD PUSH2 0x2DF4 DUP9 DUP3 PUSH2 0x2D9B JUMP JUMPDEST SWAP8 POP PUSH2 0x2DFF DUP4 PUSH2 0x2DB2 JUMP JUMPDEST SWAP3 POP POP PUSH1 0x1 DUP2 ADD SWAP1 POP PUSH2 0x2DE0 JUMP JUMPDEST POP DUP6 SWAP4 POP POP POP POP SWAP3 SWAP2 POP POP JUMP JUMPDEST PUSH0 PUSH1 0x20 DUP3 ADD SWAP1 POP DUP2 DUP2 SUB PUSH0 DUP4 ADD MSTORE PUSH2 0x2E32 DUP2 DUP5 PUSH2 0x2DBE JUMP JUMPDEST SWAP1 POP SWAP3 SWAP2 POP POP JUMP JUMPDEST PUSH0 PUSH0 PUSH1 0x40 DUP4 DUP6 SUB SLT ISZERO PUSH2 0x2E50 JUMPI PUSH2 0x2E4F PUSH2 0x28BE JUMP JUMPDEST JUMPDEST PUSH0 PUSH2 0x2E5D DUP6 DUP3 DUP7 ADD PUSH2 0x28E5 JUMP JUMPDEST SWAP3 POP POP PUSH1 0x20 DUP4 ADD CALLDATALOAD PUSH8 0xFFFFFFFFFFFFFFFF DUP2 GT ISZERO PUSH2 0x2E7E JUMPI PUSH2 0x2E7D PUSH2 0x28C2 JUMP JUMPDEST JUMPDEST PUSH2 0x2E8A DUP6 DUP3 DUP7 ADD PUSH2 0x2C62 JUMP JUMPDEST SWAP2 POP POP SWAP3 POP SWAP3 SWAP1 POP JUMP JUMPDEST PUSH2 0x2E9D DUP2 PUSH2 0x28C6 JUMP JUMPDEST DUP3 MSTORE POP POP JUMP JUMPDEST PUSH1 0x40 DUP3 ADD PUSH0 DUP3 ADD MLOAD PUSH2 0x2EB7 PUSH0 DUP6 ADD DUP3 PUSH2 0x2E94 JUMP JUMPDEST POP PUSH1 0x20 DUP3 ADD MLOAD PUSH2 0x2ECA PUSH1 0x20 DUP6 ADD DUP3 PUSH2 0x2E94 JUMP JUMPDEST POP POP POP POP JUMP JUMPDEST PUSH0 PUSH1 0x40 DUP3 ADD SWAP1 POP PUSH2 0x2EE3 PUSH0 DUP4 ADD DUP5 PUSH2 0x2EA3 JUMP JUMPDEST SWAP3 SWAP2 POP POP JUMP JUMPDEST PUSH0 DUP2 MLOAD SWAP1 POP SWAP2 SWAP1 POP JUMP JUMPDEST PUSH0 DUP3 DUP3 MSTORE PUSH1 0x20 DUP3 ADD SWAP1 POP SWAP3 SWAP2 POP POP JUMP JUMPDEST PUSH0 DUP2 SWAP1 POP PUSH1 0x20 DUP3 ADD SWAP1 POP SWAP2 SWAP1 POP JUMP JUMPDEST PUSH1 0x40 DUP3 ADD PUSH0 DUP3 ADD MLOAD PUSH2 0x2F26 PUSH0 DUP6 ADD DUP3 PUSH2 0x2E94 JUMP JUMPDEST POP PUSH1 0x20 DUP3 ADD MLOAD PUSH2 0x2F39 PUSH1 0x20 DUP6 ADD DUP3 PUSH2 0x2E94 JUMP JUMPDEST POP POP POP POP JUMP JUMPDEST PUSH0 PUSH2 0x2F4A DUP4 DUP4 PUSH2 0x2F12 JUMP JUMPDEST PUSH1 0x40 DUP4 ADD SWAP1 POP SWAP3 SWAP2 POP POP JUMP JUMPDEST PUSH0 PUSH1 0x20 DUP3 ADD SWAP1 POP SWAP2 SWAP1 POP JUMP JUMPDEST PUSH0 PUSH2 0x2F6C DUP3 PUSH2 0x2EE9 JUMP JUMPDEST PUSH2 0x2F76 DUP2 DUP6 PUSH2 0x2EF3 JUMP JUMPDEST SWAP4 POP PUSH2 0x2F81 DUP4 PUSH2 0x2F03 JUMP JUMPDEST DUP1 PUSH0 JUMPDEST DUP4 DUP2 LT ISZERO PUSH2 0x2FB1 JUMPI DUP2 MLOAD PUSH2 0x2F98 DUP9 DUP3 PUSH2 0x2F3F JUMP JUMPDEST SWAP8 POP PUSH2 0x2FA3 DUP4 PUSH2 0x2F56 JUMP JUMPDEST SWAP3 POP POP PUSH1 0x1 DUP2 ADD SWAP1 POP PUSH2 0x2F84 JUMP JUMPDEST POP DUP6 SWAP4 POP POP POP POP SWAP3 SWAP2 POP POP JUMP JUMPDEST PUSH0 PUSH1 0x20 DUP3 ADD SWAP1 POP DUP2 DUP2 SUB PUSH0 DUP4 ADD MSTORE PUSH2 0x2FD6 DUP2 DUP5 PUSH2 0x2F62 JUMP JUMPDEST SWAP1 POP SWAP3 SWAP2 POP POP JUMP JUMPDEST PUSH0 DUP2 MLOAD SWAP1 POP SWAP2 SWAP1 POP JUMP JUMPDEST PUSH0 DUP3 DUP3 MSTORE PUSH1 0x20 DUP3 ADD SWAP1 POP SWAP3 SWAP2 POP POP JUMP JUMPDEST PUSH0 DUP2 SWAP1 POP PUSH1 0x20 DUP3 ADD SWAP1 POP SWAP2 SWAP1 POP JUMP JUMPDEST PUSH0 DUP3 DUP3 MSTORE PUSH1 0x20 DUP3 ADD SWAP1 POP SWAP3 SWAP2 POP POP JUMP JUMPDEST PUSH0 PUSH2 0x3021 DUP3 PUSH2 0x2924 JUMP JUMPDEST PUSH2 0x302B DUP2 DUP6 PUSH2 0x3007 JUMP JUMPDEST SWAP4 POP PUSH2 0x303B DUP2 DUP6 PUSH1 0x20 DUP7 ADD PUSH2 0x293E JUMP JUMPDEST PUSH2 0x3044 DUP2 PUSH2 0x294C JUMP JUMPDEST DUP5 ADD SWAP2 POP POP SWAP3 SWAP2 POP POP JUMP JUMPDEST PUSH2 0x3058 DUP2 PUSH2 0x29A3 JUMP JUMPDEST DUP3 MSTORE POP POP JUMP JUMPDEST PUSH0 PUSH2 0x120 DUP4 ADD PUSH0 DUP4 ADD MLOAD PUSH2 0x3074 PUSH0 DUP7 ADD DUP3 PUSH2 0x2D8C JUMP JUMPDEST POP PUSH1 0x20 DUP4 ADD MLOAD DUP5 DUP3 SUB PUSH1 0x20 DUP7 ADD MSTORE PUSH2 0x308C DUP3 DUP3 PUSH2 0x3017 JUMP JUMPDEST SWAP2 POP POP PUSH1 0x40 DUP4 ADD MLOAD DUP5 DUP3 SUB PUSH1 0x40 DUP7 ADD MSTORE PUSH2 0x30A6 DUP3 DUP3 PUSH2 0x3017 JUMP JUMPDEST SWAP2 POP POP PUSH1 0x60 DUP4 ADD MLOAD DUP5 DUP3 SUB PUSH1 0x60 DUP7 ADD MSTORE PUSH2 0x30C0 DUP3 DUP3 PUSH2 0x3017 JUMP JUMPDEST SWAP2 POP POP PUSH1 0x80 DUP4 ADD MLOAD PUSH2 0x30D5 PUSH1 0x80 DUP7 ADD DUP3 PUSH2 0x2E94 JUMP JUMPDEST POP PUSH1 0xA0 DUP4 ADD MLOAD PUSH2 0x30E8 PUSH1 0xA0 DUP7 ADD DUP3 PUSH2 0x2E94 JUMP JUMPDEST POP PUSH1 0xC0 DUP4 ADD MLOAD PUSH2 0x30FB PUSH1 0xC0 DUP7 ADD DUP3 PUSH2 0x304F JUMP JUMPDEST POP PUSH1 0xE0 DUP4 ADD MLOAD PUSH2 0x310E PUSH1 0xE0 DUP7 ADD DUP3 PUSH2 0x304F JUMP JUMPDEST POP PUSH2 0x100 DUP4 ADD MLOAD PUSH2 0x3123 PUSH2 0x100 DUP7 ADD DUP3 PUSH2 0x2E94 JUMP JUMPDEST POP DUP1 SWAP2 POP POP SWAP3 SWAP2 POP POP JUMP JUMPDEST PUSH0 PUSH2 0x3139 DUP4 DUP4 PUSH2 0x305E JUMP JUMPDEST SWAP1 POP SWAP3 SWAP2 POP POP JUMP JUMPDEST PUSH0 PUSH1 0x20 DUP3 ADD SWAP1 POP SWAP2 SWAP1 POP JUMP JUMPDEST PUSH0 PUSH2 0x3157 DUP3 PUSH2 0x2FDE JUMP JUMPDEST PUSH2 0x3161 DUP2 DUP6 PUSH2 0x2FE8 JUMP JUMPDEST SWAP4 POP DUP4 PUSH1 0x20 DUP3 MUL DUP6 ADD PUSH2 0x3173 DUP6 PUSH2 0x2FF8 JUMP JUMPDEST DUP1 PUSH0 JUMPDEST DUP6 DUP2 LT ISZERO PUSH2 0x31AE JUMPI DUP5 DUP5 SUB DUP10 MSTORE DUP2 MLOAD PUSH2 0x318F DUP6 DUP3 PUSH2 0x312E JUMP JUMPDEST SWAP5 POP PUSH2 0x319A DUP4 PUSH2 0x3141 JUMP JUMPDEST SWAP3 POP PUSH1 0x20 DUP11 ADD SWAP10 POP POP PUSH1 0x1 DUP2 ADD SWAP1 POP PUSH2 0x3176 JUMP JUMPDEST POP DUP3 SWAP8 POP DUP8 SWAP6 POP POP POP POP POP POP SWAP3 SWAP2 POP POP JUMP JUMPDEST PUSH0 PUSH1 0x20 DUP3 ADD SWAP1 POP DUP2 DUP2 SUB PUSH0 DUP4 ADD MSTORE PUSH2 0x31D8 DUP2 DUP5 PUSH2 0x314D JUMP JUMPDEST SWAP1 POP SWAP3 SWAP2 POP POP JUMP JUMPDEST PUSH0 PUSH2 0x120 DUP4 ADD PUSH0 DUP4 ADD MLOAD PUSH2 0x31F6 PUSH0 DUP7 ADD DUP3 PUSH2 0x2D8C JUMP JUMPDEST POP PUSH1 0x20 DUP4 ADD MLOAD DUP5 DUP3 SUB PUSH1 0x20 DUP7 ADD MSTORE PUSH2 0x320E DUP3 DUP3 PUSH2 0x3017 JUMP JUMPDEST SWAP2 POP POP PUSH1 0x40 DUP4 ADD MLOAD DUP5 DUP3 SUB PUSH1 0x40 DUP7 ADD MSTORE PUSH2 0x3228 DUP3 DUP3 PUSH2 0x3017 JUMP JUMPDEST SWAP2 POP POP PUSH1 0x60 DUP4 ADD MLOAD DUP5 DUP3 SUB PUSH1 0x60 DUP7 ADD MSTORE PUSH2 0x3242 DUP3 DUP3 PUSH2 0x3017 JUMP JUMPDEST SWAP2 POP POP PUSH1 0x80 DUP4 ADD MLOAD PUSH2 0x3257 PUSH1 0x80 DUP7 ADD DUP3 PUSH2 0x2E94 JUMP JUMPDEST POP PUSH1 0xA0 DUP4 ADD MLOAD PUSH2 0x326A PUSH1 0xA0 DUP7 ADD DUP3 PUSH2 0x2E94 JUMP JUMPDEST POP PUSH1 0xC0 DUP4 ADD MLOAD PUSH2 0x327D PUSH1 0xC0 DUP7 ADD DUP3 PUSH2 0x304F JUMP JUMPDEST POP PUSH1 0xE0 DUP4 ADD MLOAD PUSH2 0x3290 PUSH1 0xE0 DUP7 ADD DUP3 PUSH2 0x304F JUMP JUMPDEST POP PUSH2 0x100 DUP4 ADD MLOAD PUSH2 0x32A5 PUSH2 0x100 DUP7 ADD DUP3 PUSH2 0x2E94 JUMP JUMPDEST POP DUP1 SWAP2 POP POP SWAP3 SWAP2 POP POP JUMP JUMPDEST PUSH0 PUSH1 0x20 DUP3 ADD SWAP1 POP DUP2 DUP2 SUB PUSH0 DUP4 ADD MSTORE PUSH2 0x32C8 DUP2 DUP5 PUSH2 0x31E0 JUMP JUMPDEST SWAP1 POP SWAP3 SWAP2 POP POP JUMP JUMPDEST PUSH32 0x4E487B7100000000000000000000000000000000000000000000000000000000 PUSH0 MSTORE PUSH1 0x22 PUSH1 0x4 MSTORE PUSH1 0x24 PUSH0 REVERT JUMPDEST PUSH0 PUSH1 0x2 DUP3 DIV SWAP1 POP PUSH1 0x1 DUP3 AND DUP1 PUSH2 0x3314 JUMPI PUSH1 0x7F DUP3 AND SWAP2 POP JUMPDEST PUSH1 0x20 DUP3 LT DUP2 SUB PUSH2 0x3327 JUMPI PUSH2 0x3326 PUSH2 0x32D0 JUMP JUMPDEST JUMPDEST POP SWAP2 SWAP1 POP JUMP JUMPDEST PUSH32 0x53797374656D206F776E65722063616E2774206372656174652070726F6A6563 PUSH0 DUP3 ADD MSTORE PUSH32 0x7473000000000000000000000000000000000000000000000000000000000000 PUSH1 0x20 DUP3 ADD MSTORE POP JUMP JUMPDEST PUSH0 PUSH2 0x3387 PUSH1 0x22 DUP4 PUSH2 0x292E JUMP JUMPDEST SWAP2 POP PUSH2 0x3392 DUP3 PUSH2 0x332D JUMP JUMPDEST PUSH1 0x40 DUP3 ADD SWAP1 POP SWAP2 SWAP1 POP JUMP JUMPDEST PUSH0 PUSH1 0x20 DUP3 ADD SWAP1 POP DUP2 DUP2 SUB PUSH0 DUP4 ADD MSTORE PUSH2 0x33B4 DUP2 PUSH2 0x337B JUMP JUMPDEST SWAP1 POP SWAP2 SWAP1 POP JUMP JUMPDEST PUSH0 DUP2 SWAP1 POP DUP2 PUSH0 MSTORE PUSH1 0x20 PUSH0 KECCAK256 SWAP1 POP SWAP2 SWAP1 POP JUMP JUMPDEST PUSH0 PUSH1 0x20 PUSH1 0x1F DUP4 ADD DIV SWAP1 POP SWAP2 SWAP1 POP JUMP JUMPDEST PUSH0 DUP3 DUP3 SHL SWAP1 POP SWAP3 SWAP2 POP POP JUMP JUMPDEST PUSH0 PUSH1 0x8 DUP4 MUL PUSH2 0x3417 PUSH32 0xFFFFFFFFFFFFFFFFFFFFFFFFFFFFFFFFFFFFFFFFFFFFFFFFFFFFFFFFFFFFFFFF DUP3 PUSH2 0x33DC JUMP JUMPDEST PUSH2 0x3421 DUP7 DUP4 PUSH2 0x33DC JUMP JUMPDEST SWAP6 POP DUP1 NOT DUP5 AND SWAP4 POP DUP1 DUP7 AND DUP5 OR SWAP3 POP POP POP SWAP4 SWAP3 POP POP POP JUMP JUMPDEST PUSH0 DUP2 SWAP1 POP SWAP2 SWAP1 POP JUMP JUMPDEST PUSH0 PUSH2 0x345C PUSH2 0x3457 PUSH2 0x3452 DUP5 PUSH2 0x28C6 JUMP JUMPDEST PUSH2 0x3439 JUMP JUMPDEST PUSH2 0x28C6 JUMP JUMPDEST SWAP1 POP SWAP2 SWAP1 POP JUMP JUMPDEST PUSH0 DUP2 SWAP1 POP SWAP2 SWAP1 POP JUMP JUMPDEST PUSH2 0x3475 DUP4 PUSH2 0x3442 JUMP JUMPDEST PUSH2 0x3489 PUSH2 0x3481 DUP3 PUSH2 0x3463 JUMP JUMPDEST DUP5 DUP5 SLOAD PUSH2 0x33E8 JUMP JUMPDEST DUP3 SSTORE POP POP POP POP JUMP JUMPDEST PUSH0 PUSH0 SWAP1 POP SWAP1 JUMP JUMPDEST PUSH2 0x34A0 PUSH2 0x3491 JUMP JUMPDEST PUSH2 0x34AB DUP2 DUP5 DUP5 PUSH2 0x346C JUMP JUMPDEST POP POP POP JUMP JUMPDEST JUMPDEST DUP2 DUP2 LT ISZERO PUSH2 0x34CE JUMPI PUSH2 0x34C3 PUSH0 DUP3 PUSH2 0x3498 JUMP JUMPDEST PUSH1 0x1 DUP2 ADD SWAP1 POP PUSH2 0x34B1 JUMP JUMPDEST POP POP JUMP JUMPDEST PUSH1 0x1F DUP3 GT ISZERO PUSH2 0x3513 JUMPI PUSH2 0x34E4 DUP2 PUSH2 0x33BB JUMP JUMPDEST PUSH2 0x34ED DUP5 PUSH2 0x33CD JUMP JUMPDEST DUP2 ADD PUSH1 0x20 DUP6 LT ISZERO PUSH2 0x34FC JUMPI DUP2 SWAP1 POP JUMPDEST PUSH2 0x3510 PUSH2 0x3508 DUP6 PUSH2 0x33CD JUMP JUMPDEST DUP4 ADD DUP3 PUSH2 0x34B0 JUMP JUMPDEST POP POP JUMPDEST POP POP POP JUMP JUMPDEST PUSH0 DUP3 DUP3 SHR SWAP1 POP SWAP3 SWAP2 POP POP JUMP JUMPDEST PUSH0 PUSH2 0x3533 PUSH0 NOT DUP5 PUSH1 0x8 MUL PUSH2 0x3518 JUMP JUMPDEST NOT DUP1 DUP4 AND SWAP2 POP POP SWAP3 SWAP2 POP POP JUMP JUMPDEST PUSH0 PUSH2 0x354B DUP4 DUP4 PUSH2 0x3524 JUMP JUMPDEST SWAP2 POP DUP3 PUSH1 0x2 MUL DUP3 OR SWAP1 POP SWAP3 SWAP2 POP POP JUMP JUMPDEST PUSH2 0x3564 DUP3 PUSH2 0x2924 JUMP JUMPDEST PUSH8 0xFFFFFFFFFFFFFFFF DUP2 GT ISZERO PUSH2 0x357D JUMPI PUSH2 0x357C PUSH2 0x2A56 JUMP JUMPDEST JUMPDEST PUSH2 0x3587 DUP3 SLOAD PUSH2 0x32FD JUMP JUMPDEST PUSH2 0x3592 DUP3 DUP3 DUP6 PUSH2 0x34D2 JUMP JUMPDEST PUSH0 PUSH1 0x20 SWAP1 POP PUSH1 0x1F DUP4 GT PUSH1 0x1 DUP2 EQ PUSH2 0x35C3 JUMPI PUSH0 DUP5 ISZERO PUSH2 0x35B1 JUMPI DUP3 DUP8 ADD MLOAD SWAP1 POP JUMPDEST PUSH2 0x35BB DUP6 DUP3 PUSH2 0x3540 JUMP JUMPDEST DUP7 SSTORE POP PUSH2 0x3622 JUMP JUMPDEST PUSH1 0x1F NOT DUP5 AND PUSH2 0x35D1 DUP7 PUSH2 0x33BB JUMP JUMPDEST PUSH0 JUMPDEST DUP3 DUP2 LT ISZERO PUSH2 0x35F8 JUMPI DUP5 DUP10 ADD MLOAD DUP3 SSTORE PUSH1 0x1 DUP3 ADD SWAP2 POP PUSH1 0x20 DUP6 ADD SWAP5 POP PUSH1 0x20 DUP2 ADD SWAP1 POP PUSH2 0x35D3 JUMP JUMPDEST DUP7 DUP4 LT ISZERO PUSH2 0x3615 JUMPI DUP5 DUP10 ADD MLOAD PUSH2 0x3611 PUSH1 0x1F DUP10 AND DUP3 PUSH2 0x3524 JUMP JUMPDEST DUP4 SSTORE POP JUMPDEST PUSH1 0x1 PUSH1 0x2 DUP9 MUL ADD DUP9 SSTORE POP POP POP JUMPDEST POP POP POP POP POP POP JUMP JUMPDEST PUSH32 0x4E487B7100000000000000000000000000000000000000000000000000000000 PUSH0 MSTORE PUSH1 0x11 PUSH1 0x4 MSTORE PUSH1 0x24 PUSH0 REVERT JUMPDEST PUSH0 PUSH2 0x3661 DUP3 PUSH2 0x28C6 JUMP JUMPDEST SWAP2 POP PUSH2 0x366C DUP4 PUSH2 0x28C6 JUMP JUMPDEST SWAP3 POP DUP3 DUP3 SUB SWAP1 POP DUP2 DUP2 GT ISZERO PUSH2 0x3684 JUMPI PUSH2 0x3683 PUSH2 0x362A JUMP JUMPDEST JUMPDEST SWAP3 SWAP2 POP POP JUMP JUMPDEST PUSH0 PUSH1 0x20 DUP3 ADD SWAP1 POP PUSH2 0x369D PUSH0 DUP4 ADD DUP5 PUSH2 0x2994 JUMP JUMPDEST SWAP3 SWAP2 POP POP JUMP JUMPDEST PUSH32 0x4E487B7100000000000000000000000000000000000000000000000000000000 PUSH0 MSTORE PUSH1 0x32 PUSH1 0x4 MSTORE PUSH1 0x24 PUSH0 REVERT JUMPDEST PUSH32 0x496E76616C69642070726F6A6563747320696E64657800000000000000000000 PUSH0 DUP3 ADD MSTORE POP JUMP JUMPDEST PUSH0 PUSH2 0x3704 PUSH1 0x16 DUP4 PUSH2 0x292E JUMP JUMPDEST SWAP2 POP PUSH2 0x370F DUP3 PUSH2 0x36D0 JUMP JUMPDEST PUSH1 0x20 DUP3 ADD SWAP1 POP SWAP2 SWAP1 POP JUMP JUMPDEST PUSH0 PUSH1 0x20 DUP3 ADD SWAP1 POP DUP2 DUP2 SUB PUSH0 DUP4 ADD MSTORE PUSH2 0x3731 DUP2 PUSH2 0x36F8 JUMP JUMPDEST SWAP1 POP SWAP2 SWAP1 POP JUMP JUMPDEST PUSH32 0x50726F6A656374206D7573742062652061637469766500000000000000000000 PUSH0 DUP3 ADD MSTORE POP JUMP JUMPDEST PUSH0 PUSH2 0x376C PUSH1 0x16 DUP4 PUSH2 0x292E JUMP JUMPDEST SWAP2 POP PUSH2 0x3777 DUP3 PUSH2 0x3738 JUMP JUMPDEST PUSH1 0x20 DUP3 ADD SWAP1 POP SWAP2 SWAP1 POP JUMP JUMPDEST PUSH0 PUSH1 0x20 DUP3 ADD SWAP1 POP DUP2 DUP2 SUB PUSH0 DUP4 ADD MSTORE PUSH2 0x3799 DUP2 PUSH2 0x3760 JUMP JUMPDEST SWAP1 POP SWAP2 SWAP1 POP JUMP JUMPDEST PUSH32 0x4D696C6573746F6E652073686F756C64206265206E6F74207265616368656400 PUSH0 DUP3 ADD MSTORE POP JUMP JUMPDEST PUSH0 PUSH2 0x37D4 PUSH1 0x1F DUP4 PUSH2 0x292E JUMP JUMPDEST SWAP2 POP PUSH2 0x37DF DUP3 PUSH2 0x37A0 JUMP JUMPDEST PUSH1 0x20 DUP3 ADD SWAP1 POP SWAP2 SWAP1 POP JUMP JUMPDEST PUSH0 PUSH1 0x20 DUP3 ADD SWAP1 POP DUP2 DUP2 SUB PUSH0 DUP4 ADD MSTORE PUSH2 0x3801 DUP2 PUSH2 0x37C8 JUMP JUMPDEST SWAP1 POP SWAP2 SWAP1 POP JUMP JUMPDEST PUSH0 PUSH1 0x80 DUP3 ADD SWAP1 POP PUSH2 0x381B PUSH0 DUP4 ADD DUP8 PUSH2 0x2994 JUMP JUMPDEST PUSH2 0x3828 PUSH1 0x20 DUP4 ADD DUP7 PUSH2 0x2994 JUMP JUMPDEST PUSH2 0x3835 PUSH1 0x40 DUP4 ADD DUP6 PUSH2 0x2994 JUMP JUMPDEST PUSH2 0x3842 PUSH1 0x60 DUP4 ADD DUP5 PUSH2 0x2994 JUMP JUMPDEST SWAP6 SWAP5 POP POP POP POP POP JUMP JUMPDEST PUSH32 0x50726F6A65637420646F65736E27742065786973740000000000000000000000 PUSH0 DUP3 ADD MSTORE POP JUMP JUMPDEST PUSH0 PUSH2 0x387F PUSH1 0x15 DUP4 PUSH2 0x292E JUMP JUMPDEST SWAP2 POP PUSH2 0x388A DUP3 PUSH2 0x384B JUMP JUMPDEST PUSH1 0x20 DUP3 ADD SWAP1 POP SWAP2 SWAP1 POP JUMP JUMPDEST PUSH0 PUSH1 0x20 DUP3 ADD SWAP1 POP DUP2 DUP2 SUB PUSH0 DUP4 ADD MSTORE PUSH2 0x38AC DUP2 PUSH2 0x3873 JUMP JUMPDEST SWAP1 POP SWAP2 SWAP1 POP JUMP JUMPDEST PUSH32 0x596F7520646F6E74206861766520656E6F756768206D6F6E657920746F206675 PUSH0 DUP3 ADD MSTORE PUSH32 0x6E64000000000000000000000000000000000000000000000000000000000000 PUSH1 0x20 DUP3 ADD MSTORE POP JUMP JUMPDEST PUSH0 PUSH2 0x390D PUSH1 0x22 DUP4 PUSH2 0x292E JUMP JUMPDEST SWAP2 POP PUSH2 0x3918 DUP3 PUSH2 0x38B3 JUMP JUMPDEST PUSH1 0x40 DUP3 ADD SWAP1 POP SWAP2 SWAP1 POP JUMP JUMPDEST PUSH0 PUSH1 0x20 DUP3 ADD SWAP1 POP DUP2 DUP2 SUB PUSH0 DUP4 ADD MSTORE PUSH2 0x393A DUP2 PUSH2 0x3901 JUMP JUMPDEST SWAP1 POP SWAP2 SWAP1 POP JUMP JUMPDEST PUSH32 0x46756E6420616D6F756E742063616E2774206265203000000000000000000000 PUSH0 DUP3 ADD MSTORE POP JUMP JUMPDEST PUSH0 PUSH2 0x3975 PUSH1 0x16 DUP4 PUSH2 0x292E JUMP JUMPDEST SWAP2 POP PUSH2 0x3980 DUP3 PUSH2 0x3941 JUMP JUMPDEST PUSH1 0x20 DUP3 ADD SWAP1 POP SWAP2 SWAP1 POP JUMP JUMPDEST PUSH0 PUSH1 0x20 DUP3 ADD SWAP1 POP DUP2 DUP2 SUB PUSH0 DUP4 ADD MSTORE PUSH2 0x39A2 DUP2 PUSH2 0x3969 JUMP JUMPDEST SWAP1 POP SWAP2 SWAP1 POP JUMP JUMPDEST PUSH32 0x50726F6A656374206D7573742062652061637469766520746F2066756E640000 PUSH0 DUP3 ADD MSTORE POP JUMP JUMPDEST PUSH0 PUSH2 0x39DD PUSH1 0x1E DUP4 PUSH2 0x292E JUMP JUMPDEST SWAP2 POP PUSH2 0x39E8 DUP3 PUSH2 0x39A9 JUMP JUMPDEST PUSH1 0x20 DUP3 ADD SWAP1 POP SWAP2 SWAP1 POP JUMP JUMPDEST PUSH0 PUSH1 0x20 DUP3 ADD SWAP1 POP DUP2 DUP2 SUB PUSH0 DUP4 ADD MSTORE PUSH2 0x3A0A DUP2 PUSH2 0x39D1 JUMP JUMPDEST SWAP1 POP SWAP2 SWAP1 POP JUMP JUMPDEST PUSH32 0x596F752063616E27742066756E6420616674657220646561646C696E65000000 PUSH0 DUP3 ADD MSTORE POP JUMP JUMPDEST PUSH0 PUSH2 0x3A45 PUSH1 0x1D DUP4 PUSH2 0x292E JUMP JUMPDEST SWAP2 POP PUSH2 0x3A50 DUP3 PUSH2 0x3A11 JUMP JUMPDEST PUSH1 0x20 DUP3 ADD SWAP1 POP SWAP2 SWAP1 POP JUMP JUMPDEST PUSH0 PUSH1 0x20 DUP3 ADD SWAP1 POP DUP2 DUP2 SUB PUSH0 DUP4 ADD MSTORE PUSH2 0x3A72 DUP2 PUSH2 0x3A39 JUMP JUMPDEST SWAP1 POP SWAP2 SWAP1 POP JUMP JUMPDEST PUSH0 PUSH2 0x3A83 DUP3 PUSH2 0x28C6 JUMP JUMPDEST SWAP2 POP PUSH2 0x3A8E DUP4 PUSH2 0x28C6 JUMP JUMPDEST SWAP3 POP DUP3 DUP3 ADD SWAP1 POP DUP1 DUP3 GT ISZERO PUSH2 0x3AA6 JUMPI PUSH2 0x3AA5 PUSH2 0x362A JUMP JUMPDEST JUMPDEST SWAP3 SWAP2 POP POP JUMP JUMPDEST PUSH0 DUP2 SWAP1 POP SWAP3 SWAP2 POP POP JUMP JUMPDEST POP JUMP JUMPDEST PUSH0 PUSH2 0x3AC4 PUSH0 DUP4 PUSH2 0x3AAC JUMP JUMPDEST SWAP2 POP PUSH2 0x3ACF DUP3 PUSH2 0x3AB6 JUMP JUMPDEST PUSH0 DUP3 ADD SWAP1 POP SWAP2 SWAP1 POP JUMP JUMPDEST PUSH0 PUSH2 0x3AE3 DUP3 PUSH2 0x3AB9 JUMP JUMPDEST SWAP2 POP DUP2 SWAP1 POP SWAP2 SWAP1 POP JUMP JUMPDEST PUSH32 0x4661696C656420746F2072657475726E20737572706C75730000000000000000 PUSH0 DUP3 ADD MSTORE POP JUMP JUMPDEST PUSH0 PUSH2 0x3B21 PUSH1 0x18 DUP4 PUSH2 0x292E JUMP JUMPDEST SWAP2 POP PUSH2 0x3B2C DUP3 PUSH2 0x3AED JUMP JUMPDEST PUSH1 0x20 DUP3 ADD SWAP1 POP SWAP2 SWAP1 POP JUMP JUMPDEST PUSH0 PUSH1 0x20 DUP3 ADD SWAP1 POP DUP2 DUP2 SUB PUSH0 DUP4 ADD MSTORE PUSH2 0x3B4E DUP2 PUSH2 0x3B15 JUMP JUMPDEST SWAP1 POP SWAP2 SWAP1 POP JUMP JUMPDEST PUSH32 0x4F6E6C792073797374656D206F776E6572206F722070726F6A656374206F776E PUSH0 DUP3 ADD MSTORE PUSH32 0x65722063616E2073746F702070726F6A65637473000000000000000000000000 PUSH1 0x20 DUP3 ADD MSTORE POP JUMP JUMPDEST PUSH0 PUSH2 0x3BAF PUSH1 0x34 DUP4 PUSH2 0x292E JUMP JUMPDEST SWAP2 POP PUSH2 0x3BBA DUP3 PUSH2 0x3B55 JUMP JUMPDEST PUSH1 0x40 DUP3 ADD SWAP1 POP SWAP2 SWAP1 POP JUMP JUMPDEST PUSH0 PUSH1 0x20 DUP3 ADD SWAP1 POP DUP2 DUP2 SUB PUSH0 DUP4 ADD MSTORE PUSH2 0x3BDC DUP2 PUSH2 0x3BA3 JUMP JUMPDEST SWAP1 POP SWAP2 SWAP1 POP JUMP JUMPDEST PUSH32 0x4F6E6C79207379734F776E65722063616E20646561637469766174652070726F PUSH0 DUP3 ADD MSTORE PUSH32 0x6A65637473000000000000000000000000000000000000000000000000000000 PUSH1 0x20 DUP3 ADD MSTORE POP JUMP JUMPDEST PUSH0 PUSH2 0x3C3D PUSH1 0x25 DUP4 PUSH2 0x292E JUMP JUMPDEST SWAP2 POP PUSH2 0x3C48 DUP3 PUSH2 0x3BE3 JUMP JUMPDEST PUSH1 0x40 DUP3 ADD SWAP1 POP SWAP2 SWAP1 POP JUMP JUMPDEST PUSH0 PUSH1 0x20 DUP3 ADD SWAP1 POP DUP2 DUP2 SUB PUSH0 DUP4 ADD MSTORE PUSH2 0x3C6A DUP2 PUSH2 0x3C31 JUMP JUMPDEST SWAP1 POP SWAP2 SWAP1 POP JUMP JUMPDEST PUSH32 0x43616E6E6F7420616464206E6577206D696C6573746F6E657320746F20696E61 PUSH0 DUP3 ADD MSTORE PUSH32 0x63746976652070726F6A65637400000000000000000000000000000000000000 PUSH1 0x20 DUP3 ADD MSTORE POP JUMP JUMPDEST PUSH0 PUSH2 0x3CCB PUSH1 0x2D DUP4 PUSH2 0x292E JUMP JUMPDEST SWAP2 POP PUSH2 0x3CD6 DUP3 PUSH2 0x3C71 JUMP JUMPDEST PUSH1 0x40 DUP3 ADD SWAP1 POP SWAP2 SWAP1 POP JUMP JUMPDEST PUSH0 PUSH1 0x20 DUP3 ADD SWAP1 POP DUP2 DUP2 SUB PUSH0 DUP4 ADD MSTORE PUSH2 0x3CF8 DUP2 PUSH2 0x3CBF JUMP JUMPDEST SWAP1 POP SWAP2 SWAP1 POP JUMP JUMPDEST PUSH32 0x4F6E6C792070726F6A6563742063726561746F722063616E20616464206E6577 PUSH0 DUP3 ADD MSTORE PUSH32 0x206D696C6573746F6E6573000000000000000000000000000000000000000000 PUSH1 0x20 DUP3 ADD MSTORE POP JUMP JUMPDEST PUSH0 PUSH2 0x3D59 PUSH1 0x2B DUP4 PUSH2 0x292E JUMP JUMPDEST SWAP2 POP PUSH2 0x3D64 DUP3 PUSH2 0x3CFF JUMP JUMPDEST PUSH1 0x40 DUP3 ADD SWAP1 POP SWAP2 SWAP1 POP JUMP JUMPDEST PUSH0 PUSH1 0x20 DUP3 ADD SWAP1 POP DUP2 DUP2 SUB PUSH0 DUP4 ADD MSTORE PUSH2 0x3D86 DUP2 PUSH2 0x3D4D JUMP JUMPDEST SWAP1 POP SWAP2 SWAP1 POP JUMP JUMPDEST PUSH32 0x4D7573742068617665206174206C65617374206F6E65206D696C6573746F6E65 PUSH0 DUP3 ADD MSTORE POP JUMP JUMPDEST PUSH0 PUSH2 0x3DC1 PUSH1 0x20 DUP4 PUSH2 0x292E JUMP JUMPDEST SWAP2 POP PUSH2 0x3DCC DUP3 PUSH2 0x3D8D JUMP JUMPDEST PUSH1 0x20 DUP3 ADD SWAP1 POP SWAP2 SWAP1 POP JUMP JUMPDEST PUSH0 PUSH1 0x20 DUP3 ADD SWAP1 POP DUP2 DUP2 SUB PUSH0 DUP4 ADD MSTORE PUSH2 0x3DEE DUP2 PUSH2 0x3DB5 JUMP JUMPDEST SWAP1 POP SWAP2 SWAP1 POP JUMP JUMPDEST PUSH32 0x476F616C20616D6F756E742063616E2774206265203000000000000000000000 PUSH0 DUP3 ADD MSTORE POP JUMP JUMPDEST PUSH0 PUSH2 0x3E29 PUSH1 0x16 DUP4 PUSH2 0x292E JUMP JUMPDEST SWAP2 POP PUSH2 0x3E34 DUP3 PUSH2 0x3DF5 JUMP JUMPDEST PUSH1 0x20 DUP3 ADD SWAP1 POP SWAP2 SWAP1 POP JUMP JUMPDEST PUSH0 PUSH1 0x20 DUP3 ADD SWAP1 POP DUP2 DUP2 SUB PUSH0 DUP4 ADD MSTORE PUSH2 0x3E56 DUP2 PUSH2 0x3E1D JUMP JUMPDEST SWAP1 POP SWAP2 SWAP1 POP JUMP JUMPDEST PUSH32 0x446561646C696E652063616E277420626520696E207468652070617374000000 PUSH0 DUP3 ADD MSTORE POP JUMP JUMPDEST PUSH0 PUSH2 0x3E91 PUSH1 0x1D DUP4 PUSH2 0x292E JUMP JUMPDEST SWAP2 POP PUSH2 0x3E9C DUP3 PUSH2 0x3E5D JUMP JUMPDEST PUSH1 0x20 DUP3 ADD SWAP1 POP SWAP2 SWAP1 POP JUMP JUMPDEST PUSH0 PUSH1 0x20 DUP3 ADD SWAP1 POP DUP2 DUP2 SUB PUSH0 DUP4 ADD MSTORE PUSH2 0x3EBE DUP2 PUSH2 0x3E85 JUMP JUMPDEST SWAP1 POP SWAP2 SWAP1 POP JUMP JUMPDEST PUSH32 0x4D696C6573746F6E6520676F616C732073686F756C6420626520696E63726561 PUSH0 DUP3 ADD MSTORE PUSH32 0x73696E6700000000000000000000000000000000000000000000000000000000 PUSH1 0x20 DUP3 ADD MSTORE POP JUMP JUMPDEST PUSH0 PUSH2 0x3F1F PUSH1 0x24 DUP4 PUSH2 0x292E JUMP JUMPDEST SWAP2 POP PUSH2 0x3F2A DUP3 PUSH2 0x3EC5 JUMP JUMPDEST PUSH1 0x40 DUP3 ADD SWAP1 POP SWAP2 SWAP1 POP JUMP JUMPDEST PUSH0 PUSH1 0x20 DUP3 ADD SWAP1 POP DUP2 DUP2 SUB PUSH0 DUP4 ADD MSTORE PUSH2 0x3F4C DUP2 PUSH2 0x3F13 JUMP JUMPDEST SWAP1 POP SWAP2 SWAP1 POP JUMP JUMPDEST PUSH32 0x4D696C6573746F6E6520646561646C696E65732073686F756C6420626520696E PUSH0 DUP3 ADD MSTORE PUSH32 0x6372656173696E67000000000000000000000000000000000000000000000000 PUSH1 0x20 DUP3 ADD MSTORE POP JUMP JUMPDEST PUSH0 PUSH2 0x3FAD PUSH1 0x28 DUP4 PUSH2 0x292E JUMP JUMPDEST SWAP2 POP PUSH2 0x3FB8 DUP3 PUSH2 0x3F53 JUMP JUMPDEST PUSH1 0x40 DUP3 ADD SWAP1 POP SWAP2 SWAP1 POP JUMP JUMPDEST PUSH0 PUSH1 0x20 DUP3 ADD SWAP1 POP DUP2 DUP2 SUB PUSH0 DUP4 ADD MSTORE PUSH2 0x3FDA DUP2 PUSH2 0x3FA1 JUMP JUMPDEST SWAP1 POP SWAP2 SWAP1 POP JUMP JUMPDEST PUSH0 PUSH2 0x3FEB DUP3 PUSH2 0x28C6 JUMP JUMPDEST SWAP2 POP PUSH32 0xFFFFFFFFFFFFFFFFFFFFFFFFFFFFFFFFFFFFFFFFFFFFFFFFFFFFFFFFFFFFFFFF DUP3 SUB PUSH2 0x401D JUMPI PUSH2 0x401C PUSH2 0x362A JUMP JUMPDEST JUMPDEST PUSH1 0x1 DUP3 ADD SWAP1 POP SWAP2 SWAP1 POP JUMP JUMPDEST PUSH0 PUSH1 0x20 DUP3 ADD SWAP1 POP PUSH2 0x403B PUSH0 DUP4 ADD DUP5 PUSH2 0x29AE JUMP JUMPDEST SWAP3 SWAP2 POP POP JUMP JUMPDEST PUSH32 0x43616E6E6F742073746F7020696E6163746976652070726F6A65637400000000 PUSH0 DUP3 ADD MSTORE POP JUMP JUMPDEST PUSH0 PUSH2 0x4075 PUSH1 0x1C DUP4 PUSH2 0x292E JUMP JUMPDEST SWAP2 POP PUSH2 0x4080 DUP3 PUSH2 0x4041 JUMP JUMPDEST PUSH1 0x20 DUP3 ADD SWAP1 POP SWAP2 SWAP1 POP JUMP JUMPDEST PUSH0 PUSH1 0x20 DUP3 ADD SWAP1 POP DUP2 DUP2 SUB PUSH0 DUP4 ADD MSTORE PUSH2 0x40A2 DUP2 PUSH2 0x4069 JUMP JUMPDEST SWAP1 POP SWAP2 SWAP1 POP JUMP JUMPDEST PUSH32 0x5472616E7366657220746F2063726561746F72206661696C6564000000000000 PUSH0 DUP3 ADD MSTORE POP JUMP JUMPDEST PUSH0 PUSH2 0x40DD PUSH1 0x1A DUP4 PUSH2 0x292E JUMP JUMPDEST SWAP2 POP PUSH2 0x40E8 DUP3 PUSH2 0x40A9 JUMP JUMPDEST PUSH1 0x20 DUP3 ADD SWAP1 POP SWAP2 SWAP1 POP JUMP JUMPDEST PUSH0 PUSH1 0x20 DUP3 ADD SWAP1 POP DUP2 DUP2 SUB PUSH0 DUP4 ADD MSTORE PUSH2 0x410A DUP2 PUSH2 0x40D1 JUMP JUMPDEST SWAP1 POP SWAP2 SWAP1 POP JUMP JUMPDEST PUSH32 0x526566756E64206661696C656400000000000000000000000000000000000000 PUSH0 DUP3 ADD MSTORE POP JUMP JUMPDEST PUSH0 PUSH2 0x4145 PUSH1 0xD DUP4 PUSH2 0x292E JUMP JUMPDEST SWAP2 POP PUSH2 0x4150 DUP3 PUSH2 0x4111 JUMP JUMPDEST PUSH1 0x20 DUP3 ADD SWAP1 POP SWAP2 SWAP1 POP JUMP JUMPDEST PUSH0 PUSH1 0x20 DUP3 ADD SWAP1 POP DUP2 DUP2 SUB PUSH0 DUP4 ADD MSTORE PUSH2 0x4172 DUP2 PUSH2 0x4139 JUMP JUMPDEST SWAP1 POP SWAP2 SWAP1 POP JUMP INVALID LOG2 PUSH5 0x6970667358 0x22 SLT KECCAK256 MSTORE 0xF GAS DELEGATECALL LOG3 0xFC SWAP13 0xBE ADD 0xB1 DIV PUSH5 0x3D3C51B639 0x1F SWAP8 PUSH1 0x1F 0xD9 JUMPF 0xF2DD 0xB4 PUSH20 0x8E1E0EC6F64736F6C634300081E003300000000 "
		},
		"gasEstimates": {
			"creation": {
				"codeDepositCost": "3363000",
				"executionCost": "28009",
				"totalCost": "3391009"
			},
			"external": {
				"addNewMilestones(uint256,(uint256,uint256)[])": "infinite",
				"checkCurrentMilestone(uint256)": "infinite",
				"createProject(string,string,string,(uint256,uint256)[])": "infinite",
				"deactivateProjectsWithExpiredDeadlines()": "infinite",
				"fundProject(uint256)": "infinite",
				"getAllActiveProjects()": "infinite",
				"getCurrentMilestoneFunders(uint256)": "infinite",
				"getCurrentMilestoneInfo(uint256)": "infinite",
				"getProjectInfo(uint256)": "infinite",
				"getallMilestonesInfo(uint256)": "infinite",
				"projects(uint256)": "infinite",
				"stopProject(uint256)": "infinite",
				"sysOwner()": "2508"
			},
			"internal": {
				"initiateNextMilestone(uint256)": "infinite",
				"refundMilestone(uint256,uint256)": "infinite",
				"sendMoneyToOwner(address,uint256)": "infinite",
				"stopProjectHelper(uint256)": "infinite"
			}
		},
		"methodIdentifiers": {
			"addNewMilestones(uint256,(uint256,uint256)[])": "ae632181",
			"checkCurrentMilestone(uint256)": "4e94e824",
			"createProject(string,string,string,(uint256,uint256)[])": "1a86e67d",
			"deactivateProjectsWithExpiredDeadlines()": "7808de38",
			"fundProject(uint256)": "6c563abe",
			"getAllActiveProjects()": "f2ef441b",
			"getCurrentMilestoneFunders(uint256)": "33ec0fc5",
			"getCurrentMilestoneInfo(uint256)": "b99122af",
			"getProjectInfo(uint256)": "fabf5968",
			"getallMilestonesInfo(uint256)": "d8a5b36d",
			"projects(uint256)": "107046bd",
			"stopProject(uint256)": "6db7a960",
			"sysOwner()": "0e4877d6"
		}
	},
	"abi": [
		{
			"inputs": [],
			"stateMutability": "nonpayable",
			"type": "constructor"
		},
		{
			"anonymous": false,
			"inputs": [
				{
					"indexed": false,
					"internalType": "uint256",
					"name": "deadline",
					"type": "uint256"
				},
				{
					"indexed": false,
					"internalType": "uint256",
					"name": "goalAmount",
					"type": "uint256"
				},
				{
					"indexed": false,
					"internalType": "uint256",
					"name": "totalFunded",
					"type": "uint256"
				},
				{
					"indexed": false,
					"internalType": "uint256",
					"name": "currentMileStoneTotalFunded",
					"type": "uint256"
				}
			],
			"name": "CurrentMilestoneStatus",
			"type": "event"
		},
		{
			"anonymous": false,
			"inputs": [
				{
					"indexed": false,
					"internalType": "uint256",
					"name": "projectIndex",
					"type": "uint256"
				}
			],
			"name": "ProjectCreated",
			"type": "event"
		},
		{
			"anonymous": false,
			"inputs": [
				{
					"indexed": false,
					"internalType": "uint256",
					"name": "projectIndex",
					"type": "uint256"
				},
				{
					"indexed": false,
					"internalType": "uint256",
					"name": "amount",
					"type": "uint256"
				},
				{
					"indexed": false,
					"internalType": "uint256",
					"name": "totalFunded",
					"type": "uint256"
				},
				{
					"indexed": false,
					"internalType": "uint256",
					"name": "currentMilestoneTotalFunded",
					"type": "uint256"
				}
			],
			"name": "ProjectFunded",
			"type": "event"
		},
		{
			"anonymous": false,
			"inputs": [
				{
					"indexed": false,
					"internalType": "bool",
					"name": "isActive",
					"type": "bool"
				}
			],
			"name": "ProjectStatus",
			"type": "event"
		},
		{
			"inputs": [
				{
					"internalType": "uint256",
					"name": "projectIndex",
					"type": "uint256"
				},
				{
					"components": [
						{
							"internalType": "uint256",
							"name": "goalAmount",
							"type": "uint256"
						},
						{
							"internalType": "uint256",
							"name": "deadline",
							"type": "uint256"
						}
					],
					"internalType": "struct MilestoneInfo[]",
					"name": "milestones",
					"type": "tuple[]"
				}
			],
			"name": "addNewMilestones",
			"outputs": [],
			"stateMutability": "nonpayable",
			"type": "function"
		},
		{
			"inputs": [
				{
					"internalType": "uint256",
					"name": "projectIndex",
					"type": "uint256"
				}
			],
			"name": "checkCurrentMilestone",
			"outputs": [],
			"stateMutability": "nonpayable",
			"type": "function"
		},
		{
			"inputs": [
				{
					"internalType": "string",
					"name": "name",
					"type": "string"
				},
				{
					"internalType": "string",
					"name": "headerImageUrl",
					"type": "string"
				},
				{
					"internalType": "string",
					"name": "description",
					"type": "string"
				},
				{
					"components": [
						{
							"internalType": "uint256",
							"name": "goalAmount",
							"type": "uint256"
						},
						{
							"internalType": "uint256",
							"name": "deadline",
							"type": "uint256"
						}
					],
					"internalType": "struct MilestoneInfo[]",
					"name": "milestones",
					"type": "tuple[]"
				}
			],
			"name": "createProject",
			"outputs": [],
			"stateMutability": "nonpayable",
			"type": "function"
		},
		{
			"inputs": [],
			"name": "deactivateProjectsWithExpiredDeadlines",
			"outputs": [],
			"stateMutability": "nonpayable",
			"type": "function"
		},
		{
			"inputs": [
				{
					"internalType": "uint256",
					"name": "projectIndex",
					"type": "uint256"
				}
			],
			"name": "fundProject",
			"outputs": [],
			"stateMutability": "payable",
			"type": "function"
		},
		{
			"inputs": [],
			"name": "getAllActiveProjects",
			"outputs": [
				{
					"components": [
						{
							"internalType": "address",
							"name": "creator",
							"type": "address"
						},
						{
							"internalType": "string",
							"name": "name",
							"type": "string"
						},
						{
							"internalType": "string",
							"name": "headerImageUrl",
							"type": "string"
						},
						{
							"internalType": "string",
							"name": "description",
							"type": "string"
						},
						{
							"internalType": "uint256",
							"name": "totalFunded",
							"type": "uint256"
						},
						{
							"internalType": "uint256",
							"name": "currentMilestoneIndex",
							"type": "uint256"
						},
						{
							"internalType": "bool",
							"name": "isActive",
							"type": "bool"
						},
						{
							"internalType": "bool",
							"name": "over",
							"type": "bool"
						},
						{
							"internalType": "uint256",
							"name": "index",
							"type": "uint256"
						}
					],
					"internalType": "struct ProjectView[]",
					"name": "",
					"type": "tuple[]"
				}
			],
			"stateMutability": "view",
			"type": "function"
		},
		{
			"inputs": [
				{
					"internalType": "uint256",
					"name": "projectIndex",
					"type": "uint256"
				}
			],
			"name": "getCurrentMilestoneFunders",
			"outputs": [
				{
					"internalType": "address[]",
					"name": "",
					"type": "address[]"
				}
			],
			"stateMutability": "view",
			"type": "function"
		},
		{
			"inputs": [
				{
					"internalType": "uint256",
					"name": "projectIndex",
					"type": "uint256"
				}
			],
			"name": "getCurrentMilestoneInfo",
			"outputs": [
				{
					"components": [
						{
							"internalType": "uint256",
							"name": "goalAmount",
							"type": "uint256"
						},
						{
							"internalType": "uint256",
							"name": "deadline",
							"type": "uint256"
						}
					],
					"internalType": "struct MilestoneInfo",
					"name": "",
					"type": "tuple"
				}
			],
			"stateMutability": "nonpayable",
			"type": "function"
		},
		{
			"inputs": [
				{
					"internalType": "uint256",
					"name": "projectIndex",
					"type": "uint256"
				}
			],
			"name": "getProjectInfo",
			"outputs": [
				{
					"components": [
						{
							"internalType": "address",
							"name": "creator",
							"type": "address"
						},
						{
							"internalType": "string",
							"name": "name",
							"type": "string"
						},
						{
							"internalType": "string",
							"name": "headerImageUrl",
							"type": "string"
						},
						{
							"internalType": "string",
							"name": "description",
							"type": "string"
						},
						{
							"internalType": "uint256",
							"name": "totalFunded",
							"type": "uint256"
						},
						{
							"internalType": "uint256",
							"name": "currentMilestoneIndex",
							"type": "uint256"
						},
						{
							"internalType": "bool",
							"name": "isActive",
							"type": "bool"
						},
						{
							"internalType": "bool",
							"name": "over",
							"type": "bool"
						},
						{
							"internalType": "uint256",
							"name": "index",
							"type": "uint256"
						}
					],
					"internalType": "struct ProjectView",
					"name": "",
					"type": "tuple"
				}
			],
			"stateMutability": "nonpayable",
			"type": "function"
		},
		{
			"inputs": [
				{
					"internalType": "uint256",
					"name": "projectIndex",
					"type": "uint256"
				}
			],
			"name": "getallMilestonesInfo",
			"outputs": [
				{
					"components": [
						{
							"internalType": "uint256",
							"name": "goalAmount",
							"type": "uint256"
						},
						{
							"internalType": "uint256",
							"name": "deadline",
							"type": "uint256"
						}
					],
					"internalType": "struct MilestoneInfo[]",
					"name": "",
					"type": "tuple[]"
				}
			],
			"stateMutability": "view",
			"type": "function"
		},
		{
			"inputs": [
				{
					"internalType": "uint256",
					"name": "",
					"type": "uint256"
				}
			],
			"name": "projects",
			"outputs": [
				{
					"internalType": "address",
					"name": "creator",
					"type": "address"
				},
				{
					"internalType": "string",
					"name": "name",
					"type": "string"
				},
				{
					"internalType": "string",
					"name": "headerImageUrl",
					"type": "string"
				},
				{
					"internalType": "string",
					"name": "description",
					"type": "string"
				},
				{
					"internalType": "uint256",
					"name": "totalFunded",
					"type": "uint256"
				},
				{
					"internalType": "uint256",
					"name": "currentMilestoneIndex",
					"type": "uint256"
				},
				{
					"internalType": "bool",
					"name": "isActive",
					"type": "bool"
				},
				{
					"internalType": "bool",
					"name": "over",
					"type": "bool"
				}
			],
			"stateMutability": "view",
			"type": "function"
		},
		{
			"inputs": [
				{
					"internalType": "uint256",
					"name": "projectIndex",
					"type": "uint256"
				}
			],
			"name": "stopProject",
			"outputs": [],
			"stateMutability": "nonpayable",
			"type": "function"
		},
		{
			"inputs": [],
			"name": "sysOwner",
			"outputs": [
				{
					"internalType": "address",
					"name": "",
					"type": "address"
				}
			],
			"stateMutability": "view",
			"type": "function"
		}
	]
}