{
	"data": {
		"bytecode": {
			"linkReferences": {},
			"object": "6080604052348015600e575f5ffd5b50335f5f6101000a81548173ffffffffffffffffffffffffffffffffffffffff021916908373ffffffffffffffffffffffffffffffffffffffff16021790555061386a8061005b5f395ff3fe60806040526004361061009b575f3560e01c80636c563abe116100635780636c563abe146101975780636db7a960146101b3578063ae632181146101db578063b99122af14610203578063d8a5b36d1461023f578063f2ef441b1461027b5761009b565b80630e4877d61461009f578063107046bd146100c95780631a86e67d1461010b57806333ec0fc5146101335780634e94e8241461016f575b5f5ffd5b3480156100aa575f5ffd5b506100b36102a5565b6040516100c09190612126565b60405180910390f35b3480156100d4575f5ffd5b506100ef60048036038101906100ea9190612183565b6102c9565b6040516101029796959493929190612247565b60405180910390f35b348015610116575f5ffd5b50610131600480360381019061012c919061250a565b6104d3565b005b34801561013e575f5ffd5b5061015960048036038101906101549190612183565b610683565b6040516101669190612695565b60405180910390f35b34801561017a575f5ffd5b5061019560048036038101906101909190612183565b610760565b005b6101b160048036038101906101ac9190612183565b6108e9565b005b3480156101be575f5ffd5b506101d960048036038101906101d49190612183565b610ed1565b005b3480156101e6575f5ffd5b5061020160048036038101906101fc91906126b5565b610fe2565b005b34801561020e575f5ffd5b5061022960048036038101906102249190612183565b611544565b604051610236919061274b565b60405180910390f35b34801561024a575f5ffd5b5061026560048036038101906102609190612183565b611604565b6040516102729190612839565b60405180910390f35b348015610286575f5ffd5b5061028f61175a565b60405161029c9190612a12565b60405180910390f35b5f5f9054906101000a900473ffffffffffffffffffffffffffffffffffffffff1681565b600181815481106102d8575f80fd5b905f5260205f2090600802015f91509050805f015f9054906101000a900473ffffffffffffffffffffffffffffffffffffffff169080600101805461031c90612a5f565b80601f016020809104026020016040519081016040528092919081815260200182805461034890612a5f565b80156103935780601f1061036a57610100808354040283529160200191610393565b820191905f5260205f20905b81548152906001019060200180831161037657829003601f168201915b5050505050908060020180546103a890612a5f565b80601f01602080910402602001604051908101604052809291908181526020018280546103d490612a5f565b801561041f5780601f106103f65761010080835404028352916020019161041f565b820191905f5260205f20905b81548152906001019060200180831161040257829003601f168201915b50505050509080600301805461043490612a5f565b80601f016020809104026020016040519081016040528092919081815260200182805461046090612a5f565b80156104ab5780601f10610482576101008083540402835291602001916104ab565b820191905f5260205f20905b81548152906001019060200180831161048e57829003601f168201915b505050505090806004015490806005015490806007015f9054906101000a900460ff16905087565b5f5f9054906101000a900473ffffffffffffffffffffffffffffffffffffffff1673ffffffffffffffffffffffffffffffffffffffff163373ffffffffffffffffffffffffffffffffffffffff1603610561576040517f08c379a000000000000000000000000000000000000000000000000000000000815260040161055890612aff565b60405180910390fd5b5f6001808160018154018082558091505003905f5260205f209060080201905033815f015f6101000a81548173ffffffffffffffffffffffffffffffffffffffff021916908373ffffffffffffffffffffffffffffffffffffffff160217905550848160010190816105d39190612cbd565b50838160020190816105e59190612cbd565b50828160030190816105f79190612cbd565b505f81600401819055505f81600501819055506001816007015f6101000a81548160ff0219169083151502179055506106406001808054905061063a9190612db9565b83610fe2565b7f1ac2092e16e28eef29d1832f3dc69da1b21284a1f3159d3b26cb238b22fe4f8a6001805490506040516106749190612dec565b60405180910390a15050505050565b60605f6001838154811061069a57610699612e05565b5b905f5260205f20906008020190505f816006018260050154815481106106c3576106c2612e05565b5b905f5260205f20906006020190508060030180548060200260200160405190810160405280929190818152602001828054801561075257602002820191905f5260205f20905b815f9054906101000a900473ffffffffffffffffffffffffffffffffffffffff1673ffffffffffffffffffffffffffffffffffffffff1681526020019060010190808311610709575b505050505092505050919050565b60018054905081106107a7576040517f08c379a000000000000000000000000000000000000000000000000000000000815260040161079e90612e7c565b60405180910390fd5b5f600182815481106107bc576107bb612e05565b5b905f5260205f2090600802019050806007015f9054906101000a900460ff1661081a576040517f08c379a000000000000000000000000000000000000000000000000000000000815260040161081190612ee4565b60405180910390fd5b5f8160060182600501548154811061083557610834612e05565b5b905f5260205f2090600602019050806005015f9054906101000a900460ff1615610894576040517f08c379a000000000000000000000000000000000000000000000000000000000815260040161088b90612f4c565b60405180910390fd5b7f3f9ee693372748925082c0c5ba09ecffc5fddfeecf993becff877eac8a1e08bc815f0160010154825f015f0154846004015484600201546040516108dc9493929190612f6a565b60405180910390a1505050565b6001805490508110610930576040517f08c379a000000000000000000000000000000000000000000000000000000000815260040161092790612ff7565b60405180910390fd5b3373ffffffffffffffffffffffffffffffffffffffff163134111561098a576040517f08c379a000000000000000000000000000000000000000000000000000000000815260040161098190613085565b60405180910390fd5b5f34116109cc576040517f08c379a00000000000000000000000000000000000000000000000000000000081526004016109c3906130ed565b60405180910390fd5b5f600182815481106109e1576109e0612e05565b5b905f5260205f2090600802019050806007015f9054906101000a900460ff16610a3f576040517f08c379a0000000000000000000000000000000000000000000000000000000008152600401610a3690613155565b60405180910390fd5b5f81600601826005015481548110610a5a57610a59612e05565b5b905f5260205f209060060201905042815f016001015411610ab0576040517f08c379a0000000000000000000000000000000000000000000000000000000008152600401610aa7906131bd565b60405180910390fd5b5f816004015f3373ffffffffffffffffffffffffffffffffffffffff1673ffffffffffffffffffffffffffffffffffffffff1681526020019081526020015f205403610b59578060030133908060018154018082558091505060019003905f5260205f20015f9091909190916101000a81548173ffffffffffffffffffffffffffffffffffffffff021916908373ffffffffffffffffffffffffffffffffffffffff1602179055505b34816004015f3373ffffffffffffffffffffffffffffffffffffffff1673ffffffffffffffffffffffffffffffffffffffff1681526020019081526020015f205f828254610ba791906131db565b9250508190555034816002015f828254610bc191906131db565b9250508190555034826004015f828254610bdb91906131db565b925050819055505b805f015f015482600401541115610e87575f815f015f01548360040154610c0a9190612db9565b9050815f015f01548260020181905550815f015f0154836004018190555080826004015f3373ffffffffffffffffffffffffffffffffffffffff1673ffffffffffffffffffffffffffffffffffffffff1681526020019081526020015f205f828254610c769190612db9565b9250508190555060018360060180549050610c919190612db9565b836005015403610d64575f836007015f6101000a81548160ff0219169083151502179055505f3373ffffffffffffffffffffffffffffffffffffffff1682604051610cdb9061323b565b5f6040518083038185875af1925050503d805f8114610d15576040519150601f19603f3d011682016040523d82523d5f602084013e610d1a565b606091505b5050905080610d5e576040517f08c379a0000000000000000000000000000000000000000000000000000000008152600401610d5590613299565b60405180910390fd5b50610e81565b610d6d84611bdb565b82600601836005015481548110610d8757610d86612e05565b5b905f5260205f20906006020191508160030133908060018154018082558091505060019003905f5260205f20015f9091909190916101000a81548173ffffffffffffffffffffffffffffffffffffffff021916908373ffffffffffffffffffffffffffffffffffffffff16021790555080826004015f3373ffffffffffffffffffffffffffffffffffffffff1673ffffffffffffffffffffffffffffffffffffffff1681526020019081526020015f205f828254610e4591906131db565b9250508190555080826002015f828254610e5f91906131db565b9250508190555080836004015f828254610e7991906131db565b925050819055505b50610be3565b7f17e2effa169c5dde193942abd21f6d49e7d32c15ab843da440cb2abdd10f1911833484600401548460020154604051610ec49493929190612f6a565b60405180910390a1505050565b5f5f9054906101000a900473ffffffffffffffffffffffffffffffffffffffff1673ffffffffffffffffffffffffffffffffffffffff163373ffffffffffffffffffffffffffffffffffffffff161480610f97575060018181548110610f3a57610f39612e05565b5b905f5260205f2090600802015f015f9054906101000a900473ffffffffffffffffffffffffffffffffffffffff1673ffffffffffffffffffffffffffffffffffffffff163373ffffffffffffffffffffffffffffffffffffffff16145b610fd6576040517f08c379a0000000000000000000000000000000000000000000000000000000008152600401610fcd90613327565b60405180910390fd5b610fdf81611d45565b50565b6001805490508210611029576040517f08c379a000000000000000000000000000000000000000000000000000000000815260040161102090612e7c565b60405180910390fd5b5f6001838154811061103e5761103d612e05565b5b905f5260205f2090600802019050806007015f9054906101000a900460ff1661109c576040517f08c379a0000000000000000000000000000000000000000000000000000000008152600401611093906133b5565b60405180910390fd5b3373ffffffffffffffffffffffffffffffffffffffff16815f015f9054906101000a900473ffffffffffffffffffffffffffffffffffffffff1673ffffffffffffffffffffffffffffffffffffffff161461112c576040517f08c379a000000000000000000000000000000000000000000000000000000000815260040161112390613443565b60405180910390fd5b5f82511161116f576040517f08c379a0000000000000000000000000000000000000000000000000000000008152600401611166906134ab565b60405180910390fd5b5f5f90505b825181101561153e575f83828151811061119157611190612e05565b5b60200260200101515f0151116111dc576040517f08c379a00000000000000000000000000000000000000000000000000000000081526004016111d390613513565b60405180910390fd5b428382815181106111f0576111ef612e05565b5b6020026020010151602001511161123c576040517f08c379a00000000000000000000000000000000000000000000000000000000081526004016112339061357b565b60405180910390fd5b5f81111561135757826001826112529190612db9565b8151811061126357611262612e05565b5b60200260200101515f015183828151811061128157611280612e05565b5b60200260200101515f0151116112cc576040517f08c379a00000000000000000000000000000000000000000000000000000000081526004016112c390613609565b60405180910390fd5b826001826112da9190612db9565b815181106112eb576112ea612e05565b5b60200260200101516020015183828151811061130a57611309612e05565b5b60200260200101516020015111611356576040517f08c379a000000000000000000000000000000000000000000000000000000000815260040161134d90613697565b60405180910390fd5b5b5f8260060180549050111561149957816006016001836006018054905061137e9190612db9565b8154811061138f5761138e612e05565b5b905f5260205f2090600602015f015f01548382815181106113b3576113b2612e05565b5b60200260200101515f0151116113fe576040517f08c379a00000000000000000000000000000000000000000000000000000000081526004016113f590613609565b60405180910390fd5b81600601600183600601805490506114169190612db9565b8154811061142757611426612e05565b5b905f5260205f2090600602015f016001015483828151811061144c5761144b612e05565b5b60200260200101516020015111611498576040517f08c379a000000000000000000000000000000000000000000000000000000000815260040161148f90613697565b60405180910390fd5b5b5f8260060160018160018154018082558091505003905f5260205f20906006020190508382815181106114cf576114ce612e05565b5b60200260200101515f0151815f015f01819055508382815181106114f6576114f5612e05565b5b602002602001015160200151815f01600101819055505f81600201819055505f816005015f6101000a81548160ff021916908315150217905550508080600101915050611174565b50505050565b61154c61207e565b6001805490508210611593576040517f08c379a000000000000000000000000000000000000000000000000000000000815260040161158a90612e7c565b60405180910390fd5b5f600183815481106115a8576115a7612e05565b5b905f5260205f2090600802019050806006018160050154815481106115d0576115cf612e05565b5b905f5260205f2090600602015f016040518060400160405290815f8201548152602001600182015481525050915050919050565b6060600180549050821061164d576040517f08c379a000000000000000000000000000000000000000000000000000000000815260040161164490612e7c565b60405180910390fd5b5f6001838154811061166257611661612e05565b5b905f5260205f20906008020190505f816006018054905067ffffffffffffffff811115611692576116916122d1565b5b6040519080825280602002602001820160405280156116cb57816020015b6116b861207e565b8152602001906001900390816116b05790505b5090505f5f90505b826006018054905081101561174f578260060181815481106116f8576116f7612e05565b5b905f5260205f2090600602015f016040518060400160405290815f820154815260200160018201548152505082828151811061173757611736612e05565b5b602002602001018190525080806001019150506116d3565b508092505050919050565b60605f5f90505f5f90505b6001805490508110156117c3576001818154811061178657611785612e05565b5b905f5260205f2090600802016007015f9054906101000a900460ff16156117b65781806117b2906136b5565b9250505b8080600101915050611765565b505f8167ffffffffffffffff8111156117df576117de6122d1565b5b60405190808252806020026020018201604052801561181857816020015b611805612096565b8152602001906001900390816117fd5790505b5090505f5f90505f5f90505b600180549050811015611bd1576001818154811061184557611844612e05565b5b905f5260205f2090600802016007015f9054906101000a900460ff1615611bc45761186e612096565b6001828154811061188257611881612e05565b5b905f5260205f2090600802015f015f9054906101000a900473ffffffffffffffffffffffffffffffffffffffff16815f019073ffffffffffffffffffffffffffffffffffffffff16908173ffffffffffffffffffffffffffffffffffffffff1681525050600182815481106118fa576118f9612e05565b5b905f5260205f209060080201600101805461191490612a5f565b80601f016020809104026020016040519081016040528092919081815260200182805461194090612a5f565b801561198b5780601f106119625761010080835404028352916020019161198b565b820191905f5260205f20905b81548152906001019060200180831161196e57829003601f168201915b50505050508160200181905250600182815481106119ac576119ab612e05565b5b905f5260205f20906008020160020180546119c690612a5f565b80601f01602080910402602001604051908101604052809291908181526020018280546119f290612a5f565b8015611a3d5780601f10611a1457610100808354040283529160200191611a3d565b820191905f5260205f20905b815481529060010190602001808311611a2057829003601f168201915b5050505050816040018190525060018281548110611a5e57611a5d612e05565b5b905f5260205f2090600802016003018054611a7890612a5f565b80601f0160208091040260200160405190810160405280929190818152602001828054611aa490612a5f565b8015611aef5780601f10611ac657610100808354040283529160200191611aef565b820191905f5260205f20905b815481529060010190602001808311611ad257829003601f168201915b5050505050816060018190525060018281548110611b1057611b0f612e05565b5b905f5260205f2090600802016004015481608001818152505060018281548110611b3d57611b3c612e05565b5b905f5260205f209060080201600501548160a001818152505060018281548110611b6a57611b69612e05565b5b905f5260205f2090600802016007015f9054906101000a900460ff168160c001901515908115158152505080848481518110611ba957611ba8612e05565b5b60200260200101819052508280611bbf906136b5565b935050505b8080600101915050611824565b5081935050505090565b5f60018281548110611bf057611bef612e05565b5b905f5260205f20906008020190505f81600601826005015481548110611c1957611c18612e05565b5b905f5260205f20906006020190505f816002015490505f83600501541115611c7f578260060160018460050154611c509190612db9565b81548110611c6157611c60612e05565b5b905f5260205f2090600602016002015481611c7c9190612db9565b90505b815f015f0154836004015410611d35576001826005015f6101000a81548160ff021916908315150217905550611cd7835f015f9054906101000a900473ffffffffffffffffffffffffffffffffffffffff1682611de5565b60018360060180549050611ceb9190612db9565b83600501541015611d1457826005015f815480929190611d0a906136b5565b9190505550611d30565b5f836007015f6101000a81548160ff0219169083151502179055505b611d3f565b611d3e84611d45565b5b50505050565b5f60018281548110611d5a57611d59612e05565b5b905f5260205f2090600802019050806007015f9054906101000a900460ff16611db8576040517f08c379a0000000000000000000000000000000000000000000000000000000008152600401611daf90613746565b60405180910390fd5b5f816007015f6101000a81548160ff021916908315150217905550611de1828260050154611e92565b5050565b5f8273ffffffffffffffffffffffffffffffffffffffff1682604051611e0a9061323b565b5f6040518083038185875af1925050503d805f8114611e44576040519150601f19603f3d011682016040523d82523d5f602084013e611e49565b606091505b5050905080611e8d576040517f08c379a0000000000000000000000000000000000000000000000000000000008152600401611e84906137ae565b60405180910390fd5b505050565b5f60018381548110611ea757611ea6612e05565b5b905f5260205f20906008020190505f816006018381548110611ecc57611ecb612e05565b5b905f5260205f20906006020190505f5f90505b8160030180549050811015612077575f826003018281548110611f0557611f04612e05565b5b905f5260205f20015f9054906101000a900473ffffffffffffffffffffffffffffffffffffffff1690505f836004015f8373ffffffffffffffffffffffffffffffffffffffff1673ffffffffffffffffffffffffffffffffffffffff1681526020019081526020015f205490505f811115612068575f846004015f8473ffffffffffffffffffffffffffffffffffffffff1673ffffffffffffffffffffffffffffffffffffffff1681526020019081526020015f20819055505f8273ffffffffffffffffffffffffffffffffffffffff1682604051611fe39061323b565b5f6040518083038185875af1925050503d805f811461201d576040519150601f19603f3d011682016040523d82523d5f602084013e612022565b606091505b5050905080612066576040517f08c379a000000000000000000000000000000000000000000000000000000000815260040161205d90613816565b60405180910390fd5b505b50508080600101915050611edf565b5050505050565b60405180604001604052805f81526020015f81525090565b6040518060e001604052805f73ffffffffffffffffffffffffffffffffffffffff1681526020016060815260200160608152602001606081526020015f81526020015f81526020015f151581525090565b5f73ffffffffffffffffffffffffffffffffffffffff82169050919050565b5f612110826120e7565b9050919050565b61212081612106565b82525050565b5f6020820190506121395f830184612117565b92915050565b5f604051905090565b5f5ffd5b5f5ffd5b5f819050919050565b61216281612150565b811461216c575f5ffd5b50565b5f8135905061217d81612159565b92915050565b5f6020828403121561219857612197612148565b5b5f6121a58482850161216f565b91505092915050565b5f81519050919050565b5f82825260208201905092915050565b8281835e5f83830152505050565b5f601f19601f8301169050919050565b5f6121f0826121ae565b6121fa81856121b8565b935061220a8185602086016121c8565b612213816121d6565b840191505092915050565b61222781612150565b82525050565b5f8115159050919050565b6122418161222d565b82525050565b5f60e08201905061225a5f83018a612117565b818103602083015261226c81896121e6565b9050818103604083015261228081886121e6565b9050818103606083015261229481876121e6565b90506122a3608083018661221e565b6122b060a083018561221e565b6122bd60c0830184612238565b98975050505050505050565b5f5ffd5b5f5ffd5b7f4e487b71000000000000000000000000000000000000000000000000000000005f52604160045260245ffd5b612307826121d6565b810181811067ffffffffffffffff82111715612326576123256122d1565b5b80604052505050565b5f61233861213f565b905061234482826122fe565b919050565b5f67ffffffffffffffff821115612363576123626122d1565b5b61236c826121d6565b9050602081019050919050565b828183375f83830152505050565b5f61239961239484612349565b61232f565b9050828152602081018484840111156123b5576123b46122cd565b5b6123c0848285612379565b509392505050565b5f82601f8301126123dc576123db6122c9565b5b81356123ec848260208601612387565b91505092915050565b5f67ffffffffffffffff82111561240f5761240e6122d1565b5b602082029050602081019050919050565b5f5ffd5b5f5ffd5b5f6040828403121561243d5761243c612424565b5b612447604061232f565b90505f6124568482850161216f565b5f8301525060206124698482850161216f565b60208301525092915050565b5f612487612482846123f5565b61232f565b905080838252602082019050604084028301858111156124aa576124a9612420565b5b835b818110156124d357806124bf8882612428565b8452602084019350506040810190506124ac565b5050509392505050565b5f82601f8301126124f1576124f06122c9565b5b8135612501848260208601612475565b91505092915050565b5f5f5f5f6080858703121561252257612521612148565b5b5f85013567ffffffffffffffff81111561253f5761253e61214c565b5b61254b878288016123c8565b945050602085013567ffffffffffffffff81111561256c5761256b61214c565b5b612578878288016123c8565b935050604085013567ffffffffffffffff8111156125995761259861214c565b5b6125a5878288016123c8565b925050606085013567ffffffffffffffff8111156125c6576125c561214c565b5b6125d2878288016124dd565b91505092959194509250565b5f81519050919050565b5f82825260208201905092915050565b5f819050602082019050919050565b61261081612106565b82525050565b5f6126218383612607565b60208301905092915050565b5f602082019050919050565b5f612643826125de565b61264d81856125e8565b9350612658836125f8565b805f5b8381101561268857815161266f8882612616565b975061267a8361262d565b92505060018101905061265b565b5085935050505092915050565b5f6020820190508181035f8301526126ad8184612639565b905092915050565b5f5f604083850312156126cb576126ca612148565b5b5f6126d88582860161216f565b925050602083013567ffffffffffffffff8111156126f9576126f861214c565b5b612705858286016124dd565b9150509250929050565b61271881612150565b82525050565b604082015f8201516127325f85018261270f565b506020820151612745602085018261270f565b50505050565b5f60408201905061275e5f83018461271e565b92915050565b5f81519050919050565b5f82825260208201905092915050565b5f819050602082019050919050565b604082015f8201516127a15f85018261270f565b5060208201516127b4602085018261270f565b50505050565b5f6127c5838361278d565b60408301905092915050565b5f602082019050919050565b5f6127e782612764565b6127f1818561276e565b93506127fc8361277e565b805f5b8381101561282c57815161281388826127ba565b975061281e836127d1565b9250506001810190506127ff565b5085935050505092915050565b5f6020820190508181035f83015261285181846127dd565b905092915050565b5f81519050919050565b5f82825260208201905092915050565b5f819050602082019050919050565b5f82825260208201905092915050565b5f61289c826121ae565b6128a68185612882565b93506128b68185602086016121c8565b6128bf816121d6565b840191505092915050565b6128d38161222d565b82525050565b5f60e083015f8301516128ee5f860182612607565b50602083015184820360208601526129068282612892565b915050604083015184820360408601526129208282612892565b9150506060830151848203606086015261293a8282612892565b915050608083015161294f608086018261270f565b5060a083015161296260a086018261270f565b5060c083015161297560c08601826128ca565b508091505092915050565b5f61298b83836128d9565b905092915050565b5f602082019050919050565b5f6129a982612859565b6129b38185612863565b9350836020820285016129c585612873565b805f5b85811015612a0057848403895281516129e18582612980565b94506129ec83612993565b925060208a019950506001810190506129c8565b50829750879550505050505092915050565b5f6020820190508181035f830152612a2a818461299f565b905092915050565b7f4e487b71000000000000000000000000000000000000000000000000000000005f52602260045260245ffd5b5f6002820490506001821680612a7657607f821691505b602082108103612a8957612a88612a32565b5b50919050565b7f53797374656d206f776e65722063616e2774206372656174652070726f6a65635f8201527f7473000000000000000000000000000000000000000000000000000000000000602082015250565b5f612ae96022836121b8565b9150612af482612a8f565b604082019050919050565b5f6020820190508181035f830152612b1681612add565b9050919050565b5f819050815f5260205f209050919050565b5f6020601f8301049050919050565b5f82821b905092915050565b5f60088302612b797fffffffffffffffffffffffffffffffffffffffffffffffffffffffffffffffff82612b3e565b612b838683612b3e565b95508019841693508086168417925050509392505050565b5f819050919050565b5f612bbe612bb9612bb484612150565b612b9b565b612150565b9050919050565b5f819050919050565b612bd783612ba4565b612beb612be382612bc5565b848454612b4a565b825550505050565b5f5f905090565b612c02612bf3565b612c0d818484612bce565b505050565b5b81811015612c3057612c255f82612bfa565b600181019050612c13565b5050565b601f821115612c7557612c4681612b1d565b612c4f84612b2f565b81016020851015612c5e578190505b612c72612c6a85612b2f565b830182612c12565b50505b505050565b5f82821c905092915050565b5f612c955f1984600802612c7a565b1980831691505092915050565b5f612cad8383612c86565b9150826002028217905092915050565b612cc6826121ae565b67ffffffffffffffff811115612cdf57612cde6122d1565b5b612ce98254612a5f565b612cf4828285612c34565b5f60209050601f831160018114612d25575f8415612d13578287015190505b612d1d8582612ca2565b865550612d84565b601f198416612d3386612b1d565b5f5b82811015612d5a57848901518255600182019150602085019450602081019050612d35565b86831015612d775784890151612d73601f891682612c86565b8355505b6001600288020188555050505b505050505050565b7f4e487b71000000000000000000000000000000000000000000000000000000005f52601160045260245ffd5b5f612dc382612150565b9150612dce83612150565b9250828203905081811115612de657612de5612d8c565b5b92915050565b5f602082019050612dff5f83018461221e565b92915050565b7f4e487b71000000000000000000000000000000000000000000000000000000005f52603260045260245ffd5b7f496e76616c69642070726f6a6563747320696e646578000000000000000000005f82015250565b5f612e666016836121b8565b9150612e7182612e32565b602082019050919050565b5f6020820190508181035f830152612e9381612e5a565b9050919050565b7f50726f6a656374206d75737420626520616374697665000000000000000000005f82015250565b5f612ece6016836121b8565b9150612ed982612e9a565b602082019050919050565b5f6020820190508181035f830152612efb81612ec2565b9050919050565b7f4d696c6573746f6e652073686f756c64206265206e6f742072656163686564005f82015250565b5f612f36601f836121b8565b9150612f4182612f02565b602082019050919050565b5f6020820190508181035f830152612f6381612f2a565b9050919050565b5f608082019050612f7d5f83018761221e565b612f8a602083018661221e565b612f97604083018561221e565b612fa4606083018461221e565b95945050505050565b7f50726f6a65637420646f65736e277420657869737400000000000000000000005f82015250565b5f612fe16015836121b8565b9150612fec82612fad565b602082019050919050565b5f6020820190508181035f83015261300e81612fd5565b9050919050565b7f596f7520646f6e74206861766520656e6f756768206d6f6e657920746f2066755f8201527f6e64000000000000000000000000000000000000000000000000000000000000602082015250565b5f61306f6022836121b8565b915061307a82613015565b604082019050919050565b5f6020820190508181035f83015261309c81613063565b9050919050565b7f46756e6420616d6f756e742063616e27742062652030000000000000000000005f82015250565b5f6130d76016836121b8565b91506130e2826130a3565b602082019050919050565b5f6020820190508181035f830152613104816130cb565b9050919050565b7f50726f6a656374206d7573742062652061637469766520746f2066756e6400005f82015250565b5f61313f601e836121b8565b915061314a8261310b565b602082019050919050565b5f6020820190508181035f83015261316c81613133565b9050919050565b7f596f752063616e27742066756e6420616674657220646561646c696e650000005f82015250565b5f6131a7601d836121b8565b91506131b282613173565b602082019050919050565b5f6020820190508181035f8301526131d48161319b565b9050919050565b5f6131e582612150565b91506131f083612150565b925082820190508082111561320857613207612d8c565b5b92915050565b5f81905092915050565b50565b5f6132265f8361320e565b915061323182613218565b5f82019050919050565b5f6132458261321b565b9150819050919050565b7f4661696c656420746f2072657475726e20737572706c757300000000000000005f82015250565b5f6132836018836121b8565b915061328e8261324f565b602082019050919050565b5f6020820190508181035f8301526132b081613277565b9050919050565b7f4f6e6c792073797374656d206f776e6572206f722070726f6a656374206f776e5f8201527f65722063616e2073746f702070726f6a65637473000000000000000000000000602082015250565b5f6133116034836121b8565b915061331c826132b7565b604082019050919050565b5f6020820190508181035f83015261333e81613305565b9050919050565b7f43616e6e6f7420616464206e6577206d696c6573746f6e657320746f20696e615f8201527f63746976652070726f6a65637400000000000000000000000000000000000000602082015250565b5f61339f602d836121b8565b91506133aa82613345565b604082019050919050565b5f6020820190508181035f8301526133cc81613393565b9050919050565b7f4f6e6c792070726f6a6563742063726561746f722063616e20616464206e65775f8201527f206d696c6573746f6e6573000000000000000000000000000000000000000000602082015250565b5f61342d602b836121b8565b9150613438826133d3565b604082019050919050565b5f6020820190508181035f83015261345a81613421565b9050919050565b7f4d7573742068617665206174206c65617374206f6e65206d696c6573746f6e655f82015250565b5f6134956020836121b8565b91506134a082613461565b602082019050919050565b5f6020820190508181035f8301526134c281613489565b9050919050565b7f476f616c20616d6f756e742063616e27742062652030000000000000000000005f82015250565b5f6134fd6016836121b8565b9150613508826134c9565b602082019050919050565b5f6020820190508181035f83015261352a816134f1565b9050919050565b7f446561646c696e652063616e277420626520696e2074686520706173740000005f82015250565b5f613565601d836121b8565b915061357082613531565b602082019050919050565b5f6020820190508181035f83015261359281613559565b9050919050565b7f4d696c6573746f6e6520676f616c732073686f756c6420626520696e637265615f8201527f73696e6700000000000000000000000000000000000000000000000000000000602082015250565b5f6135f36024836121b8565b91506135fe82613599565b604082019050919050565b5f6020820190508181035f830152613620816135e7565b9050919050565b7f4d696c6573746f6e6520646561646c696e65732073686f756c6420626520696e5f8201527f6372656173696e67000000000000000000000000000000000000000000000000602082015250565b5f6136816028836121b8565b915061368c82613627565b604082019050919050565b5f6020820190508181035f8301526136ae81613675565b9050919050565b5f6136bf82612150565b91507fffffffffffffffffffffffffffffffffffffffffffffffffffffffffffffffff82036136f1576136f0612d8c565b5b600182019050919050565b7f43616e6e6f742073746f7020696e6163746976652070726f6a656374000000005f82015250565b5f613730601c836121b8565b915061373b826136fc565b602082019050919050565b5f6020820190508181035f83015261375d81613724565b9050919050565b7f5472616e7366657220746f2063726561746f72206661696c65640000000000005f82015250565b5f613798601a836121b8565b91506137a382613764565b602082019050919050565b5f6020820190508181035f8301526137c58161378c565b9050919050565b7f526566756e64206661696c6564000000000000000000000000000000000000005f82015250565b5f613800600d836121b8565b915061380b826137cc565b602082019050919050565b5f6020820190508181035f83015261382d816137f4565b905091905056fea2646970667358221220e6f2b566ca43eac9b2bf8aa7c7d8936b9453f13703e44f225bbc3ed700c44a6d64736f6c634300081e0033",
			"opcodes": "PUSH1 0x80 PUSH1 0x40 MSTORE CALLVALUE DUP1 ISZERO PUSH1 0xE JUMPI PUSH0 PUSH0 REVERT JUMPDEST POP CALLER PUSH0 PUSH0 PUSH2 0x100 EXP DUP2 SLOAD DUP2 PUSH20 0xFFFFFFFFFFFFFFFFFFFFFFFFFFFFFFFFFFFFFFFF MUL NOT AND SWAP1 DUP4 PUSH20 0xFFFFFFFFFFFFFFFFFFFFFFFFFFFFFFFFFFFFFFFF AND MUL OR SWAP1 SSTORE POP PUSH2 0x386A DUP1 PUSH2 0x5B PUSH0 CODECOPY PUSH0 RETURN INVALID PUSH1 0x80 PUSH1 0x40 MSTORE PUSH1 0x4 CALLDATASIZE LT PUSH2 0x9B JUMPI PUSH0 CALLDATALOAD PUSH1 0xE0 SHR DUP1 PUSH4 0x6C563ABE GT PUSH2 0x63 JUMPI DUP1 PUSH4 0x6C563ABE EQ PUSH2 0x197 JUMPI DUP1 PUSH4 0x6DB7A960 EQ PUSH2 0x1B3 JUMPI DUP1 PUSH4 0xAE632181 EQ PUSH2 0x1DB JUMPI DUP1 PUSH4 0xB99122AF EQ PUSH2 0x203 JUMPI DUP1 PUSH4 0xD8A5B36D EQ PUSH2 0x23F JUMPI DUP1 PUSH4 0xF2EF441B EQ PUSH2 0x27B JUMPI PUSH2 0x9B JUMP JUMPDEST DUP1 PUSH4 0xE4877D6 EQ PUSH2 0x9F JUMPI DUP1 PUSH4 0x107046BD EQ PUSH2 0xC9 JUMPI DUP1 PUSH4 0x1A86E67D EQ PUSH2 0x10B JUMPI DUP1 PUSH4 0x33EC0FC5 EQ PUSH2 0x133 JUMPI DUP1 PUSH4 0x4E94E824 EQ PUSH2 0x16F JUMPI JUMPDEST PUSH0 PUSH0 REVERT JUMPDEST CALLVALUE DUP1 ISZERO PUSH2 0xAA JUMPI PUSH0 PUSH0 REVERT JUMPDEST POP PUSH2 0xB3 PUSH2 0x2A5 JUMP JUMPDEST PUSH1 0x40 MLOAD PUSH2 0xC0 SWAP2 SWAP1 PUSH2 0x2126 JUMP JUMPDEST PUSH1 0x40 MLOAD DUP1 SWAP2 SUB SWAP1 RETURN JUMPDEST CALLVALUE DUP1 ISZERO PUSH2 0xD4 JUMPI PUSH0 PUSH0 REVERT JUMPDEST POP PUSH2 0xEF PUSH1 0x4 DUP1 CALLDATASIZE SUB DUP2 ADD SWAP1 PUSH2 0xEA SWAP2 SWAP1 PUSH2 0x2183 JUMP JUMPDEST PUSH2 0x2C9 JUMP JUMPDEST PUSH1 0x40 MLOAD PUSH2 0x102 SWAP8 SWAP7 SWAP6 SWAP5 SWAP4 SWAP3 SWAP2 SWAP1 PUSH2 0x2247 JUMP JUMPDEST PUSH1 0x40 MLOAD DUP1 SWAP2 SUB SWAP1 RETURN JUMPDEST CALLVALUE DUP1 ISZERO PUSH2 0x116 JUMPI PUSH0 PUSH0 REVERT JUMPDEST POP PUSH2 0x131 PUSH1 0x4 DUP1 CALLDATASIZE SUB DUP2 ADD SWAP1 PUSH2 0x12C SWAP2 SWAP1 PUSH2 0x250A JUMP JUMPDEST PUSH2 0x4D3 JUMP JUMPDEST STOP JUMPDEST CALLVALUE DUP1 ISZERO PUSH2 0x13E JUMPI PUSH0 PUSH0 REVERT JUMPDEST POP PUSH2 0x159 PUSH1 0x4 DUP1 CALLDATASIZE SUB DUP2 ADD SWAP1 PUSH2 0x154 SWAP2 SWAP1 PUSH2 0x2183 JUMP JUMPDEST PUSH2 0x683 JUMP JUMPDEST PUSH1 0x40 MLOAD PUSH2 0x166 SWAP2 SWAP1 PUSH2 0x2695 JUMP JUMPDEST PUSH1 0x40 MLOAD DUP1 SWAP2 SUB SWAP1 RETURN JUMPDEST CALLVALUE DUP1 ISZERO PUSH2 0x17A JUMPI PUSH0 PUSH0 REVERT JUMPDEST POP PUSH2 0x195 PUSH1 0x4 DUP1 CALLDATASIZE SUB DUP2 ADD SWAP1 PUSH2 0x190 SWAP2 SWAP1 PUSH2 0x2183 JUMP JUMPDEST PUSH2 0x760 JUMP JUMPDEST STOP JUMPDEST PUSH2 0x1B1 PUSH1 0x4 DUP1 CALLDATASIZE SUB DUP2 ADD SWAP1 PUSH2 0x1AC SWAP2 SWAP1 PUSH2 0x2183 JUMP JUMPDEST PUSH2 0x8E9 JUMP JUMPDEST STOP JUMPDEST CALLVALUE DUP1 ISZERO PUSH2 0x1BE JUMPI PUSH0 PUSH0 REVERT JUMPDEST POP PUSH2 0x1D9 PUSH1 0x4 DUP1 CALLDATASIZE SUB DUP2 ADD SWAP1 PUSH2 0x1D4 SWAP2 SWAP1 PUSH2 0x2183 JUMP JUMPDEST PUSH2 0xED1 JUMP JUMPDEST STOP JUMPDEST CALLVALUE DUP1 ISZERO PUSH2 0x1E6 JUMPI PUSH0 PUSH0 REVERT JUMPDEST POP PUSH2 0x201 PUSH1 0x4 DUP1 CALLDATASIZE SUB DUP2 ADD SWAP1 PUSH2 0x1FC SWAP2 SWAP1 PUSH2 0x26B5 JUMP JUMPDEST PUSH2 0xFE2 JUMP JUMPDEST STOP JUMPDEST CALLVALUE DUP1 ISZERO PUSH2 0x20E JUMPI PUSH0 PUSH0 REVERT JUMPDEST POP PUSH2 0x229 PUSH1 0x4 DUP1 CALLDATASIZE SUB DUP2 ADD SWAP1 PUSH2 0x224 SWAP2 SWAP1 PUSH2 0x2183 JUMP JUMPDEST PUSH2 0x1544 JUMP JUMPDEST PUSH1 0x40 MLOAD PUSH2 0x236 SWAP2 SWAP1 PUSH2 0x274B JUMP JUMPDEST PUSH1 0x40 MLOAD DUP1 SWAP2 SUB SWAP1 RETURN JUMPDEST CALLVALUE DUP1 ISZERO PUSH2 0x24A JUMPI PUSH0 PUSH0 REVERT JUMPDEST POP PUSH2 0x265 PUSH1 0x4 DUP1 CALLDATASIZE SUB DUP2 ADD SWAP1 PUSH2 0x260 SWAP2 SWAP1 PUSH2 0x2183 JUMP JUMPDEST PUSH2 0x1604 JUMP JUMPDEST PUSH1 0x40 MLOAD PUSH2 0x272 SWAP2 SWAP1 PUSH2 0x2839 JUMP JUMPDEST PUSH1 0x40 MLOAD DUP1 SWAP2 SUB SWAP1 RETURN JUMPDEST CALLVALUE DUP1 ISZERO PUSH2 0x286 JUMPI PUSH0 PUSH0 REVERT JUMPDEST POP PUSH2 0x28F PUSH2 0x175A JUMP JUMPDEST PUSH1 0x40 MLOAD PUSH2 0x29C SWAP2 SWAP1 PUSH2 0x2A12 JUMP JUMPDEST PUSH1 0x40 MLOAD DUP1 SWAP2 SUB SWAP1 RETURN JUMPDEST PUSH0 PUSH0 SWAP1 SLOAD SWAP1 PUSH2 0x100 EXP SWAP1 DIV PUSH20 0xFFFFFFFFFFFFFFFFFFFFFFFFFFFFFFFFFFFFFFFF AND DUP2 JUMP JUMPDEST PUSH1 0x1 DUP2 DUP2 SLOAD DUP2 LT PUSH2 0x2D8 JUMPI PUSH0 DUP1 REVERT JUMPDEST SWAP1 PUSH0 MSTORE PUSH1 0x20 PUSH0 KECCAK256 SWAP1 PUSH1 0x8 MUL ADD PUSH0 SWAP2 POP SWAP1 POP DUP1 PUSH0 ADD PUSH0 SWAP1 SLOAD SWAP1 PUSH2 0x100 EXP SWAP1 DIV PUSH20 0xFFFFFFFFFFFFFFFFFFFFFFFFFFFFFFFFFFFFFFFF AND SWAP1 DUP1 PUSH1 0x1 ADD DUP1 SLOAD PUSH2 0x31C SWAP1 PUSH2 0x2A5F JUMP JUMPDEST DUP1 PUSH1 0x1F ADD PUSH1 0x20 DUP1 SWAP2 DIV MUL PUSH1 0x20 ADD PUSH1 0x40 MLOAD SWAP1 DUP2 ADD PUSH1 0x40 MSTORE DUP1 SWAP3 SWAP2 SWAP1 DUP2 DUP2 MSTORE PUSH1 0x20 ADD DUP3 DUP1 SLOAD PUSH2 0x348 SWAP1 PUSH2 0x2A5F JUMP JUMPDEST DUP1 ISZERO PUSH2 0x393 JUMPI DUP1 PUSH1 0x1F LT PUSH2 0x36A JUMPI PUSH2 0x100 DUP1 DUP4 SLOAD DIV MUL DUP4 MSTORE SWAP2 PUSH1 0x20 ADD SWAP2 PUSH2 0x393 JUMP JUMPDEST DUP3 ADD SWAP2 SWAP1 PUSH0 MSTORE PUSH1 0x20 PUSH0 KECCAK256 SWAP1 JUMPDEST DUP2 SLOAD DUP2 MSTORE SWAP1 PUSH1 0x1 ADD SWAP1 PUSH1 0x20 ADD DUP1 DUP4 GT PUSH2 0x376 JUMPI DUP3 SWAP1 SUB PUSH1 0x1F AND DUP3 ADD SWAP2 JUMPDEST POP POP POP POP POP SWAP1 DUP1 PUSH1 0x2 ADD DUP1 SLOAD PUSH2 0x3A8 SWAP1 PUSH2 0x2A5F JUMP JUMPDEST DUP1 PUSH1 0x1F ADD PUSH1 0x20 DUP1 SWAP2 DIV MUL PUSH1 0x20 ADD PUSH1 0x40 MLOAD SWAP1 DUP2 ADD PUSH1 0x40 MSTORE DUP1 SWAP3 SWAP2 SWAP1 DUP2 DUP2 MSTORE PUSH1 0x20 ADD DUP3 DUP1 SLOAD PUSH2 0x3D4 SWAP1 PUSH2 0x2A5F JUMP JUMPDEST DUP1 ISZERO PUSH2 0x41F JUMPI DUP1 PUSH1 0x1F LT PUSH2 0x3F6 JUMPI PUSH2 0x100 DUP1 DUP4 SLOAD DIV MUL DUP4 MSTORE SWAP2 PUSH1 0x20 ADD SWAP2 PUSH2 0x41F JUMP JUMPDEST DUP3 ADD SWAP2 SWAP1 PUSH0 MSTORE PUSH1 0x20 PUSH0 KECCAK256 SWAP1 JUMPDEST DUP2 SLOAD DUP2 MSTORE SWAP1 PUSH1 0x1 ADD SWAP1 PUSH1 0x20 ADD DUP1 DUP4 GT PUSH2 0x402 JUMPI DUP3 SWAP1 SUB PUSH1 0x1F AND DUP3 ADD SWAP2 JUMPDEST POP POP POP POP POP SWAP1 DUP1 PUSH1 0x3 ADD DUP1 SLOAD PUSH2 0x434 SWAP1 PUSH2 0x2A5F JUMP JUMPDEST DUP1 PUSH1 0x1F ADD PUSH1 0x20 DUP1 SWAP2 DIV MUL PUSH1 0x20 ADD PUSH1 0x40 MLOAD SWAP1 DUP2 ADD PUSH1 0x40 MSTORE DUP1 SWAP3 SWAP2 SWAP1 DUP2 DUP2 MSTORE PUSH1 0x20 ADD DUP3 DUP1 SLOAD PUSH2 0x460 SWAP1 PUSH2 0x2A5F JUMP JUMPDEST DUP1 ISZERO PUSH2 0x4AB JUMPI DUP1 PUSH1 0x1F LT PUSH2 0x482 JUMPI PUSH2 0x100 DUP1 DUP4 SLOAD DIV MUL DUP4 MSTORE SWAP2 PUSH1 0x20 ADD SWAP2 PUSH2 0x4AB JUMP JUMPDEST DUP3 ADD SWAP2 SWAP1 PUSH0 MSTORE PUSH1 0x20 PUSH0 KECCAK256 SWAP1 JUMPDEST DUP2 SLOAD DUP2 MSTORE SWAP1 PUSH1 0x1 ADD SWAP1 PUSH1 0x20 ADD DUP1 DUP4 GT PUSH2 0x48E JUMPI DUP3 SWAP1 SUB PUSH1 0x1F AND DUP3 ADD SWAP2 JUMPDEST POP POP POP POP POP SWAP1 DUP1 PUSH1 0x4 ADD SLOAD SWAP1 DUP1 PUSH1 0x5 ADD SLOAD SWAP1 DUP1 PUSH1 0x7 ADD PUSH0 SWAP1 SLOAD SWAP1 PUSH2 0x100 EXP SWAP1 DIV PUSH1 0xFF AND SWAP1 POP DUP8 JUMP JUMPDEST PUSH0 PUSH0 SWAP1 SLOAD SWAP1 PUSH2 0x100 EXP SWAP1 DIV PUSH20 0xFFFFFFFFFFFFFFFFFFFFFFFFFFFFFFFFFFFFFFFF AND PUSH20 0xFFFFFFFFFFFFFFFFFFFFFFFFFFFFFFFFFFFFFFFF AND CALLER PUSH20 0xFFFFFFFFFFFFFFFFFFFFFFFFFFFFFFFFFFFFFFFF AND SUB PUSH2 0x561 JUMPI PUSH1 0x40 MLOAD PUSH32 0x8C379A000000000000000000000000000000000000000000000000000000000 DUP2 MSTORE PUSH1 0x4 ADD PUSH2 0x558 SWAP1 PUSH2 0x2AFF JUMP JUMPDEST PUSH1 0x40 MLOAD DUP1 SWAP2 SUB SWAP1 REVERT JUMPDEST PUSH0 PUSH1 0x1 DUP1 DUP2 PUSH1 0x1 DUP2 SLOAD ADD DUP1 DUP3 SSTORE DUP1 SWAP2 POP POP SUB SWAP1 PUSH0 MSTORE PUSH1 0x20 PUSH0 KECCAK256 SWAP1 PUSH1 0x8 MUL ADD SWAP1 POP CALLER DUP2 PUSH0 ADD PUSH0 PUSH2 0x100 EXP DUP2 SLOAD DUP2 PUSH20 0xFFFFFFFFFFFFFFFFFFFFFFFFFFFFFFFFFFFFFFFF MUL NOT AND SWAP1 DUP4 PUSH20 0xFFFFFFFFFFFFFFFFFFFFFFFFFFFFFFFFFFFFFFFF AND MUL OR SWAP1 SSTORE POP DUP5 DUP2 PUSH1 0x1 ADD SWAP1 DUP2 PUSH2 0x5D3 SWAP2 SWAP1 PUSH2 0x2CBD JUMP JUMPDEST POP DUP4 DUP2 PUSH1 0x2 ADD SWAP1 DUP2 PUSH2 0x5E5 SWAP2 SWAP1 PUSH2 0x2CBD JUMP JUMPDEST POP DUP3 DUP2 PUSH1 0x3 ADD SWAP1 DUP2 PUSH2 0x5F7 SWAP2 SWAP1 PUSH2 0x2CBD JUMP JUMPDEST POP PUSH0 DUP2 PUSH1 0x4 ADD DUP2 SWAP1 SSTORE POP PUSH0 DUP2 PUSH1 0x5 ADD DUP2 SWAP1 SSTORE POP PUSH1 0x1 DUP2 PUSH1 0x7 ADD PUSH0 PUSH2 0x100 EXP DUP2 SLOAD DUP2 PUSH1 0xFF MUL NOT AND SWAP1 DUP4 ISZERO ISZERO MUL OR SWAP1 SSTORE POP PUSH2 0x640 PUSH1 0x1 DUP1 DUP1 SLOAD SWAP1 POP PUSH2 0x63A SWAP2 SWAP1 PUSH2 0x2DB9 JUMP JUMPDEST DUP4 PUSH2 0xFE2 JUMP JUMPDEST PUSH32 0x1AC2092E16E28EEF29D1832F3DC69DA1B21284A1F3159D3B26CB238B22FE4F8A PUSH1 0x1 DUP1 SLOAD SWAP1 POP PUSH1 0x40 MLOAD PUSH2 0x674 SWAP2 SWAP1 PUSH2 0x2DEC JUMP JUMPDEST PUSH1 0x40 MLOAD DUP1 SWAP2 SUB SWAP1 LOG1 POP POP POP POP POP JUMP JUMPDEST PUSH1 0x60 PUSH0 PUSH1 0x1 DUP4 DUP2 SLOAD DUP2 LT PUSH2 0x69A JUMPI PUSH2 0x699 PUSH2 0x2E05 JUMP JUMPDEST JUMPDEST SWAP1 PUSH0 MSTORE PUSH1 0x20 PUSH0 KECCAK256 SWAP1 PUSH1 0x8 MUL ADD SWAP1 POP PUSH0 DUP2 PUSH1 0x6 ADD DUP3 PUSH1 0x5 ADD SLOAD DUP2 SLOAD DUP2 LT PUSH2 0x6C3 JUMPI PUSH2 0x6C2 PUSH2 0x2E05 JUMP JUMPDEST JUMPDEST SWAP1 PUSH0 MSTORE PUSH1 0x20 PUSH0 KECCAK256 SWAP1 PUSH1 0x6 MUL ADD SWAP1 POP DUP1 PUSH1 0x3 ADD DUP1 SLOAD DUP1 PUSH1 0x20 MUL PUSH1 0x20 ADD PUSH1 0x40 MLOAD SWAP1 DUP2 ADD PUSH1 0x40 MSTORE DUP1 SWAP3 SWAP2 SWAP1 DUP2 DUP2 MSTORE PUSH1 0x20 ADD DUP3 DUP1 SLOAD DUP1 ISZERO PUSH2 0x752 JUMPI PUSH1 0x20 MUL DUP3 ADD SWAP2 SWAP1 PUSH0 MSTORE PUSH1 0x20 PUSH0 KECCAK256 SWAP1 JUMPDEST DUP2 PUSH0 SWAP1 SLOAD SWAP1 PUSH2 0x100 EXP SWAP1 DIV PUSH20 0xFFFFFFFFFFFFFFFFFFFFFFFFFFFFFFFFFFFFFFFF AND PUSH20 0xFFFFFFFFFFFFFFFFFFFFFFFFFFFFFFFFFFFFFFFF AND DUP2 MSTORE PUSH1 0x20 ADD SWAP1 PUSH1 0x1 ADD SWAP1 DUP1 DUP4 GT PUSH2 0x709 JUMPI JUMPDEST POP POP POP POP POP SWAP3 POP POP POP SWAP2 SWAP1 POP JUMP JUMPDEST PUSH1 0x1 DUP1 SLOAD SWAP1 POP DUP2 LT PUSH2 0x7A7 JUMPI PUSH1 0x40 MLOAD PUSH32 0x8C379A000000000000000000000000000000000000000000000000000000000 DUP2 MSTORE PUSH1 0x4 ADD PUSH2 0x79E SWAP1 PUSH2 0x2E7C JUMP JUMPDEST PUSH1 0x40 MLOAD DUP1 SWAP2 SUB SWAP1 REVERT JUMPDEST PUSH0 PUSH1 0x1 DUP3 DUP2 SLOAD DUP2 LT PUSH2 0x7BC JUMPI PUSH2 0x7BB PUSH2 0x2E05 JUMP JUMPDEST JUMPDEST SWAP1 PUSH0 MSTORE PUSH1 0x20 PUSH0 KECCAK256 SWAP1 PUSH1 0x8 MUL ADD SWAP1 POP DUP1 PUSH1 0x7 ADD PUSH0 SWAP1 SLOAD SWAP1 PUSH2 0x100 EXP SWAP1 DIV PUSH1 0xFF AND PUSH2 0x81A JUMPI PUSH1 0x40 MLOAD PUSH32 0x8C379A000000000000000000000000000000000000000000000000000000000 DUP2 MSTORE PUSH1 0x4 ADD PUSH2 0x811 SWAP1 PUSH2 0x2EE4 JUMP JUMPDEST PUSH1 0x40 MLOAD DUP1 SWAP2 SUB SWAP1 REVERT JUMPDEST PUSH0 DUP2 PUSH1 0x6 ADD DUP3 PUSH1 0x5 ADD SLOAD DUP2 SLOAD DUP2 LT PUSH2 0x835 JUMPI PUSH2 0x834 PUSH2 0x2E05 JUMP JUMPDEST JUMPDEST SWAP1 PUSH0 MSTORE PUSH1 0x20 PUSH0 KECCAK256 SWAP1 PUSH1 0x6 MUL ADD SWAP1 POP DUP1 PUSH1 0x5 ADD PUSH0 SWAP1 SLOAD SWAP1 PUSH2 0x100 EXP SWAP1 DIV PUSH1 0xFF AND ISZERO PUSH2 0x894 JUMPI PUSH1 0x40 MLOAD PUSH32 0x8C379A000000000000000000000000000000000000000000000000000000000 DUP2 MSTORE PUSH1 0x4 ADD PUSH2 0x88B SWAP1 PUSH2 0x2F4C JUMP JUMPDEST PUSH1 0x40 MLOAD DUP1 SWAP2 SUB SWAP1 REVERT JUMPDEST PUSH32 0x3F9EE693372748925082C0C5BA09ECFFC5FDDFEECF993BECFF877EAC8A1E08BC DUP2 PUSH0 ADD PUSH1 0x1 ADD SLOAD DUP3 PUSH0 ADD PUSH0 ADD SLOAD DUP5 PUSH1 0x4 ADD SLOAD DUP5 PUSH1 0x2 ADD SLOAD PUSH1 0x40 MLOAD PUSH2 0x8DC SWAP5 SWAP4 SWAP3 SWAP2 SWAP1 PUSH2 0x2F6A JUMP JUMPDEST PUSH1 0x40 MLOAD DUP1 SWAP2 SUB SWAP1 LOG1 POP POP POP JUMP JUMPDEST PUSH1 0x1 DUP1 SLOAD SWAP1 POP DUP2 LT PUSH2 0x930 JUMPI PUSH1 0x40 MLOAD PUSH32 0x8C379A000000000000000000000000000000000000000000000000000000000 DUP2 MSTORE PUSH1 0x4 ADD PUSH2 0x927 SWAP1 PUSH2 0x2FF7 JUMP JUMPDEST PUSH1 0x40 MLOAD DUP1 SWAP2 SUB SWAP1 REVERT JUMPDEST CALLER PUSH20 0xFFFFFFFFFFFFFFFFFFFFFFFFFFFFFFFFFFFFFFFF AND BALANCE CALLVALUE GT ISZERO PUSH2 0x98A JUMPI PUSH1 0x40 MLOAD PUSH32 0x8C379A000000000000000000000000000000000000000000000000000000000 DUP2 MSTORE PUSH1 0x4 ADD PUSH2 0x981 SWAP1 PUSH2 0x3085 JUMP JUMPDEST PUSH1 0x40 MLOAD DUP1 SWAP2 SUB SWAP1 REVERT JUMPDEST PUSH0 CALLVALUE GT PUSH2 0x9CC JUMPI PUSH1 0x40 MLOAD PUSH32 0x8C379A000000000000000000000000000000000000000000000000000000000 DUP2 MSTORE PUSH1 0x4 ADD PUSH2 0x9C3 SWAP1 PUSH2 0x30ED JUMP JUMPDEST PUSH1 0x40 MLOAD DUP1 SWAP2 SUB SWAP1 REVERT JUMPDEST PUSH0 PUSH1 0x1 DUP3 DUP2 SLOAD DUP2 LT PUSH2 0x9E1 JUMPI PUSH2 0x9E0 PUSH2 0x2E05 JUMP JUMPDEST JUMPDEST SWAP1 PUSH0 MSTORE PUSH1 0x20 PUSH0 KECCAK256 SWAP1 PUSH1 0x8 MUL ADD SWAP1 POP DUP1 PUSH1 0x7 ADD PUSH0 SWAP1 SLOAD SWAP1 PUSH2 0x100 EXP SWAP1 DIV PUSH1 0xFF AND PUSH2 0xA3F JUMPI PUSH1 0x40 MLOAD PUSH32 0x8C379A000000000000000000000000000000000000000000000000000000000 DUP2 MSTORE PUSH1 0x4 ADD PUSH2 0xA36 SWAP1 PUSH2 0x3155 JUMP JUMPDEST PUSH1 0x40 MLOAD DUP1 SWAP2 SUB SWAP1 REVERT JUMPDEST PUSH0 DUP2 PUSH1 0x6 ADD DUP3 PUSH1 0x5 ADD SLOAD DUP2 SLOAD DUP2 LT PUSH2 0xA5A JUMPI PUSH2 0xA59 PUSH2 0x2E05 JUMP JUMPDEST JUMPDEST SWAP1 PUSH0 MSTORE PUSH1 0x20 PUSH0 KECCAK256 SWAP1 PUSH1 0x6 MUL ADD SWAP1 POP TIMESTAMP DUP2 PUSH0 ADD PUSH1 0x1 ADD SLOAD GT PUSH2 0xAB0 JUMPI PUSH1 0x40 MLOAD PUSH32 0x8C379A000000000000000000000000000000000000000000000000000000000 DUP2 MSTORE PUSH1 0x4 ADD PUSH2 0xAA7 SWAP1 PUSH2 0x31BD JUMP JUMPDEST PUSH1 0x40 MLOAD DUP1 SWAP2 SUB SWAP1 REVERT JUMPDEST PUSH0 DUP2 PUSH1 0x4 ADD PUSH0 CALLER PUSH20 0xFFFFFFFFFFFFFFFFFFFFFFFFFFFFFFFFFFFFFFFF AND PUSH20 0xFFFFFFFFFFFFFFFFFFFFFFFFFFFFFFFFFFFFFFFF AND DUP2 MSTORE PUSH1 0x20 ADD SWAP1 DUP2 MSTORE PUSH1 0x20 ADD PUSH0 KECCAK256 SLOAD SUB PUSH2 0xB59 JUMPI DUP1 PUSH1 0x3 ADD CALLER SWAP1 DUP1 PUSH1 0x1 DUP2 SLOAD ADD DUP1 DUP3 SSTORE DUP1 SWAP2 POP POP PUSH1 0x1 SWAP1 SUB SWAP1 PUSH0 MSTORE PUSH1 0x20 PUSH0 KECCAK256 ADD PUSH0 SWAP1 SWAP2 SWAP1 SWAP2 SWAP1 SWAP2 PUSH2 0x100 EXP DUP2 SLOAD DUP2 PUSH20 0xFFFFFFFFFFFFFFFFFFFFFFFFFFFFFFFFFFFFFFFF MUL NOT AND SWAP1 DUP4 PUSH20 0xFFFFFFFFFFFFFFFFFFFFFFFFFFFFFFFFFFFFFFFF AND MUL OR SWAP1 SSTORE POP JUMPDEST CALLVALUE DUP2 PUSH1 0x4 ADD PUSH0 CALLER PUSH20 0xFFFFFFFFFFFFFFFFFFFFFFFFFFFFFFFFFFFFFFFF AND PUSH20 0xFFFFFFFFFFFFFFFFFFFFFFFFFFFFFFFFFFFFFFFF AND DUP2 MSTORE PUSH1 0x20 ADD SWAP1 DUP2 MSTORE PUSH1 0x20 ADD PUSH0 KECCAK256 PUSH0 DUP3 DUP3 SLOAD PUSH2 0xBA7 SWAP2 SWAP1 PUSH2 0x31DB JUMP JUMPDEST SWAP3 POP POP DUP2 SWAP1 SSTORE POP CALLVALUE DUP2 PUSH1 0x2 ADD PUSH0 DUP3 DUP3 SLOAD PUSH2 0xBC1 SWAP2 SWAP1 PUSH2 0x31DB JUMP JUMPDEST SWAP3 POP POP DUP2 SWAP1 SSTORE POP CALLVALUE DUP3 PUSH1 0x4 ADD PUSH0 DUP3 DUP3 SLOAD PUSH2 0xBDB SWAP2 SWAP1 PUSH2 0x31DB JUMP JUMPDEST SWAP3 POP POP DUP2 SWAP1 SSTORE POP JUMPDEST DUP1 PUSH0 ADD PUSH0 ADD SLOAD DUP3 PUSH1 0x4 ADD SLOAD GT ISZERO PUSH2 0xE87 JUMPI PUSH0 DUP2 PUSH0 ADD PUSH0 ADD SLOAD DUP4 PUSH1 0x4 ADD SLOAD PUSH2 0xC0A SWAP2 SWAP1 PUSH2 0x2DB9 JUMP JUMPDEST SWAP1 POP DUP2 PUSH0 ADD PUSH0 ADD SLOAD DUP3 PUSH1 0x2 ADD DUP2 SWAP1 SSTORE POP DUP2 PUSH0 ADD PUSH0 ADD SLOAD DUP4 PUSH1 0x4 ADD DUP2 SWAP1 SSTORE POP DUP1 DUP3 PUSH1 0x4 ADD PUSH0 CALLER PUSH20 0xFFFFFFFFFFFFFFFFFFFFFFFFFFFFFFFFFFFFFFFF AND PUSH20 0xFFFFFFFFFFFFFFFFFFFFFFFFFFFFFFFFFFFFFFFF AND DUP2 MSTORE PUSH1 0x20 ADD SWAP1 DUP2 MSTORE PUSH1 0x20 ADD PUSH0 KECCAK256 PUSH0 DUP3 DUP3 SLOAD PUSH2 0xC76 SWAP2 SWAP1 PUSH2 0x2DB9 JUMP JUMPDEST SWAP3 POP POP DUP2 SWAP1 SSTORE POP PUSH1 0x1 DUP4 PUSH1 0x6 ADD DUP1 SLOAD SWAP1 POP PUSH2 0xC91 SWAP2 SWAP1 PUSH2 0x2DB9 JUMP JUMPDEST DUP4 PUSH1 0x5 ADD SLOAD SUB PUSH2 0xD64 JUMPI PUSH0 DUP4 PUSH1 0x7 ADD PUSH0 PUSH2 0x100 EXP DUP2 SLOAD DUP2 PUSH1 0xFF MUL NOT AND SWAP1 DUP4 ISZERO ISZERO MUL OR SWAP1 SSTORE POP PUSH0 CALLER PUSH20 0xFFFFFFFFFFFFFFFFFFFFFFFFFFFFFFFFFFFFFFFF AND DUP3 PUSH1 0x40 MLOAD PUSH2 0xCDB SWAP1 PUSH2 0x323B JUMP JUMPDEST PUSH0 PUSH1 0x40 MLOAD DUP1 DUP4 SUB DUP2 DUP6 DUP8 GAS CALL SWAP3 POP POP POP RETURNDATASIZE DUP1 PUSH0 DUP2 EQ PUSH2 0xD15 JUMPI PUSH1 0x40 MLOAD SWAP2 POP PUSH1 0x1F NOT PUSH1 0x3F RETURNDATASIZE ADD AND DUP3 ADD PUSH1 0x40 MSTORE RETURNDATASIZE DUP3 MSTORE RETURNDATASIZE PUSH0 PUSH1 0x20 DUP5 ADD RETURNDATACOPY PUSH2 0xD1A JUMP JUMPDEST PUSH1 0x60 SWAP2 POP JUMPDEST POP POP SWAP1 POP DUP1 PUSH2 0xD5E JUMPI PUSH1 0x40 MLOAD PUSH32 0x8C379A000000000000000000000000000000000000000000000000000000000 DUP2 MSTORE PUSH1 0x4 ADD PUSH2 0xD55 SWAP1 PUSH2 0x3299 JUMP JUMPDEST PUSH1 0x40 MLOAD DUP1 SWAP2 SUB SWAP1 REVERT JUMPDEST POP PUSH2 0xE81 JUMP JUMPDEST PUSH2 0xD6D DUP5 PUSH2 0x1BDB JUMP JUMPDEST DUP3 PUSH1 0x6 ADD DUP4 PUSH1 0x5 ADD SLOAD DUP2 SLOAD DUP2 LT PUSH2 0xD87 JUMPI PUSH2 0xD86 PUSH2 0x2E05 JUMP JUMPDEST JUMPDEST SWAP1 PUSH0 MSTORE PUSH1 0x20 PUSH0 KECCAK256 SWAP1 PUSH1 0x6 MUL ADD SWAP2 POP DUP2 PUSH1 0x3 ADD CALLER SWAP1 DUP1 PUSH1 0x1 DUP2 SLOAD ADD DUP1 DUP3 SSTORE DUP1 SWAP2 POP POP PUSH1 0x1 SWAP1 SUB SWAP1 PUSH0 MSTORE PUSH1 0x20 PUSH0 KECCAK256 ADD PUSH0 SWAP1 SWAP2 SWAP1 SWAP2 SWAP1 SWAP2 PUSH2 0x100 EXP DUP2 SLOAD DUP2 PUSH20 0xFFFFFFFFFFFFFFFFFFFFFFFFFFFFFFFFFFFFFFFF MUL NOT AND SWAP1 DUP4 PUSH20 0xFFFFFFFFFFFFFFFFFFFFFFFFFFFFFFFFFFFFFFFF AND MUL OR SWAP1 SSTORE POP DUP1 DUP3 PUSH1 0x4 ADD PUSH0 CALLER PUSH20 0xFFFFFFFFFFFFFFFFFFFFFFFFFFFFFFFFFFFFFFFF AND PUSH20 0xFFFFFFFFFFFFFFFFFFFFFFFFFFFFFFFFFFFFFFFF AND DUP2 MSTORE PUSH1 0x20 ADD SWAP1 DUP2 MSTORE PUSH1 0x20 ADD PUSH0 KECCAK256 PUSH0 DUP3 DUP3 SLOAD PUSH2 0xE45 SWAP2 SWAP1 PUSH2 0x31DB JUMP JUMPDEST SWAP3 POP POP DUP2 SWAP1 SSTORE POP DUP1 DUP3 PUSH1 0x2 ADD PUSH0 DUP3 DUP3 SLOAD PUSH2 0xE5F SWAP2 SWAP1 PUSH2 0x31DB JUMP JUMPDEST SWAP3 POP POP DUP2 SWAP1 SSTORE POP DUP1 DUP4 PUSH1 0x4 ADD PUSH0 DUP3 DUP3 SLOAD PUSH2 0xE79 SWAP2 SWAP1 PUSH2 0x31DB JUMP JUMPDEST SWAP3 POP POP DUP2 SWAP1 SSTORE POP JUMPDEST POP PUSH2 0xBE3 JUMP JUMPDEST PUSH32 0x17E2EFFA169C5DDE193942ABD21F6D49E7D32C15AB843DA440CB2ABDD10F1911 DUP4 CALLVALUE DUP5 PUSH1 0x4 ADD SLOAD DUP5 PUSH1 0x2 ADD SLOAD PUSH1 0x40 MLOAD PUSH2 0xEC4 SWAP5 SWAP4 SWAP3 SWAP2 SWAP1 PUSH2 0x2F6A JUMP JUMPDEST PUSH1 0x40 MLOAD DUP1 SWAP2 SUB SWAP1 LOG1 POP POP POP JUMP JUMPDEST PUSH0 PUSH0 SWAP1 SLOAD SWAP1 PUSH2 0x100 EXP SWAP1 DIV PUSH20 0xFFFFFFFFFFFFFFFFFFFFFFFFFFFFFFFFFFFFFFFF AND PUSH20 0xFFFFFFFFFFFFFFFFFFFFFFFFFFFFFFFFFFFFFFFF AND CALLER PUSH20 0xFFFFFFFFFFFFFFFFFFFFFFFFFFFFFFFFFFFFFFFF AND EQ DUP1 PUSH2 0xF97 JUMPI POP PUSH1 0x1 DUP2 DUP2 SLOAD DUP2 LT PUSH2 0xF3A JUMPI PUSH2 0xF39 PUSH2 0x2E05 JUMP JUMPDEST JUMPDEST SWAP1 PUSH0 MSTORE PUSH1 0x20 PUSH0 KECCAK256 SWAP1 PUSH1 0x8 MUL ADD PUSH0 ADD PUSH0 SWAP1 SLOAD SWAP1 PUSH2 0x100 EXP SWAP1 DIV PUSH20 0xFFFFFFFFFFFFFFFFFFFFFFFFFFFFFFFFFFFFFFFF AND PUSH20 0xFFFFFFFFFFFFFFFFFFFFFFFFFFFFFFFFFFFFFFFF AND CALLER PUSH20 0xFFFFFFFFFFFFFFFFFFFFFFFFFFFFFFFFFFFFFFFF AND EQ JUMPDEST PUSH2 0xFD6 JUMPI PUSH1 0x40 MLOAD PUSH32 0x8C379A000000000000000000000000000000000000000000000000000000000 DUP2 MSTORE PUSH1 0x4 ADD PUSH2 0xFCD SWAP1 PUSH2 0x3327 JUMP JUMPDEST PUSH1 0x40 MLOAD DUP1 SWAP2 SUB SWAP1 REVERT JUMPDEST PUSH2 0xFDF DUP2 PUSH2 0x1D45 JUMP JUMPDEST POP JUMP JUMPDEST PUSH1 0x1 DUP1 SLOAD SWAP1 POP DUP3 LT PUSH2 0x1029 JUMPI PUSH1 0x40 MLOAD PUSH32 0x8C379A000000000000000000000000000000000000000000000000000000000 DUP2 MSTORE PUSH1 0x4 ADD PUSH2 0x1020 SWAP1 PUSH2 0x2E7C JUMP JUMPDEST PUSH1 0x40 MLOAD DUP1 SWAP2 SUB SWAP1 REVERT JUMPDEST PUSH0 PUSH1 0x1 DUP4 DUP2 SLOAD DUP2 LT PUSH2 0x103E JUMPI PUSH2 0x103D PUSH2 0x2E05 JUMP JUMPDEST JUMPDEST SWAP1 PUSH0 MSTORE PUSH1 0x20 PUSH0 KECCAK256 SWAP1 PUSH1 0x8 MUL ADD SWAP1 POP DUP1 PUSH1 0x7 ADD PUSH0 SWAP1 SLOAD SWAP1 PUSH2 0x100 EXP SWAP1 DIV PUSH1 0xFF AND PUSH2 0x109C JUMPI PUSH1 0x40 MLOAD PUSH32 0x8C379A000000000000000000000000000000000000000000000000000000000 DUP2 MSTORE PUSH1 0x4 ADD PUSH2 0x1093 SWAP1 PUSH2 0x33B5 JUMP JUMPDEST PUSH1 0x40 MLOAD DUP1 SWAP2 SUB SWAP1 REVERT JUMPDEST CALLER PUSH20 0xFFFFFFFFFFFFFFFFFFFFFFFFFFFFFFFFFFFFFFFF AND DUP2 PUSH0 ADD PUSH0 SWAP1 SLOAD SWAP1 PUSH2 0x100 EXP SWAP1 DIV PUSH20 0xFFFFFFFFFFFFFFFFFFFFFFFFFFFFFFFFFFFFFFFF AND PUSH20 0xFFFFFFFFFFFFFFFFFFFFFFFFFFFFFFFFFFFFFFFF AND EQ PUSH2 0x112C JUMPI PUSH1 0x40 MLOAD PUSH32 0x8C379A000000000000000000000000000000000000000000000000000000000 DUP2 MSTORE PUSH1 0x4 ADD PUSH2 0x1123 SWAP1 PUSH2 0x3443 JUMP JUMPDEST PUSH1 0x40 MLOAD DUP1 SWAP2 SUB SWAP1 REVERT JUMPDEST PUSH0 DUP3 MLOAD GT PUSH2 0x116F JUMPI PUSH1 0x40 MLOAD PUSH32 0x8C379A000000000000000000000000000000000000000000000000000000000 DUP2 MSTORE PUSH1 0x4 ADD PUSH2 0x1166 SWAP1 PUSH2 0x34AB JUMP JUMPDEST PUSH1 0x40 MLOAD DUP1 SWAP2 SUB SWAP1 REVERT JUMPDEST PUSH0 PUSH0 SWAP1 POP JUMPDEST DUP3 MLOAD DUP2 LT ISZERO PUSH2 0x153E JUMPI PUSH0 DUP4 DUP3 DUP2 MLOAD DUP2 LT PUSH2 0x1191 JUMPI PUSH2 0x1190 PUSH2 0x2E05 JUMP JUMPDEST JUMPDEST PUSH1 0x20 MUL PUSH1 0x20 ADD ADD MLOAD PUSH0 ADD MLOAD GT PUSH2 0x11DC JUMPI PUSH1 0x40 MLOAD PUSH32 0x8C379A000000000000000000000000000000000000000000000000000000000 DUP2 MSTORE PUSH1 0x4 ADD PUSH2 0x11D3 SWAP1 PUSH2 0x3513 JUMP JUMPDEST PUSH1 0x40 MLOAD DUP1 SWAP2 SUB SWAP1 REVERT JUMPDEST TIMESTAMP DUP4 DUP3 DUP2 MLOAD DUP2 LT PUSH2 0x11F0 JUMPI PUSH2 0x11EF PUSH2 0x2E05 JUMP JUMPDEST JUMPDEST PUSH1 0x20 MUL PUSH1 0x20 ADD ADD MLOAD PUSH1 0x20 ADD MLOAD GT PUSH2 0x123C JUMPI PUSH1 0x40 MLOAD PUSH32 0x8C379A000000000000000000000000000000000000000000000000000000000 DUP2 MSTORE PUSH1 0x4 ADD PUSH2 0x1233 SWAP1 PUSH2 0x357B JUMP JUMPDEST PUSH1 0x40 MLOAD DUP1 SWAP2 SUB SWAP1 REVERT JUMPDEST PUSH0 DUP2 GT ISZERO PUSH2 0x1357 JUMPI DUP3 PUSH1 0x1 DUP3 PUSH2 0x1252 SWAP2 SWAP1 PUSH2 0x2DB9 JUMP JUMPDEST DUP2 MLOAD DUP2 LT PUSH2 0x1263 JUMPI PUSH2 0x1262 PUSH2 0x2E05 JUMP JUMPDEST JUMPDEST PUSH1 0x20 MUL PUSH1 0x20 ADD ADD MLOAD PUSH0 ADD MLOAD DUP4 DUP3 DUP2 MLOAD DUP2 LT PUSH2 0x1281 JUMPI PUSH2 0x1280 PUSH2 0x2E05 JUMP JUMPDEST JUMPDEST PUSH1 0x20 MUL PUSH1 0x20 ADD ADD MLOAD PUSH0 ADD MLOAD GT PUSH2 0x12CC JUMPI PUSH1 0x40 MLOAD PUSH32 0x8C379A000000000000000000000000000000000000000000000000000000000 DUP2 MSTORE PUSH1 0x4 ADD PUSH2 0x12C3 SWAP1 PUSH2 0x3609 JUMP JUMPDEST PUSH1 0x40 MLOAD DUP1 SWAP2 SUB SWAP1 REVERT JUMPDEST DUP3 PUSH1 0x1 DUP3 PUSH2 0x12DA SWAP2 SWAP1 PUSH2 0x2DB9 JUMP JUMPDEST DUP2 MLOAD DUP2 LT PUSH2 0x12EB JUMPI PUSH2 0x12EA PUSH2 0x2E05 JUMP JUMPDEST JUMPDEST PUSH1 0x20 MUL PUSH1 0x20 ADD ADD MLOAD PUSH1 0x20 ADD MLOAD DUP4 DUP3 DUP2 MLOAD DUP2 LT PUSH2 0x130A JUMPI PUSH2 0x1309 PUSH2 0x2E05 JUMP JUMPDEST JUMPDEST PUSH1 0x20 MUL PUSH1 0x20 ADD ADD MLOAD PUSH1 0x20 ADD MLOAD GT PUSH2 0x1356 JUMPI PUSH1 0x40 MLOAD PUSH32 0x8C379A000000000000000000000000000000000000000000000000000000000 DUP2 MSTORE PUSH1 0x4 ADD PUSH2 0x134D SWAP1 PUSH2 0x3697 JUMP JUMPDEST PUSH1 0x40 MLOAD DUP1 SWAP2 SUB SWAP1 REVERT JUMPDEST JUMPDEST PUSH0 DUP3 PUSH1 0x6 ADD DUP1 SLOAD SWAP1 POP GT ISZERO PUSH2 0x1499 JUMPI DUP2 PUSH1 0x6 ADD PUSH1 0x1 DUP4 PUSH1 0x6 ADD DUP1 SLOAD SWAP1 POP PUSH2 0x137E SWAP2 SWAP1 PUSH2 0x2DB9 JUMP JUMPDEST DUP2 SLOAD DUP2 LT PUSH2 0x138F JUMPI PUSH2 0x138E PUSH2 0x2E05 JUMP JUMPDEST JUMPDEST SWAP1 PUSH0 MSTORE PUSH1 0x20 PUSH0 KECCAK256 SWAP1 PUSH1 0x6 MUL ADD PUSH0 ADD PUSH0 ADD SLOAD DUP4 DUP3 DUP2 MLOAD DUP2 LT PUSH2 0x13B3 JUMPI PUSH2 0x13B2 PUSH2 0x2E05 JUMP JUMPDEST JUMPDEST PUSH1 0x20 MUL PUSH1 0x20 ADD ADD MLOAD PUSH0 ADD MLOAD GT PUSH2 0x13FE JUMPI PUSH1 0x40 MLOAD PUSH32 0x8C379A000000000000000000000000000000000000000000000000000000000 DUP2 MSTORE PUSH1 0x4 ADD PUSH2 0x13F5 SWAP1 PUSH2 0x3609 JUMP JUMPDEST PUSH1 0x40 MLOAD DUP1 SWAP2 SUB SWAP1 REVERT JUMPDEST DUP2 PUSH1 0x6 ADD PUSH1 0x1 DUP4 PUSH1 0x6 ADD DUP1 SLOAD SWAP1 POP PUSH2 0x1416 SWAP2 SWAP1 PUSH2 0x2DB9 JUMP JUMPDEST DUP2 SLOAD DUP2 LT PUSH2 0x1427 JUMPI PUSH2 0x1426 PUSH2 0x2E05 JUMP JUMPDEST JUMPDEST SWAP1 PUSH0 MSTORE PUSH1 0x20 PUSH0 KECCAK256 SWAP1 PUSH1 0x6 MUL ADD PUSH0 ADD PUSH1 0x1 ADD SLOAD DUP4 DUP3 DUP2 MLOAD DUP2 LT PUSH2 0x144C JUMPI PUSH2 0x144B PUSH2 0x2E05 JUMP JUMPDEST JUMPDEST PUSH1 0x20 MUL PUSH1 0x20 ADD ADD MLOAD PUSH1 0x20 ADD MLOAD GT PUSH2 0x1498 JUMPI PUSH1 0x40 MLOAD PUSH32 0x8C379A000000000000000000000000000000000000000000000000000000000 DUP2 MSTORE PUSH1 0x4 ADD PUSH2 0x148F SWAP1 PUSH2 0x3697 JUMP JUMPDEST PUSH1 0x40 MLOAD DUP1 SWAP2 SUB SWAP1 REVERT JUMPDEST JUMPDEST PUSH0 DUP3 PUSH1 0x6 ADD PUSH1 0x1 DUP2 PUSH1 0x1 DUP2 SLOAD ADD DUP1 DUP3 SSTORE DUP1 SWAP2 POP POP SUB SWAP1 PUSH0 MSTORE PUSH1 0x20 PUSH0 KECCAK256 SWAP1 PUSH1 0x6 MUL ADD SWAP1 POP DUP4 DUP3 DUP2 MLOAD DUP2 LT PUSH2 0x14CF JUMPI PUSH2 0x14CE PUSH2 0x2E05 JUMP JUMPDEST JUMPDEST PUSH1 0x20 MUL PUSH1 0x20 ADD ADD MLOAD PUSH0 ADD MLOAD DUP2 PUSH0 ADD PUSH0 ADD DUP2 SWAP1 SSTORE POP DUP4 DUP3 DUP2 MLOAD DUP2 LT PUSH2 0x14F6 JUMPI PUSH2 0x14F5 PUSH2 0x2E05 JUMP JUMPDEST JUMPDEST PUSH1 0x20 MUL PUSH1 0x20 ADD ADD MLOAD PUSH1 0x20 ADD MLOAD DUP2 PUSH0 ADD PUSH1 0x1 ADD DUP2 SWAP1 SSTORE POP PUSH0 DUP2 PUSH1 0x2 ADD DUP2 SWAP1 SSTORE POP PUSH0 DUP2 PUSH1 0x5 ADD PUSH0 PUSH2 0x100 EXP DUP2 SLOAD DUP2 PUSH1 0xFF MUL NOT AND SWAP1 DUP4 ISZERO ISZERO MUL OR SWAP1 SSTORE POP POP DUP1 DUP1 PUSH1 0x1 ADD SWAP2 POP POP PUSH2 0x1174 JUMP JUMPDEST POP POP POP POP JUMP JUMPDEST PUSH2 0x154C PUSH2 0x207E JUMP JUMPDEST PUSH1 0x1 DUP1 SLOAD SWAP1 POP DUP3 LT PUSH2 0x1593 JUMPI PUSH1 0x40 MLOAD PUSH32 0x8C379A000000000000000000000000000000000000000000000000000000000 DUP2 MSTORE PUSH1 0x4 ADD PUSH2 0x158A SWAP1 PUSH2 0x2E7C JUMP JUMPDEST PUSH1 0x40 MLOAD DUP1 SWAP2 SUB SWAP1 REVERT JUMPDEST PUSH0 PUSH1 0x1 DUP4 DUP2 SLOAD DUP2 LT PUSH2 0x15A8 JUMPI PUSH2 0x15A7 PUSH2 0x2E05 JUMP JUMPDEST JUMPDEST SWAP1 PUSH0 MSTORE PUSH1 0x20 PUSH0 KECCAK256 SWAP1 PUSH1 0x8 MUL ADD SWAP1 POP DUP1 PUSH1 0x6 ADD DUP2 PUSH1 0x5 ADD SLOAD DUP2 SLOAD DUP2 LT PUSH2 0x15D0 JUMPI PUSH2 0x15CF PUSH2 0x2E05 JUMP JUMPDEST JUMPDEST SWAP1 PUSH0 MSTORE PUSH1 0x20 PUSH0 KECCAK256 SWAP1 PUSH1 0x6 MUL ADD PUSH0 ADD PUSH1 0x40 MLOAD DUP1 PUSH1 0x40 ADD PUSH1 0x40 MSTORE SWAP1 DUP2 PUSH0 DUP3 ADD SLOAD DUP2 MSTORE PUSH1 0x20 ADD PUSH1 0x1 DUP3 ADD SLOAD DUP2 MSTORE POP POP SWAP2 POP POP SWAP2 SWAP1 POP JUMP JUMPDEST PUSH1 0x60 PUSH1 0x1 DUP1 SLOAD SWAP1 POP DUP3 LT PUSH2 0x164D JUMPI PUSH1 0x40 MLOAD PUSH32 0x8C379A000000000000000000000000000000000000000000000000000000000 DUP2 MSTORE PUSH1 0x4 ADD PUSH2 0x1644 SWAP1 PUSH2 0x2E7C JUMP JUMPDEST PUSH1 0x40 MLOAD DUP1 SWAP2 SUB SWAP1 REVERT JUMPDEST PUSH0 PUSH1 0x1 DUP4 DUP2 SLOAD DUP2 LT PUSH2 0x1662 JUMPI PUSH2 0x1661 PUSH2 0x2E05 JUMP JUMPDEST JUMPDEST SWAP1 PUSH0 MSTORE PUSH1 0x20 PUSH0 KECCAK256 SWAP1 PUSH1 0x8 MUL ADD SWAP1 POP PUSH0 DUP2 PUSH1 0x6 ADD DUP1 SLOAD SWAP1 POP PUSH8 0xFFFFFFFFFFFFFFFF DUP2 GT ISZERO PUSH2 0x1692 JUMPI PUSH2 0x1691 PUSH2 0x22D1 JUMP JUMPDEST JUMPDEST PUSH1 0x40 MLOAD SWAP1 DUP1 DUP3 MSTORE DUP1 PUSH1 0x20 MUL PUSH1 0x20 ADD DUP3 ADD PUSH1 0x40 MSTORE DUP1 ISZERO PUSH2 0x16CB JUMPI DUP2 PUSH1 0x20 ADD JUMPDEST PUSH2 0x16B8 PUSH2 0x207E JUMP JUMPDEST DUP2 MSTORE PUSH1 0x20 ADD SWAP1 PUSH1 0x1 SWAP1 SUB SWAP1 DUP2 PUSH2 0x16B0 JUMPI SWAP1 POP JUMPDEST POP SWAP1 POP PUSH0 PUSH0 SWAP1 POP JUMPDEST DUP3 PUSH1 0x6 ADD DUP1 SLOAD SWAP1 POP DUP2 LT ISZERO PUSH2 0x174F JUMPI DUP3 PUSH1 0x6 ADD DUP2 DUP2 SLOAD DUP2 LT PUSH2 0x16F8 JUMPI PUSH2 0x16F7 PUSH2 0x2E05 JUMP JUMPDEST JUMPDEST SWAP1 PUSH0 MSTORE PUSH1 0x20 PUSH0 KECCAK256 SWAP1 PUSH1 0x6 MUL ADD PUSH0 ADD PUSH1 0x40 MLOAD DUP1 PUSH1 0x40 ADD PUSH1 0x40 MSTORE SWAP1 DUP2 PUSH0 DUP3 ADD SLOAD DUP2 MSTORE PUSH1 0x20 ADD PUSH1 0x1 DUP3 ADD SLOAD DUP2 MSTORE POP POP DUP3 DUP3 DUP2 MLOAD DUP2 LT PUSH2 0x1737 JUMPI PUSH2 0x1736 PUSH2 0x2E05 JUMP JUMPDEST JUMPDEST PUSH1 0x20 MUL PUSH1 0x20 ADD ADD DUP2 SWAP1 MSTORE POP DUP1 DUP1 PUSH1 0x1 ADD SWAP2 POP POP PUSH2 0x16D3 JUMP JUMPDEST POP DUP1 SWAP3 POP POP POP SWAP2 SWAP1 POP JUMP JUMPDEST PUSH1 0x60 PUSH0 PUSH0 SWAP1 POP PUSH0 PUSH0 SWAP1 POP JUMPDEST PUSH1 0x1 DUP1 SLOAD SWAP1 POP DUP2 LT ISZERO PUSH2 0x17C3 JUMPI PUSH1 0x1 DUP2 DUP2 SLOAD DUP2 LT PUSH2 0x1786 JUMPI PUSH2 0x1785 PUSH2 0x2E05 JUMP JUMPDEST JUMPDEST SWAP1 PUSH0 MSTORE PUSH1 0x20 PUSH0 KECCAK256 SWAP1 PUSH1 0x8 MUL ADD PUSH1 0x7 ADD PUSH0 SWAP1 SLOAD SWAP1 PUSH2 0x100 EXP SWAP1 DIV PUSH1 0xFF AND ISZERO PUSH2 0x17B6 JUMPI DUP2 DUP1 PUSH2 0x17B2 SWAP1 PUSH2 0x36B5 JUMP JUMPDEST SWAP3 POP POP JUMPDEST DUP1 DUP1 PUSH1 0x1 ADD SWAP2 POP POP PUSH2 0x1765 JUMP JUMPDEST POP PUSH0 DUP2 PUSH8 0xFFFFFFFFFFFFFFFF DUP2 GT ISZERO PUSH2 0x17DF JUMPI PUSH2 0x17DE PUSH2 0x22D1 JUMP JUMPDEST JUMPDEST PUSH1 0x40 MLOAD SWAP1 DUP1 DUP3 MSTORE DUP1 PUSH1 0x20 MUL PUSH1 0x20 ADD DUP3 ADD PUSH1 0x40 MSTORE DUP1 ISZERO PUSH2 0x1818 JUMPI DUP2 PUSH1 0x20 ADD JUMPDEST PUSH2 0x1805 PUSH2 0x2096 JUMP JUMPDEST DUP2 MSTORE PUSH1 0x20 ADD SWAP1 PUSH1 0x1 SWAP1 SUB SWAP1 DUP2 PUSH2 0x17FD JUMPI SWAP1 POP JUMPDEST POP SWAP1 POP PUSH0 PUSH0 SWAP1 POP PUSH0 PUSH0 SWAP1 POP JUMPDEST PUSH1 0x1 DUP1 SLOAD SWAP1 POP DUP2 LT ISZERO PUSH2 0x1BD1 JUMPI PUSH1 0x1 DUP2 DUP2 SLOAD DUP2 LT PUSH2 0x1845 JUMPI PUSH2 0x1844 PUSH2 0x2E05 JUMP JUMPDEST JUMPDEST SWAP1 PUSH0 MSTORE PUSH1 0x20 PUSH0 KECCAK256 SWAP1 PUSH1 0x8 MUL ADD PUSH1 0x7 ADD PUSH0 SWAP1 SLOAD SWAP1 PUSH2 0x100 EXP SWAP1 DIV PUSH1 0xFF AND ISZERO PUSH2 0x1BC4 JUMPI PUSH2 0x186E PUSH2 0x2096 JUMP JUMPDEST PUSH1 0x1 DUP3 DUP2 SLOAD DUP2 LT PUSH2 0x1882 JUMPI PUSH2 0x1881 PUSH2 0x2E05 JUMP JUMPDEST JUMPDEST SWAP1 PUSH0 MSTORE PUSH1 0x20 PUSH0 KECCAK256 SWAP1 PUSH1 0x8 MUL ADD PUSH0 ADD PUSH0 SWAP1 SLOAD SWAP1 PUSH2 0x100 EXP SWAP1 DIV PUSH20 0xFFFFFFFFFFFFFFFFFFFFFFFFFFFFFFFFFFFFFFFF AND DUP2 PUSH0 ADD SWAP1 PUSH20 0xFFFFFFFFFFFFFFFFFFFFFFFFFFFFFFFFFFFFFFFF AND SWAP1 DUP2 PUSH20 0xFFFFFFFFFFFFFFFFFFFFFFFFFFFFFFFFFFFFFFFF AND DUP2 MSTORE POP POP PUSH1 0x1 DUP3 DUP2 SLOAD DUP2 LT PUSH2 0x18FA JUMPI PUSH2 0x18F9 PUSH2 0x2E05 JUMP JUMPDEST JUMPDEST SWAP1 PUSH0 MSTORE PUSH1 0x20 PUSH0 KECCAK256 SWAP1 PUSH1 0x8 MUL ADD PUSH1 0x1 ADD DUP1 SLOAD PUSH2 0x1914 SWAP1 PUSH2 0x2A5F JUMP JUMPDEST DUP1 PUSH1 0x1F ADD PUSH1 0x20 DUP1 SWAP2 DIV MUL PUSH1 0x20 ADD PUSH1 0x40 MLOAD SWAP1 DUP2 ADD PUSH1 0x40 MSTORE DUP1 SWAP3 SWAP2 SWAP1 DUP2 DUP2 MSTORE PUSH1 0x20 ADD DUP3 DUP1 SLOAD PUSH2 0x1940 SWAP1 PUSH2 0x2A5F JUMP JUMPDEST DUP1 ISZERO PUSH2 0x198B JUMPI DUP1 PUSH1 0x1F LT PUSH2 0x1962 JUMPI PUSH2 0x100 DUP1 DUP4 SLOAD DIV MUL DUP4 MSTORE SWAP2 PUSH1 0x20 ADD SWAP2 PUSH2 0x198B JUMP JUMPDEST DUP3 ADD SWAP2 SWAP1 PUSH0 MSTORE PUSH1 0x20 PUSH0 KECCAK256 SWAP1 JUMPDEST DUP2 SLOAD DUP2 MSTORE SWAP1 PUSH1 0x1 ADD SWAP1 PUSH1 0x20 ADD DUP1 DUP4 GT PUSH2 0x196E JUMPI DUP3 SWAP1 SUB PUSH1 0x1F AND DUP3 ADD SWAP2 JUMPDEST POP POP POP POP POP DUP2 PUSH1 0x20 ADD DUP2 SWAP1 MSTORE POP PUSH1 0x1 DUP3 DUP2 SLOAD DUP2 LT PUSH2 0x19AC JUMPI PUSH2 0x19AB PUSH2 0x2E05 JUMP JUMPDEST JUMPDEST SWAP1 PUSH0 MSTORE PUSH1 0x20 PUSH0 KECCAK256 SWAP1 PUSH1 0x8 MUL ADD PUSH1 0x2 ADD DUP1 SLOAD PUSH2 0x19C6 SWAP1 PUSH2 0x2A5F JUMP JUMPDEST DUP1 PUSH1 0x1F ADD PUSH1 0x20 DUP1 SWAP2 DIV MUL PUSH1 0x20 ADD PUSH1 0x40 MLOAD SWAP1 DUP2 ADD PUSH1 0x40 MSTORE DUP1 SWAP3 SWAP2 SWAP1 DUP2 DUP2 MSTORE PUSH1 0x20 ADD DUP3 DUP1 SLOAD PUSH2 0x19F2 SWAP1 PUSH2 0x2A5F JUMP JUMPDEST DUP1 ISZERO PUSH2 0x1A3D JUMPI DUP1 PUSH1 0x1F LT PUSH2 0x1A14 JUMPI PUSH2 0x100 DUP1 DUP4 SLOAD DIV MUL DUP4 MSTORE SWAP2 PUSH1 0x20 ADD SWAP2 PUSH2 0x1A3D JUMP JUMPDEST DUP3 ADD SWAP2 SWAP1 PUSH0 MSTORE PUSH1 0x20 PUSH0 KECCAK256 SWAP1 JUMPDEST DUP2 SLOAD DUP2 MSTORE SWAP1 PUSH1 0x1 ADD SWAP1 PUSH1 0x20 ADD DUP1 DUP4 GT PUSH2 0x1A20 JUMPI DUP3 SWAP1 SUB PUSH1 0x1F AND DUP3 ADD SWAP2 JUMPDEST POP POP POP POP POP DUP2 PUSH1 0x40 ADD DUP2 SWAP1 MSTORE POP PUSH1 0x1 DUP3 DUP2 SLOAD DUP2 LT PUSH2 0x1A5E JUMPI PUSH2 0x1A5D PUSH2 0x2E05 JUMP JUMPDEST JUMPDEST SWAP1 PUSH0 MSTORE PUSH1 0x20 PUSH0 KECCAK256 SWAP1 PUSH1 0x8 MUL ADD PUSH1 0x3 ADD DUP1 SLOAD PUSH2 0x1A78 SWAP1 PUSH2 0x2A5F JUMP JUMPDEST DUP1 PUSH1 0x1F ADD PUSH1 0x20 DUP1 SWAP2 DIV MUL PUSH1 0x20 ADD PUSH1 0x40 MLOAD SWAP1 DUP2 ADD PUSH1 0x40 MSTORE DUP1 SWAP3 SWAP2 SWAP1 DUP2 DUP2 MSTORE PUSH1 0x20 ADD DUP3 DUP1 SLOAD PUSH2 0x1AA4 SWAP1 PUSH2 0x2A5F JUMP JUMPDEST DUP1 ISZERO PUSH2 0x1AEF JUMPI DUP1 PUSH1 0x1F LT PUSH2 0x1AC6 JUMPI PUSH2 0x100 DUP1 DUP4 SLOAD DIV MUL DUP4 MSTORE SWAP2 PUSH1 0x20 ADD SWAP2 PUSH2 0x1AEF JUMP JUMPDEST DUP3 ADD SWAP2 SWAP1 PUSH0 MSTORE PUSH1 0x20 PUSH0 KECCAK256 SWAP1 JUMPDEST DUP2 SLOAD DUP2 MSTORE SWAP1 PUSH1 0x1 ADD SWAP1 PUSH1 0x20 ADD DUP1 DUP4 GT PUSH2 0x1AD2 JUMPI DUP3 SWAP1 SUB PUSH1 0x1F AND DUP3 ADD SWAP2 JUMPDEST POP POP POP POP POP DUP2 PUSH1 0x60 ADD DUP2 SWAP1 MSTORE POP PUSH1 0x1 DUP3 DUP2 SLOAD DUP2 LT PUSH2 0x1B10 JUMPI PUSH2 0x1B0F PUSH2 0x2E05 JUMP JUMPDEST JUMPDEST SWAP1 PUSH0 MSTORE PUSH1 0x20 PUSH0 KECCAK256 SWAP1 PUSH1 0x8 MUL ADD PUSH1 0x4 ADD SLOAD DUP2 PUSH1 0x80 ADD DUP2 DUP2 MSTORE POP POP PUSH1 0x1 DUP3 DUP2 SLOAD DUP2 LT PUSH2 0x1B3D JUMPI PUSH2 0x1B3C PUSH2 0x2E05 JUMP JUMPDEST JUMPDEST SWAP1 PUSH0 MSTORE PUSH1 0x20 PUSH0 KECCAK256 SWAP1 PUSH1 0x8 MUL ADD PUSH1 0x5 ADD SLOAD DUP2 PUSH1 0xA0 ADD DUP2 DUP2 MSTORE POP POP PUSH1 0x1 DUP3 DUP2 SLOAD DUP2 LT PUSH2 0x1B6A JUMPI PUSH2 0x1B69 PUSH2 0x2E05 JUMP JUMPDEST JUMPDEST SWAP1 PUSH0 MSTORE PUSH1 0x20 PUSH0 KECCAK256 SWAP1 PUSH1 0x8 MUL ADD PUSH1 0x7 ADD PUSH0 SWAP1 SLOAD SWAP1 PUSH2 0x100 EXP SWAP1 DIV PUSH1 0xFF AND DUP2 PUSH1 0xC0 ADD SWAP1 ISZERO ISZERO SWAP1 DUP2 ISZERO ISZERO DUP2 MSTORE POP POP DUP1 DUP5 DUP5 DUP2 MLOAD DUP2 LT PUSH2 0x1BA9 JUMPI PUSH2 0x1BA8 PUSH2 0x2E05 JUMP JUMPDEST JUMPDEST PUSH1 0x20 MUL PUSH1 0x20 ADD ADD DUP2 SWAP1 MSTORE POP DUP3 DUP1 PUSH2 0x1BBF SWAP1 PUSH2 0x36B5 JUMP JUMPDEST SWAP4 POP POP POP JUMPDEST DUP1 DUP1 PUSH1 0x1 ADD SWAP2 POP POP PUSH2 0x1824 JUMP JUMPDEST POP DUP2 SWAP4 POP POP POP POP SWAP1 JUMP JUMPDEST PUSH0 PUSH1 0x1 DUP3 DUP2 SLOAD DUP2 LT PUSH2 0x1BF0 JUMPI PUSH2 0x1BEF PUSH2 0x2E05 JUMP JUMPDEST JUMPDEST SWAP1 PUSH0 MSTORE PUSH1 0x20 PUSH0 KECCAK256 SWAP1 PUSH1 0x8 MUL ADD SWAP1 POP PUSH0 DUP2 PUSH1 0x6 ADD DUP3 PUSH1 0x5 ADD SLOAD DUP2 SLOAD DUP2 LT PUSH2 0x1C19 JUMPI PUSH2 0x1C18 PUSH2 0x2E05 JUMP JUMPDEST JUMPDEST SWAP1 PUSH0 MSTORE PUSH1 0x20 PUSH0 KECCAK256 SWAP1 PUSH1 0x6 MUL ADD SWAP1 POP PUSH0 DUP2 PUSH1 0x2 ADD SLOAD SWAP1 POP PUSH0 DUP4 PUSH1 0x5 ADD SLOAD GT ISZERO PUSH2 0x1C7F JUMPI DUP3 PUSH1 0x6 ADD PUSH1 0x1 DUP5 PUSH1 0x5 ADD SLOAD PUSH2 0x1C50 SWAP2 SWAP1 PUSH2 0x2DB9 JUMP JUMPDEST DUP2 SLOAD DUP2 LT PUSH2 0x1C61 JUMPI PUSH2 0x1C60 PUSH2 0x2E05 JUMP JUMPDEST JUMPDEST SWAP1 PUSH0 MSTORE PUSH1 0x20 PUSH0 KECCAK256 SWAP1 PUSH1 0x6 MUL ADD PUSH1 0x2 ADD SLOAD DUP2 PUSH2 0x1C7C SWAP2 SWAP1 PUSH2 0x2DB9 JUMP JUMPDEST SWAP1 POP JUMPDEST DUP2 PUSH0 ADD PUSH0 ADD SLOAD DUP4 PUSH1 0x4 ADD SLOAD LT PUSH2 0x1D35 JUMPI PUSH1 0x1 DUP3 PUSH1 0x5 ADD PUSH0 PUSH2 0x100 EXP DUP2 SLOAD DUP2 PUSH1 0xFF MUL NOT AND SWAP1 DUP4 ISZERO ISZERO MUL OR SWAP1 SSTORE POP PUSH2 0x1CD7 DUP4 PUSH0 ADD PUSH0 SWAP1 SLOAD SWAP1 PUSH2 0x100 EXP SWAP1 DIV PUSH20 0xFFFFFFFFFFFFFFFFFFFFFFFFFFFFFFFFFFFFFFFF AND DUP3 PUSH2 0x1DE5 JUMP JUMPDEST PUSH1 0x1 DUP4 PUSH1 0x6 ADD DUP1 SLOAD SWAP1 POP PUSH2 0x1CEB SWAP2 SWAP1 PUSH2 0x2DB9 JUMP JUMPDEST DUP4 PUSH1 0x5 ADD SLOAD LT ISZERO PUSH2 0x1D14 JUMPI DUP3 PUSH1 0x5 ADD PUSH0 DUP2 SLOAD DUP1 SWAP3 SWAP2 SWAP1 PUSH2 0x1D0A SWAP1 PUSH2 0x36B5 JUMP JUMPDEST SWAP2 SWAP1 POP SSTORE POP PUSH2 0x1D30 JUMP JUMPDEST PUSH0 DUP4 PUSH1 0x7 ADD PUSH0 PUSH2 0x100 EXP DUP2 SLOAD DUP2 PUSH1 0xFF MUL NOT AND SWAP1 DUP4 ISZERO ISZERO MUL OR SWAP1 SSTORE POP JUMPDEST PUSH2 0x1D3F JUMP JUMPDEST PUSH2 0x1D3E DUP5 PUSH2 0x1D45 JUMP JUMPDEST JUMPDEST POP POP POP POP JUMP JUMPDEST PUSH0 PUSH1 0x1 DUP3 DUP2 SLOAD DUP2 LT PUSH2 0x1D5A JUMPI PUSH2 0x1D59 PUSH2 0x2E05 JUMP JUMPDEST JUMPDEST SWAP1 PUSH0 MSTORE PUSH1 0x20 PUSH0 KECCAK256 SWAP1 PUSH1 0x8 MUL ADD SWAP1 POP DUP1 PUSH1 0x7 ADD PUSH0 SWAP1 SLOAD SWAP1 PUSH2 0x100 EXP SWAP1 DIV PUSH1 0xFF AND PUSH2 0x1DB8 JUMPI PUSH1 0x40 MLOAD PUSH32 0x8C379A000000000000000000000000000000000000000000000000000000000 DUP2 MSTORE PUSH1 0x4 ADD PUSH2 0x1DAF SWAP1 PUSH2 0x3746 JUMP JUMPDEST PUSH1 0x40 MLOAD DUP1 SWAP2 SUB SWAP1 REVERT JUMPDEST PUSH0 DUP2 PUSH1 0x7 ADD PUSH0 PUSH2 0x100 EXP DUP2 SLOAD DUP2 PUSH1 0xFF MUL NOT AND SWAP1 DUP4 ISZERO ISZERO MUL OR SWAP1 SSTORE POP PUSH2 0x1DE1 DUP3 DUP3 PUSH1 0x5 ADD SLOAD PUSH2 0x1E92 JUMP JUMPDEST POP POP JUMP JUMPDEST PUSH0 DUP3 PUSH20 0xFFFFFFFFFFFFFFFFFFFFFFFFFFFFFFFFFFFFFFFF AND DUP3 PUSH1 0x40 MLOAD PUSH2 0x1E0A SWAP1 PUSH2 0x323B JUMP JUMPDEST PUSH0 PUSH1 0x40 MLOAD DUP1 DUP4 SUB DUP2 DUP6 DUP8 GAS CALL SWAP3 POP POP POP RETURNDATASIZE DUP1 PUSH0 DUP2 EQ PUSH2 0x1E44 JUMPI PUSH1 0x40 MLOAD SWAP2 POP PUSH1 0x1F NOT PUSH1 0x3F RETURNDATASIZE ADD AND DUP3 ADD PUSH1 0x40 MSTORE RETURNDATASIZE DUP3 MSTORE RETURNDATASIZE PUSH0 PUSH1 0x20 DUP5 ADD RETURNDATACOPY PUSH2 0x1E49 JUMP JUMPDEST PUSH1 0x60 SWAP2 POP JUMPDEST POP POP SWAP1 POP DUP1 PUSH2 0x1E8D JUMPI PUSH1 0x40 MLOAD PUSH32 0x8C379A000000000000000000000000000000000000000000000000000000000 DUP2 MSTORE PUSH1 0x4 ADD PUSH2 0x1E84 SWAP1 PUSH2 0x37AE JUMP JUMPDEST PUSH1 0x40 MLOAD DUP1 SWAP2 SUB SWAP1 REVERT JUMPDEST POP POP POP JUMP JUMPDEST PUSH0 PUSH1 0x1 DUP4 DUP2 SLOAD DUP2 LT PUSH2 0x1EA7 JUMPI PUSH2 0x1EA6 PUSH2 0x2E05 JUMP JUMPDEST JUMPDEST SWAP1 PUSH0 MSTORE PUSH1 0x20 PUSH0 KECCAK256 SWAP1 PUSH1 0x8 MUL ADD SWAP1 POP PUSH0 DUP2 PUSH1 0x6 ADD DUP4 DUP2 SLOAD DUP2 LT PUSH2 0x1ECC JUMPI PUSH2 0x1ECB PUSH2 0x2E05 JUMP JUMPDEST JUMPDEST SWAP1 PUSH0 MSTORE PUSH1 0x20 PUSH0 KECCAK256 SWAP1 PUSH1 0x6 MUL ADD SWAP1 POP PUSH0 PUSH0 SWAP1 POP JUMPDEST DUP2 PUSH1 0x3 ADD DUP1 SLOAD SWAP1 POP DUP2 LT ISZERO PUSH2 0x2077 JUMPI PUSH0 DUP3 PUSH1 0x3 ADD DUP3 DUP2 SLOAD DUP2 LT PUSH2 0x1F05 JUMPI PUSH2 0x1F04 PUSH2 0x2E05 JUMP JUMPDEST JUMPDEST SWAP1 PUSH0 MSTORE PUSH1 0x20 PUSH0 KECCAK256 ADD PUSH0 SWAP1 SLOAD SWAP1 PUSH2 0x100 EXP SWAP1 DIV PUSH20 0xFFFFFFFFFFFFFFFFFFFFFFFFFFFFFFFFFFFFFFFF AND SWAP1 POP PUSH0 DUP4 PUSH1 0x4 ADD PUSH0 DUP4 PUSH20 0xFFFFFFFFFFFFFFFFFFFFFFFFFFFFFFFFFFFFFFFF AND PUSH20 0xFFFFFFFFFFFFFFFFFFFFFFFFFFFFFFFFFFFFFFFF AND DUP2 MSTORE PUSH1 0x20 ADD SWAP1 DUP2 MSTORE PUSH1 0x20 ADD PUSH0 KECCAK256 SLOAD SWAP1 POP PUSH0 DUP2 GT ISZERO PUSH2 0x2068 JUMPI PUSH0 DUP5 PUSH1 0x4 ADD PUSH0 DUP5 PUSH20 0xFFFFFFFFFFFFFFFFFFFFFFFFFFFFFFFFFFFFFFFF AND PUSH20 0xFFFFFFFFFFFFFFFFFFFFFFFFFFFFFFFFFFFFFFFF AND DUP2 MSTORE PUSH1 0x20 ADD SWAP1 DUP2 MSTORE PUSH1 0x20 ADD PUSH0 KECCAK256 DUP2 SWAP1 SSTORE POP PUSH0 DUP3 PUSH20 0xFFFFFFFFFFFFFFFFFFFFFFFFFFFFFFFFFFFFFFFF AND DUP3 PUSH1 0x40 MLOAD PUSH2 0x1FE3 SWAP1 PUSH2 0x323B JUMP JUMPDEST PUSH0 PUSH1 0x40 MLOAD DUP1 DUP4 SUB DUP2 DUP6 DUP8 GAS CALL SWAP3 POP POP POP RETURNDATASIZE DUP1 PUSH0 DUP2 EQ PUSH2 0x201D JUMPI PUSH1 0x40 MLOAD SWAP2 POP PUSH1 0x1F NOT PUSH1 0x3F RETURNDATASIZE ADD AND DUP3 ADD PUSH1 0x40 MSTORE RETURNDATASIZE DUP3 MSTORE RETURNDATASIZE PUSH0 PUSH1 0x20 DUP5 ADD RETURNDATACOPY PUSH2 0x2022 JUMP JUMPDEST PUSH1 0x60 SWAP2 POP JUMPDEST POP POP SWAP1 POP DUP1 PUSH2 0x2066 JUMPI PUSH1 0x40 MLOAD PUSH32 0x8C379A000000000000000000000000000000000000000000000000000000000 DUP2 MSTORE PUSH1 0x4 ADD PUSH2 0x205D SWAP1 PUSH2 0x3816 JUMP JUMPDEST PUSH1 0x40 MLOAD DUP1 SWAP2 SUB SWAP1 REVERT JUMPDEST POP JUMPDEST POP POP DUP1 DUP1 PUSH1 0x1 ADD SWAP2 POP POP PUSH2 0x1EDF JUMP JUMPDEST POP POP POP POP POP JUMP JUMPDEST PUSH1 0x40 MLOAD DUP1 PUSH1 0x40 ADD PUSH1 0x40 MSTORE DUP1 PUSH0 DUP2 MSTORE PUSH1 0x20 ADD PUSH0 DUP2 MSTORE POP SWAP1 JUMP JUMPDEST PUSH1 0x40 MLOAD DUP1 PUSH1 0xE0 ADD PUSH1 0x40 MSTORE DUP1 PUSH0 PUSH20 0xFFFFFFFFFFFFFFFFFFFFFFFFFFFFFFFFFFFFFFFF AND DUP2 MSTORE PUSH1 0x20 ADD PUSH1 0x60 DUP2 MSTORE PUSH1 0x20 ADD PUSH1 0x60 DUP2 MSTORE PUSH1 0x20 ADD PUSH1 0x60 DUP2 MSTORE PUSH1 0x20 ADD PUSH0 DUP2 MSTORE PUSH1 0x20 ADD PUSH0 DUP2 MSTORE PUSH1 0x20 ADD PUSH0 ISZERO ISZERO DUP2 MSTORE POP SWAP1 JUMP JUMPDEST PUSH0 PUSH20 0xFFFFFFFFFFFFFFFFFFFFFFFFFFFFFFFFFFFFFFFF DUP3 AND SWAP1 POP SWAP2 SWAP1 POP JUMP JUMPDEST PUSH0 PUSH2 0x2110 DUP3 PUSH2 0x20E7 JUMP JUMPDEST SWAP1 POP SWAP2 SWAP1 POP JUMP JUMPDEST PUSH2 0x2120 DUP2 PUSH2 0x2106 JUMP JUMPDEST DUP3 MSTORE POP POP JUMP JUMPDEST PUSH0 PUSH1 0x20 DUP3 ADD SWAP1 POP PUSH2 0x2139 PUSH0 DUP4 ADD DUP5 PUSH2 0x2117 JUMP JUMPDEST SWAP3 SWAP2 POP POP JUMP JUMPDEST PUSH0 PUSH1 0x40 MLOAD SWAP1 POP SWAP1 JUMP JUMPDEST PUSH0 PUSH0 REVERT JUMPDEST PUSH0 PUSH0 REVERT JUMPDEST PUSH0 DUP2 SWAP1 POP SWAP2 SWAP1 POP JUMP JUMPDEST PUSH2 0x2162 DUP2 PUSH2 0x2150 JUMP JUMPDEST DUP2 EQ PUSH2 0x216C JUMPI PUSH0 PUSH0 REVERT JUMPDEST POP JUMP JUMPDEST PUSH0 DUP2 CALLDATALOAD SWAP1 POP PUSH2 0x217D DUP2 PUSH2 0x2159 JUMP JUMPDEST SWAP3 SWAP2 POP POP JUMP JUMPDEST PUSH0 PUSH1 0x20 DUP3 DUP5 SUB SLT ISZERO PUSH2 0x2198 JUMPI PUSH2 0x2197 PUSH2 0x2148 JUMP JUMPDEST JUMPDEST PUSH0 PUSH2 0x21A5 DUP5 DUP3 DUP6 ADD PUSH2 0x216F JUMP JUMPDEST SWAP2 POP POP SWAP3 SWAP2 POP POP JUMP JUMPDEST PUSH0 DUP2 MLOAD SWAP1 POP SWAP2 SWAP1 POP JUMP JUMPDEST PUSH0 DUP3 DUP3 MSTORE PUSH1 0x20 DUP3 ADD SWAP1 POP SWAP3 SWAP2 POP POP JUMP JUMPDEST DUP3 DUP2 DUP4 MCOPY PUSH0 DUP4 DUP4 ADD MSTORE POP POP POP JUMP JUMPDEST PUSH0 PUSH1 0x1F NOT PUSH1 0x1F DUP4 ADD AND SWAP1 POP SWAP2 SWAP1 POP JUMP JUMPDEST PUSH0 PUSH2 0x21F0 DUP3 PUSH2 0x21AE JUMP JUMPDEST PUSH2 0x21FA DUP2 DUP6 PUSH2 0x21B8 JUMP JUMPDEST SWAP4 POP PUSH2 0x220A DUP2 DUP6 PUSH1 0x20 DUP7 ADD PUSH2 0x21C8 JUMP JUMPDEST PUSH2 0x2213 DUP2 PUSH2 0x21D6 JUMP JUMPDEST DUP5 ADD SWAP2 POP POP SWAP3 SWAP2 POP POP JUMP JUMPDEST PUSH2 0x2227 DUP2 PUSH2 0x2150 JUMP JUMPDEST DUP3 MSTORE POP POP JUMP JUMPDEST PUSH0 DUP2 ISZERO ISZERO SWAP1 POP SWAP2 SWAP1 POP JUMP JUMPDEST PUSH2 0x2241 DUP2 PUSH2 0x222D JUMP JUMPDEST DUP3 MSTORE POP POP JUMP JUMPDEST PUSH0 PUSH1 0xE0 DUP3 ADD SWAP1 POP PUSH2 0x225A PUSH0 DUP4 ADD DUP11 PUSH2 0x2117 JUMP JUMPDEST DUP2 DUP2 SUB PUSH1 0x20 DUP4 ADD MSTORE PUSH2 0x226C DUP2 DUP10 PUSH2 0x21E6 JUMP JUMPDEST SWAP1 POP DUP2 DUP2 SUB PUSH1 0x40 DUP4 ADD MSTORE PUSH2 0x2280 DUP2 DUP9 PUSH2 0x21E6 JUMP JUMPDEST SWAP1 POP DUP2 DUP2 SUB PUSH1 0x60 DUP4 ADD MSTORE PUSH2 0x2294 DUP2 DUP8 PUSH2 0x21E6 JUMP JUMPDEST SWAP1 POP PUSH2 0x22A3 PUSH1 0x80 DUP4 ADD DUP7 PUSH2 0x221E JUMP JUMPDEST PUSH2 0x22B0 PUSH1 0xA0 DUP4 ADD DUP6 PUSH2 0x221E JUMP JUMPDEST PUSH2 0x22BD PUSH1 0xC0 DUP4 ADD DUP5 PUSH2 0x2238 JUMP JUMPDEST SWAP9 SWAP8 POP POP POP POP POP POP POP POP JUMP JUMPDEST PUSH0 PUSH0 REVERT JUMPDEST PUSH0 PUSH0 REVERT JUMPDEST PUSH32 0x4E487B7100000000000000000000000000000000000000000000000000000000 PUSH0 MSTORE PUSH1 0x41 PUSH1 0x4 MSTORE PUSH1 0x24 PUSH0 REVERT JUMPDEST PUSH2 0x2307 DUP3 PUSH2 0x21D6 JUMP JUMPDEST DUP2 ADD DUP2 DUP2 LT PUSH8 0xFFFFFFFFFFFFFFFF DUP3 GT OR ISZERO PUSH2 0x2326 JUMPI PUSH2 0x2325 PUSH2 0x22D1 JUMP JUMPDEST JUMPDEST DUP1 PUSH1 0x40 MSTORE POP POP POP JUMP JUMPDEST PUSH0 PUSH2 0x2338 PUSH2 0x213F JUMP JUMPDEST SWAP1 POP PUSH2 0x2344 DUP3 DUP3 PUSH2 0x22FE JUMP JUMPDEST SWAP2 SWAP1 POP JUMP JUMPDEST PUSH0 PUSH8 0xFFFFFFFFFFFFFFFF DUP3 GT ISZERO PUSH2 0x2363 JUMPI PUSH2 0x2362 PUSH2 0x22D1 JUMP JUMPDEST JUMPDEST PUSH2 0x236C DUP3 PUSH2 0x21D6 JUMP JUMPDEST SWAP1 POP PUSH1 0x20 DUP2 ADD SWAP1 POP SWAP2 SWAP1 POP JUMP JUMPDEST DUP3 DUP2 DUP4 CALLDATACOPY PUSH0 DUP4 DUP4 ADD MSTORE POP POP POP JUMP JUMPDEST PUSH0 PUSH2 0x2399 PUSH2 0x2394 DUP5 PUSH2 0x2349 JUMP JUMPDEST PUSH2 0x232F JUMP JUMPDEST SWAP1 POP DUP3 DUP2 MSTORE PUSH1 0x20 DUP2 ADD DUP5 DUP5 DUP5 ADD GT ISZERO PUSH2 0x23B5 JUMPI PUSH2 0x23B4 PUSH2 0x22CD JUMP JUMPDEST JUMPDEST PUSH2 0x23C0 DUP5 DUP3 DUP6 PUSH2 0x2379 JUMP JUMPDEST POP SWAP4 SWAP3 POP POP POP JUMP JUMPDEST PUSH0 DUP3 PUSH1 0x1F DUP4 ADD SLT PUSH2 0x23DC JUMPI PUSH2 0x23DB PUSH2 0x22C9 JUMP JUMPDEST JUMPDEST DUP2 CALLDATALOAD PUSH2 0x23EC DUP5 DUP3 PUSH1 0x20 DUP7 ADD PUSH2 0x2387 JUMP JUMPDEST SWAP2 POP POP SWAP3 SWAP2 POP POP JUMP JUMPDEST PUSH0 PUSH8 0xFFFFFFFFFFFFFFFF DUP3 GT ISZERO PUSH2 0x240F JUMPI PUSH2 0x240E PUSH2 0x22D1 JUMP JUMPDEST JUMPDEST PUSH1 0x20 DUP3 MUL SWAP1 POP PUSH1 0x20 DUP2 ADD SWAP1 POP SWAP2 SWAP1 POP JUMP JUMPDEST PUSH0 PUSH0 REVERT JUMPDEST PUSH0 PUSH0 REVERT JUMPDEST PUSH0 PUSH1 0x40 DUP3 DUP5 SUB SLT ISZERO PUSH2 0x243D JUMPI PUSH2 0x243C PUSH2 0x2424 JUMP JUMPDEST JUMPDEST PUSH2 0x2447 PUSH1 0x40 PUSH2 0x232F JUMP JUMPDEST SWAP1 POP PUSH0 PUSH2 0x2456 DUP5 DUP3 DUP6 ADD PUSH2 0x216F JUMP JUMPDEST PUSH0 DUP4 ADD MSTORE POP PUSH1 0x20 PUSH2 0x2469 DUP5 DUP3 DUP6 ADD PUSH2 0x216F JUMP JUMPDEST PUSH1 0x20 DUP4 ADD MSTORE POP SWAP3 SWAP2 POP POP JUMP JUMPDEST PUSH0 PUSH2 0x2487 PUSH2 0x2482 DUP5 PUSH2 0x23F5 JUMP JUMPDEST PUSH2 0x232F JUMP JUMPDEST SWAP1 POP DUP1 DUP4 DUP3 MSTORE PUSH1 0x20 DUP3 ADD SWAP1 POP PUSH1 0x40 DUP5 MUL DUP4 ADD DUP6 DUP2 GT ISZERO PUSH2 0x24AA JUMPI PUSH2 0x24A9 PUSH2 0x2420 JUMP JUMPDEST JUMPDEST DUP4 JUMPDEST DUP2 DUP2 LT ISZERO PUSH2 0x24D3 JUMPI DUP1 PUSH2 0x24BF DUP9 DUP3 PUSH2 0x2428 JUMP JUMPDEST DUP5 MSTORE PUSH1 0x20 DUP5 ADD SWAP4 POP POP PUSH1 0x40 DUP2 ADD SWAP1 POP PUSH2 0x24AC JUMP JUMPDEST POP POP POP SWAP4 SWAP3 POP POP POP JUMP JUMPDEST PUSH0 DUP3 PUSH1 0x1F DUP4 ADD SLT PUSH2 0x24F1 JUMPI PUSH2 0x24F0 PUSH2 0x22C9 JUMP JUMPDEST JUMPDEST DUP2 CALLDATALOAD PUSH2 0x2501 DUP5 DUP3 PUSH1 0x20 DUP7 ADD PUSH2 0x2475 JUMP JUMPDEST SWAP2 POP POP SWAP3 SWAP2 POP POP JUMP JUMPDEST PUSH0 PUSH0 PUSH0 PUSH0 PUSH1 0x80 DUP6 DUP8 SUB SLT ISZERO PUSH2 0x2522 JUMPI PUSH2 0x2521 PUSH2 0x2148 JUMP JUMPDEST JUMPDEST PUSH0 DUP6 ADD CALLDATALOAD PUSH8 0xFFFFFFFFFFFFFFFF DUP2 GT ISZERO PUSH2 0x253F JUMPI PUSH2 0x253E PUSH2 0x214C JUMP JUMPDEST JUMPDEST PUSH2 0x254B DUP8 DUP3 DUP9 ADD PUSH2 0x23C8 JUMP JUMPDEST SWAP5 POP POP PUSH1 0x20 DUP6 ADD CALLDATALOAD PUSH8 0xFFFFFFFFFFFFFFFF DUP2 GT ISZERO PUSH2 0x256C JUMPI PUSH2 0x256B PUSH2 0x214C JUMP JUMPDEST JUMPDEST PUSH2 0x2578 DUP8 DUP3 DUP9 ADD PUSH2 0x23C8 JUMP JUMPDEST SWAP4 POP POP PUSH1 0x40 DUP6 ADD CALLDATALOAD PUSH8 0xFFFFFFFFFFFFFFFF DUP2 GT ISZERO PUSH2 0x2599 JUMPI PUSH2 0x2598 PUSH2 0x214C JUMP JUMPDEST JUMPDEST PUSH2 0x25A5 DUP8 DUP3 DUP9 ADD PUSH2 0x23C8 JUMP JUMPDEST SWAP3 POP POP PUSH1 0x60 DUP6 ADD CALLDATALOAD PUSH8 0xFFFFFFFFFFFFFFFF DUP2 GT ISZERO PUSH2 0x25C6 JUMPI PUSH2 0x25C5 PUSH2 0x214C JUMP JUMPDEST JUMPDEST PUSH2 0x25D2 DUP8 DUP3 DUP9 ADD PUSH2 0x24DD JUMP JUMPDEST SWAP2 POP POP SWAP3 SWAP6 SWAP2 SWAP5 POP SWAP3 POP JUMP JUMPDEST PUSH0 DUP2 MLOAD SWAP1 POP SWAP2 SWAP1 POP JUMP JUMPDEST PUSH0 DUP3 DUP3 MSTORE PUSH1 0x20 DUP3 ADD SWAP1 POP SWAP3 SWAP2 POP POP JUMP JUMPDEST PUSH0 DUP2 SWAP1 POP PUSH1 0x20 DUP3 ADD SWAP1 POP SWAP2 SWAP1 POP JUMP JUMPDEST PUSH2 0x2610 DUP2 PUSH2 0x2106 JUMP JUMPDEST DUP3 MSTORE POP POP JUMP JUMPDEST PUSH0 PUSH2 0x2621 DUP4 DUP4 PUSH2 0x2607 JUMP JUMPDEST PUSH1 0x20 DUP4 ADD SWAP1 POP SWAP3 SWAP2 POP POP JUMP JUMPDEST PUSH0 PUSH1 0x20 DUP3 ADD SWAP1 POP SWAP2 SWAP1 POP JUMP JUMPDEST PUSH0 PUSH2 0x2643 DUP3 PUSH2 0x25DE JUMP JUMPDEST PUSH2 0x264D DUP2 DUP6 PUSH2 0x25E8 JUMP JUMPDEST SWAP4 POP PUSH2 0x2658 DUP4 PUSH2 0x25F8 JUMP JUMPDEST DUP1 PUSH0 JUMPDEST DUP4 DUP2 LT ISZERO PUSH2 0x2688 JUMPI DUP2 MLOAD PUSH2 0x266F DUP9 DUP3 PUSH2 0x2616 JUMP JUMPDEST SWAP8 POP PUSH2 0x267A DUP4 PUSH2 0x262D JUMP JUMPDEST SWAP3 POP POP PUSH1 0x1 DUP2 ADD SWAP1 POP PUSH2 0x265B JUMP JUMPDEST POP DUP6 SWAP4 POP POP POP POP SWAP3 SWAP2 POP POP JUMP JUMPDEST PUSH0 PUSH1 0x20 DUP3 ADD SWAP1 POP DUP2 DUP2 SUB PUSH0 DUP4 ADD MSTORE PUSH2 0x26AD DUP2 DUP5 PUSH2 0x2639 JUMP JUMPDEST SWAP1 POP SWAP3 SWAP2 POP POP JUMP JUMPDEST PUSH0 PUSH0 PUSH1 0x40 DUP4 DUP6 SUB SLT ISZERO PUSH2 0x26CB JUMPI PUSH2 0x26CA PUSH2 0x2148 JUMP JUMPDEST JUMPDEST PUSH0 PUSH2 0x26D8 DUP6 DUP3 DUP7 ADD PUSH2 0x216F JUMP JUMPDEST SWAP3 POP POP PUSH1 0x20 DUP4 ADD CALLDATALOAD PUSH8 0xFFFFFFFFFFFFFFFF DUP2 GT ISZERO PUSH2 0x26F9 JUMPI PUSH2 0x26F8 PUSH2 0x214C JUMP JUMPDEST JUMPDEST PUSH2 0x2705 DUP6 DUP3 DUP7 ADD PUSH2 0x24DD JUMP JUMPDEST SWAP2 POP POP SWAP3 POP SWAP3 SWAP1 POP JUMP JUMPDEST PUSH2 0x2718 DUP2 PUSH2 0x2150 JUMP JUMPDEST DUP3 MSTORE POP POP JUMP JUMPDEST PUSH1 0x40 DUP3 ADD PUSH0 DUP3 ADD MLOAD PUSH2 0x2732 PUSH0 DUP6 ADD DUP3 PUSH2 0x270F JUMP JUMPDEST POP PUSH1 0x20 DUP3 ADD MLOAD PUSH2 0x2745 PUSH1 0x20 DUP6 ADD DUP3 PUSH2 0x270F JUMP JUMPDEST POP POP POP POP JUMP JUMPDEST PUSH0 PUSH1 0x40 DUP3 ADD SWAP1 POP PUSH2 0x275E PUSH0 DUP4 ADD DUP5 PUSH2 0x271E JUMP JUMPDEST SWAP3 SWAP2 POP POP JUMP JUMPDEST PUSH0 DUP2 MLOAD SWAP1 POP SWAP2 SWAP1 POP JUMP JUMPDEST PUSH0 DUP3 DUP3 MSTORE PUSH1 0x20 DUP3 ADD SWAP1 POP SWAP3 SWAP2 POP POP JUMP JUMPDEST PUSH0 DUP2 SWAP1 POP PUSH1 0x20 DUP3 ADD SWAP1 POP SWAP2 SWAP1 POP JUMP JUMPDEST PUSH1 0x40 DUP3 ADD PUSH0 DUP3 ADD MLOAD PUSH2 0x27A1 PUSH0 DUP6 ADD DUP3 PUSH2 0x270F JUMP JUMPDEST POP PUSH1 0x20 DUP3 ADD MLOAD PUSH2 0x27B4 PUSH1 0x20 DUP6 ADD DUP3 PUSH2 0x270F JUMP JUMPDEST POP POP POP POP JUMP JUMPDEST PUSH0 PUSH2 0x27C5 DUP4 DUP4 PUSH2 0x278D JUMP JUMPDEST PUSH1 0x40 DUP4 ADD SWAP1 POP SWAP3 SWAP2 POP POP JUMP JUMPDEST PUSH0 PUSH1 0x20 DUP3 ADD SWAP1 POP SWAP2 SWAP1 POP JUMP JUMPDEST PUSH0 PUSH2 0x27E7 DUP3 PUSH2 0x2764 JUMP JUMPDEST PUSH2 0x27F1 DUP2 DUP6 PUSH2 0x276E JUMP JUMPDEST SWAP4 POP PUSH2 0x27FC DUP4 PUSH2 0x277E JUMP JUMPDEST DUP1 PUSH0 JUMPDEST DUP4 DUP2 LT ISZERO PUSH2 0x282C JUMPI DUP2 MLOAD PUSH2 0x2813 DUP9 DUP3 PUSH2 0x27BA JUMP JUMPDEST SWAP8 POP PUSH2 0x281E DUP4 PUSH2 0x27D1 JUMP JUMPDEST SWAP3 POP POP PUSH1 0x1 DUP2 ADD SWAP1 POP PUSH2 0x27FF JUMP JUMPDEST POP DUP6 SWAP4 POP POP POP POP SWAP3 SWAP2 POP POP JUMP JUMPDEST PUSH0 PUSH1 0x20 DUP3 ADD SWAP1 POP DUP2 DUP2 SUB PUSH0 DUP4 ADD MSTORE PUSH2 0x2851 DUP2 DUP5 PUSH2 0x27DD JUMP JUMPDEST SWAP1 POP SWAP3 SWAP2 POP POP JUMP JUMPDEST PUSH0 DUP2 MLOAD SWAP1 POP SWAP2 SWAP1 POP JUMP JUMPDEST PUSH0 DUP3 DUP3 MSTORE PUSH1 0x20 DUP3 ADD SWAP1 POP SWAP3 SWAP2 POP POP JUMP JUMPDEST PUSH0 DUP2 SWAP1 POP PUSH1 0x20 DUP3 ADD SWAP1 POP SWAP2 SWAP1 POP JUMP JUMPDEST PUSH0 DUP3 DUP3 MSTORE PUSH1 0x20 DUP3 ADD SWAP1 POP SWAP3 SWAP2 POP POP JUMP JUMPDEST PUSH0 PUSH2 0x289C DUP3 PUSH2 0x21AE JUMP JUMPDEST PUSH2 0x28A6 DUP2 DUP6 PUSH2 0x2882 JUMP JUMPDEST SWAP4 POP PUSH2 0x28B6 DUP2 DUP6 PUSH1 0x20 DUP7 ADD PUSH2 0x21C8 JUMP JUMPDEST PUSH2 0x28BF DUP2 PUSH2 0x21D6 JUMP JUMPDEST DUP5 ADD SWAP2 POP POP SWAP3 SWAP2 POP POP JUMP JUMPDEST PUSH2 0x28D3 DUP2 PUSH2 0x222D JUMP JUMPDEST DUP3 MSTORE POP POP JUMP JUMPDEST PUSH0 PUSH1 0xE0 DUP4 ADD PUSH0 DUP4 ADD MLOAD PUSH2 0x28EE PUSH0 DUP7 ADD DUP3 PUSH2 0x2607 JUMP JUMPDEST POP PUSH1 0x20 DUP4 ADD MLOAD DUP5 DUP3 SUB PUSH1 0x20 DUP7 ADD MSTORE PUSH2 0x2906 DUP3 DUP3 PUSH2 0x2892 JUMP JUMPDEST SWAP2 POP POP PUSH1 0x40 DUP4 ADD MLOAD DUP5 DUP3 SUB PUSH1 0x40 DUP7 ADD MSTORE PUSH2 0x2920 DUP3 DUP3 PUSH2 0x2892 JUMP JUMPDEST SWAP2 POP POP PUSH1 0x60 DUP4 ADD MLOAD DUP5 DUP3 SUB PUSH1 0x60 DUP7 ADD MSTORE PUSH2 0x293A DUP3 DUP3 PUSH2 0x2892 JUMP JUMPDEST SWAP2 POP POP PUSH1 0x80 DUP4 ADD MLOAD PUSH2 0x294F PUSH1 0x80 DUP7 ADD DUP3 PUSH2 0x270F JUMP JUMPDEST POP PUSH1 0xA0 DUP4 ADD MLOAD PUSH2 0x2962 PUSH1 0xA0 DUP7 ADD DUP3 PUSH2 0x270F JUMP JUMPDEST POP PUSH1 0xC0 DUP4 ADD MLOAD PUSH2 0x2975 PUSH1 0xC0 DUP7 ADD DUP3 PUSH2 0x28CA JUMP JUMPDEST POP DUP1 SWAP2 POP POP SWAP3 SWAP2 POP POP JUMP JUMPDEST PUSH0 PUSH2 0x298B DUP4 DUP4 PUSH2 0x28D9 JUMP JUMPDEST SWAP1 POP SWAP3 SWAP2 POP POP JUMP JUMPDEST PUSH0 PUSH1 0x20 DUP3 ADD SWAP1 POP SWAP2 SWAP1 POP JUMP JUMPDEST PUSH0 PUSH2 0x29A9 DUP3 PUSH2 0x2859 JUMP JUMPDEST PUSH2 0x29B3 DUP2 DUP6 PUSH2 0x2863 JUMP JUMPDEST SWAP4 POP DUP4 PUSH1 0x20 DUP3 MUL DUP6 ADD PUSH2 0x29C5 DUP6 PUSH2 0x2873 JUMP JUMPDEST DUP1 PUSH0 JUMPDEST DUP6 DUP2 LT ISZERO PUSH2 0x2A00 JUMPI DUP5 DUP5 SUB DUP10 MSTORE DUP2 MLOAD PUSH2 0x29E1 DUP6 DUP3 PUSH2 0x2980 JUMP JUMPDEST SWAP5 POP PUSH2 0x29EC DUP4 PUSH2 0x2993 JUMP JUMPDEST SWAP3 POP PUSH1 0x20 DUP11 ADD SWAP10 POP POP PUSH1 0x1 DUP2 ADD SWAP1 POP PUSH2 0x29C8 JUMP JUMPDEST POP DUP3 SWAP8 POP DUP8 SWAP6 POP POP POP POP POP POP SWAP3 SWAP2 POP POP JUMP JUMPDEST PUSH0 PUSH1 0x20 DUP3 ADD SWAP1 POP DUP2 DUP2 SUB PUSH0 DUP4 ADD MSTORE PUSH2 0x2A2A DUP2 DUP5 PUSH2 0x299F JUMP JUMPDEST SWAP1 POP SWAP3 SWAP2 POP POP JUMP JUMPDEST PUSH32 0x4E487B7100000000000000000000000000000000000000000000000000000000 PUSH0 MSTORE PUSH1 0x22 PUSH1 0x4 MSTORE PUSH1 0x24 PUSH0 REVERT JUMPDEST PUSH0 PUSH1 0x2 DUP3 DIV SWAP1 POP PUSH1 0x1 DUP3 AND DUP1 PUSH2 0x2A76 JUMPI PUSH1 0x7F DUP3 AND SWAP2 POP JUMPDEST PUSH1 0x20 DUP3 LT DUP2 SUB PUSH2 0x2A89 JUMPI PUSH2 0x2A88 PUSH2 0x2A32 JUMP JUMPDEST JUMPDEST POP SWAP2 SWAP1 POP JUMP JUMPDEST PUSH32 0x53797374656D206F776E65722063616E2774206372656174652070726F6A6563 PUSH0 DUP3 ADD MSTORE PUSH32 0x7473000000000000000000000000000000000000000000000000000000000000 PUSH1 0x20 DUP3 ADD MSTORE POP JUMP JUMPDEST PUSH0 PUSH2 0x2AE9 PUSH1 0x22 DUP4 PUSH2 0x21B8 JUMP JUMPDEST SWAP2 POP PUSH2 0x2AF4 DUP3 PUSH2 0x2A8F JUMP JUMPDEST PUSH1 0x40 DUP3 ADD SWAP1 POP SWAP2 SWAP1 POP JUMP JUMPDEST PUSH0 PUSH1 0x20 DUP3 ADD SWAP1 POP DUP2 DUP2 SUB PUSH0 DUP4 ADD MSTORE PUSH2 0x2B16 DUP2 PUSH2 0x2ADD JUMP JUMPDEST SWAP1 POP SWAP2 SWAP1 POP JUMP JUMPDEST PUSH0 DUP2 SWAP1 POP DUP2 PUSH0 MSTORE PUSH1 0x20 PUSH0 KECCAK256 SWAP1 POP SWAP2 SWAP1 POP JUMP JUMPDEST PUSH0 PUSH1 0x20 PUSH1 0x1F DUP4 ADD DIV SWAP1 POP SWAP2 SWAP1 POP JUMP JUMPDEST PUSH0 DUP3 DUP3 SHL SWAP1 POP SWAP3 SWAP2 POP POP JUMP JUMPDEST PUSH0 PUSH1 0x8 DUP4 MUL PUSH2 0x2B79 PUSH32 0xFFFFFFFFFFFFFFFFFFFFFFFFFFFFFFFFFFFFFFFFFFFFFFFFFFFFFFFFFFFFFFFF DUP3 PUSH2 0x2B3E JUMP JUMPDEST PUSH2 0x2B83 DUP7 DUP4 PUSH2 0x2B3E JUMP JUMPDEST SWAP6 POP DUP1 NOT DUP5 AND SWAP4 POP DUP1 DUP7 AND DUP5 OR SWAP3 POP POP POP SWAP4 SWAP3 POP POP POP JUMP JUMPDEST PUSH0 DUP2 SWAP1 POP SWAP2 SWAP1 POP JUMP JUMPDEST PUSH0 PUSH2 0x2BBE PUSH2 0x2BB9 PUSH2 0x2BB4 DUP5 PUSH2 0x2150 JUMP JUMPDEST PUSH2 0x2B9B JUMP JUMPDEST PUSH2 0x2150 JUMP JUMPDEST SWAP1 POP SWAP2 SWAP1 POP JUMP JUMPDEST PUSH0 DUP2 SWAP1 POP SWAP2 SWAP1 POP JUMP JUMPDEST PUSH2 0x2BD7 DUP4 PUSH2 0x2BA4 JUMP JUMPDEST PUSH2 0x2BEB PUSH2 0x2BE3 DUP3 PUSH2 0x2BC5 JUMP JUMPDEST DUP5 DUP5 SLOAD PUSH2 0x2B4A JUMP JUMPDEST DUP3 SSTORE POP POP POP POP JUMP JUMPDEST PUSH0 PUSH0 SWAP1 POP SWAP1 JUMP JUMPDEST PUSH2 0x2C02 PUSH2 0x2BF3 JUMP JUMPDEST PUSH2 0x2C0D DUP2 DUP5 DUP5 PUSH2 0x2BCE JUMP JUMPDEST POP POP POP JUMP JUMPDEST JUMPDEST DUP2 DUP2 LT ISZERO PUSH2 0x2C30 JUMPI PUSH2 0x2C25 PUSH0 DUP3 PUSH2 0x2BFA JUMP JUMPDEST PUSH1 0x1 DUP2 ADD SWAP1 POP PUSH2 0x2C13 JUMP JUMPDEST POP POP JUMP JUMPDEST PUSH1 0x1F DUP3 GT ISZERO PUSH2 0x2C75 JUMPI PUSH2 0x2C46 DUP2 PUSH2 0x2B1D JUMP JUMPDEST PUSH2 0x2C4F DUP5 PUSH2 0x2B2F JUMP JUMPDEST DUP2 ADD PUSH1 0x20 DUP6 LT ISZERO PUSH2 0x2C5E JUMPI DUP2 SWAP1 POP JUMPDEST PUSH2 0x2C72 PUSH2 0x2C6A DUP6 PUSH2 0x2B2F JUMP JUMPDEST DUP4 ADD DUP3 PUSH2 0x2C12 JUMP JUMPDEST POP POP JUMPDEST POP POP POP JUMP JUMPDEST PUSH0 DUP3 DUP3 SHR SWAP1 POP SWAP3 SWAP2 POP POP JUMP JUMPDEST PUSH0 PUSH2 0x2C95 PUSH0 NOT DUP5 PUSH1 0x8 MUL PUSH2 0x2C7A JUMP JUMPDEST NOT DUP1 DUP4 AND SWAP2 POP POP SWAP3 SWAP2 POP POP JUMP JUMPDEST PUSH0 PUSH2 0x2CAD DUP4 DUP4 PUSH2 0x2C86 JUMP JUMPDEST SWAP2 POP DUP3 PUSH1 0x2 MUL DUP3 OR SWAP1 POP SWAP3 SWAP2 POP POP JUMP JUMPDEST PUSH2 0x2CC6 DUP3 PUSH2 0x21AE JUMP JUMPDEST PUSH8 0xFFFFFFFFFFFFFFFF DUP2 GT ISZERO PUSH2 0x2CDF JUMPI PUSH2 0x2CDE PUSH2 0x22D1 JUMP JUMPDEST JUMPDEST PUSH2 0x2CE9 DUP3 SLOAD PUSH2 0x2A5F JUMP JUMPDEST PUSH2 0x2CF4 DUP3 DUP3 DUP6 PUSH2 0x2C34 JUMP JUMPDEST PUSH0 PUSH1 0x20 SWAP1 POP PUSH1 0x1F DUP4 GT PUSH1 0x1 DUP2 EQ PUSH2 0x2D25 JUMPI PUSH0 DUP5 ISZERO PUSH2 0x2D13 JUMPI DUP3 DUP8 ADD MLOAD SWAP1 POP JUMPDEST PUSH2 0x2D1D DUP6 DUP3 PUSH2 0x2CA2 JUMP JUMPDEST DUP7 SSTORE POP PUSH2 0x2D84 JUMP JUMPDEST PUSH1 0x1F NOT DUP5 AND PUSH2 0x2D33 DUP7 PUSH2 0x2B1D JUMP JUMPDEST PUSH0 JUMPDEST DUP3 DUP2 LT ISZERO PUSH2 0x2D5A JUMPI DUP5 DUP10 ADD MLOAD DUP3 SSTORE PUSH1 0x1 DUP3 ADD SWAP2 POP PUSH1 0x20 DUP6 ADD SWAP5 POP PUSH1 0x20 DUP2 ADD SWAP1 POP PUSH2 0x2D35 JUMP JUMPDEST DUP7 DUP4 LT ISZERO PUSH2 0x2D77 JUMPI DUP5 DUP10 ADD MLOAD PUSH2 0x2D73 PUSH1 0x1F DUP10 AND DUP3 PUSH2 0x2C86 JUMP JUMPDEST DUP4 SSTORE POP JUMPDEST PUSH1 0x1 PUSH1 0x2 DUP9 MUL ADD DUP9 SSTORE POP POP POP JUMPDEST POP POP POP POP POP POP JUMP JUMPDEST PUSH32 0x4E487B7100000000000000000000000000000000000000000000000000000000 PUSH0 MSTORE PUSH1 0x11 PUSH1 0x4 MSTORE PUSH1 0x24 PUSH0 REVERT JUMPDEST PUSH0 PUSH2 0x2DC3 DUP3 PUSH2 0x2150 JUMP JUMPDEST SWAP2 POP PUSH2 0x2DCE DUP4 PUSH2 0x2150 JUMP JUMPDEST SWAP3 POP DUP3 DUP3 SUB SWAP1 POP DUP2 DUP2 GT ISZERO PUSH2 0x2DE6 JUMPI PUSH2 0x2DE5 PUSH2 0x2D8C JUMP JUMPDEST JUMPDEST SWAP3 SWAP2 POP POP JUMP JUMPDEST PUSH0 PUSH1 0x20 DUP3 ADD SWAP1 POP PUSH2 0x2DFF PUSH0 DUP4 ADD DUP5 PUSH2 0x221E JUMP JUMPDEST SWAP3 SWAP2 POP POP JUMP JUMPDEST PUSH32 0x4E487B7100000000000000000000000000000000000000000000000000000000 PUSH0 MSTORE PUSH1 0x32 PUSH1 0x4 MSTORE PUSH1 0x24 PUSH0 REVERT JUMPDEST PUSH32 0x496E76616C69642070726F6A6563747320696E64657800000000000000000000 PUSH0 DUP3 ADD MSTORE POP JUMP JUMPDEST PUSH0 PUSH2 0x2E66 PUSH1 0x16 DUP4 PUSH2 0x21B8 JUMP JUMPDEST SWAP2 POP PUSH2 0x2E71 DUP3 PUSH2 0x2E32 JUMP JUMPDEST PUSH1 0x20 DUP3 ADD SWAP1 POP SWAP2 SWAP1 POP JUMP JUMPDEST PUSH0 PUSH1 0x20 DUP3 ADD SWAP1 POP DUP2 DUP2 SUB PUSH0 DUP4 ADD MSTORE PUSH2 0x2E93 DUP2 PUSH2 0x2E5A JUMP JUMPDEST SWAP1 POP SWAP2 SWAP1 POP JUMP JUMPDEST PUSH32 0x50726F6A656374206D7573742062652061637469766500000000000000000000 PUSH0 DUP3 ADD MSTORE POP JUMP JUMPDEST PUSH0 PUSH2 0x2ECE PUSH1 0x16 DUP4 PUSH2 0x21B8 JUMP JUMPDEST SWAP2 POP PUSH2 0x2ED9 DUP3 PUSH2 0x2E9A JUMP JUMPDEST PUSH1 0x20 DUP3 ADD SWAP1 POP SWAP2 SWAP1 POP JUMP JUMPDEST PUSH0 PUSH1 0x20 DUP3 ADD SWAP1 POP DUP2 DUP2 SUB PUSH0 DUP4 ADD MSTORE PUSH2 0x2EFB DUP2 PUSH2 0x2EC2 JUMP JUMPDEST SWAP1 POP SWAP2 SWAP1 POP JUMP JUMPDEST PUSH32 0x4D696C6573746F6E652073686F756C64206265206E6F74207265616368656400 PUSH0 DUP3 ADD MSTORE POP JUMP JUMPDEST PUSH0 PUSH2 0x2F36 PUSH1 0x1F DUP4 PUSH2 0x21B8 JUMP JUMPDEST SWAP2 POP PUSH2 0x2F41 DUP3 PUSH2 0x2F02 JUMP JUMPDEST PUSH1 0x20 DUP3 ADD SWAP1 POP SWAP2 SWAP1 POP JUMP JUMPDEST PUSH0 PUSH1 0x20 DUP3 ADD SWAP1 POP DUP2 DUP2 SUB PUSH0 DUP4 ADD MSTORE PUSH2 0x2F63 DUP2 PUSH2 0x2F2A JUMP JUMPDEST SWAP1 POP SWAP2 SWAP1 POP JUMP JUMPDEST PUSH0 PUSH1 0x80 DUP3 ADD SWAP1 POP PUSH2 0x2F7D PUSH0 DUP4 ADD DUP8 PUSH2 0x221E JUMP JUMPDEST PUSH2 0x2F8A PUSH1 0x20 DUP4 ADD DUP7 PUSH2 0x221E JUMP JUMPDEST PUSH2 0x2F97 PUSH1 0x40 DUP4 ADD DUP6 PUSH2 0x221E JUMP JUMPDEST PUSH2 0x2FA4 PUSH1 0x60 DUP4 ADD DUP5 PUSH2 0x221E JUMP JUMPDEST SWAP6 SWAP5 POP POP POP POP POP JUMP JUMPDEST PUSH32 0x50726F6A65637420646F65736E27742065786973740000000000000000000000 PUSH0 DUP3 ADD MSTORE POP JUMP JUMPDEST PUSH0 PUSH2 0x2FE1 PUSH1 0x15 DUP4 PUSH2 0x21B8 JUMP JUMPDEST SWAP2 POP PUSH2 0x2FEC DUP3 PUSH2 0x2FAD JUMP JUMPDEST PUSH1 0x20 DUP3 ADD SWAP1 POP SWAP2 SWAP1 POP JUMP JUMPDEST PUSH0 PUSH1 0x20 DUP3 ADD SWAP1 POP DUP2 DUP2 SUB PUSH0 DUP4 ADD MSTORE PUSH2 0x300E DUP2 PUSH2 0x2FD5 JUMP JUMPDEST SWAP1 POP SWAP2 SWAP1 POP JUMP JUMPDEST PUSH32 0x596F7520646F6E74206861766520656E6F756768206D6F6E657920746F206675 PUSH0 DUP3 ADD MSTORE PUSH32 0x6E64000000000000000000000000000000000000000000000000000000000000 PUSH1 0x20 DUP3 ADD MSTORE POP JUMP JUMPDEST PUSH0 PUSH2 0x306F PUSH1 0x22 DUP4 PUSH2 0x21B8 JUMP JUMPDEST SWAP2 POP PUSH2 0x307A DUP3 PUSH2 0x3015 JUMP JUMPDEST PUSH1 0x40 DUP3 ADD SWAP1 POP SWAP2 SWAP1 POP JUMP JUMPDEST PUSH0 PUSH1 0x20 DUP3 ADD SWAP1 POP DUP2 DUP2 SUB PUSH0 DUP4 ADD MSTORE PUSH2 0x309C DUP2 PUSH2 0x3063 JUMP JUMPDEST SWAP1 POP SWAP2 SWAP1 POP JUMP JUMPDEST PUSH32 0x46756E6420616D6F756E742063616E2774206265203000000000000000000000 PUSH0 DUP3 ADD MSTORE POP JUMP JUMPDEST PUSH0 PUSH2 0x30D7 PUSH1 0x16 DUP4 PUSH2 0x21B8 JUMP JUMPDEST SWAP2 POP PUSH2 0x30E2 DUP3 PUSH2 0x30A3 JUMP JUMPDEST PUSH1 0x20 DUP3 ADD SWAP1 POP SWAP2 SWAP1 POP JUMP JUMPDEST PUSH0 PUSH1 0x20 DUP3 ADD SWAP1 POP DUP2 DUP2 SUB PUSH0 DUP4 ADD MSTORE PUSH2 0x3104 DUP2 PUSH2 0x30CB JUMP JUMPDEST SWAP1 POP SWAP2 SWAP1 POP JUMP JUMPDEST PUSH32 0x50726F6A656374206D7573742062652061637469766520746F2066756E640000 PUSH0 DUP3 ADD MSTORE POP JUMP JUMPDEST PUSH0 PUSH2 0x313F PUSH1 0x1E DUP4 PUSH2 0x21B8 JUMP JUMPDEST SWAP2 POP PUSH2 0x314A DUP3 PUSH2 0x310B JUMP JUMPDEST PUSH1 0x20 DUP3 ADD SWAP1 POP SWAP2 SWAP1 POP JUMP JUMPDEST PUSH0 PUSH1 0x20 DUP3 ADD SWAP1 POP DUP2 DUP2 SUB PUSH0 DUP4 ADD MSTORE PUSH2 0x316C DUP2 PUSH2 0x3133 JUMP JUMPDEST SWAP1 POP SWAP2 SWAP1 POP JUMP JUMPDEST PUSH32 0x596F752063616E27742066756E6420616674657220646561646C696E65000000 PUSH0 DUP3 ADD MSTORE POP JUMP JUMPDEST PUSH0 PUSH2 0x31A7 PUSH1 0x1D DUP4 PUSH2 0x21B8 JUMP JUMPDEST SWAP2 POP PUSH2 0x31B2 DUP3 PUSH2 0x3173 JUMP JUMPDEST PUSH1 0x20 DUP3 ADD SWAP1 POP SWAP2 SWAP1 POP JUMP JUMPDEST PUSH0 PUSH1 0x20 DUP3 ADD SWAP1 POP DUP2 DUP2 SUB PUSH0 DUP4 ADD MSTORE PUSH2 0x31D4 DUP2 PUSH2 0x319B JUMP JUMPDEST SWAP1 POP SWAP2 SWAP1 POP JUMP JUMPDEST PUSH0 PUSH2 0x31E5 DUP3 PUSH2 0x2150 JUMP JUMPDEST SWAP2 POP PUSH2 0x31F0 DUP4 PUSH2 0x2150 JUMP JUMPDEST SWAP3 POP DUP3 DUP3 ADD SWAP1 POP DUP1 DUP3 GT ISZERO PUSH2 0x3208 JUMPI PUSH2 0x3207 PUSH2 0x2D8C JUMP JUMPDEST JUMPDEST SWAP3 SWAP2 POP POP JUMP JUMPDEST PUSH0 DUP2 SWAP1 POP SWAP3 SWAP2 POP POP JUMP JUMPDEST POP JUMP JUMPDEST PUSH0 PUSH2 0x3226 PUSH0 DUP4 PUSH2 0x320E JUMP JUMPDEST SWAP2 POP PUSH2 0x3231 DUP3 PUSH2 0x3218 JUMP JUMPDEST PUSH0 DUP3 ADD SWAP1 POP SWAP2 SWAP1 POP JUMP JUMPDEST PUSH0 PUSH2 0x3245 DUP3 PUSH2 0x321B JUMP JUMPDEST SWAP2 POP DUP2 SWAP1 POP SWAP2 SWAP1 POP JUMP JUMPDEST PUSH32 0x4661696C656420746F2072657475726E20737572706C75730000000000000000 PUSH0 DUP3 ADD MSTORE POP JUMP JUMPDEST PUSH0 PUSH2 0x3283 PUSH1 0x18 DUP4 PUSH2 0x21B8 JUMP JUMPDEST SWAP2 POP PUSH2 0x328E DUP3 PUSH2 0x324F JUMP JUMPDEST PUSH1 0x20 DUP3 ADD SWAP1 POP SWAP2 SWAP1 POP JUMP JUMPDEST PUSH0 PUSH1 0x20 DUP3 ADD SWAP1 POP DUP2 DUP2 SUB PUSH0 DUP4 ADD MSTORE PUSH2 0x32B0 DUP2 PUSH2 0x3277 JUMP JUMPDEST SWAP1 POP SWAP2 SWAP1 POP JUMP JUMPDEST PUSH32 0x4F6E6C792073797374656D206F776E6572206F722070726F6A656374206F776E PUSH0 DUP3 ADD MSTORE PUSH32 0x65722063616E2073746F702070726F6A65637473000000000000000000000000 PUSH1 0x20 DUP3 ADD MSTORE POP JUMP JUMPDEST PUSH0 PUSH2 0x3311 PUSH1 0x34 DUP4 PUSH2 0x21B8 JUMP JUMPDEST SWAP2 POP PUSH2 0x331C DUP3 PUSH2 0x32B7 JUMP JUMPDEST PUSH1 0x40 DUP3 ADD SWAP1 POP SWAP2 SWAP1 POP JUMP JUMPDEST PUSH0 PUSH1 0x20 DUP3 ADD SWAP1 POP DUP2 DUP2 SUB PUSH0 DUP4 ADD MSTORE PUSH2 0x333E DUP2 PUSH2 0x3305 JUMP JUMPDEST SWAP1 POP SWAP2 SWAP1 POP JUMP JUMPDEST PUSH32 0x43616E6E6F7420616464206E6577206D696C6573746F6E657320746F20696E61 PUSH0 DUP3 ADD MSTORE PUSH32 0x63746976652070726F6A65637400000000000000000000000000000000000000 PUSH1 0x20 DUP3 ADD MSTORE POP JUMP JUMPDEST PUSH0 PUSH2 0x339F PUSH1 0x2D DUP4 PUSH2 0x21B8 JUMP JUMPDEST SWAP2 POP PUSH2 0x33AA DUP3 PUSH2 0x3345 JUMP JUMPDEST PUSH1 0x40 DUP3 ADD SWAP1 POP SWAP2 SWAP1 POP JUMP JUMPDEST PUSH0 PUSH1 0x20 DUP3 ADD SWAP1 POP DUP2 DUP2 SUB PUSH0 DUP4 ADD MSTORE PUSH2 0x33CC DUP2 PUSH2 0x3393 JUMP JUMPDEST SWAP1 POP SWAP2 SWAP1 POP JUMP JUMPDEST PUSH32 0x4F6E6C792070726F6A6563742063726561746F722063616E20616464206E6577 PUSH0 DUP3 ADD MSTORE PUSH32 0x206D696C6573746F6E6573000000000000000000000000000000000000000000 PUSH1 0x20 DUP3 ADD MSTORE POP JUMP JUMPDEST PUSH0 PUSH2 0x342D PUSH1 0x2B DUP4 PUSH2 0x21B8 JUMP JUMPDEST SWAP2 POP PUSH2 0x3438 DUP3 PUSH2 0x33D3 JUMP JUMPDEST PUSH1 0x40 DUP3 ADD SWAP1 POP SWAP2 SWAP1 POP JUMP JUMPDEST PUSH0 PUSH1 0x20 DUP3 ADD SWAP1 POP DUP2 DUP2 SUB PUSH0 DUP4 ADD MSTORE PUSH2 0x345A DUP2 PUSH2 0x3421 JUMP JUMPDEST SWAP1 POP SWAP2 SWAP1 POP JUMP JUMPDEST PUSH32 0x4D7573742068617665206174206C65617374206F6E65206D696C6573746F6E65 PUSH0 DUP3 ADD MSTORE POP JUMP JUMPDEST PUSH0 PUSH2 0x3495 PUSH1 0x20 DUP4 PUSH2 0x21B8 JUMP JUMPDEST SWAP2 POP PUSH2 0x34A0 DUP3 PUSH2 0x3461 JUMP JUMPDEST PUSH1 0x20 DUP3 ADD SWAP1 POP SWAP2 SWAP1 POP JUMP JUMPDEST PUSH0 PUSH1 0x20 DUP3 ADD SWAP1 POP DUP2 DUP2 SUB PUSH0 DUP4 ADD MSTORE PUSH2 0x34C2 DUP2 PUSH2 0x3489 JUMP JUMPDEST SWAP1 POP SWAP2 SWAP1 POP JUMP JUMPDEST PUSH32 0x476F616C20616D6F756E742063616E2774206265203000000000000000000000 PUSH0 DUP3 ADD MSTORE POP JUMP JUMPDEST PUSH0 PUSH2 0x34FD PUSH1 0x16 DUP4 PUSH2 0x21B8 JUMP JUMPDEST SWAP2 POP PUSH2 0x3508 DUP3 PUSH2 0x34C9 JUMP JUMPDEST PUSH1 0x20 DUP3 ADD SWAP1 POP SWAP2 SWAP1 POP JUMP JUMPDEST PUSH0 PUSH1 0x20 DUP3 ADD SWAP1 POP DUP2 DUP2 SUB PUSH0 DUP4 ADD MSTORE PUSH2 0x352A DUP2 PUSH2 0x34F1 JUMP JUMPDEST SWAP1 POP SWAP2 SWAP1 POP JUMP JUMPDEST PUSH32 0x446561646C696E652063616E277420626520696E207468652070617374000000 PUSH0 DUP3 ADD MSTORE POP JUMP JUMPDEST PUSH0 PUSH2 0x3565 PUSH1 0x1D DUP4 PUSH2 0x21B8 JUMP JUMPDEST SWAP2 POP PUSH2 0x3570 DUP3 PUSH2 0x3531 JUMP JUMPDEST PUSH1 0x20 DUP3 ADD SWAP1 POP SWAP2 SWAP1 POP JUMP JUMPDEST PUSH0 PUSH1 0x20 DUP3 ADD SWAP1 POP DUP2 DUP2 SUB PUSH0 DUP4 ADD MSTORE PUSH2 0x3592 DUP2 PUSH2 0x3559 JUMP JUMPDEST SWAP1 POP SWAP2 SWAP1 POP JUMP JUMPDEST PUSH32 0x4D696C6573746F6E6520676F616C732073686F756C6420626520696E63726561 PUSH0 DUP3 ADD MSTORE PUSH32 0x73696E6700000000000000000000000000000000000000000000000000000000 PUSH1 0x20 DUP3 ADD MSTORE POP JUMP JUMPDEST PUSH0 PUSH2 0x35F3 PUSH1 0x24 DUP4 PUSH2 0x21B8 JUMP JUMPDEST SWAP2 POP PUSH2 0x35FE DUP3 PUSH2 0x3599 JUMP JUMPDEST PUSH1 0x40 DUP3 ADD SWAP1 POP SWAP2 SWAP1 POP JUMP JUMPDEST PUSH0 PUSH1 0x20 DUP3 ADD SWAP1 POP DUP2 DUP2 SUB PUSH0 DUP4 ADD MSTORE PUSH2 0x3620 DUP2 PUSH2 0x35E7 JUMP JUMPDEST SWAP1 POP SWAP2 SWAP1 POP JUMP JUMPDEST PUSH32 0x4D696C6573746F6E6520646561646C696E65732073686F756C6420626520696E PUSH0 DUP3 ADD MSTORE PUSH32 0x6372656173696E67000000000000000000000000000000000000000000000000 PUSH1 0x20 DUP3 ADD MSTORE POP JUMP JUMPDEST PUSH0 PUSH2 0x3681 PUSH1 0x28 DUP4 PUSH2 0x21B8 JUMP JUMPDEST SWAP2 POP PUSH2 0x368C DUP3 PUSH2 0x3627 JUMP JUMPDEST PUSH1 0x40 DUP3 ADD SWAP1 POP SWAP2 SWAP1 POP JUMP JUMPDEST PUSH0 PUSH1 0x20 DUP3 ADD SWAP1 POP DUP2 DUP2 SUB PUSH0 DUP4 ADD MSTORE PUSH2 0x36AE DUP2 PUSH2 0x3675 JUMP JUMPDEST SWAP1 POP SWAP2 SWAP1 POP JUMP JUMPDEST PUSH0 PUSH2 0x36BF DUP3 PUSH2 0x2150 JUMP JUMPDEST SWAP2 POP PUSH32 0xFFFFFFFFFFFFFFFFFFFFFFFFFFFFFFFFFFFFFFFFFFFFFFFFFFFFFFFFFFFFFFFF DUP3 SUB PUSH2 0x36F1 JUMPI PUSH2 0x36F0 PUSH2 0x2D8C JUMP JUMPDEST JUMPDEST PUSH1 0x1 DUP3 ADD SWAP1 POP SWAP2 SWAP1 POP JUMP JUMPDEST PUSH32 0x43616E6E6F742073746F7020696E6163746976652070726F6A65637400000000 PUSH0 DUP3 ADD MSTORE POP JUMP JUMPDEST PUSH0 PUSH2 0x3730 PUSH1 0x1C DUP4 PUSH2 0x21B8 JUMP JUMPDEST SWAP2 POP PUSH2 0x373B DUP3 PUSH2 0x36FC JUMP JUMPDEST PUSH1 0x20 DUP3 ADD SWAP1 POP SWAP2 SWAP1 POP JUMP JUMPDEST PUSH0 PUSH1 0x20 DUP3 ADD SWAP1 POP DUP2 DUP2 SUB PUSH0 DUP4 ADD MSTORE PUSH2 0x375D DUP2 PUSH2 0x3724 JUMP JUMPDEST SWAP1 POP SWAP2 SWAP1 POP JUMP JUMPDEST PUSH32 0x5472616E7366657220746F2063726561746F72206661696C6564000000000000 PUSH0 DUP3 ADD MSTORE POP JUMP JUMPDEST PUSH0 PUSH2 0x3798 PUSH1 0x1A DUP4 PUSH2 0x21B8 JUMP JUMPDEST SWAP2 POP PUSH2 0x37A3 DUP3 PUSH2 0x3764 JUMP JUMPDEST PUSH1 0x20 DUP3 ADD SWAP1 POP SWAP2 SWAP1 POP JUMP JUMPDEST PUSH0 PUSH1 0x20 DUP3 ADD SWAP1 POP DUP2 DUP2 SUB PUSH0 DUP4 ADD MSTORE PUSH2 0x37C5 DUP2 PUSH2 0x378C JUMP JUMPDEST SWAP1 POP SWAP2 SWAP1 POP JUMP JUMPDEST PUSH32 0x526566756E64206661696C656400000000000000000000000000000000000000 PUSH0 DUP3 ADD MSTORE POP JUMP JUMPDEST PUSH0 PUSH2 0x3800 PUSH1 0xD DUP4 PUSH2 0x21B8 JUMP JUMPDEST SWAP2 POP PUSH2 0x380B DUP3 PUSH2 0x37CC JUMP JUMPDEST PUSH1 0x20 DUP3 ADD SWAP1 POP SWAP2 SWAP1 POP JUMP JUMPDEST PUSH0 PUSH1 0x20 DUP3 ADD SWAP1 POP DUP2 DUP2 SUB PUSH0 DUP4 ADD MSTORE PUSH2 0x382D DUP2 PUSH2 0x37F4 JUMP JUMPDEST SWAP1 POP SWAP2 SWAP1 POP JUMP INVALID LOG2 PUSH5 0x6970667358 0x22 SLT KECCAK256 DUPN 0xF2 0xB5 PUSH7 0xCA43EAC9B2BF8A 0xA7 0xC7 0xD8 SWAP4 PUSH12 0x9453F13703E44F225BBC3ED7 STOP 0xC4 BLOBBASEFEE PUSH14 0x64736F6C634300081E0033000000 "
		},
		"gasEstimates": {
			"creation": {
				"codeDepositCost": "2888400",
				"executionCost": "27424",
				"totalCost": "2915824"
			},
			"external": {
				"addNewMilestones(uint256,(uint256,uint256)[])": "infinite",
				"checkCurrentMilestone(uint256)": "infinite",
				"createProject(string,string,string,(uint256,uint256)[])": "infinite",
				"fundProject(uint256)": "infinite",
				"getAllActiveProjects()": "infinite",
				"getCurrentMilestoneFunders(uint256)": "infinite",
				"getCurrentMilestoneInfo(uint256)": "infinite",
				"getallMilestonesInfo(uint256)": "infinite",
				"projects(uint256)": "infinite",
				"stopProject(uint256)": "infinite",
				"sysOwner()": "2508"
			},
			"internal": {
				"initiateNextMilestone(uint256)": "infinite",
				"refundMilestone(uint256,uint256)": "infinite",
				"sendMoneyToOwner(address,uint256)": "infinite",
				"stopProjectHelper(uint256)": "infinite"
			}
		},
		"methodIdentifiers": {
			"addNewMilestones(uint256,(uint256,uint256)[])": "ae632181",
			"checkCurrentMilestone(uint256)": "4e94e824",
			"createProject(string,string,string,(uint256,uint256)[])": "1a86e67d",
			"fundProject(uint256)": "6c563abe",
			"getAllActiveProjects()": "f2ef441b",
			"getCurrentMilestoneFunders(uint256)": "33ec0fc5",
			"getCurrentMilestoneInfo(uint256)": "b99122af",
			"getallMilestonesInfo(uint256)": "d8a5b36d",
			"projects(uint256)": "107046bd",
			"stopProject(uint256)": "6db7a960",
			"sysOwner()": "0e4877d6"
		}
	},
	"abi": [
		{
			"inputs": [],
			"stateMutability": "nonpayable",
			"type": "constructor"
		},
		{
			"anonymous": false,
			"inputs": [
				{
					"indexed": false,
					"internalType": "uint256",
					"name": "deadline",
					"type": "uint256"
				},
				{
					"indexed": false,
					"internalType": "uint256",
					"name": "goalAmount",
					"type": "uint256"
				},
				{
					"indexed": false,
					"internalType": "uint256",
					"name": "totalFunded",
					"type": "uint256"
				},
				{
					"indexed": false,
					"internalType": "uint256",
					"name": "currentMileStoneTotalFunded",
					"type": "uint256"
				}
			],
			"name": "CurrentMilestoneStatus",
			"type": "event"
		},
		{
			"anonymous": false,
			"inputs": [
				{
					"indexed": false,
					"internalType": "uint256",
					"name": "projectIndex",
					"type": "uint256"
				}
			],
			"name": "ProjectCreated",
			"type": "event"
		},
		{
			"anonymous": false,
			"inputs": [
				{
					"indexed": false,
					"internalType": "uint256",
					"name": "projectIndex",
					"type": "uint256"
				},
				{
					"indexed": false,
					"internalType": "uint256",
					"name": "amount",
					"type": "uint256"
				},
				{
					"indexed": false,
					"internalType": "uint256",
					"name": "totalFunded",
					"type": "uint256"
				},
				{
					"indexed": false,
					"internalType": "uint256",
					"name": "currentMilestoneTotalFunded",
					"type": "uint256"
				}
			],
			"name": "ProjectFunded",
			"type": "event"
		},
		{
			"inputs": [
				{
					"internalType": "uint256",
					"name": "projectIndex",
					"type": "uint256"
				},
				{
					"components": [
						{
							"internalType": "uint256",
							"name": "goalAmount",
							"type": "uint256"
						},
						{
							"internalType": "uint256",
							"name": "deadline",
							"type": "uint256"
						}
					],
					"internalType": "struct MilestoneInfo[]",
					"name": "milestones",
					"type": "tuple[]"
				}
			],
			"name": "addNewMilestones",
			"outputs": [],
			"stateMutability": "nonpayable",
			"type": "function"
		},
		{
			"inputs": [
				{
					"internalType": "uint256",
					"name": "projectIndex",
					"type": "uint256"
				}
			],
			"name": "checkCurrentMilestone",
			"outputs": [],
			"stateMutability": "nonpayable",
			"type": "function"
		},
		{
			"inputs": [
				{
					"internalType": "string",
					"name": "name",
					"type": "string"
				},
				{
					"internalType": "string",
					"name": "headerImageUrl",
					"type": "string"
				},
				{
					"internalType": "string",
					"name": "description",
					"type": "string"
				},
				{
					"components": [
						{
							"internalType": "uint256",
							"name": "goalAmount",
							"type": "uint256"
						},
						{
							"internalType": "uint256",
							"name": "deadline",
							"type": "uint256"
						}
					],
					"internalType": "struct MilestoneInfo[]",
					"name": "milestones",
					"type": "tuple[]"
				}
			],
			"name": "createProject",
			"outputs": [],
			"stateMutability": "nonpayable",
			"type": "function"
		},
		{
			"inputs": [
				{
					"internalType": "uint256",
					"name": "projectIndex",
					"type": "uint256"
				}
			],
			"name": "fundProject",
			"outputs": [],
			"stateMutability": "payable",
			"type": "function"
		},
		{
			"inputs": [],
			"name": "getAllActiveProjects",
			"outputs": [
				{
					"components": [
						{
							"internalType": "address",
							"name": "creator",
							"type": "address"
						},
						{
							"internalType": "string",
							"name": "name",
							"type": "string"
						},
						{
							"internalType": "string",
							"name": "headerImageUrl",
							"type": "string"
						},
						{
							"internalType": "string",
							"name": "description",
							"type": "string"
						},
						{
							"internalType": "uint256",
							"name": "totalFunded",
							"type": "uint256"
						},
						{
							"internalType": "uint256",
							"name": "currentMilestoneIndex",
							"type": "uint256"
						},
						{
							"internalType": "bool",
							"name": "isActive",
							"type": "bool"
						}
					],
					"internalType": "struct ProjectView[]",
					"name": "",
					"type": "tuple[]"
				}
			],
			"stateMutability": "view",
			"type": "function"
		},
		{
			"inputs": [
				{
					"internalType": "uint256",
					"name": "projectIndex",
					"type": "uint256"
				}
			],
			"name": "getCurrentMilestoneFunders",
			"outputs": [
				{
					"internalType": "address[]",
					"name": "",
					"type": "address[]"
				}
			],
			"stateMutability": "view",
			"type": "function"
		},
		{
			"inputs": [
				{
					"internalType": "uint256",
					"name": "projectIndex",
					"type": "uint256"
				}
			],
			"name": "getCurrentMilestoneInfo",
			"outputs": [
				{
					"components": [
						{
							"internalType": "uint256",
							"name": "goalAmount",
							"type": "uint256"
						},
						{
							"internalType": "uint256",
							"name": "deadline",
							"type": "uint256"
						}
					],
					"internalType": "struct MilestoneInfo",
					"name": "",
					"type": "tuple"
				}
			],
			"stateMutability": "view",
			"type": "function"
		},
		{
			"inputs": [
				{
					"internalType": "uint256",
					"name": "projectIndex",
					"type": "uint256"
				}
			],
			"name": "getallMilestonesInfo",
			"outputs": [
				{
					"components": [
						{
							"internalType": "uint256",
							"name": "goalAmount",
							"type": "uint256"
						},
						{
							"internalType": "uint256",
							"name": "deadline",
							"type": "uint256"
						}
					],
					"internalType": "struct MilestoneInfo[]",
					"name": "",
					"type": "tuple[]"
				}
			],
			"stateMutability": "view",
			"type": "function"
		},
		{
			"inputs": [
				{
					"internalType": "uint256",
					"name": "",
					"type": "uint256"
				}
			],
			"name": "projects",
			"outputs": [
				{
					"internalType": "address",
					"name": "creator",
					"type": "address"
				},
				{
					"internalType": "string",
					"name": "name",
					"type": "string"
				},
				{
					"internalType": "string",
					"name": "headerImageUrl",
					"type": "string"
				},
				{
					"internalType": "string",
					"name": "description",
					"type": "string"
				},
				{
					"internalType": "uint256",
					"name": "totalFunded",
					"type": "uint256"
				},
				{
					"internalType": "uint256",
					"name": "currentMilestoneIndex",
					"type": "uint256"
				},
				{
					"internalType": "bool",
					"name": "isActive",
					"type": "bool"
				}
			],
			"stateMutability": "view",
			"type": "function"
		},
		{
			"inputs": [
				{
					"internalType": "uint256",
					"name": "projectIndex",
					"type": "uint256"
				}
			],
			"name": "stopProject",
			"outputs": [],
			"stateMutability": "nonpayable",
			"type": "function"
		},
		{
			"inputs": [],
			"name": "sysOwner",
			"outputs": [
				{
					"internalType": "address",
					"name": "",
					"type": "address"
				}
			],
			"stateMutability": "view",
			"type": "function"
		}
	]
}