{
	"data": {
		"bytecode": {
			"linkReferences": {},
			"object": "6080604052348015600e575f5ffd5b50335f5f6101000a81548173ffffffffffffffffffffffffffffffffffffffff021916908373ffffffffffffffffffffffffffffffffffffffff160217905550610c868061005b5f395ff3fe608060405234801561000f575f5ffd5b506004361061003f575f3560e01c80630e4877d614610043578063107046bd146100615780633e7e12a614610095575b5f5ffd5b61004b6100b1565b6040516100589190610431565b60405180910390f35b61007b6004803603810190610076919061048e565b6100d5565b60405161008c959493929190610552565b60405180910390f35b6100af60048036038101906100aa91906107eb565b6101c7565b005b5f5f9054906101000a900473ffffffffffffffffffffffffffffffffffffffff1681565b600181815481106100e4575f80fd5b905f5260205f2090600602015f91509050805f015f9054906101000a900473ffffffffffffffffffffffffffffffffffffffff16908060010180546101289061088e565b80601f01602080910402602001604051908101604052809291908181526020018280546101549061088e565b801561019f5780601f106101765761010080835404028352916020019161019f565b820191905f5260205f20905b81548152906001019060200180831161018257829003601f168201915b505050505090806002015490806003015490806005015f9054906101000a900460ff16905085565b5f5f9054906101000a900473ffffffffffffffffffffffffffffffffffffffff1673ffffffffffffffffffffffffffffffffffffffff163373ffffffffffffffffffffffffffffffffffffffff1603610255576040517f08c379a000000000000000000000000000000000000000000000000000000000815260040161024c9061092e565b60405180910390fd5b5f815111610298576040517f08c379a000000000000000000000000000000000000000000000000000000000815260040161028f90610996565b60405180910390fd5b5f6001808160018154018082558091505003905f5260205f209060060201905033815f015f6101000a81548173ffffffffffffffffffffffffffffffffffffffff021916908373ffffffffffffffffffffffffffffffffffffffff1602179055508281600101908161030a9190610b54565b505f81600201819055505f81600301819055506001816005015f6101000a81548160ff0219169083151502179055505f5f90505b82518110156103ec575f8260040160018160018154018082558091505003905f5260205f209060050201905083828151811061037d5761037c610c23565b5b60200260200101515f0151815f015f01819055508382815181106103a4576103a3610c23565b5b602002602001015160200151815f01600101819055505f81600201819055505f816004015f6101000a81548160ff02191690831515021790555050808060010191505061033e565b50505050565b5f73ffffffffffffffffffffffffffffffffffffffff82169050919050565b5f61041b826103f2565b9050919050565b61042b81610411565b82525050565b5f6020820190506104445f830184610422565b92915050565b5f604051905090565b5f5ffd5b5f5ffd5b5f819050919050565b61046d8161045b565b8114610477575f5ffd5b50565b5f8135905061048881610464565b92915050565b5f602082840312156104a3576104a2610453565b5b5f6104b08482850161047a565b91505092915050565b5f81519050919050565b5f82825260208201905092915050565b8281835e5f83830152505050565b5f601f19601f8301169050919050565b5f6104fb826104b9565b61050581856104c3565b93506105158185602086016104d3565b61051e816104e1565b840191505092915050565b6105328161045b565b82525050565b5f8115159050919050565b61054c81610538565b82525050565b5f60a0820190506105655f830188610422565b818103602083015261057781876104f1565b90506105866040830186610529565b6105936060830185610529565b6105a06080830184610543565b9695505050505050565b5f5ffd5b5f5ffd5b7f4e487b71000000000000000000000000000000000000000000000000000000005f52604160045260245ffd5b6105e8826104e1565b810181811067ffffffffffffffff82111715610607576106066105b2565b5b80604052505050565b5f61061961044a565b905061062582826105df565b919050565b5f67ffffffffffffffff821115610644576106436105b2565b5b61064d826104e1565b9050602081019050919050565b828183375f83830152505050565b5f61067a6106758461062a565b610610565b905082815260208101848484011115610696576106956105ae565b5b6106a184828561065a565b509392505050565b5f82601f8301126106bd576106bc6105aa565b5b81356106cd848260208601610668565b91505092915050565b5f67ffffffffffffffff8211156106f0576106ef6105b2565b5b602082029050602081019050919050565b5f5ffd5b5f5ffd5b5f6040828403121561071e5761071d610705565b5b6107286040610610565b90505f6107378482850161047a565b5f83015250602061074a8482850161047a565b60208301525092915050565b5f610768610763846106d6565b610610565b9050808382526020820190506040840283018581111561078b5761078a610701565b5b835b818110156107b457806107a08882610709565b84526020840193505060408101905061078d565b5050509392505050565b5f82601f8301126107d2576107d16105aa565b5b81356107e2848260208601610756565b91505092915050565b5f5f6040838503121561080157610800610453565b5b5f83013567ffffffffffffffff81111561081e5761081d610457565b5b61082a858286016106a9565b925050602083013567ffffffffffffffff81111561084b5761084a610457565b5b610857858286016107be565b9150509250929050565b7f4e487b71000000000000000000000000000000000000000000000000000000005f52602260045260245ffd5b5f60028204905060018216806108a557607f821691505b6020821081036108b8576108b7610861565b5b50919050565b7f53797374656d206f776e65722063616e2774206372656174652070726f6a65635f8201527f7473000000000000000000000000000000000000000000000000000000000000602082015250565b5f6109186022836104c3565b9150610923826108be565b604082019050919050565b5f6020820190508181035f8301526109458161090c565b9050919050565b7f4d7573742068617665206174206c65617374206f6e65206d696c6573746f6e655f82015250565b5f6109806020836104c3565b915061098b8261094c565b602082019050919050565b5f6020820190508181035f8301526109ad81610974565b9050919050565b5f819050815f5260205f209050919050565b5f6020601f8301049050919050565b5f82821b905092915050565b5f60088302610a107fffffffffffffffffffffffffffffffffffffffffffffffffffffffffffffffff826109d5565b610a1a86836109d5565b95508019841693508086168417925050509392505050565b5f819050919050565b5f610a55610a50610a4b8461045b565b610a32565b61045b565b9050919050565b5f819050919050565b610a6e83610a3b565b610a82610a7a82610a5c565b8484546109e1565b825550505050565b5f5f905090565b610a99610a8a565b610aa4818484610a65565b505050565b5b81811015610ac757610abc5f82610a91565b600181019050610aaa565b5050565b601f821115610b0c57610add816109b4565b610ae6846109c6565b81016020851015610af5578190505b610b09610b01856109c6565b830182610aa9565b50505b505050565b5f82821c905092915050565b5f610b2c5f1984600802610b11565b1980831691505092915050565b5f610b448383610b1d565b9150826002028217905092915050565b610b5d826104b9565b67ffffffffffffffff811115610b7657610b756105b2565b5b610b80825461088e565b610b8b828285610acb565b5f60209050601f831160018114610bbc575f8415610baa578287015190505b610bb48582610b39565b865550610c1b565b601f198416610bca866109b4565b5f5b82811015610bf157848901518255600182019150602085019450602081019050610bcc565b86831015610c0e5784890151610c0a601f891682610b1d565b8355505b6001600288020188555050505b505050505050565b7f4e487b71000000000000000000000000000000000000000000000000000000005f52603260045260245ffdfea2646970667358221220defa442fd236189f28a40d50bfea6e4f8e719d2520f22873ffaadf4aba0316b664736f6c634300081e0033",
			"opcodes": "PUSH1 0x80 PUSH1 0x40 MSTORE CALLVALUE DUP1 ISZERO PUSH1 0xE JUMPI PUSH0 PUSH0 REVERT JUMPDEST POP CALLER PUSH0 PUSH0 PUSH2 0x100 EXP DUP2 SLOAD DUP2 PUSH20 0xFFFFFFFFFFFFFFFFFFFFFFFFFFFFFFFFFFFFFFFF MUL NOT AND SWAP1 DUP4 PUSH20 0xFFFFFFFFFFFFFFFFFFFFFFFFFFFFFFFFFFFFFFFF AND MUL OR SWAP1 SSTORE POP PUSH2 0xC86 DUP1 PUSH2 0x5B PUSH0 CODECOPY PUSH0 RETURN INVALID PUSH1 0x80 PUSH1 0x40 MSTORE CALLVALUE DUP1 ISZERO PUSH2 0xF JUMPI PUSH0 PUSH0 REVERT JUMPDEST POP PUSH1 0x4 CALLDATASIZE LT PUSH2 0x3F JUMPI PUSH0 CALLDATALOAD PUSH1 0xE0 SHR DUP1 PUSH4 0xE4877D6 EQ PUSH2 0x43 JUMPI DUP1 PUSH4 0x107046BD EQ PUSH2 0x61 JUMPI DUP1 PUSH4 0x3E7E12A6 EQ PUSH2 0x95 JUMPI JUMPDEST PUSH0 PUSH0 REVERT JUMPDEST PUSH2 0x4B PUSH2 0xB1 JUMP JUMPDEST PUSH1 0x40 MLOAD PUSH2 0x58 SWAP2 SWAP1 PUSH2 0x431 JUMP JUMPDEST PUSH1 0x40 MLOAD DUP1 SWAP2 SUB SWAP1 RETURN JUMPDEST PUSH2 0x7B PUSH1 0x4 DUP1 CALLDATASIZE SUB DUP2 ADD SWAP1 PUSH2 0x76 SWAP2 SWAP1 PUSH2 0x48E JUMP JUMPDEST PUSH2 0xD5 JUMP JUMPDEST PUSH1 0x40 MLOAD PUSH2 0x8C SWAP6 SWAP5 SWAP4 SWAP3 SWAP2 SWAP1 PUSH2 0x552 JUMP JUMPDEST PUSH1 0x40 MLOAD DUP1 SWAP2 SUB SWAP1 RETURN JUMPDEST PUSH2 0xAF PUSH1 0x4 DUP1 CALLDATASIZE SUB DUP2 ADD SWAP1 PUSH2 0xAA SWAP2 SWAP1 PUSH2 0x7EB JUMP JUMPDEST PUSH2 0x1C7 JUMP JUMPDEST STOP JUMPDEST PUSH0 PUSH0 SWAP1 SLOAD SWAP1 PUSH2 0x100 EXP SWAP1 DIV PUSH20 0xFFFFFFFFFFFFFFFFFFFFFFFFFFFFFFFFFFFFFFFF AND DUP2 JUMP JUMPDEST PUSH1 0x1 DUP2 DUP2 SLOAD DUP2 LT PUSH2 0xE4 JUMPI PUSH0 DUP1 REVERT JUMPDEST SWAP1 PUSH0 MSTORE PUSH1 0x20 PUSH0 KECCAK256 SWAP1 PUSH1 0x6 MUL ADD PUSH0 SWAP2 POP SWAP1 POP DUP1 PUSH0 ADD PUSH0 SWAP1 SLOAD SWAP1 PUSH2 0x100 EXP SWAP1 DIV PUSH20 0xFFFFFFFFFFFFFFFFFFFFFFFFFFFFFFFFFFFFFFFF AND SWAP1 DUP1 PUSH1 0x1 ADD DUP1 SLOAD PUSH2 0x128 SWAP1 PUSH2 0x88E JUMP JUMPDEST DUP1 PUSH1 0x1F ADD PUSH1 0x20 DUP1 SWAP2 DIV MUL PUSH1 0x20 ADD PUSH1 0x40 MLOAD SWAP1 DUP2 ADD PUSH1 0x40 MSTORE DUP1 SWAP3 SWAP2 SWAP1 DUP2 DUP2 MSTORE PUSH1 0x20 ADD DUP3 DUP1 SLOAD PUSH2 0x154 SWAP1 PUSH2 0x88E JUMP JUMPDEST DUP1 ISZERO PUSH2 0x19F JUMPI DUP1 PUSH1 0x1F LT PUSH2 0x176 JUMPI PUSH2 0x100 DUP1 DUP4 SLOAD DIV MUL DUP4 MSTORE SWAP2 PUSH1 0x20 ADD SWAP2 PUSH2 0x19F JUMP JUMPDEST DUP3 ADD SWAP2 SWAP1 PUSH0 MSTORE PUSH1 0x20 PUSH0 KECCAK256 SWAP1 JUMPDEST DUP2 SLOAD DUP2 MSTORE SWAP1 PUSH1 0x1 ADD SWAP1 PUSH1 0x20 ADD DUP1 DUP4 GT PUSH2 0x182 JUMPI DUP3 SWAP1 SUB PUSH1 0x1F AND DUP3 ADD SWAP2 JUMPDEST POP POP POP POP POP SWAP1 DUP1 PUSH1 0x2 ADD SLOAD SWAP1 DUP1 PUSH1 0x3 ADD SLOAD SWAP1 DUP1 PUSH1 0x5 ADD PUSH0 SWAP1 SLOAD SWAP1 PUSH2 0x100 EXP SWAP1 DIV PUSH1 0xFF AND SWAP1 POP DUP6 JUMP JUMPDEST PUSH0 PUSH0 SWAP1 SLOAD SWAP1 PUSH2 0x100 EXP SWAP1 DIV PUSH20 0xFFFFFFFFFFFFFFFFFFFFFFFFFFFFFFFFFFFFFFFF AND PUSH20 0xFFFFFFFFFFFFFFFFFFFFFFFFFFFFFFFFFFFFFFFF AND CALLER PUSH20 0xFFFFFFFFFFFFFFFFFFFFFFFFFFFFFFFFFFFFFFFF AND SUB PUSH2 0x255 JUMPI PUSH1 0x40 MLOAD PUSH32 0x8C379A000000000000000000000000000000000000000000000000000000000 DUP2 MSTORE PUSH1 0x4 ADD PUSH2 0x24C SWAP1 PUSH2 0x92E JUMP JUMPDEST PUSH1 0x40 MLOAD DUP1 SWAP2 SUB SWAP1 REVERT JUMPDEST PUSH0 DUP2 MLOAD GT PUSH2 0x298 JUMPI PUSH1 0x40 MLOAD PUSH32 0x8C379A000000000000000000000000000000000000000000000000000000000 DUP2 MSTORE PUSH1 0x4 ADD PUSH2 0x28F SWAP1 PUSH2 0x996 JUMP JUMPDEST PUSH1 0x40 MLOAD DUP1 SWAP2 SUB SWAP1 REVERT JUMPDEST PUSH0 PUSH1 0x1 DUP1 DUP2 PUSH1 0x1 DUP2 SLOAD ADD DUP1 DUP3 SSTORE DUP1 SWAP2 POP POP SUB SWAP1 PUSH0 MSTORE PUSH1 0x20 PUSH0 KECCAK256 SWAP1 PUSH1 0x6 MUL ADD SWAP1 POP CALLER DUP2 PUSH0 ADD PUSH0 PUSH2 0x100 EXP DUP2 SLOAD DUP2 PUSH20 0xFFFFFFFFFFFFFFFFFFFFFFFFFFFFFFFFFFFFFFFF MUL NOT AND SWAP1 DUP4 PUSH20 0xFFFFFFFFFFFFFFFFFFFFFFFFFFFFFFFFFFFFFFFF AND MUL OR SWAP1 SSTORE POP DUP3 DUP2 PUSH1 0x1 ADD SWAP1 DUP2 PUSH2 0x30A SWAP2 SWAP1 PUSH2 0xB54 JUMP JUMPDEST POP PUSH0 DUP2 PUSH1 0x2 ADD DUP2 SWAP1 SSTORE POP PUSH0 DUP2 PUSH1 0x3 ADD DUP2 SWAP1 SSTORE POP PUSH1 0x1 DUP2 PUSH1 0x5 ADD PUSH0 PUSH2 0x100 EXP DUP2 SLOAD DUP2 PUSH1 0xFF MUL NOT AND SWAP1 DUP4 ISZERO ISZERO MUL OR SWAP1 SSTORE POP PUSH0 PUSH0 SWAP1 POP JUMPDEST DUP3 MLOAD DUP2 LT ISZERO PUSH2 0x3EC JUMPI PUSH0 DUP3 PUSH1 0x4 ADD PUSH1 0x1 DUP2 PUSH1 0x1 DUP2 SLOAD ADD DUP1 DUP3 SSTORE DUP1 SWAP2 POP POP SUB SWAP1 PUSH0 MSTORE PUSH1 0x20 PUSH0 KECCAK256 SWAP1 PUSH1 0x5 MUL ADD SWAP1 POP DUP4 DUP3 DUP2 MLOAD DUP2 LT PUSH2 0x37D JUMPI PUSH2 0x37C PUSH2 0xC23 JUMP JUMPDEST JUMPDEST PUSH1 0x20 MUL PUSH1 0x20 ADD ADD MLOAD PUSH0 ADD MLOAD DUP2 PUSH0 ADD PUSH0 ADD DUP2 SWAP1 SSTORE POP DUP4 DUP3 DUP2 MLOAD DUP2 LT PUSH2 0x3A4 JUMPI PUSH2 0x3A3 PUSH2 0xC23 JUMP JUMPDEST JUMPDEST PUSH1 0x20 MUL PUSH1 0x20 ADD ADD MLOAD PUSH1 0x20 ADD MLOAD DUP2 PUSH0 ADD PUSH1 0x1 ADD DUP2 SWAP1 SSTORE POP PUSH0 DUP2 PUSH1 0x2 ADD DUP2 SWAP1 SSTORE POP PUSH0 DUP2 PUSH1 0x4 ADD PUSH0 PUSH2 0x100 EXP DUP2 SLOAD DUP2 PUSH1 0xFF MUL NOT AND SWAP1 DUP4 ISZERO ISZERO MUL OR SWAP1 SSTORE POP POP DUP1 DUP1 PUSH1 0x1 ADD SWAP2 POP POP PUSH2 0x33E JUMP JUMPDEST POP POP POP POP JUMP JUMPDEST PUSH0 PUSH20 0xFFFFFFFFFFFFFFFFFFFFFFFFFFFFFFFFFFFFFFFF DUP3 AND SWAP1 POP SWAP2 SWAP1 POP JUMP JUMPDEST PUSH0 PUSH2 0x41B DUP3 PUSH2 0x3F2 JUMP JUMPDEST SWAP1 POP SWAP2 SWAP1 POP JUMP JUMPDEST PUSH2 0x42B DUP2 PUSH2 0x411 JUMP JUMPDEST DUP3 MSTORE POP POP JUMP JUMPDEST PUSH0 PUSH1 0x20 DUP3 ADD SWAP1 POP PUSH2 0x444 PUSH0 DUP4 ADD DUP5 PUSH2 0x422 JUMP JUMPDEST SWAP3 SWAP2 POP POP JUMP JUMPDEST PUSH0 PUSH1 0x40 MLOAD SWAP1 POP SWAP1 JUMP JUMPDEST PUSH0 PUSH0 REVERT JUMPDEST PUSH0 PUSH0 REVERT JUMPDEST PUSH0 DUP2 SWAP1 POP SWAP2 SWAP1 POP JUMP JUMPDEST PUSH2 0x46D DUP2 PUSH2 0x45B JUMP JUMPDEST DUP2 EQ PUSH2 0x477 JUMPI PUSH0 PUSH0 REVERT JUMPDEST POP JUMP JUMPDEST PUSH0 DUP2 CALLDATALOAD SWAP1 POP PUSH2 0x488 DUP2 PUSH2 0x464 JUMP JUMPDEST SWAP3 SWAP2 POP POP JUMP JUMPDEST PUSH0 PUSH1 0x20 DUP3 DUP5 SUB SLT ISZERO PUSH2 0x4A3 JUMPI PUSH2 0x4A2 PUSH2 0x453 JUMP JUMPDEST JUMPDEST PUSH0 PUSH2 0x4B0 DUP5 DUP3 DUP6 ADD PUSH2 0x47A JUMP JUMPDEST SWAP2 POP POP SWAP3 SWAP2 POP POP JUMP JUMPDEST PUSH0 DUP2 MLOAD SWAP1 POP SWAP2 SWAP1 POP JUMP JUMPDEST PUSH0 DUP3 DUP3 MSTORE PUSH1 0x20 DUP3 ADD SWAP1 POP SWAP3 SWAP2 POP POP JUMP JUMPDEST DUP3 DUP2 DUP4 MCOPY PUSH0 DUP4 DUP4 ADD MSTORE POP POP POP JUMP JUMPDEST PUSH0 PUSH1 0x1F NOT PUSH1 0x1F DUP4 ADD AND SWAP1 POP SWAP2 SWAP1 POP JUMP JUMPDEST PUSH0 PUSH2 0x4FB DUP3 PUSH2 0x4B9 JUMP JUMPDEST PUSH2 0x505 DUP2 DUP6 PUSH2 0x4C3 JUMP JUMPDEST SWAP4 POP PUSH2 0x515 DUP2 DUP6 PUSH1 0x20 DUP7 ADD PUSH2 0x4D3 JUMP JUMPDEST PUSH2 0x51E DUP2 PUSH2 0x4E1 JUMP JUMPDEST DUP5 ADD SWAP2 POP POP SWAP3 SWAP2 POP POP JUMP JUMPDEST PUSH2 0x532 DUP2 PUSH2 0x45B JUMP JUMPDEST DUP3 MSTORE POP POP JUMP JUMPDEST PUSH0 DUP2 ISZERO ISZERO SWAP1 POP SWAP2 SWAP1 POP JUMP JUMPDEST PUSH2 0x54C DUP2 PUSH2 0x538 JUMP JUMPDEST DUP3 MSTORE POP POP JUMP JUMPDEST PUSH0 PUSH1 0xA0 DUP3 ADD SWAP1 POP PUSH2 0x565 PUSH0 DUP4 ADD DUP9 PUSH2 0x422 JUMP JUMPDEST DUP2 DUP2 SUB PUSH1 0x20 DUP4 ADD MSTORE PUSH2 0x577 DUP2 DUP8 PUSH2 0x4F1 JUMP JUMPDEST SWAP1 POP PUSH2 0x586 PUSH1 0x40 DUP4 ADD DUP7 PUSH2 0x529 JUMP JUMPDEST PUSH2 0x593 PUSH1 0x60 DUP4 ADD DUP6 PUSH2 0x529 JUMP JUMPDEST PUSH2 0x5A0 PUSH1 0x80 DUP4 ADD DUP5 PUSH2 0x543 JUMP JUMPDEST SWAP7 SWAP6 POP POP POP POP POP POP JUMP JUMPDEST PUSH0 PUSH0 REVERT JUMPDEST PUSH0 PUSH0 REVERT JUMPDEST PUSH32 0x4E487B7100000000000000000000000000000000000000000000000000000000 PUSH0 MSTORE PUSH1 0x41 PUSH1 0x4 MSTORE PUSH1 0x24 PUSH0 REVERT JUMPDEST PUSH2 0x5E8 DUP3 PUSH2 0x4E1 JUMP JUMPDEST DUP2 ADD DUP2 DUP2 LT PUSH8 0xFFFFFFFFFFFFFFFF DUP3 GT OR ISZERO PUSH2 0x607 JUMPI PUSH2 0x606 PUSH2 0x5B2 JUMP JUMPDEST JUMPDEST DUP1 PUSH1 0x40 MSTORE POP POP POP JUMP JUMPDEST PUSH0 PUSH2 0x619 PUSH2 0x44A JUMP JUMPDEST SWAP1 POP PUSH2 0x625 DUP3 DUP3 PUSH2 0x5DF JUMP JUMPDEST SWAP2 SWAP1 POP JUMP JUMPDEST PUSH0 PUSH8 0xFFFFFFFFFFFFFFFF DUP3 GT ISZERO PUSH2 0x644 JUMPI PUSH2 0x643 PUSH2 0x5B2 JUMP JUMPDEST JUMPDEST PUSH2 0x64D DUP3 PUSH2 0x4E1 JUMP JUMPDEST SWAP1 POP PUSH1 0x20 DUP2 ADD SWAP1 POP SWAP2 SWAP1 POP JUMP JUMPDEST DUP3 DUP2 DUP4 CALLDATACOPY PUSH0 DUP4 DUP4 ADD MSTORE POP POP POP JUMP JUMPDEST PUSH0 PUSH2 0x67A PUSH2 0x675 DUP5 PUSH2 0x62A JUMP JUMPDEST PUSH2 0x610 JUMP JUMPDEST SWAP1 POP DUP3 DUP2 MSTORE PUSH1 0x20 DUP2 ADD DUP5 DUP5 DUP5 ADD GT ISZERO PUSH2 0x696 JUMPI PUSH2 0x695 PUSH2 0x5AE JUMP JUMPDEST JUMPDEST PUSH2 0x6A1 DUP5 DUP3 DUP6 PUSH2 0x65A JUMP JUMPDEST POP SWAP4 SWAP3 POP POP POP JUMP JUMPDEST PUSH0 DUP3 PUSH1 0x1F DUP4 ADD SLT PUSH2 0x6BD JUMPI PUSH2 0x6BC PUSH2 0x5AA JUMP JUMPDEST JUMPDEST DUP2 CALLDATALOAD PUSH2 0x6CD DUP5 DUP3 PUSH1 0x20 DUP7 ADD PUSH2 0x668 JUMP JUMPDEST SWAP2 POP POP SWAP3 SWAP2 POP POP JUMP JUMPDEST PUSH0 PUSH8 0xFFFFFFFFFFFFFFFF DUP3 GT ISZERO PUSH2 0x6F0 JUMPI PUSH2 0x6EF PUSH2 0x5B2 JUMP JUMPDEST JUMPDEST PUSH1 0x20 DUP3 MUL SWAP1 POP PUSH1 0x20 DUP2 ADD SWAP1 POP SWAP2 SWAP1 POP JUMP JUMPDEST PUSH0 PUSH0 REVERT JUMPDEST PUSH0 PUSH0 REVERT JUMPDEST PUSH0 PUSH1 0x40 DUP3 DUP5 SUB SLT ISZERO PUSH2 0x71E JUMPI PUSH2 0x71D PUSH2 0x705 JUMP JUMPDEST JUMPDEST PUSH2 0x728 PUSH1 0x40 PUSH2 0x610 JUMP JUMPDEST SWAP1 POP PUSH0 PUSH2 0x737 DUP5 DUP3 DUP6 ADD PUSH2 0x47A JUMP JUMPDEST PUSH0 DUP4 ADD MSTORE POP PUSH1 0x20 PUSH2 0x74A DUP5 DUP3 DUP6 ADD PUSH2 0x47A JUMP JUMPDEST PUSH1 0x20 DUP4 ADD MSTORE POP SWAP3 SWAP2 POP POP JUMP JUMPDEST PUSH0 PUSH2 0x768 PUSH2 0x763 DUP5 PUSH2 0x6D6 JUMP JUMPDEST PUSH2 0x610 JUMP JUMPDEST SWAP1 POP DUP1 DUP4 DUP3 MSTORE PUSH1 0x20 DUP3 ADD SWAP1 POP PUSH1 0x40 DUP5 MUL DUP4 ADD DUP6 DUP2 GT ISZERO PUSH2 0x78B JUMPI PUSH2 0x78A PUSH2 0x701 JUMP JUMPDEST JUMPDEST DUP4 JUMPDEST DUP2 DUP2 LT ISZERO PUSH2 0x7B4 JUMPI DUP1 PUSH2 0x7A0 DUP9 DUP3 PUSH2 0x709 JUMP JUMPDEST DUP5 MSTORE PUSH1 0x20 DUP5 ADD SWAP4 POP POP PUSH1 0x40 DUP2 ADD SWAP1 POP PUSH2 0x78D JUMP JUMPDEST POP POP POP SWAP4 SWAP3 POP POP POP JUMP JUMPDEST PUSH0 DUP3 PUSH1 0x1F DUP4 ADD SLT PUSH2 0x7D2 JUMPI PUSH2 0x7D1 PUSH2 0x5AA JUMP JUMPDEST JUMPDEST DUP2 CALLDATALOAD PUSH2 0x7E2 DUP5 DUP3 PUSH1 0x20 DUP7 ADD PUSH2 0x756 JUMP JUMPDEST SWAP2 POP POP SWAP3 SWAP2 POP POP JUMP JUMPDEST PUSH0 PUSH0 PUSH1 0x40 DUP4 DUP6 SUB SLT ISZERO PUSH2 0x801 JUMPI PUSH2 0x800 PUSH2 0x453 JUMP JUMPDEST JUMPDEST PUSH0 DUP4 ADD CALLDATALOAD PUSH8 0xFFFFFFFFFFFFFFFF DUP2 GT ISZERO PUSH2 0x81E JUMPI PUSH2 0x81D PUSH2 0x457 JUMP JUMPDEST JUMPDEST PUSH2 0x82A DUP6 DUP3 DUP7 ADD PUSH2 0x6A9 JUMP JUMPDEST SWAP3 POP POP PUSH1 0x20 DUP4 ADD CALLDATALOAD PUSH8 0xFFFFFFFFFFFFFFFF DUP2 GT ISZERO PUSH2 0x84B JUMPI PUSH2 0x84A PUSH2 0x457 JUMP JUMPDEST JUMPDEST PUSH2 0x857 DUP6 DUP3 DUP7 ADD PUSH2 0x7BE JUMP JUMPDEST SWAP2 POP POP SWAP3 POP SWAP3 SWAP1 POP JUMP JUMPDEST PUSH32 0x4E487B7100000000000000000000000000000000000000000000000000000000 PUSH0 MSTORE PUSH1 0x22 PUSH1 0x4 MSTORE PUSH1 0x24 PUSH0 REVERT JUMPDEST PUSH0 PUSH1 0x2 DUP3 DIV SWAP1 POP PUSH1 0x1 DUP3 AND DUP1 PUSH2 0x8A5 JUMPI PUSH1 0x7F DUP3 AND SWAP2 POP JUMPDEST PUSH1 0x20 DUP3 LT DUP2 SUB PUSH2 0x8B8 JUMPI PUSH2 0x8B7 PUSH2 0x861 JUMP JUMPDEST JUMPDEST POP SWAP2 SWAP1 POP JUMP JUMPDEST PUSH32 0x53797374656D206F776E65722063616E2774206372656174652070726F6A6563 PUSH0 DUP3 ADD MSTORE PUSH32 0x7473000000000000000000000000000000000000000000000000000000000000 PUSH1 0x20 DUP3 ADD MSTORE POP JUMP JUMPDEST PUSH0 PUSH2 0x918 PUSH1 0x22 DUP4 PUSH2 0x4C3 JUMP JUMPDEST SWAP2 POP PUSH2 0x923 DUP3 PUSH2 0x8BE JUMP JUMPDEST PUSH1 0x40 DUP3 ADD SWAP1 POP SWAP2 SWAP1 POP JUMP JUMPDEST PUSH0 PUSH1 0x20 DUP3 ADD SWAP1 POP DUP2 DUP2 SUB PUSH0 DUP4 ADD MSTORE PUSH2 0x945 DUP2 PUSH2 0x90C JUMP JUMPDEST SWAP1 POP SWAP2 SWAP1 POP JUMP JUMPDEST PUSH32 0x4D7573742068617665206174206C65617374206F6E65206D696C6573746F6E65 PUSH0 DUP3 ADD MSTORE POP JUMP JUMPDEST PUSH0 PUSH2 0x980 PUSH1 0x20 DUP4 PUSH2 0x4C3 JUMP JUMPDEST SWAP2 POP PUSH2 0x98B DUP3 PUSH2 0x94C JUMP JUMPDEST PUSH1 0x20 DUP3 ADD SWAP1 POP SWAP2 SWAP1 POP JUMP JUMPDEST PUSH0 PUSH1 0x20 DUP3 ADD SWAP1 POP DUP2 DUP2 SUB PUSH0 DUP4 ADD MSTORE PUSH2 0x9AD DUP2 PUSH2 0x974 JUMP JUMPDEST SWAP1 POP SWAP2 SWAP1 POP JUMP JUMPDEST PUSH0 DUP2 SWAP1 POP DUP2 PUSH0 MSTORE PUSH1 0x20 PUSH0 KECCAK256 SWAP1 POP SWAP2 SWAP1 POP JUMP JUMPDEST PUSH0 PUSH1 0x20 PUSH1 0x1F DUP4 ADD DIV SWAP1 POP SWAP2 SWAP1 POP JUMP JUMPDEST PUSH0 DUP3 DUP3 SHL SWAP1 POP SWAP3 SWAP2 POP POP JUMP JUMPDEST PUSH0 PUSH1 0x8 DUP4 MUL PUSH2 0xA10 PUSH32 0xFFFFFFFFFFFFFFFFFFFFFFFFFFFFFFFFFFFFFFFFFFFFFFFFFFFFFFFFFFFFFFFF DUP3 PUSH2 0x9D5 JUMP JUMPDEST PUSH2 0xA1A DUP7 DUP4 PUSH2 0x9D5 JUMP JUMPDEST SWAP6 POP DUP1 NOT DUP5 AND SWAP4 POP DUP1 DUP7 AND DUP5 OR SWAP3 POP POP POP SWAP4 SWAP3 POP POP POP JUMP JUMPDEST PUSH0 DUP2 SWAP1 POP SWAP2 SWAP1 POP JUMP JUMPDEST PUSH0 PUSH2 0xA55 PUSH2 0xA50 PUSH2 0xA4B DUP5 PUSH2 0x45B JUMP JUMPDEST PUSH2 0xA32 JUMP JUMPDEST PUSH2 0x45B JUMP JUMPDEST SWAP1 POP SWAP2 SWAP1 POP JUMP JUMPDEST PUSH0 DUP2 SWAP1 POP SWAP2 SWAP1 POP JUMP JUMPDEST PUSH2 0xA6E DUP4 PUSH2 0xA3B JUMP JUMPDEST PUSH2 0xA82 PUSH2 0xA7A DUP3 PUSH2 0xA5C JUMP JUMPDEST DUP5 DUP5 SLOAD PUSH2 0x9E1 JUMP JUMPDEST DUP3 SSTORE POP POP POP POP JUMP JUMPDEST PUSH0 PUSH0 SWAP1 POP SWAP1 JUMP JUMPDEST PUSH2 0xA99 PUSH2 0xA8A JUMP JUMPDEST PUSH2 0xAA4 DUP2 DUP5 DUP5 PUSH2 0xA65 JUMP JUMPDEST POP POP POP JUMP JUMPDEST JUMPDEST DUP2 DUP2 LT ISZERO PUSH2 0xAC7 JUMPI PUSH2 0xABC PUSH0 DUP3 PUSH2 0xA91 JUMP JUMPDEST PUSH1 0x1 DUP2 ADD SWAP1 POP PUSH2 0xAAA JUMP JUMPDEST POP POP JUMP JUMPDEST PUSH1 0x1F DUP3 GT ISZERO PUSH2 0xB0C JUMPI PUSH2 0xADD DUP2 PUSH2 0x9B4 JUMP JUMPDEST PUSH2 0xAE6 DUP5 PUSH2 0x9C6 JUMP JUMPDEST DUP2 ADD PUSH1 0x20 DUP6 LT ISZERO PUSH2 0xAF5 JUMPI DUP2 SWAP1 POP JUMPDEST PUSH2 0xB09 PUSH2 0xB01 DUP6 PUSH2 0x9C6 JUMP JUMPDEST DUP4 ADD DUP3 PUSH2 0xAA9 JUMP JUMPDEST POP POP JUMPDEST POP POP POP JUMP JUMPDEST PUSH0 DUP3 DUP3 SHR SWAP1 POP SWAP3 SWAP2 POP POP JUMP JUMPDEST PUSH0 PUSH2 0xB2C PUSH0 NOT DUP5 PUSH1 0x8 MUL PUSH2 0xB11 JUMP JUMPDEST NOT DUP1 DUP4 AND SWAP2 POP POP SWAP3 SWAP2 POP POP JUMP JUMPDEST PUSH0 PUSH2 0xB44 DUP4 DUP4 PUSH2 0xB1D JUMP JUMPDEST SWAP2 POP DUP3 PUSH1 0x2 MUL DUP3 OR SWAP1 POP SWAP3 SWAP2 POP POP JUMP JUMPDEST PUSH2 0xB5D DUP3 PUSH2 0x4B9 JUMP JUMPDEST PUSH8 0xFFFFFFFFFFFFFFFF DUP2 GT ISZERO PUSH2 0xB76 JUMPI PUSH2 0xB75 PUSH2 0x5B2 JUMP JUMPDEST JUMPDEST PUSH2 0xB80 DUP3 SLOAD PUSH2 0x88E JUMP JUMPDEST PUSH2 0xB8B DUP3 DUP3 DUP6 PUSH2 0xACB JUMP JUMPDEST PUSH0 PUSH1 0x20 SWAP1 POP PUSH1 0x1F DUP4 GT PUSH1 0x1 DUP2 EQ PUSH2 0xBBC JUMPI PUSH0 DUP5 ISZERO PUSH2 0xBAA JUMPI DUP3 DUP8 ADD MLOAD SWAP1 POP JUMPDEST PUSH2 0xBB4 DUP6 DUP3 PUSH2 0xB39 JUMP JUMPDEST DUP7 SSTORE POP PUSH2 0xC1B JUMP JUMPDEST PUSH1 0x1F NOT DUP5 AND PUSH2 0xBCA DUP7 PUSH2 0x9B4 JUMP JUMPDEST PUSH0 JUMPDEST DUP3 DUP2 LT ISZERO PUSH2 0xBF1 JUMPI DUP5 DUP10 ADD MLOAD DUP3 SSTORE PUSH1 0x1 DUP3 ADD SWAP2 POP PUSH1 0x20 DUP6 ADD SWAP5 POP PUSH1 0x20 DUP2 ADD SWAP1 POP PUSH2 0xBCC JUMP JUMPDEST DUP7 DUP4 LT ISZERO PUSH2 0xC0E JUMPI DUP5 DUP10 ADD MLOAD PUSH2 0xC0A PUSH1 0x1F DUP10 AND DUP3 PUSH2 0xB1D JUMP JUMPDEST DUP4 SSTORE POP JUMPDEST PUSH1 0x1 PUSH1 0x2 DUP9 MUL ADD DUP9 SSTORE POP POP POP JUMPDEST POP POP POP POP POP POP JUMP JUMPDEST PUSH32 0x4E487B7100000000000000000000000000000000000000000000000000000000 PUSH0 MSTORE PUSH1 0x32 PUSH1 0x4 MSTORE PUSH1 0x24 PUSH0 REVERT INVALID LOG2 PUSH5 0x6970667358 0x22 SLT KECCAK256 0xDE STATICCALL PREVRANDAO 0x2F 0xD2 CALLDATASIZE XOR SWAP16 0x28 LOG4 0xD POP 0xBF 0xEA PUSH15 0x4F8E719D2520F22873FFAADF4ABA03 AND 0xB6 PUSH5 0x736F6C6343 STOP ADDMOD 0x1E STOP CALLER "
		},
		"gasEstimates": {
			"creation": {
				"codeDepositCost": "641200",
				"executionCost": "24938",
				"totalCost": "666138"
			},
			"external": {
				"createProject(string,(uint256,uint256)[])": "infinite",
				"projects(uint256)": "infinite",
				"sysOwner()": "2485"
			}
		},
		"methodIdentifiers": {
			"createProject(string,(uint256,uint256)[])": "3e7e12a6",
			"projects(uint256)": "107046bd",
			"sysOwner()": "0e4877d6"
		}
	},
	"abi": [
		{
			"inputs": [],
			"stateMutability": "nonpayable",
			"type": "constructor"
		},
		{
			"inputs": [
				{
					"internalType": "string",
					"name": "_name",
					"type": "string"
				},
				{
					"components": [
						{
							"internalType": "uint256",
							"name": "goalAmount",
							"type": "uint256"
						},
						{
							"internalType": "uint256",
							"name": "deadline",
							"type": "uint256"
						}
					],
					"internalType": "struct MilestoneInfo[]",
					"name": "_milestones",
					"type": "tuple[]"
				}
			],
			"name": "createProject",
			"outputs": [],
			"stateMutability": "nonpayable",
			"type": "function"
		},
		{
			"inputs": [
				{
					"internalType": "uint256",
					"name": "",
					"type": "uint256"
				}
			],
			"name": "projects",
			"outputs": [
				{
					"internalType": "address",
					"name": "creator",
					"type": "address"
				},
				{
					"internalType": "string",
					"name": "name",
					"type": "string"
				},
				{
					"internalType": "uint256",
					"name": "totalFunded",
					"type": "uint256"
				},
				{
					"internalType": "uint256",
					"name": "currentMilestoneIndex",
					"type": "uint256"
				},
				{
					"internalType": "bool",
					"name": "isActive",
					"type": "bool"
				}
			],
			"stateMutability": "view",
			"type": "function"
		},
		{
			"inputs": [],
			"name": "sysOwner",
			"outputs": [
				{
					"internalType": "address",
					"name": "",
					"type": "address"
				}
			],
			"stateMutability": "view",
			"type": "function"
		}
	]
}