{
	"data": {
		"bytecode": {
			"linkReferences": {},
			"object": "6080604052348015600e575f5ffd5b50335f5f6101000a81548173ffffffffffffffffffffffffffffffffffffffff021916908373ffffffffffffffffffffffffffffffffffffffff160217905550613a878061005b5f395ff3fe6080604052600436106100a6575f3560e01c80636db7a960116100635780636db7a960146101be5780637808de38146101e6578063ae632181146101fc578063b99122af14610224578063d8a5b36d14610260578063f2ef441b1461029c576100a6565b80630e4877d6146100aa578063107046bd146100d45780631a86e67d1461011657806333ec0fc51461013e5780634e94e8241461017a5780636c563abe146101a2575b5f5ffd5b3480156100b5575f5ffd5b506100be6102c6565b6040516100cb91906122b5565b60405180910390f35b3480156100df575f5ffd5b506100fa60048036038101906100f59190612312565b6102ea565b60405161010d97969594939291906123d6565b60405180910390f35b348015610121575f5ffd5b5061013c60048036038101906101379190612699565b6104f4565b005b348015610149575f5ffd5b50610164600480360381019061015f9190612312565b6106af565b6040516101719190612824565b60405180910390f35b348015610185575f5ffd5b506101a0600480360381019061019b9190612312565b61078c565b005b6101bc60048036038101906101b79190612312565b610915565b005b3480156101c9575f5ffd5b506101e460048036038101906101df9190612312565b610efd565b005b3480156101f1575f5ffd5b506101fa61100e565b005b348015610207575f5ffd5b50610222600480360381019061021d9190612844565b61113d565b005b34801561022f575f5ffd5b5061024a60048036038101906102459190612312565b61169f565b60405161025791906128da565b60405180910390f35b34801561026b575f5ffd5b5061028660048036038101906102819190612312565b61175f565b60405161029391906129c8565b60405180910390f35b3480156102a7575f5ffd5b506102b06118b5565b6040516102bd9190612ba1565b60405180910390f35b5f5f9054906101000a900473ffffffffffffffffffffffffffffffffffffffff1681565b600181815481106102f9575f80fd5b905f5260205f2090600802015f91509050805f015f9054906101000a900473ffffffffffffffffffffffffffffffffffffffff169080600101805461033d90612bee565b80601f016020809104026020016040519081016040528092919081815260200182805461036990612bee565b80156103b45780601f1061038b576101008083540402835291602001916103b4565b820191905f5260205f20905b81548152906001019060200180831161039757829003601f168201915b5050505050908060020180546103c990612bee565b80601f01602080910402602001604051908101604052809291908181526020018280546103f590612bee565b80156104405780601f1061041757610100808354040283529160200191610440565b820191905f5260205f20905b81548152906001019060200180831161042357829003601f168201915b50505050509080600301805461045590612bee565b80601f016020809104026020016040519081016040528092919081815260200182805461048190612bee565b80156104cc5780601f106104a3576101008083540402835291602001916104cc565b820191905f5260205f20905b8154815290600101906020018083116104af57829003601f168201915b505050505090806004015490806005015490806007015f9054906101000a900460ff16905087565b5f5f9054906101000a900473ffffffffffffffffffffffffffffffffffffffff1673ffffffffffffffffffffffffffffffffffffffff163373ffffffffffffffffffffffffffffffffffffffff1603610582576040517f08c379a000000000000000000000000000000000000000000000000000000000815260040161057990612c8e565b60405180910390fd5b5f6001808160018154018082558091505003905f5260205f209060080201905033815f015f6101000a81548173ffffffffffffffffffffffffffffffffffffffff021916908373ffffffffffffffffffffffffffffffffffffffff160217905550848160010190816105f49190612e4c565b50838160020190816106069190612e4c565b50828160030190816106189190612e4c565b505f81600401819055505f81600501819055506001816007015f6101000a81548160ff0219169083151502179055506106616001808054905061065b9190612f48565b8361113d565b7f1ac2092e16e28eef29d1832f3dc69da1b21284a1f3159d3b26cb238b22fe4f8a600180805490506106939190612f48565b6040516106a09190612f7b565b60405180910390a15050505050565b60605f600183815481106106c6576106c5612f94565b5b905f5260205f20906008020190505f816006018260050154815481106106ef576106ee612f94565b5b905f5260205f20906006020190508060030180548060200260200160405190810160405280929190818152602001828054801561077e57602002820191905f5260205f20905b815f9054906101000a900473ffffffffffffffffffffffffffffffffffffffff1673ffffffffffffffffffffffffffffffffffffffff1681526020019060010190808311610735575b505050505092505050919050565b60018054905081106107d3576040517f08c379a00000000000000000000000000000000000000000000000000000000081526004016107ca9061300b565b60405180910390fd5b5f600182815481106107e8576107e7612f94565b5b905f5260205f2090600802019050806007015f9054906101000a900460ff16610846576040517f08c379a000000000000000000000000000000000000000000000000000000000815260040161083d90613073565b60405180910390fd5b5f8160060182600501548154811061086157610860612f94565b5b905f5260205f2090600602019050806005015f9054906101000a900460ff16156108c0576040517f08c379a00000000000000000000000000000000000000000000000000000000081526004016108b7906130db565b60405180910390fd5b7f3f9ee693372748925082c0c5ba09ecffc5fddfeecf993becff877eac8a1e08bc815f0160010154825f015f01548460040154846002015460405161090894939291906130f9565b60405180910390a1505050565b600180549050811061095c576040517f08c379a000000000000000000000000000000000000000000000000000000000815260040161095390613186565b60405180910390fd5b3373ffffffffffffffffffffffffffffffffffffffff16313411156109b6576040517f08c379a00000000000000000000000000000000000000000000000000000000081526004016109ad90613214565b60405180910390fd5b5f34116109f8576040517f08c379a00000000000000000000000000000000000000000000000000000000081526004016109ef9061327c565b60405180910390fd5b5f60018281548110610a0d57610a0c612f94565b5b905f5260205f2090600802019050806007015f9054906101000a900460ff16610a6b576040517f08c379a0000000000000000000000000000000000000000000000000000000008152600401610a62906132e4565b60405180910390fd5b5f81600601826005015481548110610a8657610a85612f94565b5b905f5260205f209060060201905042815f016001015411610adc576040517f08c379a0000000000000000000000000000000000000000000000000000000008152600401610ad39061334c565b60405180910390fd5b5f816004015f3373ffffffffffffffffffffffffffffffffffffffff1673ffffffffffffffffffffffffffffffffffffffff1681526020019081526020015f205403610b85578060030133908060018154018082558091505060019003905f5260205f20015f9091909190916101000a81548173ffffffffffffffffffffffffffffffffffffffff021916908373ffffffffffffffffffffffffffffffffffffffff1602179055505b34816004015f3373ffffffffffffffffffffffffffffffffffffffff1673ffffffffffffffffffffffffffffffffffffffff1681526020019081526020015f205f828254610bd3919061336a565b9250508190555034816002015f828254610bed919061336a565b9250508190555034826004015f828254610c07919061336a565b925050819055505b805f015f015482600401541115610eb3575f815f015f01548360040154610c369190612f48565b9050815f015f01548260020181905550815f015f0154836004018190555080826004015f3373ffffffffffffffffffffffffffffffffffffffff1673ffffffffffffffffffffffffffffffffffffffff1681526020019081526020015f205f828254610ca29190612f48565b9250508190555060018360060180549050610cbd9190612f48565b836005015403610d90575f836007015f6101000a81548160ff0219169083151502179055505f3373ffffffffffffffffffffffffffffffffffffffff1682604051610d07906133ca565b5f6040518083038185875af1925050503d805f8114610d41576040519150601f19603f3d011682016040523d82523d5f602084013e610d46565b606091505b5050905080610d8a576040517f08c379a0000000000000000000000000000000000000000000000000000000008152600401610d8190613428565b60405180910390fd5b50610ead565b610d9984611d36565b82600601836005015481548110610db357610db2612f94565b5b905f5260205f20906006020191508160030133908060018154018082558091505060019003905f5260205f20015f9091909190916101000a81548173ffffffffffffffffffffffffffffffffffffffff021916908373ffffffffffffffffffffffffffffffffffffffff16021790555080826004015f3373ffffffffffffffffffffffffffffffffffffffff1673ffffffffffffffffffffffffffffffffffffffff1681526020019081526020015f205f828254610e71919061336a565b9250508190555080826002015f828254610e8b919061336a565b9250508190555080836004015f828254610ea5919061336a565b925050819055505b50610c0f565b7f17e2effa169c5dde193942abd21f6d49e7d32c15ab843da440cb2abdd10f1911833484600401548460020154604051610ef094939291906130f9565b60405180910390a1505050565b5f5f9054906101000a900473ffffffffffffffffffffffffffffffffffffffff1673ffffffffffffffffffffffffffffffffffffffff163373ffffffffffffffffffffffffffffffffffffffff161480610fc3575060018181548110610f6657610f65612f94565b5b905f5260205f2090600802015f015f9054906101000a900473ffffffffffffffffffffffffffffffffffffffff1673ffffffffffffffffffffffffffffffffffffffff163373ffffffffffffffffffffffffffffffffffffffff16145b611002576040517f08c379a0000000000000000000000000000000000000000000000000000000008152600401610ff9906134b6565b60405180910390fd5b61100b81611ea0565b50565b5f5f9054906101000a900473ffffffffffffffffffffffffffffffffffffffff1673ffffffffffffffffffffffffffffffffffffffff163373ffffffffffffffffffffffffffffffffffffffff161461109c576040517f08c379a000000000000000000000000000000000000000000000000000000000815260040161109390613544565b60405180910390fd5b5f5f90505b60018054905081101561113a575f600182815481106110c3576110c2612f94565b5b905f5260205f20906008020190505f816006018260050154815481106110ec576110eb612f94565b5b905f5260205f2090600602019050816007015f9054906101000a900460ff16801561111c575042815f0160010154105b1561112b5761112a83611ea0565b5b505080806001019150506110a1565b50565b6001805490508210611184576040517f08c379a000000000000000000000000000000000000000000000000000000000815260040161117b9061300b565b60405180910390fd5b5f6001838154811061119957611198612f94565b5b905f5260205f2090600802019050806007015f9054906101000a900460ff166111f7576040517f08c379a00000000000000000000000000000000000000000000000000000000081526004016111ee906135d2565b60405180910390fd5b3373ffffffffffffffffffffffffffffffffffffffff16815f015f9054906101000a900473ffffffffffffffffffffffffffffffffffffffff1673ffffffffffffffffffffffffffffffffffffffff1614611287576040517f08c379a000000000000000000000000000000000000000000000000000000000815260040161127e90613660565b60405180910390fd5b5f8251116112ca576040517f08c379a00000000000000000000000000000000000000000000000000000000081526004016112c1906136c8565b60405180910390fd5b5f5f90505b8251811015611699575f8382815181106112ec576112eb612f94565b5b60200260200101515f015111611337576040517f08c379a000000000000000000000000000000000000000000000000000000000815260040161132e90613730565b60405180910390fd5b4283828151811061134b5761134a612f94565b5b60200260200101516020015111611397576040517f08c379a000000000000000000000000000000000000000000000000000000000815260040161138e90613798565b60405180910390fd5b5f8111156114b257826001826113ad9190612f48565b815181106113be576113bd612f94565b5b60200260200101515f01518382815181106113dc576113db612f94565b5b60200260200101515f015111611427576040517f08c379a000000000000000000000000000000000000000000000000000000000815260040161141e90613826565b60405180910390fd5b826001826114359190612f48565b8151811061144657611445612f94565b5b60200260200101516020015183828151811061146557611464612f94565b5b602002602001015160200151116114b1576040517f08c379a00000000000000000000000000000000000000000000000000000000081526004016114a8906138b4565b60405180910390fd5b5b5f826006018054905011156115f45781600601600183600601805490506114d99190612f48565b815481106114ea576114e9612f94565b5b905f5260205f2090600602015f015f015483828151811061150e5761150d612f94565b5b60200260200101515f015111611559576040517f08c379a000000000000000000000000000000000000000000000000000000000815260040161155090613826565b60405180910390fd5b81600601600183600601805490506115719190612f48565b8154811061158257611581612f94565b5b905f5260205f2090600602015f01600101548382815181106115a7576115a6612f94565b5b602002602001015160200151116115f3576040517f08c379a00000000000000000000000000000000000000000000000000000000081526004016115ea906138b4565b60405180910390fd5b5b5f8260060160018160018154018082558091505003905f5260205f209060060201905083828151811061162a57611629612f94565b5b60200260200101515f0151815f015f018190555083828151811061165157611650612f94565b5b602002602001015160200151815f01600101819055505f81600201819055505f816005015f6101000a81548160ff0219169083151502179055505080806001019150506112cf565b50505050565b6116a761220d565b60018054905082106116ee576040517f08c379a00000000000000000000000000000000000000000000000000000000081526004016116e59061300b565b60405180910390fd5b5f6001838154811061170357611702612f94565b5b905f5260205f20906008020190508060060181600501548154811061172b5761172a612f94565b5b905f5260205f2090600602015f016040518060400160405290815f8201548152602001600182015481525050915050919050565b606060018054905082106117a8576040517f08c379a000000000000000000000000000000000000000000000000000000000815260040161179f9061300b565b60405180910390fd5b5f600183815481106117bd576117bc612f94565b5b905f5260205f20906008020190505f816006018054905067ffffffffffffffff8111156117ed576117ec612460565b5b60405190808252806020026020018201604052801561182657816020015b61181361220d565b81526020019060019003908161180b5790505b5090505f5f90505b82600601805490508110156118aa5782600601818154811061185357611852612f94565b5b905f5260205f2090600602015f016040518060400160405290815f820154815260200160018201548152505082828151811061189257611891612f94565b5b6020026020010181905250808060010191505061182e565b508092505050919050565b60605f5f90505f5f90505b60018054905081101561191e57600181815481106118e1576118e0612f94565b5b905f5260205f2090600802016007015f9054906101000a900460ff161561191157818061190d906138d2565b9250505b80806001019150506118c0565b505f8167ffffffffffffffff81111561193a57611939612460565b5b60405190808252806020026020018201604052801561197357816020015b611960612225565b8152602001906001900390816119585790505b5090505f5f90505f5f90505b600180549050811015611d2c57600181815481106119a05761199f612f94565b5b905f5260205f2090600802016007015f9054906101000a900460ff1615611d1f576119c9612225565b600182815481106119dd576119dc612f94565b5b905f5260205f2090600802015f015f9054906101000a900473ffffffffffffffffffffffffffffffffffffffff16815f019073ffffffffffffffffffffffffffffffffffffffff16908173ffffffffffffffffffffffffffffffffffffffff168152505060018281548110611a5557611a54612f94565b5b905f5260205f2090600802016001018054611a6f90612bee565b80601f0160208091040260200160405190810160405280929190818152602001828054611a9b90612bee565b8015611ae65780601f10611abd57610100808354040283529160200191611ae6565b820191905f5260205f20905b815481529060010190602001808311611ac957829003601f168201915b5050505050816020018190525060018281548110611b0757611b06612f94565b5b905f5260205f2090600802016002018054611b2190612bee565b80601f0160208091040260200160405190810160405280929190818152602001828054611b4d90612bee565b8015611b985780601f10611b6f57610100808354040283529160200191611b98565b820191905f5260205f20905b815481529060010190602001808311611b7b57829003601f168201915b5050505050816040018190525060018281548110611bb957611bb8612f94565b5b905f5260205f2090600802016003018054611bd390612bee565b80601f0160208091040260200160405190810160405280929190818152602001828054611bff90612bee565b8015611c4a5780601f10611c2157610100808354040283529160200191611c4a565b820191905f5260205f20905b815481529060010190602001808311611c2d57829003601f168201915b5050505050816060018190525060018281548110611c6b57611c6a612f94565b5b905f5260205f2090600802016004015481608001818152505060018281548110611c9857611c97612f94565b5b905f5260205f209060080201600501548160a001818152505060018281548110611cc557611cc4612f94565b5b905f5260205f2090600802016007015f9054906101000a900460ff168160c001901515908115158152505080848481518110611d0457611d03612f94565b5b60200260200101819052508280611d1a906138d2565b935050505b808060010191505061197f565b5081935050505090565b5f60018281548110611d4b57611d4a612f94565b5b905f5260205f20906008020190505f81600601826005015481548110611d7457611d73612f94565b5b905f5260205f20906006020190505f816002015490505f83600501541115611dda578260060160018460050154611dab9190612f48565b81548110611dbc57611dbb612f94565b5b905f5260205f2090600602016002015481611dd79190612f48565b90505b815f015f0154836004015410611e90576001826005015f6101000a81548160ff021916908315150217905550611e32835f015f9054906101000a900473ffffffffffffffffffffffffffffffffffffffff1682611f40565b60018360060180549050611e469190612f48565b83600501541015611e6f57826005015f815480929190611e65906138d2565b9190505550611e8b565b5f836007015f6101000a81548160ff0219169083151502179055505b611e9a565b611e9984611ea0565b5b50505050565b5f60018281548110611eb557611eb4612f94565b5b905f5260205f2090600802019050806007015f9054906101000a900460ff16611f13576040517f08c379a0000000000000000000000000000000000000000000000000000000008152600401611f0a90613963565b60405180910390fd5b5f816007015f6101000a81548160ff021916908315150217905550611f3c828260050154611fed565b5050565b5f8273ffffffffffffffffffffffffffffffffffffffff1682604051611f65906133ca565b5f6040518083038185875af1925050503d805f8114611f9f576040519150601f19603f3d011682016040523d82523d5f602084013e611fa4565b606091505b5050905080611fe8576040517f08c379a0000000000000000000000000000000000000000000000000000000008152600401611fdf906139cb565b60405180910390fd5b505050565b5f6001838154811061200257612001612f94565b5b905f5260205f20906008020190505f81600601838154811061202757612026612f94565b5b905f5260205f20906006020190505f5f90505b8160030180549050811015612206575f8260030182815481106120605761205f612f94565b5b905f5260205f20015f9054906101000a900473ffffffffffffffffffffffffffffffffffffffff1690505f836004015f8373ffffffffffffffffffffffffffffffffffffffff1673ffffffffffffffffffffffffffffffffffffffff1681526020019081526020015f205490505f8111156121f7575f846004015f8473ffffffffffffffffffffffffffffffffffffffff1673ffffffffffffffffffffffffffffffffffffffff1681526020019081526020015f20819055505f8273ffffffffffffffffffffffffffffffffffffffff168260405161213e906133ca565b5f6040518083038185875af1925050503d805f8114612178576040519150601f19603f3d011682016040523d82523d5f602084013e61217d565b606091505b50509050806121c1576040517f08c379a00000000000000000000000000000000000000000000000000000000081526004016121b890613a33565b60405180910390fd5b81866004015f8282546121d49190612f48565b9250508190555081856002015f8282546121ee9190612f48565b92505081905550505b5050808060010191505061203a565b5050505050565b60405180604001604052805f81526020015f81525090565b6040518060e001604052805f73ffffffffffffffffffffffffffffffffffffffff1681526020016060815260200160608152602001606081526020015f81526020015f81526020015f151581525090565b5f73ffffffffffffffffffffffffffffffffffffffff82169050919050565b5f61229f82612276565b9050919050565b6122af81612295565b82525050565b5f6020820190506122c85f8301846122a6565b92915050565b5f604051905090565b5f5ffd5b5f5ffd5b5f819050919050565b6122f1816122df565b81146122fb575f5ffd5b50565b5f8135905061230c816122e8565b92915050565b5f60208284031215612327576123266122d7565b5b5f612334848285016122fe565b91505092915050565b5f81519050919050565b5f82825260208201905092915050565b8281835e5f83830152505050565b5f601f19601f8301169050919050565b5f61237f8261233d565b6123898185612347565b9350612399818560208601612357565b6123a281612365565b840191505092915050565b6123b6816122df565b82525050565b5f8115159050919050565b6123d0816123bc565b82525050565b5f60e0820190506123e95f83018a6122a6565b81810360208301526123fb8189612375565b9050818103604083015261240f8188612375565b905081810360608301526124238187612375565b905061243260808301866123ad565b61243f60a08301856123ad565b61244c60c08301846123c7565b98975050505050505050565b5f5ffd5b5f5ffd5b7f4e487b71000000000000000000000000000000000000000000000000000000005f52604160045260245ffd5b61249682612365565b810181811067ffffffffffffffff821117156124b5576124b4612460565b5b80604052505050565b5f6124c76122ce565b90506124d3828261248d565b919050565b5f67ffffffffffffffff8211156124f2576124f1612460565b5b6124fb82612365565b9050602081019050919050565b828183375f83830152505050565b5f612528612523846124d8565b6124be565b9050828152602081018484840111156125445761254361245c565b5b61254f848285612508565b509392505050565b5f82601f83011261256b5761256a612458565b5b813561257b848260208601612516565b91505092915050565b5f67ffffffffffffffff82111561259e5761259d612460565b5b602082029050602081019050919050565b5f5ffd5b5f5ffd5b5f604082840312156125cc576125cb6125b3565b5b6125d660406124be565b90505f6125e5848285016122fe565b5f8301525060206125f8848285016122fe565b60208301525092915050565b5f61261661261184612584565b6124be565b90508083825260208201905060408402830185811115612639576126386125af565b5b835b81811015612662578061264e88826125b7565b84526020840193505060408101905061263b565b5050509392505050565b5f82601f8301126126805761267f612458565b5b8135612690848260208601612604565b91505092915050565b5f5f5f5f608085870312156126b1576126b06122d7565b5b5f85013567ffffffffffffffff8111156126ce576126cd6122db565b5b6126da87828801612557565b945050602085013567ffffffffffffffff8111156126fb576126fa6122db565b5b61270787828801612557565b935050604085013567ffffffffffffffff811115612728576127276122db565b5b61273487828801612557565b925050606085013567ffffffffffffffff811115612755576127546122db565b5b6127618782880161266c565b91505092959194509250565b5f81519050919050565b5f82825260208201905092915050565b5f819050602082019050919050565b61279f81612295565b82525050565b5f6127b08383612796565b60208301905092915050565b5f602082019050919050565b5f6127d28261276d565b6127dc8185612777565b93506127e783612787565b805f5b838110156128175781516127fe88826127a5565b9750612809836127bc565b9250506001810190506127ea565b5085935050505092915050565b5f6020820190508181035f83015261283c81846127c8565b905092915050565b5f5f6040838503121561285a576128596122d7565b5b5f612867858286016122fe565b925050602083013567ffffffffffffffff811115612888576128876122db565b5b6128948582860161266c565b9150509250929050565b6128a7816122df565b82525050565b604082015f8201516128c15f85018261289e565b5060208201516128d4602085018261289e565b50505050565b5f6040820190506128ed5f8301846128ad565b92915050565b5f81519050919050565b5f82825260208201905092915050565b5f819050602082019050919050565b604082015f8201516129305f85018261289e565b506020820151612943602085018261289e565b50505050565b5f612954838361291c565b60408301905092915050565b5f602082019050919050565b5f612976826128f3565b61298081856128fd565b935061298b8361290d565b805f5b838110156129bb5781516129a28882612949565b97506129ad83612960565b92505060018101905061298e565b5085935050505092915050565b5f6020820190508181035f8301526129e0818461296c565b905092915050565b5f81519050919050565b5f82825260208201905092915050565b5f819050602082019050919050565b5f82825260208201905092915050565b5f612a2b8261233d565b612a358185612a11565b9350612a45818560208601612357565b612a4e81612365565b840191505092915050565b612a62816123bc565b82525050565b5f60e083015f830151612a7d5f860182612796565b5060208301518482036020860152612a958282612a21565b91505060408301518482036040860152612aaf8282612a21565b91505060608301518482036060860152612ac98282612a21565b9150506080830151612ade608086018261289e565b5060a0830151612af160a086018261289e565b5060c0830151612b0460c0860182612a59565b508091505092915050565b5f612b1a8383612a68565b905092915050565b5f602082019050919050565b5f612b38826129e8565b612b4281856129f2565b935083602082028501612b5485612a02565b805f5b85811015612b8f5784840389528151612b708582612b0f565b9450612b7b83612b22565b925060208a01995050600181019050612b57565b50829750879550505050505092915050565b5f6020820190508181035f830152612bb98184612b2e565b905092915050565b7f4e487b71000000000000000000000000000000000000000000000000000000005f52602260045260245ffd5b5f6002820490506001821680612c0557607f821691505b602082108103612c1857612c17612bc1565b5b50919050565b7f53797374656d206f776e65722063616e2774206372656174652070726f6a65635f8201527f7473000000000000000000000000000000000000000000000000000000000000602082015250565b5f612c78602283612347565b9150612c8382612c1e565b604082019050919050565b5f6020820190508181035f830152612ca581612c6c565b9050919050565b5f819050815f5260205f209050919050565b5f6020601f8301049050919050565b5f82821b905092915050565b5f60088302612d087fffffffffffffffffffffffffffffffffffffffffffffffffffffffffffffffff82612ccd565b612d128683612ccd565b95508019841693508086168417925050509392505050565b5f819050919050565b5f612d4d612d48612d43846122df565b612d2a565b6122df565b9050919050565b5f819050919050565b612d6683612d33565b612d7a612d7282612d54565b848454612cd9565b825550505050565b5f5f905090565b612d91612d82565b612d9c818484612d5d565b505050565b5b81811015612dbf57612db45f82612d89565b600181019050612da2565b5050565b601f821115612e0457612dd581612cac565b612dde84612cbe565b81016020851015612ded578190505b612e01612df985612cbe565b830182612da1565b50505b505050565b5f82821c905092915050565b5f612e245f1984600802612e09565b1980831691505092915050565b5f612e3c8383612e15565b9150826002028217905092915050565b612e558261233d565b67ffffffffffffffff811115612e6e57612e6d612460565b5b612e788254612bee565b612e83828285612dc3565b5f60209050601f831160018114612eb4575f8415612ea2578287015190505b612eac8582612e31565b865550612f13565b601f198416612ec286612cac565b5f5b82811015612ee957848901518255600182019150602085019450602081019050612ec4565b86831015612f065784890151612f02601f891682612e15565b8355505b6001600288020188555050505b505050505050565b7f4e487b71000000000000000000000000000000000000000000000000000000005f52601160045260245ffd5b5f612f52826122df565b9150612f5d836122df565b9250828203905081811115612f7557612f74612f1b565b5b92915050565b5f602082019050612f8e5f8301846123ad565b92915050565b7f4e487b71000000000000000000000000000000000000000000000000000000005f52603260045260245ffd5b7f496e76616c69642070726f6a6563747320696e646578000000000000000000005f82015250565b5f612ff5601683612347565b915061300082612fc1565b602082019050919050565b5f6020820190508181035f83015261302281612fe9565b9050919050565b7f50726f6a656374206d75737420626520616374697665000000000000000000005f82015250565b5f61305d601683612347565b915061306882613029565b602082019050919050565b5f6020820190508181035f83015261308a81613051565b9050919050565b7f4d696c6573746f6e652073686f756c64206265206e6f742072656163686564005f82015250565b5f6130c5601f83612347565b91506130d082613091565b602082019050919050565b5f6020820190508181035f8301526130f2816130b9565b9050919050565b5f60808201905061310c5f8301876123ad565b61311960208301866123ad565b61312660408301856123ad565b61313360608301846123ad565b95945050505050565b7f50726f6a65637420646f65736e277420657869737400000000000000000000005f82015250565b5f613170601583612347565b915061317b8261313c565b602082019050919050565b5f6020820190508181035f83015261319d81613164565b9050919050565b7f596f7520646f6e74206861766520656e6f756768206d6f6e657920746f2066755f8201527f6e64000000000000000000000000000000000000000000000000000000000000602082015250565b5f6131fe602283612347565b9150613209826131a4565b604082019050919050565b5f6020820190508181035f83015261322b816131f2565b9050919050565b7f46756e6420616d6f756e742063616e27742062652030000000000000000000005f82015250565b5f613266601683612347565b915061327182613232565b602082019050919050565b5f6020820190508181035f8301526132938161325a565b9050919050565b7f50726f6a656374206d7573742062652061637469766520746f2066756e6400005f82015250565b5f6132ce601e83612347565b91506132d98261329a565b602082019050919050565b5f6020820190508181035f8301526132fb816132c2565b9050919050565b7f596f752063616e27742066756e6420616674657220646561646c696e650000005f82015250565b5f613336601d83612347565b915061334182613302565b602082019050919050565b5f6020820190508181035f8301526133638161332a565b9050919050565b5f613374826122df565b915061337f836122df565b925082820190508082111561339757613396612f1b565b5b92915050565b5f81905092915050565b50565b5f6133b55f8361339d565b91506133c0826133a7565b5f82019050919050565b5f6133d4826133aa565b9150819050919050565b7f4661696c656420746f2072657475726e20737572706c757300000000000000005f82015250565b5f613412601883612347565b915061341d826133de565b602082019050919050565b5f6020820190508181035f83015261343f81613406565b9050919050565b7f4f6e6c792073797374656d206f776e6572206f722070726f6a656374206f776e5f8201527f65722063616e2073746f702070726f6a65637473000000000000000000000000602082015250565b5f6134a0603483612347565b91506134ab82613446565b604082019050919050565b5f6020820190508181035f8301526134cd81613494565b9050919050565b7f4f6e6c79207379734f776e65722063616e20646561637469766174652070726f5f8201527f6a65637473000000000000000000000000000000000000000000000000000000602082015250565b5f61352e602583612347565b9150613539826134d4565b604082019050919050565b5f6020820190508181035f83015261355b81613522565b9050919050565b7f43616e6e6f7420616464206e6577206d696c6573746f6e657320746f20696e615f8201527f63746976652070726f6a65637400000000000000000000000000000000000000602082015250565b5f6135bc602d83612347565b91506135c782613562565b604082019050919050565b5f6020820190508181035f8301526135e9816135b0565b9050919050565b7f4f6e6c792070726f6a6563742063726561746f722063616e20616464206e65775f8201527f206d696c6573746f6e6573000000000000000000000000000000000000000000602082015250565b5f61364a602b83612347565b9150613655826135f0565b604082019050919050565b5f6020820190508181035f8301526136778161363e565b9050919050565b7f4d7573742068617665206174206c65617374206f6e65206d696c6573746f6e655f82015250565b5f6136b2602083612347565b91506136bd8261367e565b602082019050919050565b5f6020820190508181035f8301526136df816136a6565b9050919050565b7f476f616c20616d6f756e742063616e27742062652030000000000000000000005f82015250565b5f61371a601683612347565b9150613725826136e6565b602082019050919050565b5f6020820190508181035f8301526137478161370e565b9050919050565b7f446561646c696e652063616e277420626520696e2074686520706173740000005f82015250565b5f613782601d83612347565b915061378d8261374e565b602082019050919050565b5f6020820190508181035f8301526137af81613776565b9050919050565b7f4d696c6573746f6e6520676f616c732073686f756c6420626520696e637265615f8201527f73696e6700000000000000000000000000000000000000000000000000000000602082015250565b5f613810602483612347565b915061381b826137b6565b604082019050919050565b5f6020820190508181035f83015261383d81613804565b9050919050565b7f4d696c6573746f6e6520646561646c696e65732073686f756c6420626520696e5f8201527f6372656173696e67000000000000000000000000000000000000000000000000602082015250565b5f61389e602883612347565b91506138a982613844565b604082019050919050565b5f6020820190508181035f8301526138cb81613892565b9050919050565b5f6138dc826122df565b91507fffffffffffffffffffffffffffffffffffffffffffffffffffffffffffffffff820361390e5761390d612f1b565b5b600182019050919050565b7f43616e6e6f742073746f7020696e6163746976652070726f6a656374000000005f82015250565b5f61394d601c83612347565b915061395882613919565b602082019050919050565b5f6020820190508181035f83015261397a81613941565b9050919050565b7f5472616e7366657220746f2063726561746f72206661696c65640000000000005f82015250565b5f6139b5601a83612347565b91506139c082613981565b602082019050919050565b5f6020820190508181035f8301526139e2816139a9565b9050919050565b7f526566756e64206661696c6564000000000000000000000000000000000000005f82015250565b5f613a1d600d83612347565b9150613a28826139e9565b602082019050919050565b5f6020820190508181035f830152613a4a81613a11565b905091905056fea2646970667358221220b8fbe60425f41af8c0d58ec2b6f72cddd7247c96ca6228b8b22dc456aec6466d64736f6c634300081e0033",
			"opcodes": "PUSH1 0x80 PUSH1 0x40 MSTORE CALLVALUE DUP1 ISZERO PUSH1 0xE JUMPI PUSH0 PUSH0 REVERT JUMPDEST POP CALLER PUSH0 PUSH0 PUSH2 0x100 EXP DUP2 SLOAD DUP2 PUSH20 0xFFFFFFFFFFFFFFFFFFFFFFFFFFFFFFFFFFFFFFFF MUL NOT AND SWAP1 DUP4 PUSH20 0xFFFFFFFFFFFFFFFFFFFFFFFFFFFFFFFFFFFFFFFF AND MUL OR SWAP1 SSTORE POP PUSH2 0x3A87 DUP1 PUSH2 0x5B PUSH0 CODECOPY PUSH0 RETURN INVALID PUSH1 0x80 PUSH1 0x40 MSTORE PUSH1 0x4 CALLDATASIZE LT PUSH2 0xA6 JUMPI PUSH0 CALLDATALOAD PUSH1 0xE0 SHR DUP1 PUSH4 0x6DB7A960 GT PUSH2 0x63 JUMPI DUP1 PUSH4 0x6DB7A960 EQ PUSH2 0x1BE JUMPI DUP1 PUSH4 0x7808DE38 EQ PUSH2 0x1E6 JUMPI DUP1 PUSH4 0xAE632181 EQ PUSH2 0x1FC JUMPI DUP1 PUSH4 0xB99122AF EQ PUSH2 0x224 JUMPI DUP1 PUSH4 0xD8A5B36D EQ PUSH2 0x260 JUMPI DUP1 PUSH4 0xF2EF441B EQ PUSH2 0x29C JUMPI PUSH2 0xA6 JUMP JUMPDEST DUP1 PUSH4 0xE4877D6 EQ PUSH2 0xAA JUMPI DUP1 PUSH4 0x107046BD EQ PUSH2 0xD4 JUMPI DUP1 PUSH4 0x1A86E67D EQ PUSH2 0x116 JUMPI DUP1 PUSH4 0x33EC0FC5 EQ PUSH2 0x13E JUMPI DUP1 PUSH4 0x4E94E824 EQ PUSH2 0x17A JUMPI DUP1 PUSH4 0x6C563ABE EQ PUSH2 0x1A2 JUMPI JUMPDEST PUSH0 PUSH0 REVERT JUMPDEST CALLVALUE DUP1 ISZERO PUSH2 0xB5 JUMPI PUSH0 PUSH0 REVERT JUMPDEST POP PUSH2 0xBE PUSH2 0x2C6 JUMP JUMPDEST PUSH1 0x40 MLOAD PUSH2 0xCB SWAP2 SWAP1 PUSH2 0x22B5 JUMP JUMPDEST PUSH1 0x40 MLOAD DUP1 SWAP2 SUB SWAP1 RETURN JUMPDEST CALLVALUE DUP1 ISZERO PUSH2 0xDF JUMPI PUSH0 PUSH0 REVERT JUMPDEST POP PUSH2 0xFA PUSH1 0x4 DUP1 CALLDATASIZE SUB DUP2 ADD SWAP1 PUSH2 0xF5 SWAP2 SWAP1 PUSH2 0x2312 JUMP JUMPDEST PUSH2 0x2EA JUMP JUMPDEST PUSH1 0x40 MLOAD PUSH2 0x10D SWAP8 SWAP7 SWAP6 SWAP5 SWAP4 SWAP3 SWAP2 SWAP1 PUSH2 0x23D6 JUMP JUMPDEST PUSH1 0x40 MLOAD DUP1 SWAP2 SUB SWAP1 RETURN JUMPDEST CALLVALUE DUP1 ISZERO PUSH2 0x121 JUMPI PUSH0 PUSH0 REVERT JUMPDEST POP PUSH2 0x13C PUSH1 0x4 DUP1 CALLDATASIZE SUB DUP2 ADD SWAP1 PUSH2 0x137 SWAP2 SWAP1 PUSH2 0x2699 JUMP JUMPDEST PUSH2 0x4F4 JUMP JUMPDEST STOP JUMPDEST CALLVALUE DUP1 ISZERO PUSH2 0x149 JUMPI PUSH0 PUSH0 REVERT JUMPDEST POP PUSH2 0x164 PUSH1 0x4 DUP1 CALLDATASIZE SUB DUP2 ADD SWAP1 PUSH2 0x15F SWAP2 SWAP1 PUSH2 0x2312 JUMP JUMPDEST PUSH2 0x6AF JUMP JUMPDEST PUSH1 0x40 MLOAD PUSH2 0x171 SWAP2 SWAP1 PUSH2 0x2824 JUMP JUMPDEST PUSH1 0x40 MLOAD DUP1 SWAP2 SUB SWAP1 RETURN JUMPDEST CALLVALUE DUP1 ISZERO PUSH2 0x185 JUMPI PUSH0 PUSH0 REVERT JUMPDEST POP PUSH2 0x1A0 PUSH1 0x4 DUP1 CALLDATASIZE SUB DUP2 ADD SWAP1 PUSH2 0x19B SWAP2 SWAP1 PUSH2 0x2312 JUMP JUMPDEST PUSH2 0x78C JUMP JUMPDEST STOP JUMPDEST PUSH2 0x1BC PUSH1 0x4 DUP1 CALLDATASIZE SUB DUP2 ADD SWAP1 PUSH2 0x1B7 SWAP2 SWAP1 PUSH2 0x2312 JUMP JUMPDEST PUSH2 0x915 JUMP JUMPDEST STOP JUMPDEST CALLVALUE DUP1 ISZERO PUSH2 0x1C9 JUMPI PUSH0 PUSH0 REVERT JUMPDEST POP PUSH2 0x1E4 PUSH1 0x4 DUP1 CALLDATASIZE SUB DUP2 ADD SWAP1 PUSH2 0x1DF SWAP2 SWAP1 PUSH2 0x2312 JUMP JUMPDEST PUSH2 0xEFD JUMP JUMPDEST STOP JUMPDEST CALLVALUE DUP1 ISZERO PUSH2 0x1F1 JUMPI PUSH0 PUSH0 REVERT JUMPDEST POP PUSH2 0x1FA PUSH2 0x100E JUMP JUMPDEST STOP JUMPDEST CALLVALUE DUP1 ISZERO PUSH2 0x207 JUMPI PUSH0 PUSH0 REVERT JUMPDEST POP PUSH2 0x222 PUSH1 0x4 DUP1 CALLDATASIZE SUB DUP2 ADD SWAP1 PUSH2 0x21D SWAP2 SWAP1 PUSH2 0x2844 JUMP JUMPDEST PUSH2 0x113D JUMP JUMPDEST STOP JUMPDEST CALLVALUE DUP1 ISZERO PUSH2 0x22F JUMPI PUSH0 PUSH0 REVERT JUMPDEST POP PUSH2 0x24A PUSH1 0x4 DUP1 CALLDATASIZE SUB DUP2 ADD SWAP1 PUSH2 0x245 SWAP2 SWAP1 PUSH2 0x2312 JUMP JUMPDEST PUSH2 0x169F JUMP JUMPDEST PUSH1 0x40 MLOAD PUSH2 0x257 SWAP2 SWAP1 PUSH2 0x28DA JUMP JUMPDEST PUSH1 0x40 MLOAD DUP1 SWAP2 SUB SWAP1 RETURN JUMPDEST CALLVALUE DUP1 ISZERO PUSH2 0x26B JUMPI PUSH0 PUSH0 REVERT JUMPDEST POP PUSH2 0x286 PUSH1 0x4 DUP1 CALLDATASIZE SUB DUP2 ADD SWAP1 PUSH2 0x281 SWAP2 SWAP1 PUSH2 0x2312 JUMP JUMPDEST PUSH2 0x175F JUMP JUMPDEST PUSH1 0x40 MLOAD PUSH2 0x293 SWAP2 SWAP1 PUSH2 0x29C8 JUMP JUMPDEST PUSH1 0x40 MLOAD DUP1 SWAP2 SUB SWAP1 RETURN JUMPDEST CALLVALUE DUP1 ISZERO PUSH2 0x2A7 JUMPI PUSH0 PUSH0 REVERT JUMPDEST POP PUSH2 0x2B0 PUSH2 0x18B5 JUMP JUMPDEST PUSH1 0x40 MLOAD PUSH2 0x2BD SWAP2 SWAP1 PUSH2 0x2BA1 JUMP JUMPDEST PUSH1 0x40 MLOAD DUP1 SWAP2 SUB SWAP1 RETURN JUMPDEST PUSH0 PUSH0 SWAP1 SLOAD SWAP1 PUSH2 0x100 EXP SWAP1 DIV PUSH20 0xFFFFFFFFFFFFFFFFFFFFFFFFFFFFFFFFFFFFFFFF AND DUP2 JUMP JUMPDEST PUSH1 0x1 DUP2 DUP2 SLOAD DUP2 LT PUSH2 0x2F9 JUMPI PUSH0 DUP1 REVERT JUMPDEST SWAP1 PUSH0 MSTORE PUSH1 0x20 PUSH0 KECCAK256 SWAP1 PUSH1 0x8 MUL ADD PUSH0 SWAP2 POP SWAP1 POP DUP1 PUSH0 ADD PUSH0 SWAP1 SLOAD SWAP1 PUSH2 0x100 EXP SWAP1 DIV PUSH20 0xFFFFFFFFFFFFFFFFFFFFFFFFFFFFFFFFFFFFFFFF AND SWAP1 DUP1 PUSH1 0x1 ADD DUP1 SLOAD PUSH2 0x33D SWAP1 PUSH2 0x2BEE JUMP JUMPDEST DUP1 PUSH1 0x1F ADD PUSH1 0x20 DUP1 SWAP2 DIV MUL PUSH1 0x20 ADD PUSH1 0x40 MLOAD SWAP1 DUP2 ADD PUSH1 0x40 MSTORE DUP1 SWAP3 SWAP2 SWAP1 DUP2 DUP2 MSTORE PUSH1 0x20 ADD DUP3 DUP1 SLOAD PUSH2 0x369 SWAP1 PUSH2 0x2BEE JUMP JUMPDEST DUP1 ISZERO PUSH2 0x3B4 JUMPI DUP1 PUSH1 0x1F LT PUSH2 0x38B JUMPI PUSH2 0x100 DUP1 DUP4 SLOAD DIV MUL DUP4 MSTORE SWAP2 PUSH1 0x20 ADD SWAP2 PUSH2 0x3B4 JUMP JUMPDEST DUP3 ADD SWAP2 SWAP1 PUSH0 MSTORE PUSH1 0x20 PUSH0 KECCAK256 SWAP1 JUMPDEST DUP2 SLOAD DUP2 MSTORE SWAP1 PUSH1 0x1 ADD SWAP1 PUSH1 0x20 ADD DUP1 DUP4 GT PUSH2 0x397 JUMPI DUP3 SWAP1 SUB PUSH1 0x1F AND DUP3 ADD SWAP2 JUMPDEST POP POP POP POP POP SWAP1 DUP1 PUSH1 0x2 ADD DUP1 SLOAD PUSH2 0x3C9 SWAP1 PUSH2 0x2BEE JUMP JUMPDEST DUP1 PUSH1 0x1F ADD PUSH1 0x20 DUP1 SWAP2 DIV MUL PUSH1 0x20 ADD PUSH1 0x40 MLOAD SWAP1 DUP2 ADD PUSH1 0x40 MSTORE DUP1 SWAP3 SWAP2 SWAP1 DUP2 DUP2 MSTORE PUSH1 0x20 ADD DUP3 DUP1 SLOAD PUSH2 0x3F5 SWAP1 PUSH2 0x2BEE JUMP JUMPDEST DUP1 ISZERO PUSH2 0x440 JUMPI DUP1 PUSH1 0x1F LT PUSH2 0x417 JUMPI PUSH2 0x100 DUP1 DUP4 SLOAD DIV MUL DUP4 MSTORE SWAP2 PUSH1 0x20 ADD SWAP2 PUSH2 0x440 JUMP JUMPDEST DUP3 ADD SWAP2 SWAP1 PUSH0 MSTORE PUSH1 0x20 PUSH0 KECCAK256 SWAP1 JUMPDEST DUP2 SLOAD DUP2 MSTORE SWAP1 PUSH1 0x1 ADD SWAP1 PUSH1 0x20 ADD DUP1 DUP4 GT PUSH2 0x423 JUMPI DUP3 SWAP1 SUB PUSH1 0x1F AND DUP3 ADD SWAP2 JUMPDEST POP POP POP POP POP SWAP1 DUP1 PUSH1 0x3 ADD DUP1 SLOAD PUSH2 0x455 SWAP1 PUSH2 0x2BEE JUMP JUMPDEST DUP1 PUSH1 0x1F ADD PUSH1 0x20 DUP1 SWAP2 DIV MUL PUSH1 0x20 ADD PUSH1 0x40 MLOAD SWAP1 DUP2 ADD PUSH1 0x40 MSTORE DUP1 SWAP3 SWAP2 SWAP1 DUP2 DUP2 MSTORE PUSH1 0x20 ADD DUP3 DUP1 SLOAD PUSH2 0x481 SWAP1 PUSH2 0x2BEE JUMP JUMPDEST DUP1 ISZERO PUSH2 0x4CC JUMPI DUP1 PUSH1 0x1F LT PUSH2 0x4A3 JUMPI PUSH2 0x100 DUP1 DUP4 SLOAD DIV MUL DUP4 MSTORE SWAP2 PUSH1 0x20 ADD SWAP2 PUSH2 0x4CC JUMP JUMPDEST DUP3 ADD SWAP2 SWAP1 PUSH0 MSTORE PUSH1 0x20 PUSH0 KECCAK256 SWAP1 JUMPDEST DUP2 SLOAD DUP2 MSTORE SWAP1 PUSH1 0x1 ADD SWAP1 PUSH1 0x20 ADD DUP1 DUP4 GT PUSH2 0x4AF JUMPI DUP3 SWAP1 SUB PUSH1 0x1F AND DUP3 ADD SWAP2 JUMPDEST POP POP POP POP POP SWAP1 DUP1 PUSH1 0x4 ADD SLOAD SWAP1 DUP1 PUSH1 0x5 ADD SLOAD SWAP1 DUP1 PUSH1 0x7 ADD PUSH0 SWAP1 SLOAD SWAP1 PUSH2 0x100 EXP SWAP1 DIV PUSH1 0xFF AND SWAP1 POP DUP8 JUMP JUMPDEST PUSH0 PUSH0 SWAP1 SLOAD SWAP1 PUSH2 0x100 EXP SWAP1 DIV PUSH20 0xFFFFFFFFFFFFFFFFFFFFFFFFFFFFFFFFFFFFFFFF AND PUSH20 0xFFFFFFFFFFFFFFFFFFFFFFFFFFFFFFFFFFFFFFFF AND CALLER PUSH20 0xFFFFFFFFFFFFFFFFFFFFFFFFFFFFFFFFFFFFFFFF AND SUB PUSH2 0x582 JUMPI PUSH1 0x40 MLOAD PUSH32 0x8C379A000000000000000000000000000000000000000000000000000000000 DUP2 MSTORE PUSH1 0x4 ADD PUSH2 0x579 SWAP1 PUSH2 0x2C8E JUMP JUMPDEST PUSH1 0x40 MLOAD DUP1 SWAP2 SUB SWAP1 REVERT JUMPDEST PUSH0 PUSH1 0x1 DUP1 DUP2 PUSH1 0x1 DUP2 SLOAD ADD DUP1 DUP3 SSTORE DUP1 SWAP2 POP POP SUB SWAP1 PUSH0 MSTORE PUSH1 0x20 PUSH0 KECCAK256 SWAP1 PUSH1 0x8 MUL ADD SWAP1 POP CALLER DUP2 PUSH0 ADD PUSH0 PUSH2 0x100 EXP DUP2 SLOAD DUP2 PUSH20 0xFFFFFFFFFFFFFFFFFFFFFFFFFFFFFFFFFFFFFFFF MUL NOT AND SWAP1 DUP4 PUSH20 0xFFFFFFFFFFFFFFFFFFFFFFFFFFFFFFFFFFFFFFFF AND MUL OR SWAP1 SSTORE POP DUP5 DUP2 PUSH1 0x1 ADD SWAP1 DUP2 PUSH2 0x5F4 SWAP2 SWAP1 PUSH2 0x2E4C JUMP JUMPDEST POP DUP4 DUP2 PUSH1 0x2 ADD SWAP1 DUP2 PUSH2 0x606 SWAP2 SWAP1 PUSH2 0x2E4C JUMP JUMPDEST POP DUP3 DUP2 PUSH1 0x3 ADD SWAP1 DUP2 PUSH2 0x618 SWAP2 SWAP1 PUSH2 0x2E4C JUMP JUMPDEST POP PUSH0 DUP2 PUSH1 0x4 ADD DUP2 SWAP1 SSTORE POP PUSH0 DUP2 PUSH1 0x5 ADD DUP2 SWAP1 SSTORE POP PUSH1 0x1 DUP2 PUSH1 0x7 ADD PUSH0 PUSH2 0x100 EXP DUP2 SLOAD DUP2 PUSH1 0xFF MUL NOT AND SWAP1 DUP4 ISZERO ISZERO MUL OR SWAP1 SSTORE POP PUSH2 0x661 PUSH1 0x1 DUP1 DUP1 SLOAD SWAP1 POP PUSH2 0x65B SWAP2 SWAP1 PUSH2 0x2F48 JUMP JUMPDEST DUP4 PUSH2 0x113D JUMP JUMPDEST PUSH32 0x1AC2092E16E28EEF29D1832F3DC69DA1B21284A1F3159D3B26CB238B22FE4F8A PUSH1 0x1 DUP1 DUP1 SLOAD SWAP1 POP PUSH2 0x693 SWAP2 SWAP1 PUSH2 0x2F48 JUMP JUMPDEST PUSH1 0x40 MLOAD PUSH2 0x6A0 SWAP2 SWAP1 PUSH2 0x2F7B JUMP JUMPDEST PUSH1 0x40 MLOAD DUP1 SWAP2 SUB SWAP1 LOG1 POP POP POP POP POP JUMP JUMPDEST PUSH1 0x60 PUSH0 PUSH1 0x1 DUP4 DUP2 SLOAD DUP2 LT PUSH2 0x6C6 JUMPI PUSH2 0x6C5 PUSH2 0x2F94 JUMP JUMPDEST JUMPDEST SWAP1 PUSH0 MSTORE PUSH1 0x20 PUSH0 KECCAK256 SWAP1 PUSH1 0x8 MUL ADD SWAP1 POP PUSH0 DUP2 PUSH1 0x6 ADD DUP3 PUSH1 0x5 ADD SLOAD DUP2 SLOAD DUP2 LT PUSH2 0x6EF JUMPI PUSH2 0x6EE PUSH2 0x2F94 JUMP JUMPDEST JUMPDEST SWAP1 PUSH0 MSTORE PUSH1 0x20 PUSH0 KECCAK256 SWAP1 PUSH1 0x6 MUL ADD SWAP1 POP DUP1 PUSH1 0x3 ADD DUP1 SLOAD DUP1 PUSH1 0x20 MUL PUSH1 0x20 ADD PUSH1 0x40 MLOAD SWAP1 DUP2 ADD PUSH1 0x40 MSTORE DUP1 SWAP3 SWAP2 SWAP1 DUP2 DUP2 MSTORE PUSH1 0x20 ADD DUP3 DUP1 SLOAD DUP1 ISZERO PUSH2 0x77E JUMPI PUSH1 0x20 MUL DUP3 ADD SWAP2 SWAP1 PUSH0 MSTORE PUSH1 0x20 PUSH0 KECCAK256 SWAP1 JUMPDEST DUP2 PUSH0 SWAP1 SLOAD SWAP1 PUSH2 0x100 EXP SWAP1 DIV PUSH20 0xFFFFFFFFFFFFFFFFFFFFFFFFFFFFFFFFFFFFFFFF AND PUSH20 0xFFFFFFFFFFFFFFFFFFFFFFFFFFFFFFFFFFFFFFFF AND DUP2 MSTORE PUSH1 0x20 ADD SWAP1 PUSH1 0x1 ADD SWAP1 DUP1 DUP4 GT PUSH2 0x735 JUMPI JUMPDEST POP POP POP POP POP SWAP3 POP POP POP SWAP2 SWAP1 POP JUMP JUMPDEST PUSH1 0x1 DUP1 SLOAD SWAP1 POP DUP2 LT PUSH2 0x7D3 JUMPI PUSH1 0x40 MLOAD PUSH32 0x8C379A000000000000000000000000000000000000000000000000000000000 DUP2 MSTORE PUSH1 0x4 ADD PUSH2 0x7CA SWAP1 PUSH2 0x300B JUMP JUMPDEST PUSH1 0x40 MLOAD DUP1 SWAP2 SUB SWAP1 REVERT JUMPDEST PUSH0 PUSH1 0x1 DUP3 DUP2 SLOAD DUP2 LT PUSH2 0x7E8 JUMPI PUSH2 0x7E7 PUSH2 0x2F94 JUMP JUMPDEST JUMPDEST SWAP1 PUSH0 MSTORE PUSH1 0x20 PUSH0 KECCAK256 SWAP1 PUSH1 0x8 MUL ADD SWAP1 POP DUP1 PUSH1 0x7 ADD PUSH0 SWAP1 SLOAD SWAP1 PUSH2 0x100 EXP SWAP1 DIV PUSH1 0xFF AND PUSH2 0x846 JUMPI PUSH1 0x40 MLOAD PUSH32 0x8C379A000000000000000000000000000000000000000000000000000000000 DUP2 MSTORE PUSH1 0x4 ADD PUSH2 0x83D SWAP1 PUSH2 0x3073 JUMP JUMPDEST PUSH1 0x40 MLOAD DUP1 SWAP2 SUB SWAP1 REVERT JUMPDEST PUSH0 DUP2 PUSH1 0x6 ADD DUP3 PUSH1 0x5 ADD SLOAD DUP2 SLOAD DUP2 LT PUSH2 0x861 JUMPI PUSH2 0x860 PUSH2 0x2F94 JUMP JUMPDEST JUMPDEST SWAP1 PUSH0 MSTORE PUSH1 0x20 PUSH0 KECCAK256 SWAP1 PUSH1 0x6 MUL ADD SWAP1 POP DUP1 PUSH1 0x5 ADD PUSH0 SWAP1 SLOAD SWAP1 PUSH2 0x100 EXP SWAP1 DIV PUSH1 0xFF AND ISZERO PUSH2 0x8C0 JUMPI PUSH1 0x40 MLOAD PUSH32 0x8C379A000000000000000000000000000000000000000000000000000000000 DUP2 MSTORE PUSH1 0x4 ADD PUSH2 0x8B7 SWAP1 PUSH2 0x30DB JUMP JUMPDEST PUSH1 0x40 MLOAD DUP1 SWAP2 SUB SWAP1 REVERT JUMPDEST PUSH32 0x3F9EE693372748925082C0C5BA09ECFFC5FDDFEECF993BECFF877EAC8A1E08BC DUP2 PUSH0 ADD PUSH1 0x1 ADD SLOAD DUP3 PUSH0 ADD PUSH0 ADD SLOAD DUP5 PUSH1 0x4 ADD SLOAD DUP5 PUSH1 0x2 ADD SLOAD PUSH1 0x40 MLOAD PUSH2 0x908 SWAP5 SWAP4 SWAP3 SWAP2 SWAP1 PUSH2 0x30F9 JUMP JUMPDEST PUSH1 0x40 MLOAD DUP1 SWAP2 SUB SWAP1 LOG1 POP POP POP JUMP JUMPDEST PUSH1 0x1 DUP1 SLOAD SWAP1 POP DUP2 LT PUSH2 0x95C JUMPI PUSH1 0x40 MLOAD PUSH32 0x8C379A000000000000000000000000000000000000000000000000000000000 DUP2 MSTORE PUSH1 0x4 ADD PUSH2 0x953 SWAP1 PUSH2 0x3186 JUMP JUMPDEST PUSH1 0x40 MLOAD DUP1 SWAP2 SUB SWAP1 REVERT JUMPDEST CALLER PUSH20 0xFFFFFFFFFFFFFFFFFFFFFFFFFFFFFFFFFFFFFFFF AND BALANCE CALLVALUE GT ISZERO PUSH2 0x9B6 JUMPI PUSH1 0x40 MLOAD PUSH32 0x8C379A000000000000000000000000000000000000000000000000000000000 DUP2 MSTORE PUSH1 0x4 ADD PUSH2 0x9AD SWAP1 PUSH2 0x3214 JUMP JUMPDEST PUSH1 0x40 MLOAD DUP1 SWAP2 SUB SWAP1 REVERT JUMPDEST PUSH0 CALLVALUE GT PUSH2 0x9F8 JUMPI PUSH1 0x40 MLOAD PUSH32 0x8C379A000000000000000000000000000000000000000000000000000000000 DUP2 MSTORE PUSH1 0x4 ADD PUSH2 0x9EF SWAP1 PUSH2 0x327C JUMP JUMPDEST PUSH1 0x40 MLOAD DUP1 SWAP2 SUB SWAP1 REVERT JUMPDEST PUSH0 PUSH1 0x1 DUP3 DUP2 SLOAD DUP2 LT PUSH2 0xA0D JUMPI PUSH2 0xA0C PUSH2 0x2F94 JUMP JUMPDEST JUMPDEST SWAP1 PUSH0 MSTORE PUSH1 0x20 PUSH0 KECCAK256 SWAP1 PUSH1 0x8 MUL ADD SWAP1 POP DUP1 PUSH1 0x7 ADD PUSH0 SWAP1 SLOAD SWAP1 PUSH2 0x100 EXP SWAP1 DIV PUSH1 0xFF AND PUSH2 0xA6B JUMPI PUSH1 0x40 MLOAD PUSH32 0x8C379A000000000000000000000000000000000000000000000000000000000 DUP2 MSTORE PUSH1 0x4 ADD PUSH2 0xA62 SWAP1 PUSH2 0x32E4 JUMP JUMPDEST PUSH1 0x40 MLOAD DUP1 SWAP2 SUB SWAP1 REVERT JUMPDEST PUSH0 DUP2 PUSH1 0x6 ADD DUP3 PUSH1 0x5 ADD SLOAD DUP2 SLOAD DUP2 LT PUSH2 0xA86 JUMPI PUSH2 0xA85 PUSH2 0x2F94 JUMP JUMPDEST JUMPDEST SWAP1 PUSH0 MSTORE PUSH1 0x20 PUSH0 KECCAK256 SWAP1 PUSH1 0x6 MUL ADD SWAP1 POP TIMESTAMP DUP2 PUSH0 ADD PUSH1 0x1 ADD SLOAD GT PUSH2 0xADC JUMPI PUSH1 0x40 MLOAD PUSH32 0x8C379A000000000000000000000000000000000000000000000000000000000 DUP2 MSTORE PUSH1 0x4 ADD PUSH2 0xAD3 SWAP1 PUSH2 0x334C JUMP JUMPDEST PUSH1 0x40 MLOAD DUP1 SWAP2 SUB SWAP1 REVERT JUMPDEST PUSH0 DUP2 PUSH1 0x4 ADD PUSH0 CALLER PUSH20 0xFFFFFFFFFFFFFFFFFFFFFFFFFFFFFFFFFFFFFFFF AND PUSH20 0xFFFFFFFFFFFFFFFFFFFFFFFFFFFFFFFFFFFFFFFF AND DUP2 MSTORE PUSH1 0x20 ADD SWAP1 DUP2 MSTORE PUSH1 0x20 ADD PUSH0 KECCAK256 SLOAD SUB PUSH2 0xB85 JUMPI DUP1 PUSH1 0x3 ADD CALLER SWAP1 DUP1 PUSH1 0x1 DUP2 SLOAD ADD DUP1 DUP3 SSTORE DUP1 SWAP2 POP POP PUSH1 0x1 SWAP1 SUB SWAP1 PUSH0 MSTORE PUSH1 0x20 PUSH0 KECCAK256 ADD PUSH0 SWAP1 SWAP2 SWAP1 SWAP2 SWAP1 SWAP2 PUSH2 0x100 EXP DUP2 SLOAD DUP2 PUSH20 0xFFFFFFFFFFFFFFFFFFFFFFFFFFFFFFFFFFFFFFFF MUL NOT AND SWAP1 DUP4 PUSH20 0xFFFFFFFFFFFFFFFFFFFFFFFFFFFFFFFFFFFFFFFF AND MUL OR SWAP1 SSTORE POP JUMPDEST CALLVALUE DUP2 PUSH1 0x4 ADD PUSH0 CALLER PUSH20 0xFFFFFFFFFFFFFFFFFFFFFFFFFFFFFFFFFFFFFFFF AND PUSH20 0xFFFFFFFFFFFFFFFFFFFFFFFFFFFFFFFFFFFFFFFF AND DUP2 MSTORE PUSH1 0x20 ADD SWAP1 DUP2 MSTORE PUSH1 0x20 ADD PUSH0 KECCAK256 PUSH0 DUP3 DUP3 SLOAD PUSH2 0xBD3 SWAP2 SWAP1 PUSH2 0x336A JUMP JUMPDEST SWAP3 POP POP DUP2 SWAP1 SSTORE POP CALLVALUE DUP2 PUSH1 0x2 ADD PUSH0 DUP3 DUP3 SLOAD PUSH2 0xBED SWAP2 SWAP1 PUSH2 0x336A JUMP JUMPDEST SWAP3 POP POP DUP2 SWAP1 SSTORE POP CALLVALUE DUP3 PUSH1 0x4 ADD PUSH0 DUP3 DUP3 SLOAD PUSH2 0xC07 SWAP2 SWAP1 PUSH2 0x336A JUMP JUMPDEST SWAP3 POP POP DUP2 SWAP1 SSTORE POP JUMPDEST DUP1 PUSH0 ADD PUSH0 ADD SLOAD DUP3 PUSH1 0x4 ADD SLOAD GT ISZERO PUSH2 0xEB3 JUMPI PUSH0 DUP2 PUSH0 ADD PUSH0 ADD SLOAD DUP4 PUSH1 0x4 ADD SLOAD PUSH2 0xC36 SWAP2 SWAP1 PUSH2 0x2F48 JUMP JUMPDEST SWAP1 POP DUP2 PUSH0 ADD PUSH0 ADD SLOAD DUP3 PUSH1 0x2 ADD DUP2 SWAP1 SSTORE POP DUP2 PUSH0 ADD PUSH0 ADD SLOAD DUP4 PUSH1 0x4 ADD DUP2 SWAP1 SSTORE POP DUP1 DUP3 PUSH1 0x4 ADD PUSH0 CALLER PUSH20 0xFFFFFFFFFFFFFFFFFFFFFFFFFFFFFFFFFFFFFFFF AND PUSH20 0xFFFFFFFFFFFFFFFFFFFFFFFFFFFFFFFFFFFFFFFF AND DUP2 MSTORE PUSH1 0x20 ADD SWAP1 DUP2 MSTORE PUSH1 0x20 ADD PUSH0 KECCAK256 PUSH0 DUP3 DUP3 SLOAD PUSH2 0xCA2 SWAP2 SWAP1 PUSH2 0x2F48 JUMP JUMPDEST SWAP3 POP POP DUP2 SWAP1 SSTORE POP PUSH1 0x1 DUP4 PUSH1 0x6 ADD DUP1 SLOAD SWAP1 POP PUSH2 0xCBD SWAP2 SWAP1 PUSH2 0x2F48 JUMP JUMPDEST DUP4 PUSH1 0x5 ADD SLOAD SUB PUSH2 0xD90 JUMPI PUSH0 DUP4 PUSH1 0x7 ADD PUSH0 PUSH2 0x100 EXP DUP2 SLOAD DUP2 PUSH1 0xFF MUL NOT AND SWAP1 DUP4 ISZERO ISZERO MUL OR SWAP1 SSTORE POP PUSH0 CALLER PUSH20 0xFFFFFFFFFFFFFFFFFFFFFFFFFFFFFFFFFFFFFFFF AND DUP3 PUSH1 0x40 MLOAD PUSH2 0xD07 SWAP1 PUSH2 0x33CA JUMP JUMPDEST PUSH0 PUSH1 0x40 MLOAD DUP1 DUP4 SUB DUP2 DUP6 DUP8 GAS CALL SWAP3 POP POP POP RETURNDATASIZE DUP1 PUSH0 DUP2 EQ PUSH2 0xD41 JUMPI PUSH1 0x40 MLOAD SWAP2 POP PUSH1 0x1F NOT PUSH1 0x3F RETURNDATASIZE ADD AND DUP3 ADD PUSH1 0x40 MSTORE RETURNDATASIZE DUP3 MSTORE RETURNDATASIZE PUSH0 PUSH1 0x20 DUP5 ADD RETURNDATACOPY PUSH2 0xD46 JUMP JUMPDEST PUSH1 0x60 SWAP2 POP JUMPDEST POP POP SWAP1 POP DUP1 PUSH2 0xD8A JUMPI PUSH1 0x40 MLOAD PUSH32 0x8C379A000000000000000000000000000000000000000000000000000000000 DUP2 MSTORE PUSH1 0x4 ADD PUSH2 0xD81 SWAP1 PUSH2 0x3428 JUMP JUMPDEST PUSH1 0x40 MLOAD DUP1 SWAP2 SUB SWAP1 REVERT JUMPDEST POP PUSH2 0xEAD JUMP JUMPDEST PUSH2 0xD99 DUP5 PUSH2 0x1D36 JUMP JUMPDEST DUP3 PUSH1 0x6 ADD DUP4 PUSH1 0x5 ADD SLOAD DUP2 SLOAD DUP2 LT PUSH2 0xDB3 JUMPI PUSH2 0xDB2 PUSH2 0x2F94 JUMP JUMPDEST JUMPDEST SWAP1 PUSH0 MSTORE PUSH1 0x20 PUSH0 KECCAK256 SWAP1 PUSH1 0x6 MUL ADD SWAP2 POP DUP2 PUSH1 0x3 ADD CALLER SWAP1 DUP1 PUSH1 0x1 DUP2 SLOAD ADD DUP1 DUP3 SSTORE DUP1 SWAP2 POP POP PUSH1 0x1 SWAP1 SUB SWAP1 PUSH0 MSTORE PUSH1 0x20 PUSH0 KECCAK256 ADD PUSH0 SWAP1 SWAP2 SWAP1 SWAP2 SWAP1 SWAP2 PUSH2 0x100 EXP DUP2 SLOAD DUP2 PUSH20 0xFFFFFFFFFFFFFFFFFFFFFFFFFFFFFFFFFFFFFFFF MUL NOT AND SWAP1 DUP4 PUSH20 0xFFFFFFFFFFFFFFFFFFFFFFFFFFFFFFFFFFFFFFFF AND MUL OR SWAP1 SSTORE POP DUP1 DUP3 PUSH1 0x4 ADD PUSH0 CALLER PUSH20 0xFFFFFFFFFFFFFFFFFFFFFFFFFFFFFFFFFFFFFFFF AND PUSH20 0xFFFFFFFFFFFFFFFFFFFFFFFFFFFFFFFFFFFFFFFF AND DUP2 MSTORE PUSH1 0x20 ADD SWAP1 DUP2 MSTORE PUSH1 0x20 ADD PUSH0 KECCAK256 PUSH0 DUP3 DUP3 SLOAD PUSH2 0xE71 SWAP2 SWAP1 PUSH2 0x336A JUMP JUMPDEST SWAP3 POP POP DUP2 SWAP1 SSTORE POP DUP1 DUP3 PUSH1 0x2 ADD PUSH0 DUP3 DUP3 SLOAD PUSH2 0xE8B SWAP2 SWAP1 PUSH2 0x336A JUMP JUMPDEST SWAP3 POP POP DUP2 SWAP1 SSTORE POP DUP1 DUP4 PUSH1 0x4 ADD PUSH0 DUP3 DUP3 SLOAD PUSH2 0xEA5 SWAP2 SWAP1 PUSH2 0x336A JUMP JUMPDEST SWAP3 POP POP DUP2 SWAP1 SSTORE POP JUMPDEST POP PUSH2 0xC0F JUMP JUMPDEST PUSH32 0x17E2EFFA169C5DDE193942ABD21F6D49E7D32C15AB843DA440CB2ABDD10F1911 DUP4 CALLVALUE DUP5 PUSH1 0x4 ADD SLOAD DUP5 PUSH1 0x2 ADD SLOAD PUSH1 0x40 MLOAD PUSH2 0xEF0 SWAP5 SWAP4 SWAP3 SWAP2 SWAP1 PUSH2 0x30F9 JUMP JUMPDEST PUSH1 0x40 MLOAD DUP1 SWAP2 SUB SWAP1 LOG1 POP POP POP JUMP JUMPDEST PUSH0 PUSH0 SWAP1 SLOAD SWAP1 PUSH2 0x100 EXP SWAP1 DIV PUSH20 0xFFFFFFFFFFFFFFFFFFFFFFFFFFFFFFFFFFFFFFFF AND PUSH20 0xFFFFFFFFFFFFFFFFFFFFFFFFFFFFFFFFFFFFFFFF AND CALLER PUSH20 0xFFFFFFFFFFFFFFFFFFFFFFFFFFFFFFFFFFFFFFFF AND EQ DUP1 PUSH2 0xFC3 JUMPI POP PUSH1 0x1 DUP2 DUP2 SLOAD DUP2 LT PUSH2 0xF66 JUMPI PUSH2 0xF65 PUSH2 0x2F94 JUMP JUMPDEST JUMPDEST SWAP1 PUSH0 MSTORE PUSH1 0x20 PUSH0 KECCAK256 SWAP1 PUSH1 0x8 MUL ADD PUSH0 ADD PUSH0 SWAP1 SLOAD SWAP1 PUSH2 0x100 EXP SWAP1 DIV PUSH20 0xFFFFFFFFFFFFFFFFFFFFFFFFFFFFFFFFFFFFFFFF AND PUSH20 0xFFFFFFFFFFFFFFFFFFFFFFFFFFFFFFFFFFFFFFFF AND CALLER PUSH20 0xFFFFFFFFFFFFFFFFFFFFFFFFFFFFFFFFFFFFFFFF AND EQ JUMPDEST PUSH2 0x1002 JUMPI PUSH1 0x40 MLOAD PUSH32 0x8C379A000000000000000000000000000000000000000000000000000000000 DUP2 MSTORE PUSH1 0x4 ADD PUSH2 0xFF9 SWAP1 PUSH2 0x34B6 JUMP JUMPDEST PUSH1 0x40 MLOAD DUP1 SWAP2 SUB SWAP1 REVERT JUMPDEST PUSH2 0x100B DUP2 PUSH2 0x1EA0 JUMP JUMPDEST POP JUMP JUMPDEST PUSH0 PUSH0 SWAP1 SLOAD SWAP1 PUSH2 0x100 EXP SWAP1 DIV PUSH20 0xFFFFFFFFFFFFFFFFFFFFFFFFFFFFFFFFFFFFFFFF AND PUSH20 0xFFFFFFFFFFFFFFFFFFFFFFFFFFFFFFFFFFFFFFFF AND CALLER PUSH20 0xFFFFFFFFFFFFFFFFFFFFFFFFFFFFFFFFFFFFFFFF AND EQ PUSH2 0x109C JUMPI PUSH1 0x40 MLOAD PUSH32 0x8C379A000000000000000000000000000000000000000000000000000000000 DUP2 MSTORE PUSH1 0x4 ADD PUSH2 0x1093 SWAP1 PUSH2 0x3544 JUMP JUMPDEST PUSH1 0x40 MLOAD DUP1 SWAP2 SUB SWAP1 REVERT JUMPDEST PUSH0 PUSH0 SWAP1 POP JUMPDEST PUSH1 0x1 DUP1 SLOAD SWAP1 POP DUP2 LT ISZERO PUSH2 0x113A JUMPI PUSH0 PUSH1 0x1 DUP3 DUP2 SLOAD DUP2 LT PUSH2 0x10C3 JUMPI PUSH2 0x10C2 PUSH2 0x2F94 JUMP JUMPDEST JUMPDEST SWAP1 PUSH0 MSTORE PUSH1 0x20 PUSH0 KECCAK256 SWAP1 PUSH1 0x8 MUL ADD SWAP1 POP PUSH0 DUP2 PUSH1 0x6 ADD DUP3 PUSH1 0x5 ADD SLOAD DUP2 SLOAD DUP2 LT PUSH2 0x10EC JUMPI PUSH2 0x10EB PUSH2 0x2F94 JUMP JUMPDEST JUMPDEST SWAP1 PUSH0 MSTORE PUSH1 0x20 PUSH0 KECCAK256 SWAP1 PUSH1 0x6 MUL ADD SWAP1 POP DUP2 PUSH1 0x7 ADD PUSH0 SWAP1 SLOAD SWAP1 PUSH2 0x100 EXP SWAP1 DIV PUSH1 0xFF AND DUP1 ISZERO PUSH2 0x111C JUMPI POP TIMESTAMP DUP2 PUSH0 ADD PUSH1 0x1 ADD SLOAD LT JUMPDEST ISZERO PUSH2 0x112B JUMPI PUSH2 0x112A DUP4 PUSH2 0x1EA0 JUMP JUMPDEST JUMPDEST POP POP DUP1 DUP1 PUSH1 0x1 ADD SWAP2 POP POP PUSH2 0x10A1 JUMP JUMPDEST POP JUMP JUMPDEST PUSH1 0x1 DUP1 SLOAD SWAP1 POP DUP3 LT PUSH2 0x1184 JUMPI PUSH1 0x40 MLOAD PUSH32 0x8C379A000000000000000000000000000000000000000000000000000000000 DUP2 MSTORE PUSH1 0x4 ADD PUSH2 0x117B SWAP1 PUSH2 0x300B JUMP JUMPDEST PUSH1 0x40 MLOAD DUP1 SWAP2 SUB SWAP1 REVERT JUMPDEST PUSH0 PUSH1 0x1 DUP4 DUP2 SLOAD DUP2 LT PUSH2 0x1199 JUMPI PUSH2 0x1198 PUSH2 0x2F94 JUMP JUMPDEST JUMPDEST SWAP1 PUSH0 MSTORE PUSH1 0x20 PUSH0 KECCAK256 SWAP1 PUSH1 0x8 MUL ADD SWAP1 POP DUP1 PUSH1 0x7 ADD PUSH0 SWAP1 SLOAD SWAP1 PUSH2 0x100 EXP SWAP1 DIV PUSH1 0xFF AND PUSH2 0x11F7 JUMPI PUSH1 0x40 MLOAD PUSH32 0x8C379A000000000000000000000000000000000000000000000000000000000 DUP2 MSTORE PUSH1 0x4 ADD PUSH2 0x11EE SWAP1 PUSH2 0x35D2 JUMP JUMPDEST PUSH1 0x40 MLOAD DUP1 SWAP2 SUB SWAP1 REVERT JUMPDEST CALLER PUSH20 0xFFFFFFFFFFFFFFFFFFFFFFFFFFFFFFFFFFFFFFFF AND DUP2 PUSH0 ADD PUSH0 SWAP1 SLOAD SWAP1 PUSH2 0x100 EXP SWAP1 DIV PUSH20 0xFFFFFFFFFFFFFFFFFFFFFFFFFFFFFFFFFFFFFFFF AND PUSH20 0xFFFFFFFFFFFFFFFFFFFFFFFFFFFFFFFFFFFFFFFF AND EQ PUSH2 0x1287 JUMPI PUSH1 0x40 MLOAD PUSH32 0x8C379A000000000000000000000000000000000000000000000000000000000 DUP2 MSTORE PUSH1 0x4 ADD PUSH2 0x127E SWAP1 PUSH2 0x3660 JUMP JUMPDEST PUSH1 0x40 MLOAD DUP1 SWAP2 SUB SWAP1 REVERT JUMPDEST PUSH0 DUP3 MLOAD GT PUSH2 0x12CA JUMPI PUSH1 0x40 MLOAD PUSH32 0x8C379A000000000000000000000000000000000000000000000000000000000 DUP2 MSTORE PUSH1 0x4 ADD PUSH2 0x12C1 SWAP1 PUSH2 0x36C8 JUMP JUMPDEST PUSH1 0x40 MLOAD DUP1 SWAP2 SUB SWAP1 REVERT JUMPDEST PUSH0 PUSH0 SWAP1 POP JUMPDEST DUP3 MLOAD DUP2 LT ISZERO PUSH2 0x1699 JUMPI PUSH0 DUP4 DUP3 DUP2 MLOAD DUP2 LT PUSH2 0x12EC JUMPI PUSH2 0x12EB PUSH2 0x2F94 JUMP JUMPDEST JUMPDEST PUSH1 0x20 MUL PUSH1 0x20 ADD ADD MLOAD PUSH0 ADD MLOAD GT PUSH2 0x1337 JUMPI PUSH1 0x40 MLOAD PUSH32 0x8C379A000000000000000000000000000000000000000000000000000000000 DUP2 MSTORE PUSH1 0x4 ADD PUSH2 0x132E SWAP1 PUSH2 0x3730 JUMP JUMPDEST PUSH1 0x40 MLOAD DUP1 SWAP2 SUB SWAP1 REVERT JUMPDEST TIMESTAMP DUP4 DUP3 DUP2 MLOAD DUP2 LT PUSH2 0x134B JUMPI PUSH2 0x134A PUSH2 0x2F94 JUMP JUMPDEST JUMPDEST PUSH1 0x20 MUL PUSH1 0x20 ADD ADD MLOAD PUSH1 0x20 ADD MLOAD GT PUSH2 0x1397 JUMPI PUSH1 0x40 MLOAD PUSH32 0x8C379A000000000000000000000000000000000000000000000000000000000 DUP2 MSTORE PUSH1 0x4 ADD PUSH2 0x138E SWAP1 PUSH2 0x3798 JUMP JUMPDEST PUSH1 0x40 MLOAD DUP1 SWAP2 SUB SWAP1 REVERT JUMPDEST PUSH0 DUP2 GT ISZERO PUSH2 0x14B2 JUMPI DUP3 PUSH1 0x1 DUP3 PUSH2 0x13AD SWAP2 SWAP1 PUSH2 0x2F48 JUMP JUMPDEST DUP2 MLOAD DUP2 LT PUSH2 0x13BE JUMPI PUSH2 0x13BD PUSH2 0x2F94 JUMP JUMPDEST JUMPDEST PUSH1 0x20 MUL PUSH1 0x20 ADD ADD MLOAD PUSH0 ADD MLOAD DUP4 DUP3 DUP2 MLOAD DUP2 LT PUSH2 0x13DC JUMPI PUSH2 0x13DB PUSH2 0x2F94 JUMP JUMPDEST JUMPDEST PUSH1 0x20 MUL PUSH1 0x20 ADD ADD MLOAD PUSH0 ADD MLOAD GT PUSH2 0x1427 JUMPI PUSH1 0x40 MLOAD PUSH32 0x8C379A000000000000000000000000000000000000000000000000000000000 DUP2 MSTORE PUSH1 0x4 ADD PUSH2 0x141E SWAP1 PUSH2 0x3826 JUMP JUMPDEST PUSH1 0x40 MLOAD DUP1 SWAP2 SUB SWAP1 REVERT JUMPDEST DUP3 PUSH1 0x1 DUP3 PUSH2 0x1435 SWAP2 SWAP1 PUSH2 0x2F48 JUMP JUMPDEST DUP2 MLOAD DUP2 LT PUSH2 0x1446 JUMPI PUSH2 0x1445 PUSH2 0x2F94 JUMP JUMPDEST JUMPDEST PUSH1 0x20 MUL PUSH1 0x20 ADD ADD MLOAD PUSH1 0x20 ADD MLOAD DUP4 DUP3 DUP2 MLOAD DUP2 LT PUSH2 0x1465 JUMPI PUSH2 0x1464 PUSH2 0x2F94 JUMP JUMPDEST JUMPDEST PUSH1 0x20 MUL PUSH1 0x20 ADD ADD MLOAD PUSH1 0x20 ADD MLOAD GT PUSH2 0x14B1 JUMPI PUSH1 0x40 MLOAD PUSH32 0x8C379A000000000000000000000000000000000000000000000000000000000 DUP2 MSTORE PUSH1 0x4 ADD PUSH2 0x14A8 SWAP1 PUSH2 0x38B4 JUMP JUMPDEST PUSH1 0x40 MLOAD DUP1 SWAP2 SUB SWAP1 REVERT JUMPDEST JUMPDEST PUSH0 DUP3 PUSH1 0x6 ADD DUP1 SLOAD SWAP1 POP GT ISZERO PUSH2 0x15F4 JUMPI DUP2 PUSH1 0x6 ADD PUSH1 0x1 DUP4 PUSH1 0x6 ADD DUP1 SLOAD SWAP1 POP PUSH2 0x14D9 SWAP2 SWAP1 PUSH2 0x2F48 JUMP JUMPDEST DUP2 SLOAD DUP2 LT PUSH2 0x14EA JUMPI PUSH2 0x14E9 PUSH2 0x2F94 JUMP JUMPDEST JUMPDEST SWAP1 PUSH0 MSTORE PUSH1 0x20 PUSH0 KECCAK256 SWAP1 PUSH1 0x6 MUL ADD PUSH0 ADD PUSH0 ADD SLOAD DUP4 DUP3 DUP2 MLOAD DUP2 LT PUSH2 0x150E JUMPI PUSH2 0x150D PUSH2 0x2F94 JUMP JUMPDEST JUMPDEST PUSH1 0x20 MUL PUSH1 0x20 ADD ADD MLOAD PUSH0 ADD MLOAD GT PUSH2 0x1559 JUMPI PUSH1 0x40 MLOAD PUSH32 0x8C379A000000000000000000000000000000000000000000000000000000000 DUP2 MSTORE PUSH1 0x4 ADD PUSH2 0x1550 SWAP1 PUSH2 0x3826 JUMP JUMPDEST PUSH1 0x40 MLOAD DUP1 SWAP2 SUB SWAP1 REVERT JUMPDEST DUP2 PUSH1 0x6 ADD PUSH1 0x1 DUP4 PUSH1 0x6 ADD DUP1 SLOAD SWAP1 POP PUSH2 0x1571 SWAP2 SWAP1 PUSH2 0x2F48 JUMP JUMPDEST DUP2 SLOAD DUP2 LT PUSH2 0x1582 JUMPI PUSH2 0x1581 PUSH2 0x2F94 JUMP JUMPDEST JUMPDEST SWAP1 PUSH0 MSTORE PUSH1 0x20 PUSH0 KECCAK256 SWAP1 PUSH1 0x6 MUL ADD PUSH0 ADD PUSH1 0x1 ADD SLOAD DUP4 DUP3 DUP2 MLOAD DUP2 LT PUSH2 0x15A7 JUMPI PUSH2 0x15A6 PUSH2 0x2F94 JUMP JUMPDEST JUMPDEST PUSH1 0x20 MUL PUSH1 0x20 ADD ADD MLOAD PUSH1 0x20 ADD MLOAD GT PUSH2 0x15F3 JUMPI PUSH1 0x40 MLOAD PUSH32 0x8C379A000000000000000000000000000000000000000000000000000000000 DUP2 MSTORE PUSH1 0x4 ADD PUSH2 0x15EA SWAP1 PUSH2 0x38B4 JUMP JUMPDEST PUSH1 0x40 MLOAD DUP1 SWAP2 SUB SWAP1 REVERT JUMPDEST JUMPDEST PUSH0 DUP3 PUSH1 0x6 ADD PUSH1 0x1 DUP2 PUSH1 0x1 DUP2 SLOAD ADD DUP1 DUP3 SSTORE DUP1 SWAP2 POP POP SUB SWAP1 PUSH0 MSTORE PUSH1 0x20 PUSH0 KECCAK256 SWAP1 PUSH1 0x6 MUL ADD SWAP1 POP DUP4 DUP3 DUP2 MLOAD DUP2 LT PUSH2 0x162A JUMPI PUSH2 0x1629 PUSH2 0x2F94 JUMP JUMPDEST JUMPDEST PUSH1 0x20 MUL PUSH1 0x20 ADD ADD MLOAD PUSH0 ADD MLOAD DUP2 PUSH0 ADD PUSH0 ADD DUP2 SWAP1 SSTORE POP DUP4 DUP3 DUP2 MLOAD DUP2 LT PUSH2 0x1651 JUMPI PUSH2 0x1650 PUSH2 0x2F94 JUMP JUMPDEST JUMPDEST PUSH1 0x20 MUL PUSH1 0x20 ADD ADD MLOAD PUSH1 0x20 ADD MLOAD DUP2 PUSH0 ADD PUSH1 0x1 ADD DUP2 SWAP1 SSTORE POP PUSH0 DUP2 PUSH1 0x2 ADD DUP2 SWAP1 SSTORE POP PUSH0 DUP2 PUSH1 0x5 ADD PUSH0 PUSH2 0x100 EXP DUP2 SLOAD DUP2 PUSH1 0xFF MUL NOT AND SWAP1 DUP4 ISZERO ISZERO MUL OR SWAP1 SSTORE POP POP DUP1 DUP1 PUSH1 0x1 ADD SWAP2 POP POP PUSH2 0x12CF JUMP JUMPDEST POP POP POP POP JUMP JUMPDEST PUSH2 0x16A7 PUSH2 0x220D JUMP JUMPDEST PUSH1 0x1 DUP1 SLOAD SWAP1 POP DUP3 LT PUSH2 0x16EE JUMPI PUSH1 0x40 MLOAD PUSH32 0x8C379A000000000000000000000000000000000000000000000000000000000 DUP2 MSTORE PUSH1 0x4 ADD PUSH2 0x16E5 SWAP1 PUSH2 0x300B JUMP JUMPDEST PUSH1 0x40 MLOAD DUP1 SWAP2 SUB SWAP1 REVERT JUMPDEST PUSH0 PUSH1 0x1 DUP4 DUP2 SLOAD DUP2 LT PUSH2 0x1703 JUMPI PUSH2 0x1702 PUSH2 0x2F94 JUMP JUMPDEST JUMPDEST SWAP1 PUSH0 MSTORE PUSH1 0x20 PUSH0 KECCAK256 SWAP1 PUSH1 0x8 MUL ADD SWAP1 POP DUP1 PUSH1 0x6 ADD DUP2 PUSH1 0x5 ADD SLOAD DUP2 SLOAD DUP2 LT PUSH2 0x172B JUMPI PUSH2 0x172A PUSH2 0x2F94 JUMP JUMPDEST JUMPDEST SWAP1 PUSH0 MSTORE PUSH1 0x20 PUSH0 KECCAK256 SWAP1 PUSH1 0x6 MUL ADD PUSH0 ADD PUSH1 0x40 MLOAD DUP1 PUSH1 0x40 ADD PUSH1 0x40 MSTORE SWAP1 DUP2 PUSH0 DUP3 ADD SLOAD DUP2 MSTORE PUSH1 0x20 ADD PUSH1 0x1 DUP3 ADD SLOAD DUP2 MSTORE POP POP SWAP2 POP POP SWAP2 SWAP1 POP JUMP JUMPDEST PUSH1 0x60 PUSH1 0x1 DUP1 SLOAD SWAP1 POP DUP3 LT PUSH2 0x17A8 JUMPI PUSH1 0x40 MLOAD PUSH32 0x8C379A000000000000000000000000000000000000000000000000000000000 DUP2 MSTORE PUSH1 0x4 ADD PUSH2 0x179F SWAP1 PUSH2 0x300B JUMP JUMPDEST PUSH1 0x40 MLOAD DUP1 SWAP2 SUB SWAP1 REVERT JUMPDEST PUSH0 PUSH1 0x1 DUP4 DUP2 SLOAD DUP2 LT PUSH2 0x17BD JUMPI PUSH2 0x17BC PUSH2 0x2F94 JUMP JUMPDEST JUMPDEST SWAP1 PUSH0 MSTORE PUSH1 0x20 PUSH0 KECCAK256 SWAP1 PUSH1 0x8 MUL ADD SWAP1 POP PUSH0 DUP2 PUSH1 0x6 ADD DUP1 SLOAD SWAP1 POP PUSH8 0xFFFFFFFFFFFFFFFF DUP2 GT ISZERO PUSH2 0x17ED JUMPI PUSH2 0x17EC PUSH2 0x2460 JUMP JUMPDEST JUMPDEST PUSH1 0x40 MLOAD SWAP1 DUP1 DUP3 MSTORE DUP1 PUSH1 0x20 MUL PUSH1 0x20 ADD DUP3 ADD PUSH1 0x40 MSTORE DUP1 ISZERO PUSH2 0x1826 JUMPI DUP2 PUSH1 0x20 ADD JUMPDEST PUSH2 0x1813 PUSH2 0x220D JUMP JUMPDEST DUP2 MSTORE PUSH1 0x20 ADD SWAP1 PUSH1 0x1 SWAP1 SUB SWAP1 DUP2 PUSH2 0x180B JUMPI SWAP1 POP JUMPDEST POP SWAP1 POP PUSH0 PUSH0 SWAP1 POP JUMPDEST DUP3 PUSH1 0x6 ADD DUP1 SLOAD SWAP1 POP DUP2 LT ISZERO PUSH2 0x18AA JUMPI DUP3 PUSH1 0x6 ADD DUP2 DUP2 SLOAD DUP2 LT PUSH2 0x1853 JUMPI PUSH2 0x1852 PUSH2 0x2F94 JUMP JUMPDEST JUMPDEST SWAP1 PUSH0 MSTORE PUSH1 0x20 PUSH0 KECCAK256 SWAP1 PUSH1 0x6 MUL ADD PUSH0 ADD PUSH1 0x40 MLOAD DUP1 PUSH1 0x40 ADD PUSH1 0x40 MSTORE SWAP1 DUP2 PUSH0 DUP3 ADD SLOAD DUP2 MSTORE PUSH1 0x20 ADD PUSH1 0x1 DUP3 ADD SLOAD DUP2 MSTORE POP POP DUP3 DUP3 DUP2 MLOAD DUP2 LT PUSH2 0x1892 JUMPI PUSH2 0x1891 PUSH2 0x2F94 JUMP JUMPDEST JUMPDEST PUSH1 0x20 MUL PUSH1 0x20 ADD ADD DUP2 SWAP1 MSTORE POP DUP1 DUP1 PUSH1 0x1 ADD SWAP2 POP POP PUSH2 0x182E JUMP JUMPDEST POP DUP1 SWAP3 POP POP POP SWAP2 SWAP1 POP JUMP JUMPDEST PUSH1 0x60 PUSH0 PUSH0 SWAP1 POP PUSH0 PUSH0 SWAP1 POP JUMPDEST PUSH1 0x1 DUP1 SLOAD SWAP1 POP DUP2 LT ISZERO PUSH2 0x191E JUMPI PUSH1 0x1 DUP2 DUP2 SLOAD DUP2 LT PUSH2 0x18E1 JUMPI PUSH2 0x18E0 PUSH2 0x2F94 JUMP JUMPDEST JUMPDEST SWAP1 PUSH0 MSTORE PUSH1 0x20 PUSH0 KECCAK256 SWAP1 PUSH1 0x8 MUL ADD PUSH1 0x7 ADD PUSH0 SWAP1 SLOAD SWAP1 PUSH2 0x100 EXP SWAP1 DIV PUSH1 0xFF AND ISZERO PUSH2 0x1911 JUMPI DUP2 DUP1 PUSH2 0x190D SWAP1 PUSH2 0x38D2 JUMP JUMPDEST SWAP3 POP POP JUMPDEST DUP1 DUP1 PUSH1 0x1 ADD SWAP2 POP POP PUSH2 0x18C0 JUMP JUMPDEST POP PUSH0 DUP2 PUSH8 0xFFFFFFFFFFFFFFFF DUP2 GT ISZERO PUSH2 0x193A JUMPI PUSH2 0x1939 PUSH2 0x2460 JUMP JUMPDEST JUMPDEST PUSH1 0x40 MLOAD SWAP1 DUP1 DUP3 MSTORE DUP1 PUSH1 0x20 MUL PUSH1 0x20 ADD DUP3 ADD PUSH1 0x40 MSTORE DUP1 ISZERO PUSH2 0x1973 JUMPI DUP2 PUSH1 0x20 ADD JUMPDEST PUSH2 0x1960 PUSH2 0x2225 JUMP JUMPDEST DUP2 MSTORE PUSH1 0x20 ADD SWAP1 PUSH1 0x1 SWAP1 SUB SWAP1 DUP2 PUSH2 0x1958 JUMPI SWAP1 POP JUMPDEST POP SWAP1 POP PUSH0 PUSH0 SWAP1 POP PUSH0 PUSH0 SWAP1 POP JUMPDEST PUSH1 0x1 DUP1 SLOAD SWAP1 POP DUP2 LT ISZERO PUSH2 0x1D2C JUMPI PUSH1 0x1 DUP2 DUP2 SLOAD DUP2 LT PUSH2 0x19A0 JUMPI PUSH2 0x199F PUSH2 0x2F94 JUMP JUMPDEST JUMPDEST SWAP1 PUSH0 MSTORE PUSH1 0x20 PUSH0 KECCAK256 SWAP1 PUSH1 0x8 MUL ADD PUSH1 0x7 ADD PUSH0 SWAP1 SLOAD SWAP1 PUSH2 0x100 EXP SWAP1 DIV PUSH1 0xFF AND ISZERO PUSH2 0x1D1F JUMPI PUSH2 0x19C9 PUSH2 0x2225 JUMP JUMPDEST PUSH1 0x1 DUP3 DUP2 SLOAD DUP2 LT PUSH2 0x19DD JUMPI PUSH2 0x19DC PUSH2 0x2F94 JUMP JUMPDEST JUMPDEST SWAP1 PUSH0 MSTORE PUSH1 0x20 PUSH0 KECCAK256 SWAP1 PUSH1 0x8 MUL ADD PUSH0 ADD PUSH0 SWAP1 SLOAD SWAP1 PUSH2 0x100 EXP SWAP1 DIV PUSH20 0xFFFFFFFFFFFFFFFFFFFFFFFFFFFFFFFFFFFFFFFF AND DUP2 PUSH0 ADD SWAP1 PUSH20 0xFFFFFFFFFFFFFFFFFFFFFFFFFFFFFFFFFFFFFFFF AND SWAP1 DUP2 PUSH20 0xFFFFFFFFFFFFFFFFFFFFFFFFFFFFFFFFFFFFFFFF AND DUP2 MSTORE POP POP PUSH1 0x1 DUP3 DUP2 SLOAD DUP2 LT PUSH2 0x1A55 JUMPI PUSH2 0x1A54 PUSH2 0x2F94 JUMP JUMPDEST JUMPDEST SWAP1 PUSH0 MSTORE PUSH1 0x20 PUSH0 KECCAK256 SWAP1 PUSH1 0x8 MUL ADD PUSH1 0x1 ADD DUP1 SLOAD PUSH2 0x1A6F SWAP1 PUSH2 0x2BEE JUMP JUMPDEST DUP1 PUSH1 0x1F ADD PUSH1 0x20 DUP1 SWAP2 DIV MUL PUSH1 0x20 ADD PUSH1 0x40 MLOAD SWAP1 DUP2 ADD PUSH1 0x40 MSTORE DUP1 SWAP3 SWAP2 SWAP1 DUP2 DUP2 MSTORE PUSH1 0x20 ADD DUP3 DUP1 SLOAD PUSH2 0x1A9B SWAP1 PUSH2 0x2BEE JUMP JUMPDEST DUP1 ISZERO PUSH2 0x1AE6 JUMPI DUP1 PUSH1 0x1F LT PUSH2 0x1ABD JUMPI PUSH2 0x100 DUP1 DUP4 SLOAD DIV MUL DUP4 MSTORE SWAP2 PUSH1 0x20 ADD SWAP2 PUSH2 0x1AE6 JUMP JUMPDEST DUP3 ADD SWAP2 SWAP1 PUSH0 MSTORE PUSH1 0x20 PUSH0 KECCAK256 SWAP1 JUMPDEST DUP2 SLOAD DUP2 MSTORE SWAP1 PUSH1 0x1 ADD SWAP1 PUSH1 0x20 ADD DUP1 DUP4 GT PUSH2 0x1AC9 JUMPI DUP3 SWAP1 SUB PUSH1 0x1F AND DUP3 ADD SWAP2 JUMPDEST POP POP POP POP POP DUP2 PUSH1 0x20 ADD DUP2 SWAP1 MSTORE POP PUSH1 0x1 DUP3 DUP2 SLOAD DUP2 LT PUSH2 0x1B07 JUMPI PUSH2 0x1B06 PUSH2 0x2F94 JUMP JUMPDEST JUMPDEST SWAP1 PUSH0 MSTORE PUSH1 0x20 PUSH0 KECCAK256 SWAP1 PUSH1 0x8 MUL ADD PUSH1 0x2 ADD DUP1 SLOAD PUSH2 0x1B21 SWAP1 PUSH2 0x2BEE JUMP JUMPDEST DUP1 PUSH1 0x1F ADD PUSH1 0x20 DUP1 SWAP2 DIV MUL PUSH1 0x20 ADD PUSH1 0x40 MLOAD SWAP1 DUP2 ADD PUSH1 0x40 MSTORE DUP1 SWAP3 SWAP2 SWAP1 DUP2 DUP2 MSTORE PUSH1 0x20 ADD DUP3 DUP1 SLOAD PUSH2 0x1B4D SWAP1 PUSH2 0x2BEE JUMP JUMPDEST DUP1 ISZERO PUSH2 0x1B98 JUMPI DUP1 PUSH1 0x1F LT PUSH2 0x1B6F JUMPI PUSH2 0x100 DUP1 DUP4 SLOAD DIV MUL DUP4 MSTORE SWAP2 PUSH1 0x20 ADD SWAP2 PUSH2 0x1B98 JUMP JUMPDEST DUP3 ADD SWAP2 SWAP1 PUSH0 MSTORE PUSH1 0x20 PUSH0 KECCAK256 SWAP1 JUMPDEST DUP2 SLOAD DUP2 MSTORE SWAP1 PUSH1 0x1 ADD SWAP1 PUSH1 0x20 ADD DUP1 DUP4 GT PUSH2 0x1B7B JUMPI DUP3 SWAP1 SUB PUSH1 0x1F AND DUP3 ADD SWAP2 JUMPDEST POP POP POP POP POP DUP2 PUSH1 0x40 ADD DUP2 SWAP1 MSTORE POP PUSH1 0x1 DUP3 DUP2 SLOAD DUP2 LT PUSH2 0x1BB9 JUMPI PUSH2 0x1BB8 PUSH2 0x2F94 JUMP JUMPDEST JUMPDEST SWAP1 PUSH0 MSTORE PUSH1 0x20 PUSH0 KECCAK256 SWAP1 PUSH1 0x8 MUL ADD PUSH1 0x3 ADD DUP1 SLOAD PUSH2 0x1BD3 SWAP1 PUSH2 0x2BEE JUMP JUMPDEST DUP1 PUSH1 0x1F ADD PUSH1 0x20 DUP1 SWAP2 DIV MUL PUSH1 0x20 ADD PUSH1 0x40 MLOAD SWAP1 DUP2 ADD PUSH1 0x40 MSTORE DUP1 SWAP3 SWAP2 SWAP1 DUP2 DUP2 MSTORE PUSH1 0x20 ADD DUP3 DUP1 SLOAD PUSH2 0x1BFF SWAP1 PUSH2 0x2BEE JUMP JUMPDEST DUP1 ISZERO PUSH2 0x1C4A JUMPI DUP1 PUSH1 0x1F LT PUSH2 0x1C21 JUMPI PUSH2 0x100 DUP1 DUP4 SLOAD DIV MUL DUP4 MSTORE SWAP2 PUSH1 0x20 ADD SWAP2 PUSH2 0x1C4A JUMP JUMPDEST DUP3 ADD SWAP2 SWAP1 PUSH0 MSTORE PUSH1 0x20 PUSH0 KECCAK256 SWAP1 JUMPDEST DUP2 SLOAD DUP2 MSTORE SWAP1 PUSH1 0x1 ADD SWAP1 PUSH1 0x20 ADD DUP1 DUP4 GT PUSH2 0x1C2D JUMPI DUP3 SWAP1 SUB PUSH1 0x1F AND DUP3 ADD SWAP2 JUMPDEST POP POP POP POP POP DUP2 PUSH1 0x60 ADD DUP2 SWAP1 MSTORE POP PUSH1 0x1 DUP3 DUP2 SLOAD DUP2 LT PUSH2 0x1C6B JUMPI PUSH2 0x1C6A PUSH2 0x2F94 JUMP JUMPDEST JUMPDEST SWAP1 PUSH0 MSTORE PUSH1 0x20 PUSH0 KECCAK256 SWAP1 PUSH1 0x8 MUL ADD PUSH1 0x4 ADD SLOAD DUP2 PUSH1 0x80 ADD DUP2 DUP2 MSTORE POP POP PUSH1 0x1 DUP3 DUP2 SLOAD DUP2 LT PUSH2 0x1C98 JUMPI PUSH2 0x1C97 PUSH2 0x2F94 JUMP JUMPDEST JUMPDEST SWAP1 PUSH0 MSTORE PUSH1 0x20 PUSH0 KECCAK256 SWAP1 PUSH1 0x8 MUL ADD PUSH1 0x5 ADD SLOAD DUP2 PUSH1 0xA0 ADD DUP2 DUP2 MSTORE POP POP PUSH1 0x1 DUP3 DUP2 SLOAD DUP2 LT PUSH2 0x1CC5 JUMPI PUSH2 0x1CC4 PUSH2 0x2F94 JUMP JUMPDEST JUMPDEST SWAP1 PUSH0 MSTORE PUSH1 0x20 PUSH0 KECCAK256 SWAP1 PUSH1 0x8 MUL ADD PUSH1 0x7 ADD PUSH0 SWAP1 SLOAD SWAP1 PUSH2 0x100 EXP SWAP1 DIV PUSH1 0xFF AND DUP2 PUSH1 0xC0 ADD SWAP1 ISZERO ISZERO SWAP1 DUP2 ISZERO ISZERO DUP2 MSTORE POP POP DUP1 DUP5 DUP5 DUP2 MLOAD DUP2 LT PUSH2 0x1D04 JUMPI PUSH2 0x1D03 PUSH2 0x2F94 JUMP JUMPDEST JUMPDEST PUSH1 0x20 MUL PUSH1 0x20 ADD ADD DUP2 SWAP1 MSTORE POP DUP3 DUP1 PUSH2 0x1D1A SWAP1 PUSH2 0x38D2 JUMP JUMPDEST SWAP4 POP POP POP JUMPDEST DUP1 DUP1 PUSH1 0x1 ADD SWAP2 POP POP PUSH2 0x197F JUMP JUMPDEST POP DUP2 SWAP4 POP POP POP POP SWAP1 JUMP JUMPDEST PUSH0 PUSH1 0x1 DUP3 DUP2 SLOAD DUP2 LT PUSH2 0x1D4B JUMPI PUSH2 0x1D4A PUSH2 0x2F94 JUMP JUMPDEST JUMPDEST SWAP1 PUSH0 MSTORE PUSH1 0x20 PUSH0 KECCAK256 SWAP1 PUSH1 0x8 MUL ADD SWAP1 POP PUSH0 DUP2 PUSH1 0x6 ADD DUP3 PUSH1 0x5 ADD SLOAD DUP2 SLOAD DUP2 LT PUSH2 0x1D74 JUMPI PUSH2 0x1D73 PUSH2 0x2F94 JUMP JUMPDEST JUMPDEST SWAP1 PUSH0 MSTORE PUSH1 0x20 PUSH0 KECCAK256 SWAP1 PUSH1 0x6 MUL ADD SWAP1 POP PUSH0 DUP2 PUSH1 0x2 ADD SLOAD SWAP1 POP PUSH0 DUP4 PUSH1 0x5 ADD SLOAD GT ISZERO PUSH2 0x1DDA JUMPI DUP3 PUSH1 0x6 ADD PUSH1 0x1 DUP5 PUSH1 0x5 ADD SLOAD PUSH2 0x1DAB SWAP2 SWAP1 PUSH2 0x2F48 JUMP JUMPDEST DUP2 SLOAD DUP2 LT PUSH2 0x1DBC JUMPI PUSH2 0x1DBB PUSH2 0x2F94 JUMP JUMPDEST JUMPDEST SWAP1 PUSH0 MSTORE PUSH1 0x20 PUSH0 KECCAK256 SWAP1 PUSH1 0x6 MUL ADD PUSH1 0x2 ADD SLOAD DUP2 PUSH2 0x1DD7 SWAP2 SWAP1 PUSH2 0x2F48 JUMP JUMPDEST SWAP1 POP JUMPDEST DUP2 PUSH0 ADD PUSH0 ADD SLOAD DUP4 PUSH1 0x4 ADD SLOAD LT PUSH2 0x1E90 JUMPI PUSH1 0x1 DUP3 PUSH1 0x5 ADD PUSH0 PUSH2 0x100 EXP DUP2 SLOAD DUP2 PUSH1 0xFF MUL NOT AND SWAP1 DUP4 ISZERO ISZERO MUL OR SWAP1 SSTORE POP PUSH2 0x1E32 DUP4 PUSH0 ADD PUSH0 SWAP1 SLOAD SWAP1 PUSH2 0x100 EXP SWAP1 DIV PUSH20 0xFFFFFFFFFFFFFFFFFFFFFFFFFFFFFFFFFFFFFFFF AND DUP3 PUSH2 0x1F40 JUMP JUMPDEST PUSH1 0x1 DUP4 PUSH1 0x6 ADD DUP1 SLOAD SWAP1 POP PUSH2 0x1E46 SWAP2 SWAP1 PUSH2 0x2F48 JUMP JUMPDEST DUP4 PUSH1 0x5 ADD SLOAD LT ISZERO PUSH2 0x1E6F JUMPI DUP3 PUSH1 0x5 ADD PUSH0 DUP2 SLOAD DUP1 SWAP3 SWAP2 SWAP1 PUSH2 0x1E65 SWAP1 PUSH2 0x38D2 JUMP JUMPDEST SWAP2 SWAP1 POP SSTORE POP PUSH2 0x1E8B JUMP JUMPDEST PUSH0 DUP4 PUSH1 0x7 ADD PUSH0 PUSH2 0x100 EXP DUP2 SLOAD DUP2 PUSH1 0xFF MUL NOT AND SWAP1 DUP4 ISZERO ISZERO MUL OR SWAP1 SSTORE POP JUMPDEST PUSH2 0x1E9A JUMP JUMPDEST PUSH2 0x1E99 DUP5 PUSH2 0x1EA0 JUMP JUMPDEST JUMPDEST POP POP POP POP JUMP JUMPDEST PUSH0 PUSH1 0x1 DUP3 DUP2 SLOAD DUP2 LT PUSH2 0x1EB5 JUMPI PUSH2 0x1EB4 PUSH2 0x2F94 JUMP JUMPDEST JUMPDEST SWAP1 PUSH0 MSTORE PUSH1 0x20 PUSH0 KECCAK256 SWAP1 PUSH1 0x8 MUL ADD SWAP1 POP DUP1 PUSH1 0x7 ADD PUSH0 SWAP1 SLOAD SWAP1 PUSH2 0x100 EXP SWAP1 DIV PUSH1 0xFF AND PUSH2 0x1F13 JUMPI PUSH1 0x40 MLOAD PUSH32 0x8C379A000000000000000000000000000000000000000000000000000000000 DUP2 MSTORE PUSH1 0x4 ADD PUSH2 0x1F0A SWAP1 PUSH2 0x3963 JUMP JUMPDEST PUSH1 0x40 MLOAD DUP1 SWAP2 SUB SWAP1 REVERT JUMPDEST PUSH0 DUP2 PUSH1 0x7 ADD PUSH0 PUSH2 0x100 EXP DUP2 SLOAD DUP2 PUSH1 0xFF MUL NOT AND SWAP1 DUP4 ISZERO ISZERO MUL OR SWAP1 SSTORE POP PUSH2 0x1F3C DUP3 DUP3 PUSH1 0x5 ADD SLOAD PUSH2 0x1FED JUMP JUMPDEST POP POP JUMP JUMPDEST PUSH0 DUP3 PUSH20 0xFFFFFFFFFFFFFFFFFFFFFFFFFFFFFFFFFFFFFFFF AND DUP3 PUSH1 0x40 MLOAD PUSH2 0x1F65 SWAP1 PUSH2 0x33CA JUMP JUMPDEST PUSH0 PUSH1 0x40 MLOAD DUP1 DUP4 SUB DUP2 DUP6 DUP8 GAS CALL SWAP3 POP POP POP RETURNDATASIZE DUP1 PUSH0 DUP2 EQ PUSH2 0x1F9F JUMPI PUSH1 0x40 MLOAD SWAP2 POP PUSH1 0x1F NOT PUSH1 0x3F RETURNDATASIZE ADD AND DUP3 ADD PUSH1 0x40 MSTORE RETURNDATASIZE DUP3 MSTORE RETURNDATASIZE PUSH0 PUSH1 0x20 DUP5 ADD RETURNDATACOPY PUSH2 0x1FA4 JUMP JUMPDEST PUSH1 0x60 SWAP2 POP JUMPDEST POP POP SWAP1 POP DUP1 PUSH2 0x1FE8 JUMPI PUSH1 0x40 MLOAD PUSH32 0x8C379A000000000000000000000000000000000000000000000000000000000 DUP2 MSTORE PUSH1 0x4 ADD PUSH2 0x1FDF SWAP1 PUSH2 0x39CB JUMP JUMPDEST PUSH1 0x40 MLOAD DUP1 SWAP2 SUB SWAP1 REVERT JUMPDEST POP POP POP JUMP JUMPDEST PUSH0 PUSH1 0x1 DUP4 DUP2 SLOAD DUP2 LT PUSH2 0x2002 JUMPI PUSH2 0x2001 PUSH2 0x2F94 JUMP JUMPDEST JUMPDEST SWAP1 PUSH0 MSTORE PUSH1 0x20 PUSH0 KECCAK256 SWAP1 PUSH1 0x8 MUL ADD SWAP1 POP PUSH0 DUP2 PUSH1 0x6 ADD DUP4 DUP2 SLOAD DUP2 LT PUSH2 0x2027 JUMPI PUSH2 0x2026 PUSH2 0x2F94 JUMP JUMPDEST JUMPDEST SWAP1 PUSH0 MSTORE PUSH1 0x20 PUSH0 KECCAK256 SWAP1 PUSH1 0x6 MUL ADD SWAP1 POP PUSH0 PUSH0 SWAP1 POP JUMPDEST DUP2 PUSH1 0x3 ADD DUP1 SLOAD SWAP1 POP DUP2 LT ISZERO PUSH2 0x2206 JUMPI PUSH0 DUP3 PUSH1 0x3 ADD DUP3 DUP2 SLOAD DUP2 LT PUSH2 0x2060 JUMPI PUSH2 0x205F PUSH2 0x2F94 JUMP JUMPDEST JUMPDEST SWAP1 PUSH0 MSTORE PUSH1 0x20 PUSH0 KECCAK256 ADD PUSH0 SWAP1 SLOAD SWAP1 PUSH2 0x100 EXP SWAP1 DIV PUSH20 0xFFFFFFFFFFFFFFFFFFFFFFFFFFFFFFFFFFFFFFFF AND SWAP1 POP PUSH0 DUP4 PUSH1 0x4 ADD PUSH0 DUP4 PUSH20 0xFFFFFFFFFFFFFFFFFFFFFFFFFFFFFFFFFFFFFFFF AND PUSH20 0xFFFFFFFFFFFFFFFFFFFFFFFFFFFFFFFFFFFFFFFF AND DUP2 MSTORE PUSH1 0x20 ADD SWAP1 DUP2 MSTORE PUSH1 0x20 ADD PUSH0 KECCAK256 SLOAD SWAP1 POP PUSH0 DUP2 GT ISZERO PUSH2 0x21F7 JUMPI PUSH0 DUP5 PUSH1 0x4 ADD PUSH0 DUP5 PUSH20 0xFFFFFFFFFFFFFFFFFFFFFFFFFFFFFFFFFFFFFFFF AND PUSH20 0xFFFFFFFFFFFFFFFFFFFFFFFFFFFFFFFFFFFFFFFF AND DUP2 MSTORE PUSH1 0x20 ADD SWAP1 DUP2 MSTORE PUSH1 0x20 ADD PUSH0 KECCAK256 DUP2 SWAP1 SSTORE POP PUSH0 DUP3 PUSH20 0xFFFFFFFFFFFFFFFFFFFFFFFFFFFFFFFFFFFFFFFF AND DUP3 PUSH1 0x40 MLOAD PUSH2 0x213E SWAP1 PUSH2 0x33CA JUMP JUMPDEST PUSH0 PUSH1 0x40 MLOAD DUP1 DUP4 SUB DUP2 DUP6 DUP8 GAS CALL SWAP3 POP POP POP RETURNDATASIZE DUP1 PUSH0 DUP2 EQ PUSH2 0x2178 JUMPI PUSH1 0x40 MLOAD SWAP2 POP PUSH1 0x1F NOT PUSH1 0x3F RETURNDATASIZE ADD AND DUP3 ADD PUSH1 0x40 MSTORE RETURNDATASIZE DUP3 MSTORE RETURNDATASIZE PUSH0 PUSH1 0x20 DUP5 ADD RETURNDATACOPY PUSH2 0x217D JUMP JUMPDEST PUSH1 0x60 SWAP2 POP JUMPDEST POP POP SWAP1 POP DUP1 PUSH2 0x21C1 JUMPI PUSH1 0x40 MLOAD PUSH32 0x8C379A000000000000000000000000000000000000000000000000000000000 DUP2 MSTORE PUSH1 0x4 ADD PUSH2 0x21B8 SWAP1 PUSH2 0x3A33 JUMP JUMPDEST PUSH1 0x40 MLOAD DUP1 SWAP2 SUB SWAP1 REVERT JUMPDEST DUP2 DUP7 PUSH1 0x4 ADD PUSH0 DUP3 DUP3 SLOAD PUSH2 0x21D4 SWAP2 SWAP1 PUSH2 0x2F48 JUMP JUMPDEST SWAP3 POP POP DUP2 SWAP1 SSTORE POP DUP2 DUP6 PUSH1 0x2 ADD PUSH0 DUP3 DUP3 SLOAD PUSH2 0x21EE SWAP2 SWAP1 PUSH2 0x2F48 JUMP JUMPDEST SWAP3 POP POP DUP2 SWAP1 SSTORE POP POP JUMPDEST POP POP DUP1 DUP1 PUSH1 0x1 ADD SWAP2 POP POP PUSH2 0x203A JUMP JUMPDEST POP POP POP POP POP JUMP JUMPDEST PUSH1 0x40 MLOAD DUP1 PUSH1 0x40 ADD PUSH1 0x40 MSTORE DUP1 PUSH0 DUP2 MSTORE PUSH1 0x20 ADD PUSH0 DUP2 MSTORE POP SWAP1 JUMP JUMPDEST PUSH1 0x40 MLOAD DUP1 PUSH1 0xE0 ADD PUSH1 0x40 MSTORE DUP1 PUSH0 PUSH20 0xFFFFFFFFFFFFFFFFFFFFFFFFFFFFFFFFFFFFFFFF AND DUP2 MSTORE PUSH1 0x20 ADD PUSH1 0x60 DUP2 MSTORE PUSH1 0x20 ADD PUSH1 0x60 DUP2 MSTORE PUSH1 0x20 ADD PUSH1 0x60 DUP2 MSTORE PUSH1 0x20 ADD PUSH0 DUP2 MSTORE PUSH1 0x20 ADD PUSH0 DUP2 MSTORE PUSH1 0x20 ADD PUSH0 ISZERO ISZERO DUP2 MSTORE POP SWAP1 JUMP JUMPDEST PUSH0 PUSH20 0xFFFFFFFFFFFFFFFFFFFFFFFFFFFFFFFFFFFFFFFF DUP3 AND SWAP1 POP SWAP2 SWAP1 POP JUMP JUMPDEST PUSH0 PUSH2 0x229F DUP3 PUSH2 0x2276 JUMP JUMPDEST SWAP1 POP SWAP2 SWAP1 POP JUMP JUMPDEST PUSH2 0x22AF DUP2 PUSH2 0x2295 JUMP JUMPDEST DUP3 MSTORE POP POP JUMP JUMPDEST PUSH0 PUSH1 0x20 DUP3 ADD SWAP1 POP PUSH2 0x22C8 PUSH0 DUP4 ADD DUP5 PUSH2 0x22A6 JUMP JUMPDEST SWAP3 SWAP2 POP POP JUMP JUMPDEST PUSH0 PUSH1 0x40 MLOAD SWAP1 POP SWAP1 JUMP JUMPDEST PUSH0 PUSH0 REVERT JUMPDEST PUSH0 PUSH0 REVERT JUMPDEST PUSH0 DUP2 SWAP1 POP SWAP2 SWAP1 POP JUMP JUMPDEST PUSH2 0x22F1 DUP2 PUSH2 0x22DF JUMP JUMPDEST DUP2 EQ PUSH2 0x22FB JUMPI PUSH0 PUSH0 REVERT JUMPDEST POP JUMP JUMPDEST PUSH0 DUP2 CALLDATALOAD SWAP1 POP PUSH2 0x230C DUP2 PUSH2 0x22E8 JUMP JUMPDEST SWAP3 SWAP2 POP POP JUMP JUMPDEST PUSH0 PUSH1 0x20 DUP3 DUP5 SUB SLT ISZERO PUSH2 0x2327 JUMPI PUSH2 0x2326 PUSH2 0x22D7 JUMP JUMPDEST JUMPDEST PUSH0 PUSH2 0x2334 DUP5 DUP3 DUP6 ADD PUSH2 0x22FE JUMP JUMPDEST SWAP2 POP POP SWAP3 SWAP2 POP POP JUMP JUMPDEST PUSH0 DUP2 MLOAD SWAP1 POP SWAP2 SWAP1 POP JUMP JUMPDEST PUSH0 DUP3 DUP3 MSTORE PUSH1 0x20 DUP3 ADD SWAP1 POP SWAP3 SWAP2 POP POP JUMP JUMPDEST DUP3 DUP2 DUP4 MCOPY PUSH0 DUP4 DUP4 ADD MSTORE POP POP POP JUMP JUMPDEST PUSH0 PUSH1 0x1F NOT PUSH1 0x1F DUP4 ADD AND SWAP1 POP SWAP2 SWAP1 POP JUMP JUMPDEST PUSH0 PUSH2 0x237F DUP3 PUSH2 0x233D JUMP JUMPDEST PUSH2 0x2389 DUP2 DUP6 PUSH2 0x2347 JUMP JUMPDEST SWAP4 POP PUSH2 0x2399 DUP2 DUP6 PUSH1 0x20 DUP7 ADD PUSH2 0x2357 JUMP JUMPDEST PUSH2 0x23A2 DUP2 PUSH2 0x2365 JUMP JUMPDEST DUP5 ADD SWAP2 POP POP SWAP3 SWAP2 POP POP JUMP JUMPDEST PUSH2 0x23B6 DUP2 PUSH2 0x22DF JUMP JUMPDEST DUP3 MSTORE POP POP JUMP JUMPDEST PUSH0 DUP2 ISZERO ISZERO SWAP1 POP SWAP2 SWAP1 POP JUMP JUMPDEST PUSH2 0x23D0 DUP2 PUSH2 0x23BC JUMP JUMPDEST DUP3 MSTORE POP POP JUMP JUMPDEST PUSH0 PUSH1 0xE0 DUP3 ADD SWAP1 POP PUSH2 0x23E9 PUSH0 DUP4 ADD DUP11 PUSH2 0x22A6 JUMP JUMPDEST DUP2 DUP2 SUB PUSH1 0x20 DUP4 ADD MSTORE PUSH2 0x23FB DUP2 DUP10 PUSH2 0x2375 JUMP JUMPDEST SWAP1 POP DUP2 DUP2 SUB PUSH1 0x40 DUP4 ADD MSTORE PUSH2 0x240F DUP2 DUP9 PUSH2 0x2375 JUMP JUMPDEST SWAP1 POP DUP2 DUP2 SUB PUSH1 0x60 DUP4 ADD MSTORE PUSH2 0x2423 DUP2 DUP8 PUSH2 0x2375 JUMP JUMPDEST SWAP1 POP PUSH2 0x2432 PUSH1 0x80 DUP4 ADD DUP7 PUSH2 0x23AD JUMP JUMPDEST PUSH2 0x243F PUSH1 0xA0 DUP4 ADD DUP6 PUSH2 0x23AD JUMP JUMPDEST PUSH2 0x244C PUSH1 0xC0 DUP4 ADD DUP5 PUSH2 0x23C7 JUMP JUMPDEST SWAP9 SWAP8 POP POP POP POP POP POP POP POP JUMP JUMPDEST PUSH0 PUSH0 REVERT JUMPDEST PUSH0 PUSH0 REVERT JUMPDEST PUSH32 0x4E487B7100000000000000000000000000000000000000000000000000000000 PUSH0 MSTORE PUSH1 0x41 PUSH1 0x4 MSTORE PUSH1 0x24 PUSH0 REVERT JUMPDEST PUSH2 0x2496 DUP3 PUSH2 0x2365 JUMP JUMPDEST DUP2 ADD DUP2 DUP2 LT PUSH8 0xFFFFFFFFFFFFFFFF DUP3 GT OR ISZERO PUSH2 0x24B5 JUMPI PUSH2 0x24B4 PUSH2 0x2460 JUMP JUMPDEST JUMPDEST DUP1 PUSH1 0x40 MSTORE POP POP POP JUMP JUMPDEST PUSH0 PUSH2 0x24C7 PUSH2 0x22CE JUMP JUMPDEST SWAP1 POP PUSH2 0x24D3 DUP3 DUP3 PUSH2 0x248D JUMP JUMPDEST SWAP2 SWAP1 POP JUMP JUMPDEST PUSH0 PUSH8 0xFFFFFFFFFFFFFFFF DUP3 GT ISZERO PUSH2 0x24F2 JUMPI PUSH2 0x24F1 PUSH2 0x2460 JUMP JUMPDEST JUMPDEST PUSH2 0x24FB DUP3 PUSH2 0x2365 JUMP JUMPDEST SWAP1 POP PUSH1 0x20 DUP2 ADD SWAP1 POP SWAP2 SWAP1 POP JUMP JUMPDEST DUP3 DUP2 DUP4 CALLDATACOPY PUSH0 DUP4 DUP4 ADD MSTORE POP POP POP JUMP JUMPDEST PUSH0 PUSH2 0x2528 PUSH2 0x2523 DUP5 PUSH2 0x24D8 JUMP JUMPDEST PUSH2 0x24BE JUMP JUMPDEST SWAP1 POP DUP3 DUP2 MSTORE PUSH1 0x20 DUP2 ADD DUP5 DUP5 DUP5 ADD GT ISZERO PUSH2 0x2544 JUMPI PUSH2 0x2543 PUSH2 0x245C JUMP JUMPDEST JUMPDEST PUSH2 0x254F DUP5 DUP3 DUP6 PUSH2 0x2508 JUMP JUMPDEST POP SWAP4 SWAP3 POP POP POP JUMP JUMPDEST PUSH0 DUP3 PUSH1 0x1F DUP4 ADD SLT PUSH2 0x256B JUMPI PUSH2 0x256A PUSH2 0x2458 JUMP JUMPDEST JUMPDEST DUP2 CALLDATALOAD PUSH2 0x257B DUP5 DUP3 PUSH1 0x20 DUP7 ADD PUSH2 0x2516 JUMP JUMPDEST SWAP2 POP POP SWAP3 SWAP2 POP POP JUMP JUMPDEST PUSH0 PUSH8 0xFFFFFFFFFFFFFFFF DUP3 GT ISZERO PUSH2 0x259E JUMPI PUSH2 0x259D PUSH2 0x2460 JUMP JUMPDEST JUMPDEST PUSH1 0x20 DUP3 MUL SWAP1 POP PUSH1 0x20 DUP2 ADD SWAP1 POP SWAP2 SWAP1 POP JUMP JUMPDEST PUSH0 PUSH0 REVERT JUMPDEST PUSH0 PUSH0 REVERT JUMPDEST PUSH0 PUSH1 0x40 DUP3 DUP5 SUB SLT ISZERO PUSH2 0x25CC JUMPI PUSH2 0x25CB PUSH2 0x25B3 JUMP JUMPDEST JUMPDEST PUSH2 0x25D6 PUSH1 0x40 PUSH2 0x24BE JUMP JUMPDEST SWAP1 POP PUSH0 PUSH2 0x25E5 DUP5 DUP3 DUP6 ADD PUSH2 0x22FE JUMP JUMPDEST PUSH0 DUP4 ADD MSTORE POP PUSH1 0x20 PUSH2 0x25F8 DUP5 DUP3 DUP6 ADD PUSH2 0x22FE JUMP JUMPDEST PUSH1 0x20 DUP4 ADD MSTORE POP SWAP3 SWAP2 POP POP JUMP JUMPDEST PUSH0 PUSH2 0x2616 PUSH2 0x2611 DUP5 PUSH2 0x2584 JUMP JUMPDEST PUSH2 0x24BE JUMP JUMPDEST SWAP1 POP DUP1 DUP4 DUP3 MSTORE PUSH1 0x20 DUP3 ADD SWAP1 POP PUSH1 0x40 DUP5 MUL DUP4 ADD DUP6 DUP2 GT ISZERO PUSH2 0x2639 JUMPI PUSH2 0x2638 PUSH2 0x25AF JUMP JUMPDEST JUMPDEST DUP4 JUMPDEST DUP2 DUP2 LT ISZERO PUSH2 0x2662 JUMPI DUP1 PUSH2 0x264E DUP9 DUP3 PUSH2 0x25B7 JUMP JUMPDEST DUP5 MSTORE PUSH1 0x20 DUP5 ADD SWAP4 POP POP PUSH1 0x40 DUP2 ADD SWAP1 POP PUSH2 0x263B JUMP JUMPDEST POP POP POP SWAP4 SWAP3 POP POP POP JUMP JUMPDEST PUSH0 DUP3 PUSH1 0x1F DUP4 ADD SLT PUSH2 0x2680 JUMPI PUSH2 0x267F PUSH2 0x2458 JUMP JUMPDEST JUMPDEST DUP2 CALLDATALOAD PUSH2 0x2690 DUP5 DUP3 PUSH1 0x20 DUP7 ADD PUSH2 0x2604 JUMP JUMPDEST SWAP2 POP POP SWAP3 SWAP2 POP POP JUMP JUMPDEST PUSH0 PUSH0 PUSH0 PUSH0 PUSH1 0x80 DUP6 DUP8 SUB SLT ISZERO PUSH2 0x26B1 JUMPI PUSH2 0x26B0 PUSH2 0x22D7 JUMP JUMPDEST JUMPDEST PUSH0 DUP6 ADD CALLDATALOAD PUSH8 0xFFFFFFFFFFFFFFFF DUP2 GT ISZERO PUSH2 0x26CE JUMPI PUSH2 0x26CD PUSH2 0x22DB JUMP JUMPDEST JUMPDEST PUSH2 0x26DA DUP8 DUP3 DUP9 ADD PUSH2 0x2557 JUMP JUMPDEST SWAP5 POP POP PUSH1 0x20 DUP6 ADD CALLDATALOAD PUSH8 0xFFFFFFFFFFFFFFFF DUP2 GT ISZERO PUSH2 0x26FB JUMPI PUSH2 0x26FA PUSH2 0x22DB JUMP JUMPDEST JUMPDEST PUSH2 0x2707 DUP8 DUP3 DUP9 ADD PUSH2 0x2557 JUMP JUMPDEST SWAP4 POP POP PUSH1 0x40 DUP6 ADD CALLDATALOAD PUSH8 0xFFFFFFFFFFFFFFFF DUP2 GT ISZERO PUSH2 0x2728 JUMPI PUSH2 0x2727 PUSH2 0x22DB JUMP JUMPDEST JUMPDEST PUSH2 0x2734 DUP8 DUP3 DUP9 ADD PUSH2 0x2557 JUMP JUMPDEST SWAP3 POP POP PUSH1 0x60 DUP6 ADD CALLDATALOAD PUSH8 0xFFFFFFFFFFFFFFFF DUP2 GT ISZERO PUSH2 0x2755 JUMPI PUSH2 0x2754 PUSH2 0x22DB JUMP JUMPDEST JUMPDEST PUSH2 0x2761 DUP8 DUP3 DUP9 ADD PUSH2 0x266C JUMP JUMPDEST SWAP2 POP POP SWAP3 SWAP6 SWAP2 SWAP5 POP SWAP3 POP JUMP JUMPDEST PUSH0 DUP2 MLOAD SWAP1 POP SWAP2 SWAP1 POP JUMP JUMPDEST PUSH0 DUP3 DUP3 MSTORE PUSH1 0x20 DUP3 ADD SWAP1 POP SWAP3 SWAP2 POP POP JUMP JUMPDEST PUSH0 DUP2 SWAP1 POP PUSH1 0x20 DUP3 ADD SWAP1 POP SWAP2 SWAP1 POP JUMP JUMPDEST PUSH2 0x279F DUP2 PUSH2 0x2295 JUMP JUMPDEST DUP3 MSTORE POP POP JUMP JUMPDEST PUSH0 PUSH2 0x27B0 DUP4 DUP4 PUSH2 0x2796 JUMP JUMPDEST PUSH1 0x20 DUP4 ADD SWAP1 POP SWAP3 SWAP2 POP POP JUMP JUMPDEST PUSH0 PUSH1 0x20 DUP3 ADD SWAP1 POP SWAP2 SWAP1 POP JUMP JUMPDEST PUSH0 PUSH2 0x27D2 DUP3 PUSH2 0x276D JUMP JUMPDEST PUSH2 0x27DC DUP2 DUP6 PUSH2 0x2777 JUMP JUMPDEST SWAP4 POP PUSH2 0x27E7 DUP4 PUSH2 0x2787 JUMP JUMPDEST DUP1 PUSH0 JUMPDEST DUP4 DUP2 LT ISZERO PUSH2 0x2817 JUMPI DUP2 MLOAD PUSH2 0x27FE DUP9 DUP3 PUSH2 0x27A5 JUMP JUMPDEST SWAP8 POP PUSH2 0x2809 DUP4 PUSH2 0x27BC JUMP JUMPDEST SWAP3 POP POP PUSH1 0x1 DUP2 ADD SWAP1 POP PUSH2 0x27EA JUMP JUMPDEST POP DUP6 SWAP4 POP POP POP POP SWAP3 SWAP2 POP POP JUMP JUMPDEST PUSH0 PUSH1 0x20 DUP3 ADD SWAP1 POP DUP2 DUP2 SUB PUSH0 DUP4 ADD MSTORE PUSH2 0x283C DUP2 DUP5 PUSH2 0x27C8 JUMP JUMPDEST SWAP1 POP SWAP3 SWAP2 POP POP JUMP JUMPDEST PUSH0 PUSH0 PUSH1 0x40 DUP4 DUP6 SUB SLT ISZERO PUSH2 0x285A JUMPI PUSH2 0x2859 PUSH2 0x22D7 JUMP JUMPDEST JUMPDEST PUSH0 PUSH2 0x2867 DUP6 DUP3 DUP7 ADD PUSH2 0x22FE JUMP JUMPDEST SWAP3 POP POP PUSH1 0x20 DUP4 ADD CALLDATALOAD PUSH8 0xFFFFFFFFFFFFFFFF DUP2 GT ISZERO PUSH2 0x2888 JUMPI PUSH2 0x2887 PUSH2 0x22DB JUMP JUMPDEST JUMPDEST PUSH2 0x2894 DUP6 DUP3 DUP7 ADD PUSH2 0x266C JUMP JUMPDEST SWAP2 POP POP SWAP3 POP SWAP3 SWAP1 POP JUMP JUMPDEST PUSH2 0x28A7 DUP2 PUSH2 0x22DF JUMP JUMPDEST DUP3 MSTORE POP POP JUMP JUMPDEST PUSH1 0x40 DUP3 ADD PUSH0 DUP3 ADD MLOAD PUSH2 0x28C1 PUSH0 DUP6 ADD DUP3 PUSH2 0x289E JUMP JUMPDEST POP PUSH1 0x20 DUP3 ADD MLOAD PUSH2 0x28D4 PUSH1 0x20 DUP6 ADD DUP3 PUSH2 0x289E JUMP JUMPDEST POP POP POP POP JUMP JUMPDEST PUSH0 PUSH1 0x40 DUP3 ADD SWAP1 POP PUSH2 0x28ED PUSH0 DUP4 ADD DUP5 PUSH2 0x28AD JUMP JUMPDEST SWAP3 SWAP2 POP POP JUMP JUMPDEST PUSH0 DUP2 MLOAD SWAP1 POP SWAP2 SWAP1 POP JUMP JUMPDEST PUSH0 DUP3 DUP3 MSTORE PUSH1 0x20 DUP3 ADD SWAP1 POP SWAP3 SWAP2 POP POP JUMP JUMPDEST PUSH0 DUP2 SWAP1 POP PUSH1 0x20 DUP3 ADD SWAP1 POP SWAP2 SWAP1 POP JUMP JUMPDEST PUSH1 0x40 DUP3 ADD PUSH0 DUP3 ADD MLOAD PUSH2 0x2930 PUSH0 DUP6 ADD DUP3 PUSH2 0x289E JUMP JUMPDEST POP PUSH1 0x20 DUP3 ADD MLOAD PUSH2 0x2943 PUSH1 0x20 DUP6 ADD DUP3 PUSH2 0x289E JUMP JUMPDEST POP POP POP POP JUMP JUMPDEST PUSH0 PUSH2 0x2954 DUP4 DUP4 PUSH2 0x291C JUMP JUMPDEST PUSH1 0x40 DUP4 ADD SWAP1 POP SWAP3 SWAP2 POP POP JUMP JUMPDEST PUSH0 PUSH1 0x20 DUP3 ADD SWAP1 POP SWAP2 SWAP1 POP JUMP JUMPDEST PUSH0 PUSH2 0x2976 DUP3 PUSH2 0x28F3 JUMP JUMPDEST PUSH2 0x2980 DUP2 DUP6 PUSH2 0x28FD JUMP JUMPDEST SWAP4 POP PUSH2 0x298B DUP4 PUSH2 0x290D JUMP JUMPDEST DUP1 PUSH0 JUMPDEST DUP4 DUP2 LT ISZERO PUSH2 0x29BB JUMPI DUP2 MLOAD PUSH2 0x29A2 DUP9 DUP3 PUSH2 0x2949 JUMP JUMPDEST SWAP8 POP PUSH2 0x29AD DUP4 PUSH2 0x2960 JUMP JUMPDEST SWAP3 POP POP PUSH1 0x1 DUP2 ADD SWAP1 POP PUSH2 0x298E JUMP JUMPDEST POP DUP6 SWAP4 POP POP POP POP SWAP3 SWAP2 POP POP JUMP JUMPDEST PUSH0 PUSH1 0x20 DUP3 ADD SWAP1 POP DUP2 DUP2 SUB PUSH0 DUP4 ADD MSTORE PUSH2 0x29E0 DUP2 DUP5 PUSH2 0x296C JUMP JUMPDEST SWAP1 POP SWAP3 SWAP2 POP POP JUMP JUMPDEST PUSH0 DUP2 MLOAD SWAP1 POP SWAP2 SWAP1 POP JUMP JUMPDEST PUSH0 DUP3 DUP3 MSTORE PUSH1 0x20 DUP3 ADD SWAP1 POP SWAP3 SWAP2 POP POP JUMP JUMPDEST PUSH0 DUP2 SWAP1 POP PUSH1 0x20 DUP3 ADD SWAP1 POP SWAP2 SWAP1 POP JUMP JUMPDEST PUSH0 DUP3 DUP3 MSTORE PUSH1 0x20 DUP3 ADD SWAP1 POP SWAP3 SWAP2 POP POP JUMP JUMPDEST PUSH0 PUSH2 0x2A2B DUP3 PUSH2 0x233D JUMP JUMPDEST PUSH2 0x2A35 DUP2 DUP6 PUSH2 0x2A11 JUMP JUMPDEST SWAP4 POP PUSH2 0x2A45 DUP2 DUP6 PUSH1 0x20 DUP7 ADD PUSH2 0x2357 JUMP JUMPDEST PUSH2 0x2A4E DUP2 PUSH2 0x2365 JUMP JUMPDEST DUP5 ADD SWAP2 POP POP SWAP3 SWAP2 POP POP JUMP JUMPDEST PUSH2 0x2A62 DUP2 PUSH2 0x23BC JUMP JUMPDEST DUP3 MSTORE POP POP JUMP JUMPDEST PUSH0 PUSH1 0xE0 DUP4 ADD PUSH0 DUP4 ADD MLOAD PUSH2 0x2A7D PUSH0 DUP7 ADD DUP3 PUSH2 0x2796 JUMP JUMPDEST POP PUSH1 0x20 DUP4 ADD MLOAD DUP5 DUP3 SUB PUSH1 0x20 DUP7 ADD MSTORE PUSH2 0x2A95 DUP3 DUP3 PUSH2 0x2A21 JUMP JUMPDEST SWAP2 POP POP PUSH1 0x40 DUP4 ADD MLOAD DUP5 DUP3 SUB PUSH1 0x40 DUP7 ADD MSTORE PUSH2 0x2AAF DUP3 DUP3 PUSH2 0x2A21 JUMP JUMPDEST SWAP2 POP POP PUSH1 0x60 DUP4 ADD MLOAD DUP5 DUP3 SUB PUSH1 0x60 DUP7 ADD MSTORE PUSH2 0x2AC9 DUP3 DUP3 PUSH2 0x2A21 JUMP JUMPDEST SWAP2 POP POP PUSH1 0x80 DUP4 ADD MLOAD PUSH2 0x2ADE PUSH1 0x80 DUP7 ADD DUP3 PUSH2 0x289E JUMP JUMPDEST POP PUSH1 0xA0 DUP4 ADD MLOAD PUSH2 0x2AF1 PUSH1 0xA0 DUP7 ADD DUP3 PUSH2 0x289E JUMP JUMPDEST POP PUSH1 0xC0 DUP4 ADD MLOAD PUSH2 0x2B04 PUSH1 0xC0 DUP7 ADD DUP3 PUSH2 0x2A59 JUMP JUMPDEST POP DUP1 SWAP2 POP POP SWAP3 SWAP2 POP POP JUMP JUMPDEST PUSH0 PUSH2 0x2B1A DUP4 DUP4 PUSH2 0x2A68 JUMP JUMPDEST SWAP1 POP SWAP3 SWAP2 POP POP JUMP JUMPDEST PUSH0 PUSH1 0x20 DUP3 ADD SWAP1 POP SWAP2 SWAP1 POP JUMP JUMPDEST PUSH0 PUSH2 0x2B38 DUP3 PUSH2 0x29E8 JUMP JUMPDEST PUSH2 0x2B42 DUP2 DUP6 PUSH2 0x29F2 JUMP JUMPDEST SWAP4 POP DUP4 PUSH1 0x20 DUP3 MUL DUP6 ADD PUSH2 0x2B54 DUP6 PUSH2 0x2A02 JUMP JUMPDEST DUP1 PUSH0 JUMPDEST DUP6 DUP2 LT ISZERO PUSH2 0x2B8F JUMPI DUP5 DUP5 SUB DUP10 MSTORE DUP2 MLOAD PUSH2 0x2B70 DUP6 DUP3 PUSH2 0x2B0F JUMP JUMPDEST SWAP5 POP PUSH2 0x2B7B DUP4 PUSH2 0x2B22 JUMP JUMPDEST SWAP3 POP PUSH1 0x20 DUP11 ADD SWAP10 POP POP PUSH1 0x1 DUP2 ADD SWAP1 POP PUSH2 0x2B57 JUMP JUMPDEST POP DUP3 SWAP8 POP DUP8 SWAP6 POP POP POP POP POP POP SWAP3 SWAP2 POP POP JUMP JUMPDEST PUSH0 PUSH1 0x20 DUP3 ADD SWAP1 POP DUP2 DUP2 SUB PUSH0 DUP4 ADD MSTORE PUSH2 0x2BB9 DUP2 DUP5 PUSH2 0x2B2E JUMP JUMPDEST SWAP1 POP SWAP3 SWAP2 POP POP JUMP JUMPDEST PUSH32 0x4E487B7100000000000000000000000000000000000000000000000000000000 PUSH0 MSTORE PUSH1 0x22 PUSH1 0x4 MSTORE PUSH1 0x24 PUSH0 REVERT JUMPDEST PUSH0 PUSH1 0x2 DUP3 DIV SWAP1 POP PUSH1 0x1 DUP3 AND DUP1 PUSH2 0x2C05 JUMPI PUSH1 0x7F DUP3 AND SWAP2 POP JUMPDEST PUSH1 0x20 DUP3 LT DUP2 SUB PUSH2 0x2C18 JUMPI PUSH2 0x2C17 PUSH2 0x2BC1 JUMP JUMPDEST JUMPDEST POP SWAP2 SWAP1 POP JUMP JUMPDEST PUSH32 0x53797374656D206F776E65722063616E2774206372656174652070726F6A6563 PUSH0 DUP3 ADD MSTORE PUSH32 0x7473000000000000000000000000000000000000000000000000000000000000 PUSH1 0x20 DUP3 ADD MSTORE POP JUMP JUMPDEST PUSH0 PUSH2 0x2C78 PUSH1 0x22 DUP4 PUSH2 0x2347 JUMP JUMPDEST SWAP2 POP PUSH2 0x2C83 DUP3 PUSH2 0x2C1E JUMP JUMPDEST PUSH1 0x40 DUP3 ADD SWAP1 POP SWAP2 SWAP1 POP JUMP JUMPDEST PUSH0 PUSH1 0x20 DUP3 ADD SWAP1 POP DUP2 DUP2 SUB PUSH0 DUP4 ADD MSTORE PUSH2 0x2CA5 DUP2 PUSH2 0x2C6C JUMP JUMPDEST SWAP1 POP SWAP2 SWAP1 POP JUMP JUMPDEST PUSH0 DUP2 SWAP1 POP DUP2 PUSH0 MSTORE PUSH1 0x20 PUSH0 KECCAK256 SWAP1 POP SWAP2 SWAP1 POP JUMP JUMPDEST PUSH0 PUSH1 0x20 PUSH1 0x1F DUP4 ADD DIV SWAP1 POP SWAP2 SWAP1 POP JUMP JUMPDEST PUSH0 DUP3 DUP3 SHL SWAP1 POP SWAP3 SWAP2 POP POP JUMP JUMPDEST PUSH0 PUSH1 0x8 DUP4 MUL PUSH2 0x2D08 PUSH32 0xFFFFFFFFFFFFFFFFFFFFFFFFFFFFFFFFFFFFFFFFFFFFFFFFFFFFFFFFFFFFFFFF DUP3 PUSH2 0x2CCD JUMP JUMPDEST PUSH2 0x2D12 DUP7 DUP4 PUSH2 0x2CCD JUMP JUMPDEST SWAP6 POP DUP1 NOT DUP5 AND SWAP4 POP DUP1 DUP7 AND DUP5 OR SWAP3 POP POP POP SWAP4 SWAP3 POP POP POP JUMP JUMPDEST PUSH0 DUP2 SWAP1 POP SWAP2 SWAP1 POP JUMP JUMPDEST PUSH0 PUSH2 0x2D4D PUSH2 0x2D48 PUSH2 0x2D43 DUP5 PUSH2 0x22DF JUMP JUMPDEST PUSH2 0x2D2A JUMP JUMPDEST PUSH2 0x22DF JUMP JUMPDEST SWAP1 POP SWAP2 SWAP1 POP JUMP JUMPDEST PUSH0 DUP2 SWAP1 POP SWAP2 SWAP1 POP JUMP JUMPDEST PUSH2 0x2D66 DUP4 PUSH2 0x2D33 JUMP JUMPDEST PUSH2 0x2D7A PUSH2 0x2D72 DUP3 PUSH2 0x2D54 JUMP JUMPDEST DUP5 DUP5 SLOAD PUSH2 0x2CD9 JUMP JUMPDEST DUP3 SSTORE POP POP POP POP JUMP JUMPDEST PUSH0 PUSH0 SWAP1 POP SWAP1 JUMP JUMPDEST PUSH2 0x2D91 PUSH2 0x2D82 JUMP JUMPDEST PUSH2 0x2D9C DUP2 DUP5 DUP5 PUSH2 0x2D5D JUMP JUMPDEST POP POP POP JUMP JUMPDEST JUMPDEST DUP2 DUP2 LT ISZERO PUSH2 0x2DBF JUMPI PUSH2 0x2DB4 PUSH0 DUP3 PUSH2 0x2D89 JUMP JUMPDEST PUSH1 0x1 DUP2 ADD SWAP1 POP PUSH2 0x2DA2 JUMP JUMPDEST POP POP JUMP JUMPDEST PUSH1 0x1F DUP3 GT ISZERO PUSH2 0x2E04 JUMPI PUSH2 0x2DD5 DUP2 PUSH2 0x2CAC JUMP JUMPDEST PUSH2 0x2DDE DUP5 PUSH2 0x2CBE JUMP JUMPDEST DUP2 ADD PUSH1 0x20 DUP6 LT ISZERO PUSH2 0x2DED JUMPI DUP2 SWAP1 POP JUMPDEST PUSH2 0x2E01 PUSH2 0x2DF9 DUP6 PUSH2 0x2CBE JUMP JUMPDEST DUP4 ADD DUP3 PUSH2 0x2DA1 JUMP JUMPDEST POP POP JUMPDEST POP POP POP JUMP JUMPDEST PUSH0 DUP3 DUP3 SHR SWAP1 POP SWAP3 SWAP2 POP POP JUMP JUMPDEST PUSH0 PUSH2 0x2E24 PUSH0 NOT DUP5 PUSH1 0x8 MUL PUSH2 0x2E09 JUMP JUMPDEST NOT DUP1 DUP4 AND SWAP2 POP POP SWAP3 SWAP2 POP POP JUMP JUMPDEST PUSH0 PUSH2 0x2E3C DUP4 DUP4 PUSH2 0x2E15 JUMP JUMPDEST SWAP2 POP DUP3 PUSH1 0x2 MUL DUP3 OR SWAP1 POP SWAP3 SWAP2 POP POP JUMP JUMPDEST PUSH2 0x2E55 DUP3 PUSH2 0x233D JUMP JUMPDEST PUSH8 0xFFFFFFFFFFFFFFFF DUP2 GT ISZERO PUSH2 0x2E6E JUMPI PUSH2 0x2E6D PUSH2 0x2460 JUMP JUMPDEST JUMPDEST PUSH2 0x2E78 DUP3 SLOAD PUSH2 0x2BEE JUMP JUMPDEST PUSH2 0x2E83 DUP3 DUP3 DUP6 PUSH2 0x2DC3 JUMP JUMPDEST PUSH0 PUSH1 0x20 SWAP1 POP PUSH1 0x1F DUP4 GT PUSH1 0x1 DUP2 EQ PUSH2 0x2EB4 JUMPI PUSH0 DUP5 ISZERO PUSH2 0x2EA2 JUMPI DUP3 DUP8 ADD MLOAD SWAP1 POP JUMPDEST PUSH2 0x2EAC DUP6 DUP3 PUSH2 0x2E31 JUMP JUMPDEST DUP7 SSTORE POP PUSH2 0x2F13 JUMP JUMPDEST PUSH1 0x1F NOT DUP5 AND PUSH2 0x2EC2 DUP7 PUSH2 0x2CAC JUMP JUMPDEST PUSH0 JUMPDEST DUP3 DUP2 LT ISZERO PUSH2 0x2EE9 JUMPI DUP5 DUP10 ADD MLOAD DUP3 SSTORE PUSH1 0x1 DUP3 ADD SWAP2 POP PUSH1 0x20 DUP6 ADD SWAP5 POP PUSH1 0x20 DUP2 ADD SWAP1 POP PUSH2 0x2EC4 JUMP JUMPDEST DUP7 DUP4 LT ISZERO PUSH2 0x2F06 JUMPI DUP5 DUP10 ADD MLOAD PUSH2 0x2F02 PUSH1 0x1F DUP10 AND DUP3 PUSH2 0x2E15 JUMP JUMPDEST DUP4 SSTORE POP JUMPDEST PUSH1 0x1 PUSH1 0x2 DUP9 MUL ADD DUP9 SSTORE POP POP POP JUMPDEST POP POP POP POP POP POP JUMP JUMPDEST PUSH32 0x4E487B7100000000000000000000000000000000000000000000000000000000 PUSH0 MSTORE PUSH1 0x11 PUSH1 0x4 MSTORE PUSH1 0x24 PUSH0 REVERT JUMPDEST PUSH0 PUSH2 0x2F52 DUP3 PUSH2 0x22DF JUMP JUMPDEST SWAP2 POP PUSH2 0x2F5D DUP4 PUSH2 0x22DF JUMP JUMPDEST SWAP3 POP DUP3 DUP3 SUB SWAP1 POP DUP2 DUP2 GT ISZERO PUSH2 0x2F75 JUMPI PUSH2 0x2F74 PUSH2 0x2F1B JUMP JUMPDEST JUMPDEST SWAP3 SWAP2 POP POP JUMP JUMPDEST PUSH0 PUSH1 0x20 DUP3 ADD SWAP1 POP PUSH2 0x2F8E PUSH0 DUP4 ADD DUP5 PUSH2 0x23AD JUMP JUMPDEST SWAP3 SWAP2 POP POP JUMP JUMPDEST PUSH32 0x4E487B7100000000000000000000000000000000000000000000000000000000 PUSH0 MSTORE PUSH1 0x32 PUSH1 0x4 MSTORE PUSH1 0x24 PUSH0 REVERT JUMPDEST PUSH32 0x496E76616C69642070726F6A6563747320696E64657800000000000000000000 PUSH0 DUP3 ADD MSTORE POP JUMP JUMPDEST PUSH0 PUSH2 0x2FF5 PUSH1 0x16 DUP4 PUSH2 0x2347 JUMP JUMPDEST SWAP2 POP PUSH2 0x3000 DUP3 PUSH2 0x2FC1 JUMP JUMPDEST PUSH1 0x20 DUP3 ADD SWAP1 POP SWAP2 SWAP1 POP JUMP JUMPDEST PUSH0 PUSH1 0x20 DUP3 ADD SWAP1 POP DUP2 DUP2 SUB PUSH0 DUP4 ADD MSTORE PUSH2 0x3022 DUP2 PUSH2 0x2FE9 JUMP JUMPDEST SWAP1 POP SWAP2 SWAP1 POP JUMP JUMPDEST PUSH32 0x50726F6A656374206D7573742062652061637469766500000000000000000000 PUSH0 DUP3 ADD MSTORE POP JUMP JUMPDEST PUSH0 PUSH2 0x305D PUSH1 0x16 DUP4 PUSH2 0x2347 JUMP JUMPDEST SWAP2 POP PUSH2 0x3068 DUP3 PUSH2 0x3029 JUMP JUMPDEST PUSH1 0x20 DUP3 ADD SWAP1 POP SWAP2 SWAP1 POP JUMP JUMPDEST PUSH0 PUSH1 0x20 DUP3 ADD SWAP1 POP DUP2 DUP2 SUB PUSH0 DUP4 ADD MSTORE PUSH2 0x308A DUP2 PUSH2 0x3051 JUMP JUMPDEST SWAP1 POP SWAP2 SWAP1 POP JUMP JUMPDEST PUSH32 0x4D696C6573746F6E652073686F756C64206265206E6F74207265616368656400 PUSH0 DUP3 ADD MSTORE POP JUMP JUMPDEST PUSH0 PUSH2 0x30C5 PUSH1 0x1F DUP4 PUSH2 0x2347 JUMP JUMPDEST SWAP2 POP PUSH2 0x30D0 DUP3 PUSH2 0x3091 JUMP JUMPDEST PUSH1 0x20 DUP3 ADD SWAP1 POP SWAP2 SWAP1 POP JUMP JUMPDEST PUSH0 PUSH1 0x20 DUP3 ADD SWAP1 POP DUP2 DUP2 SUB PUSH0 DUP4 ADD MSTORE PUSH2 0x30F2 DUP2 PUSH2 0x30B9 JUMP JUMPDEST SWAP1 POP SWAP2 SWAP1 POP JUMP JUMPDEST PUSH0 PUSH1 0x80 DUP3 ADD SWAP1 POP PUSH2 0x310C PUSH0 DUP4 ADD DUP8 PUSH2 0x23AD JUMP JUMPDEST PUSH2 0x3119 PUSH1 0x20 DUP4 ADD DUP7 PUSH2 0x23AD JUMP JUMPDEST PUSH2 0x3126 PUSH1 0x40 DUP4 ADD DUP6 PUSH2 0x23AD JUMP JUMPDEST PUSH2 0x3133 PUSH1 0x60 DUP4 ADD DUP5 PUSH2 0x23AD JUMP JUMPDEST SWAP6 SWAP5 POP POP POP POP POP JUMP JUMPDEST PUSH32 0x50726F6A65637420646F65736E27742065786973740000000000000000000000 PUSH0 DUP3 ADD MSTORE POP JUMP JUMPDEST PUSH0 PUSH2 0x3170 PUSH1 0x15 DUP4 PUSH2 0x2347 JUMP JUMPDEST SWAP2 POP PUSH2 0x317B DUP3 PUSH2 0x313C JUMP JUMPDEST PUSH1 0x20 DUP3 ADD SWAP1 POP SWAP2 SWAP1 POP JUMP JUMPDEST PUSH0 PUSH1 0x20 DUP3 ADD SWAP1 POP DUP2 DUP2 SUB PUSH0 DUP4 ADD MSTORE PUSH2 0x319D DUP2 PUSH2 0x3164 JUMP JUMPDEST SWAP1 POP SWAP2 SWAP1 POP JUMP JUMPDEST PUSH32 0x596F7520646F6E74206861766520656E6F756768206D6F6E657920746F206675 PUSH0 DUP3 ADD MSTORE PUSH32 0x6E64000000000000000000000000000000000000000000000000000000000000 PUSH1 0x20 DUP3 ADD MSTORE POP JUMP JUMPDEST PUSH0 PUSH2 0x31FE PUSH1 0x22 DUP4 PUSH2 0x2347 JUMP JUMPDEST SWAP2 POP PUSH2 0x3209 DUP3 PUSH2 0x31A4 JUMP JUMPDEST PUSH1 0x40 DUP3 ADD SWAP1 POP SWAP2 SWAP1 POP JUMP JUMPDEST PUSH0 PUSH1 0x20 DUP3 ADD SWAP1 POP DUP2 DUP2 SUB PUSH0 DUP4 ADD MSTORE PUSH2 0x322B DUP2 PUSH2 0x31F2 JUMP JUMPDEST SWAP1 POP SWAP2 SWAP1 POP JUMP JUMPDEST PUSH32 0x46756E6420616D6F756E742063616E2774206265203000000000000000000000 PUSH0 DUP3 ADD MSTORE POP JUMP JUMPDEST PUSH0 PUSH2 0x3266 PUSH1 0x16 DUP4 PUSH2 0x2347 JUMP JUMPDEST SWAP2 POP PUSH2 0x3271 DUP3 PUSH2 0x3232 JUMP JUMPDEST PUSH1 0x20 DUP3 ADD SWAP1 POP SWAP2 SWAP1 POP JUMP JUMPDEST PUSH0 PUSH1 0x20 DUP3 ADD SWAP1 POP DUP2 DUP2 SUB PUSH0 DUP4 ADD MSTORE PUSH2 0x3293 DUP2 PUSH2 0x325A JUMP JUMPDEST SWAP1 POP SWAP2 SWAP1 POP JUMP JUMPDEST PUSH32 0x50726F6A656374206D7573742062652061637469766520746F2066756E640000 PUSH0 DUP3 ADD MSTORE POP JUMP JUMPDEST PUSH0 PUSH2 0x32CE PUSH1 0x1E DUP4 PUSH2 0x2347 JUMP JUMPDEST SWAP2 POP PUSH2 0x32D9 DUP3 PUSH2 0x329A JUMP JUMPDEST PUSH1 0x20 DUP3 ADD SWAP1 POP SWAP2 SWAP1 POP JUMP JUMPDEST PUSH0 PUSH1 0x20 DUP3 ADD SWAP1 POP DUP2 DUP2 SUB PUSH0 DUP4 ADD MSTORE PUSH2 0x32FB DUP2 PUSH2 0x32C2 JUMP JUMPDEST SWAP1 POP SWAP2 SWAP1 POP JUMP JUMPDEST PUSH32 0x596F752063616E27742066756E6420616674657220646561646C696E65000000 PUSH0 DUP3 ADD MSTORE POP JUMP JUMPDEST PUSH0 PUSH2 0x3336 PUSH1 0x1D DUP4 PUSH2 0x2347 JUMP JUMPDEST SWAP2 POP PUSH2 0x3341 DUP3 PUSH2 0x3302 JUMP JUMPDEST PUSH1 0x20 DUP3 ADD SWAP1 POP SWAP2 SWAP1 POP JUMP JUMPDEST PUSH0 PUSH1 0x20 DUP3 ADD SWAP1 POP DUP2 DUP2 SUB PUSH0 DUP4 ADD MSTORE PUSH2 0x3363 DUP2 PUSH2 0x332A JUMP JUMPDEST SWAP1 POP SWAP2 SWAP1 POP JUMP JUMPDEST PUSH0 PUSH2 0x3374 DUP3 PUSH2 0x22DF JUMP JUMPDEST SWAP2 POP PUSH2 0x337F DUP4 PUSH2 0x22DF JUMP JUMPDEST SWAP3 POP DUP3 DUP3 ADD SWAP1 POP DUP1 DUP3 GT ISZERO PUSH2 0x3397 JUMPI PUSH2 0x3396 PUSH2 0x2F1B JUMP JUMPDEST JUMPDEST SWAP3 SWAP2 POP POP JUMP JUMPDEST PUSH0 DUP2 SWAP1 POP SWAP3 SWAP2 POP POP JUMP JUMPDEST POP JUMP JUMPDEST PUSH0 PUSH2 0x33B5 PUSH0 DUP4 PUSH2 0x339D JUMP JUMPDEST SWAP2 POP PUSH2 0x33C0 DUP3 PUSH2 0x33A7 JUMP JUMPDEST PUSH0 DUP3 ADD SWAP1 POP SWAP2 SWAP1 POP JUMP JUMPDEST PUSH0 PUSH2 0x33D4 DUP3 PUSH2 0x33AA JUMP JUMPDEST SWAP2 POP DUP2 SWAP1 POP SWAP2 SWAP1 POP JUMP JUMPDEST PUSH32 0x4661696C656420746F2072657475726E20737572706C75730000000000000000 PUSH0 DUP3 ADD MSTORE POP JUMP JUMPDEST PUSH0 PUSH2 0x3412 PUSH1 0x18 DUP4 PUSH2 0x2347 JUMP JUMPDEST SWAP2 POP PUSH2 0x341D DUP3 PUSH2 0x33DE JUMP JUMPDEST PUSH1 0x20 DUP3 ADD SWAP1 POP SWAP2 SWAP1 POP JUMP JUMPDEST PUSH0 PUSH1 0x20 DUP3 ADD SWAP1 POP DUP2 DUP2 SUB PUSH0 DUP4 ADD MSTORE PUSH2 0x343F DUP2 PUSH2 0x3406 JUMP JUMPDEST SWAP1 POP SWAP2 SWAP1 POP JUMP JUMPDEST PUSH32 0x4F6E6C792073797374656D206F776E6572206F722070726F6A656374206F776E PUSH0 DUP3 ADD MSTORE PUSH32 0x65722063616E2073746F702070726F6A65637473000000000000000000000000 PUSH1 0x20 DUP3 ADD MSTORE POP JUMP JUMPDEST PUSH0 PUSH2 0x34A0 PUSH1 0x34 DUP4 PUSH2 0x2347 JUMP JUMPDEST SWAP2 POP PUSH2 0x34AB DUP3 PUSH2 0x3446 JUMP JUMPDEST PUSH1 0x40 DUP3 ADD SWAP1 POP SWAP2 SWAP1 POP JUMP JUMPDEST PUSH0 PUSH1 0x20 DUP3 ADD SWAP1 POP DUP2 DUP2 SUB PUSH0 DUP4 ADD MSTORE PUSH2 0x34CD DUP2 PUSH2 0x3494 JUMP JUMPDEST SWAP1 POP SWAP2 SWAP1 POP JUMP JUMPDEST PUSH32 0x4F6E6C79207379734F776E65722063616E20646561637469766174652070726F PUSH0 DUP3 ADD MSTORE PUSH32 0x6A65637473000000000000000000000000000000000000000000000000000000 PUSH1 0x20 DUP3 ADD MSTORE POP JUMP JUMPDEST PUSH0 PUSH2 0x352E PUSH1 0x25 DUP4 PUSH2 0x2347 JUMP JUMPDEST SWAP2 POP PUSH2 0x3539 DUP3 PUSH2 0x34D4 JUMP JUMPDEST PUSH1 0x40 DUP3 ADD SWAP1 POP SWAP2 SWAP1 POP JUMP JUMPDEST PUSH0 PUSH1 0x20 DUP3 ADD SWAP1 POP DUP2 DUP2 SUB PUSH0 DUP4 ADD MSTORE PUSH2 0x355B DUP2 PUSH2 0x3522 JUMP JUMPDEST SWAP1 POP SWAP2 SWAP1 POP JUMP JUMPDEST PUSH32 0x43616E6E6F7420616464206E6577206D696C6573746F6E657320746F20696E61 PUSH0 DUP3 ADD MSTORE PUSH32 0x63746976652070726F6A65637400000000000000000000000000000000000000 PUSH1 0x20 DUP3 ADD MSTORE POP JUMP JUMPDEST PUSH0 PUSH2 0x35BC PUSH1 0x2D DUP4 PUSH2 0x2347 JUMP JUMPDEST SWAP2 POP PUSH2 0x35C7 DUP3 PUSH2 0x3562 JUMP JUMPDEST PUSH1 0x40 DUP3 ADD SWAP1 POP SWAP2 SWAP1 POP JUMP JUMPDEST PUSH0 PUSH1 0x20 DUP3 ADD SWAP1 POP DUP2 DUP2 SUB PUSH0 DUP4 ADD MSTORE PUSH2 0x35E9 DUP2 PUSH2 0x35B0 JUMP JUMPDEST SWAP1 POP SWAP2 SWAP1 POP JUMP JUMPDEST PUSH32 0x4F6E6C792070726F6A6563742063726561746F722063616E20616464206E6577 PUSH0 DUP3 ADD MSTORE PUSH32 0x206D696C6573746F6E6573000000000000000000000000000000000000000000 PUSH1 0x20 DUP3 ADD MSTORE POP JUMP JUMPDEST PUSH0 PUSH2 0x364A PUSH1 0x2B DUP4 PUSH2 0x2347 JUMP JUMPDEST SWAP2 POP PUSH2 0x3655 DUP3 PUSH2 0x35F0 JUMP JUMPDEST PUSH1 0x40 DUP3 ADD SWAP1 POP SWAP2 SWAP1 POP JUMP JUMPDEST PUSH0 PUSH1 0x20 DUP3 ADD SWAP1 POP DUP2 DUP2 SUB PUSH0 DUP4 ADD MSTORE PUSH2 0x3677 DUP2 PUSH2 0x363E JUMP JUMPDEST SWAP1 POP SWAP2 SWAP1 POP JUMP JUMPDEST PUSH32 0x4D7573742068617665206174206C65617374206F6E65206D696C6573746F6E65 PUSH0 DUP3 ADD MSTORE POP JUMP JUMPDEST PUSH0 PUSH2 0x36B2 PUSH1 0x20 DUP4 PUSH2 0x2347 JUMP JUMPDEST SWAP2 POP PUSH2 0x36BD DUP3 PUSH2 0x367E JUMP JUMPDEST PUSH1 0x20 DUP3 ADD SWAP1 POP SWAP2 SWAP1 POP JUMP JUMPDEST PUSH0 PUSH1 0x20 DUP3 ADD SWAP1 POP DUP2 DUP2 SUB PUSH0 DUP4 ADD MSTORE PUSH2 0x36DF DUP2 PUSH2 0x36A6 JUMP JUMPDEST SWAP1 POP SWAP2 SWAP1 POP JUMP JUMPDEST PUSH32 0x476F616C20616D6F756E742063616E2774206265203000000000000000000000 PUSH0 DUP3 ADD MSTORE POP JUMP JUMPDEST PUSH0 PUSH2 0x371A PUSH1 0x16 DUP4 PUSH2 0x2347 JUMP JUMPDEST SWAP2 POP PUSH2 0x3725 DUP3 PUSH2 0x36E6 JUMP JUMPDEST PUSH1 0x20 DUP3 ADD SWAP1 POP SWAP2 SWAP1 POP JUMP JUMPDEST PUSH0 PUSH1 0x20 DUP3 ADD SWAP1 POP DUP2 DUP2 SUB PUSH0 DUP4 ADD MSTORE PUSH2 0x3747 DUP2 PUSH2 0x370E JUMP JUMPDEST SWAP1 POP SWAP2 SWAP1 POP JUMP JUMPDEST PUSH32 0x446561646C696E652063616E277420626520696E207468652070617374000000 PUSH0 DUP3 ADD MSTORE POP JUMP JUMPDEST PUSH0 PUSH2 0x3782 PUSH1 0x1D DUP4 PUSH2 0x2347 JUMP JUMPDEST SWAP2 POP PUSH2 0x378D DUP3 PUSH2 0x374E JUMP JUMPDEST PUSH1 0x20 DUP3 ADD SWAP1 POP SWAP2 SWAP1 POP JUMP JUMPDEST PUSH0 PUSH1 0x20 DUP3 ADD SWAP1 POP DUP2 DUP2 SUB PUSH0 DUP4 ADD MSTORE PUSH2 0x37AF DUP2 PUSH2 0x3776 JUMP JUMPDEST SWAP1 POP SWAP2 SWAP1 POP JUMP JUMPDEST PUSH32 0x4D696C6573746F6E6520676F616C732073686F756C6420626520696E63726561 PUSH0 DUP3 ADD MSTORE PUSH32 0x73696E6700000000000000000000000000000000000000000000000000000000 PUSH1 0x20 DUP3 ADD MSTORE POP JUMP JUMPDEST PUSH0 PUSH2 0x3810 PUSH1 0x24 DUP4 PUSH2 0x2347 JUMP JUMPDEST SWAP2 POP PUSH2 0x381B DUP3 PUSH2 0x37B6 JUMP JUMPDEST PUSH1 0x40 DUP3 ADD SWAP1 POP SWAP2 SWAP1 POP JUMP JUMPDEST PUSH0 PUSH1 0x20 DUP3 ADD SWAP1 POP DUP2 DUP2 SUB PUSH0 DUP4 ADD MSTORE PUSH2 0x383D DUP2 PUSH2 0x3804 JUMP JUMPDEST SWAP1 POP SWAP2 SWAP1 POP JUMP JUMPDEST PUSH32 0x4D696C6573746F6E6520646561646C696E65732073686F756C6420626520696E PUSH0 DUP3 ADD MSTORE PUSH32 0x6372656173696E67000000000000000000000000000000000000000000000000 PUSH1 0x20 DUP3 ADD MSTORE POP JUMP JUMPDEST PUSH0 PUSH2 0x389E PUSH1 0x28 DUP4 PUSH2 0x2347 JUMP JUMPDEST SWAP2 POP PUSH2 0x38A9 DUP3 PUSH2 0x3844 JUMP JUMPDEST PUSH1 0x40 DUP3 ADD SWAP1 POP SWAP2 SWAP1 POP JUMP JUMPDEST PUSH0 PUSH1 0x20 DUP3 ADD SWAP1 POP DUP2 DUP2 SUB PUSH0 DUP4 ADD MSTORE PUSH2 0x38CB DUP2 PUSH2 0x3892 JUMP JUMPDEST SWAP1 POP SWAP2 SWAP1 POP JUMP JUMPDEST PUSH0 PUSH2 0x38DC DUP3 PUSH2 0x22DF JUMP JUMPDEST SWAP2 POP PUSH32 0xFFFFFFFFFFFFFFFFFFFFFFFFFFFFFFFFFFFFFFFFFFFFFFFFFFFFFFFFFFFFFFFF DUP3 SUB PUSH2 0x390E JUMPI PUSH2 0x390D PUSH2 0x2F1B JUMP JUMPDEST JUMPDEST PUSH1 0x1 DUP3 ADD SWAP1 POP SWAP2 SWAP1 POP JUMP JUMPDEST PUSH32 0x43616E6E6F742073746F7020696E6163746976652070726F6A65637400000000 PUSH0 DUP3 ADD MSTORE POP JUMP JUMPDEST PUSH0 PUSH2 0x394D PUSH1 0x1C DUP4 PUSH2 0x2347 JUMP JUMPDEST SWAP2 POP PUSH2 0x3958 DUP3 PUSH2 0x3919 JUMP JUMPDEST PUSH1 0x20 DUP3 ADD SWAP1 POP SWAP2 SWAP1 POP JUMP JUMPDEST PUSH0 PUSH1 0x20 DUP3 ADD SWAP1 POP DUP2 DUP2 SUB PUSH0 DUP4 ADD MSTORE PUSH2 0x397A DUP2 PUSH2 0x3941 JUMP JUMPDEST SWAP1 POP SWAP2 SWAP1 POP JUMP JUMPDEST PUSH32 0x5472616E7366657220746F2063726561746F72206661696C6564000000000000 PUSH0 DUP3 ADD MSTORE POP JUMP JUMPDEST PUSH0 PUSH2 0x39B5 PUSH1 0x1A DUP4 PUSH2 0x2347 JUMP JUMPDEST SWAP2 POP PUSH2 0x39C0 DUP3 PUSH2 0x3981 JUMP JUMPDEST PUSH1 0x20 DUP3 ADD SWAP1 POP SWAP2 SWAP1 POP JUMP JUMPDEST PUSH0 PUSH1 0x20 DUP3 ADD SWAP1 POP DUP2 DUP2 SUB PUSH0 DUP4 ADD MSTORE PUSH2 0x39E2 DUP2 PUSH2 0x39A9 JUMP JUMPDEST SWAP1 POP SWAP2 SWAP1 POP JUMP JUMPDEST PUSH32 0x526566756E64206661696C656400000000000000000000000000000000000000 PUSH0 DUP3 ADD MSTORE POP JUMP JUMPDEST PUSH0 PUSH2 0x3A1D PUSH1 0xD DUP4 PUSH2 0x2347 JUMP JUMPDEST SWAP2 POP PUSH2 0x3A28 DUP3 PUSH2 0x39E9 JUMP JUMPDEST PUSH1 0x20 DUP3 ADD SWAP1 POP SWAP2 SWAP1 POP JUMP JUMPDEST PUSH0 PUSH1 0x20 DUP3 ADD SWAP1 POP DUP2 DUP2 SUB PUSH0 DUP4 ADD MSTORE PUSH2 0x3A4A DUP2 PUSH2 0x3A11 JUMP JUMPDEST SWAP1 POP SWAP2 SWAP1 POP JUMP INVALID LOG2 PUSH5 0x6970667358 0x22 SLT KECCAK256 0xB8 EXTSTATICCALL DUPN 0x4 0x25 DELEGATECALL BYTE EXTCALL 0xC0 0xD5 DUP15 0xC2 0xB6 0xF7 0x2C 0xDD 0xD7 0x24 PUSH29 0x96CA6228B8B22DC456AEC6466D64736F6C634300081E00330000000000 "
		},
		"gasEstimates": {
			"creation": {
				"codeDepositCost": "2996600",
				"executionCost": "27556",
				"totalCost": "3024156"
			},
			"external": {
				"addNewMilestones(uint256,(uint256,uint256)[])": "infinite",
				"checkCurrentMilestone(uint256)": "infinite",
				"createProject(string,string,string,(uint256,uint256)[])": "infinite",
				"deactivateProjectsWithExpiredDeadlines()": "infinite",
				"fundProject(uint256)": "infinite",
				"getAllActiveProjects()": "infinite",
				"getCurrentMilestoneFunders(uint256)": "infinite",
				"getCurrentMilestoneInfo(uint256)": "infinite",
				"getallMilestonesInfo(uint256)": "infinite",
				"projects(uint256)": "infinite",
				"stopProject(uint256)": "infinite",
				"sysOwner()": "2508"
			},
			"internal": {
				"initiateNextMilestone(uint256)": "infinite",
				"refundMilestone(uint256,uint256)": "infinite",
				"sendMoneyToOwner(address,uint256)": "infinite",
				"stopProjectHelper(uint256)": "infinite"
			}
		},
		"methodIdentifiers": {
			"addNewMilestones(uint256,(uint256,uint256)[])": "ae632181",
			"checkCurrentMilestone(uint256)": "4e94e824",
			"createProject(string,string,string,(uint256,uint256)[])": "1a86e67d",
			"deactivateProjectsWithExpiredDeadlines()": "7808de38",
			"fundProject(uint256)": "6c563abe",
			"getAllActiveProjects()": "f2ef441b",
			"getCurrentMilestoneFunders(uint256)": "33ec0fc5",
			"getCurrentMilestoneInfo(uint256)": "b99122af",
			"getallMilestonesInfo(uint256)": "d8a5b36d",
			"projects(uint256)": "107046bd",
			"stopProject(uint256)": "6db7a960",
			"sysOwner()": "0e4877d6"
		}
	},
	"abi": [
		{
			"inputs": [],
			"stateMutability": "nonpayable",
			"type": "constructor"
		},
		{
			"anonymous": false,
			"inputs": [
				{
					"indexed": false,
					"internalType": "uint256",
					"name": "deadline",
					"type": "uint256"
				},
				{
					"indexed": false,
					"internalType": "uint256",
					"name": "goalAmount",
					"type": "uint256"
				},
				{
					"indexed": false,
					"internalType": "uint256",
					"name": "totalFunded",
					"type": "uint256"
				},
				{
					"indexed": false,
					"internalType": "uint256",
					"name": "currentMileStoneTotalFunded",
					"type": "uint256"
				}
			],
			"name": "CurrentMilestoneStatus",
			"type": "event"
		},
		{
			"anonymous": false,
			"inputs": [
				{
					"indexed": false,
					"internalType": "uint256",
					"name": "projectIndex",
					"type": "uint256"
				}
			],
			"name": "ProjectCreated",
			"type": "event"
		},
		{
			"anonymous": false,
			"inputs": [
				{
					"indexed": false,
					"internalType": "uint256",
					"name": "projectIndex",
					"type": "uint256"
				},
				{
					"indexed": false,
					"internalType": "uint256",
					"name": "amount",
					"type": "uint256"
				},
				{
					"indexed": false,
					"internalType": "uint256",
					"name": "totalFunded",
					"type": "uint256"
				},
				{
					"indexed": false,
					"internalType": "uint256",
					"name": "currentMilestoneTotalFunded",
					"type": "uint256"
				}
			],
			"name": "ProjectFunded",
			"type": "event"
		},
		{
			"inputs": [
				{
					"internalType": "uint256",
					"name": "projectIndex",
					"type": "uint256"
				},
				{
					"components": [
						{
							"internalType": "uint256",
							"name": "goalAmount",
							"type": "uint256"
						},
						{
							"internalType": "uint256",
							"name": "deadline",
							"type": "uint256"
						}
					],
					"internalType": "struct MilestoneInfo[]",
					"name": "milestones",
					"type": "tuple[]"
				}
			],
			"name": "addNewMilestones",
			"outputs": [],
			"stateMutability": "nonpayable",
			"type": "function"
		},
		{
			"inputs": [
				{
					"internalType": "uint256",
					"name": "projectIndex",
					"type": "uint256"
				}
			],
			"name": "checkCurrentMilestone",
			"outputs": [],
			"stateMutability": "nonpayable",
			"type": "function"
		},
		{
			"inputs": [
				{
					"internalType": "string",
					"name": "name",
					"type": "string"
				},
				{
					"internalType": "string",
					"name": "headerImageUrl",
					"type": "string"
				},
				{
					"internalType": "string",
					"name": "description",
					"type": "string"
				},
				{
					"components": [
						{
							"internalType": "uint256",
							"name": "goalAmount",
							"type": "uint256"
						},
						{
							"internalType": "uint256",
							"name": "deadline",
							"type": "uint256"
						}
					],
					"internalType": "struct MilestoneInfo[]",
					"name": "milestones",
					"type": "tuple[]"
				}
			],
			"name": "createProject",
			"outputs": [],
			"stateMutability": "nonpayable",
			"type": "function"
		},
		{
			"inputs": [],
			"name": "deactivateProjectsWithExpiredDeadlines",
			"outputs": [],
			"stateMutability": "nonpayable",
			"type": "function"
		},
		{
			"inputs": [
				{
					"internalType": "uint256",
					"name": "projectIndex",
					"type": "uint256"
				}
			],
			"name": "fundProject",
			"outputs": [],
			"stateMutability": "payable",
			"type": "function"
		},
		{
			"inputs": [],
			"name": "getAllActiveProjects",
			"outputs": [
				{
					"components": [
						{
							"internalType": "address",
							"name": "creator",
							"type": "address"
						},
						{
							"internalType": "string",
							"name": "name",
							"type": "string"
						},
						{
							"internalType": "string",
							"name": "headerImageUrl",
							"type": "string"
						},
						{
							"internalType": "string",
							"name": "description",
							"type": "string"
						},
						{
							"internalType": "uint256",
							"name": "totalFunded",
							"type": "uint256"
						},
						{
							"internalType": "uint256",
							"name": "currentMilestoneIndex",
							"type": "uint256"
						},
						{
							"internalType": "bool",
							"name": "isActive",
							"type": "bool"
						}
					],
					"internalType": "struct ProjectView[]",
					"name": "",
					"type": "tuple[]"
				}
			],
			"stateMutability": "view",
			"type": "function"
		},
		{
			"inputs": [
				{
					"internalType": "uint256",
					"name": "projectIndex",
					"type": "uint256"
				}
			],
			"name": "getCurrentMilestoneFunders",
			"outputs": [
				{
					"internalType": "address[]",
					"name": "",
					"type": "address[]"
				}
			],
			"stateMutability": "view",
			"type": "function"
		},
		{
			"inputs": [
				{
					"internalType": "uint256",
					"name": "projectIndex",
					"type": "uint256"
				}
			],
			"name": "getCurrentMilestoneInfo",
			"outputs": [
				{
					"components": [
						{
							"internalType": "uint256",
							"name": "goalAmount",
							"type": "uint256"
						},
						{
							"internalType": "uint256",
							"name": "deadline",
							"type": "uint256"
						}
					],
					"internalType": "struct MilestoneInfo",
					"name": "",
					"type": "tuple"
				}
			],
			"stateMutability": "view",
			"type": "function"
		},
		{
			"inputs": [
				{
					"internalType": "uint256",
					"name": "projectIndex",
					"type": "uint256"
				}
			],
			"name": "getallMilestonesInfo",
			"outputs": [
				{
					"components": [
						{
							"internalType": "uint256",
							"name": "goalAmount",
							"type": "uint256"
						},
						{
							"internalType": "uint256",
							"name": "deadline",
							"type": "uint256"
						}
					],
					"internalType": "struct MilestoneInfo[]",
					"name": "",
					"type": "tuple[]"
				}
			],
			"stateMutability": "view",
			"type": "function"
		},
		{
			"inputs": [
				{
					"internalType": "uint256",
					"name": "",
					"type": "uint256"
				}
			],
			"name": "projects",
			"outputs": [
				{
					"internalType": "address",
					"name": "creator",
					"type": "address"
				},
				{
					"internalType": "string",
					"name": "name",
					"type": "string"
				},
				{
					"internalType": "string",
					"name": "headerImageUrl",
					"type": "string"
				},
				{
					"internalType": "string",
					"name": "description",
					"type": "string"
				},
				{
					"internalType": "uint256",
					"name": "totalFunded",
					"type": "uint256"
				},
				{
					"internalType": "uint256",
					"name": "currentMilestoneIndex",
					"type": "uint256"
				},
				{
					"internalType": "bool",
					"name": "isActive",
					"type": "bool"
				}
			],
			"stateMutability": "view",
			"type": "function"
		},
		{
			"inputs": [
				{
					"internalType": "uint256",
					"name": "projectIndex",
					"type": "uint256"
				}
			],
			"name": "stopProject",
			"outputs": [],
			"stateMutability": "nonpayable",
			"type": "function"
		},
		{
			"inputs": [],
			"name": "sysOwner",
			"outputs": [
				{
					"internalType": "address",
					"name": "",
					"type": "address"
				}
			],
			"stateMutability": "view",
			"type": "function"
		}
	]
}